Archive member included to satisfy reference by file (symbol)

d:/st/stm32cubeide_1.8.0/stm32cubeide/plugins/com.st.stm32cube.ide.mcu.externaltools.gnu-tools-for-stm32.9-2020-q2-update.win32_2.0.0.202105311346/tools/bin/../lib/gcc/arm-none-eabi/9.3.1/../../../../arm-none-eabi/lib/thumb/v7e-m+fp/hard\libc_nano.a(lib_a-ctype_.o)
                              ./user/myprintf.o (_ctype_)
d:/st/stm32cubeide_1.8.0/stm32cubeide/plugins/com.st.stm32cube.ide.mcu.externaltools.gnu-tools-for-stm32.9-2020-q2-update.win32_2.0.0.202105311346/tools/bin/../lib/gcc/arm-none-eabi/9.3.1/../../../../arm-none-eabi/lib/thumb/v7e-m+fp/hard\libc_nano.a(lib_a-errno.o)
                              ./Core/Src/syscalls.o (__errno)
d:/st/stm32cubeide_1.8.0/stm32cubeide/plugins/com.st.stm32cube.ide.mcu.externaltools.gnu-tools-for-stm32.9-2020-q2-update.win32_2.0.0.202105311346/tools/bin/../lib/gcc/arm-none-eabi/9.3.1/../../../../arm-none-eabi/lib/thumb/v7e-m+fp/hard\libc_nano.a(lib_a-exit.o)
                              d:/st/stm32cubeide_1.8.0/stm32cubeide/plugins/com.st.stm32cube.ide.mcu.externaltools.gnu-tools-for-stm32.9-2020-q2-update.win32_2.0.0.202105311346/tools/bin/../lib/gcc/arm-none-eabi/9.3.1/../../../../arm-none-eabi/lib/thumb/v7e-m+fp/hard/crt0.o (exit)
d:/st/stm32cubeide_1.8.0/stm32cubeide/plugins/com.st.stm32cube.ide.mcu.externaltools.gnu-tools-for-stm32.9-2020-q2-update.win32_2.0.0.202105311346/tools/bin/../lib/gcc/arm-none-eabi/9.3.1/../../../../arm-none-eabi/lib/thumb/v7e-m+fp/hard\libc_nano.a(lib_a-findfp.o)
                              ./Middlewares/Third_Party/FreeRTOS/Source/tasks.o (__sf_fake_stderr)
d:/st/stm32cubeide_1.8.0/stm32cubeide/plugins/com.st.stm32cube.ide.mcu.externaltools.gnu-tools-for-stm32.9-2020-q2-update.win32_2.0.0.202105311346/tools/bin/../lib/gcc/arm-none-eabi/9.3.1/../../../../arm-none-eabi/lib/thumb/v7e-m+fp/hard\libc_nano.a(lib_a-fwalk.o)
                              d:/st/stm32cubeide_1.8.0/stm32cubeide/plugins/com.st.stm32cube.ide.mcu.externaltools.gnu-tools-for-stm32.9-2020-q2-update.win32_2.0.0.202105311346/tools/bin/../lib/gcc/arm-none-eabi/9.3.1/../../../../arm-none-eabi/lib/thumb/v7e-m+fp/hard\libc_nano.a(lib_a-findfp.o) (_fwalk)
d:/st/stm32cubeide_1.8.0/stm32cubeide/plugins/com.st.stm32cube.ide.mcu.externaltools.gnu-tools-for-stm32.9-2020-q2-update.win32_2.0.0.202105311346/tools/bin/../lib/gcc/arm-none-eabi/9.3.1/../../../../arm-none-eabi/lib/thumb/v7e-m+fp/hard\libc_nano.a(lib_a-impure.o)
                              d:/st/stm32cubeide_1.8.0/stm32cubeide/plugins/com.st.stm32cube.ide.mcu.externaltools.gnu-tools-for-stm32.9-2020-q2-update.win32_2.0.0.202105311346/tools/bin/../lib/gcc/arm-none-eabi/9.3.1/../../../../arm-none-eabi/lib/thumb/v7e-m+fp/hard\libc_nano.a(lib_a-exit.o) (_global_impure_ptr)
d:/st/stm32cubeide_1.8.0/stm32cubeide/plugins/com.st.stm32cube.ide.mcu.externaltools.gnu-tools-for-stm32.9-2020-q2-update.win32_2.0.0.202105311346/tools/bin/../lib/gcc/arm-none-eabi/9.3.1/../../../../arm-none-eabi/lib/thumb/v7e-m+fp/hard\libc_nano.a(lib_a-init.o)
                              d:/st/stm32cubeide_1.8.0/stm32cubeide/plugins/com.st.stm32cube.ide.mcu.externaltools.gnu-tools-for-stm32.9-2020-q2-update.win32_2.0.0.202105311346/tools/bin/../lib/gcc/arm-none-eabi/9.3.1/../../../../arm-none-eabi/lib/thumb/v7e-m+fp/hard/crt0.o (__libc_init_array)
d:/st/stm32cubeide_1.8.0/stm32cubeide/plugins/com.st.stm32cube.ide.mcu.externaltools.gnu-tools-for-stm32.9-2020-q2-update.win32_2.0.0.202105311346/tools/bin/../lib/gcc/arm-none-eabi/9.3.1/../../../../arm-none-eabi/lib/thumb/v7e-m+fp/hard\libc_nano.a(lib_a-malloc.o)
                              ./Core/ThreadSafe/newlib_lock_glue.o (malloc)
d:/st/stm32cubeide_1.8.0/stm32cubeide/plugins/com.st.stm32cube.ide.mcu.externaltools.gnu-tools-for-stm32.9-2020-q2-update.win32_2.0.0.202105311346/tools/bin/../lib/gcc/arm-none-eabi/9.3.1/../../../../arm-none-eabi/lib/thumb/v7e-m+fp/hard\libc_nano.a(lib_a-memcmp.o)
                              ./user/eeprom.o (memcmp)
d:/st/stm32cubeide_1.8.0/stm32cubeide/plugins/com.st.stm32cube.ide.mcu.externaltools.gnu-tools-for-stm32.9-2020-q2-update.win32_2.0.0.202105311346/tools/bin/../lib/gcc/arm-none-eabi/9.3.1/../../../../arm-none-eabi/lib/thumb/v7e-m+fp/hard\libc_nano.a(lib_a-memcpy-stub.o)
                              ./Middlewares/Third_Party/FreeRTOS/Source/CMSIS_RTOS_V2/cmsis_os2.o (memcpy)
d:/st/stm32cubeide_1.8.0/stm32cubeide/plugins/com.st.stm32cube.ide.mcu.externaltools.gnu-tools-for-stm32.9-2020-q2-update.win32_2.0.0.202105311346/tools/bin/../lib/gcc/arm-none-eabi/9.3.1/../../../../arm-none-eabi/lib/thumb/v7e-m+fp/hard\libc_nano.a(lib_a-memset.o)
                              d:/st/stm32cubeide_1.8.0/stm32cubeide/plugins/com.st.stm32cube.ide.mcu.externaltools.gnu-tools-for-stm32.9-2020-q2-update.win32_2.0.0.202105311346/tools/bin/../lib/gcc/arm-none-eabi/9.3.1/../../../../arm-none-eabi/lib/thumb/v7e-m+fp/hard/crt0.o (memset)
d:/st/stm32cubeide_1.8.0/stm32cubeide/plugins/com.st.stm32cube.ide.mcu.externaltools.gnu-tools-for-stm32.9-2020-q2-update.win32_2.0.0.202105311346/tools/bin/../lib/gcc/arm-none-eabi/9.3.1/../../../../arm-none-eabi/lib/thumb/v7e-m+fp/hard\libc_nano.a(lib_a-nano-freer.o)
                              d:/st/stm32cubeide_1.8.0/stm32cubeide/plugins/com.st.stm32cube.ide.mcu.externaltools.gnu-tools-for-stm32.9-2020-q2-update.win32_2.0.0.202105311346/tools/bin/../lib/gcc/arm-none-eabi/9.3.1/../../../../arm-none-eabi/lib/thumb/v7e-m+fp/hard\libc_nano.a(lib_a-malloc.o) (_free_r)
d:/st/stm32cubeide_1.8.0/stm32cubeide/plugins/com.st.stm32cube.ide.mcu.externaltools.gnu-tools-for-stm32.9-2020-q2-update.win32_2.0.0.202105311346/tools/bin/../lib/gcc/arm-none-eabi/9.3.1/../../../../arm-none-eabi/lib/thumb/v7e-m+fp/hard\libc_nano.a(lib_a-nano-mallocr.o)
                              d:/st/stm32cubeide_1.8.0/stm32cubeide/plugins/com.st.stm32cube.ide.mcu.externaltools.gnu-tools-for-stm32.9-2020-q2-update.win32_2.0.0.202105311346/tools/bin/../lib/gcc/arm-none-eabi/9.3.1/../../../../arm-none-eabi/lib/thumb/v7e-m+fp/hard\libc_nano.a(lib_a-findfp.o) (_malloc_r)
d:/st/stm32cubeide_1.8.0/stm32cubeide/plugins/com.st.stm32cube.ide.mcu.externaltools.gnu-tools-for-stm32.9-2020-q2-update.win32_2.0.0.202105311346/tools/bin/../lib/gcc/arm-none-eabi/9.3.1/../../../../arm-none-eabi/lib/thumb/v7e-m+fp/hard\libc_nano.a(lib_a-reent.o)
                              ./Middlewares/Third_Party/FreeRTOS/Source/tasks.o (_reclaim_reent)
d:/st/stm32cubeide_1.8.0/stm32cubeide/plugins/com.st.stm32cube.ide.mcu.externaltools.gnu-tools-for-stm32.9-2020-q2-update.win32_2.0.0.202105311346/tools/bin/../lib/gcc/arm-none-eabi/9.3.1/../../../../arm-none-eabi/lib/thumb/v7e-m+fp/hard\libc_nano.a(lib_a-sbrkr.o)
                              d:/st/stm32cubeide_1.8.0/stm32cubeide/plugins/com.st.stm32cube.ide.mcu.externaltools.gnu-tools-for-stm32.9-2020-q2-update.win32_2.0.0.202105311346/tools/bin/../lib/gcc/arm-none-eabi/9.3.1/../../../../arm-none-eabi/lib/thumb/v7e-m+fp/hard\libc_nano.a(lib_a-nano-mallocr.o) (_sbrk_r)
d:/st/stm32cubeide_1.8.0/stm32cubeide/plugins/com.st.stm32cube.ide.mcu.externaltools.gnu-tools-for-stm32.9-2020-q2-update.win32_2.0.0.202105311346/tools/bin/../lib/gcc/arm-none-eabi/9.3.1/../../../../arm-none-eabi/lib/thumb/v7e-m+fp/hard\libc_nano.a(lib_a-sprintf.o)
                              ./user/display.o (sprintf)
d:/st/stm32cubeide_1.8.0/stm32cubeide/plugins/com.st.stm32cube.ide.mcu.externaltools.gnu-tools-for-stm32.9-2020-q2-update.win32_2.0.0.202105311346/tools/bin/../lib/gcc/arm-none-eabi/9.3.1/../../../../arm-none-eabi/lib/thumb/v7e-m+fp/hard\libc_nano.a(lib_a-stdio.o)
                              d:/st/stm32cubeide_1.8.0/stm32cubeide/plugins/com.st.stm32cube.ide.mcu.externaltools.gnu-tools-for-stm32.9-2020-q2-update.win32_2.0.0.202105311346/tools/bin/../lib/gcc/arm-none-eabi/9.3.1/../../../../arm-none-eabi/lib/thumb/v7e-m+fp/hard\libc_nano.a(lib_a-findfp.o) (__sread)
d:/st/stm32cubeide_1.8.0/stm32cubeide/plugins/com.st.stm32cube.ide.mcu.externaltools.gnu-tools-for-stm32.9-2020-q2-update.win32_2.0.0.202105311346/tools/bin/../lib/gcc/arm-none-eabi/9.3.1/../../../../arm-none-eabi/lib/thumb/v7e-m+fp/hard\libc_nano.a(lib_a-strlen.o)
                              ./user/display.o (strlen)
d:/st/stm32cubeide_1.8.0/stm32cubeide/plugins/com.st.stm32cube.ide.mcu.externaltools.gnu-tools-for-stm32.9-2020-q2-update.win32_2.0.0.202105311346/tools/bin/../lib/gcc/arm-none-eabi/9.3.1/../../../../arm-none-eabi/lib/thumb/v7e-m+fp/hard\libc_nano.a(lib_a-writer.o)
                              d:/st/stm32cubeide_1.8.0/stm32cubeide/plugins/com.st.stm32cube.ide.mcu.externaltools.gnu-tools-for-stm32.9-2020-q2-update.win32_2.0.0.202105311346/tools/bin/../lib/gcc/arm-none-eabi/9.3.1/../../../../arm-none-eabi/lib/thumb/v7e-m+fp/hard\libc_nano.a(lib_a-stdio.o) (_write_r)
d:/st/stm32cubeide_1.8.0/stm32cubeide/plugins/com.st.stm32cube.ide.mcu.externaltools.gnu-tools-for-stm32.9-2020-q2-update.win32_2.0.0.202105311346/tools/bin/../lib/gcc/arm-none-eabi/9.3.1/../../../../arm-none-eabi/lib/thumb/v7e-m+fp/hard\libc_nano.a(lib_a-closer.o)
                              d:/st/stm32cubeide_1.8.0/stm32cubeide/plugins/com.st.stm32cube.ide.mcu.externaltools.gnu-tools-for-stm32.9-2020-q2-update.win32_2.0.0.202105311346/tools/bin/../lib/gcc/arm-none-eabi/9.3.1/../../../../arm-none-eabi/lib/thumb/v7e-m+fp/hard\libc_nano.a(lib_a-stdio.o) (_close_r)
d:/st/stm32cubeide_1.8.0/stm32cubeide/plugins/com.st.stm32cube.ide.mcu.externaltools.gnu-tools-for-stm32.9-2020-q2-update.win32_2.0.0.202105311346/tools/bin/../lib/gcc/arm-none-eabi/9.3.1/../../../../arm-none-eabi/lib/thumb/v7e-m+fp/hard\libc_nano.a(lib_a-fflush.o)
                              d:/st/stm32cubeide_1.8.0/stm32cubeide/plugins/com.st.stm32cube.ide.mcu.externaltools.gnu-tools-for-stm32.9-2020-q2-update.win32_2.0.0.202105311346/tools/bin/../lib/gcc/arm-none-eabi/9.3.1/../../../../arm-none-eabi/lib/thumb/v7e-m+fp/hard\libc_nano.a(lib_a-findfp.o) (_fflush_r)
d:/st/stm32cubeide_1.8.0/stm32cubeide/plugins/com.st.stm32cube.ide.mcu.externaltools.gnu-tools-for-stm32.9-2020-q2-update.win32_2.0.0.202105311346/tools/bin/../lib/gcc/arm-none-eabi/9.3.1/../../../../arm-none-eabi/lib/thumb/v7e-m+fp/hard\libc_nano.a(lib_a-lseekr.o)
                              d:/st/stm32cubeide_1.8.0/stm32cubeide/plugins/com.st.stm32cube.ide.mcu.externaltools.gnu-tools-for-stm32.9-2020-q2-update.win32_2.0.0.202105311346/tools/bin/../lib/gcc/arm-none-eabi/9.3.1/../../../../arm-none-eabi/lib/thumb/v7e-m+fp/hard\libc_nano.a(lib_a-stdio.o) (_lseek_r)
d:/st/stm32cubeide_1.8.0/stm32cubeide/plugins/com.st.stm32cube.ide.mcu.externaltools.gnu-tools-for-stm32.9-2020-q2-update.win32_2.0.0.202105311346/tools/bin/../lib/gcc/arm-none-eabi/9.3.1/../../../../arm-none-eabi/lib/thumb/v7e-m+fp/hard\libc_nano.a(lib_a-mlock.o)
                              d:/st/stm32cubeide_1.8.0/stm32cubeide/plugins/com.st.stm32cube.ide.mcu.externaltools.gnu-tools-for-stm32.9-2020-q2-update.win32_2.0.0.202105311346/tools/bin/../lib/gcc/arm-none-eabi/9.3.1/../../../../arm-none-eabi/lib/thumb/v7e-m+fp/hard\libc_nano.a(lib_a-nano-freer.o) (__malloc_lock)
d:/st/stm32cubeide_1.8.0/stm32cubeide/plugins/com.st.stm32cube.ide.mcu.externaltools.gnu-tools-for-stm32.9-2020-q2-update.win32_2.0.0.202105311346/tools/bin/../lib/gcc/arm-none-eabi/9.3.1/../../../../arm-none-eabi/lib/thumb/v7e-m+fp/hard\libc_nano.a(lib_a-nano-svfprintf.o)
                              d:/st/stm32cubeide_1.8.0/stm32cubeide/plugins/com.st.stm32cube.ide.mcu.externaltools.gnu-tools-for-stm32.9-2020-q2-update.win32_2.0.0.202105311346/tools/bin/../lib/gcc/arm-none-eabi/9.3.1/../../../../arm-none-eabi/lib/thumb/v7e-m+fp/hard\libc_nano.a(lib_a-sprintf.o) (_svfprintf_r)
d:/st/stm32cubeide_1.8.0/stm32cubeide/plugins/com.st.stm32cube.ide.mcu.externaltools.gnu-tools-for-stm32.9-2020-q2-update.win32_2.0.0.202105311346/tools/bin/../lib/gcc/arm-none-eabi/9.3.1/../../../../arm-none-eabi/lib/thumb/v7e-m+fp/hard\libc_nano.a(lib_a-nano-vfprintf_i.o)
                              d:/st/stm32cubeide_1.8.0/stm32cubeide/plugins/com.st.stm32cube.ide.mcu.externaltools.gnu-tools-for-stm32.9-2020-q2-update.win32_2.0.0.202105311346/tools/bin/../lib/gcc/arm-none-eabi/9.3.1/../../../../arm-none-eabi/lib/thumb/v7e-m+fp/hard\libc_nano.a(lib_a-nano-svfprintf.o) (_printf_i)
d:/st/stm32cubeide_1.8.0/stm32cubeide/plugins/com.st.stm32cube.ide.mcu.externaltools.gnu-tools-for-stm32.9-2020-q2-update.win32_2.0.0.202105311346/tools/bin/../lib/gcc/arm-none-eabi/9.3.1/../../../../arm-none-eabi/lib/thumb/v7e-m+fp/hard\libc_nano.a(lib_a-readr.o)
                              d:/st/stm32cubeide_1.8.0/stm32cubeide/plugins/com.st.stm32cube.ide.mcu.externaltools.gnu-tools-for-stm32.9-2020-q2-update.win32_2.0.0.202105311346/tools/bin/../lib/gcc/arm-none-eabi/9.3.1/../../../../arm-none-eabi/lib/thumb/v7e-m+fp/hard\libc_nano.a(lib_a-stdio.o) (_read_r)
d:/st/stm32cubeide_1.8.0/stm32cubeide/plugins/com.st.stm32cube.ide.mcu.externaltools.gnu-tools-for-stm32.9-2020-q2-update.win32_2.0.0.202105311346/tools/bin/../lib/gcc/arm-none-eabi/9.3.1/../../../../arm-none-eabi/lib/thumb/v7e-m+fp/hard\libc_nano.a(lib_a-memchr.o)
                              d:/st/stm32cubeide_1.8.0/stm32cubeide/plugins/com.st.stm32cube.ide.mcu.externaltools.gnu-tools-for-stm32.9-2020-q2-update.win32_2.0.0.202105311346/tools/bin/../lib/gcc/arm-none-eabi/9.3.1/../../../../arm-none-eabi/lib/thumb/v7e-m+fp/hard\libc_nano.a(lib_a-nano-svfprintf.o) (memchr)
d:/st/stm32cubeide_1.8.0/stm32cubeide/plugins/com.st.stm32cube.ide.mcu.externaltools.gnu-tools-for-stm32.9-2020-q2-update.win32_2.0.0.202105311346/tools/bin/../lib/gcc/arm-none-eabi/9.3.1/../../../../arm-none-eabi/lib/thumb/v7e-m+fp/hard\libc_nano.a(lib_a-memmove.o)
                              d:/st/stm32cubeide_1.8.0/stm32cubeide/plugins/com.st.stm32cube.ide.mcu.externaltools.gnu-tools-for-stm32.9-2020-q2-update.win32_2.0.0.202105311346/tools/bin/../lib/gcc/arm-none-eabi/9.3.1/../../../../arm-none-eabi/lib/thumb/v7e-m+fp/hard\libc_nano.a(lib_a-nano-svfprintf.o) (memmove)
d:/st/stm32cubeide_1.8.0/stm32cubeide/plugins/com.st.stm32cube.ide.mcu.externaltools.gnu-tools-for-stm32.9-2020-q2-update.win32_2.0.0.202105311346/tools/bin/../lib/gcc/arm-none-eabi/9.3.1/../../../../arm-none-eabi/lib/thumb/v7e-m+fp/hard\libc_nano.a(lib_a-nano-reallocr.o)
                              d:/st/stm32cubeide_1.8.0/stm32cubeide/plugins/com.st.stm32cube.ide.mcu.externaltools.gnu-tools-for-stm32.9-2020-q2-update.win32_2.0.0.202105311346/tools/bin/../lib/gcc/arm-none-eabi/9.3.1/../../../../arm-none-eabi/lib/thumb/v7e-m+fp/hard\libc_nano.a(lib_a-nano-svfprintf.o) (_realloc_r)
d:/st/stm32cubeide_1.8.0/stm32cubeide/plugins/com.st.stm32cube.ide.mcu.externaltools.gnu-tools-for-stm32.9-2020-q2-update.win32_2.0.0.202105311346/tools/bin/../lib/gcc/arm-none-eabi/9.3.1/../../../../arm-none-eabi/lib/thumb/v7e-m+fp/hard\libc_nano.a(lib_a-nano-msizer.o)
                              d:/st/stm32cubeide_1.8.0/stm32cubeide/plugins/com.st.stm32cube.ide.mcu.externaltools.gnu-tools-for-stm32.9-2020-q2-update.win32_2.0.0.202105311346/tools/bin/../lib/gcc/arm-none-eabi/9.3.1/../../../../arm-none-eabi/lib/thumb/v7e-m+fp/hard\libc_nano.a(lib_a-nano-reallocr.o) (_malloc_usable_size_r)
d:/st/stm32cubeide_1.8.0/stm32cubeide/plugins/com.st.stm32cube.ide.mcu.externaltools.gnu-tools-for-stm32.9-2020-q2-update.win32_2.0.0.202105311346/tools/bin/../lib/gcc/arm-none-eabi/9.3.1/thumb/v7e-m+fp/hard\libgcc.a(_arm_truncdfsf2.o)
                              ./user/myprintf.o (__aeabi_d2f)
d:/st/stm32cubeide_1.8.0/stm32cubeide/plugins/com.st.stm32cube.ide.mcu.externaltools.gnu-tools-for-stm32.9-2020-q2-update.win32_2.0.0.202105311346/tools/bin/../lib/gcc/arm-none-eabi/9.3.1/thumb/v7e-m+fp/hard\libgcc.a(_aeabi_ldivmod.o)
                              ./Drivers/STM32F4xx_HAL_Driver/Src/stm32f4xx_hal_rcc.o (__aeabi_ldivmod)
d:/st/stm32cubeide_1.8.0/stm32cubeide/plugins/com.st.stm32cube.ide.mcu.externaltools.gnu-tools-for-stm32.9-2020-q2-update.win32_2.0.0.202105311346/tools/bin/../lib/gcc/arm-none-eabi/9.3.1/thumb/v7e-m+fp/hard\libgcc.a(_aeabi_uldivmod.o)
                              ./Drivers/STM32F4xx_HAL_Driver/Src/stm32f4xx_hal_rcc.o (__aeabi_uldivmod)
d:/st/stm32cubeide_1.8.0/stm32cubeide/plugins/com.st.stm32cube.ide.mcu.externaltools.gnu-tools-for-stm32.9-2020-q2-update.win32_2.0.0.202105311346/tools/bin/../lib/gcc/arm-none-eabi/9.3.1/thumb/v7e-m+fp/hard\libgcc.a(_udivmoddi4.o)
                              d:/st/stm32cubeide_1.8.0/stm32cubeide/plugins/com.st.stm32cube.ide.mcu.externaltools.gnu-tools-for-stm32.9-2020-q2-update.win32_2.0.0.202105311346/tools/bin/../lib/gcc/arm-none-eabi/9.3.1/thumb/v7e-m+fp/hard\libgcc.a(_aeabi_ldivmod.o) (__udivmoddi4)
d:/st/stm32cubeide_1.8.0/stm32cubeide/plugins/com.st.stm32cube.ide.mcu.externaltools.gnu-tools-for-stm32.9-2020-q2-update.win32_2.0.0.202105311346/tools/bin/../lib/gcc/arm-none-eabi/9.3.1/thumb/v7e-m+fp/hard\libgcc.a(_dvmd_tls.o)
                              d:/st/stm32cubeide_1.8.0/stm32cubeide/plugins/com.st.stm32cube.ide.mcu.externaltools.gnu-tools-for-stm32.9-2020-q2-update.win32_2.0.0.202105311346/tools/bin/../lib/gcc/arm-none-eabi/9.3.1/thumb/v7e-m+fp/hard\libgcc.a(_aeabi_ldivmod.o) (__aeabi_ldiv0)

Allocating common symbols
Common symbol       size              file

usart1_rx           0x102             ./user/dev_usart.o
pro_flag_st         0x4               ./user/io_ctrl.o
osthd_st            0xc               ./user/io_ctrl.o
keyboard_buff       0xb               ./user/detect.o
defaultTaskHandle   0x4               ./Core/Src/freertos.o
Usart1_Type         0x102             ./user/dev_usart.o
hdma_usart6_rx      0x60              ./Core/Src/usart.o
usart6_rx           0x102             ./user/dev_usart.o
relief_st           0x8               ./user/io_ctrl.o
Usart2_Type         0x102             ./user/dev_usart.o
errno               0x4               d:/st/stm32cubeide_1.8.0/stm32cubeide/plugins/com.st.stm32cube.ide.mcu.externaltools.gnu-tools-for-stm32.9-2020-q2-update.win32_2.0.0.202105311346/tools/bin/../lib/gcc/arm-none-eabi/9.3.1/../../../../arm-none-eabi/lib/thumb/v7e-m+fp/hard\libc_nano.a(lib_a-reent.o)
hdma_usart3_rx      0x60              ./Core/Src/usart.o
keycatch_result     0x1               ./user/detect.o
set_para_st         0x24              ./user/io_ctrl.o
huart3              0x44              ./Core/Src/usart.o
op_para_st          0x4               ./user/io_ctrl.o
keystop_buff        0xb               ./user/detect.o
src_press_st        0x28              ./user/io_ctrl.o
screen_ini_st       0x3               ./user/io_ctrl.o
htim10              0x48              ./Core/Src/tim.o
hiwdg               0xc               ./Core/Src/iwdg.o
scr_state_st        0x10              ./user/io_ctrl.o
keypush_buff        0xb               ./user/detect.o
JumpAddress         0x4               ./user/jump.o
keypush_result      0x1               ./user/detect.o
keyrun_result       0x1               ./user/detect.o
log_para_st         0x3b              ./user/display.o
myBinarySem05Handle
                    0x4               ./Core/Src/freertos.o
scr_operate_st      0x1c              ./user/io_ctrl.o
start_stop_st       0x2               ./user/detect.o
myEvent01Handle     0x4               ./Core/Src/freertos.o
uwTick              0x4               ./Drivers/STM32F4xx_HAL_Driver/Src/stm32f4xx_hal.o
xQueueRegistry      0x40              ./Middlewares/Third_Party/FreeRTOS/Source/queue.o
fst_tips_st         0x2               ./user/io_ctrl.o
keyemg_result       0x1               ./user/detect.o
Usart3_Type         0x102             ./user/dev_usart.o
hdma_usart3_tx      0x60              ./Core/Src/usart.o
pFlash              0x20              ./Drivers/STM32F4xx_HAL_Driver/Src/stm32f4xx_hal_flash.o
myTask05Handle      0x4               ./Core/Src/freertos.o
myTask04Handle      0x4               ./Core/Src/freertos.o
myBinarySem03Handle
                    0x4               ./Core/Src/freertos.o
sys_guard           0xe               ./user/sysguard.o
hdma_usart1_tx      0x60              ./Core/Src/usart.o
screen_prot         0x118             ./user/io_ctrl.o
hdma_usart6_tx      0x60              ./Core/Src/usart.o
time_start_st       0x18              ./Core/Src/freertos.o
hdma_usart1_rx      0x60              ./Core/Src/usart.o
huart1              0x44              ./Core/Src/usart.o
myEvent02Handle     0x4               ./Core/Src/freertos.o
myBinarySem02Handle
                    0x4               ./Core/Src/freertos.o
keyboard_result     0x1               ./user/detect.o
myTask02Handle      0x4               ./Core/Src/freertos.o
keystop_result      0x1               ./user/detect.o
hrtc                0x20              ./Core/Src/rtc.o
keyturn_result      0x1               ./user/detect.o
keycatch_buff       0xb               ./user/detect.o
usart2_rx           0x102             ./user/dev_usart.o
Usart6_Type         0x102             ./user/dev_usart.o
htim6               0x48              ./Core/Src/tim.o
keyrun_buff         0xb               ./user/detect.o
dpt                 0x194             ./user/detect.o
myBinarySem01Handle
                    0x4               ./Core/Src/freertos.o
warn_st             0x28              ./user/my_tim.o
keyturn_buff        0xb               ./user/detect.o
myTask03Handle      0x4               ./Core/Src/freertos.o
huart6              0x44              ./Core/Src/usart.o
time_st             0x18              ./user/display.o
usart3_rx           0x102             ./user/dev_usart.o
htim2               0x48              ./Core/Src/stm32f4xx_hal_timebase_tim.o
myQueueUsart1Handle
                    0x4               ./Core/Src/freertos.o
tim_para_st         0x4               ./user/display.o
warn_out_st         0x4               ./user/display.o
myQueueUsart6Handle
                    0x4               ./Core/Src/freertos.o
out_state_st        0x5               ./user/io_ctrl.o
JumpToApplication   0x4               ./user/jump.o
keymod_result       0x1               ./user/detect.o
keyemg_buff         0xb               ./user/detect.o
warn_bk_st          0x28              ./user/my_tim.o
htim7               0x48              ./Core/Src/tim.o
myMutex01Handle     0x4               ./Core/Src/freertos.o
myMutex02Handle     0x4               ./Core/Src/freertos.o
time_get_st         0x18              ./user/display.o
keyhead_result      0x1               ./user/detect.o
myQueueUsart3Handle
                    0x4               ./Core/Src/freertos.o
myTask06Handle      0x4               ./Core/Src/freertos.o
keymod_buff         0xb               ./user/detect.o
keyhead_buff        0xb               ./user/detect.o
myBinarySem04Handle
                    0x4               ./Core/Src/freertos.o
para_check_st       0x38              ./user/my_tim.o

Discarded input sections

 .text          0x0000000000000000        0x0 d:/st/stm32cubeide_1.8.0/stm32cubeide/plugins/com.st.stm32cube.ide.mcu.externaltools.gnu-tools-for-stm32.9-2020-q2-update.win32_2.0.0.202105311346/tools/bin/../lib/gcc/arm-none-eabi/9.3.1/thumb/v7e-m+fp/hard/crti.o
 .data          0x0000000000000000        0x0 d:/st/stm32cubeide_1.8.0/stm32cubeide/plugins/com.st.stm32cube.ide.mcu.externaltools.gnu-tools-for-stm32.9-2020-q2-update.win32_2.0.0.202105311346/tools/bin/../lib/gcc/arm-none-eabi/9.3.1/thumb/v7e-m+fp/hard/crti.o
 .bss           0x0000000000000000        0x0 d:/st/stm32cubeide_1.8.0/stm32cubeide/plugins/com.st.stm32cube.ide.mcu.externaltools.gnu-tools-for-stm32.9-2020-q2-update.win32_2.0.0.202105311346/tools/bin/../lib/gcc/arm-none-eabi/9.3.1/thumb/v7e-m+fp/hard/crti.o
 .data          0x0000000000000000        0x4 d:/st/stm32cubeide_1.8.0/stm32cubeide/plugins/com.st.stm32cube.ide.mcu.externaltools.gnu-tools-for-stm32.9-2020-q2-update.win32_2.0.0.202105311346/tools/bin/../lib/gcc/arm-none-eabi/9.3.1/thumb/v7e-m+fp/hard/crtbegin.o
 .text          0x0000000000000000       0x7c d:/st/stm32cubeide_1.8.0/stm32cubeide/plugins/com.st.stm32cube.ide.mcu.externaltools.gnu-tools-for-stm32.9-2020-q2-update.win32_2.0.0.202105311346/tools/bin/../lib/gcc/arm-none-eabi/9.3.1/../../../../arm-none-eabi/lib/thumb/v7e-m+fp/hard/crt0.o
 .data          0x0000000000000000        0x0 d:/st/stm32cubeide_1.8.0/stm32cubeide/plugins/com.st.stm32cube.ide.mcu.externaltools.gnu-tools-for-stm32.9-2020-q2-update.win32_2.0.0.202105311346/tools/bin/../lib/gcc/arm-none-eabi/9.3.1/../../../../arm-none-eabi/lib/thumb/v7e-m+fp/hard/crt0.o
 .bss           0x0000000000000000        0x0 d:/st/stm32cubeide_1.8.0/stm32cubeide/plugins/com.st.stm32cube.ide.mcu.externaltools.gnu-tools-for-stm32.9-2020-q2-update.win32_2.0.0.202105311346/tools/bin/../lib/gcc/arm-none-eabi/9.3.1/../../../../arm-none-eabi/lib/thumb/v7e-m+fp/hard/crt0.o
 .ARM.extab     0x0000000000000000        0x0 d:/st/stm32cubeide_1.8.0/stm32cubeide/plugins/com.st.stm32cube.ide.mcu.externaltools.gnu-tools-for-stm32.9-2020-q2-update.win32_2.0.0.202105311346/tools/bin/../lib/gcc/arm-none-eabi/9.3.1/../../../../arm-none-eabi/lib/thumb/v7e-m+fp/hard/crt0.o
 .ARM.exidx     0x0000000000000000       0x10 d:/st/stm32cubeide_1.8.0/stm32cubeide/plugins/com.st.stm32cube.ide.mcu.externaltools.gnu-tools-for-stm32.9-2020-q2-update.win32_2.0.0.202105311346/tools/bin/../lib/gcc/arm-none-eabi/9.3.1/../../../../arm-none-eabi/lib/thumb/v7e-m+fp/hard/crt0.o
 .ARM.attributes
                0x0000000000000000       0x1c d:/st/stm32cubeide_1.8.0/stm32cubeide/plugins/com.st.stm32cube.ide.mcu.externaltools.gnu-tools-for-stm32.9-2020-q2-update.win32_2.0.0.202105311346/tools/bin/../lib/gcc/arm-none-eabi/9.3.1/../../../../arm-none-eabi/lib/thumb/v7e-m+fp/hard/crt0.o
 .group         0x0000000000000000        0xc ./Core/Src/dma.o
 .group         0x0000000000000000        0xc ./Core/Src/dma.o
 .group         0x0000000000000000        0xc ./Core/Src/dma.o
 .group         0x0000000000000000        0xc ./Core/Src/dma.o
 .group         0x0000000000000000        0xc ./Core/Src/dma.o
 .group         0x0000000000000000        0xc ./Core/Src/dma.o
 .group         0x0000000000000000        0xc ./Core/Src/dma.o
Memory Configuration

Name             Origin             Length             Attributes
RAM              0x0000000020000000 0x0000000000040000 xrw
FLASH            0x0000000008020000 0x0000000000020000 xr
*default*        0x0000000000000000 0xffffffffffffffff

Linker script and memory map

LOAD d:/st/stm32cubeide_1.8.0/stm32cubeide/plugins/com.st.stm32cube.ide.mcu.externaltools.gnu-tools-for-stm32.9-2020-q2-update.win32_2.0.0.202105311346/tools/bin/../lib/gcc/arm-none-eabi/9.3.1/thumb/v7e-m+fp/hard/crti.o
LOAD d:/st/stm32cubeide_1.8.0/stm32cubeide/plugins/com.st.stm32cube.ide.mcu.externaltools.gnu-tools-for-stm32.9-2020-q2-update.win32_2.0.0.202105311346/tools/bin/../lib/gcc/arm-none-eabi/9.3.1/thumb/v7e-m+fp/hard/crtbegin.o
LOAD d:/st/stm32cubeide_1.8.0/stm32cubeide/plugins/com.st.stm32cube.ide.mcu.externaltools.gnu-tools-for-stm32.9-2020-q2-update.win32_2.0.0.202105311346/tools/bin/../lib/gcc/arm-none-eabi/9.3.1/../../../../arm-none-eabi/lib/thumb/v7e-m+fp/hard/crt0.o
LOAD ./Core/Src/dma.o
LOAD ./Core/Src/freertos.o
LOAD ./Core/Src/gpio.o
LOAD ./Core/Src/iwdg.o
LOAD ./Core/Src/main.o
LOAD ./Core/Src/rtc.o
LOAD ./Core/Src/stm32f4xx_hal_msp.o
LOAD ./Core/Src/stm32f4xx_hal_timebase_tim.o
LOAD ./Core/Src/stm32f4xx_it.o
LOAD ./Core/Src/syscalls.o
LOAD ./Core/Src/sysmem.o
LOAD ./Core/Src/system_stm32f4xx.o
LOAD ./Core/Src/tim.o
LOAD ./Core/Src/usart.o
LOAD ./Core/Startup/startup_stm32f412retx.o
LOAD ./Core/ThreadSafe/newlib_lock_glue.o
LOAD ./Drivers/STM32F4xx_HAL_Driver/Src/stm32f4xx_hal.o
LOAD ./Drivers/STM32F4xx_HAL_Driver/Src/stm32f4xx_hal_cortex.o
LOAD ./Drivers/STM32F4xx_HAL_Driver/Src/stm32f4xx_hal_dma.o
LOAD ./Drivers/STM32F4xx_HAL_Driver/Src/stm32f4xx_hal_dma_ex.o
LOAD ./Drivers/STM32F4xx_HAL_Driver/Src/stm32f4xx_hal_exti.o
LOAD ./Drivers/STM32F4xx_HAL_Driver/Src/stm32f4xx_hal_flash.o
LOAD ./Drivers/STM32F4xx_HAL_Driver/Src/stm32f4xx_hal_flash_ex.o
LOAD ./Drivers/STM32F4xx_HAL_Driver/Src/stm32f4xx_hal_flash_ramfunc.o
LOAD ./Drivers/STM32F4xx_HAL_Driver/Src/stm32f4xx_hal_gpio.o
LOAD ./Drivers/STM32F4xx_HAL_Driver/Src/stm32f4xx_hal_iwdg.o
LOAD ./Drivers/STM32F4xx_HAL_Driver/Src/stm32f4xx_hal_pwr.o
LOAD ./Drivers/STM32F4xx_HAL_Driver/Src/stm32f4xx_hal_pwr_ex.o
LOAD ./Drivers/STM32F4xx_HAL_Driver/Src/stm32f4xx_hal_rcc.o
LOAD ./Drivers/STM32F4xx_HAL_Driver/Src/stm32f4xx_hal_rcc_ex.o
LOAD ./Drivers/STM32F4xx_HAL_Driver/Src/stm32f4xx_hal_rtc.o
LOAD ./Drivers/STM32F4xx_HAL_Driver/Src/stm32f4xx_hal_rtc_ex.o
LOAD ./Drivers/STM32F4xx_HAL_Driver/Src/stm32f4xx_hal_tim.o
LOAD ./Drivers/STM32F4xx_HAL_Driver/Src/stm32f4xx_hal_tim_ex.o
LOAD ./Drivers/STM32F4xx_HAL_Driver/Src/stm32f4xx_hal_uart.o
LOAD ./Middlewares/Third_Party/FreeRTOS/Source/CMSIS_RTOS_V2/cmsis_os2.o
LOAD ./Middlewares/Third_Party/FreeRTOS/Source/croutine.o
LOAD ./Middlewares/Third_Party/FreeRTOS/Source/event_groups.o
LOAD ./Middlewares/Third_Party/FreeRTOS/Source/list.o
LOAD ./Middlewares/Third_Party/FreeRTOS/Source/queue.o
LOAD ./Middlewares/Third_Party/FreeRTOS/Source/stream_buffer.o
LOAD ./Middlewares/Third_Party/FreeRTOS/Source/tasks.o
LOAD ./Middlewares/Third_Party/FreeRTOS/Source/timers.o
LOAD ./Middlewares/Third_Party/FreeRTOS/Source/portable/GCC/ARM_CM4F/port.o
LOAD ./Middlewares/Third_Party/FreeRTOS/Source/portable/MemMang/heap_4.o
LOAD ./user/detect.o
LOAD ./user/dev_usart.o
LOAD ./user/display.o
LOAD ./user/eeprom.o
LOAD ./user/io_ctrl.o
LOAD ./user/jump.o
LOAD ./user/my_tim.o
LOAD ./user/myprintf.o
LOAD ./user/soft_timer.o
LOAD ./user/sysguard.o
START GROUP
LOAD d:/st/stm32cubeide_1.8.0/stm32cubeide/plugins/com.st.stm32cube.ide.mcu.externaltools.gnu-tools-for-stm32.9-2020-q2-update.win32_2.0.0.202105311346/tools/bin/../lib/gcc/arm-none-eabi/9.3.1/../../../../arm-none-eabi/lib/thumb/v7e-m+fp/hard\libc_nano.a
LOAD d:/st/stm32cubeide_1.8.0/stm32cubeide/plugins/com.st.stm32cube.ide.mcu.externaltools.gnu-tools-for-stm32.9-2020-q2-update.win32_2.0.0.202105311346/tools/bin/../lib/gcc/arm-none-eabi/9.3.1/../../../../arm-none-eabi/lib/thumb/v7e-m+fp/hard\libm.a
END GROUP
START GROUP
LOAD d:/st/stm32cubeide_1.8.0/stm32cubeide/plugins/com.st.stm32cube.ide.mcu.externaltools.gnu-tools-for-stm32.9-2020-q2-update.win32_2.0.0.202105311346/tools/bin/../lib/gcc/arm-none-eabi/9.3.1/thumb/v7e-m+fp/hard\libgcc.a
LOAD d:/st/stm32cubeide_1.8.0/stm32cubeide/plugins/com.st.stm32cube.ide.mcu.externaltools.gnu-tools-for-stm32.9-2020-q2-update.win32_2.0.0.202105311346/tools/bin/../lib/gcc/arm-none-eabi/9.3.1/../../../../arm-none-eabi/lib/thumb/v7e-m+fp/hard\libc_nano.a
END GROUP
START GROUP
LOAD d:/st/stm32cubeide_1.8.0/stm32cubeide/plugins/com.st.stm32cube.ide.mcu.externaltools.gnu-tools-for-stm32.9-2020-q2-update.win32_2.0.0.202105311346/tools/bin/../lib/gcc/arm-none-eabi/9.3.1/thumb/v7e-m+fp/hard\libgcc.a
LOAD d:/st/stm32cubeide_1.8.0/stm32cubeide/plugins/com.st.stm32cube.ide.mcu.externaltools.gnu-tools-for-stm32.9-2020-q2-update.win32_2.0.0.202105311346/tools/bin/../lib/gcc/arm-none-eabi/9.3.1/../../../../arm-none-eabi/lib/thumb/v7e-m+fp/hard\libc_nano.a
LOAD d:/st/stm32cubeide_1.8.0/stm32cubeide/plugins/com.st.stm32cube.ide.mcu.externaltools.gnu-tools-for-stm32.9-2020-q2-update.win32_2.0.0.202105311346/tools/bin/../lib/gcc/arm-none-eabi/9.3.1/../../../../arm-none-eabi/lib/thumb/v7e-m+fp/hard\libnosys.a
END GROUP
START GROUP
LOAD d:/st/stm32cubeide_1.8.0/stm32cubeide/plugins/com.st.stm32cube.ide.mcu.externaltools.gnu-tools-for-stm32.9-2020-q2-update.win32_2.0.0.202105311346/tools/bin/../lib/gcc/arm-none-eabi/9.3.1/thumb/v7e-m+fp/hard\libgcc.a
LOAD d:/st/stm32cubeide_1.8.0/stm32cubeide/plugins/com.st.stm32cube.ide.mcu.externaltools.gnu-tools-for-stm32.9-2020-q2-update.win32_2.0.0.202105311346/tools/bin/../lib/gcc/arm-none-eabi/9.3.1/../../../../arm-none-eabi/lib/thumb/v7e-m+fp/hard\libc_nano.a
LOAD d:/st/stm32cubeide_1.8.0/stm32cubeide/plugins/com.st.stm32cube.ide.mcu.externaltools.gnu-tools-for-stm32.9-2020-q2-update.win32_2.0.0.202105311346/tools/bin/../lib/gcc/arm-none-eabi/9.3.1/../../../../arm-none-eabi/lib/thumb/v7e-m+fp/hard\libnosys.a
END GROUP
LOAD d:/st/stm32cubeide_1.8.0/stm32cubeide/plugins/com.st.stm32cube.ide.mcu.externaltools.gnu-tools-for-stm32.9-2020-q2-update.win32_2.0.0.202105311346/tools/bin/../lib/gcc/arm-none-eabi/9.3.1/thumb/v7e-m+fp/hard/crtend.o
LOAD d:/st/stm32cubeide_1.8.0/stm32cubeide/plugins/com.st.stm32cube.ide.mcu.externaltools.gnu-tools-for-stm32.9-2020-q2-update.win32_2.0.0.202105311346/tools/bin/../lib/gcc/arm-none-eabi/9.3.1/thumb/v7e-m+fp/hard/crtn.o
                0x0000000020040000                _estack = (ORIGIN (RAM) + LENGTH (RAM))
                0x0000000000002000                _Min_Heap_Size = 0x2000
                0x0000000000004000                _Min_Stack_Size = 0x4000

.isr_vector     0x0000000008020000      0x1c4
                0x0000000008020000                . = ALIGN (0x4)
 *(.isr_vector)
 .isr_vector    0x0000000008020000      0x1c4 ./Core/Startup/startup_stm32f412retx.o
                0x0000000008020000                g_pfnVectors
                0x00000000080201c4                . = ALIGN (0x4)

.text           0x00000000080201d0     0xb8b0
                0x00000000080201d0                . = ALIGN (0x4)
 *(.text)
 .text          0x00000000080201d0       0x40 d:/st/stm32cubeide_1.8.0/stm32cubeide/plugins/com.st.stm32cube.ide.mcu.externaltools.gnu-tools-for-stm32.9-2020-q2-update.win32_2.0.0.202105311346/tools/bin/../lib/gcc/arm-none-eabi/9.3.1/thumb/v7e-m+fp/hard/crtbegin.o
 .text          0x0000000008020210       0x10 d:/st/stm32cubeide_1.8.0/stm32cubeide/plugins/com.st.stm32cube.ide.mcu.externaltools.gnu-tools-for-stm32.9-2020-q2-update.win32_2.0.0.202105311346/tools/bin/../lib/gcc/arm-none-eabi/9.3.1/../../../../arm-none-eabi/lib/thumb/v7e-m+fp/hard\libc_nano.a(lib_a-strlen.o)
                0x0000000008020210                strlen
 .text          0x0000000008020220       0xa0 d:/st/stm32cubeide_1.8.0/stm32cubeide/plugins/com.st.stm32cube.ide.mcu.externaltools.gnu-tools-for-stm32.9-2020-q2-update.win32_2.0.0.202105311346/tools/bin/../lib/gcc/arm-none-eabi/9.3.1/../../../../arm-none-eabi/lib/thumb/v7e-m+fp/hard\libc_nano.a(lib_a-memchr.o)
                0x0000000008020220                memchr
 .text          0x00000000080202c0       0xa0 d:/st/stm32cubeide_1.8.0/stm32cubeide/plugins/com.st.stm32cube.ide.mcu.externaltools.gnu-tools-for-stm32.9-2020-q2-update.win32_2.0.0.202105311346/tools/bin/../lib/gcc/arm-none-eabi/9.3.1/thumb/v7e-m+fp/hard\libgcc.a(_arm_truncdfsf2.o)
                0x00000000080202c0                __truncdfsf2
                0x00000000080202c0                __aeabi_d2f
 .text          0x0000000008020360       0x30 d:/st/stm32cubeide_1.8.0/stm32cubeide/plugins/com.st.stm32cube.ide.mcu.externaltools.gnu-tools-for-stm32.9-2020-q2-update.win32_2.0.0.202105311346/tools/bin/../lib/gcc/arm-none-eabi/9.3.1/thumb/v7e-m+fp/hard\libgcc.a(_aeabi_uldivmod.o)
                0x0000000008020360                __aeabi_uldivmod
 .text          0x0000000008020390      0x2c4 d:/st/stm32cubeide_1.8.0/stm32cubeide/plugins/com.st.stm32cube.ide.mcu.externaltools.gnu-tools-for-stm32.9-2020-q2-update.win32_2.0.0.202105311346/tools/bin/../lib/gcc/arm-none-eabi/9.3.1/thumb/v7e-m+fp/hard\libgcc.a(_udivmoddi4.o)
                0x0000000008020390                __udivmoddi4
 .text          0x0000000008020654        0x4 d:/st/stm32cubeide_1.8.0/stm32cubeide/plugins/com.st.stm32cube.ide.mcu.externaltools.gnu-tools-for-stm32.9-2020-q2-update.win32_2.0.0.202105311346/tools/bin/../lib/gcc/arm-none-eabi/9.3.1/thumb/v7e-m+fp/hard\libgcc.a(_dvmd_tls.o)
                0x0000000008020654                __aeabi_idiv0
                0x0000000008020654                __aeabi_ldiv0
 *(.text*)
 .text.MX_DMA_Init
                0x0000000008020658       0x98 ./Core/Src/dma.o
                0x0000000008020658                MX_DMA_Init
 .text.StartDefaultTask
                0x00000000080206f0      0x108 ./Core/Src/freertos.o
                0x00000000080206f0                StartDefaultTask
 .text.StartTask02
                0x00000000080207f8       0xa4 ./Core/Src/freertos.o
                0x00000000080207f8                StartTask02
 .text.StartTask03
                0x000000000802089c       0x1c ./Core/Src/freertos.o
                0x000000000802089c                StartTask03
 .text.StartTask04
                0x00000000080208b8       0x30 ./Core/Src/freertos.o
                0x00000000080208b8                StartTask04
 .text.StartTask05
                0x00000000080208e8       0x1a ./Core/Src/freertos.o
                0x00000000080208e8                StartTask05
 *fill*         0x0000000008020902        0x2 
 .text.StartTask06
                0x0000000008020904       0xe8 ./Core/Src/freertos.o
                0x0000000008020904                StartTask06
 .text.vApplicationIdleHook
                0x00000000080209ec        0x2 ./Core/Src/freertos.o
                0x00000000080209ec                vApplicationIdleHook
 .text.vApplicationTickHook
                0x00000000080209ee        0x2 ./Core/Src/freertos.o
                0x00000000080209ee                vApplicationTickHook
 .text.vApplicationMallocFailedHook
                0x00000000080209f0        0x2 ./Core/Src/freertos.o
                0x00000000080209f0                vApplicationMallocFailedHook
 .text.vApplicationDaemonTaskStartupHook
                0x00000000080209f2        0x2 ./Core/Src/freertos.o
                0x00000000080209f2                vApplicationDaemonTaskStartupHook
 .text.MX_FREERTOS_Init
                0x00000000080209f4      0x1a0 ./Core/Src/freertos.o
                0x00000000080209f4                MX_FREERTOS_Init
 .text.MX_GPIO_Init
                0x0000000008020b94      0x140 ./Core/Src/gpio.o
                0x0000000008020b94                MX_GPIO_Init
 .text.MX_IWDG_Init
                0x0000000008020cd4       0x2c ./Core/Src/iwdg.o
                0x0000000008020cd4                MX_IWDG_Init
 .text.HAL_TIM_PeriodElapsedCallback
                0x0000000008020d00        0xe ./Core/Src/main.o
                0x0000000008020d00                HAL_TIM_PeriodElapsedCallback
 *fill*         0x0000000008020d0e        0x2 
 .text.Error_Handler
                0x0000000008020d10       0x14 ./Core/Src/main.o
                0x0000000008020d10                Error_Handler
 .text.SystemClock_Config
                0x0000000008020d24       0x9c ./Core/Src/main.o
                0x0000000008020d24                SystemClock_Config
 .text.startup.main
                0x0000000008020dc0       0x8c ./Core/Src/main.o
                0x0000000008020dc0                main
 .text.assert_failed
                0x0000000008020e4c        0x2 ./Core/Src/main.o
                0x0000000008020e4c                assert_failed
 *fill*         0x0000000008020e4e        0x2 
 .text.MX_RTC_Init
                0x0000000008020e50       0x74 ./Core/Src/rtc.o
                0x0000000008020e50                MX_RTC_Init
 .text.HAL_RTC_MspInit
                0x0000000008020ec4       0x40 ./Core/Src/rtc.o
                0x0000000008020ec4                HAL_RTC_MspInit
 .text.HAL_MspInit
                0x0000000008020f04       0x40 ./Core/Src/stm32f4xx_hal_msp.o
                0x0000000008020f04                HAL_MspInit
 .text.HAL_InitTick
                0x0000000008020f44       0x78 ./Core/Src/stm32f4xx_hal_timebase_tim.o
                0x0000000008020f44                HAL_InitTick
 .text.NMI_Handler
                0x0000000008020fbc       0x10 ./Core/Src/stm32f4xx_it.o
                0x0000000008020fbc                NMI_Handler
 .text.HardFault_Handler
                0x0000000008020fcc       0x10 ./Core/Src/stm32f4xx_it.o
                0x0000000008020fcc                HardFault_Handler
 .text.MemManage_Handler
                0x0000000008020fdc       0x10 ./Core/Src/stm32f4xx_it.o
                0x0000000008020fdc                MemManage_Handler
 .text.BusFault_Handler
                0x0000000008020fec       0x10 ./Core/Src/stm32f4xx_it.o
                0x0000000008020fec                BusFault_Handler
 .text.UsageFault_Handler
                0x0000000008020ffc       0x10 ./Core/Src/stm32f4xx_it.o
                0x0000000008020ffc                UsageFault_Handler
 .text.DebugMon_Handler
                0x000000000802100c        0xc ./Core/Src/stm32f4xx_it.o
                0x000000000802100c                DebugMon_Handler
 .text.DMA1_Stream1_IRQHandler
                0x0000000008021018        0xc ./Core/Src/stm32f4xx_it.o
                0x0000000008021018                DMA1_Stream1_IRQHandler
 .text.DMA1_Stream3_IRQHandler
                0x0000000008021024        0xc ./Core/Src/stm32f4xx_it.o
                0x0000000008021024                DMA1_Stream3_IRQHandler
 .text.TIM1_UP_TIM10_IRQHandler
                0x0000000008021030        0xc ./Core/Src/stm32f4xx_it.o
                0x0000000008021030                TIM1_UP_TIM10_IRQHandler
 .text.TIM2_IRQHandler
                0x000000000802103c        0xc ./Core/Src/stm32f4xx_it.o
                0x000000000802103c                TIM2_IRQHandler
 .text.USART1_IRQHandler
                0x0000000008021048       0x18 ./Core/Src/stm32f4xx_it.o
                0x0000000008021048                USART1_IRQHandler
 .text.USART3_IRQHandler
                0x0000000008021060       0x18 ./Core/Src/stm32f4xx_it.o
                0x0000000008021060                USART3_IRQHandler
 .text.TIM6_IRQHandler
                0x0000000008021078       0x18 ./Core/Src/stm32f4xx_it.o
                0x0000000008021078                TIM6_IRQHandler
 .text.DMA2_Stream1_IRQHandler
                0x0000000008021090        0xc ./Core/Src/stm32f4xx_it.o
                0x0000000008021090                DMA2_Stream1_IRQHandler
 .text.DMA2_Stream2_IRQHandler
                0x000000000802109c        0xc ./Core/Src/stm32f4xx_it.o
                0x000000000802109c                DMA2_Stream2_IRQHandler
 .text.DMA2_Stream6_IRQHandler
                0x00000000080210a8        0xc ./Core/Src/stm32f4xx_it.o
                0x00000000080210a8                DMA2_Stream6_IRQHandler
 .text.DMA2_Stream7_IRQHandler
                0x00000000080210b4        0xc ./Core/Src/stm32f4xx_it.o
                0x00000000080210b4                DMA2_Stream7_IRQHandler
 .text.USART6_IRQHandler
                0x00000000080210c0       0x18 ./Core/Src/stm32f4xx_it.o
                0x00000000080210c0                USART6_IRQHandler
 .text._sbrk    0x00000000080210d8       0x40 ./Core/Src/sysmem.o
                0x00000000080210d8                _sbrk
 .text.SystemInit
                0x0000000008021118       0x14 ./Core/Src/system_stm32f4xx.o
                0x0000000008021118                SystemInit
 .text.MX_TIM6_Init
                0x000000000802112c       0x48 ./Core/Src/tim.o
                0x000000000802112c                MX_TIM6_Init
 .text.MX_TIM7_Init
                0x0000000008021174       0x30 ./Core/Src/tim.o
                0x0000000008021174                MX_TIM7_Init
 .text.MX_TIM10_Init
                0x00000000080211a4       0x34 ./Core/Src/tim.o
                0x00000000080211a4                MX_TIM10_Init
 .text.HAL_TIM_Base_MspInit
                0x00000000080211d8       0x94 ./Core/Src/tim.o
                0x00000000080211d8                HAL_TIM_Base_MspInit
 .text.MX_USART1_UART_Init
                0x000000000802126c       0x38 ./Core/Src/usart.o
                0x000000000802126c                MX_USART1_UART_Init
 .text.MX_USART3_UART_Init
                0x00000000080212a4       0x38 ./Core/Src/usart.o
                0x00000000080212a4                MX_USART3_UART_Init
 .text.MX_USART6_UART_Init
                0x00000000080212dc       0x38 ./Core/Src/usart.o
                0x00000000080212dc                MX_USART6_UART_Init
 .text.HAL_UART_MspInit
                0x0000000008021314      0x308 ./Core/Src/usart.o
                0x0000000008021314                HAL_UART_MspInit
 .text.Reset_Handler
                0x000000000802161c       0x50 ./Core/Startup/startup_stm32f412retx.o
                0x000000000802161c                Reset_Handler
 .text.Default_Handler
                0x000000000802166c        0x2 ./Core/Startup/startup_stm32f412retx.o
                0x000000000802166c                RTC_Alarm_IRQHandler
                0x000000000802166c                EXTI2_IRQHandler
                0x000000000802166c                TIM8_CC_IRQHandler
                0x000000000802166c                FMPI2C1_EV_IRQHandler
                0x000000000802166c                SPI4_IRQHandler
                0x000000000802166c                TIM1_CC_IRQHandler
                0x000000000802166c                DMA2_Stream5_IRQHandler
                0x000000000802166c                DMA1_Stream5_IRQHandler
                0x000000000802166c                PVD_IRQHandler
                0x000000000802166c                SDIO_IRQHandler
                0x000000000802166c                TAMP_STAMP_IRQHandler
                0x000000000802166c                CAN2_RX1_IRQHandler
                0x000000000802166c                EXTI3_IRQHandler
                0x000000000802166c                TIM8_TRG_COM_TIM14_IRQHandler
                0x000000000802166c                DFSDM1_FLT1_IRQHandler
                0x000000000802166c                TIM8_UP_TIM13_IRQHandler
                0x000000000802166c                I2C3_ER_IRQHandler
                0x000000000802166c                EXTI0_IRQHandler
                0x000000000802166c                I2C2_EV_IRQHandler
                0x000000000802166c                DMA1_Stream2_IRQHandler
                0x000000000802166c                CAN1_RX0_IRQHandler
                0x000000000802166c                FPU_IRQHandler
                0x000000000802166c                CAN2_SCE_IRQHandler
                0x000000000802166c                SPI1_IRQHandler
                0x000000000802166c                TIM1_BRK_TIM9_IRQHandler
                0x000000000802166c                CAN2_RX0_IRQHandler
                0x000000000802166c                DMA2_Stream3_IRQHandler
                0x000000000802166c                CAN1_RX1_IRQHandler
                0x000000000802166c                DMA2_Stream0_IRQHandler
                0x000000000802166c                TIM4_IRQHandler
                0x000000000802166c                QUADSPI_IRQHandler
                0x000000000802166c                I2C1_EV_IRQHandler
                0x000000000802166c                DMA1_Stream6_IRQHandler
                0x000000000802166c                TIM3_IRQHandler
                0x000000000802166c                RCC_IRQHandler
                0x000000000802166c                TIM8_BRK_TIM12_IRQHandler
                0x000000000802166c                Default_Handler
                0x000000000802166c                EXTI15_10_IRQHandler
                0x000000000802166c                ADC_IRQHandler
                0x000000000802166c                DMA1_Stream7_IRQHandler
                0x000000000802166c                SPI5_IRQHandler
                0x000000000802166c                TIM7_IRQHandler
                0x000000000802166c                CAN2_TX_IRQHandler
                0x000000000802166c                TIM5_IRQHandler
                0x000000000802166c                I2C3_EV_IRQHandler
                0x000000000802166c                EXTI9_5_IRQHandler
                0x000000000802166c                RTC_WKUP_IRQHandler
                0x000000000802166c                SPI2_IRQHandler
                0x000000000802166c                DMA1_Stream0_IRQHandler
                0x000000000802166c                CAN1_TX_IRQHandler
                0x000000000802166c                FMPI2C1_ER_IRQHandler
                0x000000000802166c                EXTI4_IRQHandler
                0x000000000802166c                RNG_IRQHandler
                0x000000000802166c                WWDG_IRQHandler
                0x000000000802166c                OTG_FS_WKUP_IRQHandler
                0x000000000802166c                TIM1_TRG_COM_TIM11_IRQHandler
                0x000000000802166c                EXTI1_IRQHandler
                0x000000000802166c                USART2_IRQHandler
                0x000000000802166c                DFSDM1_FLT0_IRQHandler
                0x000000000802166c                I2C2_ER_IRQHandler
                0x000000000802166c                CAN1_SCE_IRQHandler
                0x000000000802166c                FLASH_IRQHandler
                0x000000000802166c                DMA2_Stream4_IRQHandler
                0x000000000802166c                OTG_FS_IRQHandler
                0x000000000802166c                SPI3_IRQHandler
                0x000000000802166c                DMA1_Stream4_IRQHandler
                0x000000000802166c                I2C1_ER_IRQHandler
 .text.stm32_lock_acquire
                0x000000000802166e       0x2e ./Core/ThreadSafe/newlib_lock_glue.o
 .text.stm32_lock_release
                0x000000000802169c       0x20 ./Core/ThreadSafe/newlib_lock_glue.o
 .text.__retarget_lock_acquire
                0x00000000080216bc       0x14 ./Core/ThreadSafe/newlib_lock_glue.o
                0x00000000080216bc                __retarget_lock_acquire
 .text.__retarget_lock_acquire_recursive
                0x00000000080216d0        0x4 ./Core/ThreadSafe/newlib_lock_glue.o
                0x00000000080216d0                __retarget_lock_acquire_recursive
 .text.__retarget_lock_release
                0x00000000080216d4       0x14 ./Core/ThreadSafe/newlib_lock_glue.o
                0x00000000080216d4                __retarget_lock_release
 .text.__retarget_lock_release_recursive
                0x00000000080216e8        0x4 ./Core/ThreadSafe/newlib_lock_glue.o
                0x00000000080216e8                __retarget_lock_release_recursive
 .text.HAL_Init
                0x00000000080216ec       0x34 ./Drivers/STM32F4xx_HAL_Driver/Src/stm32f4xx_hal.o
                0x00000000080216ec                HAL_Init
 .text.HAL_IncTick
                0x0000000008021720       0x18 ./Drivers/STM32F4xx_HAL_Driver/Src/stm32f4xx_hal.o
                0x0000000008021720                HAL_IncTick
 .text.HAL_GetTick
                0x0000000008021738        0xc ./Drivers/STM32F4xx_HAL_Driver/Src/stm32f4xx_hal.o
                0x0000000008021738                HAL_GetTick
 .text.HAL_Delay
                0x0000000008021744       0x28 ./Drivers/STM32F4xx_HAL_Driver/Src/stm32f4xx_hal.o
                0x0000000008021744                HAL_Delay
 .text.HAL_NVIC_SetPriorityGrouping
                0x000000000802176c       0x38 ./Drivers/STM32F4xx_HAL_Driver/Src/stm32f4xx_hal_cortex.o
                0x000000000802176c                HAL_NVIC_SetPriorityGrouping
 .text.HAL_NVIC_SetPriority
                0x00000000080217a4       0x88 ./Drivers/STM32F4xx_HAL_Driver/Src/stm32f4xx_hal_cortex.o
                0x00000000080217a4                HAL_NVIC_SetPriority
 .text.HAL_NVIC_EnableIRQ
                0x000000000802182c       0x28 ./Drivers/STM32F4xx_HAL_Driver/Src/stm32f4xx_hal_cortex.o
                0x000000000802182c                HAL_NVIC_EnableIRQ
 .text.HAL_NVIC_SystemReset
                0x0000000008021854       0x24 ./Drivers/STM32F4xx_HAL_Driver/Src/stm32f4xx_hal_cortex.o
                0x0000000008021854                HAL_NVIC_SystemReset
 .text.DMA_CalcBaseAndBitshift
                0x0000000008021878       0x2c ./Drivers/STM32F4xx_HAL_Driver/Src/stm32f4xx_hal_dma.o
 .text.HAL_DMA_Init
                0x00000000080218a4      0x258 ./Drivers/STM32F4xx_HAL_Driver/Src/stm32f4xx_hal_dma.o
                0x00000000080218a4                HAL_DMA_Init
 .text.HAL_DMA_Start_IT
                0x0000000008021afc       0xa0 ./Drivers/STM32F4xx_HAL_Driver/Src/stm32f4xx_hal_dma.o
                0x0000000008021afc                HAL_DMA_Start_IT
 .text.HAL_DMA_Abort
                0x0000000008021b9c       0x88 ./Drivers/STM32F4xx_HAL_Driver/Src/stm32f4xx_hal_dma.o
                0x0000000008021b9c                HAL_DMA_Abort
 .text.HAL_DMA_Abort_IT
                0x0000000008021c24       0x24 ./Drivers/STM32F4xx_HAL_Driver/Src/stm32f4xx_hal_dma.o
                0x0000000008021c24                HAL_DMA_Abort_IT
 .text.HAL_DMA_IRQHandler
                0x0000000008021c48      0x17c ./Drivers/STM32F4xx_HAL_Driver/Src/stm32f4xx_hal_dma.o
                0x0000000008021c48                HAL_DMA_IRQHandler
 .text.FLASH_SetErrorCode
                0x0000000008021dc4       0x8c ./Drivers/STM32F4xx_HAL_Driver/Src/stm32f4xx_hal_flash.o
 .text.FLASH_Program_Byte
                0x0000000008021e50       0x4c ./Drivers/STM32F4xx_HAL_Driver/Src/stm32f4xx_hal_flash.o
 .text.FLASH_Program_HalfWord
                0x0000000008021e9c       0x50 ./Drivers/STM32F4xx_HAL_Driver/Src/stm32f4xx_hal_flash.o
 .text.FLASH_Program_Word
                0x0000000008021eec       0x50 ./Drivers/STM32F4xx_HAL_Driver/Src/stm32f4xx_hal_flash.o
 .text.FLASH_Program_DoubleWord
                0x0000000008021f3c       0x58 ./Drivers/STM32F4xx_HAL_Driver/Src/stm32f4xx_hal_flash.o
 .text.HAL_FLASH_Unlock
                0x0000000008021f94       0x24 ./Drivers/STM32F4xx_HAL_Driver/Src/stm32f4xx_hal_flash.o
                0x0000000008021f94                HAL_FLASH_Unlock
 .text.HAL_FLASH_Lock
                0x0000000008021fb8       0x14 ./Drivers/STM32F4xx_HAL_Driver/Src/stm32f4xx_hal_flash.o
                0x0000000008021fb8                HAL_FLASH_Lock
 .text.FLASH_WaitForLastOperation
                0x0000000008021fcc       0x54 ./Drivers/STM32F4xx_HAL_Driver/Src/stm32f4xx_hal_flash.o
                0x0000000008021fcc                FLASH_WaitForLastOperation
 .text.HAL_FLASH_Program
                0x0000000008022020       0x8c ./Drivers/STM32F4xx_HAL_Driver/Src/stm32f4xx_hal_flash.o
                0x0000000008022020                HAL_FLASH_Program
 .text.FLASH_MassErase
                0x00000000080220ac       0x4c ./Drivers/STM32F4xx_HAL_Driver/Src/stm32f4xx_hal_flash_ex.o
 .text.FLASH_Erase_Sector
                0x00000000080220f8       0x78 ./Drivers/STM32F4xx_HAL_Driver/Src/stm32f4xx_hal_flash_ex.o
                0x00000000080220f8                FLASH_Erase_Sector
 .text.FLASH_FlushCaches
                0x0000000008022170       0x58 ./Drivers/STM32F4xx_HAL_Driver/Src/stm32f4xx_hal_flash_ex.o
                0x0000000008022170                FLASH_FlushCaches
 .text.HAL_FLASHEx_Erase
                0x00000000080221c8       0xc4 ./Drivers/STM32F4xx_HAL_Driver/Src/stm32f4xx_hal_flash_ex.o
                0x00000000080221c8                HAL_FLASHEx_Erase
 .text.HAL_GPIO_Init
                0x000000000802228c      0x250 ./Drivers/STM32F4xx_HAL_Driver/Src/stm32f4xx_hal_gpio.o
                0x000000000802228c                HAL_GPIO_Init
 .text.HAL_GPIO_ReadPin
                0x00000000080224dc       0x24 ./Drivers/STM32F4xx_HAL_Driver/Src/stm32f4xx_hal_gpio.o
                0x00000000080224dc                HAL_GPIO_ReadPin
 .text.HAL_GPIO_WritePin
                0x0000000008022500       0x34 ./Drivers/STM32F4xx_HAL_Driver/Src/stm32f4xx_hal_gpio.o
                0x0000000008022500                HAL_GPIO_WritePin
 .text.HAL_GPIO_TogglePin
                0x0000000008022534       0x28 ./Drivers/STM32F4xx_HAL_Driver/Src/stm32f4xx_hal_gpio.o
                0x0000000008022534                HAL_GPIO_TogglePin
 .text.HAL_IWDG_Init
                0x000000000802255c       0x88 ./Drivers/STM32F4xx_HAL_Driver/Src/stm32f4xx_hal_iwdg.o
                0x000000000802255c                HAL_IWDG_Init
 .text.HAL_IWDG_Refresh
                0x00000000080225e4        0xc ./Drivers/STM32F4xx_HAL_Driver/Src/stm32f4xx_hal_iwdg.o
                0x00000000080225e4                HAL_IWDG_Refresh
 .text.HAL_RCC_GetSysClockFreq
                0x00000000080225f0       0x5c ./Drivers/STM32F4xx_HAL_Driver/Src/stm32f4xx_hal_rcc.o
                0x00000000080225f0                HAL_RCC_GetSysClockFreq
 .text.HAL_RCC_ClockConfig
                0x000000000802264c      0x1e8 ./Drivers/STM32F4xx_HAL_Driver/Src/stm32f4xx_hal_rcc.o
                0x000000000802264c                HAL_RCC_ClockConfig
 .text.HAL_RCC_GetPCLK1Freq
                0x0000000008022834       0x20 ./Drivers/STM32F4xx_HAL_Driver/Src/stm32f4xx_hal_rcc.o
                0x0000000008022834                HAL_RCC_GetPCLK1Freq
 .text.HAL_RCC_GetPCLK2Freq
                0x0000000008022854       0x20 ./Drivers/STM32F4xx_HAL_Driver/Src/stm32f4xx_hal_rcc.o
                0x0000000008022854                HAL_RCC_GetPCLK2Freq
 .text.HAL_RCC_GetClockConfig
                0x0000000008022874       0x3c ./Drivers/STM32F4xx_HAL_Driver/Src/stm32f4xx_hal_rcc.o
                0x0000000008022874                HAL_RCC_GetClockConfig
 .text.HAL_RCCEx_PeriphCLKConfig
                0x00000000080228b0      0x418 ./Drivers/STM32F4xx_HAL_Driver/Src/stm32f4xx_hal_rcc_ex.o
                0x00000000080228b0                HAL_RCCEx_PeriphCLKConfig
 .text.HAL_RCC_OscConfig
                0x0000000008022cc8      0x470 ./Drivers/STM32F4xx_HAL_Driver/Src/stm32f4xx_hal_rcc_ex.o
                0x0000000008022cc8                HAL_RCC_OscConfig
 .text.HAL_RTC_WaitForSynchro
                0x0000000008023138       0x30 ./Drivers/STM32F4xx_HAL_Driver/Src/stm32f4xx_hal_rtc.o
                0x0000000008023138                HAL_RTC_WaitForSynchro
 .text.RTC_EnterInitMode
                0x0000000008023168       0x42 ./Drivers/STM32F4xx_HAL_Driver/Src/stm32f4xx_hal_rtc.o
                0x0000000008023168                RTC_EnterInitMode
 .text.RTC_ExitInitMode
                0x00000000080231aa       0x28 ./Drivers/STM32F4xx_HAL_Driver/Src/stm32f4xx_hal_rtc.o
                0x00000000080231aa                RTC_ExitInitMode
 *fill*         0x00000000080231d2        0x2 
 .text.HAL_RTC_Init
                0x00000000080231d4      0x108 ./Drivers/STM32F4xx_HAL_Driver/Src/stm32f4xx_hal_rtc.o
                0x00000000080231d4                HAL_RTC_Init
 .text.RTC_ByteToBcd2
                0x00000000080232dc       0x1a ./Drivers/STM32F4xx_HAL_Driver/Src/stm32f4xx_hal_rtc.o
                0x00000000080232dc                RTC_ByteToBcd2
 .text.RTC_Bcd2ToByte
                0x00000000080232f6       0x12 ./Drivers/STM32F4xx_HAL_Driver/Src/stm32f4xx_hal_rtc.o
                0x00000000080232f6                RTC_Bcd2ToByte
 .text.HAL_RTC_SetTime
                0x0000000008023308      0x194 ./Drivers/STM32F4xx_HAL_Driver/Src/stm32f4xx_hal_rtc.o
                0x0000000008023308                HAL_RTC_SetTime
 .text.HAL_RTC_GetTime
                0x000000000802349c       0x60 ./Drivers/STM32F4xx_HAL_Driver/Src/stm32f4xx_hal_rtc.o
                0x000000000802349c                HAL_RTC_GetTime
 .text.HAL_RTC_SetDate
                0x00000000080234fc      0x138 ./Drivers/STM32F4xx_HAL_Driver/Src/stm32f4xx_hal_rtc.o
                0x00000000080234fc                HAL_RTC_SetDate
 .text.HAL_RTC_GetDate
                0x0000000008023634       0x54 ./Drivers/STM32F4xx_HAL_Driver/Src/stm32f4xx_hal_rtc.o
                0x0000000008023634                HAL_RTC_GetDate
 .text.HAL_TIM_Base_Start_IT
                0x0000000008023688       0xf4 ./Drivers/STM32F4xx_HAL_Driver/Src/stm32f4xx_hal_tim.o
                0x0000000008023688                HAL_TIM_Base_Start_IT
 .text.HAL_TIM_OC_DelayElapsedCallback
                0x000000000802377c        0x2 ./Drivers/STM32F4xx_HAL_Driver/Src/stm32f4xx_hal_tim.o
                0x000000000802377c                HAL_TIM_OC_DelayElapsedCallback
 .text.HAL_TIM_IC_CaptureCallback
                0x000000000802377e        0x2 ./Drivers/STM32F4xx_HAL_Driver/Src/stm32f4xx_hal_tim.o
                0x000000000802377e                HAL_TIM_IC_CaptureCallback
 .text.HAL_TIM_PWM_PulseFinishedCallback
                0x0000000008023780        0x2 ./Drivers/STM32F4xx_HAL_Driver/Src/stm32f4xx_hal_tim.o
                0x0000000008023780                HAL_TIM_PWM_PulseFinishedCallback
 .text.HAL_TIM_TriggerCallback
                0x0000000008023782        0x2 ./Drivers/STM32F4xx_HAL_Driver/Src/stm32f4xx_hal_tim.o
                0x0000000008023782                HAL_TIM_TriggerCallback
 .text.HAL_TIM_IRQHandler
                0x0000000008023784      0x144 ./Drivers/STM32F4xx_HAL_Driver/Src/stm32f4xx_hal_tim.o
                0x0000000008023784                HAL_TIM_IRQHandler
 .text.TIM_Base_SetConfig
                0x00000000080238c8       0xcc ./Drivers/STM32F4xx_HAL_Driver/Src/stm32f4xx_hal_tim.o
                0x00000000080238c8                TIM_Base_SetConfig
 .text.HAL_TIM_Base_Init
                0x0000000008023994      0x128 ./Drivers/STM32F4xx_HAL_Driver/Src/stm32f4xx_hal_tim.o
                0x0000000008023994                HAL_TIM_Base_Init
 .text.HAL_TIMEx_MasterConfigSynchronization
                0x0000000008023abc       0xec ./Drivers/STM32F4xx_HAL_Driver/Src/stm32f4xx_hal_tim_ex.o
                0x0000000008023abc                HAL_TIMEx_MasterConfigSynchronization
 .text.HAL_TIMEx_CommutCallback
                0x0000000008023ba8        0x2 ./Drivers/STM32F4xx_HAL_Driver/Src/stm32f4xx_hal_tim_ex.o
                0x0000000008023ba8                HAL_TIMEx_CommutCallback
 .text.HAL_TIMEx_BreakCallback
                0x0000000008023baa        0x2 ./Drivers/STM32F4xx_HAL_Driver/Src/stm32f4xx_hal_tim_ex.o
                0x0000000008023baa                HAL_TIMEx_BreakCallback
 .text.UART_EndRxTransfer
                0x0000000008023bac       0x5c ./Drivers/STM32F4xx_HAL_Driver/Src/stm32f4xx_hal_uart.o
 .text.UART_SetConfig
                0x0000000008023c08      0x118 ./Drivers/STM32F4xx_HAL_Driver/Src/stm32f4xx_hal_uart.o
 .text.UART_WaitOnFlagUntilTimeout.constprop.0
                0x0000000008023d20       0x6c ./Drivers/STM32F4xx_HAL_Driver/Src/stm32f4xx_hal_uart.o
 .text.HAL_UART_Init
                0x0000000008023d8c       0xec ./Drivers/STM32F4xx_HAL_Driver/Src/stm32f4xx_hal_uart.o
                0x0000000008023d8c                HAL_UART_Init
 .text.HAL_UART_Transmit
                0x0000000008023e78       0xaa ./Drivers/STM32F4xx_HAL_Driver/Src/stm32f4xx_hal_uart.o
                0x0000000008023e78                HAL_UART_Transmit
 .text.HAL_UART_DMAStop
                0x0000000008023f22       0x8c ./Drivers/STM32F4xx_HAL_Driver/Src/stm32f4xx_hal_uart.o
                0x0000000008023f22                HAL_UART_DMAStop
 .text.HAL_UART_RxCpltCallback
                0x0000000008023fae        0x2 ./Drivers/STM32F4xx_HAL_Driver/Src/stm32f4xx_hal_uart.o
                0x0000000008023fae                HAL_UART_RxCpltCallback
 .text.HAL_UART_RxHalfCpltCallback
                0x0000000008023fb0        0x2 ./Drivers/STM32F4xx_HAL_Driver/Src/stm32f4xx_hal_uart.o
                0x0000000008023fb0                HAL_UART_RxHalfCpltCallback
 .text.HAL_UART_ErrorCallback
                0x0000000008023fb2        0x2 ./Drivers/STM32F4xx_HAL_Driver/Src/stm32f4xx_hal_uart.o
                0x0000000008023fb2                HAL_UART_ErrorCallback
 .text.UART_DMAError
                0x0000000008023fb4       0x5a ./Drivers/STM32F4xx_HAL_Driver/Src/stm32f4xx_hal_uart.o
 .text.UART_DMAAbortOnError
                0x000000000802400e       0x10 ./Drivers/STM32F4xx_HAL_Driver/Src/stm32f4xx_hal_uart.o
 .text.HAL_UARTEx_RxEventCallback
                0x000000000802401e        0x2 ./Drivers/STM32F4xx_HAL_Driver/Src/stm32f4xx_hal_uart.o
                0x000000000802401e                HAL_UARTEx_RxEventCallback
 .text.UART_Receive_IT
                0x0000000008024020       0xb8 ./Drivers/STM32F4xx_HAL_Driver/Src/stm32f4xx_hal_uart.o
 .text.HAL_UART_IRQHandler
                0x00000000080240d8      0x290 ./Drivers/STM32F4xx_HAL_Driver/Src/stm32f4xx_hal_uart.o
                0x00000000080240d8                HAL_UART_IRQHandler
 .text.UART_DMARxHalfCplt
                0x0000000008024368       0x1a ./Drivers/STM32F4xx_HAL_Driver/Src/stm32f4xx_hal_uart.o
 .text.UART_DMAReceiveCplt
                0x0000000008024382       0x94 ./Drivers/STM32F4xx_HAL_Driver/Src/stm32f4xx_hal_uart.o
 *fill*         0x0000000008024416        0x2 
 .text.UART_Start_Receive_DMA
                0x0000000008024418       0x9c ./Drivers/STM32F4xx_HAL_Driver/Src/stm32f4xx_hal_uart.o
                0x0000000008024418                UART_Start_Receive_DMA
 .text.HAL_UART_Receive_DMA
                0x00000000080244b4       0x30 ./Drivers/STM32F4xx_HAL_Driver/Src/stm32f4xx_hal_uart.o
                0x00000000080244b4                HAL_UART_Receive_DMA
 .text.SysTick_Handler
                0x00000000080244e4       0x1c ./Middlewares/Third_Party/FreeRTOS/Source/CMSIS_RTOS_V2/cmsis_os2.o
                0x00000000080244e4                SysTick_Handler
 .text.osKernelInitialize
                0x0000000008024500       0x24 ./Middlewares/Third_Party/FreeRTOS/Source/CMSIS_RTOS_V2/cmsis_os2.o
                0x0000000008024500                osKernelInitialize
 .text.osKernelStart
                0x0000000008024524       0x34 ./Middlewares/Third_Party/FreeRTOS/Source/CMSIS_RTOS_V2/cmsis_os2.o
                0x0000000008024524                osKernelStart
 .text.osThreadNew
                0x0000000008024558       0x92 ./Middlewares/Third_Party/FreeRTOS/Source/CMSIS_RTOS_V2/cmsis_os2.o
                0x0000000008024558                osThreadNew
 .text.osThreadSuspend
                0x00000000080245ea       0x1e ./Middlewares/Third_Party/FreeRTOS/Source/CMSIS_RTOS_V2/cmsis_os2.o
                0x00000000080245ea                osThreadSuspend
 .text.osThreadResume
                0x0000000008024608       0x1e ./Middlewares/Third_Party/FreeRTOS/Source/CMSIS_RTOS_V2/cmsis_os2.o
                0x0000000008024608                osThreadResume
 .text.osThreadTerminate
                0x0000000008024626       0x30 ./Middlewares/Third_Party/FreeRTOS/Source/CMSIS_RTOS_V2/cmsis_os2.o
                0x0000000008024626                osThreadTerminate
 .text.osDelay  0x0000000008024656       0x18 ./Middlewares/Third_Party/FreeRTOS/Source/CMSIS_RTOS_V2/cmsis_os2.o
                0x0000000008024656                osDelay
 .text.osEventFlagsNew
                0x000000000802466e       0x22 ./Middlewares/Third_Party/FreeRTOS/Source/CMSIS_RTOS_V2/cmsis_os2.o
                0x000000000802466e                osEventFlagsNew
 .text.osMutexNew
                0x0000000008024690       0x6a ./Middlewares/Third_Party/FreeRTOS/Source/CMSIS_RTOS_V2/cmsis_os2.o
                0x0000000008024690                osMutexNew
 .text.osMutexAcquire
                0x00000000080246fa       0x44 ./Middlewares/Third_Party/FreeRTOS/Source/CMSIS_RTOS_V2/cmsis_os2.o
                0x00000000080246fa                osMutexAcquire
 .text.osMutexRelease
                0x000000000802473e       0x3c ./Middlewares/Third_Party/FreeRTOS/Source/CMSIS_RTOS_V2/cmsis_os2.o
                0x000000000802473e                osMutexRelease
 .text.osSemaphoreNew
                0x000000000802477a       0x94 ./Middlewares/Third_Party/FreeRTOS/Source/CMSIS_RTOS_V2/cmsis_os2.o
                0x000000000802477a                osSemaphoreNew
 *fill*         0x000000000802480e        0x2 
 .text.osSemaphoreAcquire
                0x0000000008024810       0x58 ./Middlewares/Third_Party/FreeRTOS/Source/CMSIS_RTOS_V2/cmsis_os2.o
                0x0000000008024810                osSemaphoreAcquire
 .text.osSemaphoreRelease
                0x0000000008024868       0x50 ./Middlewares/Third_Party/FreeRTOS/Source/CMSIS_RTOS_V2/cmsis_os2.o
                0x0000000008024868                osSemaphoreRelease
 .text.osSemaphoreGetCount
                0x00000000080248b8       0x12 ./Middlewares/Third_Party/FreeRTOS/Source/CMSIS_RTOS_V2/cmsis_os2.o
                0x00000000080248b8                osSemaphoreGetCount
 .text.osMessageQueueNew
                0x00000000080248ca       0x76 ./Middlewares/Third_Party/FreeRTOS/Source/CMSIS_RTOS_V2/cmsis_os2.o
                0x00000000080248ca                osMessageQueueNew
 .text.osMessageQueuePut
                0x0000000008024940       0x60 ./Middlewares/Third_Party/FreeRTOS/Source/CMSIS_RTOS_V2/cmsis_os2.o
                0x0000000008024940                osMessageQueuePut
 .text.osMessageQueueGet
                0x00000000080249a0       0x60 ./Middlewares/Third_Party/FreeRTOS/Source/CMSIS_RTOS_V2/cmsis_os2.o
                0x00000000080249a0                osMessageQueueGet
 .text.osMessageQueueGetCount
                0x0000000008024a00        0x4 ./Middlewares/Third_Party/FreeRTOS/Source/CMSIS_RTOS_V2/cmsis_os2.o
                0x0000000008024a00                osMessageQueueGetCount
 .text.vApplicationGetIdleTaskMemory
                0x0000000008024a04       0x18 ./Middlewares/Third_Party/FreeRTOS/Source/CMSIS_RTOS_V2/cmsis_os2.o
                0x0000000008024a04                vApplicationGetIdleTaskMemory
 .text.vApplicationGetTimerTaskMemory
                0x0000000008024a1c       0x18 ./Middlewares/Third_Party/FreeRTOS/Source/CMSIS_RTOS_V2/cmsis_os2.o
                0x0000000008024a1c                vApplicationGetTimerTaskMemory
 .text.xEventGroupCreateStatic
                0x0000000008024a34       0x48 ./Middlewares/Third_Party/FreeRTOS/Source/event_groups.o
                0x0000000008024a34                xEventGroupCreateStatic
 .text.xEventGroupCreate
                0x0000000008024a7c       0x1c ./Middlewares/Third_Party/FreeRTOS/Source/event_groups.o
                0x0000000008024a7c                xEventGroupCreate
 .text.vListInitialise
                0x0000000008024a98       0x16 ./Middlewares/Third_Party/FreeRTOS/Source/list.o
                0x0000000008024a98                vListInitialise
 .text.vListInitialiseItem
                0x0000000008024aae        0x6 ./Middlewares/Third_Party/FreeRTOS/Source/list.o
                0x0000000008024aae                vListInitialiseItem
 .text.vListInsertEnd
                0x0000000008024ab4       0x18 ./Middlewares/Third_Party/FreeRTOS/Source/list.o
                0x0000000008024ab4                vListInsertEnd
 .text.vListInsert
                0x0000000008024acc       0x2e ./Middlewares/Third_Party/FreeRTOS/Source/list.o
                0x0000000008024acc                vListInsert
 .text.uxListRemove
                0x0000000008024afa       0x20 ./Middlewares/Third_Party/FreeRTOS/Source/list.o
                0x0000000008024afa                uxListRemove
 .text.prvIsQueueEmpty
                0x0000000008024b1a       0x16 ./Middlewares/Third_Party/FreeRTOS/Source/queue.o
 .text.prvCopyDataToQueue
                0x0000000008024b30       0x6a ./Middlewares/Third_Party/FreeRTOS/Source/queue.o
 .text.prvCopyDataFromQueue
                0x0000000008024b9a       0x2c ./Middlewares/Third_Party/FreeRTOS/Source/queue.o
 .text.prvUnlockQueue
                0x0000000008024bc6       0x70 ./Middlewares/Third_Party/FreeRTOS/Source/queue.o
 *fill*         0x0000000008024c36        0x2 
 .text.xQueueGenericReset
                0x0000000008024c38       0x80 ./Middlewares/Third_Party/FreeRTOS/Source/queue.o
                0x0000000008024c38                xQueueGenericReset
 .text.xQueueGenericCreateStatic
                0x0000000008024cb8       0x9c ./Middlewares/Third_Party/FreeRTOS/Source/queue.o
                0x0000000008024cb8                xQueueGenericCreateStatic
 .text.xQueueGenericCreate
                0x0000000008024d54       0x4e ./Middlewares/Third_Party/FreeRTOS/Source/queue.o
                0x0000000008024d54                xQueueGenericCreate
 .text.xQueueCreateCountingSemaphoreStatic
                0x0000000008024da2       0x44 ./Middlewares/Third_Party/FreeRTOS/Source/queue.o
                0x0000000008024da2                xQueueCreateCountingSemaphoreStatic
 .text.xQueueCreateCountingSemaphore
                0x0000000008024de6       0x3c ./Middlewares/Third_Party/FreeRTOS/Source/queue.o
                0x0000000008024de6                xQueueCreateCountingSemaphore
 *fill*         0x0000000008024e22        0x2 
 .text.xQueueGenericSend
                0x0000000008024e24      0x164 ./Middlewares/Third_Party/FreeRTOS/Source/queue.o
                0x0000000008024e24                xQueueGenericSend
 .text.xQueueCreateMutexStatic
                0x0000000008024f88       0x2a ./Middlewares/Third_Party/FreeRTOS/Source/queue.o
                0x0000000008024f88                xQueueCreateMutexStatic
 .text.xQueueGiveMutexRecursive
                0x0000000008024fb2       0x3c ./Middlewares/Third_Party/FreeRTOS/Source/queue.o
                0x0000000008024fb2                xQueueGiveMutexRecursive
 .text.xQueueCreateMutex
                0x0000000008024fee       0x3a ./Middlewares/Third_Party/FreeRTOS/Source/queue.o
                0x0000000008024fee                xQueueCreateMutex
 .text.xQueueGenericSendFromISR
                0x0000000008025028       0xc4 ./Middlewares/Third_Party/FreeRTOS/Source/queue.o
                0x0000000008025028                xQueueGenericSendFromISR
 .text.xQueueGiveFromISR
                0x00000000080250ec       0xa8 ./Middlewares/Third_Party/FreeRTOS/Source/queue.o
                0x00000000080250ec                xQueueGiveFromISR
 .text.xQueueReceive
                0x0000000008025194      0x140 ./Middlewares/Third_Party/FreeRTOS/Source/queue.o
                0x0000000008025194                xQueueReceive
 .text.xQueueSemaphoreTake
                0x00000000080252d4      0x188 ./Middlewares/Third_Party/FreeRTOS/Source/queue.o
                0x00000000080252d4                xQueueSemaphoreTake
 .text.xQueueTakeMutexRecursive
                0x000000000802545c       0x44 ./Middlewares/Third_Party/FreeRTOS/Source/queue.o
                0x000000000802545c                xQueueTakeMutexRecursive
 .text.xQueueReceiveFromISR
                0x00000000080254a0       0x9e ./Middlewares/Third_Party/FreeRTOS/Source/queue.o
                0x00000000080254a0                xQueueReceiveFromISR
 .text.uxQueueMessagesWaiting
                0x000000000802553e       0x2a ./Middlewares/Third_Party/FreeRTOS/Source/queue.o
                0x000000000802553e                uxQueueMessagesWaiting
 .text.uxQueueMessagesWaitingFromISR
                0x0000000008025568       0x18 ./Middlewares/Third_Party/FreeRTOS/Source/queue.o
                0x0000000008025568                uxQueueMessagesWaitingFromISR
 .text.vQueueAddToRegistry
                0x0000000008025580       0x24 ./Middlewares/Third_Party/FreeRTOS/Source/queue.o
                0x0000000008025580                vQueueAddToRegistry
 .text.vQueueUnregisterQueue
                0x00000000080255a4       0x30 ./Middlewares/Third_Party/FreeRTOS/Source/queue.o
                0x00000000080255a4                vQueueUnregisterQueue
 .text.vQueueDelete
                0x00000000080255d4       0x2a ./Middlewares/Third_Party/FreeRTOS/Source/queue.o
                0x00000000080255d4                vQueueDelete
 .text.vQueueWaitForMessageRestricted
                0x00000000080255fe       0x46 ./Middlewares/Third_Party/FreeRTOS/Source/queue.o
                0x00000000080255fe                vQueueWaitForMessageRestricted
 .text.prvAddNewTaskToReadyList
                0x0000000008025644      0x100 ./Middlewares/Third_Party/FreeRTOS/Source/tasks.o
 .text.prvTaskIsTaskSuspended
                0x0000000008025744       0x38 ./Middlewares/Third_Party/FreeRTOS/Source/tasks.o
 .text.prvResetNextTaskUnblockTime
                0x000000000802577c       0x24 ./Middlewares/Third_Party/FreeRTOS/Source/tasks.o
 .text.prvInitialiseNewTask.isra.0
                0x00000000080257a0       0xc4 ./Middlewares/Third_Party/FreeRTOS/Source/tasks.o
 .text.prvDeleteTCB
                0x0000000008025864       0x3c ./Middlewares/Third_Party/FreeRTOS/Source/tasks.o
 .text.prvIdleTask
                0x00000000080258a0       0x68 ./Middlewares/Third_Party/FreeRTOS/Source/tasks.o
 .text.prvAddCurrentTaskToDelayedList
                0x0000000008025908       0x74 ./Middlewares/Third_Party/FreeRTOS/Source/tasks.o
 .text.xTaskCreateStatic
                0x000000000802597c       0x70 ./Middlewares/Third_Party/FreeRTOS/Source/tasks.o
                0x000000000802597c                xTaskCreateStatic
 .text.xTaskCreate
                0x00000000080259ec       0x5a ./Middlewares/Third_Party/FreeRTOS/Source/tasks.o
                0x00000000080259ec                xTaskCreate
 *fill*         0x0000000008025a46        0x2 
 .text.vTaskDelete
                0x0000000008025a48       0xb0 ./Middlewares/Third_Party/FreeRTOS/Source/tasks.o
                0x0000000008025a48                vTaskDelete
 .text.eTaskGetState
                0x0000000008025af8       0x84 ./Middlewares/Third_Party/FreeRTOS/Source/tasks.o
                0x0000000008025af8                eTaskGetState
 .text.vTaskResume
                0x0000000008025b7c       0x88 ./Middlewares/Third_Party/FreeRTOS/Source/tasks.o
                0x0000000008025b7c                vTaskResume
 .text.vTaskStartScheduler
                0x0000000008025c04       0x98 ./Middlewares/Third_Party/FreeRTOS/Source/tasks.o
                0x0000000008025c04                vTaskStartScheduler
 .text.vTaskSuspendAll
                0x0000000008025c9c       0x10 ./Middlewares/Third_Party/FreeRTOS/Source/tasks.o
                0x0000000008025c9c                vTaskSuspendAll
 .text.xTaskGetTickCount
                0x0000000008025cac        0xc ./Middlewares/Third_Party/FreeRTOS/Source/tasks.o
                0x0000000008025cac                xTaskGetTickCount
 .text.xTaskIncrementTick
                0x0000000008025cb8      0x13c ./Middlewares/Third_Party/FreeRTOS/Source/tasks.o
                0x0000000008025cb8                xTaskIncrementTick
 .text.xTaskResumeAll
                0x0000000008025df4       0xe8 ./Middlewares/Third_Party/FreeRTOS/Source/tasks.o
                0x0000000008025df4                xTaskResumeAll
 .text.vTaskDelay
                0x0000000008025edc       0x48 ./Middlewares/Third_Party/FreeRTOS/Source/tasks.o
                0x0000000008025edc                vTaskDelay
 .text.vTaskSwitchContext
                0x0000000008025f24       0x84 ./Middlewares/Third_Party/FreeRTOS/Source/tasks.o
                0x0000000008025f24                vTaskSwitchContext
 .text.vTaskSuspend
                0x0000000008025fa8       0xb4 ./Middlewares/Third_Party/FreeRTOS/Source/tasks.o
                0x0000000008025fa8                vTaskSuspend
 .text.vTaskPlaceOnEventList
                0x000000000802605c       0x34 ./Middlewares/Third_Party/FreeRTOS/Source/tasks.o
                0x000000000802605c                vTaskPlaceOnEventList
 .text.vTaskPlaceOnEventListRestricted
                0x0000000008026090       0x3c ./Middlewares/Third_Party/FreeRTOS/Source/tasks.o
                0x0000000008026090                vTaskPlaceOnEventListRestricted
 .text.xTaskRemoveFromEventList
                0x00000000080260cc       0x88 ./Middlewares/Third_Party/FreeRTOS/Source/tasks.o
                0x00000000080260cc                xTaskRemoveFromEventList
 .text.vTaskInternalSetTimeOutState
                0x0000000008026154       0x18 ./Middlewares/Third_Party/FreeRTOS/Source/tasks.o
                0x0000000008026154                vTaskInternalSetTimeOutState
 .text.xTaskCheckForTimeOut
                0x000000000802616c       0x78 ./Middlewares/Third_Party/FreeRTOS/Source/tasks.o
                0x000000000802616c                xTaskCheckForTimeOut
 .text.vTaskMissedYield
                0x00000000080261e4        0xc ./Middlewares/Third_Party/FreeRTOS/Source/tasks.o
                0x00000000080261e4                vTaskMissedYield
 .text.xTaskGetCurrentTaskHandle
                0x00000000080261f0        0xc ./Middlewares/Third_Party/FreeRTOS/Source/tasks.o
                0x00000000080261f0                xTaskGetCurrentTaskHandle
 .text.xTaskGetSchedulerState
                0x00000000080261fc       0x20 ./Middlewares/Third_Party/FreeRTOS/Source/tasks.o
                0x00000000080261fc                xTaskGetSchedulerState
 .text.xTaskPriorityInherit
                0x000000000802621c       0x84 ./Middlewares/Third_Party/FreeRTOS/Source/tasks.o
                0x000000000802621c                xTaskPriorityInherit
 .text.xTaskPriorityDisinherit
                0x00000000080262a0       0x88 ./Middlewares/Third_Party/FreeRTOS/Source/tasks.o
                0x00000000080262a0                xTaskPriorityDisinherit
 .text.vTaskPriorityDisinheritAfterTimeout
                0x0000000008026328       0xa4 ./Middlewares/Third_Party/FreeRTOS/Source/tasks.o
                0x0000000008026328                vTaskPriorityDisinheritAfterTimeout
 .text.pvTaskIncrementMutexHeldCount
                0x00000000080263cc       0x18 ./Middlewares/Third_Party/FreeRTOS/Source/tasks.o
                0x00000000080263cc                pvTaskIncrementMutexHeldCount
 .text.prvCheckForValidListAndQueue
                0x00000000080263e4       0x68 ./Middlewares/Third_Party/FreeRTOS/Source/timers.o
 .text.prvInsertTimerInActiveList
                0x000000000802644c       0x3c ./Middlewares/Third_Party/FreeRTOS/Source/timers.o
 .text.xTimerCreateTimerTask
                0x0000000008026488       0x64 ./Middlewares/Third_Party/FreeRTOS/Source/timers.o
                0x0000000008026488                xTimerCreateTimerTask
 .text.xTimerGenericCommand
                0x00000000080264ec       0x58 ./Middlewares/Third_Party/FreeRTOS/Source/timers.o
                0x00000000080264ec                xTimerGenericCommand
 .text.prvSwitchTimerLists
                0x0000000008026544       0x7c ./Middlewares/Third_Party/FreeRTOS/Source/timers.o
 .text.prvTimerTask
                0x00000000080265c0      0x1fc ./Middlewares/Third_Party/FreeRTOS/Source/timers.o
 .text.prvPortStartFirstTask
                0x00000000080267bc       0x28 ./Middlewares/Third_Party/FreeRTOS/Source/portable/GCC/ARM_CM4F/port.o
 .text.vPortEnableVFP
                0x00000000080267e4       0x14 ./Middlewares/Third_Party/FreeRTOS/Source/portable/GCC/ARM_CM4F/port.o
 .text.prvTaskExitError
                0x00000000080267f8       0x40 ./Middlewares/Third_Party/FreeRTOS/Source/portable/GCC/ARM_CM4F/port.o
 .text.pxPortInitialiseStack
                0x0000000008026838       0x2c ./Middlewares/Third_Party/FreeRTOS/Source/portable/GCC/ARM_CM4F/port.o
                0x0000000008026838                pxPortInitialiseStack
 *fill*         0x0000000008026864        0xc 
 .text.SVC_Handler
                0x0000000008026870       0x24 ./Middlewares/Third_Party/FreeRTOS/Source/portable/GCC/ARM_CM4F/port.o
                0x0000000008026870                SVC_Handler
 .text.vPortEnterCritical
                0x0000000008026894       0x44 ./Middlewares/Third_Party/FreeRTOS/Source/portable/GCC/ARM_CM4F/port.o
                0x0000000008026894                vPortEnterCritical
 .text.vPortExitCritical
                0x00000000080268d8       0x28 ./Middlewares/Third_Party/FreeRTOS/Source/portable/GCC/ARM_CM4F/port.o
                0x00000000080268d8                vPortExitCritical
 .text.PendSV_Handler
                0x0000000008026900       0x64 ./Middlewares/Third_Party/FreeRTOS/Source/portable/GCC/ARM_CM4F/port.o
                0x0000000008026900                PendSV_Handler
 .text.xPortSysTickHandler
                0x0000000008026964       0x2c ./Middlewares/Third_Party/FreeRTOS/Source/portable/GCC/ARM_CM4F/port.o
                0x0000000008026964                xPortSysTickHandler
 .text.vPortSetupTimerInterrupt
                0x0000000008026990       0x34 ./Middlewares/Third_Party/FreeRTOS/Source/portable/GCC/ARM_CM4F/port.o
                0x0000000008026990                vPortSetupTimerInterrupt
 .text.xPortStartScheduler
                0x00000000080269c4      0x108 ./Middlewares/Third_Party/FreeRTOS/Source/portable/GCC/ARM_CM4F/port.o
                0x00000000080269c4                xPortStartScheduler
 .text.vPortValidateInterruptPriority
                0x0000000008026acc       0x5c ./Middlewares/Third_Party/FreeRTOS/Source/portable/GCC/ARM_CM4F/port.o
                0x0000000008026acc                vPortValidateInterruptPriority
 .text.prvInsertBlockIntoFreeList
                0x0000000008026b28       0x48 ./Middlewares/Third_Party/FreeRTOS/Source/portable/MemMang/heap_4.o
 .text.pvPortMalloc
                0x0000000008026b70      0x124 ./Middlewares/Third_Party/FreeRTOS/Source/portable/MemMang/heap_4.o
                0x0000000008026b70                pvPortMalloc
 .text.vPortFree
                0x0000000008026c94       0x7c ./Middlewares/Third_Party/FreeRTOS/Source/portable/MemMang/heap_4.o
                0x0000000008026c94                vPortFree
 .text.input_initial
                0x0000000008026d10       0x7c ./user/detect.o
                0x0000000008026d10                input_initial
 .text.input_check
                0x0000000008026d8c       0x98 ./user/detect.o
                0x0000000008026d8c                input_check
 .text.input_pic
                0x0000000008026e24       0x80 ./user/detect.o
                0x0000000008026e24                input_pic
 .text.KeyRead_RingBuff
                0x0000000008026ea4       0x24 ./user/detect.o
                0x0000000008026ea4                KeyRead_RingBuff
 .text.KeyWrite_RingBuff
                0x0000000008026ec8       0x22 ./user/detect.o
                0x0000000008026ec8                KeyWrite_RingBuff
 *fill*         0x0000000008026eea        0x2 
 .text.input_tog
                0x0000000008026eec       0x94 ./user/detect.o
                0x0000000008026eec                input_tog
 .text.KeyRingBuffRst
                0x0000000008026f80        0xe ./user/detect.o
                0x0000000008026f80                KeyRingBuffRst
 *fill*         0x0000000008026f8e        0x2 
 .text.Key_event
                0x0000000008026f90       0xc4 ./user/detect.o
                0x0000000008026f90                Key_event
 .text.rst_check
                0x0000000008027054       0x8c ./user/detect.o
                0x0000000008027054                rst_check
 .text.double_deal
                0x00000000080270e0       0x84 ./user/detect.o
                0x00000000080270e0                double_deal
 .text.double_check
                0x0000000008027164       0xb8 ./user/detect.o
                0x0000000008027164                double_check
 .text.stop_check
                0x000000000802721c       0x48 ./user/detect.o
                0x000000000802721c                stop_check
 .text.Usart_DamIdle
                0x0000000008027264       0x70 ./user/dev_usart.o
                0x0000000008027264                Usart_DamIdle
 .text.USART1_RxIdleCallback
                0x00000000080272d4       0x80 ./user/dev_usart.o
                0x00000000080272d4                USART1_RxIdleCallback
 .text.USART3_RxIdleCallback
                0x0000000008027354       0x80 ./user/dev_usart.o
                0x0000000008027354                USART3_RxIdleCallback
 .text.USART6_RxIdleCallback
                0x00000000080273d4       0x80 ./user/dev_usart.o
                0x00000000080273d4                USART6_RxIdleCallback
 .text.HAL_UART_TxCpltCallback
                0x0000000008027454        0x2 ./user/dev_usart.o
                0x0000000008027454                HAL_UART_TxCpltCallback
 *fill*         0x0000000008027456        0x2 
 .text.usart1_rx_deal
                0x0000000008027458       0x14 ./user/dev_usart.o
                0x0000000008027458                usart1_rx_deal
 .text.usart3_rx_deal
                0x000000000802746c        0x8 ./user/dev_usart.o
                0x000000000802746c                usart3_rx_deal
 .text.usart6_rx_deal
                0x0000000008027474       0x4c ./user/dev_usart.o
                0x0000000008027474                usart6_rx_deal
 .text.dis_fst_page
                0x00000000080274c0       0xa4 ./user/display.o
                0x00000000080274c0                dis_fst_page
 .text.dis_log  0x0000000008027564      0x120 ./user/display.o
                0x0000000008027564                dis_log
 .text.store_log
                0x0000000008027684       0xc8 ./user/display.o
                0x0000000008027684                store_log
 .text.dis_pic  0x000000000802774c       0x58 ./user/display.o
                0x000000000802774c                dis_pic
 .text.dis_warn
                0x00000000080277a4      0x158 ./user/display.o
                0x00000000080277a4                dis_warn
 .text.dis_hard
                0x00000000080278fc       0xb0 ./user/display.o
                0x00000000080278fc                dis_hard
 .text.dis_double
                0x00000000080279ac      0x214 ./user/display.o
                0x00000000080279ac                dis_double
 .text.dis_tips
                0x0000000008027bc0       0xf0 ./user/display.o
                0x0000000008027bc0                dis_tips
 .text.warn_out
                0x0000000008027cb0       0x28 ./user/display.o
                0x0000000008027cb0                warn_out
 .text.run_time
                0x0000000008027cd8       0xd8 ./user/display.o
                0x0000000008027cd8                run_time
 .text.Eeprom_Cahce
                0x0000000008027db0       0x40 ./user/eeprom.o
                0x0000000008027db0                Eeprom_Cahce
 .text.STMFLASH_GetFlashSector
                0x0000000008027df0       0x8c ./user/eeprom.o
                0x0000000008027df0                STMFLASH_GetFlashSector
 .text.STMFLASH_Write
                0x0000000008027e7c       0xa8 ./user/eeprom.o
                0x0000000008027e7c                STMFLASH_Write
 .text.STMFLASH_Read
                0x0000000008027f24       0x14 ./user/eeprom.o
                0x0000000008027f24                STMFLASH_Read
 .text.Eeprom_Write.part.0
                0x0000000008027f38       0x50 ./user/eeprom.o
 .text.Eeprom_Read
                0x0000000008027f88        0xa ./user/eeprom.o
                0x0000000008027f88                Eeprom_Read
 *fill*         0x0000000008027f92        0x2 
 .text.Eeprom_ini
                0x0000000008027f94       0xa8 ./user/eeprom.o
                0x0000000008027f94                Eeprom_ini
 .text.Eeprom_update
                0x000000000802803c       0x88 ./user/eeprom.o
                0x000000000802803c                Eeprom_update
 .text.screen_ini
                0x00000000080280c4       0x10 ./user/io_ctrl.o
                0x00000000080280c4                screen_ini
 .text.screen_write
                0x00000000080280d4       0xb8 ./user/io_ctrl.o
                0x00000000080280d4                screen_write
 .text.scr_page
                0x000000000802818c       0x1e ./user/io_ctrl.o
                0x000000000802818c                scr_page
 *fill*         0x00000000080281aa        0x2 
 .text.screen_read
                0x00000000080281ac       0x80 ./user/io_ctrl.o
                0x00000000080281ac                screen_read
 .text.operate_ini
                0x000000000802822c      0x460 ./user/io_ctrl.o
                0x000000000802822c                operate_ini
 .text.sequence_assist
                0x000000000802868c        0x6 ./user/io_ctrl.o
                0x000000000802868c                sequence_assist
 *fill*         0x0000000008028692        0x2 
 .text.clear_op_flag
                0x0000000008028694       0x60 ./user/io_ctrl.o
                0x0000000008028694                clear_op_flag
 .text.scr_op   0x00000000080286f4      0x1d0 ./user/io_ctrl.o
                0x00000000080286f4                scr_op
 .text.screen_touch
                0x00000000080288c4      0x4e0 ./user/io_ctrl.o
                0x00000000080288c4                screen_touch
 .text.screen_deal
                0x0000000008028da4       0x70 ./user/io_ctrl.o
                0x0000000008028da4                screen_deal
 .text.screen_adv
                0x0000000008028e14       0x7c ./user/io_ctrl.o
                0x0000000008028e14                screen_adv
 .text.io1pin_out
                0x0000000008028e90       0x1c ./user/io_ctrl.o
                0x0000000008028e90                io1pin_out
 .text.io2pin_out
                0x0000000008028eac       0xe0 ./user/io_ctrl.o
                0x0000000008028eac                io2pin_out
 .text.keyqueue_deal
                0x0000000008028f8c      0x4dc ./user/io_ctrl.o
                0x0000000008028f8c                keyqueue_deal
 .text.rst_deal
                0x0000000008029468      0x234 ./user/io_ctrl.o
                0x0000000008029468                rst_deal
 .text.sequence_deal
                0x000000000802969c      0x1e8 ./user/io_ctrl.o
                0x000000000802969c                sequence_deal
 .text.check_op_flag
                0x0000000008029884       0x3c ./user/io_ctrl.o
                0x0000000008029884                check_op_flag
 .text.operate_ctrl
                0x00000000080298c0      0x324 ./user/io_ctrl.o
                0x00000000080298c0                operate_ctrl
 .text.relief_check
                0x0000000008029be4       0x5c ./user/io_ctrl.o
                0x0000000008029be4                relief_check
 .text.mytim_ticupdate
                0x0000000008029c40       0x28 ./user/my_tim.o
                0x0000000008029c40                mytim_ticupdate
 .text.mytim_clean
                0x0000000008029c68       0x10 ./user/my_tim.o
                0x0000000008029c68                mytim_clean
 .text.clean_check
                0x0000000008029c78       0xfc ./user/my_tim.o
                0x0000000008029c78                clean_check
 .text.turndown_only
                0x0000000008029d74       0xf8 ./user/my_tim.o
                0x0000000008029d74                turndown_only
 .text.turndown_only_none
                0x0000000008029e6c       0x7c ./user/my_tim.o
                0x0000000008029e6c                turndown_only_none
 .text.turndown_check
                0x0000000008029ee8       0x90 ./user/my_tim.o
                0x0000000008029ee8                turndown_check
 .text.op_check
                0x0000000008029f78       0xd8 ./user/my_tim.o
                0x0000000008029f78                op_check
 .text.turnup_check.part.0
                0x000000000802a050       0x2c ./user/my_tim.o
 .text.op_check_none
                0x000000000802a07c       0x88 ./user/my_tim.o
                0x000000000802a07c                op_check_none
 .text.turnup_check
                0x000000000802a104       0x94 ./user/my_tim.o
                0x000000000802a104                turnup_check
 .text.headdown_check
                0x000000000802a198       0x94 ./user/my_tim.o
                0x000000000802a198                headdown_check
 .text.headup_check
                0x000000000802a22c       0x94 ./user/my_tim.o
                0x000000000802a22c                headup_check
 .text.boarddown_check
                0x000000000802a2c0       0x94 ./user/my_tim.o
                0x000000000802a2c0                boarddown_check
 .text.boardup_check
                0x000000000802a354       0x94 ./user/my_tim.o
                0x000000000802a354                boardup_check
 .text.pushleft_check
                0x000000000802a3e8       0x94 ./user/my_tim.o
                0x000000000802a3e8                pushleft_check
 .text.pushright_check
                0x000000000802a47c       0x94 ./user/my_tim.o
                0x000000000802a47c                pushright_check
 .text.catchdown_check
                0x000000000802a510       0x94 ./user/my_tim.o
                0x000000000802a510                catchdown_check
 .text.catchup_check
                0x000000000802a5a4       0x94 ./user/my_tim.o
                0x000000000802a5a4                catchup_check
 .text.mytim_check
                0x000000000802a638      0x130 ./user/my_tim.o
                0x000000000802a638                mytim_check
 .text.number   0x000000000802a768      0x164 ./user/myprintf.o
 .text.serial_puts
                0x000000000802a8cc       0x14 ./user/myprintf.o
                0x000000000802a8cc                serial_puts
 .text.debug_printf
                0x000000000802a8e0      0x3f4 ./user/myprintf.o
                0x000000000802a8e0                debug_printf
 .text.TIM0_CB  0x000000000802acd4       0x74 ./user/soft_timer.o
                0x000000000802acd4                TIM0_CB
 .text.TIM1_CB  0x000000000802ad48        0x4 ./user/soft_timer.o
                0x000000000802ad48                TIM1_CB
 .text.TIM2_CB  0x000000000802ad4c        0x8 ./user/soft_timer.o
                0x000000000802ad4c                TIM2_CB
 .text.TIM3_CB  0x000000000802ad54       0x30 ./user/soft_timer.o
                0x000000000802ad54                TIM3_CB
 .text.TIM4_CB  0x000000000802ad84       0x30 ./user/soft_timer.o
                0x000000000802ad84                TIM4_CB
 .text.TIM5_CB  0x000000000802adb4       0x30 ./user/soft_timer.o
                0x000000000802adb4                TIM5_CB
 .text.TIM6_CB  0x000000000802ade4        0x6 ./user/soft_timer.o
                0x000000000802ade4                TIM6_CB
 *fill*         0x000000000802adea        0x2 
 .text.TIM7_CB  0x000000000802adec       0x64 ./user/soft_timer.o
                0x000000000802adec                TIM7_CB
 .text.TIM8_CB  0x000000000802ae50       0x28 ./user/soft_timer.o
                0x000000000802ae50                TIM8_CB
 .text.TIM9_CB  0x000000000802ae78       0x28 ./user/soft_timer.o
                0x000000000802ae78                TIM9_CB
 .text.TIM10_CB
                0x000000000802aea0       0x28 ./user/soft_timer.o
                0x000000000802aea0                TIM10_CB
 .text.TIM11_CB
                0x000000000802aec8       0x24 ./user/soft_timer.o
                0x000000000802aec8                TIM11_CB
 .text.tickCnt_Update
                0x000000000802aeec       0x10 ./user/soft_timer.o
                0x000000000802aeec                tickCnt_Update
 .text.softTimer_Init
                0x000000000802aefc       0x24 ./user/soft_timer.o
                0x000000000802aefc                softTimer_Init
 .text.softTimer_Start
                0x000000000802af20       0x60 ./user/soft_timer.o
                0x000000000802af20                softTimer_Start
 .text.softTimer_Update
                0x000000000802af80       0x70 ./user/soft_timer.o
                0x000000000802af80                softTimer_Update
 .text.sysguard_ini
                0x000000000802aff0       0x1c ./user/sysguard.o
                0x000000000802aff0                sysguard_ini
 .text.sysguard_start
                0x000000000802b00c       0x2c ./user/sysguard.o
                0x000000000802b00c                sysguard_start
 .text.sysguard_feed
                0x000000000802b038       0x2c ./user/sysguard.o
                0x000000000802b038                sysguard_feed
 .text.sysguard_scan
                0x000000000802b064       0x58 ./user/sysguard.o
                0x000000000802b064                sysguard_scan
 .text.__errno  0x000000000802b0bc        0xc d:/st/stm32cubeide_1.8.0/stm32cubeide/plugins/com.st.stm32cube.ide.mcu.externaltools.gnu-tools-for-stm32.9-2020-q2-update.win32_2.0.0.202105311346/tools/bin/../lib/gcc/arm-none-eabi/9.3.1/../../../../arm-none-eabi/lib/thumb/v7e-m+fp/hard\libc_nano.a(lib_a-errno.o)
                0x000000000802b0bc                __errno
 .text.__libc_init_array
                0x000000000802b0c8       0x48 d:/st/stm32cubeide_1.8.0/stm32cubeide/plugins/com.st.stm32cube.ide.mcu.externaltools.gnu-tools-for-stm32.9-2020-q2-update.win32_2.0.0.202105311346/tools/bin/../lib/gcc/arm-none-eabi/9.3.1/../../../../arm-none-eabi/lib/thumb/v7e-m+fp/hard\libc_nano.a(lib_a-init.o)
                0x000000000802b0c8                __libc_init_array
 .text.memcmp   0x000000000802b110       0x1c d:/st/stm32cubeide_1.8.0/stm32cubeide/plugins/com.st.stm32cube.ide.mcu.externaltools.gnu-tools-for-stm32.9-2020-q2-update.win32_2.0.0.202105311346/tools/bin/../lib/gcc/arm-none-eabi/9.3.1/../../../../arm-none-eabi/lib/thumb/v7e-m+fp/hard\libc_nano.a(lib_a-memcmp.o)
                0x000000000802b110                memcmp
 .text.memcpy   0x000000000802b12c       0x1c d:/st/stm32cubeide_1.8.0/stm32cubeide/plugins/com.st.stm32cube.ide.mcu.externaltools.gnu-tools-for-stm32.9-2020-q2-update.win32_2.0.0.202105311346/tools/bin/../lib/gcc/arm-none-eabi/9.3.1/../../../../arm-none-eabi/lib/thumb/v7e-m+fp/hard\libc_nano.a(lib_a-memcpy-stub.o)
                0x000000000802b12c                memcpy
 .text.memset   0x000000000802b148       0x10 d:/st/stm32cubeide_1.8.0/stm32cubeide/plugins/com.st.stm32cube.ide.mcu.externaltools.gnu-tools-for-stm32.9-2020-q2-update.win32_2.0.0.202105311346/tools/bin/../lib/gcc/arm-none-eabi/9.3.1/../../../../arm-none-eabi/lib/thumb/v7e-m+fp/hard\libc_nano.a(lib_a-memset.o)
                0x000000000802b148                memset
 .text._free_r  0x000000000802b158       0xa0 d:/st/stm32cubeide_1.8.0/stm32cubeide/plugins/com.st.stm32cube.ide.mcu.externaltools.gnu-tools-for-stm32.9-2020-q2-update.win32_2.0.0.202105311346/tools/bin/../lib/gcc/arm-none-eabi/9.3.1/../../../../arm-none-eabi/lib/thumb/v7e-m+fp/hard\libc_nano.a(lib_a-nano-freer.o)
                0x000000000802b158                _free_r
 .text._malloc_r
                0x000000000802b1f8       0xb4 d:/st/stm32cubeide_1.8.0/stm32cubeide/plugins/com.st.stm32cube.ide.mcu.externaltools.gnu-tools-for-stm32.9-2020-q2-update.win32_2.0.0.202105311346/tools/bin/../lib/gcc/arm-none-eabi/9.3.1/../../../../arm-none-eabi/lib/thumb/v7e-m+fp/hard\libc_nano.a(lib_a-nano-mallocr.o)
                0x000000000802b1f8                _malloc_r
 .text.cleanup_glue
                0x000000000802b2ac       0x1a d:/st/stm32cubeide_1.8.0/stm32cubeide/plugins/com.st.stm32cube.ide.mcu.externaltools.gnu-tools-for-stm32.9-2020-q2-update.win32_2.0.0.202105311346/tools/bin/../lib/gcc/arm-none-eabi/9.3.1/../../../../arm-none-eabi/lib/thumb/v7e-m+fp/hard\libc_nano.a(lib_a-reent.o)
                0x000000000802b2ac                cleanup_glue
 *fill*         0x000000000802b2c6        0x2 
 .text._reclaim_reent
                0x000000000802b2c8       0xb8 d:/st/stm32cubeide_1.8.0/stm32cubeide/plugins/com.st.stm32cube.ide.mcu.externaltools.gnu-tools-for-stm32.9-2020-q2-update.win32_2.0.0.202105311346/tools/bin/../lib/gcc/arm-none-eabi/9.3.1/../../../../arm-none-eabi/lib/thumb/v7e-m+fp/hard\libc_nano.a(lib_a-reent.o)
                0x000000000802b2c8                _reclaim_reent
 .text._sbrk_r  0x000000000802b380       0x20 d:/st/stm32cubeide_1.8.0/stm32cubeide/plugins/com.st.stm32cube.ide.mcu.externaltools.gnu-tools-for-stm32.9-2020-q2-update.win32_2.0.0.202105311346/tools/bin/../lib/gcc/arm-none-eabi/9.3.1/../../../../arm-none-eabi/lib/thumb/v7e-m+fp/hard\libc_nano.a(lib_a-sbrkr.o)
                0x000000000802b380                _sbrk_r
 .text.sprintf  0x000000000802b3a0       0x40 d:/st/stm32cubeide_1.8.0/stm32cubeide/plugins/com.st.stm32cube.ide.mcu.externaltools.gnu-tools-for-stm32.9-2020-q2-update.win32_2.0.0.202105311346/tools/bin/../lib/gcc/arm-none-eabi/9.3.1/../../../../arm-none-eabi/lib/thumb/v7e-m+fp/hard\libc_nano.a(lib_a-sprintf.o)
                0x000000000802b3a0                siprintf
                0x000000000802b3a0                sprintf
 .text.__malloc_lock
                0x000000000802b3e0        0xc d:/st/stm32cubeide_1.8.0/stm32cubeide/plugins/com.st.stm32cube.ide.mcu.externaltools.gnu-tools-for-stm32.9-2020-q2-update.win32_2.0.0.202105311346/tools/bin/../lib/gcc/arm-none-eabi/9.3.1/../../../../arm-none-eabi/lib/thumb/v7e-m+fp/hard\libc_nano.a(lib_a-mlock.o)
                0x000000000802b3e0                __malloc_lock
 .text.__malloc_unlock
                0x000000000802b3ec        0xc d:/st/stm32cubeide_1.8.0/stm32cubeide/plugins/com.st.stm32cube.ide.mcu.externaltools.gnu-tools-for-stm32.9-2020-q2-update.win32_2.0.0.202105311346/tools/bin/../lib/gcc/arm-none-eabi/9.3.1/../../../../arm-none-eabi/lib/thumb/v7e-m+fp/hard\libc_nano.a(lib_a-mlock.o)
                0x000000000802b3ec                __malloc_unlock
 .text.__ssputs_r
                0x000000000802b3f8       0xb6 d:/st/stm32cubeide_1.8.0/stm32cubeide/plugins/com.st.stm32cube.ide.mcu.externaltools.gnu-tools-for-stm32.9-2020-q2-update.win32_2.0.0.202105311346/tools/bin/../lib/gcc/arm-none-eabi/9.3.1/../../../../arm-none-eabi/lib/thumb/v7e-m+fp/hard\libc_nano.a(lib_a-nano-svfprintf.o)
                0x000000000802b3f8                __ssputs_r
 *fill*         0x000000000802b4ae        0x2 
 .text._svfprintf_r
                0x000000000802b4b0      0x200 d:/st/stm32cubeide_1.8.0/stm32cubeide/plugins/com.st.stm32cube.ide.mcu.externaltools.gnu-tools-for-stm32.9-2020-q2-update.win32_2.0.0.202105311346/tools/bin/../lib/gcc/arm-none-eabi/9.3.1/../../../../arm-none-eabi/lib/thumb/v7e-m+fp/hard\libc_nano.a(lib_a-nano-svfprintf.o)
                0x000000000802b4b0                _svfiprintf_r
                0x000000000802b4b0                _svfprintf_r
 .text._printf_common
                0x000000000802b6b0       0xda d:/st/stm32cubeide_1.8.0/stm32cubeide/plugins/com.st.stm32cube.ide.mcu.externaltools.gnu-tools-for-stm32.9-2020-q2-update.win32_2.0.0.202105311346/tools/bin/../lib/gcc/arm-none-eabi/9.3.1/../../../../arm-none-eabi/lib/thumb/v7e-m+fp/hard\libc_nano.a(lib_a-nano-vfprintf_i.o)
                0x000000000802b6b0                _printf_common
 *fill*         0x000000000802b78a        0x2 
 .text._printf_i
                0x000000000802b78c      0x24c d:/st/stm32cubeide_1.8.0/stm32cubeide/plugins/com.st.stm32cube.ide.mcu.externaltools.gnu-tools-for-stm32.9-2020-q2-update.win32_2.0.0.202105311346/tools/bin/../lib/gcc/arm-none-eabi/9.3.1/../../../../arm-none-eabi/lib/thumb/v7e-m+fp/hard\libc_nano.a(lib_a-nano-vfprintf_i.o)
                0x000000000802b78c                _printf_i
 .text.memmove  0x000000000802b9d8       0x34 d:/st/stm32cubeide_1.8.0/stm32cubeide/plugins/com.st.stm32cube.ide.mcu.externaltools.gnu-tools-for-stm32.9-2020-q2-update.win32_2.0.0.202105311346/tools/bin/../lib/gcc/arm-none-eabi/9.3.1/../../../../arm-none-eabi/lib/thumb/v7e-m+fp/hard\libc_nano.a(lib_a-memmove.o)
                0x000000000802b9d8                memmove
 .text._realloc_r
                0x000000000802ba0c       0x4c d:/st/stm32cubeide_1.8.0/stm32cubeide/plugins/com.st.stm32cube.ide.mcu.externaltools.gnu-tools-for-stm32.9-2020-q2-update.win32_2.0.0.202105311346/tools/bin/../lib/gcc/arm-none-eabi/9.3.1/../../../../arm-none-eabi/lib/thumb/v7e-m+fp/hard\libc_nano.a(lib_a-nano-reallocr.o)
                0x000000000802ba0c                _realloc_r
 .text._malloc_usable_size_r
                0x000000000802ba58       0x10 d:/st/stm32cubeide_1.8.0/stm32cubeide/plugins/com.st.stm32cube.ide.mcu.externaltools.gnu-tools-for-stm32.9-2020-q2-update.win32_2.0.0.202105311346/tools/bin/../lib/gcc/arm-none-eabi/9.3.1/../../../../arm-none-eabi/lib/thumb/v7e-m+fp/hard\libc_nano.a(lib_a-nano-msizer.o)
                0x000000000802ba58                _malloc_usable_size_r
 *(.glue_7)
 .glue_7        0x000000000802ba68        0x0 linker stubs
 *(.glue_7t)
 .glue_7t       0x000000000802ba68        0x0 linker stubs
 *(.eh_frame)
 .eh_frame      0x000000000802ba68        0x0 d:/st/stm32cubeide_1.8.0/stm32cubeide/plugins/com.st.stm32cube.ide.mcu.externaltools.gnu-tools-for-stm32.9-2020-q2-update.win32_2.0.0.202105311346/tools/bin/../lib/gcc/arm-none-eabi/9.3.1/thumb/v7e-m+fp/hard/crtbegin.o
 *(.init)
 .init          0x000000000802ba68        0x4 d:/st/stm32cubeide_1.8.0/stm32cubeide/plugins/com.st.stm32cube.ide.mcu.externaltools.gnu-tools-for-stm32.9-2020-q2-update.win32_2.0.0.202105311346/tools/bin/../lib/gcc/arm-none-eabi/9.3.1/thumb/v7e-m+fp/hard/crti.o
                0x000000000802ba68                _init
 .init          0x000000000802ba6c        0x8 d:/st/stm32cubeide_1.8.0/stm32cubeide/plugins/com.st.stm32cube.ide.mcu.externaltools.gnu-tools-for-stm32.9-2020-q2-update.win32_2.0.0.202105311346/tools/bin/../lib/gcc/arm-none-eabi/9.3.1/thumb/v7e-m+fp/hard/crtn.o
 *(.fini)
 .fini          0x000000000802ba74        0x4 d:/st/stm32cubeide_1.8.0/stm32cubeide/plugins/com.st.stm32cube.ide.mcu.externaltools.gnu-tools-for-stm32.9-2020-q2-update.win32_2.0.0.202105311346/tools/bin/../lib/gcc/arm-none-eabi/9.3.1/thumb/v7e-m+fp/hard/crti.o
                0x000000000802ba74                _fini
 .fini          0x000000000802ba78        0x8 d:/st/stm32cubeide_1.8.0/stm32cubeide/plugins/com.st.stm32cube.ide.mcu.externaltools.gnu-tools-for-stm32.9-2020-q2-update.win32_2.0.0.202105311346/tools/bin/../lib/gcc/arm-none-eabi/9.3.1/thumb/v7e-m+fp/hard/crtn.o
                0x000000000802ba80                . = ALIGN (0x4)
                0x000000000802ba80                _etext = .

.vfp11_veneer   0x000000000802ba80        0x0
 .vfp11_veneer  0x000000000802ba80        0x0 linker stubs

.v4_bx          0x000000000802ba80        0x0
 .v4_bx         0x000000000802ba80        0x0 linker stubs

.iplt           0x000000000802ba80        0x0
 .iplt          0x000000000802ba80        0x0 d:/st/stm32cubeide_1.8.0/stm32cubeide/plugins/com.st.stm32cube.ide.mcu.externaltools.gnu-tools-for-stm32.9-2020-q2-update.win32_2.0.0.202105311346/tools/bin/../lib/gcc/arm-none-eabi/9.3.1/thumb/v7e-m+fp/hard/crtbegin.o

.rodata         0x000000000802ba80      0xc88
                0x000000000802ba80                . = ALIGN (0x4)
 *(.rodata)
 *(.rodata*)
 .rodata.str1.1
                0x000000000802ba80       0xd1 ./Core/Src/freertos.o
 *fill*         0x000000000802bb51        0x3 
 .rodata.defaultTask_attributes
                0x000000000802bb54       0x24 ./Core/Src/freertos.o
                0x000000000802bb54                defaultTask_attributes
 .rodata.myBinarySem01_attributes
                0x000000000802bb78       0x10 ./Core/Src/freertos.o
                0x000000000802bb78                myBinarySem01_attributes
 .rodata.myBinarySem02_attributes
                0x000000000802bb88       0x10 ./Core/Src/freertos.o
                0x000000000802bb88                myBinarySem02_attributes
 .rodata.myBinarySem03_attributes
                0x000000000802bb98       0x10 ./Core/Src/freertos.o
                0x000000000802bb98                myBinarySem03_attributes
 .rodata.myBinarySem04_attributes
                0x000000000802bba8       0x10 ./Core/Src/freertos.o
                0x000000000802bba8                myBinarySem04_attributes
 .rodata.myBinarySem05_attributes
                0x000000000802bbb8       0x10 ./Core/Src/freertos.o
                0x000000000802bbb8                myBinarySem05_attributes
 .rodata.myEvent01_attributes
                0x000000000802bbc8       0x10 ./Core/Src/freertos.o
                0x000000000802bbc8                myEvent01_attributes
 .rodata.myEvent02_attributes
                0x000000000802bbd8       0x10 ./Core/Src/freertos.o
                0x000000000802bbd8                myEvent02_attributes
 .rodata.myMutex01_attributes
                0x000000000802bbe8       0x10 ./Core/Src/freertos.o
                0x000000000802bbe8                myMutex01_attributes
 .rodata.myMutex02_attributes
                0x000000000802bbf8       0x10 ./Core/Src/freertos.o
                0x000000000802bbf8                myMutex02_attributes
 .rodata.myQueueUsart1_attributes
                0x000000000802bc08       0x18 ./Core/Src/freertos.o
                0x000000000802bc08                myQueueUsart1_attributes
 .rodata.myQueueUsart3_attributes
                0x000000000802bc20       0x18 ./Core/Src/freertos.o
                0x000000000802bc20                myQueueUsart3_attributes
 .rodata.myQueueUsart6_attributes
                0x000000000802bc38       0x18 ./Core/Src/freertos.o
                0x000000000802bc38                myQueueUsart6_attributes
 .rodata.myTask02_attributes
                0x000000000802bc50       0x24 ./Core/Src/freertos.o
                0x000000000802bc50                myTask02_attributes
 .rodata.myTask03_attributes
                0x000000000802bc74       0x24 ./Core/Src/freertos.o
                0x000000000802bc74                myTask03_attributes
 .rodata.myTask04_attributes
                0x000000000802bc98       0x24 ./Core/Src/freertos.o
                0x000000000802bc98                myTask04_attributes
 .rodata.myTask05_attributes
                0x000000000802bcbc       0x24 ./Core/Src/freertos.o
                0x000000000802bcbc                myTask05_attributes
 .rodata.myTask06_attributes
                0x000000000802bce0       0x24 ./Core/Src/freertos.o
                0x000000000802bce0                myTask06_attributes
 .rodata.Error_Handler.str1.1
                0x000000000802bd04       0x10 ./Core/Src/main.o
 .rodata.main.str1.1
                0x000000000802bd14       0x44 ./Core/Src/main.o
 .rodata.NMI_Handler.str1.1
                0x000000000802bd58        0xe ./Core/Src/stm32f4xx_it.o
 .rodata.HardFault_Handler.str1.1
                0x000000000802bd66       0x14 ./Core/Src/stm32f4xx_it.o
 .rodata.MemManage_Handler.str1.1
                0x000000000802bd7a       0x14 ./Core/Src/stm32f4xx_it.o
 .rodata.BusFault_Handler.str1.1
                0x000000000802bd8e       0x13 ./Core/Src/stm32f4xx_it.o
 .rodata.UsageFault_Handler.str1.1
                0x000000000802bda1       0x15 ./Core/Src/stm32f4xx_it.o
 .rodata.DebugMon_Handler.str1.1
                0x000000000802bdb6       0x13 ./Core/Src/stm32f4xx_it.o
 .rodata.AHBPrescTable
                0x000000000802bdc9       0x10 ./Core/Src/system_stm32f4xx.o
                0x000000000802bdc9                AHBPrescTable
 .rodata.APBPrescTable
                0x000000000802bdd9        0x8 ./Core/Src/system_stm32f4xx.o
                0x000000000802bdd9                APBPrescTable
 .rodata.HAL_NVIC_SetPriorityGrouping.str1.1
                0x000000000802bde1       0x3b ./Drivers/STM32F4xx_HAL_Driver/Src/stm32f4xx_hal_cortex.o
 .rodata.HAL_DMA_Init.str1.1
                0x000000000802be1c       0x38 ./Drivers/STM32F4xx_HAL_Driver/Src/stm32f4xx_hal_dma.o
 .rodata.flagBitshiftOffset.8529
                0x000000000802be54        0x8 ./Drivers/STM32F4xx_HAL_Driver/Src/stm32f4xx_hal_dma.o
 .rodata.FLASH_Program_Byte.str1.1
                0x000000000802be5c       0x3a ./Drivers/STM32F4xx_HAL_Driver/Src/stm32f4xx_hal_flash.o
 .rodata.FLASH_MassErase.str1.1
                0x000000000802be96       0x3d ./Drivers/STM32F4xx_HAL_Driver/Src/stm32f4xx_hal_flash_ex.o
 .rodata.HAL_GPIO_Init.str1.1
                0x000000000802bed3       0x39 ./Drivers/STM32F4xx_HAL_Driver/Src/stm32f4xx_hal_gpio.o
 .rodata.HAL_IWDG_Init.str1.1
                0x000000000802bf0c       0x39 ./Drivers/STM32F4xx_HAL_Driver/Src/stm32f4xx_hal_iwdg.o
 .rodata.HAL_RCC_OscConfig.str1.1
                0x000000000802bf45       0x38 ./Drivers/STM32F4xx_HAL_Driver/Src/stm32f4xx_hal_rcc.o
 .rodata.HAL_RCCEx_PeriphCLKConfig.str1.1
                0x000000000802bf7d       0x3b ./Drivers/STM32F4xx_HAL_Driver/Src/stm32f4xx_hal_rcc_ex.o
 .rodata.HAL_RTC_DeactivateAlarm.str1.1
                0x000000000802bfb8       0x38 ./Drivers/STM32F4xx_HAL_Driver/Src/stm32f4xx_hal_rtc.o
 .rodata.TIM_OC1_SetConfig.str1.1
                0x000000000802bff0       0x38 ./Drivers/STM32F4xx_HAL_Driver/Src/stm32f4xx_hal_tim.o
 .rodata.HAL_TIMEx_HallSensor_Init.str1.1
                0x000000000802c028       0x3b ./Drivers/STM32F4xx_HAL_Driver/Src/stm32f4xx_hal_tim_ex.o
 .rodata.UART_SetConfig.str1.1
                0x000000000802c063       0x39 ./Drivers/STM32F4xx_HAL_Driver/Src/stm32f4xx_hal_uart.o
 .rodata.vTaskStartScheduler.str1.1
                0x000000000802c09c        0x5 ./Middlewares/Third_Party/FreeRTOS/Source/tasks.o
 .rodata.prvCheckForValidListAndQueue.str1.1
                0x000000000802c0a1        0x5 ./Middlewares/Third_Party/FreeRTOS/Source/timers.o
 .rodata.xTimerCreateTimerTask.str1.1
                0x000000000802c0a6        0x8 ./Middlewares/Third_Party/FreeRTOS/Source/timers.o
 .rodata.addr_list
                0x000000000802c0ae       0x14 ./user/detect.o
                0x000000000802c0ae                addr_list
 .rodata.dis_log.str1.1
                0x000000000802c0c2       0x37 ./user/display.o
 .rodata.dis_tips.str1.1
                0x000000000802c0f9        0xd ./user/display.o
 .rodata.run_time.str1.1
                0x000000000802c106       0x12 ./user/display.o
 .rodata.log_len_tab
                0x000000000802c118       0x1e ./user/display.o
                0x000000000802c118                log_len_tab
 .rodata.log_string
                0x000000000802c136      0x258 ./user/display.o
                0x000000000802c136                log_string
 .rodata.log_string_push
                0x000000000802c38e       0x26 ./user/display.o
                0x000000000802c38e                log_string_push
 .rodata.Eeprom_ini.str1.1
                0x000000000802c3b4       0x30 ./user/eeprom.o
 .rodata.operate_ini.str1.1
                0x000000000802c3e4       0x72 ./user/io_ctrl.o
                                         0x84 (size before relaxing)
 .rodata.keyqueue_deal.str1.1
                0x000000000802c456       0x1c ./user/io_ctrl.o
 .rodata.operate_ctrl.str1.1
                0x000000000802c472       0x39 ./user/io_ctrl.o
 .rodata.str1.1
                0x000000000802c4ab       0x1d ./user/io_ctrl.o
                                         0x1f (size before relaxing)
 .rodata.CSWTCH.95
                0x000000000802c4c8        0xa ./user/io_ctrl.o
 .rodata.CSWTCH.96
                0x000000000802c4d2        0xa ./user/io_ctrl.o
 .rodata.turndown_only.str1.1
                0x000000000802c4dc        0xb ./user/my_tim.o
 .rodata.op_check.str1.1
                0x000000000802c4e7        0xb ./user/my_tim.o
 .rodata.debug_printf.str1.1
                0x000000000802c4f2        0x7 ./user/myprintf.o
 .rodata.digits.9899
                0x000000000802c4f9       0x10 ./user/myprintf.o
 *fill*         0x000000000802c509        0x3 
 .rodata.mulf.9935
                0x000000000802c50c       0x1c ./user/myprintf.o
 .rodata.TIM5_CB.str1.1
                0x000000000802c528        0xb ./user/soft_timer.o
 .rodata.softTimer_Start.str1.1
                0x000000000802c533       0x15 ./user/soft_timer.o
 .rodata.sysguard_start.str1.1
                0x000000000802c548       0x13 ./user/sysguard.o
 .rodata.sysguard_scan.str1.1
                0x000000000802c55b       0x16 ./user/sysguard.o
 .rodata._ctype_
                0x000000000802c571      0x101 d:/st/stm32cubeide_1.8.0/stm32cubeide/plugins/com.st.stm32cube.ide.mcu.externaltools.gnu-tools-for-stm32.9-2020-q2-update.win32_2.0.0.202105311346/tools/bin/../lib/gcc/arm-none-eabi/9.3.1/../../../../arm-none-eabi/lib/thumb/v7e-m+fp/hard\libc_nano.a(lib_a-ctype_.o)
                0x000000000802c571                _ctype_
 *fill*         0x000000000802c672        0x2 
 .rodata.__sf_fake_stderr
                0x000000000802c674       0x20 d:/st/stm32cubeide_1.8.0/stm32cubeide/plugins/com.st.stm32cube.ide.mcu.externaltools.gnu-tools-for-stm32.9-2020-q2-update.win32_2.0.0.202105311346/tools/bin/../lib/gcc/arm-none-eabi/9.3.1/../../../../arm-none-eabi/lib/thumb/v7e-m+fp/hard\libc_nano.a(lib_a-findfp.o)
                0x000000000802c674                __sf_fake_stderr
 .rodata.__sf_fake_stdin
                0x000000000802c694       0x20 d:/st/stm32cubeide_1.8.0/stm32cubeide/plugins/com.st.stm32cube.ide.mcu.externaltools.gnu-tools-for-stm32.9-2020-q2-update.win32_2.0.0.202105311346/tools/bin/../lib/gcc/arm-none-eabi/9.3.1/../../../../arm-none-eabi/lib/thumb/v7e-m+fp/hard\libc_nano.a(lib_a-findfp.o)
                0x000000000802c694                __sf_fake_stdin
 .rodata.__sf_fake_stdout
                0x000000000802c6b4       0x20 d:/st/stm32cubeide_1.8.0/stm32cubeide/plugins/com.st.stm32cube.ide.mcu.externaltools.gnu-tools-for-stm32.9-2020-q2-update.win32_2.0.0.202105311346/tools/bin/../lib/gcc/arm-none-eabi/9.3.1/../../../../arm-none-eabi/lib/thumb/v7e-m+fp/hard\libc_nano.a(lib_a-findfp.o)
                0x000000000802c6b4                __sf_fake_stdout
 .rodata._svfprintf_r.str1.1
                0x000000000802c6d4       0x11 d:/st/stm32cubeide_1.8.0/stm32cubeide/plugins/com.st.stm32cube.ide.mcu.externaltools.gnu-tools-for-stm32.9-2020-q2-update.win32_2.0.0.202105311346/tools/bin/../lib/gcc/arm-none-eabi/9.3.1/../../../../arm-none-eabi/lib/thumb/v7e-m+fp/hard\libc_nano.a(lib_a-nano-svfprintf.o)
 .rodata._printf_i.str1.1
                0x000000000802c6e5       0x22 d:/st/stm32cubeide_1.8.0/stm32cubeide/plugins/com.st.stm32cube.ide.mcu.externaltools.gnu-tools-for-stm32.9-2020-q2-update.win32_2.0.0.202105311346/tools/bin/../lib/gcc/arm-none-eabi/9.3.1/../../../../arm-none-eabi/lib/thumb/v7e-m+fp/hard\libc_nano.a(lib_a-nano-vfprintf_i.o)
                0x000000000802c708                . = ALIGN (0x4)
 *fill*         0x000000000802c707        0x1 

.ARM.extab      0x000000000802c708        0x0
                0x000000000802c708                . = ALIGN (0x4)
 *(.ARM.extab* .gnu.linkonce.armextab.*)
                0x000000000802c708                . = ALIGN (0x4)

.ARM            0x000000000802c708        0x8
                0x000000000802c708                . = ALIGN (0x4)
                0x000000000802c708                __exidx_start = .
 *(.ARM.exidx*)
 .ARM.exidx     0x000000000802c708        0x8 d:/st/stm32cubeide_1.8.0/stm32cubeide/plugins/com.st.stm32cube.ide.mcu.externaltools.gnu-tools-for-stm32.9-2020-q2-update.win32_2.0.0.202105311346/tools/bin/../lib/gcc/arm-none-eabi/9.3.1/thumb/v7e-m+fp/hard\libgcc.a(_udivmoddi4.o)
                0x000000000802c710                __exidx_end = .
                0x000000000802c710                . = ALIGN (0x4)

.rel.dyn        0x000000000802c710        0x0
 .rel.iplt      0x000000000802c710        0x0 d:/st/stm32cubeide_1.8.0/stm32cubeide/plugins/com.st.stm32cube.ide.mcu.externaltools.gnu-tools-for-stm32.9-2020-q2-update.win32_2.0.0.202105311346/tools/bin/../lib/gcc/arm-none-eabi/9.3.1/thumb/v7e-m+fp/hard/crtbegin.o

.preinit_array  0x000000000802c710        0x0
                0x000000000802c710                . = ALIGN (0x4)
                0x000000000802c710                PROVIDE (__preinit_array_start = .)
 *(.preinit_array*)
                0x000000000802c710                PROVIDE (__preinit_array_end = .)
                0x000000000802c710                . = ALIGN (0x4)

.init_array     0x000000000802c710        0x4
                0x000000000802c710                . = ALIGN (0x4)
                0x000000000802c710                PROVIDE (__init_array_start = .)
 *(SORT_BY_NAME(.init_array.*))
 *(.init_array*)
 .init_array    0x000000000802c710        0x4 d:/st/stm32cubeide_1.8.0/stm32cubeide/plugins/com.st.stm32cube.ide.mcu.externaltools.gnu-tools-for-stm32.9-2020-q2-update.win32_2.0.0.202105311346/tools/bin/../lib/gcc/arm-none-eabi/9.3.1/thumb/v7e-m+fp/hard/crtbegin.o
                0x000000000802c714                PROVIDE (__init_array_end = .)
                0x000000000802c714                . = ALIGN (0x4)

.fini_array     0x000000000802c714        0x4
                0x000000000802c714                . = ALIGN (0x4)
                [!provide]                        PROVIDE (__fini_array_start = .)
 *(SORT_BY_NAME(.fini_array.*))
 *(.fini_array*)
 .fini_array    0x000000000802c714        0x4 d:/st/stm32cubeide_1.8.0/stm32cubeide/plugins/com.st.stm32cube.ide.mcu.externaltools.gnu-tools-for-stm32.9-2020-q2-update.win32_2.0.0.202105311346/tools/bin/../lib/gcc/arm-none-eabi/9.3.1/thumb/v7e-m+fp/hard/crtbegin.o
                [!provide]                        PROVIDE (__fini_array_end = .)
                0x000000000802c718                . = ALIGN (0x4)
                0x000000000802c718                _sidata = LOADADDR (.data)

.data           0x0000000020000000      0x1bc load address 0x000000000802c718
                0x0000000020000000                . = ALIGN (0x4)
                0x0000000020000000                _sdata = .
 *(.data)
 *(.data*)
 .data.SystemCoreClock
                0x0000000020000000        0x4 ./Core/Src/system_stm32f4xx.o
                0x0000000020000000                SystemCoreClock
 .data.uwTickFreq
                0x0000000020000004        0x1 ./Drivers/STM32F4xx_HAL_Driver/Src/stm32f4xx_hal.o
                0x0000000020000004                uwTickFreq
 *fill*         0x0000000020000005        0x3 
 .data.uwTickPrio
                0x0000000020000008        0x4 ./Drivers/STM32F4xx_HAL_Driver/Src/stm32f4xx_hal.o
                0x0000000020000008                uwTickPrio
 .data.uxCriticalNesting
                0x000000002000000c        0x4 ./Middlewares/Third_Party/FreeRTOS/Source/portable/GCC/ARM_CM4F/port.o
 .data.pin_cfg  0x0000000020000010       0xa0 ./user/detect.o
                0x0000000020000010                pin_cfg
 .data.days_bk.10411
                0x00000000200000b0        0x2 ./user/display.o
 .data.hours_bk.10412
                0x00000000200000b2        0x2 ./user/display.o
 .data.tim_tab_st
                0x00000000200000b4       0x1a ./user/display.o
                0x00000000200000b4                tim_tab_st
 *fill*         0x00000000200000ce        0x2 
 .data.io1_cfg  0x00000000200000d0       0x10 ./user/io_ctrl.o
                0x00000000200000d0                io1_cfg
 .data.io2_cfg  0x00000000200000e0       0x50 ./user/io_ctrl.o
                0x00000000200000e0                io2_cfg
 .data.pin_char_op
                0x0000000020000130        0xc ./user/io_ctrl.o
                0x0000000020000130                pin_char_op
 .data.pin_char_type
                0x000000002000013c       0x14 ./user/io_ctrl.o
                0x000000002000013c                pin_char_type
 .data.tim_run  0x0000000020000150        0x1 ./user/my_tim.o
                0x0000000020000150                tim_run
 *fill*         0x0000000020000151        0x3 
 .data.current_puts
                0x0000000020000154        0x4 ./user/myprintf.o
                0x0000000020000154                current_puts
 .data._impure_ptr
                0x0000000020000158        0x4 d:/st/stm32cubeide_1.8.0/stm32cubeide/plugins/com.st.stm32cube.ide.mcu.externaltools.gnu-tools-for-stm32.9-2020-q2-update.win32_2.0.0.202105311346/tools/bin/../lib/gcc/arm-none-eabi/9.3.1/../../../../arm-none-eabi/lib/thumb/v7e-m+fp/hard\libc_nano.a(lib_a-impure.o)
                0x0000000020000158                _impure_ptr
 .data.impure_data
                0x000000002000015c       0x60 d:/st/stm32cubeide_1.8.0/stm32cubeide/plugins/com.st.stm32cube.ide.mcu.externaltools.gnu-tools-for-stm32.9-2020-q2-update.win32_2.0.0.202105311346/tools/bin/../lib/gcc/arm-none-eabi/9.3.1/../../../../arm-none-eabi/lib/thumb/v7e-m+fp/hard\libc_nano.a(lib_a-impure.o)
 *(.RamFunc)
 *(.RamFunc*)
                0x00000000200001bc                . = ALIGN (0x4)
                0x00000000200001bc                _edata = .

.igot.plt       0x00000000200001bc        0x0 load address 0x000000000802c8d4
 .igot.plt      0x00000000200001bc        0x0 d:/st/stm32cubeide_1.8.0/stm32cubeide/plugins/com.st.stm32cube.ide.mcu.externaltools.gnu-tools-for-stm32.9-2020-q2-update.win32_2.0.0.202105311346/tools/bin/../lib/gcc/arm-none-eabi/9.3.1/thumb/v7e-m+fp/hard/crtbegin.o
                0x00000000200001bc                . = ALIGN (0x4)

.bss            0x00000000200001bc     0xee04 load address 0x000000000802c8d4
                0x00000000200001bc                _sbss = .
                0x00000000200001bc                __bss_start__ = _sbss
 *(.bss)
 .bss           0x00000000200001bc       0x1c d:/st/stm32cubeide_1.8.0/stm32cubeide/plugins/com.st.stm32cube.ide.mcu.externaltools.gnu-tools-for-stm32.9-2020-q2-update.win32_2.0.0.202105311346/tools/bin/../lib/gcc/arm-none-eabi/9.3.1/thumb/v7e-m+fp/hard/crtbegin.o
 *(.bss*)
 .bss.cnt0.10542
                0x00000000200001d8        0x2 ./Core/Src/freertos.o
 .bss.cnt1.10512
                0x00000000200001da        0x2 ./Core/Src/freertos.o
 .bss.cnt1.10543
                0x00000000200001dc        0x2 ./Core/Src/freertos.o
 .bss.cnt2.10544
                0x00000000200001de        0x2 ./Core/Src/freertos.o
 .bss.cnt3.10514
                0x00000000200001e0        0x2 ./Core/Src/freertos.o
 .bss.cnt3.10545
                0x00000000200001e2        0x2 ./Core/Src/freertos.o
 .bss.cnt4.10515
                0x00000000200001e4        0x2 ./Core/Src/freertos.o
 .bss.cnt4.10546
                0x00000000200001e6        0x2 ./Core/Src/freertos.o
 .bss.__sbrk_heap_end
                0x00000000200001e8        0x4 ./Core/Src/sysmem.o
 .bss.__lock___malloc_recursive_mutex
                0x00000000200001ec        0xc ./Core/ThreadSafe/newlib_lock_glue.o
                0x00000000200001ec                __lock___malloc_recursive_mutex
 .bss.Idle_Stack.10425
                0x00000000200001f8      0x200 ./Middlewares/Third_Party/FreeRTOS/Source/CMSIS_RTOS_V2/cmsis_os2.o
 .bss.Idle_TCB.10424
                0x00000000200003f8       0xbc ./Middlewares/Third_Party/FreeRTOS/Source/CMSIS_RTOS_V2/cmsis_os2.o
 .bss.KernelState
                0x00000000200004b4        0x4 ./Middlewares/Third_Party/FreeRTOS/Source/CMSIS_RTOS_V2/cmsis_os2.o
 .bss.Timer_Stack.10432
                0x00000000200004b8      0x400 ./Middlewares/Third_Party/FreeRTOS/Source/CMSIS_RTOS_V2/cmsis_os2.o
 .bss.Timer_TCB.10431
                0x00000000200008b8       0xbc ./Middlewares/Third_Party/FreeRTOS/Source/CMSIS_RTOS_V2/cmsis_os2.o
 .bss.pxCurrentTCB
                0x0000000020000974        0x4 ./Middlewares/Third_Party/FreeRTOS/Source/tasks.o
                0x0000000020000974                pxCurrentTCB
 .bss.pxDelayedTaskList
                0x0000000020000978        0x4 ./Middlewares/Third_Party/FreeRTOS/Source/tasks.o
 .bss.pxOverflowDelayedTaskList
                0x000000002000097c        0x4 ./Middlewares/Third_Party/FreeRTOS/Source/tasks.o
 .bss.pxReadyTasksLists
                0x0000000020000980      0x460 ./Middlewares/Third_Party/FreeRTOS/Source/tasks.o
 .bss.uxCurrentNumberOfTasks
                0x0000000020000de0        0x4 ./Middlewares/Third_Party/FreeRTOS/Source/tasks.o
 .bss.uxDeletedTasksWaitingCleanUp
                0x0000000020000de4        0x4 ./Middlewares/Third_Party/FreeRTOS/Source/tasks.o
 .bss.uxSchedulerSuspended
                0x0000000020000de8        0x4 ./Middlewares/Third_Party/FreeRTOS/Source/tasks.o
 .bss.uxTaskNumber
                0x0000000020000dec        0x4 ./Middlewares/Third_Party/FreeRTOS/Source/tasks.o
 .bss.uxTopReadyPriority
                0x0000000020000df0        0x4 ./Middlewares/Third_Party/FreeRTOS/Source/tasks.o
 .bss.xDelayedTaskList1
                0x0000000020000df4       0x14 ./Middlewares/Third_Party/FreeRTOS/Source/tasks.o
 .bss.xDelayedTaskList2
                0x0000000020000e08       0x14 ./Middlewares/Third_Party/FreeRTOS/Source/tasks.o
 .bss.xNextTaskUnblockTime
                0x0000000020000e1c        0x4 ./Middlewares/Third_Party/FreeRTOS/Source/tasks.o
 .bss.xNumOfOverflows
                0x0000000020000e20        0x4 ./Middlewares/Third_Party/FreeRTOS/Source/tasks.o
 .bss.xPendedTicks
                0x0000000020000e24        0x4 ./Middlewares/Third_Party/FreeRTOS/Source/tasks.o
 .bss.xPendingReadyList
                0x0000000020000e28       0x14 ./Middlewares/Third_Party/FreeRTOS/Source/tasks.o
 .bss.xSchedulerRunning
                0x0000000020000e3c        0x4 ./Middlewares/Third_Party/FreeRTOS/Source/tasks.o
 .bss.xSuspendedTaskList
                0x0000000020000e40       0x14 ./Middlewares/Third_Party/FreeRTOS/Source/tasks.o
 .bss.xTasksWaitingTermination
                0x0000000020000e54       0x14 ./Middlewares/Third_Party/FreeRTOS/Source/tasks.o
 .bss.xTickCount
                0x0000000020000e68        0x4 ./Middlewares/Third_Party/FreeRTOS/Source/tasks.o
 .bss.xYieldPending
                0x0000000020000e6c        0x4 ./Middlewares/Third_Party/FreeRTOS/Source/tasks.o
 .bss.pxCurrentTimerList
                0x0000000020000e70        0x4 ./Middlewares/Third_Party/FreeRTOS/Source/timers.o
 .bss.pxOverflowTimerList
                0x0000000020000e74        0x4 ./Middlewares/Third_Party/FreeRTOS/Source/timers.o
 .bss.ucStaticTimerQueueStorage.7064
                0x0000000020000e78       0xa0 ./Middlewares/Third_Party/FreeRTOS/Source/timers.o
 .bss.xActiveTimerList1
                0x0000000020000f18       0x14 ./Middlewares/Third_Party/FreeRTOS/Source/timers.o
 .bss.xActiveTimerList2
                0x0000000020000f2c       0x14 ./Middlewares/Third_Party/FreeRTOS/Source/timers.o
 .bss.xLastTime.7013
                0x0000000020000f40        0x4 ./Middlewares/Third_Party/FreeRTOS/Source/timers.o
 .bss.xStaticTimerQueue.7063
                0x0000000020000f44       0x50 ./Middlewares/Third_Party/FreeRTOS/Source/timers.o
 .bss.xTimerQueue
                0x0000000020000f94        0x4 ./Middlewares/Third_Party/FreeRTOS/Source/timers.o
 .bss.xTimerTaskHandle
                0x0000000020000f98        0x4 ./Middlewares/Third_Party/FreeRTOS/Source/timers.o
 .bss.ucMaxSysCallPriority
                0x0000000020000f9c        0x1 ./Middlewares/Third_Party/FreeRTOS/Source/portable/GCC/ARM_CM4F/port.o
 *fill*         0x0000000020000f9d        0x3 
 .bss.ulMaxPRIGROUPValue
                0x0000000020000fa0        0x4 ./Middlewares/Third_Party/FreeRTOS/Source/portable/GCC/ARM_CM4F/port.o
 .bss.pxEnd     0x0000000020000fa4        0x4 ./Middlewares/Third_Party/FreeRTOS/Source/portable/MemMang/heap_4.o
 .bss.ucHeap    0x0000000020000fa8     0xc000 ./Middlewares/Third_Party/FreeRTOS/Source/portable/MemMang/heap_4.o
 .bss.xBlockAllocatedBit
                0x000000002000cfa8        0x4 ./Middlewares/Third_Party/FreeRTOS/Source/portable/MemMang/heap_4.o
 .bss.xFreeBytesRemaining
                0x000000002000cfac        0x4 ./Middlewares/Third_Party/FreeRTOS/Source/portable/MemMang/heap_4.o
 .bss.xMinimumEverFreeBytesRemaining
                0x000000002000cfb0        0x4 ./Middlewares/Third_Party/FreeRTOS/Source/portable/MemMang/heap_4.o
 .bss.xNumberOfSuccessfulAllocations
                0x000000002000cfb4        0x4 ./Middlewares/Third_Party/FreeRTOS/Source/portable/MemMang/heap_4.o
 .bss.xNumberOfSuccessfulFrees
                0x000000002000cfb8        0x4 ./Middlewares/Third_Party/FreeRTOS/Source/portable/MemMang/heap_4.o
 .bss.xStart    0x000000002000cfbc        0x8 ./Middlewares/Third_Party/FreeRTOS/Source/portable/MemMang/heap_4.o
 .bss.cnt.9688  0x000000002000cfc4        0x1 ./user/detect.o
 .bss.cnt.9762  0x000000002000cfc5        0x1 ./user/detect.o
 .bss.pic_val_bk.10347
                0x000000002000cfc6        0x2 ./user/display.o
 .bss.eeprom_cache
                0x000000002000cfc8      0x400 ./user/eeprom.o
 .bss.eeprom_cache1
                0x000000002000d3c8      0x400 ./user/eeprom.o
 .bss.eeprom_cache_bk
                0x000000002000d7c8      0x400 ./user/eeprom.o
 .bss.my_tic    0x000000002000dbc8       0x14 ./user/my_tim.o
                0x000000002000dbc8                my_tic
 .bss.tickCnt   0x000000002000dbdc        0x4 ./user/soft_timer.o
                0x000000002000dbdc                tickCnt
 .bss.timer     0x000000002000dbe0      0x1e0 ./user/soft_timer.o
 .bss.__malloc_free_list
                0x000000002000ddc0        0x4 d:/st/stm32cubeide_1.8.0/stm32cubeide/plugins/com.st.stm32cube.ide.mcu.externaltools.gnu-tools-for-stm32.9-2020-q2-update.win32_2.0.0.202105311346/tools/bin/../lib/gcc/arm-none-eabi/9.3.1/../../../../arm-none-eabi/lib/thumb/v7e-m+fp/hard\libc_nano.a(lib_a-nano-mallocr.o)
                0x000000002000ddc0                __malloc_free_list
 .bss.__malloc_sbrk_start
                0x000000002000ddc4        0x4 d:/st/stm32cubeide_1.8.0/stm32cubeide/plugins/com.st.stm32cube.ide.mcu.externaltools.gnu-tools-for-stm32.9-2020-q2-update.win32_2.0.0.202105311346/tools/bin/../lib/gcc/arm-none-eabi/9.3.1/../../../../arm-none-eabi/lib/thumb/v7e-m+fp/hard\libc_nano.a(lib_a-nano-mallocr.o)
                0x000000002000ddc4                __malloc_sbrk_start
 *(COMMON)
 COMMON         0x000000002000ddc8       0x60 ./Core/Src/freertos.o
                0x000000002000ddc8                defaultTaskHandle
                0x000000002000ddcc                myBinarySem05Handle
                0x000000002000ddd0                myEvent01Handle
                0x000000002000ddd4                myTask05Handle
                0x000000002000ddd8                myTask04Handle
                0x000000002000dddc                myBinarySem03Handle
                0x000000002000dde0                time_start_st
                0x000000002000ddf8                myEvent02Handle
                0x000000002000ddfc                myBinarySem02Handle
                0x000000002000de00                myTask02Handle
                0x000000002000de04                myBinarySem01Handle
                0x000000002000de08                myTask03Handle
                0x000000002000de0c                myQueueUsart1Handle
                0x000000002000de10                myQueueUsart6Handle
                0x000000002000de14                myMutex01Handle
                0x000000002000de18                myMutex02Handle
                0x000000002000de1c                myQueueUsart3Handle
                0x000000002000de20                myTask06Handle
                0x000000002000de24                myBinarySem04Handle
 COMMON         0x000000002000de28        0xc ./Core/Src/iwdg.o
                0x000000002000de28                hiwdg
 COMMON         0x000000002000de34       0x20 ./Core/Src/rtc.o
                0x000000002000de34                hrtc
 COMMON         0x000000002000de54       0x48 ./Core/Src/stm32f4xx_hal_timebase_tim.o
                0x000000002000de54                htim2
 COMMON         0x000000002000de9c       0xd8 ./Core/Src/tim.o
                0x000000002000de9c                htim10
                0x000000002000dee4                htim6
                0x000000002000df2c                htim7
 COMMON         0x000000002000df74      0x30c ./Core/Src/usart.o
                0x000000002000df74                hdma_usart6_rx
                0x000000002000dfd4                hdma_usart3_rx
                0x000000002000e034                huart3
                0x000000002000e078                hdma_usart3_tx
                0x000000002000e0d8                hdma_usart1_tx
                0x000000002000e138                hdma_usart6_tx
                0x000000002000e198                hdma_usart1_rx
                0x000000002000e1f8                huart1
                0x000000002000e23c                huart6
 COMMON         0x000000002000e280        0x4 ./Drivers/STM32F4xx_HAL_Driver/Src/stm32f4xx_hal.o
                0x000000002000e280                uwTick
 COMMON         0x000000002000e284       0x20 ./Drivers/STM32F4xx_HAL_Driver/Src/stm32f4xx_hal_flash.o
                0x000000002000e284                pFlash
 COMMON         0x000000002000e2a4       0x40 ./Middlewares/Third_Party/FreeRTOS/Source/queue.o
                0x000000002000e2a4                xQueueRegistry
 COMMON         0x000000002000e2e4      0x202 ./user/detect.o
                0x000000002000e2e4                keyboard_buff
                0x000000002000e2ef                keycatch_result
                0x000000002000e2f0                keystop_buff
                0x000000002000e2fb                keypush_buff
                0x000000002000e306                keypush_result
                0x000000002000e307                keyrun_result
                0x000000002000e308                start_stop_st
                0x000000002000e30a                keyemg_result
                0x000000002000e30b                keyboard_result
                0x000000002000e30c                keystop_result
                0x000000002000e30d                keyturn_result
                0x000000002000e30e                keycatch_buff
                0x000000002000e319                keyrun_buff
                0x000000002000e324                dpt
                0x000000002000e4b8                keyturn_buff
                0x000000002000e4c3                keymod_result
                0x000000002000e4c4                keyemg_buff
                0x000000002000e4cf                keyhead_result
                0x000000002000e4d0                keymod_buff
                0x000000002000e4db                keyhead_buff
 COMMON         0x000000002000e4e6      0x810 ./user/dev_usart.o
                0x000000002000e4e6                usart1_rx
                0x000000002000e5e8                Usart1_Type
                0x000000002000e6ea                usart6_rx
                0x000000002000e7ec                Usart2_Type
                0x000000002000e8ee                Usart3_Type
                0x000000002000e9f0                usart2_rx
                0x000000002000eaf2                Usart6_Type
                0x000000002000ebf4                usart3_rx
 *fill*         0x000000002000ecf6        0x2 
 COMMON         0x000000002000ecf8       0x74 ./user/display.o
                0x000000002000ecf8                log_para_st
                0x000000002000ed34                time_st
                0x000000002000ed4c                tim_para_st
                0x000000002000ed50                warn_out_st
                0x000000002000ed54                time_get_st
 COMMON         0x000000002000ed6c      0x1b7 ./user/io_ctrl.o
                0x000000002000ed6c                pro_flag_st
                0x000000002000ed70                osthd_st
                0x000000002000ed7c                relief_st
                0x000000002000ed84                set_para_st
                0x000000002000eda8                op_para_st
                0x000000002000edac                src_press_st
                0x000000002000edd4                screen_ini_st
                0x000000002000edd8                scr_state_st
                0x000000002000ede8                scr_operate_st
                0x000000002000ee04                fst_tips_st
                0x000000002000ee06                screen_prot
                0x000000002000ef1e                out_state_st
 *fill*         0x000000002000ef23        0x1 
 COMMON         0x000000002000ef24       0x88 ./user/my_tim.o
                0x000000002000ef24                warn_st
                0x000000002000ef4c                warn_bk_st
                0x000000002000ef74                para_check_st
 COMMON         0x000000002000efac        0xe ./user/sysguard.o
                0x000000002000efac                sys_guard
 *fill*         0x000000002000efba        0x2 
 COMMON         0x000000002000efbc        0x4 d:/st/stm32cubeide_1.8.0/stm32cubeide/plugins/com.st.stm32cube.ide.mcu.externaltools.gnu-tools-for-stm32.9-2020-q2-update.win32_2.0.0.202105311346/tools/bin/../lib/gcc/arm-none-eabi/9.3.1/../../../../arm-none-eabi/lib/thumb/v7e-m+fp/hard\libc_nano.a(lib_a-reent.o)
                0x000000002000efbc                errno
                0x000000002000efc0                . = ALIGN (0x4)
                0x000000002000efc0                _ebss = .
                0x000000002000efc0                __bss_end__ = _ebss

._user_heap_stack
                0x000000002000efc0     0x6000 load address 0x000000000802c8d4
                0x000000002000efc0                . = ALIGN (0x8)
                [!provide]                        PROVIDE (end = .)
                0x000000002000efc0                PROVIDE (_end = .)
                0x0000000020010fc0                . = (. + _Min_Heap_Size)
 *fill*         0x000000002000efc0     0x2000 
                0x0000000020014fc0                . = (. + _Min_Stack_Size)
 *fill*         0x0000000020010fc0     0x4000 
                0x0000000020014fc0                . = ALIGN (0x8)

/DISCARD/
 libc.a(*)
 libm.a(*)
 libgcc.a(*)

.ARM.attributes
                0x0000000000000000       0x30
 *(.ARM.attributes)
 .ARM.attributes
                0x0000000000000000       0x1e d:/st/stm32cubeide_1.8.0/stm32cubeide/plugins/com.st.stm32cube.ide.mcu.externaltools.gnu-tools-for-stm32.9-2020-q2-update.win32_2.0.0.202105311346/tools/bin/../lib/gcc/arm-none-eabi/9.3.1/thumb/v7e-m+fp/hard/crti.o
 .ARM.attributes
                0x000000000000001e       0x34 d:/st/stm32cubeide_1.8.0/stm32cubeide/plugins/com.st.stm32cube.ide.mcu.externaltools.gnu-tools-for-stm32.9-2020-q2-update.win32_2.0.0.202105311346/tools/bin/../lib/gcc/arm-none-eabi/9.3.1/thumb/v7e-m+fp/hard/crtbegin.o
 .ARM.attributes
                0x0000000000000052       0x34 ./Core/Src/dma.o
 .ARM.attributes
                0x0000000000000086       0x34 ./Core/Src/freertos.o
 .ARM.attributes
                0x00000000000000ba       0x34 ./Core/Src/gpio.o
 .ARM.attributes
                0x00000000000000ee       0x34 ./Core/Src/iwdg.o
 .ARM.attributes
                0x0000000000000122       0x34 ./Core/Src/main.o
 .ARM.attributes
                0x0000000000000156       0x34 ./Core/Src/rtc.o
 .ARM.attributes
                0x000000000000018a       0x34 ./Core/Src/stm32f4xx_hal_msp.o
 .ARM.attributes
                0x00000000000001be       0x34 ./Core/Src/stm32f4xx_hal_timebase_tim.o
 .ARM.attributes
                0x00000000000001f2       0x34 ./Core/Src/stm32f4xx_it.o
 .ARM.attributes
                0x0000000000000226       0x34 ./Core/Src/sysmem.o
 .ARM.attributes
                0x000000000000025a       0x34 ./Core/Src/system_stm32f4xx.o
 .ARM.attributes
                0x000000000000028e       0x34 ./Core/Src/tim.o
 .ARM.attributes
                0x00000000000002c2       0x34 ./Core/Src/usart.o
 .ARM.attributes
                0x00000000000002f6       0x21 ./Core/Startup/startup_stm32f412retx.o
 .ARM.attributes
                0x0000000000000317       0x34 ./Core/ThreadSafe/newlib_lock_glue.o
 .ARM.attributes
                0x000000000000034b       0x34 ./Drivers/STM32F4xx_HAL_Driver/Src/stm32f4xx_hal.o
 .ARM.attributes
                0x000000000000037f       0x34 ./Drivers/STM32F4xx_HAL_Driver/Src/stm32f4xx_hal_cortex.o
 .ARM.attributes
                0x00000000000003b3       0x34 ./Drivers/STM32F4xx_HAL_Driver/Src/stm32f4xx_hal_dma.o
 .ARM.attributes
                0x00000000000003e7       0x34 ./Drivers/STM32F4xx_HAL_Driver/Src/stm32f4xx_hal_flash.o
 .ARM.attributes
                0x000000000000041b       0x34 ./Drivers/STM32F4xx_HAL_Driver/Src/stm32f4xx_hal_flash_ex.o
 .ARM.attributes
                0x000000000000044f       0x34 ./Drivers/STM32F4xx_HAL_Driver/Src/stm32f4xx_hal_gpio.o
 .ARM.attributes
                0x0000000000000483       0x34 ./Drivers/STM32F4xx_HAL_Driver/Src/stm32f4xx_hal_iwdg.o
 .ARM.attributes
                0x00000000000004b7       0x34 ./Drivers/STM32F4xx_HAL_Driver/Src/stm32f4xx_hal_rcc.o
 .ARM.attributes
                0x00000000000004eb       0x34 ./Drivers/STM32F4xx_HAL_Driver/Src/stm32f4xx_hal_rcc_ex.o
 .ARM.attributes
                0x000000000000051f       0x34 ./Drivers/STM32F4xx_HAL_Driver/Src/stm32f4xx_hal_rtc.o
 .ARM.attributes
                0x0000000000000553       0x34 ./Drivers/STM32F4xx_HAL_Driver/Src/stm32f4xx_hal_tim.o
 .ARM.attributes
                0x0000000000000587       0x34 ./Drivers/STM32F4xx_HAL_Driver/Src/stm32f4xx_hal_tim_ex.o
 .ARM.attributes
                0x00000000000005bb       0x34 ./Drivers/STM32F4xx_HAL_Driver/Src/stm32f4xx_hal_uart.o
 .ARM.attributes
                0x00000000000005ef       0x34 ./Middlewares/Third_Party/FreeRTOS/Source/CMSIS_RTOS_V2/cmsis_os2.o
 .ARM.attributes
                0x0000000000000623       0x34 ./Middlewares/Third_Party/FreeRTOS/Source/event_groups.o
 .ARM.attributes
                0x0000000000000657       0x34 ./Middlewares/Third_Party/FreeRTOS/Source/list.o
 .ARM.attributes
                0x000000000000068b       0x34 ./Middlewares/Third_Party/FreeRTOS/Source/queue.o
 .ARM.attributes
                0x00000000000006bf       0x34 ./Middlewares/Third_Party/FreeRTOS/Source/tasks.o
 .ARM.attributes
                0x00000000000006f3       0x34 ./Middlewares/Third_Party/FreeRTOS/Source/timers.o
 .ARM.attributes
                0x0000000000000727       0x34 ./Middlewares/Third_Party/FreeRTOS/Source/portable/GCC/ARM_CM4F/port.o
 .ARM.attributes
                0x000000000000075b       0x34 ./Middlewares/Third_Party/FreeRTOS/Source/portable/MemMang/heap_4.o
 .ARM.attributes
                0x000000000000078f       0x34 ./user/detect.o
 .ARM.attributes
                0x00000000000007c3       0x34 ./user/dev_usart.o
 .ARM.attributes
                0x00000000000007f7       0x34 ./user/display.o
 .ARM.attributes
                0x000000000000082b       0x34 ./user/eeprom.o
 .ARM.attributes
                0x000000000000085f       0x34 ./user/io_ctrl.o
 .ARM.attributes
                0x0000000000000893       0x34 ./user/my_tim.o
 .ARM.attributes
                0x00000000000008c7       0x34 ./user/myprintf.o
 .ARM.attributes
                0x00000000000008fb       0x34 ./user/soft_timer.o
 .ARM.attributes
                0x000000000000092f       0x34 ./user/sysguard.o
 .ARM.attributes
                0x0000000000000963       0x32 d:/st/stm32cubeide_1.8.0/stm32cubeide/plugins/com.st.stm32cube.ide.mcu.externaltools.gnu-tools-for-stm32.9-2020-q2-update.win32_2.0.0.202105311346/tools/bin/../lib/gcc/arm-none-eabi/9.3.1/../../../../arm-none-eabi/lib/thumb/v7e-m+fp/hard\libc_nano.a(lib_a-ctype_.o)
 .ARM.attributes
                0x0000000000000995       0x34 d:/st/stm32cubeide_1.8.0/stm32cubeide/plugins/com.st.stm32cube.ide.mcu.externaltools.gnu-tools-for-stm32.9-2020-q2-update.win32_2.0.0.202105311346/tools/bin/../lib/gcc/arm-none-eabi/9.3.1/../../../../arm-none-eabi/lib/thumb/v7e-m+fp/hard\libc_nano.a(lib_a-errno.o)
 .ARM.attributes
                0x00000000000009c9       0x34 d:/st/stm32cubeide_1.8.0/stm32cubeide/plugins/com.st.stm32cube.ide.mcu.externaltools.gnu-tools-for-stm32.9-2020-q2-update.win32_2.0.0.202105311346/tools/bin/../lib/gcc/arm-none-eabi/9.3.1/../../../../arm-none-eabi/lib/thumb/v7e-m+fp/hard\libc_nano.a(lib_a-findfp.o)
 .ARM.attributes
                0x00000000000009fd       0x32 d:/st/stm32cubeide_1.8.0/stm32cubeide/plugins/com.st.stm32cube.ide.mcu.externaltools.gnu-tools-for-stm32.9-2020-q2-update.win32_2.0.0.202105311346/tools/bin/../lib/gcc/arm-none-eabi/9.3.1/../../../../arm-none-eabi/lib/thumb/v7e-m+fp/hard\libc_nano.a(lib_a-impure.o)
 .ARM.attributes
                0x0000000000000a2f       0x34 d:/st/stm32cubeide_1.8.0/stm32cubeide/plugins/com.st.stm32cube.ide.mcu.externaltools.gnu-tools-for-stm32.9-2020-q2-update.win32_2.0.0.202105311346/tools/bin/../lib/gcc/arm-none-eabi/9.3.1/../../../../arm-none-eabi/lib/thumb/v7e-m+fp/hard\libc_nano.a(lib_a-init.o)
 .ARM.attributes
                0x0000000000000a63       0x34 d:/st/stm32cubeide_1.8.0/stm32cubeide/plugins/com.st.stm32cube.ide.mcu.externaltools.gnu-tools-for-stm32.9-2020-q2-update.win32_2.0.0.202105311346/tools/bin/../lib/gcc/arm-none-eabi/9.3.1/../../../../arm-none-eabi/lib/thumb/v7e-m+fp/hard\libc_nano.a(lib_a-memcmp.o)
 .ARM.attributes
                0x0000000000000a97       0x34 d:/st/stm32cubeide_1.8.0/stm32cubeide/plugins/com.st.stm32cube.ide.mcu.externaltools.gnu-tools-for-stm32.9-2020-q2-update.win32_2.0.0.202105311346/tools/bin/../lib/gcc/arm-none-eabi/9.3.1/../../../../arm-none-eabi/lib/thumb/v7e-m+fp/hard\libc_nano.a(lib_a-memcpy-stub.o)
 .ARM.attributes
                0x0000000000000acb       0x34 d:/st/stm32cubeide_1.8.0/stm32cubeide/plugins/com.st.stm32cube.ide.mcu.externaltools.gnu-tools-for-stm32.9-2020-q2-update.win32_2.0.0.202105311346/tools/bin/../lib/gcc/arm-none-eabi/9.3.1/../../../../arm-none-eabi/lib/thumb/v7e-m+fp/hard\libc_nano.a(lib_a-memset.o)
 .ARM.attributes
                0x0000000000000aff       0x34 d:/st/stm32cubeide_1.8.0/stm32cubeide/plugins/com.st.stm32cube.ide.mcu.externaltools.gnu-tools-for-stm32.9-2020-q2-update.win32_2.0.0.202105311346/tools/bin/../lib/gcc/arm-none-eabi/9.3.1/../../../../arm-none-eabi/lib/thumb/v7e-m+fp/hard\libc_nano.a(lib_a-nano-freer.o)
 .ARM.attributes
                0x0000000000000b33       0x34 d:/st/stm32cubeide_1.8.0/stm32cubeide/plugins/com.st.stm32cube.ide.mcu.externaltools.gnu-tools-for-stm32.9-2020-q2-update.win32_2.0.0.202105311346/tools/bin/../lib/gcc/arm-none-eabi/9.3.1/../../../../arm-none-eabi/lib/thumb/v7e-m+fp/hard\libc_nano.a(lib_a-nano-mallocr.o)
 .ARM.attributes
                0x0000000000000b67       0x34 d:/st/stm32cubeide_1.8.0/stm32cubeide/plugins/com.st.stm32cube.ide.mcu.externaltools.gnu-tools-for-stm32.9-2020-q2-update.win32_2.0.0.202105311346/tools/bin/../lib/gcc/arm-none-eabi/9.3.1/../../../../arm-none-eabi/lib/thumb/v7e-m+fp/hard\libc_nano.a(lib_a-reent.o)
 .ARM.attributes
                0x0000000000000b9b       0x34 d:/st/stm32cubeide_1.8.0/stm32cubeide/plugins/com.st.stm32cube.ide.mcu.externaltools.gnu-tools-for-stm32.9-2020-q2-update.win32_2.0.0.202105311346/tools/bin/../lib/gcc/arm-none-eabi/9.3.1/../../../../arm-none-eabi/lib/thumb/v7e-m+fp/hard\libc_nano.a(lib_a-sbrkr.o)
 .ARM.attributes
                0x0000000000000bcf       0x34 d:/st/stm32cubeide_1.8.0/stm32cubeide/plugins/com.st.stm32cube.ide.mcu.externaltools.gnu-tools-for-stm32.9-2020-q2-update.win32_2.0.0.202105311346/tools/bin/../lib/gcc/arm-none-eabi/9.3.1/../../../../arm-none-eabi/lib/thumb/v7e-m+fp/hard\libc_nano.a(lib_a-sprintf.o)
 .ARM.attributes
                0x0000000000000c03       0x17 d:/st/stm32cubeide_1.8.0/stm32cubeide/plugins/com.st.stm32cube.ide.mcu.externaltools.gnu-tools-for-stm32.9-2020-q2-update.win32_2.0.0.202105311346/tools/bin/../lib/gcc/arm-none-eabi/9.3.1/../../../../arm-none-eabi/lib/thumb/v7e-m+fp/hard\libc_nano.a(lib_a-strlen.o)
 .ARM.attributes
                0x0000000000000c1a       0x34 d:/st/stm32cubeide_1.8.0/stm32cubeide/plugins/com.st.stm32cube.ide.mcu.externaltools.gnu-tools-for-stm32.9-2020-q2-update.win32_2.0.0.202105311346/tools/bin/../lib/gcc/arm-none-eabi/9.3.1/../../../../arm-none-eabi/lib/thumb/v7e-m+fp/hard\libc_nano.a(lib_a-mlock.o)
 .ARM.attributes
                0x0000000000000c4e       0x34 d:/st/stm32cubeide_1.8.0/stm32cubeide/plugins/com.st.stm32cube.ide.mcu.externaltools.gnu-tools-for-stm32.9-2020-q2-update.win32_2.0.0.202105311346/tools/bin/../lib/gcc/arm-none-eabi/9.3.1/../../../../arm-none-eabi/lib/thumb/v7e-m+fp/hard\libc_nano.a(lib_a-nano-svfprintf.o)
 .ARM.attributes
                0x0000000000000c82       0x34 d:/st/stm32cubeide_1.8.0/stm32cubeide/plugins/com.st.stm32cube.ide.mcu.externaltools.gnu-tools-for-stm32.9-2020-q2-update.win32_2.0.0.202105311346/tools/bin/../lib/gcc/arm-none-eabi/9.3.1/../../../../arm-none-eabi/lib/thumb/v7e-m+fp/hard\libc_nano.a(lib_a-nano-vfprintf_i.o)
 .ARM.attributes
                0x0000000000000cb6       0x1c d:/st/stm32cubeide_1.8.0/stm32cubeide/plugins/com.st.stm32cube.ide.mcu.externaltools.gnu-tools-for-stm32.9-2020-q2-update.win32_2.0.0.202105311346/tools/bin/../lib/gcc/arm-none-eabi/9.3.1/../../../../arm-none-eabi/lib/thumb/v7e-m+fp/hard\libc_nano.a(lib_a-memchr.o)
 .ARM.attributes
                0x0000000000000cd2       0x34 d:/st/stm32cubeide_1.8.0/stm32cubeide/plugins/com.st.stm32cube.ide.mcu.externaltools.gnu-tools-for-stm32.9-2020-q2-update.win32_2.0.0.202105311346/tools/bin/../lib/gcc/arm-none-eabi/9.3.1/../../../../arm-none-eabi/lib/thumb/v7e-m+fp/hard\libc_nano.a(lib_a-memmove.o)
 .ARM.attributes
                0x0000000000000d06       0x34 d:/st/stm32cubeide_1.8.0/stm32cubeide/plugins/com.st.stm32cube.ide.mcu.externaltools.gnu-tools-for-stm32.9-2020-q2-update.win32_2.0.0.202105311346/tools/bin/../lib/gcc/arm-none-eabi/9.3.1/../../../../arm-none-eabi/lib/thumb/v7e-m+fp/hard\libc_nano.a(lib_a-nano-reallocr.o)
 .ARM.attributes
                0x0000000000000d3a       0x34 d:/st/stm32cubeide_1.8.0/stm32cubeide/plugins/com.st.stm32cube.ide.mcu.externaltools.gnu-tools-for-stm32.9-2020-q2-update.win32_2.0.0.202105311346/tools/bin/../lib/gcc/arm-none-eabi/9.3.1/../../../../arm-none-eabi/lib/thumb/v7e-m+fp/hard\libc_nano.a(lib_a-nano-msizer.o)
 .ARM.attributes
                0x0000000000000d6e       0x1e d:/st/stm32cubeide_1.8.0/stm32cubeide/plugins/com.st.stm32cube.ide.mcu.externaltools.gnu-tools-for-stm32.9-2020-q2-update.win32_2.0.0.202105311346/tools/bin/../lib/gcc/arm-none-eabi/9.3.1/thumb/v7e-m+fp/hard\libgcc.a(_arm_truncdfsf2.o)
 .ARM.attributes
                0x0000000000000d8c       0x1e d:/st/stm32cubeide_1.8.0/stm32cubeide/plugins/com.st.stm32cube.ide.mcu.externaltools.gnu-tools-for-stm32.9-2020-q2-update.win32_2.0.0.202105311346/tools/bin/../lib/gcc/arm-none-eabi/9.3.1/thumb/v7e-m+fp/hard\libgcc.a(_aeabi_uldivmod.o)
 .ARM.attributes
                0x0000000000000daa       0x34 d:/st/stm32cubeide_1.8.0/stm32cubeide/plugins/com.st.stm32cube.ide.mcu.externaltools.gnu-tools-for-stm32.9-2020-q2-update.win32_2.0.0.202105311346/tools/bin/../lib/gcc/arm-none-eabi/9.3.1/thumb/v7e-m+fp/hard\libgcc.a(_udivmoddi4.o)
 .ARM.attributes
                0x0000000000000dde       0x1e d:/st/stm32cubeide_1.8.0/stm32cubeide/plugins/com.st.stm32cube.ide.mcu.externaltools.gnu-tools-for-stm32.9-2020-q2-update.win32_2.0.0.202105311346/tools/bin/../lib/gcc/arm-none-eabi/9.3.1/thumb/v7e-m+fp/hard\libgcc.a(_dvmd_tls.o)
 .ARM.attributes
                0x0000000000000dfc       0x1e d:/st/stm32cubeide_1.8.0/stm32cubeide/plugins/com.st.stm32cube.ide.mcu.externaltools.gnu-tools-for-stm32.9-2020-q2-update.win32_2.0.0.202105311346/tools/bin/../lib/gcc/arm-none-eabi/9.3.1/thumb/v7e-m+fp/hard/crtn.o
OUTPUT(PACKER.elf elf32-littlearm)
LOAD linker stubs
LOAD d:/st/stm32cubeide_1.8.0/stm32cubeide/plugins/com.st.stm32cube.ide.mcu.externaltools.gnu-tools-for-stm32.9-2020-q2-update.win32_2.0.0.202105311346/tools/bin/../lib/gcc/arm-none-eabi/9.3.1/../../../../arm-none-eabi/lib/thumb/v7e-m+fp/hard\libc.a
LOAD d:/st/stm32cubeide_1.8.0/stm32cubeide/plugins/com.st.stm32cube.ide.mcu.externaltools.gnu-tools-for-stm32.9-2020-q2-update.win32_2.0.0.202105311346/tools/bin/../lib/gcc/arm-none-eabi/9.3.1/../../../../arm-none-eabi/lib/thumb/v7e-m+fp/hard\libm.a
LOAD d:/st/stm32cubeide_1.8.0/stm32cubeide/plugins/com.st.stm32cube.ide.mcu.externaltools.gnu-tools-for-stm32.9-2020-q2-update.win32_2.0.0.202105311346/tools/bin/../lib/gcc/arm-none-eabi/9.3.1/thumb/v7e-m+fp/hard\libgcc.a

.debug_info     0x0000000000000000    0x47a6e
 .debug_info    0x0000000000000000      0x71d ./Core/Src/dma.o
 .debug_info    0x000000000000071d     0x2dbf ./Core/Src/freertos.o
 .debug_info    0x00000000000034dc      0x6bf ./Core/Src/gpio.o
 .debug_info    0x0000000000003b9b      0x2c3 ./Core/Src/iwdg.o
 .debug_info    0x0000000000003e5e     0x2cf6 ./Core/Src/main.o
 .debug_info    0x0000000000006b54      0x8bc ./Core/Src/rtc.o
 .debug_info    0x0000000000007410      0x60a ./Core/Src/stm32f4xx_hal_msp.o
 .debug_info    0x0000000000007a1a      0xd6c ./Core/Src/stm32f4xx_hal_timebase_tim.o
 .debug_info    0x0000000000008786      0xe8d ./Core/Src/stm32f4xx_it.o
 .debug_info    0x0000000000009613      0xa3e ./Core/Src/sysmem.o
 .debug_info    0x000000000000a051      0x5f5 ./Core/Src/system_stm32f4xx.o
 .debug_info    0x000000000000a646      0xe17 ./Core/Src/tim.o
 .debug_info    0x000000000000b45d     0x1128 ./Core/Src/usart.o
 .debug_info    0x000000000000c585       0x22 ./Core/Startup/startup_stm32f412retx.o
 .debug_info    0x000000000000c5a7     0x11f8 ./Core/ThreadSafe/newlib_lock_glue.o
 .debug_info    0x000000000000d79f      0xb02 ./Drivers/STM32F4xx_HAL_Driver/Src/stm32f4xx_hal.o
 .debug_info    0x000000000000e2a1     0x13de ./Drivers/STM32F4xx_HAL_Driver/Src/stm32f4xx_hal_cortex.o
 .debug_info    0x000000000000f67f      0xdec ./Drivers/STM32F4xx_HAL_Driver/Src/stm32f4xx_hal_dma.o
 .debug_info    0x000000000001046b      0x927 ./Drivers/STM32F4xx_HAL_Driver/Src/stm32f4xx_hal_flash.o
 .debug_info    0x0000000000010d92      0xe18 ./Drivers/STM32F4xx_HAL_Driver/Src/stm32f4xx_hal_flash_ex.o
 .debug_info    0x0000000000011baa      0xa69 ./Drivers/STM32F4xx_HAL_Driver/Src/stm32f4xx_hal_gpio.o
 .debug_info    0x0000000000012613      0x360 ./Drivers/STM32F4xx_HAL_Driver/Src/stm32f4xx_hal_iwdg.o
 .debug_info    0x0000000000012973      0xeb5 ./Drivers/STM32F4xx_HAL_Driver/Src/stm32f4xx_hal_rcc.o
 .debug_info    0x0000000000013828      0xed6 ./Drivers/STM32F4xx_HAL_Driver/Src/stm32f4xx_hal_rcc_ex.o
 .debug_info    0x00000000000146fe     0x1952 ./Drivers/STM32F4xx_HAL_Driver/Src/stm32f4xx_hal_rtc.o
 .debug_info    0x0000000000016050     0x5367 ./Drivers/STM32F4xx_HAL_Driver/Src/stm32f4xx_hal_tim.o
 .debug_info    0x000000000001b3b7     0x21b6 ./Drivers/STM32F4xx_HAL_Driver/Src/stm32f4xx_hal_tim_ex.o
 .debug_info    0x000000000001d56d     0x4680 ./Drivers/STM32F4xx_HAL_Driver/Src/stm32f4xx_hal_uart.o
 .debug_info    0x0000000000021bed     0x5426 ./Middlewares/Third_Party/FreeRTOS/Source/CMSIS_RTOS_V2/cmsis_os2.o
 .debug_info    0x0000000000027013     0x194f ./Middlewares/Third_Party/FreeRTOS/Source/event_groups.o
 .debug_info    0x0000000000028962      0xb95 ./Middlewares/Third_Party/FreeRTOS/Source/list.o
 .debug_info    0x00000000000294f7     0x3401 ./Middlewares/Third_Party/FreeRTOS/Source/queue.o
 .debug_info    0x000000000002c8f8     0x3e4e ./Middlewares/Third_Party/FreeRTOS/Source/tasks.o
 .debug_info    0x0000000000030746     0x2586 ./Middlewares/Third_Party/FreeRTOS/Source/timers.o
 .debug_info    0x0000000000032ccc      0xe52 ./Middlewares/Third_Party/FreeRTOS/Source/portable/GCC/ARM_CM4F/port.o
 .debug_info    0x0000000000033b1e      0xf10 ./Middlewares/Third_Party/FreeRTOS/Source/portable/MemMang/heap_4.o
 .debug_info    0x0000000000034a2e     0x22d7 ./user/detect.o
 .debug_info    0x0000000000036d05     0x1f5b ./user/dev_usart.o
 .debug_info    0x0000000000038c60     0x2fb0 ./user/display.o
 .debug_info    0x000000000003bc10     0x1552 ./user/eeprom.o
 .debug_info    0x000000000003d162     0x5049 ./user/io_ctrl.o
 .debug_info    0x00000000000421ab     0x18e8 ./user/my_tim.o
 .debug_info    0x0000000000043a93     0x1462 ./user/myprintf.o
 .debug_info    0x0000000000044ef5     0x26d8 ./user/soft_timer.o
 .debug_info    0x00000000000475cd      0x4a1 ./user/sysguard.o

.debug_abbrev   0x0000000000000000     0x8771
 .debug_abbrev  0x0000000000000000      0x157 ./Core/Src/dma.o
 .debug_abbrev  0x0000000000000157      0x369 ./Core/Src/freertos.o
 .debug_abbrev  0x00000000000004c0      0x198 ./Core/Src/gpio.o
 .debug_abbrev  0x0000000000000658      0x15b ./Core/Src/iwdg.o
 .debug_abbrev  0x00000000000007b3      0x334 ./Core/Src/main.o
 .debug_abbrev  0x0000000000000ae7      0x1c3 ./Core/Src/rtc.o
 .debug_abbrev  0x0000000000000caa      0x155 ./Core/Src/stm32f4xx_hal_msp.o
 .debug_abbrev  0x0000000000000dff      0x21a ./Core/Src/stm32f4xx_hal_timebase_tim.o
 .debug_abbrev  0x0000000000001019      0x207 ./Core/Src/stm32f4xx_it.o
 .debug_abbrev  0x0000000000001220      0x203 ./Core/Src/sysmem.o
 .debug_abbrev  0x0000000000001423      0x14b ./Core/Src/system_stm32f4xx.o
 .debug_abbrev  0x000000000000156e      0x212 ./Core/Src/tim.o
 .debug_abbrev  0x0000000000001780      0x275 ./Core/Src/usart.o
 .debug_abbrev  0x00000000000019f5       0x12 ./Core/Startup/startup_stm32f412retx.o
 .debug_abbrev  0x0000000000001a07      0x49b ./Core/ThreadSafe/newlib_lock_glue.o
 .debug_abbrev  0x0000000000001ea2      0x27e ./Drivers/STM32F4xx_HAL_Driver/Src/stm32f4xx_hal.o
 .debug_abbrev  0x0000000000002120      0x3c3 ./Drivers/STM32F4xx_HAL_Driver/Src/stm32f4xx_hal_cortex.o
 .debug_abbrev  0x00000000000024e3      0x355 ./Drivers/STM32F4xx_HAL_Driver/Src/stm32f4xx_hal_dma.o
 .debug_abbrev  0x0000000000002838      0x2fd ./Drivers/STM32F4xx_HAL_Driver/Src/stm32f4xx_hal_flash.o
 .debug_abbrev  0x0000000000002b35      0x32b ./Drivers/STM32F4xx_HAL_Driver/Src/stm32f4xx_hal_flash_ex.o
 .debug_abbrev  0x0000000000002e60      0x259 ./Drivers/STM32F4xx_HAL_Driver/Src/stm32f4xx_hal_gpio.o
 .debug_abbrev  0x00000000000030b9      0x186 ./Drivers/STM32F4xx_HAL_Driver/Src/stm32f4xx_hal_iwdg.o
 .debug_abbrev  0x000000000000323f      0x328 ./Drivers/STM32F4xx_HAL_Driver/Src/stm32f4xx_hal_rcc.o
 .debug_abbrev  0x0000000000003567      0x20e ./Drivers/STM32F4xx_HAL_Driver/Src/stm32f4xx_hal_rcc_ex.o
 .debug_abbrev  0x0000000000003775      0x2e9 ./Drivers/STM32F4xx_HAL_Driver/Src/stm32f4xx_hal_rtc.o
 .debug_abbrev  0x0000000000003a5e      0x358 ./Drivers/STM32F4xx_HAL_Driver/Src/stm32f4xx_hal_tim.o
 .debug_abbrev  0x0000000000003db6      0x2c3 ./Drivers/STM32F4xx_HAL_Driver/Src/stm32f4xx_hal_tim_ex.o
 .debug_abbrev  0x0000000000004079      0x3f7 ./Drivers/STM32F4xx_HAL_Driver/Src/stm32f4xx_hal_uart.o
 .debug_abbrev  0x0000000000004470      0x5fe ./Middlewares/Third_Party/FreeRTOS/Source/CMSIS_RTOS_V2/cmsis_os2.o
 .debug_abbrev  0x0000000000004a6e      0x427 ./Middlewares/Third_Party/FreeRTOS/Source/event_groups.o
 .debug_abbrev  0x0000000000004e95      0x20e ./Middlewares/Third_Party/FreeRTOS/Source/list.o
 .debug_abbrev  0x00000000000050a3      0x4b7 ./Middlewares/Third_Party/FreeRTOS/Source/queue.o
 .debug_abbrev  0x000000000000555a      0x507 ./Middlewares/Third_Party/FreeRTOS/Source/tasks.o
 .debug_abbrev  0x0000000000005a61      0x466 ./Middlewares/Third_Party/FreeRTOS/Source/timers.o
 .debug_abbrev  0x0000000000005ec7      0x3a3 ./Middlewares/Third_Party/FreeRTOS/Source/portable/GCC/ARM_CM4F/port.o
 .debug_abbrev  0x000000000000626a      0x3a2 ./Middlewares/Third_Party/FreeRTOS/Source/portable/MemMang/heap_4.o
 .debug_abbrev  0x000000000000660c      0x491 ./user/detect.o
 .debug_abbrev  0x0000000000006a9d      0x31f ./user/dev_usart.o
 .debug_abbrev  0x0000000000006dbc      0x3a0 ./user/display.o
 .debug_abbrev  0x000000000000715c      0x383 ./user/eeprom.o
 .debug_abbrev  0x00000000000074df      0x52b ./user/io_ctrl.o
 .debug_abbrev  0x0000000000007a0a      0x3b6 ./user/my_tim.o
 .debug_abbrev  0x0000000000007dc0      0x3cf ./user/myprintf.o
 .debug_abbrev  0x000000000000818f      0x410 ./user/soft_timer.o
 .debug_abbrev  0x000000000000859f      0x1d2 ./user/sysguard.o

.debug_aranges  0x0000000000000000     0x1ac0
 .debug_aranges
                0x0000000000000000       0x20 ./Core/Src/dma.o
 .debug_aranges
                0x0000000000000020       0x58 ./Core/Src/freertos.o
 .debug_aranges
                0x0000000000000078       0x20 ./Core/Src/gpio.o
 .debug_aranges
                0x0000000000000098       0x20 ./Core/Src/iwdg.o
 .debug_aranges
                0x00000000000000b8       0x40 ./Core/Src/main.o
 .debug_aranges
                0x00000000000000f8       0x30 ./Core/Src/rtc.o
 .debug_aranges
                0x0000000000000128       0x20 ./Core/Src/stm32f4xx_hal_msp.o
 .debug_aranges
                0x0000000000000148       0x30 ./Core/Src/stm32f4xx_hal_timebase_tim.o
 .debug_aranges
                0x0000000000000178       0xa8 ./Core/Src/stm32f4xx_it.o
 .debug_aranges
                0x0000000000000220       0x20 ./Core/Src/sysmem.o
 .debug_aranges
                0x0000000000000240       0x28 ./Core/Src/system_stm32f4xx.o
 .debug_aranges
                0x0000000000000268       0x40 ./Core/Src/tim.o
 .debug_aranges
                0x00000000000002a8       0x40 ./Core/Src/usart.o
 .debug_aranges
                0x00000000000002e8       0x28 ./Core/Startup/startup_stm32f412retx.o
 .debug_aranges
                0x0000000000000310       0x78 ./Core/ThreadSafe/newlib_lock_glue.o
 .debug_aranges
                0x0000000000000388       0xe8 ./Drivers/STM32F4xx_HAL_Driver/Src/stm32f4xx_hal.o
 .debug_aranges
                0x0000000000000470       0xa8 ./Drivers/STM32F4xx_HAL_Driver/Src/stm32f4xx_hal_cortex.o
 .debug_aranges
                0x0000000000000518       0x80 ./Drivers/STM32F4xx_HAL_Driver/Src/stm32f4xx_hal_dma.o
 .debug_aranges
                0x0000000000000598       0x98 ./Drivers/STM32F4xx_HAL_Driver/Src/stm32f4xx_hal_flash.o
 .debug_aranges
                0x0000000000000630       0x70 ./Drivers/STM32F4xx_HAL_Driver/Src/stm32f4xx_hal_flash_ex.o
 .debug_aranges
                0x00000000000006a0       0x58 ./Drivers/STM32F4xx_HAL_Driver/Src/stm32f4xx_hal_gpio.o
 .debug_aranges
                0x00000000000006f8       0x28 ./Drivers/STM32F4xx_HAL_Driver/Src/stm32f4xx_hal_iwdg.o
 .debug_aranges
                0x0000000000000720       0x88 ./Drivers/STM32F4xx_HAL_Driver/Src/stm32f4xx_hal_rcc.o
 .debug_aranges
                0x00000000000007a8       0x60 ./Drivers/STM32F4xx_HAL_Driver/Src/stm32f4xx_hal_rcc_ex.o
 .debug_aranges
                0x0000000000000808       0xd8 ./Drivers/STM32F4xx_HAL_Driver/Src/stm32f4xx_hal_rtc.o
 .debug_aranges
                0x00000000000008e0      0x2d0 ./Drivers/STM32F4xx_HAL_Driver/Src/stm32f4xx_hal_tim.o
 .debug_aranges
                0x0000000000000bb0      0x148 ./Drivers/STM32F4xx_HAL_Driver/Src/stm32f4xx_hal_tim_ex.o
 .debug_aranges
                0x0000000000000cf8      0x1a0 ./Drivers/STM32F4xx_HAL_Driver/Src/stm32f4xx_hal_uart.o
 .debug_aranges
                0x0000000000000e98      0x268 ./Middlewares/Third_Party/FreeRTOS/Source/CMSIS_RTOS_V2/cmsis_os2.o
 .debug_aranges
                0x0000000000001100       0x88 ./Middlewares/Third_Party/FreeRTOS/Source/event_groups.o
 .debug_aranges
                0x0000000000001188       0x40 ./Middlewares/Third_Party/FreeRTOS/Source/list.o
 .debug_aranges
                0x00000000000011c8      0x138 ./Middlewares/Third_Party/FreeRTOS/Source/queue.o
 .debug_aranges
                0x0000000000001300      0x1f0 ./Middlewares/Third_Party/FreeRTOS/Source/tasks.o
 .debug_aranges
                0x00000000000014f0       0xc8 ./Middlewares/Third_Party/FreeRTOS/Source/timers.o
 .debug_aranges
                0x00000000000015b8       0x80 ./Middlewares/Third_Party/FreeRTOS/Source/portable/GCC/ARM_CM4F/port.o
 .debug_aranges
                0x0000000000001638       0x50 ./Middlewares/Third_Party/FreeRTOS/Source/portable/MemMang/heap_4.o
 .debug_aranges
                0x0000000000001688       0x80 ./user/detect.o
 .debug_aranges
                0x0000000000001708       0x60 ./user/dev_usart.o
 .debug_aranges
                0x0000000000001768       0x68 ./user/display.o
 .debug_aranges
                0x00000000000017d0       0x68 ./user/eeprom.o
 .debug_aranges
                0x0000000000001838       0xb0 ./user/io_ctrl.o
 .debug_aranges
                0x00000000000018e8       0xb0 ./user/my_tim.o
 .debug_aranges
                0x0000000000001998       0x30 ./user/myprintf.o
 .debug_aranges
                0x00000000000019c8       0xb8 ./user/soft_timer.o
 .debug_aranges
                0x0000000000001a80       0x40 ./user/sysguard.o

.debug_ranges   0x0000000000000000     0x2948
 .debug_ranges  0x0000000000000000       0x40 ./Core/Src/dma.o
 .debug_ranges  0x0000000000000040       0x60 ./Core/Src/freertos.o
 .debug_ranges  0x00000000000000a0       0x40 ./Core/Src/gpio.o
 .debug_ranges  0x00000000000000e0       0x10 ./Core/Src/iwdg.o
 .debug_ranges  0x00000000000000f0       0x48 ./Core/Src/main.o
 .debug_ranges  0x0000000000000138       0x20 ./Core/Src/rtc.o
 .debug_ranges  0x0000000000000158       0x28 ./Core/Src/stm32f4xx_hal_msp.o
 .debug_ranges  0x0000000000000180       0x40 ./Core/Src/stm32f4xx_hal_timebase_tim.o
 .debug_ranges  0x00000000000001c0       0x98 ./Core/Src/stm32f4xx_it.o
 .debug_ranges  0x0000000000000258       0x10 ./Core/Src/sysmem.o
 .debug_ranges  0x0000000000000268       0x18 ./Core/Src/system_stm32f4xx.o
 .debug_ranges  0x0000000000000280       0x60 ./Core/Src/tim.o
 .debug_ranges  0x00000000000002e0       0xb8 ./Core/Src/usart.o
 .debug_ranges  0x0000000000000398       0x20 ./Core/Startup/startup_stm32f412retx.o
 .debug_ranges  0x00000000000003b8       0x80 ./Core/ThreadSafe/newlib_lock_glue.o
 .debug_ranges  0x0000000000000438       0xd8 ./Drivers/STM32F4xx_HAL_Driver/Src/stm32f4xx_hal.o
 .debug_ranges  0x0000000000000510      0x160 ./Drivers/STM32F4xx_HAL_Driver/Src/stm32f4xx_hal_cortex.o
 .debug_ranges  0x0000000000000670       0xd0 ./Drivers/STM32F4xx_HAL_Driver/Src/stm32f4xx_hal_dma.o
 .debug_ranges  0x0000000000000740       0x88 ./Drivers/STM32F4xx_HAL_Driver/Src/stm32f4xx_hal_flash.o
 .debug_ranges  0x00000000000007c8       0xc0 ./Drivers/STM32F4xx_HAL_Driver/Src/stm32f4xx_hal_flash_ex.o
 .debug_ranges  0x0000000000000888       0x60 ./Drivers/STM32F4xx_HAL_Driver/Src/stm32f4xx_hal_gpio.o
 .debug_ranges  0x00000000000008e8       0x18 ./Drivers/STM32F4xx_HAL_Driver/Src/stm32f4xx_hal_iwdg.o
 .debug_ranges  0x0000000000000900       0xb0 ./Drivers/STM32F4xx_HAL_Driver/Src/stm32f4xx_hal_rcc.o
 .debug_ranges  0x00000000000009b0       0x68 ./Drivers/STM32F4xx_HAL_Driver/Src/stm32f4xx_hal_rcc_ex.o
 .debug_ranges  0x0000000000000a18       0xc8 ./Drivers/STM32F4xx_HAL_Driver/Src/stm32f4xx_hal_rtc.o
 .debug_ranges  0x0000000000000ae0      0x3b8 ./Drivers/STM32F4xx_HAL_Driver/Src/stm32f4xx_hal_tim.o
 .debug_ranges  0x0000000000000e98      0x138 ./Drivers/STM32F4xx_HAL_Driver/Src/stm32f4xx_hal_tim_ex.o
 .debug_ranges  0x0000000000000fd0      0x190 ./Drivers/STM32F4xx_HAL_Driver/Src/stm32f4xx_hal_uart.o
 .debug_ranges  0x0000000000001160      0x5e8 ./Middlewares/Third_Party/FreeRTOS/Source/CMSIS_RTOS_V2/cmsis_os2.o
 .debug_ranges  0x0000000000001748       0xc8 ./Middlewares/Third_Party/FreeRTOS/Source/event_groups.o
 .debug_ranges  0x0000000000001810       0x30 ./Middlewares/Third_Party/FreeRTOS/Source/list.o
 .debug_ranges  0x0000000000001840      0x2e0 ./Middlewares/Third_Party/FreeRTOS/Source/queue.o
 .debug_ranges  0x0000000000001b20      0x368 ./Middlewares/Third_Party/FreeRTOS/Source/tasks.o
 .debug_ranges  0x0000000000001e88      0x190 ./Middlewares/Third_Party/FreeRTOS/Source/timers.o
 .debug_ranges  0x0000000000002018       0x88 ./Middlewares/Third_Party/FreeRTOS/Source/portable/GCC/ARM_CM4F/port.o
 .debug_ranges  0x00000000000020a0       0x58 ./Middlewares/Third_Party/FreeRTOS/Source/portable/MemMang/heap_4.o
 .debug_ranges  0x00000000000020f8      0x1b0 ./user/detect.o
 .debug_ranges  0x00000000000022a8       0x98 ./user/dev_usart.o
 .debug_ranges  0x0000000000002340       0xe8 ./user/display.o
 .debug_ranges  0x0000000000002428      0x120 ./user/eeprom.o
 .debug_ranges  0x0000000000002548      0x180 ./user/io_ctrl.o
 .debug_ranges  0x00000000000026c8      0x108 ./user/my_tim.o
 .debug_ranges  0x00000000000027d0       0x80 ./user/myprintf.o
 .debug_ranges  0x0000000000002850       0xc8 ./user/soft_timer.o
 .debug_ranges  0x0000000000002918       0x30 ./user/sysguard.o

.debug_macro    0x0000000000000000    0x26cab
 .debug_macro   0x0000000000000000      0x20a ./Core/Src/dma.o
 .debug_macro   0x000000000000020a      0xab4 ./Core/Src/dma.o
 .debug_macro   0x0000000000000cbe      0x2ae ./Core/Src/dma.o
 .debug_macro   0x0000000000000f6c       0x2e ./Core/Src/dma.o
 .debug_macro   0x0000000000000f9a       0x28 ./Core/Src/dma.o
 .debug_macro   0x0000000000000fc2       0x22 ./Core/Src/dma.o
 .debug_macro   0x0000000000000fe4       0x8e ./Core/Src/dma.o
 .debug_macro   0x0000000000001072       0x51 ./Core/Src/dma.o
 .debug_macro   0x00000000000010c3      0x103 ./Core/Src/dma.o
 .debug_macro   0x00000000000011c6       0x6a ./Core/Src/dma.o
 .debug_macro   0x0000000000001230      0x1df ./Core/Src/dma.o
 .debug_macro   0x000000000000140f       0x1c ./Core/Src/dma.o
 .debug_macro   0x000000000000142b       0x22 ./Core/Src/dma.o
 .debug_macro   0x000000000000144d       0xdf ./Core/Src/dma.o
 .debug_macro   0x000000000000152c     0x102d ./Core/Src/dma.o
 .debug_macro   0x0000000000002559      0x11f ./Core/Src/dma.o
 .debug_macro   0x0000000000002678    0x1469c ./Core/Src/dma.o
 .debug_macro   0x0000000000016d14       0x6d ./Core/Src/dma.o
 .debug_macro   0x0000000000016d81     0x367e ./Core/Src/dma.o
 .debug_macro   0x000000000001a3ff      0x174 ./Core/Src/dma.o
 .debug_macro   0x000000000001a573       0x5c ./Core/Src/dma.o
 .debug_macro   0x000000000001a5cf      0x8ed ./Core/Src/dma.o
 .debug_macro   0x000000000001aebc      0x9fe ./Core/Src/dma.o
 .debug_macro   0x000000000001b8ba      0x115 ./Core/Src/dma.o
 .debug_macro   0x000000000001b9cf      0x192 ./Core/Src/dma.o
 .debug_macro   0x000000000001bb61       0xa5 ./Core/Src/dma.o
 .debug_macro   0x000000000001bc06      0x158 ./Core/Src/dma.o
 .debug_macro   0x000000000001bd5e      0x287 ./Core/Src/dma.o
 .debug_macro   0x000000000001bfe5       0x5f ./Core/Src/dma.o
 .debug_macro   0x000000000001c044      0x236 ./Core/Src/dma.o
 .debug_macro   0x000000000001c27a      0x132 ./Core/Src/dma.o
 .debug_macro   0x000000000001c3ac      0x29c ./Core/Src/dma.o
 .debug_macro   0x000000000001c648       0x2e ./Core/Src/dma.o
 .debug_macro   0x000000000001c676       0x78 ./Core/Src/dma.o
 .debug_macro   0x000000000001c6ee      0x11a ./Core/Src/dma.o
 .debug_macro   0x000000000001c808       0x91 ./Core/Src/dma.o
 .debug_macro   0x000000000001c899       0x89 ./Core/Src/dma.o
 .debug_macro   0x000000000001c922      0x2fe ./Core/Src/dma.o
 .debug_macro   0x000000000001cc20      0x430 ./Core/Src/dma.o
 .debug_macro   0x000000000001d050       0xe4 ./Core/Src/dma.o
 .debug_macro   0x000000000001d134      0x8e6 ./Core/Src/dma.o
 .debug_macro   0x000000000001da1a       0x47 ./Core/Src/dma.o
 .debug_macro   0x000000000001da61      0x295 ./Core/Src/dma.o
 .debug_macro   0x000000000001dcf6      0x126 ./Core/Src/dma.o
 .debug_macro   0x000000000001de1c      0x20c ./Core/Src/dma.o
 .debug_macro   0x000000000001e028      0x3d6 ./Core/Src/freertos.o
 .debug_macro   0x000000000001e3fe      0x17c ./Core/Src/freertos.o
 .debug_macro   0x000000000001e57a      0x15a ./Core/Src/freertos.o
 .debug_macro   0x000000000001e6d4       0xc9 ./Core/Src/freertos.o
 .debug_macro   0x000000000001e79d       0x1c ./Core/Src/freertos.o
 .debug_macro   0x000000000001e7b9       0x26 ./Core/Src/freertos.o
 .debug_macro   0x000000000001e7df       0x52 ./Core/Src/freertos.o
 .debug_macro   0x000000000001e831       0x18 ./Core/Src/freertos.o
 .debug_macro   0x000000000001e849       0x3c ./Core/Src/freertos.o
 .debug_macro   0x000000000001e885       0x34 ./Core/Src/freertos.o
 .debug_macro   0x000000000001e8b9       0x16 ./Core/Src/freertos.o
 .debug_macro   0x000000000001e8cf       0x43 ./Core/Src/freertos.o
 .debug_macro   0x000000000001e912       0x34 ./Core/Src/freertos.o
 .debug_macro   0x000000000001e946       0x10 ./Core/Src/freertos.o
 .debug_macro   0x000000000001e956       0x58 ./Core/Src/freertos.o
 .debug_macro   0x000000000001e9ae       0x71 ./Core/Src/freertos.o
 .debug_macro   0x000000000001ea1f       0x1c ./Core/Src/freertos.o
 .debug_macro   0x000000000001ea3b      0x12a ./Core/Src/freertos.o
 .debug_macro   0x000000000001eb65       0x10 ./Core/Src/freertos.o
 .debug_macro   0x000000000001eb75       0x35 ./Core/Src/freertos.o
 .debug_macro   0x000000000001ebaa      0x4b1 ./Core/Src/freertos.o
 .debug_macro   0x000000000001f05b       0xb5 ./Core/Src/freertos.o
 .debug_macro   0x000000000001f110       0xaa ./Core/Src/freertos.o
 .debug_macro   0x000000000001f1ba       0x6c ./Core/Src/freertos.o
 .debug_macro   0x000000000001f226       0x74 ./Core/Src/freertos.o
 .debug_macro   0x000000000001f29a       0xdd ./Core/Src/freertos.o
 .debug_macro   0x000000000001f377      0x333 ./Core/Src/freertos.o
 .debug_macro   0x000000000001f6aa       0x10 ./Core/Src/freertos.o
 .debug_macro   0x000000000001f6ba       0x20 ./Core/Src/freertos.o
 .debug_macro   0x000000000001f6da       0x1c ./Core/Src/freertos.o
 .debug_macro   0x000000000001f6f6       0x1c ./Core/Src/freertos.o
 .debug_macro   0x000000000001f712       0x2e ./Core/Src/freertos.o
 .debug_macro   0x000000000001f740       0x70 ./Core/Src/freertos.o
 .debug_macro   0x000000000001f7b0       0x28 ./Core/Src/freertos.o
 .debug_macro   0x000000000001f7d8       0x6a ./Core/Src/freertos.o
 .debug_macro   0x000000000001f842      0x4a6 ./Core/Src/freertos.o
 .debug_macro   0x000000000001fce8       0x10 ./Core/Src/freertos.o
 .debug_macro   0x000000000001fcf8      0x20a ./Core/Src/gpio.o
 .debug_macro   0x000000000001ff02      0x20a ./Core/Src/iwdg.o
 .debug_macro   0x000000000002010c      0x3bb ./Core/Src/main.o
 .debug_macro   0x00000000000204c7      0x17c ./Core/Src/main.o
 .debug_macro   0x0000000000020643       0x66 ./Core/Src/main.o
 .debug_macro   0x00000000000206a9       0x16 ./Core/Src/main.o
 .debug_macro   0x00000000000206bf      0x20a ./Core/Src/rtc.o
 .debug_macro   0x00000000000208c9      0x200 ./Core/Src/stm32f4xx_hal_msp.o
 .debug_macro   0x0000000000020ac9      0x1f1 ./Core/Src/stm32f4xx_hal_timebase_tim.o
 .debug_macro   0x0000000000020cba      0x225 ./Core/Src/stm32f4xx_it.o
 .debug_macro   0x0000000000020edf       0xff ./Core/Src/sysmem.o
 .debug_macro   0x0000000000020fde      0x23b ./Core/Src/sysmem.o
 .debug_macro   0x0000000000021219      0x1f1 ./Core/Src/system_stm32f4xx.o
 .debug_macro   0x000000000002140a      0x20a ./Core/Src/tim.o
 .debug_macro   0x0000000000021614      0x20a ./Core/Src/usart.o
 .debug_macro   0x000000000002181e      0x202 ./Core/ThreadSafe/newlib_lock_glue.o
 .debug_macro   0x0000000000021a20      0x118 ./Core/ThreadSafe/newlib_lock_glue.o
 .debug_macro   0x0000000000021b38       0x22 ./Core/ThreadSafe/newlib_lock_glue.o
 .debug_macro   0x0000000000021b5a       0x27 ./Core/ThreadSafe/newlib_lock_glue.o
 .debug_macro   0x0000000000021b81      0x251 ./Drivers/STM32F4xx_HAL_Driver/Src/stm32f4xx_hal.o
 .debug_macro   0x0000000000021dd2      0x1f1 ./Drivers/STM32F4xx_HAL_Driver/Src/stm32f4xx_hal_cortex.o
 .debug_macro   0x0000000000021fc3      0x1f7 ./Drivers/STM32F4xx_HAL_Driver/Src/stm32f4xx_hal_dma.o
 .debug_macro   0x00000000000221ba      0x1f7 ./Drivers/STM32F4xx_HAL_Driver/Src/stm32f4xx_hal_flash.o
 .debug_macro   0x00000000000223b1      0x1f7 ./Drivers/STM32F4xx_HAL_Driver/Src/stm32f4xx_hal_flash_ex.o
 .debug_macro   0x00000000000225a8      0x1f7 ./Drivers/STM32F4xx_HAL_Driver/Src/stm32f4xx_hal_gpio.o
 .debug_macro   0x000000000002279f      0x1fd ./Drivers/STM32F4xx_HAL_Driver/Src/stm32f4xx_hal_iwdg.o
 .debug_macro   0x000000000002299c      0x215 ./Drivers/STM32F4xx_HAL_Driver/Src/stm32f4xx_hal_rcc.o
 .debug_macro   0x0000000000022bb1      0x1f1 ./Drivers/STM32F4xx_HAL_Driver/Src/stm32f4xx_hal_rcc_ex.o
 .debug_macro   0x0000000000022da2      0x1f2 ./Drivers/STM32F4xx_HAL_Driver/Src/stm32f4xx_hal_rtc.o
 .debug_macro   0x0000000000022f94      0x1f2 ./Drivers/STM32F4xx_HAL_Driver/Src/stm32f4xx_hal_tim.o
 .debug_macro   0x0000000000023186      0x1f1 ./Drivers/STM32F4xx_HAL_Driver/Src/stm32f4xx_hal_tim_ex.o
 .debug_macro   0x0000000000023377      0x1f2 ./Drivers/STM32F4xx_HAL_Driver/Src/stm32f4xx_hal_uart.o
 .debug_macro   0x0000000000023569      0x3fa ./Middlewares/Third_Party/FreeRTOS/Source/CMSIS_RTOS_V2/cmsis_os2.o
 .debug_macro   0x0000000000023963       0x10 ./Middlewares/Third_Party/FreeRTOS/Source/CMSIS_RTOS_V2/cmsis_os2.o
 .debug_macro   0x0000000000023973       0xd3 ./Middlewares/Third_Party/FreeRTOS/Source/CMSIS_RTOS_V2/cmsis_os2.o
 .debug_macro   0x0000000000023a46       0x16 ./Middlewares/Third_Party/FreeRTOS/Source/CMSIS_RTOS_V2/cmsis_os2.o
 .debug_macro   0x0000000000023a5c       0x91 ./Middlewares/Third_Party/FreeRTOS/Source/CMSIS_RTOS_V2/cmsis_os2.o
 .debug_macro   0x0000000000023aed       0x8d ./Middlewares/Third_Party/FreeRTOS/Source/CMSIS_RTOS_V2/cmsis_os2.o
 .debug_macro   0x0000000000023b7a       0x9a ./Middlewares/Third_Party/FreeRTOS/Source/CMSIS_RTOS_V2/cmsis_os2.o
 .debug_macro   0x0000000000023c14       0x22 ./Middlewares/Third_Party/FreeRTOS/Source/CMSIS_RTOS_V2/cmsis_os2.o
 .debug_macro   0x0000000000023c36       0x56 ./Middlewares/Third_Party/FreeRTOS/Source/CMSIS_RTOS_V2/cmsis_os2.o
 .debug_macro   0x0000000000023c8c      0x1f4 ./Middlewares/Third_Party/FreeRTOS/Source/event_groups.o
 .debug_macro   0x0000000000023e80      0x10e ./Middlewares/Third_Party/FreeRTOS/Source/event_groups.o
 .debug_macro   0x0000000000023f8e       0x8d ./Middlewares/Third_Party/FreeRTOS/Source/event_groups.o
 .debug_macro   0x000000000002401b      0x199 ./Middlewares/Third_Party/FreeRTOS/Source/list.o
 .debug_macro   0x00000000000241b4      0x228 ./Middlewares/Third_Party/FreeRTOS/Source/queue.o
 .debug_macro   0x00000000000243dc       0x16 ./Middlewares/Third_Party/FreeRTOS/Source/queue.o
 .debug_macro   0x00000000000243f2       0x87 ./Middlewares/Third_Party/FreeRTOS/Source/queue.o
 .debug_macro   0x0000000000024479      0x291 ./Middlewares/Third_Party/FreeRTOS/Source/tasks.o
 .debug_macro   0x000000000002470a       0x10 ./Middlewares/Third_Party/FreeRTOS/Source/tasks.o
 .debug_macro   0x000000000002471a      0x1ee ./Middlewares/Third_Party/FreeRTOS/Source/timers.o
 .debug_macro   0x0000000000024908       0x97 ./Middlewares/Third_Party/FreeRTOS/Source/timers.o
 .debug_macro   0x000000000002499f      0x233 ./Middlewares/Third_Party/FreeRTOS/Source/portable/GCC/ARM_CM4F/port.o
 .debug_macro   0x0000000000024bd2      0x1c0 ./Middlewares/Third_Party/FreeRTOS/Source/portable/MemMang/heap_4.o
 .debug_macro   0x0000000000024d92      0x31a ./user/detect.o
 .debug_macro   0x00000000000250ac       0x22 ./user/detect.o
 .debug_macro   0x00000000000250ce      0x312 ./user/dev_usart.o
 .debug_macro   0x00000000000253e0      0x3fb ./user/display.o
 .debug_macro   0x00000000000257db      0x30b ./user/eeprom.o
 .debug_macro   0x0000000000025ae6       0x64 ./user/eeprom.o
 .debug_macro   0x0000000000025b4a      0x36a ./user/io_ctrl.o
 .debug_macro   0x0000000000025eb4      0x23d ./user/my_tim.o
 .debug_macro   0x00000000000260f1      0x3db ./user/myprintf.o
 .debug_macro   0x00000000000264cc       0x16 ./user/myprintf.o
 .debug_macro   0x00000000000264e2       0x4c ./user/myprintf.o
 .debug_macro   0x000000000002652e      0x119 ./user/myprintf.o
 .debug_macro   0x0000000000026647       0x16 ./user/myprintf.o
 .debug_macro   0x000000000002665d      0x3c4 ./user/soft_timer.o
 .debug_macro   0x0000000000026a21       0x6a ./user/soft_timer.o
 .debug_macro   0x0000000000026a8b      0x220 ./user/sysguard.o

.debug_line     0x0000000000000000    0x345fd
 .debug_line    0x0000000000000000      0x730 ./Core/Src/dma.o
 .debug_line    0x0000000000000730      0xe9d ./Core/Src/freertos.o
 .debug_line    0x00000000000015cd      0x7f7 ./Core/Src/gpio.o
 .debug_line    0x0000000000001dc4      0x73e ./Core/Src/iwdg.o
 .debug_line    0x0000000000002502      0xbd8 ./Core/Src/main.o
 .debug_line    0x00000000000030da      0x80a ./Core/Src/rtc.o
 .debug_line    0x00000000000038e4      0x726 ./Core/Src/stm32f4xx_hal_msp.o
 .debug_line    0x000000000000400a      0x7b8 ./Core/Src/stm32f4xx_hal_timebase_tim.o
 .debug_line    0x00000000000047c2      0x9c1 ./Core/Src/stm32f4xx_it.o
 .debug_line    0x0000000000005183      0x522 ./Core/Src/sysmem.o
 .debug_line    0x00000000000056a5      0x7b7 ./Core/Src/system_stm32f4xx.o
 .debug_line    0x0000000000005e5c      0x8cc ./Core/Src/tim.o
 .debug_line    0x0000000000006728      0xbf7 ./Core/Src/usart.o
 .debug_line    0x000000000000731f       0x88 ./Core/Startup/startup_stm32f412retx.o
 .debug_line    0x00000000000073a7      0xb58 ./Core/ThreadSafe/newlib_lock_glue.o
 .debug_line    0x0000000000007eff      0xa91 ./Drivers/STM32F4xx_HAL_Driver/Src/stm32f4xx_hal.o
 .debug_line    0x0000000000008990      0xde9 ./Drivers/STM32F4xx_HAL_Driver/Src/stm32f4xx_hal_cortex.o
 .debug_line    0x0000000000009779     0x13c2 ./Drivers/STM32F4xx_HAL_Driver/Src/stm32f4xx_hal_dma.o
 .debug_line    0x000000000000ab3b      0xcd3 ./Drivers/STM32F4xx_HAL_Driver/Src/stm32f4xx_hal_flash.o
 .debug_line    0x000000000000b80e      0xd1b ./Drivers/STM32F4xx_HAL_Driver/Src/stm32f4xx_hal_flash_ex.o
 .debug_line    0x000000000000c529      0xd63 ./Drivers/STM32F4xx_HAL_Driver/Src/stm32f4xx_hal_gpio.o
 .debug_line    0x000000000000d28c      0x7c1 ./Drivers/STM32F4xx_HAL_Driver/Src/stm32f4xx_hal_iwdg.o
 .debug_line    0x000000000000da4d     0x10fe ./Drivers/STM32F4xx_HAL_Driver/Src/stm32f4xx_hal_rcc.o
 .debug_line    0x000000000000eb4b     0x144a ./Drivers/STM32F4xx_HAL_Driver/Src/stm32f4xx_hal_rcc_ex.o
 .debug_line    0x000000000000ff95     0x1738 ./Drivers/STM32F4xx_HAL_Driver/Src/stm32f4xx_hal_rtc.o
 .debug_line    0x00000000000116cd     0x64ad ./Drivers/STM32F4xx_HAL_Driver/Src/stm32f4xx_hal_tim.o
 .debug_line    0x0000000000017b7a     0x2685 ./Drivers/STM32F4xx_HAL_Driver/Src/stm32f4xx_hal_tim_ex.o
 .debug_line    0x000000000001a1ff     0x4826 ./Drivers/STM32F4xx_HAL_Driver/Src/stm32f4xx_hal_uart.o
 .debug_line    0x000000000001ea25     0x2ec1 ./Middlewares/Third_Party/FreeRTOS/Source/CMSIS_RTOS_V2/cmsis_os2.o
 .debug_line    0x00000000000218e6      0xe72 ./Middlewares/Third_Party/FreeRTOS/Source/event_groups.o
 .debug_line    0x0000000000022758      0x7a3 ./Middlewares/Third_Party/FreeRTOS/Source/list.o
 .debug_line    0x0000000000022efb     0x2393 ./Middlewares/Third_Party/FreeRTOS/Source/queue.o
 .debug_line    0x000000000002528e     0x2fc2 ./Middlewares/Third_Party/FreeRTOS/Source/tasks.o
 .debug_line    0x0000000000028250     0x125d ./Middlewares/Third_Party/FreeRTOS/Source/timers.o
 .debug_line    0x00000000000294ad      0xb2b ./Middlewares/Third_Party/FreeRTOS/Source/portable/GCC/ARM_CM4F/port.o
 .debug_line    0x0000000000029fd8      0xaf9 ./Middlewares/Third_Party/FreeRTOS/Source/portable/MemMang/heap_4.o
 .debug_line    0x000000000002aad1     0x1219 ./user/detect.o
 .debug_line    0x000000000002bcea      0xb38 ./user/dev_usart.o
 .debug_line    0x000000000002c822     0x121f ./user/display.o
 .debug_line    0x000000000002da41      0xce8 ./user/eeprom.o
 .debug_line    0x000000000002e729     0x2240 ./user/io_ctrl.o
 .debug_line    0x0000000000030969     0x1306 ./user/my_tim.o
 .debug_line    0x0000000000031c6f     0x11a6 ./user/myprintf.o
 .debug_line    0x0000000000032e15      0xf39 ./user/soft_timer.o
 .debug_line    0x0000000000033d4e      0x8af ./user/sysguard.o

.debug_str      0x0000000000000000    0xd9392
 .debug_str     0x0000000000000000    0xc0e7d ./Core/Src/dma.o
                                      0xc1148 (size before relaxing)
 .debug_str     0x00000000000c0e7d     0xa691 ./Core/Src/freertos.o
                                      0xcb3b4 (size before relaxing)
 .debug_str     0x00000000000cb50e       0xd0 ./Core/Src/gpio.o
                                      0xc0d30 (size before relaxing)
 .debug_str     0x00000000000cb5de       0xae ./Core/Src/iwdg.o
                                      0xc0bcc (size before relaxing)
 .debug_str     0x00000000000cb68c      0xba9 ./Core/Src/main.o
                                      0xc9e2d (size before relaxing)
 .debug_str     0x00000000000cc235      0x1a4 ./Core/Src/rtc.o
                                      0xc0ff7 (size before relaxing)
 .debug_str     0x00000000000cc3d9       0x2c ./Core/Src/stm32f4xx_hal_msp.o
                                      0xc1138 (size before relaxing)
 .debug_str     0x00000000000cc405       0xe8 ./Core/Src/stm32f4xx_hal_timebase_tim.o
                                      0xc0f59 (size before relaxing)
 .debug_str     0x00000000000cc4ed      0x286 ./Core/Src/stm32f4xx_it.o
                                      0xc16e1 (size before relaxing)
 .debug_str     0x00000000000cc773      0x371 ./Core/Src/sysmem.o
                                       0x62c1 (size before relaxing)
 .debug_str     0x00000000000ccae4       0x5b ./Core/Src/system_stm32f4xx.o
                                      0xc0476 (size before relaxing)
 .debug_str     0x00000000000ccb3f       0xd1 ./Core/Src/tim.o
                                      0xc179d (size before relaxing)
 .debug_str     0x00000000000ccc10       0x7d ./Core/Src/usart.o
                                      0xc175f (size before relaxing)
 .debug_str     0x00000000000ccc8d       0x52 ./Core/Startup/startup_stm32f412retx.o
 .debug_str     0x00000000000cccdf     0x16fe ./Core/ThreadSafe/newlib_lock_glue.o
                                       0xd349 (size before relaxing)
 .debug_str     0x00000000000ce3dd      0x55d ./Drivers/STM32F4xx_HAL_Driver/Src/stm32f4xx_hal.o
                                      0xc0f85 (size before relaxing)
 .debug_str     0x00000000000ce93a      0x318 ./Drivers/STM32F4xx_HAL_Driver/Src/stm32f4xx_hal_cortex.o
                                      0xc0d1f (size before relaxing)
 .debug_str     0x00000000000cec52      0x2ee ./Drivers/STM32F4xx_HAL_Driver/Src/stm32f4xx_hal_dma.o
                                      0xc0896 (size before relaxing)
 .debug_str     0x00000000000cef40      0x2ce ./Drivers/STM32F4xx_HAL_Driver/Src/stm32f4xx_hal_flash.o
                                      0xc067c (size before relaxing)
 .debug_str     0x00000000000cf20e      0x2fe ./Drivers/STM32F4xx_HAL_Driver/Src/stm32f4xx_hal_flash_ex.o
                                      0xc079f (size before relaxing)
 .debug_str     0x00000000000cf50c      0x12f ./Drivers/STM32F4xx_HAL_Driver/Src/stm32f4xx_hal_gpio.o
                                      0xc0631 (size before relaxing)
 .debug_str     0x00000000000cf63b       0xe5 ./Drivers/STM32F4xx_HAL_Driver/Src/stm32f4xx_hal_iwdg.o
                                      0xc044c (size before relaxing)
 .debug_str     0x00000000000cf720      0x1f2 ./Drivers/STM32F4xx_HAL_Driver/Src/stm32f4xx_hal_rcc.o
                                      0xc08b2 (size before relaxing)
 .debug_str     0x00000000000cf912      0x11c ./Drivers/STM32F4xx_HAL_Driver/Src/stm32f4xx_hal_rcc_ex.o
                                      0xc07ce (size before relaxing)
 .debug_str     0x00000000000cfa2e      0x299 ./Drivers/STM32F4xx_HAL_Driver/Src/stm32f4xx_hal_rtc.o
                                      0xc08e6 (size before relaxing)
 .debug_str     0x00000000000cfcc7      0xded ./Drivers/STM32F4xx_HAL_Driver/Src/stm32f4xx_hal_tim.o
                                      0xc17e2 (size before relaxing)
 .debug_str     0x00000000000d0ab4      0x4b0 ./Drivers/STM32F4xx_HAL_Driver/Src/stm32f4xx_hal_tim_ex.o
                                      0xc0fe3 (size before relaxing)
 .debug_str     0x00000000000d0f64      0x5e3 ./Drivers/STM32F4xx_HAL_Driver/Src/stm32f4xx_hal_uart.o
                                      0xc0e5f (size before relaxing)
 .debug_str     0x00000000000d1547     0x2ec4 ./Middlewares/Third_Party/FreeRTOS/Source/CMSIS_RTOS_V2/cmsis_os2.o
                                      0xcb134 (size before relaxing)
 .debug_str     0x00000000000d440b      0x48e ./Middlewares/Third_Party/FreeRTOS/Source/event_groups.o
                                       0xc009 (size before relaxing)
 .debug_str     0x00000000000d4899       0xaf ./Middlewares/Third_Party/FreeRTOS/Source/list.o
                                       0xab81 (size before relaxing)
 .debug_str     0x00000000000d4948      0x7e7 ./Middlewares/Third_Party/FreeRTOS/Source/queue.o
                                       0xc6d2 (size before relaxing)
 .debug_str     0x00000000000d512f     0x100e ./Middlewares/Third_Party/FreeRTOS/Source/tasks.o
                                       0xd1df (size before relaxing)
 .debug_str     0x00000000000d613d      0x591 ./Middlewares/Third_Party/FreeRTOS/Source/timers.o
                                       0xcc1e (size before relaxing)
 .debug_str     0x00000000000d66ce      0x783 ./Middlewares/Third_Party/FreeRTOS/Source/portable/GCC/ARM_CM4F/port.o
                                       0xa49b (size before relaxing)
 .debug_str     0x00000000000d6e51      0x324 ./Middlewares/Third_Party/FreeRTOS/Source/portable/MemMang/heap_4.o
                                       0xb4d5 (size before relaxing)
 .debug_str     0x00000000000d7175       0xe2 ./user/detect.o
                                      0xc61a7 (size before relaxing)
 .debug_str     0x00000000000d7257       0x44 ./user/dev_usart.o
                                      0xc5ee4 (size before relaxing)
 .debug_str     0x00000000000d729b     0x11a6 ./user/display.o
                                      0xc7286 (size before relaxing)
 .debug_str     0x00000000000d8441      0x13d ./user/eeprom.o
                                      0xc4542 (size before relaxing)
 .debug_str     0x00000000000d857e      0x1e1 ./user/io_ctrl.o
                                      0xc7043 (size before relaxing)
 .debug_str     0x00000000000d875f       0x40 ./user/my_tim.o
                                      0xc2b10 (size before relaxing)
 .debug_str     0x00000000000d879f      0xa12 ./user/myprintf.o
                                      0xc5d20 (size before relaxing)
 .debug_str     0x00000000000d91b1      0x149 ./user/soft_timer.o
                                      0xc724d (size before relaxing)
 .debug_str     0x00000000000d92fa       0x98 ./user/sysguard.o
                                      0xc0d36 (size before relaxing)

.comment        0x0000000000000000       0x53
 .comment       0x0000000000000000       0x53 ./Core/Src/dma.o
                                         0x54 (size before relaxing)
 .comment       0x0000000000000053       0x54 ./Core/Src/freertos.o
 .comment       0x0000000000000053       0x54 ./Core/Src/gpio.o
 .comment       0x0000000000000053       0x54 ./Core/Src/iwdg.o
