
PACKER.elf:     file format elf32-littlearm

Sections:
Idx Name          Size      VMA       LMA       File off  Algn
  0 .isr_vector   000001c4  08020000  08020000  00010000  2**0
                  CONTENTS, ALLOC, LOAD, READONLY, DATA
  1 .text         0000b8b0  080201d0  080201d0  000101d0  2**4
                  CONTENTS, ALLOC, LOAD, READONLY, CODE
  2 .rodata       00000c88  0802ba80  0802ba80  0001ba80  2**2
                  CONTENTS, ALLOC, LOAD, READONLY, DATA
  3 .ARM.extab    00000000  0802c708  0802c708  000201bc  2**0
                  CONTENTS
  4 .ARM          00000008  0802c708  0802c708  0001c708  2**2
                  CONTENTS, ALLOC, LOAD, READONLY, DATA
  5 .preinit_array 00000000  0802c710  0802c710  000201bc  2**0
                  CONTENTS, ALLOC, LOAD, DATA
  6 .init_array   00000004  0802c710  0802c710  0001c710  2**2
                  CONTENTS, ALLOC, LOAD, DATA
  7 .fini_array   00000004  0802c714  0802c714  0001c714  2**2
                  CONTENTS, ALLOC, LOAD, DATA
  8 .data         000001bc  20000000  0802c718  00020000  2**2
                  CONTENTS, ALLOC, LOAD, DATA
  9 .bss          0000ee04  200001bc  0802c8d4  000201bc  2**2
                  ALLOC
 10 ._user_heap_stack 00006000  2000efc0  0802c8d4  0002efc0  2**0
                  ALLOC
 11 .ARM.attributes 00000030  00000000  00000000  000201bc  2**0
                  CONTENTS, READONLY
 12 .debug_info   00047a6e  00000000  00000000  000201ec  2**0
                  CONTENTS, READONLY, DEBUGGING, OCTETS
 13 .debug_abbrev 00008771  00000000  00000000  00067c5a  2**0
                  CONTENTS, READONLY, DEBUGGING, OCTETS
 14 .debug_aranges 00001ac0  00000000  00000000  000703d0  2**3
                  CONTENTS, READONLY, DEBUGGING, OCTETS
 15 .debug_ranges 00002948  00000000  00000000  00071e90  2**3
                  CONTENTS, READONLY, DEBUGGING, OCTETS
 16 .debug_macro  00026cab  00000000  00000000  000747d8  2**0
                  CONTENTS, READONLY, DEBUGGING, OCTETS
 17 .debug_line   000345fd  00000000  00000000  0009b483  2**0
                  CONTENTS, READONLY, DEBUGGING, OCTETS
 18 .debug_str    000d9392  00000000  00000000  000cfa80  2**0
                  CONTENTS, READONLY, DEBUGGING, OCTETS
 19 .comment      00000053  00000000  00000000  001a8e12  2**0
                  CONTENTS, READONLY
 20 .debug_frame  000056d0  00000000  00000000  001a8e68  2**2
                  CONTENTS, READONLY, DEBUGGING, OCTETS
 21 .debug_loc    0001c5e3  00000000  00000000  001ae538  2**0
                  CONTENTS, READONLY, DEBUGGING, OCTETS

Disassembly of section .text:

080201d0 <__do_global_dtors_aux>:
 80201d0:	b510      	push	{r4, lr}
 80201d2:	4c05      	ldr	r4, [pc, #20]	; (80201e8 <__do_global_dtors_aux+0x18>)
 80201d4:	7823      	ldrb	r3, [r4, #0]
 80201d6:	b933      	cbnz	r3, 80201e6 <__do_global_dtors_aux+0x16>
 80201d8:	4b04      	ldr	r3, [pc, #16]	; (80201ec <__do_global_dtors_aux+0x1c>)
 80201da:	b113      	cbz	r3, 80201e2 <__do_global_dtors_aux+0x12>
 80201dc:	4804      	ldr	r0, [pc, #16]	; (80201f0 <__do_global_dtors_aux+0x20>)
 80201de:	f3af 8000 	nop.w
 80201e2:	2301      	movs	r3, #1
 80201e4:	7023      	strb	r3, [r4, #0]
 80201e6:	bd10      	pop	{r4, pc}
 80201e8:	200001bc 	.word	0x200001bc
 80201ec:	00000000 	.word	0x00000000
 80201f0:	0802ba68 	.word	0x0802ba68

080201f4 <frame_dummy>:
 80201f4:	b508      	push	{r3, lr}
 80201f6:	4b03      	ldr	r3, [pc, #12]	; (8020204 <frame_dummy+0x10>)
 80201f8:	b11b      	cbz	r3, 8020202 <frame_dummy+0xe>
 80201fa:	4903      	ldr	r1, [pc, #12]	; (8020208 <frame_dummy+0x14>)
 80201fc:	4803      	ldr	r0, [pc, #12]	; (802020c <frame_dummy+0x18>)
 80201fe:	f3af 8000 	nop.w
 8020202:	bd08      	pop	{r3, pc}
 8020204:	00000000 	.word	0x00000000
 8020208:	200001c0 	.word	0x200001c0
 802020c:	0802ba68 	.word	0x0802ba68

08020210 <strlen>:
 8020210:	4603      	mov	r3, r0
 8020212:	f813 2b01 	ldrb.w	r2, [r3], #1
 8020216:	2a00      	cmp	r2, #0
 8020218:	d1fb      	bne.n	8020212 <strlen+0x2>
 802021a:	1a18      	subs	r0, r3, r0
 802021c:	3801      	subs	r0, #1
 802021e:	4770      	bx	lr

08020220 <memchr>:
 8020220:	f001 01ff 	and.w	r1, r1, #255	; 0xff
 8020224:	2a10      	cmp	r2, #16
 8020226:	db2b      	blt.n	8020280 <memchr+0x60>
 8020228:	f010 0f07 	tst.w	r0, #7
 802022c:	d008      	beq.n	8020240 <memchr+0x20>
 802022e:	f810 3b01 	ldrb.w	r3, [r0], #1
 8020232:	3a01      	subs	r2, #1
 8020234:	428b      	cmp	r3, r1
 8020236:	d02d      	beq.n	8020294 <memchr+0x74>
 8020238:	f010 0f07 	tst.w	r0, #7
 802023c:	b342      	cbz	r2, 8020290 <memchr+0x70>
 802023e:	d1f6      	bne.n	802022e <memchr+0xe>
 8020240:	b4f0      	push	{r4, r5, r6, r7}
 8020242:	ea41 2101 	orr.w	r1, r1, r1, lsl #8
 8020246:	ea41 4101 	orr.w	r1, r1, r1, lsl #16
 802024a:	f022 0407 	bic.w	r4, r2, #7
 802024e:	f07f 0700 	mvns.w	r7, #0
 8020252:	2300      	movs	r3, #0
 8020254:	e8f0 5602 	ldrd	r5, r6, [r0], #8
 8020258:	3c08      	subs	r4, #8
 802025a:	ea85 0501 	eor.w	r5, r5, r1
 802025e:	ea86 0601 	eor.w	r6, r6, r1
 8020262:	fa85 f547 	uadd8	r5, r5, r7
 8020266:	faa3 f587 	sel	r5, r3, r7
 802026a:	fa86 f647 	uadd8	r6, r6, r7
 802026e:	faa5 f687 	sel	r6, r5, r7
 8020272:	b98e      	cbnz	r6, 8020298 <memchr+0x78>
 8020274:	d1ee      	bne.n	8020254 <memchr+0x34>
 8020276:	bcf0      	pop	{r4, r5, r6, r7}
 8020278:	f001 01ff 	and.w	r1, r1, #255	; 0xff
 802027c:	f002 0207 	and.w	r2, r2, #7
 8020280:	b132      	cbz	r2, 8020290 <memchr+0x70>
 8020282:	f810 3b01 	ldrb.w	r3, [r0], #1
 8020286:	3a01      	subs	r2, #1
 8020288:	ea83 0301 	eor.w	r3, r3, r1
 802028c:	b113      	cbz	r3, 8020294 <memchr+0x74>
 802028e:	d1f8      	bne.n	8020282 <memchr+0x62>
 8020290:	2000      	movs	r0, #0
 8020292:	4770      	bx	lr
 8020294:	3801      	subs	r0, #1
 8020296:	4770      	bx	lr
 8020298:	2d00      	cmp	r5, #0
 802029a:	bf06      	itte	eq
 802029c:	4635      	moveq	r5, r6
 802029e:	3803      	subeq	r0, #3
 80202a0:	3807      	subne	r0, #7
 80202a2:	f015 0f01 	tst.w	r5, #1
 80202a6:	d107      	bne.n	80202b8 <memchr+0x98>
 80202a8:	3001      	adds	r0, #1
 80202aa:	f415 7f80 	tst.w	r5, #256	; 0x100
 80202ae:	bf02      	ittt	eq
 80202b0:	3001      	addeq	r0, #1
 80202b2:	f415 3fc0 	tsteq.w	r5, #98304	; 0x18000
 80202b6:	3001      	addeq	r0, #1
 80202b8:	bcf0      	pop	{r4, r5, r6, r7}
 80202ba:	3801      	subs	r0, #1
 80202bc:	4770      	bx	lr
 80202be:	bf00      	nop

080202c0 <__aeabi_d2f>:
 80202c0:	ea4f 0241 	mov.w	r2, r1, lsl #1
 80202c4:	f1b2 43e0 	subs.w	r3, r2, #1879048192	; 0x70000000
 80202c8:	bf24      	itt	cs
 80202ca:	f5b3 1c00 	subscs.w	ip, r3, #2097152	; 0x200000
 80202ce:	f1dc 5cfe 	rsbscs	ip, ip, #532676608	; 0x1fc00000
 80202d2:	d90d      	bls.n	80202f0 <__aeabi_d2f+0x30>
 80202d4:	f001 4c00 	and.w	ip, r1, #2147483648	; 0x80000000
 80202d8:	ea4f 02c0 	mov.w	r2, r0, lsl #3
 80202dc:	ea4c 7050 	orr.w	r0, ip, r0, lsr #29
 80202e0:	f1b2 4f00 	cmp.w	r2, #2147483648	; 0x80000000
 80202e4:	eb40 0083 	adc.w	r0, r0, r3, lsl #2
 80202e8:	bf08      	it	eq
 80202ea:	f020 0001 	biceq.w	r0, r0, #1
 80202ee:	4770      	bx	lr
 80202f0:	f011 4f80 	tst.w	r1, #1073741824	; 0x40000000
 80202f4:	d121      	bne.n	802033a <__aeabi_d2f+0x7a>
 80202f6:	f113 7238 	adds.w	r2, r3, #48234496	; 0x2e00000
 80202fa:	bfbc      	itt	lt
 80202fc:	f001 4000 	andlt.w	r0, r1, #2147483648	; 0x80000000
 8020300:	4770      	bxlt	lr
 8020302:	f441 1180 	orr.w	r1, r1, #1048576	; 0x100000
 8020306:	ea4f 5252 	mov.w	r2, r2, lsr #21
 802030a:	f1c2 0218 	rsb	r2, r2, #24
 802030e:	f1c2 0c20 	rsb	ip, r2, #32
 8020312:	fa10 f30c 	lsls.w	r3, r0, ip
 8020316:	fa20 f002 	lsr.w	r0, r0, r2
 802031a:	bf18      	it	ne
 802031c:	f040 0001 	orrne.w	r0, r0, #1
 8020320:	ea4f 23c1 	mov.w	r3, r1, lsl #11
 8020324:	ea4f 23d3 	mov.w	r3, r3, lsr #11
 8020328:	fa03 fc0c 	lsl.w	ip, r3, ip
 802032c:	ea40 000c 	orr.w	r0, r0, ip
 8020330:	fa23 f302 	lsr.w	r3, r3, r2
 8020334:	ea4f 0343 	mov.w	r3, r3, lsl #1
 8020338:	e7cc      	b.n	80202d4 <__aeabi_d2f+0x14>
 802033a:	ea7f 5362 	mvns.w	r3, r2, asr #21
 802033e:	d107      	bne.n	8020350 <__aeabi_d2f+0x90>
 8020340:	ea50 3301 	orrs.w	r3, r0, r1, lsl #12
 8020344:	bf1e      	ittt	ne
 8020346:	f04f 40fe 	movne.w	r0, #2130706432	; 0x7f000000
 802034a:	f440 0040 	orrne.w	r0, r0, #12582912	; 0xc00000
 802034e:	4770      	bxne	lr
 8020350:	f001 4000 	and.w	r0, r1, #2147483648	; 0x80000000
 8020354:	f040 40fe 	orr.w	r0, r0, #2130706432	; 0x7f000000
 8020358:	f440 0000 	orr.w	r0, r0, #8388608	; 0x800000
 802035c:	4770      	bx	lr
 802035e:	bf00      	nop

08020360 <__aeabi_uldivmod>:
 8020360:	b953      	cbnz	r3, 8020378 <__aeabi_uldivmod+0x18>
 8020362:	b94a      	cbnz	r2, 8020378 <__aeabi_uldivmod+0x18>
 8020364:	2900      	cmp	r1, #0
 8020366:	bf08      	it	eq
 8020368:	2800      	cmpeq	r0, #0
 802036a:	bf1c      	itt	ne
 802036c:	f04f 31ff 	movne.w	r1, #4294967295
 8020370:	f04f 30ff 	movne.w	r0, #4294967295
 8020374:	f000 b96e 	b.w	8020654 <__aeabi_idiv0>
 8020378:	f1ad 0c08 	sub.w	ip, sp, #8
 802037c:	e96d ce04 	strd	ip, lr, [sp, #-16]!
 8020380:	f000 f806 	bl	8020390 <__udivmoddi4>
 8020384:	f8dd e004 	ldr.w	lr, [sp, #4]
 8020388:	e9dd 2302 	ldrd	r2, r3, [sp, #8]
 802038c:	b004      	add	sp, #16
 802038e:	4770      	bx	lr

08020390 <__udivmoddi4>:
 8020390:	e92d 47f0 	stmdb	sp!, {r4, r5, r6, r7, r8, r9, sl, lr}
 8020394:	9d08      	ldr	r5, [sp, #32]
 8020396:	4604      	mov	r4, r0
 8020398:	468c      	mov	ip, r1
 802039a:	2b00      	cmp	r3, #0
 802039c:	f040 8083 	bne.w	80204a6 <__udivmoddi4+0x116>
 80203a0:	428a      	cmp	r2, r1
 80203a2:	4617      	mov	r7, r2
 80203a4:	d947      	bls.n	8020436 <__udivmoddi4+0xa6>
 80203a6:	fab2 f282 	clz	r2, r2
 80203aa:	b142      	cbz	r2, 80203be <__udivmoddi4+0x2e>
 80203ac:	f1c2 0020 	rsb	r0, r2, #32
 80203b0:	fa24 f000 	lsr.w	r0, r4, r0
 80203b4:	4091      	lsls	r1, r2
 80203b6:	4097      	lsls	r7, r2
 80203b8:	ea40 0c01 	orr.w	ip, r0, r1
 80203bc:	4094      	lsls	r4, r2
 80203be:	ea4f 4817 	mov.w	r8, r7, lsr #16
 80203c2:	0c23      	lsrs	r3, r4, #16
 80203c4:	fbbc f6f8 	udiv	r6, ip, r8
 80203c8:	fa1f fe87 	uxth.w	lr, r7
 80203cc:	fb08 c116 	mls	r1, r8, r6, ip
 80203d0:	ea43 4301 	orr.w	r3, r3, r1, lsl #16
 80203d4:	fb06 f10e 	mul.w	r1, r6, lr
 80203d8:	4299      	cmp	r1, r3
 80203da:	d909      	bls.n	80203f0 <__udivmoddi4+0x60>
 80203dc:	18fb      	adds	r3, r7, r3
 80203de:	f106 30ff 	add.w	r0, r6, #4294967295
 80203e2:	f080 8119 	bcs.w	8020618 <__udivmoddi4+0x288>
 80203e6:	4299      	cmp	r1, r3
 80203e8:	f240 8116 	bls.w	8020618 <__udivmoddi4+0x288>
 80203ec:	3e02      	subs	r6, #2
 80203ee:	443b      	add	r3, r7
 80203f0:	1a5b      	subs	r3, r3, r1
 80203f2:	b2a4      	uxth	r4, r4
 80203f4:	fbb3 f0f8 	udiv	r0, r3, r8
 80203f8:	fb08 3310 	mls	r3, r8, r0, r3
 80203fc:	ea44 4403 	orr.w	r4, r4, r3, lsl #16
 8020400:	fb00 fe0e 	mul.w	lr, r0, lr
 8020404:	45a6      	cmp	lr, r4
 8020406:	d909      	bls.n	802041c <__udivmoddi4+0x8c>
 8020408:	193c      	adds	r4, r7, r4
 802040a:	f100 33ff 	add.w	r3, r0, #4294967295
 802040e:	f080 8105 	bcs.w	802061c <__udivmoddi4+0x28c>
 8020412:	45a6      	cmp	lr, r4
 8020414:	f240 8102 	bls.w	802061c <__udivmoddi4+0x28c>
 8020418:	3802      	subs	r0, #2
 802041a:	443c      	add	r4, r7
 802041c:	ea40 4006 	orr.w	r0, r0, r6, lsl #16
 8020420:	eba4 040e 	sub.w	r4, r4, lr
 8020424:	2600      	movs	r6, #0
 8020426:	b11d      	cbz	r5, 8020430 <__udivmoddi4+0xa0>
 8020428:	40d4      	lsrs	r4, r2
 802042a:	2300      	movs	r3, #0
 802042c:	e9c5 4300 	strd	r4, r3, [r5]
 8020430:	4631      	mov	r1, r6
 8020432:	e8bd 87f0 	ldmia.w	sp!, {r4, r5, r6, r7, r8, r9, sl, pc}
 8020436:	b902      	cbnz	r2, 802043a <__udivmoddi4+0xaa>
 8020438:	deff      	udf	#255	; 0xff
 802043a:	fab2 f282 	clz	r2, r2
 802043e:	2a00      	cmp	r2, #0
 8020440:	d150      	bne.n	80204e4 <__udivmoddi4+0x154>
 8020442:	1bcb      	subs	r3, r1, r7
 8020444:	ea4f 4e17 	mov.w	lr, r7, lsr #16
 8020448:	fa1f f887 	uxth.w	r8, r7
 802044c:	2601      	movs	r6, #1
 802044e:	fbb3 fcfe 	udiv	ip, r3, lr
 8020452:	0c21      	lsrs	r1, r4, #16
 8020454:	fb0e 331c 	mls	r3, lr, ip, r3
 8020458:	ea41 4103 	orr.w	r1, r1, r3, lsl #16
 802045c:	fb08 f30c 	mul.w	r3, r8, ip
 8020460:	428b      	cmp	r3, r1
 8020462:	d907      	bls.n	8020474 <__udivmoddi4+0xe4>
 8020464:	1879      	adds	r1, r7, r1
 8020466:	f10c 30ff 	add.w	r0, ip, #4294967295
 802046a:	d202      	bcs.n	8020472 <__udivmoddi4+0xe2>
 802046c:	428b      	cmp	r3, r1
 802046e:	f200 80e9 	bhi.w	8020644 <__udivmoddi4+0x2b4>
 8020472:	4684      	mov	ip, r0
 8020474:	1ac9      	subs	r1, r1, r3
 8020476:	b2a3      	uxth	r3, r4
 8020478:	fbb1 f0fe 	udiv	r0, r1, lr
 802047c:	fb0e 1110 	mls	r1, lr, r0, r1
 8020480:	ea43 4401 	orr.w	r4, r3, r1, lsl #16
 8020484:	fb08 f800 	mul.w	r8, r8, r0
 8020488:	45a0      	cmp	r8, r4
 802048a:	d907      	bls.n	802049c <__udivmoddi4+0x10c>
 802048c:	193c      	adds	r4, r7, r4
 802048e:	f100 33ff 	add.w	r3, r0, #4294967295
 8020492:	d202      	bcs.n	802049a <__udivmoddi4+0x10a>
 8020494:	45a0      	cmp	r8, r4
 8020496:	f200 80d9 	bhi.w	802064c <__udivmoddi4+0x2bc>
 802049a:	4618      	mov	r0, r3
 802049c:	eba4 0408 	sub.w	r4, r4, r8
 80204a0:	ea40 400c 	orr.w	r0, r0, ip, lsl #16
 80204a4:	e7bf      	b.n	8020426 <__udivmoddi4+0x96>
 80204a6:	428b      	cmp	r3, r1
 80204a8:	d909      	bls.n	80204be <__udivmoddi4+0x12e>
 80204aa:	2d00      	cmp	r5, #0
 80204ac:	f000 80b1 	beq.w	8020612 <__udivmoddi4+0x282>
 80204b0:	2600      	movs	r6, #0
 80204b2:	e9c5 0100 	strd	r0, r1, [r5]
 80204b6:	4630      	mov	r0, r6
 80204b8:	4631      	mov	r1, r6
 80204ba:	e8bd 87f0 	ldmia.w	sp!, {r4, r5, r6, r7, r8, r9, sl, pc}
 80204be:	fab3 f683 	clz	r6, r3
 80204c2:	2e00      	cmp	r6, #0
 80204c4:	d14a      	bne.n	802055c <__udivmoddi4+0x1cc>
 80204c6:	428b      	cmp	r3, r1
 80204c8:	d302      	bcc.n	80204d0 <__udivmoddi4+0x140>
 80204ca:	4282      	cmp	r2, r0
 80204cc:	f200 80b8 	bhi.w	8020640 <__udivmoddi4+0x2b0>
 80204d0:	1a84      	subs	r4, r0, r2
 80204d2:	eb61 0103 	sbc.w	r1, r1, r3
 80204d6:	2001      	movs	r0, #1
 80204d8:	468c      	mov	ip, r1
 80204da:	2d00      	cmp	r5, #0
 80204dc:	d0a8      	beq.n	8020430 <__udivmoddi4+0xa0>
 80204de:	e9c5 4c00 	strd	r4, ip, [r5]
 80204e2:	e7a5      	b.n	8020430 <__udivmoddi4+0xa0>
 80204e4:	f1c2 0320 	rsb	r3, r2, #32
 80204e8:	fa20 f603 	lsr.w	r6, r0, r3
 80204ec:	4097      	lsls	r7, r2
 80204ee:	fa01 f002 	lsl.w	r0, r1, r2
 80204f2:	ea4f 4e17 	mov.w	lr, r7, lsr #16
 80204f6:	40d9      	lsrs	r1, r3
 80204f8:	4330      	orrs	r0, r6
 80204fa:	0c03      	lsrs	r3, r0, #16
 80204fc:	fbb1 f6fe 	udiv	r6, r1, lr
 8020500:	fa1f f887 	uxth.w	r8, r7
 8020504:	fb0e 1116 	mls	r1, lr, r6, r1
 8020508:	ea43 4301 	orr.w	r3, r3, r1, lsl #16
 802050c:	fb06 f108 	mul.w	r1, r6, r8
 8020510:	4299      	cmp	r1, r3
 8020512:	fa04 f402 	lsl.w	r4, r4, r2
 8020516:	d909      	bls.n	802052c <__udivmoddi4+0x19c>
 8020518:	18fb      	adds	r3, r7, r3
 802051a:	f106 3cff 	add.w	ip, r6, #4294967295
 802051e:	f080 808d 	bcs.w	802063c <__udivmoddi4+0x2ac>
 8020522:	4299      	cmp	r1, r3
 8020524:	f240 808a 	bls.w	802063c <__udivmoddi4+0x2ac>
 8020528:	3e02      	subs	r6, #2
 802052a:	443b      	add	r3, r7
 802052c:	1a5b      	subs	r3, r3, r1
 802052e:	b281      	uxth	r1, r0
 8020530:	fbb3 f0fe 	udiv	r0, r3, lr
 8020534:	fb0e 3310 	mls	r3, lr, r0, r3
 8020538:	ea41 4103 	orr.w	r1, r1, r3, lsl #16
 802053c:	fb00 f308 	mul.w	r3, r0, r8
 8020540:	428b      	cmp	r3, r1
 8020542:	d907      	bls.n	8020554 <__udivmoddi4+0x1c4>
 8020544:	1879      	adds	r1, r7, r1
 8020546:	f100 3cff 	add.w	ip, r0, #4294967295
 802054a:	d273      	bcs.n	8020634 <__udivmoddi4+0x2a4>
 802054c:	428b      	cmp	r3, r1
 802054e:	d971      	bls.n	8020634 <__udivmoddi4+0x2a4>
 8020550:	3802      	subs	r0, #2
 8020552:	4439      	add	r1, r7
 8020554:	1acb      	subs	r3, r1, r3
 8020556:	ea40 4606 	orr.w	r6, r0, r6, lsl #16
 802055a:	e778      	b.n	802044e <__udivmoddi4+0xbe>
 802055c:	f1c6 0c20 	rsb	ip, r6, #32
 8020560:	fa03 f406 	lsl.w	r4, r3, r6
 8020564:	fa22 f30c 	lsr.w	r3, r2, ip
 8020568:	431c      	orrs	r4, r3
 802056a:	fa20 f70c 	lsr.w	r7, r0, ip
 802056e:	fa01 f306 	lsl.w	r3, r1, r6
 8020572:	ea4f 4e14 	mov.w	lr, r4, lsr #16
 8020576:	fa21 f10c 	lsr.w	r1, r1, ip
 802057a:	431f      	orrs	r7, r3
 802057c:	0c3b      	lsrs	r3, r7, #16
 802057e:	fbb1 f9fe 	udiv	r9, r1, lr
 8020582:	fa1f f884 	uxth.w	r8, r4
 8020586:	fb0e 1119 	mls	r1, lr, r9, r1
 802058a:	ea43 4101 	orr.w	r1, r3, r1, lsl #16
 802058e:	fb09 fa08 	mul.w	sl, r9, r8
 8020592:	458a      	cmp	sl, r1
 8020594:	fa02 f206 	lsl.w	r2, r2, r6
 8020598:	fa00 f306 	lsl.w	r3, r0, r6
 802059c:	d908      	bls.n	80205b0 <__udivmoddi4+0x220>
 802059e:	1861      	adds	r1, r4, r1
 80205a0:	f109 30ff 	add.w	r0, r9, #4294967295
 80205a4:	d248      	bcs.n	8020638 <__udivmoddi4+0x2a8>
 80205a6:	458a      	cmp	sl, r1
 80205a8:	d946      	bls.n	8020638 <__udivmoddi4+0x2a8>
 80205aa:	f1a9 0902 	sub.w	r9, r9, #2
 80205ae:	4421      	add	r1, r4
 80205b0:	eba1 010a 	sub.w	r1, r1, sl
 80205b4:	b2bf      	uxth	r7, r7
 80205b6:	fbb1 f0fe 	udiv	r0, r1, lr
 80205ba:	fb0e 1110 	mls	r1, lr, r0, r1
 80205be:	ea47 4701 	orr.w	r7, r7, r1, lsl #16
 80205c2:	fb00 f808 	mul.w	r8, r0, r8
 80205c6:	45b8      	cmp	r8, r7
 80205c8:	d907      	bls.n	80205da <__udivmoddi4+0x24a>
 80205ca:	19e7      	adds	r7, r4, r7
 80205cc:	f100 31ff 	add.w	r1, r0, #4294967295
 80205d0:	d22e      	bcs.n	8020630 <__udivmoddi4+0x2a0>
 80205d2:	45b8      	cmp	r8, r7
 80205d4:	d92c      	bls.n	8020630 <__udivmoddi4+0x2a0>
 80205d6:	3802      	subs	r0, #2
 80205d8:	4427      	add	r7, r4
 80205da:	ea40 4009 	orr.w	r0, r0, r9, lsl #16
 80205de:	eba7 0708 	sub.w	r7, r7, r8
 80205e2:	fba0 8902 	umull	r8, r9, r0, r2
 80205e6:	454f      	cmp	r7, r9
 80205e8:	46c6      	mov	lr, r8
 80205ea:	4649      	mov	r1, r9
 80205ec:	d31a      	bcc.n	8020624 <__udivmoddi4+0x294>
 80205ee:	d017      	beq.n	8020620 <__udivmoddi4+0x290>
 80205f0:	b15d      	cbz	r5, 802060a <__udivmoddi4+0x27a>
 80205f2:	ebb3 020e 	subs.w	r2, r3, lr
 80205f6:	eb67 0701 	sbc.w	r7, r7, r1
 80205fa:	fa07 fc0c 	lsl.w	ip, r7, ip
 80205fe:	40f2      	lsrs	r2, r6
 8020600:	ea4c 0202 	orr.w	r2, ip, r2
 8020604:	40f7      	lsrs	r7, r6
 8020606:	e9c5 2700 	strd	r2, r7, [r5]
 802060a:	2600      	movs	r6, #0
 802060c:	4631      	mov	r1, r6
 802060e:	e8bd 87f0 	ldmia.w	sp!, {r4, r5, r6, r7, r8, r9, sl, pc}
 8020612:	462e      	mov	r6, r5
 8020614:	4628      	mov	r0, r5
 8020616:	e70b      	b.n	8020430 <__udivmoddi4+0xa0>
 8020618:	4606      	mov	r6, r0
 802061a:	e6e9      	b.n	80203f0 <__udivmoddi4+0x60>
 802061c:	4618      	mov	r0, r3
 802061e:	e6fd      	b.n	802041c <__udivmoddi4+0x8c>
 8020620:	4543      	cmp	r3, r8
 8020622:	d2e5      	bcs.n	80205f0 <__udivmoddi4+0x260>
 8020624:	ebb8 0e02 	subs.w	lr, r8, r2
 8020628:	eb69 0104 	sbc.w	r1, r9, r4
 802062c:	3801      	subs	r0, #1
 802062e:	e7df      	b.n	80205f0 <__udivmoddi4+0x260>
 8020630:	4608      	mov	r0, r1
 8020632:	e7d2      	b.n	80205da <__udivmoddi4+0x24a>
 8020634:	4660      	mov	r0, ip
 8020636:	e78d      	b.n	8020554 <__udivmoddi4+0x1c4>
 8020638:	4681      	mov	r9, r0
 802063a:	e7b9      	b.n	80205b0 <__udivmoddi4+0x220>
 802063c:	4666      	mov	r6, ip
 802063e:	e775      	b.n	802052c <__udivmoddi4+0x19c>
 8020640:	4630      	mov	r0, r6
 8020642:	e74a      	b.n	80204da <__udivmoddi4+0x14a>
 8020644:	f1ac 0c02 	sub.w	ip, ip, #2
 8020648:	4439      	add	r1, r7
 802064a:	e713      	b.n	8020474 <__udivmoddi4+0xe4>
 802064c:	3802      	subs	r0, #2
 802064e:	443c      	add	r4, r7
 8020650:	e724      	b.n	802049c <__udivmoddi4+0x10c>
 8020652:	bf00      	nop

08020654 <__aeabi_idiv0>:
 8020654:	4770      	bx	lr
 8020656:	bf00      	nop

08020658 <MX_DMA_Init>:

/**
  * Enable DMA controller clock
  */
void MX_DMA_Init(void)
{
 8020658:	b507      	push	{r0, r1, r2, lr}

  /* DMA controller clock enable */
  __HAL_RCC_DMA2_CLK_ENABLE();
 802065a:	4b24      	ldr	r3, [pc, #144]	; (80206ec <MX_DMA_Init+0x94>)
 802065c:	2200      	movs	r2, #0
 802065e:	9200      	str	r2, [sp, #0]
 8020660:	6b19      	ldr	r1, [r3, #48]	; 0x30
 8020662:	f441 0180 	orr.w	r1, r1, #4194304	; 0x400000
 8020666:	6319      	str	r1, [r3, #48]	; 0x30
 8020668:	6b19      	ldr	r1, [r3, #48]	; 0x30
 802066a:	f401 0180 	and.w	r1, r1, #4194304	; 0x400000
 802066e:	9100      	str	r1, [sp, #0]
 8020670:	9900      	ldr	r1, [sp, #0]
  __HAL_RCC_DMA1_CLK_ENABLE();
 8020672:	9201      	str	r2, [sp, #4]
 8020674:	6b19      	ldr	r1, [r3, #48]	; 0x30
 8020676:	f441 1100 	orr.w	r1, r1, #2097152	; 0x200000
 802067a:	6319      	str	r1, [r3, #48]	; 0x30
 802067c:	6b1b      	ldr	r3, [r3, #48]	; 0x30
 802067e:	f403 1300 	and.w	r3, r3, #2097152	; 0x200000
 8020682:	9301      	str	r3, [sp, #4]

  /* DMA interrupt init */
  /* DMA1_Stream1_IRQn interrupt configuration */
  HAL_NVIC_SetPriority(DMA1_Stream1_IRQn, 5, 0);
 8020684:	2105      	movs	r1, #5
 8020686:	200c      	movs	r0, #12
  __HAL_RCC_DMA1_CLK_ENABLE();
 8020688:	9b01      	ldr	r3, [sp, #4]
  HAL_NVIC_SetPriority(DMA1_Stream1_IRQn, 5, 0);
 802068a:	f001 f88b 	bl	80217a4 <HAL_NVIC_SetPriority>
  HAL_NVIC_EnableIRQ(DMA1_Stream1_IRQn);
 802068e:	200c      	movs	r0, #12
 8020690:	f001 f8cc 	bl	802182c <HAL_NVIC_EnableIRQ>
  /* DMA1_Stream3_IRQn interrupt configuration */
  HAL_NVIC_SetPriority(DMA1_Stream3_IRQn, 5, 0);
 8020694:	2200      	movs	r2, #0
 8020696:	2105      	movs	r1, #5
 8020698:	200e      	movs	r0, #14
 802069a:	f001 f883 	bl	80217a4 <HAL_NVIC_SetPriority>
  HAL_NVIC_EnableIRQ(DMA1_Stream3_IRQn);
 802069e:	200e      	movs	r0, #14
 80206a0:	f001 f8c4 	bl	802182c <HAL_NVIC_EnableIRQ>
  /* DMA2_Stream1_IRQn interrupt configuration */
  HAL_NVIC_SetPriority(DMA2_Stream1_IRQn, 5, 0);
 80206a4:	2200      	movs	r2, #0
 80206a6:	2105      	movs	r1, #5
 80206a8:	2039      	movs	r0, #57	; 0x39
 80206aa:	f001 f87b 	bl	80217a4 <HAL_NVIC_SetPriority>
  HAL_NVIC_EnableIRQ(DMA2_Stream1_IRQn);
 80206ae:	2039      	movs	r0, #57	; 0x39
 80206b0:	f001 f8bc 	bl	802182c <HAL_NVIC_EnableIRQ>
  /* DMA2_Stream2_IRQn interrupt configuration */
  HAL_NVIC_SetPriority(DMA2_Stream2_IRQn, 5, 0);
 80206b4:	2200      	movs	r2, #0
 80206b6:	2105      	movs	r1, #5
 80206b8:	203a      	movs	r0, #58	; 0x3a
 80206ba:	f001 f873 	bl	80217a4 <HAL_NVIC_SetPriority>
  HAL_NVIC_EnableIRQ(DMA2_Stream2_IRQn);
 80206be:	203a      	movs	r0, #58	; 0x3a
 80206c0:	f001 f8b4 	bl	802182c <HAL_NVIC_EnableIRQ>
  /* DMA2_Stream6_IRQn interrupt configuration */
  HAL_NVIC_SetPriority(DMA2_Stream6_IRQn, 5, 0);
 80206c4:	2200      	movs	r2, #0
 80206c6:	2105      	movs	r1, #5
 80206c8:	2045      	movs	r0, #69	; 0x45
 80206ca:	f001 f86b 	bl	80217a4 <HAL_NVIC_SetPriority>
  HAL_NVIC_EnableIRQ(DMA2_Stream6_IRQn);
 80206ce:	2045      	movs	r0, #69	; 0x45
 80206d0:	f001 f8ac 	bl	802182c <HAL_NVIC_EnableIRQ>
  /* DMA2_Stream7_IRQn interrupt configuration */
  HAL_NVIC_SetPriority(DMA2_Stream7_IRQn, 5, 0);
 80206d4:	2200      	movs	r2, #0
 80206d6:	2105      	movs	r1, #5
 80206d8:	2046      	movs	r0, #70	; 0x46
 80206da:	f001 f863 	bl	80217a4 <HAL_NVIC_SetPriority>
  HAL_NVIC_EnableIRQ(DMA2_Stream7_IRQn);
 80206de:	2046      	movs	r0, #70	; 0x46

}
 80206e0:	b003      	add	sp, #12
 80206e2:	f85d eb04 	ldr.w	lr, [sp], #4
  HAL_NVIC_EnableIRQ(DMA2_Stream7_IRQn);
 80206e6:	f001 b8a1 	b.w	802182c <HAL_NVIC_EnableIRQ>
 80206ea:	bf00      	nop
 80206ec:	40023800 	.word	0x40023800

080206f0 <StartDefaultTask>:
	static uint16_t cnt0 = 0;
	static uint16_t cnt1 = 0;
	static uint16_t cnt2 = 0;
	static uint16_t cnt3 = 0;
	static uint16_t cnt4 = 0;
	osThreadTerminate(myTask04Handle);
 80206f0:	4b37      	ldr	r3, [pc, #220]	; (80207d0 <StartDefaultTask+0xe0>)
void StartDefaultTask(void *argument) {
 80206f2:	b583      	push	{r0, r1, r7, lr}
	osThreadTerminate(myTask04Handle);
 80206f4:	6818      	ldr	r0, [r3, #0]
 80206f6:	f003 ff96 	bl	8024626 <osThreadTerminate>
	osThreadTerminate(myTask05Handle);
 80206fa:	4b36      	ldr	r3, [pc, #216]	; (80207d4 <StartDefaultTask+0xe4>)
 80206fc:	6818      	ldr	r0, [r3, #0]
 80206fe:	f003 ff92 	bl	8024626 <osThreadTerminate>
	osSemaphoreAcquire(myBinarySem03Handle, 10);
 8020702:	4b35      	ldr	r3, [pc, #212]	; (80207d8 <StartDefaultTask+0xe8>)
	softTimer_Start(TIMER0, MODE_PERIODIC, 5, TIM0_CB, NULL, 0);
 8020704:	2400      	movs	r4, #0
	osSemaphoreAcquire(myBinarySem03Handle, 10);
 8020706:	6818      	ldr	r0, [r3, #0]
 8020708:	210a      	movs	r1, #10
 802070a:	f004 f881 	bl	8024810 <osSemaphoreAcquire>
	softTimer_Start(TIMER0, MODE_PERIODIC, 5, TIM0_CB, NULL, 0);
 802070e:	4620      	mov	r0, r4
 8020710:	e9cd 4400 	strd	r4, r4, [sp]
 8020714:	4b31      	ldr	r3, [pc, #196]	; (80207dc <StartDefaultTask+0xec>)
 8020716:	2205      	movs	r2, #5
 8020718:	2101      	movs	r1, #1
 802071a:	f00a fc01 	bl	802af20 <softTimer_Start>
	softTimer_Start(TIMER2, MODE_PERIODIC, 3000, TIM2_CB, NULL, 0);
 802071e:	4b30      	ldr	r3, [pc, #192]	; (80207e0 <StartDefaultTask+0xf0>)
 8020720:	f640 32b8 	movw	r2, #3000	; 0xbb8
 8020724:	2101      	movs	r1, #1
 8020726:	e9cd 4400 	strd	r4, r4, [sp]
 802072a:	2002      	movs	r0, #2
 802072c:	f00a fbf8 	bl	802af20 <softTimer_Start>
	sysguard_start(DefaultTask);
 8020730:	4620      	mov	r0, r4
 8020732:	f00a fc6b 	bl	802b00c <sysguard_start>
	sysguard_start(TASK2);
 8020736:	2001      	movs	r0, #1
 8020738:	f00a fc68 	bl	802b00c <sysguard_start>
	sysguard_start(TASK3);
 802073c:	2002      	movs	r0, #2
 802073e:	f00a fc65 	bl	802b00c <sysguard_start>
//	sysguard_start(TASK4);
//	sysguard_start(TASK5);
//	sysguard_start(TASK6);
	while (screen_ini_st.screen_conn_flag != FLAG_ON) {
 8020742:	4c28      	ldr	r4, [pc, #160]	; (80207e4 <StartDefaultTask+0xf4>)
 8020744:	7863      	ldrb	r3, [r4, #1]
 8020746:	2b55      	cmp	r3, #85	; 0x55
 8020748:	d13e      	bne.n	80207c8 <StartDefaultTask+0xd8>
	}

	/* Infinite loop */
	for (;;) {
		/*10ms*/
		if (cnt1 == 0) {
 802074a:	4d27      	ldr	r5, [pc, #156]	; (80207e8 <StartDefaultTask+0xf8>)
			mytim_check();
		}
		cnt1++;
		cnt1 %= 2;
		/*100ms*/
		if (cnt3 == 0) {
 802074c:	4c27      	ldr	r4, [pc, #156]	; (80207ec <StartDefaultTask+0xfc>)
 802074e:	462e      	mov	r6, r5
		if (cnt1 == 0) {
 8020750:	882b      	ldrh	r3, [r5, #0]
 8020752:	b96b      	cbnz	r3, 8020770 <StartDefaultTask+0x80>
			input_check();
 8020754:	f006 fb1a 	bl	8026d8c <input_check>
			input_tog();
 8020758:	f006 fbc8 	bl	8026eec <input_tog>
			Key_event();
 802075c:	f006 fc18 	bl	8026f90 <Key_event>
			stop_check();
 8020760:	f006 fd5c 	bl	802721c <stop_check>
			double_check();
 8020764:	f006 fcfe 	bl	8027164 <double_check>
			relief_check();
 8020768:	f009 fa3c 	bl	8029be4 <relief_check>
			mytim_check();
 802076c:	f009 ff64 	bl	802a638 <mytim_check>
		cnt1++;
 8020770:	8833      	ldrh	r3, [r6, #0]
 8020772:	3301      	adds	r3, #1
		cnt1 %= 2;
 8020774:	f003 0301 	and.w	r3, r3, #1
 8020778:	8033      	strh	r3, [r6, #0]
		if (cnt3 == 0) {
 802077a:	8823      	ldrh	r3, [r4, #0]
 802077c:	b90b      	cbnz	r3, 8020782 <StartDefaultTask+0x92>
			/*set*/
			double_deal();
 802077e:	f006 fcaf 	bl	80270e0 <double_deal>
		}
		cnt3++;
 8020782:	8823      	ldrh	r3, [r4, #0]
			cnt3 %= 200;
		} else {
			cnt3 %= 20;
		}
		/*1000ms*/
		if (cnt4 == 0) {
 8020784:	4f1a      	ldr	r7, [pc, #104]	; (80207f0 <StartDefaultTask+0x100>)
		cnt3++;
 8020786:	3301      	adds	r3, #1
 8020788:	b29a      	uxth	r2, r3
		if (set_para_st.rl_double_io > 30) {
 802078a:	4b1a      	ldr	r3, [pc, #104]	; (80207f4 <StartDefaultTask+0x104>)
		if (cnt4 == 0) {
 802078c:	8838      	ldrh	r0, [r7, #0]
		if (set_para_st.rl_double_io > 30) {
 802078e:	8b5b      	ldrh	r3, [r3, #26]
 8020790:	2b1e      	cmp	r3, #30
			cnt3 %= 200;
 8020792:	bf8c      	ite	hi
 8020794:	21c8      	movhi	r1, #200	; 0xc8
			cnt3 %= 20;
 8020796:	2114      	movls	r1, #20
 8020798:	fbb2 f3f1 	udiv	r3, r2, r1
 802079c:	fb01 2313 	mls	r3, r1, r3, r2
 80207a0:	b29b      	uxth	r3, r3
 80207a2:	8023      	strh	r3, [r4, #0]
		if (cnt4 == 0) {
 80207a4:	b918      	cbnz	r0, 80207ae <StartDefaultTask+0xbe>
			sysguard_feed(DefaultTask);
 80207a6:	f00a fc47 	bl	802b038 <sysguard_feed>
			sysguard_scan();
 80207aa:	f00a fc5b 	bl	802b064 <sysguard_scan>
		}
		cnt4++;
 80207ae:	883b      	ldrh	r3, [r7, #0]
 80207b0:	3301      	adds	r3, #1
		cnt4 %= 200;
 80207b2:	21c8      	movs	r1, #200	; 0xc8
 80207b4:	b29b      	uxth	r3, r3
		osDelay(5);
 80207b6:	2005      	movs	r0, #5
		cnt4 %= 200;
 80207b8:	fbb3 f2f1 	udiv	r2, r3, r1
 80207bc:	fb01 3312 	mls	r3, r1, r2, r3
 80207c0:	803b      	strh	r3, [r7, #0]
		osDelay(5);
 80207c2:	f003 ff48 	bl	8024656 <osDelay>
		if (cnt1 == 0) {
 80207c6:	e7c3      	b.n	8020750 <StartDefaultTask+0x60>
		osDelay(10);
 80207c8:	200a      	movs	r0, #10
 80207ca:	f003 ff44 	bl	8024656 <osDelay>
 80207ce:	e7b9      	b.n	8020744 <StartDefaultTask+0x54>
 80207d0:	2000ddd8 	.word	0x2000ddd8
 80207d4:	2000ddd4 	.word	0x2000ddd4
 80207d8:	2000dddc 	.word	0x2000dddc
 80207dc:	0802acd5 	.word	0x0802acd5
 80207e0:	0802ad4d 	.word	0x0802ad4d
 80207e4:	2000edd4 	.word	0x2000edd4
 80207e8:	200001da 	.word	0x200001da
 80207ec:	200001e0 	.word	0x200001e0
 80207f0:	200001e4 	.word	0x200001e4
 80207f4:	2000ed84 	.word	0x2000ed84

080207f8 <StartTask02>:
 * @brief Function implementing the myTask02 thread.
 * @param argument: Not used
 * @retval None
 */
/* USER CODE END Header_StartTask02 */
void StartTask02(void *argument) {
 80207f8:	b580      	push	{r7, lr}
	/* USER CODE BEGIN StartTask02 */
	/* Infinite loop */
	for (;;) {
		if (0 != osMessageQueueGetCount(myQueueUsart1Handle)) {
 80207fa:	4d22      	ldr	r5, [pc, #136]	; (8020884 <StartTask02+0x8c>)
			osMessageQueueGet(myQueueUsart1Handle, &usart1_rx, 0U, 0xff);
 80207fc:	4c22      	ldr	r4, [pc, #136]	; (8020888 <StartTask02+0x90>)
			usart1_rx_deal(&usart1_rx);
			memset(&usart1_rx, 0x00, sizeof(usart1_rx));
		}
		if (0 != osMessageQueueGetCount(myQueueUsart3Handle)) {
 80207fe:	4e23      	ldr	r6, [pc, #140]	; (802088c <StartTask02+0x94>)
		if (0 != osMessageQueueGetCount(myQueueUsart1Handle)) {
 8020800:	6828      	ldr	r0, [r5, #0]
 8020802:	f004 f8fd 	bl	8024a00 <osMessageQueueGetCount>
 8020806:	b170      	cbz	r0, 8020826 <StartTask02+0x2e>
			osMessageQueueGet(myQueueUsart1Handle, &usart1_rx, 0U, 0xff);
 8020808:	2200      	movs	r2, #0
 802080a:	4621      	mov	r1, r4
 802080c:	23ff      	movs	r3, #255	; 0xff
 802080e:	6828      	ldr	r0, [r5, #0]
 8020810:	f004 f8c6 	bl	80249a0 <osMessageQueueGet>
			usart1_rx_deal(&usart1_rx);
 8020814:	4620      	mov	r0, r4
 8020816:	f006 fe1f 	bl	8027458 <usart1_rx_deal>
			memset(&usart1_rx, 0x00, sizeof(usart1_rx));
 802081a:	f44f 7281 	mov.w	r2, #258	; 0x102
 802081e:	2100      	movs	r1, #0
 8020820:	4620      	mov	r0, r4
 8020822:	f00a fc91 	bl	802b148 <memset>
		if (0 != osMessageQueueGetCount(myQueueUsart3Handle)) {
 8020826:	6830      	ldr	r0, [r6, #0]
 8020828:	f004 f8ea 	bl	8024a00 <osMessageQueueGetCount>
 802082c:	b170      	cbz	r0, 802084c <StartTask02+0x54>
			osMessageQueueGet(myQueueUsart3Handle, &usart3_rx, 0U, 0xff);
 802082e:	4918      	ldr	r1, [pc, #96]	; (8020890 <StartTask02+0x98>)
 8020830:	6830      	ldr	r0, [r6, #0]
 8020832:	2200      	movs	r2, #0
 8020834:	23ff      	movs	r3, #255	; 0xff
 8020836:	f004 f8b3 	bl	80249a0 <osMessageQueueGet>
			usart3_rx_deal(&usart3_rx);
 802083a:	4815      	ldr	r0, [pc, #84]	; (8020890 <StartTask02+0x98>)
 802083c:	f006 fe16 	bl	802746c <usart3_rx_deal>
			memset(&usart3_rx, 0x00, sizeof(usart3_rx));
 8020840:	4813      	ldr	r0, [pc, #76]	; (8020890 <StartTask02+0x98>)
 8020842:	f44f 7281 	mov.w	r2, #258	; 0x102
 8020846:	2100      	movs	r1, #0
 8020848:	f00a fc7e 	bl	802b148 <memset>
		}
		if (0 != osMessageQueueGetCount(myQueueUsart6Handle)) {
 802084c:	4f11      	ldr	r7, [pc, #68]	; (8020894 <StartTask02+0x9c>)
 802084e:	6838      	ldr	r0, [r7, #0]
 8020850:	f004 f8d6 	bl	8024a00 <osMessageQueueGetCount>
 8020854:	b170      	cbz	r0, 8020874 <StartTask02+0x7c>
			osMessageQueueGet(myQueueUsart6Handle, &usart6_rx, 0U, 0xff);
 8020856:	4910      	ldr	r1, [pc, #64]	; (8020898 <StartTask02+0xa0>)
 8020858:	6838      	ldr	r0, [r7, #0]
 802085a:	2200      	movs	r2, #0
 802085c:	23ff      	movs	r3, #255	; 0xff
 802085e:	f004 f89f 	bl	80249a0 <osMessageQueueGet>
			usart6_rx_deal(&usart6_rx);
 8020862:	480d      	ldr	r0, [pc, #52]	; (8020898 <StartTask02+0xa0>)
 8020864:	f006 fe06 	bl	8027474 <usart6_rx_deal>
			memset(&usart6_rx, 0x00, sizeof(usart6_rx));
 8020868:	480b      	ldr	r0, [pc, #44]	; (8020898 <StartTask02+0xa0>)
 802086a:	f44f 7281 	mov.w	r2, #258	; 0x102
 802086e:	2100      	movs	r1, #0
 8020870:	f00a fc6a 	bl	802b148 <memset>
		}
		osDelay(5);
 8020874:	2005      	movs	r0, #5
 8020876:	f003 feee 	bl	8024656 <osDelay>
		sysguard_feed(TASK2);
 802087a:	2001      	movs	r0, #1
 802087c:	f00a fbdc 	bl	802b038 <sysguard_feed>
		if (0 != osMessageQueueGetCount(myQueueUsart1Handle)) {
 8020880:	e7be      	b.n	8020800 <StartTask02+0x8>
 8020882:	bf00      	nop
 8020884:	2000de0c 	.word	0x2000de0c
 8020888:	2000e4e6 	.word	0x2000e4e6
 802088c:	2000de1c 	.word	0x2000de1c
 8020890:	2000ebf4 	.word	0x2000ebf4
 8020894:	2000de10 	.word	0x2000de10
 8020898:	2000e6ea 	.word	0x2000e6ea

0802089c <StartTask03>:
 * @brief Function implementing the myTask03 thread.
 * @param argument: Not used
 * @retval None
 */
/* USER CODE END Header_StartTask03 */
void StartTask03(void *argument) {
 802089c:	b508      	push	{r3, lr}
	/* USER CODE BEGIN StartTask03 */
	operate_ini();
 802089e:	f007 fcc5 	bl	802822c <operate_ini>
	/* Infinite loop */
	for (;;) {
		operate_ctrl();
 80208a2:	f009 f80d 	bl	80298c0 <operate_ctrl>
		keyqueue_deal();
 80208a6:	f008 fb71 	bl	8028f8c <keyqueue_deal>
		osDelay(5);
 80208aa:	2005      	movs	r0, #5
 80208ac:	f003 fed3 	bl	8024656 <osDelay>
		sysguard_feed(TASK3);
 80208b0:	2002      	movs	r0, #2
 80208b2:	f00a fbc1 	bl	802b038 <sysguard_feed>
	for (;;) {
 80208b6:	e7f4      	b.n	80208a2 <StartTask03+0x6>

080208b8 <StartTask04>:
 * @brief Function implementing the myTask04 thread.
 * @param argument: Not used
 * @retval None
 */
/* USER CODE END Header_StartTask04 */
void StartTask04(void *argument) {
 80208b8:	b508      	push	{r3, lr}
	/* USER CODE BEGIN StartTask04 */
	osDelay(10);
 80208ba:	200a      	movs	r0, #10
 80208bc:	f003 fecb 	bl	8024656 <osDelay>
	/* Infinite loop */
	for (;;) {
		switch (osthd_st.thd_num) {
 80208c0:	4c08      	ldr	r4, [pc, #32]	; (80208e4 <StartTask04+0x2c>)
 80208c2:	7823      	ldrb	r3, [r4, #0]
 80208c4:	2b02      	cmp	r3, #2
 80208c6:	d00a      	beq.n	80208de <StartTask04+0x26>
 80208c8:	2b03      	cmp	r3, #3
 80208ca:	d101      	bne.n	80208d0 <StartTask04+0x18>
		case STATE_RST:
			rst_deal();
 80208cc:	f008 fdcc 	bl	8029468 <rst_deal>
			break;
		case AUTO:
			sequence_deal();
			break;
		}
		osDelay(5);
 80208d0:	2005      	movs	r0, #5
 80208d2:	f003 fec0 	bl	8024656 <osDelay>
		sysguard_feed(TASK4);
 80208d6:	2003      	movs	r0, #3
 80208d8:	f00a fbae 	bl	802b038 <sysguard_feed>
		switch (osthd_st.thd_num) {
 80208dc:	e7f1      	b.n	80208c2 <StartTask04+0xa>
			sequence_deal();
 80208de:	f008 fedd 	bl	802969c <sequence_deal>
			break;
 80208e2:	e7f5      	b.n	80208d0 <StartTask04+0x18>
 80208e4:	2000ed70 	.word	0x2000ed70

080208e8 <StartTask05>:
 * @brief Function implementing the myTask05 thread.
 * @param argument: Not used
 * @retval None
 */
/* USER CODE END Header_StartTask05 */
void StartTask05(void *argument) {
 80208e8:	b508      	push	{r3, lr}
	/* USER CODE BEGIN StartTask05 */
	osDelay(10);
 80208ea:	200a      	movs	r0, #10
 80208ec:	f003 feb3 	bl	8024656 <osDelay>
	/* Infinite loop */
	for (;;) {
		sequence_assist();
 80208f0:	f007 fecc 	bl	802868c <sequence_assist>
		osDelay(5);
 80208f4:	2005      	movs	r0, #5
 80208f6:	f003 feae 	bl	8024656 <osDelay>
		sysguard_feed(TASK5);
 80208fa:	2004      	movs	r0, #4
 80208fc:	f00a fb9c 	bl	802b038 <sysguard_feed>
	for (;;) {
 8020900:	e7f6      	b.n	80208f0 <StartTask05+0x8>
	...

08020904 <StartTask06>:
 * @brief Function implementing the myTask06 thread.
 * @param argument: Not used
 * @retval None
 */
/* USER CODE END Header_StartTask06 */
void StartTask06(void *argument) {
 8020904:	b5f8      	push	{r3, r4, r5, r6, r7, lr}
	static uint16_t cnt3 = 0;
	static uint16_t cnt4 = 0;
	/* Infinite loop */
	for (;;) {
		/*25ms*/
		if (cnt0 == 0) {
 8020906:	4c33      	ldr	r4, [pc, #204]	; (80209d4 <StartTask06+0xd0>)
			softTimer_Update();
		}
		cnt0++;
		cnt0 %= 5;
 8020908:	2605      	movs	r6, #5
 802090a:	4625      	mov	r5, r4
		if (cnt0 == 0) {
 802090c:	8823      	ldrh	r3, [r4, #0]
 802090e:	b90b      	cbnz	r3, 8020914 <StartTask06+0x10>
			softTimer_Update();
 8020910:	f00a fb36 	bl	802af80 <softTimer_Update>
		cnt0++;
 8020914:	882b      	ldrh	r3, [r5, #0]
		if (cnt1 == 0) {
 8020916:	4f30      	ldr	r7, [pc, #192]	; (80209d8 <StartTask06+0xd4>)
		cnt0++;
 8020918:	3301      	adds	r3, #1
		cnt0 %= 5;
 802091a:	b29b      	uxth	r3, r3
 802091c:	fbb3 f2f6 	udiv	r2, r3, r6
 8020920:	eb02 0282 	add.w	r2, r2, r2, lsl #2
 8020924:	1a9b      	subs	r3, r3, r2
 8020926:	802b      	strh	r3, [r5, #0]
		if (cnt1 == 0) {
 8020928:	883b      	ldrh	r3, [r7, #0]
 802092a:	b90b      	cbnz	r3, 8020930 <StartTask06+0x2c>
			input_pic();
 802092c:	f006 fa7a 	bl	8026e24 <input_pic>
		}
		cnt1++;
 8020930:	883b      	ldrh	r3, [r7, #0]
 8020932:	3301      	adds	r3, #1
		cnt1 %= 20;
 8020934:	b29b      	uxth	r3, r3
 8020936:	2114      	movs	r1, #20
 8020938:	fbb3 f2f1 	udiv	r2, r3, r1
 802093c:	fb01 3312 	mls	r3, r1, r2, r3
 8020940:	803b      	strh	r3, [r7, #0]
		/*30ms*/
		if (cnt2 == 0) {
 8020942:	4f26      	ldr	r7, [pc, #152]	; (80209dc <StartTask06+0xd8>)
 8020944:	883b      	ldrh	r3, [r7, #0]
 8020946:	b9b3      	cbnz	r3, 8020976 <StartTask06+0x72>
			rst_check();
 8020948:	f006 fb84 	bl	8027054 <rst_check>
			/*********************/
			dis_hard();
 802094c:	f006 ffd6 	bl	80278fc <dis_hard>
			/*********************/
			clean_check();
 8020950:	f009 f992 	bl	8029c78 <clean_check>
			dis_warn();
 8020954:	f006 ff26 	bl	80277a4 <dis_warn>
			/*********************/
			dis_double();
 8020958:	f007 f828 	bl	80279ac <dis_double>
			/*********************/
			dis_tips();
 802095c:	f007 f930 	bl	8027bc0 <dis_tips>
			/*********************/
			warn_out();
 8020960:	f007 f9a6 	bl	8027cb0 <warn_out>
			/*********************/
			for (uint8_t j = 0; j < WARN_NUM; j++) {
 8020964:	4a1e      	ldr	r2, [pc, #120]	; (80209e0 <StartTask06+0xdc>)
			warn_out();
 8020966:	231d      	movs	r3, #29
				log_para_st.tip_tab_bk[j] = log_para_st.tip_tab[j];
 8020968:	3b01      	subs	r3, #1
 802096a:	f812 1b01 	ldrb.w	r1, [r2], #1
 802096e:	7711      	strb	r1, [r2, #28]
			for (uint8_t j = 0; j < WARN_NUM; j++) {
 8020970:	f013 03ff 	ands.w	r3, r3, #255	; 0xff
 8020974:	d1f8      	bne.n	8020968 <StartTask06+0x64>
			}
		}
		cnt2++;
 8020976:	883b      	ldrh	r3, [r7, #0]
 8020978:	3301      	adds	r3, #1
		cnt2 %= 6;
 802097a:	b29b      	uxth	r3, r3
 802097c:	2106      	movs	r1, #6
 802097e:	fbb3 f2f1 	udiv	r2, r3, r1
 8020982:	fb01 3312 	mls	r3, r1, r2, r3
 8020986:	803b      	strh	r3, [r7, #0]
		/*200ms*/
		if (cnt3 == 0) {
 8020988:	4f16      	ldr	r7, [pc, #88]	; (80209e4 <StartTask06+0xe0>)
 802098a:	883b      	ldrh	r3, [r7, #0]
 802098c:	b90b      	cbnz	r3, 8020992 <StartTask06+0x8e>
			dis_fst_page();
 802098e:	f006 fd97 	bl	80274c0 <dis_fst_page>
		}
		cnt3++;
 8020992:	883b      	ldrh	r3, [r7, #0]
 8020994:	3301      	adds	r3, #1
		cnt3 %= 40;
 8020996:	b29b      	uxth	r3, r3
 8020998:	2128      	movs	r1, #40	; 0x28
 802099a:	fbb3 f2f1 	udiv	r2, r3, r1
 802099e:	fb01 3312 	mls	r3, r1, r2, r3
 80209a2:	803b      	strh	r3, [r7, #0]
		if (cnt4 == 0) {
 80209a4:	4f10      	ldr	r7, [pc, #64]	; (80209e8 <StartTask06+0xe4>)
 80209a6:	883b      	ldrh	r3, [r7, #0]
 80209a8:	b91b      	cbnz	r3, 80209b2 <StartTask06+0xae>
			run_time();
 80209aa:	f007 f995 	bl	8027cd8 <run_time>
			Eeprom_update();
 80209ae:	f007 fb45 	bl	802803c <Eeprom_update>
		}
		cnt4++;
 80209b2:	883b      	ldrh	r3, [r7, #0]
 80209b4:	3301      	adds	r3, #1
		cnt4 %= 200;
 80209b6:	21c8      	movs	r1, #200	; 0xc8
 80209b8:	b29b      	uxth	r3, r3
		osDelay(5);
 80209ba:	2005      	movs	r0, #5
		cnt4 %= 200;
 80209bc:	fbb3 f2f1 	udiv	r2, r3, r1
 80209c0:	fb01 3312 	mls	r3, r1, r2, r3
 80209c4:	803b      	strh	r3, [r7, #0]
		osDelay(5);
 80209c6:	f003 fe46 	bl	8024656 <osDelay>
		sysguard_feed(TASK6);
 80209ca:	2005      	movs	r0, #5
 80209cc:	f00a fb34 	bl	802b038 <sysguard_feed>
		if (cnt0 == 0) {
 80209d0:	e79c      	b.n	802090c <StartTask06+0x8>
 80209d2:	bf00      	nop
 80209d4:	200001d8 	.word	0x200001d8
 80209d8:	200001dc 	.word	0x200001dc
 80209dc:	200001de 	.word	0x200001de
 80209e0:	2000ecf9 	.word	0x2000ecf9
 80209e4:	200001e2 	.word	0x200001e2
 80209e8:	200001e6 	.word	0x200001e6

080209ec <vApplicationIdleHook>:
}
 80209ec:	4770      	bx	lr

080209ee <vApplicationTickHook>:
 80209ee:	4770      	bx	lr

080209f0 <vApplicationMallocFailedHook>:
 80209f0:	4770      	bx	lr

080209f2 <vApplicationDaemonTaskStartupHook>:
 80209f2:	4770      	bx	lr

080209f4 <MX_FREERTOS_Init>:
void MX_FREERTOS_Init(void) {
 80209f4:	b508      	push	{r3, lr}
	myMutex01Handle = osMutexNew(&myMutex01_attributes);
 80209f6:	483d      	ldr	r0, [pc, #244]	; (8020aec <MX_FREERTOS_Init+0xf8>)
 80209f8:	f003 fe4a 	bl	8024690 <osMutexNew>
 80209fc:	4b3c      	ldr	r3, [pc, #240]	; (8020af0 <MX_FREERTOS_Init+0xfc>)
 80209fe:	6018      	str	r0, [r3, #0]
	myMutex02Handle = osMutexNew(&myMutex02_attributes);
 8020a00:	483c      	ldr	r0, [pc, #240]	; (8020af4 <MX_FREERTOS_Init+0x100>)
 8020a02:	f003 fe45 	bl	8024690 <osMutexNew>
 8020a06:	4b3c      	ldr	r3, [pc, #240]	; (8020af8 <MX_FREERTOS_Init+0x104>)
	myBinarySem01Handle = osSemaphoreNew(1, 1, &myBinarySem01_attributes);
 8020a08:	4a3c      	ldr	r2, [pc, #240]	; (8020afc <MX_FREERTOS_Init+0x108>)
	myMutex02Handle = osMutexNew(&myMutex02_attributes);
 8020a0a:	6018      	str	r0, [r3, #0]
	myBinarySem01Handle = osSemaphoreNew(1, 1, &myBinarySem01_attributes);
 8020a0c:	2101      	movs	r1, #1
 8020a0e:	4608      	mov	r0, r1
 8020a10:	f003 feb3 	bl	802477a <osSemaphoreNew>
 8020a14:	4b3a      	ldr	r3, [pc, #232]	; (8020b00 <MX_FREERTOS_Init+0x10c>)
	myBinarySem02Handle = osSemaphoreNew(1, 1, &myBinarySem02_attributes);
 8020a16:	4a3b      	ldr	r2, [pc, #236]	; (8020b04 <MX_FREERTOS_Init+0x110>)
	myBinarySem01Handle = osSemaphoreNew(1, 1, &myBinarySem01_attributes);
 8020a18:	6018      	str	r0, [r3, #0]
	myBinarySem02Handle = osSemaphoreNew(1, 1, &myBinarySem02_attributes);
 8020a1a:	2101      	movs	r1, #1
 8020a1c:	4608      	mov	r0, r1
 8020a1e:	f003 feac 	bl	802477a <osSemaphoreNew>
 8020a22:	4b39      	ldr	r3, [pc, #228]	; (8020b08 <MX_FREERTOS_Init+0x114>)
	myBinarySem03Handle = osSemaphoreNew(1, 1, &myBinarySem03_attributes);
 8020a24:	4a39      	ldr	r2, [pc, #228]	; (8020b0c <MX_FREERTOS_Init+0x118>)
	myBinarySem02Handle = osSemaphoreNew(1, 1, &myBinarySem02_attributes);
 8020a26:	6018      	str	r0, [r3, #0]
	myBinarySem03Handle = osSemaphoreNew(1, 1, &myBinarySem03_attributes);
 8020a28:	2101      	movs	r1, #1
 8020a2a:	4608      	mov	r0, r1
 8020a2c:	f003 fea5 	bl	802477a <osSemaphoreNew>
 8020a30:	4b37      	ldr	r3, [pc, #220]	; (8020b10 <MX_FREERTOS_Init+0x11c>)
	myBinarySem04Handle = osSemaphoreNew(1, 1, &myBinarySem04_attributes);
 8020a32:	4a38      	ldr	r2, [pc, #224]	; (8020b14 <MX_FREERTOS_Init+0x120>)
	myBinarySem03Handle = osSemaphoreNew(1, 1, &myBinarySem03_attributes);
 8020a34:	6018      	str	r0, [r3, #0]
	myBinarySem04Handle = osSemaphoreNew(1, 1, &myBinarySem04_attributes);
 8020a36:	2101      	movs	r1, #1
 8020a38:	4608      	mov	r0, r1
 8020a3a:	f003 fe9e 	bl	802477a <osSemaphoreNew>
 8020a3e:	4b36      	ldr	r3, [pc, #216]	; (8020b18 <MX_FREERTOS_Init+0x124>)
	myBinarySem05Handle = osSemaphoreNew(1, 1, &myBinarySem05_attributes);
 8020a40:	4a36      	ldr	r2, [pc, #216]	; (8020b1c <MX_FREERTOS_Init+0x128>)
	myBinarySem04Handle = osSemaphoreNew(1, 1, &myBinarySem04_attributes);
 8020a42:	6018      	str	r0, [r3, #0]
	myBinarySem05Handle = osSemaphoreNew(1, 1, &myBinarySem05_attributes);
 8020a44:	2101      	movs	r1, #1
 8020a46:	4608      	mov	r0, r1
 8020a48:	f003 fe97 	bl	802477a <osSemaphoreNew>
 8020a4c:	4b34      	ldr	r3, [pc, #208]	; (8020b20 <MX_FREERTOS_Init+0x12c>)
	myQueueUsart1Handle = osMessageQueueNew(4, sizeof(USART1_RECEIVETYPE),
 8020a4e:	4a35      	ldr	r2, [pc, #212]	; (8020b24 <MX_FREERTOS_Init+0x130>)
	myBinarySem05Handle = osSemaphoreNew(1, 1, &myBinarySem05_attributes);
 8020a50:	6018      	str	r0, [r3, #0]
	myQueueUsart1Handle = osMessageQueueNew(4, sizeof(USART1_RECEIVETYPE),
 8020a52:	f44f 7181 	mov.w	r1, #258	; 0x102
 8020a56:	2004      	movs	r0, #4
 8020a58:	f003 ff37 	bl	80248ca <osMessageQueueNew>
 8020a5c:	4b32      	ldr	r3, [pc, #200]	; (8020b28 <MX_FREERTOS_Init+0x134>)
	myQueueUsart3Handle = osMessageQueueNew(8, sizeof(USART3_RECEIVETYPE),
 8020a5e:	4a33      	ldr	r2, [pc, #204]	; (8020b2c <MX_FREERTOS_Init+0x138>)
	myQueueUsart1Handle = osMessageQueueNew(4, sizeof(USART1_RECEIVETYPE),
 8020a60:	6018      	str	r0, [r3, #0]
	myQueueUsart3Handle = osMessageQueueNew(8, sizeof(USART3_RECEIVETYPE),
 8020a62:	f44f 7181 	mov.w	r1, #258	; 0x102
 8020a66:	2008      	movs	r0, #8
 8020a68:	f003 ff2f 	bl	80248ca <osMessageQueueNew>
 8020a6c:	4b30      	ldr	r3, [pc, #192]	; (8020b30 <MX_FREERTOS_Init+0x13c>)
	myQueueUsart6Handle = osMessageQueueNew(4, sizeof(USART6_RECEIVETYPE),
 8020a6e:	4a31      	ldr	r2, [pc, #196]	; (8020b34 <MX_FREERTOS_Init+0x140>)
	myQueueUsart3Handle = osMessageQueueNew(8, sizeof(USART3_RECEIVETYPE),
 8020a70:	6018      	str	r0, [r3, #0]
	myQueueUsart6Handle = osMessageQueueNew(4, sizeof(USART6_RECEIVETYPE),
 8020a72:	f44f 7181 	mov.w	r1, #258	; 0x102
 8020a76:	2004      	movs	r0, #4
 8020a78:	f003 ff27 	bl	80248ca <osMessageQueueNew>
 8020a7c:	4b2e      	ldr	r3, [pc, #184]	; (8020b38 <MX_FREERTOS_Init+0x144>)
	defaultTaskHandle = osThreadNew(StartDefaultTask, NULL,
 8020a7e:	4a2f      	ldr	r2, [pc, #188]	; (8020b3c <MX_FREERTOS_Init+0x148>)
	myQueueUsart6Handle = osMessageQueueNew(4, sizeof(USART6_RECEIVETYPE),
 8020a80:	6018      	str	r0, [r3, #0]
	defaultTaskHandle = osThreadNew(StartDefaultTask, NULL,
 8020a82:	2100      	movs	r1, #0
 8020a84:	482e      	ldr	r0, [pc, #184]	; (8020b40 <MX_FREERTOS_Init+0x14c>)
 8020a86:	f003 fd67 	bl	8024558 <osThreadNew>
 8020a8a:	4b2e      	ldr	r3, [pc, #184]	; (8020b44 <MX_FREERTOS_Init+0x150>)
	myTask02Handle = osThreadNew(StartTask02, NULL, &myTask02_attributes);
 8020a8c:	4a2e      	ldr	r2, [pc, #184]	; (8020b48 <MX_FREERTOS_Init+0x154>)
	defaultTaskHandle = osThreadNew(StartDefaultTask, NULL,
 8020a8e:	6018      	str	r0, [r3, #0]
	myTask02Handle = osThreadNew(StartTask02, NULL, &myTask02_attributes);
 8020a90:	2100      	movs	r1, #0
 8020a92:	482e      	ldr	r0, [pc, #184]	; (8020b4c <MX_FREERTOS_Init+0x158>)
 8020a94:	f003 fd60 	bl	8024558 <osThreadNew>
 8020a98:	4b2d      	ldr	r3, [pc, #180]	; (8020b50 <MX_FREERTOS_Init+0x15c>)
	myTask03Handle = osThreadNew(StartTask03, NULL, &myTask03_attributes);
 8020a9a:	4a2e      	ldr	r2, [pc, #184]	; (8020b54 <MX_FREERTOS_Init+0x160>)
	myTask02Handle = osThreadNew(StartTask02, NULL, &myTask02_attributes);
 8020a9c:	6018      	str	r0, [r3, #0]
	myTask03Handle = osThreadNew(StartTask03, NULL, &myTask03_attributes);
 8020a9e:	2100      	movs	r1, #0
 8020aa0:	482d      	ldr	r0, [pc, #180]	; (8020b58 <MX_FREERTOS_Init+0x164>)
 8020aa2:	f003 fd59 	bl	8024558 <osThreadNew>
 8020aa6:	4b2d      	ldr	r3, [pc, #180]	; (8020b5c <MX_FREERTOS_Init+0x168>)
	myTask04Handle = osThreadNew(StartTask04, NULL, &myTask04_attributes);
 8020aa8:	4a2d      	ldr	r2, [pc, #180]	; (8020b60 <MX_FREERTOS_Init+0x16c>)
	myTask03Handle = osThreadNew(StartTask03, NULL, &myTask03_attributes);
 8020aaa:	6018      	str	r0, [r3, #0]
	myTask04Handle = osThreadNew(StartTask04, NULL, &myTask04_attributes);
 8020aac:	2100      	movs	r1, #0
 8020aae:	482d      	ldr	r0, [pc, #180]	; (8020b64 <MX_FREERTOS_Init+0x170>)
 8020ab0:	f003 fd52 	bl	8024558 <osThreadNew>
 8020ab4:	4b2c      	ldr	r3, [pc, #176]	; (8020b68 <MX_FREERTOS_Init+0x174>)
	myTask05Handle = osThreadNew(StartTask05, NULL, &myTask05_attributes);
 8020ab6:	4a2d      	ldr	r2, [pc, #180]	; (8020b6c <MX_FREERTOS_Init+0x178>)
	myTask04Handle = osThreadNew(StartTask04, NULL, &myTask04_attributes);
 8020ab8:	6018      	str	r0, [r3, #0]
	myTask05Handle = osThreadNew(StartTask05, NULL, &myTask05_attributes);
 8020aba:	2100      	movs	r1, #0
 8020abc:	482c      	ldr	r0, [pc, #176]	; (8020b70 <MX_FREERTOS_Init+0x17c>)
 8020abe:	f003 fd4b 	bl	8024558 <osThreadNew>
 8020ac2:	4b2c      	ldr	r3, [pc, #176]	; (8020b74 <MX_FREERTOS_Init+0x180>)
	myTask06Handle = osThreadNew(StartTask06, NULL, &myTask06_attributes);
 8020ac4:	4a2c      	ldr	r2, [pc, #176]	; (8020b78 <MX_FREERTOS_Init+0x184>)
	myTask05Handle = osThreadNew(StartTask05, NULL, &myTask05_attributes);
 8020ac6:	6018      	str	r0, [r3, #0]
	myTask06Handle = osThreadNew(StartTask06, NULL, &myTask06_attributes);
 8020ac8:	2100      	movs	r1, #0
 8020aca:	482c      	ldr	r0, [pc, #176]	; (8020b7c <MX_FREERTOS_Init+0x188>)
 8020acc:	f003 fd44 	bl	8024558 <osThreadNew>
 8020ad0:	4b2b      	ldr	r3, [pc, #172]	; (8020b80 <MX_FREERTOS_Init+0x18c>)
 8020ad2:	6018      	str	r0, [r3, #0]
	myEvent01Handle = osEventFlagsNew(&myEvent01_attributes);
 8020ad4:	482b      	ldr	r0, [pc, #172]	; (8020b84 <MX_FREERTOS_Init+0x190>)
 8020ad6:	f003 fdca 	bl	802466e <osEventFlagsNew>
 8020ada:	4b2b      	ldr	r3, [pc, #172]	; (8020b88 <MX_FREERTOS_Init+0x194>)
 8020adc:	6018      	str	r0, [r3, #0]
	myEvent02Handle = osEventFlagsNew(&myEvent02_attributes);
 8020ade:	482b      	ldr	r0, [pc, #172]	; (8020b8c <MX_FREERTOS_Init+0x198>)
 8020ae0:	f003 fdc5 	bl	802466e <osEventFlagsNew>
 8020ae4:	4b2a      	ldr	r3, [pc, #168]	; (8020b90 <MX_FREERTOS_Init+0x19c>)
 8020ae6:	6018      	str	r0, [r3, #0]
}
 8020ae8:	bd08      	pop	{r3, pc}
 8020aea:	bf00      	nop
 8020aec:	0802bbe8 	.word	0x0802bbe8
 8020af0:	2000de14 	.word	0x2000de14
 8020af4:	0802bbf8 	.word	0x0802bbf8
 8020af8:	2000de18 	.word	0x2000de18
 8020afc:	0802bb78 	.word	0x0802bb78
 8020b00:	2000de04 	.word	0x2000de04
 8020b04:	0802bb88 	.word	0x0802bb88
 8020b08:	2000ddfc 	.word	0x2000ddfc
 8020b0c:	0802bb98 	.word	0x0802bb98
 8020b10:	2000dddc 	.word	0x2000dddc
 8020b14:	0802bba8 	.word	0x0802bba8
 8020b18:	2000de24 	.word	0x2000de24
 8020b1c:	0802bbb8 	.word	0x0802bbb8
 8020b20:	2000ddcc 	.word	0x2000ddcc
 8020b24:	0802bc08 	.word	0x0802bc08
 8020b28:	2000de0c 	.word	0x2000de0c
 8020b2c:	0802bc20 	.word	0x0802bc20
 8020b30:	2000de1c 	.word	0x2000de1c
 8020b34:	0802bc38 	.word	0x0802bc38
 8020b38:	2000de10 	.word	0x2000de10
 8020b3c:	0802bb54 	.word	0x0802bb54
 8020b40:	080206f1 	.word	0x080206f1
 8020b44:	2000ddc8 	.word	0x2000ddc8
 8020b48:	0802bc50 	.word	0x0802bc50
 8020b4c:	080207f9 	.word	0x080207f9
 8020b50:	2000de00 	.word	0x2000de00
 8020b54:	0802bc74 	.word	0x0802bc74
 8020b58:	0802089d 	.word	0x0802089d
 8020b5c:	2000de08 	.word	0x2000de08
 8020b60:	0802bc98 	.word	0x0802bc98
 8020b64:	080208b9 	.word	0x080208b9
 8020b68:	2000ddd8 	.word	0x2000ddd8
 8020b6c:	0802bcbc 	.word	0x0802bcbc
 8020b70:	080208e9 	.word	0x080208e9
 8020b74:	2000ddd4 	.word	0x2000ddd4
 8020b78:	0802bce0 	.word	0x0802bce0
 8020b7c:	08020905 	.word	0x08020905
 8020b80:	2000de20 	.word	0x2000de20
 8020b84:	0802bbc8 	.word	0x0802bbc8
 8020b88:	2000ddd0 	.word	0x2000ddd0
 8020b8c:	0802bbd8 	.word	0x0802bbd8
 8020b90:	2000ddf8 	.word	0x2000ddf8

08020b94 <MX_GPIO_Init>:
        * EXTI
        * Free pins are configured automatically as Analog (this feature is enabled through
        * the Code Generation settings)
*/
void MX_GPIO_Init(void)
{
 8020b94:	e92d 41f0 	stmdb	sp!, {r4, r5, r6, r7, r8, lr}

  GPIO_InitTypeDef GPIO_InitStruct = {0};
 8020b98:	2214      	movs	r2, #20
{
 8020b9a:	b08a      	sub	sp, #40	; 0x28
  GPIO_InitTypeDef GPIO_InitStruct = {0};
 8020b9c:	eb0d 0002 	add.w	r0, sp, r2
 8020ba0:	2100      	movs	r1, #0
 8020ba2:	f00a fad1 	bl	802b148 <memset>

  /* GPIO Ports Clock Enable */
  __HAL_RCC_GPIOC_CLK_ENABLE();
 8020ba6:	2400      	movs	r4, #0
 8020ba8:	4b45      	ldr	r3, [pc, #276]	; (8020cc0 <MX_GPIO_Init+0x12c>)
 8020baa:	9400      	str	r4, [sp, #0]
 8020bac:	6b1a      	ldr	r2, [r3, #48]	; 0x30
  __HAL_RCC_GPIOA_CLK_ENABLE();
  __HAL_RCC_GPIOB_CLK_ENABLE();
  __HAL_RCC_GPIOD_CLK_ENABLE();

  /*Configure GPIO pin Output Level */
  HAL_GPIO_WritePin(GPIOC, KA10_OILPUMP_Pin|KA11_BAGFORWARD_Pin|KA12_BAGREVERSE_Pin|KA1_Pin
 8020bae:	4e45      	ldr	r6, [pc, #276]	; (8020cc4 <MX_GPIO_Init+0x130>)
                          |KA2_Pin|KA3_Pin|KA4_Pin|BELL_Pin, GPIO_PIN_RESET);

  /*Configure GPIO pin Output Level */
  HAL_GPIO_WritePin(GPIOA, KA5_Pin|KA6_Pin|KA7_Pin|KA8_Pin
 8020bb0:	4d45      	ldr	r5, [pc, #276]	; (8020cc8 <MX_GPIO_Init+0x134>)
                          |KA9_Pin|KA_BK1_Pin|KA_BK2_Pin|KA_BK3_Pin, GPIO_PIN_RESET);

  /*Configure GPIO pin Output Level */
  HAL_GPIO_WritePin(GPIOB, LED_RED_Pin|LED_GREEN_Pin|LED_YELLOW_Pin|RS485_RW6_Pin, GPIO_PIN_RESET);
 8020bb2:	4f46      	ldr	r7, [pc, #280]	; (8020ccc <MX_GPIO_Init+0x138>)
  __HAL_RCC_GPIOC_CLK_ENABLE();
 8020bb4:	f042 0204 	orr.w	r2, r2, #4
 8020bb8:	631a      	str	r2, [r3, #48]	; 0x30
 8020bba:	6b1a      	ldr	r2, [r3, #48]	; 0x30
 8020bbc:	f002 0204 	and.w	r2, r2, #4
 8020bc0:	9200      	str	r2, [sp, #0]
 8020bc2:	9a00      	ldr	r2, [sp, #0]
  __HAL_RCC_GPIOH_CLK_ENABLE();
 8020bc4:	9401      	str	r4, [sp, #4]
 8020bc6:	6b1a      	ldr	r2, [r3, #48]	; 0x30
 8020bc8:	f042 0280 	orr.w	r2, r2, #128	; 0x80
 8020bcc:	631a      	str	r2, [r3, #48]	; 0x30
 8020bce:	6b1a      	ldr	r2, [r3, #48]	; 0x30
 8020bd0:	f002 0280 	and.w	r2, r2, #128	; 0x80
 8020bd4:	9201      	str	r2, [sp, #4]
 8020bd6:	9a01      	ldr	r2, [sp, #4]
  __HAL_RCC_GPIOA_CLK_ENABLE();
 8020bd8:	9402      	str	r4, [sp, #8]
 8020bda:	6b1a      	ldr	r2, [r3, #48]	; 0x30
 8020bdc:	f042 0201 	orr.w	r2, r2, #1
 8020be0:	631a      	str	r2, [r3, #48]	; 0x30
 8020be2:	6b1a      	ldr	r2, [r3, #48]	; 0x30
 8020be4:	f002 0201 	and.w	r2, r2, #1
 8020be8:	9202      	str	r2, [sp, #8]
 8020bea:	9a02      	ldr	r2, [sp, #8]
  __HAL_RCC_GPIOB_CLK_ENABLE();
 8020bec:	9403      	str	r4, [sp, #12]
 8020bee:	6b1a      	ldr	r2, [r3, #48]	; 0x30
 8020bf0:	f042 0202 	orr.w	r2, r2, #2
 8020bf4:	631a      	str	r2, [r3, #48]	; 0x30
 8020bf6:	6b1a      	ldr	r2, [r3, #48]	; 0x30
 8020bf8:	f002 0202 	and.w	r2, r2, #2
 8020bfc:	9203      	str	r2, [sp, #12]
 8020bfe:	9a03      	ldr	r2, [sp, #12]
  __HAL_RCC_GPIOD_CLK_ENABLE();
 8020c00:	9404      	str	r4, [sp, #16]
 8020c02:	6b1a      	ldr	r2, [r3, #48]	; 0x30
 8020c04:	f042 0208 	orr.w	r2, r2, #8
 8020c08:	631a      	str	r2, [r3, #48]	; 0x30
 8020c0a:	6b1b      	ldr	r3, [r3, #48]	; 0x30
 8020c0c:	f003 0308 	and.w	r3, r3, #8
 8020c10:	9304      	str	r3, [sp, #16]
  HAL_GPIO_WritePin(GPIOC, KA10_OILPUMP_Pin|KA11_BAGFORWARD_Pin|KA12_BAGREVERSE_Pin|KA1_Pin
 8020c12:	4622      	mov	r2, r4
 8020c14:	4630      	mov	r0, r6
 8020c16:	f24e 011f 	movw	r1, #57375	; 0xe01f
  __HAL_RCC_GPIOD_CLK_ENABLE();
 8020c1a:	9b04      	ldr	r3, [sp, #16]
  HAL_GPIO_WritePin(GPIOC, KA10_OILPUMP_Pin|KA11_BAGFORWARD_Pin|KA12_BAGREVERSE_Pin|KA1_Pin
 8020c1c:	f001 fc70 	bl	8022500 <HAL_GPIO_WritePin>
  HAL_GPIO_WritePin(GPIOA, KA5_Pin|KA6_Pin|KA7_Pin|KA8_Pin
 8020c20:	4622      	mov	r2, r4
 8020c22:	4628      	mov	r0, r5
 8020c24:	21ff      	movs	r1, #255	; 0xff
 8020c26:	f001 fc6b 	bl	8022500 <HAL_GPIO_WritePin>
  HAL_GPIO_WritePin(GPIOB, LED_RED_Pin|LED_GREEN_Pin|LED_YELLOW_Pin|RS485_RW6_Pin, GPIO_PIN_RESET);
 8020c2a:	4622      	mov	r2, r4
 8020c2c:	4638      	mov	r0, r7
 8020c2e:	f248 0107 	movw	r1, #32775	; 0x8007
 8020c32:	f001 fc65 	bl	8022500 <HAL_GPIO_WritePin>

  /*Configure GPIO pins : PCPin PCPin PCPin PCPin
                           PCPin PCPin PCPin PCPin */
  GPIO_InitStruct.Pin = KA10_OILPUMP_Pin|KA11_BAGFORWARD_Pin|KA12_BAGREVERSE_Pin|KA1_Pin
                          |KA2_Pin|KA3_Pin|KA4_Pin|BELL_Pin;
  GPIO_InitStruct.Mode = GPIO_MODE_OUTPUT_PP;
 8020c36:	f04f 0801 	mov.w	r8, #1
 8020c3a:	f24e 031f 	movw	r3, #57375	; 0xe01f
  GPIO_InitStruct.Pull = GPIO_NOPULL;
  GPIO_InitStruct.Speed = GPIO_SPEED_FREQ_LOW;
  HAL_GPIO_Init(GPIOC, &GPIO_InitStruct);
 8020c3e:	a905      	add	r1, sp, #20
 8020c40:	4630      	mov	r0, r6
  GPIO_InitStruct.Mode = GPIO_MODE_OUTPUT_PP;
 8020c42:	e9cd 3805 	strd	r3, r8, [sp, #20]
  GPIO_InitStruct.Speed = GPIO_SPEED_FREQ_LOW;
 8020c46:	e9cd 4407 	strd	r4, r4, [sp, #28]
  HAL_GPIO_Init(GPIOC, &GPIO_InitStruct);
 8020c4a:	f001 fb1f 	bl	802228c <HAL_GPIO_Init>

  /*Configure GPIO pins : PAPin PAPin PAPin PAPin
                           PAPin PAPin PAPin PAPin */
  GPIO_InitStruct.Pin = KA5_Pin|KA6_Pin|KA7_Pin|KA8_Pin
 8020c4e:	23ff      	movs	r3, #255	; 0xff
                          |KA9_Pin|KA_BK1_Pin|KA_BK2_Pin|KA_BK3_Pin;
  GPIO_InitStruct.Mode = GPIO_MODE_OUTPUT_PP;
  GPIO_InitStruct.Pull = GPIO_NOPULL;
  GPIO_InitStruct.Speed = GPIO_SPEED_FREQ_LOW;
  HAL_GPIO_Init(GPIOA, &GPIO_InitStruct);
 8020c50:	a905      	add	r1, sp, #20
 8020c52:	4628      	mov	r0, r5
  GPIO_InitStruct.Mode = GPIO_MODE_OUTPUT_PP;
 8020c54:	e9cd 3805 	strd	r3, r8, [sp, #20]
  GPIO_InitStruct.Speed = GPIO_SPEED_FREQ_LOW;
 8020c58:	e9cd 4407 	strd	r4, r4, [sp, #28]
  HAL_GPIO_Init(GPIOA, &GPIO_InitStruct);
 8020c5c:	f001 fb16 	bl	802228c <HAL_GPIO_Init>

  /*Configure GPIO pins : PBPin PBPin PBPin PBPin */
  GPIO_InitStruct.Pin = LED_RED_Pin|LED_GREEN_Pin|LED_YELLOW_Pin|RS485_RW6_Pin;
 8020c60:	f248 0307 	movw	r3, #32775	; 0x8007
  GPIO_InitStruct.Mode = GPIO_MODE_OUTPUT_PP;
  GPIO_InitStruct.Pull = GPIO_NOPULL;
  GPIO_InitStruct.Speed = GPIO_SPEED_FREQ_LOW;
  HAL_GPIO_Init(GPIOB, &GPIO_InitStruct);
 8020c64:	a905      	add	r1, sp, #20
 8020c66:	4638      	mov	r0, r7
  GPIO_InitStruct.Mode = GPIO_MODE_OUTPUT_PP;
 8020c68:	e9cd 3805 	strd	r3, r8, [sp, #20]
  GPIO_InitStruct.Speed = GPIO_SPEED_FREQ_LOW;
 8020c6c:	e9cd 4407 	strd	r4, r4, [sp, #28]
  HAL_GPIO_Init(GPIOB, &GPIO_InitStruct);
 8020c70:	f001 fb0c 	bl	802228c <HAL_GPIO_Init>

  /*Configure GPIO pins : PBPin PBPin PBPin PBPin
                           PBPin PBPin PBPin PBPin
                           PBPin PBPin */
  GPIO_InitStruct.Pin = D_BK2_Pin|D_BK1_Pin|D_CATCHBAG_DOWN_Pin|I_MOTOROVERLOAD_Pin
 8020c74:	f247 33f8 	movw	r3, #29688	; 0x73f8
                          |I_OILPUMPOVERLOAD_Pin|K_AUTO_Pin|K_HAND_Pin|K_STOP_Pin
                          |K_AUTORUN_Pin|K_EMERGENCY_Pin;
  GPIO_InitStruct.Mode = GPIO_MODE_INPUT;
  GPIO_InitStruct.Pull = GPIO_NOPULL;
  HAL_GPIO_Init(GPIOB, &GPIO_InitStruct);
 8020c78:	a905      	add	r1, sp, #20
 8020c7a:	4638      	mov	r0, r7
  GPIO_InitStruct.Mode = GPIO_MODE_INPUT;
 8020c7c:	e9cd 3405 	strd	r3, r4, [sp, #20]
  GPIO_InitStruct.Pull = GPIO_NOPULL;
 8020c80:	9407      	str	r4, [sp, #28]
  HAL_GPIO_Init(GPIOB, &GPIO_InitStruct);
 8020c82:	f001 fb03 	bl	802228c <HAL_GPIO_Init>

  /*Configure GPIO pins : PCPin PCPin PCPin PCPin
                           PCPin */
  GPIO_InitStruct.Pin = D_CATCHBAG_UP_Pin|D_PUSHBAG_RIGHT_Pin|D_PRESSHEAD_UP_Pin|D_TURNBAG_DOWN_Pin
 8020c86:	f44f 53f8 	mov.w	r3, #7936	; 0x1f00
                          |D_TURNBAG_UP_Pin;
  GPIO_InitStruct.Mode = GPIO_MODE_INPUT;
  GPIO_InitStruct.Pull = GPIO_NOPULL;
  HAL_GPIO_Init(GPIOC, &GPIO_InitStruct);
 8020c8a:	a905      	add	r1, sp, #20
 8020c8c:	4630      	mov	r0, r6
  GPIO_InitStruct.Mode = GPIO_MODE_INPUT;
 8020c8e:	e9cd 3405 	strd	r3, r4, [sp, #20]
  GPIO_InitStruct.Pull = GPIO_NOPULL;
 8020c92:	9407      	str	r4, [sp, #28]
  HAL_GPIO_Init(GPIOC, &GPIO_InitStruct);
 8020c94:	f001 fafa 	bl	802228c <HAL_GPIO_Init>

  /*Configure GPIO pins : PAPin PAPin PAPin PAPin */
  GPIO_InitStruct.Pin = D_PUSHBAG_LEFT_Pin|D_BOARD_DOWN_Pin|D_BOARD_UP_Pin|D_PRESSHEAD_DOWN_Pin;
 8020c98:	f44f 4319 	mov.w	r3, #39168	; 0x9900
  GPIO_InitStruct.Mode = GPIO_MODE_INPUT;
  GPIO_InitStruct.Pull = GPIO_NOPULL;
  HAL_GPIO_Init(GPIOA, &GPIO_InitStruct);
 8020c9c:	a905      	add	r1, sp, #20
 8020c9e:	4628      	mov	r0, r5
  GPIO_InitStruct.Mode = GPIO_MODE_INPUT;
 8020ca0:	e9cd 3405 	strd	r3, r4, [sp, #20]
  GPIO_InitStruct.Pull = GPIO_NOPULL;
 8020ca4:	9407      	str	r4, [sp, #28]
  HAL_GPIO_Init(GPIOA, &GPIO_InitStruct);
 8020ca6:	f001 faf1 	bl	802228c <HAL_GPIO_Init>

  /*Configure GPIO pin : PtPin */
  GPIO_InitStruct.Pin = I_PHASEERROR_Pin;
 8020caa:	2304      	movs	r3, #4
  GPIO_InitStruct.Mode = GPIO_MODE_INPUT;
  GPIO_InitStruct.Pull = GPIO_NOPULL;
  HAL_GPIO_Init(I_PHASEERROR_GPIO_Port, &GPIO_InitStruct);
 8020cac:	4808      	ldr	r0, [pc, #32]	; (8020cd0 <MX_GPIO_Init+0x13c>)
  GPIO_InitStruct.Pull = GPIO_NOPULL;
 8020cae:	9407      	str	r4, [sp, #28]
  HAL_GPIO_Init(I_PHASEERROR_GPIO_Port, &GPIO_InitStruct);
 8020cb0:	a905      	add	r1, sp, #20
  GPIO_InitStruct.Mode = GPIO_MODE_INPUT;
 8020cb2:	e9cd 3405 	strd	r3, r4, [sp, #20]
  HAL_GPIO_Init(I_PHASEERROR_GPIO_Port, &GPIO_InitStruct);
 8020cb6:	f001 fae9 	bl	802228c <HAL_GPIO_Init>

}
 8020cba:	b00a      	add	sp, #40	; 0x28
 8020cbc:	e8bd 81f0 	ldmia.w	sp!, {r4, r5, r6, r7, r8, pc}
 8020cc0:	40023800 	.word	0x40023800
 8020cc4:	40020800 	.word	0x40020800
 8020cc8:	40020000 	.word	0x40020000
 8020ccc:	40020400 	.word	0x40020400
 8020cd0:	40020c00 	.word	0x40020c00

08020cd4 <MX_IWDG_Init>:
  /* USER CODE END IWDG_Init 0 */

  /* USER CODE BEGIN IWDG_Init 1 */

  /* USER CODE END IWDG_Init 1 */
  hiwdg.Instance = IWDG;
 8020cd4:	4808      	ldr	r0, [pc, #32]	; (8020cf8 <MX_IWDG_Init+0x24>)
  hiwdg.Init.Prescaler = IWDG_PRESCALER_128;
 8020cd6:	4a09      	ldr	r2, [pc, #36]	; (8020cfc <MX_IWDG_Init+0x28>)
{
 8020cd8:	b508      	push	{r3, lr}
  hiwdg.Init.Prescaler = IWDG_PRESCALER_128;
 8020cda:	2305      	movs	r3, #5
 8020cdc:	e9c0 2300 	strd	r2, r3, [r0]
  hiwdg.Init.Reload = 4095;
 8020ce0:	f640 73ff 	movw	r3, #4095	; 0xfff
 8020ce4:	6083      	str	r3, [r0, #8]
  if (HAL_IWDG_Init(&hiwdg) != HAL_OK)
 8020ce6:	f001 fc39 	bl	802255c <HAL_IWDG_Init>
 8020cea:	b118      	cbz	r0, 8020cf4 <MX_IWDG_Init+0x20>
  }
  /* USER CODE BEGIN IWDG_Init 2 */

  /* USER CODE END IWDG_Init 2 */

}
 8020cec:	e8bd 4008 	ldmia.w	sp!, {r3, lr}
    Error_Handler();
 8020cf0:	f000 b80e 	b.w	8020d10 <Error_Handler>
}
 8020cf4:	bd08      	pop	{r3, pc}
 8020cf6:	bf00      	nop
 8020cf8:	2000de28 	.word	0x2000de28
 8020cfc:	40003000 	.word	0x40003000

08020d00 <HAL_TIM_PeriodElapsedCallback>:
void HAL_TIM_PeriodElapsedCallback(TIM_HandleTypeDef *htim)
{
  /* USER CODE BEGIN Callback 0 */

  /* USER CODE END Callback 0 */
  if (htim->Instance == TIM2) {
 8020d00:	6803      	ldr	r3, [r0, #0]
 8020d02:	f1b3 4f80 	cmp.w	r3, #1073741824	; 0x40000000
 8020d06:	d101      	bne.n	8020d0c <HAL_TIM_PeriodElapsedCallback+0xc>
    HAL_IncTick();
 8020d08:	f000 bd0a 	b.w	8021720 <HAL_IncTick>
  }
  /* USER CODE BEGIN Callback 1 */

  /* USER CODE END Callback 1 */
}
 8020d0c:	4770      	bx	lr
	...

08020d10 <Error_Handler>:
/**
  * @brief  This function is executed in case of error occurrence.
  * @retval None
  */
void Error_Handler(void)
{
 8020d10:	b508      	push	{r3, lr}
  \details Disables IRQ interrupts by setting the I-bit in the CPSR.
           Can only be executed in Privileged modes.
 */
__STATIC_FORCEINLINE void __disable_irq(void)
{
  __ASM volatile ("cpsid i" : : : "memory");
 8020d12:	b672      	cpsid	i
  /* USER CODE BEGIN Error_Handler_Debug */
	/* User can add his own implementation to report the HAL error return state */
	__disable_irq();
	while (1) {
		DEBUG_L("Error_Handler\r\n");
 8020d14:	4c02      	ldr	r4, [pc, #8]	; (8020d20 <Error_Handler+0x10>)
 8020d16:	4620      	mov	r0, r4
 8020d18:	f009 fde2 	bl	802a8e0 <debug_printf>
	while (1) {
 8020d1c:	e7fb      	b.n	8020d16 <Error_Handler+0x6>
 8020d1e:	bf00      	nop
 8020d20:	0802bd04 	.word	0x0802bd04

08020d24 <SystemClock_Config>:
{
 8020d24:	b510      	push	{r4, lr}
  RCC_OscInitTypeDef RCC_OscInitStruct = {0};
 8020d26:	2400      	movs	r4, #0
{
 8020d28:	b094      	sub	sp, #80	; 0x50
  RCC_ClkInitTypeDef RCC_ClkInitStruct = {0};
 8020d2a:	4621      	mov	r1, r4
 8020d2c:	2214      	movs	r2, #20
 8020d2e:	a802      	add	r0, sp, #8
  RCC_OscInitTypeDef RCC_OscInitStruct = {0};
 8020d30:	e9cd 4409 	strd	r4, r4, [sp, #36]	; 0x24
 8020d34:	940b      	str	r4, [sp, #44]	; 0x2c
  RCC_ClkInitTypeDef RCC_ClkInitStruct = {0};
 8020d36:	f00a fa07 	bl	802b148 <memset>
  __HAL_RCC_PWR_CLK_ENABLE();
 8020d3a:	4b1f      	ldr	r3, [pc, #124]	; (8020db8 <SystemClock_Config+0x94>)
 8020d3c:	9400      	str	r4, [sp, #0]
 8020d3e:	6c1a      	ldr	r2, [r3, #64]	; 0x40
 8020d40:	f042 5280 	orr.w	r2, r2, #268435456	; 0x10000000
 8020d44:	641a      	str	r2, [r3, #64]	; 0x40
 8020d46:	6c1b      	ldr	r3, [r3, #64]	; 0x40
 8020d48:	f003 5380 	and.w	r3, r3, #268435456	; 0x10000000
 8020d4c:	9300      	str	r3, [sp, #0]
 8020d4e:	9b00      	ldr	r3, [sp, #0]
  __HAL_PWR_VOLTAGESCALING_CONFIG(PWR_REGULATOR_VOLTAGE_SCALE1);
 8020d50:	4b1a      	ldr	r3, [pc, #104]	; (8020dbc <SystemClock_Config+0x98>)
 8020d52:	9401      	str	r4, [sp, #4]
 8020d54:	681a      	ldr	r2, [r3, #0]
 8020d56:	f442 4240 	orr.w	r2, r2, #49152	; 0xc000
 8020d5a:	601a      	str	r2, [r3, #0]
 8020d5c:	681b      	ldr	r3, [r3, #0]
 8020d5e:	f403 4340 	and.w	r3, r3, #49152	; 0xc000
 8020d62:	9301      	str	r3, [sp, #4]
 8020d64:	9b01      	ldr	r3, [sp, #4]
  RCC_OscInitStruct.HSEState = RCC_HSE_ON;
 8020d66:	2209      	movs	r2, #9
 8020d68:	f44f 3380 	mov.w	r3, #65536	; 0x10000
  RCC_OscInitStruct.PLL.PLLState = RCC_PLL_ON;
 8020d6c:	2402      	movs	r4, #2
  RCC_OscInitStruct.HSEState = RCC_HSE_ON;
 8020d6e:	e9cd 2307 	strd	r2, r3, [sp, #28]
  RCC_OscInitStruct.PLL.PLLState = RCC_PLL_ON;
 8020d72:	2301      	movs	r3, #1
 8020d74:	e9cd 340c 	strd	r3, r4, [sp, #48]	; 0x30
  RCC_OscInitStruct.PLL.PLLM = 4;
 8020d78:	f44f 0180 	mov.w	r1, #4194304	; 0x400000
 8020d7c:	2304      	movs	r3, #4
 8020d7e:	e9cd 130e 	strd	r1, r3, [sp, #56]	; 0x38
  if (HAL_RCC_OscConfig(&RCC_OscInitStruct) != HAL_OK)
 8020d82:	a807      	add	r0, sp, #28
  RCC_OscInitStruct.PLL.PLLN = 100;
 8020d84:	2364      	movs	r3, #100	; 0x64
  RCC_OscInitStruct.PLL.PLLP = RCC_PLLP_DIV2;
 8020d86:	e9cd 3410 	strd	r3, r4, [sp, #64]	; 0x40
  RCC_OscInitStruct.PLL.PLLR = 2;
 8020d8a:	e9cd 4412 	strd	r4, r4, [sp, #72]	; 0x48
  if (HAL_RCC_OscConfig(&RCC_OscInitStruct) != HAL_OK)
 8020d8e:	f001 ff9b 	bl	8022cc8 <HAL_RCC_OscConfig>
 8020d92:	b108      	cbz	r0, 8020d98 <SystemClock_Config+0x74>
    Error_Handler();
 8020d94:	f7ff ffbc 	bl	8020d10 <Error_Handler>
  RCC_ClkInitStruct.ClockType = RCC_CLOCKTYPE_HCLK|RCC_CLOCKTYPE_SYSCLK
 8020d98:	230f      	movs	r3, #15
  RCC_ClkInitStruct.SYSCLKSource = RCC_SYSCLKSOURCE_PLLCLK;
 8020d9a:	e9cd 3402 	strd	r3, r4, [sp, #8]
  RCC_ClkInitStruct.APB1CLKDivider = RCC_HCLK_DIV2;
 8020d9e:	f44f 5380 	mov.w	r3, #4096	; 0x1000
  RCC_ClkInitStruct.APB2CLKDivider = RCC_HCLK_DIV1;
 8020da2:	e9cd 3005 	strd	r3, r0, [sp, #20]
  RCC_ClkInitStruct.AHBCLKDivider = RCC_SYSCLK_DIV1;
 8020da6:	9004      	str	r0, [sp, #16]
  if (HAL_RCC_ClockConfig(&RCC_ClkInitStruct, FLASH_LATENCY_3) != HAL_OK)
 8020da8:	2103      	movs	r1, #3
 8020daa:	a802      	add	r0, sp, #8
 8020dac:	f001 fc4e 	bl	802264c <HAL_RCC_ClockConfig>
 8020db0:	2800      	cmp	r0, #0
 8020db2:	d1ef      	bne.n	8020d94 <SystemClock_Config+0x70>
}
 8020db4:	b014      	add	sp, #80	; 0x50
 8020db6:	bd10      	pop	{r4, pc}
 8020db8:	40023800 	.word	0x40023800
 8020dbc:	40007000 	.word	0x40007000

08020dc0 <main>:
{
 8020dc0:	b508      	push	{r3, lr}
	SCB->VTOR = FLASH_BASE | APPLICATION_ADDRESS;
 8020dc2:	4b1d      	ldr	r3, [pc, #116]	; (8020e38 <main+0x78>)
 8020dc4:	4a1d      	ldr	r2, [pc, #116]	; (8020e3c <main+0x7c>)
 8020dc6:	609a      	str	r2, [r3, #8]
  __ASM volatile ("cpsie i" : : : "memory");
 8020dc8:	b662      	cpsie	i
  HAL_Init();
 8020dca:	f000 fc8f 	bl	80216ec <HAL_Init>
  SystemClock_Config();
 8020dce:	f7ff ffa9 	bl	8020d24 <SystemClock_Config>
  MX_GPIO_Init();
 8020dd2:	f7ff fedf 	bl	8020b94 <MX_GPIO_Init>
  MX_DMA_Init();
 8020dd6:	f7ff fc3f 	bl	8020658 <MX_DMA_Init>
  MX_RTC_Init();
 8020dda:	f000 f839 	bl	8020e50 <MX_RTC_Init>
  MX_TIM6_Init();
 8020dde:	f000 f9a5 	bl	802112c <MX_TIM6_Init>
  MX_TIM7_Init();
 8020de2:	f000 f9c7 	bl	8021174 <MX_TIM7_Init>
  MX_USART1_UART_Init();
 8020de6:	f000 fa41 	bl	802126c <MX_USART1_UART_Init>
  MX_USART3_UART_Init();
 8020dea:	f000 fa5b 	bl	80212a4 <MX_USART3_UART_Init>
  MX_USART6_UART_Init();
 8020dee:	f000 fa75 	bl	80212dc <MX_USART6_UART_Init>
  MX_IWDG_Init();
 8020df2:	f7ff ff6f 	bl	8020cd4 <MX_IWDG_Init>
  MX_TIM10_Init();
 8020df6:	f000 f9d5 	bl	80211a4 <MX_TIM10_Init>
	Usart_DamIdle();
 8020dfa:	f006 fa33 	bl	8027264 <Usart_DamIdle>
	Eeprom_ini();
 8020dfe:	f007 f8c9 	bl	8027f94 <Eeprom_ini>
	sysguard_ini();
 8020e02:	f00a f8f5 	bl	802aff0 <sysguard_ini>
	screen_ini();
 8020e06:	f007 f95d 	bl	80280c4 <screen_ini>
	input_initial();
 8020e0a:	f005 ff81 	bl	8026d10 <input_initial>
	HAL_TIM_Base_Start_IT(&htim6);
 8020e0e:	480c      	ldr	r0, [pc, #48]	; (8020e40 <main+0x80>)
 8020e10:	f002 fc3a 	bl	8023688 <HAL_TIM_Base_Start_IT>
	softTimer_Init();
 8020e14:	f00a f872 	bl	802aefc <softTimer_Init>
	DEBUG_L("*********************************\r\n");
 8020e18:	480a      	ldr	r0, [pc, #40]	; (8020e44 <main+0x84>)
 8020e1a:	f009 fd61 	bl	802a8e0 <debug_printf>
	DEBUG_L("**  APP FOR PACKAGE! VER:1.2 \r\n");
 8020e1e:	480a      	ldr	r0, [pc, #40]	; (8020e48 <main+0x88>)
 8020e20:	f009 fd5e 	bl	802a8e0 <debug_printf>
	DEBUG_L("*********************************\r\n");
 8020e24:	4807      	ldr	r0, [pc, #28]	; (8020e44 <main+0x84>)
 8020e26:	f009 fd5b 	bl	802a8e0 <debug_printf>
  osKernelInitialize();  /* Call init function for freertos objects (in freertos.c) */
 8020e2a:	f003 fb69 	bl	8024500 <osKernelInitialize>
  MX_FREERTOS_Init();
 8020e2e:	f7ff fde1 	bl	80209f4 <MX_FREERTOS_Init>
  osKernelStart();
 8020e32:	f003 fb77 	bl	8024524 <osKernelStart>
	while (1) {
 8020e36:	e7fe      	b.n	8020e36 <main+0x76>
 8020e38:	e000ed00 	.word	0xe000ed00
 8020e3c:	08020000 	.word	0x08020000
 8020e40:	2000dee4 	.word	0x2000dee4
 8020e44:	0802bd14 	.word	0x0802bd14
 8020e48:	0802bd38 	.word	0x0802bd38

08020e4c <assert_failed>:
{
  /* USER CODE BEGIN 6 */
	/* User can add his own implementation to report the file name and line number,
	 ex: printf("Wrong parameters value: file %s on line %d\r\n", file, line) */
  /* USER CODE END 6 */
}
 8020e4c:	4770      	bx	lr
	...

08020e50 <MX_RTC_Init>:

RTC_HandleTypeDef hrtc;

/* RTC init function */
void MX_RTC_Init(void)
{
 8020e50:	b510      	push	{r4, lr}
 8020e52:	b086      	sub	sp, #24

  /* USER CODE BEGIN RTC_Init 0 */

  /* USER CODE END RTC_Init 0 */

  RTC_TimeTypeDef sTime = {0};
 8020e54:	2214      	movs	r2, #20
 8020e56:	2100      	movs	r1, #0
 8020e58:	a801      	add	r0, sp, #4
 8020e5a:	f00a f975 	bl	802b148 <memset>

  /* USER CODE END RTC_Init 1 */

  /** Initialize RTC Only
  */
  hrtc.Instance = RTC;
 8020e5e:	4816      	ldr	r0, [pc, #88]	; (8020eb8 <MX_RTC_Init+0x68>)
 8020e60:	4b16      	ldr	r3, [pc, #88]	; (8020ebc <MX_RTC_Init+0x6c>)
  RTC_DateTypeDef sDate = {0};
 8020e62:	2400      	movs	r4, #0
  hrtc.Init.HourFormat = RTC_HOURFORMAT_24;
 8020e64:	e9c0 3400 	strd	r3, r4, [r0]
  hrtc.Init.AsynchPrediv = 127;
  hrtc.Init.SynchPrediv = 255;
 8020e68:	227f      	movs	r2, #127	; 0x7f
 8020e6a:	23ff      	movs	r3, #255	; 0xff
 8020e6c:	e9c0 2302 	strd	r2, r3, [r0, #8]
  hrtc.Init.OutPut = RTC_OUTPUT_DISABLE;
  hrtc.Init.OutPutPolarity = RTC_OUTPUT_POLARITY_HIGH;
 8020e70:	e9c0 4404 	strd	r4, r4, [r0, #16]
  RTC_DateTypeDef sDate = {0};
 8020e74:	9400      	str	r4, [sp, #0]
  hrtc.Init.OutPutType = RTC_OUTPUT_TYPE_OPENDRAIN;
 8020e76:	6184      	str	r4, [r0, #24]
  if (HAL_RTC_Init(&hrtc) != HAL_OK)
 8020e78:	f002 f9ac 	bl	80231d4 <HAL_RTC_Init>
 8020e7c:	b108      	cbz	r0, 8020e82 <MX_RTC_Init+0x32>
  {
    Error_Handler();
 8020e7e:	f7ff ff47 	bl	8020d10 <Error_Handler>
  sTime.Hours = 0x0;
  sTime.Minutes = 0x0;
  sTime.Seconds = 0x0;
  sTime.DayLightSaving = RTC_DAYLIGHTSAVING_NONE;
  sTime.StoreOperation = RTC_STOREOPERATION_RESET;
  if (HAL_RTC_SetTime(&hrtc, &sTime, RTC_FORMAT_BCD) != HAL_OK)
 8020e82:	480d      	ldr	r0, [pc, #52]	; (8020eb8 <MX_RTC_Init+0x68>)
  sTime.Hours = 0x0;
 8020e84:	f8ad 4004 	strh.w	r4, [sp, #4]
  if (HAL_RTC_SetTime(&hrtc, &sTime, RTC_FORMAT_BCD) != HAL_OK)
 8020e88:	2201      	movs	r2, #1
 8020e8a:	a901      	add	r1, sp, #4
  sTime.StoreOperation = RTC_STOREOPERATION_RESET;
 8020e8c:	e9cd 4404 	strd	r4, r4, [sp, #16]
  sTime.Seconds = 0x0;
 8020e90:	f88d 4006 	strb.w	r4, [sp, #6]
  if (HAL_RTC_SetTime(&hrtc, &sTime, RTC_FORMAT_BCD) != HAL_OK)
 8020e94:	f002 fa38 	bl	8023308 <HAL_RTC_SetTime>
 8020e98:	b108      	cbz	r0, 8020e9e <MX_RTC_Init+0x4e>
  {
    Error_Handler();
 8020e9a:	f7ff ff39 	bl	8020d10 <Error_Handler>
  }
  sDate.WeekDay = RTC_WEEKDAY_MONDAY;
 8020e9e:	4b08      	ldr	r3, [pc, #32]	; (8020ec0 <MX_RTC_Init+0x70>)
  sDate.Month = RTC_MONTH_JANUARY;
  sDate.Date = 0x1;
  sDate.Year = 0x0;

  if (HAL_RTC_SetDate(&hrtc, &sDate, RTC_FORMAT_BCD) != HAL_OK)
 8020ea0:	4805      	ldr	r0, [pc, #20]	; (8020eb8 <MX_RTC_Init+0x68>)
  sDate.WeekDay = RTC_WEEKDAY_MONDAY;
 8020ea2:	9300      	str	r3, [sp, #0]
  if (HAL_RTC_SetDate(&hrtc, &sDate, RTC_FORMAT_BCD) != HAL_OK)
 8020ea4:	2201      	movs	r2, #1
 8020ea6:	4669      	mov	r1, sp
 8020ea8:	f002 fb28 	bl	80234fc <HAL_RTC_SetDate>
 8020eac:	b108      	cbz	r0, 8020eb2 <MX_RTC_Init+0x62>
  {
    Error_Handler();
 8020eae:	f7ff ff2f 	bl	8020d10 <Error_Handler>
  }
  /* USER CODE BEGIN RTC_Init 2 */

  /* USER CODE END RTC_Init 2 */

}
 8020eb2:	b006      	add	sp, #24
 8020eb4:	bd10      	pop	{r4, pc}
 8020eb6:	bf00      	nop
 8020eb8:	2000de34 	.word	0x2000de34
 8020ebc:	40002800 	.word	0x40002800
 8020ec0:	00010101 	.word	0x00010101

08020ec4 <HAL_RTC_MspInit>:

void HAL_RTC_MspInit(RTC_HandleTypeDef* rtcHandle)
{
 8020ec4:	b510      	push	{r4, lr}
 8020ec6:	4604      	mov	r4, r0
 8020ec8:	b090      	sub	sp, #64	; 0x40

  RCC_PeriphCLKInitTypeDef PeriphClkInitStruct = {0};
 8020eca:	223c      	movs	r2, #60	; 0x3c
 8020ecc:	2100      	movs	r1, #0
 8020ece:	a801      	add	r0, sp, #4
 8020ed0:	f00a f93a 	bl	802b148 <memset>
  if(rtcHandle->Instance==RTC)
 8020ed4:	6822      	ldr	r2, [r4, #0]
 8020ed6:	4b09      	ldr	r3, [pc, #36]	; (8020efc <HAL_RTC_MspInit+0x38>)
 8020ed8:	429a      	cmp	r2, r3
 8020eda:	d10d      	bne.n	8020ef8 <HAL_RTC_MspInit+0x34>

  /* USER CODE END RTC_MspInit 0 */

  /** Initializes the peripherals clock
  */
    PeriphClkInitStruct.PeriphClockSelection = RCC_PERIPHCLK_RTC;
 8020edc:	2308      	movs	r3, #8
 8020ede:	9301      	str	r3, [sp, #4]
    PeriphClkInitStruct.RTCClockSelection = RCC_RTCCLKSOURCE_LSI;
    if (HAL_RCCEx_PeriphCLKConfig(&PeriphClkInitStruct) != HAL_OK)
 8020ee0:	a801      	add	r0, sp, #4
    PeriphClkInitStruct.RTCClockSelection = RCC_RTCCLKSOURCE_LSI;
 8020ee2:	f44f 7300 	mov.w	r3, #512	; 0x200
 8020ee6:	9308      	str	r3, [sp, #32]
    if (HAL_RCCEx_PeriphCLKConfig(&PeriphClkInitStruct) != HAL_OK)
 8020ee8:	f001 fce2 	bl	80228b0 <HAL_RCCEx_PeriphCLKConfig>
 8020eec:	b108      	cbz	r0, 8020ef2 <HAL_RTC_MspInit+0x2e>
    {
      Error_Handler();
 8020eee:	f7ff ff0f 	bl	8020d10 <Error_Handler>
    }

    /* RTC clock enable */
    __HAL_RCC_RTC_ENABLE();
 8020ef2:	4b03      	ldr	r3, [pc, #12]	; (8020f00 <HAL_RTC_MspInit+0x3c>)
 8020ef4:	2201      	movs	r2, #1
 8020ef6:	601a      	str	r2, [r3, #0]
  /* USER CODE BEGIN RTC_MspInit 1 */

  /* USER CODE END RTC_MspInit 1 */
  }
}
 8020ef8:	b010      	add	sp, #64	; 0x40
 8020efa:	bd10      	pop	{r4, pc}
 8020efc:	40002800 	.word	0x40002800
 8020f00:	42470e3c 	.word	0x42470e3c

08020f04 <HAL_MspInit>:
/* USER CODE END 0 */
/**
  * Initializes the Global MSP.
  */
void HAL_MspInit(void)
{
 8020f04:	b082      	sub	sp, #8
  /* USER CODE BEGIN MspInit 0 */

  /* USER CODE END MspInit 0 */

  __HAL_RCC_SYSCFG_CLK_ENABLE();
 8020f06:	4b0e      	ldr	r3, [pc, #56]	; (8020f40 <HAL_MspInit+0x3c>)
 8020f08:	2200      	movs	r2, #0
 8020f0a:	9200      	str	r2, [sp, #0]
 8020f0c:	6c59      	ldr	r1, [r3, #68]	; 0x44
 8020f0e:	f441 4180 	orr.w	r1, r1, #16384	; 0x4000
 8020f12:	6459      	str	r1, [r3, #68]	; 0x44
 8020f14:	6c59      	ldr	r1, [r3, #68]	; 0x44
 8020f16:	f401 4180 	and.w	r1, r1, #16384	; 0x4000
 8020f1a:	9100      	str	r1, [sp, #0]
 8020f1c:	9900      	ldr	r1, [sp, #0]
  __HAL_RCC_PWR_CLK_ENABLE();
 8020f1e:	9201      	str	r2, [sp, #4]
 8020f20:	6c19      	ldr	r1, [r3, #64]	; 0x40
 8020f22:	f041 5180 	orr.w	r1, r1, #268435456	; 0x10000000
 8020f26:	6419      	str	r1, [r3, #64]	; 0x40
 8020f28:	6c1b      	ldr	r3, [r3, #64]	; 0x40
 8020f2a:	f003 5380 	and.w	r3, r3, #268435456	; 0x10000000
 8020f2e:	9301      	str	r3, [sp, #4]
 8020f30:	9b01      	ldr	r3, [sp, #4]

  /* System interrupt init*/
  /* PendSV_IRQn interrupt configuration */
  HAL_NVIC_SetPriority(PendSV_IRQn, 15, 0);
 8020f32:	210f      	movs	r1, #15
 8020f34:	f06f 0001 	mvn.w	r0, #1

  /* USER CODE BEGIN MspInit 1 */

  /* USER CODE END MspInit 1 */
}
 8020f38:	b002      	add	sp, #8
  HAL_NVIC_SetPriority(PendSV_IRQn, 15, 0);
 8020f3a:	f000 bc33 	b.w	80217a4 <HAL_NVIC_SetPriority>
 8020f3e:	bf00      	nop
 8020f40:	40023800 	.word	0x40023800

08020f44 <HAL_InitTick>:
  *         reset by HAL_Init() or at any time when clock is configured, by HAL_RCC_ClockConfig().
  * @param  TickPriority: Tick interrupt priority.
  * @retval HAL status
  */
HAL_StatusTypeDef HAL_InitTick(uint32_t TickPriority)
{
 8020f44:	b530      	push	{r4, r5, lr}
 8020f46:	4601      	mov	r1, r0
 8020f48:	b089      	sub	sp, #36	; 0x24
  RCC_ClkInitTypeDef    clkconfig;
  uint32_t              uwTimclock = 0;
  uint32_t              uwPrescalerValue = 0;
  uint32_t              pFLatency;
  /*Configure the TIM2 IRQ priority */
  HAL_NVIC_SetPriority(TIM2_IRQn, TickPriority ,0);
 8020f4a:	2200      	movs	r2, #0
 8020f4c:	201c      	movs	r0, #28
 8020f4e:	f000 fc29 	bl	80217a4 <HAL_NVIC_SetPriority>

  /* Enable the TIM2 global Interrupt */
  HAL_NVIC_EnableIRQ(TIM2_IRQn);
 8020f52:	201c      	movs	r0, #28
 8020f54:	f000 fc6a 	bl	802182c <HAL_NVIC_EnableIRQ>

  /* Enable TIM2 clock */
  __HAL_RCC_TIM2_CLK_ENABLE();
 8020f58:	2500      	movs	r5, #0
 8020f5a:	4b15      	ldr	r3, [pc, #84]	; (8020fb0 <HAL_InitTick+0x6c>)
 8020f5c:	9502      	str	r5, [sp, #8]
 8020f5e:	6c1a      	ldr	r2, [r3, #64]	; 0x40
  uwTimclock = 2*HAL_RCC_GetPCLK1Freq();
  /* Compute the prescaler value to have TIM2 counter clock equal to 1MHz */
  uwPrescalerValue = (uint32_t) ((uwTimclock / 1000000U) - 1U);

  /* Initialize TIM2 */
  htim2.Instance = TIM2;
 8020f60:	4c14      	ldr	r4, [pc, #80]	; (8020fb4 <HAL_InitTick+0x70>)
  __HAL_RCC_TIM2_CLK_ENABLE();
 8020f62:	f042 0201 	orr.w	r2, r2, #1
 8020f66:	641a      	str	r2, [r3, #64]	; 0x40
 8020f68:	6c1b      	ldr	r3, [r3, #64]	; 0x40
 8020f6a:	f003 0301 	and.w	r3, r3, #1
 8020f6e:	9302      	str	r3, [sp, #8]
  HAL_RCC_GetClockConfig(&clkconfig, &pFLatency);
 8020f70:	a901      	add	r1, sp, #4
 8020f72:	a803      	add	r0, sp, #12
  __HAL_RCC_TIM2_CLK_ENABLE();
 8020f74:	9b02      	ldr	r3, [sp, #8]
  HAL_RCC_GetClockConfig(&clkconfig, &pFLatency);
 8020f76:	f001 fc7d 	bl	8022874 <HAL_RCC_GetClockConfig>
  uwTimclock = 2*HAL_RCC_GetPCLK1Freq();
 8020f7a:	f001 fc5b 	bl	8022834 <HAL_RCC_GetPCLK1Freq>
  htim2.Instance = TIM2;
 8020f7e:	f04f 4380 	mov.w	r3, #1073741824	; 0x40000000
 8020f82:	6023      	str	r3, [r4, #0]
  + Period = [(TIM2CLK/1000) - 1]. to have a (1/1000) s time base.
  + Prescaler = (uwTimclock/1000000 - 1) to have a 1MHz counter clock.
  + ClockDivision = 0
  + Counter direction = Up
  */
  htim2.Init.Period = (1000000U / 1000U) - 1U;
 8020f84:	f240 33e7 	movw	r3, #999	; 0x3e7
 8020f88:	60e3      	str	r3, [r4, #12]
  uwTimclock = 2*HAL_RCC_GetPCLK1Freq();
 8020f8a:	0040      	lsls	r0, r0, #1
  uwPrescalerValue = (uint32_t) ((uwTimclock / 1000000U) - 1U);
 8020f8c:	4b0a      	ldr	r3, [pc, #40]	; (8020fb8 <HAL_InitTick+0x74>)
 8020f8e:	fbb0 f0f3 	udiv	r0, r0, r3
 8020f92:	3801      	subs	r0, #1
  htim2.Init.Prescaler = uwPrescalerValue;
 8020f94:	6060      	str	r0, [r4, #4]
  htim2.Init.ClockDivision = 0;
  htim2.Init.CounterMode = TIM_COUNTERMODE_UP;

  if(HAL_TIM_Base_Init(&htim2) == HAL_OK)
 8020f96:	4620      	mov	r0, r4
  htim2.Init.ClockDivision = 0;
 8020f98:	6125      	str	r5, [r4, #16]
  htim2.Init.CounterMode = TIM_COUNTERMODE_UP;
 8020f9a:	60a5      	str	r5, [r4, #8]
  if(HAL_TIM_Base_Init(&htim2) == HAL_OK)
 8020f9c:	f002 fcfa 	bl	8023994 <HAL_TIM_Base_Init>
 8020fa0:	b920      	cbnz	r0, 8020fac <HAL_InitTick+0x68>
  {
    /* Start the TIM time Base generation in interrupt mode */
    return HAL_TIM_Base_Start_IT(&htim2);
 8020fa2:	4620      	mov	r0, r4
 8020fa4:	f002 fb70 	bl	8023688 <HAL_TIM_Base_Start_IT>
  }

  /* Return function status */
  return HAL_ERROR;
}
 8020fa8:	b009      	add	sp, #36	; 0x24
 8020faa:	bd30      	pop	{r4, r5, pc}
  return HAL_ERROR;
 8020fac:	2001      	movs	r0, #1
 8020fae:	e7fb      	b.n	8020fa8 <HAL_InitTick+0x64>
 8020fb0:	40023800 	.word	0x40023800
 8020fb4:	2000de54 	.word	0x2000de54
 8020fb8:	000f4240 	.word	0x000f4240

08020fbc <NMI_Handler>:
/******************************************************************************/
/**
  * @brief This function handles Non maskable interrupt.
  */
void NMI_Handler(void)
{
 8020fbc:	b508      	push	{r3, lr}
  /* USER CODE BEGIN NonMaskableInt_IRQn 0 */
	DEBUG_L("NMI_Handler\r\n");
 8020fbe:	4802      	ldr	r0, [pc, #8]	; (8020fc8 <NMI_Handler+0xc>)
 8020fc0:	f009 fc8e 	bl	802a8e0 <debug_printf>
  /* USER CODE END NonMaskableInt_IRQn 0 */
  /* USER CODE BEGIN NonMaskableInt_IRQn 1 */
  while (1)
 8020fc4:	e7fe      	b.n	8020fc4 <NMI_Handler+0x8>
 8020fc6:	bf00      	nop
 8020fc8:	0802bd58 	.word	0x0802bd58

08020fcc <HardFault_Handler>:

/**
  * @brief This function handles Hard fault interrupt.
  */
void HardFault_Handler(void)
{
 8020fcc:	b508      	push	{r3, lr}
  /* USER CODE BEGIN HardFault_IRQn 0 */
	DEBUG_L("HardFault_Handler\r\n");
 8020fce:	4802      	ldr	r0, [pc, #8]	; (8020fd8 <HardFault_Handler+0xc>)
 8020fd0:	f009 fc86 	bl	802a8e0 <debug_printf>
  /* USER CODE END HardFault_IRQn 0 */
  while (1)
 8020fd4:	e7fe      	b.n	8020fd4 <HardFault_Handler+0x8>
 8020fd6:	bf00      	nop
 8020fd8:	0802bd66 	.word	0x0802bd66

08020fdc <MemManage_Handler>:

/**
  * @brief This function handles Memory management fault.
  */
void MemManage_Handler(void)
{
 8020fdc:	b508      	push	{r3, lr}
  /* USER CODE BEGIN MemoryManagement_IRQn 0 */
	DEBUG_L("MemManage_Handler\r\n");
 8020fde:	4802      	ldr	r0, [pc, #8]	; (8020fe8 <MemManage_Handler+0xc>)
 8020fe0:	f009 fc7e 	bl	802a8e0 <debug_printf>
  /* USER CODE END MemoryManagement_IRQn 0 */
  while (1)
 8020fe4:	e7fe      	b.n	8020fe4 <MemManage_Handler+0x8>
 8020fe6:	bf00      	nop
 8020fe8:	0802bd7a 	.word	0x0802bd7a

08020fec <BusFault_Handler>:

/**
  * @brief This function handles Pre-fetch fault, memory access fault.
  */
void BusFault_Handler(void)
{
 8020fec:	b508      	push	{r3, lr}
  /* USER CODE BEGIN BusFault_IRQn 0 */
	DEBUG_L("BusFault_Handler\r\n");
 8020fee:	4802      	ldr	r0, [pc, #8]	; (8020ff8 <BusFault_Handler+0xc>)
 8020ff0:	f009 fc76 	bl	802a8e0 <debug_printf>
  /* USER CODE END BusFault_IRQn 0 */
  while (1)
 8020ff4:	e7fe      	b.n	8020ff4 <BusFault_Handler+0x8>
 8020ff6:	bf00      	nop
 8020ff8:	0802bd8e 	.word	0x0802bd8e

08020ffc <UsageFault_Handler>:

/**
  * @brief This function handles Undefined instruction or illegal state.
  */
void UsageFault_Handler(void)
{
 8020ffc:	b508      	push	{r3, lr}
  /* USER CODE BEGIN UsageFault_IRQn 0 */
	DEBUG_L("UsageFault_Handler\r\n");
 8020ffe:	4802      	ldr	r0, [pc, #8]	; (8021008 <UsageFault_Handler+0xc>)
 8021000:	f009 fc6e 	bl	802a8e0 <debug_printf>
  /* USER CODE END UsageFault_IRQn 0 */
  while (1)
 8021004:	e7fe      	b.n	8021004 <UsageFault_Handler+0x8>
 8021006:	bf00      	nop
 8021008:	0802bda1 	.word	0x0802bda1

0802100c <DebugMon_Handler>:
  * @brief This function handles Debug monitor.
  */
void DebugMon_Handler(void)
{
  /* USER CODE BEGIN DebugMonitor_IRQn 0 */
	DEBUG_L("DebugMon_Handler\r\n");
 802100c:	4801      	ldr	r0, [pc, #4]	; (8021014 <DebugMon_Handler+0x8>)
 802100e:	f009 bc67 	b.w	802a8e0 <debug_printf>
 8021012:	bf00      	nop
 8021014:	0802bdb6 	.word	0x0802bdb6

08021018 <DMA1_Stream1_IRQHandler>:
void DMA1_Stream1_IRQHandler(void)
{
  /* USER CODE BEGIN DMA1_Stream1_IRQn 0 */

  /* USER CODE END DMA1_Stream1_IRQn 0 */
  HAL_DMA_IRQHandler(&hdma_usart3_rx);
 8021018:	4801      	ldr	r0, [pc, #4]	; (8021020 <DMA1_Stream1_IRQHandler+0x8>)
 802101a:	f000 be15 	b.w	8021c48 <HAL_DMA_IRQHandler>
 802101e:	bf00      	nop
 8021020:	2000dfd4 	.word	0x2000dfd4

08021024 <DMA1_Stream3_IRQHandler>:
void DMA1_Stream3_IRQHandler(void)
{
  /* USER CODE BEGIN DMA1_Stream3_IRQn 0 */

  /* USER CODE END DMA1_Stream3_IRQn 0 */
  HAL_DMA_IRQHandler(&hdma_usart3_tx);
 8021024:	4801      	ldr	r0, [pc, #4]	; (802102c <DMA1_Stream3_IRQHandler+0x8>)
 8021026:	f000 be0f 	b.w	8021c48 <HAL_DMA_IRQHandler>
 802102a:	bf00      	nop
 802102c:	2000e078 	.word	0x2000e078

08021030 <TIM1_UP_TIM10_IRQHandler>:
void TIM1_UP_TIM10_IRQHandler(void)
{
  /* USER CODE BEGIN TIM1_UP_TIM10_IRQn 0 */

  /* USER CODE END TIM1_UP_TIM10_IRQn 0 */
  HAL_TIM_IRQHandler(&htim10);
 8021030:	4801      	ldr	r0, [pc, #4]	; (8021038 <TIM1_UP_TIM10_IRQHandler+0x8>)
 8021032:	f002 bba7 	b.w	8023784 <HAL_TIM_IRQHandler>
 8021036:	bf00      	nop
 8021038:	2000de9c 	.word	0x2000de9c

0802103c <TIM2_IRQHandler>:
void TIM2_IRQHandler(void)
{
  /* USER CODE BEGIN TIM2_IRQn 0 */

  /* USER CODE END TIM2_IRQn 0 */
  HAL_TIM_IRQHandler(&htim2);
 802103c:	4801      	ldr	r0, [pc, #4]	; (8021044 <TIM2_IRQHandler+0x8>)
 802103e:	f002 bba1 	b.w	8023784 <HAL_TIM_IRQHandler>
 8021042:	bf00      	nop
 8021044:	2000de54 	.word	0x2000de54

08021048 <USART1_IRQHandler>:

/**
  * @brief This function handles USART1 global interrupt.
  */
void USART1_IRQHandler(void)
{
 8021048:	b508      	push	{r3, lr}
  /* USER CODE BEGIN USART1_IRQn 0 */
	USART1_RxIdleCallback(&huart1);
 802104a:	4804      	ldr	r0, [pc, #16]	; (802105c <USART1_IRQHandler+0x14>)
 802104c:	f006 f942 	bl	80272d4 <USART1_RxIdleCallback>
  /* USER CODE END USART1_IRQn 0 */
  HAL_UART_IRQHandler(&huart1);
  /* USER CODE BEGIN USART1_IRQn 1 */

  /* USER CODE END USART1_IRQn 1 */
}
 8021050:	e8bd 4008 	ldmia.w	sp!, {r3, lr}
  HAL_UART_IRQHandler(&huart1);
 8021054:	4801      	ldr	r0, [pc, #4]	; (802105c <USART1_IRQHandler+0x14>)
 8021056:	f003 b83f 	b.w	80240d8 <HAL_UART_IRQHandler>
 802105a:	bf00      	nop
 802105c:	2000e1f8 	.word	0x2000e1f8

08021060 <USART3_IRQHandler>:

/**
  * @brief This function handles USART3 global interrupt.
  */
void USART3_IRQHandler(void)
{
 8021060:	b508      	push	{r3, lr}
  /* USER CODE BEGIN USART3_IRQn 0 */
	USART3_RxIdleCallback(&huart3);
 8021062:	4804      	ldr	r0, [pc, #16]	; (8021074 <USART3_IRQHandler+0x14>)
 8021064:	f006 f976 	bl	8027354 <USART3_RxIdleCallback>
  /* USER CODE END USART3_IRQn 0 */
  HAL_UART_IRQHandler(&huart3);
  /* USER CODE BEGIN USART3_IRQn 1 */

  /* USER CODE END USART3_IRQn 1 */
}
 8021068:	e8bd 4008 	ldmia.w	sp!, {r3, lr}
  HAL_UART_IRQHandler(&huart3);
 802106c:	4801      	ldr	r0, [pc, #4]	; (8021074 <USART3_IRQHandler+0x14>)
 802106e:	f003 b833 	b.w	80240d8 <HAL_UART_IRQHandler>
 8021072:	bf00      	nop
 8021074:	2000e034 	.word	0x2000e034

08021078 <TIM6_IRQHandler>:

/**
  * @brief This function handles TIM6 global interrupt.
  */
void TIM6_IRQHandler(void)
{
 8021078:	b508      	push	{r3, lr}
  /* USER CODE BEGIN TIM6_IRQn 0 */
	tickCnt_Update();
 802107a:	f009 ff37 	bl	802aeec <tickCnt_Update>
	mytim_ticupdate();
 802107e:	f008 fddf 	bl	8029c40 <mytim_ticupdate>
  /* USER CODE END TIM6_IRQn 0 */
  HAL_TIM_IRQHandler(&htim6);
  /* USER CODE BEGIN TIM6_IRQn 1 */

  /* USER CODE END TIM6_IRQn 1 */
}
 8021082:	e8bd 4008 	ldmia.w	sp!, {r3, lr}
  HAL_TIM_IRQHandler(&htim6);
 8021086:	4801      	ldr	r0, [pc, #4]	; (802108c <TIM6_IRQHandler+0x14>)
 8021088:	f002 bb7c 	b.w	8023784 <HAL_TIM_IRQHandler>
 802108c:	2000dee4 	.word	0x2000dee4

08021090 <DMA2_Stream1_IRQHandler>:
void DMA2_Stream1_IRQHandler(void)
{
  /* USER CODE BEGIN DMA2_Stream1_IRQn 0 */

  /* USER CODE END DMA2_Stream1_IRQn 0 */
  HAL_DMA_IRQHandler(&hdma_usart6_rx);
 8021090:	4801      	ldr	r0, [pc, #4]	; (8021098 <DMA2_Stream1_IRQHandler+0x8>)
 8021092:	f000 bdd9 	b.w	8021c48 <HAL_DMA_IRQHandler>
 8021096:	bf00      	nop
 8021098:	2000df74 	.word	0x2000df74

0802109c <DMA2_Stream2_IRQHandler>:
void DMA2_Stream2_IRQHandler(void)
{
  /* USER CODE BEGIN DMA2_Stream2_IRQn 0 */

  /* USER CODE END DMA2_Stream2_IRQn 0 */
  HAL_DMA_IRQHandler(&hdma_usart1_rx);
 802109c:	4801      	ldr	r0, [pc, #4]	; (80210a4 <DMA2_Stream2_IRQHandler+0x8>)
 802109e:	f000 bdd3 	b.w	8021c48 <HAL_DMA_IRQHandler>
 80210a2:	bf00      	nop
 80210a4:	2000e198 	.word	0x2000e198

080210a8 <DMA2_Stream6_IRQHandler>:
void DMA2_Stream6_IRQHandler(void)
{
  /* USER CODE BEGIN DMA2_Stream6_IRQn 0 */

  /* USER CODE END DMA2_Stream6_IRQn 0 */
  HAL_DMA_IRQHandler(&hdma_usart6_tx);
 80210a8:	4801      	ldr	r0, [pc, #4]	; (80210b0 <DMA2_Stream6_IRQHandler+0x8>)
 80210aa:	f000 bdcd 	b.w	8021c48 <HAL_DMA_IRQHandler>
 80210ae:	bf00      	nop
 80210b0:	2000e138 	.word	0x2000e138

080210b4 <DMA2_Stream7_IRQHandler>:
void DMA2_Stream7_IRQHandler(void)
{
  /* USER CODE BEGIN DMA2_Stream7_IRQn 0 */

  /* USER CODE END DMA2_Stream7_IRQn 0 */
  HAL_DMA_IRQHandler(&hdma_usart1_tx);
 80210b4:	4801      	ldr	r0, [pc, #4]	; (80210bc <DMA2_Stream7_IRQHandler+0x8>)
 80210b6:	f000 bdc7 	b.w	8021c48 <HAL_DMA_IRQHandler>
 80210ba:	bf00      	nop
 80210bc:	2000e0d8 	.word	0x2000e0d8

080210c0 <USART6_IRQHandler>:

/**
  * @brief This function handles USART6 global interrupt.
  */
void USART6_IRQHandler(void)
{
 80210c0:	b508      	push	{r3, lr}
  /* USER CODE BEGIN USART6_IRQn 0 */
	USART6_RxIdleCallback(&huart6);
 80210c2:	4804      	ldr	r0, [pc, #16]	; (80210d4 <USART6_IRQHandler+0x14>)
 80210c4:	f006 f986 	bl	80273d4 <USART6_RxIdleCallback>
  /* USER CODE END USART6_IRQn 0 */
  HAL_UART_IRQHandler(&huart6);
  /* USER CODE BEGIN USART6_IRQn 1 */

  /* USER CODE END USART6_IRQn 1 */
}
 80210c8:	e8bd 4008 	ldmia.w	sp!, {r3, lr}
  HAL_UART_IRQHandler(&huart6);
 80210cc:	4801      	ldr	r0, [pc, #4]	; (80210d4 <USART6_IRQHandler+0x14>)
 80210ce:	f003 b803 	b.w	80240d8 <HAL_UART_IRQHandler>
 80210d2:	bf00      	nop
 80210d4:	2000e23c 	.word	0x2000e23c

080210d8 <_sbrk>:
  const uint32_t stack_limit = (uint32_t)&_estack - (uint32_t)&_Min_Stack_Size;
  const uint8_t *max_heap = (uint8_t *)stack_limit;
  uint8_t *prev_heap_end;

  /* Initialize heap end at first call */
  if (NULL == __sbrk_heap_end)
 80210d8:	4b0b      	ldr	r3, [pc, #44]	; (8021108 <_sbrk+0x30>)
 80210da:	6819      	ldr	r1, [r3, #0]
{
 80210dc:	b510      	push	{r4, lr}
 80210de:	4602      	mov	r2, r0
  if (NULL == __sbrk_heap_end)
 80210e0:	b909      	cbnz	r1, 80210e6 <_sbrk+0xe>
  {
    __sbrk_heap_end = &_end;
 80210e2:	490a      	ldr	r1, [pc, #40]	; (802110c <_sbrk+0x34>)
 80210e4:	6019      	str	r1, [r3, #0]
  }

  /* Protect heap from growing into the reserved MSP stack */
  if (__sbrk_heap_end + incr > max_heap)
 80210e6:	6818      	ldr	r0, [r3, #0]
 80210e8:	4909      	ldr	r1, [pc, #36]	; (8021110 <_sbrk+0x38>)
 80210ea:	4c0a      	ldr	r4, [pc, #40]	; (8021114 <_sbrk+0x3c>)
 80210ec:	4402      	add	r2, r0
 80210ee:	1b09      	subs	r1, r1, r4
 80210f0:	428a      	cmp	r2, r1
 80210f2:	d906      	bls.n	8021102 <_sbrk+0x2a>
  {
    errno = ENOMEM;
 80210f4:	f009 ffe2 	bl	802b0bc <__errno>
 80210f8:	230c      	movs	r3, #12
 80210fa:	6003      	str	r3, [r0, #0]
    return (void *)-1;
 80210fc:	f04f 30ff 	mov.w	r0, #4294967295

  prev_heap_end = __sbrk_heap_end;
  __sbrk_heap_end += incr;

  return (void *)prev_heap_end;
}
 8021100:	bd10      	pop	{r4, pc}
  __sbrk_heap_end += incr;
 8021102:	601a      	str	r2, [r3, #0]
  return (void *)prev_heap_end;
 8021104:	e7fc      	b.n	8021100 <_sbrk+0x28>
 8021106:	bf00      	nop
 8021108:	200001e8 	.word	0x200001e8
 802110c:	2000efc0 	.word	0x2000efc0
 8021110:	20040000 	.word	0x20040000
 8021114:	00004000 	.word	0x00004000

08021118 <SystemInit>:
  */
void SystemInit(void)
{
  /* FPU settings ------------------------------------------------------------*/
  #if (__FPU_PRESENT == 1) && (__FPU_USED == 1)
    SCB->CPACR |= ((3UL << 10*2)|(3UL << 11*2));  /* set CP10 and CP11 Full Access */
 8021118:	4a03      	ldr	r2, [pc, #12]	; (8021128 <SystemInit+0x10>)
 802111a:	f8d2 3088 	ldr.w	r3, [r2, #136]	; 0x88
 802111e:	f443 0370 	orr.w	r3, r3, #15728640	; 0xf00000
 8021122:	f8c2 3088 	str.w	r3, [r2, #136]	; 0x88

  /* Configure the Vector Table location -------------------------------------*/
#if defined(USER_VECT_TAB_ADDRESS)
  SCB->VTOR = VECT_TAB_BASE_ADDRESS | VECT_TAB_OFFSET; /* Vector Table Relocation in Internal SRAM */
#endif /* USER_VECT_TAB_ADDRESS */
}
 8021126:	4770      	bx	lr
 8021128:	e000ed00 	.word	0xe000ed00

0802112c <MX_TIM6_Init>:
TIM_HandleTypeDef htim7;
TIM_HandleTypeDef htim10;

/* TIM6 init function */
void MX_TIM6_Init(void)
{
 802112c:	b513      	push	{r0, r1, r4, lr}

  /* USER CODE BEGIN TIM6_Init 1 */

  /* USER CODE END TIM6_Init 1 */
  htim6.Instance = TIM6;
  htim6.Init.Prescaler = 9999;
 802112e:	4a0f      	ldr	r2, [pc, #60]	; (802116c <MX_TIM6_Init+0x40>)
  htim6.Instance = TIM6;
 8021130:	480f      	ldr	r0, [pc, #60]	; (8021170 <MX_TIM6_Init+0x44>)
  htim6.Init.Prescaler = 9999;
 8021132:	f242 730f 	movw	r3, #9999	; 0x270f
  TIM_MasterConfigTypeDef sMasterConfig = {0};
 8021136:	2400      	movs	r4, #0
  htim6.Init.Prescaler = 9999;
 8021138:	e9c0 2300 	strd	r2, r3, [r0]
  htim6.Init.CounterMode = TIM_COUNTERMODE_UP;
  htim6.Init.Period = 1000;
 802113c:	f44f 737a 	mov.w	r3, #1000	; 0x3e8
  TIM_MasterConfigTypeDef sMasterConfig = {0};
 8021140:	e9cd 4400 	strd	r4, r4, [sp]
  htim6.Init.CounterMode = TIM_COUNTERMODE_UP;
 8021144:	6084      	str	r4, [r0, #8]
  htim6.Init.Period = 1000;
 8021146:	60c3      	str	r3, [r0, #12]
  htim6.Init.AutoReloadPreload = TIM_AUTORELOAD_PRELOAD_DISABLE;
 8021148:	6184      	str	r4, [r0, #24]
  if (HAL_TIM_Base_Init(&htim6) != HAL_OK)
 802114a:	f002 fc23 	bl	8023994 <HAL_TIM_Base_Init>
 802114e:	b108      	cbz	r0, 8021154 <MX_TIM6_Init+0x28>
  {
    Error_Handler();
 8021150:	f7ff fdde 	bl	8020d10 <Error_Handler>
  }
  sMasterConfig.MasterOutputTrigger = TIM_TRGO_RESET;
  sMasterConfig.MasterSlaveMode = TIM_MASTERSLAVEMODE_DISABLE;
  if (HAL_TIMEx_MasterConfigSynchronization(&htim6, &sMasterConfig) != HAL_OK)
 8021154:	4806      	ldr	r0, [pc, #24]	; (8021170 <MX_TIM6_Init+0x44>)
 8021156:	4669      	mov	r1, sp
  sMasterConfig.MasterSlaveMode = TIM_MASTERSLAVEMODE_DISABLE;
 8021158:	e9cd 4400 	strd	r4, r4, [sp]
  if (HAL_TIMEx_MasterConfigSynchronization(&htim6, &sMasterConfig) != HAL_OK)
 802115c:	f002 fcae 	bl	8023abc <HAL_TIMEx_MasterConfigSynchronization>
 8021160:	b108      	cbz	r0, 8021166 <MX_TIM6_Init+0x3a>
  {
    Error_Handler();
 8021162:	f7ff fdd5 	bl	8020d10 <Error_Handler>
  }
  /* USER CODE BEGIN TIM6_Init 2 */

  /* USER CODE END TIM6_Init 2 */

}
 8021166:	b002      	add	sp, #8
 8021168:	bd10      	pop	{r4, pc}
 802116a:	bf00      	nop
 802116c:	40001000 	.word	0x40001000
 8021170:	2000dee4 	.word	0x2000dee4

08021174 <MX_TIM7_Init>:
  /* USER CODE END TIM7_Init 0 */

  /* USER CODE BEGIN TIM7_Init 1 */

  /* USER CODE END TIM7_Init 1 */
  htim7.Instance = TIM7;
 8021174:	4809      	ldr	r0, [pc, #36]	; (802119c <MX_TIM7_Init+0x28>)
  htim7.Init.Prescaler = 99;
 8021176:	4a0a      	ldr	r2, [pc, #40]	; (80211a0 <MX_TIM7_Init+0x2c>)
{
 8021178:	b508      	push	{r3, lr}
  htim7.Init.Prescaler = 99;
 802117a:	2363      	movs	r3, #99	; 0x63
 802117c:	e9c0 2300 	strd	r2, r3, [r0]
  htim7.Init.CounterMode = TIM_COUNTERMODE_UP;
  htim7.Init.Period = 65535;
 8021180:	2300      	movs	r3, #0
 8021182:	f64f 72ff 	movw	r2, #65535	; 0xffff
 8021186:	e9c0 3202 	strd	r3, r2, [r0, #8]
  htim7.Init.AutoReloadPreload = TIM_AUTORELOAD_PRELOAD_DISABLE;
 802118a:	6183      	str	r3, [r0, #24]
  if (HAL_TIM_Base_Init(&htim7) != HAL_OK)
 802118c:	f002 fc02 	bl	8023994 <HAL_TIM_Base_Init>
 8021190:	b118      	cbz	r0, 802119a <MX_TIM7_Init+0x26>
  }
  /* USER CODE BEGIN TIM7_Init 2 */

  /* USER CODE END TIM7_Init 2 */

}
 8021192:	e8bd 4008 	ldmia.w	sp!, {r3, lr}
    Error_Handler();
 8021196:	f7ff bdbb 	b.w	8020d10 <Error_Handler>
}
 802119a:	bd08      	pop	{r3, pc}
 802119c:	2000df2c 	.word	0x2000df2c
 80211a0:	40001400 	.word	0x40001400

080211a4 <MX_TIM10_Init>:
  /* USER CODE END TIM10_Init 0 */

  /* USER CODE BEGIN TIM10_Init 1 */

  /* USER CODE END TIM10_Init 1 */
  htim10.Instance = TIM10;
 80211a4:	480a      	ldr	r0, [pc, #40]	; (80211d0 <MX_TIM10_Init+0x2c>)
  htim10.Init.Prescaler = 9999;
 80211a6:	4a0b      	ldr	r2, [pc, #44]	; (80211d4 <MX_TIM10_Init+0x30>)
{
 80211a8:	b508      	push	{r3, lr}
  htim10.Init.Prescaler = 9999;
 80211aa:	f242 730f 	movw	r3, #9999	; 0x270f
 80211ae:	e9c0 2300 	strd	r2, r3, [r0]
  htim10.Init.CounterMode = TIM_COUNTERMODE_UP;
  htim10.Init.Period = 10000;
 80211b2:	2300      	movs	r3, #0
 80211b4:	f242 7210 	movw	r2, #10000	; 0x2710
 80211b8:	e9c0 3202 	strd	r3, r2, [r0, #8]
  htim10.Init.ClockDivision = TIM_CLOCKDIVISION_DIV1;
 80211bc:	6103      	str	r3, [r0, #16]
  htim10.Init.AutoReloadPreload = TIM_AUTORELOAD_PRELOAD_DISABLE;
 80211be:	6183      	str	r3, [r0, #24]
  if (HAL_TIM_Base_Init(&htim10) != HAL_OK)
 80211c0:	f002 fbe8 	bl	8023994 <HAL_TIM_Base_Init>
 80211c4:	b118      	cbz	r0, 80211ce <MX_TIM10_Init+0x2a>
  }
  /* USER CODE BEGIN TIM10_Init 2 */

  /* USER CODE END TIM10_Init 2 */

}
 80211c6:	e8bd 4008 	ldmia.w	sp!, {r3, lr}
    Error_Handler();
 80211ca:	f7ff bda1 	b.w	8020d10 <Error_Handler>
}
 80211ce:	bd08      	pop	{r3, pc}
 80211d0:	2000de9c 	.word	0x2000de9c
 80211d4:	40014400 	.word	0x40014400

080211d8 <HAL_TIM_Base_MspInit>:

void HAL_TIM_Base_MspInit(TIM_HandleTypeDef* tim_baseHandle)
{
 80211d8:	b51f      	push	{r0, r1, r2, r3, r4, lr}

  if(tim_baseHandle->Instance==TIM6)
 80211da:	6803      	ldr	r3, [r0, #0]
 80211dc:	4a1f      	ldr	r2, [pc, #124]	; (802125c <HAL_TIM_Base_MspInit+0x84>)
 80211de:	4293      	cmp	r3, r2
 80211e0:	d115      	bne.n	802120e <HAL_TIM_Base_MspInit+0x36>
  {
  /* USER CODE BEGIN TIM6_MspInit 0 */

  /* USER CODE END TIM6_MspInit 0 */
    /* TIM6 clock enable */
    __HAL_RCC_TIM6_CLK_ENABLE();
 80211e2:	4b1f      	ldr	r3, [pc, #124]	; (8021260 <HAL_TIM_Base_MspInit+0x88>)
 80211e4:	2200      	movs	r2, #0
 80211e6:	9201      	str	r2, [sp, #4]
 80211e8:	6c19      	ldr	r1, [r3, #64]	; 0x40
 80211ea:	f041 0110 	orr.w	r1, r1, #16
 80211ee:	6419      	str	r1, [r3, #64]	; 0x40
 80211f0:	6c1b      	ldr	r3, [r3, #64]	; 0x40
 80211f2:	f003 0310 	and.w	r3, r3, #16
 80211f6:	9301      	str	r3, [sp, #4]

    /* TIM6 interrupt Init */
    HAL_NVIC_SetPriority(TIM6_IRQn, 5, 0);
 80211f8:	2036      	movs	r0, #54	; 0x36
 80211fa:	2105      	movs	r1, #5
    __HAL_RCC_TIM6_CLK_ENABLE();
 80211fc:	9b01      	ldr	r3, [sp, #4]
    HAL_NVIC_SetPriority(TIM6_IRQn, 5, 0);
 80211fe:	f000 fad1 	bl	80217a4 <HAL_NVIC_SetPriority>
    HAL_NVIC_EnableIRQ(TIM6_IRQn);
 8021202:	2036      	movs	r0, #54	; 0x36
    HAL_NVIC_EnableIRQ(TIM1_UP_TIM10_IRQn);
  /* USER CODE BEGIN TIM10_MspInit 1 */

  /* USER CODE END TIM10_MspInit 1 */
  }
}
 8021204:	b005      	add	sp, #20
 8021206:	f85d eb04 	ldr.w	lr, [sp], #4
    HAL_NVIC_EnableIRQ(TIM1_UP_TIM10_IRQn);
 802120a:	f000 bb0f 	b.w	802182c <HAL_NVIC_EnableIRQ>
  else if(tim_baseHandle->Instance==TIM7)
 802120e:	4a15      	ldr	r2, [pc, #84]	; (8021264 <HAL_TIM_Base_MspInit+0x8c>)
 8021210:	4293      	cmp	r3, r2
 8021212:	d10e      	bne.n	8021232 <HAL_TIM_Base_MspInit+0x5a>
    __HAL_RCC_TIM7_CLK_ENABLE();
 8021214:	2300      	movs	r3, #0
 8021216:	9302      	str	r3, [sp, #8]
 8021218:	4b11      	ldr	r3, [pc, #68]	; (8021260 <HAL_TIM_Base_MspInit+0x88>)
 802121a:	6c1a      	ldr	r2, [r3, #64]	; 0x40
 802121c:	f042 0220 	orr.w	r2, r2, #32
 8021220:	641a      	str	r2, [r3, #64]	; 0x40
 8021222:	6c1b      	ldr	r3, [r3, #64]	; 0x40
 8021224:	f003 0320 	and.w	r3, r3, #32
 8021228:	9302      	str	r3, [sp, #8]
 802122a:	9b02      	ldr	r3, [sp, #8]
}
 802122c:	b005      	add	sp, #20
 802122e:	f85d fb04 	ldr.w	pc, [sp], #4
  else if(tim_baseHandle->Instance==TIM10)
 8021232:	4a0d      	ldr	r2, [pc, #52]	; (8021268 <HAL_TIM_Base_MspInit+0x90>)
 8021234:	4293      	cmp	r3, r2
 8021236:	d1f9      	bne.n	802122c <HAL_TIM_Base_MspInit+0x54>
    __HAL_RCC_TIM10_CLK_ENABLE();
 8021238:	4b09      	ldr	r3, [pc, #36]	; (8021260 <HAL_TIM_Base_MspInit+0x88>)
 802123a:	2200      	movs	r2, #0
 802123c:	9203      	str	r2, [sp, #12]
 802123e:	6c59      	ldr	r1, [r3, #68]	; 0x44
 8021240:	f441 3100 	orr.w	r1, r1, #131072	; 0x20000
 8021244:	6459      	str	r1, [r3, #68]	; 0x44
 8021246:	6c5b      	ldr	r3, [r3, #68]	; 0x44
 8021248:	f403 3300 	and.w	r3, r3, #131072	; 0x20000
 802124c:	9303      	str	r3, [sp, #12]
    HAL_NVIC_SetPriority(TIM1_UP_TIM10_IRQn, 5, 0);
 802124e:	2019      	movs	r0, #25
 8021250:	2105      	movs	r1, #5
    __HAL_RCC_TIM10_CLK_ENABLE();
 8021252:	9b03      	ldr	r3, [sp, #12]
    HAL_NVIC_SetPriority(TIM1_UP_TIM10_IRQn, 5, 0);
 8021254:	f000 faa6 	bl	80217a4 <HAL_NVIC_SetPriority>
    HAL_NVIC_EnableIRQ(TIM1_UP_TIM10_IRQn);
 8021258:	2019      	movs	r0, #25
 802125a:	e7d3      	b.n	8021204 <HAL_TIM_Base_MspInit+0x2c>
 802125c:	40001000 	.word	0x40001000
 8021260:	40023800 	.word	0x40023800
 8021264:	40001400 	.word	0x40001400
 8021268:	40014400 	.word	0x40014400

0802126c <MX_USART1_UART_Init>:
  /* USER CODE END USART1_Init 0 */

  /* USER CODE BEGIN USART1_Init 1 */

  /* USER CODE END USART1_Init 1 */
  huart1.Instance = USART1;
 802126c:	480b      	ldr	r0, [pc, #44]	; (802129c <MX_USART1_UART_Init+0x30>)
  huart1.Init.BaudRate = 115200;
 802126e:	4a0c      	ldr	r2, [pc, #48]	; (80212a0 <MX_USART1_UART_Init+0x34>)
{
 8021270:	b508      	push	{r3, lr}
  huart1.Init.BaudRate = 115200;
 8021272:	f44f 33e1 	mov.w	r3, #115200	; 0x1c200
 8021276:	e9c0 2300 	strd	r2, r3, [r0]
  huart1.Init.WordLength = UART_WORDLENGTH_8B;
 802127a:	2300      	movs	r3, #0
  huart1.Init.StopBits = UART_STOPBITS_1;
  huart1.Init.Parity = UART_PARITY_NONE;
  huart1.Init.Mode = UART_MODE_TX_RX;
 802127c:	220c      	movs	r2, #12
  huart1.Init.StopBits = UART_STOPBITS_1;
 802127e:	e9c0 3302 	strd	r3, r3, [r0, #8]
  huart1.Init.HwFlowCtl = UART_HWCONTROL_NONE;
 8021282:	e9c0 2305 	strd	r2, r3, [r0, #20]
  huart1.Init.Parity = UART_PARITY_NONE;
 8021286:	6103      	str	r3, [r0, #16]
  huart1.Init.OverSampling = UART_OVERSAMPLING_16;
 8021288:	61c3      	str	r3, [r0, #28]
  if (HAL_UART_Init(&huart1) != HAL_OK)
 802128a:	f002 fd7f 	bl	8023d8c <HAL_UART_Init>
 802128e:	b118      	cbz	r0, 8021298 <MX_USART1_UART_Init+0x2c>
  }
  /* USER CODE BEGIN USART1_Init 2 */

  /* USER CODE END USART1_Init 2 */

}
 8021290:	e8bd 4008 	ldmia.w	sp!, {r3, lr}
    Error_Handler();
 8021294:	f7ff bd3c 	b.w	8020d10 <Error_Handler>
}
 8021298:	bd08      	pop	{r3, pc}
 802129a:	bf00      	nop
 802129c:	2000e1f8 	.word	0x2000e1f8
 80212a0:	40011000 	.word	0x40011000

080212a4 <MX_USART3_UART_Init>:
  /* USER CODE END USART3_Init 0 */

  /* USER CODE BEGIN USART3_Init 1 */

  /* USER CODE END USART3_Init 1 */
  huart3.Instance = USART3;
 80212a4:	480b      	ldr	r0, [pc, #44]	; (80212d4 <MX_USART3_UART_Init+0x30>)
  huart3.Init.BaudRate = 115200;
 80212a6:	4a0c      	ldr	r2, [pc, #48]	; (80212d8 <MX_USART3_UART_Init+0x34>)
{
 80212a8:	b508      	push	{r3, lr}
  huart3.Init.BaudRate = 115200;
 80212aa:	f44f 33e1 	mov.w	r3, #115200	; 0x1c200
 80212ae:	e9c0 2300 	strd	r2, r3, [r0]
  huart3.Init.WordLength = UART_WORDLENGTH_8B;
 80212b2:	2300      	movs	r3, #0
  huart3.Init.StopBits = UART_STOPBITS_1;
  huart3.Init.Parity = UART_PARITY_NONE;
  huart3.Init.Mode = UART_MODE_TX_RX;
 80212b4:	220c      	movs	r2, #12
  huart3.Init.StopBits = UART_STOPBITS_1;
 80212b6:	e9c0 3302 	strd	r3, r3, [r0, #8]
  huart3.Init.HwFlowCtl = UART_HWCONTROL_NONE;
 80212ba:	e9c0 2305 	strd	r2, r3, [r0, #20]
  huart3.Init.Parity = UART_PARITY_NONE;
 80212be:	6103      	str	r3, [r0, #16]
  huart3.Init.OverSampling = UART_OVERSAMPLING_16;
 80212c0:	61c3      	str	r3, [r0, #28]
  if (HAL_UART_Init(&huart3) != HAL_OK)
 80212c2:	f002 fd63 	bl	8023d8c <HAL_UART_Init>
 80212c6:	b118      	cbz	r0, 80212d0 <MX_USART3_UART_Init+0x2c>
  }
  /* USER CODE BEGIN USART3_Init 2 */

  /* USER CODE END USART3_Init 2 */

}
 80212c8:	e8bd 4008 	ldmia.w	sp!, {r3, lr}
    Error_Handler();
 80212cc:	f7ff bd20 	b.w	8020d10 <Error_Handler>
}
 80212d0:	bd08      	pop	{r3, pc}
 80212d2:	bf00      	nop
 80212d4:	2000e034 	.word	0x2000e034
 80212d8:	40004800 	.word	0x40004800

080212dc <MX_USART6_UART_Init>:
  /* USER CODE END USART6_Init 0 */

  /* USER CODE BEGIN USART6_Init 1 */

  /* USER CODE END USART6_Init 1 */
  huart6.Instance = USART6;
 80212dc:	480b      	ldr	r0, [pc, #44]	; (802130c <MX_USART6_UART_Init+0x30>)
  huart6.Init.BaudRate = 9600;
 80212de:	4a0c      	ldr	r2, [pc, #48]	; (8021310 <MX_USART6_UART_Init+0x34>)
{
 80212e0:	b508      	push	{r3, lr}
  huart6.Init.BaudRate = 9600;
 80212e2:	f44f 5316 	mov.w	r3, #9600	; 0x2580
 80212e6:	e9c0 2300 	strd	r2, r3, [r0]
  huart6.Init.WordLength = UART_WORDLENGTH_8B;
 80212ea:	2300      	movs	r3, #0
  huart6.Init.StopBits = UART_STOPBITS_1;
  huart6.Init.Parity = UART_PARITY_NONE;
  huart6.Init.Mode = UART_MODE_TX_RX;
 80212ec:	220c      	movs	r2, #12
  huart6.Init.StopBits = UART_STOPBITS_1;
 80212ee:	e9c0 3302 	strd	r3, r3, [r0, #8]
  huart6.Init.HwFlowCtl = UART_HWCONTROL_NONE;
 80212f2:	e9c0 2305 	strd	r2, r3, [r0, #20]
  huart6.Init.Parity = UART_PARITY_NONE;
 80212f6:	6103      	str	r3, [r0, #16]
  huart6.Init.OverSampling = UART_OVERSAMPLING_16;
 80212f8:	61c3      	str	r3, [r0, #28]
  if (HAL_UART_Init(&huart6) != HAL_OK)
 80212fa:	f002 fd47 	bl	8023d8c <HAL_UART_Init>
 80212fe:	b118      	cbz	r0, 8021308 <MX_USART6_UART_Init+0x2c>
  }
  /* USER CODE BEGIN USART6_Init 2 */

  /* USER CODE END USART6_Init 2 */

}
 8021300:	e8bd 4008 	ldmia.w	sp!, {r3, lr}
    Error_Handler();
 8021304:	f7ff bd04 	b.w	8020d10 <Error_Handler>
}
 8021308:	bd08      	pop	{r3, pc}
 802130a:	bf00      	nop
 802130c:	2000e23c 	.word	0x2000e23c
 8021310:	40011400 	.word	0x40011400

08021314 <HAL_UART_MspInit>:

void HAL_UART_MspInit(UART_HandleTypeDef* uartHandle)
{
 8021314:	e92d 43f0 	stmdb	sp!, {r4, r5, r6, r7, r8, r9, lr}
 8021318:	4605      	mov	r5, r0
 802131a:	b08d      	sub	sp, #52	; 0x34

  GPIO_InitTypeDef GPIO_InitStruct = {0};
 802131c:	2214      	movs	r2, #20
 802131e:	2100      	movs	r1, #0
 8021320:	a807      	add	r0, sp, #28
 8021322:	f009 ff11 	bl	802b148 <memset>
  if(uartHandle->Instance==USART1)
 8021326:	682b      	ldr	r3, [r5, #0]
 8021328:	4aa9      	ldr	r2, [pc, #676]	; (80215d0 <HAL_UART_MspInit+0x2bc>)
 802132a:	4293      	cmp	r3, r2
 802132c:	d16f      	bne.n	802140e <HAL_UART_MspInit+0xfa>
  {
  /* USER CODE BEGIN USART1_MspInit 0 */

  /* USER CODE END USART1_MspInit 0 */
    /* USART1 clock enable */
    __HAL_RCC_USART1_CLK_ENABLE();
 802132e:	2600      	movs	r6, #0
 8021330:	4ba8      	ldr	r3, [pc, #672]	; (80215d4 <HAL_UART_MspInit+0x2c0>)
 8021332:	9600      	str	r6, [sp, #0]
 8021334:	6c5a      	ldr	r2, [r3, #68]	; 0x44
    GPIO_InitStruct.Pin = GPIO_PIN_9;
    GPIO_InitStruct.Mode = GPIO_MODE_AF_PP;
    GPIO_InitStruct.Pull = GPIO_NOPULL;
    GPIO_InitStruct.Speed = GPIO_SPEED_FREQ_VERY_HIGH;
    GPIO_InitStruct.Alternate = GPIO_AF7_USART1;
    HAL_GPIO_Init(GPIOA, &GPIO_InitStruct);
 8021336:	48a8      	ldr	r0, [pc, #672]	; (80215d8 <HAL_UART_MspInit+0x2c4>)
    __HAL_RCC_USART1_CLK_ENABLE();
 8021338:	f042 0210 	orr.w	r2, r2, #16
 802133c:	645a      	str	r2, [r3, #68]	; 0x44
 802133e:	6c5a      	ldr	r2, [r3, #68]	; 0x44
 8021340:	f002 0210 	and.w	r2, r2, #16
 8021344:	9200      	str	r2, [sp, #0]
 8021346:	9a00      	ldr	r2, [sp, #0]
    __HAL_RCC_GPIOA_CLK_ENABLE();
 8021348:	9601      	str	r6, [sp, #4]
 802134a:	6b1a      	ldr	r2, [r3, #48]	; 0x30
 802134c:	f042 0201 	orr.w	r2, r2, #1
 8021350:	631a      	str	r2, [r3, #48]	; 0x30
 8021352:	6b1b      	ldr	r3, [r3, #48]	; 0x30
    GPIO_InitStruct.Pull = GPIO_NOPULL;
 8021354:	9609      	str	r6, [sp, #36]	; 0x24
    __HAL_RCC_GPIOA_CLK_ENABLE();
 8021356:	f003 0301 	and.w	r3, r3, #1
 802135a:	9301      	str	r3, [sp, #4]
    GPIO_InitStruct.Mode = GPIO_MODE_AF_PP;
 802135c:	f04f 0902 	mov.w	r9, #2
    GPIO_InitStruct.Alternate = GPIO_AF7_USART1;
 8021360:	2407      	movs	r4, #7
    __HAL_RCC_GPIOA_CLK_ENABLE();
 8021362:	9b01      	ldr	r3, [sp, #4]
    GPIO_InitStruct.Alternate = GPIO_AF7_USART1;
 8021364:	f04f 0803 	mov.w	r8, #3
    GPIO_InitStruct.Mode = GPIO_MODE_AF_PP;
 8021368:	f44f 7300 	mov.w	r3, #512	; 0x200
    HAL_GPIO_Init(GPIOA, &GPIO_InitStruct);
 802136c:	a907      	add	r1, sp, #28
    GPIO_InitStruct.Mode = GPIO_MODE_AF_PP;
 802136e:	e9cd 3907 	strd	r3, r9, [sp, #28]
    GPIO_InitStruct.Alternate = GPIO_AF7_USART1;
 8021372:	e9cd 840a 	strd	r8, r4, [sp, #40]	; 0x28

    GPIO_InitStruct.Pin = GPIO_PIN_10;
 8021376:	f44f 6780 	mov.w	r7, #1024	; 0x400
    HAL_GPIO_Init(GPIOA, &GPIO_InitStruct);
 802137a:	f000 ff87 	bl	802228c <HAL_GPIO_Init>
    GPIO_InitStruct.Mode = GPIO_MODE_AF_PP;
    GPIO_InitStruct.Pull = GPIO_PULLUP;
    GPIO_InitStruct.Speed = GPIO_SPEED_FREQ_VERY_HIGH;
    GPIO_InitStruct.Alternate = GPIO_AF7_USART1;
 802137e:	940b      	str	r4, [sp, #44]	; 0x2c
    HAL_GPIO_Init(GPIOA, &GPIO_InitStruct);

    /* USART1 DMA Init */
    /* USART1_RX Init */
    hdma_usart1_rx.Instance = DMA2_Stream2;
 8021380:	4c96      	ldr	r4, [pc, #600]	; (80215dc <HAL_UART_MspInit+0x2c8>)
    HAL_GPIO_Init(GPIOA, &GPIO_InitStruct);
 8021382:	4895      	ldr	r0, [pc, #596]	; (80215d8 <HAL_UART_MspInit+0x2c4>)
    GPIO_InitStruct.Pull = GPIO_PULLUP;
 8021384:	2301      	movs	r3, #1
    GPIO_InitStruct.Mode = GPIO_MODE_AF_PP;
 8021386:	e9cd 7907 	strd	r7, r9, [sp, #28]
    HAL_GPIO_Init(GPIOA, &GPIO_InitStruct);
 802138a:	a907      	add	r1, sp, #28
    hdma_usart1_rx.Init.Channel = DMA_CHANNEL_4;
 802138c:	f8df 9280 	ldr.w	r9, [pc, #640]	; 8021610 <HAL_UART_MspInit+0x2fc>
    GPIO_InitStruct.Speed = GPIO_SPEED_FREQ_VERY_HIGH;
 8021390:	e9cd 3809 	strd	r3, r8, [sp, #36]	; 0x24
    HAL_GPIO_Init(GPIOA, &GPIO_InitStruct);
 8021394:	f000 ff7a 	bl	802228c <HAL_GPIO_Init>
    hdma_usart1_rx.Init.Channel = DMA_CHANNEL_4;
 8021398:	f04f 6300 	mov.w	r3, #134217728	; 0x8000000
    hdma_usart1_rx.Init.PeriphDataAlignment = DMA_PDATAALIGN_BYTE;
    hdma_usart1_rx.Init.MemDataAlignment = DMA_MDATAALIGN_BYTE;
    hdma_usart1_rx.Init.Mode = DMA_NORMAL;
    hdma_usart1_rx.Init.Priority = DMA_PRIORITY_LOW;
    hdma_usart1_rx.Init.FIFOMode = DMA_FIFOMODE_DISABLE;
    if (HAL_DMA_Init(&hdma_usart1_rx) != HAL_OK)
 802139c:	4620      	mov	r0, r4
    hdma_usart1_rx.Init.Channel = DMA_CHANNEL_4;
 802139e:	e9c4 9300 	strd	r9, r3, [r4]
    hdma_usart1_rx.Init.PeriphInc = DMA_PINC_DISABLE;
 80213a2:	e9c4 6602 	strd	r6, r6, [r4, #8]
    hdma_usart1_rx.Init.PeriphDataAlignment = DMA_PDATAALIGN_BYTE;
 80213a6:	e9c4 7604 	strd	r7, r6, [r4, #16]
    hdma_usart1_rx.Init.Mode = DMA_NORMAL;
 80213aa:	e9c4 6606 	strd	r6, r6, [r4, #24]
    hdma_usart1_rx.Init.FIFOMode = DMA_FIFOMODE_DISABLE;
 80213ae:	e9c4 6608 	strd	r6, r6, [r4, #32]
    if (HAL_DMA_Init(&hdma_usart1_rx) != HAL_OK)
 80213b2:	f000 fa77 	bl	80218a4 <HAL_DMA_Init>
 80213b6:	b108      	cbz	r0, 80213bc <HAL_UART_MspInit+0xa8>
    {
      Error_Handler();
 80213b8:	f7ff fcaa 	bl	8020d10 <Error_Handler>
    }

    __HAL_LINKDMA(uartHandle,hdmarx,hdma_usart1_rx);
 80213bc:	63ac      	str	r4, [r5, #56]	; 0x38

    /* USART1_TX Init */
    hdma_usart1_tx.Instance = DMA2_Stream7;
    hdma_usart1_tx.Init.Channel = DMA_CHANNEL_4;
 80213be:	f8df e254 	ldr.w	lr, [pc, #596]	; 8021614 <HAL_UART_MspInit+0x300>
    __HAL_LINKDMA(uartHandle,hdmarx,hdma_usart1_rx);
 80213c2:	63a5      	str	r5, [r4, #56]	; 0x38
    hdma_usart1_tx.Instance = DMA2_Stream7;
 80213c4:	4c86      	ldr	r4, [pc, #536]	; (80215e0 <HAL_UART_MspInit+0x2cc>)
    hdma_usart1_tx.Init.Channel = DMA_CHANNEL_4;
 80213c6:	f04f 6300 	mov.w	r3, #134217728	; 0x8000000
 80213ca:	e9c4 e300 	strd	lr, r3, [r4]
    hdma_usart1_tx.Init.Direction = DMA_MEMORY_TO_PERIPH;
    hdma_usart1_tx.Init.PeriphInc = DMA_PINC_DISABLE;
 80213ce:	f04f 0840 	mov.w	r8, #64	; 0x40
 80213d2:	2300      	movs	r3, #0
    hdma_usart1_tx.Init.MemInc = DMA_MINC_ENABLE;
 80213d4:	f44f 6280 	mov.w	r2, #1024	; 0x400
    hdma_usart1_tx.Init.PeriphDataAlignment = DMA_PDATAALIGN_BYTE;
    hdma_usart1_tx.Init.MemDataAlignment = DMA_MDATAALIGN_BYTE;
    hdma_usart1_tx.Init.Mode = DMA_NORMAL;
    hdma_usart1_tx.Init.Priority = DMA_PRIORITY_LOW;
    hdma_usart1_tx.Init.FIFOMode = DMA_FIFOMODE_DISABLE;
    if (HAL_DMA_Init(&hdma_usart1_tx) != HAL_OK)
 80213d8:	4620      	mov	r0, r4
    hdma_usart1_tx.Init.PeriphInc = DMA_PINC_DISABLE;
 80213da:	e9c4 8302 	strd	r8, r3, [r4, #8]
    hdma_usart1_tx.Init.PeriphDataAlignment = DMA_PDATAALIGN_BYTE;
 80213de:	e9c4 2304 	strd	r2, r3, [r4, #16]
    hdma_usart1_tx.Init.Mode = DMA_NORMAL;
 80213e2:	e9c4 3306 	strd	r3, r3, [r4, #24]
    hdma_usart1_tx.Init.FIFOMode = DMA_FIFOMODE_DISABLE;
 80213e6:	e9c4 3308 	strd	r3, r3, [r4, #32]
    if (HAL_DMA_Init(&hdma_usart1_tx) != HAL_OK)
 80213ea:	f000 fa5b 	bl	80218a4 <HAL_DMA_Init>
 80213ee:	b108      	cbz	r0, 80213f4 <HAL_UART_MspInit+0xe0>
    {
      Error_Handler();
 80213f0:	f7ff fc8e 	bl	8020d10 <Error_Handler>
    }

    __HAL_LINKDMA(uartHandle,hdmatx,hdma_usart1_tx);
 80213f4:	636c      	str	r4, [r5, #52]	; 0x34

    /* USART1 interrupt Init */
    HAL_NVIC_SetPriority(USART1_IRQn, 5, 0);
 80213f6:	2025      	movs	r0, #37	; 0x25
 80213f8:	2200      	movs	r2, #0
 80213fa:	2105      	movs	r1, #5
    __HAL_LINKDMA(uartHandle,hdmatx,hdma_usart1_tx);
 80213fc:	63a5      	str	r5, [r4, #56]	; 0x38
    HAL_NVIC_SetPriority(USART1_IRQn, 5, 0);
 80213fe:	f000 f9d1 	bl	80217a4 <HAL_NVIC_SetPriority>
    HAL_NVIC_EnableIRQ(USART1_IRQn);
 8021402:	2025      	movs	r0, #37	; 0x25

    __HAL_LINKDMA(uartHandle,hdmatx,hdma_usart6_tx);

    /* USART6 interrupt Init */
    HAL_NVIC_SetPriority(USART6_IRQn, 5, 0);
    HAL_NVIC_EnableIRQ(USART6_IRQn);
 8021404:	f000 fa12 	bl	802182c <HAL_NVIC_EnableIRQ>
  /* USER CODE BEGIN USART6_MspInit 1 */

  /* USER CODE END USART6_MspInit 1 */
  }
}
 8021408:	b00d      	add	sp, #52	; 0x34
 802140a:	e8bd 83f0 	ldmia.w	sp!, {r4, r5, r6, r7, r8, r9, pc}
  else if(uartHandle->Instance==USART3)
 802140e:	4a75      	ldr	r2, [pc, #468]	; (80215e4 <HAL_UART_MspInit+0x2d0>)
 8021410:	4293      	cmp	r3, r2
 8021412:	d172      	bne.n	80214fa <HAL_UART_MspInit+0x1e6>
    __HAL_RCC_USART3_CLK_ENABLE();
 8021414:	4b6f      	ldr	r3, [pc, #444]	; (80215d4 <HAL_UART_MspInit+0x2c0>)
    HAL_GPIO_Init(GPIOC, &GPIO_InitStruct);
 8021416:	4874      	ldr	r0, [pc, #464]	; (80215e8 <HAL_UART_MspInit+0x2d4>)
    __HAL_RCC_USART3_CLK_ENABLE();
 8021418:	2600      	movs	r6, #0
 802141a:	9602      	str	r6, [sp, #8]
 802141c:	6c1a      	ldr	r2, [r3, #64]	; 0x40
 802141e:	f442 2280 	orr.w	r2, r2, #262144	; 0x40000
 8021422:	641a      	str	r2, [r3, #64]	; 0x40
 8021424:	6c1a      	ldr	r2, [r3, #64]	; 0x40
 8021426:	f402 2280 	and.w	r2, r2, #262144	; 0x40000
 802142a:	9202      	str	r2, [sp, #8]
 802142c:	9a02      	ldr	r2, [sp, #8]
    __HAL_RCC_GPIOC_CLK_ENABLE();
 802142e:	9603      	str	r6, [sp, #12]
 8021430:	6b1a      	ldr	r2, [r3, #48]	; 0x30
 8021432:	f042 0204 	orr.w	r2, r2, #4
 8021436:	631a      	str	r2, [r3, #48]	; 0x30
 8021438:	6b1a      	ldr	r2, [r3, #48]	; 0x30
 802143a:	f002 0204 	and.w	r2, r2, #4
 802143e:	9203      	str	r2, [sp, #12]
 8021440:	9a03      	ldr	r2, [sp, #12]
    __HAL_RCC_GPIOB_CLK_ENABLE();
 8021442:	9604      	str	r6, [sp, #16]
 8021444:	6b1a      	ldr	r2, [r3, #48]	; 0x30
 8021446:	f042 0202 	orr.w	r2, r2, #2
 802144a:	631a      	str	r2, [r3, #48]	; 0x30
 802144c:	6b1b      	ldr	r3, [r3, #48]	; 0x30
 802144e:	f003 0302 	and.w	r3, r3, #2
 8021452:	9304      	str	r3, [sp, #16]
 8021454:	9b04      	ldr	r3, [sp, #16]
    GPIO_InitStruct.Mode = GPIO_MODE_AF_PP;
 8021456:	f04f 0902 	mov.w	r9, #2
 802145a:	2320      	movs	r3, #32
    GPIO_InitStruct.Alternate = GPIO_AF7_USART3;
 802145c:	2407      	movs	r4, #7
    GPIO_InitStruct.Mode = GPIO_MODE_AF_PP;
 802145e:	e9cd 3907 	strd	r3, r9, [sp, #28]
    GPIO_InitStruct.Speed = GPIO_SPEED_FREQ_VERY_HIGH;
 8021462:	f04f 0803 	mov.w	r8, #3
 8021466:	2301      	movs	r3, #1
    HAL_GPIO_Init(GPIOC, &GPIO_InitStruct);
 8021468:	a907      	add	r1, sp, #28
    GPIO_InitStruct.Speed = GPIO_SPEED_FREQ_VERY_HIGH;
 802146a:	e9cd 3809 	strd	r3, r8, [sp, #36]	; 0x24
    GPIO_InitStruct.Alternate = GPIO_AF7_USART3;
 802146e:	940b      	str	r4, [sp, #44]	; 0x2c
    GPIO_InitStruct.Pin = GPIO_PIN_10;
 8021470:	f44f 6780 	mov.w	r7, #1024	; 0x400
    HAL_GPIO_Init(GPIOC, &GPIO_InitStruct);
 8021474:	f000 ff0a 	bl	802228c <HAL_GPIO_Init>
    HAL_GPIO_Init(GPIOB, &GPIO_InitStruct);
 8021478:	485c      	ldr	r0, [pc, #368]	; (80215ec <HAL_UART_MspInit+0x2d8>)
    GPIO_InitStruct.Alternate = GPIO_AF7_USART3;
 802147a:	940b      	str	r4, [sp, #44]	; 0x2c
    HAL_GPIO_Init(GPIOB, &GPIO_InitStruct);
 802147c:	a907      	add	r1, sp, #28
    hdma_usart3_rx.Instance = DMA1_Stream1;
 802147e:	4c5c      	ldr	r4, [pc, #368]	; (80215f0 <HAL_UART_MspInit+0x2dc>)
    GPIO_InitStruct.Mode = GPIO_MODE_AF_PP;
 8021480:	e9cd 7907 	strd	r7, r9, [sp, #28]
    GPIO_InitStruct.Speed = GPIO_SPEED_FREQ_VERY_HIGH;
 8021484:	e9cd 6809 	strd	r6, r8, [sp, #36]	; 0x24
    HAL_GPIO_Init(GPIOB, &GPIO_InitStruct);
 8021488:	f000 ff00 	bl	802228c <HAL_GPIO_Init>
    hdma_usart3_rx.Init.Channel = DMA_CHANNEL_4;
 802148c:	f8df c188 	ldr.w	ip, [pc, #392]	; 8021618 <HAL_UART_MspInit+0x304>
 8021490:	f04f 6300 	mov.w	r3, #134217728	; 0x8000000
    if (HAL_DMA_Init(&hdma_usart3_rx) != HAL_OK)
 8021494:	4620      	mov	r0, r4
    hdma_usart3_rx.Init.Channel = DMA_CHANNEL_4;
 8021496:	e9c4 c300 	strd	ip, r3, [r4]
    hdma_usart3_rx.Init.PeriphInc = DMA_PINC_DISABLE;
 802149a:	e9c4 6602 	strd	r6, r6, [r4, #8]
    hdma_usart3_rx.Init.PeriphDataAlignment = DMA_PDATAALIGN_BYTE;
 802149e:	e9c4 7604 	strd	r7, r6, [r4, #16]
    hdma_usart3_rx.Init.Mode = DMA_NORMAL;
 80214a2:	e9c4 6606 	strd	r6, r6, [r4, #24]
    hdma_usart3_rx.Init.FIFOMode = DMA_FIFOMODE_DISABLE;
 80214a6:	e9c4 6608 	strd	r6, r6, [r4, #32]
    if (HAL_DMA_Init(&hdma_usart3_rx) != HAL_OK)
 80214aa:	f000 f9fb 	bl	80218a4 <HAL_DMA_Init>
 80214ae:	b108      	cbz	r0, 80214b4 <HAL_UART_MspInit+0x1a0>
      Error_Handler();
 80214b0:	f7ff fc2e 	bl	8020d10 <Error_Handler>
    __HAL_LINKDMA(uartHandle,hdmarx,hdma_usart3_rx);
 80214b4:	63ac      	str	r4, [r5, #56]	; 0x38
    hdma_usart3_tx.Init.Channel = DMA_CHANNEL_4;
 80214b6:	4e4f      	ldr	r6, [pc, #316]	; (80215f4 <HAL_UART_MspInit+0x2e0>)
    __HAL_LINKDMA(uartHandle,hdmarx,hdma_usart3_rx);
 80214b8:	63a5      	str	r5, [r4, #56]	; 0x38
    hdma_usart3_tx.Instance = DMA1_Stream3;
 80214ba:	4c4f      	ldr	r4, [pc, #316]	; (80215f8 <HAL_UART_MspInit+0x2e4>)
    hdma_usart3_tx.Init.Channel = DMA_CHANNEL_4;
 80214bc:	f04f 6300 	mov.w	r3, #134217728	; 0x8000000
 80214c0:	e9c4 6300 	strd	r6, r3, [r4]
    hdma_usart3_tx.Init.PeriphInc = DMA_PINC_DISABLE;
 80214c4:	2740      	movs	r7, #64	; 0x40
 80214c6:	2300      	movs	r3, #0
    hdma_usart3_tx.Init.MemInc = DMA_MINC_ENABLE;
 80214c8:	f44f 6280 	mov.w	r2, #1024	; 0x400
    if (HAL_DMA_Init(&hdma_usart3_tx) != HAL_OK)
 80214cc:	4620      	mov	r0, r4
    hdma_usart3_tx.Init.PeriphInc = DMA_PINC_DISABLE;
 80214ce:	e9c4 7302 	strd	r7, r3, [r4, #8]
    hdma_usart3_tx.Init.PeriphDataAlignment = DMA_PDATAALIGN_BYTE;
 80214d2:	e9c4 2304 	strd	r2, r3, [r4, #16]
    hdma_usart3_tx.Init.Mode = DMA_NORMAL;
 80214d6:	e9c4 3306 	strd	r3, r3, [r4, #24]
    hdma_usart3_tx.Init.FIFOMode = DMA_FIFOMODE_DISABLE;
 80214da:	e9c4 3308 	strd	r3, r3, [r4, #32]
    if (HAL_DMA_Init(&hdma_usart3_tx) != HAL_OK)
 80214de:	f000 f9e1 	bl	80218a4 <HAL_DMA_Init>
 80214e2:	b108      	cbz	r0, 80214e8 <HAL_UART_MspInit+0x1d4>
      Error_Handler();
 80214e4:	f7ff fc14 	bl	8020d10 <Error_Handler>
    __HAL_LINKDMA(uartHandle,hdmatx,hdma_usart3_tx);
 80214e8:	636c      	str	r4, [r5, #52]	; 0x34
    HAL_NVIC_SetPriority(USART3_IRQn, 5, 0);
 80214ea:	2027      	movs	r0, #39	; 0x27
 80214ec:	2200      	movs	r2, #0
 80214ee:	2105      	movs	r1, #5
    __HAL_LINKDMA(uartHandle,hdmatx,hdma_usart3_tx);
 80214f0:	63a5      	str	r5, [r4, #56]	; 0x38
    HAL_NVIC_SetPriority(USART3_IRQn, 5, 0);
 80214f2:	f000 f957 	bl	80217a4 <HAL_NVIC_SetPriority>
    HAL_NVIC_EnableIRQ(USART3_IRQn);
 80214f6:	2027      	movs	r0, #39	; 0x27
 80214f8:	e784      	b.n	8021404 <HAL_UART_MspInit+0xf0>
  else if(uartHandle->Instance==USART6)
 80214fa:	4a40      	ldr	r2, [pc, #256]	; (80215fc <HAL_UART_MspInit+0x2e8>)
 80214fc:	4293      	cmp	r3, r2
 80214fe:	d183      	bne.n	8021408 <HAL_UART_MspInit+0xf4>
    __HAL_RCC_USART6_CLK_ENABLE();
 8021500:	2600      	movs	r6, #0
 8021502:	4b34      	ldr	r3, [pc, #208]	; (80215d4 <HAL_UART_MspInit+0x2c0>)
 8021504:	9605      	str	r6, [sp, #20]
 8021506:	6c5a      	ldr	r2, [r3, #68]	; 0x44
    HAL_GPIO_Init(GPIOC, &GPIO_InitStruct);
 8021508:	4837      	ldr	r0, [pc, #220]	; (80215e8 <HAL_UART_MspInit+0x2d4>)
    __HAL_RCC_USART6_CLK_ENABLE();
 802150a:	f042 0220 	orr.w	r2, r2, #32
 802150e:	645a      	str	r2, [r3, #68]	; 0x44
 8021510:	6c5a      	ldr	r2, [r3, #68]	; 0x44
 8021512:	f002 0220 	and.w	r2, r2, #32
 8021516:	9205      	str	r2, [sp, #20]
 8021518:	9a05      	ldr	r2, [sp, #20]
    __HAL_RCC_GPIOC_CLK_ENABLE();
 802151a:	9606      	str	r6, [sp, #24]
 802151c:	6b1a      	ldr	r2, [r3, #48]	; 0x30
 802151e:	f042 0204 	orr.w	r2, r2, #4
 8021522:	631a      	str	r2, [r3, #48]	; 0x30
 8021524:	6b1b      	ldr	r3, [r3, #48]	; 0x30
    GPIO_InitStruct.Pull = GPIO_NOPULL;
 8021526:	9609      	str	r6, [sp, #36]	; 0x24
    __HAL_RCC_GPIOC_CLK_ENABLE();
 8021528:	f003 0304 	and.w	r3, r3, #4
 802152c:	9306      	str	r3, [sp, #24]
    GPIO_InitStruct.Alternate = GPIO_AF8_USART6;
 802152e:	2408      	movs	r4, #8
    __HAL_RCC_GPIOC_CLK_ENABLE();
 8021530:	9b06      	ldr	r3, [sp, #24]
    GPIO_InitStruct.Mode = GPIO_MODE_AF_PP;
 8021532:	f04f 0802 	mov.w	r8, #2
 8021536:	2340      	movs	r3, #64	; 0x40
    GPIO_InitStruct.Alternate = GPIO_AF8_USART6;
 8021538:	2703      	movs	r7, #3
    HAL_GPIO_Init(GPIOC, &GPIO_InitStruct);
 802153a:	a907      	add	r1, sp, #28
    GPIO_InitStruct.Mode = GPIO_MODE_AF_PP;
 802153c:	e9cd 3807 	strd	r3, r8, [sp, #28]
    GPIO_InitStruct.Alternate = GPIO_AF8_USART6;
 8021540:	e9cd 740a 	strd	r7, r4, [sp, #40]	; 0x28
    HAL_GPIO_Init(GPIOC, &GPIO_InitStruct);
 8021544:	f000 fea2 	bl	802228c <HAL_GPIO_Init>
    GPIO_InitStruct.Pin = GPIO_PIN_7;
 8021548:	2380      	movs	r3, #128	; 0x80
    GPIO_InitStruct.Mode = GPIO_MODE_AF_PP;
 802154a:	e9cd 3807 	strd	r3, r8, [sp, #28]
    HAL_GPIO_Init(GPIOC, &GPIO_InitStruct);
 802154e:	4826      	ldr	r0, [pc, #152]	; (80215e8 <HAL_UART_MspInit+0x2d4>)
    GPIO_InitStruct.Alternate = GPIO_AF8_USART6;
 8021550:	940b      	str	r4, [sp, #44]	; 0x2c
    GPIO_InitStruct.Pull = GPIO_PULLUP;
 8021552:	2301      	movs	r3, #1
    HAL_GPIO_Init(GPIOC, &GPIO_InitStruct);
 8021554:	a907      	add	r1, sp, #28
    hdma_usart6_rx.Instance = DMA2_Stream1;
 8021556:	4c2a      	ldr	r4, [pc, #168]	; (8021600 <HAL_UART_MspInit+0x2ec>)
    GPIO_InitStruct.Speed = GPIO_SPEED_FREQ_VERY_HIGH;
 8021558:	e9cd 3709 	strd	r3, r7, [sp, #36]	; 0x24
    HAL_GPIO_Init(GPIOC, &GPIO_InitStruct);
 802155c:	f000 fe96 	bl	802228c <HAL_GPIO_Init>
    hdma_usart6_rx.Init.Channel = DMA_CHANNEL_5;
 8021560:	4828      	ldr	r0, [pc, #160]	; (8021604 <HAL_UART_MspInit+0x2f0>)
 8021562:	f04f 6320 	mov.w	r3, #167772160	; 0xa000000
 8021566:	e9c4 0300 	strd	r0, r3, [r4]
    hdma_usart6_rx.Init.MemInc = DMA_MINC_ENABLE;
 802156a:	f44f 6380 	mov.w	r3, #1024	; 0x400
    if (HAL_DMA_Init(&hdma_usart6_rx) != HAL_OK)
 802156e:	4620      	mov	r0, r4
    hdma_usart6_rx.Init.PeriphInc = DMA_PINC_DISABLE;
 8021570:	e9c4 6602 	strd	r6, r6, [r4, #8]
    hdma_usart6_rx.Init.PeriphDataAlignment = DMA_PDATAALIGN_BYTE;
 8021574:	e9c4 3604 	strd	r3, r6, [r4, #16]
    hdma_usart6_rx.Init.Mode = DMA_NORMAL;
 8021578:	e9c4 6606 	strd	r6, r6, [r4, #24]
    hdma_usart6_rx.Init.FIFOMode = DMA_FIFOMODE_DISABLE;
 802157c:	e9c4 6608 	strd	r6, r6, [r4, #32]
    if (HAL_DMA_Init(&hdma_usart6_rx) != HAL_OK)
 8021580:	f000 f990 	bl	80218a4 <HAL_DMA_Init>
 8021584:	b108      	cbz	r0, 802158a <HAL_UART_MspInit+0x276>
      Error_Handler();
 8021586:	f7ff fbc3 	bl	8020d10 <Error_Handler>
    hdma_usart6_tx.Init.Channel = DMA_CHANNEL_5;
 802158a:	4a1f      	ldr	r2, [pc, #124]	; (8021608 <HAL_UART_MspInit+0x2f4>)
    __HAL_LINKDMA(uartHandle,hdmarx,hdma_usart6_rx);
 802158c:	63ac      	str	r4, [r5, #56]	; 0x38
 802158e:	63a5      	str	r5, [r4, #56]	; 0x38
    hdma_usart6_tx.Instance = DMA2_Stream6;
 8021590:	4c1e      	ldr	r4, [pc, #120]	; (802160c <HAL_UART_MspInit+0x2f8>)
    hdma_usart6_tx.Init.Channel = DMA_CHANNEL_5;
 8021592:	f04f 6320 	mov.w	r3, #167772160	; 0xa000000
 8021596:	e9c4 2300 	strd	r2, r3, [r4]
    hdma_usart6_tx.Init.PeriphInc = DMA_PINC_DISABLE;
 802159a:	2140      	movs	r1, #64	; 0x40
 802159c:	2300      	movs	r3, #0
    hdma_usart6_tx.Init.MemInc = DMA_MINC_ENABLE;
 802159e:	f44f 6280 	mov.w	r2, #1024	; 0x400
    if (HAL_DMA_Init(&hdma_usart6_tx) != HAL_OK)
 80215a2:	4620      	mov	r0, r4
    hdma_usart6_tx.Init.PeriphInc = DMA_PINC_DISABLE;
 80215a4:	e9c4 1302 	strd	r1, r3, [r4, #8]
    hdma_usart6_tx.Init.PeriphDataAlignment = DMA_PDATAALIGN_BYTE;
 80215a8:	e9c4 2304 	strd	r2, r3, [r4, #16]
    hdma_usart6_tx.Init.Mode = DMA_NORMAL;
 80215ac:	e9c4 3306 	strd	r3, r3, [r4, #24]
    hdma_usart6_tx.Init.FIFOMode = DMA_FIFOMODE_DISABLE;
 80215b0:	e9c4 3308 	strd	r3, r3, [r4, #32]
    if (HAL_DMA_Init(&hdma_usart6_tx) != HAL_OK)
 80215b4:	f000 f976 	bl	80218a4 <HAL_DMA_Init>
 80215b8:	b108      	cbz	r0, 80215be <HAL_UART_MspInit+0x2aa>
      Error_Handler();
 80215ba:	f7ff fba9 	bl	8020d10 <Error_Handler>
    __HAL_LINKDMA(uartHandle,hdmatx,hdma_usart6_tx);
 80215be:	636c      	str	r4, [r5, #52]	; 0x34
    HAL_NVIC_SetPriority(USART6_IRQn, 5, 0);
 80215c0:	2047      	movs	r0, #71	; 0x47
 80215c2:	2200      	movs	r2, #0
 80215c4:	2105      	movs	r1, #5
    __HAL_LINKDMA(uartHandle,hdmatx,hdma_usart6_tx);
 80215c6:	63a5      	str	r5, [r4, #56]	; 0x38
    HAL_NVIC_SetPriority(USART6_IRQn, 5, 0);
 80215c8:	f000 f8ec 	bl	80217a4 <HAL_NVIC_SetPriority>
    HAL_NVIC_EnableIRQ(USART6_IRQn);
 80215cc:	2047      	movs	r0, #71	; 0x47
 80215ce:	e719      	b.n	8021404 <HAL_UART_MspInit+0xf0>
 80215d0:	40011000 	.word	0x40011000
 80215d4:	40023800 	.word	0x40023800
 80215d8:	40020000 	.word	0x40020000
 80215dc:	2000e198 	.word	0x2000e198
 80215e0:	2000e0d8 	.word	0x2000e0d8
 80215e4:	40004800 	.word	0x40004800
 80215e8:	40020800 	.word	0x40020800
 80215ec:	40020400 	.word	0x40020400
 80215f0:	2000dfd4 	.word	0x2000dfd4
 80215f4:	40026058 	.word	0x40026058
 80215f8:	2000e078 	.word	0x2000e078
 80215fc:	40011400 	.word	0x40011400
 8021600:	2000df74 	.word	0x2000df74
 8021604:	40026428 	.word	0x40026428
 8021608:	400264a0 	.word	0x400264a0
 802160c:	2000e138 	.word	0x2000e138
 8021610:	40026440 	.word	0x40026440
 8021614:	400264b8 	.word	0x400264b8
 8021618:	40026028 	.word	0x40026028

0802161c <Reset_Handler>:
 802161c:	f8df d034 	ldr.w	sp, [pc, #52]	; 8021654 <LoopFillZerobss+0x12>
 8021620:	480d      	ldr	r0, [pc, #52]	; (8021658 <LoopFillZerobss+0x16>)
 8021622:	490e      	ldr	r1, [pc, #56]	; (802165c <LoopFillZerobss+0x1a>)
 8021624:	4a0e      	ldr	r2, [pc, #56]	; (8021660 <LoopFillZerobss+0x1e>)
 8021626:	2300      	movs	r3, #0
 8021628:	e002      	b.n	8021630 <LoopCopyDataInit>

0802162a <CopyDataInit>:
 802162a:	58d4      	ldr	r4, [r2, r3]
 802162c:	50c4      	str	r4, [r0, r3]
 802162e:	3304      	adds	r3, #4

08021630 <LoopCopyDataInit>:
 8021630:	18c4      	adds	r4, r0, r3
 8021632:	428c      	cmp	r4, r1
 8021634:	d3f9      	bcc.n	802162a <CopyDataInit>
 8021636:	4a0b      	ldr	r2, [pc, #44]	; (8021664 <LoopFillZerobss+0x22>)
 8021638:	4c0b      	ldr	r4, [pc, #44]	; (8021668 <LoopFillZerobss+0x26>)
 802163a:	2300      	movs	r3, #0
 802163c:	e001      	b.n	8021642 <LoopFillZerobss>

0802163e <FillZerobss>:
 802163e:	6013      	str	r3, [r2, #0]
 8021640:	3204      	adds	r2, #4

08021642 <LoopFillZerobss>:
 8021642:	42a2      	cmp	r2, r4
 8021644:	d3fb      	bcc.n	802163e <FillZerobss>
 8021646:	f7ff fd67 	bl	8021118 <SystemInit>
 802164a:	f009 fd3d 	bl	802b0c8 <__libc_init_array>
 802164e:	f7ff fbb7 	bl	8020dc0 <main>
 8021652:	4770      	bx	lr
 8021654:	20040000 	.word	0x20040000
 8021658:	20000000 	.word	0x20000000
 802165c:	200001bc 	.word	0x200001bc
 8021660:	0802c718 	.word	0x0802c718
 8021664:	200001bc 	.word	0x200001bc
 8021668:	2000efc0 	.word	0x2000efc0

0802166c <ADC_IRQHandler>:
 802166c:	e7fe      	b.n	802166c <ADC_IRQHandler>

0802166e <stm32_lock_acquire>:
/**
  * @brief Acquire STM32 lock
  * @param lock The lock to acquire
  */
static inline void stm32_lock_acquire(LockingData_t *lock)
{
 802166e:	b508      	push	{r3, lr}
  STM32_LOCK_BLOCK_IF_NULL_ARGUMENT(lock);
  STM32_LOCK_ASSERT_VALID_NESTING_LEVEL(lock);
 8021670:	7a03      	ldrb	r3, [r0, #8]
 8021672:	2b01      	cmp	r3, #1
 8021674:	d903      	bls.n	802167e <stm32_lock_acquire+0x10>
  __ASM volatile ("cpsid i" : : : "memory");
 8021676:	b672      	cpsid	i
 8021678:	f7ff fb4a 	bl	8020d10 <Error_Handler>
 802167c:	e7fe      	b.n	802167c <stm32_lock_acquire+0xe>
  lock->basepri[lock->nesting_level++] = taskENTER_CRITICAL_FROM_ISR();
 802167e:	1c5a      	adds	r2, r3, #1
 8021680:	7202      	strb	r2, [r0, #8]

portFORCE_INLINE static uint32_t ulPortRaiseBASEPRI( void )
{
uint32_t ulOriginalBASEPRI, ulNewBASEPRI;

	__asm volatile
 8021682:	f3ef 8211 	mrs	r2, BASEPRI
 8021686:	f04f 0150 	mov.w	r1, #80	; 0x50
 802168a:	f381 8811 	msr	BASEPRI, r1
 802168e:	f3bf 8f6f 	isb	sy
 8021692:	f3bf 8f4f 	dsb	sy
 8021696:	f840 2023 	str.w	r2, [r0, r3, lsl #2]
}
 802169a:	bd08      	pop	{r3, pc}

0802169c <stm32_lock_release>:
/**
  * @brief Release STM32 lock
  * @param lock The lock to release
  */
static inline void stm32_lock_release(LockingData_t *lock)
{
 802169c:	b508      	push	{r3, lr}
  STM32_LOCK_BLOCK_IF_NULL_ARGUMENT(lock);
  lock->nesting_level--;
 802169e:	7a03      	ldrb	r3, [r0, #8]
 80216a0:	3b01      	subs	r3, #1
 80216a2:	b2db      	uxtb	r3, r3
  STM32_LOCK_ASSERT_VALID_NESTING_LEVEL(lock);
 80216a4:	2b01      	cmp	r3, #1
  lock->nesting_level--;
 80216a6:	7203      	strb	r3, [r0, #8]
  STM32_LOCK_ASSERT_VALID_NESTING_LEVEL(lock);
 80216a8:	d903      	bls.n	80216b2 <stm32_lock_release+0x16>
 80216aa:	b672      	cpsid	i
 80216ac:	f7ff fb30 	bl	8020d10 <Error_Handler>
 80216b0:	e7fe      	b.n	80216b0 <stm32_lock_release+0x14>
}
/*-----------------------------------------------------------*/

portFORCE_INLINE static void vPortSetBASEPRI( uint32_t ulNewMaskValue )
{
	__asm volatile
 80216b2:	f850 3023 	ldr.w	r3, [r0, r3, lsl #2]
 80216b6:	f383 8811 	msr	BASEPRI, r3
  taskEXIT_CRITICAL_FROM_ISR(lock->basepri[lock->nesting_level]);
}
 80216ba:	bd08      	pop	{r3, pc}

080216bc <__retarget_lock_acquire>:
/**
  * @brief Acquire lock
  * @param lock The lock
  */
void __retarget_lock_acquire(_LOCK_T lock)
{
 80216bc:	b508      	push	{r3, lr}
  STM32_LOCK_BLOCK_IF_NULL_ARGUMENT(lock);
 80216be:	b918      	cbnz	r0, 80216c8 <__retarget_lock_acquire+0xc>
 80216c0:	b672      	cpsid	i
 80216c2:	f7ff fb25 	bl	8020d10 <Error_Handler>
 80216c6:	e7fe      	b.n	80216c6 <__retarget_lock_acquire+0xa>
  stm32_lock_acquire(STM32_LOCK_PARAMETER(lock));
}
 80216c8:	e8bd 4008 	ldmia.w	sp!, {r3, lr}
  stm32_lock_acquire(STM32_LOCK_PARAMETER(lock));
 80216cc:	f7ff bfcf 	b.w	802166e <stm32_lock_acquire>

080216d0 <__retarget_lock_acquire_recursive>:
 80216d0:	f7ff bff4 	b.w	80216bc <__retarget_lock_acquire>

080216d4 <__retarget_lock_release>:
/**
  * @brief Release lock
  * @param lock The lock
  */
void __retarget_lock_release(_LOCK_T lock)
{
 80216d4:	b508      	push	{r3, lr}
  STM32_LOCK_BLOCK_IF_NULL_ARGUMENT(lock);
 80216d6:	b918      	cbnz	r0, 80216e0 <__retarget_lock_release+0xc>
 80216d8:	b672      	cpsid	i
 80216da:	f7ff fb19 	bl	8020d10 <Error_Handler>
 80216de:	e7fe      	b.n	80216de <__retarget_lock_release+0xa>
  stm32_lock_release(STM32_LOCK_PARAMETER(lock));
}
 80216e0:	e8bd 4008 	ldmia.w	sp!, {r3, lr}
  stm32_lock_release(STM32_LOCK_PARAMETER(lock));
 80216e4:	f7ff bfda 	b.w	802169c <stm32_lock_release>

080216e8 <__retarget_lock_release_recursive>:
 80216e8:	f7ff bff4 	b.w	80216d4 <__retarget_lock_release>

080216ec <HAL_Init>:
  *         need to ensure that the SysTick time base is always set to 1 millisecond
  *         to have correct HAL operation.
  * @retval HAL status
  */
HAL_StatusTypeDef HAL_Init(void)
{
 80216ec:	b508      	push	{r3, lr}
  /* Configure Flash prefetch, Instruction cache, Data cache */ 
#if (INSTRUCTION_CACHE_ENABLE != 0U)
  __HAL_FLASH_INSTRUCTION_CACHE_ENABLE();
 80216ee:	4b0b      	ldr	r3, [pc, #44]	; (802171c <HAL_Init+0x30>)
 80216f0:	681a      	ldr	r2, [r3, #0]
 80216f2:	f442 7200 	orr.w	r2, r2, #512	; 0x200
 80216f6:	601a      	str	r2, [r3, #0]
#endif /* INSTRUCTION_CACHE_ENABLE */

#if (DATA_CACHE_ENABLE != 0U)
  __HAL_FLASH_DATA_CACHE_ENABLE();
 80216f8:	681a      	ldr	r2, [r3, #0]
 80216fa:	f442 6280 	orr.w	r2, r2, #1024	; 0x400
 80216fe:	601a      	str	r2, [r3, #0]
#endif /* DATA_CACHE_ENABLE */

#if (PREFETCH_ENABLE != 0U)
  __HAL_FLASH_PREFETCH_BUFFER_ENABLE();
 8021700:	681a      	ldr	r2, [r3, #0]
 8021702:	f442 7280 	orr.w	r2, r2, #256	; 0x100
 8021706:	601a      	str	r2, [r3, #0]
#endif /* PREFETCH_ENABLE */

  /* Set Interrupt Group Priority */
  HAL_NVIC_SetPriorityGrouping(NVIC_PRIORITYGROUP_4);
 8021708:	2003      	movs	r0, #3
 802170a:	f000 f82f 	bl	802176c <HAL_NVIC_SetPriorityGrouping>

  /* Use systick as time base source and configure 1ms tick (default clock after Reset is HSI) */
  HAL_InitTick(TICK_INT_PRIORITY);
 802170e:	200f      	movs	r0, #15
 8021710:	f7ff fc18 	bl	8020f44 <HAL_InitTick>

  /* Init the low level hardware */
  HAL_MspInit();
 8021714:	f7ff fbf6 	bl	8020f04 <HAL_MspInit>

  /* Return function status */
  return HAL_OK;
}
 8021718:	2000      	movs	r0, #0
 802171a:	bd08      	pop	{r3, pc}
 802171c:	40023c00 	.word	0x40023c00

08021720 <HAL_IncTick>:
  *      implementations in user file.
  * @retval None
  */
__weak void HAL_IncTick(void)
{
  uwTick += uwTickFreq;
 8021720:	4a03      	ldr	r2, [pc, #12]	; (8021730 <HAL_IncTick+0x10>)
 8021722:	4b04      	ldr	r3, [pc, #16]	; (8021734 <HAL_IncTick+0x14>)
 8021724:	6811      	ldr	r1, [r2, #0]
 8021726:	781b      	ldrb	r3, [r3, #0]
 8021728:	440b      	add	r3, r1
 802172a:	6013      	str	r3, [r2, #0]
}
 802172c:	4770      	bx	lr
 802172e:	bf00      	nop
 8021730:	2000e280 	.word	0x2000e280
 8021734:	20000004 	.word	0x20000004

08021738 <HAL_GetTick>:
  *       implementations in user file.
  * @retval tick value
  */
__weak uint32_t HAL_GetTick(void)
{
  return uwTick;
 8021738:	4b01      	ldr	r3, [pc, #4]	; (8021740 <HAL_GetTick+0x8>)
 802173a:	6818      	ldr	r0, [r3, #0]
}
 802173c:	4770      	bx	lr
 802173e:	bf00      	nop
 8021740:	2000e280 	.word	0x2000e280

08021744 <HAL_Delay>:
  *       implementations in user file.
  * @param Delay specifies the delay time length, in milliseconds.
  * @retval None
  */
__weak void HAL_Delay(uint32_t Delay)
{
 8021744:	b538      	push	{r3, r4, r5, lr}
 8021746:	4604      	mov	r4, r0
  uint32_t tickstart = HAL_GetTick();
 8021748:	f7ff fff6 	bl	8021738 <HAL_GetTick>
  uint32_t wait = Delay;

  /* Add a freq to guarantee minimum wait */
  if (wait < HAL_MAX_DELAY)
 802174c:	1c63      	adds	r3, r4, #1
  {
    wait += (uint32_t)(uwTickFreq);
 802174e:	bf1c      	itt	ne
 8021750:	4b05      	ldrne	r3, [pc, #20]	; (8021768 <HAL_Delay+0x24>)
 8021752:	781b      	ldrbne	r3, [r3, #0]
  uint32_t tickstart = HAL_GetTick();
 8021754:	4605      	mov	r5, r0
    wait += (uint32_t)(uwTickFreq);
 8021756:	bf18      	it	ne
 8021758:	18e4      	addne	r4, r4, r3
  }

  while((HAL_GetTick() - tickstart) < wait)
 802175a:	f7ff ffed 	bl	8021738 <HAL_GetTick>
 802175e:	1b43      	subs	r3, r0, r5
 8021760:	42a3      	cmp	r3, r4
 8021762:	d3fa      	bcc.n	802175a <HAL_Delay+0x16>
  {
  }
}
 8021764:	bd38      	pop	{r3, r4, r5, pc}
 8021766:	bf00      	nop
 8021768:	20000004 	.word	0x20000004

0802176c <HAL_NVIC_SetPriorityGrouping>:
  * @retval None
  */
void HAL_NVIC_SetPriorityGrouping(uint32_t PriorityGroup)
{
  /* Check the parameters */
  assert_param(IS_NVIC_PRIORITY_GROUP(PriorityGroup));
 802176c:	1ec3      	subs	r3, r0, #3
 802176e:	2b04      	cmp	r3, #4
{
 8021770:	b510      	push	{r4, lr}
 8021772:	4604      	mov	r4, r0
  assert_param(IS_NVIC_PRIORITY_GROUP(PriorityGroup));
 8021774:	d903      	bls.n	802177e <HAL_NVIC_SetPriorityGrouping+0x12>
 8021776:	4809      	ldr	r0, [pc, #36]	; (802179c <HAL_NVIC_SetPriorityGrouping+0x30>)
 8021778:	2190      	movs	r1, #144	; 0x90
 802177a:	f7ff fb67 	bl	8020e4c <assert_failed>
__STATIC_INLINE void __NVIC_SetPriorityGrouping(uint32_t PriorityGroup)
{
  uint32_t reg_value;
  uint32_t PriorityGroupTmp = (PriorityGroup & (uint32_t)0x07UL);             /* only values 0..7 are used          */

  reg_value  =  SCB->AIRCR;                                                   /* read old register configuration    */
 802177e:	4908      	ldr	r1, [pc, #32]	; (80217a0 <HAL_NVIC_SetPriorityGrouping+0x34>)
 8021780:	68ca      	ldr	r2, [r1, #12]
  reg_value &= ~((uint32_t)(SCB_AIRCR_VECTKEY_Msk | SCB_AIRCR_PRIGROUP_Msk)); /* clear bits to change               */
  reg_value  =  (reg_value                                   |
                ((uint32_t)0x5FAUL << SCB_AIRCR_VECTKEY_Pos) |
                (PriorityGroupTmp << SCB_AIRCR_PRIGROUP_Pos)  );              /* Insert write key and priority group */
 8021782:	0223      	lsls	r3, r4, #8
  reg_value &= ~((uint32_t)(SCB_AIRCR_VECTKEY_Msk | SCB_AIRCR_PRIGROUP_Msk)); /* clear bits to change               */
 8021784:	f64f 04ff 	movw	r4, #63743	; 0xf8ff
                (PriorityGroupTmp << SCB_AIRCR_PRIGROUP_Pos)  );              /* Insert write key and priority group */
 8021788:	f403 63e0 	and.w	r3, r3, #1792	; 0x700
  reg_value &= ~((uint32_t)(SCB_AIRCR_VECTKEY_Msk | SCB_AIRCR_PRIGROUP_Msk)); /* clear bits to change               */
 802178c:	4014      	ands	r4, r2
                ((uint32_t)0x5FAUL << SCB_AIRCR_VECTKEY_Pos) |
 802178e:	4323      	orrs	r3, r4
  reg_value  =  (reg_value                                   |
 8021790:	f043 63bf 	orr.w	r3, r3, #100139008	; 0x5f80000
 8021794:	f443 3300 	orr.w	r3, r3, #131072	; 0x20000
  SCB->AIRCR =  reg_value;
 8021798:	60cb      	str	r3, [r1, #12]
  
  /* Set the PRIGROUP[10:8] bits according to the PriorityGroup parameter value */
  NVIC_SetPriorityGrouping(PriorityGroup);
}
 802179a:	bd10      	pop	{r4, pc}
 802179c:	0802bde1 	.word	0x0802bde1
 80217a0:	e000ed00 	.word	0xe000ed00

080217a4 <HAL_NVIC_SetPriority>:
void HAL_NVIC_SetPriority(IRQn_Type IRQn, uint32_t PreemptPriority, uint32_t SubPriority)
{ 
  uint32_t prioritygroup = 0x00U;
  
  /* Check the parameters */
  assert_param(IS_NVIC_SUB_PRIORITY(SubPriority));
 80217a4:	2a0f      	cmp	r2, #15
{ 
 80217a6:	b570      	push	{r4, r5, r6, lr}
 80217a8:	4605      	mov	r5, r0
 80217aa:	460c      	mov	r4, r1
 80217ac:	4616      	mov	r6, r2
  assert_param(IS_NVIC_SUB_PRIORITY(SubPriority));
 80217ae:	d903      	bls.n	80217b8 <HAL_NVIC_SetPriority+0x14>
 80217b0:	481b      	ldr	r0, [pc, #108]	; (8021820 <HAL_NVIC_SetPriority+0x7c>)
 80217b2:	21a8      	movs	r1, #168	; 0xa8
 80217b4:	f7ff fb4a 	bl	8020e4c <assert_failed>
  assert_param(IS_NVIC_PREEMPTION_PRIORITY(PreemptPriority));
 80217b8:	2c0f      	cmp	r4, #15
 80217ba:	d903      	bls.n	80217c4 <HAL_NVIC_SetPriority+0x20>
 80217bc:	4818      	ldr	r0, [pc, #96]	; (8021820 <HAL_NVIC_SetPriority+0x7c>)
 80217be:	21a9      	movs	r1, #169	; 0xa9
 80217c0:	f7ff fb44 	bl	8020e4c <assert_failed>
  \details Reads the priority grouping field from the NVIC Interrupt Controller.
  \return                Priority grouping field (SCB->AIRCR [10:8] PRIGROUP field).
 */
__STATIC_INLINE uint32_t __NVIC_GetPriorityGrouping(void)
{
  return ((uint32_t)((SCB->AIRCR & SCB_AIRCR_PRIGROUP_Msk) >> SCB_AIRCR_PRIGROUP_Pos));
 80217c4:	4b17      	ldr	r3, [pc, #92]	; (8021824 <HAL_NVIC_SetPriority+0x80>)
 80217c6:	68d8      	ldr	r0, [r3, #12]
 80217c8:	f3c0 2002 	ubfx	r0, r0, #8, #3
{
  uint32_t PriorityGroupTmp = (PriorityGroup & (uint32_t)0x07UL);   /* only values 0..7 are used          */
  uint32_t PreemptPriorityBits;
  uint32_t SubPriorityBits;

  PreemptPriorityBits = ((7UL - PriorityGroupTmp) > (uint32_t)(__NVIC_PRIO_BITS)) ? (uint32_t)(__NVIC_PRIO_BITS) : (uint32_t)(7UL - PriorityGroupTmp);
 80217cc:	f1c0 0307 	rsb	r3, r0, #7
  SubPriorityBits     = ((PriorityGroupTmp + (uint32_t)(__NVIC_PRIO_BITS)) < (uint32_t)7UL) ? (uint32_t)0UL : (uint32_t)((PriorityGroupTmp - 7UL) + (uint32_t)(__NVIC_PRIO_BITS));
 80217d0:	1d02      	adds	r2, r0, #4
  PreemptPriorityBits = ((7UL - PriorityGroupTmp) > (uint32_t)(__NVIC_PRIO_BITS)) ? (uint32_t)(__NVIC_PRIO_BITS) : (uint32_t)(7UL - PriorityGroupTmp);
 80217d2:	2b04      	cmp	r3, #4
 80217d4:	bf28      	it	cs
 80217d6:	2304      	movcs	r3, #4
  SubPriorityBits     = ((PriorityGroupTmp + (uint32_t)(__NVIC_PRIO_BITS)) < (uint32_t)7UL) ? (uint32_t)0UL : (uint32_t)((PriorityGroupTmp - 7UL) + (uint32_t)(__NVIC_PRIO_BITS));
 80217d8:	2a06      	cmp	r2, #6

  return (
           ((PreemptPriority & (uint32_t)((1UL << (PreemptPriorityBits)) - 1UL)) << SubPriorityBits) |
 80217da:	f04f 32ff 	mov.w	r2, #4294967295
 80217de:	fa02 f303 	lsl.w	r3, r2, r3
  SubPriorityBits     = ((PriorityGroupTmp + (uint32_t)(__NVIC_PRIO_BITS)) < (uint32_t)7UL) ? (uint32_t)0UL : (uint32_t)((PriorityGroupTmp - 7UL) + (uint32_t)(__NVIC_PRIO_BITS));
 80217e2:	bf8c      	ite	hi
 80217e4:	3803      	subhi	r0, #3
 80217e6:	2000      	movls	r0, #0
           ((PreemptPriority & (uint32_t)((1UL << (PreemptPriorityBits)) - 1UL)) << SubPriorityBits) |
 80217e8:	ea24 0303 	bic.w	r3, r4, r3
 80217ec:	4083      	lsls	r3, r0
           ((SubPriority     & (uint32_t)((1UL << (SubPriorityBits    )) - 1UL)))
 80217ee:	fa02 f000 	lsl.w	r0, r2, r0
 80217f2:	ea26 0600 	bic.w	r6, r6, r0
  if ((int32_t)(IRQn) >= 0)
 80217f6:	2d00      	cmp	r5, #0
           ((PreemptPriority & (uint32_t)((1UL << (PreemptPriorityBits)) - 1UL)) << SubPriorityBits) |
 80217f8:	ea43 0306 	orr.w	r3, r3, r6
    NVIC->IP[((uint32_t)IRQn)]               = (uint8_t)((priority << (8U - __NVIC_PRIO_BITS)) & (uint32_t)0xFFUL);
 80217fc:	bfac      	ite	ge
 80217fe:	f105 4560 	addge.w	r5, r5, #3758096384	; 0xe0000000
    SCB->SHP[(((uint32_t)IRQn) & 0xFUL)-4UL] = (uint8_t)((priority << (8U - __NVIC_PRIO_BITS)) & (uint32_t)0xFFUL);
 8021802:	4a09      	ldrlt	r2, [pc, #36]	; (8021828 <HAL_NVIC_SetPriority+0x84>)
 8021804:	ea4f 1303 	mov.w	r3, r3, lsl #4
 8021808:	bfb8      	it	lt
 802180a:	f005 050f 	andlt.w	r5, r5, #15
 802180e:	b2db      	uxtb	r3, r3
    NVIC->IP[((uint32_t)IRQn)]               = (uint8_t)((priority << (8U - __NVIC_PRIO_BITS)) & (uint32_t)0xFFUL);
 8021810:	bfaa      	itet	ge
 8021812:	f505 4561 	addge.w	r5, r5, #57600	; 0xe100
    SCB->SHP[(((uint32_t)IRQn) & 0xFUL)-4UL] = (uint8_t)((priority << (8U - __NVIC_PRIO_BITS)) & (uint32_t)0xFFUL);
 8021816:	5553      	strblt	r3, [r2, r5]
    NVIC->IP[((uint32_t)IRQn)]               = (uint8_t)((priority << (8U - __NVIC_PRIO_BITS)) & (uint32_t)0xFFUL);
 8021818:	f885 3300 	strbge.w	r3, [r5, #768]	; 0x300
  
  prioritygroup = NVIC_GetPriorityGrouping();
  
  NVIC_SetPriority(IRQn, NVIC_EncodePriority(prioritygroup, PreemptPriority, SubPriority));
}
 802181c:	bd70      	pop	{r4, r5, r6, pc}
 802181e:	bf00      	nop
 8021820:	0802bde1 	.word	0x0802bde1
 8021824:	e000ed00 	.word	0xe000ed00
 8021828:	e000ed14 	.word	0xe000ed14

0802182c <HAL_NVIC_EnableIRQ>:
  * @retval None
  */
void HAL_NVIC_EnableIRQ(IRQn_Type IRQn)
{
  /* Check the parameters */
  assert_param(IS_NVIC_DEVICE_IRQ(IRQn));
 802182c:	2800      	cmp	r0, #0
 802182e:	da03      	bge.n	8021838 <HAL_NVIC_EnableIRQ+0xc>
 8021830:	4806      	ldr	r0, [pc, #24]	; (802184c <HAL_NVIC_EnableIRQ+0x20>)
 8021832:	21bc      	movs	r1, #188	; 0xbc
 8021834:	f7ff bb0a 	b.w	8020e4c <assert_failed>
    NVIC->ISER[(((uint32_t)IRQn) >> 5UL)] = (uint32_t)(1UL << (((uint32_t)IRQn) & 0x1FUL));
 8021838:	0942      	lsrs	r2, r0, #5
 802183a:	2301      	movs	r3, #1
 802183c:	f000 001f 	and.w	r0, r0, #31
 8021840:	fa03 f000 	lsl.w	r0, r3, r0
 8021844:	4b02      	ldr	r3, [pc, #8]	; (8021850 <HAL_NVIC_EnableIRQ+0x24>)
 8021846:	f843 0022 	str.w	r0, [r3, r2, lsl #2]
  
  /* Enable interrupt */
  NVIC_EnableIRQ(IRQn);
}
 802184a:	4770      	bx	lr
 802184c:	0802bde1 	.word	0x0802bde1
 8021850:	e000e100 	.word	0xe000e100

08021854 <HAL_NVIC_SystemReset>:
  \details Acts as a special kind of Data Memory Barrier.
           It completes when all explicit memory accesses before this instruction complete.
 */
__STATIC_FORCEINLINE void __DSB(void)
{
  __ASM volatile ("dsb 0xF":::"memory");
 8021854:	f3bf 8f4f 	dsb	sy
__NO_RETURN __STATIC_INLINE void __NVIC_SystemReset(void)
{
  __DSB();                                                          /* Ensure all outstanding memory accesses included
                                                                       buffered write are completed before reset */
  SCB->AIRCR  = (uint32_t)((0x5FAUL << SCB_AIRCR_VECTKEY_Pos)    |
                           (SCB->AIRCR & SCB_AIRCR_PRIGROUP_Msk) |
 8021858:	4905      	ldr	r1, [pc, #20]	; (8021870 <HAL_NVIC_SystemReset+0x1c>)
  SCB->AIRCR  = (uint32_t)((0x5FAUL << SCB_AIRCR_VECTKEY_Pos)    |
 802185a:	4b06      	ldr	r3, [pc, #24]	; (8021874 <HAL_NVIC_SystemReset+0x20>)
                           (SCB->AIRCR & SCB_AIRCR_PRIGROUP_Msk) |
 802185c:	68ca      	ldr	r2, [r1, #12]
 802185e:	f402 62e0 	and.w	r2, r2, #1792	; 0x700
  SCB->AIRCR  = (uint32_t)((0x5FAUL << SCB_AIRCR_VECTKEY_Pos)    |
 8021862:	4313      	orrs	r3, r2
 8021864:	60cb      	str	r3, [r1, #12]
 8021866:	f3bf 8f4f 	dsb	sy
                            SCB_AIRCR_SYSRESETREQ_Msk    );         /* Keep priority group unchanged */
  __DSB();                                                          /* Ensure completion of memory access */

  for(;;)                                                           /* wait until reset */
  {
    __NOP();
 802186a:	bf00      	nop
  for(;;)                                                           /* wait until reset */
 802186c:	e7fd      	b.n	802186a <HAL_NVIC_SystemReset+0x16>
 802186e:	bf00      	nop
 8021870:	e000ed00 	.word	0xe000ed00
 8021874:	05fa0004 	.word	0x05fa0004

08021878 <DMA_CalcBaseAndBitshift>:
  *                     the configuration information for the specified DMA Stream. 
  * @retval Stream base address
  */
static uint32_t DMA_CalcBaseAndBitshift(DMA_HandleTypeDef *hdma)
{
  uint32_t stream_number = (((uint32_t)hdma->Instance & 0xFFU) - 16U) / 24U;
 8021878:	6803      	ldr	r3, [r0, #0]
{
 802187a:	b510      	push	{r4, lr}
  
  /* lookup table for necessary bitshift of flags within status registers */
  static const uint8_t flagBitshiftOffset[8U] = {0U, 6U, 16U, 22U, 0U, 6U, 16U, 22U};
  hdma->StreamIndex = flagBitshiftOffset[stream_number];
 802187c:	4c08      	ldr	r4, [pc, #32]	; (80218a0 <DMA_CalcBaseAndBitshift+0x28>)
{
 802187e:	4602      	mov	r2, r0
  uint32_t stream_number = (((uint32_t)hdma->Instance & 0xFFU) - 16U) / 24U;
 8021880:	b2d9      	uxtb	r1, r3
 8021882:	3910      	subs	r1, #16
 8021884:	2018      	movs	r0, #24
 8021886:	fbb1 f0f0 	udiv	r0, r1, r0
  hdma->StreamIndex = flagBitshiftOffset[stream_number];
 802188a:	5c20      	ldrb	r0, [r4, r0]
 802188c:	65d0      	str	r0, [r2, #92]	; 0x5c
  
  if (stream_number > 3U)
 802188e:	f423 707f 	bic.w	r0, r3, #1020	; 0x3fc
 8021892:	f020 0003 	bic.w	r0, r0, #3
 8021896:	295f      	cmp	r1, #95	; 0x5f
  {
    /* return pointer to HISR and HIFCR */
    hdma->StreamBaseAddress = (((uint32_t)hdma->Instance & (uint32_t)(~0x3FFU)) + 4U);
 8021898:	bf88      	it	hi
 802189a:	3004      	addhi	r0, #4
 802189c:	6590      	str	r0, [r2, #88]	; 0x58
    /* return pointer to LISR and LIFCR */
    hdma->StreamBaseAddress = ((uint32_t)hdma->Instance & (uint32_t)(~0x3FFU));
  }
  
  return hdma->StreamBaseAddress;
}
 802189e:	bd10      	pop	{r4, pc}
 80218a0:	0802be54 	.word	0x0802be54

080218a4 <HAL_DMA_Init>:
{
 80218a4:	b570      	push	{r4, r5, r6, lr}
 80218a6:	4604      	mov	r4, r0
  uint32_t tickstart = HAL_GetTick();
 80218a8:	f7ff ff46 	bl	8021738 <HAL_GetTick>
 80218ac:	4605      	mov	r5, r0
  if(hdma == NULL)
 80218ae:	2c00      	cmp	r4, #0
 80218b0:	f000 811b 	beq.w	8021aea <HAL_DMA_Init+0x246>
  assert_param(IS_DMA_STREAM_ALL_INSTANCE(hdma->Instance));
 80218b4:	6823      	ldr	r3, [r4, #0]
 80218b6:	4a8e      	ldr	r2, [pc, #568]	; (8021af0 <HAL_DMA_Init+0x24c>)
 80218b8:	4293      	cmp	r3, r2
 80218ba:	d031      	beq.n	8021920 <HAL_DMA_Init+0x7c>
 80218bc:	3218      	adds	r2, #24
 80218be:	4293      	cmp	r3, r2
 80218c0:	d02e      	beq.n	8021920 <HAL_DMA_Init+0x7c>
 80218c2:	3218      	adds	r2, #24
 80218c4:	4293      	cmp	r3, r2
 80218c6:	d02b      	beq.n	8021920 <HAL_DMA_Init+0x7c>
 80218c8:	3218      	adds	r2, #24
 80218ca:	4293      	cmp	r3, r2
 80218cc:	d028      	beq.n	8021920 <HAL_DMA_Init+0x7c>
 80218ce:	3218      	adds	r2, #24
 80218d0:	4293      	cmp	r3, r2
 80218d2:	d025      	beq.n	8021920 <HAL_DMA_Init+0x7c>
 80218d4:	3218      	adds	r2, #24
 80218d6:	4293      	cmp	r3, r2
 80218d8:	d022      	beq.n	8021920 <HAL_DMA_Init+0x7c>
 80218da:	3218      	adds	r2, #24
 80218dc:	4293      	cmp	r3, r2
 80218de:	d01f      	beq.n	8021920 <HAL_DMA_Init+0x7c>
 80218e0:	3218      	adds	r2, #24
 80218e2:	4293      	cmp	r3, r2
 80218e4:	d01c      	beq.n	8021920 <HAL_DMA_Init+0x7c>
 80218e6:	f502 7256 	add.w	r2, r2, #856	; 0x358
 80218ea:	4293      	cmp	r3, r2
 80218ec:	d018      	beq.n	8021920 <HAL_DMA_Init+0x7c>
 80218ee:	3218      	adds	r2, #24
 80218f0:	4293      	cmp	r3, r2
 80218f2:	d015      	beq.n	8021920 <HAL_DMA_Init+0x7c>
 80218f4:	3218      	adds	r2, #24
 80218f6:	4293      	cmp	r3, r2
 80218f8:	d012      	beq.n	8021920 <HAL_DMA_Init+0x7c>
 80218fa:	3218      	adds	r2, #24
 80218fc:	4293      	cmp	r3, r2
 80218fe:	d00f      	beq.n	8021920 <HAL_DMA_Init+0x7c>
 8021900:	3218      	adds	r2, #24
 8021902:	4293      	cmp	r3, r2
 8021904:	d00c      	beq.n	8021920 <HAL_DMA_Init+0x7c>
 8021906:	3218      	adds	r2, #24
 8021908:	4293      	cmp	r3, r2
 802190a:	d009      	beq.n	8021920 <HAL_DMA_Init+0x7c>
 802190c:	3218      	adds	r2, #24
 802190e:	4293      	cmp	r3, r2
 8021910:	d006      	beq.n	8021920 <HAL_DMA_Init+0x7c>
 8021912:	3218      	adds	r2, #24
 8021914:	4293      	cmp	r3, r2
 8021916:	d003      	beq.n	8021920 <HAL_DMA_Init+0x7c>
 8021918:	4876      	ldr	r0, [pc, #472]	; (8021af4 <HAL_DMA_Init+0x250>)
 802191a:	21b7      	movs	r1, #183	; 0xb7
 802191c:	f7ff fa96 	bl	8020e4c <assert_failed>
  assert_param(IS_DMA_CHANNEL(hdma->Init.Channel));
 8021920:	6863      	ldr	r3, [r4, #4]
 8021922:	f033 63c0 	bics.w	r3, r3, #100663296	; 0x6000000
 8021926:	d006      	beq.n	8021936 <HAL_DMA_Init+0x92>
 8021928:	f1b3 6f00 	cmp.w	r3, #134217728	; 0x8000000
 802192c:	d003      	beq.n	8021936 <HAL_DMA_Init+0x92>
 802192e:	4871      	ldr	r0, [pc, #452]	; (8021af4 <HAL_DMA_Init+0x250>)
 8021930:	21b8      	movs	r1, #184	; 0xb8
 8021932:	f7ff fa8b 	bl	8020e4c <assert_failed>
  assert_param(IS_DMA_DIRECTION(hdma->Init.Direction));
 8021936:	68a3      	ldr	r3, [r4, #8]
 8021938:	f033 0240 	bics.w	r2, r3, #64	; 0x40
 802193c:	d005      	beq.n	802194a <HAL_DMA_Init+0xa6>
 802193e:	2b80      	cmp	r3, #128	; 0x80
 8021940:	d003      	beq.n	802194a <HAL_DMA_Init+0xa6>
 8021942:	486c      	ldr	r0, [pc, #432]	; (8021af4 <HAL_DMA_Init+0x250>)
 8021944:	21b9      	movs	r1, #185	; 0xb9
 8021946:	f7ff fa81 	bl	8020e4c <assert_failed>
  assert_param(IS_DMA_PERIPHERAL_INC_STATE(hdma->Init.PeriphInc));
 802194a:	68e3      	ldr	r3, [r4, #12]
 802194c:	f433 7300 	bics.w	r3, r3, #512	; 0x200
 8021950:	d003      	beq.n	802195a <HAL_DMA_Init+0xb6>
 8021952:	4868      	ldr	r0, [pc, #416]	; (8021af4 <HAL_DMA_Init+0x250>)
 8021954:	21ba      	movs	r1, #186	; 0xba
 8021956:	f7ff fa79 	bl	8020e4c <assert_failed>
  assert_param(IS_DMA_MEMORY_INC_STATE(hdma->Init.MemInc));
 802195a:	6923      	ldr	r3, [r4, #16]
 802195c:	f433 6380 	bics.w	r3, r3, #1024	; 0x400
 8021960:	d003      	beq.n	802196a <HAL_DMA_Init+0xc6>
 8021962:	4864      	ldr	r0, [pc, #400]	; (8021af4 <HAL_DMA_Init+0x250>)
 8021964:	21bb      	movs	r1, #187	; 0xbb
 8021966:	f7ff fa71 	bl	8020e4c <assert_failed>
  assert_param(IS_DMA_PERIPHERAL_DATA_SIZE(hdma->Init.PeriphDataAlignment));
 802196a:	6963      	ldr	r3, [r4, #20]
 802196c:	f433 6200 	bics.w	r2, r3, #2048	; 0x800
 8021970:	d006      	beq.n	8021980 <HAL_DMA_Init+0xdc>
 8021972:	f5b3 5f80 	cmp.w	r3, #4096	; 0x1000
 8021976:	d003      	beq.n	8021980 <HAL_DMA_Init+0xdc>
 8021978:	485e      	ldr	r0, [pc, #376]	; (8021af4 <HAL_DMA_Init+0x250>)
 802197a:	21bc      	movs	r1, #188	; 0xbc
 802197c:	f7ff fa66 	bl	8020e4c <assert_failed>
  assert_param(IS_DMA_MEMORY_DATA_SIZE(hdma->Init.MemDataAlignment));
 8021980:	69a3      	ldr	r3, [r4, #24]
 8021982:	f433 5200 	bics.w	r2, r3, #8192	; 0x2000
 8021986:	d006      	beq.n	8021996 <HAL_DMA_Init+0xf2>
 8021988:	f5b3 4f80 	cmp.w	r3, #16384	; 0x4000
 802198c:	d003      	beq.n	8021996 <HAL_DMA_Init+0xf2>
 802198e:	4859      	ldr	r0, [pc, #356]	; (8021af4 <HAL_DMA_Init+0x250>)
 8021990:	21bd      	movs	r1, #189	; 0xbd
 8021992:	f7ff fa5b 	bl	8020e4c <assert_failed>
  assert_param(IS_DMA_MODE(hdma->Init.Mode));
 8021996:	69e3      	ldr	r3, [r4, #28]
 8021998:	f033 0220 	bics.w	r2, r3, #32
 802199c:	d006      	beq.n	80219ac <HAL_DMA_Init+0x108>
 802199e:	f5b3 7f80 	cmp.w	r3, #256	; 0x100
 80219a2:	d003      	beq.n	80219ac <HAL_DMA_Init+0x108>
 80219a4:	4853      	ldr	r0, [pc, #332]	; (8021af4 <HAL_DMA_Init+0x250>)
 80219a6:	21be      	movs	r1, #190	; 0xbe
 80219a8:	f7ff fa50 	bl	8020e4c <assert_failed>
  assert_param(IS_DMA_PRIORITY(hdma->Init.Priority));
 80219ac:	6a23      	ldr	r3, [r4, #32]
 80219ae:	f433 3340 	bics.w	r3, r3, #196608	; 0x30000
 80219b2:	d003      	beq.n	80219bc <HAL_DMA_Init+0x118>
 80219b4:	484f      	ldr	r0, [pc, #316]	; (8021af4 <HAL_DMA_Init+0x250>)
 80219b6:	21bf      	movs	r1, #191	; 0xbf
 80219b8:	f7ff fa48 	bl	8020e4c <assert_failed>
  assert_param(IS_DMA_FIFO_MODE_STATE(hdma->Init.FIFOMode));
 80219bc:	6a63      	ldr	r3, [r4, #36]	; 0x24
 80219be:	b303      	cbz	r3, 8021a02 <HAL_DMA_Init+0x15e>
 80219c0:	2b04      	cmp	r3, #4
 80219c2:	d117      	bne.n	80219f4 <HAL_DMA_Init+0x150>
    assert_param(IS_DMA_FIFO_THRESHOLD(hdma->Init.FIFOThreshold));
 80219c4:	6aa3      	ldr	r3, [r4, #40]	; 0x28
 80219c6:	2b03      	cmp	r3, #3
 80219c8:	d903      	bls.n	80219d2 <HAL_DMA_Init+0x12e>
 80219ca:	484a      	ldr	r0, [pc, #296]	; (8021af4 <HAL_DMA_Init+0x250>)
 80219cc:	21c5      	movs	r1, #197	; 0xc5
 80219ce:	f7ff fa3d 	bl	8020e4c <assert_failed>
    assert_param(IS_DMA_MEMORY_BURST(hdma->Init.MemBurst));
 80219d2:	6ae3      	ldr	r3, [r4, #44]	; 0x2c
 80219d4:	f033 73c0 	bics.w	r3, r3, #25165824	; 0x1800000
 80219d8:	d003      	beq.n	80219e2 <HAL_DMA_Init+0x13e>
 80219da:	4846      	ldr	r0, [pc, #280]	; (8021af4 <HAL_DMA_Init+0x250>)
 80219dc:	21c6      	movs	r1, #198	; 0xc6
 80219de:	f7ff fa35 	bl	8020e4c <assert_failed>
    assert_param(IS_DMA_PERIPHERAL_BURST(hdma->Init.PeriphBurst));
 80219e2:	6b23      	ldr	r3, [r4, #48]	; 0x30
 80219e4:	f433 03c0 	bics.w	r3, r3, #6291456	; 0x600000
 80219e8:	d00b      	beq.n	8021a02 <HAL_DMA_Init+0x15e>
 80219ea:	4842      	ldr	r0, [pc, #264]	; (8021af4 <HAL_DMA_Init+0x250>)
 80219ec:	21c7      	movs	r1, #199	; 0xc7
 80219ee:	f7ff fa2d 	bl	8020e4c <assert_failed>
 80219f2:	e006      	b.n	8021a02 <HAL_DMA_Init+0x15e>
  assert_param(IS_DMA_FIFO_MODE_STATE(hdma->Init.FIFOMode));
 80219f4:	483f      	ldr	r0, [pc, #252]	; (8021af4 <HAL_DMA_Init+0x250>)
 80219f6:	21c0      	movs	r1, #192	; 0xc0
 80219f8:	f7ff fa28 	bl	8020e4c <assert_failed>
  if(hdma->Init.FIFOMode != DMA_FIFOMODE_DISABLE)
 80219fc:	6a63      	ldr	r3, [r4, #36]	; 0x24
 80219fe:	2b00      	cmp	r3, #0
 8021a00:	d1e0      	bne.n	80219c4 <HAL_DMA_Init+0x120>
  hdma->State = HAL_DMA_STATE_BUSY;
 8021a02:	2302      	movs	r3, #2
 8021a04:	f884 3035 	strb.w	r3, [r4, #53]	; 0x35
  __HAL_DMA_DISABLE(hdma);
 8021a08:	6822      	ldr	r2, [r4, #0]
  __HAL_UNLOCK(hdma);
 8021a0a:	2300      	movs	r3, #0
 8021a0c:	f884 3034 	strb.w	r3, [r4, #52]	; 0x34
  __HAL_DMA_DISABLE(hdma);
 8021a10:	6813      	ldr	r3, [r2, #0]
 8021a12:	f023 0301 	bic.w	r3, r3, #1
 8021a16:	6013      	str	r3, [r2, #0]
  while((hdma->Instance->CR & DMA_SxCR_EN) != RESET)
 8021a18:	6821      	ldr	r1, [r4, #0]
 8021a1a:	680b      	ldr	r3, [r1, #0]
 8021a1c:	07d8      	lsls	r0, r3, #31
 8021a1e:	d42f      	bmi.n	8021a80 <HAL_DMA_Init+0x1dc>
  tmp = hdma->Instance->CR;
 8021a20:	680b      	ldr	r3, [r1, #0]
  tmp &= ((uint32_t)~(DMA_SxCR_CHSEL | DMA_SxCR_MBURST | DMA_SxCR_PBURST | \
 8021a22:	4d35      	ldr	r5, [pc, #212]	; (8021af8 <HAL_DMA_Init+0x254>)
          hdma->Init.PeriphDataAlignment | hdma->Init.MemDataAlignment |
 8021a24:	69a0      	ldr	r0, [r4, #24]
  tmp &= ((uint32_t)~(DMA_SxCR_CHSEL | DMA_SxCR_MBURST | DMA_SxCR_PBURST | \
 8021a26:	401d      	ands	r5, r3
  tmp |=  hdma->Init.Channel             | hdma->Init.Direction        |
 8021a28:	e9d4 2301 	ldrd	r2, r3, [r4, #4]
 8021a2c:	4313      	orrs	r3, r2
 8021a2e:	68e2      	ldr	r2, [r4, #12]
 8021a30:	4313      	orrs	r3, r2
          hdma->Init.PeriphInc           | hdma->Init.MemInc           |
 8021a32:	6922      	ldr	r2, [r4, #16]
 8021a34:	4313      	orrs	r3, r2
 8021a36:	6962      	ldr	r2, [r4, #20]
 8021a38:	4313      	orrs	r3, r2
          hdma->Init.PeriphDataAlignment | hdma->Init.MemDataAlignment |
 8021a3a:	69e2      	ldr	r2, [r4, #28]
 8021a3c:	4303      	orrs	r3, r0
 8021a3e:	4313      	orrs	r3, r2
          hdma->Init.Mode                | hdma->Init.Priority;
 8021a40:	6a22      	ldr	r2, [r4, #32]
 8021a42:	4313      	orrs	r3, r2
  if(hdma->Init.FIFOMode == DMA_FIFOMODE_ENABLE)
 8021a44:	6a62      	ldr	r2, [r4, #36]	; 0x24
 8021a46:	2a04      	cmp	r2, #4
  tmp |=  hdma->Init.Channel             | hdma->Init.Direction        |
 8021a48:	ea43 0305 	orr.w	r3, r3, r5
    tmp |=  hdma->Init.MemBurst | hdma->Init.PeriphBurst;
 8021a4c:	bf02      	ittt	eq
 8021a4e:	e9d4 560b 	ldrdeq	r5, r6, [r4, #44]	; 0x2c
 8021a52:	4335      	orreq	r5, r6
 8021a54:	432b      	orreq	r3, r5
  hdma->Instance->CR = tmp;  
 8021a56:	600b      	str	r3, [r1, #0]
  tmp = hdma->Instance->FCR;
 8021a58:	694b      	ldr	r3, [r1, #20]
  if(hdma->Init.FIFOMode == DMA_FIFOMODE_ENABLE)
 8021a5a:	2a04      	cmp	r2, #4
  tmp &= (uint32_t)~(DMA_SxFCR_DMDIS | DMA_SxFCR_FTH);
 8021a5c:	f023 0307 	bic.w	r3, r3, #7
  tmp |= hdma->Init.FIFOMode;
 8021a60:	ea43 0302 	orr.w	r3, r3, r2
  if(hdma->Init.FIFOMode == DMA_FIFOMODE_ENABLE)
 8021a64:	d133      	bne.n	8021ace <HAL_DMA_Init+0x22a>
    tmp |= hdma->Init.FIFOThreshold;
 8021a66:	6aa2      	ldr	r2, [r4, #40]	; 0x28
    if (hdma->Init.MemBurst != DMA_MBURST_SINGLE)
 8021a68:	6ae5      	ldr	r5, [r4, #44]	; 0x2c
    tmp |= hdma->Init.FIFOThreshold;
 8021a6a:	4313      	orrs	r3, r2
    if (hdma->Init.MemBurst != DMA_MBURST_SINGLE)
 8021a6c:	b37d      	cbz	r5, 8021ace <HAL_DMA_Init+0x22a>
{
  HAL_StatusTypeDef status = HAL_OK;
  uint32_t tmp = hdma->Init.FIFOThreshold;
  
  /* Memory Data size equal to Byte */
  if(hdma->Init.MemDataAlignment == DMA_MDATAALIGN_BYTE)
 8021a6e:	b990      	cbnz	r0, 8021a96 <HAL_DMA_Init+0x1f2>
  {
    switch (tmp)
 8021a70:	2a01      	cmp	r2, #1
 8021a72:	d021      	beq.n	8021ab8 <HAL_DMA_Init+0x214>
 8021a74:	f032 0202 	bics.w	r2, r2, #2
 8021a78:	d129      	bne.n	8021ace <HAL_DMA_Init+0x22a>
    case DMA_FIFO_THRESHOLD_HALFFULL:
    case DMA_FIFO_THRESHOLD_3QUARTERSFULL:
      status = HAL_ERROR;
      break;
    case DMA_FIFO_THRESHOLD_FULL:
      if ((hdma->Init.MemBurst & DMA_SxCR_MBURST_1) == DMA_SxCR_MBURST_1)
 8021a7a:	01ea      	lsls	r2, r5, #7
 8021a7c:	d527      	bpl.n	8021ace <HAL_DMA_Init+0x22a>
 8021a7e:	e01e      	b.n	8021abe <HAL_DMA_Init+0x21a>
    if((HAL_GetTick() - tickstart ) > HAL_TIMEOUT_DMA_ABORT)
 8021a80:	f7ff fe5a 	bl	8021738 <HAL_GetTick>
 8021a84:	1b40      	subs	r0, r0, r5
 8021a86:	2805      	cmp	r0, #5
 8021a88:	d9c6      	bls.n	8021a18 <HAL_DMA_Init+0x174>
      hdma->ErrorCode = HAL_DMA_ERROR_TIMEOUT;
 8021a8a:	2320      	movs	r3, #32
 8021a8c:	6563      	str	r3, [r4, #84]	; 0x54
      hdma->State = HAL_DMA_STATE_TIMEOUT;
 8021a8e:	2003      	movs	r0, #3
        hdma->State = HAL_DMA_STATE_READY;
 8021a90:	f884 0035 	strb.w	r0, [r4, #53]	; 0x35
}
 8021a94:	bd70      	pop	{r4, r5, r6, pc}
  else if (hdma->Init.MemDataAlignment == DMA_MDATAALIGN_HALFWORD)
 8021a96:	f5b0 5f00 	cmp.w	r0, #8192	; 0x2000
 8021a9a:	d114      	bne.n	8021ac6 <HAL_DMA_Init+0x222>
    switch (tmp)
 8021a9c:	2a03      	cmp	r2, #3
 8021a9e:	d816      	bhi.n	8021ace <HAL_DMA_Init+0x22a>
 8021aa0:	a001      	add	r0, pc, #4	; (adr r0, 8021aa8 <HAL_DMA_Init+0x204>)
 8021aa2:	f850 f022 	ldr.w	pc, [r0, r2, lsl #2]
 8021aa6:	bf00      	nop
 8021aa8:	08021abf 	.word	0x08021abf
 8021aac:	08021a7b 	.word	0x08021a7b
 8021ab0:	08021abf 	.word	0x08021abf
 8021ab4:	08021ab9 	.word	0x08021ab9
      if (hdma->Init.MemBurst == DMA_MBURST_INC16)
 8021ab8:	f1b5 7fc0 	cmp.w	r5, #25165824	; 0x1800000
 8021abc:	d107      	bne.n	8021ace <HAL_DMA_Init+0x22a>
        hdma->ErrorCode = HAL_DMA_ERROR_PARAM;
 8021abe:	2340      	movs	r3, #64	; 0x40
 8021ac0:	6563      	str	r3, [r4, #84]	; 0x54
        hdma->State = HAL_DMA_STATE_READY;
 8021ac2:	2001      	movs	r0, #1
 8021ac4:	e7e4      	b.n	8021a90 <HAL_DMA_Init+0x1ec>
    switch (tmp)
 8021ac6:	2a02      	cmp	r2, #2
 8021ac8:	d9f9      	bls.n	8021abe <HAL_DMA_Init+0x21a>
 8021aca:	2a03      	cmp	r2, #3
 8021acc:	d0d5      	beq.n	8021a7a <HAL_DMA_Init+0x1d6>
  hdma->Instance->FCR = tmp;
 8021ace:	614b      	str	r3, [r1, #20]
  regs = (DMA_Base_Registers *)DMA_CalcBaseAndBitshift(hdma);
 8021ad0:	4620      	mov	r0, r4
 8021ad2:	f7ff fed1 	bl	8021878 <DMA_CalcBaseAndBitshift>
  regs->IFCR = 0x3FU << hdma->StreamIndex;
 8021ad6:	6de2      	ldr	r2, [r4, #92]	; 0x5c
 8021ad8:	233f      	movs	r3, #63	; 0x3f
 8021ada:	4093      	lsls	r3, r2
 8021adc:	6083      	str	r3, [r0, #8]
  hdma->ErrorCode = HAL_DMA_ERROR_NONE;
 8021ade:	2000      	movs	r0, #0
  hdma->State = HAL_DMA_STATE_READY;
 8021ae0:	2301      	movs	r3, #1
  hdma->ErrorCode = HAL_DMA_ERROR_NONE;
 8021ae2:	6560      	str	r0, [r4, #84]	; 0x54
  hdma->State = HAL_DMA_STATE_READY;
 8021ae4:	f884 3035 	strb.w	r3, [r4, #53]	; 0x35
  return HAL_OK;
 8021ae8:	e7d4      	b.n	8021a94 <HAL_DMA_Init+0x1f0>
    return HAL_ERROR;
 8021aea:	2001      	movs	r0, #1
 8021aec:	e7d2      	b.n	8021a94 <HAL_DMA_Init+0x1f0>
 8021aee:	bf00      	nop
 8021af0:	40026010 	.word	0x40026010
 8021af4:	0802be1c 	.word	0x0802be1c
 8021af8:	f010803f 	.word	0xf010803f

08021afc <HAL_DMA_Start_IT>:
{
 8021afc:	e92d 41f0 	stmdb	sp!, {r4, r5, r6, r7, r8, lr}
 8021b00:	4615      	mov	r5, r2
 8021b02:	461f      	mov	r7, r3
  assert_param(IS_DMA_BUFFER_SIZE(DataLength));
 8021b04:	1e5a      	subs	r2, r3, #1
 8021b06:	f64f 73fe 	movw	r3, #65534	; 0xfffe
 8021b0a:	429a      	cmp	r2, r3
  DMA_Base_Registers *regs = (DMA_Base_Registers *)hdma->StreamBaseAddress;
 8021b0c:	f8d0 8058 	ldr.w	r8, [r0, #88]	; 0x58
{
 8021b10:	4604      	mov	r4, r0
 8021b12:	460e      	mov	r6, r1
  assert_param(IS_DMA_BUFFER_SIZE(DataLength));
 8021b14:	d904      	bls.n	8021b20 <HAL_DMA_Start_IT+0x24>
 8021b16:	4820      	ldr	r0, [pc, #128]	; (8021b98 <HAL_DMA_Start_IT+0x9c>)
 8021b18:	f240 11cb 	movw	r1, #459	; 0x1cb
 8021b1c:	f7ff f996 	bl	8020e4c <assert_failed>
  __HAL_LOCK(hdma);
 8021b20:	f894 3034 	ldrb.w	r3, [r4, #52]	; 0x34
 8021b24:	2b01      	cmp	r3, #1
 8021b26:	d035      	beq.n	8021b94 <HAL_DMA_Start_IT+0x98>
 8021b28:	2301      	movs	r3, #1
 8021b2a:	f884 3034 	strb.w	r3, [r4, #52]	; 0x34
  if(HAL_DMA_STATE_READY == hdma->State)
 8021b2e:	f894 3035 	ldrb.w	r3, [r4, #53]	; 0x35
 8021b32:	2b01      	cmp	r3, #1
 8021b34:	f04f 0002 	mov.w	r0, #2
 8021b38:	f04f 0300 	mov.w	r3, #0
 8021b3c:	d127      	bne.n	8021b8e <HAL_DMA_Start_IT+0x92>
    hdma->State = HAL_DMA_STATE_BUSY;
 8021b3e:	f884 0035 	strb.w	r0, [r4, #53]	; 0x35
  hdma->Instance->CR &= (uint32_t)(~DMA_SxCR_DBM);
 8021b42:	6820      	ldr	r0, [r4, #0]
    hdma->ErrorCode = HAL_DMA_ERROR_NONE;
 8021b44:	6563      	str	r3, [r4, #84]	; 0x54
  hdma->Instance->CR &= (uint32_t)(~DMA_SxCR_DBM);
 8021b46:	6803      	ldr	r3, [r0, #0]
    regs->IFCR = 0x3FU << hdma->StreamIndex;
 8021b48:	6de2      	ldr	r2, [r4, #92]	; 0x5c
  hdma->Instance->CR &= (uint32_t)(~DMA_SxCR_DBM);
 8021b4a:	f423 2380 	bic.w	r3, r3, #262144	; 0x40000
 8021b4e:	6003      	str	r3, [r0, #0]
  if((hdma->Init.Direction) == DMA_MEMORY_TO_PERIPH)
 8021b50:	68a3      	ldr	r3, [r4, #8]
  hdma->Instance->NDTR = DataLength;
 8021b52:	6047      	str	r7, [r0, #4]
  if((hdma->Init.Direction) == DMA_MEMORY_TO_PERIPH)
 8021b54:	2b40      	cmp	r3, #64	; 0x40
    regs->IFCR = 0x3FU << hdma->StreamIndex;
 8021b56:	f04f 033f 	mov.w	r3, #63	; 0x3f
 8021b5a:	fa03 f302 	lsl.w	r3, r3, r2
    hdma->Instance->PAR = DstAddress;
 8021b5e:	bf0b      	itete	eq
 8021b60:	6085      	streq	r5, [r0, #8]
    hdma->Instance->PAR = SrcAddress;
 8021b62:	6086      	strne	r6, [r0, #8]
    hdma->Instance->M0AR = SrcAddress;
 8021b64:	60c6      	streq	r6, [r0, #12]
    hdma->Instance->M0AR = DstAddress;
 8021b66:	60c5      	strne	r5, [r0, #12]
    regs->IFCR = 0x3FU << hdma->StreamIndex;
 8021b68:	f8c8 3008 	str.w	r3, [r8, #8]
    hdma->Instance->CR  |= DMA_IT_TC | DMA_IT_TE | DMA_IT_DME;
 8021b6c:	6803      	ldr	r3, [r0, #0]
 8021b6e:	f043 0316 	orr.w	r3, r3, #22
 8021b72:	6003      	str	r3, [r0, #0]
    if(hdma->XferHalfCpltCallback != NULL)
 8021b74:	6c23      	ldr	r3, [r4, #64]	; 0x40
 8021b76:	b11b      	cbz	r3, 8021b80 <HAL_DMA_Start_IT+0x84>
      hdma->Instance->CR  |= DMA_IT_HT;
 8021b78:	6803      	ldr	r3, [r0, #0]
 8021b7a:	f043 0308 	orr.w	r3, r3, #8
 8021b7e:	6003      	str	r3, [r0, #0]
    __HAL_DMA_ENABLE(hdma);
 8021b80:	6803      	ldr	r3, [r0, #0]
 8021b82:	f043 0301 	orr.w	r3, r3, #1
 8021b86:	6003      	str	r3, [r0, #0]
  HAL_StatusTypeDef status = HAL_OK;
 8021b88:	2000      	movs	r0, #0
}
 8021b8a:	e8bd 81f0 	ldmia.w	sp!, {r4, r5, r6, r7, r8, pc}
    __HAL_UNLOCK(hdma);	  
 8021b8e:	f884 3034 	strb.w	r3, [r4, #52]	; 0x34
    status = HAL_BUSY;
 8021b92:	e7fa      	b.n	8021b8a <HAL_DMA_Start_IT+0x8e>
  __HAL_LOCK(hdma);
 8021b94:	2002      	movs	r0, #2
 8021b96:	e7f8      	b.n	8021b8a <HAL_DMA_Start_IT+0x8e>
 8021b98:	0802be1c 	.word	0x0802be1c

08021b9c <HAL_DMA_Abort>:
{
 8021b9c:	b570      	push	{r4, r5, r6, lr}
 8021b9e:	4604      	mov	r4, r0
  DMA_Base_Registers *regs = (DMA_Base_Registers *)hdma->StreamBaseAddress;
 8021ba0:	6d86      	ldr	r6, [r0, #88]	; 0x58
  uint32_t tickstart = HAL_GetTick();
 8021ba2:	f7ff fdc9 	bl	8021738 <HAL_GetTick>
  if(hdma->State != HAL_DMA_STATE_BUSY)
 8021ba6:	f894 3035 	ldrb.w	r3, [r4, #53]	; 0x35
 8021baa:	2b02      	cmp	r3, #2
  uint32_t tickstart = HAL_GetTick();
 8021bac:	4605      	mov	r5, r0
  if(hdma->State != HAL_DMA_STATE_BUSY)
 8021bae:	d006      	beq.n	8021bbe <HAL_DMA_Abort+0x22>
    hdma->ErrorCode = HAL_DMA_ERROR_NO_XFER;
 8021bb0:	2380      	movs	r3, #128	; 0x80
 8021bb2:	6563      	str	r3, [r4, #84]	; 0x54
    __HAL_UNLOCK(hdma);
 8021bb4:	2300      	movs	r3, #0
 8021bb6:	f884 3034 	strb.w	r3, [r4, #52]	; 0x34
    return HAL_ERROR;
 8021bba:	2001      	movs	r0, #1
}
 8021bbc:	bd70      	pop	{r4, r5, r6, pc}
    hdma->Instance->CR  &= ~(DMA_IT_TC | DMA_IT_TE | DMA_IT_DME);
 8021bbe:	6823      	ldr	r3, [r4, #0]
 8021bc0:	681a      	ldr	r2, [r3, #0]
 8021bc2:	f022 0216 	bic.w	r2, r2, #22
 8021bc6:	601a      	str	r2, [r3, #0]
    hdma->Instance->FCR &= ~(DMA_IT_FE);
 8021bc8:	695a      	ldr	r2, [r3, #20]
 8021bca:	f022 0280 	bic.w	r2, r2, #128	; 0x80
 8021bce:	615a      	str	r2, [r3, #20]
    if((hdma->XferHalfCpltCallback != NULL) || (hdma->XferM1HalfCpltCallback != NULL))
 8021bd0:	6c22      	ldr	r2, [r4, #64]	; 0x40
 8021bd2:	b90a      	cbnz	r2, 8021bd8 <HAL_DMA_Abort+0x3c>
 8021bd4:	6ca2      	ldr	r2, [r4, #72]	; 0x48
 8021bd6:	b11a      	cbz	r2, 8021be0 <HAL_DMA_Abort+0x44>
      hdma->Instance->CR  &= ~(DMA_IT_HT);
 8021bd8:	681a      	ldr	r2, [r3, #0]
 8021bda:	f022 0208 	bic.w	r2, r2, #8
 8021bde:	601a      	str	r2, [r3, #0]
    __HAL_DMA_DISABLE(hdma);
 8021be0:	681a      	ldr	r2, [r3, #0]
 8021be2:	f022 0201 	bic.w	r2, r2, #1
 8021be6:	601a      	str	r2, [r3, #0]
    while((hdma->Instance->CR & DMA_SxCR_EN) != RESET)
 8021be8:	6823      	ldr	r3, [r4, #0]
 8021bea:	681b      	ldr	r3, [r3, #0]
 8021bec:	f013 0301 	ands.w	r3, r3, #1
 8021bf0:	d10a      	bne.n	8021c08 <HAL_DMA_Abort+0x6c>
    regs->IFCR = 0x3FU << hdma->StreamIndex;
 8021bf2:	6de1      	ldr	r1, [r4, #92]	; 0x5c
 8021bf4:	223f      	movs	r2, #63	; 0x3f
 8021bf6:	408a      	lsls	r2, r1
 8021bf8:	60b2      	str	r2, [r6, #8]
    hdma->State = HAL_DMA_STATE_READY;
 8021bfa:	2201      	movs	r2, #1
 8021bfc:	f884 2035 	strb.w	r2, [r4, #53]	; 0x35
    __HAL_UNLOCK(hdma);
 8021c00:	f884 3034 	strb.w	r3, [r4, #52]	; 0x34
  return HAL_OK;
 8021c04:	4618      	mov	r0, r3
 8021c06:	e7d9      	b.n	8021bbc <HAL_DMA_Abort+0x20>
      if((HAL_GetTick() - tickstart ) > HAL_TIMEOUT_DMA_ABORT)
 8021c08:	f7ff fd96 	bl	8021738 <HAL_GetTick>
 8021c0c:	1b40      	subs	r0, r0, r5
 8021c0e:	2805      	cmp	r0, #5
 8021c10:	d9ea      	bls.n	8021be8 <HAL_DMA_Abort+0x4c>
        hdma->ErrorCode = HAL_DMA_ERROR_TIMEOUT;
 8021c12:	2320      	movs	r3, #32
 8021c14:	6563      	str	r3, [r4, #84]	; 0x54
        hdma->State = HAL_DMA_STATE_TIMEOUT;
 8021c16:	2003      	movs	r0, #3
        __HAL_UNLOCK(hdma);
 8021c18:	2300      	movs	r3, #0
        hdma->State = HAL_DMA_STATE_TIMEOUT;
 8021c1a:	f884 0035 	strb.w	r0, [r4, #53]	; 0x35
        __HAL_UNLOCK(hdma);
 8021c1e:	f884 3034 	strb.w	r3, [r4, #52]	; 0x34
        return HAL_TIMEOUT;
 8021c22:	e7cb      	b.n	8021bbc <HAL_DMA_Abort+0x20>

08021c24 <HAL_DMA_Abort_IT>:
  if(hdma->State != HAL_DMA_STATE_BUSY)
 8021c24:	f890 3035 	ldrb.w	r3, [r0, #53]	; 0x35
 8021c28:	2b02      	cmp	r3, #2
 8021c2a:	d003      	beq.n	8021c34 <HAL_DMA_Abort_IT+0x10>
    hdma->ErrorCode = HAL_DMA_ERROR_NO_XFER;
 8021c2c:	2380      	movs	r3, #128	; 0x80
 8021c2e:	6543      	str	r3, [r0, #84]	; 0x54
    return HAL_ERROR;
 8021c30:	2001      	movs	r0, #1
 8021c32:	4770      	bx	lr
    __HAL_DMA_DISABLE(hdma);
 8021c34:	6802      	ldr	r2, [r0, #0]
    hdma->State = HAL_DMA_STATE_ABORT;
 8021c36:	2305      	movs	r3, #5
 8021c38:	f880 3035 	strb.w	r3, [r0, #53]	; 0x35
    __HAL_DMA_DISABLE(hdma);
 8021c3c:	6813      	ldr	r3, [r2, #0]
 8021c3e:	f023 0301 	bic.w	r3, r3, #1
 8021c42:	6013      	str	r3, [r2, #0]
  return HAL_OK;
 8021c44:	2000      	movs	r0, #0
}
 8021c46:	4770      	bx	lr

08021c48 <HAL_DMA_IRQHandler>:
{
 8021c48:	b5f7      	push	{r0, r1, r2, r4, r5, r6, r7, lr}
  __IO uint32_t count = 0U;
 8021c4a:	2300      	movs	r3, #0
 8021c4c:	9301      	str	r3, [sp, #4]
  uint32_t timeout = SystemCoreClock / 9600U;
 8021c4e:	4b5c      	ldr	r3, [pc, #368]	; (8021dc0 <HAL_DMA_IRQHandler+0x178>)
  DMA_Base_Registers *regs = (DMA_Base_Registers *)hdma->StreamBaseAddress;
 8021c50:	6d85      	ldr	r5, [r0, #88]	; 0x58
  uint32_t timeout = SystemCoreClock / 9600U;
 8021c52:	681f      	ldr	r7, [r3, #0]
  if ((tmpisr & (DMA_FLAG_TEIF0_4 << hdma->StreamIndex)) != RESET)
 8021c54:	6dc3      	ldr	r3, [r0, #92]	; 0x5c
  tmpisr = regs->ISR;
 8021c56:	682e      	ldr	r6, [r5, #0]
  if ((tmpisr & (DMA_FLAG_TEIF0_4 << hdma->StreamIndex)) != RESET)
 8021c58:	2208      	movs	r2, #8
 8021c5a:	409a      	lsls	r2, r3
 8021c5c:	4232      	tst	r2, r6
{
 8021c5e:	4604      	mov	r4, r0
  if ((tmpisr & (DMA_FLAG_TEIF0_4 << hdma->StreamIndex)) != RESET)
 8021c60:	d00c      	beq.n	8021c7c <HAL_DMA_IRQHandler+0x34>
    if(__HAL_DMA_GET_IT_SOURCE(hdma, DMA_IT_TE) != RESET)
 8021c62:	6801      	ldr	r1, [r0, #0]
 8021c64:	6808      	ldr	r0, [r1, #0]
 8021c66:	0740      	lsls	r0, r0, #29
 8021c68:	d508      	bpl.n	8021c7c <HAL_DMA_IRQHandler+0x34>
      hdma->Instance->CR  &= ~(DMA_IT_TE);
 8021c6a:	6808      	ldr	r0, [r1, #0]
 8021c6c:	f020 0004 	bic.w	r0, r0, #4
 8021c70:	6008      	str	r0, [r1, #0]
      regs->IFCR = DMA_FLAG_TEIF0_4 << hdma->StreamIndex;
 8021c72:	60aa      	str	r2, [r5, #8]
      hdma->ErrorCode |= HAL_DMA_ERROR_TE;
 8021c74:	6d62      	ldr	r2, [r4, #84]	; 0x54
 8021c76:	f042 0201 	orr.w	r2, r2, #1
 8021c7a:	6562      	str	r2, [r4, #84]	; 0x54
  if ((tmpisr & (DMA_FLAG_FEIF0_4 << hdma->StreamIndex)) != RESET)
 8021c7c:	2201      	movs	r2, #1
 8021c7e:	409a      	lsls	r2, r3
 8021c80:	4232      	tst	r2, r6
 8021c82:	d008      	beq.n	8021c96 <HAL_DMA_IRQHandler+0x4e>
    if(__HAL_DMA_GET_IT_SOURCE(hdma, DMA_IT_FE) != RESET)
 8021c84:	6821      	ldr	r1, [r4, #0]
 8021c86:	6949      	ldr	r1, [r1, #20]
 8021c88:	0609      	lsls	r1, r1, #24
      regs->IFCR = DMA_FLAG_FEIF0_4 << hdma->StreamIndex;
 8021c8a:	bf41      	itttt	mi
 8021c8c:	60aa      	strmi	r2, [r5, #8]
      hdma->ErrorCode |= HAL_DMA_ERROR_FE;
 8021c8e:	6d62      	ldrmi	r2, [r4, #84]	; 0x54
 8021c90:	f042 0202 	orrmi.w	r2, r2, #2
 8021c94:	6562      	strmi	r2, [r4, #84]	; 0x54
  if ((tmpisr & (DMA_FLAG_DMEIF0_4 << hdma->StreamIndex)) != RESET)
 8021c96:	2204      	movs	r2, #4
 8021c98:	409a      	lsls	r2, r3
 8021c9a:	4232      	tst	r2, r6
 8021c9c:	d008      	beq.n	8021cb0 <HAL_DMA_IRQHandler+0x68>
    if(__HAL_DMA_GET_IT_SOURCE(hdma, DMA_IT_DME) != RESET)
 8021c9e:	6821      	ldr	r1, [r4, #0]
 8021ca0:	6809      	ldr	r1, [r1, #0]
 8021ca2:	0788      	lsls	r0, r1, #30
      regs->IFCR = DMA_FLAG_DMEIF0_4 << hdma->StreamIndex;
 8021ca4:	bf41      	itttt	mi
 8021ca6:	60aa      	strmi	r2, [r5, #8]
      hdma->ErrorCode |= HAL_DMA_ERROR_DME;
 8021ca8:	6d62      	ldrmi	r2, [r4, #84]	; 0x54
 8021caa:	f042 0204 	orrmi.w	r2, r2, #4
 8021cae:	6562      	strmi	r2, [r4, #84]	; 0x54
  if ((tmpisr & (DMA_FLAG_HTIF0_4 << hdma->StreamIndex)) != RESET)
 8021cb0:	2210      	movs	r2, #16
 8021cb2:	409a      	lsls	r2, r3
 8021cb4:	4232      	tst	r2, r6
 8021cb6:	d010      	beq.n	8021cda <HAL_DMA_IRQHandler+0x92>
    if(__HAL_DMA_GET_IT_SOURCE(hdma, DMA_IT_HT) != RESET)
 8021cb8:	6823      	ldr	r3, [r4, #0]
 8021cba:	6819      	ldr	r1, [r3, #0]
 8021cbc:	0709      	lsls	r1, r1, #28
 8021cbe:	d50c      	bpl.n	8021cda <HAL_DMA_IRQHandler+0x92>
      regs->IFCR = DMA_FLAG_HTIF0_4 << hdma->StreamIndex;
 8021cc0:	60aa      	str	r2, [r5, #8]
      if(((hdma->Instance->CR) & (uint32_t)(DMA_SxCR_DBM)) != RESET)
 8021cc2:	681a      	ldr	r2, [r3, #0]
 8021cc4:	0350      	lsls	r0, r2, #13
 8021cc6:	d537      	bpl.n	8021d38 <HAL_DMA_IRQHandler+0xf0>
        if((hdma->Instance->CR & DMA_SxCR_CT) == RESET)
 8021cc8:	681b      	ldr	r3, [r3, #0]
 8021cca:	0319      	lsls	r1, r3, #12
 8021ccc:	d401      	bmi.n	8021cd2 <HAL_DMA_IRQHandler+0x8a>
        if(hdma->XferHalfCpltCallback != NULL)
 8021cce:	6c23      	ldr	r3, [r4, #64]	; 0x40
 8021cd0:	e000      	b.n	8021cd4 <HAL_DMA_IRQHandler+0x8c>
          if(hdma->XferM1HalfCpltCallback != NULL)
 8021cd2:	6ca3      	ldr	r3, [r4, #72]	; 0x48
        if(hdma->XferHalfCpltCallback != NULL)
 8021cd4:	b10b      	cbz	r3, 8021cda <HAL_DMA_IRQHandler+0x92>
          hdma->XferHalfCpltCallback(hdma);
 8021cd6:	4620      	mov	r0, r4
 8021cd8:	4798      	blx	r3
  if ((tmpisr & (DMA_FLAG_TCIF0_4 << hdma->StreamIndex)) != RESET)
 8021cda:	6de1      	ldr	r1, [r4, #92]	; 0x5c
 8021cdc:	2220      	movs	r2, #32
 8021cde:	408a      	lsls	r2, r1
 8021ce0:	4232      	tst	r2, r6
 8021ce2:	d03a      	beq.n	8021d5a <HAL_DMA_IRQHandler+0x112>
    if(__HAL_DMA_GET_IT_SOURCE(hdma, DMA_IT_TC) != RESET)
 8021ce4:	6823      	ldr	r3, [r4, #0]
 8021ce6:	6818      	ldr	r0, [r3, #0]
 8021ce8:	06c6      	lsls	r6, r0, #27
 8021cea:	d536      	bpl.n	8021d5a <HAL_DMA_IRQHandler+0x112>
      regs->IFCR = DMA_FLAG_TCIF0_4 << hdma->StreamIndex;
 8021cec:	60aa      	str	r2, [r5, #8]
      if(HAL_DMA_STATE_ABORT == hdma->State)
 8021cee:	f894 2035 	ldrb.w	r2, [r4, #53]	; 0x35
 8021cf2:	2a05      	cmp	r2, #5
        hdma->Instance->CR  &= ~(DMA_IT_TC | DMA_IT_TE | DMA_IT_DME);
 8021cf4:	681a      	ldr	r2, [r3, #0]
      if(HAL_DMA_STATE_ABORT == hdma->State)
 8021cf6:	d127      	bne.n	8021d48 <HAL_DMA_IRQHandler+0x100>
        hdma->Instance->CR  &= ~(DMA_IT_TC | DMA_IT_TE | DMA_IT_DME);
 8021cf8:	f022 0216 	bic.w	r2, r2, #22
 8021cfc:	601a      	str	r2, [r3, #0]
        hdma->Instance->FCR &= ~(DMA_IT_FE);
 8021cfe:	695a      	ldr	r2, [r3, #20]
 8021d00:	f022 0280 	bic.w	r2, r2, #128	; 0x80
 8021d04:	615a      	str	r2, [r3, #20]
        if((hdma->XferHalfCpltCallback != NULL) || (hdma->XferM1HalfCpltCallback != NULL))
 8021d06:	6c22      	ldr	r2, [r4, #64]	; 0x40
 8021d08:	b90a      	cbnz	r2, 8021d0e <HAL_DMA_IRQHandler+0xc6>
 8021d0a:	6ca2      	ldr	r2, [r4, #72]	; 0x48
 8021d0c:	b11a      	cbz	r2, 8021d16 <HAL_DMA_IRQHandler+0xce>
          hdma->Instance->CR  &= ~(DMA_IT_HT);
 8021d0e:	681a      	ldr	r2, [r3, #0]
 8021d10:	f022 0208 	bic.w	r2, r2, #8
 8021d14:	601a      	str	r2, [r3, #0]
        regs->IFCR = 0x3FU << hdma->StreamIndex;
 8021d16:	233f      	movs	r3, #63	; 0x3f
 8021d18:	408b      	lsls	r3, r1
 8021d1a:	60ab      	str	r3, [r5, #8]
        hdma->State = HAL_DMA_STATE_READY;
 8021d1c:	2301      	movs	r3, #1
 8021d1e:	f884 3035 	strb.w	r3, [r4, #53]	; 0x35
        __HAL_UNLOCK(hdma);
 8021d22:	2300      	movs	r3, #0
 8021d24:	f884 3034 	strb.w	r3, [r4, #52]	; 0x34
        if(hdma->XferAbortCallback != NULL)
 8021d28:	6d23      	ldr	r3, [r4, #80]	; 0x50
    if(hdma->XferErrorCallback != NULL)
 8021d2a:	2b00      	cmp	r3, #0
 8021d2c:	d045      	beq.n	8021dba <HAL_DMA_IRQHandler+0x172>
      hdma->XferErrorCallback(hdma);
 8021d2e:	4620      	mov	r0, r4
}
 8021d30:	b003      	add	sp, #12
 8021d32:	e8bd 40f0 	ldmia.w	sp!, {r4, r5, r6, r7, lr}
      hdma->XferErrorCallback(hdma);
 8021d36:	4718      	bx	r3
        if((hdma->Instance->CR & DMA_SxCR_CIRC) == RESET)
 8021d38:	681a      	ldr	r2, [r3, #0]
 8021d3a:	05d2      	lsls	r2, r2, #23
          hdma->Instance->CR  &= ~(DMA_IT_HT);
 8021d3c:	bf5e      	ittt	pl
 8021d3e:	681a      	ldrpl	r2, [r3, #0]
 8021d40:	f022 0208 	bicpl.w	r2, r2, #8
 8021d44:	601a      	strpl	r2, [r3, #0]
 8021d46:	e7c2      	b.n	8021cce <HAL_DMA_IRQHandler+0x86>
      if(((hdma->Instance->CR) & (uint32_t)(DMA_SxCR_DBM)) != RESET)
 8021d48:	0350      	lsls	r0, r2, #13
 8021d4a:	d527      	bpl.n	8021d9c <HAL_DMA_IRQHandler+0x154>
        if((hdma->Instance->CR & DMA_SxCR_CT) == RESET)
 8021d4c:	681b      	ldr	r3, [r3, #0]
 8021d4e:	0319      	lsls	r1, r3, #12
 8021d50:	d431      	bmi.n	8021db6 <HAL_DMA_IRQHandler+0x16e>
          if(hdma->XferM1CpltCallback != NULL)
 8021d52:	6c63      	ldr	r3, [r4, #68]	; 0x44
        if(hdma->XferCpltCallback != NULL)
 8021d54:	b10b      	cbz	r3, 8021d5a <HAL_DMA_IRQHandler+0x112>
          hdma->XferCpltCallback(hdma);
 8021d56:	4620      	mov	r0, r4
 8021d58:	4798      	blx	r3
  if(hdma->ErrorCode != HAL_DMA_ERROR_NONE)
 8021d5a:	6d63      	ldr	r3, [r4, #84]	; 0x54
 8021d5c:	b36b      	cbz	r3, 8021dba <HAL_DMA_IRQHandler+0x172>
    if((hdma->ErrorCode & HAL_DMA_ERROR_TE) != RESET)
 8021d5e:	6d63      	ldr	r3, [r4, #84]	; 0x54
 8021d60:	07da      	lsls	r2, r3, #31
 8021d62:	d519      	bpl.n	8021d98 <HAL_DMA_IRQHandler+0x150>
      __HAL_DMA_DISABLE(hdma);
 8021d64:	6822      	ldr	r2, [r4, #0]
  uint32_t timeout = SystemCoreClock / 9600U;
 8021d66:	f44f 5316 	mov.w	r3, #9600	; 0x2580
 8021d6a:	fbb7 f7f3 	udiv	r7, r7, r3
      hdma->State = HAL_DMA_STATE_ABORT;
 8021d6e:	2305      	movs	r3, #5
 8021d70:	f884 3035 	strb.w	r3, [r4, #53]	; 0x35
      __HAL_DMA_DISABLE(hdma);
 8021d74:	6813      	ldr	r3, [r2, #0]
 8021d76:	f023 0301 	bic.w	r3, r3, #1
 8021d7a:	6013      	str	r3, [r2, #0]
        if (++count > timeout)
 8021d7c:	9b01      	ldr	r3, [sp, #4]
 8021d7e:	3301      	adds	r3, #1
 8021d80:	42bb      	cmp	r3, r7
 8021d82:	9301      	str	r3, [sp, #4]
 8021d84:	d802      	bhi.n	8021d8c <HAL_DMA_IRQHandler+0x144>
      while((hdma->Instance->CR & DMA_SxCR_EN) != RESET);
 8021d86:	6813      	ldr	r3, [r2, #0]
 8021d88:	07db      	lsls	r3, r3, #31
 8021d8a:	d4f7      	bmi.n	8021d7c <HAL_DMA_IRQHandler+0x134>
      hdma->State = HAL_DMA_STATE_READY;
 8021d8c:	2301      	movs	r3, #1
 8021d8e:	f884 3035 	strb.w	r3, [r4, #53]	; 0x35
      __HAL_UNLOCK(hdma);
 8021d92:	2300      	movs	r3, #0
 8021d94:	f884 3034 	strb.w	r3, [r4, #52]	; 0x34
    if(hdma->XferErrorCallback != NULL)
 8021d98:	6ce3      	ldr	r3, [r4, #76]	; 0x4c
 8021d9a:	e7c6      	b.n	8021d2a <HAL_DMA_IRQHandler+0xe2>
        if((hdma->Instance->CR & DMA_SxCR_CIRC) == RESET)
 8021d9c:	681a      	ldr	r2, [r3, #0]
 8021d9e:	f412 7280 	ands.w	r2, r2, #256	; 0x100
 8021da2:	d108      	bne.n	8021db6 <HAL_DMA_IRQHandler+0x16e>
          hdma->Instance->CR  &= ~(DMA_IT_TC);
 8021da4:	6819      	ldr	r1, [r3, #0]
 8021da6:	f021 0110 	bic.w	r1, r1, #16
 8021daa:	6019      	str	r1, [r3, #0]
          hdma->State = HAL_DMA_STATE_READY;
 8021dac:	2301      	movs	r3, #1
 8021dae:	f884 3035 	strb.w	r3, [r4, #53]	; 0x35
          __HAL_UNLOCK(hdma);
 8021db2:	f884 2034 	strb.w	r2, [r4, #52]	; 0x34
        if(hdma->XferCpltCallback != NULL)
 8021db6:	6be3      	ldr	r3, [r4, #60]	; 0x3c
 8021db8:	e7cc      	b.n	8021d54 <HAL_DMA_IRQHandler+0x10c>
}
 8021dba:	b003      	add	sp, #12
 8021dbc:	bdf0      	pop	{r4, r5, r6, r7, pc}
 8021dbe:	bf00      	nop
 8021dc0:	20000000 	.word	0x20000000

08021dc4 <FLASH_SetErrorCode>:
  * @brief  Set the specific FLASH error flag.
  * @retval None
  */
static void FLASH_SetErrorCode(void)
{ 
  if(__HAL_FLASH_GET_FLAG(FLASH_FLAG_WRPERR) != RESET)
 8021dc4:	4b20      	ldr	r3, [pc, #128]	; (8021e48 <FLASH_SetErrorCode+0x84>)
 8021dc6:	68da      	ldr	r2, [r3, #12]
 8021dc8:	06d0      	lsls	r0, r2, #27
 8021dca:	d506      	bpl.n	8021dda <FLASH_SetErrorCode+0x16>
  {
   pFlash.ErrorCode |= HAL_FLASH_ERROR_WRP;
 8021dcc:	491f      	ldr	r1, [pc, #124]	; (8021e4c <FLASH_SetErrorCode+0x88>)
 8021dce:	69ca      	ldr	r2, [r1, #28]
 8021dd0:	f042 0210 	orr.w	r2, r2, #16
 8021dd4:	61ca      	str	r2, [r1, #28]
   
   /* Clear FLASH write protection error pending bit */
   __HAL_FLASH_CLEAR_FLAG(FLASH_FLAG_WRPERR);
 8021dd6:	2210      	movs	r2, #16
 8021dd8:	60da      	str	r2, [r3, #12]
  }
  
  if(__HAL_FLASH_GET_FLAG(FLASH_FLAG_PGAERR) != RESET)
 8021dda:	68da      	ldr	r2, [r3, #12]
 8021ddc:	0691      	lsls	r1, r2, #26
 8021dde:	d506      	bpl.n	8021dee <FLASH_SetErrorCode+0x2a>
  {
   pFlash.ErrorCode |= HAL_FLASH_ERROR_PGA;
 8021de0:	491a      	ldr	r1, [pc, #104]	; (8021e4c <FLASH_SetErrorCode+0x88>)
 8021de2:	69ca      	ldr	r2, [r1, #28]
 8021de4:	f042 0208 	orr.w	r2, r2, #8
 8021de8:	61ca      	str	r2, [r1, #28]
   
   /* Clear FLASH Programming alignment error pending bit */
   __HAL_FLASH_CLEAR_FLAG(FLASH_FLAG_PGAERR);
 8021dea:	2220      	movs	r2, #32
 8021dec:	60da      	str	r2, [r3, #12]
  }
  
  if(__HAL_FLASH_GET_FLAG(FLASH_FLAG_PGPERR) != RESET)
 8021dee:	4b16      	ldr	r3, [pc, #88]	; (8021e48 <FLASH_SetErrorCode+0x84>)
 8021df0:	68da      	ldr	r2, [r3, #12]
 8021df2:	0652      	lsls	r2, r2, #25
 8021df4:	d506      	bpl.n	8021e04 <FLASH_SetErrorCode+0x40>
  {
    pFlash.ErrorCode |= HAL_FLASH_ERROR_PGP;
 8021df6:	4915      	ldr	r1, [pc, #84]	; (8021e4c <FLASH_SetErrorCode+0x88>)
 8021df8:	69ca      	ldr	r2, [r1, #28]
 8021dfa:	f042 0204 	orr.w	r2, r2, #4
 8021dfe:	61ca      	str	r2, [r1, #28]
    
    /* Clear FLASH Programming parallelism error pending bit */
    __HAL_FLASH_CLEAR_FLAG(FLASH_FLAG_PGPERR);
 8021e00:	2240      	movs	r2, #64	; 0x40
 8021e02:	60da      	str	r2, [r3, #12]
  }
  
  if(__HAL_FLASH_GET_FLAG(FLASH_FLAG_PGSERR) != RESET)
 8021e04:	68da      	ldr	r2, [r3, #12]
 8021e06:	0610      	lsls	r0, r2, #24
 8021e08:	d506      	bpl.n	8021e18 <FLASH_SetErrorCode+0x54>
  {
    pFlash.ErrorCode |= HAL_FLASH_ERROR_PGS;
 8021e0a:	4910      	ldr	r1, [pc, #64]	; (8021e4c <FLASH_SetErrorCode+0x88>)
 8021e0c:	69ca      	ldr	r2, [r1, #28]
 8021e0e:	f042 0202 	orr.w	r2, r2, #2
 8021e12:	61ca      	str	r2, [r1, #28]
    
    /* Clear FLASH Programming sequence error pending bit */
    __HAL_FLASH_CLEAR_FLAG(FLASH_FLAG_PGSERR);
 8021e14:	2280      	movs	r2, #128	; 0x80
 8021e16:	60da      	str	r2, [r3, #12]
  }
#if defined(FLASH_SR_RDERR) 
  if(__HAL_FLASH_GET_FLAG(FLASH_FLAG_RDERR) != RESET)
 8021e18:	4b0b      	ldr	r3, [pc, #44]	; (8021e48 <FLASH_SetErrorCode+0x84>)
 8021e1a:	68da      	ldr	r2, [r3, #12]
 8021e1c:	05d1      	lsls	r1, r2, #23
 8021e1e:	d507      	bpl.n	8021e30 <FLASH_SetErrorCode+0x6c>
  {
    pFlash.ErrorCode |= HAL_FLASH_ERROR_RD;
 8021e20:	490a      	ldr	r1, [pc, #40]	; (8021e4c <FLASH_SetErrorCode+0x88>)
 8021e22:	69ca      	ldr	r2, [r1, #28]
 8021e24:	f042 0201 	orr.w	r2, r2, #1
 8021e28:	61ca      	str	r2, [r1, #28]
    
    /* Clear FLASH Proprietary readout protection error pending bit */
    __HAL_FLASH_CLEAR_FLAG(FLASH_FLAG_RDERR);
 8021e2a:	f44f 7280 	mov.w	r2, #256	; 0x100
 8021e2e:	60da      	str	r2, [r3, #12]
  }
#endif /* FLASH_SR_RDERR */  
  if(__HAL_FLASH_GET_FLAG(FLASH_FLAG_OPERR) != RESET)
 8021e30:	68da      	ldr	r2, [r3, #12]
 8021e32:	0792      	lsls	r2, r2, #30
 8021e34:	d506      	bpl.n	8021e44 <FLASH_SetErrorCode+0x80>
  {
    pFlash.ErrorCode |= HAL_FLASH_ERROR_OPERATION;
 8021e36:	4905      	ldr	r1, [pc, #20]	; (8021e4c <FLASH_SetErrorCode+0x88>)
 8021e38:	69ca      	ldr	r2, [r1, #28]
 8021e3a:	f042 0220 	orr.w	r2, r2, #32
 8021e3e:	61ca      	str	r2, [r1, #28]
    
    /* Clear FLASH Operation error pending bit */
    __HAL_FLASH_CLEAR_FLAG(FLASH_FLAG_OPERR);
 8021e40:	2202      	movs	r2, #2
 8021e42:	60da      	str	r2, [r3, #12]
  }
}
 8021e44:	4770      	bx	lr
 8021e46:	bf00      	nop
 8021e48:	40023c00 	.word	0x40023c00
 8021e4c:	2000e284 	.word	0x2000e284

08021e50 <FLASH_Program_Byte>:
{
 8021e50:	b538      	push	{r3, r4, r5, lr}
  assert_param(IS_FLASH_ADDRESS(Address));
 8021e52:	f100 4378 	add.w	r3, r0, #4160749568	; 0xf8000000
 8021e56:	f5b3 1f80 	cmp.w	r3, #1048576	; 0x100000
{
 8021e5a:	4604      	mov	r4, r0
 8021e5c:	460d      	mov	r5, r1
  assert_param(IS_FLASH_ADDRESS(Address));
 8021e5e:	d30b      	bcc.n	8021e78 <FLASH_Program_Byte+0x28>
 8021e60:	f100 4360 	add.w	r3, r0, #3758096384	; 0xe0000000
 8021e64:	f503 4308 	add.w	r3, r3, #34816	; 0x8800
 8021e68:	f5b3 7f04 	cmp.w	r3, #528	; 0x210
 8021e6c:	d304      	bcc.n	8021e78 <FLASH_Program_Byte+0x28>
 8021e6e:	4809      	ldr	r0, [pc, #36]	; (8021e94 <FLASH_Program_Byte+0x44>)
 8021e70:	f240 21b9 	movw	r1, #697	; 0x2b9
 8021e74:	f7fe ffea 	bl	8020e4c <assert_failed>
  CLEAR_BIT(FLASH->CR, FLASH_CR_PSIZE);
 8021e78:	4b07      	ldr	r3, [pc, #28]	; (8021e98 <FLASH_Program_Byte+0x48>)
 8021e7a:	691a      	ldr	r2, [r3, #16]
 8021e7c:	f422 7240 	bic.w	r2, r2, #768	; 0x300
 8021e80:	611a      	str	r2, [r3, #16]
  FLASH->CR |= FLASH_PSIZE_BYTE;
 8021e82:	691a      	ldr	r2, [r3, #16]
 8021e84:	611a      	str	r2, [r3, #16]
  FLASH->CR |= FLASH_CR_PG;
 8021e86:	691a      	ldr	r2, [r3, #16]
 8021e88:	f042 0201 	orr.w	r2, r2, #1
 8021e8c:	611a      	str	r2, [r3, #16]
  *(__IO uint8_t*)Address = Data;
 8021e8e:	7025      	strb	r5, [r4, #0]
}
 8021e90:	bd38      	pop	{r3, r4, r5, pc}
 8021e92:	bf00      	nop
 8021e94:	0802be5c 	.word	0x0802be5c
 8021e98:	40023c00 	.word	0x40023c00

08021e9c <FLASH_Program_HalfWord>:
{
 8021e9c:	b538      	push	{r3, r4, r5, lr}
  assert_param(IS_FLASH_ADDRESS(Address));
 8021e9e:	f100 4378 	add.w	r3, r0, #4160749568	; 0xf8000000
 8021ea2:	f5b3 1f80 	cmp.w	r3, #1048576	; 0x100000
{
 8021ea6:	4604      	mov	r4, r0
 8021ea8:	460d      	mov	r5, r1
  assert_param(IS_FLASH_ADDRESS(Address));
 8021eaa:	d30b      	bcc.n	8021ec4 <FLASH_Program_HalfWord+0x28>
 8021eac:	f100 4360 	add.w	r3, r0, #3758096384	; 0xe0000000
 8021eb0:	f503 4308 	add.w	r3, r3, #34816	; 0x8800
 8021eb4:	f5b3 7f04 	cmp.w	r3, #528	; 0x210
 8021eb8:	d304      	bcc.n	8021ec4 <FLASH_Program_HalfWord+0x28>
 8021eba:	480a      	ldr	r0, [pc, #40]	; (8021ee4 <FLASH_Program_HalfWord+0x48>)
 8021ebc:	f44f 7128 	mov.w	r1, #672	; 0x2a0
 8021ec0:	f7fe ffc4 	bl	8020e4c <assert_failed>
  CLEAR_BIT(FLASH->CR, FLASH_CR_PSIZE);
 8021ec4:	4b08      	ldr	r3, [pc, #32]	; (8021ee8 <FLASH_Program_HalfWord+0x4c>)
 8021ec6:	691a      	ldr	r2, [r3, #16]
 8021ec8:	f422 7240 	bic.w	r2, r2, #768	; 0x300
 8021ecc:	611a      	str	r2, [r3, #16]
  FLASH->CR |= FLASH_PSIZE_HALF_WORD;
 8021ece:	691a      	ldr	r2, [r3, #16]
 8021ed0:	f442 7280 	orr.w	r2, r2, #256	; 0x100
 8021ed4:	611a      	str	r2, [r3, #16]
  FLASH->CR |= FLASH_CR_PG;
 8021ed6:	691a      	ldr	r2, [r3, #16]
 8021ed8:	f042 0201 	orr.w	r2, r2, #1
 8021edc:	611a      	str	r2, [r3, #16]
  *(__IO uint16_t*)Address = Data;
 8021ede:	8025      	strh	r5, [r4, #0]
}
 8021ee0:	bd38      	pop	{r3, r4, r5, pc}
 8021ee2:	bf00      	nop
 8021ee4:	0802be5c 	.word	0x0802be5c
 8021ee8:	40023c00 	.word	0x40023c00

08021eec <FLASH_Program_Word>:
{
 8021eec:	b538      	push	{r3, r4, r5, lr}
  assert_param(IS_FLASH_ADDRESS(Address));
 8021eee:	f100 4378 	add.w	r3, r0, #4160749568	; 0xf8000000
 8021ef2:	f5b3 1f80 	cmp.w	r3, #1048576	; 0x100000
{
 8021ef6:	4604      	mov	r4, r0
 8021ef8:	460d      	mov	r5, r1
  assert_param(IS_FLASH_ADDRESS(Address));
 8021efa:	d30b      	bcc.n	8021f14 <FLASH_Program_Word+0x28>
 8021efc:	f100 4360 	add.w	r3, r0, #3758096384	; 0xe0000000
 8021f00:	f503 4308 	add.w	r3, r3, #34816	; 0x8800
 8021f04:	f5b3 7f04 	cmp.w	r3, #528	; 0x210
 8021f08:	d304      	bcc.n	8021f14 <FLASH_Program_Word+0x28>
 8021f0a:	480a      	ldr	r0, [pc, #40]	; (8021f34 <FLASH_Program_Word+0x48>)
 8021f0c:	f240 2187 	movw	r1, #647	; 0x287
 8021f10:	f7fe ff9c 	bl	8020e4c <assert_failed>
  CLEAR_BIT(FLASH->CR, FLASH_CR_PSIZE);
 8021f14:	4b08      	ldr	r3, [pc, #32]	; (8021f38 <FLASH_Program_Word+0x4c>)
 8021f16:	691a      	ldr	r2, [r3, #16]
 8021f18:	f422 7240 	bic.w	r2, r2, #768	; 0x300
 8021f1c:	611a      	str	r2, [r3, #16]
  FLASH->CR |= FLASH_PSIZE_WORD;
 8021f1e:	691a      	ldr	r2, [r3, #16]
 8021f20:	f442 7200 	orr.w	r2, r2, #512	; 0x200
 8021f24:	611a      	str	r2, [r3, #16]
  FLASH->CR |= FLASH_CR_PG;
 8021f26:	691a      	ldr	r2, [r3, #16]
 8021f28:	f042 0201 	orr.w	r2, r2, #1
 8021f2c:	611a      	str	r2, [r3, #16]
  *(__IO uint32_t*)Address = Data;
 8021f2e:	6025      	str	r5, [r4, #0]
}
 8021f30:	bd38      	pop	{r3, r4, r5, pc}
 8021f32:	bf00      	nop
 8021f34:	0802be5c 	.word	0x0802be5c
 8021f38:	40023c00 	.word	0x40023c00

08021f3c <FLASH_Program_DoubleWord>:
{
 8021f3c:	b570      	push	{r4, r5, r6, lr}
 8021f3e:	461d      	mov	r5, r3
  assert_param(IS_FLASH_ADDRESS(Address));
 8021f40:	f100 4378 	add.w	r3, r0, #4160749568	; 0xf8000000
 8021f44:	f5b3 1f80 	cmp.w	r3, #1048576	; 0x100000
{
 8021f48:	4604      	mov	r4, r0
 8021f4a:	4616      	mov	r6, r2
  assert_param(IS_FLASH_ADDRESS(Address));
 8021f4c:	d30b      	bcc.n	8021f66 <FLASH_Program_DoubleWord+0x2a>
 8021f4e:	f100 4360 	add.w	r3, r0, #3758096384	; 0xe0000000
 8021f52:	f503 4308 	add.w	r3, r3, #34816	; 0x8800
 8021f56:	f5b3 7f04 	cmp.w	r3, #528	; 0x210
 8021f5a:	d304      	bcc.n	8021f66 <FLASH_Program_DoubleWord+0x2a>
 8021f5c:	480b      	ldr	r0, [pc, #44]	; (8021f8c <FLASH_Program_DoubleWord+0x50>)
 8021f5e:	f240 2165 	movw	r1, #613	; 0x265
 8021f62:	f7fe ff73 	bl	8020e4c <assert_failed>
  CLEAR_BIT(FLASH->CR, FLASH_CR_PSIZE);
 8021f66:	490a      	ldr	r1, [pc, #40]	; (8021f90 <FLASH_Program_DoubleWord+0x54>)
 8021f68:	690b      	ldr	r3, [r1, #16]
 8021f6a:	f423 7340 	bic.w	r3, r3, #768	; 0x300
 8021f6e:	610b      	str	r3, [r1, #16]
  FLASH->CR |= FLASH_PSIZE_DOUBLE_WORD;
 8021f70:	690b      	ldr	r3, [r1, #16]
 8021f72:	f443 7340 	orr.w	r3, r3, #768	; 0x300
 8021f76:	610b      	str	r3, [r1, #16]
  FLASH->CR |= FLASH_CR_PG;
 8021f78:	690b      	ldr	r3, [r1, #16]
 8021f7a:	f043 0301 	orr.w	r3, r3, #1
 8021f7e:	610b      	str	r3, [r1, #16]
  *(__IO uint32_t*)Address = (uint32_t)Data;
 8021f80:	6026      	str	r6, [r4, #0]
  __ASM volatile ("isb 0xF":::"memory");
 8021f82:	f3bf 8f6f 	isb	sy
  *(__IO uint32_t*)(Address+4) = (uint32_t)(Data >> 32);
 8021f86:	6065      	str	r5, [r4, #4]
}
 8021f88:	bd70      	pop	{r4, r5, r6, pc}
 8021f8a:	bf00      	nop
 8021f8c:	0802be5c 	.word	0x0802be5c
 8021f90:	40023c00 	.word	0x40023c00

08021f94 <HAL_FLASH_Unlock>:
  if(READ_BIT(FLASH->CR, FLASH_CR_LOCK) != RESET)
 8021f94:	4b06      	ldr	r3, [pc, #24]	; (8021fb0 <HAL_FLASH_Unlock+0x1c>)
 8021f96:	691a      	ldr	r2, [r3, #16]
 8021f98:	2a00      	cmp	r2, #0
    WRITE_REG(FLASH->KEYR, FLASH_KEY1);
 8021f9a:	bfbf      	itttt	lt
 8021f9c:	4a05      	ldrlt	r2, [pc, #20]	; (8021fb4 <HAL_FLASH_Unlock+0x20>)
 8021f9e:	605a      	strlt	r2, [r3, #4]
    WRITE_REG(FLASH->KEYR, FLASH_KEY2);
 8021fa0:	f102 3288 	addlt.w	r2, r2, #2290649224	; 0x88888888
 8021fa4:	605a      	strlt	r2, [r3, #4]
    if(READ_BIT(FLASH->CR, FLASH_CR_LOCK) != RESET)
 8021fa6:	bfba      	itte	lt
 8021fa8:	6918      	ldrlt	r0, [r3, #16]
  HAL_StatusTypeDef status = HAL_OK;
 8021faa:	0fc0      	lsrlt	r0, r0, #31
 8021fac:	2000      	movge	r0, #0
}
 8021fae:	4770      	bx	lr
 8021fb0:	40023c00 	.word	0x40023c00
 8021fb4:	45670123 	.word	0x45670123

08021fb8 <HAL_FLASH_Lock>:
  FLASH->CR |= FLASH_CR_LOCK;
 8021fb8:	4a03      	ldr	r2, [pc, #12]	; (8021fc8 <HAL_FLASH_Lock+0x10>)
 8021fba:	6913      	ldr	r3, [r2, #16]
 8021fbc:	f043 4300 	orr.w	r3, r3, #2147483648	; 0x80000000
 8021fc0:	6113      	str	r3, [r2, #16]
}
 8021fc2:	2000      	movs	r0, #0
 8021fc4:	4770      	bx	lr
 8021fc6:	bf00      	nop
 8021fc8:	40023c00 	.word	0x40023c00

08021fcc <FLASH_WaitForLastOperation>:
{ 
 8021fcc:	b5f8      	push	{r3, r4, r5, r6, r7, lr}
  pFlash.ErrorCode = HAL_FLASH_ERROR_NONE;
 8021fce:	4b12      	ldr	r3, [pc, #72]	; (8022018 <FLASH_WaitForLastOperation+0x4c>)
  while(__HAL_FLASH_GET_FLAG(FLASH_FLAG_BSY) != RESET) 
 8021fd0:	4d12      	ldr	r5, [pc, #72]	; (802201c <FLASH_WaitForLastOperation+0x50>)
  pFlash.ErrorCode = HAL_FLASH_ERROR_NONE;
 8021fd2:	2200      	movs	r2, #0
{ 
 8021fd4:	4604      	mov	r4, r0
  pFlash.ErrorCode = HAL_FLASH_ERROR_NONE;
 8021fd6:	61da      	str	r2, [r3, #28]
  tickstart = HAL_GetTick();
 8021fd8:	f7ff fbae 	bl	8021738 <HAL_GetTick>
 8021fdc:	462f      	mov	r7, r5
 8021fde:	4606      	mov	r6, r0
  while(__HAL_FLASH_GET_FLAG(FLASH_FLAG_BSY) != RESET) 
 8021fe0:	68eb      	ldr	r3, [r5, #12]
 8021fe2:	03da      	lsls	r2, r3, #15
 8021fe4:	d40c      	bmi.n	8022000 <FLASH_WaitForLastOperation+0x34>
  if (__HAL_FLASH_GET_FLAG(FLASH_FLAG_EOP) != RESET)
 8021fe6:	68eb      	ldr	r3, [r5, #12]
 8021fe8:	07db      	lsls	r3, r3, #31
    __HAL_FLASH_CLEAR_FLAG(FLASH_FLAG_EOP);
 8021fea:	bf44      	itt	mi
 8021fec:	2301      	movmi	r3, #1
 8021fee:	60eb      	strmi	r3, [r5, #12]
  if(__HAL_FLASH_GET_FLAG((FLASH_FLAG_OPERR | FLASH_FLAG_WRPERR | FLASH_FLAG_PGAERR | \
 8021ff0:	68f8      	ldr	r0, [r7, #12]
 8021ff2:	f410 70f9 	ands.w	r0, r0, #498	; 0x1f2
 8021ff6:	d007      	beq.n	8022008 <FLASH_WaitForLastOperation+0x3c>
    FLASH_SetErrorCode();
 8021ff8:	f7ff fee4 	bl	8021dc4 <FLASH_SetErrorCode>
    return HAL_ERROR;
 8021ffc:	2001      	movs	r0, #1
 8021ffe:	e003      	b.n	8022008 <FLASH_WaitForLastOperation+0x3c>
