
PACKER.elf:     file format elf32-littlearm

Sections:
Idx Name          Size      VMA       LMA       File off  Algn
  0 .isr_vector   000001c4  08020000  08020000  00010000  2**0
                  CONTENTS, ALLOC, LOAD, READONLY, DATA
  1 .text         0000e13c  080201d0  080201d0  000101d0  2**4
                  CONTENTS, ALLOC, LOAD, READONLY, CODE
  2 .rodata       00000ef4  0802e30c  0802e30c  0001e30c  2**2
                  CONTENTS, ALLOC, LOAD, READONLY, DATA
  3 .ARM.extab    00000000  0802f200  0802f200  000201bc  2**0
                  CONTENTS
  4 .ARM          00000008  0802f200  0802f200  0001f200  2**2
                  CONTENTS, ALLOC, LOAD, READONLY, DATA
  5 .preinit_array 00000000  0802f208  0802f208  000201bc  2**0
                  CONTENTS, ALLOC, LOAD, DATA
  6 .init_array   00000004  0802f208  0802f208  0001f208  2**2
                  CONTENTS, ALLOC, LOAD, DATA
  7 .fini_array   00000004  0802f20c  0802f20c  0001f20c  2**2
                  CONTENTS, ALLOC, LOAD, DATA
  8 .data         000001bc  20000000  0802f210  00020000  2**2
                  CONTENTS, ALLOC, LOAD, DATA
  9 .bss          0000e3d4  200001bc  0802f3cc  000201bc  2**2
                  ALLOC
 10 ._user_heap_stack 00006000  2000e590  0802f3cc  0002e590  2**0
                  ALLOC
 11 .ARM.attributes 00000030  00000000  00000000  000201bc  2**0
                  CONTENTS, READONLY
 12 .debug_info   00048398  00000000  00000000  000201ec  2**0
                  CONTENTS, READONLY, DEBUGGING, OCTETS
 13 .debug_abbrev 000078d7  00000000  00000000  00068584  2**0
                  CONTENTS, READONLY, DEBUGGING, OCTETS
 14 .debug_aranges 00001db8  00000000  00000000  0006fe60  2**3
                  CONTENTS, READONLY, DEBUGGING, OCTETS
 15 .debug_ranges 00002208  00000000  00000000  00071c18  2**3
                  CONTENTS, READONLY, DEBUGGING, OCTETS
 16 .debug_macro  00026bd8  00000000  00000000  00073e20  2**0
                  CONTENTS, READONLY, DEBUGGING, OCTETS
 17 .debug_line   000375a7  00000000  00000000  0009a9f8  2**0
                  CONTENTS, READONLY, DEBUGGING, OCTETS
 18 .debug_str    000d909b  00000000  00000000  000d1f9f  2**0
                  CONTENTS, READONLY, DEBUGGING, OCTETS
 19 .comment      00000053  00000000  00000000  001ab03a  2**0
                  CONTENTS, READONLY
 20 .debug_frame  00005a58  00000000  00000000  001ab090  2**2
                  CONTENTS, READONLY, DEBUGGING, OCTETS
 21 .debug_loc    0001e455  00000000  00000000  001b0ae8  2**0
                  CONTENTS, READONLY, DEBUGGING, OCTETS

Disassembly of section .text:

080201d0 <__do_global_dtors_aux>:
 80201d0:	b510      	push	{r4, lr}
 80201d2:	4c05      	ldr	r4, [pc, #20]	; (80201e8 <__do_global_dtors_aux+0x18>)
 80201d4:	7823      	ldrb	r3, [r4, #0]
 80201d6:	b933      	cbnz	r3, 80201e6 <__do_global_dtors_aux+0x16>
 80201d8:	4b04      	ldr	r3, [pc, #16]	; (80201ec <__do_global_dtors_aux+0x1c>)
 80201da:	b113      	cbz	r3, 80201e2 <__do_global_dtors_aux+0x12>
 80201dc:	4804      	ldr	r0, [pc, #16]	; (80201f0 <__do_global_dtors_aux+0x20>)
 80201de:	f3af 8000 	nop.w
 80201e2:	2301      	movs	r3, #1
 80201e4:	7023      	strb	r3, [r4, #0]
 80201e6:	bd10      	pop	{r4, pc}
 80201e8:	200001bc 	.word	0x200001bc
 80201ec:	00000000 	.word	0x00000000
 80201f0:	0802e2f4 	.word	0x0802e2f4

080201f4 <frame_dummy>:
 80201f4:	b508      	push	{r3, lr}
 80201f6:	4b03      	ldr	r3, [pc, #12]	; (8020204 <frame_dummy+0x10>)
 80201f8:	b11b      	cbz	r3, 8020202 <frame_dummy+0xe>
 80201fa:	4903      	ldr	r1, [pc, #12]	; (8020208 <frame_dummy+0x14>)
 80201fc:	4803      	ldr	r0, [pc, #12]	; (802020c <frame_dummy+0x18>)
 80201fe:	f3af 8000 	nop.w
 8020202:	bd08      	pop	{r3, pc}
 8020204:	00000000 	.word	0x00000000
 8020208:	200001c0 	.word	0x200001c0
 802020c:	0802e2f4 	.word	0x0802e2f4

08020210 <strlen>:
 8020210:	4603      	mov	r3, r0
 8020212:	f813 2b01 	ldrb.w	r2, [r3], #1
 8020216:	2a00      	cmp	r2, #0
 8020218:	d1fb      	bne.n	8020212 <strlen+0x2>
 802021a:	1a18      	subs	r0, r3, r0
 802021c:	3801      	subs	r0, #1
 802021e:	4770      	bx	lr

08020220 <memchr>:
 8020220:	f001 01ff 	and.w	r1, r1, #255	; 0xff
 8020224:	2a10      	cmp	r2, #16
 8020226:	db2b      	blt.n	8020280 <memchr+0x60>
 8020228:	f010 0f07 	tst.w	r0, #7
 802022c:	d008      	beq.n	8020240 <memchr+0x20>
 802022e:	f810 3b01 	ldrb.w	r3, [r0], #1
 8020232:	3a01      	subs	r2, #1
 8020234:	428b      	cmp	r3, r1
 8020236:	d02d      	beq.n	8020294 <memchr+0x74>
 8020238:	f010 0f07 	tst.w	r0, #7
 802023c:	b342      	cbz	r2, 8020290 <memchr+0x70>
 802023e:	d1f6      	bne.n	802022e <memchr+0xe>
 8020240:	b4f0      	push	{r4, r5, r6, r7}
 8020242:	ea41 2101 	orr.w	r1, r1, r1, lsl #8
 8020246:	ea41 4101 	orr.w	r1, r1, r1, lsl #16
 802024a:	f022 0407 	bic.w	r4, r2, #7
 802024e:	f07f 0700 	mvns.w	r7, #0
 8020252:	2300      	movs	r3, #0
 8020254:	e8f0 5602 	ldrd	r5, r6, [r0], #8
 8020258:	3c08      	subs	r4, #8
 802025a:	ea85 0501 	eor.w	r5, r5, r1
 802025e:	ea86 0601 	eor.w	r6, r6, r1
 8020262:	fa85 f547 	uadd8	r5, r5, r7
 8020266:	faa3 f587 	sel	r5, r3, r7
 802026a:	fa86 f647 	uadd8	r6, r6, r7
 802026e:	faa5 f687 	sel	r6, r5, r7
 8020272:	b98e      	cbnz	r6, 8020298 <memchr+0x78>
 8020274:	d1ee      	bne.n	8020254 <memchr+0x34>
 8020276:	bcf0      	pop	{r4, r5, r6, r7}
 8020278:	f001 01ff 	and.w	r1, r1, #255	; 0xff
 802027c:	f002 0207 	and.w	r2, r2, #7
 8020280:	b132      	cbz	r2, 8020290 <memchr+0x70>
 8020282:	f810 3b01 	ldrb.w	r3, [r0], #1
 8020286:	3a01      	subs	r2, #1
 8020288:	ea83 0301 	eor.w	r3, r3, r1
 802028c:	b113      	cbz	r3, 8020294 <memchr+0x74>
 802028e:	d1f8      	bne.n	8020282 <memchr+0x62>
 8020290:	2000      	movs	r0, #0
 8020292:	4770      	bx	lr
 8020294:	3801      	subs	r0, #1
 8020296:	4770      	bx	lr
 8020298:	2d00      	cmp	r5, #0
 802029a:	bf06      	itte	eq
 802029c:	4635      	moveq	r5, r6
 802029e:	3803      	subeq	r0, #3
 80202a0:	3807      	subne	r0, #7
 80202a2:	f015 0f01 	tst.w	r5, #1
 80202a6:	d107      	bne.n	80202b8 <memchr+0x98>
 80202a8:	3001      	adds	r0, #1
 80202aa:	f415 7f80 	tst.w	r5, #256	; 0x100
 80202ae:	bf02      	ittt	eq
 80202b0:	3001      	addeq	r0, #1
 80202b2:	f415 3fc0 	tsteq.w	r5, #98304	; 0x18000
 80202b6:	3001      	addeq	r0, #1
 80202b8:	bcf0      	pop	{r4, r5, r6, r7}
 80202ba:	3801      	subs	r0, #1
 80202bc:	4770      	bx	lr
 80202be:	bf00      	nop

080202c0 <__aeabi_d2f>:
 80202c0:	ea4f 0241 	mov.w	r2, r1, lsl #1
 80202c4:	f1b2 43e0 	subs.w	r3, r2, #1879048192	; 0x70000000
 80202c8:	bf24      	itt	cs
 80202ca:	f5b3 1c00 	subscs.w	ip, r3, #2097152	; 0x200000
 80202ce:	f1dc 5cfe 	rsbscs	ip, ip, #532676608	; 0x1fc00000
 80202d2:	d90d      	bls.n	80202f0 <__aeabi_d2f+0x30>
 80202d4:	f001 4c00 	and.w	ip, r1, #2147483648	; 0x80000000
 80202d8:	ea4f 02c0 	mov.w	r2, r0, lsl #3
 80202dc:	ea4c 7050 	orr.w	r0, ip, r0, lsr #29
 80202e0:	f1b2 4f00 	cmp.w	r2, #2147483648	; 0x80000000
 80202e4:	eb40 0083 	adc.w	r0, r0, r3, lsl #2
 80202e8:	bf08      	it	eq
 80202ea:	f020 0001 	biceq.w	r0, r0, #1
 80202ee:	4770      	bx	lr
 80202f0:	f011 4f80 	tst.w	r1, #1073741824	; 0x40000000
 80202f4:	d121      	bne.n	802033a <__aeabi_d2f+0x7a>
 80202f6:	f113 7238 	adds.w	r2, r3, #48234496	; 0x2e00000
 80202fa:	bfbc      	itt	lt
 80202fc:	f001 4000 	andlt.w	r0, r1, #2147483648	; 0x80000000
 8020300:	4770      	bxlt	lr
 8020302:	f441 1180 	orr.w	r1, r1, #1048576	; 0x100000
 8020306:	ea4f 5252 	mov.w	r2, r2, lsr #21
 802030a:	f1c2 0218 	rsb	r2, r2, #24
 802030e:	f1c2 0c20 	rsb	ip, r2, #32
 8020312:	fa10 f30c 	lsls.w	r3, r0, ip
 8020316:	fa20 f002 	lsr.w	r0, r0, r2
 802031a:	bf18      	it	ne
 802031c:	f040 0001 	orrne.w	r0, r0, #1
 8020320:	ea4f 23c1 	mov.w	r3, r1, lsl #11
 8020324:	ea4f 23d3 	mov.w	r3, r3, lsr #11
 8020328:	fa03 fc0c 	lsl.w	ip, r3, ip
 802032c:	ea40 000c 	orr.w	r0, r0, ip
 8020330:	fa23 f302 	lsr.w	r3, r3, r2
 8020334:	ea4f 0343 	mov.w	r3, r3, lsl #1
 8020338:	e7cc      	b.n	80202d4 <__aeabi_d2f+0x14>
 802033a:	ea7f 5362 	mvns.w	r3, r2, asr #21
 802033e:	d107      	bne.n	8020350 <__aeabi_d2f+0x90>
 8020340:	ea50 3301 	orrs.w	r3, r0, r1, lsl #12
 8020344:	bf1e      	ittt	ne
 8020346:	f04f 40fe 	movne.w	r0, #2130706432	; 0x7f000000
 802034a:	f440 0040 	orrne.w	r0, r0, #12582912	; 0xc00000
 802034e:	4770      	bxne	lr
 8020350:	f001 4000 	and.w	r0, r1, #2147483648	; 0x80000000
 8020354:	f040 40fe 	orr.w	r0, r0, #2130706432	; 0x7f000000
 8020358:	f440 0000 	orr.w	r0, r0, #8388608	; 0x800000
 802035c:	4770      	bx	lr
 802035e:	bf00      	nop

08020360 <__aeabi_uldivmod>:
 8020360:	b953      	cbnz	r3, 8020378 <__aeabi_uldivmod+0x18>
 8020362:	b94a      	cbnz	r2, 8020378 <__aeabi_uldivmod+0x18>
 8020364:	2900      	cmp	r1, #0
 8020366:	bf08      	it	eq
 8020368:	2800      	cmpeq	r0, #0
 802036a:	bf1c      	itt	ne
 802036c:	f04f 31ff 	movne.w	r1, #4294967295
 8020370:	f04f 30ff 	movne.w	r0, #4294967295
 8020374:	f000 b96e 	b.w	8020654 <__aeabi_idiv0>
 8020378:	f1ad 0c08 	sub.w	ip, sp, #8
 802037c:	e96d ce04 	strd	ip, lr, [sp, #-16]!
 8020380:	f000 f806 	bl	8020390 <__udivmoddi4>
 8020384:	f8dd e004 	ldr.w	lr, [sp, #4]
 8020388:	e9dd 2302 	ldrd	r2, r3, [sp, #8]
 802038c:	b004      	add	sp, #16
 802038e:	4770      	bx	lr

08020390 <__udivmoddi4>:
 8020390:	e92d 47f0 	stmdb	sp!, {r4, r5, r6, r7, r8, r9, sl, lr}
 8020394:	9d08      	ldr	r5, [sp, #32]
 8020396:	4604      	mov	r4, r0
 8020398:	468c      	mov	ip, r1
 802039a:	2b00      	cmp	r3, #0
 802039c:	f040 8083 	bne.w	80204a6 <__udivmoddi4+0x116>
 80203a0:	428a      	cmp	r2, r1
 80203a2:	4617      	mov	r7, r2
 80203a4:	d947      	bls.n	8020436 <__udivmoddi4+0xa6>
 80203a6:	fab2 f282 	clz	r2, r2
 80203aa:	b142      	cbz	r2, 80203be <__udivmoddi4+0x2e>
 80203ac:	f1c2 0020 	rsb	r0, r2, #32
 80203b0:	fa24 f000 	lsr.w	r0, r4, r0
 80203b4:	4091      	lsls	r1, r2
 80203b6:	4097      	lsls	r7, r2
 80203b8:	ea40 0c01 	orr.w	ip, r0, r1
 80203bc:	4094      	lsls	r4, r2
 80203be:	ea4f 4817 	mov.w	r8, r7, lsr #16
 80203c2:	0c23      	lsrs	r3, r4, #16
 80203c4:	fbbc f6f8 	udiv	r6, ip, r8
 80203c8:	fa1f fe87 	uxth.w	lr, r7
 80203cc:	fb08 c116 	mls	r1, r8, r6, ip
 80203d0:	ea43 4301 	orr.w	r3, r3, r1, lsl #16
 80203d4:	fb06 f10e 	mul.w	r1, r6, lr
 80203d8:	4299      	cmp	r1, r3
 80203da:	d909      	bls.n	80203f0 <__udivmoddi4+0x60>
 80203dc:	18fb      	adds	r3, r7, r3
 80203de:	f106 30ff 	add.w	r0, r6, #4294967295
 80203e2:	f080 8119 	bcs.w	8020618 <__udivmoddi4+0x288>
 80203e6:	4299      	cmp	r1, r3
 80203e8:	f240 8116 	bls.w	8020618 <__udivmoddi4+0x288>
 80203ec:	3e02      	subs	r6, #2
 80203ee:	443b      	add	r3, r7
 80203f0:	1a5b      	subs	r3, r3, r1
 80203f2:	b2a4      	uxth	r4, r4
 80203f4:	fbb3 f0f8 	udiv	r0, r3, r8
 80203f8:	fb08 3310 	mls	r3, r8, r0, r3
 80203fc:	ea44 4403 	orr.w	r4, r4, r3, lsl #16
 8020400:	fb00 fe0e 	mul.w	lr, r0, lr
 8020404:	45a6      	cmp	lr, r4
 8020406:	d909      	bls.n	802041c <__udivmoddi4+0x8c>
 8020408:	193c      	adds	r4, r7, r4
 802040a:	f100 33ff 	add.w	r3, r0, #4294967295
 802040e:	f080 8105 	bcs.w	802061c <__udivmoddi4+0x28c>
 8020412:	45a6      	cmp	lr, r4
 8020414:	f240 8102 	bls.w	802061c <__udivmoddi4+0x28c>
 8020418:	3802      	subs	r0, #2
 802041a:	443c      	add	r4, r7
 802041c:	ea40 4006 	orr.w	r0, r0, r6, lsl #16
 8020420:	eba4 040e 	sub.w	r4, r4, lr
 8020424:	2600      	movs	r6, #0
 8020426:	b11d      	cbz	r5, 8020430 <__udivmoddi4+0xa0>
 8020428:	40d4      	lsrs	r4, r2
 802042a:	2300      	movs	r3, #0
 802042c:	e9c5 4300 	strd	r4, r3, [r5]
 8020430:	4631      	mov	r1, r6
 8020432:	e8bd 87f0 	ldmia.w	sp!, {r4, r5, r6, r7, r8, r9, sl, pc}
 8020436:	b902      	cbnz	r2, 802043a <__udivmoddi4+0xaa>
 8020438:	deff      	udf	#255	; 0xff
 802043a:	fab2 f282 	clz	r2, r2
 802043e:	2a00      	cmp	r2, #0
 8020440:	d150      	bne.n	80204e4 <__udivmoddi4+0x154>
 8020442:	1bcb      	subs	r3, r1, r7
 8020444:	ea4f 4e17 	mov.w	lr, r7, lsr #16
 8020448:	fa1f f887 	uxth.w	r8, r7
 802044c:	2601      	movs	r6, #1
 802044e:	fbb3 fcfe 	udiv	ip, r3, lr
 8020452:	0c21      	lsrs	r1, r4, #16
 8020454:	fb0e 331c 	mls	r3, lr, ip, r3
 8020458:	ea41 4103 	orr.w	r1, r1, r3, lsl #16
 802045c:	fb08 f30c 	mul.w	r3, r8, ip
 8020460:	428b      	cmp	r3, r1
 8020462:	d907      	bls.n	8020474 <__udivmoddi4+0xe4>
 8020464:	1879      	adds	r1, r7, r1
 8020466:	f10c 30ff 	add.w	r0, ip, #4294967295
 802046a:	d202      	bcs.n	8020472 <__udivmoddi4+0xe2>
 802046c:	428b      	cmp	r3, r1
 802046e:	f200 80e9 	bhi.w	8020644 <__udivmoddi4+0x2b4>
 8020472:	4684      	mov	ip, r0
 8020474:	1ac9      	subs	r1, r1, r3
 8020476:	b2a3      	uxth	r3, r4
 8020478:	fbb1 f0fe 	udiv	r0, r1, lr
 802047c:	fb0e 1110 	mls	r1, lr, r0, r1
 8020480:	ea43 4401 	orr.w	r4, r3, r1, lsl #16
 8020484:	fb08 f800 	mul.w	r8, r8, r0
 8020488:	45a0      	cmp	r8, r4
 802048a:	d907      	bls.n	802049c <__udivmoddi4+0x10c>
 802048c:	193c      	adds	r4, r7, r4
 802048e:	f100 33ff 	add.w	r3, r0, #4294967295
 8020492:	d202      	bcs.n	802049a <__udivmoddi4+0x10a>
 8020494:	45a0      	cmp	r8, r4
 8020496:	f200 80d9 	bhi.w	802064c <__udivmoddi4+0x2bc>
 802049a:	4618      	mov	r0, r3
 802049c:	eba4 0408 	sub.w	r4, r4, r8
 80204a0:	ea40 400c 	orr.w	r0, r0, ip, lsl #16
 80204a4:	e7bf      	b.n	8020426 <__udivmoddi4+0x96>
 80204a6:	428b      	cmp	r3, r1
 80204a8:	d909      	bls.n	80204be <__udivmoddi4+0x12e>
 80204aa:	2d00      	cmp	r5, #0
 80204ac:	f000 80b1 	beq.w	8020612 <__udivmoddi4+0x282>
 80204b0:	2600      	movs	r6, #0
 80204b2:	e9c5 0100 	strd	r0, r1, [r5]
 80204b6:	4630      	mov	r0, r6
 80204b8:	4631      	mov	r1, r6
 80204ba:	e8bd 87f0 	ldmia.w	sp!, {r4, r5, r6, r7, r8, r9, sl, pc}
 80204be:	fab3 f683 	clz	r6, r3
 80204c2:	2e00      	cmp	r6, #0
 80204c4:	d14a      	bne.n	802055c <__udivmoddi4+0x1cc>
 80204c6:	428b      	cmp	r3, r1
 80204c8:	d302      	bcc.n	80204d0 <__udivmoddi4+0x140>
 80204ca:	4282      	cmp	r2, r0
 80204cc:	f200 80b8 	bhi.w	8020640 <__udivmoddi4+0x2b0>
 80204d0:	1a84      	subs	r4, r0, r2
 80204d2:	eb61 0103 	sbc.w	r1, r1, r3
 80204d6:	2001      	movs	r0, #1
 80204d8:	468c      	mov	ip, r1
 80204da:	2d00      	cmp	r5, #0
 80204dc:	d0a8      	beq.n	8020430 <__udivmoddi4+0xa0>
 80204de:	e9c5 4c00 	strd	r4, ip, [r5]
 80204e2:	e7a5      	b.n	8020430 <__udivmoddi4+0xa0>
 80204e4:	f1c2 0320 	rsb	r3, r2, #32
 80204e8:	fa20 f603 	lsr.w	r6, r0, r3
 80204ec:	4097      	lsls	r7, r2
 80204ee:	fa01 f002 	lsl.w	r0, r1, r2
 80204f2:	ea4f 4e17 	mov.w	lr, r7, lsr #16
 80204f6:	40d9      	lsrs	r1, r3
 80204f8:	4330      	orrs	r0, r6
 80204fa:	0c03      	lsrs	r3, r0, #16
 80204fc:	fbb1 f6fe 	udiv	r6, r1, lr
 8020500:	fa1f f887 	uxth.w	r8, r7
 8020504:	fb0e 1116 	mls	r1, lr, r6, r1
 8020508:	ea43 4301 	orr.w	r3, r3, r1, lsl #16
 802050c:	fb06 f108 	mul.w	r1, r6, r8
 8020510:	4299      	cmp	r1, r3
 8020512:	fa04 f402 	lsl.w	r4, r4, r2
 8020516:	d909      	bls.n	802052c <__udivmoddi4+0x19c>
 8020518:	18fb      	adds	r3, r7, r3
 802051a:	f106 3cff 	add.w	ip, r6, #4294967295
 802051e:	f080 808d 	bcs.w	802063c <__udivmoddi4+0x2ac>
 8020522:	4299      	cmp	r1, r3
 8020524:	f240 808a 	bls.w	802063c <__udivmoddi4+0x2ac>
 8020528:	3e02      	subs	r6, #2
 802052a:	443b      	add	r3, r7
 802052c:	1a5b      	subs	r3, r3, r1
 802052e:	b281      	uxth	r1, r0
 8020530:	fbb3 f0fe 	udiv	r0, r3, lr
 8020534:	fb0e 3310 	mls	r3, lr, r0, r3
 8020538:	ea41 4103 	orr.w	r1, r1, r3, lsl #16
 802053c:	fb00 f308 	mul.w	r3, r0, r8
 8020540:	428b      	cmp	r3, r1
 8020542:	d907      	bls.n	8020554 <__udivmoddi4+0x1c4>
 8020544:	1879      	adds	r1, r7, r1
 8020546:	f100 3cff 	add.w	ip, r0, #4294967295
 802054a:	d273      	bcs.n	8020634 <__udivmoddi4+0x2a4>
 802054c:	428b      	cmp	r3, r1
 802054e:	d971      	bls.n	8020634 <__udivmoddi4+0x2a4>
 8020550:	3802      	subs	r0, #2
 8020552:	4439      	add	r1, r7
 8020554:	1acb      	subs	r3, r1, r3
 8020556:	ea40 4606 	orr.w	r6, r0, r6, lsl #16
 802055a:	e778      	b.n	802044e <__udivmoddi4+0xbe>
 802055c:	f1c6 0c20 	rsb	ip, r6, #32
 8020560:	fa03 f406 	lsl.w	r4, r3, r6
 8020564:	fa22 f30c 	lsr.w	r3, r2, ip
 8020568:	431c      	orrs	r4, r3
 802056a:	fa20 f70c 	lsr.w	r7, r0, ip
 802056e:	fa01 f306 	lsl.w	r3, r1, r6
 8020572:	ea4f 4e14 	mov.w	lr, r4, lsr #16
 8020576:	fa21 f10c 	lsr.w	r1, r1, ip
 802057a:	431f      	orrs	r7, r3
 802057c:	0c3b      	lsrs	r3, r7, #16
 802057e:	fbb1 f9fe 	udiv	r9, r1, lr
 8020582:	fa1f f884 	uxth.w	r8, r4
 8020586:	fb0e 1119 	mls	r1, lr, r9, r1
 802058a:	ea43 4101 	orr.w	r1, r3, r1, lsl #16
 802058e:	fb09 fa08 	mul.w	sl, r9, r8
 8020592:	458a      	cmp	sl, r1
 8020594:	fa02 f206 	lsl.w	r2, r2, r6
 8020598:	fa00 f306 	lsl.w	r3, r0, r6
 802059c:	d908      	bls.n	80205b0 <__udivmoddi4+0x220>
 802059e:	1861      	adds	r1, r4, r1
 80205a0:	f109 30ff 	add.w	r0, r9, #4294967295
 80205a4:	d248      	bcs.n	8020638 <__udivmoddi4+0x2a8>
 80205a6:	458a      	cmp	sl, r1
 80205a8:	d946      	bls.n	8020638 <__udivmoddi4+0x2a8>
 80205aa:	f1a9 0902 	sub.w	r9, r9, #2
 80205ae:	4421      	add	r1, r4
 80205b0:	eba1 010a 	sub.w	r1, r1, sl
 80205b4:	b2bf      	uxth	r7, r7
 80205b6:	fbb1 f0fe 	udiv	r0, r1, lr
 80205ba:	fb0e 1110 	mls	r1, lr, r0, r1
 80205be:	ea47 4701 	orr.w	r7, r7, r1, lsl #16
 80205c2:	fb00 f808 	mul.w	r8, r0, r8
 80205c6:	45b8      	cmp	r8, r7
 80205c8:	d907      	bls.n	80205da <__udivmoddi4+0x24a>
 80205ca:	19e7      	adds	r7, r4, r7
 80205cc:	f100 31ff 	add.w	r1, r0, #4294967295
 80205d0:	d22e      	bcs.n	8020630 <__udivmoddi4+0x2a0>
 80205d2:	45b8      	cmp	r8, r7
 80205d4:	d92c      	bls.n	8020630 <__udivmoddi4+0x2a0>
 80205d6:	3802      	subs	r0, #2
 80205d8:	4427      	add	r7, r4
 80205da:	ea40 4009 	orr.w	r0, r0, r9, lsl #16
 80205de:	eba7 0708 	sub.w	r7, r7, r8
 80205e2:	fba0 8902 	umull	r8, r9, r0, r2
 80205e6:	454f      	cmp	r7, r9
 80205e8:	46c6      	mov	lr, r8
 80205ea:	4649      	mov	r1, r9
 80205ec:	d31a      	bcc.n	8020624 <__udivmoddi4+0x294>
 80205ee:	d017      	beq.n	8020620 <__udivmoddi4+0x290>
 80205f0:	b15d      	cbz	r5, 802060a <__udivmoddi4+0x27a>
 80205f2:	ebb3 020e 	subs.w	r2, r3, lr
 80205f6:	eb67 0701 	sbc.w	r7, r7, r1
 80205fa:	fa07 fc0c 	lsl.w	ip, r7, ip
 80205fe:	40f2      	lsrs	r2, r6
 8020600:	ea4c 0202 	orr.w	r2, ip, r2
 8020604:	40f7      	lsrs	r7, r6
 8020606:	e9c5 2700 	strd	r2, r7, [r5]
 802060a:	2600      	movs	r6, #0
 802060c:	4631      	mov	r1, r6
 802060e:	e8bd 87f0 	ldmia.w	sp!, {r4, r5, r6, r7, r8, r9, sl, pc}
 8020612:	462e      	mov	r6, r5
 8020614:	4628      	mov	r0, r5
 8020616:	e70b      	b.n	8020430 <__udivmoddi4+0xa0>
 8020618:	4606      	mov	r6, r0
 802061a:	e6e9      	b.n	80203f0 <__udivmoddi4+0x60>
 802061c:	4618      	mov	r0, r3
 802061e:	e6fd      	b.n	802041c <__udivmoddi4+0x8c>
 8020620:	4543      	cmp	r3, r8
 8020622:	d2e5      	bcs.n	80205f0 <__udivmoddi4+0x260>
 8020624:	ebb8 0e02 	subs.w	lr, r8, r2
 8020628:	eb69 0104 	sbc.w	r1, r9, r4
 802062c:	3801      	subs	r0, #1
 802062e:	e7df      	b.n	80205f0 <__udivmoddi4+0x260>
 8020630:	4608      	mov	r0, r1
 8020632:	e7d2      	b.n	80205da <__udivmoddi4+0x24a>
 8020634:	4660      	mov	r0, ip
 8020636:	e78d      	b.n	8020554 <__udivmoddi4+0x1c4>
 8020638:	4681      	mov	r9, r0
 802063a:	e7b9      	b.n	80205b0 <__udivmoddi4+0x220>
 802063c:	4666      	mov	r6, ip
 802063e:	e775      	b.n	802052c <__udivmoddi4+0x19c>
 8020640:	4630      	mov	r0, r6
 8020642:	e74a      	b.n	80204da <__udivmoddi4+0x14a>
 8020644:	f1ac 0c02 	sub.w	ip, ip, #2
 8020648:	4439      	add	r1, r7
 802064a:	e713      	b.n	8020474 <__udivmoddi4+0xe4>
 802064c:	3802      	subs	r0, #2
 802064e:	443c      	add	r4, r7
 8020650:	e724      	b.n	802049c <__udivmoddi4+0x10c>
 8020652:	bf00      	nop

08020654 <__aeabi_idiv0>:
 8020654:	4770      	bx	lr
 8020656:	bf00      	nop

08020658 <MX_DMA_Init>:

/**
  * Enable DMA controller clock
  */
void MX_DMA_Init(void)
{
 8020658:	b510      	push	{r4, lr}
 802065a:	b082      	sub	sp, #8

  /* DMA controller clock enable */
  __HAL_RCC_DMA2_CLK_ENABLE();
 802065c:	2400      	movs	r4, #0
 802065e:	9400      	str	r4, [sp, #0]
 8020660:	4b22      	ldr	r3, [pc, #136]	; (80206ec <MX_DMA_Init+0x94>)
 8020662:	6b1a      	ldr	r2, [r3, #48]	; 0x30
 8020664:	f442 0280 	orr.w	r2, r2, #4194304	; 0x400000
 8020668:	631a      	str	r2, [r3, #48]	; 0x30
 802066a:	6b1a      	ldr	r2, [r3, #48]	; 0x30
 802066c:	f402 0280 	and.w	r2, r2, #4194304	; 0x400000
 8020670:	9200      	str	r2, [sp, #0]
 8020672:	9a00      	ldr	r2, [sp, #0]
  __HAL_RCC_DMA1_CLK_ENABLE();
 8020674:	9401      	str	r4, [sp, #4]
 8020676:	6b1a      	ldr	r2, [r3, #48]	; 0x30
 8020678:	f442 1200 	orr.w	r2, r2, #2097152	; 0x200000
 802067c:	631a      	str	r2, [r3, #48]	; 0x30
 802067e:	6b1b      	ldr	r3, [r3, #48]	; 0x30
 8020680:	f403 1300 	and.w	r3, r3, #2097152	; 0x200000
 8020684:	9301      	str	r3, [sp, #4]
 8020686:	9b01      	ldr	r3, [sp, #4]

  /* DMA interrupt init */
  /* DMA1_Stream1_IRQn interrupt configuration */
  HAL_NVIC_SetPriority(DMA1_Stream1_IRQn, 5, 0);
 8020688:	4622      	mov	r2, r4
 802068a:	2105      	movs	r1, #5
 802068c:	200c      	movs	r0, #12
 802068e:	f001 f947 	bl	8021920 <HAL_NVIC_SetPriority>
  HAL_NVIC_EnableIRQ(DMA1_Stream1_IRQn);
 8020692:	200c      	movs	r0, #12
 8020694:	f001 f98a 	bl	80219ac <HAL_NVIC_EnableIRQ>
  /* DMA1_Stream3_IRQn interrupt configuration */
  HAL_NVIC_SetPriority(DMA1_Stream3_IRQn, 5, 0);
 8020698:	4622      	mov	r2, r4
 802069a:	2105      	movs	r1, #5
 802069c:	200e      	movs	r0, #14
 802069e:	f001 f93f 	bl	8021920 <HAL_NVIC_SetPriority>
  HAL_NVIC_EnableIRQ(DMA1_Stream3_IRQn);
 80206a2:	200e      	movs	r0, #14
 80206a4:	f001 f982 	bl	80219ac <HAL_NVIC_EnableIRQ>
  /* DMA2_Stream1_IRQn interrupt configuration */
  HAL_NVIC_SetPriority(DMA2_Stream1_IRQn, 5, 0);
 80206a8:	4622      	mov	r2, r4
 80206aa:	2105      	movs	r1, #5
 80206ac:	2039      	movs	r0, #57	; 0x39
 80206ae:	f001 f937 	bl	8021920 <HAL_NVIC_SetPriority>
  HAL_NVIC_EnableIRQ(DMA2_Stream1_IRQn);
 80206b2:	2039      	movs	r0, #57	; 0x39
 80206b4:	f001 f97a 	bl	80219ac <HAL_NVIC_EnableIRQ>
  /* DMA2_Stream2_IRQn interrupt configuration */
  HAL_NVIC_SetPriority(DMA2_Stream2_IRQn, 5, 0);
 80206b8:	4622      	mov	r2, r4
 80206ba:	2105      	movs	r1, #5
 80206bc:	203a      	movs	r0, #58	; 0x3a
 80206be:	f001 f92f 	bl	8021920 <HAL_NVIC_SetPriority>
  HAL_NVIC_EnableIRQ(DMA2_Stream2_IRQn);
 80206c2:	203a      	movs	r0, #58	; 0x3a
 80206c4:	f001 f972 	bl	80219ac <HAL_NVIC_EnableIRQ>
  /* DMA2_Stream6_IRQn interrupt configuration */
  HAL_NVIC_SetPriority(DMA2_Stream6_IRQn, 5, 0);
 80206c8:	4622      	mov	r2, r4
 80206ca:	2105      	movs	r1, #5
 80206cc:	2045      	movs	r0, #69	; 0x45
 80206ce:	f001 f927 	bl	8021920 <HAL_NVIC_SetPriority>
  HAL_NVIC_EnableIRQ(DMA2_Stream6_IRQn);
 80206d2:	2045      	movs	r0, #69	; 0x45
 80206d4:	f001 f96a 	bl	80219ac <HAL_NVIC_EnableIRQ>
  /* DMA2_Stream7_IRQn interrupt configuration */
  HAL_NVIC_SetPriority(DMA2_Stream7_IRQn, 5, 0);
 80206d8:	4622      	mov	r2, r4
 80206da:	2105      	movs	r1, #5
 80206dc:	2046      	movs	r0, #70	; 0x46
 80206de:	f001 f91f 	bl	8021920 <HAL_NVIC_SetPriority>
  HAL_NVIC_EnableIRQ(DMA2_Stream7_IRQn);
 80206e2:	2046      	movs	r0, #70	; 0x46
 80206e4:	f001 f962 	bl	80219ac <HAL_NVIC_EnableIRQ>

}
 80206e8:	b002      	add	sp, #8
 80206ea:	bd10      	pop	{r4, pc}
 80206ec:	40023800 	.word	0x40023800

080206f0 <StartDefaultTask>:
 * @param  argument: Not used
 * @retval None
 */
/* USER CODE END Header_StartDefaultTask */
void StartDefaultTask(void *argument)
{
 80206f0:	b500      	push	{lr}
 80206f2:	b083      	sub	sp, #12
	static uint16_t cnt0 = 0;
	static uint16_t cnt1 = 0;
	static uint16_t cnt2 = 0;
	static uint16_t cnt3 = 0;
	static uint16_t cnt4 = 0;
	osMutexRelease(myMutex01Handle);
 80206f4:	4b57      	ldr	r3, [pc, #348]	; (8020854 <StartDefaultTask+0x164>)
 80206f6:	6818      	ldr	r0, [r3, #0]
 80206f8:	f004 fc9c 	bl	8025034 <osMutexRelease>
	osThreadTerminate(myTask04Handle);
 80206fc:	4b56      	ldr	r3, [pc, #344]	; (8020858 <StartDefaultTask+0x168>)
 80206fe:	6818      	ldr	r0, [r3, #0]
 8020700:	f004 fbda 	bl	8024eb8 <osThreadTerminate>
	osThreadTerminate(myTask05Handle);
 8020704:	4b55      	ldr	r3, [pc, #340]	; (802085c <StartDefaultTask+0x16c>)
 8020706:	6818      	ldr	r0, [r3, #0]
 8020708:	f004 fbd6 	bl	8024eb8 <osThreadTerminate>
	osSemaphoreAcquire(myBinarySem03Handle, 10);
 802070c:	210a      	movs	r1, #10
 802070e:	4b54      	ldr	r3, [pc, #336]	; (8020860 <StartDefaultTask+0x170>)
 8020710:	6818      	ldr	r0, [r3, #0]
 8020712:	f004 fd0f 	bl	8025134 <osSemaphoreAcquire>
	softTimer_Start(TIMER0, MODE_PERIODIC, 5, TIM0_CB, NULL, 0);
 8020716:	2400      	movs	r4, #0
 8020718:	9401      	str	r4, [sp, #4]
 802071a:	9400      	str	r4, [sp, #0]
 802071c:	4b51      	ldr	r3, [pc, #324]	; (8020864 <StartDefaultTask+0x174>)
 802071e:	2205      	movs	r2, #5
 8020720:	2101      	movs	r1, #1
 8020722:	4620      	mov	r0, r4
 8020724:	f00d f80a 	bl	802d73c <softTimer_Start>
	softTimer_Start(TIMER2, MODE_PERIODIC, 3000, TIM2_CB, NULL, 0);
 8020728:	9401      	str	r4, [sp, #4]
 802072a:	9400      	str	r4, [sp, #0]
 802072c:	4b4e      	ldr	r3, [pc, #312]	; (8020868 <StartDefaultTask+0x178>)
 802072e:	f640 32b8 	movw	r2, #3000	; 0xbb8
 8020732:	2101      	movs	r1, #1
 8020734:	2002      	movs	r0, #2
 8020736:	f00d f801 	bl	802d73c <softTimer_Start>
	sysguard_start(DefaultTask);
 802073a:	4620      	mov	r0, r4
 802073c:	f00d f8b2 	bl	802d8a4 <sysguard_start>
	sysguard_start(TASK2);
 8020740:	2001      	movs	r0, #1
 8020742:	f00d f8af 	bl	802d8a4 <sysguard_start>
	sysguard_start(TASK3);
 8020746:	2002      	movs	r0, #2
 8020748:	f00d f8ac 	bl	802d8a4 <sysguard_start>
//	sysguard_start(TASK4);
//	sysguard_start(TASK5);
//	sysguard_start(TASK6);
	while (screen_ini_st.screen_conn_flag != FLAG_ON) {
 802074c:	e002      	b.n	8020754 <StartDefaultTask+0x64>
		osDelay(10);
 802074e:	200a      	movs	r0, #10
 8020750:	f004 fbca 	bl	8024ee8 <osDelay>
	while (screen_ini_st.screen_conn_flag != FLAG_ON) {
 8020754:	4b45      	ldr	r3, [pc, #276]	; (802086c <StartDefaultTask+0x17c>)
 8020756:	785b      	ldrb	r3, [r3, #1]
 8020758:	2b55      	cmp	r3, #85	; 0x55
 802075a:	d1f8      	bne.n	802074e <StartDefaultTask+0x5e>
 802075c:	e037      	b.n	80207ce <StartDefaultTask+0xde>
	}
	/* Infinite loop */
	for (;;) {
		/*10ms*/
		if (cnt0 == 0) {
			dev_input_check();
 802075e:	f007 f8d3 	bl	8027908 <dev_input_check>
 8020762:	e038      	b.n	80207d6 <StartDefaultTask+0xe6>
		}
		cnt0++;
		cnt0 %= 5;
		if (cnt1 == 0) {
			inf_input_check();
 8020764:	f007 f872 	bl	802784c <inf_input_check>
			input_tog();
 8020768:	f007 fa36 	bl	8027bd8 <input_tog>
			Key_event();
 802076c:	f007 fab2 	bl	8027cd4 <Key_event>
			stop_check();
 8020770:	f007 fc44 	bl	8027ffc <stop_check>
			/*get*/
			double_check();
 8020774:	f007 fbde 	bl	8027f34 <double_check>
			relief_check();
 8020778:	f00b fd18 	bl	802c1ac <relief_check>
			mytim_check();
 802077c:	f00c fb64 	bl	802ce48 <mytim_check>
 8020780:	e039      	b.n	80207f6 <StartDefaultTask+0x106>
		}
		cnt1++;
		cnt1 %= 2;
		if (cnt2 == 0) {
			run_input_check();
 8020782:	f007 f913 	bl	80279ac <run_input_check>
 8020786:	e040      	b.n	802080a <StartDefaultTask+0x11a>
		cnt2++;
		cnt2 %= 10;
		/*100ms*/
		if (cnt3 == 0) {
			/*set*/
			double_deal();
 8020788:	f007 fb8c 	bl	8027ea4 <double_deal>
 802078c:	e04e      	b.n	802082c <StartDefaultTask+0x13c>
		}
		cnt3++;
		if (set_para_st.rl_double_io > 30) {
			cnt3 %= 200;
 802078e:	4a38      	ldr	r2, [pc, #224]	; (8020870 <StartDefaultTask+0x180>)
 8020790:	fba2 1203 	umull	r1, r2, r2, r3
 8020794:	0992      	lsrs	r2, r2, #6
 8020796:	21c8      	movs	r1, #200	; 0xc8
 8020798:	fb01 3312 	mls	r3, r1, r2, r3
 802079c:	4a35      	ldr	r2, [pc, #212]	; (8020874 <StartDefaultTask+0x184>)
 802079e:	8013      	strh	r3, [r2, #0]
		} else {
			cnt3 %= 20;
		}
		/*1000ms*/
		if (cnt4 == 0) {
 80207a0:	4b35      	ldr	r3, [pc, #212]	; (8020878 <StartDefaultTask+0x188>)
 80207a2:	881b      	ldrh	r3, [r3, #0]
 80207a4:	b923      	cbnz	r3, 80207b0 <StartDefaultTask+0xc0>
			sysguard_feed(DefaultTask);
 80207a6:	2000      	movs	r0, #0
 80207a8:	f00d f892 	bl	802d8d0 <sysguard_feed>
			sysguard_scan();
 80207ac:	f00d f8aa 	bl	802d904 <sysguard_scan>
		}
		cnt4++;
 80207b0:	4931      	ldr	r1, [pc, #196]	; (8020878 <StartDefaultTask+0x188>)
 80207b2:	880b      	ldrh	r3, [r1, #0]
 80207b4:	3301      	adds	r3, #1
 80207b6:	b29a      	uxth	r2, r3
		cnt4 %= 200;
 80207b8:	4b2d      	ldr	r3, [pc, #180]	; (8020870 <StartDefaultTask+0x180>)
 80207ba:	fba3 0302 	umull	r0, r3, r3, r2
 80207be:	099b      	lsrs	r3, r3, #6
 80207c0:	20c8      	movs	r0, #200	; 0xc8
 80207c2:	fb00 2313 	mls	r3, r0, r3, r2
 80207c6:	800b      	strh	r3, [r1, #0]
		osDelay(5);
 80207c8:	2005      	movs	r0, #5
 80207ca:	f004 fb8d 	bl	8024ee8 <osDelay>
		if (cnt0 == 0) {
 80207ce:	4b2b      	ldr	r3, [pc, #172]	; (802087c <StartDefaultTask+0x18c>)
 80207d0:	881b      	ldrh	r3, [r3, #0]
 80207d2:	2b00      	cmp	r3, #0
 80207d4:	d0c3      	beq.n	802075e <StartDefaultTask+0x6e>
		cnt0++;
 80207d6:	4929      	ldr	r1, [pc, #164]	; (802087c <StartDefaultTask+0x18c>)
 80207d8:	880b      	ldrh	r3, [r1, #0]
 80207da:	3301      	adds	r3, #1
 80207dc:	b29b      	uxth	r3, r3
		cnt0 %= 5;
 80207de:	4a28      	ldr	r2, [pc, #160]	; (8020880 <StartDefaultTask+0x190>)
 80207e0:	fba2 0203 	umull	r0, r2, r2, r3
 80207e4:	0892      	lsrs	r2, r2, #2
 80207e6:	eb02 0282 	add.w	r2, r2, r2, lsl #2
 80207ea:	1a9b      	subs	r3, r3, r2
 80207ec:	800b      	strh	r3, [r1, #0]
		if (cnt1 == 0) {
 80207ee:	4b25      	ldr	r3, [pc, #148]	; (8020884 <StartDefaultTask+0x194>)
 80207f0:	881b      	ldrh	r3, [r3, #0]
 80207f2:	2b00      	cmp	r3, #0
 80207f4:	d0b6      	beq.n	8020764 <StartDefaultTask+0x74>
		cnt1++;
 80207f6:	4a23      	ldr	r2, [pc, #140]	; (8020884 <StartDefaultTask+0x194>)
 80207f8:	8813      	ldrh	r3, [r2, #0]
 80207fa:	3301      	adds	r3, #1
		cnt1 %= 2;
 80207fc:	f003 0301 	and.w	r3, r3, #1
 8020800:	8013      	strh	r3, [r2, #0]
		if (cnt2 == 0) {
 8020802:	4b21      	ldr	r3, [pc, #132]	; (8020888 <StartDefaultTask+0x198>)
 8020804:	881b      	ldrh	r3, [r3, #0]
 8020806:	2b00      	cmp	r3, #0
 8020808:	d0bb      	beq.n	8020782 <StartDefaultTask+0x92>
		cnt2++;
 802080a:	491f      	ldr	r1, [pc, #124]	; (8020888 <StartDefaultTask+0x198>)
 802080c:	880a      	ldrh	r2, [r1, #0]
 802080e:	3201      	adds	r2, #1
 8020810:	b292      	uxth	r2, r2
		cnt2 %= 10;
 8020812:	4b1b      	ldr	r3, [pc, #108]	; (8020880 <StartDefaultTask+0x190>)
 8020814:	fba3 0302 	umull	r0, r3, r3, r2
 8020818:	08db      	lsrs	r3, r3, #3
 802081a:	eb03 0383 	add.w	r3, r3, r3, lsl #2
 802081e:	0058      	lsls	r0, r3, #1
 8020820:	1a12      	subs	r2, r2, r0
 8020822:	800a      	strh	r2, [r1, #0]
		if (cnt3 == 0) {
 8020824:	4b13      	ldr	r3, [pc, #76]	; (8020874 <StartDefaultTask+0x184>)
 8020826:	881b      	ldrh	r3, [r3, #0]
 8020828:	2b00      	cmp	r3, #0
 802082a:	d0ad      	beq.n	8020788 <StartDefaultTask+0x98>
		cnt3++;
 802082c:	4b11      	ldr	r3, [pc, #68]	; (8020874 <StartDefaultTask+0x184>)
 802082e:	881b      	ldrh	r3, [r3, #0]
 8020830:	3301      	adds	r3, #1
 8020832:	b29b      	uxth	r3, r3
		if (set_para_st.rl_double_io > 30) {
 8020834:	4a15      	ldr	r2, [pc, #84]	; (802088c <StartDefaultTask+0x19c>)
 8020836:	8b52      	ldrh	r2, [r2, #26]
 8020838:	2a1e      	cmp	r2, #30
 802083a:	d8a8      	bhi.n	802078e <StartDefaultTask+0x9e>
			cnt3 %= 20;
 802083c:	4a10      	ldr	r2, [pc, #64]	; (8020880 <StartDefaultTask+0x190>)
 802083e:	fba2 1203 	umull	r1, r2, r2, r3
 8020842:	0912      	lsrs	r2, r2, #4
 8020844:	eb02 0282 	add.w	r2, r2, r2, lsl #2
 8020848:	0091      	lsls	r1, r2, #2
 802084a:	1a5b      	subs	r3, r3, r1
 802084c:	4a09      	ldr	r2, [pc, #36]	; (8020874 <StartDefaultTask+0x184>)
 802084e:	8013      	strh	r3, [r2, #0]
 8020850:	e7a6      	b.n	80207a0 <StartDefaultTask+0xb0>
 8020852:	bf00      	nop
 8020854:	2000d180 	.word	0x2000d180
 8020858:	2000d144 	.word	0x2000d144
 802085c:	2000d140 	.word	0x2000d140
 8020860:	2000d148 	.word	0x2000d148
 8020864:	0802d5a5 	.word	0x0802d5a5
 8020868:	0802d62d 	.word	0x0802d62d
 802086c:	2000e394 	.word	0x2000e394
 8020870:	51eb851f 	.word	0x51eb851f
 8020874:	200001e4 	.word	0x200001e4
 8020878:	200001e8 	.word	0x200001e8
 802087c:	200001d8 	.word	0x200001d8
 8020880:	cccccccd 	.word	0xcccccccd
 8020884:	200001dc 	.word	0x200001dc
 8020888:	200001e0 	.word	0x200001e0
 802088c:	2000e338 	.word	0x2000e338

08020890 <StartTask02>:
 * @param argument: Not used
 * @retval None
 */
/* USER CODE END Header_StartTask02 */
void StartTask02(void *argument)
{
 8020890:	b508      	push	{r3, lr}
 8020892:	e029      	b.n	80208e8 <StartTask02+0x58>
  /* USER CODE BEGIN StartTask02 */
	/* Infinite loop */
	for (;;) {
		if (0 != osMessageQueueGetCount(myQueueUsart1Handle)) {
			osMessageQueueGet(myQueueUsart1Handle, &usart1_rx, 0U, 0xff);
 8020894:	4c29      	ldr	r4, [pc, #164]	; (802093c <StartTask02+0xac>)
 8020896:	23ff      	movs	r3, #255	; 0xff
 8020898:	2200      	movs	r2, #0
 802089a:	4621      	mov	r1, r4
 802089c:	4828      	ldr	r0, [pc, #160]	; (8020940 <StartTask02+0xb0>)
 802089e:	6800      	ldr	r0, [r0, #0]
 80208a0:	f004 fd0a 	bl	80252b8 <osMessageQueueGet>
			usart1_rx_deal(&usart1_rx);
 80208a4:	4620      	mov	r0, r4
 80208a6:	f007 fcd9 	bl	802825c <usart1_rx_deal>
			memset(&usart1_rx, 0x00, sizeof(usart1_rx));
 80208aa:	f44f 7281 	mov.w	r2, #258	; 0x102
 80208ae:	2100      	movs	r1, #0
 80208b0:	4620      	mov	r0, r4
 80208b2:	f00d f88f 	bl	802d9d4 <memset>
 80208b6:	e01d      	b.n	80208f4 <StartTask02+0x64>
		}
		osDelay(1);
		if (0 != osMessageQueueGetCount(myQueueUsart3Handle)) {
			osMessageQueueGet(myQueueUsart3Handle, &usart3_rx, 0U, 0xff);
 80208b8:	4c22      	ldr	r4, [pc, #136]	; (8020944 <StartTask02+0xb4>)
 80208ba:	23ff      	movs	r3, #255	; 0xff
 80208bc:	2200      	movs	r2, #0
 80208be:	4621      	mov	r1, r4
 80208c0:	4821      	ldr	r0, [pc, #132]	; (8020948 <StartTask02+0xb8>)
 80208c2:	6800      	ldr	r0, [r0, #0]
 80208c4:	f004 fcf8 	bl	80252b8 <osMessageQueueGet>
			usart3_rx_deal(&usart3_rx);
 80208c8:	4620      	mov	r0, r4
 80208ca:	f007 fcd3 	bl	8028274 <usart3_rx_deal>
			memset(&usart3_rx, 0x00, sizeof(usart3_rx));
 80208ce:	f44f 7281 	mov.w	r2, #258	; 0x102
 80208d2:	2100      	movs	r1, #0
 80208d4:	4620      	mov	r0, r4
 80208d6:	f00d f87d 	bl	802d9d4 <memset>
 80208da:	e014      	b.n	8020906 <StartTask02+0x76>
		if (0 != osMessageQueueGetCount(myQueueUsart6Handle)) {
			osMessageQueueGet(myQueueUsart6Handle, &usart6_rx, 0U, 0xff);
			usart6_rx_deal(&usart6_rx);
			memset(&usart6_rx, 0x00, sizeof(usart6_rx));
		}
		osDelay(1);
 80208dc:	2001      	movs	r0, #1
 80208de:	f004 fb03 	bl	8024ee8 <osDelay>
		sysguard_feed(TASK2);
 80208e2:	2001      	movs	r0, #1
 80208e4:	f00c fff4 	bl	802d8d0 <sysguard_feed>
		if (0 != osMessageQueueGetCount(myQueueUsart1Handle)) {
 80208e8:	4b15      	ldr	r3, [pc, #84]	; (8020940 <StartTask02+0xb0>)
 80208ea:	6818      	ldr	r0, [r3, #0]
 80208ec:	f004 fd26 	bl	802533c <osMessageQueueGetCount>
 80208f0:	2800      	cmp	r0, #0
 80208f2:	d1cf      	bne.n	8020894 <StartTask02+0x4>
		osDelay(1);
 80208f4:	2001      	movs	r0, #1
 80208f6:	f004 faf7 	bl	8024ee8 <osDelay>
		if (0 != osMessageQueueGetCount(myQueueUsart3Handle)) {
 80208fa:	4b13      	ldr	r3, [pc, #76]	; (8020948 <StartTask02+0xb8>)
 80208fc:	6818      	ldr	r0, [r3, #0]
 80208fe:	f004 fd1d 	bl	802533c <osMessageQueueGetCount>
 8020902:	2800      	cmp	r0, #0
 8020904:	d1d8      	bne.n	80208b8 <StartTask02+0x28>
		osDelay(1);
 8020906:	2001      	movs	r0, #1
 8020908:	f004 faee 	bl	8024ee8 <osDelay>
		if (0 != osMessageQueueGetCount(myQueueUsart6Handle)) {
 802090c:	4b0f      	ldr	r3, [pc, #60]	; (802094c <StartTask02+0xbc>)
 802090e:	6818      	ldr	r0, [r3, #0]
 8020910:	f004 fd14 	bl	802533c <osMessageQueueGetCount>
 8020914:	2800      	cmp	r0, #0
 8020916:	d0e1      	beq.n	80208dc <StartTask02+0x4c>
			osMessageQueueGet(myQueueUsart6Handle, &usart6_rx, 0U, 0xff);
 8020918:	4c0d      	ldr	r4, [pc, #52]	; (8020950 <StartTask02+0xc0>)
 802091a:	23ff      	movs	r3, #255	; 0xff
 802091c:	2200      	movs	r2, #0
 802091e:	4621      	mov	r1, r4
 8020920:	480a      	ldr	r0, [pc, #40]	; (802094c <StartTask02+0xbc>)
 8020922:	6800      	ldr	r0, [r0, #0]
 8020924:	f004 fcc8 	bl	80252b8 <osMessageQueueGet>
			usart6_rx_deal(&usart6_rx);
 8020928:	4620      	mov	r0, r4
 802092a:	f007 fca9 	bl	8028280 <usart6_rx_deal>
			memset(&usart6_rx, 0x00, sizeof(usart6_rx));
 802092e:	f44f 7281 	mov.w	r2, #258	; 0x102
 8020932:	2100      	movs	r1, #0
 8020934:	4620      	mov	r0, r4
 8020936:	f00d f84d 	bl	802d9d4 <memset>
 802093a:	e7cf      	b.n	80208dc <StartTask02+0x4c>
 802093c:	2000d898 	.word	0x2000d898
 8020940:	2000d178 	.word	0x2000d178
 8020944:	2000dfb4 	.word	0x2000dfb4
 8020948:	2000d188 	.word	0x2000d188
 802094c:	2000d17c 	.word	0x2000d17c
 8020950:	2000daa0 	.word	0x2000daa0

08020954 <StartTask03>:
 * @param argument: Not used
 * @retval None
 */
/* USER CODE END Header_StartTask03 */
void StartTask03(void *argument)
{
 8020954:	b508      	push	{r3, lr}
  /* USER CODE BEGIN StartTask03 */
	operate_ini();
 8020956:	f008 ff81 	bl	802985c <operate_ini>
	/* Infinite loop */
	for (;;) {
		operate_ctrl();
 802095a:	f00b f993 	bl	802bc84 <operate_ctrl>
		keyqueue_deal();
 802095e:	f00a f829 	bl	802a9b4 <keyqueue_deal>
		osDelay(5);
 8020962:	2005      	movs	r0, #5
 8020964:	f004 fac0 	bl	8024ee8 <osDelay>
		sysguard_feed(TASK3);
 8020968:	2002      	movs	r0, #2
 802096a:	f00c ffb1 	bl	802d8d0 <sysguard_feed>
	for (;;) {
 802096e:	e7f4      	b.n	802095a <StartTask03+0x6>

08020970 <StartTask04>:
 * @param argument: Not used
 * @retval None
 */
/* USER CODE END Header_StartTask04 */
void StartTask04(void *argument)
{
 8020970:	b508      	push	{r3, lr}
  /* USER CODE BEGIN StartTask04 */
	osDelay(10);
 8020972:	200a      	movs	r0, #10
 8020974:	f004 fab8 	bl	8024ee8 <osDelay>
 8020978:	e007      	b.n	802098a <StartTask04+0x1a>
		switch (osthd_st.thd_num) {
		case STATE_RST:
			rst_deal();
			break;
		case AUTO:
			sequence_deal();
 802097a:	f00a fe29 	bl	802b5d0 <sequence_deal>
			break;
		}
		osDelay(5);
 802097e:	2005      	movs	r0, #5
 8020980:	f004 fab2 	bl	8024ee8 <osDelay>
		sysguard_feed(TASK4);
 8020984:	2003      	movs	r0, #3
 8020986:	f00c ffa3 	bl	802d8d0 <sysguard_feed>
		switch (osthd_st.thd_num) {
 802098a:	4b04      	ldr	r3, [pc, #16]	; (802099c <StartTask04+0x2c>)
 802098c:	781b      	ldrb	r3, [r3, #0]
 802098e:	2b02      	cmp	r3, #2
 8020990:	d0f3      	beq.n	802097a <StartTask04+0xa>
 8020992:	2b03      	cmp	r3, #3
 8020994:	d1f3      	bne.n	802097e <StartTask04+0xe>
			rst_deal();
 8020996:	f00a fb51 	bl	802b03c <rst_deal>
			break;
 802099a:	e7f0      	b.n	802097e <StartTask04+0xe>
 802099c:	2000e324 	.word	0x2000e324

080209a0 <StartTask05>:
 * @param argument: Not used
 * @retval None
 */
/* USER CODE END Header_StartTask05 */
void StartTask05(void *argument)
{
 80209a0:	b508      	push	{r3, lr}
  /* USER CODE BEGIN StartTask05 */
	osDelay(10);
 80209a2:	200a      	movs	r0, #10
 80209a4:	f004 faa0 	bl	8024ee8 <osDelay>
	/* Infinite loop */
	for (;;) {
		sequence_assist();
 80209a8:	f00a fd68 	bl	802b47c <sequence_assist>
		osDelay(5);
 80209ac:	2005      	movs	r0, #5
 80209ae:	f004 fa9b 	bl	8024ee8 <osDelay>
		sysguard_feed(TASK5);
 80209b2:	2004      	movs	r0, #4
 80209b4:	f00c ff8c 	bl	802d8d0 <sysguard_feed>
	for (;;) {
 80209b8:	e7f6      	b.n	80209a8 <StartTask05+0x8>
	...

080209bc <StartTask06>:
 * @param argument: Not used
 * @retval None
 */
/* USER CODE END Header_StartTask06 */
void StartTask06(void *argument)
{
 80209bc:	b508      	push	{r3, lr}
 80209be:	e039      	b.n	8020a34 <StartTask06+0x78>
	static uint16_t cnt4 = 0;
	/* Infinite loop */
	for (;;) {
		/*25ms*/
		if (cnt0 == 0) {
			softTimer_Update();
 80209c0:	f00c fef6 	bl	802d7b0 <softTimer_Update>
 80209c4:	e03a      	b.n	8020a3c <StartTask06+0x80>
		}
		cnt0++;
		cnt0 %= 5;
		if (cnt1 == 0) {
			input_pic();
 80209c6:	f007 f83b 	bl	8027a40 <input_pic>
 80209ca:	e047      	b.n	8020a5c <StartTask06+0xa0>
		}
		cnt1++;
		cnt1 %= 20;
		/*30ms*/
		if (cnt2 == 0) {
			rst_check();
 80209cc:	f007 fa08 	bl	8027de0 <rst_check>
			/*********************/
			dis_refresh_log();
 80209d0:	f008 f92c 	bl	8028c2c <dis_refresh_log>
			dis_tip_page();
 80209d4:	f007 fcc8 	bl	8028368 <dis_tip_page>
			/*********************/
			dis_hard();
 80209d8:	f007 ff86 	bl	80288e8 <dis_hard>
			/*********************/
			catch_stuck();
 80209dc:	f007 fc74 	bl	80282c8 <catch_stuck>
			/*********************/
			clean_check();
 80209e0:	f00b fc48 	bl	802c274 <clean_check>
			dis_warn();
 80209e4:	f007 fed4 	bl	8028790 <dis_warn>
			/*********************/
			dis_double();
 80209e8:	f007 ffe4 	bl	80289b4 <dis_double>
			/*********************/
			save_op_tip();
 80209ec:	f008 f902 	bl	8028bf4 <save_op_tip>
//			dis_tips();
			/*********************/
			warn_out();
 80209f0:	f008 f996 	bl	8028d20 <warn_out>
			/*********************/
			for (uint8_t j = 0; j < WARN_NUM; j++) {
 80209f4:	2300      	movs	r3, #0
 80209f6:	e005      	b.n	8020a04 <StartTask06+0x48>
				log_para_st.tip_tab_bk[j] = log_para_st.tip_tab[j];
 80209f8:	4a33      	ldr	r2, [pc, #204]	; (8020ac8 <StartTask06+0x10c>)
 80209fa:	441a      	add	r2, r3
 80209fc:	7851      	ldrb	r1, [r2, #1]
 80209fe:	7691      	strb	r1, [r2, #26]
			for (uint8_t j = 0; j < WARN_NUM; j++) {
 8020a00:	3301      	adds	r3, #1
 8020a02:	b2db      	uxtb	r3, r3
 8020a04:	2b18      	cmp	r3, #24
 8020a06:	d9f7      	bls.n	80209f8 <StartTask06+0x3c>
 8020a08:	e039      	b.n	8020a7e <StartTask06+0xc2>
		}
		cnt2++;
		cnt2 %= 6;
		/*200ms*/
		if (cnt3 == 0) {
			dis_fst_page();
 8020a0a:	f007 fc75 	bl	80282f8 <dis_fst_page>
 8020a0e:	e047      	b.n	8020aa0 <StartTask06+0xe4>
		cnt3++;
		cnt3 %= 30;
		if (cnt4 == 0) {
			run_time();
		}
		cnt4++;
 8020a10:	492e      	ldr	r1, [pc, #184]	; (8020acc <StartTask06+0x110>)
 8020a12:	880b      	ldrh	r3, [r1, #0]
 8020a14:	3301      	adds	r3, #1
 8020a16:	b29a      	uxth	r2, r3
		cnt4 %= 200;
 8020a18:	4b2d      	ldr	r3, [pc, #180]	; (8020ad0 <StartTask06+0x114>)
 8020a1a:	fba3 0302 	umull	r0, r3, r3, r2
 8020a1e:	099b      	lsrs	r3, r3, #6
 8020a20:	20c8      	movs	r0, #200	; 0xc8
 8020a22:	fb00 2313 	mls	r3, r0, r3, r2
 8020a26:	800b      	strh	r3, [r1, #0]
		osDelay(5);
 8020a28:	2005      	movs	r0, #5
 8020a2a:	f004 fa5d 	bl	8024ee8 <osDelay>
		sysguard_feed(TASK6);
 8020a2e:	2005      	movs	r0, #5
 8020a30:	f00c ff4e 	bl	802d8d0 <sysguard_feed>
		if (cnt0 == 0) {
 8020a34:	4b27      	ldr	r3, [pc, #156]	; (8020ad4 <StartTask06+0x118>)
 8020a36:	881b      	ldrh	r3, [r3, #0]
 8020a38:	2b00      	cmp	r3, #0
 8020a3a:	d0c1      	beq.n	80209c0 <StartTask06+0x4>
		cnt0++;
 8020a3c:	4925      	ldr	r1, [pc, #148]	; (8020ad4 <StartTask06+0x118>)
 8020a3e:	880b      	ldrh	r3, [r1, #0]
 8020a40:	3301      	adds	r3, #1
 8020a42:	b29b      	uxth	r3, r3
		cnt0 %= 5;
 8020a44:	4a24      	ldr	r2, [pc, #144]	; (8020ad8 <StartTask06+0x11c>)
 8020a46:	fba2 0203 	umull	r0, r2, r2, r3
 8020a4a:	0892      	lsrs	r2, r2, #2
 8020a4c:	eb02 0282 	add.w	r2, r2, r2, lsl #2
 8020a50:	1a9b      	subs	r3, r3, r2
 8020a52:	800b      	strh	r3, [r1, #0]
		if (cnt1 == 0) {
 8020a54:	4b21      	ldr	r3, [pc, #132]	; (8020adc <StartTask06+0x120>)
 8020a56:	881b      	ldrh	r3, [r3, #0]
 8020a58:	2b00      	cmp	r3, #0
 8020a5a:	d0b4      	beq.n	80209c6 <StartTask06+0xa>
		cnt1++;
 8020a5c:	491f      	ldr	r1, [pc, #124]	; (8020adc <StartTask06+0x120>)
 8020a5e:	880a      	ldrh	r2, [r1, #0]
 8020a60:	3201      	adds	r2, #1
 8020a62:	b292      	uxth	r2, r2
		cnt1 %= 20;
 8020a64:	4b1c      	ldr	r3, [pc, #112]	; (8020ad8 <StartTask06+0x11c>)
 8020a66:	fba3 0302 	umull	r0, r3, r3, r2
 8020a6a:	091b      	lsrs	r3, r3, #4
 8020a6c:	eb03 0383 	add.w	r3, r3, r3, lsl #2
 8020a70:	0098      	lsls	r0, r3, #2
 8020a72:	1a12      	subs	r2, r2, r0
 8020a74:	800a      	strh	r2, [r1, #0]
		if (cnt2 == 0) {
 8020a76:	4b1a      	ldr	r3, [pc, #104]	; (8020ae0 <StartTask06+0x124>)
 8020a78:	881b      	ldrh	r3, [r3, #0]
 8020a7a:	2b00      	cmp	r3, #0
 8020a7c:	d0a6      	beq.n	80209cc <StartTask06+0x10>
		cnt2++;
 8020a7e:	4918      	ldr	r1, [pc, #96]	; (8020ae0 <StartTask06+0x124>)
 8020a80:	880a      	ldrh	r2, [r1, #0]
 8020a82:	3201      	adds	r2, #1
 8020a84:	b292      	uxth	r2, r2
		cnt2 %= 6;
 8020a86:	4b17      	ldr	r3, [pc, #92]	; (8020ae4 <StartTask06+0x128>)
 8020a88:	fba3 0302 	umull	r0, r3, r3, r2
 8020a8c:	089b      	lsrs	r3, r3, #2
 8020a8e:	eb03 0343 	add.w	r3, r3, r3, lsl #1
 8020a92:	0058      	lsls	r0, r3, #1
 8020a94:	1a12      	subs	r2, r2, r0
 8020a96:	800a      	strh	r2, [r1, #0]
		if (cnt3 == 0) {
 8020a98:	4b13      	ldr	r3, [pc, #76]	; (8020ae8 <StartTask06+0x12c>)
 8020a9a:	881b      	ldrh	r3, [r3, #0]
 8020a9c:	2b00      	cmp	r3, #0
 8020a9e:	d0b4      	beq.n	8020a0a <StartTask06+0x4e>
		cnt3++;
 8020aa0:	4911      	ldr	r1, [pc, #68]	; (8020ae8 <StartTask06+0x12c>)
 8020aa2:	880a      	ldrh	r2, [r1, #0]
 8020aa4:	3201      	adds	r2, #1
 8020aa6:	b292      	uxth	r2, r2
		cnt3 %= 30;
 8020aa8:	4b10      	ldr	r3, [pc, #64]	; (8020aec <StartTask06+0x130>)
 8020aaa:	fba3 0302 	umull	r0, r3, r3, r2
 8020aae:	091b      	lsrs	r3, r3, #4
 8020ab0:	ebc3 1303 	rsb	r3, r3, r3, lsl #4
 8020ab4:	0058      	lsls	r0, r3, #1
 8020ab6:	1a12      	subs	r2, r2, r0
 8020ab8:	800a      	strh	r2, [r1, #0]
		if (cnt4 == 0) {
 8020aba:	4b04      	ldr	r3, [pc, #16]	; (8020acc <StartTask06+0x110>)
 8020abc:	881b      	ldrh	r3, [r3, #0]
 8020abe:	2b00      	cmp	r3, #0
 8020ac0:	d1a6      	bne.n	8020a10 <StartTask06+0x54>
			run_time();
 8020ac2:	f008 f947 	bl	8028d54 <run_time>
 8020ac6:	e7a3      	b.n	8020a10 <StartTask06+0x54>
 8020ac8:	2000e0b8 	.word	0x2000e0b8
 8020acc:	200001ea 	.word	0x200001ea
 8020ad0:	51eb851f 	.word	0x51eb851f
 8020ad4:	200001da 	.word	0x200001da
 8020ad8:	cccccccd 	.word	0xcccccccd
 8020adc:	200001de 	.word	0x200001de
 8020ae0:	200001e2 	.word	0x200001e2
 8020ae4:	aaaaaaab 	.word	0xaaaaaaab
 8020ae8:	200001e6 	.word	0x200001e6
 8020aec:	88888889 	.word	0x88888889

08020af0 <vApplicationIdleHook>:
}
 8020af0:	4770      	bx	lr

08020af2 <vApplicationTickHook>:
}
 8020af2:	4770      	bx	lr

08020af4 <vApplicationMallocFailedHook>:
}
 8020af4:	4770      	bx	lr

08020af6 <vApplicationDaemonTaskStartupHook>:
}
 8020af6:	4770      	bx	lr

08020af8 <MX_FREERTOS_Init>:
void MX_FREERTOS_Init(void) {
 8020af8:	b508      	push	{r3, lr}
  myMutex01Handle = osMutexNew(&myMutex01_attributes);
 8020afa:	483d      	ldr	r0, [pc, #244]	; (8020bf0 <MX_FREERTOS_Init+0xf8>)
 8020afc:	f004 fa24 	bl	8024f48 <osMutexNew>
 8020b00:	4b3c      	ldr	r3, [pc, #240]	; (8020bf4 <MX_FREERTOS_Init+0xfc>)
 8020b02:	6018      	str	r0, [r3, #0]
  myMutex02Handle = osMutexNew(&myMutex02_attributes);
 8020b04:	483c      	ldr	r0, [pc, #240]	; (8020bf8 <MX_FREERTOS_Init+0x100>)
 8020b06:	f004 fa1f 	bl	8024f48 <osMutexNew>
 8020b0a:	4b3c      	ldr	r3, [pc, #240]	; (8020bfc <MX_FREERTOS_Init+0x104>)
 8020b0c:	6018      	str	r0, [r3, #0]
  myBinarySem01Handle = osSemaphoreNew(1, 1, &myBinarySem01_attributes);
 8020b0e:	4a3c      	ldr	r2, [pc, #240]	; (8020c00 <MX_FREERTOS_Init+0x108>)
 8020b10:	2101      	movs	r1, #1
 8020b12:	4608      	mov	r0, r1
 8020b14:	f004 fab4 	bl	8025080 <osSemaphoreNew>
 8020b18:	4b3a      	ldr	r3, [pc, #232]	; (8020c04 <MX_FREERTOS_Init+0x10c>)
 8020b1a:	6018      	str	r0, [r3, #0]
  myBinarySem02Handle = osSemaphoreNew(1, 1, &myBinarySem02_attributes);
 8020b1c:	4a3a      	ldr	r2, [pc, #232]	; (8020c08 <MX_FREERTOS_Init+0x110>)
 8020b1e:	2101      	movs	r1, #1
 8020b20:	4608      	mov	r0, r1
 8020b22:	f004 faad 	bl	8025080 <osSemaphoreNew>
 8020b26:	4b39      	ldr	r3, [pc, #228]	; (8020c0c <MX_FREERTOS_Init+0x114>)
 8020b28:	6018      	str	r0, [r3, #0]
  myBinarySem03Handle = osSemaphoreNew(1, 1, &myBinarySem03_attributes);
 8020b2a:	4a39      	ldr	r2, [pc, #228]	; (8020c10 <MX_FREERTOS_Init+0x118>)
 8020b2c:	2101      	movs	r1, #1
 8020b2e:	4608      	mov	r0, r1
 8020b30:	f004 faa6 	bl	8025080 <osSemaphoreNew>
 8020b34:	4b37      	ldr	r3, [pc, #220]	; (8020c14 <MX_FREERTOS_Init+0x11c>)
 8020b36:	6018      	str	r0, [r3, #0]
  myBinarySem04Handle = osSemaphoreNew(1, 1, &myBinarySem04_attributes);
 8020b38:	4a37      	ldr	r2, [pc, #220]	; (8020c18 <MX_FREERTOS_Init+0x120>)
 8020b3a:	2101      	movs	r1, #1
 8020b3c:	4608      	mov	r0, r1
 8020b3e:	f004 fa9f 	bl	8025080 <osSemaphoreNew>
 8020b42:	4b36      	ldr	r3, [pc, #216]	; (8020c1c <MX_FREERTOS_Init+0x124>)
 8020b44:	6018      	str	r0, [r3, #0]
  myBinarySem05Handle = osSemaphoreNew(1, 1, &myBinarySem05_attributes);
 8020b46:	4a36      	ldr	r2, [pc, #216]	; (8020c20 <MX_FREERTOS_Init+0x128>)
 8020b48:	2101      	movs	r1, #1
 8020b4a:	4608      	mov	r0, r1
 8020b4c:	f004 fa98 	bl	8025080 <osSemaphoreNew>
 8020b50:	4b34      	ldr	r3, [pc, #208]	; (8020c24 <MX_FREERTOS_Init+0x12c>)
 8020b52:	6018      	str	r0, [r3, #0]
  myQueueUsart1Handle = osMessageQueueNew (4, sizeof(USART1_RECEIVETYPE), &myQueueUsart1_attributes);
 8020b54:	4a34      	ldr	r2, [pc, #208]	; (8020c28 <MX_FREERTOS_Init+0x130>)
 8020b56:	f44f 7181 	mov.w	r1, #258	; 0x102
 8020b5a:	2004      	movs	r0, #4
 8020b5c:	f004 fb1e 	bl	802519c <osMessageQueueNew>
 8020b60:	4b32      	ldr	r3, [pc, #200]	; (8020c2c <MX_FREERTOS_Init+0x134>)
 8020b62:	6018      	str	r0, [r3, #0]
  myQueueUsart3Handle = osMessageQueueNew (8, sizeof(USART3_RECEIVETYPE), &myQueueUsart3_attributes);
 8020b64:	4a32      	ldr	r2, [pc, #200]	; (8020c30 <MX_FREERTOS_Init+0x138>)
 8020b66:	f44f 7181 	mov.w	r1, #258	; 0x102
 8020b6a:	2008      	movs	r0, #8
 8020b6c:	f004 fb16 	bl	802519c <osMessageQueueNew>
 8020b70:	4b30      	ldr	r3, [pc, #192]	; (8020c34 <MX_FREERTOS_Init+0x13c>)
 8020b72:	6018      	str	r0, [r3, #0]
  myQueueUsart6Handle = osMessageQueueNew (4, sizeof(USART6_RECEIVETYPE), &myQueueUsart6_attributes);
 8020b74:	4a30      	ldr	r2, [pc, #192]	; (8020c38 <MX_FREERTOS_Init+0x140>)
 8020b76:	f44f 7181 	mov.w	r1, #258	; 0x102
 8020b7a:	2004      	movs	r0, #4
 8020b7c:	f004 fb0e 	bl	802519c <osMessageQueueNew>
 8020b80:	4b2e      	ldr	r3, [pc, #184]	; (8020c3c <MX_FREERTOS_Init+0x144>)
 8020b82:	6018      	str	r0, [r3, #0]
  defaultTaskHandle = osThreadNew(StartDefaultTask, NULL, &defaultTask_attributes);
 8020b84:	4a2e      	ldr	r2, [pc, #184]	; (8020c40 <MX_FREERTOS_Init+0x148>)
 8020b86:	2100      	movs	r1, #0
 8020b88:	482e      	ldr	r0, [pc, #184]	; (8020c44 <MX_FREERTOS_Init+0x14c>)
 8020b8a:	f004 f919 	bl	8024dc0 <osThreadNew>
 8020b8e:	4b2e      	ldr	r3, [pc, #184]	; (8020c48 <MX_FREERTOS_Init+0x150>)
 8020b90:	6018      	str	r0, [r3, #0]
  myTask02Handle = osThreadNew(StartTask02, NULL, &myTask02_attributes);
 8020b92:	4a2e      	ldr	r2, [pc, #184]	; (8020c4c <MX_FREERTOS_Init+0x154>)
 8020b94:	2100      	movs	r1, #0
 8020b96:	482e      	ldr	r0, [pc, #184]	; (8020c50 <MX_FREERTOS_Init+0x158>)
 8020b98:	f004 f912 	bl	8024dc0 <osThreadNew>
 8020b9c:	4b2d      	ldr	r3, [pc, #180]	; (8020c54 <MX_FREERTOS_Init+0x15c>)
 8020b9e:	6018      	str	r0, [r3, #0]
  myTask03Handle = osThreadNew(StartTask03, NULL, &myTask03_attributes);
 8020ba0:	4a2d      	ldr	r2, [pc, #180]	; (8020c58 <MX_FREERTOS_Init+0x160>)
 8020ba2:	2100      	movs	r1, #0
 8020ba4:	482d      	ldr	r0, [pc, #180]	; (8020c5c <MX_FREERTOS_Init+0x164>)
 8020ba6:	f004 f90b 	bl	8024dc0 <osThreadNew>
 8020baa:	4b2d      	ldr	r3, [pc, #180]	; (8020c60 <MX_FREERTOS_Init+0x168>)
 8020bac:	6018      	str	r0, [r3, #0]
  myTask04Handle = osThreadNew(StartTask04, NULL, &myTask04_attributes);
 8020bae:	4a2d      	ldr	r2, [pc, #180]	; (8020c64 <MX_FREERTOS_Init+0x16c>)
 8020bb0:	2100      	movs	r1, #0
 8020bb2:	482d      	ldr	r0, [pc, #180]	; (8020c68 <MX_FREERTOS_Init+0x170>)
 8020bb4:	f004 f904 	bl	8024dc0 <osThreadNew>
 8020bb8:	4b2c      	ldr	r3, [pc, #176]	; (8020c6c <MX_FREERTOS_Init+0x174>)
 8020bba:	6018      	str	r0, [r3, #0]
  myTask05Handle = osThreadNew(StartTask05, NULL, &myTask05_attributes);
 8020bbc:	4a2c      	ldr	r2, [pc, #176]	; (8020c70 <MX_FREERTOS_Init+0x178>)
 8020bbe:	2100      	movs	r1, #0
 8020bc0:	482c      	ldr	r0, [pc, #176]	; (8020c74 <MX_FREERTOS_Init+0x17c>)
 8020bc2:	f004 f8fd 	bl	8024dc0 <osThreadNew>
 8020bc6:	4b2c      	ldr	r3, [pc, #176]	; (8020c78 <MX_FREERTOS_Init+0x180>)
 8020bc8:	6018      	str	r0, [r3, #0]
  myTask06Handle = osThreadNew(StartTask06, NULL, &myTask06_attributes);
 8020bca:	4a2c      	ldr	r2, [pc, #176]	; (8020c7c <MX_FREERTOS_Init+0x184>)
 8020bcc:	2100      	movs	r1, #0
 8020bce:	482c      	ldr	r0, [pc, #176]	; (8020c80 <MX_FREERTOS_Init+0x188>)
 8020bd0:	f004 f8f6 	bl	8024dc0 <osThreadNew>
 8020bd4:	4b2b      	ldr	r3, [pc, #172]	; (8020c84 <MX_FREERTOS_Init+0x18c>)
 8020bd6:	6018      	str	r0, [r3, #0]
  myEvent01Handle = osEventFlagsNew(&myEvent01_attributes);
 8020bd8:	482b      	ldr	r0, [pc, #172]	; (8020c88 <MX_FREERTOS_Init+0x190>)
 8020bda:	f004 f993 	bl	8024f04 <osEventFlagsNew>
 8020bde:	4b2b      	ldr	r3, [pc, #172]	; (8020c8c <MX_FREERTOS_Init+0x194>)
 8020be0:	6018      	str	r0, [r3, #0]
  myEvent02Handle = osEventFlagsNew(&myEvent02_attributes);
 8020be2:	482b      	ldr	r0, [pc, #172]	; (8020c90 <MX_FREERTOS_Init+0x198>)
 8020be4:	f004 f98e 	bl	8024f04 <osEventFlagsNew>
 8020be8:	4b2a      	ldr	r3, [pc, #168]	; (8020c94 <MX_FREERTOS_Init+0x19c>)
 8020bea:	6018      	str	r0, [r3, #0]
}
 8020bec:	bd08      	pop	{r3, pc}
 8020bee:	bf00      	nop
 8020bf0:	0802e498 	.word	0x0802e498
 8020bf4:	2000d180 	.word	0x2000d180
 8020bf8:	0802e4a8 	.word	0x0802e4a8
 8020bfc:	2000d184 	.word	0x2000d184
 8020c00:	0802e428 	.word	0x0802e428
 8020c04:	2000d170 	.word	0x2000d170
 8020c08:	0802e438 	.word	0x0802e438
 8020c0c:	2000d168 	.word	0x2000d168
 8020c10:	0802e448 	.word	0x0802e448
 8020c14:	2000d148 	.word	0x2000d148
 8020c18:	0802e458 	.word	0x0802e458
 8020c1c:	2000d190 	.word	0x2000d190
 8020c20:	0802e468 	.word	0x0802e468
 8020c24:	2000d138 	.word	0x2000d138
 8020c28:	0802e4b8 	.word	0x0802e4b8
 8020c2c:	2000d178 	.word	0x2000d178
 8020c30:	0802e4d0 	.word	0x0802e4d0
 8020c34:	2000d188 	.word	0x2000d188
 8020c38:	0802e4e8 	.word	0x0802e4e8
 8020c3c:	2000d17c 	.word	0x2000d17c
 8020c40:	0802e404 	.word	0x0802e404
 8020c44:	080206f1 	.word	0x080206f1
 8020c48:	2000d134 	.word	0x2000d134
 8020c4c:	0802e500 	.word	0x0802e500
 8020c50:	08020891 	.word	0x08020891
 8020c54:	2000d16c 	.word	0x2000d16c
 8020c58:	0802e524 	.word	0x0802e524
 8020c5c:	08020955 	.word	0x08020955
 8020c60:	2000d174 	.word	0x2000d174
 8020c64:	0802e548 	.word	0x0802e548
 8020c68:	08020971 	.word	0x08020971
 8020c6c:	2000d144 	.word	0x2000d144
 8020c70:	0802e56c 	.word	0x0802e56c
 8020c74:	080209a1 	.word	0x080209a1
 8020c78:	2000d140 	.word	0x2000d140
 8020c7c:	0802e590 	.word	0x0802e590
 8020c80:	080209bd 	.word	0x080209bd
 8020c84:	2000d18c 	.word	0x2000d18c
 8020c88:	0802e478 	.word	0x0802e478
 8020c8c:	2000d13c 	.word	0x2000d13c
 8020c90:	0802e488 	.word	0x0802e488
 8020c94:	2000d164 	.word	0x2000d164

08020c98 <MX_GPIO_Init>:
        * EXTI
        * Free pins are configured automatically as Analog (this feature is enabled through
        * the Code Generation settings)
*/
void MX_GPIO_Init(void)
{
 8020c98:	e92d 41f0 	stmdb	sp!, {r4, r5, r6, r7, r8, lr}
 8020c9c:	b08a      	sub	sp, #40	; 0x28

  GPIO_InitTypeDef GPIO_InitStruct = {0};
 8020c9e:	2400      	movs	r4, #0
 8020ca0:	9405      	str	r4, [sp, #20]
 8020ca2:	9406      	str	r4, [sp, #24]
 8020ca4:	9407      	str	r4, [sp, #28]
 8020ca6:	9408      	str	r4, [sp, #32]
 8020ca8:	9409      	str	r4, [sp, #36]	; 0x24

  /* GPIO Ports Clock Enable */
  __HAL_RCC_GPIOC_CLK_ENABLE();
 8020caa:	9400      	str	r4, [sp, #0]
 8020cac:	4b46      	ldr	r3, [pc, #280]	; (8020dc8 <MX_GPIO_Init+0x130>)
 8020cae:	6b1a      	ldr	r2, [r3, #48]	; 0x30
 8020cb0:	f042 0204 	orr.w	r2, r2, #4
 8020cb4:	631a      	str	r2, [r3, #48]	; 0x30
 8020cb6:	6b1a      	ldr	r2, [r3, #48]	; 0x30
 8020cb8:	f002 0204 	and.w	r2, r2, #4
 8020cbc:	9200      	str	r2, [sp, #0]
 8020cbe:	9a00      	ldr	r2, [sp, #0]
  __HAL_RCC_GPIOH_CLK_ENABLE();
 8020cc0:	9401      	str	r4, [sp, #4]
 8020cc2:	6b1a      	ldr	r2, [r3, #48]	; 0x30
 8020cc4:	f042 0280 	orr.w	r2, r2, #128	; 0x80
 8020cc8:	631a      	str	r2, [r3, #48]	; 0x30
 8020cca:	6b1a      	ldr	r2, [r3, #48]	; 0x30
 8020ccc:	f002 0280 	and.w	r2, r2, #128	; 0x80
 8020cd0:	9201      	str	r2, [sp, #4]
 8020cd2:	9a01      	ldr	r2, [sp, #4]
  __HAL_RCC_GPIOA_CLK_ENABLE();
 8020cd4:	9402      	str	r4, [sp, #8]
 8020cd6:	6b1a      	ldr	r2, [r3, #48]	; 0x30
 8020cd8:	f042 0201 	orr.w	r2, r2, #1
 8020cdc:	631a      	str	r2, [r3, #48]	; 0x30
 8020cde:	6b1a      	ldr	r2, [r3, #48]	; 0x30
 8020ce0:	f002 0201 	and.w	r2, r2, #1
 8020ce4:	9202      	str	r2, [sp, #8]
 8020ce6:	9a02      	ldr	r2, [sp, #8]
  __HAL_RCC_GPIOB_CLK_ENABLE();
 8020ce8:	9403      	str	r4, [sp, #12]
 8020cea:	6b1a      	ldr	r2, [r3, #48]	; 0x30
 8020cec:	f042 0202 	orr.w	r2, r2, #2
 8020cf0:	631a      	str	r2, [r3, #48]	; 0x30
 8020cf2:	6b1a      	ldr	r2, [r3, #48]	; 0x30
 8020cf4:	f002 0202 	and.w	r2, r2, #2
 8020cf8:	9203      	str	r2, [sp, #12]
 8020cfa:	9a03      	ldr	r2, [sp, #12]
  __HAL_RCC_GPIOD_CLK_ENABLE();
 8020cfc:	9404      	str	r4, [sp, #16]
 8020cfe:	6b1a      	ldr	r2, [r3, #48]	; 0x30
 8020d00:	f042 0208 	orr.w	r2, r2, #8
 8020d04:	631a      	str	r2, [r3, #48]	; 0x30
 8020d06:	6b1b      	ldr	r3, [r3, #48]	; 0x30
 8020d08:	f003 0308 	and.w	r3, r3, #8
 8020d0c:	9304      	str	r3, [sp, #16]
 8020d0e:	9b04      	ldr	r3, [sp, #16]

  /*Configure GPIO pin Output Level */
  HAL_GPIO_WritePin(GPIOC, KA10_OILPUMP_Pin|KA11_BAGFORWARD_Pin|KA12_BAGREVERSE_Pin|KA1_Pin
 8020d10:	4e2e      	ldr	r6, [pc, #184]	; (8020dcc <MX_GPIO_Init+0x134>)
 8020d12:	4622      	mov	r2, r4
 8020d14:	f24e 011f 	movw	r1, #57375	; 0xe01f
 8020d18:	4630      	mov	r0, r6
 8020d1a:	f001 fd83 	bl	8022824 <HAL_GPIO_WritePin>
                          |KA2_Pin|KA3_Pin|KA4_Pin|BELL_Pin, GPIO_PIN_RESET);

  /*Configure GPIO pin Output Level */
  HAL_GPIO_WritePin(GPIOA, KA5_Pin|KA6_Pin|KA7_Pin|KA8_Pin
 8020d1e:	4d2c      	ldr	r5, [pc, #176]	; (8020dd0 <MX_GPIO_Init+0x138>)
 8020d20:	4622      	mov	r2, r4
 8020d22:	21ff      	movs	r1, #255	; 0xff
 8020d24:	4628      	mov	r0, r5
 8020d26:	f001 fd7d 	bl	8022824 <HAL_GPIO_WritePin>
                          |KA9_Pin|KA_BK1_Pin|KA_BK2_Pin|KA_BK3_Pin, GPIO_PIN_RESET);

  /*Configure GPIO pin Output Level */
  HAL_GPIO_WritePin(GPIOB, LED_RED_Pin|LED_GREEN_Pin|LED_YELLOW_Pin|RS485_RW6_Pin, GPIO_PIN_RESET);
 8020d2a:	4f2a      	ldr	r7, [pc, #168]	; (8020dd4 <MX_GPIO_Init+0x13c>)
 8020d2c:	4622      	mov	r2, r4
 8020d2e:	f248 0107 	movw	r1, #32775	; 0x8007
 8020d32:	4638      	mov	r0, r7
 8020d34:	f001 fd76 	bl	8022824 <HAL_GPIO_WritePin>

  /*Configure GPIO pins : PCPin PCPin PCPin PCPin
                           PCPin PCPin PCPin PCPin */
  GPIO_InitStruct.Pin = KA10_OILPUMP_Pin|KA11_BAGFORWARD_Pin|KA12_BAGREVERSE_Pin|KA1_Pin
 8020d38:	f24e 031f 	movw	r3, #57375	; 0xe01f
 8020d3c:	9305      	str	r3, [sp, #20]
                          |KA2_Pin|KA3_Pin|KA4_Pin|BELL_Pin;
  GPIO_InitStruct.Mode = GPIO_MODE_OUTPUT_PP;
 8020d3e:	f04f 0801 	mov.w	r8, #1
 8020d42:	f8cd 8018 	str.w	r8, [sp, #24]
  GPIO_InitStruct.Pull = GPIO_NOPULL;
 8020d46:	9407      	str	r4, [sp, #28]
  GPIO_InitStruct.Speed = GPIO_SPEED_FREQ_LOW;
 8020d48:	9408      	str	r4, [sp, #32]
  HAL_GPIO_Init(GPIOC, &GPIO_InitStruct);
 8020d4a:	a905      	add	r1, sp, #20
 8020d4c:	4630      	mov	r0, r6
 8020d4e:	f001 fc1f 	bl	8022590 <HAL_GPIO_Init>

  /*Configure GPIO pins : PAPin PAPin PAPin PAPin
                           PAPin PAPin PAPin PAPin */
  GPIO_InitStruct.Pin = KA5_Pin|KA6_Pin|KA7_Pin|KA8_Pin
 8020d52:	23ff      	movs	r3, #255	; 0xff
 8020d54:	9305      	str	r3, [sp, #20]
                          |KA9_Pin|KA_BK1_Pin|KA_BK2_Pin|KA_BK3_Pin;
  GPIO_InitStruct.Mode = GPIO_MODE_OUTPUT_PP;
 8020d56:	f8cd 8018 	str.w	r8, [sp, #24]
  GPIO_InitStruct.Pull = GPIO_NOPULL;
 8020d5a:	9407      	str	r4, [sp, #28]
  GPIO_InitStruct.Speed = GPIO_SPEED_FREQ_LOW;
 8020d5c:	9408      	str	r4, [sp, #32]
  HAL_GPIO_Init(GPIOA, &GPIO_InitStruct);
 8020d5e:	a905      	add	r1, sp, #20
 8020d60:	4628      	mov	r0, r5
 8020d62:	f001 fc15 	bl	8022590 <HAL_GPIO_Init>

  /*Configure GPIO pins : PBPin PBPin PBPin PBPin */
  GPIO_InitStruct.Pin = LED_RED_Pin|LED_GREEN_Pin|LED_YELLOW_Pin|RS485_RW6_Pin;
 8020d66:	f248 0307 	movw	r3, #32775	; 0x8007
 8020d6a:	9305      	str	r3, [sp, #20]
  GPIO_InitStruct.Mode = GPIO_MODE_OUTPUT_PP;
 8020d6c:	f8cd 8018 	str.w	r8, [sp, #24]
  GPIO_InitStruct.Pull = GPIO_NOPULL;
 8020d70:	9407      	str	r4, [sp, #28]
  GPIO_InitStruct.Speed = GPIO_SPEED_FREQ_LOW;
 8020d72:	9408      	str	r4, [sp, #32]
  HAL_GPIO_Init(GPIOB, &GPIO_InitStruct);
 8020d74:	a905      	add	r1, sp, #20
 8020d76:	4638      	mov	r0, r7
 8020d78:	f001 fc0a 	bl	8022590 <HAL_GPIO_Init>

  /*Configure GPIO pins : PBPin PBPin PBPin PBPin
                           PBPin PBPin PBPin PBPin
                           PBPin PBPin */
  GPIO_InitStruct.Pin = D_BK2_Pin|D_BK1_Pin|D_CATCHBAG_DOWN_Pin|I_MOTOROVERLOAD_Pin
 8020d7c:	f247 33f8 	movw	r3, #29688	; 0x73f8
 8020d80:	9305      	str	r3, [sp, #20]
                          |I_OILPUMPOVERLOAD_Pin|K_AUTO_Pin|K_HAND_Pin|K_STOP_Pin
                          |K_AUTORUN_Pin|K_EMERGENCY_Pin;
  GPIO_InitStruct.Mode = GPIO_MODE_INPUT;
 8020d82:	9406      	str	r4, [sp, #24]
  GPIO_InitStruct.Pull = GPIO_NOPULL;
 8020d84:	9407      	str	r4, [sp, #28]
  HAL_GPIO_Init(GPIOB, &GPIO_InitStruct);
 8020d86:	a905      	add	r1, sp, #20
 8020d88:	4638      	mov	r0, r7
 8020d8a:	f001 fc01 	bl	8022590 <HAL_GPIO_Init>

  /*Configure GPIO pins : PCPin PCPin PCPin PCPin
                           PCPin */
  GPIO_InitStruct.Pin = D_CATCHBAG_UP_Pin|D_PUSHBAG_RIGHT_Pin|D_PRESSHEAD_UP_Pin|D_TURNBAG_DOWN_Pin
 8020d8e:	f44f 53f8 	mov.w	r3, #7936	; 0x1f00
 8020d92:	9305      	str	r3, [sp, #20]
                          |D_TURNBAG_UP_Pin;
  GPIO_InitStruct.Mode = GPIO_MODE_INPUT;
 8020d94:	9406      	str	r4, [sp, #24]
  GPIO_InitStruct.Pull = GPIO_NOPULL;
 8020d96:	9407      	str	r4, [sp, #28]
  HAL_GPIO_Init(GPIOC, &GPIO_InitStruct);
 8020d98:	a905      	add	r1, sp, #20
 8020d9a:	4630      	mov	r0, r6
 8020d9c:	f001 fbf8 	bl	8022590 <HAL_GPIO_Init>

  /*Configure GPIO pins : PAPin PAPin PAPin PAPin */
  GPIO_InitStruct.Pin = D_PUSHBAG_LEFT_Pin|D_BOARD_DOWN_Pin|D_BOARD_UP_Pin|D_PRESSHEAD_DOWN_Pin;
 8020da0:	f44f 4319 	mov.w	r3, #39168	; 0x9900
 8020da4:	9305      	str	r3, [sp, #20]
  GPIO_InitStruct.Mode = GPIO_MODE_INPUT;
 8020da6:	9406      	str	r4, [sp, #24]
  GPIO_InitStruct.Pull = GPIO_NOPULL;
 8020da8:	9407      	str	r4, [sp, #28]
  HAL_GPIO_Init(GPIOA, &GPIO_InitStruct);
 8020daa:	a905      	add	r1, sp, #20
 8020dac:	4628      	mov	r0, r5
 8020dae:	f001 fbef 	bl	8022590 <HAL_GPIO_Init>

  /*Configure GPIO pin : PtPin */
  GPIO_InitStruct.Pin = I_PHASEERROR_Pin;
 8020db2:	2304      	movs	r3, #4
 8020db4:	9305      	str	r3, [sp, #20]
  GPIO_InitStruct.Mode = GPIO_MODE_INPUT;
 8020db6:	9406      	str	r4, [sp, #24]
  GPIO_InitStruct.Pull = GPIO_NOPULL;
 8020db8:	9407      	str	r4, [sp, #28]
  HAL_GPIO_Init(I_PHASEERROR_GPIO_Port, &GPIO_InitStruct);
 8020dba:	a905      	add	r1, sp, #20
 8020dbc:	4806      	ldr	r0, [pc, #24]	; (8020dd8 <MX_GPIO_Init+0x140>)
 8020dbe:	f001 fbe7 	bl	8022590 <HAL_GPIO_Init>

}
 8020dc2:	b00a      	add	sp, #40	; 0x28
 8020dc4:	e8bd 81f0 	ldmia.w	sp!, {r4, r5, r6, r7, r8, pc}
 8020dc8:	40023800 	.word	0x40023800
 8020dcc:	40020800 	.word	0x40020800
 8020dd0:	40020000 	.word	0x40020000
 8020dd4:	40020400 	.word	0x40020400
 8020dd8:	40020c00 	.word	0x40020c00

08020ddc <MX_IWDG_Init>:

IWDG_HandleTypeDef hiwdg;

/* IWDG init function */
void MX_IWDG_Init(void)
{
 8020ddc:	b508      	push	{r3, lr}
  /* USER CODE END IWDG_Init 0 */

  /* USER CODE BEGIN IWDG_Init 1 */

  /* USER CODE END IWDG_Init 1 */
  hiwdg.Instance = IWDG;
 8020dde:	4807      	ldr	r0, [pc, #28]	; (8020dfc <MX_IWDG_Init+0x20>)
 8020de0:	4b07      	ldr	r3, [pc, #28]	; (8020e00 <MX_IWDG_Init+0x24>)
 8020de2:	6003      	str	r3, [r0, #0]
  hiwdg.Init.Prescaler = IWDG_PRESCALER_128;
 8020de4:	2305      	movs	r3, #5
 8020de6:	6043      	str	r3, [r0, #4]
  hiwdg.Init.Reload = 4095;
 8020de8:	f640 73ff 	movw	r3, #4095	; 0xfff
 8020dec:	6083      	str	r3, [r0, #8]
  if (HAL_IWDG_Init(&hiwdg) != HAL_OK)
 8020dee:	f001 fd4b 	bl	8022888 <HAL_IWDG_Init>
 8020df2:	b900      	cbnz	r0, 8020df6 <MX_IWDG_Init+0x1a>
  }
  /* USER CODE BEGIN IWDG_Init 2 */

  /* USER CODE END IWDG_Init 2 */

}
 8020df4:	bd08      	pop	{r3, pc}
    Error_Handler();
 8020df6:	f000 f80f 	bl	8020e18 <Error_Handler>
}
 8020dfa:	e7fb      	b.n	8020df4 <MX_IWDG_Init+0x18>
 8020dfc:	2000d194 	.word	0x2000d194
 8020e00:	40003000 	.word	0x40003000

08020e04 <HAL_TIM_PeriodElapsedCallback>:
  * a global variable "uwTick" used as application time base.
  * @param  htim : TIM handle
  * @retval None
  */
void HAL_TIM_PeriodElapsedCallback(TIM_HandleTypeDef *htim)
{
 8020e04:	b508      	push	{r3, lr}
  /* USER CODE BEGIN Callback 0 */

  /* USER CODE END Callback 0 */
  if (htim->Instance == TIM2) {
 8020e06:	6803      	ldr	r3, [r0, #0]
 8020e08:	f1b3 4f80 	cmp.w	r3, #1073741824	; 0x40000000
 8020e0c:	d000      	beq.n	8020e10 <HAL_TIM_PeriodElapsedCallback+0xc>
    HAL_IncTick();
  }
  /* USER CODE BEGIN Callback 1 */

  /* USER CODE END Callback 1 */
}
 8020e0e:	bd08      	pop	{r3, pc}
    HAL_IncTick();
 8020e10:	f000 fd56 	bl	80218c0 <HAL_IncTick>
}
 8020e14:	e7fb      	b.n	8020e0e <HAL_TIM_PeriodElapsedCallback+0xa>
	...

08020e18 <Error_Handler>:
/**
  * @brief  This function is executed in case of error occurrence.
  * @retval None
  */
void Error_Handler(void)
{
 8020e18:	b508      	push	{r3, lr}
  \details Disables IRQ interrupts by setting the I-bit in the CPSR.
           Can only be executed in Privileged modes.
 */
__STATIC_FORCEINLINE void __disable_irq(void)
{
  __ASM volatile ("cpsid i" : : : "memory");
 8020e1a:	b672      	cpsid	i
  /* USER CODE BEGIN Error_Handler_Debug */
	/* User can add his own implementation to report the HAL error return state */
	__disable_irq();
	while (1) {
		DEBUG_L("Error_Handler\r\n");
 8020e1c:	4801      	ldr	r0, [pc, #4]	; (8020e24 <Error_Handler+0xc>)
 8020e1e:	f00c fa27 	bl	802d270 <debug_printf>
	while (1) {
 8020e22:	e7fb      	b.n	8020e1c <Error_Handler+0x4>
 8020e24:	0802e5b4 	.word	0x0802e5b4

08020e28 <SystemClock_Config>:
{
 8020e28:	b500      	push	{lr}
 8020e2a:	b095      	sub	sp, #84	; 0x54
  RCC_OscInitTypeDef RCC_OscInitStruct = {0};
 8020e2c:	2234      	movs	r2, #52	; 0x34
 8020e2e:	2100      	movs	r1, #0
 8020e30:	a807      	add	r0, sp, #28
 8020e32:	f00c fdcf 	bl	802d9d4 <memset>
  RCC_ClkInitTypeDef RCC_ClkInitStruct = {0};
 8020e36:	2300      	movs	r3, #0
 8020e38:	9302      	str	r3, [sp, #8]
 8020e3a:	9303      	str	r3, [sp, #12]
 8020e3c:	9304      	str	r3, [sp, #16]
 8020e3e:	9305      	str	r3, [sp, #20]
 8020e40:	9306      	str	r3, [sp, #24]
  __HAL_RCC_PWR_CLK_ENABLE();
 8020e42:	9300      	str	r3, [sp, #0]
 8020e44:	4a20      	ldr	r2, [pc, #128]	; (8020ec8 <SystemClock_Config+0xa0>)
 8020e46:	6c11      	ldr	r1, [r2, #64]	; 0x40
 8020e48:	f041 5180 	orr.w	r1, r1, #268435456	; 0x10000000
 8020e4c:	6411      	str	r1, [r2, #64]	; 0x40
 8020e4e:	6c12      	ldr	r2, [r2, #64]	; 0x40
 8020e50:	f002 5280 	and.w	r2, r2, #268435456	; 0x10000000
 8020e54:	9200      	str	r2, [sp, #0]
 8020e56:	9a00      	ldr	r2, [sp, #0]
  __HAL_PWR_VOLTAGESCALING_CONFIG(PWR_REGULATOR_VOLTAGE_SCALE1);
 8020e58:	9301      	str	r3, [sp, #4]
 8020e5a:	4b1c      	ldr	r3, [pc, #112]	; (8020ecc <SystemClock_Config+0xa4>)
 8020e5c:	681a      	ldr	r2, [r3, #0]
 8020e5e:	f442 4240 	orr.w	r2, r2, #49152	; 0xc000
 8020e62:	601a      	str	r2, [r3, #0]
 8020e64:	681b      	ldr	r3, [r3, #0]
 8020e66:	f403 4340 	and.w	r3, r3, #49152	; 0xc000
 8020e6a:	9301      	str	r3, [sp, #4]
 8020e6c:	9b01      	ldr	r3, [sp, #4]
  RCC_OscInitStruct.OscillatorType = RCC_OSCILLATORTYPE_LSI|RCC_OSCILLATORTYPE_HSE;
 8020e6e:	2309      	movs	r3, #9
 8020e70:	9307      	str	r3, [sp, #28]
  RCC_OscInitStruct.HSEState = RCC_HSE_ON;
 8020e72:	f44f 3380 	mov.w	r3, #65536	; 0x10000
 8020e76:	9308      	str	r3, [sp, #32]
  RCC_OscInitStruct.LSIState = RCC_LSI_ON;
 8020e78:	2301      	movs	r3, #1
 8020e7a:	930c      	str	r3, [sp, #48]	; 0x30
  RCC_OscInitStruct.PLL.PLLState = RCC_PLL_ON;
 8020e7c:	2302      	movs	r3, #2
 8020e7e:	930d      	str	r3, [sp, #52]	; 0x34
  RCC_OscInitStruct.PLL.PLLSource = RCC_PLLSOURCE_HSE;
 8020e80:	f44f 0280 	mov.w	r2, #4194304	; 0x400000
 8020e84:	920e      	str	r2, [sp, #56]	; 0x38
  RCC_OscInitStruct.PLL.PLLM = 4;
 8020e86:	2204      	movs	r2, #4
 8020e88:	920f      	str	r2, [sp, #60]	; 0x3c
  RCC_OscInitStruct.PLL.PLLN = 100;
 8020e8a:	2264      	movs	r2, #100	; 0x64
 8020e8c:	9210      	str	r2, [sp, #64]	; 0x40
  RCC_OscInitStruct.PLL.PLLP = RCC_PLLP_DIV2;
 8020e8e:	9311      	str	r3, [sp, #68]	; 0x44
  RCC_OscInitStruct.PLL.PLLQ = 2;
 8020e90:	9312      	str	r3, [sp, #72]	; 0x48
  RCC_OscInitStruct.PLL.PLLR = 2;
 8020e92:	9313      	str	r3, [sp, #76]	; 0x4c
  if (HAL_RCC_OscConfig(&RCC_OscInitStruct) != HAL_OK)
 8020e94:	a807      	add	r0, sp, #28
 8020e96:	f002 f99f 	bl	80231d8 <HAL_RCC_OscConfig>
 8020e9a:	b988      	cbnz	r0, 8020ec0 <SystemClock_Config+0x98>
  RCC_ClkInitStruct.ClockType = RCC_CLOCKTYPE_HCLK|RCC_CLOCKTYPE_SYSCLK
 8020e9c:	230f      	movs	r3, #15
 8020e9e:	9302      	str	r3, [sp, #8]
  RCC_ClkInitStruct.SYSCLKSource = RCC_SYSCLKSOURCE_PLLCLK;
 8020ea0:	2302      	movs	r3, #2
 8020ea2:	9303      	str	r3, [sp, #12]
  RCC_ClkInitStruct.AHBCLKDivider = RCC_SYSCLK_DIV1;
 8020ea4:	2300      	movs	r3, #0
 8020ea6:	9304      	str	r3, [sp, #16]
  RCC_ClkInitStruct.APB1CLKDivider = RCC_HCLK_DIV2;
 8020ea8:	f44f 5280 	mov.w	r2, #4096	; 0x1000
 8020eac:	9205      	str	r2, [sp, #20]
  RCC_ClkInitStruct.APB2CLKDivider = RCC_HCLK_DIV1;
 8020eae:	9306      	str	r3, [sp, #24]
  if (HAL_RCC_ClockConfig(&RCC_ClkInitStruct, FLASH_LATENCY_3) != HAL_OK)
 8020eb0:	2103      	movs	r1, #3
 8020eb2:	a802      	add	r0, sp, #8
 8020eb4:	f001 fd9e 	bl	80229f4 <HAL_RCC_ClockConfig>
 8020eb8:	b920      	cbnz	r0, 8020ec4 <SystemClock_Config+0x9c>
}
 8020eba:	b015      	add	sp, #84	; 0x54
 8020ebc:	f85d fb04 	ldr.w	pc, [sp], #4
    Error_Handler();
 8020ec0:	f7ff ffaa 	bl	8020e18 <Error_Handler>
    Error_Handler();
 8020ec4:	f7ff ffa8 	bl	8020e18 <Error_Handler>
 8020ec8:	40023800 	.word	0x40023800
 8020ecc:	40007000 	.word	0x40007000

08020ed0 <main>:
{
 8020ed0:	b508      	push	{r3, lr}
	SCB->VTOR = FLASH_BASE | APPLICATION_ADDRESS;
 8020ed2:	4b1f      	ldr	r3, [pc, #124]	; (8020f50 <main+0x80>)
 8020ed4:	4a1f      	ldr	r2, [pc, #124]	; (8020f54 <main+0x84>)
 8020ed6:	609a      	str	r2, [r3, #8]
  __ASM volatile ("cpsie i" : : : "memory");
 8020ed8:	b662      	cpsie	i
  HAL_Init();
 8020eda:	f000 fcd7 	bl	802188c <HAL_Init>
  SystemClock_Config();
 8020ede:	f7ff ffa3 	bl	8020e28 <SystemClock_Config>
  MX_GPIO_Init();
 8020ee2:	f7ff fed9 	bl	8020c98 <MX_GPIO_Init>
  MX_DMA_Init();
 8020ee6:	f7ff fbb7 	bl	8020658 <MX_DMA_Init>
  MX_RTC_Init();
 8020eea:	f000 f83d 	bl	8020f68 <MX_RTC_Init>
  MX_TIM6_Init();
 8020eee:	f000 f9cf 	bl	8021290 <MX_TIM6_Init>
  MX_TIM7_Init();
 8020ef2:	f000 f9f5 	bl	80212e0 <MX_TIM7_Init>
  MX_USART1_UART_Init();
 8020ef6:	f000 fa71 	bl	80213dc <MX_USART1_UART_Init>
  MX_USART3_UART_Init();
 8020efa:	f000 fa89 	bl	8021410 <MX_USART3_UART_Init>
  MX_USART6_UART_Init();
 8020efe:	f000 faa1 	bl	8021444 <MX_USART6_UART_Init>
  MX_IWDG_Init();
 8020f02:	f7ff ff6b 	bl	8020ddc <MX_IWDG_Init>
  MX_TIM10_Init();
 8020f06:	f000 fa03 	bl	8021310 <MX_TIM10_Init>
	Usart_DamIdle();
 8020f0a:	f007 f8ad 	bl	8028068 <Usart_DamIdle>
	HAL_FLASH_Unlock();
 8020f0e:	f001 f9bb 	bl	8022288 <HAL_FLASH_Unlock>
	EE_Init();
 8020f12:	f008 f85b 	bl	8028fcc <EE_Init>
	sysguard_ini();
 8020f16:	f00c fcb5 	bl	802d884 <sysguard_ini>
	screen_ini();
 8020f1a:	f008 fa07 	bl	802932c <screen_ini>
	input_initial();
 8020f1e:	f006 fde9 	bl	8027af4 <input_initial>
	HAL_TIM_Base_Start_IT(&htim6);
 8020f22:	480d      	ldr	r0, [pc, #52]	; (8020f58 <main+0x88>)
 8020f24:	f002 fee4 	bl	8023cf0 <HAL_TIM_Base_Start_IT>
	softTimer_Init();
 8020f28:	f00c fbee 	bl	802d708 <softTimer_Init>
	DEBUG_L("*****************************************\r\n");
 8020f2c:	4c0b      	ldr	r4, [pc, #44]	; (8020f5c <main+0x8c>)
 8020f2e:	4620      	mov	r0, r4
 8020f30:	f00c f99e 	bl	802d270 <debug_printf>
	DEBUG_L("**  APP FOR PACKAGE! VER:2.1 23/10/08    \r\n");
 8020f34:	480a      	ldr	r0, [pc, #40]	; (8020f60 <main+0x90>)
 8020f36:	f00c f99b 	bl	802d270 <debug_printf>
	DEBUG_L("*****************************************\r\n");
 8020f3a:	4620      	mov	r0, r4
 8020f3c:	f00c f998 	bl	802d270 <debug_printf>
  osKernelInitialize();  /* Call init function for freertos objects (in freertos.c) */
 8020f40:	f003 ff10 	bl	8024d64 <osKernelInitialize>
  MX_FREERTOS_Init();
 8020f44:	f7ff fdd8 	bl	8020af8 <MX_FREERTOS_Init>
  osKernelStart();
 8020f48:	f003 ff1e 	bl	8024d88 <osKernelStart>
	while (1) {
 8020f4c:	e7fe      	b.n	8020f4c <main+0x7c>
 8020f4e:	bf00      	nop
 8020f50:	e000ed00 	.word	0xe000ed00
 8020f54:	08020000 	.word	0x08020000
 8020f58:	2000d250 	.word	0x2000d250
 8020f5c:	0802e5c4 	.word	0x0802e5c4
 8020f60:	0802e5f0 	.word	0x0802e5f0

08020f64 <assert_failed>:
{
  /* USER CODE BEGIN 6 */
	/* User can add his own implementation to report the file name and line number,
	 ex: printf("Wrong parameters value: file %s on line %d\r\n", file, line) */
  /* USER CODE END 6 */
}
 8020f64:	4770      	bx	lr
	...

08020f68 <MX_RTC_Init>:

RTC_HandleTypeDef hrtc;

/* RTC init function */
void MX_RTC_Init(void)
{
 8020f68:	b500      	push	{lr}
 8020f6a:	b087      	sub	sp, #28

  /* USER CODE BEGIN RTC_Init 0 */

  /* USER CODE END RTC_Init 0 */

  RTC_TimeTypeDef sTime = {0};
 8020f6c:	2300      	movs	r3, #0
 8020f6e:	9301      	str	r3, [sp, #4]
 8020f70:	9302      	str	r3, [sp, #8]
 8020f72:	9303      	str	r3, [sp, #12]
 8020f74:	9304      	str	r3, [sp, #16]
 8020f76:	9305      	str	r3, [sp, #20]
  RTC_DateTypeDef sDate = {0};
 8020f78:	9300      	str	r3, [sp, #0]

  /* USER CODE END RTC_Init 1 */

  /** Initialize RTC Only
  */
  hrtc.Instance = RTC;
 8020f7a:	481c      	ldr	r0, [pc, #112]	; (8020fec <MX_RTC_Init+0x84>)
 8020f7c:	4a1c      	ldr	r2, [pc, #112]	; (8020ff0 <MX_RTC_Init+0x88>)
 8020f7e:	6002      	str	r2, [r0, #0]
  hrtc.Init.HourFormat = RTC_HOURFORMAT_24;
 8020f80:	6043      	str	r3, [r0, #4]
  hrtc.Init.AsynchPrediv = 127;
 8020f82:	227f      	movs	r2, #127	; 0x7f
 8020f84:	6082      	str	r2, [r0, #8]
  hrtc.Init.SynchPrediv = 255;
 8020f86:	22ff      	movs	r2, #255	; 0xff
 8020f88:	60c2      	str	r2, [r0, #12]
  hrtc.Init.OutPut = RTC_OUTPUT_DISABLE;
 8020f8a:	6103      	str	r3, [r0, #16]
  hrtc.Init.OutPutPolarity = RTC_OUTPUT_POLARITY_HIGH;
 8020f8c:	6143      	str	r3, [r0, #20]
  hrtc.Init.OutPutType = RTC_OUTPUT_TYPE_OPENDRAIN;
 8020f8e:	6183      	str	r3, [r0, #24]
  if (HAL_RTC_Init(&hrtc) != HAL_OK)
 8020f90:	f002 fc0e 	bl	80237b0 <HAL_RTC_Init>
 8020f94:	bb00      	cbnz	r0, 8020fd8 <MX_RTC_Init+0x70>

  /* USER CODE END Check_RTC_BKUP */

  /** Initialize RTC and set the Time and Date
  */
  sTime.Hours = 0x0;
 8020f96:	2300      	movs	r3, #0
 8020f98:	f88d 3004 	strb.w	r3, [sp, #4]
  sTime.Minutes = 0x0;
 8020f9c:	f88d 3005 	strb.w	r3, [sp, #5]
  sTime.Seconds = 0x0;
 8020fa0:	f88d 3006 	strb.w	r3, [sp, #6]
  sTime.DayLightSaving = RTC_DAYLIGHTSAVING_NONE;
 8020fa4:	9304      	str	r3, [sp, #16]
  sTime.StoreOperation = RTC_STOREOPERATION_RESET;
 8020fa6:	9305      	str	r3, [sp, #20]
  if (HAL_RTC_SetTime(&hrtc, &sTime, RTC_FORMAT_BCD) != HAL_OK)
 8020fa8:	2201      	movs	r2, #1
 8020faa:	a901      	add	r1, sp, #4
 8020fac:	480f      	ldr	r0, [pc, #60]	; (8020fec <MX_RTC_Init+0x84>)
 8020fae:	f002 fcb1 	bl	8023914 <HAL_RTC_SetTime>
 8020fb2:	b9a0      	cbnz	r0, 8020fde <MX_RTC_Init+0x76>
  {
    Error_Handler();
  }
  sDate.WeekDay = RTC_WEEKDAY_MONDAY;
 8020fb4:	2201      	movs	r2, #1
 8020fb6:	f88d 2000 	strb.w	r2, [sp]
  sDate.Month = RTC_MONTH_JANUARY;
 8020fba:	f88d 2001 	strb.w	r2, [sp, #1]
  sDate.Date = 0x1;
 8020fbe:	f88d 2002 	strb.w	r2, [sp, #2]
  sDate.Year = 0x0;
 8020fc2:	2300      	movs	r3, #0
 8020fc4:	f88d 3003 	strb.w	r3, [sp, #3]

  if (HAL_RTC_SetDate(&hrtc, &sDate, RTC_FORMAT_BCD) != HAL_OK)
 8020fc8:	4669      	mov	r1, sp
 8020fca:	4808      	ldr	r0, [pc, #32]	; (8020fec <MX_RTC_Init+0x84>)
 8020fcc:	f002 fdbe 	bl	8023b4c <HAL_RTC_SetDate>
 8020fd0:	b940      	cbnz	r0, 8020fe4 <MX_RTC_Init+0x7c>
  }
  /* USER CODE BEGIN RTC_Init 2 */

  /* USER CODE END RTC_Init 2 */

}
 8020fd2:	b007      	add	sp, #28
 8020fd4:	f85d fb04 	ldr.w	pc, [sp], #4
    Error_Handler();
 8020fd8:	f7ff ff1e 	bl	8020e18 <Error_Handler>
 8020fdc:	e7db      	b.n	8020f96 <MX_RTC_Init+0x2e>
    Error_Handler();
 8020fde:	f7ff ff1b 	bl	8020e18 <Error_Handler>
 8020fe2:	e7e7      	b.n	8020fb4 <MX_RTC_Init+0x4c>
    Error_Handler();
 8020fe4:	f7ff ff18 	bl	8020e18 <Error_Handler>
}
 8020fe8:	e7f3      	b.n	8020fd2 <MX_RTC_Init+0x6a>
 8020fea:	bf00      	nop
 8020fec:	2000d1a0 	.word	0x2000d1a0
 8020ff0:	40002800 	.word	0x40002800

08020ff4 <HAL_RTC_MspInit>:

void HAL_RTC_MspInit(RTC_HandleTypeDef* rtcHandle)
{
 8020ff4:	b510      	push	{r4, lr}
 8020ff6:	b090      	sub	sp, #64	; 0x40
 8020ff8:	4604      	mov	r4, r0

  RCC_PeriphCLKInitTypeDef PeriphClkInitStruct = {0};
 8020ffa:	223c      	movs	r2, #60	; 0x3c
 8020ffc:	2100      	movs	r1, #0
 8020ffe:	a801      	add	r0, sp, #4
 8021000:	f00c fce8 	bl	802d9d4 <memset>
  if(rtcHandle->Instance==RTC)
 8021004:	6822      	ldr	r2, [r4, #0]
 8021006:	4b0a      	ldr	r3, [pc, #40]	; (8021030 <HAL_RTC_MspInit+0x3c>)
 8021008:	429a      	cmp	r2, r3
 802100a:	d001      	beq.n	8021010 <HAL_RTC_MspInit+0x1c>
    __HAL_RCC_RTC_ENABLE();
  /* USER CODE BEGIN RTC_MspInit 1 */

  /* USER CODE END RTC_MspInit 1 */
  }
}
 802100c:	b010      	add	sp, #64	; 0x40
 802100e:	bd10      	pop	{r4, pc}
    PeriphClkInitStruct.PeriphClockSelection = RCC_PERIPHCLK_RTC;
 8021010:	2308      	movs	r3, #8
 8021012:	9301      	str	r3, [sp, #4]
    PeriphClkInitStruct.RTCClockSelection = RCC_RTCCLKSOURCE_LSI;
 8021014:	f44f 7300 	mov.w	r3, #512	; 0x200
 8021018:	9308      	str	r3, [sp, #32]
    if (HAL_RCCEx_PeriphCLKConfig(&PeriphClkInitStruct) != HAL_OK)
 802101a:	a801      	add	r0, sp, #4
 802101c:	f001 fe3c 	bl	8022c98 <HAL_RCCEx_PeriphCLKConfig>
 8021020:	b918      	cbnz	r0, 802102a <HAL_RTC_MspInit+0x36>
    __HAL_RCC_RTC_ENABLE();
 8021022:	4b04      	ldr	r3, [pc, #16]	; (8021034 <HAL_RTC_MspInit+0x40>)
 8021024:	2201      	movs	r2, #1
 8021026:	601a      	str	r2, [r3, #0]
}
 8021028:	e7f0      	b.n	802100c <HAL_RTC_MspInit+0x18>
      Error_Handler();
 802102a:	f7ff fef5 	bl	8020e18 <Error_Handler>
 802102e:	e7f8      	b.n	8021022 <HAL_RTC_MspInit+0x2e>
 8021030:	40002800 	.word	0x40002800
 8021034:	42470e3c 	.word	0x42470e3c

08021038 <HAL_MspInit>:
/* USER CODE END 0 */
/**
  * Initializes the Global MSP.
  */
void HAL_MspInit(void)
{
 8021038:	b500      	push	{lr}
 802103a:	b083      	sub	sp, #12
  /* USER CODE BEGIN MspInit 0 */

  /* USER CODE END MspInit 0 */

  __HAL_RCC_SYSCFG_CLK_ENABLE();
 802103c:	2200      	movs	r2, #0
 802103e:	9200      	str	r2, [sp, #0]
 8021040:	4b0d      	ldr	r3, [pc, #52]	; (8021078 <HAL_MspInit+0x40>)
 8021042:	6c59      	ldr	r1, [r3, #68]	; 0x44
 8021044:	f441 4180 	orr.w	r1, r1, #16384	; 0x4000
 8021048:	6459      	str	r1, [r3, #68]	; 0x44
 802104a:	6c59      	ldr	r1, [r3, #68]	; 0x44
 802104c:	f401 4180 	and.w	r1, r1, #16384	; 0x4000
 8021050:	9100      	str	r1, [sp, #0]
 8021052:	9900      	ldr	r1, [sp, #0]
  __HAL_RCC_PWR_CLK_ENABLE();
 8021054:	9201      	str	r2, [sp, #4]
 8021056:	6c19      	ldr	r1, [r3, #64]	; 0x40
 8021058:	f041 5180 	orr.w	r1, r1, #268435456	; 0x10000000
 802105c:	6419      	str	r1, [r3, #64]	; 0x40
 802105e:	6c1b      	ldr	r3, [r3, #64]	; 0x40
 8021060:	f003 5380 	and.w	r3, r3, #268435456	; 0x10000000
 8021064:	9301      	str	r3, [sp, #4]
 8021066:	9b01      	ldr	r3, [sp, #4]

  /* System interrupt init*/
  /* PendSV_IRQn interrupt configuration */
  HAL_NVIC_SetPriority(PendSV_IRQn, 15, 0);
 8021068:	210f      	movs	r1, #15
 802106a:	f06f 0001 	mvn.w	r0, #1
 802106e:	f000 fc57 	bl	8021920 <HAL_NVIC_SetPriority>

  /* USER CODE BEGIN MspInit 1 */

  /* USER CODE END MspInit 1 */
}
 8021072:	b003      	add	sp, #12
 8021074:	f85d fb04 	ldr.w	pc, [sp], #4
 8021078:	40023800 	.word	0x40023800

0802107c <HAL_InitTick>:
  *         reset by HAL_Init() or at any time when clock is configured, by HAL_RCC_ClockConfig().
  * @param  TickPriority: Tick interrupt priority.
  * @retval HAL status
  */
HAL_StatusTypeDef HAL_InitTick(uint32_t TickPriority)
{
 802107c:	b510      	push	{r4, lr}
 802107e:	b088      	sub	sp, #32
 8021080:	4601      	mov	r1, r0
  RCC_ClkInitTypeDef    clkconfig;
  uint32_t              uwTimclock = 0;
  uint32_t              uwPrescalerValue = 0;
  uint32_t              pFLatency;
  /*Configure the TIM2 IRQ priority */
  HAL_NVIC_SetPriority(TIM2_IRQn, TickPriority ,0);
 8021082:	2200      	movs	r2, #0
 8021084:	201c      	movs	r0, #28
 8021086:	f000 fc4b 	bl	8021920 <HAL_NVIC_SetPriority>

  /* Enable the TIM2 global Interrupt */
  HAL_NVIC_EnableIRQ(TIM2_IRQn);
 802108a:	201c      	movs	r0, #28
 802108c:	f000 fc8e 	bl	80219ac <HAL_NVIC_EnableIRQ>

  /* Enable TIM2 clock */
  __HAL_RCC_TIM2_CLK_ENABLE();
 8021090:	2400      	movs	r4, #0
 8021092:	9401      	str	r4, [sp, #4]
 8021094:	4b14      	ldr	r3, [pc, #80]	; (80210e8 <HAL_InitTick+0x6c>)
 8021096:	6c1a      	ldr	r2, [r3, #64]	; 0x40
 8021098:	f042 0201 	orr.w	r2, r2, #1
 802109c:	641a      	str	r2, [r3, #64]	; 0x40
 802109e:	6c1b      	ldr	r3, [r3, #64]	; 0x40
 80210a0:	f003 0301 	and.w	r3, r3, #1
 80210a4:	9301      	str	r3, [sp, #4]
 80210a6:	9b01      	ldr	r3, [sp, #4]

  /* Get clock configuration */
  HAL_RCC_GetClockConfig(&clkconfig, &pFLatency);
 80210a8:	a902      	add	r1, sp, #8
 80210aa:	a803      	add	r0, sp, #12
 80210ac:	f001 fdd6 	bl	8022c5c <HAL_RCC_GetClockConfig>

  /* Compute TIM2 clock */
  uwTimclock = 2*HAL_RCC_GetPCLK1Freq();
 80210b0:	f001 fdb4 	bl	8022c1c <HAL_RCC_GetPCLK1Freq>
 80210b4:	0043      	lsls	r3, r0, #1
  /* Compute the prescaler value to have TIM2 counter clock equal to 1MHz */
  uwPrescalerValue = (uint32_t) ((uwTimclock / 1000000U) - 1U);
 80210b6:	480d      	ldr	r0, [pc, #52]	; (80210ec <HAL_InitTick+0x70>)
 80210b8:	fba0 2303 	umull	r2, r3, r0, r3
 80210bc:	0c9b      	lsrs	r3, r3, #18
 80210be:	3b01      	subs	r3, #1

  /* Initialize TIM2 */
  htim2.Instance = TIM2;
 80210c0:	480b      	ldr	r0, [pc, #44]	; (80210f0 <HAL_InitTick+0x74>)
 80210c2:	f04f 4280 	mov.w	r2, #1073741824	; 0x40000000
 80210c6:	6002      	str	r2, [r0, #0]
  + Period = [(TIM2CLK/1000) - 1]. to have a (1/1000) s time base.
  + Prescaler = (uwTimclock/1000000 - 1) to have a 1MHz counter clock.
  + ClockDivision = 0
  + Counter direction = Up
  */
  htim2.Init.Period = (1000000U / 1000U) - 1U;
 80210c8:	f240 32e7 	movw	r2, #999	; 0x3e7
 80210cc:	60c2      	str	r2, [r0, #12]
  htim2.Init.Prescaler = uwPrescalerValue;
 80210ce:	6043      	str	r3, [r0, #4]
  htim2.Init.ClockDivision = 0;
 80210d0:	6104      	str	r4, [r0, #16]
  htim2.Init.CounterMode = TIM_COUNTERMODE_UP;
 80210d2:	6084      	str	r4, [r0, #8]

  if(HAL_TIM_Base_Init(&htim2) == HAL_OK)
 80210d4:	f002 ffb6 	bl	8024044 <HAL_TIM_Base_Init>
 80210d8:	b110      	cbz	r0, 80210e0 <HAL_InitTick+0x64>
    /* Start the TIM time Base generation in interrupt mode */
    return HAL_TIM_Base_Start_IT(&htim2);
  }

  /* Return function status */
  return HAL_ERROR;
 80210da:	2001      	movs	r0, #1
}
 80210dc:	b008      	add	sp, #32
 80210de:	bd10      	pop	{r4, pc}
    return HAL_TIM_Base_Start_IT(&htim2);
 80210e0:	4803      	ldr	r0, [pc, #12]	; (80210f0 <HAL_InitTick+0x74>)
 80210e2:	f002 fe05 	bl	8023cf0 <HAL_TIM_Base_Start_IT>
 80210e6:	e7f9      	b.n	80210dc <HAL_InitTick+0x60>
 80210e8:	40023800 	.word	0x40023800
 80210ec:	431bde83 	.word	0x431bde83
 80210f0:	2000d1c0 	.word	0x2000d1c0

080210f4 <NMI_Handler>:
/******************************************************************************/
/**
  * @brief This function handles Non maskable interrupt.
  */
void NMI_Handler(void)
{
 80210f4:	b508      	push	{r3, lr}
  /* USER CODE BEGIN NonMaskableInt_IRQn 0 */
	DEBUG_L("NMI_Handler\r\n");
 80210f6:	4802      	ldr	r0, [pc, #8]	; (8021100 <NMI_Handler+0xc>)
 80210f8:	f00c f8ba 	bl	802d270 <debug_printf>
  /* USER CODE END NonMaskableInt_IRQn 0 */
  /* USER CODE BEGIN NonMaskableInt_IRQn 1 */
  while (1)
 80210fc:	e7fe      	b.n	80210fc <NMI_Handler+0x8>
 80210fe:	bf00      	nop
 8021100:	0802e61c 	.word	0x0802e61c

08021104 <HardFault_Handler>:

/**
  * @brief This function handles Hard fault interrupt.
  */
void HardFault_Handler(void)
{
 8021104:	b508      	push	{r3, lr}
  /* USER CODE BEGIN HardFault_IRQn 0 */
	DEBUG_L("HardFault_Handler\r\n");
 8021106:	4802      	ldr	r0, [pc, #8]	; (8021110 <HardFault_Handler+0xc>)
 8021108:	f00c f8b2 	bl	802d270 <debug_printf>
  /* USER CODE END HardFault_IRQn 0 */
  while (1)
 802110c:	e7fe      	b.n	802110c <HardFault_Handler+0x8>
 802110e:	bf00      	nop
 8021110:	0802e62c 	.word	0x0802e62c

08021114 <MemManage_Handler>:

/**
  * @brief This function handles Memory management fault.
  */
void MemManage_Handler(void)
{
 8021114:	b508      	push	{r3, lr}
  /* USER CODE BEGIN MemoryManagement_IRQn 0 */
	DEBUG_L("MemManage_Handler\r\n");
 8021116:	4802      	ldr	r0, [pc, #8]	; (8021120 <MemManage_Handler+0xc>)
 8021118:	f00c f8aa 	bl	802d270 <debug_printf>
  /* USER CODE END MemoryManagement_IRQn 0 */
  while (1)
 802111c:	e7fe      	b.n	802111c <MemManage_Handler+0x8>
 802111e:	bf00      	nop
 8021120:	0802e640 	.word	0x0802e640

08021124 <BusFault_Handler>:

/**
  * @brief This function handles Pre-fetch fault, memory access fault.
  */
void BusFault_Handler(void)
{
 8021124:	b508      	push	{r3, lr}
  /* USER CODE BEGIN BusFault_IRQn 0 */
	DEBUG_L("BusFault_Handler\r\n");
 8021126:	4802      	ldr	r0, [pc, #8]	; (8021130 <BusFault_Handler+0xc>)
 8021128:	f00c f8a2 	bl	802d270 <debug_printf>
  /* USER CODE END BusFault_IRQn 0 */
  while (1)
 802112c:	e7fe      	b.n	802112c <BusFault_Handler+0x8>
 802112e:	bf00      	nop
 8021130:	0802e654 	.word	0x0802e654

08021134 <UsageFault_Handler>:

/**
  * @brief This function handles Undefined instruction or illegal state.
  */
void UsageFault_Handler(void)
{
 8021134:	b508      	push	{r3, lr}
  /* USER CODE BEGIN UsageFault_IRQn 0 */
	DEBUG_L("UsageFault_Handler\r\n");
 8021136:	4802      	ldr	r0, [pc, #8]	; (8021140 <UsageFault_Handler+0xc>)
 8021138:	f00c f89a 	bl	802d270 <debug_printf>
  /* USER CODE END UsageFault_IRQn 0 */
  while (1)
 802113c:	e7fe      	b.n	802113c <UsageFault_Handler+0x8>
 802113e:	bf00      	nop
 8021140:	0802e668 	.word	0x0802e668

08021144 <DebugMon_Handler>:

/**
  * @brief This function handles Debug monitor.
  */
void DebugMon_Handler(void)
{
 8021144:	b508      	push	{r3, lr}
  /* USER CODE BEGIN DebugMonitor_IRQn 0 */
	DEBUG_L("DebugMon_Handler\r\n");
 8021146:	4802      	ldr	r0, [pc, #8]	; (8021150 <DebugMon_Handler+0xc>)
 8021148:	f00c f892 	bl	802d270 <debug_printf>
  /* USER CODE END DebugMonitor_IRQn 0 */
  /* USER CODE BEGIN DebugMonitor_IRQn 1 */

  /* USER CODE END DebugMonitor_IRQn 1 */
}
 802114c:	bd08      	pop	{r3, pc}
 802114e:	bf00      	nop
 8021150:	0802e680 	.word	0x0802e680

08021154 <DMA1_Stream1_IRQHandler>:

/**
  * @brief This function handles DMA1 stream1 global interrupt.
  */
void DMA1_Stream1_IRQHandler(void)
{
 8021154:	b508      	push	{r3, lr}
  /* USER CODE BEGIN DMA1_Stream1_IRQn 0 */

  /* USER CODE END DMA1_Stream1_IRQn 0 */
  HAL_DMA_IRQHandler(&hdma_usart3_rx);
 8021156:	4802      	ldr	r0, [pc, #8]	; (8021160 <DMA1_Stream1_IRQHandler+0xc>)
 8021158:	f000 feb2 	bl	8021ec0 <HAL_DMA_IRQHandler>
  /* USER CODE BEGIN DMA1_Stream1_IRQn 1 */

  /* USER CODE END DMA1_Stream1_IRQn 1 */
}
 802115c:	bd08      	pop	{r3, pc}
 802115e:	bf00      	nop
 8021160:	2000d340 	.word	0x2000d340

08021164 <DMA1_Stream3_IRQHandler>:

/**
  * @brief This function handles DMA1 stream3 global interrupt.
  */
void DMA1_Stream3_IRQHandler(void)
{
 8021164:	b508      	push	{r3, lr}
  /* USER CODE BEGIN DMA1_Stream3_IRQn 0 */

  /* USER CODE END DMA1_Stream3_IRQn 0 */
  HAL_DMA_IRQHandler(&hdma_usart3_tx);
 8021166:	4802      	ldr	r0, [pc, #8]	; (8021170 <DMA1_Stream3_IRQHandler+0xc>)
 8021168:	f000 feaa 	bl	8021ec0 <HAL_DMA_IRQHandler>
  /* USER CODE BEGIN DMA1_Stream3_IRQn 1 */

  /* USER CODE END DMA1_Stream3_IRQn 1 */
}
 802116c:	bd08      	pop	{r3, pc}
 802116e:	bf00      	nop
 8021170:	2000d3e4 	.word	0x2000d3e4

08021174 <TIM1_UP_TIM10_IRQHandler>:

/**
  * @brief This function handles TIM1 update interrupt and TIM10 global interrupt.
  */
void TIM1_UP_TIM10_IRQHandler(void)
{
 8021174:	b508      	push	{r3, lr}
  /* USER CODE BEGIN TIM1_UP_TIM10_IRQn 0 */

  /* USER CODE END TIM1_UP_TIM10_IRQn 0 */
  HAL_TIM_IRQHandler(&htim10);
 8021176:	4802      	ldr	r0, [pc, #8]	; (8021180 <TIM1_UP_TIM10_IRQHandler+0xc>)
 8021178:	f002 fe42 	bl	8023e00 <HAL_TIM_IRQHandler>
  /* USER CODE BEGIN TIM1_UP_TIM10_IRQn 1 */

  /* USER CODE END TIM1_UP_TIM10_IRQn 1 */
}
 802117c:	bd08      	pop	{r3, pc}
 802117e:	bf00      	nop
 8021180:	2000d208 	.word	0x2000d208

08021184 <TIM2_IRQHandler>:

/**
  * @brief This function handles TIM2 global interrupt.
  */
void TIM2_IRQHandler(void)
{
 8021184:	b508      	push	{r3, lr}
  /* USER CODE BEGIN TIM2_IRQn 0 */

  /* USER CODE END TIM2_IRQn 0 */
  HAL_TIM_IRQHandler(&htim2);
 8021186:	4802      	ldr	r0, [pc, #8]	; (8021190 <TIM2_IRQHandler+0xc>)
 8021188:	f002 fe3a 	bl	8023e00 <HAL_TIM_IRQHandler>
  /* USER CODE BEGIN TIM2_IRQn 1 */

  /* USER CODE END TIM2_IRQn 1 */
}
 802118c:	bd08      	pop	{r3, pc}
 802118e:	bf00      	nop
 8021190:	2000d1c0 	.word	0x2000d1c0

08021194 <USART1_IRQHandler>:

/**
  * @brief This function handles USART1 global interrupt.
  */
void USART1_IRQHandler(void)
{
 8021194:	b510      	push	{r4, lr}
  /* USER CODE BEGIN USART1_IRQn 0 */
	USART1_RxIdleCallback(&huart1);
 8021196:	4c04      	ldr	r4, [pc, #16]	; (80211a8 <USART1_IRQHandler+0x14>)
 8021198:	4620      	mov	r0, r4
 802119a:	f006 ff9d 	bl	80280d8 <USART1_RxIdleCallback>
  /* USER CODE END USART1_IRQn 0 */
  HAL_UART_IRQHandler(&huart1);
 802119e:	4620      	mov	r0, r4
 80211a0:	f003 fbca 	bl	8024938 <HAL_UART_IRQHandler>
  /* USER CODE BEGIN USART1_IRQn 1 */

  /* USER CODE END USART1_IRQn 1 */
}
 80211a4:	bd10      	pop	{r4, pc}
 80211a6:	bf00      	nop
 80211a8:	2000d564 	.word	0x2000d564

080211ac <USART3_IRQHandler>:

/**
  * @brief This function handles USART3 global interrupt.
  */
void USART3_IRQHandler(void)
{
 80211ac:	b510      	push	{r4, lr}
  /* USER CODE BEGIN USART3_IRQn 0 */
	USART3_RxIdleCallback(&huart3);
 80211ae:	4c04      	ldr	r4, [pc, #16]	; (80211c0 <USART3_IRQHandler+0x14>)
 80211b0:	4620      	mov	r0, r4
 80211b2:	f006 ffd1 	bl	8028158 <USART3_RxIdleCallback>
  /* USER CODE END USART3_IRQn 0 */
  HAL_UART_IRQHandler(&huart3);
 80211b6:	4620      	mov	r0, r4
 80211b8:	f003 fbbe 	bl	8024938 <HAL_UART_IRQHandler>
  /* USER CODE BEGIN USART3_IRQn 1 */

  /* USER CODE END USART3_IRQn 1 */
}
 80211bc:	bd10      	pop	{r4, pc}
 80211be:	bf00      	nop
 80211c0:	2000d3a0 	.word	0x2000d3a0

080211c4 <TIM6_IRQHandler>:

/**
  * @brief This function handles TIM6 global interrupt.
  */
void TIM6_IRQHandler(void)
{
 80211c4:	b508      	push	{r3, lr}
  /* USER CODE BEGIN TIM6_IRQn 0 */
	tickCnt_Update();
 80211c6:	f00c fa91 	bl	802d6ec <tickCnt_Update>
	mytim_ticupdate();
 80211ca:	f00b f82b 	bl	802c224 <mytim_ticupdate>
  /* USER CODE END TIM6_IRQn 0 */
  HAL_TIM_IRQHandler(&htim6);
 80211ce:	4802      	ldr	r0, [pc, #8]	; (80211d8 <TIM6_IRQHandler+0x14>)
 80211d0:	f002 fe16 	bl	8023e00 <HAL_TIM_IRQHandler>
  /* USER CODE BEGIN TIM6_IRQn 1 */

  /* USER CODE END TIM6_IRQn 1 */
}
 80211d4:	bd08      	pop	{r3, pc}
 80211d6:	bf00      	nop
 80211d8:	2000d250 	.word	0x2000d250

080211dc <DMA2_Stream1_IRQHandler>:

/**
  * @brief This function handles DMA2 stream1 global interrupt.
  */
void DMA2_Stream1_IRQHandler(void)
{
 80211dc:	b508      	push	{r3, lr}
  /* USER CODE BEGIN DMA2_Stream1_IRQn 0 */

  /* USER CODE END DMA2_Stream1_IRQn 0 */
  HAL_DMA_IRQHandler(&hdma_usart6_rx);
 80211de:	4802      	ldr	r0, [pc, #8]	; (80211e8 <DMA2_Stream1_IRQHandler+0xc>)
 80211e0:	f000 fe6e 	bl	8021ec0 <HAL_DMA_IRQHandler>
  /* USER CODE BEGIN DMA2_Stream1_IRQn 1 */

  /* USER CODE END DMA2_Stream1_IRQn 1 */
}
 80211e4:	bd08      	pop	{r3, pc}
 80211e6:	bf00      	nop
 80211e8:	2000d2e0 	.word	0x2000d2e0

080211ec <DMA2_Stream2_IRQHandler>:

/**
  * @brief This function handles DMA2 stream2 global interrupt.
  */
void DMA2_Stream2_IRQHandler(void)
{
 80211ec:	b508      	push	{r3, lr}
  /* USER CODE BEGIN DMA2_Stream2_IRQn 0 */

  /* USER CODE END DMA2_Stream2_IRQn 0 */
  HAL_DMA_IRQHandler(&hdma_usart1_rx);
 80211ee:	4802      	ldr	r0, [pc, #8]	; (80211f8 <DMA2_Stream2_IRQHandler+0xc>)
 80211f0:	f000 fe66 	bl	8021ec0 <HAL_DMA_IRQHandler>
  /* USER CODE BEGIN DMA2_Stream2_IRQn 1 */

  /* USER CODE END DMA2_Stream2_IRQn 1 */
}
 80211f4:	bd08      	pop	{r3, pc}
 80211f6:	bf00      	nop
 80211f8:	2000d504 	.word	0x2000d504

080211fc <DMA2_Stream6_IRQHandler>:

/**
  * @brief This function handles DMA2 stream6 global interrupt.
  */
void DMA2_Stream6_IRQHandler(void)
{
 80211fc:	b508      	push	{r3, lr}
  /* USER CODE BEGIN DMA2_Stream6_IRQn 0 */

  /* USER CODE END DMA2_Stream6_IRQn 0 */
  HAL_DMA_IRQHandler(&hdma_usart6_tx);
 80211fe:	4802      	ldr	r0, [pc, #8]	; (8021208 <DMA2_Stream6_IRQHandler+0xc>)
 8021200:	f000 fe5e 	bl	8021ec0 <HAL_DMA_IRQHandler>
  /* USER CODE BEGIN DMA2_Stream6_IRQn 1 */

  /* USER CODE END DMA2_Stream6_IRQn 1 */
}
 8021204:	bd08      	pop	{r3, pc}
 8021206:	bf00      	nop
 8021208:	2000d4a4 	.word	0x2000d4a4

0802120c <DMA2_Stream7_IRQHandler>:

/**
  * @brief This function handles DMA2 stream7 global interrupt.
  */
void DMA2_Stream7_IRQHandler(void)
{
 802120c:	b508      	push	{r3, lr}
  /* USER CODE BEGIN DMA2_Stream7_IRQn 0 */

  /* USER CODE END DMA2_Stream7_IRQn 0 */
  HAL_DMA_IRQHandler(&hdma_usart1_tx);
 802120e:	4802      	ldr	r0, [pc, #8]	; (8021218 <DMA2_Stream7_IRQHandler+0xc>)
 8021210:	f000 fe56 	bl	8021ec0 <HAL_DMA_IRQHandler>
  /* USER CODE BEGIN DMA2_Stream7_IRQn 1 */

  /* USER CODE END DMA2_Stream7_IRQn 1 */
}
 8021214:	bd08      	pop	{r3, pc}
 8021216:	bf00      	nop
 8021218:	2000d444 	.word	0x2000d444

0802121c <USART6_IRQHandler>:

/**
  * @brief This function handles USART6 global interrupt.
  */
void USART6_IRQHandler(void)
{
 802121c:	b510      	push	{r4, lr}
  /* USER CODE BEGIN USART6_IRQn 0 */
	USART6_RxIdleCallback(&huart6);
 802121e:	4c04      	ldr	r4, [pc, #16]	; (8021230 <USART6_IRQHandler+0x14>)
 8021220:	4620      	mov	r0, r4
 8021222:	f006 ffd9 	bl	80281d8 <USART6_RxIdleCallback>
  /* USER CODE END USART6_IRQn 0 */
  HAL_UART_IRQHandler(&huart6);
 8021226:	4620      	mov	r0, r4
 8021228:	f003 fb86 	bl	8024938 <HAL_UART_IRQHandler>
  /* USER CODE BEGIN USART6_IRQn 1 */

  /* USER CODE END USART6_IRQn 1 */
}
 802122c:	bd10      	pop	{r4, pc}
 802122e:	bf00      	nop
 8021230:	2000d5a8 	.word	0x2000d5a8

08021234 <_sbrk>:
 *
 * @param incr Memory size
 * @return Pointer to allocated memory
 */
void *_sbrk(ptrdiff_t incr)
{
 8021234:	b510      	push	{r4, lr}
 8021236:	4603      	mov	r3, r0
  extern uint8_t _end; /* Symbol defined in the linker script */
  extern uint8_t _estack; /* Symbol defined in the linker script */
  extern uint32_t _Min_Stack_Size; /* Symbol defined in the linker script */
  const uint32_t stack_limit = (uint32_t)&_estack - (uint32_t)&_Min_Stack_Size;
 8021238:	4a0c      	ldr	r2, [pc, #48]	; (802126c <_sbrk+0x38>)
 802123a:	490d      	ldr	r1, [pc, #52]	; (8021270 <_sbrk+0x3c>)
  const uint8_t *max_heap = (uint8_t *)stack_limit;
  uint8_t *prev_heap_end;

  /* Initialize heap end at first call */
  if (NULL == __sbrk_heap_end)
 802123c:	480d      	ldr	r0, [pc, #52]	; (8021274 <_sbrk+0x40>)
 802123e:	6800      	ldr	r0, [r0, #0]
 8021240:	b140      	cbz	r0, 8021254 <_sbrk+0x20>
  {
    __sbrk_heap_end = &_end;
  }

  /* Protect heap from growing into the reserved MSP stack */
  if (__sbrk_heap_end + incr > max_heap)
 8021242:	480c      	ldr	r0, [pc, #48]	; (8021274 <_sbrk+0x40>)
 8021244:	6800      	ldr	r0, [r0, #0]
 8021246:	4403      	add	r3, r0
 8021248:	1a52      	subs	r2, r2, r1
 802124a:	4293      	cmp	r3, r2
 802124c:	d806      	bhi.n	802125c <_sbrk+0x28>
    errno = ENOMEM;
    return (void *)-1;
  }

  prev_heap_end = __sbrk_heap_end;
  __sbrk_heap_end += incr;
 802124e:	4a09      	ldr	r2, [pc, #36]	; (8021274 <_sbrk+0x40>)
 8021250:	6013      	str	r3, [r2, #0]

  return (void *)prev_heap_end;
}
 8021252:	bd10      	pop	{r4, pc}
    __sbrk_heap_end = &_end;
 8021254:	4807      	ldr	r0, [pc, #28]	; (8021274 <_sbrk+0x40>)
 8021256:	4c08      	ldr	r4, [pc, #32]	; (8021278 <_sbrk+0x44>)
 8021258:	6004      	str	r4, [r0, #0]
 802125a:	e7f2      	b.n	8021242 <_sbrk+0xe>
    errno = ENOMEM;
 802125c:	f00c fb82 	bl	802d964 <__errno>
 8021260:	230c      	movs	r3, #12
 8021262:	6003      	str	r3, [r0, #0]
    return (void *)-1;
 8021264:	f04f 30ff 	mov.w	r0, #4294967295
 8021268:	e7f3      	b.n	8021252 <_sbrk+0x1e>
 802126a:	bf00      	nop
 802126c:	20040000 	.word	0x20040000
 8021270:	00004000 	.word	0x00004000
 8021274:	200001ec 	.word	0x200001ec
 8021278:	2000e590 	.word	0x2000e590

0802127c <SystemInit>:
  */
void SystemInit(void)
{
  /* FPU settings ------------------------------------------------------------*/
  #if (__FPU_PRESENT == 1) && (__FPU_USED == 1)
    SCB->CPACR |= ((3UL << 10*2)|(3UL << 11*2));  /* set CP10 and CP11 Full Access */
 802127c:	4a03      	ldr	r2, [pc, #12]	; (802128c <SystemInit+0x10>)
 802127e:	f8d2 3088 	ldr.w	r3, [r2, #136]	; 0x88
 8021282:	f443 0370 	orr.w	r3, r3, #15728640	; 0xf00000
 8021286:	f8c2 3088 	str.w	r3, [r2, #136]	; 0x88

  /* Configure the Vector Table location -------------------------------------*/
#if defined(USER_VECT_TAB_ADDRESS)
  SCB->VTOR = VECT_TAB_BASE_ADDRESS | VECT_TAB_OFFSET; /* Vector Table Relocation in Internal SRAM */
#endif /* USER_VECT_TAB_ADDRESS */
}
 802128a:	4770      	bx	lr
 802128c:	e000ed00 	.word	0xe000ed00

08021290 <MX_TIM6_Init>:
TIM_HandleTypeDef htim7;
TIM_HandleTypeDef htim10;

/* TIM6 init function */
void MX_TIM6_Init(void)
{
 8021290:	b500      	push	{lr}
 8021292:	b083      	sub	sp, #12

  /* USER CODE BEGIN TIM6_Init 0 */

  /* USER CODE END TIM6_Init 0 */

  TIM_MasterConfigTypeDef sMasterConfig = {0};
 8021294:	2300      	movs	r3, #0
 8021296:	9300      	str	r3, [sp, #0]
 8021298:	9301      	str	r3, [sp, #4]

  /* USER CODE BEGIN TIM6_Init 1 */

  /* USER CODE END TIM6_Init 1 */
  htim6.Instance = TIM6;
 802129a:	480f      	ldr	r0, [pc, #60]	; (80212d8 <MX_TIM6_Init+0x48>)
 802129c:	4a0f      	ldr	r2, [pc, #60]	; (80212dc <MX_TIM6_Init+0x4c>)
 802129e:	6002      	str	r2, [r0, #0]
  htim6.Init.Prescaler = 9999;
 80212a0:	f242 720f 	movw	r2, #9999	; 0x270f
 80212a4:	6042      	str	r2, [r0, #4]
  htim6.Init.CounterMode = TIM_COUNTERMODE_UP;
 80212a6:	6083      	str	r3, [r0, #8]
  htim6.Init.Period = 1000;
 80212a8:	f44f 727a 	mov.w	r2, #1000	; 0x3e8
 80212ac:	60c2      	str	r2, [r0, #12]
  htim6.Init.AutoReloadPreload = TIM_AUTORELOAD_PRELOAD_DISABLE;
 80212ae:	6183      	str	r3, [r0, #24]
  if (HAL_TIM_Base_Init(&htim6) != HAL_OK)
 80212b0:	f002 fec8 	bl	8024044 <HAL_TIM_Base_Init>
 80212b4:	b950      	cbnz	r0, 80212cc <MX_TIM6_Init+0x3c>
  {
    Error_Handler();
  }
  sMasterConfig.MasterOutputTrigger = TIM_TRGO_RESET;
 80212b6:	2300      	movs	r3, #0
 80212b8:	9300      	str	r3, [sp, #0]
  sMasterConfig.MasterSlaveMode = TIM_MASTERSLAVEMODE_DISABLE;
 80212ba:	9301      	str	r3, [sp, #4]
  if (HAL_TIMEx_MasterConfigSynchronization(&htim6, &sMasterConfig) != HAL_OK)
 80212bc:	4669      	mov	r1, sp
 80212be:	4806      	ldr	r0, [pc, #24]	; (80212d8 <MX_TIM6_Init+0x48>)
 80212c0:	f002 ff58 	bl	8024174 <HAL_TIMEx_MasterConfigSynchronization>
 80212c4:	b928      	cbnz	r0, 80212d2 <MX_TIM6_Init+0x42>
  }
  /* USER CODE BEGIN TIM6_Init 2 */

  /* USER CODE END TIM6_Init 2 */

}
 80212c6:	b003      	add	sp, #12
 80212c8:	f85d fb04 	ldr.w	pc, [sp], #4
    Error_Handler();
 80212cc:	f7ff fda4 	bl	8020e18 <Error_Handler>
 80212d0:	e7f1      	b.n	80212b6 <MX_TIM6_Init+0x26>
    Error_Handler();
 80212d2:	f7ff fda1 	bl	8020e18 <Error_Handler>
}
 80212d6:	e7f6      	b.n	80212c6 <MX_TIM6_Init+0x36>
 80212d8:	2000d250 	.word	0x2000d250
 80212dc:	40001000 	.word	0x40001000

080212e0 <MX_TIM7_Init>:
/* TIM7 init function */
void MX_TIM7_Init(void)
{
 80212e0:	b508      	push	{r3, lr}
  /* USER CODE END TIM7_Init 0 */

  /* USER CODE BEGIN TIM7_Init 1 */

  /* USER CODE END TIM7_Init 1 */
  htim7.Instance = TIM7;
 80212e2:	4809      	ldr	r0, [pc, #36]	; (8021308 <MX_TIM7_Init+0x28>)
 80212e4:	4b09      	ldr	r3, [pc, #36]	; (802130c <MX_TIM7_Init+0x2c>)
 80212e6:	6003      	str	r3, [r0, #0]
  htim7.Init.Prescaler = 99;
 80212e8:	2363      	movs	r3, #99	; 0x63
 80212ea:	6043      	str	r3, [r0, #4]
  htim7.Init.CounterMode = TIM_COUNTERMODE_UP;
 80212ec:	2300      	movs	r3, #0
 80212ee:	6083      	str	r3, [r0, #8]
  htim7.Init.Period = 65535;
 80212f0:	f64f 72ff 	movw	r2, #65535	; 0xffff
 80212f4:	60c2      	str	r2, [r0, #12]
  htim7.Init.AutoReloadPreload = TIM_AUTORELOAD_PRELOAD_DISABLE;
 80212f6:	6183      	str	r3, [r0, #24]
  if (HAL_TIM_Base_Init(&htim7) != HAL_OK)
 80212f8:	f002 fea4 	bl	8024044 <HAL_TIM_Base_Init>
 80212fc:	b900      	cbnz	r0, 8021300 <MX_TIM7_Init+0x20>
  }
  /* USER CODE BEGIN TIM7_Init 2 */

  /* USER CODE END TIM7_Init 2 */

}
 80212fe:	bd08      	pop	{r3, pc}
    Error_Handler();
 8021300:	f7ff fd8a 	bl	8020e18 <Error_Handler>
}
 8021304:	e7fb      	b.n	80212fe <MX_TIM7_Init+0x1e>
 8021306:	bf00      	nop
 8021308:	2000d298 	.word	0x2000d298
 802130c:	40001400 	.word	0x40001400

08021310 <MX_TIM10_Init>:
/* TIM10 init function */
void MX_TIM10_Init(void)
{
 8021310:	b508      	push	{r3, lr}
  /* USER CODE END TIM10_Init 0 */

  /* USER CODE BEGIN TIM10_Init 1 */

  /* USER CODE END TIM10_Init 1 */
  htim10.Instance = TIM10;
 8021312:	480a      	ldr	r0, [pc, #40]	; (802133c <MX_TIM10_Init+0x2c>)
 8021314:	4b0a      	ldr	r3, [pc, #40]	; (8021340 <MX_TIM10_Init+0x30>)
 8021316:	6003      	str	r3, [r0, #0]
  htim10.Init.Prescaler = 9999;
 8021318:	f242 730f 	movw	r3, #9999	; 0x270f
 802131c:	6043      	str	r3, [r0, #4]
  htim10.Init.CounterMode = TIM_COUNTERMODE_UP;
 802131e:	2300      	movs	r3, #0
 8021320:	6083      	str	r3, [r0, #8]
  htim10.Init.Period = 10000;
 8021322:	f242 7210 	movw	r2, #10000	; 0x2710
 8021326:	60c2      	str	r2, [r0, #12]
  htim10.Init.ClockDivision = TIM_CLOCKDIVISION_DIV1;
 8021328:	6103      	str	r3, [r0, #16]
  htim10.Init.AutoReloadPreload = TIM_AUTORELOAD_PRELOAD_DISABLE;
 802132a:	6183      	str	r3, [r0, #24]
  if (HAL_TIM_Base_Init(&htim10) != HAL_OK)
 802132c:	f002 fe8a 	bl	8024044 <HAL_TIM_Base_Init>
 8021330:	b900      	cbnz	r0, 8021334 <MX_TIM10_Init+0x24>
  }
  /* USER CODE BEGIN TIM10_Init 2 */

  /* USER CODE END TIM10_Init 2 */

}
 8021332:	bd08      	pop	{r3, pc}
    Error_Handler();
 8021334:	f7ff fd70 	bl	8020e18 <Error_Handler>
}
 8021338:	e7fb      	b.n	8021332 <MX_TIM10_Init+0x22>
 802133a:	bf00      	nop
 802133c:	2000d208 	.word	0x2000d208
 8021340:	40014400 	.word	0x40014400

08021344 <HAL_TIM_Base_MspInit>:

void HAL_TIM_Base_MspInit(TIM_HandleTypeDef* tim_baseHandle)
{
 8021344:	b500      	push	{lr}
 8021346:	b085      	sub	sp, #20

  if(tim_baseHandle->Instance==TIM6)
 8021348:	6803      	ldr	r3, [r0, #0]
 802134a:	4a20      	ldr	r2, [pc, #128]	; (80213cc <HAL_TIM_Base_MspInit+0x88>)
 802134c:	4293      	cmp	r3, r2
 802134e:	d008      	beq.n	8021362 <HAL_TIM_Base_MspInit+0x1e>
    HAL_NVIC_EnableIRQ(TIM6_IRQn);
  /* USER CODE BEGIN TIM6_MspInit 1 */

  /* USER CODE END TIM6_MspInit 1 */
  }
  else if(tim_baseHandle->Instance==TIM7)
 8021350:	4a1f      	ldr	r2, [pc, #124]	; (80213d0 <HAL_TIM_Base_MspInit+0x8c>)
 8021352:	4293      	cmp	r3, r2
 8021354:	d019      	beq.n	802138a <HAL_TIM_Base_MspInit+0x46>
    __HAL_RCC_TIM7_CLK_ENABLE();
  /* USER CODE BEGIN TIM7_MspInit 1 */

  /* USER CODE END TIM7_MspInit 1 */
  }
  else if(tim_baseHandle->Instance==TIM10)
 8021356:	4a1f      	ldr	r2, [pc, #124]	; (80213d4 <HAL_TIM_Base_MspInit+0x90>)
 8021358:	4293      	cmp	r3, r2
 802135a:	d023      	beq.n	80213a4 <HAL_TIM_Base_MspInit+0x60>
    HAL_NVIC_EnableIRQ(TIM1_UP_TIM10_IRQn);
  /* USER CODE BEGIN TIM10_MspInit 1 */

  /* USER CODE END TIM10_MspInit 1 */
  }
}
 802135c:	b005      	add	sp, #20
 802135e:	f85d fb04 	ldr.w	pc, [sp], #4
    __HAL_RCC_TIM6_CLK_ENABLE();
 8021362:	2200      	movs	r2, #0
 8021364:	9201      	str	r2, [sp, #4]
 8021366:	4b1c      	ldr	r3, [pc, #112]	; (80213d8 <HAL_TIM_Base_MspInit+0x94>)
 8021368:	6c19      	ldr	r1, [r3, #64]	; 0x40
 802136a:	f041 0110 	orr.w	r1, r1, #16
 802136e:	6419      	str	r1, [r3, #64]	; 0x40
 8021370:	6c1b      	ldr	r3, [r3, #64]	; 0x40
 8021372:	f003 0310 	and.w	r3, r3, #16
 8021376:	9301      	str	r3, [sp, #4]
 8021378:	9b01      	ldr	r3, [sp, #4]
    HAL_NVIC_SetPriority(TIM6_IRQn, 5, 0);
 802137a:	2105      	movs	r1, #5
 802137c:	2036      	movs	r0, #54	; 0x36
 802137e:	f000 facf 	bl	8021920 <HAL_NVIC_SetPriority>
    HAL_NVIC_EnableIRQ(TIM6_IRQn);
 8021382:	2036      	movs	r0, #54	; 0x36
 8021384:	f000 fb12 	bl	80219ac <HAL_NVIC_EnableIRQ>
 8021388:	e7e8      	b.n	802135c <HAL_TIM_Base_MspInit+0x18>
    __HAL_RCC_TIM7_CLK_ENABLE();
 802138a:	2300      	movs	r3, #0
 802138c:	9302      	str	r3, [sp, #8]
 802138e:	4b12      	ldr	r3, [pc, #72]	; (80213d8 <HAL_TIM_Base_MspInit+0x94>)
 8021390:	6c1a      	ldr	r2, [r3, #64]	; 0x40
 8021392:	f042 0220 	orr.w	r2, r2, #32
 8021396:	641a      	str	r2, [r3, #64]	; 0x40
 8021398:	6c1b      	ldr	r3, [r3, #64]	; 0x40
 802139a:	f003 0320 	and.w	r3, r3, #32
 802139e:	9302      	str	r3, [sp, #8]
 80213a0:	9b02      	ldr	r3, [sp, #8]
 80213a2:	e7db      	b.n	802135c <HAL_TIM_Base_MspInit+0x18>
    __HAL_RCC_TIM10_CLK_ENABLE();
 80213a4:	2200      	movs	r2, #0
 80213a6:	9203      	str	r2, [sp, #12]
 80213a8:	4b0b      	ldr	r3, [pc, #44]	; (80213d8 <HAL_TIM_Base_MspInit+0x94>)
 80213aa:	6c59      	ldr	r1, [r3, #68]	; 0x44
 80213ac:	f441 3100 	orr.w	r1, r1, #131072	; 0x20000
 80213b0:	6459      	str	r1, [r3, #68]	; 0x44
 80213b2:	6c5b      	ldr	r3, [r3, #68]	; 0x44
 80213b4:	f403 3300 	and.w	r3, r3, #131072	; 0x20000
 80213b8:	9303      	str	r3, [sp, #12]
 80213ba:	9b03      	ldr	r3, [sp, #12]
    HAL_NVIC_SetPriority(TIM1_UP_TIM10_IRQn, 5, 0);
 80213bc:	2105      	movs	r1, #5
 80213be:	2019      	movs	r0, #25
 80213c0:	f000 faae 	bl	8021920 <HAL_NVIC_SetPriority>
    HAL_NVIC_EnableIRQ(TIM1_UP_TIM10_IRQn);
 80213c4:	2019      	movs	r0, #25
 80213c6:	f000 faf1 	bl	80219ac <HAL_NVIC_EnableIRQ>
}
 80213ca:	e7c7      	b.n	802135c <HAL_TIM_Base_MspInit+0x18>
 80213cc:	40001000 	.word	0x40001000
 80213d0:	40001400 	.word	0x40001400
 80213d4:	40014400 	.word	0x40014400
 80213d8:	40023800 	.word	0x40023800

080213dc <MX_USART1_UART_Init>:
DMA_HandleTypeDef hdma_usart6_tx;

/* USART1 init function */

void MX_USART1_UART_Init(void)
{
 80213dc:	b508      	push	{r3, lr}
  /* USER CODE END USART1_Init 0 */

  /* USER CODE BEGIN USART1_Init 1 */

  /* USER CODE END USART1_Init 1 */
  huart1.Instance = USART1;
 80213de:	480a      	ldr	r0, [pc, #40]	; (8021408 <MX_USART1_UART_Init+0x2c>)
 80213e0:	4b0a      	ldr	r3, [pc, #40]	; (802140c <MX_USART1_UART_Init+0x30>)
 80213e2:	6003      	str	r3, [r0, #0]
  huart1.Init.BaudRate = 115200;
 80213e4:	f44f 33e1 	mov.w	r3, #115200	; 0x1c200
 80213e8:	6043      	str	r3, [r0, #4]
  huart1.Init.WordLength = UART_WORDLENGTH_8B;
 80213ea:	2300      	movs	r3, #0
 80213ec:	6083      	str	r3, [r0, #8]
  huart1.Init.StopBits = UART_STOPBITS_1;
 80213ee:	60c3      	str	r3, [r0, #12]
  huart1.Init.Parity = UART_PARITY_NONE;
 80213f0:	6103      	str	r3, [r0, #16]
  huart1.Init.Mode = UART_MODE_TX_RX;
 80213f2:	220c      	movs	r2, #12
 80213f4:	6142      	str	r2, [r0, #20]
  huart1.Init.HwFlowCtl = UART_HWCONTROL_NONE;
 80213f6:	6183      	str	r3, [r0, #24]
  huart1.Init.OverSampling = UART_OVERSAMPLING_16;
 80213f8:	61c3      	str	r3, [r0, #28]
  if (HAL_UART_Init(&huart1) != HAL_OK)
 80213fa:	f003 f8b5 	bl	8024568 <HAL_UART_Init>
 80213fe:	b900      	cbnz	r0, 8021402 <MX_USART1_UART_Init+0x26>
  }
  /* USER CODE BEGIN USART1_Init 2 */

  /* USER CODE END USART1_Init 2 */

}
 8021400:	bd08      	pop	{r3, pc}
    Error_Handler();
 8021402:	f7ff fd09 	bl	8020e18 <Error_Handler>
}
 8021406:	e7fb      	b.n	8021400 <MX_USART1_UART_Init+0x24>
 8021408:	2000d564 	.word	0x2000d564
 802140c:	40011000 	.word	0x40011000

08021410 <MX_USART3_UART_Init>:
/* USART3 init function */

void MX_USART3_UART_Init(void)
{
 8021410:	b508      	push	{r3, lr}
  /* USER CODE END USART3_Init 0 */

  /* USER CODE BEGIN USART3_Init 1 */

  /* USER CODE END USART3_Init 1 */
  huart3.Instance = USART3;
 8021412:	480a      	ldr	r0, [pc, #40]	; (802143c <MX_USART3_UART_Init+0x2c>)
 8021414:	4b0a      	ldr	r3, [pc, #40]	; (8021440 <MX_USART3_UART_Init+0x30>)
 8021416:	6003      	str	r3, [r0, #0]
  huart3.Init.BaudRate = 9600;
 8021418:	f44f 5316 	mov.w	r3, #9600	; 0x2580
 802141c:	6043      	str	r3, [r0, #4]
  huart3.Init.WordLength = UART_WORDLENGTH_8B;
 802141e:	2300      	movs	r3, #0
 8021420:	6083      	str	r3, [r0, #8]
  huart3.Init.StopBits = UART_STOPBITS_1;
 8021422:	60c3      	str	r3, [r0, #12]
  huart3.Init.Parity = UART_PARITY_NONE;
 8021424:	6103      	str	r3, [r0, #16]
  huart3.Init.Mode = UART_MODE_TX_RX;
 8021426:	220c      	movs	r2, #12
 8021428:	6142      	str	r2, [r0, #20]
  huart3.Init.HwFlowCtl = UART_HWCONTROL_NONE;
 802142a:	6183      	str	r3, [r0, #24]
  huart3.Init.OverSampling = UART_OVERSAMPLING_16;
 802142c:	61c3      	str	r3, [r0, #28]
  if (HAL_UART_Init(&huart3) != HAL_OK)
 802142e:	f003 f89b 	bl	8024568 <HAL_UART_Init>
 8021432:	b900      	cbnz	r0, 8021436 <MX_USART3_UART_Init+0x26>
  }
  /* USER CODE BEGIN USART3_Init 2 */

  /* USER CODE END USART3_Init 2 */

}
 8021434:	bd08      	pop	{r3, pc}
    Error_Handler();
 8021436:	f7ff fcef 	bl	8020e18 <Error_Handler>
}
 802143a:	e7fb      	b.n	8021434 <MX_USART3_UART_Init+0x24>
 802143c:	2000d3a0 	.word	0x2000d3a0
 8021440:	40004800 	.word	0x40004800

08021444 <MX_USART6_UART_Init>:
/* USART6 init function */

void MX_USART6_UART_Init(void)
{
 8021444:	b508      	push	{r3, lr}
  /* USER CODE END USART6_Init 0 */

  /* USER CODE BEGIN USART6_Init 1 */

  /* USER CODE END USART6_Init 1 */
  huart6.Instance = USART6;
 8021446:	480a      	ldr	r0, [pc, #40]	; (8021470 <MX_USART6_UART_Init+0x2c>)
 8021448:	4b0a      	ldr	r3, [pc, #40]	; (8021474 <MX_USART6_UART_Init+0x30>)
 802144a:	6003      	str	r3, [r0, #0]
  huart6.Init.BaudRate = 9600;
 802144c:	f44f 5316 	mov.w	r3, #9600	; 0x2580
 8021450:	6043      	str	r3, [r0, #4]
  huart6.Init.WordLength = UART_WORDLENGTH_8B;
 8021452:	2300      	movs	r3, #0
 8021454:	6083      	str	r3, [r0, #8]
  huart6.Init.StopBits = UART_STOPBITS_1;
 8021456:	60c3      	str	r3, [r0, #12]
  huart6.Init.Parity = UART_PARITY_NONE;
 8021458:	6103      	str	r3, [r0, #16]
  huart6.Init.Mode = UART_MODE_TX_RX;
 802145a:	220c      	movs	r2, #12
 802145c:	6142      	str	r2, [r0, #20]
  huart6.Init.HwFlowCtl = UART_HWCONTROL_NONE;
 802145e:	6183      	str	r3, [r0, #24]
  huart6.Init.OverSampling = UART_OVERSAMPLING_16;
 8021460:	61c3      	str	r3, [r0, #28]
  if (HAL_UART_Init(&huart6) != HAL_OK)
 8021462:	f003 f881 	bl	8024568 <HAL_UART_Init>
 8021466:	b900      	cbnz	r0, 802146a <MX_USART6_UART_Init+0x26>
  }
  /* USER CODE BEGIN USART6_Init 2 */

  /* USER CODE END USART6_Init 2 */

}
 8021468:	bd08      	pop	{r3, pc}
    Error_Handler();
 802146a:	f7ff fcd5 	bl	8020e18 <Error_Handler>
}
 802146e:	e7fb      	b.n	8021468 <MX_USART6_UART_Init+0x24>
 8021470:	2000d5a8 	.word	0x2000d5a8
 8021474:	40011400 	.word	0x40011400

08021478 <HAL_UART_MspInit>:

void HAL_UART_MspInit(UART_HandleTypeDef* uartHandle)
{
 8021478:	e92d 47f0 	stmdb	sp!, {r4, r5, r6, r7, r8, r9, sl, lr}
 802147c:	b08c      	sub	sp, #48	; 0x30
 802147e:	4604      	mov	r4, r0

  GPIO_InitTypeDef GPIO_InitStruct = {0};
 8021480:	2300      	movs	r3, #0
 8021482:	9307      	str	r3, [sp, #28]
 8021484:	9308      	str	r3, [sp, #32]
 8021486:	9309      	str	r3, [sp, #36]	; 0x24
 8021488:	930a      	str	r3, [sp, #40]	; 0x28
 802148a:	930b      	str	r3, [sp, #44]	; 0x2c
  if(uartHandle->Instance==USART1)
 802148c:	6803      	ldr	r3, [r0, #0]
 802148e:	4a7e      	ldr	r2, [pc, #504]	; (8021688 <HAL_UART_MspInit+0x210>)
 8021490:	4293      	cmp	r3, r2
 8021492:	d009      	beq.n	80214a8 <HAL_UART_MspInit+0x30>
    HAL_NVIC_EnableIRQ(USART1_IRQn);
  /* USER CODE BEGIN USART1_MspInit 1 */

  /* USER CODE END USART1_MspInit 1 */
  }
  else if(uartHandle->Instance==USART3)
 8021494:	4a7d      	ldr	r2, [pc, #500]	; (802168c <HAL_UART_MspInit+0x214>)
 8021496:	4293      	cmp	r3, r2
 8021498:	d07b      	beq.n	8021592 <HAL_UART_MspInit+0x11a>
    HAL_NVIC_EnableIRQ(USART3_IRQn);
  /* USER CODE BEGIN USART3_MspInit 1 */

  /* USER CODE END USART3_MspInit 1 */
  }
  else if(uartHandle->Instance==USART6)
 802149a:	4a7d      	ldr	r2, [pc, #500]	; (8021690 <HAL_UART_MspInit+0x218>)
 802149c:	4293      	cmp	r3, r2
 802149e:	f000 8111 	beq.w	80216c4 <HAL_UART_MspInit+0x24c>
    HAL_NVIC_EnableIRQ(USART6_IRQn);
  /* USER CODE BEGIN USART6_MspInit 1 */

  /* USER CODE END USART6_MspInit 1 */
  }
}
 80214a2:	b00c      	add	sp, #48	; 0x30
 80214a4:	e8bd 87f0 	ldmia.w	sp!, {r4, r5, r6, r7, r8, r9, sl, pc}
    __HAL_RCC_USART1_CLK_ENABLE();
 80214a8:	2500      	movs	r5, #0
 80214aa:	9500      	str	r5, [sp, #0]
 80214ac:	4b79      	ldr	r3, [pc, #484]	; (8021694 <HAL_UART_MspInit+0x21c>)
 80214ae:	6c5a      	ldr	r2, [r3, #68]	; 0x44
 80214b0:	f042 0210 	orr.w	r2, r2, #16
 80214b4:	645a      	str	r2, [r3, #68]	; 0x44
 80214b6:	6c5a      	ldr	r2, [r3, #68]	; 0x44
 80214b8:	f002 0210 	and.w	r2, r2, #16
 80214bc:	9200      	str	r2, [sp, #0]
 80214be:	9a00      	ldr	r2, [sp, #0]
    __HAL_RCC_GPIOA_CLK_ENABLE();
 80214c0:	9501      	str	r5, [sp, #4]
 80214c2:	6b1a      	ldr	r2, [r3, #48]	; 0x30
 80214c4:	f042 0201 	orr.w	r2, r2, #1
 80214c8:	631a      	str	r2, [r3, #48]	; 0x30
 80214ca:	6b1b      	ldr	r3, [r3, #48]	; 0x30
 80214cc:	f003 0301 	and.w	r3, r3, #1
 80214d0:	9301      	str	r3, [sp, #4]
 80214d2:	9b01      	ldr	r3, [sp, #4]
    GPIO_InitStruct.Pin = GPIO_PIN_9;
 80214d4:	f44f 7300 	mov.w	r3, #512	; 0x200
 80214d8:	9307      	str	r3, [sp, #28]
    GPIO_InitStruct.Mode = GPIO_MODE_AF_PP;
 80214da:	f04f 0a02 	mov.w	sl, #2
 80214de:	f8cd a020 	str.w	sl, [sp, #32]
    GPIO_InitStruct.Pull = GPIO_NOPULL;
 80214e2:	9509      	str	r5, [sp, #36]	; 0x24
    GPIO_InitStruct.Speed = GPIO_SPEED_FREQ_VERY_HIGH;
 80214e4:	f04f 0903 	mov.w	r9, #3
 80214e8:	f8cd 9028 	str.w	r9, [sp, #40]	; 0x28
    GPIO_InitStruct.Alternate = GPIO_AF7_USART1;
 80214ec:	f04f 0807 	mov.w	r8, #7
 80214f0:	f8cd 802c 	str.w	r8, [sp, #44]	; 0x2c
    HAL_GPIO_Init(GPIOA, &GPIO_InitStruct);
 80214f4:	4f68      	ldr	r7, [pc, #416]	; (8021698 <HAL_UART_MspInit+0x220>)
 80214f6:	a907      	add	r1, sp, #28
 80214f8:	4638      	mov	r0, r7
 80214fa:	f001 f849 	bl	8022590 <HAL_GPIO_Init>
    GPIO_InitStruct.Pin = GPIO_PIN_10;
 80214fe:	f44f 6680 	mov.w	r6, #1024	; 0x400
 8021502:	9607      	str	r6, [sp, #28]
    GPIO_InitStruct.Mode = GPIO_MODE_AF_PP;
 8021504:	f8cd a020 	str.w	sl, [sp, #32]
    GPIO_InitStruct.Pull = GPIO_PULLUP;
 8021508:	2301      	movs	r3, #1
 802150a:	9309      	str	r3, [sp, #36]	; 0x24
    GPIO_InitStruct.Speed = GPIO_SPEED_FREQ_VERY_HIGH;
 802150c:	f8cd 9028 	str.w	r9, [sp, #40]	; 0x28
    GPIO_InitStruct.Alternate = GPIO_AF7_USART1;
 8021510:	f8cd 802c 	str.w	r8, [sp, #44]	; 0x2c
    HAL_GPIO_Init(GPIOA, &GPIO_InitStruct);
 8021514:	a907      	add	r1, sp, #28
 8021516:	4638      	mov	r0, r7
 8021518:	f001 f83a 	bl	8022590 <HAL_GPIO_Init>
    hdma_usart1_rx.Instance = DMA2_Stream2;
 802151c:	485f      	ldr	r0, [pc, #380]	; (802169c <HAL_UART_MspInit+0x224>)
 802151e:	4b60      	ldr	r3, [pc, #384]	; (80216a0 <HAL_UART_MspInit+0x228>)
 8021520:	6003      	str	r3, [r0, #0]
    hdma_usart1_rx.Init.Channel = DMA_CHANNEL_4;
 8021522:	f04f 6300 	mov.w	r3, #134217728	; 0x8000000
 8021526:	6043      	str	r3, [r0, #4]
    hdma_usart1_rx.Init.Direction = DMA_PERIPH_TO_MEMORY;
 8021528:	6085      	str	r5, [r0, #8]
    hdma_usart1_rx.Init.PeriphInc = DMA_PINC_DISABLE;
 802152a:	60c5      	str	r5, [r0, #12]
    hdma_usart1_rx.Init.MemInc = DMA_MINC_ENABLE;
 802152c:	6106      	str	r6, [r0, #16]
    hdma_usart1_rx.Init.PeriphDataAlignment = DMA_PDATAALIGN_BYTE;
 802152e:	6145      	str	r5, [r0, #20]
    hdma_usart1_rx.Init.MemDataAlignment = DMA_MDATAALIGN_BYTE;
 8021530:	6185      	str	r5, [r0, #24]
    hdma_usart1_rx.Init.Mode = DMA_NORMAL;
 8021532:	61c5      	str	r5, [r0, #28]
    hdma_usart1_rx.Init.Priority = DMA_PRIORITY_LOW;
 8021534:	6205      	str	r5, [r0, #32]
    hdma_usart1_rx.Init.FIFOMode = DMA_FIFOMODE_DISABLE;
 8021536:	6245      	str	r5, [r0, #36]	; 0x24
    if (HAL_DMA_Init(&hdma_usart1_rx) != HAL_OK)
 8021538:	f000 fad0 	bl	8021adc <HAL_DMA_Init>
 802153c:	bb18      	cbnz	r0, 8021586 <HAL_UART_MspInit+0x10e>
    __HAL_LINKDMA(uartHandle,hdmarx,hdma_usart1_rx);
 802153e:	4b57      	ldr	r3, [pc, #348]	; (802169c <HAL_UART_MspInit+0x224>)
 8021540:	63a3      	str	r3, [r4, #56]	; 0x38
 8021542:	639c      	str	r4, [r3, #56]	; 0x38
    hdma_usart1_tx.Instance = DMA2_Stream7;
 8021544:	4857      	ldr	r0, [pc, #348]	; (80216a4 <HAL_UART_MspInit+0x22c>)
 8021546:	4b58      	ldr	r3, [pc, #352]	; (80216a8 <HAL_UART_MspInit+0x230>)
 8021548:	6003      	str	r3, [r0, #0]
    hdma_usart1_tx.Init.Channel = DMA_CHANNEL_4;
 802154a:	f04f 6300 	mov.w	r3, #134217728	; 0x8000000
 802154e:	6043      	str	r3, [r0, #4]
    hdma_usart1_tx.Init.Direction = DMA_MEMORY_TO_PERIPH;
 8021550:	2340      	movs	r3, #64	; 0x40
 8021552:	6083      	str	r3, [r0, #8]
    hdma_usart1_tx.Init.PeriphInc = DMA_PINC_DISABLE;
 8021554:	2300      	movs	r3, #0
 8021556:	60c3      	str	r3, [r0, #12]
    hdma_usart1_tx.Init.MemInc = DMA_MINC_ENABLE;
 8021558:	f44f 6280 	mov.w	r2, #1024	; 0x400
 802155c:	6102      	str	r2, [r0, #16]
    hdma_usart1_tx.Init.PeriphDataAlignment = DMA_PDATAALIGN_BYTE;
 802155e:	6143      	str	r3, [r0, #20]
    hdma_usart1_tx.Init.MemDataAlignment = DMA_MDATAALIGN_BYTE;
 8021560:	6183      	str	r3, [r0, #24]
    hdma_usart1_tx.Init.Mode = DMA_NORMAL;
 8021562:	61c3      	str	r3, [r0, #28]
    hdma_usart1_tx.Init.Priority = DMA_PRIORITY_LOW;
 8021564:	6203      	str	r3, [r0, #32]
    hdma_usart1_tx.Init.FIFOMode = DMA_FIFOMODE_DISABLE;
 8021566:	6243      	str	r3, [r0, #36]	; 0x24
    if (HAL_DMA_Init(&hdma_usart1_tx) != HAL_OK)
 8021568:	f000 fab8 	bl	8021adc <HAL_DMA_Init>
 802156c:	b970      	cbnz	r0, 802158c <HAL_UART_MspInit+0x114>
    __HAL_LINKDMA(uartHandle,hdmatx,hdma_usart1_tx);
 802156e:	4b4d      	ldr	r3, [pc, #308]	; (80216a4 <HAL_UART_MspInit+0x22c>)
 8021570:	6363      	str	r3, [r4, #52]	; 0x34
 8021572:	639c      	str	r4, [r3, #56]	; 0x38
    HAL_NVIC_SetPriority(USART1_IRQn, 5, 0);
 8021574:	2200      	movs	r2, #0
 8021576:	2105      	movs	r1, #5
 8021578:	2025      	movs	r0, #37	; 0x25
 802157a:	f000 f9d1 	bl	8021920 <HAL_NVIC_SetPriority>
    HAL_NVIC_EnableIRQ(USART1_IRQn);
 802157e:	2025      	movs	r0, #37	; 0x25
 8021580:	f000 fa14 	bl	80219ac <HAL_NVIC_EnableIRQ>
 8021584:	e78d      	b.n	80214a2 <HAL_UART_MspInit+0x2a>
      Error_Handler();
 8021586:	f7ff fc47 	bl	8020e18 <Error_Handler>
 802158a:	e7d8      	b.n	802153e <HAL_UART_MspInit+0xc6>
      Error_Handler();
 802158c:	f7ff fc44 	bl	8020e18 <Error_Handler>
 8021590:	e7ed      	b.n	802156e <HAL_UART_MspInit+0xf6>
    __HAL_RCC_USART3_CLK_ENABLE();
 8021592:	2500      	movs	r5, #0
 8021594:	9502      	str	r5, [sp, #8]
 8021596:	4b3f      	ldr	r3, [pc, #252]	; (8021694 <HAL_UART_MspInit+0x21c>)
 8021598:	6c1a      	ldr	r2, [r3, #64]	; 0x40
 802159a:	f442 2280 	orr.w	r2, r2, #262144	; 0x40000
 802159e:	641a      	str	r2, [r3, #64]	; 0x40
 80215a0:	6c1a      	ldr	r2, [r3, #64]	; 0x40
 80215a2:	f402 2280 	and.w	r2, r2, #262144	; 0x40000
 80215a6:	9202      	str	r2, [sp, #8]
 80215a8:	9a02      	ldr	r2, [sp, #8]
    __HAL_RCC_GPIOC_CLK_ENABLE();
 80215aa:	9503      	str	r5, [sp, #12]
 80215ac:	6b1a      	ldr	r2, [r3, #48]	; 0x30
 80215ae:	f042 0204 	orr.w	r2, r2, #4
 80215b2:	631a      	str	r2, [r3, #48]	; 0x30
 80215b4:	6b1a      	ldr	r2, [r3, #48]	; 0x30
 80215b6:	f002 0204 	and.w	r2, r2, #4
 80215ba:	9203      	str	r2, [sp, #12]
 80215bc:	9a03      	ldr	r2, [sp, #12]
    __HAL_RCC_GPIOB_CLK_ENABLE();
 80215be:	9504      	str	r5, [sp, #16]
 80215c0:	6b1a      	ldr	r2, [r3, #48]	; 0x30
 80215c2:	f042 0202 	orr.w	r2, r2, #2
 80215c6:	631a      	str	r2, [r3, #48]	; 0x30
 80215c8:	6b1b      	ldr	r3, [r3, #48]	; 0x30
 80215ca:	f003 0302 	and.w	r3, r3, #2
 80215ce:	9304      	str	r3, [sp, #16]
 80215d0:	9b04      	ldr	r3, [sp, #16]
    GPIO_InitStruct.Pin = GPIO_PIN_5;
 80215d2:	2320      	movs	r3, #32
 80215d4:	9307      	str	r3, [sp, #28]
    GPIO_InitStruct.Mode = GPIO_MODE_AF_PP;
 80215d6:	f04f 0902 	mov.w	r9, #2
 80215da:	f8cd 9020 	str.w	r9, [sp, #32]
    GPIO_InitStruct.Pull = GPIO_PULLUP;
 80215de:	2301      	movs	r3, #1
 80215e0:	9309      	str	r3, [sp, #36]	; 0x24
    GPIO_InitStruct.Speed = GPIO_SPEED_FREQ_VERY_HIGH;
 80215e2:	f04f 0803 	mov.w	r8, #3
 80215e6:	f8cd 8028 	str.w	r8, [sp, #40]	; 0x28
    GPIO_InitStruct.Alternate = GPIO_AF7_USART3;
 80215ea:	2707      	movs	r7, #7
 80215ec:	970b      	str	r7, [sp, #44]	; 0x2c
    HAL_GPIO_Init(GPIOC, &GPIO_InitStruct);
 80215ee:	a907      	add	r1, sp, #28
 80215f0:	482e      	ldr	r0, [pc, #184]	; (80216ac <HAL_UART_MspInit+0x234>)
 80215f2:	f000 ffcd 	bl	8022590 <HAL_GPIO_Init>
    GPIO_InitStruct.Pin = GPIO_PIN_10;
 80215f6:	f44f 6680 	mov.w	r6, #1024	; 0x400
 80215fa:	9607      	str	r6, [sp, #28]
    GPIO_InitStruct.Mode = GPIO_MODE_AF_PP;
 80215fc:	f8cd 9020 	str.w	r9, [sp, #32]
    GPIO_InitStruct.Pull = GPIO_NOPULL;
 8021600:	9509      	str	r5, [sp, #36]	; 0x24
    GPIO_InitStruct.Speed = GPIO_SPEED_FREQ_VERY_HIGH;
 8021602:	f8cd 8028 	str.w	r8, [sp, #40]	; 0x28
    GPIO_InitStruct.Alternate = GPIO_AF7_USART3;
 8021606:	970b      	str	r7, [sp, #44]	; 0x2c
    HAL_GPIO_Init(GPIOB, &GPIO_InitStruct);
 8021608:	a907      	add	r1, sp, #28
 802160a:	4829      	ldr	r0, [pc, #164]	; (80216b0 <HAL_UART_MspInit+0x238>)
 802160c:	f000 ffc0 	bl	8022590 <HAL_GPIO_Init>
    hdma_usart3_rx.Instance = DMA1_Stream1;
 8021610:	4828      	ldr	r0, [pc, #160]	; (80216b4 <HAL_UART_MspInit+0x23c>)
 8021612:	4b29      	ldr	r3, [pc, #164]	; (80216b8 <HAL_UART_MspInit+0x240>)
 8021614:	6003      	str	r3, [r0, #0]
    hdma_usart3_rx.Init.Channel = DMA_CHANNEL_4;
 8021616:	f04f 6300 	mov.w	r3, #134217728	; 0x8000000
 802161a:	6043      	str	r3, [r0, #4]
    hdma_usart3_rx.Init.Direction = DMA_PERIPH_TO_MEMORY;
 802161c:	6085      	str	r5, [r0, #8]
    hdma_usart3_rx.Init.PeriphInc = DMA_PINC_DISABLE;
 802161e:	60c5      	str	r5, [r0, #12]
    hdma_usart3_rx.Init.MemInc = DMA_MINC_ENABLE;
 8021620:	6106      	str	r6, [r0, #16]
    hdma_usart3_rx.Init.PeriphDataAlignment = DMA_PDATAALIGN_BYTE;
 8021622:	6145      	str	r5, [r0, #20]
    hdma_usart3_rx.Init.MemDataAlignment = DMA_MDATAALIGN_BYTE;
 8021624:	6185      	str	r5, [r0, #24]
    hdma_usart3_rx.Init.Mode = DMA_NORMAL;
 8021626:	61c5      	str	r5, [r0, #28]
    hdma_usart3_rx.Init.Priority = DMA_PRIORITY_LOW;
 8021628:	6205      	str	r5, [r0, #32]
    hdma_usart3_rx.Init.FIFOMode = DMA_FIFOMODE_DISABLE;
 802162a:	6245      	str	r5, [r0, #36]	; 0x24
    if (HAL_DMA_Init(&hdma_usart3_rx) != HAL_OK)
 802162c:	f000 fa56 	bl	8021adc <HAL_DMA_Init>
 8021630:	bb18      	cbnz	r0, 802167a <HAL_UART_MspInit+0x202>
    __HAL_LINKDMA(uartHandle,hdmarx,hdma_usart3_rx);
 8021632:	4b20      	ldr	r3, [pc, #128]	; (80216b4 <HAL_UART_MspInit+0x23c>)
 8021634:	63a3      	str	r3, [r4, #56]	; 0x38
 8021636:	639c      	str	r4, [r3, #56]	; 0x38
    hdma_usart3_tx.Instance = DMA1_Stream3;
 8021638:	4820      	ldr	r0, [pc, #128]	; (80216bc <HAL_UART_MspInit+0x244>)
 802163a:	4b21      	ldr	r3, [pc, #132]	; (80216c0 <HAL_UART_MspInit+0x248>)
 802163c:	6003      	str	r3, [r0, #0]
    hdma_usart3_tx.Init.Channel = DMA_CHANNEL_4;
 802163e:	f04f 6300 	mov.w	r3, #134217728	; 0x8000000
 8021642:	6043      	str	r3, [r0, #4]
    hdma_usart3_tx.Init.Direction = DMA_MEMORY_TO_PERIPH;
 8021644:	2340      	movs	r3, #64	; 0x40
 8021646:	6083      	str	r3, [r0, #8]
    hdma_usart3_tx.Init.PeriphInc = DMA_PINC_DISABLE;
 8021648:	2300      	movs	r3, #0
 802164a:	60c3      	str	r3, [r0, #12]
    hdma_usart3_tx.Init.MemInc = DMA_MINC_ENABLE;
 802164c:	f44f 6280 	mov.w	r2, #1024	; 0x400
 8021650:	6102      	str	r2, [r0, #16]
    hdma_usart3_tx.Init.PeriphDataAlignment = DMA_PDATAALIGN_BYTE;
 8021652:	6143      	str	r3, [r0, #20]
    hdma_usart3_tx.Init.MemDataAlignment = DMA_MDATAALIGN_BYTE;
 8021654:	6183      	str	r3, [r0, #24]
    hdma_usart3_tx.Init.Mode = DMA_NORMAL;
 8021656:	61c3      	str	r3, [r0, #28]
    hdma_usart3_tx.Init.Priority = DMA_PRIORITY_LOW;
 8021658:	6203      	str	r3, [r0, #32]
    hdma_usart3_tx.Init.FIFOMode = DMA_FIFOMODE_DISABLE;
 802165a:	6243      	str	r3, [r0, #36]	; 0x24
    if (HAL_DMA_Init(&hdma_usart3_tx) != HAL_OK)
 802165c:	f000 fa3e 	bl	8021adc <HAL_DMA_Init>
 8021660:	b970      	cbnz	r0, 8021680 <HAL_UART_MspInit+0x208>
    __HAL_LINKDMA(uartHandle,hdmatx,hdma_usart3_tx);
 8021662:	4b16      	ldr	r3, [pc, #88]	; (80216bc <HAL_UART_MspInit+0x244>)
 8021664:	6363      	str	r3, [r4, #52]	; 0x34
 8021666:	639c      	str	r4, [r3, #56]	; 0x38
    HAL_NVIC_SetPriority(USART3_IRQn, 5, 0);
 8021668:	2200      	movs	r2, #0
 802166a:	2105      	movs	r1, #5
 802166c:	2027      	movs	r0, #39	; 0x27
 802166e:	f000 f957 	bl	8021920 <HAL_NVIC_SetPriority>
    HAL_NVIC_EnableIRQ(USART3_IRQn);
 8021672:	2027      	movs	r0, #39	; 0x27
 8021674:	f000 f99a 	bl	80219ac <HAL_NVIC_EnableIRQ>
 8021678:	e713      	b.n	80214a2 <HAL_UART_MspInit+0x2a>
      Error_Handler();
 802167a:	f7ff fbcd 	bl	8020e18 <Error_Handler>
 802167e:	e7d8      	b.n	8021632 <HAL_UART_MspInit+0x1ba>
      Error_Handler();
 8021680:	f7ff fbca 	bl	8020e18 <Error_Handler>
 8021684:	e7ed      	b.n	8021662 <HAL_UART_MspInit+0x1ea>
 8021686:	bf00      	nop
 8021688:	40011000 	.word	0x40011000
 802168c:	40004800 	.word	0x40004800
 8021690:	40011400 	.word	0x40011400
 8021694:	40023800 	.word	0x40023800
 8021698:	40020000 	.word	0x40020000
 802169c:	2000d504 	.word	0x2000d504
 80216a0:	40026440 	.word	0x40026440
 80216a4:	2000d444 	.word	0x2000d444
 80216a8:	400264b8 	.word	0x400264b8
 80216ac:	40020800 	.word	0x40020800
 80216b0:	40020400 	.word	0x40020400
 80216b4:	2000d340 	.word	0x2000d340
 80216b8:	40026028 	.word	0x40026028
 80216bc:	2000d3e4 	.word	0x2000d3e4
 80216c0:	40026058 	.word	0x40026058
    __HAL_RCC_USART6_CLK_ENABLE();
 80216c4:	2500      	movs	r5, #0
 80216c6:	9505      	str	r5, [sp, #20]
 80216c8:	4b37      	ldr	r3, [pc, #220]	; (80217a8 <HAL_UART_MspInit+0x330>)
 80216ca:	6c5a      	ldr	r2, [r3, #68]	; 0x44
 80216cc:	f042 0220 	orr.w	r2, r2, #32
 80216d0:	645a      	str	r2, [r3, #68]	; 0x44
 80216d2:	6c5a      	ldr	r2, [r3, #68]	; 0x44
 80216d4:	f002 0220 	and.w	r2, r2, #32
 80216d8:	9205      	str	r2, [sp, #20]
 80216da:	9a05      	ldr	r2, [sp, #20]
    __HAL_RCC_GPIOC_CLK_ENABLE();
 80216dc:	9506      	str	r5, [sp, #24]
 80216de:	6b1a      	ldr	r2, [r3, #48]	; 0x30
 80216e0:	f042 0204 	orr.w	r2, r2, #4
 80216e4:	631a      	str	r2, [r3, #48]	; 0x30
 80216e6:	6b1b      	ldr	r3, [r3, #48]	; 0x30
 80216e8:	f003 0304 	and.w	r3, r3, #4
 80216ec:	9306      	str	r3, [sp, #24]
 80216ee:	9b06      	ldr	r3, [sp, #24]
    GPIO_InitStruct.Pin = GPIO_PIN_6;
 80216f0:	2340      	movs	r3, #64	; 0x40
 80216f2:	9307      	str	r3, [sp, #28]
    GPIO_InitStruct.Mode = GPIO_MODE_AF_PP;
 80216f4:	f04f 0902 	mov.w	r9, #2
 80216f8:	f8cd 9020 	str.w	r9, [sp, #32]
    GPIO_InitStruct.Pull = GPIO_NOPULL;
 80216fc:	9509      	str	r5, [sp, #36]	; 0x24
    GPIO_InitStruct.Speed = GPIO_SPEED_FREQ_VERY_HIGH;
 80216fe:	f04f 0803 	mov.w	r8, #3
 8021702:	f8cd 8028 	str.w	r8, [sp, #40]	; 0x28
    GPIO_InitStruct.Alternate = GPIO_AF8_USART6;
 8021706:	2708      	movs	r7, #8
 8021708:	970b      	str	r7, [sp, #44]	; 0x2c
    HAL_GPIO_Init(GPIOC, &GPIO_InitStruct);
 802170a:	4e28      	ldr	r6, [pc, #160]	; (80217ac <HAL_UART_MspInit+0x334>)
 802170c:	a907      	add	r1, sp, #28
 802170e:	4630      	mov	r0, r6
 8021710:	f000 ff3e 	bl	8022590 <HAL_GPIO_Init>
    GPIO_InitStruct.Pin = GPIO_PIN_7;
 8021714:	2380      	movs	r3, #128	; 0x80
 8021716:	9307      	str	r3, [sp, #28]
    GPIO_InitStruct.Mode = GPIO_MODE_AF_PP;
 8021718:	f8cd 9020 	str.w	r9, [sp, #32]
    GPIO_InitStruct.Pull = GPIO_PULLUP;
 802171c:	2301      	movs	r3, #1
 802171e:	9309      	str	r3, [sp, #36]	; 0x24
    GPIO_InitStruct.Speed = GPIO_SPEED_FREQ_VERY_HIGH;
 8021720:	f8cd 8028 	str.w	r8, [sp, #40]	; 0x28
    GPIO_InitStruct.Alternate = GPIO_AF8_USART6;
 8021724:	970b      	str	r7, [sp, #44]	; 0x2c
    HAL_GPIO_Init(GPIOC, &GPIO_InitStruct);
 8021726:	a907      	add	r1, sp, #28
 8021728:	4630      	mov	r0, r6
 802172a:	f000 ff31 	bl	8022590 <HAL_GPIO_Init>
    hdma_usart6_rx.Instance = DMA2_Stream1;
 802172e:	4820      	ldr	r0, [pc, #128]	; (80217b0 <HAL_UART_MspInit+0x338>)
 8021730:	4b20      	ldr	r3, [pc, #128]	; (80217b4 <HAL_UART_MspInit+0x33c>)
 8021732:	6003      	str	r3, [r0, #0]
    hdma_usart6_rx.Init.Channel = DMA_CHANNEL_5;
 8021734:	f04f 6320 	mov.w	r3, #167772160	; 0xa000000
 8021738:	6043      	str	r3, [r0, #4]
    hdma_usart6_rx.Init.Direction = DMA_PERIPH_TO_MEMORY;
 802173a:	6085      	str	r5, [r0, #8]
    hdma_usart6_rx.Init.PeriphInc = DMA_PINC_DISABLE;
 802173c:	60c5      	str	r5, [r0, #12]
    hdma_usart6_rx.Init.MemInc = DMA_MINC_ENABLE;
 802173e:	f44f 6380 	mov.w	r3, #1024	; 0x400
 8021742:	6103      	str	r3, [r0, #16]
    hdma_usart6_rx.Init.PeriphDataAlignment = DMA_PDATAALIGN_BYTE;
 8021744:	6145      	str	r5, [r0, #20]
    hdma_usart6_rx.Init.MemDataAlignment = DMA_MDATAALIGN_BYTE;
 8021746:	6185      	str	r5, [r0, #24]
    hdma_usart6_rx.Init.Mode = DMA_NORMAL;
 8021748:	61c5      	str	r5, [r0, #28]
    hdma_usart6_rx.Init.Priority = DMA_PRIORITY_LOW;
 802174a:	6205      	str	r5, [r0, #32]
    hdma_usart6_rx.Init.FIFOMode = DMA_FIFOMODE_DISABLE;
 802174c:	6245      	str	r5, [r0, #36]	; 0x24
    if (HAL_DMA_Init(&hdma_usart6_rx) != HAL_OK)
 802174e:	f000 f9c5 	bl	8021adc <HAL_DMA_Init>
 8021752:	bb18      	cbnz	r0, 802179c <HAL_UART_MspInit+0x324>
    __HAL_LINKDMA(uartHandle,hdmarx,hdma_usart6_rx);
 8021754:	4b16      	ldr	r3, [pc, #88]	; (80217b0 <HAL_UART_MspInit+0x338>)
 8021756:	63a3      	str	r3, [r4, #56]	; 0x38
 8021758:	639c      	str	r4, [r3, #56]	; 0x38
    hdma_usart6_tx.Instance = DMA2_Stream6;
 802175a:	4817      	ldr	r0, [pc, #92]	; (80217b8 <HAL_UART_MspInit+0x340>)
 802175c:	4b17      	ldr	r3, [pc, #92]	; (80217bc <HAL_UART_MspInit+0x344>)
 802175e:	6003      	str	r3, [r0, #0]
    hdma_usart6_tx.Init.Channel = DMA_CHANNEL_5;
 8021760:	f04f 6320 	mov.w	r3, #167772160	; 0xa000000
 8021764:	6043      	str	r3, [r0, #4]
    hdma_usart6_tx.Init.Direction = DMA_MEMORY_TO_PERIPH;
 8021766:	2340      	movs	r3, #64	; 0x40
 8021768:	6083      	str	r3, [r0, #8]
    hdma_usart6_tx.Init.PeriphInc = DMA_PINC_DISABLE;
 802176a:	2300      	movs	r3, #0
 802176c:	60c3      	str	r3, [r0, #12]
    hdma_usart6_tx.Init.MemInc = DMA_MINC_ENABLE;
 802176e:	f44f 6280 	mov.w	r2, #1024	; 0x400
 8021772:	6102      	str	r2, [r0, #16]
    hdma_usart6_tx.Init.PeriphDataAlignment = DMA_PDATAALIGN_BYTE;
 8021774:	6143      	str	r3, [r0, #20]
    hdma_usart6_tx.Init.MemDataAlignment = DMA_MDATAALIGN_BYTE;
 8021776:	6183      	str	r3, [r0, #24]
    hdma_usart6_tx.Init.Mode = DMA_NORMAL;
 8021778:	61c3      	str	r3, [r0, #28]
    hdma_usart6_tx.Init.Priority = DMA_PRIORITY_LOW;
 802177a:	6203      	str	r3, [r0, #32]
    hdma_usart6_tx.Init.FIFOMode = DMA_FIFOMODE_DISABLE;
 802177c:	6243      	str	r3, [r0, #36]	; 0x24
    if (HAL_DMA_Init(&hdma_usart6_tx) != HAL_OK)
 802177e:	f000 f9ad 	bl	8021adc <HAL_DMA_Init>
 8021782:	b970      	cbnz	r0, 80217a2 <HAL_UART_MspInit+0x32a>
    __HAL_LINKDMA(uartHandle,hdmatx,hdma_usart6_tx);
 8021784:	4b0c      	ldr	r3, [pc, #48]	; (80217b8 <HAL_UART_MspInit+0x340>)
 8021786:	6363      	str	r3, [r4, #52]	; 0x34
 8021788:	639c      	str	r4, [r3, #56]	; 0x38
    HAL_NVIC_SetPriority(USART6_IRQn, 5, 0);
 802178a:	2200      	movs	r2, #0
 802178c:	2105      	movs	r1, #5
 802178e:	2047      	movs	r0, #71	; 0x47
 8021790:	f000 f8c6 	bl	8021920 <HAL_NVIC_SetPriority>
    HAL_NVIC_EnableIRQ(USART6_IRQn);
 8021794:	2047      	movs	r0, #71	; 0x47
 8021796:	f000 f909 	bl	80219ac <HAL_NVIC_EnableIRQ>
}
 802179a:	e682      	b.n	80214a2 <HAL_UART_MspInit+0x2a>
      Error_Handler();
 802179c:	f7ff fb3c 	bl	8020e18 <Error_Handler>
 80217a0:	e7d8      	b.n	8021754 <HAL_UART_MspInit+0x2dc>
      Error_Handler();
 80217a2:	f7ff fb39 	bl	8020e18 <Error_Handler>
 80217a6:	e7ed      	b.n	8021784 <HAL_UART_MspInit+0x30c>
 80217a8:	40023800 	.word	0x40023800
 80217ac:	40020800 	.word	0x40020800
 80217b0:	2000d2e0 	.word	0x2000d2e0
 80217b4:	40026428 	.word	0x40026428
 80217b8:	2000d4a4 	.word	0x2000d4a4
 80217bc:	400264a0 	.word	0x400264a0

080217c0 <Reset_Handler>:
 80217c0:	f8df d034 	ldr.w	sp, [pc, #52]	; 80217f8 <LoopFillZerobss+0x12>
 80217c4:	480d      	ldr	r0, [pc, #52]	; (80217fc <LoopFillZerobss+0x16>)
 80217c6:	490e      	ldr	r1, [pc, #56]	; (8021800 <LoopFillZerobss+0x1a>)
 80217c8:	4a0e      	ldr	r2, [pc, #56]	; (8021804 <LoopFillZerobss+0x1e>)
 80217ca:	2300      	movs	r3, #0
 80217cc:	e002      	b.n	80217d4 <LoopCopyDataInit>

080217ce <CopyDataInit>:
 80217ce:	58d4      	ldr	r4, [r2, r3]
 80217d0:	50c4      	str	r4, [r0, r3]
 80217d2:	3304      	adds	r3, #4

080217d4 <LoopCopyDataInit>:
 80217d4:	18c4      	adds	r4, r0, r3
 80217d6:	428c      	cmp	r4, r1
 80217d8:	d3f9      	bcc.n	80217ce <CopyDataInit>
 80217da:	4a0b      	ldr	r2, [pc, #44]	; (8021808 <LoopFillZerobss+0x22>)
 80217dc:	4c0b      	ldr	r4, [pc, #44]	; (802180c <LoopFillZerobss+0x26>)
 80217de:	2300      	movs	r3, #0
 80217e0:	e001      	b.n	80217e6 <LoopFillZerobss>

080217e2 <FillZerobss>:
 80217e2:	6013      	str	r3, [r2, #0]
 80217e4:	3204      	adds	r2, #4

080217e6 <LoopFillZerobss>:
 80217e6:	42a2      	cmp	r2, r4
 80217e8:	d3fb      	bcc.n	80217e2 <FillZerobss>
 80217ea:	f7ff fd47 	bl	802127c <SystemInit>
 80217ee:	f00c f8bf 	bl	802d970 <__libc_init_array>
 80217f2:	f7ff fb6d 	bl	8020ed0 <main>
 80217f6:	4770      	bx	lr
 80217f8:	20040000 	.word	0x20040000
 80217fc:	20000000 	.word	0x20000000
 8021800:	200001bc 	.word	0x200001bc
 8021804:	0802f210 	.word	0x0802f210
 8021808:	200001bc 	.word	0x200001bc
 802180c:	2000e590 	.word	0x2000e590

08021810 <ADC_IRQHandler>:
 8021810:	e7fe      	b.n	8021810 <ADC_IRQHandler>

08021812 <__retarget_lock_acquire_recursive>:
/**
  * @brief Acquire recursive lock
  * @param lock The lock
  */
void __retarget_lock_acquire_recursive(_LOCK_T lock)
{
 8021812:	b508      	push	{r3, lr}
  STM32_LOCK_BLOCK_IF_NULL_ARGUMENT(lock);
 8021814:	b198      	cbz	r0, 802183e <__retarget_lock_acquire_recursive+0x2c>
 8021816:	4603      	mov	r3, r0
  * @brief Acquire STM32 lock
  * @param lock The lock to acquire
  */
static inline void stm32_lock_acquire(LockingData_t *lock)
{
  STM32_LOCK_BLOCK_IF_NULL_ARGUMENT(lock);
 8021818:	b1a8      	cbz	r0, 8021846 <__retarget_lock_acquire_recursive+0x34>
  STM32_LOCK_ASSERT_VALID_NESTING_LEVEL(lock);
 802181a:	7a02      	ldrb	r2, [r0, #8]
 802181c:	2a01      	cmp	r2, #1
 802181e:	d816      	bhi.n	802184e <__retarget_lock_acquire_recursive+0x3c>
  lock->basepri[lock->nesting_level++] = taskENTER_CRITICAL_FROM_ISR();
 8021820:	1c51      	adds	r1, r2, #1
 8021822:	7201      	strb	r1, [r0, #8]

portFORCE_INLINE static uint32_t ulPortRaiseBASEPRI( void )
{
uint32_t ulOriginalBASEPRI, ulNewBASEPRI;

	__asm volatile
 8021824:	f3ef 8111 	mrs	r1, BASEPRI
 8021828:	f04f 0050 	mov.w	r0, #80	; 0x50
 802182c:	f380 8811 	msr	BASEPRI, r0
 8021830:	f3bf 8f6f 	isb	sy
 8021834:	f3bf 8f4f 	dsb	sy
 8021838:	f843 1022 	str.w	r1, [r3, r2, lsl #2]
  stm32_lock_acquire(STM32_LOCK_PARAMETER(lock));
}
 802183c:	bd08      	pop	{r3, pc}
  __ASM volatile ("cpsid i" : : : "memory");
 802183e:	b672      	cpsid	i
  STM32_LOCK_BLOCK_IF_NULL_ARGUMENT(lock);
 8021840:	f7ff faea 	bl	8020e18 <Error_Handler>
 8021844:	e7fe      	b.n	8021844 <__retarget_lock_acquire_recursive+0x32>
 8021846:	b672      	cpsid	i
  STM32_LOCK_BLOCK_IF_NULL_ARGUMENT(lock);
 8021848:	f7ff fae6 	bl	8020e18 <Error_Handler>
 802184c:	e7fe      	b.n	802184c <__retarget_lock_acquire_recursive+0x3a>
 802184e:	b672      	cpsid	i
  STM32_LOCK_ASSERT_VALID_NESTING_LEVEL(lock);
 8021850:	f7ff fae2 	bl	8020e18 <Error_Handler>
 8021854:	e7fe      	b.n	8021854 <__retarget_lock_acquire_recursive+0x42>

08021856 <__retarget_lock_release_recursive>:
/**
  * @brief Release recursive lock
  * @param lock The lock
  */
void __retarget_lock_release_recursive(_LOCK_T lock)
{
 8021856:	b508      	push	{r3, lr}
  STM32_LOCK_BLOCK_IF_NULL_ARGUMENT(lock);
 8021858:	b158      	cbz	r0, 8021872 <__retarget_lock_release_recursive+0x1c>
  * @brief Release STM32 lock
  * @param lock The lock to release
  */
static inline void stm32_lock_release(LockingData_t *lock)
{
  STM32_LOCK_BLOCK_IF_NULL_ARGUMENT(lock);
 802185a:	b170      	cbz	r0, 802187a <__retarget_lock_release_recursive+0x24>
  lock->nesting_level--;
 802185c:	7a03      	ldrb	r3, [r0, #8]
 802185e:	3b01      	subs	r3, #1
 8021860:	b2db      	uxtb	r3, r3
 8021862:	7203      	strb	r3, [r0, #8]
  STM32_LOCK_ASSERT_VALID_NESTING_LEVEL(lock);
 8021864:	2b01      	cmp	r3, #1
 8021866:	d80c      	bhi.n	8021882 <__retarget_lock_release_recursive+0x2c>
  taskEXIT_CRITICAL_FROM_ISR(lock->basepri[lock->nesting_level]);
 8021868:	f850 3023 	ldr.w	r3, [r0, r3, lsl #2]
}
/*-----------------------------------------------------------*/

portFORCE_INLINE static void vPortSetBASEPRI( uint32_t ulNewMaskValue )
{
	__asm volatile
 802186c:	f383 8811 	msr	BASEPRI, r3
  stm32_lock_release(STM32_LOCK_PARAMETER(lock));
}
 8021870:	bd08      	pop	{r3, pc}
 8021872:	b672      	cpsid	i
  STM32_LOCK_BLOCK_IF_NULL_ARGUMENT(lock);
 8021874:	f7ff fad0 	bl	8020e18 <Error_Handler>
 8021878:	e7fe      	b.n	8021878 <__retarget_lock_release_recursive+0x22>
 802187a:	b672      	cpsid	i
  STM32_LOCK_BLOCK_IF_NULL_ARGUMENT(lock);
 802187c:	f7ff facc 	bl	8020e18 <Error_Handler>
 8021880:	e7fe      	b.n	8021880 <__retarget_lock_release_recursive+0x2a>
 8021882:	b672      	cpsid	i
  STM32_LOCK_ASSERT_VALID_NESTING_LEVEL(lock);
 8021884:	f7ff fac8 	bl	8020e18 <Error_Handler>
 8021888:	e7fe      	b.n	8021888 <__retarget_lock_release_recursive+0x32>
	...

0802188c <HAL_Init>:
  *         need to ensure that the SysTick time base is always set to 1 millisecond
  *         to have correct HAL operation.
  * @retval HAL status
  */
HAL_StatusTypeDef HAL_Init(void)
{
 802188c:	b508      	push	{r3, lr}
  /* Configure Flash prefetch, Instruction cache, Data cache */ 
#if (INSTRUCTION_CACHE_ENABLE != 0U)
  __HAL_FLASH_INSTRUCTION_CACHE_ENABLE();
 802188e:	4b0b      	ldr	r3, [pc, #44]	; (80218bc <HAL_Init+0x30>)
 8021890:	681a      	ldr	r2, [r3, #0]
 8021892:	f442 7200 	orr.w	r2, r2, #512	; 0x200
 8021896:	601a      	str	r2, [r3, #0]
#endif /* INSTRUCTION_CACHE_ENABLE */

#if (DATA_CACHE_ENABLE != 0U)
  __HAL_FLASH_DATA_CACHE_ENABLE();
 8021898:	681a      	ldr	r2, [r3, #0]
 802189a:	f442 6280 	orr.w	r2, r2, #1024	; 0x400
 802189e:	601a      	str	r2, [r3, #0]
#endif /* DATA_CACHE_ENABLE */

#if (PREFETCH_ENABLE != 0U)
  __HAL_FLASH_PREFETCH_BUFFER_ENABLE();
 80218a0:	681a      	ldr	r2, [r3, #0]
 80218a2:	f442 7280 	orr.w	r2, r2, #256	; 0x100
 80218a6:	601a      	str	r2, [r3, #0]
#endif /* PREFETCH_ENABLE */

  /* Set Interrupt Group Priority */
  HAL_NVIC_SetPriorityGrouping(NVIC_PRIORITYGROUP_4);
 80218a8:	2003      	movs	r0, #3
 80218aa:	f000 f81b 	bl	80218e4 <HAL_NVIC_SetPriorityGrouping>

  /* Use systick as time base source and configure 1ms tick (default clock after Reset is HSI) */
  HAL_InitTick(TICK_INT_PRIORITY);
 80218ae:	200f      	movs	r0, #15
 80218b0:	f7ff fbe4 	bl	802107c <HAL_InitTick>

  /* Init the low level hardware */
  HAL_MspInit();
 80218b4:	f7ff fbc0 	bl	8021038 <HAL_MspInit>

  /* Return function status */
  return HAL_OK;
}
 80218b8:	2000      	movs	r0, #0
 80218ba:	bd08      	pop	{r3, pc}
 80218bc:	40023c00 	.word	0x40023c00

080218c0 <HAL_IncTick>:
  *      implementations in user file.
  * @retval None
  */
__weak void HAL_IncTick(void)
{
  uwTick += uwTickFreq;
 80218c0:	4a03      	ldr	r2, [pc, #12]	; (80218d0 <HAL_IncTick+0x10>)
 80218c2:	6811      	ldr	r1, [r2, #0]
 80218c4:	4b03      	ldr	r3, [pc, #12]	; (80218d4 <HAL_IncTick+0x14>)
 80218c6:	781b      	ldrb	r3, [r3, #0]
 80218c8:	440b      	add	r3, r1
 80218ca:	6013      	str	r3, [r2, #0]
}
 80218cc:	4770      	bx	lr
 80218ce:	bf00      	nop
 80218d0:	2000d5ec 	.word	0x2000d5ec
 80218d4:	20000004 	.word	0x20000004

080218d8 <HAL_GetTick>:
  *       implementations in user file.
  * @retval tick value
  */
__weak uint32_t HAL_GetTick(void)
{
  return uwTick;
 80218d8:	4b01      	ldr	r3, [pc, #4]	; (80218e0 <HAL_GetTick+0x8>)
 80218da:	6818      	ldr	r0, [r3, #0]
}
 80218dc:	4770      	bx	lr
 80218de:	bf00      	nop
 80218e0:	2000d5ec 	.word	0x2000d5ec

080218e4 <HAL_NVIC_SetPriorityGrouping>:
  * @note   When the NVIC_PriorityGroup_0 is selected, IRQ preemption is no more possible. 
  *         The pending IRQ priority will be managed only by the subpriority. 
  * @retval None
  */
void HAL_NVIC_SetPriorityGrouping(uint32_t PriorityGroup)
{
 80218e4:	b510      	push	{r4, lr}
 80218e6:	4604      	mov	r4, r0
  /* Check the parameters */
  assert_param(IS_NVIC_PRIORITY_GROUP(PriorityGroup));
 80218e8:	1ec3      	subs	r3, r0, #3
 80218ea:	2b04      	cmp	r3, #4
 80218ec:	d80f      	bhi.n	802190e <HAL_NVIC_SetPriorityGrouping+0x2a>
__STATIC_INLINE void __NVIC_SetPriorityGrouping(uint32_t PriorityGroup)
{
  uint32_t reg_value;
  uint32_t PriorityGroupTmp = (PriorityGroup & (uint32_t)0x07UL);             /* only values 0..7 are used          */

  reg_value  =  SCB->AIRCR;                                                   /* read old register configuration    */
 80218ee:	4a0a      	ldr	r2, [pc, #40]	; (8021918 <HAL_NVIC_SetPriorityGrouping+0x34>)
 80218f0:	68d3      	ldr	r3, [r2, #12]
  reg_value &= ~((uint32_t)(SCB_AIRCR_VECTKEY_Msk | SCB_AIRCR_PRIGROUP_Msk)); /* clear bits to change               */
 80218f2:	f423 63e0 	bic.w	r3, r3, #1792	; 0x700
 80218f6:	041b      	lsls	r3, r3, #16
 80218f8:	0c1b      	lsrs	r3, r3, #16
  reg_value  =  (reg_value                                   |
                ((uint32_t)0x5FAUL << SCB_AIRCR_VECTKEY_Pos) |
                (PriorityGroupTmp << SCB_AIRCR_PRIGROUP_Pos)  );              /* Insert write key and priority group */
 80218fa:	0224      	lsls	r4, r4, #8
 80218fc:	f404 64e0 	and.w	r4, r4, #1792	; 0x700
                ((uint32_t)0x5FAUL << SCB_AIRCR_VECTKEY_Pos) |
 8021900:	4323      	orrs	r3, r4
  reg_value  =  (reg_value                                   |
 8021902:	f043 63bf 	orr.w	r3, r3, #100139008	; 0x5f80000
 8021906:	f443 3300 	orr.w	r3, r3, #131072	; 0x20000
  SCB->AIRCR =  reg_value;
 802190a:	60d3      	str	r3, [r2, #12]
  
  /* Set the PRIGROUP[10:8] bits according to the PriorityGroup parameter value */
  NVIC_SetPriorityGrouping(PriorityGroup);
}
 802190c:	bd10      	pop	{r4, pc}
  assert_param(IS_NVIC_PRIORITY_GROUP(PriorityGroup));
 802190e:	2190      	movs	r1, #144	; 0x90
 8021910:	4802      	ldr	r0, [pc, #8]	; (802191c <HAL_NVIC_SetPriorityGrouping+0x38>)
 8021912:	f7ff fb27 	bl	8020f64 <assert_failed>
 8021916:	e7ea      	b.n	80218ee <HAL_NVIC_SetPriorityGrouping+0xa>
 8021918:	e000ed00 	.word	0xe000ed00
 802191c:	0802e6ac 	.word	0x0802e6ac

08021920 <HAL_NVIC_SetPriority>:
  *         This parameter can be a value between 0 and 15
  *         A lower priority value indicates a higher priority.          
  * @retval None
  */
void HAL_NVIC_SetPriority(IRQn_Type IRQn, uint32_t PreemptPriority, uint32_t SubPriority)
{ 
 8021920:	b570      	push	{r4, r5, r6, lr}
 8021922:	4605      	mov	r5, r0
 8021924:	460c      	mov	r4, r1
 8021926:	4616      	mov	r6, r2
  uint32_t prioritygroup = 0x00U;
  
  /* Check the parameters */
  assert_param(IS_NVIC_SUB_PRIORITY(SubPriority));
 8021928:	2a0f      	cmp	r2, #15
 802192a:	d825      	bhi.n	8021978 <HAL_NVIC_SetPriority+0x58>
  assert_param(IS_NVIC_PREEMPTION_PRIORITY(PreemptPriority));
 802192c:	2c0f      	cmp	r4, #15
 802192e:	d828      	bhi.n	8021982 <HAL_NVIC_SetPriority+0x62>
  \details Reads the priority grouping field from the NVIC Interrupt Controller.
  \return                Priority grouping field (SCB->AIRCR [10:8] PRIGROUP field).
 */
__STATIC_INLINE uint32_t __NVIC_GetPriorityGrouping(void)
{
  return ((uint32_t)((SCB->AIRCR & SCB_AIRCR_PRIGROUP_Msk) >> SCB_AIRCR_PRIGROUP_Pos));
 8021930:	4b1b      	ldr	r3, [pc, #108]	; (80219a0 <HAL_NVIC_SetPriority+0x80>)
 8021932:	68db      	ldr	r3, [r3, #12]
 8021934:	f3c3 2302 	ubfx	r3, r3, #8, #3
{
  uint32_t PriorityGroupTmp = (PriorityGroup & (uint32_t)0x07UL);   /* only values 0..7 are used          */
  uint32_t PreemptPriorityBits;
  uint32_t SubPriorityBits;

  PreemptPriorityBits = ((7UL - PriorityGroupTmp) > (uint32_t)(__NVIC_PRIO_BITS)) ? (uint32_t)(__NVIC_PRIO_BITS) : (uint32_t)(7UL - PriorityGroupTmp);
 8021938:	f1c3 0107 	rsb	r1, r3, #7
 802193c:	2904      	cmp	r1, #4
 802193e:	bf28      	it	cs
 8021940:	2104      	movcs	r1, #4
  SubPriorityBits     = ((PriorityGroupTmp + (uint32_t)(__NVIC_PRIO_BITS)) < (uint32_t)7UL) ? (uint32_t)0UL : (uint32_t)((PriorityGroupTmp - 7UL) + (uint32_t)(__NVIC_PRIO_BITS));
 8021942:	1d1a      	adds	r2, r3, #4
 8021944:	2a06      	cmp	r2, #6
 8021946:	d921      	bls.n	802198c <HAL_NVIC_SetPriority+0x6c>
 8021948:	3b03      	subs	r3, #3

  return (
           ((PreemptPriority & (uint32_t)((1UL << (PreemptPriorityBits)) - 1UL)) << SubPriorityBits) |
 802194a:	f04f 32ff 	mov.w	r2, #4294967295
 802194e:	fa02 f101 	lsl.w	r1, r2, r1
 8021952:	ea24 0401 	bic.w	r4, r4, r1
 8021956:	409c      	lsls	r4, r3
           ((SubPriority     & (uint32_t)((1UL << (SubPriorityBits    )) - 1UL)))
 8021958:	fa02 f303 	lsl.w	r3, r2, r3
 802195c:	ea26 0603 	bic.w	r6, r6, r3
           ((PreemptPriority & (uint32_t)((1UL << (PreemptPriorityBits)) - 1UL)) << SubPriorityBits) |
 8021960:	4334      	orrs	r4, r6
  if ((int32_t)(IRQn) >= 0)
 8021962:	2d00      	cmp	r5, #0
 8021964:	db14      	blt.n	8021990 <HAL_NVIC_SetPriority+0x70>
    NVIC->IP[((uint32_t)IRQn)]               = (uint8_t)((priority << (8U - __NVIC_PRIO_BITS)) & (uint32_t)0xFFUL);
 8021966:	0124      	lsls	r4, r4, #4
 8021968:	b2e4      	uxtb	r4, r4
 802196a:	f105 4560 	add.w	r5, r5, #3758096384	; 0xe0000000
 802196e:	f505 4561 	add.w	r5, r5, #57600	; 0xe100
 8021972:	f885 4300 	strb.w	r4, [r5, #768]	; 0x300
  
  prioritygroup = NVIC_GetPriorityGrouping();
  
  NVIC_SetPriority(IRQn, NVIC_EncodePriority(prioritygroup, PreemptPriority, SubPriority));
}
 8021976:	bd70      	pop	{r4, r5, r6, pc}
  assert_param(IS_NVIC_SUB_PRIORITY(SubPriority));
 8021978:	21a8      	movs	r1, #168	; 0xa8
 802197a:	480a      	ldr	r0, [pc, #40]	; (80219a4 <HAL_NVIC_SetPriority+0x84>)
 802197c:	f7ff faf2 	bl	8020f64 <assert_failed>
 8021980:	e7d4      	b.n	802192c <HAL_NVIC_SetPriority+0xc>
  assert_param(IS_NVIC_PREEMPTION_PRIORITY(PreemptPriority));
 8021982:	21a9      	movs	r1, #169	; 0xa9
 8021984:	4807      	ldr	r0, [pc, #28]	; (80219a4 <HAL_NVIC_SetPriority+0x84>)
 8021986:	f7ff faed 	bl	8020f64 <assert_failed>
 802198a:	e7d1      	b.n	8021930 <HAL_NVIC_SetPriority+0x10>
  SubPriorityBits     = ((PriorityGroupTmp + (uint32_t)(__NVIC_PRIO_BITS)) < (uint32_t)7UL) ? (uint32_t)0UL : (uint32_t)((PriorityGroupTmp - 7UL) + (uint32_t)(__NVIC_PRIO_BITS));
 802198c:	2300      	movs	r3, #0
 802198e:	e7dc      	b.n	802194a <HAL_NVIC_SetPriority+0x2a>
    SCB->SHP[(((uint32_t)IRQn) & 0xFUL)-4UL] = (uint8_t)((priority << (8U - __NVIC_PRIO_BITS)) & (uint32_t)0xFFUL);
 8021990:	f005 050f 	and.w	r5, r5, #15
 8021994:	0124      	lsls	r4, r4, #4
 8021996:	b2e4      	uxtb	r4, r4
 8021998:	4b03      	ldr	r3, [pc, #12]	; (80219a8 <HAL_NVIC_SetPriority+0x88>)
 802199a:	555c      	strb	r4, [r3, r5]
}
 802199c:	e7eb      	b.n	8021976 <HAL_NVIC_SetPriority+0x56>
 802199e:	bf00      	nop
 80219a0:	e000ed00 	.word	0xe000ed00
 80219a4:	0802e6ac 	.word	0x0802e6ac
 80219a8:	e000ed14 	.word	0xe000ed14

080219ac <HAL_NVIC_EnableIRQ>:
  *         This parameter can be an enumerator of IRQn_Type enumeration
  *         (For the complete STM32 Devices IRQ Channels list, please refer to the appropriate CMSIS device file (stm32f4xxxx.h))
  * @retval None
  */
void HAL_NVIC_EnableIRQ(IRQn_Type IRQn)
{
 80219ac:	b510      	push	{r4, lr}
  /* Check the parameters */
  assert_param(IS_NVIC_DEVICE_IRQ(IRQn));
 80219ae:	1e04      	subs	r4, r0, #0
 80219b0:	db0a      	blt.n	80219c8 <HAL_NVIC_EnableIRQ+0x1c>
  if ((int32_t)(IRQn) >= 0)
 80219b2:	2c00      	cmp	r4, #0
 80219b4:	db07      	blt.n	80219c6 <HAL_NVIC_EnableIRQ+0x1a>
    NVIC->ISER[(((uint32_t)IRQn) >> 5UL)] = (uint32_t)(1UL << (((uint32_t)IRQn) & 0x1FUL));
 80219b6:	f004 021f 	and.w	r2, r4, #31
 80219ba:	0964      	lsrs	r4, r4, #5
 80219bc:	2301      	movs	r3, #1
 80219be:	4093      	lsls	r3, r2
 80219c0:	4a04      	ldr	r2, [pc, #16]	; (80219d4 <HAL_NVIC_EnableIRQ+0x28>)
 80219c2:	f842 3024 	str.w	r3, [r2, r4, lsl #2]
  
  /* Enable interrupt */
  NVIC_EnableIRQ(IRQn);
}
 80219c6:	bd10      	pop	{r4, pc}
  assert_param(IS_NVIC_DEVICE_IRQ(IRQn));
 80219c8:	21bc      	movs	r1, #188	; 0xbc
 80219ca:	4803      	ldr	r0, [pc, #12]	; (80219d8 <HAL_NVIC_EnableIRQ+0x2c>)
 80219cc:	f7ff faca 	bl	8020f64 <assert_failed>
 80219d0:	e7ef      	b.n	80219b2 <HAL_NVIC_EnableIRQ+0x6>
 80219d2:	bf00      	nop
 80219d4:	e000e100 	.word	0xe000e100
 80219d8:	0802e6ac 	.word	0x0802e6ac

080219dc <DMA_SetConfig>:
  * @param  DstAddress The destination memory Buffer address
  * @param  DataLength The length of data to be transferred from source to destination
  * @retval HAL status
  */
static void DMA_SetConfig(DMA_HandleTypeDef *hdma, uint32_t SrcAddress, uint32_t DstAddress, uint32_t DataLength)
{
 80219dc:	b430      	push	{r4, r5}
  /* Clear DBM bit */
  hdma->Instance->CR &= (uint32_t)(~DMA_SxCR_DBM);
 80219de:	6805      	ldr	r5, [r0, #0]
 80219e0:	682c      	ldr	r4, [r5, #0]
 80219e2:	f424 2480 	bic.w	r4, r4, #262144	; 0x40000
 80219e6:	602c      	str	r4, [r5, #0]

  /* Configure DMA Stream data length */
  hdma->Instance->NDTR = DataLength;
 80219e8:	6804      	ldr	r4, [r0, #0]
 80219ea:	6063      	str	r3, [r4, #4]

  /* Memory to Peripheral */
  if((hdma->Init.Direction) == DMA_MEMORY_TO_PERIPH)
 80219ec:	6883      	ldr	r3, [r0, #8]
 80219ee:	2b40      	cmp	r3, #64	; 0x40
 80219f0:	d005      	beq.n	80219fe <DMA_SetConfig+0x22>
  }
  /* Peripheral to Memory */
  else
  {
    /* Configure DMA Stream source address */
    hdma->Instance->PAR = SrcAddress;
 80219f2:	6803      	ldr	r3, [r0, #0]
 80219f4:	6099      	str	r1, [r3, #8]

    /* Configure DMA Stream destination address */
    hdma->Instance->M0AR = DstAddress;
 80219f6:	6803      	ldr	r3, [r0, #0]
 80219f8:	60da      	str	r2, [r3, #12]
  }
}
 80219fa:	bc30      	pop	{r4, r5}
 80219fc:	4770      	bx	lr
    hdma->Instance->PAR = DstAddress;
 80219fe:	6803      	ldr	r3, [r0, #0]
 8021a00:	609a      	str	r2, [r3, #8]
    hdma->Instance->M0AR = SrcAddress;
 8021a02:	6803      	ldr	r3, [r0, #0]
 8021a04:	60d9      	str	r1, [r3, #12]
 8021a06:	e7f8      	b.n	80219fa <DMA_SetConfig+0x1e>

08021a08 <DMA_CalcBaseAndBitshift>:
  * @param  hdma       pointer to a DMA_HandleTypeDef structure that contains
  *                     the configuration information for the specified DMA Stream. 
  * @retval Stream base address
  */
static uint32_t DMA_CalcBaseAndBitshift(DMA_HandleTypeDef *hdma)
{
 8021a08:	b410      	push	{r4}
  uint32_t stream_number = (((uint32_t)hdma->Instance & 0xFFU) - 16U) / 24U;
 8021a0a:	6803      	ldr	r3, [r0, #0]
 8021a0c:	b2d9      	uxtb	r1, r3
 8021a0e:	3910      	subs	r1, #16
 8021a10:	4a0c      	ldr	r2, [pc, #48]	; (8021a44 <DMA_CalcBaseAndBitshift+0x3c>)
 8021a12:	fba2 4201 	umull	r4, r2, r2, r1
 8021a16:	0912      	lsrs	r2, r2, #4
  
  /* lookup table for necessary bitshift of flags within status registers */
  static const uint8_t flagBitshiftOffset[8U] = {0U, 6U, 16U, 22U, 0U, 6U, 16U, 22U};
  hdma->StreamIndex = flagBitshiftOffset[stream_number];
 8021a18:	4c0b      	ldr	r4, [pc, #44]	; (8021a48 <DMA_CalcBaseAndBitshift+0x40>)
 8021a1a:	5ca2      	ldrb	r2, [r4, r2]
 8021a1c:	65c2      	str	r2, [r0, #92]	; 0x5c
  
  if (stream_number > 3U)
 8021a1e:	295f      	cmp	r1, #95	; 0x5f
 8021a20:	d909      	bls.n	8021a36 <DMA_CalcBaseAndBitshift+0x2e>
  {
    /* return pointer to HISR and HIFCR */
    hdma->StreamBaseAddress = (((uint32_t)hdma->Instance & (uint32_t)(~0x3FFU)) + 4U);
 8021a22:	f423 737f 	bic.w	r3, r3, #1020	; 0x3fc
 8021a26:	f023 0303 	bic.w	r3, r3, #3
 8021a2a:	3304      	adds	r3, #4
 8021a2c:	6583      	str	r3, [r0, #88]	; 0x58
    /* return pointer to LISR and LIFCR */
    hdma->StreamBaseAddress = ((uint32_t)hdma->Instance & (uint32_t)(~0x3FFU));
  }
  
  return hdma->StreamBaseAddress;
}
 8021a2e:	6d80      	ldr	r0, [r0, #88]	; 0x58
 8021a30:	f85d 4b04 	ldr.w	r4, [sp], #4
 8021a34:	4770      	bx	lr
    hdma->StreamBaseAddress = ((uint32_t)hdma->Instance & (uint32_t)(~0x3FFU));
 8021a36:	f423 737f 	bic.w	r3, r3, #1020	; 0x3fc
 8021a3a:	f023 0303 	bic.w	r3, r3, #3
 8021a3e:	6583      	str	r3, [r0, #88]	; 0x58
 8021a40:	e7f5      	b.n	8021a2e <DMA_CalcBaseAndBitshift+0x26>
 8021a42:	bf00      	nop
 8021a44:	aaaaaaab 	.word	0xaaaaaaab
 8021a48:	0802e720 	.word	0x0802e720

08021a4c <DMA_CheckFifoParam>:
  * @retval HAL status
  */
static HAL_StatusTypeDef DMA_CheckFifoParam(DMA_HandleTypeDef *hdma)
{
  HAL_StatusTypeDef status = HAL_OK;
  uint32_t tmp = hdma->Init.FIFOThreshold;
 8021a4c:	6a83      	ldr	r3, [r0, #40]	; 0x28
  
  /* Memory Data size equal to Byte */
  if(hdma->Init.MemDataAlignment == DMA_MDATAALIGN_BYTE)
 8021a4e:	6982      	ldr	r2, [r0, #24]
 8021a50:	b992      	cbnz	r2, 8021a78 <DMA_CheckFifoParam+0x2c>
  {
    switch (tmp)
 8021a52:	2b01      	cmp	r3, #1
 8021a54:	d00a      	beq.n	8021a6c <DMA_CheckFifoParam+0x20>
 8021a56:	2b02      	cmp	r3, #2
 8021a58:	d002      	beq.n	8021a60 <DMA_CheckFifoParam+0x14>
 8021a5a:	b10b      	cbz	r3, 8021a60 <DMA_CheckFifoParam+0x14>
 8021a5c:	2000      	movs	r0, #0
 8021a5e:	4770      	bx	lr
    {
    case DMA_FIFO_THRESHOLD_1QUARTERFULL:
    case DMA_FIFO_THRESHOLD_3QUARTERSFULL:
      if ((hdma->Init.MemBurst & DMA_SxCR_MBURST_1) == DMA_SxCR_MBURST_1)
 8021a60:	6ac3      	ldr	r3, [r0, #44]	; 0x2c
 8021a62:	f013 7f80 	tst.w	r3, #16777216	; 0x1000000
 8021a66:	d128      	bne.n	8021aba <DMA_CheckFifoParam+0x6e>
  HAL_StatusTypeDef status = HAL_OK;
 8021a68:	2000      	movs	r0, #0
 8021a6a:	4770      	bx	lr
      {
        status = HAL_ERROR;
      }
      break;
    case DMA_FIFO_THRESHOLD_HALFFULL:
      if (hdma->Init.MemBurst == DMA_MBURST_INC16)
 8021a6c:	6ac3      	ldr	r3, [r0, #44]	; 0x2c
 8021a6e:	f1b3 7fc0 	cmp.w	r3, #25165824	; 0x1800000
 8021a72:	d024      	beq.n	8021abe <DMA_CheckFifoParam+0x72>
  HAL_StatusTypeDef status = HAL_OK;
 8021a74:	2000      	movs	r0, #0
 8021a76:	4770      	bx	lr
      break;
    }
  }
  
  /* Memory Data size equal to Half-Word */
  else if (hdma->Init.MemDataAlignment == DMA_MDATAALIGN_HALFWORD)
 8021a78:	f5b2 5f00 	cmp.w	r2, #8192	; 0x2000
 8021a7c:	d009      	beq.n	8021a92 <DMA_CheckFifoParam+0x46>
  }
  
  /* Memory Data size equal to Word */
  else
  {
    switch (tmp)
 8021a7e:	2b02      	cmp	r3, #2
 8021a80:	d925      	bls.n	8021ace <DMA_CheckFifoParam+0x82>
 8021a82:	2b03      	cmp	r3, #3
 8021a84:	d125      	bne.n	8021ad2 <DMA_CheckFifoParam+0x86>
    case DMA_FIFO_THRESHOLD_HALFFULL:
    case DMA_FIFO_THRESHOLD_3QUARTERSFULL:
      status = HAL_ERROR;
      break;
    case DMA_FIFO_THRESHOLD_FULL:
      if ((hdma->Init.MemBurst & DMA_SxCR_MBURST_1) == DMA_SxCR_MBURST_1)
 8021a86:	6ac3      	ldr	r3, [r0, #44]	; 0x2c
 8021a88:	f013 7f80 	tst.w	r3, #16777216	; 0x1000000
 8021a8c:	d123      	bne.n	8021ad6 <DMA_CheckFifoParam+0x8a>
  HAL_StatusTypeDef status = HAL_OK;
 8021a8e:	2000      	movs	r0, #0
 8021a90:	4770      	bx	lr
    switch (tmp)
 8021a92:	2b03      	cmp	r3, #3
 8021a94:	d803      	bhi.n	8021a9e <DMA_CheckFifoParam+0x52>
 8021a96:	e8df f003 	tbb	[pc, r3]
 8021a9a:	0414      	.short	0x0414
 8021a9c:	0a14      	.short	0x0a14
  else if (hdma->Init.MemDataAlignment == DMA_MDATAALIGN_HALFWORD)
 8021a9e:	2000      	movs	r0, #0
 8021aa0:	4770      	bx	lr
      if ((hdma->Init.MemBurst & DMA_SxCR_MBURST_1) == DMA_SxCR_MBURST_1)
 8021aa2:	6ac3      	ldr	r3, [r0, #44]	; 0x2c
 8021aa4:	f013 7f80 	tst.w	r3, #16777216	; 0x1000000
 8021aa8:	d10d      	bne.n	8021ac6 <DMA_CheckFifoParam+0x7a>
  HAL_StatusTypeDef status = HAL_OK;
 8021aaa:	2000      	movs	r0, #0
 8021aac:	4770      	bx	lr
      if (hdma->Init.MemBurst == DMA_MBURST_INC16)
 8021aae:	6ac3      	ldr	r3, [r0, #44]	; 0x2c
 8021ab0:	f1b3 7fc0 	cmp.w	r3, #25165824	; 0x1800000
 8021ab4:	d009      	beq.n	8021aca <DMA_CheckFifoParam+0x7e>
  HAL_StatusTypeDef status = HAL_OK;
 8021ab6:	2000      	movs	r0, #0
 8021ab8:	4770      	bx	lr
        status = HAL_ERROR;
 8021aba:	2001      	movs	r0, #1
 8021abc:	4770      	bx	lr
        status = HAL_ERROR;
 8021abe:	2001      	movs	r0, #1
 8021ac0:	4770      	bx	lr
      status = HAL_ERROR;
 8021ac2:	2001      	movs	r0, #1
 8021ac4:	4770      	bx	lr
        status = HAL_ERROR;
 8021ac6:	2001      	movs	r0, #1
 8021ac8:	4770      	bx	lr
        status = HAL_ERROR;
 8021aca:	2001      	movs	r0, #1
 8021acc:	4770      	bx	lr
      status = HAL_ERROR;
 8021ace:	2001      	movs	r0, #1
 8021ad0:	4770      	bx	lr
    switch (tmp)
 8021ad2:	2000      	movs	r0, #0
 8021ad4:	4770      	bx	lr
      {
        status = HAL_ERROR;
 8021ad6:	2001      	movs	r0, #1
      break;
    }
  } 
  
  return status; 
}
 8021ad8:	4770      	bx	lr
	...

08021adc <HAL_DMA_Init>:
{
 8021adc:	b570      	push	{r4, r5, r6, lr}
 8021ade:	4604      	mov	r4, r0
  uint32_t tickstart = HAL_GetTick();
 8021ae0:	f7ff fefa 	bl	80218d8 <HAL_GetTick>
  if(hdma == NULL)
 8021ae4:	2c00      	cmp	r4, #0
 8021ae6:	f000 8138 	beq.w	8021d5a <HAL_DMA_Init+0x27e>
 8021aea:	4605      	mov	r5, r0
  assert_param(IS_DMA_STREAM_ALL_INSTANCE(hdma->Instance));
 8021aec:	6823      	ldr	r3, [r4, #0]
 8021aee:	4a9c      	ldr	r2, [pc, #624]	; (8021d60 <HAL_DMA_Init+0x284>)
 8021af0:	4293      	cmp	r3, r2
 8021af2:	d031      	beq.n	8021b58 <HAL_DMA_Init+0x7c>
 8021af4:	3218      	adds	r2, #24
 8021af6:	4293      	cmp	r3, r2
 8021af8:	d02e      	beq.n	8021b58 <HAL_DMA_Init+0x7c>
 8021afa:	3218      	adds	r2, #24
 8021afc:	4293      	cmp	r3, r2
 8021afe:	d02b      	beq.n	8021b58 <HAL_DMA_Init+0x7c>
 8021b00:	3218      	adds	r2, #24
 8021b02:	4293      	cmp	r3, r2
 8021b04:	d028      	beq.n	8021b58 <HAL_DMA_Init+0x7c>
 8021b06:	3218      	adds	r2, #24
 8021b08:	4293      	cmp	r3, r2
 8021b0a:	d025      	beq.n	8021b58 <HAL_DMA_Init+0x7c>
 8021b0c:	3218      	adds	r2, #24
 8021b0e:	4293      	cmp	r3, r2
 8021b10:	d022      	beq.n	8021b58 <HAL_DMA_Init+0x7c>
 8021b12:	3218      	adds	r2, #24
 8021b14:	4293      	cmp	r3, r2
 8021b16:	d01f      	beq.n	8021b58 <HAL_DMA_Init+0x7c>
 8021b18:	3218      	adds	r2, #24
 8021b1a:	4293      	cmp	r3, r2
 8021b1c:	d01c      	beq.n	8021b58 <HAL_DMA_Init+0x7c>
 8021b1e:	f502 7256 	add.w	r2, r2, #856	; 0x358
 8021b22:	4293      	cmp	r3, r2
 8021b24:	d018      	beq.n	8021b58 <HAL_DMA_Init+0x7c>
 8021b26:	3218      	adds	r2, #24
 8021b28:	4293      	cmp	r3, r2
 8021b2a:	d015      	beq.n	8021b58 <HAL_DMA_Init+0x7c>
 8021b2c:	3218      	adds	r2, #24
 8021b2e:	4293      	cmp	r3, r2
 8021b30:	d012      	beq.n	8021b58 <HAL_DMA_Init+0x7c>
 8021b32:	3218      	adds	r2, #24
 8021b34:	4293      	cmp	r3, r2
 8021b36:	d00f      	beq.n	8021b58 <HAL_DMA_Init+0x7c>
 8021b38:	3218      	adds	r2, #24
 8021b3a:	4293      	cmp	r3, r2
 8021b3c:	d00c      	beq.n	8021b58 <HAL_DMA_Init+0x7c>
 8021b3e:	3218      	adds	r2, #24
 8021b40:	4293      	cmp	r3, r2
 8021b42:	d009      	beq.n	8021b58 <HAL_DMA_Init+0x7c>
 8021b44:	3218      	adds	r2, #24
 8021b46:	4293      	cmp	r3, r2
 8021b48:	d006      	beq.n	8021b58 <HAL_DMA_Init+0x7c>
 8021b4a:	3218      	adds	r2, #24
 8021b4c:	4293      	cmp	r3, r2
 8021b4e:	d003      	beq.n	8021b58 <HAL_DMA_Init+0x7c>
 8021b50:	21b7      	movs	r1, #183	; 0xb7
 8021b52:	4884      	ldr	r0, [pc, #528]	; (8021d64 <HAL_DMA_Init+0x288>)
 8021b54:	f7ff fa06 	bl	8020f64 <assert_failed>
  assert_param(IS_DMA_CHANNEL(hdma->Init.Channel));
 8021b58:	6863      	ldr	r3, [r4, #4]
 8021b5a:	b1a3      	cbz	r3, 8021b86 <HAL_DMA_Init+0xaa>
 8021b5c:	f1b3 7f00 	cmp.w	r3, #33554432	; 0x2000000
 8021b60:	d011      	beq.n	8021b86 <HAL_DMA_Init+0xaa>
 8021b62:	f1b3 6f80 	cmp.w	r3, #67108864	; 0x4000000
 8021b66:	d00e      	beq.n	8021b86 <HAL_DMA_Init+0xaa>
 8021b68:	f1b3 6fc0 	cmp.w	r3, #100663296	; 0x6000000
 8021b6c:	d00b      	beq.n	8021b86 <HAL_DMA_Init+0xaa>
 8021b6e:	f1b3 6f00 	cmp.w	r3, #134217728	; 0x8000000
 8021b72:	d008      	beq.n	8021b86 <HAL_DMA_Init+0xaa>
 8021b74:	f1b3 6f20 	cmp.w	r3, #167772160	; 0xa000000
 8021b78:	d005      	beq.n	8021b86 <HAL_DMA_Init+0xaa>
 8021b7a:	f1b3 6f40 	cmp.w	r3, #201326592	; 0xc000000
 8021b7e:	d002      	beq.n	8021b86 <HAL_DMA_Init+0xaa>
 8021b80:	f1b3 6f60 	cmp.w	r3, #234881024	; 0xe000000
 8021b84:	d16d      	bne.n	8021c62 <HAL_DMA_Init+0x186>
  assert_param(IS_DMA_DIRECTION(hdma->Init.Direction));
 8021b86:	68a3      	ldr	r3, [r4, #8]
 8021b88:	b11b      	cbz	r3, 8021b92 <HAL_DMA_Init+0xb6>
 8021b8a:	2b40      	cmp	r3, #64	; 0x40
 8021b8c:	d001      	beq.n	8021b92 <HAL_DMA_Init+0xb6>
 8021b8e:	2b80      	cmp	r3, #128	; 0x80
 8021b90:	d16c      	bne.n	8021c6c <HAL_DMA_Init+0x190>
  assert_param(IS_DMA_PERIPHERAL_INC_STATE(hdma->Init.PeriphInc));
 8021b92:	68e3      	ldr	r3, [r4, #12]
 8021b94:	f5b3 7f00 	cmp.w	r3, #512	; 0x200
 8021b98:	d001      	beq.n	8021b9e <HAL_DMA_Init+0xc2>
 8021b9a:	2b00      	cmp	r3, #0
 8021b9c:	d16b      	bne.n	8021c76 <HAL_DMA_Init+0x19a>
  assert_param(IS_DMA_MEMORY_INC_STATE(hdma->Init.MemInc));
 8021b9e:	6923      	ldr	r3, [r4, #16]
 8021ba0:	f5b3 6f80 	cmp.w	r3, #1024	; 0x400
 8021ba4:	d001      	beq.n	8021baa <HAL_DMA_Init+0xce>
 8021ba6:	2b00      	cmp	r3, #0
 8021ba8:	d16a      	bne.n	8021c80 <HAL_DMA_Init+0x1a4>
  assert_param(IS_DMA_PERIPHERAL_DATA_SIZE(hdma->Init.PeriphDataAlignment));
 8021baa:	6963      	ldr	r3, [r4, #20]
 8021bac:	b12b      	cbz	r3, 8021bba <HAL_DMA_Init+0xde>
 8021bae:	f5b3 6f00 	cmp.w	r3, #2048	; 0x800
 8021bb2:	d002      	beq.n	8021bba <HAL_DMA_Init+0xde>
 8021bb4:	f5b3 5f80 	cmp.w	r3, #4096	; 0x1000
 8021bb8:	d167      	bne.n	8021c8a <HAL_DMA_Init+0x1ae>
  assert_param(IS_DMA_MEMORY_DATA_SIZE(hdma->Init.MemDataAlignment));
 8021bba:	69a3      	ldr	r3, [r4, #24]
 8021bbc:	b12b      	cbz	r3, 8021bca <HAL_DMA_Init+0xee>
 8021bbe:	f5b3 5f00 	cmp.w	r3, #8192	; 0x2000
 8021bc2:	d002      	beq.n	8021bca <HAL_DMA_Init+0xee>
 8021bc4:	f5b3 4f80 	cmp.w	r3, #16384	; 0x4000
 8021bc8:	d164      	bne.n	8021c94 <HAL_DMA_Init+0x1b8>
  assert_param(IS_DMA_MODE(hdma->Init.Mode));
 8021bca:	69e3      	ldr	r3, [r4, #28]
 8021bcc:	b123      	cbz	r3, 8021bd8 <HAL_DMA_Init+0xfc>
 8021bce:	f5b3 7f80 	cmp.w	r3, #256	; 0x100
 8021bd2:	d001      	beq.n	8021bd8 <HAL_DMA_Init+0xfc>
 8021bd4:	2b20      	cmp	r3, #32
 8021bd6:	d162      	bne.n	8021c9e <HAL_DMA_Init+0x1c2>
  assert_param(IS_DMA_PRIORITY(hdma->Init.Priority));
 8021bd8:	6a23      	ldr	r3, [r4, #32]
 8021bda:	b143      	cbz	r3, 8021bee <HAL_DMA_Init+0x112>
 8021bdc:	f5b3 3f80 	cmp.w	r3, #65536	; 0x10000
 8021be0:	d005      	beq.n	8021bee <HAL_DMA_Init+0x112>
 8021be2:	f5b3 3f00 	cmp.w	r3, #131072	; 0x20000
 8021be6:	d002      	beq.n	8021bee <HAL_DMA_Init+0x112>
 8021be8:	f5b3 3f40 	cmp.w	r3, #196608	; 0x30000
 8021bec:	d15c      	bne.n	8021ca8 <HAL_DMA_Init+0x1cc>
  assert_param(IS_DMA_FIFO_MODE_STATE(hdma->Init.FIFOMode));
 8021bee:	6a63      	ldr	r3, [r4, #36]	; 0x24
 8021bf0:	b10b      	cbz	r3, 8021bf6 <HAL_DMA_Init+0x11a>
 8021bf2:	2b04      	cmp	r3, #4
 8021bf4:	d15d      	bne.n	8021cb2 <HAL_DMA_Init+0x1d6>
  if(hdma->Init.FIFOMode != DMA_FIFOMODE_DISABLE)
 8021bf6:	6a63      	ldr	r3, [r4, #36]	; 0x24
 8021bf8:	b1c3      	cbz	r3, 8021c2c <HAL_DMA_Init+0x150>
    assert_param(IS_DMA_FIFO_THRESHOLD(hdma->Init.FIFOThreshold));
 8021bfa:	6aa3      	ldr	r3, [r4, #40]	; 0x28
 8021bfc:	2b03      	cmp	r3, #3
 8021bfe:	d85d      	bhi.n	8021cbc <HAL_DMA_Init+0x1e0>
    assert_param(IS_DMA_MEMORY_BURST(hdma->Init.MemBurst));
 8021c00:	6ae3      	ldr	r3, [r4, #44]	; 0x2c
 8021c02:	b143      	cbz	r3, 8021c16 <HAL_DMA_Init+0x13a>
 8021c04:	f5b3 0f00 	cmp.w	r3, #8388608	; 0x800000
 8021c08:	d005      	beq.n	8021c16 <HAL_DMA_Init+0x13a>
 8021c0a:	f1b3 7f80 	cmp.w	r3, #16777216	; 0x1000000
 8021c0e:	d002      	beq.n	8021c16 <HAL_DMA_Init+0x13a>
 8021c10:	f1b3 7fc0 	cmp.w	r3, #25165824	; 0x1800000
 8021c14:	d157      	bne.n	8021cc6 <HAL_DMA_Init+0x1ea>
    assert_param(IS_DMA_PERIPHERAL_BURST(hdma->Init.PeriphBurst));
 8021c16:	6b23      	ldr	r3, [r4, #48]	; 0x30
 8021c18:	b143      	cbz	r3, 8021c2c <HAL_DMA_Init+0x150>
 8021c1a:	f5b3 1f00 	cmp.w	r3, #2097152	; 0x200000
 8021c1e:	d005      	beq.n	8021c2c <HAL_DMA_Init+0x150>
 8021c20:	f5b3 0f80 	cmp.w	r3, #4194304	; 0x400000
 8021c24:	d002      	beq.n	8021c2c <HAL_DMA_Init+0x150>
 8021c26:	f5b3 0fc0 	cmp.w	r3, #6291456	; 0x600000
 8021c2a:	d151      	bne.n	8021cd0 <HAL_DMA_Init+0x1f4>
  hdma->State = HAL_DMA_STATE_BUSY;
 8021c2c:	2302      	movs	r3, #2
 8021c2e:	f884 3035 	strb.w	r3, [r4, #53]	; 0x35
  __HAL_UNLOCK(hdma);
 8021c32:	2300      	movs	r3, #0
 8021c34:	f884 3034 	strb.w	r3, [r4, #52]	; 0x34
  __HAL_DMA_DISABLE(hdma);
 8021c38:	6822      	ldr	r2, [r4, #0]
 8021c3a:	6813      	ldr	r3, [r2, #0]
 8021c3c:	f023 0301 	bic.w	r3, r3, #1
 8021c40:	6013      	str	r3, [r2, #0]
  while((hdma->Instance->CR & DMA_SxCR_EN) != RESET)
 8021c42:	6823      	ldr	r3, [r4, #0]
 8021c44:	681a      	ldr	r2, [r3, #0]
 8021c46:	f012 0f01 	tst.w	r2, #1
 8021c4a:	d046      	beq.n	8021cda <HAL_DMA_Init+0x1fe>
    if((HAL_GetTick() - tickstart ) > HAL_TIMEOUT_DMA_ABORT)
 8021c4c:	f7ff fe44 	bl	80218d8 <HAL_GetTick>
 8021c50:	1b40      	subs	r0, r0, r5
 8021c52:	2805      	cmp	r0, #5
 8021c54:	d9f5      	bls.n	8021c42 <HAL_DMA_Init+0x166>
      hdma->ErrorCode = HAL_DMA_ERROR_TIMEOUT;
 8021c56:	2320      	movs	r3, #32
 8021c58:	6563      	str	r3, [r4, #84]	; 0x54
      hdma->State = HAL_DMA_STATE_TIMEOUT;
 8021c5a:	2003      	movs	r0, #3
 8021c5c:	f884 0035 	strb.w	r0, [r4, #53]	; 0x35
}
 8021c60:	bd70      	pop	{r4, r5, r6, pc}
  assert_param(IS_DMA_CHANNEL(hdma->Init.Channel));
 8021c62:	21b8      	movs	r1, #184	; 0xb8
 8021c64:	483f      	ldr	r0, [pc, #252]	; (8021d64 <HAL_DMA_Init+0x288>)
 8021c66:	f7ff f97d 	bl	8020f64 <assert_failed>
 8021c6a:	e78c      	b.n	8021b86 <HAL_DMA_Init+0xaa>
  assert_param(IS_DMA_DIRECTION(hdma->Init.Direction));
 8021c6c:	21b9      	movs	r1, #185	; 0xb9
 8021c6e:	483d      	ldr	r0, [pc, #244]	; (8021d64 <HAL_DMA_Init+0x288>)
 8021c70:	f7ff f978 	bl	8020f64 <assert_failed>
 8021c74:	e78d      	b.n	8021b92 <HAL_DMA_Init+0xb6>
  assert_param(IS_DMA_PERIPHERAL_INC_STATE(hdma->Init.PeriphInc));
 8021c76:	21ba      	movs	r1, #186	; 0xba
 8021c78:	483a      	ldr	r0, [pc, #232]	; (8021d64 <HAL_DMA_Init+0x288>)
 8021c7a:	f7ff f973 	bl	8020f64 <assert_failed>
 8021c7e:	e78e      	b.n	8021b9e <HAL_DMA_Init+0xc2>
  assert_param(IS_DMA_MEMORY_INC_STATE(hdma->Init.MemInc));
 8021c80:	21bb      	movs	r1, #187	; 0xbb
 8021c82:	4838      	ldr	r0, [pc, #224]	; (8021d64 <HAL_DMA_Init+0x288>)
 8021c84:	f7ff f96e 	bl	8020f64 <assert_failed>
 8021c88:	e78f      	b.n	8021baa <HAL_DMA_Init+0xce>
  assert_param(IS_DMA_PERIPHERAL_DATA_SIZE(hdma->Init.PeriphDataAlignment));
 8021c8a:	21bc      	movs	r1, #188	; 0xbc
 8021c8c:	4835      	ldr	r0, [pc, #212]	; (8021d64 <HAL_DMA_Init+0x288>)
 8021c8e:	f7ff f969 	bl	8020f64 <assert_failed>
 8021c92:	e792      	b.n	8021bba <HAL_DMA_Init+0xde>
  assert_param(IS_DMA_MEMORY_DATA_SIZE(hdma->Init.MemDataAlignment));
 8021c94:	21bd      	movs	r1, #189	; 0xbd
 8021c96:	4833      	ldr	r0, [pc, #204]	; (8021d64 <HAL_DMA_Init+0x288>)
 8021c98:	f7ff f964 	bl	8020f64 <assert_failed>
 8021c9c:	e795      	b.n	8021bca <HAL_DMA_Init+0xee>
  assert_param(IS_DMA_MODE(hdma->Init.Mode));
 8021c9e:	21be      	movs	r1, #190	; 0xbe
 8021ca0:	4830      	ldr	r0, [pc, #192]	; (8021d64 <HAL_DMA_Init+0x288>)
 8021ca2:	f7ff f95f 	bl	8020f64 <assert_failed>
 8021ca6:	e797      	b.n	8021bd8 <HAL_DMA_Init+0xfc>
  assert_param(IS_DMA_PRIORITY(hdma->Init.Priority));
 8021ca8:	21bf      	movs	r1, #191	; 0xbf
 8021caa:	482e      	ldr	r0, [pc, #184]	; (8021d64 <HAL_DMA_Init+0x288>)
 8021cac:	f7ff f95a 	bl	8020f64 <assert_failed>
 8021cb0:	e79d      	b.n	8021bee <HAL_DMA_Init+0x112>
  assert_param(IS_DMA_FIFO_MODE_STATE(hdma->Init.FIFOMode));
 8021cb2:	21c0      	movs	r1, #192	; 0xc0
 8021cb4:	482b      	ldr	r0, [pc, #172]	; (8021d64 <HAL_DMA_Init+0x288>)
 8021cb6:	f7ff f955 	bl	8020f64 <assert_failed>
 8021cba:	e79c      	b.n	8021bf6 <HAL_DMA_Init+0x11a>
    assert_param(IS_DMA_FIFO_THRESHOLD(hdma->Init.FIFOThreshold));
 8021cbc:	21c5      	movs	r1, #197	; 0xc5
 8021cbe:	4829      	ldr	r0, [pc, #164]	; (8021d64 <HAL_DMA_Init+0x288>)
 8021cc0:	f7ff f950 	bl	8020f64 <assert_failed>
 8021cc4:	e79c      	b.n	8021c00 <HAL_DMA_Init+0x124>
    assert_param(IS_DMA_MEMORY_BURST(hdma->Init.MemBurst));
 8021cc6:	21c6      	movs	r1, #198	; 0xc6
 8021cc8:	4826      	ldr	r0, [pc, #152]	; (8021d64 <HAL_DMA_Init+0x288>)
 8021cca:	f7ff f94b 	bl	8020f64 <assert_failed>
 8021cce:	e7a2      	b.n	8021c16 <HAL_DMA_Init+0x13a>
    assert_param(IS_DMA_PERIPHERAL_BURST(hdma->Init.PeriphBurst));
 8021cd0:	21c7      	movs	r1, #199	; 0xc7
 8021cd2:	4824      	ldr	r0, [pc, #144]	; (8021d64 <HAL_DMA_Init+0x288>)
 8021cd4:	f7ff f946 	bl	8020f64 <assert_failed>
 8021cd8:	e7a8      	b.n	8021c2c <HAL_DMA_Init+0x150>
  tmp = hdma->Instance->CR;
 8021cda:	681a      	ldr	r2, [r3, #0]
  tmp &= ((uint32_t)~(DMA_SxCR_CHSEL | DMA_SxCR_MBURST | DMA_SxCR_PBURST | \
 8021cdc:	4822      	ldr	r0, [pc, #136]	; (8021d68 <HAL_DMA_Init+0x28c>)
 8021cde:	4010      	ands	r0, r2
  tmp |=  hdma->Init.Channel             | hdma->Init.Direction        |
 8021ce0:	6861      	ldr	r1, [r4, #4]
 8021ce2:	68a2      	ldr	r2, [r4, #8]
 8021ce4:	430a      	orrs	r2, r1
          hdma->Init.PeriphInc           | hdma->Init.MemInc           |
 8021ce6:	68e1      	ldr	r1, [r4, #12]
  tmp |=  hdma->Init.Channel             | hdma->Init.Direction        |
 8021ce8:	430a      	orrs	r2, r1
          hdma->Init.PeriphInc           | hdma->Init.MemInc           |
 8021cea:	6921      	ldr	r1, [r4, #16]
 8021cec:	430a      	orrs	r2, r1
          hdma->Init.PeriphDataAlignment | hdma->Init.MemDataAlignment |
 8021cee:	6961      	ldr	r1, [r4, #20]
          hdma->Init.PeriphInc           | hdma->Init.MemInc           |
 8021cf0:	430a      	orrs	r2, r1
          hdma->Init.PeriphDataAlignment | hdma->Init.MemDataAlignment |
 8021cf2:	69a1      	ldr	r1, [r4, #24]
 8021cf4:	430a      	orrs	r2, r1
          hdma->Init.Mode                | hdma->Init.Priority;
 8021cf6:	69e1      	ldr	r1, [r4, #28]
          hdma->Init.PeriphDataAlignment | hdma->Init.MemDataAlignment |
 8021cf8:	430a      	orrs	r2, r1
          hdma->Init.Mode                | hdma->Init.Priority;
 8021cfa:	6a21      	ldr	r1, [r4, #32]
 8021cfc:	430a      	orrs	r2, r1
  tmp |=  hdma->Init.Channel             | hdma->Init.Direction        |
 8021cfe:	4302      	orrs	r2, r0
  if(hdma->Init.FIFOMode == DMA_FIFOMODE_ENABLE)
 8021d00:	6a61      	ldr	r1, [r4, #36]	; 0x24
 8021d02:	2904      	cmp	r1, #4
 8021d04:	d01e      	beq.n	8021d44 <HAL_DMA_Init+0x268>
  hdma->Instance->CR = tmp;  
 8021d06:	601a      	str	r2, [r3, #0]
  tmp = hdma->Instance->FCR;
 8021d08:	6826      	ldr	r6, [r4, #0]
 8021d0a:	6975      	ldr	r5, [r6, #20]
  tmp &= (uint32_t)~(DMA_SxFCR_DMDIS | DMA_SxFCR_FTH);
 8021d0c:	f025 0507 	bic.w	r5, r5, #7
  tmp |= hdma->Init.FIFOMode;
 8021d10:	6a63      	ldr	r3, [r4, #36]	; 0x24
 8021d12:	431d      	orrs	r5, r3
  if(hdma->Init.FIFOMode == DMA_FIFOMODE_ENABLE)
 8021d14:	2b04      	cmp	r3, #4
 8021d16:	d107      	bne.n	8021d28 <HAL_DMA_Init+0x24c>
    tmp |= hdma->Init.FIFOThreshold;
 8021d18:	6aa3      	ldr	r3, [r4, #40]	; 0x28
 8021d1a:	431d      	orrs	r5, r3
    if (hdma->Init.MemBurst != DMA_MBURST_SINGLE)
 8021d1c:	6ae3      	ldr	r3, [r4, #44]	; 0x2c
 8021d1e:	b11b      	cbz	r3, 8021d28 <HAL_DMA_Init+0x24c>
      if (DMA_CheckFifoParam(hdma) != HAL_OK)
 8021d20:	4620      	mov	r0, r4
 8021d22:	f7ff fe93 	bl	8021a4c <DMA_CheckFifoParam>
 8021d26:	b990      	cbnz	r0, 8021d4e <HAL_DMA_Init+0x272>
  hdma->Instance->FCR = tmp;
 8021d28:	6175      	str	r5, [r6, #20]
  regs = (DMA_Base_Registers *)DMA_CalcBaseAndBitshift(hdma);
 8021d2a:	4620      	mov	r0, r4
 8021d2c:	f7ff fe6c 	bl	8021a08 <DMA_CalcBaseAndBitshift>
  regs->IFCR = 0x3FU << hdma->StreamIndex;
 8021d30:	6de2      	ldr	r2, [r4, #92]	; 0x5c
 8021d32:	233f      	movs	r3, #63	; 0x3f
 8021d34:	4093      	lsls	r3, r2
 8021d36:	6083      	str	r3, [r0, #8]
  hdma->ErrorCode = HAL_DMA_ERROR_NONE;
 8021d38:	2000      	movs	r0, #0
 8021d3a:	6560      	str	r0, [r4, #84]	; 0x54
  hdma->State = HAL_DMA_STATE_READY;
 8021d3c:	2301      	movs	r3, #1
 8021d3e:	f884 3035 	strb.w	r3, [r4, #53]	; 0x35
  return HAL_OK;
 8021d42:	e78d      	b.n	8021c60 <HAL_DMA_Init+0x184>
    tmp |=  hdma->Init.MemBurst | hdma->Init.PeriphBurst;
 8021d44:	6ae1      	ldr	r1, [r4, #44]	; 0x2c
 8021d46:	6b20      	ldr	r0, [r4, #48]	; 0x30
 8021d48:	4301      	orrs	r1, r0
 8021d4a:	430a      	orrs	r2, r1
 8021d4c:	e7db      	b.n	8021d06 <HAL_DMA_Init+0x22a>
        hdma->ErrorCode = HAL_DMA_ERROR_PARAM;
 8021d4e:	2340      	movs	r3, #64	; 0x40
 8021d50:	6563      	str	r3, [r4, #84]	; 0x54
        hdma->State = HAL_DMA_STATE_READY;
 8021d52:	2001      	movs	r0, #1
 8021d54:	f884 0035 	strb.w	r0, [r4, #53]	; 0x35
        return HAL_ERROR; 
 8021d58:	e782      	b.n	8021c60 <HAL_DMA_Init+0x184>
    return HAL_ERROR;
 8021d5a:	2001      	movs	r0, #1
 8021d5c:	e780      	b.n	8021c60 <HAL_DMA_Init+0x184>
 8021d5e:	bf00      	nop
 8021d60:	40026010 	.word	0x40026010
 8021d64:	0802e6e8 	.word	0x0802e6e8
 8021d68:	f010803f 	.word	0xf010803f

08021d6c <HAL_DMA_Start_IT>:
{
 8021d6c:	e92d 41f0 	stmdb	sp!, {r4, r5, r6, r7, r8, lr}
 8021d70:	4604      	mov	r4, r0
 8021d72:	460e      	mov	r6, r1
 8021d74:	4617      	mov	r7, r2
 8021d76:	461d      	mov	r5, r3
  DMA_Base_Registers *regs = (DMA_Base_Registers *)hdma->StreamBaseAddress;
 8021d78:	f8d0 8058 	ldr.w	r8, [r0, #88]	; 0x58
  assert_param(IS_DMA_BUFFER_SIZE(DataLength));
 8021d7c:	1e5a      	subs	r2, r3, #1
 8021d7e:	f64f 73fe 	movw	r3, #65534	; 0xfffe
 8021d82:	429a      	cmp	r2, r3
 8021d84:	d811      	bhi.n	8021daa <HAL_DMA_Start_IT+0x3e>
  __HAL_LOCK(hdma);
 8021d86:	f894 3034 	ldrb.w	r3, [r4, #52]	; 0x34
 8021d8a:	2b01      	cmp	r3, #1
 8021d8c:	d036      	beq.n	8021dfc <HAL_DMA_Start_IT+0x90>
 8021d8e:	2301      	movs	r3, #1
 8021d90:	f884 3034 	strb.w	r3, [r4, #52]	; 0x34
  if(HAL_DMA_STATE_READY == hdma->State)
 8021d94:	f894 3035 	ldrb.w	r3, [r4, #53]	; 0x35
 8021d98:	b2db      	uxtb	r3, r3
 8021d9a:	2b01      	cmp	r3, #1
 8021d9c:	d00b      	beq.n	8021db6 <HAL_DMA_Start_IT+0x4a>
    __HAL_UNLOCK(hdma);	  
 8021d9e:	2300      	movs	r3, #0
 8021da0:	f884 3034 	strb.w	r3, [r4, #52]	; 0x34
    status = HAL_BUSY;
 8021da4:	2002      	movs	r0, #2
}
 8021da6:	e8bd 81f0 	ldmia.w	sp!, {r4, r5, r6, r7, r8, pc}
  assert_param(IS_DMA_BUFFER_SIZE(DataLength));
 8021daa:	f240 11cb 	movw	r1, #459	; 0x1cb
 8021dae:	4814      	ldr	r0, [pc, #80]	; (8021e00 <HAL_DMA_Start_IT+0x94>)
 8021db0:	f7ff f8d8 	bl	8020f64 <assert_failed>
 8021db4:	e7e7      	b.n	8021d86 <HAL_DMA_Start_IT+0x1a>
    hdma->State = HAL_DMA_STATE_BUSY;
 8021db6:	2302      	movs	r3, #2
 8021db8:	f884 3035 	strb.w	r3, [r4, #53]	; 0x35
    hdma->ErrorCode = HAL_DMA_ERROR_NONE;
 8021dbc:	2300      	movs	r3, #0
 8021dbe:	6563      	str	r3, [r4, #84]	; 0x54
    DMA_SetConfig(hdma, SrcAddress, DstAddress, DataLength);
 8021dc0:	462b      	mov	r3, r5
 8021dc2:	463a      	mov	r2, r7
 8021dc4:	4631      	mov	r1, r6
 8021dc6:	4620      	mov	r0, r4
 8021dc8:	f7ff fe08 	bl	80219dc <DMA_SetConfig>
    regs->IFCR = 0x3FU << hdma->StreamIndex;
 8021dcc:	6de2      	ldr	r2, [r4, #92]	; 0x5c
 8021dce:	233f      	movs	r3, #63	; 0x3f
 8021dd0:	4093      	lsls	r3, r2
 8021dd2:	f8c8 3008 	str.w	r3, [r8, #8]
    hdma->Instance->CR  |= DMA_IT_TC | DMA_IT_TE | DMA_IT_DME;
 8021dd6:	6822      	ldr	r2, [r4, #0]
 8021dd8:	6813      	ldr	r3, [r2, #0]
 8021dda:	f043 0316 	orr.w	r3, r3, #22
 8021dde:	6013      	str	r3, [r2, #0]
    if(hdma->XferHalfCpltCallback != NULL)
 8021de0:	6c23      	ldr	r3, [r4, #64]	; 0x40
 8021de2:	b123      	cbz	r3, 8021dee <HAL_DMA_Start_IT+0x82>
      hdma->Instance->CR  |= DMA_IT_HT;
 8021de4:	6822      	ldr	r2, [r4, #0]
 8021de6:	6813      	ldr	r3, [r2, #0]
 8021de8:	f043 0308 	orr.w	r3, r3, #8
 8021dec:	6013      	str	r3, [r2, #0]
    __HAL_DMA_ENABLE(hdma);
 8021dee:	6822      	ldr	r2, [r4, #0]
 8021df0:	6813      	ldr	r3, [r2, #0]
 8021df2:	f043 0301 	orr.w	r3, r3, #1
 8021df6:	6013      	str	r3, [r2, #0]
  HAL_StatusTypeDef status = HAL_OK;
 8021df8:	2000      	movs	r0, #0
 8021dfa:	e7d4      	b.n	8021da6 <HAL_DMA_Start_IT+0x3a>
  __HAL_LOCK(hdma);
 8021dfc:	2002      	movs	r0, #2
 8021dfe:	e7d2      	b.n	8021da6 <HAL_DMA_Start_IT+0x3a>
 8021e00:	0802e6e8 	.word	0x0802e6e8

08021e04 <HAL_DMA_Abort>:
{
 8021e04:	b570      	push	{r4, r5, r6, lr}
 8021e06:	4604      	mov	r4, r0
  DMA_Base_Registers *regs = (DMA_Base_Registers *)hdma->StreamBaseAddress;
 8021e08:	6d86      	ldr	r6, [r0, #88]	; 0x58
  uint32_t tickstart = HAL_GetTick();
 8021e0a:	f7ff fd65 	bl	80218d8 <HAL_GetTick>
  if(hdma->State != HAL_DMA_STATE_BUSY)
 8021e0e:	f894 3035 	ldrb.w	r3, [r4, #53]	; 0x35
 8021e12:	b2db      	uxtb	r3, r3
 8021e14:	2b02      	cmp	r3, #2
 8021e16:	d006      	beq.n	8021e26 <HAL_DMA_Abort+0x22>
    hdma->ErrorCode = HAL_DMA_ERROR_NO_XFER;
 8021e18:	2380      	movs	r3, #128	; 0x80
 8021e1a:	6563      	str	r3, [r4, #84]	; 0x54
    __HAL_UNLOCK(hdma);
 8021e1c:	2300      	movs	r3, #0
 8021e1e:	f884 3034 	strb.w	r3, [r4, #52]	; 0x34
    return HAL_ERROR;
 8021e22:	2001      	movs	r0, #1
}
 8021e24:	bd70      	pop	{r4, r5, r6, pc}
 8021e26:	4605      	mov	r5, r0
    hdma->Instance->CR  &= ~(DMA_IT_TC | DMA_IT_TE | DMA_IT_DME);
 8021e28:	6822      	ldr	r2, [r4, #0]
 8021e2a:	6813      	ldr	r3, [r2, #0]
 8021e2c:	f023 0316 	bic.w	r3, r3, #22
 8021e30:	6013      	str	r3, [r2, #0]
    hdma->Instance->FCR &= ~(DMA_IT_FE);
 8021e32:	6822      	ldr	r2, [r4, #0]
 8021e34:	6953      	ldr	r3, [r2, #20]
 8021e36:	f023 0380 	bic.w	r3, r3, #128	; 0x80
 8021e3a:	6153      	str	r3, [r2, #20]
    if((hdma->XferHalfCpltCallback != NULL) || (hdma->XferM1HalfCpltCallback != NULL))
 8021e3c:	6c23      	ldr	r3, [r4, #64]	; 0x40
 8021e3e:	b1e3      	cbz	r3, 8021e7a <HAL_DMA_Abort+0x76>
      hdma->Instance->CR  &= ~(DMA_IT_HT);
 8021e40:	6822      	ldr	r2, [r4, #0]
 8021e42:	6813      	ldr	r3, [r2, #0]
 8021e44:	f023 0308 	bic.w	r3, r3, #8
 8021e48:	6013      	str	r3, [r2, #0]
    __HAL_DMA_DISABLE(hdma);
 8021e4a:	6822      	ldr	r2, [r4, #0]
 8021e4c:	6813      	ldr	r3, [r2, #0]
 8021e4e:	f023 0301 	bic.w	r3, r3, #1
 8021e52:	6013      	str	r3, [r2, #0]
    while((hdma->Instance->CR & DMA_SxCR_EN) != RESET)
 8021e54:	6823      	ldr	r3, [r4, #0]
 8021e56:	681b      	ldr	r3, [r3, #0]
 8021e58:	f013 0f01 	tst.w	r3, #1
 8021e5c:	d011      	beq.n	8021e82 <HAL_DMA_Abort+0x7e>
      if((HAL_GetTick() - tickstart ) > HAL_TIMEOUT_DMA_ABORT)
 8021e5e:	f7ff fd3b 	bl	80218d8 <HAL_GetTick>
 8021e62:	1b43      	subs	r3, r0, r5
 8021e64:	2b05      	cmp	r3, #5
 8021e66:	d9f5      	bls.n	8021e54 <HAL_DMA_Abort+0x50>
        hdma->ErrorCode = HAL_DMA_ERROR_TIMEOUT;
 8021e68:	2320      	movs	r3, #32
 8021e6a:	6563      	str	r3, [r4, #84]	; 0x54
        hdma->State = HAL_DMA_STATE_TIMEOUT;
 8021e6c:	2003      	movs	r0, #3
 8021e6e:	f884 0035 	strb.w	r0, [r4, #53]	; 0x35
        __HAL_UNLOCK(hdma);
 8021e72:	2300      	movs	r3, #0
 8021e74:	f884 3034 	strb.w	r3, [r4, #52]	; 0x34
        return HAL_TIMEOUT;
 8021e78:	e7d4      	b.n	8021e24 <HAL_DMA_Abort+0x20>
    if((hdma->XferHalfCpltCallback != NULL) || (hdma->XferM1HalfCpltCallback != NULL))
 8021e7a:	6ca3      	ldr	r3, [r4, #72]	; 0x48
 8021e7c:	2b00      	cmp	r3, #0
 8021e7e:	d1df      	bne.n	8021e40 <HAL_DMA_Abort+0x3c>
 8021e80:	e7e3      	b.n	8021e4a <HAL_DMA_Abort+0x46>
    regs->IFCR = 0x3FU << hdma->StreamIndex;
 8021e82:	6de2      	ldr	r2, [r4, #92]	; 0x5c
 8021e84:	233f      	movs	r3, #63	; 0x3f
 8021e86:	4093      	lsls	r3, r2
 8021e88:	60b3      	str	r3, [r6, #8]
    hdma->State = HAL_DMA_STATE_READY;
 8021e8a:	2301      	movs	r3, #1
 8021e8c:	f884 3035 	strb.w	r3, [r4, #53]	; 0x35
    __HAL_UNLOCK(hdma);
 8021e90:	2000      	movs	r0, #0
 8021e92:	f884 0034 	strb.w	r0, [r4, #52]	; 0x34
  return HAL_OK;
 8021e96:	e7c5      	b.n	8021e24 <HAL_DMA_Abort+0x20>

08021e98 <HAL_DMA_Abort_IT>:
  if(hdma->State != HAL_DMA_STATE_BUSY)
 8021e98:	f890 3035 	ldrb.w	r3, [r0, #53]	; 0x35
 8021e9c:	b2db      	uxtb	r3, r3
 8021e9e:	2b02      	cmp	r3, #2
 8021ea0:	d003      	beq.n	8021eaa <HAL_DMA_Abort_IT+0x12>
    hdma->ErrorCode = HAL_DMA_ERROR_NO_XFER;
 8021ea2:	2380      	movs	r3, #128	; 0x80
 8021ea4:	6543      	str	r3, [r0, #84]	; 0x54
    return HAL_ERROR;
 8021ea6:	2001      	movs	r0, #1
 8021ea8:	4770      	bx	lr
    hdma->State = HAL_DMA_STATE_ABORT;
 8021eaa:	2305      	movs	r3, #5
 8021eac:	f880 3035 	strb.w	r3, [r0, #53]	; 0x35
    __HAL_DMA_DISABLE(hdma);
 8021eb0:	6802      	ldr	r2, [r0, #0]
 8021eb2:	6813      	ldr	r3, [r2, #0]
 8021eb4:	f023 0301 	bic.w	r3, r3, #1
 8021eb8:	6013      	str	r3, [r2, #0]
  return HAL_OK;
 8021eba:	2000      	movs	r0, #0
}
 8021ebc:	4770      	bx	lr
	...

08021ec0 <HAL_DMA_IRQHandler>:
{
 8021ec0:	b5f0      	push	{r4, r5, r6, r7, lr}
 8021ec2:	b083      	sub	sp, #12
 8021ec4:	4604      	mov	r4, r0
  __IO uint32_t count = 0U;
 8021ec6:	2300      	movs	r3, #0
 8021ec8:	9301      	str	r3, [sp, #4]
  uint32_t timeout = SystemCoreClock / 9600U;
 8021eca:	4b72      	ldr	r3, [pc, #456]	; (8022094 <HAL_DMA_IRQHandler+0x1d4>)
 8021ecc:	681d      	ldr	r5, [r3, #0]
 8021ece:	4b72      	ldr	r3, [pc, #456]	; (8022098 <HAL_DMA_IRQHandler+0x1d8>)
 8021ed0:	fba3 3505 	umull	r3, r5, r3, r5
 8021ed4:	0aad      	lsrs	r5, r5, #10
  DMA_Base_Registers *regs = (DMA_Base_Registers *)hdma->StreamBaseAddress;
 8021ed6:	6d87      	ldr	r7, [r0, #88]	; 0x58
  tmpisr = regs->ISR;
 8021ed8:	683e      	ldr	r6, [r7, #0]
  if ((tmpisr & (DMA_FLAG_TEIF0_4 << hdma->StreamIndex)) != RESET)
 8021eda:	6dc2      	ldr	r2, [r0, #92]	; 0x5c
 8021edc:	2308      	movs	r3, #8
 8021ede:	4093      	lsls	r3, r2
 8021ee0:	4233      	tst	r3, r6
 8021ee2:	d010      	beq.n	8021f06 <HAL_DMA_IRQHandler+0x46>
    if(__HAL_DMA_GET_IT_SOURCE(hdma, DMA_IT_TE) != RESET)
 8021ee4:	6803      	ldr	r3, [r0, #0]
 8021ee6:	681a      	ldr	r2, [r3, #0]
 8021ee8:	f012 0f04 	tst.w	r2, #4
 8021eec:	d00b      	beq.n	8021f06 <HAL_DMA_IRQHandler+0x46>
      hdma->Instance->CR  &= ~(DMA_IT_TE);
 8021eee:	681a      	ldr	r2, [r3, #0]
 8021ef0:	f022 0204 	bic.w	r2, r2, #4
 8021ef4:	601a      	str	r2, [r3, #0]
      regs->IFCR = DMA_FLAG_TEIF0_4 << hdma->StreamIndex;
 8021ef6:	6dc2      	ldr	r2, [r0, #92]	; 0x5c
 8021ef8:	2308      	movs	r3, #8
 8021efa:	4093      	lsls	r3, r2
 8021efc:	60bb      	str	r3, [r7, #8]
      hdma->ErrorCode |= HAL_DMA_ERROR_TE;
 8021efe:	6d43      	ldr	r3, [r0, #84]	; 0x54
 8021f00:	f043 0301 	orr.w	r3, r3, #1
 8021f04:	6543      	str	r3, [r0, #84]	; 0x54
  if ((tmpisr & (DMA_FLAG_FEIF0_4 << hdma->StreamIndex)) != RESET)
 8021f06:	6de2      	ldr	r2, [r4, #92]	; 0x5c
 8021f08:	2301      	movs	r3, #1
 8021f0a:	4093      	lsls	r3, r2
 8021f0c:	4233      	tst	r3, r6
 8021f0e:	d009      	beq.n	8021f24 <HAL_DMA_IRQHandler+0x64>
    if(__HAL_DMA_GET_IT_SOURCE(hdma, DMA_IT_FE) != RESET)
 8021f10:	6822      	ldr	r2, [r4, #0]
 8021f12:	6952      	ldr	r2, [r2, #20]
 8021f14:	f012 0f80 	tst.w	r2, #128	; 0x80
 8021f18:	d004      	beq.n	8021f24 <HAL_DMA_IRQHandler+0x64>
      regs->IFCR = DMA_FLAG_FEIF0_4 << hdma->StreamIndex;
 8021f1a:	60bb      	str	r3, [r7, #8]
      hdma->ErrorCode |= HAL_DMA_ERROR_FE;
 8021f1c:	6d63      	ldr	r3, [r4, #84]	; 0x54
 8021f1e:	f043 0302 	orr.w	r3, r3, #2
 8021f22:	6563      	str	r3, [r4, #84]	; 0x54
  if ((tmpisr & (DMA_FLAG_DMEIF0_4 << hdma->StreamIndex)) != RESET)
 8021f24:	6de2      	ldr	r2, [r4, #92]	; 0x5c
 8021f26:	2304      	movs	r3, #4
 8021f28:	4093      	lsls	r3, r2
 8021f2a:	4233      	tst	r3, r6
 8021f2c:	d009      	beq.n	8021f42 <HAL_DMA_IRQHandler+0x82>
    if(__HAL_DMA_GET_IT_SOURCE(hdma, DMA_IT_DME) != RESET)
 8021f2e:	6822      	ldr	r2, [r4, #0]
 8021f30:	6812      	ldr	r2, [r2, #0]
 8021f32:	f012 0f02 	tst.w	r2, #2
 8021f36:	d004      	beq.n	8021f42 <HAL_DMA_IRQHandler+0x82>
      regs->IFCR = DMA_FLAG_DMEIF0_4 << hdma->StreamIndex;
 8021f38:	60bb      	str	r3, [r7, #8]
      hdma->ErrorCode |= HAL_DMA_ERROR_DME;
 8021f3a:	6d63      	ldr	r3, [r4, #84]	; 0x54
 8021f3c:	f043 0304 	orr.w	r3, r3, #4
 8021f40:	6563      	str	r3, [r4, #84]	; 0x54
  if ((tmpisr & (DMA_FLAG_HTIF0_4 << hdma->StreamIndex)) != RESET)
 8021f42:	6de2      	ldr	r2, [r4, #92]	; 0x5c
 8021f44:	2310      	movs	r3, #16
 8021f46:	4093      	lsls	r3, r2
 8021f48:	4233      	tst	r3, r6
 8021f4a:	d024      	beq.n	8021f96 <HAL_DMA_IRQHandler+0xd6>
    if(__HAL_DMA_GET_IT_SOURCE(hdma, DMA_IT_HT) != RESET)
 8021f4c:	6822      	ldr	r2, [r4, #0]
 8021f4e:	6812      	ldr	r2, [r2, #0]
 8021f50:	f012 0f08 	tst.w	r2, #8
 8021f54:	d01f      	beq.n	8021f96 <HAL_DMA_IRQHandler+0xd6>
      regs->IFCR = DMA_FLAG_HTIF0_4 << hdma->StreamIndex;
 8021f56:	60bb      	str	r3, [r7, #8]
      if(((hdma->Instance->CR) & (uint32_t)(DMA_SxCR_DBM)) != RESET)
 8021f58:	6823      	ldr	r3, [r4, #0]
 8021f5a:	681a      	ldr	r2, [r3, #0]
 8021f5c:	f412 2f80 	tst.w	r2, #262144	; 0x40000
 8021f60:	d00d      	beq.n	8021f7e <HAL_DMA_IRQHandler+0xbe>
        if((hdma->Instance->CR & DMA_SxCR_CT) == RESET)
 8021f62:	681b      	ldr	r3, [r3, #0]
 8021f64:	f413 2f00 	tst.w	r3, #524288	; 0x80000
 8021f68:	d104      	bne.n	8021f74 <HAL_DMA_IRQHandler+0xb4>
          if(hdma->XferHalfCpltCallback != NULL)
 8021f6a:	6c23      	ldr	r3, [r4, #64]	; 0x40
 8021f6c:	b19b      	cbz	r3, 8021f96 <HAL_DMA_IRQHandler+0xd6>
            hdma->XferHalfCpltCallback(hdma);
 8021f6e:	4620      	mov	r0, r4
 8021f70:	4798      	blx	r3
 8021f72:	e010      	b.n	8021f96 <HAL_DMA_IRQHandler+0xd6>
          if(hdma->XferM1HalfCpltCallback != NULL)
 8021f74:	6ca3      	ldr	r3, [r4, #72]	; 0x48
 8021f76:	b173      	cbz	r3, 8021f96 <HAL_DMA_IRQHandler+0xd6>
            hdma->XferM1HalfCpltCallback(hdma);
 8021f78:	4620      	mov	r0, r4
 8021f7a:	4798      	blx	r3
 8021f7c:	e00b      	b.n	8021f96 <HAL_DMA_IRQHandler+0xd6>
        if((hdma->Instance->CR & DMA_SxCR_CIRC) == RESET)
 8021f7e:	681a      	ldr	r2, [r3, #0]
 8021f80:	f412 7f80 	tst.w	r2, #256	; 0x100
 8021f84:	d103      	bne.n	8021f8e <HAL_DMA_IRQHandler+0xce>
          hdma->Instance->CR  &= ~(DMA_IT_HT);
 8021f86:	681a      	ldr	r2, [r3, #0]
 8021f88:	f022 0208 	bic.w	r2, r2, #8
 8021f8c:	601a      	str	r2, [r3, #0]
        if(hdma->XferHalfCpltCallback != NULL)
 8021f8e:	6c23      	ldr	r3, [r4, #64]	; 0x40
 8021f90:	b10b      	cbz	r3, 8021f96 <HAL_DMA_IRQHandler+0xd6>
          hdma->XferHalfCpltCallback(hdma);
 8021f92:	4620      	mov	r0, r4
 8021f94:	4798      	blx	r3
  if ((tmpisr & (DMA_FLAG_TCIF0_4 << hdma->StreamIndex)) != RESET)
 8021f96:	6de2      	ldr	r2, [r4, #92]	; 0x5c
 8021f98:	2320      	movs	r3, #32
 8021f9a:	4093      	lsls	r3, r2
 8021f9c:	4233      	tst	r3, r6
 8021f9e:	d055      	beq.n	802204c <HAL_DMA_IRQHandler+0x18c>
    if(__HAL_DMA_GET_IT_SOURCE(hdma, DMA_IT_TC) != RESET)
 8021fa0:	6822      	ldr	r2, [r4, #0]
 8021fa2:	6812      	ldr	r2, [r2, #0]
 8021fa4:	f012 0f10 	tst.w	r2, #16
 8021fa8:	d050      	beq.n	802204c <HAL_DMA_IRQHandler+0x18c>
      regs->IFCR = DMA_FLAG_TCIF0_4 << hdma->StreamIndex;
 8021faa:	60bb      	str	r3, [r7, #8]
      if(HAL_DMA_STATE_ABORT == hdma->State)
 8021fac:	f894 3035 	ldrb.w	r3, [r4, #53]	; 0x35
 8021fb0:	b2db      	uxtb	r3, r3
 8021fb2:	2b05      	cmp	r3, #5
 8021fb4:	d00e      	beq.n	8021fd4 <HAL_DMA_IRQHandler+0x114>
      if(((hdma->Instance->CR) & (uint32_t)(DMA_SxCR_DBM)) != RESET)
 8021fb6:	6823      	ldr	r3, [r4, #0]
 8021fb8:	681a      	ldr	r2, [r3, #0]
 8021fba:	f412 2f80 	tst.w	r2, #262144	; 0x40000
 8021fbe:	d033      	beq.n	8022028 <HAL_DMA_IRQHandler+0x168>
        if((hdma->Instance->CR & DMA_SxCR_CT) == RESET)
 8021fc0:	681b      	ldr	r3, [r3, #0]
 8021fc2:	f413 2f00 	tst.w	r3, #524288	; 0x80000
 8021fc6:	d12a      	bne.n	802201e <HAL_DMA_IRQHandler+0x15e>
          if(hdma->XferM1CpltCallback != NULL)
 8021fc8:	6c63      	ldr	r3, [r4, #68]	; 0x44
 8021fca:	2b00      	cmp	r3, #0
 8021fcc:	d03e      	beq.n	802204c <HAL_DMA_IRQHandler+0x18c>
            hdma->XferM1CpltCallback(hdma);
 8021fce:	4620      	mov	r0, r4
 8021fd0:	4798      	blx	r3
 8021fd2:	e03b      	b.n	802204c <HAL_DMA_IRQHandler+0x18c>
        hdma->Instance->CR  &= ~(DMA_IT_TC | DMA_IT_TE | DMA_IT_DME);
 8021fd4:	6822      	ldr	r2, [r4, #0]
 8021fd6:	6813      	ldr	r3, [r2, #0]
 8021fd8:	f023 0316 	bic.w	r3, r3, #22
 8021fdc:	6013      	str	r3, [r2, #0]
        hdma->Instance->FCR &= ~(DMA_IT_FE);
 8021fde:	6822      	ldr	r2, [r4, #0]
 8021fe0:	6953      	ldr	r3, [r2, #20]
 8021fe2:	f023 0380 	bic.w	r3, r3, #128	; 0x80
 8021fe6:	6153      	str	r3, [r2, #20]
        if((hdma->XferHalfCpltCallback != NULL) || (hdma->XferM1HalfCpltCallback != NULL))
 8021fe8:	6c23      	ldr	r3, [r4, #64]	; 0x40
 8021fea:	b1a3      	cbz	r3, 8022016 <HAL_DMA_IRQHandler+0x156>
          hdma->Instance->CR  &= ~(DMA_IT_HT);
 8021fec:	6822      	ldr	r2, [r4, #0]
 8021fee:	6813      	ldr	r3, [r2, #0]
 8021ff0:	f023 0308 	bic.w	r3, r3, #8
 8021ff4:	6013      	str	r3, [r2, #0]
        regs->IFCR = 0x3FU << hdma->StreamIndex;
 8021ff6:	6de2      	ldr	r2, [r4, #92]	; 0x5c
 8021ff8:	233f      	movs	r3, #63	; 0x3f
 8021ffa:	4093      	lsls	r3, r2
 8021ffc:	60bb      	str	r3, [r7, #8]
        hdma->State = HAL_DMA_STATE_READY;
 8021ffe:	2301      	movs	r3, #1
 8022000:	f884 3035 	strb.w	r3, [r4, #53]	; 0x35
        __HAL_UNLOCK(hdma);
 8022004:	2300      	movs	r3, #0
 8022006:	f884 3034 	strb.w	r3, [r4, #52]	; 0x34
        if(hdma->XferAbortCallback != NULL)
 802200a:	6d23      	ldr	r3, [r4, #80]	; 0x50
 802200c:	2b00      	cmp	r3, #0
 802200e:	d03f      	beq.n	8022090 <HAL_DMA_IRQHandler+0x1d0>
          hdma->XferAbortCallback(hdma);
 8022010:	4620      	mov	r0, r4
 8022012:	4798      	blx	r3
        return;
 8022014:	e03c      	b.n	8022090 <HAL_DMA_IRQHandler+0x1d0>
        if((hdma->XferHalfCpltCallback != NULL) || (hdma->XferM1HalfCpltCallback != NULL))
 8022016:	6ca3      	ldr	r3, [r4, #72]	; 0x48
 8022018:	2b00      	cmp	r3, #0
 802201a:	d1e7      	bne.n	8021fec <HAL_DMA_IRQHandler+0x12c>
 802201c:	e7eb      	b.n	8021ff6 <HAL_DMA_IRQHandler+0x136>
          if(hdma->XferCpltCallback != NULL)
 802201e:	6be3      	ldr	r3, [r4, #60]	; 0x3c
 8022020:	b1a3      	cbz	r3, 802204c <HAL_DMA_IRQHandler+0x18c>
            hdma->XferCpltCallback(hdma);
 8022022:	4620      	mov	r0, r4
 8022024:	4798      	blx	r3
 8022026:	e011      	b.n	802204c <HAL_DMA_IRQHandler+0x18c>
        if((hdma->Instance->CR & DMA_SxCR_CIRC) == RESET)
 8022028:	681a      	ldr	r2, [r3, #0]
 802202a:	f412 7f80 	tst.w	r2, #256	; 0x100
 802202e:	d109      	bne.n	8022044 <HAL_DMA_IRQHandler+0x184>
          hdma->Instance->CR  &= ~(DMA_IT_TC);
 8022030:	681a      	ldr	r2, [r3, #0]
 8022032:	f022 0210 	bic.w	r2, r2, #16
 8022036:	601a      	str	r2, [r3, #0]
          hdma->State = HAL_DMA_STATE_READY;
 8022038:	2301      	movs	r3, #1
 802203a:	f884 3035 	strb.w	r3, [r4, #53]	; 0x35
          __HAL_UNLOCK(hdma);
 802203e:	2300      	movs	r3, #0
 8022040:	f884 3034 	strb.w	r3, [r4, #52]	; 0x34
        if(hdma->XferCpltCallback != NULL)
 8022044:	6be3      	ldr	r3, [r4, #60]	; 0x3c
 8022046:	b10b      	cbz	r3, 802204c <HAL_DMA_IRQHandler+0x18c>
          hdma->XferCpltCallback(hdma);
 8022048:	4620      	mov	r0, r4
 802204a:	4798      	blx	r3
  if(hdma->ErrorCode != HAL_DMA_ERROR_NONE)
 802204c:	6d63      	ldr	r3, [r4, #84]	; 0x54
 802204e:	b1fb      	cbz	r3, 8022090 <HAL_DMA_IRQHandler+0x1d0>
    if((hdma->ErrorCode & HAL_DMA_ERROR_TE) != RESET)
 8022050:	6d63      	ldr	r3, [r4, #84]	; 0x54
 8022052:	f013 0f01 	tst.w	r3, #1
 8022056:	d017      	beq.n	8022088 <HAL_DMA_IRQHandler+0x1c8>
      hdma->State = HAL_DMA_STATE_ABORT;
 8022058:	2305      	movs	r3, #5
 802205a:	f884 3035 	strb.w	r3, [r4, #53]	; 0x35
      __HAL_DMA_DISABLE(hdma);
 802205e:	6822      	ldr	r2, [r4, #0]
 8022060:	6813      	ldr	r3, [r2, #0]
 8022062:	f023 0301 	bic.w	r3, r3, #1
 8022066:	6013      	str	r3, [r2, #0]
        if (++count > timeout)
 8022068:	9b01      	ldr	r3, [sp, #4]
 802206a:	3301      	adds	r3, #1
 802206c:	9301      	str	r3, [sp, #4]
 802206e:	42ab      	cmp	r3, r5
 8022070:	d804      	bhi.n	802207c <HAL_DMA_IRQHandler+0x1bc>
      while((hdma->Instance->CR & DMA_SxCR_EN) != RESET);
 8022072:	6823      	ldr	r3, [r4, #0]
 8022074:	681b      	ldr	r3, [r3, #0]
 8022076:	f013 0f01 	tst.w	r3, #1
 802207a:	d1f5      	bne.n	8022068 <HAL_DMA_IRQHandler+0x1a8>
      hdma->State = HAL_DMA_STATE_READY;
 802207c:	2301      	movs	r3, #1
 802207e:	f884 3035 	strb.w	r3, [r4, #53]	; 0x35
      __HAL_UNLOCK(hdma);
 8022082:	2300      	movs	r3, #0
 8022084:	f884 3034 	strb.w	r3, [r4, #52]	; 0x34
    if(hdma->XferErrorCallback != NULL)
 8022088:	6ce3      	ldr	r3, [r4, #76]	; 0x4c
 802208a:	b10b      	cbz	r3, 8022090 <HAL_DMA_IRQHandler+0x1d0>
      hdma->XferErrorCallback(hdma);
 802208c:	4620      	mov	r0, r4
 802208e:	4798      	blx	r3
}
 8022090:	b003      	add	sp, #12
 8022092:	bdf0      	pop	{r4, r5, r6, r7, pc}
 8022094:	20000000 	.word	0x20000000
 8022098:	1b4e81b5 	.word	0x1b4e81b5

0802209c <FLASH_SetErrorCode>:
  * @brief  Set the specific FLASH error flag.
  * @retval None
  */
static void FLASH_SetErrorCode(void)
{ 
  if(__HAL_FLASH_GET_FLAG(FLASH_FLAG_WRPERR) != RESET)
 802209c:	4b27      	ldr	r3, [pc, #156]	; (802213c <FLASH_SetErrorCode+0xa0>)
 802209e:	68db      	ldr	r3, [r3, #12]
 80220a0:	f013 0f10 	tst.w	r3, #16
 80220a4:	d007      	beq.n	80220b6 <FLASH_SetErrorCode+0x1a>
  {
   pFlash.ErrorCode |= HAL_FLASH_ERROR_WRP;
 80220a6:	4a26      	ldr	r2, [pc, #152]	; (8022140 <FLASH_SetErrorCode+0xa4>)
 80220a8:	69d3      	ldr	r3, [r2, #28]
 80220aa:	f043 0310 	orr.w	r3, r3, #16
 80220ae:	61d3      	str	r3, [r2, #28]
   
   /* Clear FLASH write protection error pending bit */
   __HAL_FLASH_CLEAR_FLAG(FLASH_FLAG_WRPERR);
