
PACKER.elf:     file format elf32-littlearm

Sections:
Idx Name          Size      VMA       LMA       File off  Algn
  0 .isr_vector   000001c4  08020000  08020000  00010000  2**0
                  CONTENTS, ALLOC, LOAD, READONLY, DATA
  1 .text         00008a08  080201d0  080201d0  000101d0  2**4
                  CONTENTS, ALLOC, LOAD, READONLY, CODE
  2 .rodata       00000a6c  08028bd8  08028bd8  00018bd8  2**2
                  CONTENTS, ALLOC, LOAD, READONLY, DATA
  3 .ARM.extab    00000000  08029644  08029644  00020258  2**0
                  CONTENTS
  4 .ARM          00000008  08029644  08029644  00019644  2**2
                  CONTENTS, ALLOC, LOAD, READONLY, DATA
  5 .preinit_array 00000000  0802964c  0802964c  00020258  2**0
                  CONTENTS, ALLOC, LOAD, DATA
  6 .init_array   00000004  0802964c  0802964c  0001964c  2**2
                  CONTENTS, ALLOC, LOAD, DATA
  7 .fini_array   00000004  08029650  08029650  00019650  2**2
                  CONTENTS, ALLOC, LOAD, DATA
  8 .data         00000258  20000000  08029654  00020000  2**2
                  CONTENTS, ALLOC, LOAD, DATA
  9 .bss          00008abc  20000258  080298ac  00020258  2**2
                  ALLOC
 10 ._user_heap_stack 00001804  20008d14  080298ac  00028d14  2**0
                  ALLOC
 11 .ARM.attributes 00000030  00000000  00000000  00020258  2**0
                  CONTENTS, READONLY
 12 .debug_info   00040bb6  00000000  00000000  00020288  2**0
                  CONTENTS, READONLY, DEBUGGING, OCTETS
 13 .debug_abbrev 00007f0a  00000000  00000000  00060e3e  2**0
                  CONTENTS, READONLY, DEBUGGING, OCTETS
 14 .debug_aranges 000019b0  00000000  00000000  00068d48  2**3
                  CONTENTS, READONLY, DEBUGGING, OCTETS
 15 .debug_ranges 000026f0  00000000  00000000  0006a6f8  2**3
                  CONTENTS, READONLY, DEBUGGING, OCTETS
 16 .debug_macro  00026595  00000000  00000000  0006cde8  2**0
                  CONTENTS, READONLY, DEBUGGING, OCTETS
 17 .debug_line   00032197  00000000  00000000  0009337d  2**0
                  CONTENTS, READONLY, DEBUGGING, OCTETS
 18 .debug_str    000d8743  00000000  00000000  000c5514  2**0
                  CONTENTS, READONLY, DEBUGGING, OCTETS
 19 .comment      00000053  00000000  00000000  0019dc57  2**0
                  CONTENTS, READONLY
 20 .debug_frame  00004f70  00000000  00000000  0019dcac  2**2
                  CONTENTS, READONLY, DEBUGGING, OCTETS
 21 .debug_loc    0001ab00  00000000  00000000  001a2c1c  2**0
                  CONTENTS, READONLY, DEBUGGING, OCTETS

Disassembly of section .text:

080201d0 <__do_global_dtors_aux>:
 80201d0:	b510      	push	{r4, lr}
 80201d2:	4c05      	ldr	r4, [pc, #20]	; (80201e8 <__do_global_dtors_aux+0x18>)
 80201d4:	7823      	ldrb	r3, [r4, #0]
 80201d6:	b933      	cbnz	r3, 80201e6 <__do_global_dtors_aux+0x16>
 80201d8:	4b04      	ldr	r3, [pc, #16]	; (80201ec <__do_global_dtors_aux+0x1c>)
 80201da:	b113      	cbz	r3, 80201e2 <__do_global_dtors_aux+0x12>
 80201dc:	4804      	ldr	r0, [pc, #16]	; (80201f0 <__do_global_dtors_aux+0x20>)
 80201de:	f3af 8000 	nop.w
 80201e2:	2301      	movs	r3, #1
 80201e4:	7023      	strb	r3, [r4, #0]
 80201e6:	bd10      	pop	{r4, pc}
 80201e8:	20000258 	.word	0x20000258
 80201ec:	00000000 	.word	0x00000000
 80201f0:	08028bc0 	.word	0x08028bc0

080201f4 <frame_dummy>:
 80201f4:	b508      	push	{r3, lr}
 80201f6:	4b03      	ldr	r3, [pc, #12]	; (8020204 <frame_dummy+0x10>)
 80201f8:	b11b      	cbz	r3, 8020202 <frame_dummy+0xe>
 80201fa:	4903      	ldr	r1, [pc, #12]	; (8020208 <frame_dummy+0x14>)
 80201fc:	4803      	ldr	r0, [pc, #12]	; (802020c <frame_dummy+0x18>)
 80201fe:	f3af 8000 	nop.w
 8020202:	bd08      	pop	{r3, pc}
 8020204:	00000000 	.word	0x00000000
 8020208:	2000025c 	.word	0x2000025c
 802020c:	08028bc0 	.word	0x08028bc0

08020210 <__aeabi_d2f>:
 8020210:	ea4f 0241 	mov.w	r2, r1, lsl #1
 8020214:	f1b2 43e0 	subs.w	r3, r2, #1879048192	; 0x70000000
 8020218:	bf24      	itt	cs
 802021a:	f5b3 1c00 	subscs.w	ip, r3, #2097152	; 0x200000
 802021e:	f1dc 5cfe 	rsbscs	ip, ip, #532676608	; 0x1fc00000
 8020222:	d90d      	bls.n	8020240 <__aeabi_d2f+0x30>
 8020224:	f001 4c00 	and.w	ip, r1, #2147483648	; 0x80000000
 8020228:	ea4f 02c0 	mov.w	r2, r0, lsl #3
 802022c:	ea4c 7050 	orr.w	r0, ip, r0, lsr #29
 8020230:	f1b2 4f00 	cmp.w	r2, #2147483648	; 0x80000000
 8020234:	eb40 0083 	adc.w	r0, r0, r3, lsl #2
 8020238:	bf08      	it	eq
 802023a:	f020 0001 	biceq.w	r0, r0, #1
 802023e:	4770      	bx	lr
 8020240:	f011 4f80 	tst.w	r1, #1073741824	; 0x40000000
 8020244:	d121      	bne.n	802028a <__aeabi_d2f+0x7a>
 8020246:	f113 7238 	adds.w	r2, r3, #48234496	; 0x2e00000
 802024a:	bfbc      	itt	lt
 802024c:	f001 4000 	andlt.w	r0, r1, #2147483648	; 0x80000000
 8020250:	4770      	bxlt	lr
 8020252:	f441 1180 	orr.w	r1, r1, #1048576	; 0x100000
 8020256:	ea4f 5252 	mov.w	r2, r2, lsr #21
 802025a:	f1c2 0218 	rsb	r2, r2, #24
 802025e:	f1c2 0c20 	rsb	ip, r2, #32
 8020262:	fa10 f30c 	lsls.w	r3, r0, ip
 8020266:	fa20 f002 	lsr.w	r0, r0, r2
 802026a:	bf18      	it	ne
 802026c:	f040 0001 	orrne.w	r0, r0, #1
 8020270:	ea4f 23c1 	mov.w	r3, r1, lsl #11
 8020274:	ea4f 23d3 	mov.w	r3, r3, lsr #11
 8020278:	fa03 fc0c 	lsl.w	ip, r3, ip
 802027c:	ea40 000c 	orr.w	r0, r0, ip
 8020280:	fa23 f302 	lsr.w	r3, r3, r2
 8020284:	ea4f 0343 	mov.w	r3, r3, lsl #1
 8020288:	e7cc      	b.n	8020224 <__aeabi_d2f+0x14>
 802028a:	ea7f 5362 	mvns.w	r3, r2, asr #21
 802028e:	d107      	bne.n	80202a0 <__aeabi_d2f+0x90>
 8020290:	ea50 3301 	orrs.w	r3, r0, r1, lsl #12
 8020294:	bf1e      	ittt	ne
 8020296:	f04f 40fe 	movne.w	r0, #2130706432	; 0x7f000000
 802029a:	f440 0040 	orrne.w	r0, r0, #12582912	; 0xc00000
 802029e:	4770      	bxne	lr
 80202a0:	f001 4000 	and.w	r0, r1, #2147483648	; 0x80000000
 80202a4:	f040 40fe 	orr.w	r0, r0, #2130706432	; 0x7f000000
 80202a8:	f440 0000 	orr.w	r0, r0, #8388608	; 0x800000
 80202ac:	4770      	bx	lr
 80202ae:	bf00      	nop

080202b0 <__aeabi_uldivmod>:
 80202b0:	b953      	cbnz	r3, 80202c8 <__aeabi_uldivmod+0x18>
 80202b2:	b94a      	cbnz	r2, 80202c8 <__aeabi_uldivmod+0x18>
 80202b4:	2900      	cmp	r1, #0
 80202b6:	bf08      	it	eq
 80202b8:	2800      	cmpeq	r0, #0
 80202ba:	bf1c      	itt	ne
 80202bc:	f04f 31ff 	movne.w	r1, #4294967295
 80202c0:	f04f 30ff 	movne.w	r0, #4294967295
 80202c4:	f000 b96e 	b.w	80205a4 <__aeabi_idiv0>
 80202c8:	f1ad 0c08 	sub.w	ip, sp, #8
 80202cc:	e96d ce04 	strd	ip, lr, [sp, #-16]!
 80202d0:	f000 f806 	bl	80202e0 <__udivmoddi4>
 80202d4:	f8dd e004 	ldr.w	lr, [sp, #4]
 80202d8:	e9dd 2302 	ldrd	r2, r3, [sp, #8]
 80202dc:	b004      	add	sp, #16
 80202de:	4770      	bx	lr

080202e0 <__udivmoddi4>:
 80202e0:	e92d 47f0 	stmdb	sp!, {r4, r5, r6, r7, r8, r9, sl, lr}
 80202e4:	9d08      	ldr	r5, [sp, #32]
 80202e6:	4604      	mov	r4, r0
 80202e8:	468c      	mov	ip, r1
 80202ea:	2b00      	cmp	r3, #0
 80202ec:	f040 8083 	bne.w	80203f6 <__udivmoddi4+0x116>
 80202f0:	428a      	cmp	r2, r1
 80202f2:	4617      	mov	r7, r2
 80202f4:	d947      	bls.n	8020386 <__udivmoddi4+0xa6>
 80202f6:	fab2 f282 	clz	r2, r2
 80202fa:	b142      	cbz	r2, 802030e <__udivmoddi4+0x2e>
 80202fc:	f1c2 0020 	rsb	r0, r2, #32
 8020300:	fa24 f000 	lsr.w	r0, r4, r0
 8020304:	4091      	lsls	r1, r2
 8020306:	4097      	lsls	r7, r2
 8020308:	ea40 0c01 	orr.w	ip, r0, r1
 802030c:	4094      	lsls	r4, r2
 802030e:	ea4f 4817 	mov.w	r8, r7, lsr #16
 8020312:	0c23      	lsrs	r3, r4, #16
 8020314:	fbbc f6f8 	udiv	r6, ip, r8
 8020318:	fa1f fe87 	uxth.w	lr, r7
 802031c:	fb08 c116 	mls	r1, r8, r6, ip
 8020320:	ea43 4301 	orr.w	r3, r3, r1, lsl #16
 8020324:	fb06 f10e 	mul.w	r1, r6, lr
 8020328:	4299      	cmp	r1, r3
 802032a:	d909      	bls.n	8020340 <__udivmoddi4+0x60>
 802032c:	18fb      	adds	r3, r7, r3
 802032e:	f106 30ff 	add.w	r0, r6, #4294967295
 8020332:	f080 8119 	bcs.w	8020568 <__udivmoddi4+0x288>
 8020336:	4299      	cmp	r1, r3
 8020338:	f240 8116 	bls.w	8020568 <__udivmoddi4+0x288>
 802033c:	3e02      	subs	r6, #2
 802033e:	443b      	add	r3, r7
 8020340:	1a5b      	subs	r3, r3, r1
 8020342:	b2a4      	uxth	r4, r4
 8020344:	fbb3 f0f8 	udiv	r0, r3, r8
 8020348:	fb08 3310 	mls	r3, r8, r0, r3
 802034c:	ea44 4403 	orr.w	r4, r4, r3, lsl #16
 8020350:	fb00 fe0e 	mul.w	lr, r0, lr
 8020354:	45a6      	cmp	lr, r4
 8020356:	d909      	bls.n	802036c <__udivmoddi4+0x8c>
 8020358:	193c      	adds	r4, r7, r4
 802035a:	f100 33ff 	add.w	r3, r0, #4294967295
 802035e:	f080 8105 	bcs.w	802056c <__udivmoddi4+0x28c>
 8020362:	45a6      	cmp	lr, r4
 8020364:	f240 8102 	bls.w	802056c <__udivmoddi4+0x28c>
 8020368:	3802      	subs	r0, #2
 802036a:	443c      	add	r4, r7
 802036c:	ea40 4006 	orr.w	r0, r0, r6, lsl #16
 8020370:	eba4 040e 	sub.w	r4, r4, lr
 8020374:	2600      	movs	r6, #0
 8020376:	b11d      	cbz	r5, 8020380 <__udivmoddi4+0xa0>
 8020378:	40d4      	lsrs	r4, r2
 802037a:	2300      	movs	r3, #0
 802037c:	e9c5 4300 	strd	r4, r3, [r5]
 8020380:	4631      	mov	r1, r6
 8020382:	e8bd 87f0 	ldmia.w	sp!, {r4, r5, r6, r7, r8, r9, sl, pc}
 8020386:	b902      	cbnz	r2, 802038a <__udivmoddi4+0xaa>
 8020388:	deff      	udf	#255	; 0xff
 802038a:	fab2 f282 	clz	r2, r2
 802038e:	2a00      	cmp	r2, #0
 8020390:	d150      	bne.n	8020434 <__udivmoddi4+0x154>
 8020392:	1bcb      	subs	r3, r1, r7
 8020394:	ea4f 4e17 	mov.w	lr, r7, lsr #16
 8020398:	fa1f f887 	uxth.w	r8, r7
 802039c:	2601      	movs	r6, #1
 802039e:	fbb3 fcfe 	udiv	ip, r3, lr
 80203a2:	0c21      	lsrs	r1, r4, #16
 80203a4:	fb0e 331c 	mls	r3, lr, ip, r3
 80203a8:	ea41 4103 	orr.w	r1, r1, r3, lsl #16
 80203ac:	fb08 f30c 	mul.w	r3, r8, ip
 80203b0:	428b      	cmp	r3, r1
 80203b2:	d907      	bls.n	80203c4 <__udivmoddi4+0xe4>
 80203b4:	1879      	adds	r1, r7, r1
 80203b6:	f10c 30ff 	add.w	r0, ip, #4294967295
 80203ba:	d202      	bcs.n	80203c2 <__udivmoddi4+0xe2>
 80203bc:	428b      	cmp	r3, r1
 80203be:	f200 80e9 	bhi.w	8020594 <__udivmoddi4+0x2b4>
 80203c2:	4684      	mov	ip, r0
 80203c4:	1ac9      	subs	r1, r1, r3
 80203c6:	b2a3      	uxth	r3, r4
 80203c8:	fbb1 f0fe 	udiv	r0, r1, lr
 80203cc:	fb0e 1110 	mls	r1, lr, r0, r1
 80203d0:	ea43 4401 	orr.w	r4, r3, r1, lsl #16
 80203d4:	fb08 f800 	mul.w	r8, r8, r0
 80203d8:	45a0      	cmp	r8, r4
 80203da:	d907      	bls.n	80203ec <__udivmoddi4+0x10c>
 80203dc:	193c      	adds	r4, r7, r4
 80203de:	f100 33ff 	add.w	r3, r0, #4294967295
 80203e2:	d202      	bcs.n	80203ea <__udivmoddi4+0x10a>
 80203e4:	45a0      	cmp	r8, r4
 80203e6:	f200 80d9 	bhi.w	802059c <__udivmoddi4+0x2bc>
 80203ea:	4618      	mov	r0, r3
 80203ec:	eba4 0408 	sub.w	r4, r4, r8
 80203f0:	ea40 400c 	orr.w	r0, r0, ip, lsl #16
 80203f4:	e7bf      	b.n	8020376 <__udivmoddi4+0x96>
 80203f6:	428b      	cmp	r3, r1
 80203f8:	d909      	bls.n	802040e <__udivmoddi4+0x12e>
 80203fa:	2d00      	cmp	r5, #0
 80203fc:	f000 80b1 	beq.w	8020562 <__udivmoddi4+0x282>
 8020400:	2600      	movs	r6, #0
 8020402:	e9c5 0100 	strd	r0, r1, [r5]
 8020406:	4630      	mov	r0, r6
 8020408:	4631      	mov	r1, r6
 802040a:	e8bd 87f0 	ldmia.w	sp!, {r4, r5, r6, r7, r8, r9, sl, pc}
 802040e:	fab3 f683 	clz	r6, r3
 8020412:	2e00      	cmp	r6, #0
 8020414:	d14a      	bne.n	80204ac <__udivmoddi4+0x1cc>
 8020416:	428b      	cmp	r3, r1
 8020418:	d302      	bcc.n	8020420 <__udivmoddi4+0x140>
 802041a:	4282      	cmp	r2, r0
 802041c:	f200 80b8 	bhi.w	8020590 <__udivmoddi4+0x2b0>
 8020420:	1a84      	subs	r4, r0, r2
 8020422:	eb61 0103 	sbc.w	r1, r1, r3
 8020426:	2001      	movs	r0, #1
 8020428:	468c      	mov	ip, r1
 802042a:	2d00      	cmp	r5, #0
 802042c:	d0a8      	beq.n	8020380 <__udivmoddi4+0xa0>
 802042e:	e9c5 4c00 	strd	r4, ip, [r5]
 8020432:	e7a5      	b.n	8020380 <__udivmoddi4+0xa0>
 8020434:	f1c2 0320 	rsb	r3, r2, #32
 8020438:	fa20 f603 	lsr.w	r6, r0, r3
 802043c:	4097      	lsls	r7, r2
 802043e:	fa01 f002 	lsl.w	r0, r1, r2
 8020442:	ea4f 4e17 	mov.w	lr, r7, lsr #16
 8020446:	40d9      	lsrs	r1, r3
 8020448:	4330      	orrs	r0, r6
 802044a:	0c03      	lsrs	r3, r0, #16
 802044c:	fbb1 f6fe 	udiv	r6, r1, lr
 8020450:	fa1f f887 	uxth.w	r8, r7
 8020454:	fb0e 1116 	mls	r1, lr, r6, r1
 8020458:	ea43 4301 	orr.w	r3, r3, r1, lsl #16
 802045c:	fb06 f108 	mul.w	r1, r6, r8
 8020460:	4299      	cmp	r1, r3
 8020462:	fa04 f402 	lsl.w	r4, r4, r2
 8020466:	d909      	bls.n	802047c <__udivmoddi4+0x19c>
 8020468:	18fb      	adds	r3, r7, r3
 802046a:	f106 3cff 	add.w	ip, r6, #4294967295
 802046e:	f080 808d 	bcs.w	802058c <__udivmoddi4+0x2ac>
 8020472:	4299      	cmp	r1, r3
 8020474:	f240 808a 	bls.w	802058c <__udivmoddi4+0x2ac>
 8020478:	3e02      	subs	r6, #2
 802047a:	443b      	add	r3, r7
 802047c:	1a5b      	subs	r3, r3, r1
 802047e:	b281      	uxth	r1, r0
 8020480:	fbb3 f0fe 	udiv	r0, r3, lr
 8020484:	fb0e 3310 	mls	r3, lr, r0, r3
 8020488:	ea41 4103 	orr.w	r1, r1, r3, lsl #16
 802048c:	fb00 f308 	mul.w	r3, r0, r8
 8020490:	428b      	cmp	r3, r1
 8020492:	d907      	bls.n	80204a4 <__udivmoddi4+0x1c4>
 8020494:	1879      	adds	r1, r7, r1
 8020496:	f100 3cff 	add.w	ip, r0, #4294967295
 802049a:	d273      	bcs.n	8020584 <__udivmoddi4+0x2a4>
 802049c:	428b      	cmp	r3, r1
 802049e:	d971      	bls.n	8020584 <__udivmoddi4+0x2a4>
 80204a0:	3802      	subs	r0, #2
 80204a2:	4439      	add	r1, r7
 80204a4:	1acb      	subs	r3, r1, r3
 80204a6:	ea40 4606 	orr.w	r6, r0, r6, lsl #16
 80204aa:	e778      	b.n	802039e <__udivmoddi4+0xbe>
 80204ac:	f1c6 0c20 	rsb	ip, r6, #32
 80204b0:	fa03 f406 	lsl.w	r4, r3, r6
 80204b4:	fa22 f30c 	lsr.w	r3, r2, ip
 80204b8:	431c      	orrs	r4, r3
 80204ba:	fa20 f70c 	lsr.w	r7, r0, ip
 80204be:	fa01 f306 	lsl.w	r3, r1, r6
 80204c2:	ea4f 4e14 	mov.w	lr, r4, lsr #16
 80204c6:	fa21 f10c 	lsr.w	r1, r1, ip
 80204ca:	431f      	orrs	r7, r3
 80204cc:	0c3b      	lsrs	r3, r7, #16
 80204ce:	fbb1 f9fe 	udiv	r9, r1, lr
 80204d2:	fa1f f884 	uxth.w	r8, r4
 80204d6:	fb0e 1119 	mls	r1, lr, r9, r1
 80204da:	ea43 4101 	orr.w	r1, r3, r1, lsl #16
 80204de:	fb09 fa08 	mul.w	sl, r9, r8
 80204e2:	458a      	cmp	sl, r1
 80204e4:	fa02 f206 	lsl.w	r2, r2, r6
 80204e8:	fa00 f306 	lsl.w	r3, r0, r6
 80204ec:	d908      	bls.n	8020500 <__udivmoddi4+0x220>
 80204ee:	1861      	adds	r1, r4, r1
 80204f0:	f109 30ff 	add.w	r0, r9, #4294967295
 80204f4:	d248      	bcs.n	8020588 <__udivmoddi4+0x2a8>
 80204f6:	458a      	cmp	sl, r1
 80204f8:	d946      	bls.n	8020588 <__udivmoddi4+0x2a8>
 80204fa:	f1a9 0902 	sub.w	r9, r9, #2
 80204fe:	4421      	add	r1, r4
 8020500:	eba1 010a 	sub.w	r1, r1, sl
 8020504:	b2bf      	uxth	r7, r7
 8020506:	fbb1 f0fe 	udiv	r0, r1, lr
 802050a:	fb0e 1110 	mls	r1, lr, r0, r1
 802050e:	ea47 4701 	orr.w	r7, r7, r1, lsl #16
 8020512:	fb00 f808 	mul.w	r8, r0, r8
 8020516:	45b8      	cmp	r8, r7
 8020518:	d907      	bls.n	802052a <__udivmoddi4+0x24a>
 802051a:	19e7      	adds	r7, r4, r7
 802051c:	f100 31ff 	add.w	r1, r0, #4294967295
 8020520:	d22e      	bcs.n	8020580 <__udivmoddi4+0x2a0>
 8020522:	45b8      	cmp	r8, r7
 8020524:	d92c      	bls.n	8020580 <__udivmoddi4+0x2a0>
 8020526:	3802      	subs	r0, #2
 8020528:	4427      	add	r7, r4
 802052a:	ea40 4009 	orr.w	r0, r0, r9, lsl #16
 802052e:	eba7 0708 	sub.w	r7, r7, r8
 8020532:	fba0 8902 	umull	r8, r9, r0, r2
 8020536:	454f      	cmp	r7, r9
 8020538:	46c6      	mov	lr, r8
 802053a:	4649      	mov	r1, r9
 802053c:	d31a      	bcc.n	8020574 <__udivmoddi4+0x294>
 802053e:	d017      	beq.n	8020570 <__udivmoddi4+0x290>
 8020540:	b15d      	cbz	r5, 802055a <__udivmoddi4+0x27a>
 8020542:	ebb3 020e 	subs.w	r2, r3, lr
 8020546:	eb67 0701 	sbc.w	r7, r7, r1
 802054a:	fa07 fc0c 	lsl.w	ip, r7, ip
 802054e:	40f2      	lsrs	r2, r6
 8020550:	ea4c 0202 	orr.w	r2, ip, r2
 8020554:	40f7      	lsrs	r7, r6
 8020556:	e9c5 2700 	strd	r2, r7, [r5]
 802055a:	2600      	movs	r6, #0
 802055c:	4631      	mov	r1, r6
 802055e:	e8bd 87f0 	ldmia.w	sp!, {r4, r5, r6, r7, r8, r9, sl, pc}
 8020562:	462e      	mov	r6, r5
 8020564:	4628      	mov	r0, r5
 8020566:	e70b      	b.n	8020380 <__udivmoddi4+0xa0>
 8020568:	4606      	mov	r6, r0
 802056a:	e6e9      	b.n	8020340 <__udivmoddi4+0x60>
 802056c:	4618      	mov	r0, r3
 802056e:	e6fd      	b.n	802036c <__udivmoddi4+0x8c>
 8020570:	4543      	cmp	r3, r8
 8020572:	d2e5      	bcs.n	8020540 <__udivmoddi4+0x260>
 8020574:	ebb8 0e02 	subs.w	lr, r8, r2
 8020578:	eb69 0104 	sbc.w	r1, r9, r4
 802057c:	3801      	subs	r0, #1
 802057e:	e7df      	b.n	8020540 <__udivmoddi4+0x260>
 8020580:	4608      	mov	r0, r1
 8020582:	e7d2      	b.n	802052a <__udivmoddi4+0x24a>
 8020584:	4660      	mov	r0, ip
 8020586:	e78d      	b.n	80204a4 <__udivmoddi4+0x1c4>
 8020588:	4681      	mov	r9, r0
 802058a:	e7b9      	b.n	8020500 <__udivmoddi4+0x220>
 802058c:	4666      	mov	r6, ip
 802058e:	e775      	b.n	802047c <__udivmoddi4+0x19c>
 8020590:	4630      	mov	r0, r6
 8020592:	e74a      	b.n	802042a <__udivmoddi4+0x14a>
 8020594:	f1ac 0c02 	sub.w	ip, ip, #2
 8020598:	4439      	add	r1, r7
 802059a:	e713      	b.n	80203c4 <__udivmoddi4+0xe4>
 802059c:	3802      	subs	r0, #2
 802059e:	443c      	add	r4, r7
 80205a0:	e724      	b.n	80203ec <__udivmoddi4+0x10c>
 80205a2:	bf00      	nop

080205a4 <__aeabi_idiv0>:
 80205a4:	4770      	bx	lr
 80205a6:	bf00      	nop

080205a8 <MX_DMA_Init>:

/**
  * Enable DMA controller clock
  */
void MX_DMA_Init(void)
{
 80205a8:	b507      	push	{r0, r1, r2, lr}

  /* DMA controller clock enable */
  __HAL_RCC_DMA2_CLK_ENABLE();
 80205aa:	4b24      	ldr	r3, [pc, #144]	; (802063c <MX_DMA_Init+0x94>)
 80205ac:	2200      	movs	r2, #0
 80205ae:	9200      	str	r2, [sp, #0]
 80205b0:	6b19      	ldr	r1, [r3, #48]	; 0x30
 80205b2:	f441 0180 	orr.w	r1, r1, #4194304	; 0x400000
 80205b6:	6319      	str	r1, [r3, #48]	; 0x30
 80205b8:	6b19      	ldr	r1, [r3, #48]	; 0x30
 80205ba:	f401 0180 	and.w	r1, r1, #4194304	; 0x400000
 80205be:	9100      	str	r1, [sp, #0]
 80205c0:	9900      	ldr	r1, [sp, #0]
  __HAL_RCC_DMA1_CLK_ENABLE();
 80205c2:	9201      	str	r2, [sp, #4]
 80205c4:	6b19      	ldr	r1, [r3, #48]	; 0x30
 80205c6:	f441 1100 	orr.w	r1, r1, #2097152	; 0x200000
 80205ca:	6319      	str	r1, [r3, #48]	; 0x30
 80205cc:	6b1b      	ldr	r3, [r3, #48]	; 0x30
 80205ce:	f403 1300 	and.w	r3, r3, #2097152	; 0x200000
 80205d2:	9301      	str	r3, [sp, #4]

  /* DMA interrupt init */
  /* DMA1_Stream1_IRQn interrupt configuration */
  HAL_NVIC_SetPriority(DMA1_Stream1_IRQn, 5, 0);
 80205d4:	2105      	movs	r1, #5
 80205d6:	200c      	movs	r0, #12
  __HAL_RCC_DMA1_CLK_ENABLE();
 80205d8:	9b01      	ldr	r3, [sp, #4]
  HAL_NVIC_SetPriority(DMA1_Stream1_IRQn, 5, 0);
 80205da:	f000 ffa5 	bl	8021528 <HAL_NVIC_SetPriority>
  HAL_NVIC_EnableIRQ(DMA1_Stream1_IRQn);
 80205de:	200c      	movs	r0, #12
 80205e0:	f000 ffe6 	bl	80215b0 <HAL_NVIC_EnableIRQ>
  /* DMA1_Stream3_IRQn interrupt configuration */
  HAL_NVIC_SetPriority(DMA1_Stream3_IRQn, 5, 0);
 80205e4:	2200      	movs	r2, #0
 80205e6:	2105      	movs	r1, #5
 80205e8:	200e      	movs	r0, #14
 80205ea:	f000 ff9d 	bl	8021528 <HAL_NVIC_SetPriority>
  HAL_NVIC_EnableIRQ(DMA1_Stream3_IRQn);
 80205ee:	200e      	movs	r0, #14
 80205f0:	f000 ffde 	bl	80215b0 <HAL_NVIC_EnableIRQ>
  /* DMA2_Stream1_IRQn interrupt configuration */
  HAL_NVIC_SetPriority(DMA2_Stream1_IRQn, 5, 0);
 80205f4:	2200      	movs	r2, #0
 80205f6:	2105      	movs	r1, #5
 80205f8:	2039      	movs	r0, #57	; 0x39
 80205fa:	f000 ff95 	bl	8021528 <HAL_NVIC_SetPriority>
  HAL_NVIC_EnableIRQ(DMA2_Stream1_IRQn);
 80205fe:	2039      	movs	r0, #57	; 0x39
 8020600:	f000 ffd6 	bl	80215b0 <HAL_NVIC_EnableIRQ>
  /* DMA2_Stream2_IRQn interrupt configuration */
  HAL_NVIC_SetPriority(DMA2_Stream2_IRQn, 5, 0);
 8020604:	2200      	movs	r2, #0
 8020606:	2105      	movs	r1, #5
 8020608:	203a      	movs	r0, #58	; 0x3a
 802060a:	f000 ff8d 	bl	8021528 <HAL_NVIC_SetPriority>
  HAL_NVIC_EnableIRQ(DMA2_Stream2_IRQn);
 802060e:	203a      	movs	r0, #58	; 0x3a
 8020610:	f000 ffce 	bl	80215b0 <HAL_NVIC_EnableIRQ>
  /* DMA2_Stream6_IRQn interrupt configuration */
  HAL_NVIC_SetPriority(DMA2_Stream6_IRQn, 5, 0);
 8020614:	2200      	movs	r2, #0
 8020616:	2105      	movs	r1, #5
 8020618:	2045      	movs	r0, #69	; 0x45
 802061a:	f000 ff85 	bl	8021528 <HAL_NVIC_SetPriority>
  HAL_NVIC_EnableIRQ(DMA2_Stream6_IRQn);
 802061e:	2045      	movs	r0, #69	; 0x45
 8020620:	f000 ffc6 	bl	80215b0 <HAL_NVIC_EnableIRQ>
  /* DMA2_Stream7_IRQn interrupt configuration */
  HAL_NVIC_SetPriority(DMA2_Stream7_IRQn, 5, 0);
 8020624:	2200      	movs	r2, #0
 8020626:	2105      	movs	r1, #5
 8020628:	2046      	movs	r0, #70	; 0x46
 802062a:	f000 ff7d 	bl	8021528 <HAL_NVIC_SetPriority>
  HAL_NVIC_EnableIRQ(DMA2_Stream7_IRQn);
 802062e:	2046      	movs	r0, #70	; 0x46

}
 8020630:	b003      	add	sp, #12
 8020632:	f85d eb04 	ldr.w	lr, [sp], #4
  HAL_NVIC_EnableIRQ(DMA2_Stream7_IRQn);
 8020636:	f000 bfbb 	b.w	80215b0 <HAL_NVIC_EnableIRQ>
 802063a:	bf00      	nop
 802063c:	40023800 	.word	0x40023800

08020640 <StartDefaultTask>:
 * @retval None
 */
/* USER CODE END Header_StartDefaultTask */
void StartDefaultTask(void *argument) {
	/* USER CODE BEGIN StartDefaultTask */
	osSemaphoreAcquire(myBinarySem03Handle, 10);
 8020640:	4b18      	ldr	r3, [pc, #96]	; (80206a4 <StartDefaultTask+0x64>)
void StartDefaultTask(void *argument) {
 8020642:	b507      	push	{r0, r1, r2, lr}
	osSemaphoreAcquire(myBinarySem03Handle, 10);
 8020644:	210a      	movs	r1, #10
 8020646:	6818      	ldr	r0, [r3, #0]
 8020648:	f003 ff14 	bl	8024474 <osSemaphoreAcquire>
	osThreadTerminate(myTask04Handle);
 802064c:	4b16      	ldr	r3, [pc, #88]	; (80206a8 <StartDefaultTask+0x68>)
 802064e:	6818      	ldr	r0, [r3, #0]
 8020650:	f003 fe91 	bl	8024376 <osThreadTerminate>
	osThreadTerminate(myTask07Handle);
 8020654:	4b15      	ldr	r3, [pc, #84]	; (80206ac <StartDefaultTask+0x6c>)
	softTimer_Start(TIMER0, MODE_PERIODIC, 5, TIM0_CB, NULL, 0);
 8020656:	2400      	movs	r4, #0
	osThreadTerminate(myTask07Handle);
 8020658:	6818      	ldr	r0, [r3, #0]
 802065a:	f003 fe8c 	bl	8024376 <osThreadTerminate>
	softTimer_Start(TIMER0, MODE_PERIODIC, 5, TIM0_CB, NULL, 0);
 802065e:	4b14      	ldr	r3, [pc, #80]	; (80206b0 <StartDefaultTask+0x70>)
 8020660:	2205      	movs	r2, #5
 8020662:	2101      	movs	r1, #1
 8020664:	4620      	mov	r0, r4
 8020666:	e9cd 4400 	strd	r4, r4, [sp]
 802066a:	f008 f8ed 	bl	8028848 <softTimer_Start>
	sysguard_start(DefaultTask);
 802066e:	4620      	mov	r0, r4
 8020670:	f008 f95a 	bl	8028928 <sysguard_start>
	sysguard_start(TASK2);
 8020674:	2001      	movs	r0, #1
 8020676:	f008 f957 	bl	8028928 <sysguard_start>
	sysguard_start(TASK3);
 802067a:	2002      	movs	r0, #2
 802067c:	f008 f954 	bl	8028928 <sysguard_start>
	sysguard_start(TASK4);
 8020680:	2003      	movs	r0, #3
 8020682:	f008 f951 	bl	8028928 <sysguard_start>
	sysguard_start(TASK5);
 8020686:	2004      	movs	r0, #4
 8020688:	f008 f94e 	bl	8028928 <sysguard_start>
	/* Infinite loop */
	for (;;) {
		sysguard_feed(DefaultTask);
 802068c:	2000      	movs	r0, #0
 802068e:	f008 f95f 	bl	8028950 <sysguard_feed>
		Eeprom_update();
 8020692:	f006 fb2d 	bl	8026cf0 <Eeprom_update>
		sysguard_scan();
 8020696:	f008 f971 	bl	802897c <sysguard_scan>
		osDelay(500);
 802069a:	f44f 70fa 	mov.w	r0, #500	; 0x1f4
 802069e:	f003 fe82 	bl	80243a6 <osDelay>
	for (;;) {
 80206a2:	e7f3      	b.n	802068c <StartDefaultTask+0x4c>
 80206a4:	200075cc 	.word	0x200075cc
 80206a8:	200075c4 	.word	0x200075c4
 80206ac:	200075e8 	.word	0x200075e8
 80206b0:	080287f5 	.word	0x080287f5

080206b4 <StartTask04>:
 * @brief Function implementing the myTask04 thread.
 * @param argument: Not used
 * @retval None
 */
/* USER CODE END Header_StartTask04 */
void StartTask04(void *argument) {
 80206b4:	b508      	push	{r3, lr}
	/* USER CODE BEGIN StartTask04 */
	osDelay(10);
 80206b6:	200a      	movs	r0, #10
 80206b8:	f003 fe75 	bl	80243a6 <osDelay>
//	DEBUG_L("osThreadNew of auto sequence!\r\n");
	/* Infinite loop */
	for (;;) {
//		sequence_deal();
		osDelay(100);
 80206bc:	2064      	movs	r0, #100	; 0x64
 80206be:	f003 fe72 	bl	80243a6 <osDelay>
//		DEBUG_L("osThreadNew of auto sequence!\r\n");
		sysguard_feed(TASK4);
 80206c2:	2003      	movs	r0, #3
 80206c4:	f008 f944 	bl	8028950 <sysguard_feed>
	for (;;) {
 80206c8:	e7f8      	b.n	80206bc <StartTask04+0x8>

080206ca <StartTask05>:
 * @brief Function implementing the myTask05 thread.
 * @param argument: Not used
 * @retval None
 */
/* USER CODE END Header_StartTask05 */
void StartTask05(void *argument) {
 80206ca:	b508      	push	{r3, lr}
	/* USER CODE BEGIN StartTask05 */
	/* Infinite loop */
	for (;;) {
//		sequence_check();
		osDelay(1);
 80206cc:	2001      	movs	r0, #1
 80206ce:	f003 fe6a 	bl	80243a6 <osDelay>
		sysguard_feed(TASK5);
 80206d2:	2004      	movs	r0, #4
 80206d4:	f008 f93c 	bl	8028950 <sysguard_feed>
	for (;;) {
 80206d8:	e7f8      	b.n	80206cc <StartTask05+0x2>

080206da <StartTask07>:
 * @brief Function implementing the myTask07 thread.
 * @param argument: Not used
 * @retval None
 */
/* USER CODE END Header_StartTask07 */
void StartTask07(void *argument) {
 80206da:	b508      	push	{r3, lr}
//	DEBUG_L("osThreadNew of reset!\r\n");
	/* Infinite loop */
	for (;;) {
//		rst_deal();
//		sysguard_feed(TASK7);
		osDelay(1);
 80206dc:	2001      	movs	r0, #1
 80206de:	f003 fe62 	bl	80243a6 <osDelay>
	for (;;) {
 80206e2:	e7fb      	b.n	80206dc <StartTask07+0x2>

080206e4 <StartTask02>:
void StartTask02(void *argument) {
 80206e4:	b508      	push	{r3, lr}
		if (0 != osMessageQueueGetCount(myQueueUsart1Handle)) {
 80206e6:	4d25      	ldr	r5, [pc, #148]	; (802077c <StartTask02+0x98>)
			osMessageQueueGet(myQueueUsart1Handle, &usart1_rx, 0U, 0xff);
 80206e8:	4c25      	ldr	r4, [pc, #148]	; (8020780 <StartTask02+0x9c>)
		if (0 != osMessageQueueGetCount(myQueueUsart1Handle)) {
 80206ea:	6828      	ldr	r0, [r5, #0]
 80206ec:	f003 ffba 	bl	8024664 <osMessageQueueGetCount>
 80206f0:	b170      	cbz	r0, 8020710 <StartTask02+0x2c>
			osMessageQueueGet(myQueueUsart1Handle, &usart1_rx, 0U, 0xff);
 80206f2:	2200      	movs	r2, #0
 80206f4:	4621      	mov	r1, r4
 80206f6:	23ff      	movs	r3, #255	; 0xff
 80206f8:	6828      	ldr	r0, [r5, #0]
 80206fa:	f003 ff83 	bl	8024604 <osMessageQueueGet>
			usart1_rx_deal(&usart1_rx);
 80206fe:	4620      	mov	r0, r4
 8020700:	f006 f98a 	bl	8026a18 <usart1_rx_deal>
			memset(&usart1_rx, 0x00, sizeof(usart1_rx));
 8020704:	f240 2202 	movw	r2, #514	; 0x202
 8020708:	2100      	movs	r1, #0
 802070a:	4620      	mov	r0, r4
 802070c:	f008 f98a 	bl	8028a24 <memset>
		if (0 != osMessageQueueGetCount(myQueueUsart3Handle)) {
 8020710:	4e1c      	ldr	r6, [pc, #112]	; (8020784 <StartTask02+0xa0>)
		osDelay(1);
 8020712:	2001      	movs	r0, #1
 8020714:	f003 fe47 	bl	80243a6 <osDelay>
		if (0 != osMessageQueueGetCount(myQueueUsart3Handle)) {
 8020718:	6830      	ldr	r0, [r6, #0]
 802071a:	f003 ffa3 	bl	8024664 <osMessageQueueGetCount>
 802071e:	b170      	cbz	r0, 802073e <StartTask02+0x5a>
			osMessageQueueGet(myQueueUsart3Handle, &usart3_rx, 0U, 0xff);
 8020720:	4919      	ldr	r1, [pc, #100]	; (8020788 <StartTask02+0xa4>)
 8020722:	6830      	ldr	r0, [r6, #0]
 8020724:	2200      	movs	r2, #0
 8020726:	23ff      	movs	r3, #255	; 0xff
 8020728:	f003 ff6c 	bl	8024604 <osMessageQueueGet>
			usart3_rx_deal(&usart3_rx);
 802072c:	4816      	ldr	r0, [pc, #88]	; (8020788 <StartTask02+0xa4>)
 802072e:	f006 f97d 	bl	8026a2c <usart3_rx_deal>
			memset(&usart3_rx, 0x00, sizeof(usart3_rx));
 8020732:	4815      	ldr	r0, [pc, #84]	; (8020788 <StartTask02+0xa4>)
 8020734:	f240 2202 	movw	r2, #514	; 0x202
 8020738:	2100      	movs	r1, #0
 802073a:	f008 f973 	bl	8028a24 <memset>
		if (0 != osMessageQueueGetCount(myQueueUsart6Handle)) {
 802073e:	4e13      	ldr	r6, [pc, #76]	; (802078c <StartTask02+0xa8>)
		osDelay(1);
 8020740:	2001      	movs	r0, #1
 8020742:	f003 fe30 	bl	80243a6 <osDelay>
		if (0 != osMessageQueueGetCount(myQueueUsart6Handle)) {
 8020746:	6830      	ldr	r0, [r6, #0]
 8020748:	f003 ff8c 	bl	8024664 <osMessageQueueGetCount>
 802074c:	b170      	cbz	r0, 802076c <StartTask02+0x88>
			osMessageQueueGet(myQueueUsart6Handle, &usart6_rx, 0U, 0xff);
 802074e:	4910      	ldr	r1, [pc, #64]	; (8020790 <StartTask02+0xac>)
 8020750:	6830      	ldr	r0, [r6, #0]
 8020752:	2200      	movs	r2, #0
 8020754:	23ff      	movs	r3, #255	; 0xff
 8020756:	f003 ff55 	bl	8024604 <osMessageQueueGet>
			usart6_rx_deal(&usart6_rx);
 802075a:	480d      	ldr	r0, [pc, #52]	; (8020790 <StartTask02+0xac>)
 802075c:	f006 f96a 	bl	8026a34 <usart6_rx_deal>
			memset(&usart6_rx, 0x00, sizeof(usart6_rx));
 8020760:	480b      	ldr	r0, [pc, #44]	; (8020790 <StartTask02+0xac>)
 8020762:	f240 2202 	movw	r2, #514	; 0x202
 8020766:	2100      	movs	r1, #0
 8020768:	f008 f95c 	bl	8028a24 <memset>
		osDelay(1);
 802076c:	2001      	movs	r0, #1
 802076e:	f003 fe1a 	bl	80243a6 <osDelay>
		sysguard_feed(TASK2);
 8020772:	2001      	movs	r0, #1
 8020774:	f008 f8ec 	bl	8028950 <sysguard_feed>
		if (0 != osMessageQueueGetCount(myQueueUsart1Handle)) {
 8020778:	e7b7      	b.n	80206ea <StartTask02+0x6>
 802077a:	bf00      	nop
 802077c:	200075ec 	.word	0x200075ec
 8020780:	20007b3c 	.word	0x20007b3c
 8020784:	200075f4 	.word	0x200075f4
 8020788:	2000894a 	.word	0x2000894a
 802078c:	200075f0 	.word	0x200075f0
 8020790:	20007f40 	.word	0x20007f40

08020794 <StartTask03>:
void StartTask03(void *argument) {
 8020794:	b508      	push	{r3, lr}
		if (cnt == 0){
 8020796:	4e0e      	ldr	r6, [pc, #56]	; (80207d0 <StartTask03+0x3c>)
		osDelay(10);
 8020798:	250a      	movs	r5, #10
 802079a:	4634      	mov	r4, r6
		input_check();
 802079c:	f005 ffbc 	bl	8026718 <input_check>
		if (cnt == 0){
 80207a0:	7833      	ldrb	r3, [r6, #0]
 80207a2:	b92b      	cbnz	r3, 80207b0 <StartTask03+0x1c>
			mytim_check();
 80207a4:	f007 fce0 	bl	8028168 <mytim_check>
			dis_warn();
 80207a8:	f006 f95e 	bl	8026a68 <dis_warn>
			for_test();
 80207ac:	f005 fff6 	bl	802679c <for_test>
		osDelay(10);
 80207b0:	200a      	movs	r0, #10
 80207b2:	f003 fdf8 	bl	80243a6 <osDelay>
		sysguard_feed(TASK3);
 80207b6:	2002      	movs	r0, #2
 80207b8:	f008 f8ca 	bl	8028950 <sysguard_feed>
		cnt++;
 80207bc:	7823      	ldrb	r3, [r4, #0]
 80207be:	3301      	adds	r3, #1
		cnt %= 10;
 80207c0:	b2db      	uxtb	r3, r3
 80207c2:	fbb3 f2f5 	udiv	r2, r3, r5
 80207c6:	fb05 3312 	mls	r3, r5, r2, r3
 80207ca:	7023      	strb	r3, [r4, #0]
		input_check();
 80207cc:	e7e6      	b.n	802079c <StartTask03+0x8>
 80207ce:	bf00      	nop
 80207d0:	20000274 	.word	0x20000274

080207d4 <StartTask06>:
void StartTask06(void *argument) {
 80207d4:	b508      	push	{r3, lr}
	operate_ini();
 80207d6:	f006 fb29 	bl	8026e2c <operate_ini>
		operate_ctrl();
 80207da:	f007 f8bd 	bl	8027958 <operate_ctrl>
		osDelay(1);
 80207de:	2001      	movs	r0, #1
 80207e0:	f003 fde1 	bl	80243a6 <osDelay>
		sysguard_feed(TASK6);
 80207e4:	2005      	movs	r0, #5
 80207e6:	f008 f8b3 	bl	8028950 <sysguard_feed>
	for (;;) {
 80207ea:	e7f6      	b.n	80207da <StartTask06+0x6>

080207ec <StartTask08>:
 * @brief Function implementing the myTask08 thread.
 * @param argument: Not used
 * @retval None
 */
/* USER CODE END Header_StartTask08 */
void StartTask08(void *argument) {
 80207ec:	b508      	push	{r3, lr}
	/* USER CODE BEGIN StartTask08 */
	/* Infinite loop */
	for (;;) {
		softTimer_Update();
 80207ee:	f008 f85b 	bl	80288a8 <softTimer_Update>
		osDelay(1);
 80207f2:	2001      	movs	r0, #1
 80207f4:	f003 fdd7 	bl	80243a6 <osDelay>
	for (;;) {
 80207f8:	e7f9      	b.n	80207ee <StartTask08+0x2>
	...

080207fc <MX_FREERTOS_Init>:
	myBinarySem01Handle = osSemaphoreNew(1, 1, &myBinarySem01_attributes);
 80207fc:	2101      	movs	r1, #1
void MX_FREERTOS_Init(void) {
 80207fe:	b508      	push	{r3, lr}
	myBinarySem01Handle = osSemaphoreNew(1, 1, &myBinarySem01_attributes);
 8020800:	4a45      	ldr	r2, [pc, #276]	; (8020918 <MX_FREERTOS_Init+0x11c>)
 8020802:	4608      	mov	r0, r1
 8020804:	f003 fdec 	bl	80243e0 <osSemaphoreNew>
 8020808:	4b44      	ldr	r3, [pc, #272]	; (802091c <MX_FREERTOS_Init+0x120>)
	myBinarySem02Handle = osSemaphoreNew(1, 1, &myBinarySem02_attributes);
 802080a:	4a45      	ldr	r2, [pc, #276]	; (8020920 <MX_FREERTOS_Init+0x124>)
	myBinarySem01Handle = osSemaphoreNew(1, 1, &myBinarySem01_attributes);
 802080c:	6018      	str	r0, [r3, #0]
	myBinarySem02Handle = osSemaphoreNew(1, 1, &myBinarySem02_attributes);
 802080e:	2101      	movs	r1, #1
 8020810:	4608      	mov	r0, r1
 8020812:	f003 fde5 	bl	80243e0 <osSemaphoreNew>
 8020816:	4b43      	ldr	r3, [pc, #268]	; (8020924 <MX_FREERTOS_Init+0x128>)
	myBinarySem03Handle = osSemaphoreNew(1, 1, &myBinarySem03_attributes);
 8020818:	4a43      	ldr	r2, [pc, #268]	; (8020928 <MX_FREERTOS_Init+0x12c>)
	myBinarySem02Handle = osSemaphoreNew(1, 1, &myBinarySem02_attributes);
 802081a:	6018      	str	r0, [r3, #0]
	myBinarySem03Handle = osSemaphoreNew(1, 1, &myBinarySem03_attributes);
 802081c:	2101      	movs	r1, #1
 802081e:	4608      	mov	r0, r1
 8020820:	f003 fdde 	bl	80243e0 <osSemaphoreNew>
 8020824:	4b41      	ldr	r3, [pc, #260]	; (802092c <MX_FREERTOS_Init+0x130>)
	myBinarySem04Handle = osSemaphoreNew(1, 1, &myBinarySem04_attributes);
 8020826:	4a42      	ldr	r2, [pc, #264]	; (8020930 <MX_FREERTOS_Init+0x134>)
	myBinarySem03Handle = osSemaphoreNew(1, 1, &myBinarySem03_attributes);
 8020828:	6018      	str	r0, [r3, #0]
	myBinarySem04Handle = osSemaphoreNew(1, 1, &myBinarySem04_attributes);
 802082a:	2101      	movs	r1, #1
 802082c:	4608      	mov	r0, r1
 802082e:	f003 fdd7 	bl	80243e0 <osSemaphoreNew>
 8020832:	4b40      	ldr	r3, [pc, #256]	; (8020934 <MX_FREERTOS_Init+0x138>)
	myBinarySem05Handle = osSemaphoreNew(1, 1, &myBinarySem05_attributes);
 8020834:	4a40      	ldr	r2, [pc, #256]	; (8020938 <MX_FREERTOS_Init+0x13c>)
	myBinarySem04Handle = osSemaphoreNew(1, 1, &myBinarySem04_attributes);
 8020836:	6018      	str	r0, [r3, #0]
	myBinarySem05Handle = osSemaphoreNew(1, 1, &myBinarySem05_attributes);
 8020838:	2101      	movs	r1, #1
 802083a:	4608      	mov	r0, r1
 802083c:	f003 fdd0 	bl	80243e0 <osSemaphoreNew>
 8020840:	4b3e      	ldr	r3, [pc, #248]	; (802093c <MX_FREERTOS_Init+0x140>)
	myQueueUsart1Handle = osMessageQueueNew(3, sizeof(USART1_RECEIVETYPE),
 8020842:	4a3f      	ldr	r2, [pc, #252]	; (8020940 <MX_FREERTOS_Init+0x144>)
	myBinarySem05Handle = osSemaphoreNew(1, 1, &myBinarySem05_attributes);
 8020844:	6018      	str	r0, [r3, #0]
	myQueueUsart1Handle = osMessageQueueNew(3, sizeof(USART1_RECEIVETYPE),
 8020846:	f240 2102 	movw	r1, #514	; 0x202
 802084a:	2003      	movs	r0, #3
 802084c:	f003 fe6f 	bl	802452e <osMessageQueueNew>
 8020850:	4b3c      	ldr	r3, [pc, #240]	; (8020944 <MX_FREERTOS_Init+0x148>)
	myQueueUsart3Handle = osMessageQueueNew(3, sizeof(USART3_RECEIVETYPE),
 8020852:	4a3d      	ldr	r2, [pc, #244]	; (8020948 <MX_FREERTOS_Init+0x14c>)
	myQueueUsart1Handle = osMessageQueueNew(3, sizeof(USART1_RECEIVETYPE),
 8020854:	6018      	str	r0, [r3, #0]
	myQueueUsart3Handle = osMessageQueueNew(3, sizeof(USART3_RECEIVETYPE),
 8020856:	f240 2102 	movw	r1, #514	; 0x202
 802085a:	2003      	movs	r0, #3
 802085c:	f003 fe67 	bl	802452e <osMessageQueueNew>
 8020860:	4b3a      	ldr	r3, [pc, #232]	; (802094c <MX_FREERTOS_Init+0x150>)
	myQueueUsart6Handle = osMessageQueueNew(3, sizeof(USART6_RECEIVETYPE),
 8020862:	4a3b      	ldr	r2, [pc, #236]	; (8020950 <MX_FREERTOS_Init+0x154>)
	myQueueUsart3Handle = osMessageQueueNew(3, sizeof(USART3_RECEIVETYPE),
 8020864:	6018      	str	r0, [r3, #0]
	myQueueUsart6Handle = osMessageQueueNew(3, sizeof(USART6_RECEIVETYPE),
 8020866:	f240 2102 	movw	r1, #514	; 0x202
 802086a:	2003      	movs	r0, #3
 802086c:	f003 fe5f 	bl	802452e <osMessageQueueNew>
 8020870:	4b38      	ldr	r3, [pc, #224]	; (8020954 <MX_FREERTOS_Init+0x158>)
	defaultTaskHandle = osThreadNew(StartDefaultTask, NULL,
 8020872:	4a39      	ldr	r2, [pc, #228]	; (8020958 <MX_FREERTOS_Init+0x15c>)
	myQueueUsart6Handle = osMessageQueueNew(3, sizeof(USART6_RECEIVETYPE),
 8020874:	6018      	str	r0, [r3, #0]
	defaultTaskHandle = osThreadNew(StartDefaultTask, NULL,
 8020876:	2100      	movs	r1, #0
 8020878:	4838      	ldr	r0, [pc, #224]	; (802095c <MX_FREERTOS_Init+0x160>)
 802087a:	f003 fd33 	bl	80242e4 <osThreadNew>
 802087e:	4b38      	ldr	r3, [pc, #224]	; (8020960 <MX_FREERTOS_Init+0x164>)
	myTask02Handle = osThreadNew(StartTask02, NULL, &myTask02_attributes);
 8020880:	4a38      	ldr	r2, [pc, #224]	; (8020964 <MX_FREERTOS_Init+0x168>)
	defaultTaskHandle = osThreadNew(StartDefaultTask, NULL,
 8020882:	6018      	str	r0, [r3, #0]
	myTask02Handle = osThreadNew(StartTask02, NULL, &myTask02_attributes);
 8020884:	2100      	movs	r1, #0
 8020886:	4838      	ldr	r0, [pc, #224]	; (8020968 <MX_FREERTOS_Init+0x16c>)
 8020888:	f003 fd2c 	bl	80242e4 <osThreadNew>
 802088c:	4b37      	ldr	r3, [pc, #220]	; (802096c <MX_FREERTOS_Init+0x170>)
	myTask03Handle = osThreadNew(StartTask03, NULL, &myTask03_attributes);
 802088e:	4a38      	ldr	r2, [pc, #224]	; (8020970 <MX_FREERTOS_Init+0x174>)
	myTask02Handle = osThreadNew(StartTask02, NULL, &myTask02_attributes);
 8020890:	6018      	str	r0, [r3, #0]
	myTask03Handle = osThreadNew(StartTask03, NULL, &myTask03_attributes);
 8020892:	2100      	movs	r1, #0
 8020894:	4837      	ldr	r0, [pc, #220]	; (8020974 <MX_FREERTOS_Init+0x178>)
 8020896:	f003 fd25 	bl	80242e4 <osThreadNew>
 802089a:	4b37      	ldr	r3, [pc, #220]	; (8020978 <MX_FREERTOS_Init+0x17c>)
	myTask04Handle = osThreadNew(StartTask04, NULL, &myTask04_attributes);
 802089c:	4a37      	ldr	r2, [pc, #220]	; (802097c <MX_FREERTOS_Init+0x180>)
	myTask03Handle = osThreadNew(StartTask03, NULL, &myTask03_attributes);
 802089e:	6018      	str	r0, [r3, #0]
	myTask04Handle = osThreadNew(StartTask04, NULL, &myTask04_attributes);
 80208a0:	2100      	movs	r1, #0
 80208a2:	4837      	ldr	r0, [pc, #220]	; (8020980 <MX_FREERTOS_Init+0x184>)
 80208a4:	f003 fd1e 	bl	80242e4 <osThreadNew>
 80208a8:	4b36      	ldr	r3, [pc, #216]	; (8020984 <MX_FREERTOS_Init+0x188>)
	myTask05Handle = osThreadNew(StartTask05, NULL, &myTask05_attributes);
 80208aa:	4a37      	ldr	r2, [pc, #220]	; (8020988 <MX_FREERTOS_Init+0x18c>)
	myTask04Handle = osThreadNew(StartTask04, NULL, &myTask04_attributes);
 80208ac:	6018      	str	r0, [r3, #0]
	myTask05Handle = osThreadNew(StartTask05, NULL, &myTask05_attributes);
 80208ae:	2100      	movs	r1, #0
 80208b0:	4836      	ldr	r0, [pc, #216]	; (802098c <MX_FREERTOS_Init+0x190>)
 80208b2:	f003 fd17 	bl	80242e4 <osThreadNew>
 80208b6:	4b36      	ldr	r3, [pc, #216]	; (8020990 <MX_FREERTOS_Init+0x194>)
	myTask06Handle = osThreadNew(StartTask06, NULL, &myTask06_attributes);
 80208b8:	4a36      	ldr	r2, [pc, #216]	; (8020994 <MX_FREERTOS_Init+0x198>)
	myTask05Handle = osThreadNew(StartTask05, NULL, &myTask05_attributes);
 80208ba:	6018      	str	r0, [r3, #0]
	myTask06Handle = osThreadNew(StartTask06, NULL, &myTask06_attributes);
 80208bc:	2100      	movs	r1, #0
 80208be:	4836      	ldr	r0, [pc, #216]	; (8020998 <MX_FREERTOS_Init+0x19c>)
 80208c0:	f003 fd10 	bl	80242e4 <osThreadNew>
 80208c4:	4b35      	ldr	r3, [pc, #212]	; (802099c <MX_FREERTOS_Init+0x1a0>)
	myTask07Handle = osThreadNew(StartTask07, NULL, &myTask07_attributes);
 80208c6:	4a36      	ldr	r2, [pc, #216]	; (80209a0 <MX_FREERTOS_Init+0x1a4>)
	myTask06Handle = osThreadNew(StartTask06, NULL, &myTask06_attributes);
 80208c8:	6018      	str	r0, [r3, #0]
	myTask07Handle = osThreadNew(StartTask07, NULL, &myTask07_attributes);
 80208ca:	2100      	movs	r1, #0
 80208cc:	4835      	ldr	r0, [pc, #212]	; (80209a4 <MX_FREERTOS_Init+0x1a8>)
 80208ce:	f003 fd09 	bl	80242e4 <osThreadNew>
 80208d2:	4b35      	ldr	r3, [pc, #212]	; (80209a8 <MX_FREERTOS_Init+0x1ac>)
	myTask08Handle = osThreadNew(StartTask08, NULL, &myTask08_attributes);
 80208d4:	4a35      	ldr	r2, [pc, #212]	; (80209ac <MX_FREERTOS_Init+0x1b0>)
	myTask07Handle = osThreadNew(StartTask07, NULL, &myTask07_attributes);
 80208d6:	6018      	str	r0, [r3, #0]
	myTask08Handle = osThreadNew(StartTask08, NULL, &myTask08_attributes);
 80208d8:	2100      	movs	r1, #0
 80208da:	4835      	ldr	r0, [pc, #212]	; (80209b0 <MX_FREERTOS_Init+0x1b4>)
 80208dc:	f003 fd02 	bl	80242e4 <osThreadNew>
 80208e0:	4b34      	ldr	r3, [pc, #208]	; (80209b4 <MX_FREERTOS_Init+0x1b8>)
 80208e2:	6018      	str	r0, [r3, #0]
	myEvent01Handle = osEventFlagsNew(&myEvent01_attributes);
 80208e4:	4834      	ldr	r0, [pc, #208]	; (80209b8 <MX_FREERTOS_Init+0x1bc>)
 80208e6:	f003 fd6a 	bl	80243be <osEventFlagsNew>
 80208ea:	4b34      	ldr	r3, [pc, #208]	; (80209bc <MX_FREERTOS_Init+0x1c0>)
 80208ec:	6018      	str	r0, [r3, #0]
	myEvent02Handle = osEventFlagsNew(&myEvent02_attributes);
 80208ee:	4834      	ldr	r0, [pc, #208]	; (80209c0 <MX_FREERTOS_Init+0x1c4>)
 80208f0:	f003 fd65 	bl	80243be <osEventFlagsNew>
 80208f4:	4b33      	ldr	r3, [pc, #204]	; (80209c4 <MX_FREERTOS_Init+0x1c8>)
 80208f6:	6018      	str	r0, [r3, #0]
	myEvent03Handle = osEventFlagsNew(&myEvent03_attributes);
 80208f8:	4833      	ldr	r0, [pc, #204]	; (80209c8 <MX_FREERTOS_Init+0x1cc>)
 80208fa:	f003 fd60 	bl	80243be <osEventFlagsNew>
 80208fe:	4b33      	ldr	r3, [pc, #204]	; (80209cc <MX_FREERTOS_Init+0x1d0>)
 8020900:	6018      	str	r0, [r3, #0]
	myEvent04Handle = osEventFlagsNew(&myEvent04_attributes);
 8020902:	4833      	ldr	r0, [pc, #204]	; (80209d0 <MX_FREERTOS_Init+0x1d4>)
 8020904:	f003 fd5b 	bl	80243be <osEventFlagsNew>
 8020908:	4b32      	ldr	r3, [pc, #200]	; (80209d4 <MX_FREERTOS_Init+0x1d8>)
 802090a:	6018      	str	r0, [r3, #0]
	myEvent05Handle = osEventFlagsNew(&myEvent05_attributes);
 802090c:	4832      	ldr	r0, [pc, #200]	; (80209d8 <MX_FREERTOS_Init+0x1dc>)
 802090e:	f003 fd56 	bl	80243be <osEventFlagsNew>
 8020912:	4b32      	ldr	r3, [pc, #200]	; (80209dc <MX_FREERTOS_Init+0x1e0>)
 8020914:	6018      	str	r0, [r3, #0]
}
 8020916:	bd08      	pop	{r3, pc}
 8020918:	08028cec 	.word	0x08028cec
 802091c:	200075e0 	.word	0x200075e0
 8020920:	08028cfc 	.word	0x08028cfc
 8020924:	200075d8 	.word	0x200075d8
 8020928:	08028d0c 	.word	0x08028d0c
 802092c:	200075cc 	.word	0x200075cc
 8020930:	08028d1c 	.word	0x08028d1c
 8020934:	20007600 	.word	0x20007600
 8020938:	08028d2c 	.word	0x08028d2c
 802093c:	200075b8 	.word	0x200075b8
 8020940:	08028d8c 	.word	0x08028d8c
 8020944:	200075ec 	.word	0x200075ec
 8020948:	08028da4 	.word	0x08028da4
 802094c:	200075f4 	.word	0x200075f4
 8020950:	08028dbc 	.word	0x08028dbc
 8020954:	200075f0 	.word	0x200075f0
 8020958:	08028cc8 	.word	0x08028cc8
 802095c:	08020641 	.word	0x08020641
 8020960:	200075b0 	.word	0x200075b0
 8020964:	08028dd4 	.word	0x08028dd4
 8020968:	080206e5 	.word	0x080206e5
 802096c:	200075dc 	.word	0x200075dc
 8020970:	08028df8 	.word	0x08028df8
 8020974:	08020795 	.word	0x08020795
 8020978:	200075e4 	.word	0x200075e4
 802097c:	08028e1c 	.word	0x08028e1c
 8020980:	080206b5 	.word	0x080206b5
 8020984:	200075c4 	.word	0x200075c4
 8020988:	08028e40 	.word	0x08028e40
 802098c:	080206cb 	.word	0x080206cb
 8020990:	200075c0 	.word	0x200075c0
 8020994:	08028e64 	.word	0x08028e64
 8020998:	080207d5 	.word	0x080207d5
 802099c:	200075fc 	.word	0x200075fc
 80209a0:	08028e88 	.word	0x08028e88
 80209a4:	080206db 	.word	0x080206db
 80209a8:	200075e8 	.word	0x200075e8
 80209ac:	08028eac 	.word	0x08028eac
 80209b0:	080207ed 	.word	0x080207ed
 80209b4:	200075c8 	.word	0x200075c8
 80209b8:	08028d3c 	.word	0x08028d3c
 80209bc:	200075bc 	.word	0x200075bc
 80209c0:	08028d4c 	.word	0x08028d4c
 80209c4:	200075d4 	.word	0x200075d4
 80209c8:	08028d5c 	.word	0x08028d5c
 80209cc:	200075d0 	.word	0x200075d0
 80209d0:	08028d6c 	.word	0x08028d6c
 80209d4:	200075b4 	.word	0x200075b4
 80209d8:	08028d7c 	.word	0x08028d7c
 80209dc:	200075f8 	.word	0x200075f8

080209e0 <MX_GPIO_Init>:
        * EXTI
        * Free pins are configured automatically as Analog (this feature is enabled through
        * the Code Generation settings)
*/
void MX_GPIO_Init(void)
{
 80209e0:	e92d 41f0 	stmdb	sp!, {r4, r5, r6, r7, r8, lr}

  GPIO_InitTypeDef GPIO_InitStruct = {0};
 80209e4:	2214      	movs	r2, #20
{
 80209e6:	b08a      	sub	sp, #40	; 0x28
  GPIO_InitTypeDef GPIO_InitStruct = {0};
 80209e8:	eb0d 0002 	add.w	r0, sp, r2
 80209ec:	2100      	movs	r1, #0
 80209ee:	f008 f819 	bl	8028a24 <memset>

  /* GPIO Ports Clock Enable */
  __HAL_RCC_GPIOC_CLK_ENABLE();
 80209f2:	2400      	movs	r4, #0
 80209f4:	4b45      	ldr	r3, [pc, #276]	; (8020b0c <MX_GPIO_Init+0x12c>)
 80209f6:	9400      	str	r4, [sp, #0]
 80209f8:	6b1a      	ldr	r2, [r3, #48]	; 0x30
  __HAL_RCC_GPIOA_CLK_ENABLE();
  __HAL_RCC_GPIOB_CLK_ENABLE();
  __HAL_RCC_GPIOD_CLK_ENABLE();

  /*Configure GPIO pin Output Level */
  HAL_GPIO_WritePin(GPIOC, KA10_OILPUMP_Pin|KA11_BAGFORWARD_Pin|KA12_BAGREVERSE_Pin|KA1_Pin
 80209fa:	4e45      	ldr	r6, [pc, #276]	; (8020b10 <MX_GPIO_Init+0x130>)
                          |KA2_Pin|KA3_Pin|KA4_Pin|BELL_Pin, GPIO_PIN_RESET);

  /*Configure GPIO pin Output Level */
  HAL_GPIO_WritePin(GPIOA, KA5_Pin|KA6_Pin|KA7_Pin|KA8_Pin
 80209fc:	4d45      	ldr	r5, [pc, #276]	; (8020b14 <MX_GPIO_Init+0x134>)
                          |KA9_Pin|KA_BK1_Pin|KA_BK2_Pin|KA_BK3_Pin, GPIO_PIN_RESET);

  /*Configure GPIO pin Output Level */
  HAL_GPIO_WritePin(GPIOB, LED_RED_Pin|LED_GREEN_Pin|LED_YELLOW_Pin|RS485_RW6_Pin, GPIO_PIN_RESET);
 80209fe:	4f46      	ldr	r7, [pc, #280]	; (8020b18 <MX_GPIO_Init+0x138>)
  __HAL_RCC_GPIOC_CLK_ENABLE();
 8020a00:	f042 0204 	orr.w	r2, r2, #4
 8020a04:	631a      	str	r2, [r3, #48]	; 0x30
 8020a06:	6b1a      	ldr	r2, [r3, #48]	; 0x30
 8020a08:	f002 0204 	and.w	r2, r2, #4
 8020a0c:	9200      	str	r2, [sp, #0]
 8020a0e:	9a00      	ldr	r2, [sp, #0]
  __HAL_RCC_GPIOH_CLK_ENABLE();
 8020a10:	9401      	str	r4, [sp, #4]
 8020a12:	6b1a      	ldr	r2, [r3, #48]	; 0x30
 8020a14:	f042 0280 	orr.w	r2, r2, #128	; 0x80
 8020a18:	631a      	str	r2, [r3, #48]	; 0x30
 8020a1a:	6b1a      	ldr	r2, [r3, #48]	; 0x30
 8020a1c:	f002 0280 	and.w	r2, r2, #128	; 0x80
 8020a20:	9201      	str	r2, [sp, #4]
 8020a22:	9a01      	ldr	r2, [sp, #4]
  __HAL_RCC_GPIOA_CLK_ENABLE();
 8020a24:	9402      	str	r4, [sp, #8]
 8020a26:	6b1a      	ldr	r2, [r3, #48]	; 0x30
 8020a28:	f042 0201 	orr.w	r2, r2, #1
 8020a2c:	631a      	str	r2, [r3, #48]	; 0x30
 8020a2e:	6b1a      	ldr	r2, [r3, #48]	; 0x30
 8020a30:	f002 0201 	and.w	r2, r2, #1
 8020a34:	9202      	str	r2, [sp, #8]
 8020a36:	9a02      	ldr	r2, [sp, #8]
  __HAL_RCC_GPIOB_CLK_ENABLE();
 8020a38:	9403      	str	r4, [sp, #12]
 8020a3a:	6b1a      	ldr	r2, [r3, #48]	; 0x30
 8020a3c:	f042 0202 	orr.w	r2, r2, #2
 8020a40:	631a      	str	r2, [r3, #48]	; 0x30
 8020a42:	6b1a      	ldr	r2, [r3, #48]	; 0x30
 8020a44:	f002 0202 	and.w	r2, r2, #2
 8020a48:	9203      	str	r2, [sp, #12]
 8020a4a:	9a03      	ldr	r2, [sp, #12]
  __HAL_RCC_GPIOD_CLK_ENABLE();
 8020a4c:	9404      	str	r4, [sp, #16]
 8020a4e:	6b1a      	ldr	r2, [r3, #48]	; 0x30
 8020a50:	f042 0208 	orr.w	r2, r2, #8
 8020a54:	631a      	str	r2, [r3, #48]	; 0x30
 8020a56:	6b1b      	ldr	r3, [r3, #48]	; 0x30
 8020a58:	f003 0308 	and.w	r3, r3, #8
 8020a5c:	9304      	str	r3, [sp, #16]
  HAL_GPIO_WritePin(GPIOC, KA10_OILPUMP_Pin|KA11_BAGFORWARD_Pin|KA12_BAGREVERSE_Pin|KA1_Pin
 8020a5e:	4622      	mov	r2, r4
 8020a60:	4630      	mov	r0, r6
 8020a62:	f24e 011f 	movw	r1, #57375	; 0xe01f
  __HAL_RCC_GPIOD_CLK_ENABLE();
 8020a66:	9b04      	ldr	r3, [sp, #16]
  HAL_GPIO_WritePin(GPIOC, KA10_OILPUMP_Pin|KA11_BAGFORWARD_Pin|KA12_BAGREVERSE_Pin|KA1_Pin
 8020a68:	f001 fbfa 	bl	8022260 <HAL_GPIO_WritePin>
  HAL_GPIO_WritePin(GPIOA, KA5_Pin|KA6_Pin|KA7_Pin|KA8_Pin
 8020a6c:	4622      	mov	r2, r4
 8020a6e:	4628      	mov	r0, r5
 8020a70:	21ff      	movs	r1, #255	; 0xff
 8020a72:	f001 fbf5 	bl	8022260 <HAL_GPIO_WritePin>
  HAL_GPIO_WritePin(GPIOB, LED_RED_Pin|LED_GREEN_Pin|LED_YELLOW_Pin|RS485_RW6_Pin, GPIO_PIN_RESET);
 8020a76:	4622      	mov	r2, r4
 8020a78:	4638      	mov	r0, r7
 8020a7a:	f248 0107 	movw	r1, #32775	; 0x8007
 8020a7e:	f001 fbef 	bl	8022260 <HAL_GPIO_WritePin>

  /*Configure GPIO pins : PCPin PCPin PCPin PCPin
                           PCPin PCPin PCPin PCPin */
  GPIO_InitStruct.Pin = KA10_OILPUMP_Pin|KA11_BAGFORWARD_Pin|KA12_BAGREVERSE_Pin|KA1_Pin
                          |KA2_Pin|KA3_Pin|KA4_Pin|BELL_Pin;
  GPIO_InitStruct.Mode = GPIO_MODE_OUTPUT_PP;
 8020a82:	f04f 0801 	mov.w	r8, #1
 8020a86:	f24e 031f 	movw	r3, #57375	; 0xe01f
  GPIO_InitStruct.Pull = GPIO_NOPULL;
  GPIO_InitStruct.Speed = GPIO_SPEED_FREQ_LOW;
  HAL_GPIO_Init(GPIOC, &GPIO_InitStruct);
 8020a8a:	a905      	add	r1, sp, #20
 8020a8c:	4630      	mov	r0, r6
  GPIO_InitStruct.Mode = GPIO_MODE_OUTPUT_PP;
 8020a8e:	e9cd 3805 	strd	r3, r8, [sp, #20]
  GPIO_InitStruct.Speed = GPIO_SPEED_FREQ_LOW;
 8020a92:	e9cd 4407 	strd	r4, r4, [sp, #28]
  HAL_GPIO_Init(GPIOC, &GPIO_InitStruct);
 8020a96:	f001 faa9 	bl	8021fec <HAL_GPIO_Init>

  /*Configure GPIO pins : PAPin PAPin PAPin PAPin
                           PAPin PAPin PAPin PAPin */
  GPIO_InitStruct.Pin = KA5_Pin|KA6_Pin|KA7_Pin|KA8_Pin
 8020a9a:	23ff      	movs	r3, #255	; 0xff
                          |KA9_Pin|KA_BK1_Pin|KA_BK2_Pin|KA_BK3_Pin;
  GPIO_InitStruct.Mode = GPIO_MODE_OUTPUT_PP;
  GPIO_InitStruct.Pull = GPIO_NOPULL;
  GPIO_InitStruct.Speed = GPIO_SPEED_FREQ_LOW;
  HAL_GPIO_Init(GPIOA, &GPIO_InitStruct);
 8020a9c:	a905      	add	r1, sp, #20
 8020a9e:	4628      	mov	r0, r5
  GPIO_InitStruct.Mode = GPIO_MODE_OUTPUT_PP;
 8020aa0:	e9cd 3805 	strd	r3, r8, [sp, #20]
  GPIO_InitStruct.Speed = GPIO_SPEED_FREQ_LOW;
 8020aa4:	e9cd 4407 	strd	r4, r4, [sp, #28]
  HAL_GPIO_Init(GPIOA, &GPIO_InitStruct);
 8020aa8:	f001 faa0 	bl	8021fec <HAL_GPIO_Init>

  /*Configure GPIO pins : PBPin PBPin PBPin PBPin */
  GPIO_InitStruct.Pin = LED_RED_Pin|LED_GREEN_Pin|LED_YELLOW_Pin|RS485_RW6_Pin;
 8020aac:	f248 0307 	movw	r3, #32775	; 0x8007
  GPIO_InitStruct.Mode = GPIO_MODE_OUTPUT_PP;
  GPIO_InitStruct.Pull = GPIO_NOPULL;
  GPIO_InitStruct.Speed = GPIO_SPEED_FREQ_LOW;
  HAL_GPIO_Init(GPIOB, &GPIO_InitStruct);
 8020ab0:	a905      	add	r1, sp, #20
 8020ab2:	4638      	mov	r0, r7
  GPIO_InitStruct.Mode = GPIO_MODE_OUTPUT_PP;
 8020ab4:	e9cd 3805 	strd	r3, r8, [sp, #20]
  GPIO_InitStruct.Speed = GPIO_SPEED_FREQ_LOW;
 8020ab8:	e9cd 4407 	strd	r4, r4, [sp, #28]
  HAL_GPIO_Init(GPIOB, &GPIO_InitStruct);
 8020abc:	f001 fa96 	bl	8021fec <HAL_GPIO_Init>

  /*Configure GPIO pins : PBPin PBPin PBPin PBPin
                           PBPin PBPin PBPin PBPin
                           PBPin PBPin */
  GPIO_InitStruct.Pin = D_BK2_Pin|D_BK1_Pin|D_CATCHBAG_DOWN_Pin|I_MOTOROVERLOAD_Pin
 8020ac0:	f247 33f8 	movw	r3, #29688	; 0x73f8
                          |I_OILPUMPOVERLOAD_Pin|K_AUTO_Pin|K_HAND_Pin|K_STOP_Pin
                          |K_AUTORUN_Pin|K_EMERGENCY_Pin;
  GPIO_InitStruct.Mode = GPIO_MODE_INPUT;
  GPIO_InitStruct.Pull = GPIO_NOPULL;
  HAL_GPIO_Init(GPIOB, &GPIO_InitStruct);
 8020ac4:	a905      	add	r1, sp, #20
 8020ac6:	4638      	mov	r0, r7
  GPIO_InitStruct.Mode = GPIO_MODE_INPUT;
 8020ac8:	e9cd 3405 	strd	r3, r4, [sp, #20]
  GPIO_InitStruct.Pull = GPIO_NOPULL;
 8020acc:	9407      	str	r4, [sp, #28]
  HAL_GPIO_Init(GPIOB, &GPIO_InitStruct);
 8020ace:	f001 fa8d 	bl	8021fec <HAL_GPIO_Init>

  /*Configure GPIO pins : PCPin PCPin PCPin PCPin
                           PCPin */
  GPIO_InitStruct.Pin = D_CATCHBAG_UP_Pin|D_PUSHBAG_RIGHT_Pin|D_PRESSHEAD_UP_Pin|D_TURNBAG_DOWN_Pin
 8020ad2:	f44f 53f8 	mov.w	r3, #7936	; 0x1f00
                          |D_TURNBAG_UP_Pin;
  GPIO_InitStruct.Mode = GPIO_MODE_INPUT;
  GPIO_InitStruct.Pull = GPIO_NOPULL;
  HAL_GPIO_Init(GPIOC, &GPIO_InitStruct);
 8020ad6:	a905      	add	r1, sp, #20
 8020ad8:	4630      	mov	r0, r6
  GPIO_InitStruct.Mode = GPIO_MODE_INPUT;
 8020ada:	e9cd 3405 	strd	r3, r4, [sp, #20]
  GPIO_InitStruct.Pull = GPIO_NOPULL;
 8020ade:	9407      	str	r4, [sp, #28]
  HAL_GPIO_Init(GPIOC, &GPIO_InitStruct);
 8020ae0:	f001 fa84 	bl	8021fec <HAL_GPIO_Init>

  /*Configure GPIO pins : PAPin PAPin PAPin PAPin */
  GPIO_InitStruct.Pin = D_PUSHBAG_LEFT_Pin|D_BOARD_DOWN_Pin|D_BOARD_UP_Pin|D_PRESSHEAD_DOWN_Pin;
 8020ae4:	f44f 4319 	mov.w	r3, #39168	; 0x9900
  GPIO_InitStruct.Mode = GPIO_MODE_INPUT;
  GPIO_InitStruct.Pull = GPIO_NOPULL;
  HAL_GPIO_Init(GPIOA, &GPIO_InitStruct);
 8020ae8:	a905      	add	r1, sp, #20
 8020aea:	4628      	mov	r0, r5
  GPIO_InitStruct.Mode = GPIO_MODE_INPUT;
 8020aec:	e9cd 3405 	strd	r3, r4, [sp, #20]
  GPIO_InitStruct.Pull = GPIO_NOPULL;
 8020af0:	9407      	str	r4, [sp, #28]
  HAL_GPIO_Init(GPIOA, &GPIO_InitStruct);
 8020af2:	f001 fa7b 	bl	8021fec <HAL_GPIO_Init>

  /*Configure GPIO pin : PtPin */
  GPIO_InitStruct.Pin = I_PHASEERROR_Pin;
 8020af6:	2304      	movs	r3, #4
  GPIO_InitStruct.Mode = GPIO_MODE_INPUT;
  GPIO_InitStruct.Pull = GPIO_NOPULL;
  HAL_GPIO_Init(I_PHASEERROR_GPIO_Port, &GPIO_InitStruct);
 8020af8:	4808      	ldr	r0, [pc, #32]	; (8020b1c <MX_GPIO_Init+0x13c>)
  GPIO_InitStruct.Pull = GPIO_NOPULL;
 8020afa:	9407      	str	r4, [sp, #28]
  HAL_GPIO_Init(I_PHASEERROR_GPIO_Port, &GPIO_InitStruct);
 8020afc:	a905      	add	r1, sp, #20
  GPIO_InitStruct.Mode = GPIO_MODE_INPUT;
 8020afe:	e9cd 3405 	strd	r3, r4, [sp, #20]
  HAL_GPIO_Init(I_PHASEERROR_GPIO_Port, &GPIO_InitStruct);
 8020b02:	f001 fa73 	bl	8021fec <HAL_GPIO_Init>

}
 8020b06:	b00a      	add	sp, #40	; 0x28
 8020b08:	e8bd 81f0 	ldmia.w	sp!, {r4, r5, r6, r7, r8, pc}
 8020b0c:	40023800 	.word	0x40023800
 8020b10:	40020800 	.word	0x40020800
 8020b14:	40020000 	.word	0x40020000
 8020b18:	40020400 	.word	0x40020400
 8020b1c:	40020c00 	.word	0x40020c00

08020b20 <MX_IWDG_Init>:
  /* USER CODE END IWDG_Init 0 */

  /* USER CODE BEGIN IWDG_Init 1 */

  /* USER CODE END IWDG_Init 1 */
  hiwdg.Instance = IWDG;
 8020b20:	4808      	ldr	r0, [pc, #32]	; (8020b44 <MX_IWDG_Init+0x24>)
  hiwdg.Init.Prescaler = IWDG_PRESCALER_128;
 8020b22:	4a09      	ldr	r2, [pc, #36]	; (8020b48 <MX_IWDG_Init+0x28>)
{
 8020b24:	b508      	push	{r3, lr}
  hiwdg.Init.Prescaler = IWDG_PRESCALER_128;
 8020b26:	2305      	movs	r3, #5
 8020b28:	e9c0 2300 	strd	r2, r3, [r0]
  hiwdg.Init.Reload = 4095;
 8020b2c:	f640 73ff 	movw	r3, #4095	; 0xfff
 8020b30:	6083      	str	r3, [r0, #8]
  if (HAL_IWDG_Init(&hiwdg) != HAL_OK)
 8020b32:	f001 fbc3 	bl	80222bc <HAL_IWDG_Init>
 8020b36:	b118      	cbz	r0, 8020b40 <MX_IWDG_Init+0x20>
  }
  /* USER CODE BEGIN IWDG_Init 2 */

  /* USER CODE END IWDG_Init 2 */

}
 8020b38:	e8bd 4008 	ldmia.w	sp!, {r3, lr}
    Error_Handler();
 8020b3c:	f000 b8a3 	b.w	8020c86 <Error_Handler>
}
 8020b40:	bd08      	pop	{r3, pc}
 8020b42:	bf00      	nop
 8020b44:	20007604 	.word	0x20007604
 8020b48:	40003000 	.word	0x40003000

08020b4c <SystemClock_Config>:
/**
  * @brief System Clock Configuration
  * @retval None
  */
void SystemClock_Config(void)
{
 8020b4c:	b510      	push	{r4, lr}
  RCC_OscInitTypeDef RCC_OscInitStruct = {0};
 8020b4e:	2400      	movs	r4, #0
{
 8020b50:	b094      	sub	sp, #80	; 0x50
  RCC_ClkInitTypeDef RCC_ClkInitStruct = {0};
 8020b52:	4621      	mov	r1, r4
 8020b54:	2214      	movs	r2, #20
 8020b56:	a802      	add	r0, sp, #8
  RCC_OscInitTypeDef RCC_OscInitStruct = {0};
 8020b58:	e9cd 4409 	strd	r4, r4, [sp, #36]	; 0x24
 8020b5c:	940b      	str	r4, [sp, #44]	; 0x2c
  RCC_ClkInitTypeDef RCC_ClkInitStruct = {0};
 8020b5e:	f007 ff61 	bl	8028a24 <memset>

  /** Configure the main internal regulator output voltage
  */
  __HAL_RCC_PWR_CLK_ENABLE();
 8020b62:	4b20      	ldr	r3, [pc, #128]	; (8020be4 <SystemClock_Config+0x98>)
 8020b64:	9400      	str	r4, [sp, #0]
 8020b66:	6c1a      	ldr	r2, [r3, #64]	; 0x40
 8020b68:	f042 5280 	orr.w	r2, r2, #268435456	; 0x10000000
 8020b6c:	641a      	str	r2, [r3, #64]	; 0x40
 8020b6e:	6c1b      	ldr	r3, [r3, #64]	; 0x40
 8020b70:	f003 5380 	and.w	r3, r3, #268435456	; 0x10000000
 8020b74:	9300      	str	r3, [sp, #0]
 8020b76:	9b00      	ldr	r3, [sp, #0]
  __HAL_PWR_VOLTAGESCALING_CONFIG(PWR_REGULATOR_VOLTAGE_SCALE1);
 8020b78:	4b1b      	ldr	r3, [pc, #108]	; (8020be8 <SystemClock_Config+0x9c>)
 8020b7a:	9401      	str	r4, [sp, #4]
 8020b7c:	681a      	ldr	r2, [r3, #0]
 8020b7e:	f442 4240 	orr.w	r2, r2, #49152	; 0xc000
 8020b82:	601a      	str	r2, [r3, #0]
 8020b84:	681b      	ldr	r3, [r3, #0]
 8020b86:	f403 4340 	and.w	r3, r3, #49152	; 0xc000
 8020b8a:	9301      	str	r3, [sp, #4]
 8020b8c:	9b01      	ldr	r3, [sp, #4]

  /** Initializes the RCC Oscillators according to the specified parameters
  * in the RCC_OscInitTypeDef structure.
  */
  RCC_OscInitStruct.OscillatorType = RCC_OSCILLATORTYPE_LSI|RCC_OSCILLATORTYPE_HSE;
  RCC_OscInitStruct.HSEState = RCC_HSE_ON;
 8020b8e:	2209      	movs	r2, #9
 8020b90:	f44f 3380 	mov.w	r3, #65536	; 0x10000
  RCC_OscInitStruct.LSIState = RCC_LSI_ON;
  RCC_OscInitStruct.PLL.PLLState = RCC_PLL_ON;
 8020b94:	2402      	movs	r4, #2
  RCC_OscInitStruct.HSEState = RCC_HSE_ON;
 8020b96:	e9cd 2307 	strd	r2, r3, [sp, #28]
  RCC_OscInitStruct.PLL.PLLState = RCC_PLL_ON;
 8020b9a:	2301      	movs	r3, #1
 8020b9c:	e9cd 340c 	strd	r3, r4, [sp, #48]	; 0x30
  RCC_OscInitStruct.PLL.PLLSource = RCC_PLLSOURCE_HSE;
  RCC_OscInitStruct.PLL.PLLM = 4;
 8020ba0:	f44f 0180 	mov.w	r1, #4194304	; 0x400000
 8020ba4:	2304      	movs	r3, #4
 8020ba6:	e9cd 130e 	strd	r1, r3, [sp, #56]	; 0x38
  RCC_OscInitStruct.PLL.PLLN = 100;
  RCC_OscInitStruct.PLL.PLLP = RCC_PLLP_DIV2;
  RCC_OscInitStruct.PLL.PLLQ = 2;
  RCC_OscInitStruct.PLL.PLLR = 2;
  if (HAL_RCC_OscConfig(&RCC_OscInitStruct) != HAL_OK)
 8020baa:	a807      	add	r0, sp, #28
  RCC_OscInitStruct.PLL.PLLN = 100;
 8020bac:	2364      	movs	r3, #100	; 0x64
  RCC_OscInitStruct.PLL.PLLP = RCC_PLLP_DIV2;
 8020bae:	e9cd 3410 	strd	r3, r4, [sp, #64]	; 0x40
  RCC_OscInitStruct.PLL.PLLR = 2;
 8020bb2:	e9cd 4412 	strd	r4, r4, [sp, #72]	; 0x48
  if (HAL_RCC_OscConfig(&RCC_OscInitStruct) != HAL_OK)
 8020bb6:	f001 ff37 	bl	8022a28 <HAL_RCC_OscConfig>
 8020bba:	b108      	cbz	r0, 8020bc0 <SystemClock_Config+0x74>
  \details Disables IRQ interrupts by setting the I-bit in the CPSR.
           Can only be executed in Privileged modes.
 */
__STATIC_FORCEINLINE void __disable_irq(void)
{
  __ASM volatile ("cpsid i" : : : "memory");
 8020bbc:	b672      	cpsid	i
void Error_Handler(void)
{
  /* USER CODE BEGIN Error_Handler_Debug */
	/* User can add his own implementation to report the HAL error return state */
	__disable_irq();
	while (1) {
 8020bbe:	e7fe      	b.n	8020bbe <SystemClock_Config+0x72>
  RCC_ClkInitStruct.ClockType = RCC_CLOCKTYPE_HCLK|RCC_CLOCKTYPE_SYSCLK
 8020bc0:	230f      	movs	r3, #15
  RCC_ClkInitStruct.SYSCLKSource = RCC_SYSCLKSOURCE_PLLCLK;
 8020bc2:	e9cd 3402 	strd	r3, r4, [sp, #8]
  RCC_ClkInitStruct.APB1CLKDivider = RCC_HCLK_DIV2;
 8020bc6:	f44f 5380 	mov.w	r3, #4096	; 0x1000
  RCC_ClkInitStruct.APB2CLKDivider = RCC_HCLK_DIV1;
 8020bca:	e9cd 3005 	strd	r3, r0, [sp, #20]
  RCC_ClkInitStruct.AHBCLKDivider = RCC_SYSCLK_DIV1;
 8020bce:	9004      	str	r0, [sp, #16]
  if (HAL_RCC_ClockConfig(&RCC_ClkInitStruct, FLASH_LATENCY_3) != HAL_OK)
 8020bd0:	2103      	movs	r1, #3
 8020bd2:	a802      	add	r0, sp, #8
 8020bd4:	f001 fbea 	bl	80223ac <HAL_RCC_ClockConfig>
 8020bd8:	b108      	cbz	r0, 8020bde <SystemClock_Config+0x92>
 8020bda:	b672      	cpsid	i
	while (1) {
 8020bdc:	e7fe      	b.n	8020bdc <SystemClock_Config+0x90>
}
 8020bde:	b014      	add	sp, #80	; 0x50
 8020be0:	bd10      	pop	{r4, pc}
 8020be2:	bf00      	nop
 8020be4:	40023800 	.word	0x40023800
 8020be8:	40007000 	.word	0x40007000

08020bec <main>:
{
 8020bec:	b508      	push	{r3, lr}
	SCB->VTOR = FLASH_BASE | APPLICATION_ADDRESS;
 8020bee:	4b1d      	ldr	r3, [pc, #116]	; (8020c64 <main+0x78>)
 8020bf0:	4a1d      	ldr	r2, [pc, #116]	; (8020c68 <main+0x7c>)
 8020bf2:	609a      	str	r2, [r3, #8]
  __ASM volatile ("cpsie i" : : : "memory");
 8020bf4:	b662      	cpsie	i
  HAL_Init();
 8020bf6:	f000 fc4f 	bl	8021498 <HAL_Init>
  SystemClock_Config();
 8020bfa:	f7ff ffa7 	bl	8020b4c <SystemClock_Config>
  MX_GPIO_Init();
 8020bfe:	f7ff feef 	bl	80209e0 <MX_GPIO_Init>
  MX_DMA_Init();
 8020c02:	f7ff fcd1 	bl	80205a8 <MX_DMA_Init>
  MX_RTC_Init();
 8020c06:	f000 f841 	bl	8020c8c <MX_RTC_Init>
  MX_TIM6_Init();
 8020c0a:	f000 f965 	bl	8020ed8 <MX_TIM6_Init>
  MX_TIM7_Init();
 8020c0e:	f000 f987 	bl	8020f20 <MX_TIM7_Init>
  MX_USART1_UART_Init();
 8020c12:	f000 fa01 	bl	8021018 <MX_USART1_UART_Init>
  MX_USART3_UART_Init();
 8020c16:	f000 fa1b 	bl	8021050 <MX_USART3_UART_Init>
  MX_USART6_UART_Init();
 8020c1a:	f000 fa35 	bl	8021088 <MX_USART6_UART_Init>
  MX_IWDG_Init();
 8020c1e:	f7ff ff7f 	bl	8020b20 <MX_IWDG_Init>
  MX_TIM10_Init();
 8020c22:	f000 f995 	bl	8020f50 <MX_TIM10_Init>
	DEBUG_L("*********************************\r\n");
 8020c26:	4811      	ldr	r0, [pc, #68]	; (8020c6c <main+0x80>)
 8020c28:	f007 fbea 	bl	8028400 <debug_printf>
	DEBUG_L("**  APP FOR PACKAGE!\r\n");
 8020c2c:	4810      	ldr	r0, [pc, #64]	; (8020c70 <main+0x84>)
 8020c2e:	f007 fbe7 	bl	8028400 <debug_printf>
	DEBUG_L("*********************************\r\n");
 8020c32:	480e      	ldr	r0, [pc, #56]	; (8020c6c <main+0x80>)
 8020c34:	f007 fbe4 	bl	8028400 <debug_printf>
	Usart_DamIdle();
 8020c38:	f005 fdd8 	bl	80267ec <Usart_DamIdle>
	Eeprom_ini();
 8020c3c:	f006 f84a 	bl	8026cd4 <Eeprom_ini>
	sysguard_ini();
 8020c40:	f007 fe6a 	bl	8028918 <sysguard_ini>
	screen_ini();
 8020c44:	f006 f87a 	bl	8026d3c <screen_ini>
	input_initial();
 8020c48:	f005 fd52 	bl	80266f0 <input_initial>
	HAL_TIM_Base_Start_IT(&htim6);
 8020c4c:	4809      	ldr	r0, [pc, #36]	; (8020c74 <main+0x88>)
 8020c4e:	f002 fb71 	bl	8023334 <HAL_TIM_Base_Start_IT>
	softTimer_Init();
 8020c52:	f007 fde7 	bl	8028824 <softTimer_Init>
  osKernelInitialize();  /* Call init function for freertos objects (in freertos.c) */
 8020c56:	f003 fb19 	bl	802428c <osKernelInitialize>
  MX_FREERTOS_Init();
 8020c5a:	f7ff fdcf 	bl	80207fc <MX_FREERTOS_Init>
  osKernelStart();
 8020c5e:	f003 fb27 	bl	80242b0 <osKernelStart>
	while (1) {
 8020c62:	e7fe      	b.n	8020c62 <main+0x76>
 8020c64:	e000ed00 	.word	0xe000ed00
 8020c68:	08020000 	.word	0x08020000
 8020c6c:	08028ed0 	.word	0x08028ed0
 8020c70:	08028ef4 	.word	0x08028ef4
 8020c74:	200076c0 	.word	0x200076c0

08020c78 <HAL_TIM_PeriodElapsedCallback>:
  if (htim->Instance == TIM2) {
 8020c78:	6803      	ldr	r3, [r0, #0]
 8020c7a:	f1b3 4f80 	cmp.w	r3, #1073741824	; 0x40000000
 8020c7e:	d101      	bne.n	8020c84 <HAL_TIM_PeriodElapsedCallback+0xc>
    HAL_IncTick();
 8020c80:	f000 bc24 	b.w	80214cc <HAL_IncTick>
}
 8020c84:	4770      	bx	lr

08020c86 <Error_Handler>:
  __ASM volatile ("cpsid i" : : : "memory");
 8020c86:	b672      	cpsid	i
	while (1) {
 8020c88:	e7fe      	b.n	8020c88 <Error_Handler+0x2>

08020c8a <assert_failed>:
{
  /* USER CODE BEGIN 6 */
	/* User can add his own implementation to report the file name and line number,
	 ex: printf("Wrong parameters value: file %s on line %d\r\n", file, line) */
  /* USER CODE END 6 */
}
 8020c8a:	4770      	bx	lr

08020c8c <MX_RTC_Init>:

RTC_HandleTypeDef hrtc;

/* RTC init function */
void MX_RTC_Init(void)
{
 8020c8c:	b510      	push	{r4, lr}
 8020c8e:	b086      	sub	sp, #24

  /* USER CODE BEGIN RTC_Init 0 */

  /* USER CODE END RTC_Init 0 */

  RTC_TimeTypeDef sTime = {0};
 8020c90:	2214      	movs	r2, #20
 8020c92:	2100      	movs	r1, #0
 8020c94:	a801      	add	r0, sp, #4
 8020c96:	f007 fec5 	bl	8028a24 <memset>

  /* USER CODE END RTC_Init 1 */

  /** Initialize RTC Only
  */
  hrtc.Instance = RTC;
 8020c9a:	4816      	ldr	r0, [pc, #88]	; (8020cf4 <MX_RTC_Init+0x68>)
 8020c9c:	4b16      	ldr	r3, [pc, #88]	; (8020cf8 <MX_RTC_Init+0x6c>)
  RTC_DateTypeDef sDate = {0};
 8020c9e:	2400      	movs	r4, #0
  hrtc.Init.HourFormat = RTC_HOURFORMAT_24;
 8020ca0:	e9c0 3400 	strd	r3, r4, [r0]
  hrtc.Init.AsynchPrediv = 127;
  hrtc.Init.SynchPrediv = 255;
 8020ca4:	227f      	movs	r2, #127	; 0x7f
 8020ca6:	23ff      	movs	r3, #255	; 0xff
 8020ca8:	e9c0 2302 	strd	r2, r3, [r0, #8]
  hrtc.Init.OutPut = RTC_OUTPUT_DISABLE;
  hrtc.Init.OutPutPolarity = RTC_OUTPUT_POLARITY_HIGH;
 8020cac:	e9c0 4404 	strd	r4, r4, [r0, #16]
  RTC_DateTypeDef sDate = {0};
 8020cb0:	9400      	str	r4, [sp, #0]
  hrtc.Init.OutPutType = RTC_OUTPUT_TYPE_OPENDRAIN;
 8020cb2:	6184      	str	r4, [r0, #24]
  if (HAL_RTC_Init(&hrtc) != HAL_OK)
 8020cb4:	f002 f93e 	bl	8022f34 <HAL_RTC_Init>
 8020cb8:	b108      	cbz	r0, 8020cbe <MX_RTC_Init+0x32>
  {
    Error_Handler();
 8020cba:	f7ff ffe4 	bl	8020c86 <Error_Handler>
  sTime.Hours = 0x0;
  sTime.Minutes = 0x0;
  sTime.Seconds = 0x0;
  sTime.DayLightSaving = RTC_DAYLIGHTSAVING_NONE;
  sTime.StoreOperation = RTC_STOREOPERATION_RESET;
  if (HAL_RTC_SetTime(&hrtc, &sTime, RTC_FORMAT_BCD) != HAL_OK)
 8020cbe:	480d      	ldr	r0, [pc, #52]	; (8020cf4 <MX_RTC_Init+0x68>)
  sTime.Hours = 0x0;
 8020cc0:	f8ad 4004 	strh.w	r4, [sp, #4]
  if (HAL_RTC_SetTime(&hrtc, &sTime, RTC_FORMAT_BCD) != HAL_OK)
 8020cc4:	2201      	movs	r2, #1
 8020cc6:	a901      	add	r1, sp, #4
  sTime.StoreOperation = RTC_STOREOPERATION_RESET;
 8020cc8:	e9cd 4404 	strd	r4, r4, [sp, #16]
  sTime.Seconds = 0x0;
 8020ccc:	f88d 4006 	strb.w	r4, [sp, #6]
  if (HAL_RTC_SetTime(&hrtc, &sTime, RTC_FORMAT_BCD) != HAL_OK)
 8020cd0:	f002 f9ca 	bl	8023068 <HAL_RTC_SetTime>
 8020cd4:	b108      	cbz	r0, 8020cda <MX_RTC_Init+0x4e>
  {
    Error_Handler();
 8020cd6:	f7ff ffd6 	bl	8020c86 <Error_Handler>
  }
  sDate.WeekDay = RTC_WEEKDAY_MONDAY;
 8020cda:	4b08      	ldr	r3, [pc, #32]	; (8020cfc <MX_RTC_Init+0x70>)
  sDate.Month = RTC_MONTH_JANUARY;
  sDate.Date = 0x1;
  sDate.Year = 0x0;

  if (HAL_RTC_SetDate(&hrtc, &sDate, RTC_FORMAT_BCD) != HAL_OK)
 8020cdc:	4805      	ldr	r0, [pc, #20]	; (8020cf4 <MX_RTC_Init+0x68>)
  sDate.WeekDay = RTC_WEEKDAY_MONDAY;
 8020cde:	9300      	str	r3, [sp, #0]
  if (HAL_RTC_SetDate(&hrtc, &sDate, RTC_FORMAT_BCD) != HAL_OK)
 8020ce0:	2201      	movs	r2, #1
 8020ce2:	4669      	mov	r1, sp
 8020ce4:	f002 fa8a 	bl	80231fc <HAL_RTC_SetDate>
 8020ce8:	b108      	cbz	r0, 8020cee <MX_RTC_Init+0x62>
  {
    Error_Handler();
 8020cea:	f7ff ffcc 	bl	8020c86 <Error_Handler>
  }
  /* USER CODE BEGIN RTC_Init 2 */

  /* USER CODE END RTC_Init 2 */

}
 8020cee:	b006      	add	sp, #24
 8020cf0:	bd10      	pop	{r4, pc}
 8020cf2:	bf00      	nop
 8020cf4:	20007610 	.word	0x20007610
 8020cf8:	40002800 	.word	0x40002800
 8020cfc:	00010101 	.word	0x00010101

08020d00 <HAL_RTC_MspInit>:

void HAL_RTC_MspInit(RTC_HandleTypeDef* rtcHandle)
{
 8020d00:	b510      	push	{r4, lr}
 8020d02:	4604      	mov	r4, r0
 8020d04:	b090      	sub	sp, #64	; 0x40

  RCC_PeriphCLKInitTypeDef PeriphClkInitStruct = {0};
 8020d06:	223c      	movs	r2, #60	; 0x3c
 8020d08:	2100      	movs	r1, #0
 8020d0a:	a801      	add	r0, sp, #4
 8020d0c:	f007 fe8a 	bl	8028a24 <memset>
  if(rtcHandle->Instance==RTC)
 8020d10:	6822      	ldr	r2, [r4, #0]
 8020d12:	4b09      	ldr	r3, [pc, #36]	; (8020d38 <HAL_RTC_MspInit+0x38>)
 8020d14:	429a      	cmp	r2, r3
 8020d16:	d10d      	bne.n	8020d34 <HAL_RTC_MspInit+0x34>

  /* USER CODE END RTC_MspInit 0 */

  /** Initializes the peripherals clock
  */
    PeriphClkInitStruct.PeriphClockSelection = RCC_PERIPHCLK_RTC;
 8020d18:	2308      	movs	r3, #8
 8020d1a:	9301      	str	r3, [sp, #4]
    PeriphClkInitStruct.RTCClockSelection = RCC_RTCCLKSOURCE_LSI;
    if (HAL_RCCEx_PeriphCLKConfig(&PeriphClkInitStruct) != HAL_OK)
 8020d1c:	a801      	add	r0, sp, #4
    PeriphClkInitStruct.RTCClockSelection = RCC_RTCCLKSOURCE_LSI;
 8020d1e:	f44f 7300 	mov.w	r3, #512	; 0x200
 8020d22:	9308      	str	r3, [sp, #32]
    if (HAL_RCCEx_PeriphCLKConfig(&PeriphClkInitStruct) != HAL_OK)
 8020d24:	f001 fc74 	bl	8022610 <HAL_RCCEx_PeriphCLKConfig>
 8020d28:	b108      	cbz	r0, 8020d2e <HAL_RTC_MspInit+0x2e>
    {
      Error_Handler();
 8020d2a:	f7ff ffac 	bl	8020c86 <Error_Handler>
    }

    /* RTC clock enable */
    __HAL_RCC_RTC_ENABLE();
 8020d2e:	4b03      	ldr	r3, [pc, #12]	; (8020d3c <HAL_RTC_MspInit+0x3c>)
 8020d30:	2201      	movs	r2, #1
 8020d32:	601a      	str	r2, [r3, #0]
  /* USER CODE BEGIN RTC_MspInit 1 */

  /* USER CODE END RTC_MspInit 1 */
  }
}
 8020d34:	b010      	add	sp, #64	; 0x40
 8020d36:	bd10      	pop	{r4, pc}
 8020d38:	40002800 	.word	0x40002800
 8020d3c:	42470e3c 	.word	0x42470e3c

08020d40 <HAL_MspInit>:
/* USER CODE END 0 */
/**
  * Initializes the Global MSP.
  */
void HAL_MspInit(void)
{
 8020d40:	b082      	sub	sp, #8
  /* USER CODE BEGIN MspInit 0 */

  /* USER CODE END MspInit 0 */

  __HAL_RCC_SYSCFG_CLK_ENABLE();
 8020d42:	4b0e      	ldr	r3, [pc, #56]	; (8020d7c <HAL_MspInit+0x3c>)
 8020d44:	2200      	movs	r2, #0
 8020d46:	9200      	str	r2, [sp, #0]
 8020d48:	6c59      	ldr	r1, [r3, #68]	; 0x44
 8020d4a:	f441 4180 	orr.w	r1, r1, #16384	; 0x4000
 8020d4e:	6459      	str	r1, [r3, #68]	; 0x44
 8020d50:	6c59      	ldr	r1, [r3, #68]	; 0x44
 8020d52:	f401 4180 	and.w	r1, r1, #16384	; 0x4000
 8020d56:	9100      	str	r1, [sp, #0]
 8020d58:	9900      	ldr	r1, [sp, #0]
  __HAL_RCC_PWR_CLK_ENABLE();
 8020d5a:	9201      	str	r2, [sp, #4]
 8020d5c:	6c19      	ldr	r1, [r3, #64]	; 0x40
 8020d5e:	f041 5180 	orr.w	r1, r1, #268435456	; 0x10000000
 8020d62:	6419      	str	r1, [r3, #64]	; 0x40
 8020d64:	6c1b      	ldr	r3, [r3, #64]	; 0x40
 8020d66:	f003 5380 	and.w	r3, r3, #268435456	; 0x10000000
 8020d6a:	9301      	str	r3, [sp, #4]
 8020d6c:	9b01      	ldr	r3, [sp, #4]

  /* System interrupt init*/
  /* PendSV_IRQn interrupt configuration */
  HAL_NVIC_SetPriority(PendSV_IRQn, 15, 0);
 8020d6e:	210f      	movs	r1, #15
 8020d70:	f06f 0001 	mvn.w	r0, #1

  /* USER CODE BEGIN MspInit 1 */

  /* USER CODE END MspInit 1 */
}
 8020d74:	b002      	add	sp, #8
  HAL_NVIC_SetPriority(PendSV_IRQn, 15, 0);
 8020d76:	f000 bbd7 	b.w	8021528 <HAL_NVIC_SetPriority>
 8020d7a:	bf00      	nop
 8020d7c:	40023800 	.word	0x40023800

08020d80 <HAL_InitTick>:
  *         reset by HAL_Init() or at any time when clock is configured, by HAL_RCC_ClockConfig().
  * @param  TickPriority: Tick interrupt priority.
  * @retval HAL status
  */
HAL_StatusTypeDef HAL_InitTick(uint32_t TickPriority)
{
 8020d80:	b530      	push	{r4, r5, lr}
 8020d82:	4601      	mov	r1, r0
 8020d84:	b089      	sub	sp, #36	; 0x24
  RCC_ClkInitTypeDef    clkconfig;
  uint32_t              uwTimclock = 0;
  uint32_t              uwPrescalerValue = 0;
  uint32_t              pFLatency;
  /*Configure the TIM2 IRQ priority */
  HAL_NVIC_SetPriority(TIM2_IRQn, TickPriority ,0);
 8020d86:	2200      	movs	r2, #0
 8020d88:	201c      	movs	r0, #28
 8020d8a:	f000 fbcd 	bl	8021528 <HAL_NVIC_SetPriority>

  /* Enable the TIM2 global Interrupt */
  HAL_NVIC_EnableIRQ(TIM2_IRQn);
 8020d8e:	201c      	movs	r0, #28
 8020d90:	f000 fc0e 	bl	80215b0 <HAL_NVIC_EnableIRQ>

  /* Enable TIM2 clock */
  __HAL_RCC_TIM2_CLK_ENABLE();
 8020d94:	2500      	movs	r5, #0
 8020d96:	4b15      	ldr	r3, [pc, #84]	; (8020dec <HAL_InitTick+0x6c>)
 8020d98:	9502      	str	r5, [sp, #8]
 8020d9a:	6c1a      	ldr	r2, [r3, #64]	; 0x40
  uwTimclock = 2*HAL_RCC_GetPCLK1Freq();
  /* Compute the prescaler value to have TIM2 counter clock equal to 1MHz */
  uwPrescalerValue = (uint32_t) ((uwTimclock / 1000000U) - 1U);

  /* Initialize TIM2 */
  htim2.Instance = TIM2;
 8020d9c:	4c14      	ldr	r4, [pc, #80]	; (8020df0 <HAL_InitTick+0x70>)
  __HAL_RCC_TIM2_CLK_ENABLE();
 8020d9e:	f042 0201 	orr.w	r2, r2, #1
 8020da2:	641a      	str	r2, [r3, #64]	; 0x40
 8020da4:	6c1b      	ldr	r3, [r3, #64]	; 0x40
 8020da6:	f003 0301 	and.w	r3, r3, #1
 8020daa:	9302      	str	r3, [sp, #8]
  HAL_RCC_GetClockConfig(&clkconfig, &pFLatency);
 8020dac:	a901      	add	r1, sp, #4
 8020dae:	a803      	add	r0, sp, #12
  __HAL_RCC_TIM2_CLK_ENABLE();
 8020db0:	9b02      	ldr	r3, [sp, #8]
  HAL_RCC_GetClockConfig(&clkconfig, &pFLatency);
 8020db2:	f001 fc0f 	bl	80225d4 <HAL_RCC_GetClockConfig>
  uwTimclock = 2*HAL_RCC_GetPCLK1Freq();
 8020db6:	f001 fbed 	bl	8022594 <HAL_RCC_GetPCLK1Freq>
  htim2.Instance = TIM2;
 8020dba:	f04f 4380 	mov.w	r3, #1073741824	; 0x40000000
 8020dbe:	6023      	str	r3, [r4, #0]
  + Period = [(TIM2CLK/1000) - 1]. to have a (1/1000) s time base.
  + Prescaler = (uwTimclock/1000000 - 1) to have a 1MHz counter clock.
  + ClockDivision = 0
  + Counter direction = Up
  */
  htim2.Init.Period = (1000000U / 1000U) - 1U;
 8020dc0:	f240 33e7 	movw	r3, #999	; 0x3e7
 8020dc4:	60e3      	str	r3, [r4, #12]
  uwTimclock = 2*HAL_RCC_GetPCLK1Freq();
 8020dc6:	0040      	lsls	r0, r0, #1
  uwPrescalerValue = (uint32_t) ((uwTimclock / 1000000U) - 1U);
 8020dc8:	4b0a      	ldr	r3, [pc, #40]	; (8020df4 <HAL_InitTick+0x74>)
 8020dca:	fbb0 f0f3 	udiv	r0, r0, r3
 8020dce:	3801      	subs	r0, #1
  htim2.Init.Prescaler = uwPrescalerValue;
 8020dd0:	6060      	str	r0, [r4, #4]
  htim2.Init.ClockDivision = 0;
  htim2.Init.CounterMode = TIM_COUNTERMODE_UP;

  if(HAL_TIM_Base_Init(&htim2) == HAL_OK)
 8020dd2:	4620      	mov	r0, r4
  htim2.Init.ClockDivision = 0;
 8020dd4:	6125      	str	r5, [r4, #16]
  htim2.Init.CounterMode = TIM_COUNTERMODE_UP;
 8020dd6:	60a5      	str	r5, [r4, #8]
  if(HAL_TIM_Base_Init(&htim2) == HAL_OK)
 8020dd8:	f002 fc32 	bl	8023640 <HAL_TIM_Base_Init>
 8020ddc:	b920      	cbnz	r0, 8020de8 <HAL_InitTick+0x68>
  {
    /* Start the TIM time Base generation in interrupt mode */
    return HAL_TIM_Base_Start_IT(&htim2);
 8020dde:	4620      	mov	r0, r4
 8020de0:	f002 faa8 	bl	8023334 <HAL_TIM_Base_Start_IT>
  }

  /* Return function status */
  return HAL_ERROR;
}
 8020de4:	b009      	add	sp, #36	; 0x24
 8020de6:	bd30      	pop	{r4, r5, pc}
  return HAL_ERROR;
 8020de8:	2001      	movs	r0, #1
 8020dea:	e7fb      	b.n	8020de4 <HAL_InitTick+0x64>
 8020dec:	40023800 	.word	0x40023800
 8020df0:	20007630 	.word	0x20007630
 8020df4:	000f4240 	.word	0x000f4240

08020df8 <NMI_Handler>:
{
  /* USER CODE BEGIN NonMaskableInt_IRQn 0 */

  /* USER CODE END NonMaskableInt_IRQn 0 */
  /* USER CODE BEGIN NonMaskableInt_IRQn 1 */
  while (1)
 8020df8:	e7fe      	b.n	8020df8 <NMI_Handler>

08020dfa <HardFault_Handler>:
void HardFault_Handler(void)
{
  /* USER CODE BEGIN HardFault_IRQn 0 */

  /* USER CODE END HardFault_IRQn 0 */
  while (1)
 8020dfa:	e7fe      	b.n	8020dfa <HardFault_Handler>

08020dfc <MemManage_Handler>:
void MemManage_Handler(void)
{
  /* USER CODE BEGIN MemoryManagement_IRQn 0 */

  /* USER CODE END MemoryManagement_IRQn 0 */
  while (1)
 8020dfc:	e7fe      	b.n	8020dfc <MemManage_Handler>

08020dfe <BusFault_Handler>:
void BusFault_Handler(void)
{
  /* USER CODE BEGIN BusFault_IRQn 0 */

  /* USER CODE END BusFault_IRQn 0 */
  while (1)
 8020dfe:	e7fe      	b.n	8020dfe <BusFault_Handler>

08020e00 <UsageFault_Handler>:
void UsageFault_Handler(void)
{
  /* USER CODE BEGIN UsageFault_IRQn 0 */

  /* USER CODE END UsageFault_IRQn 0 */
  while (1)
 8020e00:	e7fe      	b.n	8020e00 <UsageFault_Handler>

08020e02 <DebugMon_Handler>:

  /* USER CODE END DebugMonitor_IRQn 0 */
  /* USER CODE BEGIN DebugMonitor_IRQn 1 */

  /* USER CODE END DebugMonitor_IRQn 1 */
}
 8020e02:	4770      	bx	lr

08020e04 <DMA1_Stream1_IRQHandler>:
void DMA1_Stream1_IRQHandler(void)
{
  /* USER CODE BEGIN DMA1_Stream1_IRQn 0 */

  /* USER CODE END DMA1_Stream1_IRQn 0 */
  HAL_DMA_IRQHandler(&hdma_usart3_rx);
 8020e04:	4801      	ldr	r0, [pc, #4]	; (8020e0c <DMA1_Stream1_IRQHandler+0x8>)
 8020e06:	f000 bdcf 	b.w	80219a8 <HAL_DMA_IRQHandler>
 8020e0a:	bf00      	nop
 8020e0c:	200077b0 	.word	0x200077b0

08020e10 <DMA1_Stream3_IRQHandler>:
void DMA1_Stream3_IRQHandler(void)
{
  /* USER CODE BEGIN DMA1_Stream3_IRQn 0 */

  /* USER CODE END DMA1_Stream3_IRQn 0 */
  HAL_DMA_IRQHandler(&hdma_usart3_tx);
 8020e10:	4801      	ldr	r0, [pc, #4]	; (8020e18 <DMA1_Stream3_IRQHandler+0x8>)
 8020e12:	f000 bdc9 	b.w	80219a8 <HAL_DMA_IRQHandler>
 8020e16:	bf00      	nop
 8020e18:	20007854 	.word	0x20007854

08020e1c <TIM1_UP_TIM10_IRQHandler>:
void TIM1_UP_TIM10_IRQHandler(void)
{
  /* USER CODE BEGIN TIM1_UP_TIM10_IRQn 0 */

  /* USER CODE END TIM1_UP_TIM10_IRQn 0 */
  HAL_TIM_IRQHandler(&htim10);
 8020e1c:	4801      	ldr	r0, [pc, #4]	; (8020e24 <TIM1_UP_TIM10_IRQHandler+0x8>)
 8020e1e:	f002 bb07 	b.w	8023430 <HAL_TIM_IRQHandler>
 8020e22:	bf00      	nop
 8020e24:	20007678 	.word	0x20007678

08020e28 <TIM2_IRQHandler>:
void TIM2_IRQHandler(void)
{
  /* USER CODE BEGIN TIM2_IRQn 0 */

  /* USER CODE END TIM2_IRQn 0 */
  HAL_TIM_IRQHandler(&htim2);
 8020e28:	4801      	ldr	r0, [pc, #4]	; (8020e30 <TIM2_IRQHandler+0x8>)
 8020e2a:	f002 bb01 	b.w	8023430 <HAL_TIM_IRQHandler>
 8020e2e:	bf00      	nop
 8020e30:	20007630 	.word	0x20007630

08020e34 <USART1_IRQHandler>:

/**
  * @brief This function handles USART1 global interrupt.
  */
void USART1_IRQHandler(void)
{
 8020e34:	b508      	push	{r3, lr}
  /* USER CODE BEGIN USART1_IRQn 0 */
	USART1_RxIdleCallback(&huart1);
 8020e36:	4804      	ldr	r0, [pc, #16]	; (8020e48 <USART1_IRQHandler+0x14>)
 8020e38:	f005 fd10 	bl	802685c <USART1_RxIdleCallback>
  /* USER CODE END USART1_IRQn 0 */
  HAL_UART_IRQHandler(&huart1);
  /* USER CODE BEGIN USART1_IRQn 1 */

  /* USER CODE END USART1_IRQn 1 */
}
 8020e3c:	e8bd 4008 	ldmia.w	sp!, {r3, lr}
  HAL_UART_IRQHandler(&huart1);
 8020e40:	4801      	ldr	r0, [pc, #4]	; (8020e48 <USART1_IRQHandler+0x14>)
 8020e42:	f003 b80f 	b.w	8023e64 <HAL_UART_IRQHandler>
 8020e46:	bf00      	nop
 8020e48:	200079d4 	.word	0x200079d4

08020e4c <USART3_IRQHandler>:

/**
  * @brief This function handles USART3 global interrupt.
  */
void USART3_IRQHandler(void)
{
 8020e4c:	b508      	push	{r3, lr}
  /* USER CODE BEGIN USART3_IRQn 0 */
	USART3_RxIdleCallback(&huart3);
 8020e4e:	4804      	ldr	r0, [pc, #16]	; (8020e60 <USART3_IRQHandler+0x14>)
 8020e50:	f005 fd44 	bl	80268dc <USART3_RxIdleCallback>
  /* USER CODE END USART3_IRQn 0 */
  HAL_UART_IRQHandler(&huart3);
  /* USER CODE BEGIN USART3_IRQn 1 */

  /* USER CODE END USART3_IRQn 1 */
}
 8020e54:	e8bd 4008 	ldmia.w	sp!, {r3, lr}
  HAL_UART_IRQHandler(&huart3);
 8020e58:	4801      	ldr	r0, [pc, #4]	; (8020e60 <USART3_IRQHandler+0x14>)
 8020e5a:	f003 b803 	b.w	8023e64 <HAL_UART_IRQHandler>
 8020e5e:	bf00      	nop
 8020e60:	20007810 	.word	0x20007810

08020e64 <TIM6_IRQHandler>:

/**
  * @brief This function handles TIM6 global interrupt.
  */
void TIM6_IRQHandler(void)
{
 8020e64:	b508      	push	{r3, lr}
  /* USER CODE BEGIN TIM6_IRQn 0 */
	tickCnt_Update();
 8020e66:	f007 fcd5 	bl	8028814 <tickCnt_Update>
	mytim_ticupdate();
 8020e6a:	f006 fefd 	bl	8027c68 <mytim_ticupdate>
  /* USER CODE END TIM6_IRQn 0 */
  HAL_TIM_IRQHandler(&htim6);
  /* USER CODE BEGIN TIM6_IRQn 1 */

  /* USER CODE END TIM6_IRQn 1 */
}
 8020e6e:	e8bd 4008 	ldmia.w	sp!, {r3, lr}
  HAL_TIM_IRQHandler(&htim6);
 8020e72:	4801      	ldr	r0, [pc, #4]	; (8020e78 <TIM6_IRQHandler+0x14>)
 8020e74:	f002 badc 	b.w	8023430 <HAL_TIM_IRQHandler>
 8020e78:	200076c0 	.word	0x200076c0

08020e7c <DMA2_Stream1_IRQHandler>:
void DMA2_Stream1_IRQHandler(void)
{
  /* USER CODE BEGIN DMA2_Stream1_IRQn 0 */

  /* USER CODE END DMA2_Stream1_IRQn 0 */
  HAL_DMA_IRQHandler(&hdma_usart6_rx);
 8020e7c:	4801      	ldr	r0, [pc, #4]	; (8020e84 <DMA2_Stream1_IRQHandler+0x8>)
 8020e7e:	f000 bd93 	b.w	80219a8 <HAL_DMA_IRQHandler>
 8020e82:	bf00      	nop
 8020e84:	20007750 	.word	0x20007750

08020e88 <DMA2_Stream2_IRQHandler>:
void DMA2_Stream2_IRQHandler(void)
{
  /* USER CODE BEGIN DMA2_Stream2_IRQn 0 */

  /* USER CODE END DMA2_Stream2_IRQn 0 */
  HAL_DMA_IRQHandler(&hdma_usart1_rx);
 8020e88:	4801      	ldr	r0, [pc, #4]	; (8020e90 <DMA2_Stream2_IRQHandler+0x8>)
 8020e8a:	f000 bd8d 	b.w	80219a8 <HAL_DMA_IRQHandler>
 8020e8e:	bf00      	nop
 8020e90:	20007974 	.word	0x20007974

08020e94 <DMA2_Stream6_IRQHandler>:
void DMA2_Stream6_IRQHandler(void)
{
  /* USER CODE BEGIN DMA2_Stream6_IRQn 0 */

  /* USER CODE END DMA2_Stream6_IRQn 0 */
  HAL_DMA_IRQHandler(&hdma_usart6_tx);
 8020e94:	4801      	ldr	r0, [pc, #4]	; (8020e9c <DMA2_Stream6_IRQHandler+0x8>)
 8020e96:	f000 bd87 	b.w	80219a8 <HAL_DMA_IRQHandler>
 8020e9a:	bf00      	nop
 8020e9c:	20007914 	.word	0x20007914

08020ea0 <DMA2_Stream7_IRQHandler>:
void DMA2_Stream7_IRQHandler(void)
{
  /* USER CODE BEGIN DMA2_Stream7_IRQn 0 */

  /* USER CODE END DMA2_Stream7_IRQn 0 */
  HAL_DMA_IRQHandler(&hdma_usart1_tx);
 8020ea0:	4801      	ldr	r0, [pc, #4]	; (8020ea8 <DMA2_Stream7_IRQHandler+0x8>)
 8020ea2:	f000 bd81 	b.w	80219a8 <HAL_DMA_IRQHandler>
 8020ea6:	bf00      	nop
 8020ea8:	200078b4 	.word	0x200078b4

08020eac <USART6_IRQHandler>:

/**
  * @brief This function handles USART6 global interrupt.
  */
void USART6_IRQHandler(void)
{
 8020eac:	b508      	push	{r3, lr}
  /* USER CODE BEGIN USART6_IRQn 0 */
	USART6_RxIdleCallback(&huart6);
 8020eae:	4804      	ldr	r0, [pc, #16]	; (8020ec0 <USART6_IRQHandler+0x14>)
 8020eb0:	f005 fd54 	bl	802695c <USART6_RxIdleCallback>
  /* USER CODE END USART6_IRQn 0 */
  HAL_UART_IRQHandler(&huart6);
  /* USER CODE BEGIN USART6_IRQn 1 */

  /* USER CODE END USART6_IRQn 1 */
}
 8020eb4:	e8bd 4008 	ldmia.w	sp!, {r3, lr}
  HAL_UART_IRQHandler(&huart6);
 8020eb8:	4801      	ldr	r0, [pc, #4]	; (8020ec0 <USART6_IRQHandler+0x14>)
 8020eba:	f002 bfd3 	b.w	8023e64 <HAL_UART_IRQHandler>
 8020ebe:	bf00      	nop
 8020ec0:	20007a18 	.word	0x20007a18

08020ec4 <SystemInit>:
  */
void SystemInit(void)
{
  /* FPU settings ------------------------------------------------------------*/
  #if (__FPU_PRESENT == 1) && (__FPU_USED == 1)
    SCB->CPACR |= ((3UL << 10*2)|(3UL << 11*2));  /* set CP10 and CP11 Full Access */
 8020ec4:	4a03      	ldr	r2, [pc, #12]	; (8020ed4 <SystemInit+0x10>)
 8020ec6:	f8d2 3088 	ldr.w	r3, [r2, #136]	; 0x88
 8020eca:	f443 0370 	orr.w	r3, r3, #15728640	; 0xf00000
 8020ece:	f8c2 3088 	str.w	r3, [r2, #136]	; 0x88

  /* Configure the Vector Table location -------------------------------------*/
#if defined(USER_VECT_TAB_ADDRESS)
  SCB->VTOR = VECT_TAB_BASE_ADDRESS | VECT_TAB_OFFSET; /* Vector Table Relocation in Internal SRAM */
#endif /* USER_VECT_TAB_ADDRESS */
}
 8020ed2:	4770      	bx	lr
 8020ed4:	e000ed00 	.word	0xe000ed00

08020ed8 <MX_TIM6_Init>:
TIM_HandleTypeDef htim7;
TIM_HandleTypeDef htim10;

/* TIM6 init function */
void MX_TIM6_Init(void)
{
 8020ed8:	b513      	push	{r0, r1, r4, lr}

  /* USER CODE BEGIN TIM6_Init 1 */

  /* USER CODE END TIM6_Init 1 */
  htim6.Instance = TIM6;
  htim6.Init.Prescaler = 9999;
 8020eda:	4a0f      	ldr	r2, [pc, #60]	; (8020f18 <MX_TIM6_Init+0x40>)
  htim6.Instance = TIM6;
 8020edc:	480f      	ldr	r0, [pc, #60]	; (8020f1c <MX_TIM6_Init+0x44>)
  htim6.Init.Prescaler = 9999;
 8020ede:	f242 730f 	movw	r3, #9999	; 0x270f
  TIM_MasterConfigTypeDef sMasterConfig = {0};
 8020ee2:	2400      	movs	r4, #0
  htim6.Init.Prescaler = 9999;
 8020ee4:	e9c0 2300 	strd	r2, r3, [r0]
  htim6.Init.CounterMode = TIM_COUNTERMODE_UP;
  htim6.Init.Period = 1000;
 8020ee8:	f44f 737a 	mov.w	r3, #1000	; 0x3e8
  TIM_MasterConfigTypeDef sMasterConfig = {0};
 8020eec:	e9cd 4400 	strd	r4, r4, [sp]
  htim6.Init.CounterMode = TIM_COUNTERMODE_UP;
 8020ef0:	6084      	str	r4, [r0, #8]
  htim6.Init.Period = 1000;
 8020ef2:	60c3      	str	r3, [r0, #12]
  htim6.Init.AutoReloadPreload = TIM_AUTORELOAD_PRELOAD_DISABLE;
 8020ef4:	6184      	str	r4, [r0, #24]
  if (HAL_TIM_Base_Init(&htim6) != HAL_OK)
 8020ef6:	f002 fba3 	bl	8023640 <HAL_TIM_Base_Init>
 8020efa:	b108      	cbz	r0, 8020f00 <MX_TIM6_Init+0x28>
  {
    Error_Handler();
 8020efc:	f7ff fec3 	bl	8020c86 <Error_Handler>
  }
  sMasterConfig.MasterOutputTrigger = TIM_TRGO_RESET;
  sMasterConfig.MasterSlaveMode = TIM_MASTERSLAVEMODE_DISABLE;
  if (HAL_TIMEx_MasterConfigSynchronization(&htim6, &sMasterConfig) != HAL_OK)
 8020f00:	4806      	ldr	r0, [pc, #24]	; (8020f1c <MX_TIM6_Init+0x44>)
 8020f02:	4669      	mov	r1, sp
  sMasterConfig.MasterSlaveMode = TIM_MASTERSLAVEMODE_DISABLE;
 8020f04:	e9cd 4400 	strd	r4, r4, [sp]
  if (HAL_TIMEx_MasterConfigSynchronization(&htim6, &sMasterConfig) != HAL_OK)
 8020f08:	f002 fc2e 	bl	8023768 <HAL_TIMEx_MasterConfigSynchronization>
 8020f0c:	b108      	cbz	r0, 8020f12 <MX_TIM6_Init+0x3a>
  {
    Error_Handler();
 8020f0e:	f7ff feba 	bl	8020c86 <Error_Handler>
  }
  /* USER CODE BEGIN TIM6_Init 2 */

  /* USER CODE END TIM6_Init 2 */

}
 8020f12:	b002      	add	sp, #8
 8020f14:	bd10      	pop	{r4, pc}
 8020f16:	bf00      	nop
 8020f18:	40001000 	.word	0x40001000
 8020f1c:	200076c0 	.word	0x200076c0

08020f20 <MX_TIM7_Init>:
  /* USER CODE END TIM7_Init 0 */

  /* USER CODE BEGIN TIM7_Init 1 */

  /* USER CODE END TIM7_Init 1 */
  htim7.Instance = TIM7;
 8020f20:	4809      	ldr	r0, [pc, #36]	; (8020f48 <MX_TIM7_Init+0x28>)
  htim7.Init.Prescaler = 99;
 8020f22:	4a0a      	ldr	r2, [pc, #40]	; (8020f4c <MX_TIM7_Init+0x2c>)
{
 8020f24:	b508      	push	{r3, lr}
  htim7.Init.Prescaler = 99;
 8020f26:	2363      	movs	r3, #99	; 0x63
 8020f28:	e9c0 2300 	strd	r2, r3, [r0]
  htim7.Init.CounterMode = TIM_COUNTERMODE_UP;
  htim7.Init.Period = 65535;
 8020f2c:	2300      	movs	r3, #0
 8020f2e:	f64f 72ff 	movw	r2, #65535	; 0xffff
 8020f32:	e9c0 3202 	strd	r3, r2, [r0, #8]
  htim7.Init.AutoReloadPreload = TIM_AUTORELOAD_PRELOAD_DISABLE;
 8020f36:	6183      	str	r3, [r0, #24]
  if (HAL_TIM_Base_Init(&htim7) != HAL_OK)
 8020f38:	f002 fb82 	bl	8023640 <HAL_TIM_Base_Init>
 8020f3c:	b118      	cbz	r0, 8020f46 <MX_TIM7_Init+0x26>
  }
  /* USER CODE BEGIN TIM7_Init 2 */

  /* USER CODE END TIM7_Init 2 */

}
 8020f3e:	e8bd 4008 	ldmia.w	sp!, {r3, lr}
    Error_Handler();
 8020f42:	f7ff bea0 	b.w	8020c86 <Error_Handler>
}
 8020f46:	bd08      	pop	{r3, pc}
 8020f48:	20007708 	.word	0x20007708
 8020f4c:	40001400 	.word	0x40001400

08020f50 <MX_TIM10_Init>:
  /* USER CODE END TIM10_Init 0 */

  /* USER CODE BEGIN TIM10_Init 1 */

  /* USER CODE END TIM10_Init 1 */
  htim10.Instance = TIM10;
 8020f50:	480a      	ldr	r0, [pc, #40]	; (8020f7c <MX_TIM10_Init+0x2c>)
  htim10.Init.Prescaler = 9999;
 8020f52:	4a0b      	ldr	r2, [pc, #44]	; (8020f80 <MX_TIM10_Init+0x30>)
{
 8020f54:	b508      	push	{r3, lr}
  htim10.Init.Prescaler = 9999;
 8020f56:	f242 730f 	movw	r3, #9999	; 0x270f
 8020f5a:	e9c0 2300 	strd	r2, r3, [r0]
  htim10.Init.CounterMode = TIM_COUNTERMODE_UP;
  htim10.Init.Period = 10000;
 8020f5e:	2300      	movs	r3, #0
 8020f60:	f242 7210 	movw	r2, #10000	; 0x2710
 8020f64:	e9c0 3202 	strd	r3, r2, [r0, #8]
  htim10.Init.ClockDivision = TIM_CLOCKDIVISION_DIV1;
 8020f68:	6103      	str	r3, [r0, #16]
  htim10.Init.AutoReloadPreload = TIM_AUTORELOAD_PRELOAD_DISABLE;
 8020f6a:	6183      	str	r3, [r0, #24]
  if (HAL_TIM_Base_Init(&htim10) != HAL_OK)
 8020f6c:	f002 fb68 	bl	8023640 <HAL_TIM_Base_Init>
 8020f70:	b118      	cbz	r0, 8020f7a <MX_TIM10_Init+0x2a>
  }
  /* USER CODE BEGIN TIM10_Init 2 */

  /* USER CODE END TIM10_Init 2 */

}
 8020f72:	e8bd 4008 	ldmia.w	sp!, {r3, lr}
    Error_Handler();
 8020f76:	f7ff be86 	b.w	8020c86 <Error_Handler>
}
 8020f7a:	bd08      	pop	{r3, pc}
 8020f7c:	20007678 	.word	0x20007678
 8020f80:	40014400 	.word	0x40014400

08020f84 <HAL_TIM_Base_MspInit>:

void HAL_TIM_Base_MspInit(TIM_HandleTypeDef* tim_baseHandle)
{
 8020f84:	b51f      	push	{r0, r1, r2, r3, r4, lr}

  if(tim_baseHandle->Instance==TIM6)
 8020f86:	6803      	ldr	r3, [r0, #0]
 8020f88:	4a1f      	ldr	r2, [pc, #124]	; (8021008 <HAL_TIM_Base_MspInit+0x84>)
 8020f8a:	4293      	cmp	r3, r2
 8020f8c:	d115      	bne.n	8020fba <HAL_TIM_Base_MspInit+0x36>
  {
  /* USER CODE BEGIN TIM6_MspInit 0 */

  /* USER CODE END TIM6_MspInit 0 */
    /* TIM6 clock enable */
    __HAL_RCC_TIM6_CLK_ENABLE();
 8020f8e:	4b1f      	ldr	r3, [pc, #124]	; (802100c <HAL_TIM_Base_MspInit+0x88>)
 8020f90:	2200      	movs	r2, #0
 8020f92:	9201      	str	r2, [sp, #4]
 8020f94:	6c19      	ldr	r1, [r3, #64]	; 0x40
 8020f96:	f041 0110 	orr.w	r1, r1, #16
 8020f9a:	6419      	str	r1, [r3, #64]	; 0x40
 8020f9c:	6c1b      	ldr	r3, [r3, #64]	; 0x40
 8020f9e:	f003 0310 	and.w	r3, r3, #16
 8020fa2:	9301      	str	r3, [sp, #4]

    /* TIM6 interrupt Init */
    HAL_NVIC_SetPriority(TIM6_IRQn, 5, 0);
 8020fa4:	2036      	movs	r0, #54	; 0x36
 8020fa6:	2105      	movs	r1, #5
    __HAL_RCC_TIM6_CLK_ENABLE();
 8020fa8:	9b01      	ldr	r3, [sp, #4]
    HAL_NVIC_SetPriority(TIM6_IRQn, 5, 0);
 8020faa:	f000 fabd 	bl	8021528 <HAL_NVIC_SetPriority>
    HAL_NVIC_EnableIRQ(TIM6_IRQn);
 8020fae:	2036      	movs	r0, #54	; 0x36
    HAL_NVIC_EnableIRQ(TIM1_UP_TIM10_IRQn);
  /* USER CODE BEGIN TIM10_MspInit 1 */

  /* USER CODE END TIM10_MspInit 1 */
  }
}
 8020fb0:	b005      	add	sp, #20
 8020fb2:	f85d eb04 	ldr.w	lr, [sp], #4
    HAL_NVIC_EnableIRQ(TIM1_UP_TIM10_IRQn);
 8020fb6:	f000 bafb 	b.w	80215b0 <HAL_NVIC_EnableIRQ>
  else if(tim_baseHandle->Instance==TIM7)
 8020fba:	4a15      	ldr	r2, [pc, #84]	; (8021010 <HAL_TIM_Base_MspInit+0x8c>)
 8020fbc:	4293      	cmp	r3, r2
 8020fbe:	d10e      	bne.n	8020fde <HAL_TIM_Base_MspInit+0x5a>
    __HAL_RCC_TIM7_CLK_ENABLE();
 8020fc0:	2300      	movs	r3, #0
 8020fc2:	9302      	str	r3, [sp, #8]
 8020fc4:	4b11      	ldr	r3, [pc, #68]	; (802100c <HAL_TIM_Base_MspInit+0x88>)
 8020fc6:	6c1a      	ldr	r2, [r3, #64]	; 0x40
 8020fc8:	f042 0220 	orr.w	r2, r2, #32
 8020fcc:	641a      	str	r2, [r3, #64]	; 0x40
 8020fce:	6c1b      	ldr	r3, [r3, #64]	; 0x40
 8020fd0:	f003 0320 	and.w	r3, r3, #32
 8020fd4:	9302      	str	r3, [sp, #8]
 8020fd6:	9b02      	ldr	r3, [sp, #8]
}
 8020fd8:	b005      	add	sp, #20
 8020fda:	f85d fb04 	ldr.w	pc, [sp], #4
  else if(tim_baseHandle->Instance==TIM10)
 8020fde:	4a0d      	ldr	r2, [pc, #52]	; (8021014 <HAL_TIM_Base_MspInit+0x90>)
 8020fe0:	4293      	cmp	r3, r2
 8020fe2:	d1f9      	bne.n	8020fd8 <HAL_TIM_Base_MspInit+0x54>
    __HAL_RCC_TIM10_CLK_ENABLE();
 8020fe4:	4b09      	ldr	r3, [pc, #36]	; (802100c <HAL_TIM_Base_MspInit+0x88>)
 8020fe6:	2200      	movs	r2, #0
 8020fe8:	9203      	str	r2, [sp, #12]
 8020fea:	6c59      	ldr	r1, [r3, #68]	; 0x44
 8020fec:	f441 3100 	orr.w	r1, r1, #131072	; 0x20000
 8020ff0:	6459      	str	r1, [r3, #68]	; 0x44
 8020ff2:	6c5b      	ldr	r3, [r3, #68]	; 0x44
 8020ff4:	f403 3300 	and.w	r3, r3, #131072	; 0x20000
 8020ff8:	9303      	str	r3, [sp, #12]
    HAL_NVIC_SetPriority(TIM1_UP_TIM10_IRQn, 5, 0);
 8020ffa:	2019      	movs	r0, #25
 8020ffc:	2105      	movs	r1, #5
    __HAL_RCC_TIM10_CLK_ENABLE();
 8020ffe:	9b03      	ldr	r3, [sp, #12]
    HAL_NVIC_SetPriority(TIM1_UP_TIM10_IRQn, 5, 0);
 8021000:	f000 fa92 	bl	8021528 <HAL_NVIC_SetPriority>
    HAL_NVIC_EnableIRQ(TIM1_UP_TIM10_IRQn);
 8021004:	2019      	movs	r0, #25
 8021006:	e7d3      	b.n	8020fb0 <HAL_TIM_Base_MspInit+0x2c>
 8021008:	40001000 	.word	0x40001000
 802100c:	40023800 	.word	0x40023800
 8021010:	40001400 	.word	0x40001400
 8021014:	40014400 	.word	0x40014400

08021018 <MX_USART1_UART_Init>:
  /* USER CODE END USART1_Init 0 */

  /* USER CODE BEGIN USART1_Init 1 */

  /* USER CODE END USART1_Init 1 */
  huart1.Instance = USART1;
 8021018:	480b      	ldr	r0, [pc, #44]	; (8021048 <MX_USART1_UART_Init+0x30>)
  huart1.Init.BaudRate = 115200;
 802101a:	4a0c      	ldr	r2, [pc, #48]	; (802104c <MX_USART1_UART_Init+0x34>)
{
 802101c:	b508      	push	{r3, lr}
  huart1.Init.BaudRate = 115200;
 802101e:	f44f 33e1 	mov.w	r3, #115200	; 0x1c200
 8021022:	e9c0 2300 	strd	r2, r3, [r0]
  huart1.Init.WordLength = UART_WORDLENGTH_8B;
 8021026:	2300      	movs	r3, #0
  huart1.Init.StopBits = UART_STOPBITS_1;
  huart1.Init.Parity = UART_PARITY_NONE;
  huart1.Init.Mode = UART_MODE_TX_RX;
 8021028:	220c      	movs	r2, #12
  huart1.Init.StopBits = UART_STOPBITS_1;
 802102a:	e9c0 3302 	strd	r3, r3, [r0, #8]
  huart1.Init.HwFlowCtl = UART_HWCONTROL_NONE;
 802102e:	e9c0 2305 	strd	r2, r3, [r0, #20]
  huart1.Init.Parity = UART_PARITY_NONE;
 8021032:	6103      	str	r3, [r0, #16]
  huart1.Init.OverSampling = UART_OVERSAMPLING_16;
 8021034:	61c3      	str	r3, [r0, #28]
  if (HAL_UART_Init(&huart1) != HAL_OK)
 8021036:	f002 fcff 	bl	8023a38 <HAL_UART_Init>
 802103a:	b118      	cbz	r0, 8021044 <MX_USART1_UART_Init+0x2c>
  }
  /* USER CODE BEGIN USART1_Init 2 */

  /* USER CODE END USART1_Init 2 */

}
 802103c:	e8bd 4008 	ldmia.w	sp!, {r3, lr}
    Error_Handler();
 8021040:	f7ff be21 	b.w	8020c86 <Error_Handler>
}
 8021044:	bd08      	pop	{r3, pc}
 8021046:	bf00      	nop
 8021048:	200079d4 	.word	0x200079d4
 802104c:	40011000 	.word	0x40011000

08021050 <MX_USART3_UART_Init>:
  /* USER CODE END USART3_Init 0 */

  /* USER CODE BEGIN USART3_Init 1 */

  /* USER CODE END USART3_Init 1 */
  huart3.Instance = USART3;
 8021050:	480b      	ldr	r0, [pc, #44]	; (8021080 <MX_USART3_UART_Init+0x30>)
  huart3.Init.BaudRate = 115200;
 8021052:	4a0c      	ldr	r2, [pc, #48]	; (8021084 <MX_USART3_UART_Init+0x34>)
{
 8021054:	b508      	push	{r3, lr}
  huart3.Init.BaudRate = 115200;
 8021056:	f44f 33e1 	mov.w	r3, #115200	; 0x1c200
 802105a:	e9c0 2300 	strd	r2, r3, [r0]
  huart3.Init.WordLength = UART_WORDLENGTH_8B;
 802105e:	2300      	movs	r3, #0
  huart3.Init.StopBits = UART_STOPBITS_1;
  huart3.Init.Parity = UART_PARITY_NONE;
  huart3.Init.Mode = UART_MODE_TX_RX;
 8021060:	220c      	movs	r2, #12
  huart3.Init.StopBits = UART_STOPBITS_1;
 8021062:	e9c0 3302 	strd	r3, r3, [r0, #8]
  huart3.Init.HwFlowCtl = UART_HWCONTROL_NONE;
 8021066:	e9c0 2305 	strd	r2, r3, [r0, #20]
  huart3.Init.Parity = UART_PARITY_NONE;
 802106a:	6103      	str	r3, [r0, #16]
  huart3.Init.OverSampling = UART_OVERSAMPLING_16;
 802106c:	61c3      	str	r3, [r0, #28]
  if (HAL_UART_Init(&huart3) != HAL_OK)
 802106e:	f002 fce3 	bl	8023a38 <HAL_UART_Init>
 8021072:	b118      	cbz	r0, 802107c <MX_USART3_UART_Init+0x2c>
  }
  /* USER CODE BEGIN USART3_Init 2 */

  /* USER CODE END USART3_Init 2 */

}
 8021074:	e8bd 4008 	ldmia.w	sp!, {r3, lr}
    Error_Handler();
 8021078:	f7ff be05 	b.w	8020c86 <Error_Handler>
}
 802107c:	bd08      	pop	{r3, pc}
 802107e:	bf00      	nop
 8021080:	20007810 	.word	0x20007810
 8021084:	40004800 	.word	0x40004800

08021088 <MX_USART6_UART_Init>:
  /* USER CODE END USART6_Init 0 */

  /* USER CODE BEGIN USART6_Init 1 */

  /* USER CODE END USART6_Init 1 */
  huart6.Instance = USART6;
 8021088:	480b      	ldr	r0, [pc, #44]	; (80210b8 <MX_USART6_UART_Init+0x30>)
  huart6.Init.BaudRate = 9600;
 802108a:	4a0c      	ldr	r2, [pc, #48]	; (80210bc <MX_USART6_UART_Init+0x34>)
{
 802108c:	b508      	push	{r3, lr}
  huart6.Init.BaudRate = 9600;
 802108e:	f44f 5316 	mov.w	r3, #9600	; 0x2580
 8021092:	e9c0 2300 	strd	r2, r3, [r0]
  huart6.Init.WordLength = UART_WORDLENGTH_8B;
 8021096:	2300      	movs	r3, #0
  huart6.Init.StopBits = UART_STOPBITS_1;
  huart6.Init.Parity = UART_PARITY_NONE;
  huart6.Init.Mode = UART_MODE_TX_RX;
 8021098:	220c      	movs	r2, #12
  huart6.Init.StopBits = UART_STOPBITS_1;
 802109a:	e9c0 3302 	strd	r3, r3, [r0, #8]
  huart6.Init.HwFlowCtl = UART_HWCONTROL_NONE;
 802109e:	e9c0 2305 	strd	r2, r3, [r0, #20]
  huart6.Init.Parity = UART_PARITY_NONE;
 80210a2:	6103      	str	r3, [r0, #16]
  huart6.Init.OverSampling = UART_OVERSAMPLING_16;
 80210a4:	61c3      	str	r3, [r0, #28]
  if (HAL_UART_Init(&huart6) != HAL_OK)
 80210a6:	f002 fcc7 	bl	8023a38 <HAL_UART_Init>
 80210aa:	b118      	cbz	r0, 80210b4 <MX_USART6_UART_Init+0x2c>
  }
  /* USER CODE BEGIN USART6_Init 2 */

  /* USER CODE END USART6_Init 2 */

}
 80210ac:	e8bd 4008 	ldmia.w	sp!, {r3, lr}
    Error_Handler();
 80210b0:	f7ff bde9 	b.w	8020c86 <Error_Handler>
}
 80210b4:	bd08      	pop	{r3, pc}
 80210b6:	bf00      	nop
 80210b8:	20007a18 	.word	0x20007a18
 80210bc:	40011400 	.word	0x40011400

080210c0 <HAL_UART_MspInit>:

void HAL_UART_MspInit(UART_HandleTypeDef* uartHandle)
{
 80210c0:	e92d 43f0 	stmdb	sp!, {r4, r5, r6, r7, r8, r9, lr}
 80210c4:	4605      	mov	r5, r0
 80210c6:	b08d      	sub	sp, #52	; 0x34

  GPIO_InitTypeDef GPIO_InitStruct = {0};
 80210c8:	2214      	movs	r2, #20
 80210ca:	2100      	movs	r1, #0
 80210cc:	a807      	add	r0, sp, #28
 80210ce:	f007 fca9 	bl	8028a24 <memset>
  if(uartHandle->Instance==USART1)
 80210d2:	682b      	ldr	r3, [r5, #0]
 80210d4:	4aa9      	ldr	r2, [pc, #676]	; (802137c <HAL_UART_MspInit+0x2bc>)
 80210d6:	4293      	cmp	r3, r2
 80210d8:	d16f      	bne.n	80211ba <HAL_UART_MspInit+0xfa>
  {
  /* USER CODE BEGIN USART1_MspInit 0 */

  /* USER CODE END USART1_MspInit 0 */
    /* USART1 clock enable */
    __HAL_RCC_USART1_CLK_ENABLE();
 80210da:	2600      	movs	r6, #0
 80210dc:	4ba8      	ldr	r3, [pc, #672]	; (8021380 <HAL_UART_MspInit+0x2c0>)
 80210de:	9600      	str	r6, [sp, #0]
 80210e0:	6c5a      	ldr	r2, [r3, #68]	; 0x44
    GPIO_InitStruct.Pin = GPIO_PIN_9;
    GPIO_InitStruct.Mode = GPIO_MODE_AF_PP;
    GPIO_InitStruct.Pull = GPIO_NOPULL;
    GPIO_InitStruct.Speed = GPIO_SPEED_FREQ_VERY_HIGH;
    GPIO_InitStruct.Alternate = GPIO_AF7_USART1;
    HAL_GPIO_Init(GPIOA, &GPIO_InitStruct);
 80210e2:	48a8      	ldr	r0, [pc, #672]	; (8021384 <HAL_UART_MspInit+0x2c4>)
    __HAL_RCC_USART1_CLK_ENABLE();
 80210e4:	f042 0210 	orr.w	r2, r2, #16
 80210e8:	645a      	str	r2, [r3, #68]	; 0x44
 80210ea:	6c5a      	ldr	r2, [r3, #68]	; 0x44
 80210ec:	f002 0210 	and.w	r2, r2, #16
 80210f0:	9200      	str	r2, [sp, #0]
 80210f2:	9a00      	ldr	r2, [sp, #0]
    __HAL_RCC_GPIOA_CLK_ENABLE();
 80210f4:	9601      	str	r6, [sp, #4]
 80210f6:	6b1a      	ldr	r2, [r3, #48]	; 0x30
 80210f8:	f042 0201 	orr.w	r2, r2, #1
 80210fc:	631a      	str	r2, [r3, #48]	; 0x30
 80210fe:	6b1b      	ldr	r3, [r3, #48]	; 0x30
    GPIO_InitStruct.Pull = GPIO_NOPULL;
 8021100:	9609      	str	r6, [sp, #36]	; 0x24
    __HAL_RCC_GPIOA_CLK_ENABLE();
 8021102:	f003 0301 	and.w	r3, r3, #1
 8021106:	9301      	str	r3, [sp, #4]
    GPIO_InitStruct.Mode = GPIO_MODE_AF_PP;
 8021108:	f04f 0902 	mov.w	r9, #2
    GPIO_InitStruct.Alternate = GPIO_AF7_USART1;
 802110c:	2407      	movs	r4, #7
    __HAL_RCC_GPIOA_CLK_ENABLE();
 802110e:	9b01      	ldr	r3, [sp, #4]
    GPIO_InitStruct.Alternate = GPIO_AF7_USART1;
 8021110:	f04f 0803 	mov.w	r8, #3
    GPIO_InitStruct.Mode = GPIO_MODE_AF_PP;
 8021114:	f44f 7300 	mov.w	r3, #512	; 0x200
    HAL_GPIO_Init(GPIOA, &GPIO_InitStruct);
 8021118:	a907      	add	r1, sp, #28
    GPIO_InitStruct.Mode = GPIO_MODE_AF_PP;
 802111a:	e9cd 3907 	strd	r3, r9, [sp, #28]
    GPIO_InitStruct.Alternate = GPIO_AF7_USART1;
 802111e:	e9cd 840a 	strd	r8, r4, [sp, #40]	; 0x28

    GPIO_InitStruct.Pin = GPIO_PIN_10;
 8021122:	f44f 6780 	mov.w	r7, #1024	; 0x400
    HAL_GPIO_Init(GPIOA, &GPIO_InitStruct);
 8021126:	f000 ff61 	bl	8021fec <HAL_GPIO_Init>
    GPIO_InitStruct.Mode = GPIO_MODE_AF_PP;
    GPIO_InitStruct.Pull = GPIO_PULLUP;
    GPIO_InitStruct.Speed = GPIO_SPEED_FREQ_VERY_HIGH;
    GPIO_InitStruct.Alternate = GPIO_AF7_USART1;
 802112a:	940b      	str	r4, [sp, #44]	; 0x2c
    HAL_GPIO_Init(GPIOA, &GPIO_InitStruct);

    /* USART1 DMA Init */
    /* USART1_RX Init */
    hdma_usart1_rx.Instance = DMA2_Stream2;
 802112c:	4c96      	ldr	r4, [pc, #600]	; (8021388 <HAL_UART_MspInit+0x2c8>)
    HAL_GPIO_Init(GPIOA, &GPIO_InitStruct);
 802112e:	4895      	ldr	r0, [pc, #596]	; (8021384 <HAL_UART_MspInit+0x2c4>)
    GPIO_InitStruct.Pull = GPIO_PULLUP;
 8021130:	2301      	movs	r3, #1
    GPIO_InitStruct.Mode = GPIO_MODE_AF_PP;
 8021132:	e9cd 7907 	strd	r7, r9, [sp, #28]
    HAL_GPIO_Init(GPIOA, &GPIO_InitStruct);
 8021136:	a907      	add	r1, sp, #28
    hdma_usart1_rx.Init.Channel = DMA_CHANNEL_4;
 8021138:	f8df 9280 	ldr.w	r9, [pc, #640]	; 80213bc <HAL_UART_MspInit+0x2fc>
    GPIO_InitStruct.Speed = GPIO_SPEED_FREQ_VERY_HIGH;
 802113c:	e9cd 3809 	strd	r3, r8, [sp, #36]	; 0x24
    HAL_GPIO_Init(GPIOA, &GPIO_InitStruct);
 8021140:	f000 ff54 	bl	8021fec <HAL_GPIO_Init>
    hdma_usart1_rx.Init.Channel = DMA_CHANNEL_4;
 8021144:	f04f 6300 	mov.w	r3, #134217728	; 0x8000000
    hdma_usart1_rx.Init.PeriphDataAlignment = DMA_PDATAALIGN_BYTE;
    hdma_usart1_rx.Init.MemDataAlignment = DMA_MDATAALIGN_BYTE;
    hdma_usart1_rx.Init.Mode = DMA_NORMAL;
    hdma_usart1_rx.Init.Priority = DMA_PRIORITY_LOW;
    hdma_usart1_rx.Init.FIFOMode = DMA_FIFOMODE_DISABLE;
    if (HAL_DMA_Init(&hdma_usart1_rx) != HAL_OK)
 8021148:	4620      	mov	r0, r4
    hdma_usart1_rx.Init.Channel = DMA_CHANNEL_4;
 802114a:	e9c4 9300 	strd	r9, r3, [r4]
    hdma_usart1_rx.Init.PeriphInc = DMA_PINC_DISABLE;
 802114e:	e9c4 6602 	strd	r6, r6, [r4, #8]
    hdma_usart1_rx.Init.PeriphDataAlignment = DMA_PDATAALIGN_BYTE;
 8021152:	e9c4 7604 	strd	r7, r6, [r4, #16]
    hdma_usart1_rx.Init.Mode = DMA_NORMAL;
 8021156:	e9c4 6606 	strd	r6, r6, [r4, #24]
    hdma_usart1_rx.Init.FIFOMode = DMA_FIFOMODE_DISABLE;
 802115a:	e9c4 6608 	strd	r6, r6, [r4, #32]
    if (HAL_DMA_Init(&hdma_usart1_rx) != HAL_OK)
 802115e:	f000 fa51 	bl	8021604 <HAL_DMA_Init>
 8021162:	b108      	cbz	r0, 8021168 <HAL_UART_MspInit+0xa8>
    {
      Error_Handler();
 8021164:	f7ff fd8f 	bl	8020c86 <Error_Handler>
    }

    __HAL_LINKDMA(uartHandle,hdmarx,hdma_usart1_rx);
 8021168:	63ac      	str	r4, [r5, #56]	; 0x38

    /* USART1_TX Init */
    hdma_usart1_tx.Instance = DMA2_Stream7;
    hdma_usart1_tx.Init.Channel = DMA_CHANNEL_4;
 802116a:	f8df e254 	ldr.w	lr, [pc, #596]	; 80213c0 <HAL_UART_MspInit+0x300>
    __HAL_LINKDMA(uartHandle,hdmarx,hdma_usart1_rx);
 802116e:	63a5      	str	r5, [r4, #56]	; 0x38
    hdma_usart1_tx.Instance = DMA2_Stream7;
 8021170:	4c86      	ldr	r4, [pc, #536]	; (802138c <HAL_UART_MspInit+0x2cc>)
    hdma_usart1_tx.Init.Channel = DMA_CHANNEL_4;
 8021172:	f04f 6300 	mov.w	r3, #134217728	; 0x8000000
 8021176:	e9c4 e300 	strd	lr, r3, [r4]
    hdma_usart1_tx.Init.Direction = DMA_MEMORY_TO_PERIPH;
    hdma_usart1_tx.Init.PeriphInc = DMA_PINC_DISABLE;
 802117a:	f04f 0840 	mov.w	r8, #64	; 0x40
 802117e:	2300      	movs	r3, #0
    hdma_usart1_tx.Init.MemInc = DMA_MINC_ENABLE;
 8021180:	f44f 6280 	mov.w	r2, #1024	; 0x400
    hdma_usart1_tx.Init.PeriphDataAlignment = DMA_PDATAALIGN_BYTE;
    hdma_usart1_tx.Init.MemDataAlignment = DMA_MDATAALIGN_BYTE;
    hdma_usart1_tx.Init.Mode = DMA_NORMAL;
    hdma_usart1_tx.Init.Priority = DMA_PRIORITY_LOW;
    hdma_usart1_tx.Init.FIFOMode = DMA_FIFOMODE_DISABLE;
    if (HAL_DMA_Init(&hdma_usart1_tx) != HAL_OK)
 8021184:	4620      	mov	r0, r4
    hdma_usart1_tx.Init.PeriphInc = DMA_PINC_DISABLE;
 8021186:	e9c4 8302 	strd	r8, r3, [r4, #8]
    hdma_usart1_tx.Init.PeriphDataAlignment = DMA_PDATAALIGN_BYTE;
 802118a:	e9c4 2304 	strd	r2, r3, [r4, #16]
    hdma_usart1_tx.Init.Mode = DMA_NORMAL;
 802118e:	e9c4 3306 	strd	r3, r3, [r4, #24]
    hdma_usart1_tx.Init.FIFOMode = DMA_FIFOMODE_DISABLE;
 8021192:	e9c4 3308 	strd	r3, r3, [r4, #32]
    if (HAL_DMA_Init(&hdma_usart1_tx) != HAL_OK)
 8021196:	f000 fa35 	bl	8021604 <HAL_DMA_Init>
 802119a:	b108      	cbz	r0, 80211a0 <HAL_UART_MspInit+0xe0>
    {
      Error_Handler();
 802119c:	f7ff fd73 	bl	8020c86 <Error_Handler>
    }

    __HAL_LINKDMA(uartHandle,hdmatx,hdma_usart1_tx);
 80211a0:	636c      	str	r4, [r5, #52]	; 0x34

    /* USART1 interrupt Init */
    HAL_NVIC_SetPriority(USART1_IRQn, 5, 0);
 80211a2:	2025      	movs	r0, #37	; 0x25
 80211a4:	2200      	movs	r2, #0
 80211a6:	2105      	movs	r1, #5
    __HAL_LINKDMA(uartHandle,hdmatx,hdma_usart1_tx);
 80211a8:	63a5      	str	r5, [r4, #56]	; 0x38
    HAL_NVIC_SetPriority(USART1_IRQn, 5, 0);
 80211aa:	f000 f9bd 	bl	8021528 <HAL_NVIC_SetPriority>
    HAL_NVIC_EnableIRQ(USART1_IRQn);
 80211ae:	2025      	movs	r0, #37	; 0x25

    __HAL_LINKDMA(uartHandle,hdmatx,hdma_usart6_tx);

    /* USART6 interrupt Init */
    HAL_NVIC_SetPriority(USART6_IRQn, 5, 0);
    HAL_NVIC_EnableIRQ(USART6_IRQn);
 80211b0:	f000 f9fe 	bl	80215b0 <HAL_NVIC_EnableIRQ>
  /* USER CODE BEGIN USART6_MspInit 1 */

  /* USER CODE END USART6_MspInit 1 */
  }
}
 80211b4:	b00d      	add	sp, #52	; 0x34
 80211b6:	e8bd 83f0 	ldmia.w	sp!, {r4, r5, r6, r7, r8, r9, pc}
  else if(uartHandle->Instance==USART3)
 80211ba:	4a75      	ldr	r2, [pc, #468]	; (8021390 <HAL_UART_MspInit+0x2d0>)
 80211bc:	4293      	cmp	r3, r2
 80211be:	d172      	bne.n	80212a6 <HAL_UART_MspInit+0x1e6>
    __HAL_RCC_USART3_CLK_ENABLE();
 80211c0:	4b6f      	ldr	r3, [pc, #444]	; (8021380 <HAL_UART_MspInit+0x2c0>)
    HAL_GPIO_Init(GPIOC, &GPIO_InitStruct);
 80211c2:	4874      	ldr	r0, [pc, #464]	; (8021394 <HAL_UART_MspInit+0x2d4>)
    __HAL_RCC_USART3_CLK_ENABLE();
 80211c4:	2600      	movs	r6, #0
 80211c6:	9602      	str	r6, [sp, #8]
 80211c8:	6c1a      	ldr	r2, [r3, #64]	; 0x40
 80211ca:	f442 2280 	orr.w	r2, r2, #262144	; 0x40000
 80211ce:	641a      	str	r2, [r3, #64]	; 0x40
 80211d0:	6c1a      	ldr	r2, [r3, #64]	; 0x40
 80211d2:	f402 2280 	and.w	r2, r2, #262144	; 0x40000
 80211d6:	9202      	str	r2, [sp, #8]
 80211d8:	9a02      	ldr	r2, [sp, #8]
    __HAL_RCC_GPIOC_CLK_ENABLE();
 80211da:	9603      	str	r6, [sp, #12]
 80211dc:	6b1a      	ldr	r2, [r3, #48]	; 0x30
 80211de:	f042 0204 	orr.w	r2, r2, #4
 80211e2:	631a      	str	r2, [r3, #48]	; 0x30
 80211e4:	6b1a      	ldr	r2, [r3, #48]	; 0x30
 80211e6:	f002 0204 	and.w	r2, r2, #4
 80211ea:	9203      	str	r2, [sp, #12]
 80211ec:	9a03      	ldr	r2, [sp, #12]
    __HAL_RCC_GPIOB_CLK_ENABLE();
 80211ee:	9604      	str	r6, [sp, #16]
 80211f0:	6b1a      	ldr	r2, [r3, #48]	; 0x30
 80211f2:	f042 0202 	orr.w	r2, r2, #2
 80211f6:	631a      	str	r2, [r3, #48]	; 0x30
 80211f8:	6b1b      	ldr	r3, [r3, #48]	; 0x30
 80211fa:	f003 0302 	and.w	r3, r3, #2
 80211fe:	9304      	str	r3, [sp, #16]
 8021200:	9b04      	ldr	r3, [sp, #16]
    GPIO_InitStruct.Mode = GPIO_MODE_AF_PP;
 8021202:	f04f 0902 	mov.w	r9, #2
 8021206:	2320      	movs	r3, #32
    GPIO_InitStruct.Alternate = GPIO_AF7_USART3;
 8021208:	2407      	movs	r4, #7
    GPIO_InitStruct.Mode = GPIO_MODE_AF_PP;
 802120a:	e9cd 3907 	strd	r3, r9, [sp, #28]
    GPIO_InitStruct.Speed = GPIO_SPEED_FREQ_VERY_HIGH;
 802120e:	f04f 0803 	mov.w	r8, #3
 8021212:	2301      	movs	r3, #1
    HAL_GPIO_Init(GPIOC, &GPIO_InitStruct);
 8021214:	a907      	add	r1, sp, #28
    GPIO_InitStruct.Speed = GPIO_SPEED_FREQ_VERY_HIGH;
 8021216:	e9cd 3809 	strd	r3, r8, [sp, #36]	; 0x24
    GPIO_InitStruct.Alternate = GPIO_AF7_USART3;
 802121a:	940b      	str	r4, [sp, #44]	; 0x2c
    GPIO_InitStruct.Pin = GPIO_PIN_10;
 802121c:	f44f 6780 	mov.w	r7, #1024	; 0x400
    HAL_GPIO_Init(GPIOC, &GPIO_InitStruct);
 8021220:	f000 fee4 	bl	8021fec <HAL_GPIO_Init>
    HAL_GPIO_Init(GPIOB, &GPIO_InitStruct);
 8021224:	485c      	ldr	r0, [pc, #368]	; (8021398 <HAL_UART_MspInit+0x2d8>)
    GPIO_InitStruct.Alternate = GPIO_AF7_USART3;
 8021226:	940b      	str	r4, [sp, #44]	; 0x2c
    HAL_GPIO_Init(GPIOB, &GPIO_InitStruct);
 8021228:	a907      	add	r1, sp, #28
    hdma_usart3_rx.Instance = DMA1_Stream1;
 802122a:	4c5c      	ldr	r4, [pc, #368]	; (802139c <HAL_UART_MspInit+0x2dc>)
    GPIO_InitStruct.Mode = GPIO_MODE_AF_PP;
 802122c:	e9cd 7907 	strd	r7, r9, [sp, #28]
    GPIO_InitStruct.Speed = GPIO_SPEED_FREQ_VERY_HIGH;
 8021230:	e9cd 6809 	strd	r6, r8, [sp, #36]	; 0x24
    HAL_GPIO_Init(GPIOB, &GPIO_InitStruct);
 8021234:	f000 feda 	bl	8021fec <HAL_GPIO_Init>
    hdma_usart3_rx.Init.Channel = DMA_CHANNEL_4;
 8021238:	f8df c188 	ldr.w	ip, [pc, #392]	; 80213c4 <HAL_UART_MspInit+0x304>
 802123c:	f04f 6300 	mov.w	r3, #134217728	; 0x8000000
    if (HAL_DMA_Init(&hdma_usart3_rx) != HAL_OK)
 8021240:	4620      	mov	r0, r4
    hdma_usart3_rx.Init.Channel = DMA_CHANNEL_4;
 8021242:	e9c4 c300 	strd	ip, r3, [r4]
    hdma_usart3_rx.Init.PeriphInc = DMA_PINC_DISABLE;
 8021246:	e9c4 6602 	strd	r6, r6, [r4, #8]
    hdma_usart3_rx.Init.PeriphDataAlignment = DMA_PDATAALIGN_BYTE;
 802124a:	e9c4 7604 	strd	r7, r6, [r4, #16]
    hdma_usart3_rx.Init.Mode = DMA_NORMAL;
 802124e:	e9c4 6606 	strd	r6, r6, [r4, #24]
    hdma_usart3_rx.Init.FIFOMode = DMA_FIFOMODE_DISABLE;
 8021252:	e9c4 6608 	strd	r6, r6, [r4, #32]
    if (HAL_DMA_Init(&hdma_usart3_rx) != HAL_OK)
 8021256:	f000 f9d5 	bl	8021604 <HAL_DMA_Init>
 802125a:	b108      	cbz	r0, 8021260 <HAL_UART_MspInit+0x1a0>
      Error_Handler();
 802125c:	f7ff fd13 	bl	8020c86 <Error_Handler>
    __HAL_LINKDMA(uartHandle,hdmarx,hdma_usart3_rx);
 8021260:	63ac      	str	r4, [r5, #56]	; 0x38
    hdma_usart3_tx.Init.Channel = DMA_CHANNEL_4;
 8021262:	4e4f      	ldr	r6, [pc, #316]	; (80213a0 <HAL_UART_MspInit+0x2e0>)
    __HAL_LINKDMA(uartHandle,hdmarx,hdma_usart3_rx);
 8021264:	63a5      	str	r5, [r4, #56]	; 0x38
    hdma_usart3_tx.Instance = DMA1_Stream3;
 8021266:	4c4f      	ldr	r4, [pc, #316]	; (80213a4 <HAL_UART_MspInit+0x2e4>)
    hdma_usart3_tx.Init.Channel = DMA_CHANNEL_4;
 8021268:	f04f 6300 	mov.w	r3, #134217728	; 0x8000000
 802126c:	e9c4 6300 	strd	r6, r3, [r4]
    hdma_usart3_tx.Init.PeriphInc = DMA_PINC_DISABLE;
 8021270:	2740      	movs	r7, #64	; 0x40
 8021272:	2300      	movs	r3, #0
    hdma_usart3_tx.Init.MemInc = DMA_MINC_ENABLE;
 8021274:	f44f 6280 	mov.w	r2, #1024	; 0x400
    if (HAL_DMA_Init(&hdma_usart3_tx) != HAL_OK)
 8021278:	4620      	mov	r0, r4
    hdma_usart3_tx.Init.PeriphInc = DMA_PINC_DISABLE;
 802127a:	e9c4 7302 	strd	r7, r3, [r4, #8]
    hdma_usart3_tx.Init.PeriphDataAlignment = DMA_PDATAALIGN_BYTE;
 802127e:	e9c4 2304 	strd	r2, r3, [r4, #16]
    hdma_usart3_tx.Init.Mode = DMA_NORMAL;
 8021282:	e9c4 3306 	strd	r3, r3, [r4, #24]
    hdma_usart3_tx.Init.FIFOMode = DMA_FIFOMODE_DISABLE;
 8021286:	e9c4 3308 	strd	r3, r3, [r4, #32]
    if (HAL_DMA_Init(&hdma_usart3_tx) != HAL_OK)
 802128a:	f000 f9bb 	bl	8021604 <HAL_DMA_Init>
 802128e:	b108      	cbz	r0, 8021294 <HAL_UART_MspInit+0x1d4>
      Error_Handler();
 8021290:	f7ff fcf9 	bl	8020c86 <Error_Handler>
    __HAL_LINKDMA(uartHandle,hdmatx,hdma_usart3_tx);
 8021294:	636c      	str	r4, [r5, #52]	; 0x34
    HAL_NVIC_SetPriority(USART3_IRQn, 5, 0);
 8021296:	2027      	movs	r0, #39	; 0x27
 8021298:	2200      	movs	r2, #0
 802129a:	2105      	movs	r1, #5
    __HAL_LINKDMA(uartHandle,hdmatx,hdma_usart3_tx);
 802129c:	63a5      	str	r5, [r4, #56]	; 0x38
    HAL_NVIC_SetPriority(USART3_IRQn, 5, 0);
 802129e:	f000 f943 	bl	8021528 <HAL_NVIC_SetPriority>
    HAL_NVIC_EnableIRQ(USART3_IRQn);
 80212a2:	2027      	movs	r0, #39	; 0x27
 80212a4:	e784      	b.n	80211b0 <HAL_UART_MspInit+0xf0>
  else if(uartHandle->Instance==USART6)
 80212a6:	4a40      	ldr	r2, [pc, #256]	; (80213a8 <HAL_UART_MspInit+0x2e8>)
 80212a8:	4293      	cmp	r3, r2
 80212aa:	d183      	bne.n	80211b4 <HAL_UART_MspInit+0xf4>
    __HAL_RCC_USART6_CLK_ENABLE();
 80212ac:	2600      	movs	r6, #0
 80212ae:	4b34      	ldr	r3, [pc, #208]	; (8021380 <HAL_UART_MspInit+0x2c0>)
 80212b0:	9605      	str	r6, [sp, #20]
 80212b2:	6c5a      	ldr	r2, [r3, #68]	; 0x44
    HAL_GPIO_Init(GPIOC, &GPIO_InitStruct);
 80212b4:	4837      	ldr	r0, [pc, #220]	; (8021394 <HAL_UART_MspInit+0x2d4>)
    __HAL_RCC_USART6_CLK_ENABLE();
 80212b6:	f042 0220 	orr.w	r2, r2, #32
 80212ba:	645a      	str	r2, [r3, #68]	; 0x44
 80212bc:	6c5a      	ldr	r2, [r3, #68]	; 0x44
 80212be:	f002 0220 	and.w	r2, r2, #32
 80212c2:	9205      	str	r2, [sp, #20]
 80212c4:	9a05      	ldr	r2, [sp, #20]
    __HAL_RCC_GPIOC_CLK_ENABLE();
 80212c6:	9606      	str	r6, [sp, #24]
 80212c8:	6b1a      	ldr	r2, [r3, #48]	; 0x30
 80212ca:	f042 0204 	orr.w	r2, r2, #4
 80212ce:	631a      	str	r2, [r3, #48]	; 0x30
 80212d0:	6b1b      	ldr	r3, [r3, #48]	; 0x30
    GPIO_InitStruct.Pull = GPIO_NOPULL;
 80212d2:	9609      	str	r6, [sp, #36]	; 0x24
    __HAL_RCC_GPIOC_CLK_ENABLE();
 80212d4:	f003 0304 	and.w	r3, r3, #4
 80212d8:	9306      	str	r3, [sp, #24]
    GPIO_InitStruct.Alternate = GPIO_AF8_USART6;
 80212da:	2408      	movs	r4, #8
    __HAL_RCC_GPIOC_CLK_ENABLE();
 80212dc:	9b06      	ldr	r3, [sp, #24]
    GPIO_InitStruct.Mode = GPIO_MODE_AF_PP;
 80212de:	f04f 0802 	mov.w	r8, #2
 80212e2:	2340      	movs	r3, #64	; 0x40
    GPIO_InitStruct.Alternate = GPIO_AF8_USART6;
 80212e4:	2703      	movs	r7, #3
    HAL_GPIO_Init(GPIOC, &GPIO_InitStruct);
 80212e6:	a907      	add	r1, sp, #28
    GPIO_InitStruct.Mode = GPIO_MODE_AF_PP;
 80212e8:	e9cd 3807 	strd	r3, r8, [sp, #28]
    GPIO_InitStruct.Alternate = GPIO_AF8_USART6;
 80212ec:	e9cd 740a 	strd	r7, r4, [sp, #40]	; 0x28
    HAL_GPIO_Init(GPIOC, &GPIO_InitStruct);
 80212f0:	f000 fe7c 	bl	8021fec <HAL_GPIO_Init>
    GPIO_InitStruct.Pin = GPIO_PIN_7;
 80212f4:	2380      	movs	r3, #128	; 0x80
    GPIO_InitStruct.Mode = GPIO_MODE_AF_PP;
 80212f6:	e9cd 3807 	strd	r3, r8, [sp, #28]
    HAL_GPIO_Init(GPIOC, &GPIO_InitStruct);
 80212fa:	4826      	ldr	r0, [pc, #152]	; (8021394 <HAL_UART_MspInit+0x2d4>)
    GPIO_InitStruct.Alternate = GPIO_AF8_USART6;
 80212fc:	940b      	str	r4, [sp, #44]	; 0x2c
    GPIO_InitStruct.Pull = GPIO_PULLUP;
 80212fe:	2301      	movs	r3, #1
    HAL_GPIO_Init(GPIOC, &GPIO_InitStruct);
 8021300:	a907      	add	r1, sp, #28
    hdma_usart6_rx.Instance = DMA2_Stream1;
 8021302:	4c2a      	ldr	r4, [pc, #168]	; (80213ac <HAL_UART_MspInit+0x2ec>)
    GPIO_InitStruct.Speed = GPIO_SPEED_FREQ_VERY_HIGH;
 8021304:	e9cd 3709 	strd	r3, r7, [sp, #36]	; 0x24
    HAL_GPIO_Init(GPIOC, &GPIO_InitStruct);
 8021308:	f000 fe70 	bl	8021fec <HAL_GPIO_Init>
    hdma_usart6_rx.Init.Channel = DMA_CHANNEL_5;
 802130c:	4828      	ldr	r0, [pc, #160]	; (80213b0 <HAL_UART_MspInit+0x2f0>)
 802130e:	f04f 6320 	mov.w	r3, #167772160	; 0xa000000
 8021312:	e9c4 0300 	strd	r0, r3, [r4]
    hdma_usart6_rx.Init.MemInc = DMA_MINC_ENABLE;
 8021316:	f44f 6380 	mov.w	r3, #1024	; 0x400
    if (HAL_DMA_Init(&hdma_usart6_rx) != HAL_OK)
 802131a:	4620      	mov	r0, r4
    hdma_usart6_rx.Init.PeriphInc = DMA_PINC_DISABLE;
 802131c:	e9c4 6602 	strd	r6, r6, [r4, #8]
    hdma_usart6_rx.Init.PeriphDataAlignment = DMA_PDATAALIGN_BYTE;
 8021320:	e9c4 3604 	strd	r3, r6, [r4, #16]
    hdma_usart6_rx.Init.Mode = DMA_NORMAL;
 8021324:	e9c4 6606 	strd	r6, r6, [r4, #24]
    hdma_usart6_rx.Init.FIFOMode = DMA_FIFOMODE_DISABLE;
 8021328:	e9c4 6608 	strd	r6, r6, [r4, #32]
    if (HAL_DMA_Init(&hdma_usart6_rx) != HAL_OK)
 802132c:	f000 f96a 	bl	8021604 <HAL_DMA_Init>
 8021330:	b108      	cbz	r0, 8021336 <HAL_UART_MspInit+0x276>
      Error_Handler();
 8021332:	f7ff fca8 	bl	8020c86 <Error_Handler>
    hdma_usart6_tx.Init.Channel = DMA_CHANNEL_5;
 8021336:	4a1f      	ldr	r2, [pc, #124]	; (80213b4 <HAL_UART_MspInit+0x2f4>)
    __HAL_LINKDMA(uartHandle,hdmarx,hdma_usart6_rx);
 8021338:	63ac      	str	r4, [r5, #56]	; 0x38
 802133a:	63a5      	str	r5, [r4, #56]	; 0x38
    hdma_usart6_tx.Instance = DMA2_Stream6;
 802133c:	4c1e      	ldr	r4, [pc, #120]	; (80213b8 <HAL_UART_MspInit+0x2f8>)
    hdma_usart6_tx.Init.Channel = DMA_CHANNEL_5;
 802133e:	f04f 6320 	mov.w	r3, #167772160	; 0xa000000
 8021342:	e9c4 2300 	strd	r2, r3, [r4]
    hdma_usart6_tx.Init.PeriphInc = DMA_PINC_DISABLE;
 8021346:	2140      	movs	r1, #64	; 0x40
 8021348:	2300      	movs	r3, #0
    hdma_usart6_tx.Init.MemInc = DMA_MINC_ENABLE;
 802134a:	f44f 6280 	mov.w	r2, #1024	; 0x400
    if (HAL_DMA_Init(&hdma_usart6_tx) != HAL_OK)
 802134e:	4620      	mov	r0, r4
    hdma_usart6_tx.Init.PeriphInc = DMA_PINC_DISABLE;
 8021350:	e9c4 1302 	strd	r1, r3, [r4, #8]
    hdma_usart6_tx.Init.PeriphDataAlignment = DMA_PDATAALIGN_BYTE;
 8021354:	e9c4 2304 	strd	r2, r3, [r4, #16]
    hdma_usart6_tx.Init.Mode = DMA_NORMAL;
 8021358:	e9c4 3306 	strd	r3, r3, [r4, #24]
    hdma_usart6_tx.Init.FIFOMode = DMA_FIFOMODE_DISABLE;
 802135c:	e9c4 3308 	strd	r3, r3, [r4, #32]
    if (HAL_DMA_Init(&hdma_usart6_tx) != HAL_OK)
 8021360:	f000 f950 	bl	8021604 <HAL_DMA_Init>
 8021364:	b108      	cbz	r0, 802136a <HAL_UART_MspInit+0x2aa>
      Error_Handler();
 8021366:	f7ff fc8e 	bl	8020c86 <Error_Handler>
    __HAL_LINKDMA(uartHandle,hdmatx,hdma_usart6_tx);
 802136a:	636c      	str	r4, [r5, #52]	; 0x34
    HAL_NVIC_SetPriority(USART6_IRQn, 5, 0);
 802136c:	2047      	movs	r0, #71	; 0x47
 802136e:	2200      	movs	r2, #0
 8021370:	2105      	movs	r1, #5
    __HAL_LINKDMA(uartHandle,hdmatx,hdma_usart6_tx);
 8021372:	63a5      	str	r5, [r4, #56]	; 0x38
    HAL_NVIC_SetPriority(USART6_IRQn, 5, 0);
 8021374:	f000 f8d8 	bl	8021528 <HAL_NVIC_SetPriority>
    HAL_NVIC_EnableIRQ(USART6_IRQn);
 8021378:	2047      	movs	r0, #71	; 0x47
 802137a:	e719      	b.n	80211b0 <HAL_UART_MspInit+0xf0>
 802137c:	40011000 	.word	0x40011000
 8021380:	40023800 	.word	0x40023800
 8021384:	40020000 	.word	0x40020000
 8021388:	20007974 	.word	0x20007974
 802138c:	200078b4 	.word	0x200078b4
 8021390:	40004800 	.word	0x40004800
 8021394:	40020800 	.word	0x40020800
 8021398:	40020400 	.word	0x40020400
 802139c:	200077b0 	.word	0x200077b0
 80213a0:	40026058 	.word	0x40026058
 80213a4:	20007854 	.word	0x20007854
 80213a8:	40011400 	.word	0x40011400
 80213ac:	20007750 	.word	0x20007750
 80213b0:	40026428 	.word	0x40026428
 80213b4:	400264a0 	.word	0x400264a0
 80213b8:	20007914 	.word	0x20007914
 80213bc:	40026440 	.word	0x40026440
 80213c0:	400264b8 	.word	0x400264b8
 80213c4:	40026028 	.word	0x40026028

080213c8 <Reset_Handler>:
 80213c8:	f8df d034 	ldr.w	sp, [pc, #52]	; 8021400 <LoopFillZerobss+0x12>
 80213cc:	480d      	ldr	r0, [pc, #52]	; (8021404 <LoopFillZerobss+0x16>)
 80213ce:	490e      	ldr	r1, [pc, #56]	; (8021408 <LoopFillZerobss+0x1a>)
 80213d0:	4a0e      	ldr	r2, [pc, #56]	; (802140c <LoopFillZerobss+0x1e>)
 80213d2:	2300      	movs	r3, #0
 80213d4:	e002      	b.n	80213dc <LoopCopyDataInit>

080213d6 <CopyDataInit>:
 80213d6:	58d4      	ldr	r4, [r2, r3]
 80213d8:	50c4      	str	r4, [r0, r3]
 80213da:	3304      	adds	r3, #4

080213dc <LoopCopyDataInit>:
 80213dc:	18c4      	adds	r4, r0, r3
 80213de:	428c      	cmp	r4, r1
 80213e0:	d3f9      	bcc.n	80213d6 <CopyDataInit>
 80213e2:	4a0b      	ldr	r2, [pc, #44]	; (8021410 <LoopFillZerobss+0x22>)
 80213e4:	4c0b      	ldr	r4, [pc, #44]	; (8021414 <LoopFillZerobss+0x26>)
 80213e6:	2300      	movs	r3, #0
 80213e8:	e001      	b.n	80213ee <LoopFillZerobss>

080213ea <FillZerobss>:
 80213ea:	6013      	str	r3, [r2, #0]
 80213ec:	3204      	adds	r2, #4

080213ee <LoopFillZerobss>:
 80213ee:	42a2      	cmp	r2, r4
 80213f0:	d3fb      	bcc.n	80213ea <FillZerobss>
 80213f2:	f7ff fd67 	bl	8020ec4 <SystemInit>
 80213f6:	f007 fae3 	bl	80289c0 <__libc_init_array>
 80213fa:	f7ff fbf7 	bl	8020bec <main>
 80213fe:	4770      	bx	lr
 8021400:	20040000 	.word	0x20040000
 8021404:	20000000 	.word	0x20000000
 8021408:	20000258 	.word	0x20000258
 802140c:	08029654 	.word	0x08029654
 8021410:	20000258 	.word	0x20000258
 8021414:	20008d14 	.word	0x20008d14

08021418 <ADC_IRQHandler>:
 8021418:	e7fe      	b.n	8021418 <ADC_IRQHandler>

0802141a <stm32_lock_acquire>:
/**
  * @brief Acquire STM32 lock
  * @param lock The lock to acquire
  */
static inline void stm32_lock_acquire(LockingData_t *lock)
{
 802141a:	b508      	push	{r3, lr}
  STM32_LOCK_BLOCK_IF_NULL_ARGUMENT(lock);
  STM32_LOCK_ASSERT_VALID_NESTING_LEVEL(lock);
 802141c:	7a03      	ldrb	r3, [r0, #8]
 802141e:	2b01      	cmp	r3, #1
 8021420:	d903      	bls.n	802142a <stm32_lock_acquire+0x10>
 8021422:	b672      	cpsid	i
 8021424:	f7ff fc2f 	bl	8020c86 <Error_Handler>
 8021428:	e7fe      	b.n	8021428 <stm32_lock_acquire+0xe>
  lock->basepri[lock->nesting_level++] = taskENTER_CRITICAL_FROM_ISR();
 802142a:	1c5a      	adds	r2, r3, #1
 802142c:	7202      	strb	r2, [r0, #8]

portFORCE_INLINE static uint32_t ulPortRaiseBASEPRI( void )
{
uint32_t ulOriginalBASEPRI, ulNewBASEPRI;

	__asm volatile
 802142e:	f3ef 8211 	mrs	r2, BASEPRI
 8021432:	f04f 0150 	mov.w	r1, #80	; 0x50
 8021436:	f381 8811 	msr	BASEPRI, r1
 802143a:	f3bf 8f6f 	isb	sy
 802143e:	f3bf 8f4f 	dsb	sy
 8021442:	f840 2023 	str.w	r2, [r0, r3, lsl #2]
}
 8021446:	bd08      	pop	{r3, pc}

08021448 <stm32_lock_release>:
/**
  * @brief Release STM32 lock
  * @param lock The lock to release
  */
static inline void stm32_lock_release(LockingData_t *lock)
{
 8021448:	b508      	push	{r3, lr}
  STM32_LOCK_BLOCK_IF_NULL_ARGUMENT(lock);
  lock->nesting_level--;
 802144a:	7a03      	ldrb	r3, [r0, #8]
 802144c:	3b01      	subs	r3, #1
 802144e:	b2db      	uxtb	r3, r3
  STM32_LOCK_ASSERT_VALID_NESTING_LEVEL(lock);
 8021450:	2b01      	cmp	r3, #1
  lock->nesting_level--;
 8021452:	7203      	strb	r3, [r0, #8]
  STM32_LOCK_ASSERT_VALID_NESTING_LEVEL(lock);
 8021454:	d903      	bls.n	802145e <stm32_lock_release+0x16>
 8021456:	b672      	cpsid	i
 8021458:	f7ff fc15 	bl	8020c86 <Error_Handler>
 802145c:	e7fe      	b.n	802145c <stm32_lock_release+0x14>
}
/*-----------------------------------------------------------*/

portFORCE_INLINE static void vPortSetBASEPRI( uint32_t ulNewMaskValue )
{
	__asm volatile
 802145e:	f850 3023 	ldr.w	r3, [r0, r3, lsl #2]
 8021462:	f383 8811 	msr	BASEPRI, r3
  taskEXIT_CRITICAL_FROM_ISR(lock->basepri[lock->nesting_level]);
}
 8021466:	bd08      	pop	{r3, pc}

08021468 <__retarget_lock_acquire>:
/**
  * @brief Acquire lock
  * @param lock The lock
  */
void __retarget_lock_acquire(_LOCK_T lock)
{
 8021468:	b508      	push	{r3, lr}
  STM32_LOCK_BLOCK_IF_NULL_ARGUMENT(lock);
 802146a:	b918      	cbnz	r0, 8021474 <__retarget_lock_acquire+0xc>
 802146c:	b672      	cpsid	i
 802146e:	f7ff fc0a 	bl	8020c86 <Error_Handler>
 8021472:	e7fe      	b.n	8021472 <__retarget_lock_acquire+0xa>
  stm32_lock_acquire(STM32_LOCK_PARAMETER(lock));
}
 8021474:	e8bd 4008 	ldmia.w	sp!, {r3, lr}
  stm32_lock_acquire(STM32_LOCK_PARAMETER(lock));
 8021478:	f7ff bfcf 	b.w	802141a <stm32_lock_acquire>

0802147c <__retarget_lock_acquire_recursive>:
 802147c:	f7ff bff4 	b.w	8021468 <__retarget_lock_acquire>

08021480 <__retarget_lock_release>:
/**
  * @brief Release lock
  * @param lock The lock
  */
void __retarget_lock_release(_LOCK_T lock)
{
 8021480:	b508      	push	{r3, lr}
  STM32_LOCK_BLOCK_IF_NULL_ARGUMENT(lock);
 8021482:	b918      	cbnz	r0, 802148c <__retarget_lock_release+0xc>
 8021484:	b672      	cpsid	i
 8021486:	f7ff fbfe 	bl	8020c86 <Error_Handler>
 802148a:	e7fe      	b.n	802148a <__retarget_lock_release+0xa>
  stm32_lock_release(STM32_LOCK_PARAMETER(lock));
}
 802148c:	e8bd 4008 	ldmia.w	sp!, {r3, lr}
  stm32_lock_release(STM32_LOCK_PARAMETER(lock));
 8021490:	f7ff bfda 	b.w	8021448 <stm32_lock_release>

08021494 <__retarget_lock_release_recursive>:
 8021494:	f7ff bff4 	b.w	8021480 <__retarget_lock_release>

08021498 <HAL_Init>:
  *         need to ensure that the SysTick time base is always set to 1 millisecond
  *         to have correct HAL operation.
  * @retval HAL status
  */
HAL_StatusTypeDef HAL_Init(void)
{
 8021498:	b508      	push	{r3, lr}
  /* Configure Flash prefetch, Instruction cache, Data cache */ 
#if (INSTRUCTION_CACHE_ENABLE != 0U)
  __HAL_FLASH_INSTRUCTION_CACHE_ENABLE();
 802149a:	4b0b      	ldr	r3, [pc, #44]	; (80214c8 <HAL_Init+0x30>)
 802149c:	681a      	ldr	r2, [r3, #0]
 802149e:	f442 7200 	orr.w	r2, r2, #512	; 0x200
 80214a2:	601a      	str	r2, [r3, #0]
#endif /* INSTRUCTION_CACHE_ENABLE */

#if (DATA_CACHE_ENABLE != 0U)
  __HAL_FLASH_DATA_CACHE_ENABLE();
 80214a4:	681a      	ldr	r2, [r3, #0]
 80214a6:	f442 6280 	orr.w	r2, r2, #1024	; 0x400
 80214aa:	601a      	str	r2, [r3, #0]
#endif /* DATA_CACHE_ENABLE */

#if (PREFETCH_ENABLE != 0U)
  __HAL_FLASH_PREFETCH_BUFFER_ENABLE();
 80214ac:	681a      	ldr	r2, [r3, #0]
 80214ae:	f442 7280 	orr.w	r2, r2, #256	; 0x100
 80214b2:	601a      	str	r2, [r3, #0]
#endif /* PREFETCH_ENABLE */

  /* Set Interrupt Group Priority */
  HAL_NVIC_SetPriorityGrouping(NVIC_PRIORITYGROUP_4);
 80214b4:	2003      	movs	r0, #3
 80214b6:	f000 f81b 	bl	80214f0 <HAL_NVIC_SetPriorityGrouping>

  /* Use systick as time base source and configure 1ms tick (default clock after Reset is HSI) */
  HAL_InitTick(TICK_INT_PRIORITY);
 80214ba:	200f      	movs	r0, #15
 80214bc:	f7ff fc60 	bl	8020d80 <HAL_InitTick>

  /* Init the low level hardware */
  HAL_MspInit();
 80214c0:	f7ff fc3e 	bl	8020d40 <HAL_MspInit>

  /* Return function status */
  return HAL_OK;
}
 80214c4:	2000      	movs	r0, #0
 80214c6:	bd08      	pop	{r3, pc}
 80214c8:	40023c00 	.word	0x40023c00

080214cc <HAL_IncTick>:
  *      implementations in user file.
  * @retval None
  */
__weak void HAL_IncTick(void)
{
  uwTick += uwTickFreq;
 80214cc:	4a03      	ldr	r2, [pc, #12]	; (80214dc <HAL_IncTick+0x10>)
 80214ce:	4b04      	ldr	r3, [pc, #16]	; (80214e0 <HAL_IncTick+0x14>)
 80214d0:	6811      	ldr	r1, [r2, #0]
 80214d2:	781b      	ldrb	r3, [r3, #0]
 80214d4:	440b      	add	r3, r1
 80214d6:	6013      	str	r3, [r2, #0]
}
 80214d8:	4770      	bx	lr
 80214da:	bf00      	nop
 80214dc:	20007a5c 	.word	0x20007a5c
 80214e0:	20000004 	.word	0x20000004

080214e4 <HAL_GetTick>:
  *       implementations in user file.
  * @retval tick value
  */
__weak uint32_t HAL_GetTick(void)
{
  return uwTick;
 80214e4:	4b01      	ldr	r3, [pc, #4]	; (80214ec <HAL_GetTick+0x8>)
 80214e6:	6818      	ldr	r0, [r3, #0]
}
 80214e8:	4770      	bx	lr
 80214ea:	bf00      	nop
 80214ec:	20007a5c 	.word	0x20007a5c

080214f0 <HAL_NVIC_SetPriorityGrouping>:
  * @retval None
  */
void HAL_NVIC_SetPriorityGrouping(uint32_t PriorityGroup)
{
  /* Check the parameters */
  assert_param(IS_NVIC_PRIORITY_GROUP(PriorityGroup));
 80214f0:	1ec3      	subs	r3, r0, #3
 80214f2:	2b04      	cmp	r3, #4
{
 80214f4:	b510      	push	{r4, lr}
 80214f6:	4604      	mov	r4, r0
  assert_param(IS_NVIC_PRIORITY_GROUP(PriorityGroup));
 80214f8:	d903      	bls.n	8021502 <HAL_NVIC_SetPriorityGrouping+0x12>
 80214fa:	4809      	ldr	r0, [pc, #36]	; (8021520 <HAL_NVIC_SetPriorityGrouping+0x30>)
 80214fc:	2190      	movs	r1, #144	; 0x90
 80214fe:	f7ff fbc4 	bl	8020c8a <assert_failed>
__STATIC_INLINE void __NVIC_SetPriorityGrouping(uint32_t PriorityGroup)
{
  uint32_t reg_value;
  uint32_t PriorityGroupTmp = (PriorityGroup & (uint32_t)0x07UL);             /* only values 0..7 are used          */

  reg_value  =  SCB->AIRCR;                                                   /* read old register configuration    */
 8021502:	4908      	ldr	r1, [pc, #32]	; (8021524 <HAL_NVIC_SetPriorityGrouping+0x34>)
 8021504:	68ca      	ldr	r2, [r1, #12]
  reg_value &= ~((uint32_t)(SCB_AIRCR_VECTKEY_Msk | SCB_AIRCR_PRIGROUP_Msk)); /* clear bits to change               */
  reg_value  =  (reg_value                                   |
                ((uint32_t)0x5FAUL << SCB_AIRCR_VECTKEY_Pos) |
                (PriorityGroupTmp << SCB_AIRCR_PRIGROUP_Pos)  );              /* Insert write key and priority group */
 8021506:	0223      	lsls	r3, r4, #8
  reg_value &= ~((uint32_t)(SCB_AIRCR_VECTKEY_Msk | SCB_AIRCR_PRIGROUP_Msk)); /* clear bits to change               */
 8021508:	f64f 04ff 	movw	r4, #63743	; 0xf8ff
                (PriorityGroupTmp << SCB_AIRCR_PRIGROUP_Pos)  );              /* Insert write key and priority group */
 802150c:	f403 63e0 	and.w	r3, r3, #1792	; 0x700
  reg_value &= ~((uint32_t)(SCB_AIRCR_VECTKEY_Msk | SCB_AIRCR_PRIGROUP_Msk)); /* clear bits to change               */
 8021510:	4014      	ands	r4, r2
                ((uint32_t)0x5FAUL << SCB_AIRCR_VECTKEY_Pos) |
 8021512:	4323      	orrs	r3, r4
  reg_value  =  (reg_value                                   |
 8021514:	f043 63bf 	orr.w	r3, r3, #100139008	; 0x5f80000
 8021518:	f443 3300 	orr.w	r3, r3, #131072	; 0x20000
  SCB->AIRCR =  reg_value;
 802151c:	60cb      	str	r3, [r1, #12]
  
  /* Set the PRIGROUP[10:8] bits according to the PriorityGroup parameter value */
  NVIC_SetPriorityGrouping(PriorityGroup);
}
 802151e:	bd10      	pop	{r4, pc}
 8021520:	08028f23 	.word	0x08028f23
 8021524:	e000ed00 	.word	0xe000ed00

08021528 <HAL_NVIC_SetPriority>:
void HAL_NVIC_SetPriority(IRQn_Type IRQn, uint32_t PreemptPriority, uint32_t SubPriority)
{ 
  uint32_t prioritygroup = 0x00U;
  
  /* Check the parameters */
  assert_param(IS_NVIC_SUB_PRIORITY(SubPriority));
 8021528:	2a0f      	cmp	r2, #15
{ 
 802152a:	b570      	push	{r4, r5, r6, lr}
 802152c:	4605      	mov	r5, r0
 802152e:	460c      	mov	r4, r1
 8021530:	4616      	mov	r6, r2
  assert_param(IS_NVIC_SUB_PRIORITY(SubPriority));
 8021532:	d903      	bls.n	802153c <HAL_NVIC_SetPriority+0x14>
 8021534:	481b      	ldr	r0, [pc, #108]	; (80215a4 <HAL_NVIC_SetPriority+0x7c>)
 8021536:	21a8      	movs	r1, #168	; 0xa8
 8021538:	f7ff fba7 	bl	8020c8a <assert_failed>
  assert_param(IS_NVIC_PREEMPTION_PRIORITY(PreemptPriority));
 802153c:	2c0f      	cmp	r4, #15
 802153e:	d903      	bls.n	8021548 <HAL_NVIC_SetPriority+0x20>
 8021540:	4818      	ldr	r0, [pc, #96]	; (80215a4 <HAL_NVIC_SetPriority+0x7c>)
 8021542:	21a9      	movs	r1, #169	; 0xa9
 8021544:	f7ff fba1 	bl	8020c8a <assert_failed>
  \details Reads the priority grouping field from the NVIC Interrupt Controller.
  \return                Priority grouping field (SCB->AIRCR [10:8] PRIGROUP field).
 */
__STATIC_INLINE uint32_t __NVIC_GetPriorityGrouping(void)
{
  return ((uint32_t)((SCB->AIRCR & SCB_AIRCR_PRIGROUP_Msk) >> SCB_AIRCR_PRIGROUP_Pos));
 8021548:	4b17      	ldr	r3, [pc, #92]	; (80215a8 <HAL_NVIC_SetPriority+0x80>)
 802154a:	68d8      	ldr	r0, [r3, #12]
 802154c:	f3c0 2002 	ubfx	r0, r0, #8, #3
{
  uint32_t PriorityGroupTmp = (PriorityGroup & (uint32_t)0x07UL);   /* only values 0..7 are used          */
  uint32_t PreemptPriorityBits;
  uint32_t SubPriorityBits;

  PreemptPriorityBits = ((7UL - PriorityGroupTmp) > (uint32_t)(__NVIC_PRIO_BITS)) ? (uint32_t)(__NVIC_PRIO_BITS) : (uint32_t)(7UL - PriorityGroupTmp);
 8021550:	f1c0 0307 	rsb	r3, r0, #7
  SubPriorityBits     = ((PriorityGroupTmp + (uint32_t)(__NVIC_PRIO_BITS)) < (uint32_t)7UL) ? (uint32_t)0UL : (uint32_t)((PriorityGroupTmp - 7UL) + (uint32_t)(__NVIC_PRIO_BITS));
 8021554:	1d02      	adds	r2, r0, #4
  PreemptPriorityBits = ((7UL - PriorityGroupTmp) > (uint32_t)(__NVIC_PRIO_BITS)) ? (uint32_t)(__NVIC_PRIO_BITS) : (uint32_t)(7UL - PriorityGroupTmp);
 8021556:	2b04      	cmp	r3, #4
 8021558:	bf28      	it	cs
 802155a:	2304      	movcs	r3, #4
  SubPriorityBits     = ((PriorityGroupTmp + (uint32_t)(__NVIC_PRIO_BITS)) < (uint32_t)7UL) ? (uint32_t)0UL : (uint32_t)((PriorityGroupTmp - 7UL) + (uint32_t)(__NVIC_PRIO_BITS));
 802155c:	2a06      	cmp	r2, #6

  return (
           ((PreemptPriority & (uint32_t)((1UL << (PreemptPriorityBits)) - 1UL)) << SubPriorityBits) |
 802155e:	f04f 32ff 	mov.w	r2, #4294967295
 8021562:	fa02 f303 	lsl.w	r3, r2, r3
  SubPriorityBits     = ((PriorityGroupTmp + (uint32_t)(__NVIC_PRIO_BITS)) < (uint32_t)7UL) ? (uint32_t)0UL : (uint32_t)((PriorityGroupTmp - 7UL) + (uint32_t)(__NVIC_PRIO_BITS));
 8021566:	bf8c      	ite	hi
 8021568:	3803      	subhi	r0, #3
 802156a:	2000      	movls	r0, #0
           ((PreemptPriority & (uint32_t)((1UL << (PreemptPriorityBits)) - 1UL)) << SubPriorityBits) |
 802156c:	ea24 0303 	bic.w	r3, r4, r3
 8021570:	4083      	lsls	r3, r0
           ((SubPriority     & (uint32_t)((1UL << (SubPriorityBits    )) - 1UL)))
 8021572:	fa02 f000 	lsl.w	r0, r2, r0
 8021576:	ea26 0600 	bic.w	r6, r6, r0
  if ((int32_t)(IRQn) >= 0)
 802157a:	2d00      	cmp	r5, #0
           ((PreemptPriority & (uint32_t)((1UL << (PreemptPriorityBits)) - 1UL)) << SubPriorityBits) |
 802157c:	ea43 0306 	orr.w	r3, r3, r6
    NVIC->IP[((uint32_t)IRQn)]               = (uint8_t)((priority << (8U - __NVIC_PRIO_BITS)) & (uint32_t)0xFFUL);
 8021580:	bfac      	ite	ge
 8021582:	f105 4560 	addge.w	r5, r5, #3758096384	; 0xe0000000
    SCB->SHP[(((uint32_t)IRQn) & 0xFUL)-4UL] = (uint8_t)((priority << (8U - __NVIC_PRIO_BITS)) & (uint32_t)0xFFUL);
 8021586:	4a09      	ldrlt	r2, [pc, #36]	; (80215ac <HAL_NVIC_SetPriority+0x84>)
 8021588:	ea4f 1303 	mov.w	r3, r3, lsl #4
 802158c:	bfb8      	it	lt
 802158e:	f005 050f 	andlt.w	r5, r5, #15
 8021592:	b2db      	uxtb	r3, r3
    NVIC->IP[((uint32_t)IRQn)]               = (uint8_t)((priority << (8U - __NVIC_PRIO_BITS)) & (uint32_t)0xFFUL);
 8021594:	bfaa      	itet	ge
 8021596:	f505 4561 	addge.w	r5, r5, #57600	; 0xe100
    SCB->SHP[(((uint32_t)IRQn) & 0xFUL)-4UL] = (uint8_t)((priority << (8U - __NVIC_PRIO_BITS)) & (uint32_t)0xFFUL);
 802159a:	5553      	strblt	r3, [r2, r5]
    NVIC->IP[((uint32_t)IRQn)]               = (uint8_t)((priority << (8U - __NVIC_PRIO_BITS)) & (uint32_t)0xFFUL);
 802159c:	f885 3300 	strbge.w	r3, [r5, #768]	; 0x300
  
  prioritygroup = NVIC_GetPriorityGrouping();
  
  NVIC_SetPriority(IRQn, NVIC_EncodePriority(prioritygroup, PreemptPriority, SubPriority));
}
 80215a0:	bd70      	pop	{r4, r5, r6, pc}
 80215a2:	bf00      	nop
 80215a4:	08028f23 	.word	0x08028f23
 80215a8:	e000ed00 	.word	0xe000ed00
 80215ac:	e000ed14 	.word	0xe000ed14

080215b0 <HAL_NVIC_EnableIRQ>:
  * @retval None
  */
void HAL_NVIC_EnableIRQ(IRQn_Type IRQn)
{
  /* Check the parameters */
  assert_param(IS_NVIC_DEVICE_IRQ(IRQn));
 80215b0:	2800      	cmp	r0, #0
 80215b2:	da03      	bge.n	80215bc <HAL_NVIC_EnableIRQ+0xc>
 80215b4:	4806      	ldr	r0, [pc, #24]	; (80215d0 <HAL_NVIC_EnableIRQ+0x20>)
 80215b6:	21bc      	movs	r1, #188	; 0xbc
 80215b8:	f7ff bb67 	b.w	8020c8a <assert_failed>
    NVIC->ISER[(((uint32_t)IRQn) >> 5UL)] = (uint32_t)(1UL << (((uint32_t)IRQn) & 0x1FUL));
 80215bc:	0942      	lsrs	r2, r0, #5
 80215be:	2301      	movs	r3, #1
 80215c0:	f000 001f 	and.w	r0, r0, #31
 80215c4:	fa03 f000 	lsl.w	r0, r3, r0
 80215c8:	4b02      	ldr	r3, [pc, #8]	; (80215d4 <HAL_NVIC_EnableIRQ+0x24>)
 80215ca:	f843 0022 	str.w	r0, [r3, r2, lsl #2]
  
  /* Enable interrupt */
  NVIC_EnableIRQ(IRQn);
}
 80215ce:	4770      	bx	lr
 80215d0:	08028f23 	.word	0x08028f23
 80215d4:	e000e100 	.word	0xe000e100

080215d8 <DMA_CalcBaseAndBitshift>:
  *                     the configuration information for the specified DMA Stream. 
  * @retval Stream base address
  */
static uint32_t DMA_CalcBaseAndBitshift(DMA_HandleTypeDef *hdma)
{
  uint32_t stream_number = (((uint32_t)hdma->Instance & 0xFFU) - 16U) / 24U;
 80215d8:	6803      	ldr	r3, [r0, #0]
{
 80215da:	b510      	push	{r4, lr}
  
  /* lookup table for necessary bitshift of flags within status registers */
  static const uint8_t flagBitshiftOffset[8U] = {0U, 6U, 16U, 22U, 0U, 6U, 16U, 22U};
  hdma->StreamIndex = flagBitshiftOffset[stream_number];
 80215dc:	4c08      	ldr	r4, [pc, #32]	; (8021600 <DMA_CalcBaseAndBitshift+0x28>)
{
 80215de:	4602      	mov	r2, r0
  uint32_t stream_number = (((uint32_t)hdma->Instance & 0xFFU) - 16U) / 24U;
 80215e0:	b2d9      	uxtb	r1, r3
 80215e2:	3910      	subs	r1, #16
 80215e4:	2018      	movs	r0, #24
 80215e6:	fbb1 f0f0 	udiv	r0, r1, r0
  hdma->StreamIndex = flagBitshiftOffset[stream_number];
 80215ea:	5c20      	ldrb	r0, [r4, r0]
 80215ec:	65d0      	str	r0, [r2, #92]	; 0x5c
  
  if (stream_number > 3U)
 80215ee:	f423 707f 	bic.w	r0, r3, #1020	; 0x3fc
 80215f2:	f020 0003 	bic.w	r0, r0, #3
 80215f6:	295f      	cmp	r1, #95	; 0x5f
  {
    /* return pointer to HISR and HIFCR */
    hdma->StreamBaseAddress = (((uint32_t)hdma->Instance & (uint32_t)(~0x3FFU)) + 4U);
 80215f8:	bf88      	it	hi
 80215fa:	3004      	addhi	r0, #4
 80215fc:	6590      	str	r0, [r2, #88]	; 0x58
    /* return pointer to LISR and LIFCR */
    hdma->StreamBaseAddress = ((uint32_t)hdma->Instance & (uint32_t)(~0x3FFU));
  }
  
  return hdma->StreamBaseAddress;
}
 80215fe:	bd10      	pop	{r4, pc}
 8021600:	08028f96 	.word	0x08028f96

08021604 <HAL_DMA_Init>:
{
 8021604:	b570      	push	{r4, r5, r6, lr}
 8021606:	4604      	mov	r4, r0
  uint32_t tickstart = HAL_GetTick();
 8021608:	f7ff ff6c 	bl	80214e4 <HAL_GetTick>
 802160c:	4605      	mov	r5, r0
  if(hdma == NULL)
 802160e:	2c00      	cmp	r4, #0
 8021610:	f000 811b 	beq.w	802184a <HAL_DMA_Init+0x246>
  assert_param(IS_DMA_STREAM_ALL_INSTANCE(hdma->Instance));
 8021614:	6823      	ldr	r3, [r4, #0]
 8021616:	4a8e      	ldr	r2, [pc, #568]	; (8021850 <HAL_DMA_Init+0x24c>)
 8021618:	4293      	cmp	r3, r2
 802161a:	d031      	beq.n	8021680 <HAL_DMA_Init+0x7c>
 802161c:	3218      	adds	r2, #24
 802161e:	4293      	cmp	r3, r2
 8021620:	d02e      	beq.n	8021680 <HAL_DMA_Init+0x7c>
 8021622:	3218      	adds	r2, #24
 8021624:	4293      	cmp	r3, r2
 8021626:	d02b      	beq.n	8021680 <HAL_DMA_Init+0x7c>
 8021628:	3218      	adds	r2, #24
 802162a:	4293      	cmp	r3, r2
 802162c:	d028      	beq.n	8021680 <HAL_DMA_Init+0x7c>
 802162e:	3218      	adds	r2, #24
 8021630:	4293      	cmp	r3, r2
 8021632:	d025      	beq.n	8021680 <HAL_DMA_Init+0x7c>
 8021634:	3218      	adds	r2, #24
 8021636:	4293      	cmp	r3, r2
 8021638:	d022      	beq.n	8021680 <HAL_DMA_Init+0x7c>
 802163a:	3218      	adds	r2, #24
 802163c:	4293      	cmp	r3, r2
 802163e:	d01f      	beq.n	8021680 <HAL_DMA_Init+0x7c>
 8021640:	3218      	adds	r2, #24
 8021642:	4293      	cmp	r3, r2
 8021644:	d01c      	beq.n	8021680 <HAL_DMA_Init+0x7c>
 8021646:	f502 7256 	add.w	r2, r2, #856	; 0x358
 802164a:	4293      	cmp	r3, r2
 802164c:	d018      	beq.n	8021680 <HAL_DMA_Init+0x7c>
 802164e:	3218      	adds	r2, #24
 8021650:	4293      	cmp	r3, r2
 8021652:	d015      	beq.n	8021680 <HAL_DMA_Init+0x7c>
 8021654:	3218      	adds	r2, #24
 8021656:	4293      	cmp	r3, r2
 8021658:	d012      	beq.n	8021680 <HAL_DMA_Init+0x7c>
 802165a:	3218      	adds	r2, #24
 802165c:	4293      	cmp	r3, r2
 802165e:	d00f      	beq.n	8021680 <HAL_DMA_Init+0x7c>
 8021660:	3218      	adds	r2, #24
 8021662:	4293      	cmp	r3, r2
 8021664:	d00c      	beq.n	8021680 <HAL_DMA_Init+0x7c>
 8021666:	3218      	adds	r2, #24
 8021668:	4293      	cmp	r3, r2
 802166a:	d009      	beq.n	8021680 <HAL_DMA_Init+0x7c>
 802166c:	3218      	adds	r2, #24
 802166e:	4293      	cmp	r3, r2
 8021670:	d006      	beq.n	8021680 <HAL_DMA_Init+0x7c>
 8021672:	3218      	adds	r2, #24
 8021674:	4293      	cmp	r3, r2
 8021676:	d003      	beq.n	8021680 <HAL_DMA_Init+0x7c>
 8021678:	4876      	ldr	r0, [pc, #472]	; (8021854 <HAL_DMA_Init+0x250>)
 802167a:	21b7      	movs	r1, #183	; 0xb7
 802167c:	f7ff fb05 	bl	8020c8a <assert_failed>
  assert_param(IS_DMA_CHANNEL(hdma->Init.Channel));
 8021680:	6863      	ldr	r3, [r4, #4]
 8021682:	f033 63c0 	bics.w	r3, r3, #100663296	; 0x6000000
 8021686:	d006      	beq.n	8021696 <HAL_DMA_Init+0x92>
 8021688:	f1b3 6f00 	cmp.w	r3, #134217728	; 0x8000000
 802168c:	d003      	beq.n	8021696 <HAL_DMA_Init+0x92>
 802168e:	4871      	ldr	r0, [pc, #452]	; (8021854 <HAL_DMA_Init+0x250>)
 8021690:	21b8      	movs	r1, #184	; 0xb8
 8021692:	f7ff fafa 	bl	8020c8a <assert_failed>
  assert_param(IS_DMA_DIRECTION(hdma->Init.Direction));
 8021696:	68a3      	ldr	r3, [r4, #8]
 8021698:	f033 0240 	bics.w	r2, r3, #64	; 0x40
 802169c:	d005      	beq.n	80216aa <HAL_DMA_Init+0xa6>
 802169e:	2b80      	cmp	r3, #128	; 0x80
 80216a0:	d003      	beq.n	80216aa <HAL_DMA_Init+0xa6>
 80216a2:	486c      	ldr	r0, [pc, #432]	; (8021854 <HAL_DMA_Init+0x250>)
 80216a4:	21b9      	movs	r1, #185	; 0xb9
 80216a6:	f7ff faf0 	bl	8020c8a <assert_failed>
  assert_param(IS_DMA_PERIPHERAL_INC_STATE(hdma->Init.PeriphInc));
 80216aa:	68e3      	ldr	r3, [r4, #12]
 80216ac:	f433 7300 	bics.w	r3, r3, #512	; 0x200
 80216b0:	d003      	beq.n	80216ba <HAL_DMA_Init+0xb6>
 80216b2:	4868      	ldr	r0, [pc, #416]	; (8021854 <HAL_DMA_Init+0x250>)
 80216b4:	21ba      	movs	r1, #186	; 0xba
 80216b6:	f7ff fae8 	bl	8020c8a <assert_failed>
  assert_param(IS_DMA_MEMORY_INC_STATE(hdma->Init.MemInc));
 80216ba:	6923      	ldr	r3, [r4, #16]
 80216bc:	f433 6380 	bics.w	r3, r3, #1024	; 0x400
 80216c0:	d003      	beq.n	80216ca <HAL_DMA_Init+0xc6>
 80216c2:	4864      	ldr	r0, [pc, #400]	; (8021854 <HAL_DMA_Init+0x250>)
 80216c4:	21bb      	movs	r1, #187	; 0xbb
 80216c6:	f7ff fae0 	bl	8020c8a <assert_failed>
  assert_param(IS_DMA_PERIPHERAL_DATA_SIZE(hdma->Init.PeriphDataAlignment));
 80216ca:	6963      	ldr	r3, [r4, #20]
 80216cc:	f433 6200 	bics.w	r2, r3, #2048	; 0x800
 80216d0:	d006      	beq.n	80216e0 <HAL_DMA_Init+0xdc>
 80216d2:	f5b3 5f80 	cmp.w	r3, #4096	; 0x1000
 80216d6:	d003      	beq.n	80216e0 <HAL_DMA_Init+0xdc>
 80216d8:	485e      	ldr	r0, [pc, #376]	; (8021854 <HAL_DMA_Init+0x250>)
 80216da:	21bc      	movs	r1, #188	; 0xbc
 80216dc:	f7ff fad5 	bl	8020c8a <assert_failed>
  assert_param(IS_DMA_MEMORY_DATA_SIZE(hdma->Init.MemDataAlignment));
 80216e0:	69a3      	ldr	r3, [r4, #24]
 80216e2:	f433 5200 	bics.w	r2, r3, #8192	; 0x2000
 80216e6:	d006      	beq.n	80216f6 <HAL_DMA_Init+0xf2>
 80216e8:	f5b3 4f80 	cmp.w	r3, #16384	; 0x4000
 80216ec:	d003      	beq.n	80216f6 <HAL_DMA_Init+0xf2>
 80216ee:	4859      	ldr	r0, [pc, #356]	; (8021854 <HAL_DMA_Init+0x250>)
 80216f0:	21bd      	movs	r1, #189	; 0xbd
 80216f2:	f7ff faca 	bl	8020c8a <assert_failed>
  assert_param(IS_DMA_MODE(hdma->Init.Mode));
 80216f6:	69e3      	ldr	r3, [r4, #28]
 80216f8:	f033 0220 	bics.w	r2, r3, #32
 80216fc:	d006      	beq.n	802170c <HAL_DMA_Init+0x108>
 80216fe:	f5b3 7f80 	cmp.w	r3, #256	; 0x100
 8021702:	d003      	beq.n	802170c <HAL_DMA_Init+0x108>
 8021704:	4853      	ldr	r0, [pc, #332]	; (8021854 <HAL_DMA_Init+0x250>)
 8021706:	21be      	movs	r1, #190	; 0xbe
 8021708:	f7ff fabf 	bl	8020c8a <assert_failed>
  assert_param(IS_DMA_PRIORITY(hdma->Init.Priority));
 802170c:	6a23      	ldr	r3, [r4, #32]
 802170e:	f433 3340 	bics.w	r3, r3, #196608	; 0x30000
 8021712:	d003      	beq.n	802171c <HAL_DMA_Init+0x118>
 8021714:	484f      	ldr	r0, [pc, #316]	; (8021854 <HAL_DMA_Init+0x250>)
 8021716:	21bf      	movs	r1, #191	; 0xbf
 8021718:	f7ff fab7 	bl	8020c8a <assert_failed>
  assert_param(IS_DMA_FIFO_MODE_STATE(hdma->Init.FIFOMode));
 802171c:	6a63      	ldr	r3, [r4, #36]	; 0x24
 802171e:	b303      	cbz	r3, 8021762 <HAL_DMA_Init+0x15e>
 8021720:	2b04      	cmp	r3, #4
 8021722:	d117      	bne.n	8021754 <HAL_DMA_Init+0x150>
    assert_param(IS_DMA_FIFO_THRESHOLD(hdma->Init.FIFOThreshold));
 8021724:	6aa3      	ldr	r3, [r4, #40]	; 0x28
 8021726:	2b03      	cmp	r3, #3
 8021728:	d903      	bls.n	8021732 <HAL_DMA_Init+0x12e>
 802172a:	484a      	ldr	r0, [pc, #296]	; (8021854 <HAL_DMA_Init+0x250>)
 802172c:	21c5      	movs	r1, #197	; 0xc5
 802172e:	f7ff faac 	bl	8020c8a <assert_failed>
    assert_param(IS_DMA_MEMORY_BURST(hdma->Init.MemBurst));
 8021732:	6ae3      	ldr	r3, [r4, #44]	; 0x2c
 8021734:	f033 73c0 	bics.w	r3, r3, #25165824	; 0x1800000
 8021738:	d003      	beq.n	8021742 <HAL_DMA_Init+0x13e>
 802173a:	4846      	ldr	r0, [pc, #280]	; (8021854 <HAL_DMA_Init+0x250>)
 802173c:	21c6      	movs	r1, #198	; 0xc6
 802173e:	f7ff faa4 	bl	8020c8a <assert_failed>
    assert_param(IS_DMA_PERIPHERAL_BURST(hdma->Init.PeriphBurst));
 8021742:	6b23      	ldr	r3, [r4, #48]	; 0x30
 8021744:	f433 03c0 	bics.w	r3, r3, #6291456	; 0x600000
 8021748:	d00b      	beq.n	8021762 <HAL_DMA_Init+0x15e>
 802174a:	4842      	ldr	r0, [pc, #264]	; (8021854 <HAL_DMA_Init+0x250>)
 802174c:	21c7      	movs	r1, #199	; 0xc7
 802174e:	f7ff fa9c 	bl	8020c8a <assert_failed>
 8021752:	e006      	b.n	8021762 <HAL_DMA_Init+0x15e>
  assert_param(IS_DMA_FIFO_MODE_STATE(hdma->Init.FIFOMode));
 8021754:	483f      	ldr	r0, [pc, #252]	; (8021854 <HAL_DMA_Init+0x250>)
 8021756:	21c0      	movs	r1, #192	; 0xc0
 8021758:	f7ff fa97 	bl	8020c8a <assert_failed>
  if(hdma->Init.FIFOMode != DMA_FIFOMODE_DISABLE)
 802175c:	6a63      	ldr	r3, [r4, #36]	; 0x24
 802175e:	2b00      	cmp	r3, #0
 8021760:	d1e0      	bne.n	8021724 <HAL_DMA_Init+0x120>
  hdma->State = HAL_DMA_STATE_BUSY;
 8021762:	2302      	movs	r3, #2
 8021764:	f884 3035 	strb.w	r3, [r4, #53]	; 0x35
  __HAL_DMA_DISABLE(hdma);
 8021768:	6822      	ldr	r2, [r4, #0]
  __HAL_UNLOCK(hdma);
 802176a:	2300      	movs	r3, #0
 802176c:	f884 3034 	strb.w	r3, [r4, #52]	; 0x34
  __HAL_DMA_DISABLE(hdma);
 8021770:	6813      	ldr	r3, [r2, #0]
 8021772:	f023 0301 	bic.w	r3, r3, #1
 8021776:	6013      	str	r3, [r2, #0]
  while((hdma->Instance->CR & DMA_SxCR_EN) != RESET)
 8021778:	6821      	ldr	r1, [r4, #0]
 802177a:	680b      	ldr	r3, [r1, #0]
 802177c:	07d8      	lsls	r0, r3, #31
 802177e:	d42f      	bmi.n	80217e0 <HAL_DMA_Init+0x1dc>
  tmp = hdma->Instance->CR;
 8021780:	680b      	ldr	r3, [r1, #0]
  tmp &= ((uint32_t)~(DMA_SxCR_CHSEL | DMA_SxCR_MBURST | DMA_SxCR_PBURST | \
 8021782:	4d35      	ldr	r5, [pc, #212]	; (8021858 <HAL_DMA_Init+0x254>)
          hdma->Init.PeriphDataAlignment | hdma->Init.MemDataAlignment |
 8021784:	69a0      	ldr	r0, [r4, #24]
  tmp &= ((uint32_t)~(DMA_SxCR_CHSEL | DMA_SxCR_MBURST | DMA_SxCR_PBURST | \
 8021786:	401d      	ands	r5, r3
  tmp |=  hdma->Init.Channel             | hdma->Init.Direction        |
 8021788:	e9d4 2301 	ldrd	r2, r3, [r4, #4]
 802178c:	4313      	orrs	r3, r2
 802178e:	68e2      	ldr	r2, [r4, #12]
 8021790:	4313      	orrs	r3, r2
          hdma->Init.PeriphInc           | hdma->Init.MemInc           |
 8021792:	6922      	ldr	r2, [r4, #16]
 8021794:	4313      	orrs	r3, r2
 8021796:	6962      	ldr	r2, [r4, #20]
 8021798:	4313      	orrs	r3, r2
          hdma->Init.PeriphDataAlignment | hdma->Init.MemDataAlignment |
 802179a:	69e2      	ldr	r2, [r4, #28]
 802179c:	4303      	orrs	r3, r0
 802179e:	4313      	orrs	r3, r2
          hdma->Init.Mode                | hdma->Init.Priority;
 80217a0:	6a22      	ldr	r2, [r4, #32]
 80217a2:	4313      	orrs	r3, r2
  if(hdma->Init.FIFOMode == DMA_FIFOMODE_ENABLE)
 80217a4:	6a62      	ldr	r2, [r4, #36]	; 0x24
 80217a6:	2a04      	cmp	r2, #4
  tmp |=  hdma->Init.Channel             | hdma->Init.Direction        |
 80217a8:	ea43 0305 	orr.w	r3, r3, r5
    tmp |=  hdma->Init.MemBurst | hdma->Init.PeriphBurst;
 80217ac:	bf02      	ittt	eq
 80217ae:	e9d4 560b 	ldrdeq	r5, r6, [r4, #44]	; 0x2c
 80217b2:	4335      	orreq	r5, r6
 80217b4:	432b      	orreq	r3, r5
  hdma->Instance->CR = tmp;  
 80217b6:	600b      	str	r3, [r1, #0]
  tmp = hdma->Instance->FCR;
 80217b8:	694b      	ldr	r3, [r1, #20]
  if(hdma->Init.FIFOMode == DMA_FIFOMODE_ENABLE)
 80217ba:	2a04      	cmp	r2, #4
  tmp &= (uint32_t)~(DMA_SxFCR_DMDIS | DMA_SxFCR_FTH);
 80217bc:	f023 0307 	bic.w	r3, r3, #7
  tmp |= hdma->Init.FIFOMode;
 80217c0:	ea43 0302 	orr.w	r3, r3, r2
  if(hdma->Init.FIFOMode == DMA_FIFOMODE_ENABLE)
 80217c4:	d133      	bne.n	802182e <HAL_DMA_Init+0x22a>
    tmp |= hdma->Init.FIFOThreshold;
 80217c6:	6aa2      	ldr	r2, [r4, #40]	; 0x28
    if (hdma->Init.MemBurst != DMA_MBURST_SINGLE)
 80217c8:	6ae5      	ldr	r5, [r4, #44]	; 0x2c
    tmp |= hdma->Init.FIFOThreshold;
 80217ca:	4313      	orrs	r3, r2
    if (hdma->Init.MemBurst != DMA_MBURST_SINGLE)
 80217cc:	b37d      	cbz	r5, 802182e <HAL_DMA_Init+0x22a>
{
  HAL_StatusTypeDef status = HAL_OK;
  uint32_t tmp = hdma->Init.FIFOThreshold;
  
  /* Memory Data size equal to Byte */
  if(hdma->Init.MemDataAlignment == DMA_MDATAALIGN_BYTE)
 80217ce:	b990      	cbnz	r0, 80217f6 <HAL_DMA_Init+0x1f2>
  {
    switch (tmp)
 80217d0:	2a01      	cmp	r2, #1
 80217d2:	d021      	beq.n	8021818 <HAL_DMA_Init+0x214>
 80217d4:	f032 0202 	bics.w	r2, r2, #2
 80217d8:	d129      	bne.n	802182e <HAL_DMA_Init+0x22a>
    case DMA_FIFO_THRESHOLD_HALFFULL:
    case DMA_FIFO_THRESHOLD_3QUARTERSFULL:
      status = HAL_ERROR;
      break;
    case DMA_FIFO_THRESHOLD_FULL:
      if ((hdma->Init.MemBurst & DMA_SxCR_MBURST_1) == DMA_SxCR_MBURST_1)
 80217da:	01ea      	lsls	r2, r5, #7
 80217dc:	d527      	bpl.n	802182e <HAL_DMA_Init+0x22a>
 80217de:	e01e      	b.n	802181e <HAL_DMA_Init+0x21a>
    if((HAL_GetTick() - tickstart ) > HAL_TIMEOUT_DMA_ABORT)
 80217e0:	f7ff fe80 	bl	80214e4 <HAL_GetTick>
 80217e4:	1b40      	subs	r0, r0, r5
 80217e6:	2805      	cmp	r0, #5
 80217e8:	d9c6      	bls.n	8021778 <HAL_DMA_Init+0x174>
      hdma->ErrorCode = HAL_DMA_ERROR_TIMEOUT;
 80217ea:	2320      	movs	r3, #32
 80217ec:	6563      	str	r3, [r4, #84]	; 0x54
      hdma->State = HAL_DMA_STATE_TIMEOUT;
 80217ee:	2003      	movs	r0, #3
        hdma->State = HAL_DMA_STATE_READY;
 80217f0:	f884 0035 	strb.w	r0, [r4, #53]	; 0x35
}
 80217f4:	bd70      	pop	{r4, r5, r6, pc}
  else if (hdma->Init.MemDataAlignment == DMA_MDATAALIGN_HALFWORD)
 80217f6:	f5b0 5f00 	cmp.w	r0, #8192	; 0x2000
 80217fa:	d114      	bne.n	8021826 <HAL_DMA_Init+0x222>
    switch (tmp)
 80217fc:	2a03      	cmp	r2, #3
 80217fe:	d816      	bhi.n	802182e <HAL_DMA_Init+0x22a>
 8021800:	a001      	add	r0, pc, #4	; (adr r0, 8021808 <HAL_DMA_Init+0x204>)
 8021802:	f850 f022 	ldr.w	pc, [r0, r2, lsl #2]
 8021806:	bf00      	nop
 8021808:	0802181f 	.word	0x0802181f
 802180c:	080217db 	.word	0x080217db
 8021810:	0802181f 	.word	0x0802181f
 8021814:	08021819 	.word	0x08021819
      if (hdma->Init.MemBurst == DMA_MBURST_INC16)
 8021818:	f1b5 7fc0 	cmp.w	r5, #25165824	; 0x1800000
 802181c:	d107      	bne.n	802182e <HAL_DMA_Init+0x22a>
        hdma->ErrorCode = HAL_DMA_ERROR_PARAM;
 802181e:	2340      	movs	r3, #64	; 0x40
 8021820:	6563      	str	r3, [r4, #84]	; 0x54
        hdma->State = HAL_DMA_STATE_READY;
 8021822:	2001      	movs	r0, #1
 8021824:	e7e4      	b.n	80217f0 <HAL_DMA_Init+0x1ec>
    switch (tmp)
 8021826:	2a02      	cmp	r2, #2
 8021828:	d9f9      	bls.n	802181e <HAL_DMA_Init+0x21a>
 802182a:	2a03      	cmp	r2, #3
 802182c:	d0d5      	beq.n	80217da <HAL_DMA_Init+0x1d6>
  hdma->Instance->FCR = tmp;
 802182e:	614b      	str	r3, [r1, #20]
  regs = (DMA_Base_Registers *)DMA_CalcBaseAndBitshift(hdma);
 8021830:	4620      	mov	r0, r4
 8021832:	f7ff fed1 	bl	80215d8 <DMA_CalcBaseAndBitshift>
  regs->IFCR = 0x3FU << hdma->StreamIndex;
 8021836:	6de2      	ldr	r2, [r4, #92]	; 0x5c
 8021838:	233f      	movs	r3, #63	; 0x3f
 802183a:	4093      	lsls	r3, r2
 802183c:	6083      	str	r3, [r0, #8]
  hdma->ErrorCode = HAL_DMA_ERROR_NONE;
 802183e:	2000      	movs	r0, #0
  hdma->State = HAL_DMA_STATE_READY;
 8021840:	2301      	movs	r3, #1
  hdma->ErrorCode = HAL_DMA_ERROR_NONE;
 8021842:	6560      	str	r0, [r4, #84]	; 0x54
  hdma->State = HAL_DMA_STATE_READY;
 8021844:	f884 3035 	strb.w	r3, [r4, #53]	; 0x35
  return HAL_OK;
 8021848:	e7d4      	b.n	80217f4 <HAL_DMA_Init+0x1f0>
    return HAL_ERROR;
 802184a:	2001      	movs	r0, #1
 802184c:	e7d2      	b.n	80217f4 <HAL_DMA_Init+0x1f0>
 802184e:	bf00      	nop
 8021850:	40026010 	.word	0x40026010
 8021854:	08028f5e 	.word	0x08028f5e
 8021858:	f010803f 	.word	0xf010803f

0802185c <HAL_DMA_Start_IT>:
{
 802185c:	e92d 41f0 	stmdb	sp!, {r4, r5, r6, r7, r8, lr}
 8021860:	4615      	mov	r5, r2
 8021862:	461f      	mov	r7, r3
  assert_param(IS_DMA_BUFFER_SIZE(DataLength));
 8021864:	1e5a      	subs	r2, r3, #1
 8021866:	f64f 73fe 	movw	r3, #65534	; 0xfffe
 802186a:	429a      	cmp	r2, r3
  DMA_Base_Registers *regs = (DMA_Base_Registers *)hdma->StreamBaseAddress;
 802186c:	f8d0 8058 	ldr.w	r8, [r0, #88]	; 0x58
{
 8021870:	4604      	mov	r4, r0
 8021872:	460e      	mov	r6, r1
  assert_param(IS_DMA_BUFFER_SIZE(DataLength));
 8021874:	d904      	bls.n	8021880 <HAL_DMA_Start_IT+0x24>
 8021876:	4820      	ldr	r0, [pc, #128]	; (80218f8 <HAL_DMA_Start_IT+0x9c>)
 8021878:	f240 11cb 	movw	r1, #459	; 0x1cb
 802187c:	f7ff fa05 	bl	8020c8a <assert_failed>
  __HAL_LOCK(hdma);
 8021880:	f894 3034 	ldrb.w	r3, [r4, #52]	; 0x34
 8021884:	2b01      	cmp	r3, #1
 8021886:	d035      	beq.n	80218f4 <HAL_DMA_Start_IT+0x98>
 8021888:	2301      	movs	r3, #1
 802188a:	f884 3034 	strb.w	r3, [r4, #52]	; 0x34
  if(HAL_DMA_STATE_READY == hdma->State)
 802188e:	f894 3035 	ldrb.w	r3, [r4, #53]	; 0x35
 8021892:	2b01      	cmp	r3, #1
 8021894:	f04f 0002 	mov.w	r0, #2
 8021898:	f04f 0300 	mov.w	r3, #0
 802189c:	d127      	bne.n	80218ee <HAL_DMA_Start_IT+0x92>
    hdma->State = HAL_DMA_STATE_BUSY;
 802189e:	f884 0035 	strb.w	r0, [r4, #53]	; 0x35
  hdma->Instance->CR &= (uint32_t)(~DMA_SxCR_DBM);
 80218a2:	6820      	ldr	r0, [r4, #0]
    hdma->ErrorCode = HAL_DMA_ERROR_NONE;
 80218a4:	6563      	str	r3, [r4, #84]	; 0x54
  hdma->Instance->CR &= (uint32_t)(~DMA_SxCR_DBM);
 80218a6:	6803      	ldr	r3, [r0, #0]
    regs->IFCR = 0x3FU << hdma->StreamIndex;
 80218a8:	6de2      	ldr	r2, [r4, #92]	; 0x5c
  hdma->Instance->CR &= (uint32_t)(~DMA_SxCR_DBM);
 80218aa:	f423 2380 	bic.w	r3, r3, #262144	; 0x40000
 80218ae:	6003      	str	r3, [r0, #0]
  if((hdma->Init.Direction) == DMA_MEMORY_TO_PERIPH)
 80218b0:	68a3      	ldr	r3, [r4, #8]
  hdma->Instance->NDTR = DataLength;
 80218b2:	6047      	str	r7, [r0, #4]
  if((hdma->Init.Direction) == DMA_MEMORY_TO_PERIPH)
 80218b4:	2b40      	cmp	r3, #64	; 0x40
    regs->IFCR = 0x3FU << hdma->StreamIndex;
 80218b6:	f04f 033f 	mov.w	r3, #63	; 0x3f
 80218ba:	fa03 f302 	lsl.w	r3, r3, r2
    hdma->Instance->PAR = DstAddress;
 80218be:	bf0b      	itete	eq
 80218c0:	6085      	streq	r5, [r0, #8]
    hdma->Instance->PAR = SrcAddress;
 80218c2:	6086      	strne	r6, [r0, #8]
    hdma->Instance->M0AR = SrcAddress;
 80218c4:	60c6      	streq	r6, [r0, #12]
    hdma->Instance->M0AR = DstAddress;
 80218c6:	60c5      	strne	r5, [r0, #12]
    regs->IFCR = 0x3FU << hdma->StreamIndex;
 80218c8:	f8c8 3008 	str.w	r3, [r8, #8]
    hdma->Instance->CR  |= DMA_IT_TC | DMA_IT_TE | DMA_IT_DME;
 80218cc:	6803      	ldr	r3, [r0, #0]
 80218ce:	f043 0316 	orr.w	r3, r3, #22
 80218d2:	6003      	str	r3, [r0, #0]
    if(hdma->XferHalfCpltCallback != NULL)
 80218d4:	6c23      	ldr	r3, [r4, #64]	; 0x40
 80218d6:	b11b      	cbz	r3, 80218e0 <HAL_DMA_Start_IT+0x84>
      hdma->Instance->CR  |= DMA_IT_HT;
 80218d8:	6803      	ldr	r3, [r0, #0]
 80218da:	f043 0308 	orr.w	r3, r3, #8
 80218de:	6003      	str	r3, [r0, #0]
    __HAL_DMA_ENABLE(hdma);
 80218e0:	6803      	ldr	r3, [r0, #0]
 80218e2:	f043 0301 	orr.w	r3, r3, #1
 80218e6:	6003      	str	r3, [r0, #0]
  HAL_StatusTypeDef status = HAL_OK;
 80218e8:	2000      	movs	r0, #0
}
 80218ea:	e8bd 81f0 	ldmia.w	sp!, {r4, r5, r6, r7, r8, pc}
    __HAL_UNLOCK(hdma);	  
 80218ee:	f884 3034 	strb.w	r3, [r4, #52]	; 0x34
    status = HAL_BUSY;
 80218f2:	e7fa      	b.n	80218ea <HAL_DMA_Start_IT+0x8e>
  __HAL_LOCK(hdma);
 80218f4:	2002      	movs	r0, #2
 80218f6:	e7f8      	b.n	80218ea <HAL_DMA_Start_IT+0x8e>
 80218f8:	08028f5e 	.word	0x08028f5e

080218fc <HAL_DMA_Abort>:
{
 80218fc:	b570      	push	{r4, r5, r6, lr}
 80218fe:	4604      	mov	r4, r0
  DMA_Base_Registers *regs = (DMA_Base_Registers *)hdma->StreamBaseAddress;
 8021900:	6d86      	ldr	r6, [r0, #88]	; 0x58
  uint32_t tickstart = HAL_GetTick();
 8021902:	f7ff fdef 	bl	80214e4 <HAL_GetTick>
  if(hdma->State != HAL_DMA_STATE_BUSY)
 8021906:	f894 3035 	ldrb.w	r3, [r4, #53]	; 0x35
 802190a:	2b02      	cmp	r3, #2
  uint32_t tickstart = HAL_GetTick();
 802190c:	4605      	mov	r5, r0
  if(hdma->State != HAL_DMA_STATE_BUSY)
 802190e:	d006      	beq.n	802191e <HAL_DMA_Abort+0x22>
    hdma->ErrorCode = HAL_DMA_ERROR_NO_XFER;
 8021910:	2380      	movs	r3, #128	; 0x80
 8021912:	6563      	str	r3, [r4, #84]	; 0x54
    __HAL_UNLOCK(hdma);
 8021914:	2300      	movs	r3, #0
 8021916:	f884 3034 	strb.w	r3, [r4, #52]	; 0x34
    return HAL_ERROR;
 802191a:	2001      	movs	r0, #1
}
 802191c:	bd70      	pop	{r4, r5, r6, pc}
    hdma->Instance->CR  &= ~(DMA_IT_TC | DMA_IT_TE | DMA_IT_DME);
 802191e:	6823      	ldr	r3, [r4, #0]
 8021920:	681a      	ldr	r2, [r3, #0]
 8021922:	f022 0216 	bic.w	r2, r2, #22
 8021926:	601a      	str	r2, [r3, #0]
    hdma->Instance->FCR &= ~(DMA_IT_FE);
 8021928:	695a      	ldr	r2, [r3, #20]
 802192a:	f022 0280 	bic.w	r2, r2, #128	; 0x80
 802192e:	615a      	str	r2, [r3, #20]
    if((hdma->XferHalfCpltCallback != NULL) || (hdma->XferM1HalfCpltCallback != NULL))
 8021930:	6c22      	ldr	r2, [r4, #64]	; 0x40
 8021932:	b90a      	cbnz	r2, 8021938 <HAL_DMA_Abort+0x3c>
 8021934:	6ca2      	ldr	r2, [r4, #72]	; 0x48
 8021936:	b11a      	cbz	r2, 8021940 <HAL_DMA_Abort+0x44>
      hdma->Instance->CR  &= ~(DMA_IT_HT);
 8021938:	681a      	ldr	r2, [r3, #0]
 802193a:	f022 0208 	bic.w	r2, r2, #8
 802193e:	601a      	str	r2, [r3, #0]
    __HAL_DMA_DISABLE(hdma);
 8021940:	681a      	ldr	r2, [r3, #0]
 8021942:	f022 0201 	bic.w	r2, r2, #1
 8021946:	601a      	str	r2, [r3, #0]
    while((hdma->Instance->CR & DMA_SxCR_EN) != RESET)
 8021948:	6823      	ldr	r3, [r4, #0]
 802194a:	681b      	ldr	r3, [r3, #0]
 802194c:	f013 0301 	ands.w	r3, r3, #1
 8021950:	d10a      	bne.n	8021968 <HAL_DMA_Abort+0x6c>
    regs->IFCR = 0x3FU << hdma->StreamIndex;
 8021952:	6de1      	ldr	r1, [r4, #92]	; 0x5c
 8021954:	223f      	movs	r2, #63	; 0x3f
 8021956:	408a      	lsls	r2, r1
 8021958:	60b2      	str	r2, [r6, #8]
    hdma->State = HAL_DMA_STATE_READY;
 802195a:	2201      	movs	r2, #1
 802195c:	f884 2035 	strb.w	r2, [r4, #53]	; 0x35
    __HAL_UNLOCK(hdma);
 8021960:	f884 3034 	strb.w	r3, [r4, #52]	; 0x34
  return HAL_OK;
 8021964:	4618      	mov	r0, r3
 8021966:	e7d9      	b.n	802191c <HAL_DMA_Abort+0x20>
      if((HAL_GetTick() - tickstart ) > HAL_TIMEOUT_DMA_ABORT)
 8021968:	f7ff fdbc 	bl	80214e4 <HAL_GetTick>
 802196c:	1b40      	subs	r0, r0, r5
 802196e:	2805      	cmp	r0, #5
 8021970:	d9ea      	bls.n	8021948 <HAL_DMA_Abort+0x4c>
        hdma->ErrorCode = HAL_DMA_ERROR_TIMEOUT;
 8021972:	2320      	movs	r3, #32
 8021974:	6563      	str	r3, [r4, #84]	; 0x54
        hdma->State = HAL_DMA_STATE_TIMEOUT;
 8021976:	2003      	movs	r0, #3
        __HAL_UNLOCK(hdma);
 8021978:	2300      	movs	r3, #0
        hdma->State = HAL_DMA_STATE_TIMEOUT;
 802197a:	f884 0035 	strb.w	r0, [r4, #53]	; 0x35
        __HAL_UNLOCK(hdma);
 802197e:	f884 3034 	strb.w	r3, [r4, #52]	; 0x34
        return HAL_TIMEOUT;
 8021982:	e7cb      	b.n	802191c <HAL_DMA_Abort+0x20>

08021984 <HAL_DMA_Abort_IT>:
  if(hdma->State != HAL_DMA_STATE_BUSY)
 8021984:	f890 3035 	ldrb.w	r3, [r0, #53]	; 0x35
 8021988:	2b02      	cmp	r3, #2
 802198a:	d003      	beq.n	8021994 <HAL_DMA_Abort_IT+0x10>
    hdma->ErrorCode = HAL_DMA_ERROR_NO_XFER;
 802198c:	2380      	movs	r3, #128	; 0x80
 802198e:	6543      	str	r3, [r0, #84]	; 0x54
    return HAL_ERROR;
 8021990:	2001      	movs	r0, #1
 8021992:	4770      	bx	lr
    __HAL_DMA_DISABLE(hdma);
 8021994:	6802      	ldr	r2, [r0, #0]
    hdma->State = HAL_DMA_STATE_ABORT;
 8021996:	2305      	movs	r3, #5
 8021998:	f880 3035 	strb.w	r3, [r0, #53]	; 0x35
    __HAL_DMA_DISABLE(hdma);
 802199c:	6813      	ldr	r3, [r2, #0]
 802199e:	f023 0301 	bic.w	r3, r3, #1
 80219a2:	6013      	str	r3, [r2, #0]
  return HAL_OK;
 80219a4:	2000      	movs	r0, #0
}
 80219a6:	4770      	bx	lr

080219a8 <HAL_DMA_IRQHandler>:
{
 80219a8:	b5f7      	push	{r0, r1, r2, r4, r5, r6, r7, lr}
  __IO uint32_t count = 0U;
 80219aa:	2300      	movs	r3, #0
 80219ac:	9301      	str	r3, [sp, #4]
  uint32_t timeout = SystemCoreClock / 9600U;
 80219ae:	4b5c      	ldr	r3, [pc, #368]	; (8021b20 <HAL_DMA_IRQHandler+0x178>)
  DMA_Base_Registers *regs = (DMA_Base_Registers *)hdma->StreamBaseAddress;
 80219b0:	6d85      	ldr	r5, [r0, #88]	; 0x58
  uint32_t timeout = SystemCoreClock / 9600U;
 80219b2:	681f      	ldr	r7, [r3, #0]
  if ((tmpisr & (DMA_FLAG_TEIF0_4 << hdma->StreamIndex)) != RESET)
 80219b4:	6dc3      	ldr	r3, [r0, #92]	; 0x5c
  tmpisr = regs->ISR;
 80219b6:	682e      	ldr	r6, [r5, #0]
  if ((tmpisr & (DMA_FLAG_TEIF0_4 << hdma->StreamIndex)) != RESET)
 80219b8:	2208      	movs	r2, #8
 80219ba:	409a      	lsls	r2, r3
 80219bc:	4232      	tst	r2, r6
{
 80219be:	4604      	mov	r4, r0
  if ((tmpisr & (DMA_FLAG_TEIF0_4 << hdma->StreamIndex)) != RESET)
 80219c0:	d00c      	beq.n	80219dc <HAL_DMA_IRQHandler+0x34>
    if(__HAL_DMA_GET_IT_SOURCE(hdma, DMA_IT_TE) != RESET)
 80219c2:	6801      	ldr	r1, [r0, #0]
 80219c4:	6808      	ldr	r0, [r1, #0]
 80219c6:	0740      	lsls	r0, r0, #29
 80219c8:	d508      	bpl.n	80219dc <HAL_DMA_IRQHandler+0x34>
      hdma->Instance->CR  &= ~(DMA_IT_TE);
 80219ca:	6808      	ldr	r0, [r1, #0]
 80219cc:	f020 0004 	bic.w	r0, r0, #4
 80219d0:	6008      	str	r0, [r1, #0]
      regs->IFCR = DMA_FLAG_TEIF0_4 << hdma->StreamIndex;
 80219d2:	60aa      	str	r2, [r5, #8]
      hdma->ErrorCode |= HAL_DMA_ERROR_TE;
 80219d4:	6d62      	ldr	r2, [r4, #84]	; 0x54
 80219d6:	f042 0201 	orr.w	r2, r2, #1
 80219da:	6562      	str	r2, [r4, #84]	; 0x54
  if ((tmpisr & (DMA_FLAG_FEIF0_4 << hdma->StreamIndex)) != RESET)
 80219dc:	2201      	movs	r2, #1
 80219de:	409a      	lsls	r2, r3
 80219e0:	4232      	tst	r2, r6
 80219e2:	d008      	beq.n	80219f6 <HAL_DMA_IRQHandler+0x4e>
    if(__HAL_DMA_GET_IT_SOURCE(hdma, DMA_IT_FE) != RESET)
 80219e4:	6821      	ldr	r1, [r4, #0]
 80219e6:	6949      	ldr	r1, [r1, #20]
 80219e8:	0609      	lsls	r1, r1, #24
      regs->IFCR = DMA_FLAG_FEIF0_4 << hdma->StreamIndex;
 80219ea:	bf41      	itttt	mi
 80219ec:	60aa      	strmi	r2, [r5, #8]
      hdma->ErrorCode |= HAL_DMA_ERROR_FE;
 80219ee:	6d62      	ldrmi	r2, [r4, #84]	; 0x54
 80219f0:	f042 0202 	orrmi.w	r2, r2, #2
 80219f4:	6562      	strmi	r2, [r4, #84]	; 0x54
  if ((tmpisr & (DMA_FLAG_DMEIF0_4 << hdma->StreamIndex)) != RESET)
 80219f6:	2204      	movs	r2, #4
 80219f8:	409a      	lsls	r2, r3
 80219fa:	4232      	tst	r2, r6
 80219fc:	d008      	beq.n	8021a10 <HAL_DMA_IRQHandler+0x68>
    if(__HAL_DMA_GET_IT_SOURCE(hdma, DMA_IT_DME) != RESET)
 80219fe:	6821      	ldr	r1, [r4, #0]
 8021a00:	6809      	ldr	r1, [r1, #0]
 8021a02:	0788      	lsls	r0, r1, #30
      regs->IFCR = DMA_FLAG_DMEIF0_4 << hdma->StreamIndex;
 8021a04:	bf41      	itttt	mi
 8021a06:	60aa      	strmi	r2, [r5, #8]
      hdma->ErrorCode |= HAL_DMA_ERROR_DME;
 8021a08:	6d62      	ldrmi	r2, [r4, #84]	; 0x54
 8021a0a:	f042 0204 	orrmi.w	r2, r2, #4
 8021a0e:	6562      	strmi	r2, [r4, #84]	; 0x54
  if ((tmpisr & (DMA_FLAG_HTIF0_4 << hdma->StreamIndex)) != RESET)
 8021a10:	2210      	movs	r2, #16
 8021a12:	409a      	lsls	r2, r3
 8021a14:	4232      	tst	r2, r6
 8021a16:	d010      	beq.n	8021a3a <HAL_DMA_IRQHandler+0x92>
    if(__HAL_DMA_GET_IT_SOURCE(hdma, DMA_IT_HT) != RESET)
 8021a18:	6823      	ldr	r3, [r4, #0]
 8021a1a:	6819      	ldr	r1, [r3, #0]
 8021a1c:	0709      	lsls	r1, r1, #28
 8021a1e:	d50c      	bpl.n	8021a3a <HAL_DMA_IRQHandler+0x92>
      regs->IFCR = DMA_FLAG_HTIF0_4 << hdma->StreamIndex;
 8021a20:	60aa      	str	r2, [r5, #8]
      if(((hdma->Instance->CR) & (uint32_t)(DMA_SxCR_DBM)) != RESET)
 8021a22:	681a      	ldr	r2, [r3, #0]
 8021a24:	0350      	lsls	r0, r2, #13
 8021a26:	d537      	bpl.n	8021a98 <HAL_DMA_IRQHandler+0xf0>
        if((hdma->Instance->CR & DMA_SxCR_CT) == RESET)
 8021a28:	681b      	ldr	r3, [r3, #0]
 8021a2a:	0319      	lsls	r1, r3, #12
 8021a2c:	d401      	bmi.n	8021a32 <HAL_DMA_IRQHandler+0x8a>
        if(hdma->XferHalfCpltCallback != NULL)
 8021a2e:	6c23      	ldr	r3, [r4, #64]	; 0x40
 8021a30:	e000      	b.n	8021a34 <HAL_DMA_IRQHandler+0x8c>
          if(hdma->XferM1HalfCpltCallback != NULL)
 8021a32:	6ca3      	ldr	r3, [r4, #72]	; 0x48
        if(hdma->XferHalfCpltCallback != NULL)
 8021a34:	b10b      	cbz	r3, 8021a3a <HAL_DMA_IRQHandler+0x92>
          hdma->XferHalfCpltCallback(hdma);
 8021a36:	4620      	mov	r0, r4
 8021a38:	4798      	blx	r3
  if ((tmpisr & (DMA_FLAG_TCIF0_4 << hdma->StreamIndex)) != RESET)
 8021a3a:	6de1      	ldr	r1, [r4, #92]	; 0x5c
 8021a3c:	2220      	movs	r2, #32
 8021a3e:	408a      	lsls	r2, r1
 8021a40:	4232      	tst	r2, r6
 8021a42:	d03a      	beq.n	8021aba <HAL_DMA_IRQHandler+0x112>
    if(__HAL_DMA_GET_IT_SOURCE(hdma, DMA_IT_TC) != RESET)
 8021a44:	6823      	ldr	r3, [r4, #0]
 8021a46:	6818      	ldr	r0, [r3, #0]
 8021a48:	06c6      	lsls	r6, r0, #27
 8021a4a:	d536      	bpl.n	8021aba <HAL_DMA_IRQHandler+0x112>
      regs->IFCR = DMA_FLAG_TCIF0_4 << hdma->StreamIndex;
 8021a4c:	60aa      	str	r2, [r5, #8]
      if(HAL_DMA_STATE_ABORT == hdma->State)
 8021a4e:	f894 2035 	ldrb.w	r2, [r4, #53]	; 0x35
 8021a52:	2a05      	cmp	r2, #5
        hdma->Instance->CR  &= ~(DMA_IT_TC | DMA_IT_TE | DMA_IT_DME);
 8021a54:	681a      	ldr	r2, [r3, #0]
      if(HAL_DMA_STATE_ABORT == hdma->State)
 8021a56:	d127      	bne.n	8021aa8 <HAL_DMA_IRQHandler+0x100>
        hdma->Instance->CR  &= ~(DMA_IT_TC | DMA_IT_TE | DMA_IT_DME);
 8021a58:	f022 0216 	bic.w	r2, r2, #22
 8021a5c:	601a      	str	r2, [r3, #0]
        hdma->Instance->FCR &= ~(DMA_IT_FE);
 8021a5e:	695a      	ldr	r2, [r3, #20]
 8021a60:	f022 0280 	bic.w	r2, r2, #128	; 0x80
 8021a64:	615a      	str	r2, [r3, #20]
        if((hdma->XferHalfCpltCallback != NULL) || (hdma->XferM1HalfCpltCallback != NULL))
 8021a66:	6c22      	ldr	r2, [r4, #64]	; 0x40
 8021a68:	b90a      	cbnz	r2, 8021a6e <HAL_DMA_IRQHandler+0xc6>
 8021a6a:	6ca2      	ldr	r2, [r4, #72]	; 0x48
 8021a6c:	b11a      	cbz	r2, 8021a76 <HAL_DMA_IRQHandler+0xce>
          hdma->Instance->CR  &= ~(DMA_IT_HT);
 8021a6e:	681a      	ldr	r2, [r3, #0]
 8021a70:	f022 0208 	bic.w	r2, r2, #8
 8021a74:	601a      	str	r2, [r3, #0]
        regs->IFCR = 0x3FU << hdma->StreamIndex;
 8021a76:	233f      	movs	r3, #63	; 0x3f
 8021a78:	408b      	lsls	r3, r1
 8021a7a:	60ab      	str	r3, [r5, #8]
        hdma->State = HAL_DMA_STATE_READY;
 8021a7c:	2301      	movs	r3, #1
 8021a7e:	f884 3035 	strb.w	r3, [r4, #53]	; 0x35
        __HAL_UNLOCK(hdma);
 8021a82:	2300      	movs	r3, #0
 8021a84:	f884 3034 	strb.w	r3, [r4, #52]	; 0x34
        if(hdma->XferAbortCallback != NULL)
 8021a88:	6d23      	ldr	r3, [r4, #80]	; 0x50
    if(hdma->XferErrorCallback != NULL)
 8021a8a:	2b00      	cmp	r3, #0
 8021a8c:	d045      	beq.n	8021b1a <HAL_DMA_IRQHandler+0x172>
      hdma->XferErrorCallback(hdma);
 8021a8e:	4620      	mov	r0, r4
}
 8021a90:	b003      	add	sp, #12
 8021a92:	e8bd 40f0 	ldmia.w	sp!, {r4, r5, r6, r7, lr}
      hdma->XferErrorCallback(hdma);
 8021a96:	4718      	bx	r3
        if((hdma->Instance->CR & DMA_SxCR_CIRC) == RESET)
 8021a98:	681a      	ldr	r2, [r3, #0]
 8021a9a:	05d2      	lsls	r2, r2, #23
          hdma->Instance->CR  &= ~(DMA_IT_HT);
 8021a9c:	bf5e      	ittt	pl
 8021a9e:	681a      	ldrpl	r2, [r3, #0]
 8021aa0:	f022 0208 	bicpl.w	r2, r2, #8
 8021aa4:	601a      	strpl	r2, [r3, #0]
 8021aa6:	e7c2      	b.n	8021a2e <HAL_DMA_IRQHandler+0x86>
      if(((hdma->Instance->CR) & (uint32_t)(DMA_SxCR_DBM)) != RESET)
 8021aa8:	0350      	lsls	r0, r2, #13
 8021aaa:	d527      	bpl.n	8021afc <HAL_DMA_IRQHandler+0x154>
        if((hdma->Instance->CR & DMA_SxCR_CT) == RESET)
 8021aac:	681b      	ldr	r3, [r3, #0]
 8021aae:	0319      	lsls	r1, r3, #12
 8021ab0:	d431      	bmi.n	8021b16 <HAL_DMA_IRQHandler+0x16e>
          if(hdma->XferM1CpltCallback != NULL)
 8021ab2:	6c63      	ldr	r3, [r4, #68]	; 0x44
        if(hdma->XferCpltCallback != NULL)
 8021ab4:	b10b      	cbz	r3, 8021aba <HAL_DMA_IRQHandler+0x112>
          hdma->XferCpltCallback(hdma);
 8021ab6:	4620      	mov	r0, r4
 8021ab8:	4798      	blx	r3
  if(hdma->ErrorCode != HAL_DMA_ERROR_NONE)
 8021aba:	6d63      	ldr	r3, [r4, #84]	; 0x54
 8021abc:	b36b      	cbz	r3, 8021b1a <HAL_DMA_IRQHandler+0x172>
    if((hdma->ErrorCode & HAL_DMA_ERROR_TE) != RESET)
 8021abe:	6d63      	ldr	r3, [r4, #84]	; 0x54
 8021ac0:	07da      	lsls	r2, r3, #31
 8021ac2:	d519      	bpl.n	8021af8 <HAL_DMA_IRQHandler+0x150>
      __HAL_DMA_DISABLE(hdma);
 8021ac4:	6822      	ldr	r2, [r4, #0]
  uint32_t timeout = SystemCoreClock / 9600U;
 8021ac6:	f44f 5316 	mov.w	r3, #9600	; 0x2580
 8021aca:	fbb7 f7f3 	udiv	r7, r7, r3
      hdma->State = HAL_DMA_STATE_ABORT;
 8021ace:	2305      	movs	r3, #5
 8021ad0:	f884 3035 	strb.w	r3, [r4, #53]	; 0x35
      __HAL_DMA_DISABLE(hdma);
 8021ad4:	6813      	ldr	r3, [r2, #0]
 8021ad6:	f023 0301 	bic.w	r3, r3, #1
 8021ada:	6013      	str	r3, [r2, #0]
        if (++count > timeout)
 8021adc:	9b01      	ldr	r3, [sp, #4]
 8021ade:	3301      	adds	r3, #1
 8021ae0:	42bb      	cmp	r3, r7
 8021ae2:	9301      	str	r3, [sp, #4]
 8021ae4:	d802      	bhi.n	8021aec <HAL_DMA_IRQHandler+0x144>
      while((hdma->Instance->CR & DMA_SxCR_EN) != RESET);
 8021ae6:	6813      	ldr	r3, [r2, #0]
 8021ae8:	07db      	lsls	r3, r3, #31
 8021aea:	d4f7      	bmi.n	8021adc <HAL_DMA_IRQHandler+0x134>
      hdma->State = HAL_DMA_STATE_READY;
 8021aec:	2301      	movs	r3, #1
 8021aee:	f884 3035 	strb.w	r3, [r4, #53]	; 0x35
      __HAL_UNLOCK(hdma);
 8021af2:	2300      	movs	r3, #0
 8021af4:	f884 3034 	strb.w	r3, [r4, #52]	; 0x34
    if(hdma->XferErrorCallback != NULL)
 8021af8:	6ce3      	ldr	r3, [r4, #76]	; 0x4c
 8021afa:	e7c6      	b.n	8021a8a <HAL_DMA_IRQHandler+0xe2>
        if((hdma->Instance->CR & DMA_SxCR_CIRC) == RESET)
 8021afc:	681a      	ldr	r2, [r3, #0]
 8021afe:	f412 7280 	ands.w	r2, r2, #256	; 0x100
 8021b02:	d108      	bne.n	8021b16 <HAL_DMA_IRQHandler+0x16e>
          hdma->Instance->CR  &= ~(DMA_IT_TC);
 8021b04:	6819      	ldr	r1, [r3, #0]
 8021b06:	f021 0110 	bic.w	r1, r1, #16
 8021b0a:	6019      	str	r1, [r3, #0]
          hdma->State = HAL_DMA_STATE_READY;
 8021b0c:	2301      	movs	r3, #1
 8021b0e:	f884 3035 	strb.w	r3, [r4, #53]	; 0x35
          __HAL_UNLOCK(hdma);
 8021b12:	f884 2034 	strb.w	r2, [r4, #52]	; 0x34
        if(hdma->XferCpltCallback != NULL)
 8021b16:	6be3      	ldr	r3, [r4, #60]	; 0x3c
 8021b18:	e7cc      	b.n	8021ab4 <HAL_DMA_IRQHandler+0x10c>
}
 8021b1a:	b003      	add	sp, #12
 8021b1c:	bdf0      	pop	{r4, r5, r6, r7, pc}
 8021b1e:	bf00      	nop
 8021b20:	20000000 	.word	0x20000000

08021b24 <FLASH_SetErrorCode>:
  * @brief  Set the specific FLASH error flag.
  * @retval None
  */
static void FLASH_SetErrorCode(void)
{ 
  if(__HAL_FLASH_GET_FLAG(FLASH_FLAG_WRPERR) != RESET)
 8021b24:	4b20      	ldr	r3, [pc, #128]	; (8021ba8 <FLASH_SetErrorCode+0x84>)
 8021b26:	68da      	ldr	r2, [r3, #12]
 8021b28:	06d0      	lsls	r0, r2, #27
 8021b2a:	d506      	bpl.n	8021b3a <FLASH_SetErrorCode+0x16>
  {
   pFlash.ErrorCode |= HAL_FLASH_ERROR_WRP;
 8021b2c:	491f      	ldr	r1, [pc, #124]	; (8021bac <FLASH_SetErrorCode+0x88>)
 8021b2e:	69ca      	ldr	r2, [r1, #28]
 8021b30:	f042 0210 	orr.w	r2, r2, #16
 8021b34:	61ca      	str	r2, [r1, #28]
   
   /* Clear FLASH write protection error pending bit */
   __HAL_FLASH_CLEAR_FLAG(FLASH_FLAG_WRPERR);
 8021b36:	2210      	movs	r2, #16
 8021b38:	60da      	str	r2, [r3, #12]
  }
  
  if(__HAL_FLASH_GET_FLAG(FLASH_FLAG_PGAERR) != RESET)
 8021b3a:	68da      	ldr	r2, [r3, #12]
 8021b3c:	0691      	lsls	r1, r2, #26
 8021b3e:	d506      	bpl.n	8021b4e <FLASH_SetErrorCode+0x2a>
  {
   pFlash.ErrorCode |= HAL_FLASH_ERROR_PGA;
 8021b40:	491a      	ldr	r1, [pc, #104]	; (8021bac <FLASH_SetErrorCode+0x88>)
 8021b42:	69ca      	ldr	r2, [r1, #28]
 8021b44:	f042 0208 	orr.w	r2, r2, #8
 8021b48:	61ca      	str	r2, [r1, #28]
   
   /* Clear FLASH Programming alignment error pending bit */
   __HAL_FLASH_CLEAR_FLAG(FLASH_FLAG_PGAERR);
 8021b4a:	2220      	movs	r2, #32
 8021b4c:	60da      	str	r2, [r3, #12]
  }
  
  if(__HAL_FLASH_GET_FLAG(FLASH_FLAG_PGPERR) != RESET)
 8021b4e:	4b16      	ldr	r3, [pc, #88]	; (8021ba8 <FLASH_SetErrorCode+0x84>)
 8021b50:	68da      	ldr	r2, [r3, #12]
 8021b52:	0652      	lsls	r2, r2, #25
 8021b54:	d506      	bpl.n	8021b64 <FLASH_SetErrorCode+0x40>
  {
    pFlash.ErrorCode |= HAL_FLASH_ERROR_PGP;
 8021b56:	4915      	ldr	r1, [pc, #84]	; (8021bac <FLASH_SetErrorCode+0x88>)
 8021b58:	69ca      	ldr	r2, [r1, #28]
 8021b5a:	f042 0204 	orr.w	r2, r2, #4
 8021b5e:	61ca      	str	r2, [r1, #28]
    
    /* Clear FLASH Programming parallelism error pending bit */
    __HAL_FLASH_CLEAR_FLAG(FLASH_FLAG_PGPERR);
 8021b60:	2240      	movs	r2, #64	; 0x40
 8021b62:	60da      	str	r2, [r3, #12]
  }
  
  if(__HAL_FLASH_GET_FLAG(FLASH_FLAG_PGSERR) != RESET)
 8021b64:	68da      	ldr	r2, [r3, #12]
 8021b66:	0610      	lsls	r0, r2, #24
 8021b68:	d506      	bpl.n	8021b78 <FLASH_SetErrorCode+0x54>
  {
    pFlash.ErrorCode |= HAL_FLASH_ERROR_PGS;
 8021b6a:	4910      	ldr	r1, [pc, #64]	; (8021bac <FLASH_SetErrorCode+0x88>)
 8021b6c:	69ca      	ldr	r2, [r1, #28]
 8021b6e:	f042 0202 	orr.w	r2, r2, #2
 8021b72:	61ca      	str	r2, [r1, #28]
    
    /* Clear FLASH Programming sequence error pending bit */
    __HAL_FLASH_CLEAR_FLAG(FLASH_FLAG_PGSERR);
 8021b74:	2280      	movs	r2, #128	; 0x80
 8021b76:	60da      	str	r2, [r3, #12]
  }
#if defined(FLASH_SR_RDERR) 
  if(__HAL_FLASH_GET_FLAG(FLASH_FLAG_RDERR) != RESET)
 8021b78:	4b0b      	ldr	r3, [pc, #44]	; (8021ba8 <FLASH_SetErrorCode+0x84>)
 8021b7a:	68da      	ldr	r2, [r3, #12]
 8021b7c:	05d1      	lsls	r1, r2, #23
 8021b7e:	d507      	bpl.n	8021b90 <FLASH_SetErrorCode+0x6c>
  {
    pFlash.ErrorCode |= HAL_FLASH_ERROR_RD;
 8021b80:	490a      	ldr	r1, [pc, #40]	; (8021bac <FLASH_SetErrorCode+0x88>)
 8021b82:	69ca      	ldr	r2, [r1, #28]
 8021b84:	f042 0201 	orr.w	r2, r2, #1
 8021b88:	61ca      	str	r2, [r1, #28]
    
    /* Clear FLASH Proprietary readout protection error pending bit */
    __HAL_FLASH_CLEAR_FLAG(FLASH_FLAG_RDERR);
 8021b8a:	f44f 7280 	mov.w	r2, #256	; 0x100
 8021b8e:	60da      	str	r2, [r3, #12]
  }
#endif /* FLASH_SR_RDERR */  
  if(__HAL_FLASH_GET_FLAG(FLASH_FLAG_OPERR) != RESET)
 8021b90:	68da      	ldr	r2, [r3, #12]
 8021b92:	0792      	lsls	r2, r2, #30
 8021b94:	d506      	bpl.n	8021ba4 <FLASH_SetErrorCode+0x80>
  {
    pFlash.ErrorCode |= HAL_FLASH_ERROR_OPERATION;
 8021b96:	4905      	ldr	r1, [pc, #20]	; (8021bac <FLASH_SetErrorCode+0x88>)
 8021b98:	69ca      	ldr	r2, [r1, #28]
 8021b9a:	f042 0220 	orr.w	r2, r2, #32
 8021b9e:	61ca      	str	r2, [r1, #28]
    
    /* Clear FLASH Operation error pending bit */
    __HAL_FLASH_CLEAR_FLAG(FLASH_FLAG_OPERR);
 8021ba0:	2202      	movs	r2, #2
 8021ba2:	60da      	str	r2, [r3, #12]
  }
}
 8021ba4:	4770      	bx	lr
 8021ba6:	bf00      	nop
 8021ba8:	40023c00 	.word	0x40023c00
 8021bac:	20007a60 	.word	0x20007a60

08021bb0 <FLASH_Program_Byte>:
{
 8021bb0:	b538      	push	{r3, r4, r5, lr}
  assert_param(IS_FLASH_ADDRESS(Address));
 8021bb2:	f100 4378 	add.w	r3, r0, #4160749568	; 0xf8000000
 8021bb6:	f5b3 1f80 	cmp.w	r3, #1048576	; 0x100000
{
 8021bba:	4604      	mov	r4, r0
 8021bbc:	460d      	mov	r5, r1
  assert_param(IS_FLASH_ADDRESS(Address));
 8021bbe:	d30b      	bcc.n	8021bd8 <FLASH_Program_Byte+0x28>
 8021bc0:	f100 4360 	add.w	r3, r0, #3758096384	; 0xe0000000
 8021bc4:	f503 4308 	add.w	r3, r3, #34816	; 0x8800
 8021bc8:	f5b3 7f04 	cmp.w	r3, #528	; 0x210
 8021bcc:	d304      	bcc.n	8021bd8 <FLASH_Program_Byte+0x28>
 8021bce:	4809      	ldr	r0, [pc, #36]	; (8021bf4 <FLASH_Program_Byte+0x44>)
 8021bd0:	f240 21b9 	movw	r1, #697	; 0x2b9
 8021bd4:	f7ff f859 	bl	8020c8a <assert_failed>
  CLEAR_BIT(FLASH->CR, FLASH_CR_PSIZE);
 8021bd8:	4b07      	ldr	r3, [pc, #28]	; (8021bf8 <FLASH_Program_Byte+0x48>)
 8021bda:	691a      	ldr	r2, [r3, #16]
 8021bdc:	f422 7240 	bic.w	r2, r2, #768	; 0x300
 8021be0:	611a      	str	r2, [r3, #16]
  FLASH->CR |= FLASH_PSIZE_BYTE;
 8021be2:	691a      	ldr	r2, [r3, #16]
 8021be4:	611a      	str	r2, [r3, #16]
  FLASH->CR |= FLASH_CR_PG;
 8021be6:	691a      	ldr	r2, [r3, #16]
 8021be8:	f042 0201 	orr.w	r2, r2, #1
 8021bec:	611a      	str	r2, [r3, #16]
  *(__IO uint8_t*)Address = Data;
 8021bee:	7025      	strb	r5, [r4, #0]
}
 8021bf0:	bd38      	pop	{r3, r4, r5, pc}
 8021bf2:	bf00      	nop
 8021bf4:	08028f9e 	.word	0x08028f9e
 8021bf8:	40023c00 	.word	0x40023c00

08021bfc <FLASH_Program_HalfWord>:
{
 8021bfc:	b538      	push	{r3, r4, r5, lr}
  assert_param(IS_FLASH_ADDRESS(Address));
 8021bfe:	f100 4378 	add.w	r3, r0, #4160749568	; 0xf8000000
 8021c02:	f5b3 1f80 	cmp.w	r3, #1048576	; 0x100000
{
 8021c06:	4604      	mov	r4, r0
 8021c08:	460d      	mov	r5, r1
  assert_param(IS_FLASH_ADDRESS(Address));
 8021c0a:	d30b      	bcc.n	8021c24 <FLASH_Program_HalfWord+0x28>
 8021c0c:	f100 4360 	add.w	r3, r0, #3758096384	; 0xe0000000
 8021c10:	f503 4308 	add.w	r3, r3, #34816	; 0x8800
 8021c14:	f5b3 7f04 	cmp.w	r3, #528	; 0x210
 8021c18:	d304      	bcc.n	8021c24 <FLASH_Program_HalfWord+0x28>
 8021c1a:	480a      	ldr	r0, [pc, #40]	; (8021c44 <FLASH_Program_HalfWord+0x48>)
 8021c1c:	f44f 7128 	mov.w	r1, #672	; 0x2a0
 8021c20:	f7ff f833 	bl	8020c8a <assert_failed>
  CLEAR_BIT(FLASH->CR, FLASH_CR_PSIZE);
 8021c24:	4b08      	ldr	r3, [pc, #32]	; (8021c48 <FLASH_Program_HalfWord+0x4c>)
 8021c26:	691a      	ldr	r2, [r3, #16]
 8021c28:	f422 7240 	bic.w	r2, r2, #768	; 0x300
 8021c2c:	611a      	str	r2, [r3, #16]
  FLASH->CR |= FLASH_PSIZE_HALF_WORD;
 8021c2e:	691a      	ldr	r2, [r3, #16]
 8021c30:	f442 7280 	orr.w	r2, r2, #256	; 0x100
 8021c34:	611a      	str	r2, [r3, #16]
  FLASH->CR |= FLASH_CR_PG;
 8021c36:	691a      	ldr	r2, [r3, #16]
 8021c38:	f042 0201 	orr.w	r2, r2, #1
 8021c3c:	611a      	str	r2, [r3, #16]
  *(__IO uint16_t*)Address = Data;
 8021c3e:	8025      	strh	r5, [r4, #0]
}
 8021c40:	bd38      	pop	{r3, r4, r5, pc}
 8021c42:	bf00      	nop
 8021c44:	08028f9e 	.word	0x08028f9e
 8021c48:	40023c00 	.word	0x40023c00

08021c4c <FLASH_Program_Word>:
{
 8021c4c:	b538      	push	{r3, r4, r5, lr}
  assert_param(IS_FLASH_ADDRESS(Address));
 8021c4e:	f100 4378 	add.w	r3, r0, #4160749568	; 0xf8000000
 8021c52:	f5b3 1f80 	cmp.w	r3, #1048576	; 0x100000
{
 8021c56:	4604      	mov	r4, r0
 8021c58:	460d      	mov	r5, r1
  assert_param(IS_FLASH_ADDRESS(Address));
 8021c5a:	d30b      	bcc.n	8021c74 <FLASH_Program_Word+0x28>
 8021c5c:	f100 4360 	add.w	r3, r0, #3758096384	; 0xe0000000
 8021c60:	f503 4308 	add.w	r3, r3, #34816	; 0x8800
 8021c64:	f5b3 7f04 	cmp.w	r3, #528	; 0x210
 8021c68:	d304      	bcc.n	8021c74 <FLASH_Program_Word+0x28>
 8021c6a:	480a      	ldr	r0, [pc, #40]	; (8021c94 <FLASH_Program_Word+0x48>)
 8021c6c:	f240 2187 	movw	r1, #647	; 0x287
 8021c70:	f7ff f80b 	bl	8020c8a <assert_failed>
  CLEAR_BIT(FLASH->CR, FLASH_CR_PSIZE);
 8021c74:	4b08      	ldr	r3, [pc, #32]	; (8021c98 <FLASH_Program_Word+0x4c>)
 8021c76:	691a      	ldr	r2, [r3, #16]
 8021c78:	f422 7240 	bic.w	r2, r2, #768	; 0x300
 8021c7c:	611a      	str	r2, [r3, #16]
  FLASH->CR |= FLASH_PSIZE_WORD;
 8021c7e:	691a      	ldr	r2, [r3, #16]
 8021c80:	f442 7200 	orr.w	r2, r2, #512	; 0x200
 8021c84:	611a      	str	r2, [r3, #16]
  FLASH->CR |= FLASH_CR_PG;
 8021c86:	691a      	ldr	r2, [r3, #16]
 8021c88:	f042 0201 	orr.w	r2, r2, #1
 8021c8c:	611a      	str	r2, [r3, #16]
  *(__IO uint32_t*)Address = Data;
 8021c8e:	6025      	str	r5, [r4, #0]
}
 8021c90:	bd38      	pop	{r3, r4, r5, pc}
 8021c92:	bf00      	nop
 8021c94:	08028f9e 	.word	0x08028f9e
 8021c98:	40023c00 	.word	0x40023c00

08021c9c <FLASH_Program_DoubleWord>:
{
 8021c9c:	b570      	push	{r4, r5, r6, lr}
 8021c9e:	461d      	mov	r5, r3
  assert_param(IS_FLASH_ADDRESS(Address));
 8021ca0:	f100 4378 	add.w	r3, r0, #4160749568	; 0xf8000000
 8021ca4:	f5b3 1f80 	cmp.w	r3, #1048576	; 0x100000
{
 8021ca8:	4604      	mov	r4, r0
 8021caa:	4616      	mov	r6, r2
  assert_param(IS_FLASH_ADDRESS(Address));
 8021cac:	d30b      	bcc.n	8021cc6 <FLASH_Program_DoubleWord+0x2a>
 8021cae:	f100 4360 	add.w	r3, r0, #3758096384	; 0xe0000000
 8021cb2:	f503 4308 	add.w	r3, r3, #34816	; 0x8800
 8021cb6:	f5b3 7f04 	cmp.w	r3, #528	; 0x210
 8021cba:	d304      	bcc.n	8021cc6 <FLASH_Program_DoubleWord+0x2a>
 8021cbc:	480b      	ldr	r0, [pc, #44]	; (8021cec <FLASH_Program_DoubleWord+0x50>)
 8021cbe:	f240 2165 	movw	r1, #613	; 0x265
 8021cc2:	f7fe ffe2 	bl	8020c8a <assert_failed>
  CLEAR_BIT(FLASH->CR, FLASH_CR_PSIZE);
 8021cc6:	490a      	ldr	r1, [pc, #40]	; (8021cf0 <FLASH_Program_DoubleWord+0x54>)
 8021cc8:	690b      	ldr	r3, [r1, #16]
 8021cca:	f423 7340 	bic.w	r3, r3, #768	; 0x300
 8021cce:	610b      	str	r3, [r1, #16]
  FLASH->CR |= FLASH_PSIZE_DOUBLE_WORD;
 8021cd0:	690b      	ldr	r3, [r1, #16]
 8021cd2:	f443 7340 	orr.w	r3, r3, #768	; 0x300
 8021cd6:	610b      	str	r3, [r1, #16]
  FLASH->CR |= FLASH_CR_PG;
 8021cd8:	690b      	ldr	r3, [r1, #16]
 8021cda:	f043 0301 	orr.w	r3, r3, #1
 8021cde:	610b      	str	r3, [r1, #16]
  *(__IO uint32_t*)Address = (uint32_t)Data;
 8021ce0:	6026      	str	r6, [r4, #0]
           so that all instructions following the ISB are fetched from cache or memory,
           after the instruction has been completed.
 */
__STATIC_FORCEINLINE void __ISB(void)
{
  __ASM volatile ("isb 0xF":::"memory");
 8021ce2:	f3bf 8f6f 	isb	sy
  *(__IO uint32_t*)(Address+4) = (uint32_t)(Data >> 32);
 8021ce6:	6065      	str	r5, [r4, #4]
}
 8021ce8:	bd70      	pop	{r4, r5, r6, pc}
 8021cea:	bf00      	nop
 8021cec:	08028f9e 	.word	0x08028f9e
 8021cf0:	40023c00 	.word	0x40023c00

08021cf4 <HAL_FLASH_Unlock>:
  if(READ_BIT(FLASH->CR, FLASH_CR_LOCK) != RESET)
 8021cf4:	4b06      	ldr	r3, [pc, #24]	; (8021d10 <HAL_FLASH_Unlock+0x1c>)
 8021cf6:	691a      	ldr	r2, [r3, #16]
 8021cf8:	2a00      	cmp	r2, #0
    WRITE_REG(FLASH->KEYR, FLASH_KEY1);
 8021cfa:	bfbf      	itttt	lt
 8021cfc:	4a05      	ldrlt	r2, [pc, #20]	; (8021d14 <HAL_FLASH_Unlock+0x20>)
 8021cfe:	605a      	strlt	r2, [r3, #4]
    WRITE_REG(FLASH->KEYR, FLASH_KEY2);
 8021d00:	f102 3288 	addlt.w	r2, r2, #2290649224	; 0x88888888
 8021d04:	605a      	strlt	r2, [r3, #4]
    if(READ_BIT(FLASH->CR, FLASH_CR_LOCK) != RESET)
 8021d06:	bfba      	itte	lt
 8021d08:	6918      	ldrlt	r0, [r3, #16]
  HAL_StatusTypeDef status = HAL_OK;
 8021d0a:	0fc0      	lsrlt	r0, r0, #31
 8021d0c:	2000      	movge	r0, #0
}
 8021d0e:	4770      	bx	lr
 8021d10:	40023c00 	.word	0x40023c00
 8021d14:	45670123 	.word	0x45670123

08021d18 <HAL_FLASH_Lock>:
  FLASH->CR |= FLASH_CR_LOCK;
 8021d18:	4a03      	ldr	r2, [pc, #12]	; (8021d28 <HAL_FLASH_Lock+0x10>)
 8021d1a:	6913      	ldr	r3, [r2, #16]
 8021d1c:	f043 4300 	orr.w	r3, r3, #2147483648	; 0x80000000
 8021d20:	6113      	str	r3, [r2, #16]
}
 8021d22:	2000      	movs	r0, #0
 8021d24:	4770      	bx	lr
 8021d26:	bf00      	nop
 8021d28:	40023c00 	.word	0x40023c00

08021d2c <FLASH_WaitForLastOperation>:
{ 
 8021d2c:	b5f8      	push	{r3, r4, r5, r6, r7, lr}
  pFlash.ErrorCode = HAL_FLASH_ERROR_NONE;
 8021d2e:	4b12      	ldr	r3, [pc, #72]	; (8021d78 <FLASH_WaitForLastOperation+0x4c>)
  while(__HAL_FLASH_GET_FLAG(FLASH_FLAG_BSY) != RESET) 
 8021d30:	4d12      	ldr	r5, [pc, #72]	; (8021d7c <FLASH_WaitForLastOperation+0x50>)
  pFlash.ErrorCode = HAL_FLASH_ERROR_NONE;
 8021d32:	2200      	movs	r2, #0
{ 
 8021d34:	4604      	mov	r4, r0
  pFlash.ErrorCode = HAL_FLASH_ERROR_NONE;
 8021d36:	61da      	str	r2, [r3, #28]
  tickstart = HAL_GetTick();
 8021d38:	f7ff fbd4 	bl	80214e4 <HAL_GetTick>
 8021d3c:	462f      	mov	r7, r5
 8021d3e:	4606      	mov	r6, r0
  while(__HAL_FLASH_GET_FLAG(FLASH_FLAG_BSY) != RESET) 
 8021d40:	68eb      	ldr	r3, [r5, #12]
 8021d42:	03da      	lsls	r2, r3, #15
 8021d44:	d40c      	bmi.n	8021d60 <FLASH_WaitForLastOperation+0x34>
  if (__HAL_FLASH_GET_FLAG(FLASH_FLAG_EOP) != RESET)
 8021d46:	68eb      	ldr	r3, [r5, #12]
 8021d48:	07db      	lsls	r3, r3, #31
    __HAL_FLASH_CLEAR_FLAG(FLASH_FLAG_EOP);
 8021d4a:	bf44      	itt	mi
 8021d4c:	2301      	movmi	r3, #1
 8021d4e:	60eb      	strmi	r3, [r5, #12]
  if(__HAL_FLASH_GET_FLAG((FLASH_FLAG_OPERR | FLASH_FLAG_WRPERR | FLASH_FLAG_PGAERR | \
 8021d50:	68f8      	ldr	r0, [r7, #12]
 8021d52:	f410 70f9 	ands.w	r0, r0, #498	; 0x1f2
 8021d56:	d007      	beq.n	8021d68 <FLASH_WaitForLastOperation+0x3c>
    FLASH_SetErrorCode();
 8021d58:	f7ff fee4 	bl	8021b24 <FLASH_SetErrorCode>
    return HAL_ERROR;
 8021d5c:	2001      	movs	r0, #1
 8021d5e:	e003      	b.n	8021d68 <FLASH_WaitForLastOperation+0x3c>
    if(Timeout != HAL_MAX_DELAY)
 8021d60:	1c61      	adds	r1, r4, #1
 8021d62:	d0ed      	beq.n	8021d40 <FLASH_WaitForLastOperation+0x14>
      if((Timeout == 0U)||((HAL_GetTick() - tickstart ) > Timeout))
 8021d64:	b90c      	cbnz	r4, 8021d6a <FLASH_WaitForLastOperation+0x3e>
        return HAL_TIMEOUT;
 8021d66:	2003      	movs	r0, #3
}  
 8021d68:	bdf8      	pop	{r3, r4, r5, r6, r7, pc}
      if((Timeout == 0U)||((HAL_GetTick() - tickstart ) > Timeout))
 8021d6a:	f7ff fbbb 	bl	80214e4 <HAL_GetTick>
 8021d6e:	1b80      	subs	r0, r0, r6
 8021d70:	42a0      	cmp	r0, r4
 8021d72:	d9e5      	bls.n	8021d40 <FLASH_WaitForLastOperation+0x14>
 8021d74:	e7f7      	b.n	8021d66 <FLASH_WaitForLastOperation+0x3a>
 8021d76:	bf00      	nop
 8021d78:	20007a60 	.word	0x20007a60
 8021d7c:	40023c00 	.word	0x40023c00

08021d80 <HAL_FLASH_Program>:
{
 8021d80:	e92d 41f0 	stmdb	sp!, {r4, r5, r6, r7, r8, lr}
  __HAL_LOCK(&pFlash);
 8021d84:	4f1e      	ldr	r7, [pc, #120]	; (8021e00 <HAL_FLASH_Program+0x80>)
{
 8021d86:	4698      	mov	r8, r3
  __HAL_LOCK(&pFlash);
 8021d88:	7e3b      	ldrb	r3, [r7, #24]
 8021d8a:	2b01      	cmp	r3, #1
{
 8021d8c:	4606      	mov	r6, r0
 8021d8e:	460c      	mov	r4, r1
 8021d90:	4615      	mov	r5, r2
  __HAL_LOCK(&pFlash);
 8021d92:	d032      	beq.n	8021dfa <HAL_FLASH_Program+0x7a>
 8021d94:	2301      	movs	r3, #1
  assert_param(IS_FLASH_TYPEPROGRAM(TypeProgram));
 8021d96:	2803      	cmp	r0, #3
  __HAL_LOCK(&pFlash);
 8021d98:	763b      	strb	r3, [r7, #24]
  assert_param(IS_FLASH_TYPEPROGRAM(TypeProgram));
 8021d9a:	d903      	bls.n	8021da4 <HAL_FLASH_Program+0x24>
 8021d9c:	4819      	ldr	r0, [pc, #100]	; (8021e04 <HAL_FLASH_Program+0x84>)
 8021d9e:	21a2      	movs	r1, #162	; 0xa2
 8021da0:	f7fe ff73 	bl	8020c8a <assert_failed>
  status = FLASH_WaitForLastOperation((uint32_t)FLASH_TIMEOUT_VALUE);
 8021da4:	f24c 3050 	movw	r0, #50000	; 0xc350
 8021da8:	f7ff ffc0 	bl	8021d2c <FLASH_WaitForLastOperation>
  if(status == HAL_OK)
 8021dac:	b968      	cbnz	r0, 8021dca <HAL_FLASH_Program+0x4a>
    if(TypeProgram == FLASH_TYPEPROGRAM_BYTE)
 8021dae:	b986      	cbnz	r6, 8021dd2 <HAL_FLASH_Program+0x52>
      FLASH_Program_Byte(Address, (uint8_t) Data);
 8021db0:	b2e9      	uxtb	r1, r5
 8021db2:	4620      	mov	r0, r4
 8021db4:	f7ff fefc 	bl	8021bb0 <FLASH_Program_Byte>
    status = FLASH_WaitForLastOperation((uint32_t)FLASH_TIMEOUT_VALUE);
 8021db8:	f24c 3050 	movw	r0, #50000	; 0xc350
 8021dbc:	f7ff ffb6 	bl	8021d2c <FLASH_WaitForLastOperation>
    FLASH->CR &= (~FLASH_CR_PG);  
 8021dc0:	4a11      	ldr	r2, [pc, #68]	; (8021e08 <HAL_FLASH_Program+0x88>)
 8021dc2:	6913      	ldr	r3, [r2, #16]
 8021dc4:	f023 0301 	bic.w	r3, r3, #1
 8021dc8:	6113      	str	r3, [r2, #16]
  __HAL_UNLOCK(&pFlash);
 8021dca:	2300      	movs	r3, #0
 8021dcc:	763b      	strb	r3, [r7, #24]
}
 8021dce:	e8bd 81f0 	ldmia.w	sp!, {r4, r5, r6, r7, r8, pc}
    else if(TypeProgram == FLASH_TYPEPROGRAM_HALFWORD)
 8021dd2:	2e01      	cmp	r6, #1
 8021dd4:	d104      	bne.n	8021de0 <HAL_FLASH_Program+0x60>
      FLASH_Program_HalfWord(Address, (uint16_t) Data);
 8021dd6:	b2a9      	uxth	r1, r5
 8021dd8:	4620      	mov	r0, r4
 8021dda:	f7ff ff0f 	bl	8021bfc <FLASH_Program_HalfWord>
 8021dde:	e7eb      	b.n	8021db8 <HAL_FLASH_Program+0x38>
    else if(TypeProgram == FLASH_TYPEPROGRAM_WORD)
 8021de0:	2e02      	cmp	r6, #2
 8021de2:	d104      	bne.n	8021dee <HAL_FLASH_Program+0x6e>
      FLASH_Program_Word(Address, (uint32_t) Data);
 8021de4:	4629      	mov	r1, r5
 8021de6:	4620      	mov	r0, r4
 8021de8:	f7ff ff30 	bl	8021c4c <FLASH_Program_Word>
 8021dec:	e7e4      	b.n	8021db8 <HAL_FLASH_Program+0x38>
      FLASH_Program_DoubleWord(Address, Data);
 8021dee:	462a      	mov	r2, r5
 8021df0:	4643      	mov	r3, r8
 8021df2:	4620      	mov	r0, r4
 8021df4:	f7ff ff52 	bl	8021c9c <FLASH_Program_DoubleWord>
 8021df8:	e7de      	b.n	8021db8 <HAL_FLASH_Program+0x38>
  __HAL_LOCK(&pFlash);
 8021dfa:	2002      	movs	r0, #2
 8021dfc:	e7e7      	b.n	8021dce <HAL_FLASH_Program+0x4e>
 8021dfe:	bf00      	nop
 8021e00:	20007a60 	.word	0x20007a60
 8021e04:	08028f9e 	.word	0x08028f9e
 8021e08:	40023c00 	.word	0x40023c00

08021e0c <FLASH_MassErase>:
  * @retval None
  */
static void FLASH_MassErase(uint8_t VoltageRange, uint32_t Banks)
{
  /* Check the parameters */
  assert_param(IS_VOLTAGERANGE(VoltageRange));
 8021e0c:	2803      	cmp	r0, #3
{
 8021e0e:	b538      	push	{r3, r4, r5, lr}
 8021e10:	4604      	mov	r4, r0
 8021e12:	460d      	mov	r5, r1
  assert_param(IS_VOLTAGERANGE(VoltageRange));
 8021e14:	d904      	bls.n	8021e20 <FLASH_MassErase+0x14>
 8021e16:	480e      	ldr	r0, [pc, #56]	; (8021e50 <FLASH_MassErase+0x44>)
 8021e18:	f240 31ba 	movw	r1, #954	; 0x3ba
 8021e1c:	f7fe ff35 	bl	8020c8a <assert_failed>
  assert_param(IS_FLASH_BANK(Banks));
 8021e20:	2d01      	cmp	r5, #1
 8021e22:	d004      	beq.n	8021e2e <FLASH_MassErase+0x22>
 8021e24:	480a      	ldr	r0, [pc, #40]	; (8021e50 <FLASH_MassErase+0x44>)
 8021e26:	f240 31bb 	movw	r1, #955	; 0x3bb
 8021e2a:	f7fe ff2e 	bl	8020c8a <assert_failed>

  /* If the previous operation is completed, proceed to erase all sectors */
  CLEAR_BIT(FLASH->CR, FLASH_CR_PSIZE);
 8021e2e:	4b09      	ldr	r3, [pc, #36]	; (8021e54 <FLASH_MassErase+0x48>)
 8021e30:	691a      	ldr	r2, [r3, #16]
 8021e32:	f422 7240 	bic.w	r2, r2, #768	; 0x300
 8021e36:	611a      	str	r2, [r3, #16]
  FLASH->CR |= FLASH_CR_MER;
 8021e38:	691a      	ldr	r2, [r3, #16]
 8021e3a:	f042 0204 	orr.w	r2, r2, #4
 8021e3e:	611a      	str	r2, [r3, #16]
  FLASH->CR |= FLASH_CR_STRT | ((uint32_t)VoltageRange << 8U);
 8021e40:	6918      	ldr	r0, [r3, #16]
 8021e42:	ea40 2004 	orr.w	r0, r0, r4, lsl #8
 8021e46:	f440 3080 	orr.w	r0, r0, #65536	; 0x10000
 8021e4a:	6118      	str	r0, [r3, #16]
}
 8021e4c:	bd38      	pop	{r3, r4, r5, pc}
 8021e4e:	bf00      	nop
 8021e50:	08028fd8 	.word	0x08028fd8
 8021e54:	40023c00 	.word	0x40023c00

08021e58 <FLASH_Erase_Sector>:
void FLASH_Erase_Sector(uint32_t Sector, uint8_t VoltageRange)
{
  uint32_t tmp_psize = 0U;

  /* Check the parameters */
  assert_param(IS_FLASH_SECTOR(Sector));
 8021e58:	280b      	cmp	r0, #11
{
 8021e5a:	b538      	push	{r3, r4, r5, lr}
 8021e5c:	4605      	mov	r5, r0
 8021e5e:	460c      	mov	r4, r1
  assert_param(IS_FLASH_SECTOR(Sector));
 8021e60:	d904      	bls.n	8021e6c <FLASH_Erase_Sector+0x14>
 8021e62:	4819      	ldr	r0, [pc, #100]	; (8021ec8 <FLASH_Erase_Sector+0x70>)
 8021e64:	f240 31d9 	movw	r1, #985	; 0x3d9
 8021e68:	f7fe ff0f 	bl	8020c8a <assert_failed>
  assert_param(IS_VOLTAGERANGE(VoltageRange));
 8021e6c:	2c03      	cmp	r4, #3
 8021e6e:	d91d      	bls.n	8021eac <FLASH_Erase_Sector+0x54>
 8021e70:	4815      	ldr	r0, [pc, #84]	; (8021ec8 <FLASH_Erase_Sector+0x70>)
 8021e72:	f240 31da 	movw	r1, #986	; 0x3da
 8021e76:	f7fe ff08 	bl	8020c8a <assert_failed>
  {
    tmp_psize = FLASH_PSIZE_WORD;
  }
  else
  {
    tmp_psize = FLASH_PSIZE_DOUBLE_WORD;
 8021e7a:	f44f 7440 	mov.w	r4, #768	; 0x300
  }

  /* If the previous operation is completed, proceed to erase the sector */
  CLEAR_BIT(FLASH->CR, FLASH_CR_PSIZE);
 8021e7e:	4b13      	ldr	r3, [pc, #76]	; (8021ecc <FLASH_Erase_Sector+0x74>)
 8021e80:	691a      	ldr	r2, [r3, #16]
 8021e82:	f422 7240 	bic.w	r2, r2, #768	; 0x300
 8021e86:	611a      	str	r2, [r3, #16]
  FLASH->CR |= tmp_psize;
 8021e88:	6919      	ldr	r1, [r3, #16]
 8021e8a:	430c      	orrs	r4, r1
 8021e8c:	611c      	str	r4, [r3, #16]
  CLEAR_BIT(FLASH->CR, FLASH_CR_SNB);
 8021e8e:	691a      	ldr	r2, [r3, #16]
 8021e90:	f022 02f8 	bic.w	r2, r2, #248	; 0xf8
 8021e94:	611a      	str	r2, [r3, #16]
  FLASH->CR |= FLASH_CR_SER | (Sector << FLASH_CR_SNB_Pos);
 8021e96:	6918      	ldr	r0, [r3, #16]
 8021e98:	ea40 00c5 	orr.w	r0, r0, r5, lsl #3
 8021e9c:	f040 0002 	orr.w	r0, r0, #2
 8021ea0:	6118      	str	r0, [r3, #16]
  FLASH->CR |= FLASH_CR_STRT;
 8021ea2:	691a      	ldr	r2, [r3, #16]
 8021ea4:	f442 3280 	orr.w	r2, r2, #65536	; 0x10000
 8021ea8:	611a      	str	r2, [r3, #16]
}
 8021eaa:	bd38      	pop	{r3, r4, r5, pc}
  if (VoltageRange == FLASH_VOLTAGE_RANGE_1)
 8021eac:	2c00      	cmp	r4, #0
 8021eae:	d0e6      	beq.n	8021e7e <FLASH_Erase_Sector+0x26>
  else if (VoltageRange == FLASH_VOLTAGE_RANGE_2)
 8021eb0:	2c01      	cmp	r4, #1
 8021eb2:	d006      	beq.n	8021ec2 <FLASH_Erase_Sector+0x6a>
  else if (VoltageRange == FLASH_VOLTAGE_RANGE_3)
 8021eb4:	2c02      	cmp	r4, #2
    tmp_psize = FLASH_PSIZE_DOUBLE_WORD;
 8021eb6:	bf0c      	ite	eq
 8021eb8:	f44f 7400 	moveq.w	r4, #512	; 0x200
 8021ebc:	f44f 7440 	movne.w	r4, #768	; 0x300
 8021ec0:	e7dd      	b.n	8021e7e <FLASH_Erase_Sector+0x26>
    tmp_psize = FLASH_PSIZE_HALF_WORD;
 8021ec2:	f44f 7480 	mov.w	r4, #256	; 0x100
 8021ec6:	e7da      	b.n	8021e7e <FLASH_Erase_Sector+0x26>
 8021ec8:	08028fd8 	.word	0x08028fd8
 8021ecc:	40023c00 	.word	0x40023c00

08021ed0 <FLASH_FlushCaches>:
  * @retval None
  */
void FLASH_FlushCaches(void)
{
  /* Flush instruction cache  */
  if (READ_BIT(FLASH->ACR, FLASH_ACR_ICEN) != RESET)
 8021ed0:	4b14      	ldr	r3, [pc, #80]	; (8021f24 <FLASH_FlushCaches+0x54>)
 8021ed2:	681a      	ldr	r2, [r3, #0]
 8021ed4:	0591      	lsls	r1, r2, #22
 8021ed6:	d50f      	bpl.n	8021ef8 <FLASH_FlushCaches+0x28>
  {
    /* Disable instruction cache  */
    __HAL_FLASH_INSTRUCTION_CACHE_DISABLE();
 8021ed8:	681a      	ldr	r2, [r3, #0]
 8021eda:	f422 7200 	bic.w	r2, r2, #512	; 0x200
 8021ede:	601a      	str	r2, [r3, #0]
    /* Reset instruction cache */
    __HAL_FLASH_INSTRUCTION_CACHE_RESET();
 8021ee0:	681a      	ldr	r2, [r3, #0]
 8021ee2:	f442 6200 	orr.w	r2, r2, #2048	; 0x800
 8021ee6:	601a      	str	r2, [r3, #0]
 8021ee8:	681a      	ldr	r2, [r3, #0]
 8021eea:	f422 6200 	bic.w	r2, r2, #2048	; 0x800
 8021eee:	601a      	str	r2, [r3, #0]
    /* Enable instruction cache */
    __HAL_FLASH_INSTRUCTION_CACHE_ENABLE();
 8021ef0:	681a      	ldr	r2, [r3, #0]
 8021ef2:	f442 7200 	orr.w	r2, r2, #512	; 0x200
 8021ef6:	601a      	str	r2, [r3, #0]
  }

  /* Flush data cache */
  if (READ_BIT(FLASH->ACR, FLASH_ACR_DCEN) != RESET)
 8021ef8:	4b0a      	ldr	r3, [pc, #40]	; (8021f24 <FLASH_FlushCaches+0x54>)
 8021efa:	681a      	ldr	r2, [r3, #0]
 8021efc:	0552      	lsls	r2, r2, #21
 8021efe:	d50f      	bpl.n	8021f20 <FLASH_FlushCaches+0x50>
  {
    /* Disable data cache  */
    __HAL_FLASH_DATA_CACHE_DISABLE();
 8021f00:	681a      	ldr	r2, [r3, #0]
 8021f02:	f422 6280 	bic.w	r2, r2, #1024	; 0x400
 8021f06:	601a      	str	r2, [r3, #0]
    /* Reset data cache */
    __HAL_FLASH_DATA_CACHE_RESET();
 8021f08:	681a      	ldr	r2, [r3, #0]
 8021f0a:	f442 5280 	orr.w	r2, r2, #4096	; 0x1000
 8021f0e:	601a      	str	r2, [r3, #0]
 8021f10:	681a      	ldr	r2, [r3, #0]
 8021f12:	f422 5280 	bic.w	r2, r2, #4096	; 0x1000
 8021f16:	601a      	str	r2, [r3, #0]
    /* Enable data cache */
    __HAL_FLASH_DATA_CACHE_ENABLE();
 8021f18:	681a      	ldr	r2, [r3, #0]
 8021f1a:	f442 6280 	orr.w	r2, r2, #1024	; 0x400
 8021f1e:	601a      	str	r2, [r3, #0]
  }
}
 8021f20:	4770      	bx	lr
 8021f22:	bf00      	nop
 8021f24:	40023c00 	.word	0x40023c00

08021f28 <HAL_FLASHEx_Erase>:
{
 8021f28:	e92d 43f8 	stmdb	sp!, {r3, r4, r5, r6, r7, r8, r9, lr}
  __HAL_LOCK(&pFlash);
 8021f2c:	4e2c      	ldr	r6, [pc, #176]	; (8021fe0 <HAL_FLASHEx_Erase+0xb8>)
 8021f2e:	7e33      	ldrb	r3, [r6, #24]
 8021f30:	2b01      	cmp	r3, #1
{
 8021f32:	4604      	mov	r4, r0
 8021f34:	4688      	mov	r8, r1
  __HAL_LOCK(&pFlash);
 8021f36:	d051      	beq.n	8021fdc <HAL_FLASHEx_Erase+0xb4>
 8021f38:	2301      	movs	r3, #1
 8021f3a:	7633      	strb	r3, [r6, #24]
  assert_param(IS_FLASH_TYPEERASE(pEraseInit->TypeErase));
 8021f3c:	6803      	ldr	r3, [r0, #0]
 8021f3e:	2b01      	cmp	r3, #1
 8021f40:	d903      	bls.n	8021f4a <HAL_FLASHEx_Erase+0x22>
 8021f42:	4828      	ldr	r0, [pc, #160]	; (8021fe4 <HAL_FLASHEx_Erase+0xbc>)
 8021f44:	21a9      	movs	r1, #169	; 0xa9
 8021f46:	f7fe fea0 	bl	8020c8a <assert_failed>
  status = FLASH_WaitForLastOperation((uint32_t)FLASH_TIMEOUT_VALUE);
 8021f4a:	f24c 3050 	movw	r0, #50000	; 0xc350
 8021f4e:	f7ff feed 	bl	8021d2c <FLASH_WaitForLastOperation>
  if (status == HAL_OK)
 8021f52:	4605      	mov	r5, r0
 8021f54:	b9b0      	cbnz	r0, 8021f84 <HAL_FLASHEx_Erase+0x5c>
    *SectorError = 0xFFFFFFFFU;
 8021f56:	f04f 33ff 	mov.w	r3, #4294967295
 8021f5a:	f8c8 3000 	str.w	r3, [r8]
    if (pEraseInit->TypeErase == FLASH_TYPEERASE_MASSERASE)
 8021f5e:	6823      	ldr	r3, [r4, #0]
 8021f60:	2b01      	cmp	r3, #1
 8021f62:	d114      	bne.n	8021f8e <HAL_FLASHEx_Erase+0x66>
      FLASH_MassErase((uint8_t) pEraseInit->VoltageRange, pEraseInit->Banks);
 8021f64:	6861      	ldr	r1, [r4, #4]
 8021f66:	7c20      	ldrb	r0, [r4, #16]
 8021f68:	f7ff ff50 	bl	8021e0c <FLASH_MassErase>
      status = FLASH_WaitForLastOperation((uint32_t)FLASH_TIMEOUT_VALUE);
 8021f6c:	f24c 3050 	movw	r0, #50000	; 0xc350
 8021f70:	f7ff fedc 	bl	8021d2c <FLASH_WaitForLastOperation>
      FLASH->CR &= (~FLASH_MER_BIT);
 8021f74:	4a1c      	ldr	r2, [pc, #112]	; (8021fe8 <HAL_FLASHEx_Erase+0xc0>)
 8021f76:	6913      	ldr	r3, [r2, #16]
 8021f78:	f023 0304 	bic.w	r3, r3, #4
      status = FLASH_WaitForLastOperation((uint32_t)FLASH_TIMEOUT_VALUE);
 8021f7c:	4605      	mov	r5, r0
      FLASH->CR &= (~FLASH_MER_BIT);
 8021f7e:	6113      	str	r3, [r2, #16]
    FLASH_FlushCaches();
 8021f80:	f7ff ffa6 	bl	8021ed0 <FLASH_FlushCaches>
  __HAL_UNLOCK(&pFlash);
 8021f84:	2300      	movs	r3, #0
 8021f86:	7633      	strb	r3, [r6, #24]
}
 8021f88:	4628      	mov	r0, r5
 8021f8a:	e8bd 83f8 	ldmia.w	sp!, {r3, r4, r5, r6, r7, r8, r9, pc}
      assert_param(IS_FLASH_NBSECTORS(pEraseInit->NbSectors + pEraseInit->Sector));
 8021f8e:	e9d4 2302 	ldrd	r2, r3, [r4, #8]
 8021f92:	4413      	add	r3, r2
 8021f94:	3b01      	subs	r3, #1
 8021f96:	2b0b      	cmp	r3, #11
 8021f98:	d903      	bls.n	8021fa2 <HAL_FLASHEx_Erase+0x7a>
 8021f9a:	4812      	ldr	r0, [pc, #72]	; (8021fe4 <HAL_FLASHEx_Erase+0xbc>)
 8021f9c:	21c1      	movs	r1, #193	; 0xc1
 8021f9e:	f7fe fe74 	bl	8020c8a <assert_failed>
      for (index = pEraseInit->Sector; index < (pEraseInit->NbSectors + pEraseInit->Sector); index++)
 8021fa2:	68a7      	ldr	r7, [r4, #8]
        CLEAR_BIT(FLASH->CR, (FLASH_CR_SER | FLASH_CR_SNB));
 8021fa4:	f8df 9040 	ldr.w	r9, [pc, #64]	; 8021fe8 <HAL_FLASHEx_Erase+0xc0>
      for (index = pEraseInit->Sector; index < (pEraseInit->NbSectors + pEraseInit->Sector); index++)
 8021fa8:	e9d4 2302 	ldrd	r2, r3, [r4, #8]
 8021fac:	4413      	add	r3, r2
