Archive member included to satisfy reference by file (symbol)

d:/st/stm32cubeide_1.8.0/stm32cubeide/plugins/com.st.stm32cube.ide.mcu.externaltools.gnu-tools-for-stm32.9-2020-q2-update.win32_2.0.0.202105311346/tools/bin/../lib/gcc/arm-none-eabi/9.3.1/../../../../arm-none-eabi/lib/thumb/v7e-m+fp/hard\libc_nano.a(lib_a-ctype_.o)
                              ./user/myprintf.o (_ctype_)
d:/st/stm32cubeide_1.8.0/stm32cubeide/plugins/com.st.stm32cube.ide.mcu.externaltools.gnu-tools-for-stm32.9-2020-q2-update.win32_2.0.0.202105311346/tools/bin/../lib/gcc/arm-none-eabi/9.3.1/../../../../arm-none-eabi/lib/thumb/v7e-m+fp/hard\libc_nano.a(lib_a-errno.o)
                              ./Core/Src/syscalls.o (__errno)
d:/st/stm32cubeide_1.8.0/stm32cubeide/plugins/com.st.stm32cube.ide.mcu.externaltools.gnu-tools-for-stm32.9-2020-q2-update.win32_2.0.0.202105311346/tools/bin/../lib/gcc/arm-none-eabi/9.3.1/../../../../arm-none-eabi/lib/thumb/v7e-m+fp/hard\libc_nano.a(lib_a-exit.o)
                              d:/st/stm32cubeide_1.8.0/stm32cubeide/plugins/com.st.stm32cube.ide.mcu.externaltools.gnu-tools-for-stm32.9-2020-q2-update.win32_2.0.0.202105311346/tools/bin/../lib/gcc/arm-none-eabi/9.3.1/../../../../arm-none-eabi/lib/thumb/v7e-m+fp/hard/crt0.o (exit)
d:/st/stm32cubeide_1.8.0/stm32cubeide/plugins/com.st.stm32cube.ide.mcu.externaltools.gnu-tools-for-stm32.9-2020-q2-update.win32_2.0.0.202105311346/tools/bin/../lib/gcc/arm-none-eabi/9.3.1/../../../../arm-none-eabi/lib/thumb/v7e-m+fp/hard\libc_nano.a(lib_a-findfp.o)
                              ./Middlewares/Third_Party/FreeRTOS/Source/tasks.o (__sf_fake_stderr)
d:/st/stm32cubeide_1.8.0/stm32cubeide/plugins/com.st.stm32cube.ide.mcu.externaltools.gnu-tools-for-stm32.9-2020-q2-update.win32_2.0.0.202105311346/tools/bin/../lib/gcc/arm-none-eabi/9.3.1/../../../../arm-none-eabi/lib/thumb/v7e-m+fp/hard\libc_nano.a(lib_a-fwalk.o)
                              d:/st/stm32cubeide_1.8.0/stm32cubeide/plugins/com.st.stm32cube.ide.mcu.externaltools.gnu-tools-for-stm32.9-2020-q2-update.win32_2.0.0.202105311346/tools/bin/../lib/gcc/arm-none-eabi/9.3.1/../../../../arm-none-eabi/lib/thumb/v7e-m+fp/hard\libc_nano.a(lib_a-findfp.o) (_fwalk)
d:/st/stm32cubeide_1.8.0/stm32cubeide/plugins/com.st.stm32cube.ide.mcu.externaltools.gnu-tools-for-stm32.9-2020-q2-update.win32_2.0.0.202105311346/tools/bin/../lib/gcc/arm-none-eabi/9.3.1/../../../../arm-none-eabi/lib/thumb/v7e-m+fp/hard\libc_nano.a(lib_a-impure.o)
                              d:/st/stm32cubeide_1.8.0/stm32cubeide/plugins/com.st.stm32cube.ide.mcu.externaltools.gnu-tools-for-stm32.9-2020-q2-update.win32_2.0.0.202105311346/tools/bin/../lib/gcc/arm-none-eabi/9.3.1/../../../../arm-none-eabi/lib/thumb/v7e-m+fp/hard\libc_nano.a(lib_a-exit.o) (_global_impure_ptr)
d:/st/stm32cubeide_1.8.0/stm32cubeide/plugins/com.st.stm32cube.ide.mcu.externaltools.gnu-tools-for-stm32.9-2020-q2-update.win32_2.0.0.202105311346/tools/bin/../lib/gcc/arm-none-eabi/9.3.1/../../../../arm-none-eabi/lib/thumb/v7e-m+fp/hard\libc_nano.a(lib_a-init.o)
                              d:/st/stm32cubeide_1.8.0/stm32cubeide/plugins/com.st.stm32cube.ide.mcu.externaltools.gnu-tools-for-stm32.9-2020-q2-update.win32_2.0.0.202105311346/tools/bin/../lib/gcc/arm-none-eabi/9.3.1/../../../../arm-none-eabi/lib/thumb/v7e-m+fp/hard/crt0.o (__libc_init_array)
d:/st/stm32cubeide_1.8.0/stm32cubeide/plugins/com.st.stm32cube.ide.mcu.externaltools.gnu-tools-for-stm32.9-2020-q2-update.win32_2.0.0.202105311346/tools/bin/../lib/gcc/arm-none-eabi/9.3.1/../../../../arm-none-eabi/lib/thumb/v7e-m+fp/hard\libc_nano.a(lib_a-malloc.o)
                              ./Core/ThreadSafe/newlib_lock_glue.o (malloc)
d:/st/stm32cubeide_1.8.0/stm32cubeide/plugins/com.st.stm32cube.ide.mcu.externaltools.gnu-tools-for-stm32.9-2020-q2-update.win32_2.0.0.202105311346/tools/bin/../lib/gcc/arm-none-eabi/9.3.1/../../../../arm-none-eabi/lib/thumb/v7e-m+fp/hard\libc_nano.a(lib_a-memcpy-stub.o)
                              ./Middlewares/Third_Party/FreeRTOS/Source/CMSIS_RTOS_V2/cmsis_os2.o (memcpy)
d:/st/stm32cubeide_1.8.0/stm32cubeide/plugins/com.st.stm32cube.ide.mcu.externaltools.gnu-tools-for-stm32.9-2020-q2-update.win32_2.0.0.202105311346/tools/bin/../lib/gcc/arm-none-eabi/9.3.1/../../../../arm-none-eabi/lib/thumb/v7e-m+fp/hard\libc_nano.a(lib_a-memset.o)
                              d:/st/stm32cubeide_1.8.0/stm32cubeide/plugins/com.st.stm32cube.ide.mcu.externaltools.gnu-tools-for-stm32.9-2020-q2-update.win32_2.0.0.202105311346/tools/bin/../lib/gcc/arm-none-eabi/9.3.1/../../../../arm-none-eabi/lib/thumb/v7e-m+fp/hard/crt0.o (memset)
d:/st/stm32cubeide_1.8.0/stm32cubeide/plugins/com.st.stm32cube.ide.mcu.externaltools.gnu-tools-for-stm32.9-2020-q2-update.win32_2.0.0.202105311346/tools/bin/../lib/gcc/arm-none-eabi/9.3.1/../../../../arm-none-eabi/lib/thumb/v7e-m+fp/hard\libc_nano.a(lib_a-nano-freer.o)
                              d:/st/stm32cubeide_1.8.0/stm32cubeide/plugins/com.st.stm32cube.ide.mcu.externaltools.gnu-tools-for-stm32.9-2020-q2-update.win32_2.0.0.202105311346/tools/bin/../lib/gcc/arm-none-eabi/9.3.1/../../../../arm-none-eabi/lib/thumb/v7e-m+fp/hard\libc_nano.a(lib_a-malloc.o) (_free_r)
d:/st/stm32cubeide_1.8.0/stm32cubeide/plugins/com.st.stm32cube.ide.mcu.externaltools.gnu-tools-for-stm32.9-2020-q2-update.win32_2.0.0.202105311346/tools/bin/../lib/gcc/arm-none-eabi/9.3.1/../../../../arm-none-eabi/lib/thumb/v7e-m+fp/hard\libc_nano.a(lib_a-nano-mallocr.o)
                              d:/st/stm32cubeide_1.8.0/stm32cubeide/plugins/com.st.stm32cube.ide.mcu.externaltools.gnu-tools-for-stm32.9-2020-q2-update.win32_2.0.0.202105311346/tools/bin/../lib/gcc/arm-none-eabi/9.3.1/../../../../arm-none-eabi/lib/thumb/v7e-m+fp/hard\libc_nano.a(lib_a-findfp.o) (_malloc_r)
d:/st/stm32cubeide_1.8.0/stm32cubeide/plugins/com.st.stm32cube.ide.mcu.externaltools.gnu-tools-for-stm32.9-2020-q2-update.win32_2.0.0.202105311346/tools/bin/../lib/gcc/arm-none-eabi/9.3.1/../../../../arm-none-eabi/lib/thumb/v7e-m+fp/hard\libc_nano.a(lib_a-reent.o)
                              ./Middlewares/Third_Party/FreeRTOS/Source/tasks.o (_reclaim_reent)
d:/st/stm32cubeide_1.8.0/stm32cubeide/plugins/com.st.stm32cube.ide.mcu.externaltools.gnu-tools-for-stm32.9-2020-q2-update.win32_2.0.0.202105311346/tools/bin/../lib/gcc/arm-none-eabi/9.3.1/../../../../arm-none-eabi/lib/thumb/v7e-m+fp/hard\libc_nano.a(lib_a-sbrkr.o)
                              d:/st/stm32cubeide_1.8.0/stm32cubeide/plugins/com.st.stm32cube.ide.mcu.externaltools.gnu-tools-for-stm32.9-2020-q2-update.win32_2.0.0.202105311346/tools/bin/../lib/gcc/arm-none-eabi/9.3.1/../../../../arm-none-eabi/lib/thumb/v7e-m+fp/hard\libc_nano.a(lib_a-nano-mallocr.o) (_sbrk_r)
d:/st/stm32cubeide_1.8.0/stm32cubeide/plugins/com.st.stm32cube.ide.mcu.externaltools.gnu-tools-for-stm32.9-2020-q2-update.win32_2.0.0.202105311346/tools/bin/../lib/gcc/arm-none-eabi/9.3.1/../../../../arm-none-eabi/lib/thumb/v7e-m+fp/hard\libc_nano.a(lib_a-stdio.o)
                              d:/st/stm32cubeide_1.8.0/stm32cubeide/plugins/com.st.stm32cube.ide.mcu.externaltools.gnu-tools-for-stm32.9-2020-q2-update.win32_2.0.0.202105311346/tools/bin/../lib/gcc/arm-none-eabi/9.3.1/../../../../arm-none-eabi/lib/thumb/v7e-m+fp/hard\libc_nano.a(lib_a-findfp.o) (__sread)
d:/st/stm32cubeide_1.8.0/stm32cubeide/plugins/com.st.stm32cube.ide.mcu.externaltools.gnu-tools-for-stm32.9-2020-q2-update.win32_2.0.0.202105311346/tools/bin/../lib/gcc/arm-none-eabi/9.3.1/../../../../arm-none-eabi/lib/thumb/v7e-m+fp/hard\libc_nano.a(lib_a-writer.o)
                              d:/st/stm32cubeide_1.8.0/stm32cubeide/plugins/com.st.stm32cube.ide.mcu.externaltools.gnu-tools-for-stm32.9-2020-q2-update.win32_2.0.0.202105311346/tools/bin/../lib/gcc/arm-none-eabi/9.3.1/../../../../arm-none-eabi/lib/thumb/v7e-m+fp/hard\libc_nano.a(lib_a-stdio.o) (_write_r)
d:/st/stm32cubeide_1.8.0/stm32cubeide/plugins/com.st.stm32cube.ide.mcu.externaltools.gnu-tools-for-stm32.9-2020-q2-update.win32_2.0.0.202105311346/tools/bin/../lib/gcc/arm-none-eabi/9.3.1/../../../../arm-none-eabi/lib/thumb/v7e-m+fp/hard\libc_nano.a(lib_a-closer.o)
                              d:/st/stm32cubeide_1.8.0/stm32cubeide/plugins/com.st.stm32cube.ide.mcu.externaltools.gnu-tools-for-stm32.9-2020-q2-update.win32_2.0.0.202105311346/tools/bin/../lib/gcc/arm-none-eabi/9.3.1/../../../../arm-none-eabi/lib/thumb/v7e-m+fp/hard\libc_nano.a(lib_a-stdio.o) (_close_r)
d:/st/stm32cubeide_1.8.0/stm32cubeide/plugins/com.st.stm32cube.ide.mcu.externaltools.gnu-tools-for-stm32.9-2020-q2-update.win32_2.0.0.202105311346/tools/bin/../lib/gcc/arm-none-eabi/9.3.1/../../../../arm-none-eabi/lib/thumb/v7e-m+fp/hard\libc_nano.a(lib_a-fflush.o)
                              d:/st/stm32cubeide_1.8.0/stm32cubeide/plugins/com.st.stm32cube.ide.mcu.externaltools.gnu-tools-for-stm32.9-2020-q2-update.win32_2.0.0.202105311346/tools/bin/../lib/gcc/arm-none-eabi/9.3.1/../../../../arm-none-eabi/lib/thumb/v7e-m+fp/hard\libc_nano.a(lib_a-findfp.o) (_fflush_r)
d:/st/stm32cubeide_1.8.0/stm32cubeide/plugins/com.st.stm32cube.ide.mcu.externaltools.gnu-tools-for-stm32.9-2020-q2-update.win32_2.0.0.202105311346/tools/bin/../lib/gcc/arm-none-eabi/9.3.1/../../../../arm-none-eabi/lib/thumb/v7e-m+fp/hard\libc_nano.a(lib_a-lseekr.o)
                              d:/st/stm32cubeide_1.8.0/stm32cubeide/plugins/com.st.stm32cube.ide.mcu.externaltools.gnu-tools-for-stm32.9-2020-q2-update.win32_2.0.0.202105311346/tools/bin/../lib/gcc/arm-none-eabi/9.3.1/../../../../arm-none-eabi/lib/thumb/v7e-m+fp/hard\libc_nano.a(lib_a-stdio.o) (_lseek_r)
d:/st/stm32cubeide_1.8.0/stm32cubeide/plugins/com.st.stm32cube.ide.mcu.externaltools.gnu-tools-for-stm32.9-2020-q2-update.win32_2.0.0.202105311346/tools/bin/../lib/gcc/arm-none-eabi/9.3.1/../../../../arm-none-eabi/lib/thumb/v7e-m+fp/hard\libc_nano.a(lib_a-mlock.o)
                              d:/st/stm32cubeide_1.8.0/stm32cubeide/plugins/com.st.stm32cube.ide.mcu.externaltools.gnu-tools-for-stm32.9-2020-q2-update.win32_2.0.0.202105311346/tools/bin/../lib/gcc/arm-none-eabi/9.3.1/../../../../arm-none-eabi/lib/thumb/v7e-m+fp/hard\libc_nano.a(lib_a-nano-freer.o) (__malloc_lock)
d:/st/stm32cubeide_1.8.0/stm32cubeide/plugins/com.st.stm32cube.ide.mcu.externaltools.gnu-tools-for-stm32.9-2020-q2-update.win32_2.0.0.202105311346/tools/bin/../lib/gcc/arm-none-eabi/9.3.1/../../../../arm-none-eabi/lib/thumb/v7e-m+fp/hard\libc_nano.a(lib_a-readr.o)
                              d:/st/stm32cubeide_1.8.0/stm32cubeide/plugins/com.st.stm32cube.ide.mcu.externaltools.gnu-tools-for-stm32.9-2020-q2-update.win32_2.0.0.202105311346/tools/bin/../lib/gcc/arm-none-eabi/9.3.1/../../../../arm-none-eabi/lib/thumb/v7e-m+fp/hard\libc_nano.a(lib_a-stdio.o) (_read_r)
d:/st/stm32cubeide_1.8.0/stm32cubeide/plugins/com.st.stm32cube.ide.mcu.externaltools.gnu-tools-for-stm32.9-2020-q2-update.win32_2.0.0.202105311346/tools/bin/../lib/gcc/arm-none-eabi/9.3.1/thumb/v7e-m+fp/hard\libgcc.a(_arm_truncdfsf2.o)
                              ./user/myprintf.o (__aeabi_d2f)
d:/st/stm32cubeide_1.8.0/stm32cubeide/plugins/com.st.stm32cube.ide.mcu.externaltools.gnu-tools-for-stm32.9-2020-q2-update.win32_2.0.0.202105311346/tools/bin/../lib/gcc/arm-none-eabi/9.3.1/thumb/v7e-m+fp/hard\libgcc.a(_aeabi_ldivmod.o)
                              ./Drivers/STM32F4xx_HAL_Driver/Src/stm32f4xx_hal_rcc.o (__aeabi_ldivmod)
d:/st/stm32cubeide_1.8.0/stm32cubeide/plugins/com.st.stm32cube.ide.mcu.externaltools.gnu-tools-for-stm32.9-2020-q2-update.win32_2.0.0.202105311346/tools/bin/../lib/gcc/arm-none-eabi/9.3.1/thumb/v7e-m+fp/hard\libgcc.a(_aeabi_uldivmod.o)
                              ./Drivers/STM32F4xx_HAL_Driver/Src/stm32f4xx_hal_rcc.o (__aeabi_uldivmod)
d:/st/stm32cubeide_1.8.0/stm32cubeide/plugins/com.st.stm32cube.ide.mcu.externaltools.gnu-tools-for-stm32.9-2020-q2-update.win32_2.0.0.202105311346/tools/bin/../lib/gcc/arm-none-eabi/9.3.1/thumb/v7e-m+fp/hard\libgcc.a(_udivmoddi4.o)
                              d:/st/stm32cubeide_1.8.0/stm32cubeide/plugins/com.st.stm32cube.ide.mcu.externaltools.gnu-tools-for-stm32.9-2020-q2-update.win32_2.0.0.202105311346/tools/bin/../lib/gcc/arm-none-eabi/9.3.1/thumb/v7e-m+fp/hard\libgcc.a(_aeabi_ldivmod.o) (__udivmoddi4)
d:/st/stm32cubeide_1.8.0/stm32cubeide/plugins/com.st.stm32cube.ide.mcu.externaltools.gnu-tools-for-stm32.9-2020-q2-update.win32_2.0.0.202105311346/tools/bin/../lib/gcc/arm-none-eabi/9.3.1/thumb/v7e-m+fp/hard\libgcc.a(_dvmd_tls.o)
                              d:/st/stm32cubeide_1.8.0/stm32cubeide/plugins/com.st.stm32cube.ide.mcu.externaltools.gnu-tools-for-stm32.9-2020-q2-update.win32_2.0.0.202105311346/tools/bin/../lib/gcc/arm-none-eabi/9.3.1/thumb/v7e-m+fp/hard\libgcc.a(_aeabi_ldivmod.o) (__aeabi_ldiv0)

Allocating common symbols
Common symbol       size              file

usart1_rx           0x202             ./user/dev_usart.o
osthd_st            0x3               ./user/io_ctrl.o
defaultTaskHandle   0x4               ./Core/Src/freertos.o
Usart1_Type         0x202             ./user/dev_usart.o
hdma_usart6_rx      0x60              ./Core/Src/usart.o
usart6_rx           0x202             ./user/dev_usart.o
Usart2_Type         0x202             ./user/dev_usart.o
errno               0x4               d:/st/stm32cubeide_1.8.0/stm32cubeide/plugins/com.st.stm32cube.ide.mcu.externaltools.gnu-tools-for-stm32.9-2020-q2-update.win32_2.0.0.202105311346/tools/bin/../lib/gcc/arm-none-eabi/9.3.1/../../../../arm-none-eabi/lib/thumb/v7e-m+fp/hard\libc_nano.a(lib_a-reent.o)
hdma_usart3_rx      0x60              ./Core/Src/usart.o
set_para_st         0x24              ./user/io_ctrl.o
huart3              0x44              ./Core/Src/usart.o
op_para_st          0x4               ./user/io_ctrl.o
screen_ini_st       0x2               ./user/io_ctrl.o
htim10              0x48              ./Core/Src/tim.o
hiwdg               0xc               ./Core/Src/iwdg.o
det_arrive1         0x1               ./user/io_ctrl.o
myEvent04Handle     0x4               ./Core/Src/freertos.o
scr_state_st        0x10              ./user/io_ctrl.o
JumpAddress         0x4               ./user/jump.o
keyrun_result       0x1               ./user/detect.o
myBinarySem05Handle
                    0x4               ./Core/Src/freertos.o
scr_operate_st      0x20              ./user/io_ctrl.o
myEvent01Handle     0x4               ./Core/Src/freertos.o
uwTick              0x4               ./Drivers/STM32F4xx_HAL_Driver/Src/stm32f4xx_hal.o
xQueueRegistry      0x40              ./Middlewares/Third_Party/FreeRTOS/Source/queue.o
Usart3_Type         0x202             ./user/dev_usart.o
hdma_usart3_tx      0x60              ./Core/Src/usart.o
pFlash              0x20              ./Drivers/STM32F4xx_HAL_Driver/Src/stm32f4xx_hal_flash.o
myTask05Handle      0x4               ./Core/Src/freertos.o
myTask04Handle      0x4               ./Core/Src/freertos.o
myTask08Handle      0x4               ./Core/Src/freertos.o
myBinarySem03Handle
                    0x4               ./Core/Src/freertos.o
sys_guard           0x4               ./user/sysguard.o
hdma_usart1_tx      0x60              ./Core/Src/usart.o
screen_prot         0x118             ./user/io_ctrl.o
hdma_usart6_tx      0x60              ./Core/Src/usart.o
hdma_usart1_rx      0x60              ./Core/Src/usart.o
myEvent03Handle     0x4               ./Core/Src/freertos.o
huart1              0x44              ./Core/Src/usart.o
myEvent02Handle     0x4               ./Core/Src/freertos.o
myBinarySem02Handle
                    0x4               ./Core/Src/freertos.o
det_leave1          0x1               ./user/io_ctrl.o
myTask02Handle      0x4               ./Core/Src/freertos.o
det_arrive          0x1               ./user/io_ctrl.o
hrtc                0x20              ./Core/Src/rtc.o
usart2_rx           0x202             ./user/dev_usart.o
Usart6_Type         0x202             ./user/dev_usart.o
htim6               0x48              ./Core/Src/tim.o
det_leave           0x1               ./user/io_ctrl.o
keyrun_buff         0x13              ./user/detect.o
dpt                 0x66              ./user/detect.o
myBinarySem01Handle
                    0x4               ./Core/Src/freertos.o
warn_st             0x1e              ./user/my_tim.o
myTask03Handle      0x4               ./Core/Src/freertos.o
op_mod_st           0x2               ./user/detect.o
huart6              0x44              ./Core/Src/usart.o
arrive              0xa               ./user/io_ctrl.o
myTask07Handle      0x4               ./Core/Src/freertos.o
usart3_rx           0x202             ./user/dev_usart.o
htim2               0x48              ./Core/Src/stm32f4xx_hal_timebase_tim.o
myQueueUsart1Handle
                    0x4               ./Core/Src/freertos.o
myQueueUsart6Handle
                    0x4               ./Core/Src/freertos.o
JumpToApplication   0x4               ./user/jump.o
warn_bk_st          0x1e              ./user/my_tim.o
htim7               0x48              ./Core/Src/tim.o
myQueueUsart3Handle
                    0x4               ./Core/Src/freertos.o
myEvent05Handle     0x4               ./Core/Src/freertos.o
myTask06Handle      0x4               ./Core/Src/freertos.o
myBinarySem04Handle
                    0x4               ./Core/Src/freertos.o

Discarded input sections

 .text          0x0000000000000000        0x0 d:/st/stm32cubeide_1.8.0/stm32cubeide/plugins/com.st.stm32cube.ide.mcu.externaltools.gnu-tools-for-stm32.9-2020-q2-update.win32_2.0.0.202105311346/tools/bin/../lib/gcc/arm-none-eabi/9.3.1/thumb/v7e-m+fp/hard/crti.o
 .data          0x0000000000000000        0x0 d:/st/stm32cubeide_1.8.0/stm32cubeide/plugins/com.st.stm32cube.ide.mcu.externaltools.gnu-tools-for-stm32.9-2020-q2-update.win32_2.0.0.202105311346/tools/bin/../lib/gcc/arm-none-eabi/9.3.1/thumb/v7e-m+fp/hard/crti.o
 .bss           0x0000000000000000        0x0 d:/st/stm32cubeide_1.8.0/stm32cubeide/plugins/com.st.stm32cube.ide.mcu.externaltools.gnu-tools-for-stm32.9-2020-q2-update.win32_2.0.0.202105311346/tools/bin/../lib/gcc/arm-none-eabi/9.3.1/thumb/v7e-m+fp/hard/crti.o
 .data          0x0000000000000000        0x4 d:/st/stm32cubeide_1.8.0/stm32cubeide/plugins/com.st.stm32cube.ide.mcu.externaltools.gnu-tools-for-stm32.9-2020-q2-update.win32_2.0.0.202105311346/tools/bin/../lib/gcc/arm-none-eabi/9.3.1/thumb/v7e-m+fp/hard/crtbegin.o
 .text          0x0000000000000000       0x7c d:/st/stm32cubeide_1.8.0/stm32cubeide/plugins/com.st.stm32cube.ide.mcu.externaltools.gnu-tools-for-stm32.9-2020-q2-update.win32_2.0.0.202105311346/tools/bin/../lib/gcc/arm-none-eabi/9.3.1/../../../../arm-none-eabi/lib/thumb/v7e-m+fp/hard/crt0.o
 .data          0x0000000000000000        0x0 d:/st/stm32cubeide_1.8.0/stm32cubeide/plugins/com.st.stm32cube.ide.mcu.externaltools.gnu-tools-for-stm32.9-2020-q2-update.win32_2.0.0.202105311346/tools/bin/../lib/gcc/arm-none-eabi/9.3.1/../../../../arm-none-eabi/lib/thumb/v7e-m+fp/hard/crt0.o
 .bss           0x0000000000000000        0x0 d:/st/stm32cubeide_1.8.0/stm32cubeide/plugins/com.st.stm32cube.ide.mcu.externaltools.gnu-tools-for-stm32.9-2020-q2-update.win32_2.0.0.202105311346/tools/bin/../lib/gcc/arm-none-eabi/9.3.1/../../../../arm-none-eabi/lib/thumb/v7e-m+fp/hard/crt0.o
 .ARM.extab     0x0000000000000000        0x0 d:/st/stm32cubeide_1.8.0/stm32cubeide/plugins/com.st.stm32cube.ide.mcu.externaltools.gnu-tools-for-stm32.9-2020-q2-update.win32_2.0.0.202105311346/tools/bin/../lib/gcc/arm-none-eabi/9.3.1/../../../../arm-none-eabi/lib/thumb/v7e-m+fp/hard/crt0.o
 .ARM.exidx     0x0000000000000000       0x10 d:/st/stm32cubeide_1.8.0/stm32cubeide/plugins/com.st.stm32cube.ide.mcu.externaltools.gnu-tools-for-stm32.9-2020-q2-update.win32_2.0.0.202105311346/tools/bin/../lib/gcc/arm-none-eabi/9.3.1/../../../../arm-none-eabi/lib/thumb/v7e-m+fp/hard/crt0.o
 .ARM.attributes
                0x0000000000000000       0x1c d:/st/stm32cubeide_1.8.0/stm32cubeide/plugins/com.st.stm32cube.ide.mcu.externaltools.gnu-tools-for-stm32.9-2020-q2-update.win32_2.0.0.202105311346/tools/bin/../lib/gcc/arm-none-eabi/9.3.1/../../../../arm-none-eabi/lib/thumb/v7e-m+fp/hard/crt0.o
 .group         0x0000000000000000        0xc ./Core/Src/dma.o
 .group         0x0000000000000000        0xc ./Core/Src/dma.o
 .group         0x0000000000000000        0xc ./Core/Src/dma.o
 .group         0x0000000000000000        0xc ./Core/Src/dma.o
 .group         0x0000000000000000        0xc ./Core/Src/dma.o
 .group         0x0000000000000000        0xc ./Core/Src/dma.o
 .group         0x0000000000000000        0xc ./Core/Src/dma.o
Memory Configuration

Name             Origin             Length             Attributes
RAM              0x0000000020000000 0x0000000000040000 xrw
FLASH            0x0000000008020000 0x0000000000020000 xr
*default*        0x0000000000000000 0xffffffffffffffff

Linker script and memory map

LOAD d:/st/stm32cubeide_1.8.0/stm32cubeide/plugins/com.st.stm32cube.ide.mcu.externaltools.gnu-tools-for-stm32.9-2020-q2-update.win32_2.0.0.202105311346/tools/bin/../lib/gcc/arm-none-eabi/9.3.1/thumb/v7e-m+fp/hard/crti.o
LOAD d:/st/stm32cubeide_1.8.0/stm32cubeide/plugins/com.st.stm32cube.ide.mcu.externaltools.gnu-tools-for-stm32.9-2020-q2-update.win32_2.0.0.202105311346/tools/bin/../lib/gcc/arm-none-eabi/9.3.1/thumb/v7e-m+fp/hard/crtbegin.o
LOAD d:/st/stm32cubeide_1.8.0/stm32cubeide/plugins/com.st.stm32cube.ide.mcu.externaltools.gnu-tools-for-stm32.9-2020-q2-update.win32_2.0.0.202105311346/tools/bin/../lib/gcc/arm-none-eabi/9.3.1/../../../../arm-none-eabi/lib/thumb/v7e-m+fp/hard/crt0.o
LOAD ./Core/Src/dma.o
LOAD ./Core/Src/freertos.o
LOAD ./Core/Src/gpio.o
LOAD ./Core/Src/iwdg.o
LOAD ./Core/Src/main.o
LOAD ./Core/Src/rtc.o
LOAD ./Core/Src/stm32f4xx_hal_msp.o
LOAD ./Core/Src/stm32f4xx_hal_timebase_tim.o
LOAD ./Core/Src/stm32f4xx_it.o
LOAD ./Core/Src/syscalls.o
LOAD ./Core/Src/sysmem.o
LOAD ./Core/Src/system_stm32f4xx.o
LOAD ./Core/Src/tim.o
LOAD ./Core/Src/usart.o
LOAD ./Core/Startup/startup_stm32f412retx.o
LOAD ./Core/ThreadSafe/newlib_lock_glue.o
LOAD ./Drivers/STM32F4xx_HAL_Driver/Src/stm32f4xx_hal.o
LOAD ./Drivers/STM32F4xx_HAL_Driver/Src/stm32f4xx_hal_cortex.o
LOAD ./Drivers/STM32F4xx_HAL_Driver/Src/stm32f4xx_hal_dma.o
LOAD ./Drivers/STM32F4xx_HAL_Driver/Src/stm32f4xx_hal_dma_ex.o
LOAD ./Drivers/STM32F4xx_HAL_Driver/Src/stm32f4xx_hal_exti.o
LOAD ./Drivers/STM32F4xx_HAL_Driver/Src/stm32f4xx_hal_flash.o
LOAD ./Drivers/STM32F4xx_HAL_Driver/Src/stm32f4xx_hal_flash_ex.o
LOAD ./Drivers/STM32F4xx_HAL_Driver/Src/stm32f4xx_hal_flash_ramfunc.o
LOAD ./Drivers/STM32F4xx_HAL_Driver/Src/stm32f4xx_hal_gpio.o
LOAD ./Drivers/STM32F4xx_HAL_Driver/Src/stm32f4xx_hal_iwdg.o
LOAD ./Drivers/STM32F4xx_HAL_Driver/Src/stm32f4xx_hal_pwr.o
LOAD ./Drivers/STM32F4xx_HAL_Driver/Src/stm32f4xx_hal_pwr_ex.o
LOAD ./Drivers/STM32F4xx_HAL_Driver/Src/stm32f4xx_hal_rcc.o
LOAD ./Drivers/STM32F4xx_HAL_Driver/Src/stm32f4xx_hal_rcc_ex.o
LOAD ./Drivers/STM32F4xx_HAL_Driver/Src/stm32f4xx_hal_rtc.o
LOAD ./Drivers/STM32F4xx_HAL_Driver/Src/stm32f4xx_hal_rtc_ex.o
LOAD ./Drivers/STM32F4xx_HAL_Driver/Src/stm32f4xx_hal_tim.o
LOAD ./Drivers/STM32F4xx_HAL_Driver/Src/stm32f4xx_hal_tim_ex.o
LOAD ./Drivers/STM32F4xx_HAL_Driver/Src/stm32f4xx_hal_uart.o
LOAD ./Middlewares/Third_Party/FreeRTOS/Source/CMSIS_RTOS_V2/cmsis_os2.o
LOAD ./Middlewares/Third_Party/FreeRTOS/Source/croutine.o
LOAD ./Middlewares/Third_Party/FreeRTOS/Source/event_groups.o
LOAD ./Middlewares/Third_Party/FreeRTOS/Source/list.o
LOAD ./Middlewares/Third_Party/FreeRTOS/Source/queue.o
LOAD ./Middlewares/Third_Party/FreeRTOS/Source/stream_buffer.o
LOAD ./Middlewares/Third_Party/FreeRTOS/Source/tasks.o
LOAD ./Middlewares/Third_Party/FreeRTOS/Source/timers.o
LOAD ./Middlewares/Third_Party/FreeRTOS/Source/portable/GCC/ARM_CM4F/port.o
LOAD ./Middlewares/Third_Party/FreeRTOS/Source/portable/MemMang/heap_4.o
LOAD ./user/detect.o
LOAD ./user/dev_usart.o
LOAD ./user/display.o
LOAD ./user/eeprom.o
LOAD ./user/io_ctrl.o
LOAD ./user/jump.o
LOAD ./user/my_tim.o
LOAD ./user/myprintf.o
LOAD ./user/soft_timer.o
LOAD ./user/sysguard.o
START GROUP
LOAD d:/st/stm32cubeide_1.8.0/stm32cubeide/plugins/com.st.stm32cube.ide.mcu.externaltools.gnu-tools-for-stm32.9-2020-q2-update.win32_2.0.0.202105311346/tools/bin/../lib/gcc/arm-none-eabi/9.3.1/../../../../arm-none-eabi/lib/thumb/v7e-m+fp/hard\libc_nano.a
LOAD d:/st/stm32cubeide_1.8.0/stm32cubeide/plugins/com.st.stm32cube.ide.mcu.externaltools.gnu-tools-for-stm32.9-2020-q2-update.win32_2.0.0.202105311346/tools/bin/../lib/gcc/arm-none-eabi/9.3.1/../../../../arm-none-eabi/lib/thumb/v7e-m+fp/hard\libm.a
END GROUP
START GROUP
LOAD d:/st/stm32cubeide_1.8.0/stm32cubeide/plugins/com.st.stm32cube.ide.mcu.externaltools.gnu-tools-for-stm32.9-2020-q2-update.win32_2.0.0.202105311346/tools/bin/../lib/gcc/arm-none-eabi/9.3.1/thumb/v7e-m+fp/hard\libgcc.a
LOAD d:/st/stm32cubeide_1.8.0/stm32cubeide/plugins/com.st.stm32cube.ide.mcu.externaltools.gnu-tools-for-stm32.9-2020-q2-update.win32_2.0.0.202105311346/tools/bin/../lib/gcc/arm-none-eabi/9.3.1/../../../../arm-none-eabi/lib/thumb/v7e-m+fp/hard\libc_nano.a
END GROUP
START GROUP
LOAD d:/st/stm32cubeide_1.8.0/stm32cubeide/plugins/com.st.stm32cube.ide.mcu.externaltools.gnu-tools-for-stm32.9-2020-q2-update.win32_2.0.0.202105311346/tools/bin/../lib/gcc/arm-none-eabi/9.3.1/thumb/v7e-m+fp/hard\libgcc.a
LOAD d:/st/stm32cubeide_1.8.0/stm32cubeide/plugins/com.st.stm32cube.ide.mcu.externaltools.gnu-tools-for-stm32.9-2020-q2-update.win32_2.0.0.202105311346/tools/bin/../lib/gcc/arm-none-eabi/9.3.1/../../../../arm-none-eabi/lib/thumb/v7e-m+fp/hard\libc_nano.a
LOAD d:/st/stm32cubeide_1.8.0/stm32cubeide/plugins/com.st.stm32cube.ide.mcu.externaltools.gnu-tools-for-stm32.9-2020-q2-update.win32_2.0.0.202105311346/tools/bin/../lib/gcc/arm-none-eabi/9.3.1/../../../../arm-none-eabi/lib/thumb/v7e-m+fp/hard\libnosys.a
END GROUP
START GROUP
LOAD d:/st/stm32cubeide_1.8.0/stm32cubeide/plugins/com.st.stm32cube.ide.mcu.externaltools.gnu-tools-for-stm32.9-2020-q2-update.win32_2.0.0.202105311346/tools/bin/../lib/gcc/arm-none-eabi/9.3.1/thumb/v7e-m+fp/hard\libgcc.a
LOAD d:/st/stm32cubeide_1.8.0/stm32cubeide/plugins/com.st.stm32cube.ide.mcu.externaltools.gnu-tools-for-stm32.9-2020-q2-update.win32_2.0.0.202105311346/tools/bin/../lib/gcc/arm-none-eabi/9.3.1/../../../../arm-none-eabi/lib/thumb/v7e-m+fp/hard\libc_nano.a
LOAD d:/st/stm32cubeide_1.8.0/stm32cubeide/plugins/com.st.stm32cube.ide.mcu.externaltools.gnu-tools-for-stm32.9-2020-q2-update.win32_2.0.0.202105311346/tools/bin/../lib/gcc/arm-none-eabi/9.3.1/../../../../arm-none-eabi/lib/thumb/v7e-m+fp/hard\libnosys.a
END GROUP
LOAD d:/st/stm32cubeide_1.8.0/stm32cubeide/plugins/com.st.stm32cube.ide.mcu.externaltools.gnu-tools-for-stm32.9-2020-q2-update.win32_2.0.0.202105311346/tools/bin/../lib/gcc/arm-none-eabi/9.3.1/thumb/v7e-m+fp/hard/crtend.o
LOAD d:/st/stm32cubeide_1.8.0/stm32cubeide/plugins/com.st.stm32cube.ide.mcu.externaltools.gnu-tools-for-stm32.9-2020-q2-update.win32_2.0.0.202105311346/tools/bin/../lib/gcc/arm-none-eabi/9.3.1/thumb/v7e-m+fp/hard/crtn.o
                0x0000000020040000                _estack = (ORIGIN (RAM) + LENGTH (RAM))
                0x0000000000000800                _Min_Heap_Size = 0x800
                0x0000000000001000                _Min_Stack_Size = 0x1000

.isr_vector     0x0000000008020000      0x1c4
                0x0000000008020000                . = ALIGN (0x4)
 *(.isr_vector)
 .isr_vector    0x0000000008020000      0x1c4 ./Core/Startup/startup_stm32f412retx.o
                0x0000000008020000                g_pfnVectors
                0x00000000080201c4                . = ALIGN (0x4)

.text           0x00000000080201d0     0x8a08
                0x00000000080201d0                . = ALIGN (0x4)
 *(.text)
 .text          0x00000000080201d0       0x40 d:/st/stm32cubeide_1.8.0/stm32cubeide/plugins/com.st.stm32cube.ide.mcu.externaltools.gnu-tools-for-stm32.9-2020-q2-update.win32_2.0.0.202105311346/tools/bin/../lib/gcc/arm-none-eabi/9.3.1/thumb/v7e-m+fp/hard/crtbegin.o
 .text          0x0000000008020210       0xa0 d:/st/stm32cubeide_1.8.0/stm32cubeide/plugins/com.st.stm32cube.ide.mcu.externaltools.gnu-tools-for-stm32.9-2020-q2-update.win32_2.0.0.202105311346/tools/bin/../lib/gcc/arm-none-eabi/9.3.1/thumb/v7e-m+fp/hard\libgcc.a(_arm_truncdfsf2.o)
                0x0000000008020210                __truncdfsf2
                0x0000000008020210                __aeabi_d2f
 .text          0x00000000080202b0       0x30 d:/st/stm32cubeide_1.8.0/stm32cubeide/plugins/com.st.stm32cube.ide.mcu.externaltools.gnu-tools-for-stm32.9-2020-q2-update.win32_2.0.0.202105311346/tools/bin/../lib/gcc/arm-none-eabi/9.3.1/thumb/v7e-m+fp/hard\libgcc.a(_aeabi_uldivmod.o)
                0x00000000080202b0                __aeabi_uldivmod
 .text          0x00000000080202e0      0x2c4 d:/st/stm32cubeide_1.8.0/stm32cubeide/plugins/com.st.stm32cube.ide.mcu.externaltools.gnu-tools-for-stm32.9-2020-q2-update.win32_2.0.0.202105311346/tools/bin/../lib/gcc/arm-none-eabi/9.3.1/thumb/v7e-m+fp/hard\libgcc.a(_udivmoddi4.o)
                0x00000000080202e0                __udivmoddi4
 .text          0x00000000080205a4        0x4 d:/st/stm32cubeide_1.8.0/stm32cubeide/plugins/com.st.stm32cube.ide.mcu.externaltools.gnu-tools-for-stm32.9-2020-q2-update.win32_2.0.0.202105311346/tools/bin/../lib/gcc/arm-none-eabi/9.3.1/thumb/v7e-m+fp/hard\libgcc.a(_dvmd_tls.o)
                0x00000000080205a4                __aeabi_idiv0
                0x00000000080205a4                __aeabi_ldiv0
 *(.text*)
 .text.MX_DMA_Init
                0x00000000080205a8       0x98 ./Core/Src/dma.o
                0x00000000080205a8                MX_DMA_Init
 .text.StartDefaultTask
                0x0000000008020640       0x74 ./Core/Src/freertos.o
                0x0000000008020640                StartDefaultTask
 .text.StartTask04
                0x00000000080206b4       0x16 ./Core/Src/freertos.o
                0x00000000080206b4                StartTask04
 .text.StartTask05
                0x00000000080206ca       0x10 ./Core/Src/freertos.o
                0x00000000080206ca                StartTask05
 .text.StartTask07
                0x00000000080206da        0xa ./Core/Src/freertos.o
                0x00000000080206da                StartTask07
 .text.StartTask02
                0x00000000080206e4       0xb0 ./Core/Src/freertos.o
                0x00000000080206e4                StartTask02
 .text.StartTask03
                0x0000000008020794       0x40 ./Core/Src/freertos.o
                0x0000000008020794                StartTask03
 .text.StartTask06
                0x00000000080207d4       0x18 ./Core/Src/freertos.o
                0x00000000080207d4                StartTask06
 .text.StartTask08
                0x00000000080207ec        0xe ./Core/Src/freertos.o
                0x00000000080207ec                StartTask08
 *fill*         0x00000000080207fa        0x2 
 .text.MX_FREERTOS_Init
                0x00000000080207fc      0x1e4 ./Core/Src/freertos.o
                0x00000000080207fc                MX_FREERTOS_Init
 .text.MX_GPIO_Init
                0x00000000080209e0      0x140 ./Core/Src/gpio.o
                0x00000000080209e0                MX_GPIO_Init
 .text.MX_IWDG_Init
                0x0000000008020b20       0x2c ./Core/Src/iwdg.o
                0x0000000008020b20                MX_IWDG_Init
 .text.SystemClock_Config
                0x0000000008020b4c       0xa0 ./Core/Src/main.o
                0x0000000008020b4c                SystemClock_Config
 .text.startup.main
                0x0000000008020bec       0x8c ./Core/Src/main.o
                0x0000000008020bec                main
 .text.HAL_TIM_PeriodElapsedCallback
                0x0000000008020c78        0xe ./Core/Src/main.o
                0x0000000008020c78                HAL_TIM_PeriodElapsedCallback
 .text.Error_Handler
                0x0000000008020c86        0x4 ./Core/Src/main.o
                0x0000000008020c86                Error_Handler
 .text.assert_failed
                0x0000000008020c8a        0x2 ./Core/Src/main.o
                0x0000000008020c8a                assert_failed
 .text.MX_RTC_Init
                0x0000000008020c8c       0x74 ./Core/Src/rtc.o
                0x0000000008020c8c                MX_RTC_Init
 .text.HAL_RTC_MspInit
                0x0000000008020d00       0x40 ./Core/Src/rtc.o
                0x0000000008020d00                HAL_RTC_MspInit
 .text.HAL_MspInit
                0x0000000008020d40       0x40 ./Core/Src/stm32f4xx_hal_msp.o
                0x0000000008020d40                HAL_MspInit
 .text.HAL_InitTick
                0x0000000008020d80       0x78 ./Core/Src/stm32f4xx_hal_timebase_tim.o
                0x0000000008020d80                HAL_InitTick
 .text.NMI_Handler
                0x0000000008020df8        0x2 ./Core/Src/stm32f4xx_it.o
                0x0000000008020df8                NMI_Handler
 .text.HardFault_Handler
                0x0000000008020dfa        0x2 ./Core/Src/stm32f4xx_it.o
                0x0000000008020dfa                HardFault_Handler
 .text.MemManage_Handler
                0x0000000008020dfc        0x2 ./Core/Src/stm32f4xx_it.o
                0x0000000008020dfc                MemManage_Handler
 .text.BusFault_Handler
                0x0000000008020dfe        0x2 ./Core/Src/stm32f4xx_it.o
                0x0000000008020dfe                BusFault_Handler
 .text.UsageFault_Handler
                0x0000000008020e00        0x2 ./Core/Src/stm32f4xx_it.o
                0x0000000008020e00                UsageFault_Handler
 .text.DebugMon_Handler
                0x0000000008020e02        0x2 ./Core/Src/stm32f4xx_it.o
                0x0000000008020e02                DebugMon_Handler
 .text.DMA1_Stream1_IRQHandler
                0x0000000008020e04        0xc ./Core/Src/stm32f4xx_it.o
                0x0000000008020e04                DMA1_Stream1_IRQHandler
 .text.DMA1_Stream3_IRQHandler
                0x0000000008020e10        0xc ./Core/Src/stm32f4xx_it.o
                0x0000000008020e10                DMA1_Stream3_IRQHandler
 .text.TIM1_UP_TIM10_IRQHandler
                0x0000000008020e1c        0xc ./Core/Src/stm32f4xx_it.o
                0x0000000008020e1c                TIM1_UP_TIM10_IRQHandler
 .text.TIM2_IRQHandler
                0x0000000008020e28        0xc ./Core/Src/stm32f4xx_it.o
                0x0000000008020e28                TIM2_IRQHandler
 .text.USART1_IRQHandler
                0x0000000008020e34       0x18 ./Core/Src/stm32f4xx_it.o
                0x0000000008020e34                USART1_IRQHandler
 .text.USART3_IRQHandler
                0x0000000008020e4c       0x18 ./Core/Src/stm32f4xx_it.o
                0x0000000008020e4c                USART3_IRQHandler
 .text.TIM6_IRQHandler
                0x0000000008020e64       0x18 ./Core/Src/stm32f4xx_it.o
                0x0000000008020e64                TIM6_IRQHandler
 .text.DMA2_Stream1_IRQHandler
                0x0000000008020e7c        0xc ./Core/Src/stm32f4xx_it.o
                0x0000000008020e7c                DMA2_Stream1_IRQHandler
 .text.DMA2_Stream2_IRQHandler
                0x0000000008020e88        0xc ./Core/Src/stm32f4xx_it.o
                0x0000000008020e88                DMA2_Stream2_IRQHandler
 .text.DMA2_Stream6_IRQHandler
                0x0000000008020e94        0xc ./Core/Src/stm32f4xx_it.o
                0x0000000008020e94                DMA2_Stream6_IRQHandler
 .text.DMA2_Stream7_IRQHandler
                0x0000000008020ea0        0xc ./Core/Src/stm32f4xx_it.o
                0x0000000008020ea0                DMA2_Stream7_IRQHandler
 .text.USART6_IRQHandler
                0x0000000008020eac       0x18 ./Core/Src/stm32f4xx_it.o
                0x0000000008020eac                USART6_IRQHandler
 .text.SystemInit
                0x0000000008020ec4       0x14 ./Core/Src/system_stm32f4xx.o
                0x0000000008020ec4                SystemInit
 .text.MX_TIM6_Init
                0x0000000008020ed8       0x48 ./Core/Src/tim.o
                0x0000000008020ed8                MX_TIM6_Init
 .text.MX_TIM7_Init
                0x0000000008020f20       0x30 ./Core/Src/tim.o
                0x0000000008020f20                MX_TIM7_Init
 .text.MX_TIM10_Init
                0x0000000008020f50       0x34 ./Core/Src/tim.o
                0x0000000008020f50                MX_TIM10_Init
 .text.HAL_TIM_Base_MspInit
                0x0000000008020f84       0x94 ./Core/Src/tim.o
                0x0000000008020f84                HAL_TIM_Base_MspInit
 .text.MX_USART1_UART_Init
                0x0000000008021018       0x38 ./Core/Src/usart.o
                0x0000000008021018                MX_USART1_UART_Init
 .text.MX_USART3_UART_Init
                0x0000000008021050       0x38 ./Core/Src/usart.o
                0x0000000008021050                MX_USART3_UART_Init
 .text.MX_USART6_UART_Init
                0x0000000008021088       0x38 ./Core/Src/usart.o
                0x0000000008021088                MX_USART6_UART_Init
 .text.HAL_UART_MspInit
                0x00000000080210c0      0x308 ./Core/Src/usart.o
                0x00000000080210c0                HAL_UART_MspInit
 .text.Reset_Handler
                0x00000000080213c8       0x50 ./Core/Startup/startup_stm32f412retx.o
                0x00000000080213c8                Reset_Handler
 .text.Default_Handler
                0x0000000008021418        0x2 ./Core/Startup/startup_stm32f412retx.o
                0x0000000008021418                RTC_Alarm_IRQHandler
                0x0000000008021418                EXTI2_IRQHandler
                0x0000000008021418                TIM8_CC_IRQHandler
                0x0000000008021418                FMPI2C1_EV_IRQHandler
                0x0000000008021418                SPI4_IRQHandler
                0x0000000008021418                TIM1_CC_IRQHandler
                0x0000000008021418                DMA2_Stream5_IRQHandler
                0x0000000008021418                DMA1_Stream5_IRQHandler
                0x0000000008021418                PVD_IRQHandler
                0x0000000008021418                SDIO_IRQHandler
                0x0000000008021418                TAMP_STAMP_IRQHandler
                0x0000000008021418                CAN2_RX1_IRQHandler
                0x0000000008021418                EXTI3_IRQHandler
                0x0000000008021418                TIM8_TRG_COM_TIM14_IRQHandler
                0x0000000008021418                DFSDM1_FLT1_IRQHandler
                0x0000000008021418                TIM8_UP_TIM13_IRQHandler
                0x0000000008021418                I2C3_ER_IRQHandler
                0x0000000008021418                EXTI0_IRQHandler
                0x0000000008021418                I2C2_EV_IRQHandler
                0x0000000008021418                DMA1_Stream2_IRQHandler
                0x0000000008021418                CAN1_RX0_IRQHandler
                0x0000000008021418                FPU_IRQHandler
                0x0000000008021418                CAN2_SCE_IRQHandler
                0x0000000008021418                SPI1_IRQHandler
                0x0000000008021418                TIM1_BRK_TIM9_IRQHandler
                0x0000000008021418                CAN2_RX0_IRQHandler
                0x0000000008021418                DMA2_Stream3_IRQHandler
                0x0000000008021418                CAN1_RX1_IRQHandler
                0x0000000008021418                DMA2_Stream0_IRQHandler
                0x0000000008021418                TIM4_IRQHandler
                0x0000000008021418                QUADSPI_IRQHandler
                0x0000000008021418                I2C1_EV_IRQHandler
                0x0000000008021418                DMA1_Stream6_IRQHandler
                0x0000000008021418                TIM3_IRQHandler
                0x0000000008021418                RCC_IRQHandler
                0x0000000008021418                TIM8_BRK_TIM12_IRQHandler
                0x0000000008021418                Default_Handler
                0x0000000008021418                EXTI15_10_IRQHandler
                0x0000000008021418                ADC_IRQHandler
                0x0000000008021418                DMA1_Stream7_IRQHandler
                0x0000000008021418                SPI5_IRQHandler
                0x0000000008021418                TIM7_IRQHandler
                0x0000000008021418                CAN2_TX_IRQHandler
                0x0000000008021418                TIM5_IRQHandler
                0x0000000008021418                I2C3_EV_IRQHandler
                0x0000000008021418                EXTI9_5_IRQHandler
                0x0000000008021418                RTC_WKUP_IRQHandler
                0x0000000008021418                SPI2_IRQHandler
                0x0000000008021418                DMA1_Stream0_IRQHandler
                0x0000000008021418                CAN1_TX_IRQHandler
                0x0000000008021418                FMPI2C1_ER_IRQHandler
                0x0000000008021418                EXTI4_IRQHandler
                0x0000000008021418                RNG_IRQHandler
                0x0000000008021418                WWDG_IRQHandler
                0x0000000008021418                OTG_FS_WKUP_IRQHandler
                0x0000000008021418                TIM1_TRG_COM_TIM11_IRQHandler
                0x0000000008021418                EXTI1_IRQHandler
                0x0000000008021418                USART2_IRQHandler
                0x0000000008021418                DFSDM1_FLT0_IRQHandler
                0x0000000008021418                I2C2_ER_IRQHandler
                0x0000000008021418                CAN1_SCE_IRQHandler
                0x0000000008021418                FLASH_IRQHandler
                0x0000000008021418                DMA2_Stream4_IRQHandler
                0x0000000008021418                OTG_FS_IRQHandler
                0x0000000008021418                SPI3_IRQHandler
                0x0000000008021418                DMA1_Stream4_IRQHandler
                0x0000000008021418                I2C1_ER_IRQHandler
 .text.stm32_lock_acquire
                0x000000000802141a       0x2e ./Core/ThreadSafe/newlib_lock_glue.o
 .text.stm32_lock_release
                0x0000000008021448       0x20 ./Core/ThreadSafe/newlib_lock_glue.o
 .text.__retarget_lock_acquire
                0x0000000008021468       0x14 ./Core/ThreadSafe/newlib_lock_glue.o
                0x0000000008021468                __retarget_lock_acquire
 .text.__retarget_lock_acquire_recursive
                0x000000000802147c        0x4 ./Core/ThreadSafe/newlib_lock_glue.o
                0x000000000802147c                __retarget_lock_acquire_recursive
 .text.__retarget_lock_release
                0x0000000008021480       0x14 ./Core/ThreadSafe/newlib_lock_glue.o
                0x0000000008021480                __retarget_lock_release
 .text.__retarget_lock_release_recursive
                0x0000000008021494        0x4 ./Core/ThreadSafe/newlib_lock_glue.o
                0x0000000008021494                __retarget_lock_release_recursive
 .text.HAL_Init
                0x0000000008021498       0x34 ./Drivers/STM32F4xx_HAL_Driver/Src/stm32f4xx_hal.o
                0x0000000008021498                HAL_Init
 .text.HAL_IncTick
                0x00000000080214cc       0x18 ./Drivers/STM32F4xx_HAL_Driver/Src/stm32f4xx_hal.o
                0x00000000080214cc                HAL_IncTick
 .text.HAL_GetTick
                0x00000000080214e4        0xc ./Drivers/STM32F4xx_HAL_Driver/Src/stm32f4xx_hal.o
                0x00000000080214e4                HAL_GetTick
 .text.HAL_NVIC_SetPriorityGrouping
                0x00000000080214f0       0x38 ./Drivers/STM32F4xx_HAL_Driver/Src/stm32f4xx_hal_cortex.o
                0x00000000080214f0                HAL_NVIC_SetPriorityGrouping
 .text.HAL_NVIC_SetPriority
                0x0000000008021528       0x88 ./Drivers/STM32F4xx_HAL_Driver/Src/stm32f4xx_hal_cortex.o
                0x0000000008021528                HAL_NVIC_SetPriority
 .text.HAL_NVIC_EnableIRQ
                0x00000000080215b0       0x28 ./Drivers/STM32F4xx_HAL_Driver/Src/stm32f4xx_hal_cortex.o
                0x00000000080215b0                HAL_NVIC_EnableIRQ
 .text.DMA_CalcBaseAndBitshift
                0x00000000080215d8       0x2c ./Drivers/STM32F4xx_HAL_Driver/Src/stm32f4xx_hal_dma.o
 .text.HAL_DMA_Init
                0x0000000008021604      0x258 ./Drivers/STM32F4xx_HAL_Driver/Src/stm32f4xx_hal_dma.o
                0x0000000008021604                HAL_DMA_Init
 .text.HAL_DMA_Start_IT
                0x000000000802185c       0xa0 ./Drivers/STM32F4xx_HAL_Driver/Src/stm32f4xx_hal_dma.o
                0x000000000802185c                HAL_DMA_Start_IT
 .text.HAL_DMA_Abort
                0x00000000080218fc       0x88 ./Drivers/STM32F4xx_HAL_Driver/Src/stm32f4xx_hal_dma.o
                0x00000000080218fc                HAL_DMA_Abort
 .text.HAL_DMA_Abort_IT
                0x0000000008021984       0x24 ./Drivers/STM32F4xx_HAL_Driver/Src/stm32f4xx_hal_dma.o
                0x0000000008021984                HAL_DMA_Abort_IT
 .text.HAL_DMA_IRQHandler
                0x00000000080219a8      0x17c ./Drivers/STM32F4xx_HAL_Driver/Src/stm32f4xx_hal_dma.o
                0x00000000080219a8                HAL_DMA_IRQHandler
 .text.FLASH_SetErrorCode
                0x0000000008021b24       0x8c ./Drivers/STM32F4xx_HAL_Driver/Src/stm32f4xx_hal_flash.o
 .text.FLASH_Program_Byte
                0x0000000008021bb0       0x4c ./Drivers/STM32F4xx_HAL_Driver/Src/stm32f4xx_hal_flash.o
 .text.FLASH_Program_HalfWord
                0x0000000008021bfc       0x50 ./Drivers/STM32F4xx_HAL_Driver/Src/stm32f4xx_hal_flash.o
 .text.FLASH_Program_Word
                0x0000000008021c4c       0x50 ./Drivers/STM32F4xx_HAL_Driver/Src/stm32f4xx_hal_flash.o
 .text.FLASH_Program_DoubleWord
                0x0000000008021c9c       0x58 ./Drivers/STM32F4xx_HAL_Driver/Src/stm32f4xx_hal_flash.o
 .text.HAL_FLASH_Unlock
                0x0000000008021cf4       0x24 ./Drivers/STM32F4xx_HAL_Driver/Src/stm32f4xx_hal_flash.o
                0x0000000008021cf4                HAL_FLASH_Unlock
 .text.HAL_FLASH_Lock
                0x0000000008021d18       0x14 ./Drivers/STM32F4xx_HAL_Driver/Src/stm32f4xx_hal_flash.o
                0x0000000008021d18                HAL_FLASH_Lock
 .text.FLASH_WaitForLastOperation
                0x0000000008021d2c       0x54 ./Drivers/STM32F4xx_HAL_Driver/Src/stm32f4xx_hal_flash.o
                0x0000000008021d2c                FLASH_WaitForLastOperation
 .text.HAL_FLASH_Program
                0x0000000008021d80       0x8c ./Drivers/STM32F4xx_HAL_Driver/Src/stm32f4xx_hal_flash.o
                0x0000000008021d80                HAL_FLASH_Program
 .text.FLASH_MassErase
                0x0000000008021e0c       0x4c ./Drivers/STM32F4xx_HAL_Driver/Src/stm32f4xx_hal_flash_ex.o
 .text.FLASH_Erase_Sector
                0x0000000008021e58       0x78 ./Drivers/STM32F4xx_HAL_Driver/Src/stm32f4xx_hal_flash_ex.o
                0x0000000008021e58                FLASH_Erase_Sector
 .text.FLASH_FlushCaches
                0x0000000008021ed0       0x58 ./Drivers/STM32F4xx_HAL_Driver/Src/stm32f4xx_hal_flash_ex.o
                0x0000000008021ed0                FLASH_FlushCaches
 .text.HAL_FLASHEx_Erase
                0x0000000008021f28       0xc4 ./Drivers/STM32F4xx_HAL_Driver/Src/stm32f4xx_hal_flash_ex.o
                0x0000000008021f28                HAL_FLASHEx_Erase
 .text.HAL_GPIO_Init
                0x0000000008021fec      0x250 ./Drivers/STM32F4xx_HAL_Driver/Src/stm32f4xx_hal_gpio.o
                0x0000000008021fec                HAL_GPIO_Init
 .text.HAL_GPIO_ReadPin
                0x000000000802223c       0x24 ./Drivers/STM32F4xx_HAL_Driver/Src/stm32f4xx_hal_gpio.o
                0x000000000802223c                HAL_GPIO_ReadPin
 .text.HAL_GPIO_WritePin
                0x0000000008022260       0x34 ./Drivers/STM32F4xx_HAL_Driver/Src/stm32f4xx_hal_gpio.o
                0x0000000008022260                HAL_GPIO_WritePin
 .text.HAL_GPIO_TogglePin
                0x0000000008022294       0x28 ./Drivers/STM32F4xx_HAL_Driver/Src/stm32f4xx_hal_gpio.o
                0x0000000008022294                HAL_GPIO_TogglePin
 .text.HAL_IWDG_Init
                0x00000000080222bc       0x88 ./Drivers/STM32F4xx_HAL_Driver/Src/stm32f4xx_hal_iwdg.o
                0x00000000080222bc                HAL_IWDG_Init
 .text.HAL_IWDG_Refresh
                0x0000000008022344        0xc ./Drivers/STM32F4xx_HAL_Driver/Src/stm32f4xx_hal_iwdg.o
                0x0000000008022344                HAL_IWDG_Refresh
 .text.HAL_RCC_GetSysClockFreq
                0x0000000008022350       0x5c ./Drivers/STM32F4xx_HAL_Driver/Src/stm32f4xx_hal_rcc.o
                0x0000000008022350                HAL_RCC_GetSysClockFreq
 .text.HAL_RCC_ClockConfig
                0x00000000080223ac      0x1e8 ./Drivers/STM32F4xx_HAL_Driver/Src/stm32f4xx_hal_rcc.o
                0x00000000080223ac                HAL_RCC_ClockConfig
 .text.HAL_RCC_GetPCLK1Freq
                0x0000000008022594       0x20 ./Drivers/STM32F4xx_HAL_Driver/Src/stm32f4xx_hal_rcc.o
                0x0000000008022594                HAL_RCC_GetPCLK1Freq
 .text.HAL_RCC_GetPCLK2Freq
                0x00000000080225b4       0x20 ./Drivers/STM32F4xx_HAL_Driver/Src/stm32f4xx_hal_rcc.o
                0x00000000080225b4                HAL_RCC_GetPCLK2Freq
 .text.HAL_RCC_GetClockConfig
                0x00000000080225d4       0x3c ./Drivers/STM32F4xx_HAL_Driver/Src/stm32f4xx_hal_rcc.o
                0x00000000080225d4                HAL_RCC_GetClockConfig
 .text.HAL_RCCEx_PeriphCLKConfig
                0x0000000008022610      0x418 ./Drivers/STM32F4xx_HAL_Driver/Src/stm32f4xx_hal_rcc_ex.o
                0x0000000008022610                HAL_RCCEx_PeriphCLKConfig
 .text.HAL_RCC_OscConfig
                0x0000000008022a28      0x470 ./Drivers/STM32F4xx_HAL_Driver/Src/stm32f4xx_hal_rcc_ex.o
                0x0000000008022a28                HAL_RCC_OscConfig
 .text.HAL_RTC_WaitForSynchro
                0x0000000008022e98       0x30 ./Drivers/STM32F4xx_HAL_Driver/Src/stm32f4xx_hal_rtc.o
                0x0000000008022e98                HAL_RTC_WaitForSynchro
 .text.RTC_EnterInitMode
                0x0000000008022ec8       0x42 ./Drivers/STM32F4xx_HAL_Driver/Src/stm32f4xx_hal_rtc.o
                0x0000000008022ec8                RTC_EnterInitMode
 .text.RTC_ExitInitMode
                0x0000000008022f0a       0x28 ./Drivers/STM32F4xx_HAL_Driver/Src/stm32f4xx_hal_rtc.o
                0x0000000008022f0a                RTC_ExitInitMode
 *fill*         0x0000000008022f32        0x2 
 .text.HAL_RTC_Init
                0x0000000008022f34      0x108 ./Drivers/STM32F4xx_HAL_Driver/Src/stm32f4xx_hal_rtc.o
                0x0000000008022f34                HAL_RTC_Init
 .text.RTC_ByteToBcd2
                0x000000000802303c       0x1a ./Drivers/STM32F4xx_HAL_Driver/Src/stm32f4xx_hal_rtc.o
                0x000000000802303c                RTC_ByteToBcd2
 .text.RTC_Bcd2ToByte
                0x0000000008023056       0x12 ./Drivers/STM32F4xx_HAL_Driver/Src/stm32f4xx_hal_rtc.o
                0x0000000008023056                RTC_Bcd2ToByte
 .text.HAL_RTC_SetTime
                0x0000000008023068      0x194 ./Drivers/STM32F4xx_HAL_Driver/Src/stm32f4xx_hal_rtc.o
                0x0000000008023068                HAL_RTC_SetTime
 .text.HAL_RTC_SetDate
                0x00000000080231fc      0x138 ./Drivers/STM32F4xx_HAL_Driver/Src/stm32f4xx_hal_rtc.o
                0x00000000080231fc                HAL_RTC_SetDate
 .text.HAL_TIM_Base_Start_IT
                0x0000000008023334       0xf4 ./Drivers/STM32F4xx_HAL_Driver/Src/stm32f4xx_hal_tim.o
                0x0000000008023334                HAL_TIM_Base_Start_IT
 .text.HAL_TIM_OC_DelayElapsedCallback
                0x0000000008023428        0x2 ./Drivers/STM32F4xx_HAL_Driver/Src/stm32f4xx_hal_tim.o
                0x0000000008023428                HAL_TIM_OC_DelayElapsedCallback
 .text.HAL_TIM_IC_CaptureCallback
                0x000000000802342a        0x2 ./Drivers/STM32F4xx_HAL_Driver/Src/stm32f4xx_hal_tim.o
                0x000000000802342a                HAL_TIM_IC_CaptureCallback
 .text.HAL_TIM_PWM_PulseFinishedCallback
                0x000000000802342c        0x2 ./Drivers/STM32F4xx_HAL_Driver/Src/stm32f4xx_hal_tim.o
                0x000000000802342c                HAL_TIM_PWM_PulseFinishedCallback
 .text.HAL_TIM_TriggerCallback
                0x000000000802342e        0x2 ./Drivers/STM32F4xx_HAL_Driver/Src/stm32f4xx_hal_tim.o
                0x000000000802342e                HAL_TIM_TriggerCallback
 .text.HAL_TIM_IRQHandler
                0x0000000008023430      0x144 ./Drivers/STM32F4xx_HAL_Driver/Src/stm32f4xx_hal_tim.o
                0x0000000008023430                HAL_TIM_IRQHandler
 .text.TIM_Base_SetConfig
                0x0000000008023574       0xcc ./Drivers/STM32F4xx_HAL_Driver/Src/stm32f4xx_hal_tim.o
                0x0000000008023574                TIM_Base_SetConfig
 .text.HAL_TIM_Base_Init
                0x0000000008023640      0x128 ./Drivers/STM32F4xx_HAL_Driver/Src/stm32f4xx_hal_tim.o
                0x0000000008023640                HAL_TIM_Base_Init
 .text.HAL_TIMEx_MasterConfigSynchronization
                0x0000000008023768       0xec ./Drivers/STM32F4xx_HAL_Driver/Src/stm32f4xx_hal_tim_ex.o
                0x0000000008023768                HAL_TIMEx_MasterConfigSynchronization
 .text.HAL_TIMEx_CommutCallback
                0x0000000008023854        0x2 ./Drivers/STM32F4xx_HAL_Driver/Src/stm32f4xx_hal_tim_ex.o
                0x0000000008023854                HAL_TIMEx_CommutCallback
 .text.HAL_TIMEx_BreakCallback
                0x0000000008023856        0x2 ./Drivers/STM32F4xx_HAL_Driver/Src/stm32f4xx_hal_tim_ex.o
                0x0000000008023856                HAL_TIMEx_BreakCallback
 .text.UART_EndRxTransfer
                0x0000000008023858       0x5c ./Drivers/STM32F4xx_HAL_Driver/Src/stm32f4xx_hal_uart.o
 .text.UART_SetConfig
                0x00000000080238b4      0x118 ./Drivers/STM32F4xx_HAL_Driver/Src/stm32f4xx_hal_uart.o
 .text.UART_WaitOnFlagUntilTimeout.constprop.0
                0x00000000080239cc       0x6c ./Drivers/STM32F4xx_HAL_Driver/Src/stm32f4xx_hal_uart.o
 .text.HAL_UART_Init
                0x0000000008023a38       0xec ./Drivers/STM32F4xx_HAL_Driver/Src/stm32f4xx_hal_uart.o
                0x0000000008023a38                HAL_UART_Init
 .text.HAL_UART_Transmit
                0x0000000008023b24       0xaa ./Drivers/STM32F4xx_HAL_Driver/Src/stm32f4xx_hal_uart.o
                0x0000000008023b24                HAL_UART_Transmit
 *fill*         0x0000000008023bce        0x2 
 .text.HAL_UART_Transmit_DMA
                0x0000000008023bd0       0x84 ./Drivers/STM32F4xx_HAL_Driver/Src/stm32f4xx_hal_uart.o
                0x0000000008023bd0                HAL_UART_Transmit_DMA
 .text.HAL_UART_DMAStop
                0x0000000008023c54       0x8c ./Drivers/STM32F4xx_HAL_Driver/Src/stm32f4xx_hal_uart.o
                0x0000000008023c54                HAL_UART_DMAStop
 .text.UART_DMATransmitCplt
                0x0000000008023ce0       0x4c ./Drivers/STM32F4xx_HAL_Driver/Src/stm32f4xx_hal_uart.o
 .text.HAL_UART_TxHalfCpltCallback
                0x0000000008023d2c        0x2 ./Drivers/STM32F4xx_HAL_Driver/Src/stm32f4xx_hal_uart.o
                0x0000000008023d2c                HAL_UART_TxHalfCpltCallback
 .text.UART_DMATxHalfCplt
                0x0000000008023d2e        0xa ./Drivers/STM32F4xx_HAL_Driver/Src/stm32f4xx_hal_uart.o
 .text.HAL_UART_RxCpltCallback
                0x0000000008023d38        0x2 ./Drivers/STM32F4xx_HAL_Driver/Src/stm32f4xx_hal_uart.o
                0x0000000008023d38                HAL_UART_RxCpltCallback
 .text.HAL_UART_RxHalfCpltCallback
                0x0000000008023d3a        0x2 ./Drivers/STM32F4xx_HAL_Driver/Src/stm32f4xx_hal_uart.o
                0x0000000008023d3a                HAL_UART_RxHalfCpltCallback
 .text.HAL_UART_ErrorCallback
                0x0000000008023d3c        0x2 ./Drivers/STM32F4xx_HAL_Driver/Src/stm32f4xx_hal_uart.o
                0x0000000008023d3c                HAL_UART_ErrorCallback
 .text.UART_DMAError
                0x0000000008023d3e       0x5a ./Drivers/STM32F4xx_HAL_Driver/Src/stm32f4xx_hal_uart.o
 .text.UART_DMAAbortOnError
                0x0000000008023d98       0x10 ./Drivers/STM32F4xx_HAL_Driver/Src/stm32f4xx_hal_uart.o
 .text.HAL_UARTEx_RxEventCallback
                0x0000000008023da8        0x2 ./Drivers/STM32F4xx_HAL_Driver/Src/stm32f4xx_hal_uart.o
                0x0000000008023da8                HAL_UARTEx_RxEventCallback
 .text.UART_Receive_IT
                0x0000000008023daa       0xb8 ./Drivers/STM32F4xx_HAL_Driver/Src/stm32f4xx_hal_uart.o
 *fill*         0x0000000008023e62        0x2 
 .text.HAL_UART_IRQHandler
                0x0000000008023e64      0x290 ./Drivers/STM32F4xx_HAL_Driver/Src/stm32f4xx_hal_uart.o
                0x0000000008023e64                HAL_UART_IRQHandler
 .text.UART_DMARxHalfCplt
                0x00000000080240f4       0x1a ./Drivers/STM32F4xx_HAL_Driver/Src/stm32f4xx_hal_uart.o
 .text.UART_DMAReceiveCplt
                0x000000000802410e       0x94 ./Drivers/STM32F4xx_HAL_Driver/Src/stm32f4xx_hal_uart.o
 *fill*         0x00000000080241a2        0x2 
 .text.UART_Start_Receive_DMA
                0x00000000080241a4       0x9c ./Drivers/STM32F4xx_HAL_Driver/Src/stm32f4xx_hal_uart.o
                0x00000000080241a4                UART_Start_Receive_DMA
 .text.HAL_UART_Receive_DMA
                0x0000000008024240       0x30 ./Drivers/STM32F4xx_HAL_Driver/Src/stm32f4xx_hal_uart.o
                0x0000000008024240                HAL_UART_Receive_DMA
 .text.SysTick_Handler
                0x0000000008024270       0x1c ./Middlewares/Third_Party/FreeRTOS/Source/CMSIS_RTOS_V2/cmsis_os2.o
                0x0000000008024270                SysTick_Handler
 .text.osKernelInitialize
                0x000000000802428c       0x24 ./Middlewares/Third_Party/FreeRTOS/Source/CMSIS_RTOS_V2/cmsis_os2.o
                0x000000000802428c                osKernelInitialize
 .text.osKernelStart
                0x00000000080242b0       0x34 ./Middlewares/Third_Party/FreeRTOS/Source/CMSIS_RTOS_V2/cmsis_os2.o
                0x00000000080242b0                osKernelStart
 .text.osThreadNew
                0x00000000080242e4       0x92 ./Middlewares/Third_Party/FreeRTOS/Source/CMSIS_RTOS_V2/cmsis_os2.o
                0x00000000080242e4                osThreadNew
 .text.osThreadTerminate
                0x0000000008024376       0x30 ./Middlewares/Third_Party/FreeRTOS/Source/CMSIS_RTOS_V2/cmsis_os2.o
                0x0000000008024376                osThreadTerminate
 .text.osDelay  0x00000000080243a6       0x18 ./Middlewares/Third_Party/FreeRTOS/Source/CMSIS_RTOS_V2/cmsis_os2.o
                0x00000000080243a6                osDelay
 .text.osEventFlagsNew
                0x00000000080243be       0x22 ./Middlewares/Third_Party/FreeRTOS/Source/CMSIS_RTOS_V2/cmsis_os2.o
                0x00000000080243be                osEventFlagsNew
 .text.osSemaphoreNew
                0x00000000080243e0       0x94 ./Middlewares/Third_Party/FreeRTOS/Source/CMSIS_RTOS_V2/cmsis_os2.o
                0x00000000080243e0                osSemaphoreNew
 .text.osSemaphoreAcquire
                0x0000000008024474       0x58 ./Middlewares/Third_Party/FreeRTOS/Source/CMSIS_RTOS_V2/cmsis_os2.o
                0x0000000008024474                osSemaphoreAcquire
 .text.osSemaphoreRelease
                0x00000000080244cc       0x50 ./Middlewares/Third_Party/FreeRTOS/Source/CMSIS_RTOS_V2/cmsis_os2.o
                0x00000000080244cc                osSemaphoreRelease
 .text.osSemaphoreGetCount
                0x000000000802451c       0x12 ./Middlewares/Third_Party/FreeRTOS/Source/CMSIS_RTOS_V2/cmsis_os2.o
                0x000000000802451c                osSemaphoreGetCount
 .text.osMessageQueueNew
                0x000000000802452e       0x76 ./Middlewares/Third_Party/FreeRTOS/Source/CMSIS_RTOS_V2/cmsis_os2.o
                0x000000000802452e                osMessageQueueNew
 .text.osMessageQueuePut
                0x00000000080245a4       0x60 ./Middlewares/Third_Party/FreeRTOS/Source/CMSIS_RTOS_V2/cmsis_os2.o
                0x00000000080245a4                osMessageQueuePut
 .text.osMessageQueueGet
                0x0000000008024604       0x60 ./Middlewares/Third_Party/FreeRTOS/Source/CMSIS_RTOS_V2/cmsis_os2.o
                0x0000000008024604                osMessageQueueGet
 .text.osMessageQueueGetCount
                0x0000000008024664        0x4 ./Middlewares/Third_Party/FreeRTOS/Source/CMSIS_RTOS_V2/cmsis_os2.o
                0x0000000008024664                osMessageQueueGetCount
 .text.vApplicationGetIdleTaskMemory
                0x0000000008024668       0x18 ./Middlewares/Third_Party/FreeRTOS/Source/CMSIS_RTOS_V2/cmsis_os2.o
                0x0000000008024668                vApplicationGetIdleTaskMemory
 .text.vApplicationGetTimerTaskMemory
                0x0000000008024680       0x18 ./Middlewares/Third_Party/FreeRTOS/Source/CMSIS_RTOS_V2/cmsis_os2.o
                0x0000000008024680                vApplicationGetTimerTaskMemory
 .text.xEventGroupCreateStatic
                0x0000000008024698       0x48 ./Middlewares/Third_Party/FreeRTOS/Source/event_groups.o
                0x0000000008024698                xEventGroupCreateStatic
 .text.xEventGroupCreate
                0x00000000080246e0       0x1c ./Middlewares/Third_Party/FreeRTOS/Source/event_groups.o
                0x00000000080246e0                xEventGroupCreate
 .text.vListInitialise
                0x00000000080246fc       0x16 ./Middlewares/Third_Party/FreeRTOS/Source/list.o
                0x00000000080246fc                vListInitialise
 .text.vListInitialiseItem
                0x0000000008024712        0x6 ./Middlewares/Third_Party/FreeRTOS/Source/list.o
                0x0000000008024712                vListInitialiseItem
 .text.vListInsertEnd
                0x0000000008024718       0x18 ./Middlewares/Third_Party/FreeRTOS/Source/list.o
                0x0000000008024718                vListInsertEnd
 .text.vListInsert
                0x0000000008024730       0x2e ./Middlewares/Third_Party/FreeRTOS/Source/list.o
                0x0000000008024730                vListInsert
 .text.uxListRemove
                0x000000000802475e       0x20 ./Middlewares/Third_Party/FreeRTOS/Source/list.o
                0x000000000802475e                uxListRemove
 .text.prvIsQueueEmpty
                0x000000000802477e       0x16 ./Middlewares/Third_Party/FreeRTOS/Source/queue.o
 .text.prvCopyDataToQueue
                0x0000000008024794       0x6a ./Middlewares/Third_Party/FreeRTOS/Source/queue.o
 .text.prvCopyDataFromQueue
                0x00000000080247fe       0x2c ./Middlewares/Third_Party/FreeRTOS/Source/queue.o
 .text.prvUnlockQueue
                0x000000000802482a       0x70 ./Middlewares/Third_Party/FreeRTOS/Source/queue.o
 *fill*         0x000000000802489a        0x2 
 .text.xQueueGenericReset
                0x000000000802489c       0x80 ./Middlewares/Third_Party/FreeRTOS/Source/queue.o
                0x000000000802489c                xQueueGenericReset
 .text.xQueueGenericCreateStatic
                0x000000000802491c       0x9c ./Middlewares/Third_Party/FreeRTOS/Source/queue.o
                0x000000000802491c                xQueueGenericCreateStatic
 .text.xQueueGenericCreate
                0x00000000080249b8       0x4e ./Middlewares/Third_Party/FreeRTOS/Source/queue.o
                0x00000000080249b8                xQueueGenericCreate
 .text.xQueueCreateCountingSemaphoreStatic
                0x0000000008024a06       0x44 ./Middlewares/Third_Party/FreeRTOS/Source/queue.o
                0x0000000008024a06                xQueueCreateCountingSemaphoreStatic
 .text.xQueueCreateCountingSemaphore
                0x0000000008024a4a       0x3c ./Middlewares/Third_Party/FreeRTOS/Source/queue.o
                0x0000000008024a4a                xQueueCreateCountingSemaphore
 *fill*         0x0000000008024a86        0x2 
 .text.xQueueGenericSend
                0x0000000008024a88      0x164 ./Middlewares/Third_Party/FreeRTOS/Source/queue.o
                0x0000000008024a88                xQueueGenericSend
 .text.xQueueGenericSendFromISR
                0x0000000008024bec       0xc4 ./Middlewares/Third_Party/FreeRTOS/Source/queue.o
                0x0000000008024bec                xQueueGenericSendFromISR
 .text.xQueueGiveFromISR
                0x0000000008024cb0       0xa8 ./Middlewares/Third_Party/FreeRTOS/Source/queue.o
                0x0000000008024cb0                xQueueGiveFromISR
 .text.xQueueReceive
                0x0000000008024d58      0x140 ./Middlewares/Third_Party/FreeRTOS/Source/queue.o
                0x0000000008024d58                xQueueReceive
 .text.xQueueSemaphoreTake
                0x0000000008024e98      0x188 ./Middlewares/Third_Party/FreeRTOS/Source/queue.o
                0x0000000008024e98                xQueueSemaphoreTake
 .text.xQueueReceiveFromISR
                0x0000000008025020       0x9e ./Middlewares/Third_Party/FreeRTOS/Source/queue.o
                0x0000000008025020                xQueueReceiveFromISR
 .text.uxQueueMessagesWaiting
                0x00000000080250be       0x2a ./Middlewares/Third_Party/FreeRTOS/Source/queue.o
                0x00000000080250be                uxQueueMessagesWaiting
 .text.uxQueueMessagesWaitingFromISR
                0x00000000080250e8       0x18 ./Middlewares/Third_Party/FreeRTOS/Source/queue.o
                0x00000000080250e8                uxQueueMessagesWaitingFromISR
 .text.vQueueAddToRegistry
                0x0000000008025100       0x24 ./Middlewares/Third_Party/FreeRTOS/Source/queue.o
                0x0000000008025100                vQueueAddToRegistry
 .text.vQueueUnregisterQueue
                0x0000000008025124       0x30 ./Middlewares/Third_Party/FreeRTOS/Source/queue.o
                0x0000000008025124                vQueueUnregisterQueue
 .text.vQueueDelete
                0x0000000008025154       0x2a ./Middlewares/Third_Party/FreeRTOS/Source/queue.o
                0x0000000008025154                vQueueDelete
 .text.vQueueWaitForMessageRestricted
                0x000000000802517e       0x46 ./Middlewares/Third_Party/FreeRTOS/Source/queue.o
                0x000000000802517e                vQueueWaitForMessageRestricted
 .text.prvAddNewTaskToReadyList
                0x00000000080251c4      0x100 ./Middlewares/Third_Party/FreeRTOS/Source/tasks.o
 .text.prvResetNextTaskUnblockTime
                0x00000000080252c4       0x24 ./Middlewares/Third_Party/FreeRTOS/Source/tasks.o
 .text.prvInitialiseNewTask.isra.0
                0x00000000080252e8       0xc4 ./Middlewares/Third_Party/FreeRTOS/Source/tasks.o
 .text.prvDeleteTCB
                0x00000000080253ac       0x3c ./Middlewares/Third_Party/FreeRTOS/Source/tasks.o
 .text.prvIdleTask
                0x00000000080253e8       0x64 ./Middlewares/Third_Party/FreeRTOS/Source/tasks.o
 .text.prvAddCurrentTaskToDelayedList
                0x000000000802544c       0x74 ./Middlewares/Third_Party/FreeRTOS/Source/tasks.o
 .text.xTaskCreateStatic
                0x00000000080254c0       0x70 ./Middlewares/Third_Party/FreeRTOS/Source/tasks.o
                0x00000000080254c0                xTaskCreateStatic
 .text.xTaskCreate
                0x0000000008025530       0x5a ./Middlewares/Third_Party/FreeRTOS/Source/tasks.o
                0x0000000008025530                xTaskCreate
 *fill*         0x000000000802558a        0x2 
 .text.vTaskDelete
                0x000000000802558c       0xb0 ./Middlewares/Third_Party/FreeRTOS/Source/tasks.o
                0x000000000802558c                vTaskDelete
 .text.eTaskGetState
                0x000000000802563c       0x84 ./Middlewares/Third_Party/FreeRTOS/Source/tasks.o
                0x000000000802563c                eTaskGetState
 .text.vTaskStartScheduler
                0x00000000080256c0       0x98 ./Middlewares/Third_Party/FreeRTOS/Source/tasks.o
                0x00000000080256c0                vTaskStartScheduler
 .text.vTaskSuspendAll
                0x0000000008025758       0x10 ./Middlewares/Third_Party/FreeRTOS/Source/tasks.o
                0x0000000008025758                vTaskSuspendAll
 .text.xTaskGetTickCount
                0x0000000008025768        0xc ./Middlewares/Third_Party/FreeRTOS/Source/tasks.o
                0x0000000008025768                xTaskGetTickCount
 .text.xTaskIncrementTick
                0x0000000008025774      0x12c ./Middlewares/Third_Party/FreeRTOS/Source/tasks.o
                0x0000000008025774                xTaskIncrementTick
 .text.xTaskResumeAll
                0x00000000080258a0       0xe8 ./Middlewares/Third_Party/FreeRTOS/Source/tasks.o
                0x00000000080258a0                xTaskResumeAll
 .text.vTaskDelay
                0x0000000008025988       0x48 ./Middlewares/Third_Party/FreeRTOS/Source/tasks.o
                0x0000000008025988                vTaskDelay
 .text.vTaskSwitchContext
                0x00000000080259d0       0x84 ./Middlewares/Third_Party/FreeRTOS/Source/tasks.o
                0x00000000080259d0                vTaskSwitchContext
 .text.vTaskPlaceOnEventList
                0x0000000008025a54       0x34 ./Middlewares/Third_Party/FreeRTOS/Source/tasks.o
                0x0000000008025a54                vTaskPlaceOnEventList
 .text.vTaskPlaceOnEventListRestricted
                0x0000000008025a88       0x3c ./Middlewares/Third_Party/FreeRTOS/Source/tasks.o
                0x0000000008025a88                vTaskPlaceOnEventListRestricted
 .text.xTaskRemoveFromEventList
                0x0000000008025ac4       0x88 ./Middlewares/Third_Party/FreeRTOS/Source/tasks.o
                0x0000000008025ac4                xTaskRemoveFromEventList
 .text.vTaskInternalSetTimeOutState
                0x0000000008025b4c       0x18 ./Middlewares/Third_Party/FreeRTOS/Source/tasks.o
                0x0000000008025b4c                vTaskInternalSetTimeOutState
 .text.xTaskCheckForTimeOut
                0x0000000008025b64       0x78 ./Middlewares/Third_Party/FreeRTOS/Source/tasks.o
                0x0000000008025b64                xTaskCheckForTimeOut
 .text.vTaskMissedYield
                0x0000000008025bdc        0xc ./Middlewares/Third_Party/FreeRTOS/Source/tasks.o
                0x0000000008025bdc                vTaskMissedYield
 .text.xTaskGetSchedulerState
                0x0000000008025be8       0x20 ./Middlewares/Third_Party/FreeRTOS/Source/tasks.o
                0x0000000008025be8                xTaskGetSchedulerState
 .text.xTaskPriorityInherit
                0x0000000008025c08       0x84 ./Middlewares/Third_Party/FreeRTOS/Source/tasks.o
                0x0000000008025c08                xTaskPriorityInherit
 .text.xTaskPriorityDisinherit
                0x0000000008025c8c       0x88 ./Middlewares/Third_Party/FreeRTOS/Source/tasks.o
                0x0000000008025c8c                xTaskPriorityDisinherit
 .text.vTaskPriorityDisinheritAfterTimeout
                0x0000000008025d14       0xa4 ./Middlewares/Third_Party/FreeRTOS/Source/tasks.o
                0x0000000008025d14                vTaskPriorityDisinheritAfterTimeout
 .text.pvTaskIncrementMutexHeldCount
                0x0000000008025db8       0x18 ./Middlewares/Third_Party/FreeRTOS/Source/tasks.o
                0x0000000008025db8                pvTaskIncrementMutexHeldCount
 .text.prvCheckForValidListAndQueue
                0x0000000008025dd0       0x68 ./Middlewares/Third_Party/FreeRTOS/Source/timers.o
 .text.prvInsertTimerInActiveList
                0x0000000008025e38       0x3c ./Middlewares/Third_Party/FreeRTOS/Source/timers.o
 .text.xTimerCreateTimerTask
                0x0000000008025e74       0x64 ./Middlewares/Third_Party/FreeRTOS/Source/timers.o
                0x0000000008025e74                xTimerCreateTimerTask
 .text.xTimerGenericCommand
                0x0000000008025ed8       0x58 ./Middlewares/Third_Party/FreeRTOS/Source/timers.o
                0x0000000008025ed8                xTimerGenericCommand
 .text.prvSwitchTimerLists
                0x0000000008025f30       0x7c ./Middlewares/Third_Party/FreeRTOS/Source/timers.o
 .text.prvTimerTask
                0x0000000008025fac      0x1f8 ./Middlewares/Third_Party/FreeRTOS/Source/timers.o
 .text.prvPortStartFirstTask
                0x00000000080261a4       0x28 ./Middlewares/Third_Party/FreeRTOS/Source/portable/GCC/ARM_CM4F/port.o
 .text.vPortEnableVFP
                0x00000000080261cc       0x14 ./Middlewares/Third_Party/FreeRTOS/Source/portable/GCC/ARM_CM4F/port.o
 .text.prvTaskExitError
                0x00000000080261e0       0x40 ./Middlewares/Third_Party/FreeRTOS/Source/portable/GCC/ARM_CM4F/port.o
 .text.pxPortInitialiseStack
                0x0000000008026220       0x2c ./Middlewares/Third_Party/FreeRTOS/Source/portable/GCC/ARM_CM4F/port.o
                0x0000000008026220                pxPortInitialiseStack
 *fill*         0x000000000802624c        0x4 
 .text.SVC_Handler
                0x0000000008026250       0x24 ./Middlewares/Third_Party/FreeRTOS/Source/portable/GCC/ARM_CM4F/port.o
                0x0000000008026250                SVC_Handler
 .text.vPortEnterCritical
                0x0000000008026274       0x44 ./Middlewares/Third_Party/FreeRTOS/Source/portable/GCC/ARM_CM4F/port.o
                0x0000000008026274                vPortEnterCritical
 .text.vPortExitCritical
                0x00000000080262b8       0x28 ./Middlewares/Third_Party/FreeRTOS/Source/portable/GCC/ARM_CM4F/port.o
                0x00000000080262b8                vPortExitCritical
 .text.PendSV_Handler
                0x00000000080262e0       0x64 ./Middlewares/Third_Party/FreeRTOS/Source/portable/GCC/ARM_CM4F/port.o
                0x00000000080262e0                PendSV_Handler
 .text.xPortSysTickHandler
                0x0000000008026344       0x2c ./Middlewares/Third_Party/FreeRTOS/Source/portable/GCC/ARM_CM4F/port.o
                0x0000000008026344                xPortSysTickHandler
 .text.vPortSetupTimerInterrupt
                0x0000000008026370       0x34 ./Middlewares/Third_Party/FreeRTOS/Source/portable/GCC/ARM_CM4F/port.o
                0x0000000008026370                vPortSetupTimerInterrupt
 .text.xPortStartScheduler
                0x00000000080263a4      0x108 ./Middlewares/Third_Party/FreeRTOS/Source/portable/GCC/ARM_CM4F/port.o
                0x00000000080263a4                xPortStartScheduler
 .text.vPortValidateInterruptPriority
                0x00000000080264ac       0x5c ./Middlewares/Third_Party/FreeRTOS/Source/portable/GCC/ARM_CM4F/port.o
                0x00000000080264ac                vPortValidateInterruptPriority
 .text.prvInsertBlockIntoFreeList
                0x0000000008026508       0x48 ./Middlewares/Third_Party/FreeRTOS/Source/portable/MemMang/heap_4.o
 .text.pvPortMalloc
                0x0000000008026550      0x124 ./Middlewares/Third_Party/FreeRTOS/Source/portable/MemMang/heap_4.o
                0x0000000008026550                pvPortMalloc
 .text.vPortFree
                0x0000000008026674       0x7c ./Middlewares/Third_Party/FreeRTOS/Source/portable/MemMang/heap_4.o
                0x0000000008026674                vPortFree
 .text.input_initial
                0x00000000080266f0       0x28 ./user/detect.o
                0x00000000080266f0                input_initial
 .text.input_check
                0x0000000008026718       0x84 ./user/detect.o
                0x0000000008026718                input_check
 .text.for_test
                0x000000000802679c       0x50 ./user/detect.o
                0x000000000802679c                for_test
 .text.Usart_DamIdle
                0x00000000080267ec       0x70 ./user/dev_usart.o
                0x00000000080267ec                Usart_DamIdle
 .text.USART1_RxIdleCallback
                0x000000000802685c       0x80 ./user/dev_usart.o
                0x000000000802685c                USART1_RxIdleCallback
 .text.USART3_RxIdleCallback
                0x00000000080268dc       0x80 ./user/dev_usart.o
                0x00000000080268dc                USART3_RxIdleCallback
 .text.USART6_RxIdleCallback
                0x000000000802695c       0x80 ./user/dev_usart.o
                0x000000000802695c                USART6_RxIdleCallback
 .text.HAL_UART_TxCpltCallback
                0x00000000080269dc       0x3c ./user/dev_usart.o
                0x00000000080269dc                HAL_UART_TxCpltCallback
 .text.usart1_rx_deal
                0x0000000008026a18       0x14 ./user/dev_usart.o
                0x0000000008026a18                usart1_rx_deal
 .text.usart3_rx_deal
                0x0000000008026a2c        0x8 ./user/dev_usart.o
                0x0000000008026a2c                usart3_rx_deal
 .text.usart6_rx_deal
                0x0000000008026a34       0x34 ./user/dev_usart.o
                0x0000000008026a34                usart6_rx_deal
 .text.dis_warn
                0x0000000008026a68       0x70 ./user/display.o
                0x0000000008026a68                dis_warn
 .text.Eeprom_Cahce
                0x0000000008026ad8       0x50 ./user/eeprom.o
                0x0000000008026ad8                Eeprom_Cahce
 .text.STMFLASH_GetFlashSector
                0x0000000008026b28       0x8c ./user/eeprom.o
                0x0000000008026b28                STMFLASH_GetFlashSector
 .text.STMFLASH_Write
                0x0000000008026bb4       0xa0 ./user/eeprom.o
                0x0000000008026bb4                STMFLASH_Write
 .text.STMFLASH_Read
                0x0000000008026c54       0x14 ./user/eeprom.o
                0x0000000008026c54                STMFLASH_Read
 .text.Eeprom_Write
                0x0000000008026c68       0x60 ./user/eeprom.o
                0x0000000008026c68                Eeprom_Write
 .text.Eeprom_Read
                0x0000000008026cc8        0xa ./user/eeprom.o
                0x0000000008026cc8                Eeprom_Read
 *fill*         0x0000000008026cd2        0x2 
 .text.Eeprom_ini
                0x0000000008026cd4       0x1c ./user/eeprom.o
                0x0000000008026cd4                Eeprom_ini
 .text.Eeprom_update
                0x0000000008026cf0       0x4c ./user/eeprom.o
                0x0000000008026cf0                Eeprom_update
 .text.screen_ini
                0x0000000008026d3c        0xc ./user/io_ctrl.o
                0x0000000008026d3c                screen_ini
 .text.screen_write
                0x0000000008026d48       0xc4 ./user/io_ctrl.o
                0x0000000008026d48                screen_write
 .text.scr_page
                0x0000000008026e0c       0x1e ./user/io_ctrl.o
                0x0000000008026e0c                scr_page
 *fill*         0x0000000008026e2a        0x2 
 .text.operate_ini
                0x0000000008026e2c      0x38c ./user/io_ctrl.o
                0x0000000008026e2c                operate_ini
 .text.clear_op_flag
                0x00000000080271b8       0x1c ./user/io_ctrl.o
                0x00000000080271b8                clear_op_flag
 .text.scr_op   0x00000000080271d4      0x200 ./user/io_ctrl.o
                0x00000000080271d4                scr_op
 .text.screen_touch
                0x00000000080273d4      0x444 ./user/io_ctrl.o
                0x00000000080273d4                screen_touch
 .text.screen_deal
                0x0000000008027818       0x7c ./user/io_ctrl.o
                0x0000000008027818                screen_deal
 .text.io1pin_out
                0x0000000008027894       0x10 ./user/io_ctrl.o
                0x0000000008027894                io1pin_out
 .text.io2pin_out
                0x00000000080278a4       0x88 ./user/io_ctrl.o
                0x00000000080278a4                io2pin_out
 .text.check_op_flag
                0x000000000802792c       0x2a ./user/io_ctrl.o
                0x000000000802792c                check_op_flag
 *fill*         0x0000000008027956        0x2 
 .text.operate_ctrl
                0x0000000008027958      0x310 ./user/io_ctrl.o
                0x0000000008027958                operate_ctrl
 .text.mytim_ticupdate
                0x0000000008027c68       0x28 ./user/my_tim.o
                0x0000000008027c68                mytim_ticupdate
 .text.mytim_clean
                0x0000000008027c90       0x10 ./user/my_tim.o
                0x0000000008027c90                mytim_clean
 .text.turndown_check
                0x0000000008027ca0       0x7c ./user/my_tim.o
                0x0000000008027ca0                turndown_check
 .text.turnup_check
                0x0000000008027d1c       0x7c ./user/my_tim.o
                0x0000000008027d1c                turnup_check
 .text.headdown_check
                0x0000000008027d98       0x78 ./user/my_tim.o
                0x0000000008027d98                headdown_check
 .text.headup_check
                0x0000000008027e10       0x78 ./user/my_tim.o
                0x0000000008027e10                headup_check
 .text.boarddown_check
                0x0000000008027e88       0x78 ./user/my_tim.o
                0x0000000008027e88                boarddown_check
 .text.boardup_check
                0x0000000008027f00       0x78 ./user/my_tim.o
                0x0000000008027f00                boardup_check
 .text.pushleft_check
                0x0000000008027f78       0x7c ./user/my_tim.o
                0x0000000008027f78                pushleft_check
 .text.pushright_check
                0x0000000008027ff4       0x7c ./user/my_tim.o
                0x0000000008027ff4                pushright_check
 .text.catchdown_check
                0x0000000008028070       0x7c ./user/my_tim.o
                0x0000000008028070                catchdown_check
 .text.catchup_check
                0x00000000080280ec       0x7c ./user/my_tim.o
                0x00000000080280ec                catchup_check
 .text.mytim_check
                0x0000000008028168      0x120 ./user/my_tim.o
                0x0000000008028168                mytim_check
 .text.number   0x0000000008028288      0x164 ./user/myprintf.o
 .text.serial_puts
                0x00000000080283ec       0x14 ./user/myprintf.o
                0x00000000080283ec                serial_puts
 .text.debug_printf
                0x0000000008028400      0x3f4 ./user/myprintf.o
                0x0000000008028400                debug_printf
 .text.TIM0_CB  0x00000000080287f4       0x1c ./user/soft_timer.o
                0x00000000080287f4                TIM0_CB
 .text.TIM1_CB  0x0000000008028810        0x4 ./user/soft_timer.o
                0x0000000008028810                TIM1_CB
 .text.tickCnt_Update
                0x0000000008028814       0x10 ./user/soft_timer.o
                0x0000000008028814                tickCnt_Update
 .text.softTimer_Init
                0x0000000008028824       0x24 ./user/soft_timer.o
                0x0000000008028824                softTimer_Init
 .text.softTimer_Start
                0x0000000008028848       0x60 ./user/soft_timer.o
                0x0000000008028848                softTimer_Start
 .text.softTimer_Update
                0x00000000080288a8       0x70 ./user/soft_timer.o
                0x00000000080288a8                softTimer_Update
 .text.sysguard_ini
                0x0000000008028918       0x10 ./user/sysguard.o
                0x0000000008028918                sysguard_ini
 .text.sysguard_start
                0x0000000008028928       0x28 ./user/sysguard.o
                0x0000000008028928                sysguard_start
 .text.sysguard_feed
                0x0000000008028950       0x2c ./user/sysguard.o
                0x0000000008028950                sysguard_feed
 .text.sysguard_scan
                0x000000000802897c       0x44 ./user/sysguard.o
                0x000000000802897c                sysguard_scan
 .text.__libc_init_array
                0x00000000080289c0       0x48 d:/st/stm32cubeide_1.8.0/stm32cubeide/plugins/com.st.stm32cube.ide.mcu.externaltools.gnu-tools-for-stm32.9-2020-q2-update.win32_2.0.0.202105311346/tools/bin/../lib/gcc/arm-none-eabi/9.3.1/../../../../arm-none-eabi/lib/thumb/v7e-m+fp/hard\libc_nano.a(lib_a-init.o)
                0x00000000080289c0                __libc_init_array
 .text.memcpy   0x0000000008028a08       0x1c d:/st/stm32cubeide_1.8.0/stm32cubeide/plugins/com.st.stm32cube.ide.mcu.externaltools.gnu-tools-for-stm32.9-2020-q2-update.win32_2.0.0.202105311346/tools/bin/../lib/gcc/arm-none-eabi/9.3.1/../../../../arm-none-eabi/lib/thumb/v7e-m+fp/hard\libc_nano.a(lib_a-memcpy-stub.o)
                0x0000000008028a08                memcpy
 .text.memset   0x0000000008028a24       0x10 d:/st/stm32cubeide_1.8.0/stm32cubeide/plugins/com.st.stm32cube.ide.mcu.externaltools.gnu-tools-for-stm32.9-2020-q2-update.win32_2.0.0.202105311346/tools/bin/../lib/gcc/arm-none-eabi/9.3.1/../../../../arm-none-eabi/lib/thumb/v7e-m+fp/hard\libc_nano.a(lib_a-memset.o)
                0x0000000008028a24                memset
 .text._free_r  0x0000000008028a34       0xa0 d:/st/stm32cubeide_1.8.0/stm32cubeide/plugins/com.st.stm32cube.ide.mcu.externaltools.gnu-tools-for-stm32.9-2020-q2-update.win32_2.0.0.202105311346/tools/bin/../lib/gcc/arm-none-eabi/9.3.1/../../../../arm-none-eabi/lib/thumb/v7e-m+fp/hard\libc_nano.a(lib_a-nano-freer.o)
                0x0000000008028a34                _free_r
 .text.cleanup_glue
                0x0000000008028ad4       0x1a d:/st/stm32cubeide_1.8.0/stm32cubeide/plugins/com.st.stm32cube.ide.mcu.externaltools.gnu-tools-for-stm32.9-2020-q2-update.win32_2.0.0.202105311346/tools/bin/../lib/gcc/arm-none-eabi/9.3.1/../../../../arm-none-eabi/lib/thumb/v7e-m+fp/hard\libc_nano.a(lib_a-reent.o)
                0x0000000008028ad4                cleanup_glue
 *fill*         0x0000000008028aee        0x2 
 .text._reclaim_reent
                0x0000000008028af0       0xb8 d:/st/stm32cubeide_1.8.0/stm32cubeide/plugins/com.st.stm32cube.ide.mcu.externaltools.gnu-tools-for-stm32.9-2020-q2-update.win32_2.0.0.202105311346/tools/bin/../lib/gcc/arm-none-eabi/9.3.1/../../../../arm-none-eabi/lib/thumb/v7e-m+fp/hard\libc_nano.a(lib_a-reent.o)
                0x0000000008028af0                _reclaim_reent
 .text.__malloc_lock
                0x0000000008028ba8        0xc d:/st/stm32cubeide_1.8.0/stm32cubeide/plugins/com.st.stm32cube.ide.mcu.externaltools.gnu-tools-for-stm32.9-2020-q2-update.win32_2.0.0.202105311346/tools/bin/../lib/gcc/arm-none-eabi/9.3.1/../../../../arm-none-eabi/lib/thumb/v7e-m+fp/hard\libc_nano.a(lib_a-mlock.o)
                0x0000000008028ba8                __malloc_lock
 .text.__malloc_unlock
                0x0000000008028bb4        0xc d:/st/stm32cubeide_1.8.0/stm32cubeide/plugins/com.st.stm32cube.ide.mcu.externaltools.gnu-tools-for-stm32.9-2020-q2-update.win32_2.0.0.202105311346/tools/bin/../lib/gcc/arm-none-eabi/9.3.1/../../../../arm-none-eabi/lib/thumb/v7e-m+fp/hard\libc_nano.a(lib_a-mlock.o)
                0x0000000008028bb4                __malloc_unlock
 *(.glue_7)
 .glue_7        0x0000000008028bc0        0x0 linker stubs
 *(.glue_7t)
 .glue_7t       0x0000000008028bc0        0x0 linker stubs
 *(.eh_frame)
 .eh_frame      0x0000000008028bc0        0x0 d:/st/stm32cubeide_1.8.0/stm32cubeide/plugins/com.st.stm32cube.ide.mcu.externaltools.gnu-tools-for-stm32.9-2020-q2-update.win32_2.0.0.202105311346/tools/bin/../lib/gcc/arm-none-eabi/9.3.1/thumb/v7e-m+fp/hard/crtbegin.o
 *(.init)
 .init          0x0000000008028bc0        0x4 d:/st/stm32cubeide_1.8.0/stm32cubeide/plugins/com.st.stm32cube.ide.mcu.externaltools.gnu-tools-for-stm32.9-2020-q2-update.win32_2.0.0.202105311346/tools/bin/../lib/gcc/arm-none-eabi/9.3.1/thumb/v7e-m+fp/hard/crti.o
                0x0000000008028bc0                _init
 .init          0x0000000008028bc4        0x8 d:/st/stm32cubeide_1.8.0/stm32cubeide/plugins/com.st.stm32cube.ide.mcu.externaltools.gnu-tools-for-stm32.9-2020-q2-update.win32_2.0.0.202105311346/tools/bin/../lib/gcc/arm-none-eabi/9.3.1/thumb/v7e-m+fp/hard/crtn.o
 *(.fini)
 .fini          0x0000000008028bcc        0x4 d:/st/stm32cubeide_1.8.0/stm32cubeide/plugins/com.st.stm32cube.ide.mcu.externaltools.gnu-tools-for-stm32.9-2020-q2-update.win32_2.0.0.202105311346/tools/bin/../lib/gcc/arm-none-eabi/9.3.1/thumb/v7e-m+fp/hard/crti.o
                0x0000000008028bcc                _fini
 .fini          0x0000000008028bd0        0x8 d:/st/stm32cubeide_1.8.0/stm32cubeide/plugins/com.st.stm32cube.ide.mcu.externaltools.gnu-tools-for-stm32.9-2020-q2-update.win32_2.0.0.202105311346/tools/bin/../lib/gcc/arm-none-eabi/9.3.1/thumb/v7e-m+fp/hard/crtn.o
                0x0000000008028bd8                . = ALIGN (0x4)
                0x0000000008028bd8                _etext = .

.vfp11_veneer   0x0000000008028bd8        0x0
 .vfp11_veneer  0x0000000008028bd8        0x0 linker stubs

.v4_bx          0x0000000008028bd8        0x0
 .v4_bx         0x0000000008028bd8        0x0 linker stubs

.iplt           0x0000000008028bd8        0x0
 .iplt          0x0000000008028bd8        0x0 d:/st/stm32cubeide_1.8.0/stm32cubeide/plugins/com.st.stm32cube.ide.mcu.externaltools.gnu-tools-for-stm32.9-2020-q2-update.win32_2.0.0.202105311346/tools/bin/../lib/gcc/arm-none-eabi/9.3.1/thumb/v7e-m+fp/hard/crtbegin.o

.rodata         0x0000000008028bd8      0xa6c
                0x0000000008028bd8                . = ALIGN (0x4)
 *(.rodata)
 *(.rodata*)
 .rodata.str1.1
                0x0000000008028bd8       0xed ./Core/Src/freertos.o
 *fill*         0x0000000008028cc5        0x3 
 .rodata.defaultTask_attributes
                0x0000000008028cc8       0x24 ./Core/Src/freertos.o
                0x0000000008028cc8                defaultTask_attributes
 .rodata.myBinarySem01_attributes
                0x0000000008028cec       0x10 ./Core/Src/freertos.o
                0x0000000008028cec                myBinarySem01_attributes
 .rodata.myBinarySem02_attributes
                0x0000000008028cfc       0x10 ./Core/Src/freertos.o
                0x0000000008028cfc                myBinarySem02_attributes
 .rodata.myBinarySem03_attributes
                0x0000000008028d0c       0x10 ./Core/Src/freertos.o
                0x0000000008028d0c                myBinarySem03_attributes
 .rodata.myBinarySem04_attributes
                0x0000000008028d1c       0x10 ./Core/Src/freertos.o
                0x0000000008028d1c                myBinarySem04_attributes
 .rodata.myBinarySem05_attributes
                0x0000000008028d2c       0x10 ./Core/Src/freertos.o
                0x0000000008028d2c                myBinarySem05_attributes
 .rodata.myEvent01_attributes
                0x0000000008028d3c       0x10 ./Core/Src/freertos.o
                0x0000000008028d3c                myEvent01_attributes
 .rodata.myEvent02_attributes
                0x0000000008028d4c       0x10 ./Core/Src/freertos.o
                0x0000000008028d4c                myEvent02_attributes
 .rodata.myEvent03_attributes
                0x0000000008028d5c       0x10 ./Core/Src/freertos.o
                0x0000000008028d5c                myEvent03_attributes
 .rodata.myEvent04_attributes
                0x0000000008028d6c       0x10 ./Core/Src/freertos.o
                0x0000000008028d6c                myEvent04_attributes
 .rodata.myEvent05_attributes
                0x0000000008028d7c       0x10 ./Core/Src/freertos.o
                0x0000000008028d7c                myEvent05_attributes
 .rodata.myQueueUsart1_attributes
                0x0000000008028d8c       0x18 ./Core/Src/freertos.o
                0x0000000008028d8c                myQueueUsart1_attributes
 .rodata.myQueueUsart3_attributes
                0x0000000008028da4       0x18 ./Core/Src/freertos.o
                0x0000000008028da4                myQueueUsart3_attributes
 .rodata.myQueueUsart6_attributes
                0x0000000008028dbc       0x18 ./Core/Src/freertos.o
                0x0000000008028dbc                myQueueUsart6_attributes
 .rodata.myTask02_attributes
                0x0000000008028dd4       0x24 ./Core/Src/freertos.o
                0x0000000008028dd4                myTask02_attributes
 .rodata.myTask03_attributes
                0x0000000008028df8       0x24 ./Core/Src/freertos.o
                0x0000000008028df8                myTask03_attributes
 .rodata.myTask04_attributes
                0x0000000008028e1c       0x24 ./Core/Src/freertos.o
                0x0000000008028e1c                myTask04_attributes
 .rodata.myTask05_attributes
                0x0000000008028e40       0x24 ./Core/Src/freertos.o
                0x0000000008028e40                myTask05_attributes
 .rodata.myTask06_attributes
                0x0000000008028e64       0x24 ./Core/Src/freertos.o
                0x0000000008028e64                myTask06_attributes
 .rodata.myTask07_attributes
                0x0000000008028e88       0x24 ./Core/Src/freertos.o
                0x0000000008028e88                myTask07_attributes
 .rodata.myTask08_attributes
                0x0000000008028eac       0x24 ./Core/Src/freertos.o
                0x0000000008028eac                myTask08_attributes
 .rodata.main.str1.1
                0x0000000008028ed0       0x3b ./Core/Src/main.o
 .rodata.AHBPrescTable
                0x0000000008028f0b       0x10 ./Core/Src/system_stm32f4xx.o
                0x0000000008028f0b                AHBPrescTable
 .rodata.APBPrescTable
                0x0000000008028f1b        0x8 ./Core/Src/system_stm32f4xx.o
                0x0000000008028f1b                APBPrescTable
 .rodata.HAL_NVIC_SetPriorityGrouping.str1.1
                0x0000000008028f23       0x3b ./Drivers/STM32F4xx_HAL_Driver/Src/stm32f4xx_hal_cortex.o
 .rodata.HAL_DMA_Init.str1.1
                0x0000000008028f5e       0x38 ./Drivers/STM32F4xx_HAL_Driver/Src/stm32f4xx_hal_dma.o
 .rodata.flagBitshiftOffset.8529
                0x0000000008028f96        0x8 ./Drivers/STM32F4xx_HAL_Driver/Src/stm32f4xx_hal_dma.o
 .rodata.FLASH_Program_Byte.str1.1
                0x0000000008028f9e       0x3a ./Drivers/STM32F4xx_HAL_Driver/Src/stm32f4xx_hal_flash.o
 .rodata.FLASH_MassErase.str1.1
                0x0000000008028fd8       0x3d ./Drivers/STM32F4xx_HAL_Driver/Src/stm32f4xx_hal_flash_ex.o
 .rodata.HAL_GPIO_Init.str1.1
                0x0000000008029015       0x39 ./Drivers/STM32F4xx_HAL_Driver/Src/stm32f4xx_hal_gpio.o
 .rodata.HAL_IWDG_Init.str1.1
                0x000000000802904e       0x39 ./Drivers/STM32F4xx_HAL_Driver/Src/stm32f4xx_hal_iwdg.o
 .rodata.HAL_RCC_OscConfig.str1.1
                0x0000000008029087       0x38 ./Drivers/STM32F4xx_HAL_Driver/Src/stm32f4xx_hal_rcc.o
 .rodata.HAL_RCCEx_PeriphCLKConfig.str1.1
                0x00000000080290bf       0x3b ./Drivers/STM32F4xx_HAL_Driver/Src/stm32f4xx_hal_rcc_ex.o
 .rodata.HAL_RTC_DeactivateAlarm.str1.1
                0x00000000080290fa       0x38 ./Drivers/STM32F4xx_HAL_Driver/Src/stm32f4xx_hal_rtc.o
 .rodata.TIM_OC1_SetConfig.str1.1
                0x0000000008029132       0x38 ./Drivers/STM32F4xx_HAL_Driver/Src/stm32f4xx_hal_tim.o
 .rodata.HAL_TIMEx_HallSensor_Init.str1.1
                0x000000000802916a       0x3b ./Drivers/STM32F4xx_HAL_Driver/Src/stm32f4xx_hal_tim_ex.o
 .rodata.UART_SetConfig.str1.1
                0x00000000080291a5       0x39 ./Drivers/STM32F4xx_HAL_Driver/Src/stm32f4xx_hal_uart.o
 .rodata.vTaskStartScheduler.str1.1
                0x00000000080291de        0x5 ./Middlewares/Third_Party/FreeRTOS/Source/tasks.o
 .rodata.prvCheckForValidListAndQueue.str1.1
                0x00000000080291e3        0x5 ./Middlewares/Third_Party/FreeRTOS/Source/timers.o
 .rodata.xTimerCreateTimerTask.str1.1
                0x00000000080291e8        0x8 ./Middlewares/Third_Party/FreeRTOS/Source/timers.o
 .rodata.for_test.str1.1
                0x00000000080291f0       0x15 ./user/detect.o
 .rodata.str1.1
                0x0000000008029205      0x12b ./user/detect.o
 .rodata.Eeprom_Cahce.str1.1
                0x0000000008029330       0x1a ./user/eeprom.o
 .rodata.Eeprom_update.str1.1
                0x000000000802934a       0x24 ./user/eeprom.o
 .rodata.__FUNCTION__.9216
                0x000000000802936e        0xd ./user/eeprom.o
 .rodata.screen_write.str1.1
                0x000000000802937b       0x14 ./user/io_ctrl.o
 .rodata.operate_ini.str1.1
                0x000000000802938f       0x13 ./user/io_ctrl.o
 .rodata.screen_touch.str1.1
                0x00000000080293a2       0x1b ./user/io_ctrl.o
 .rodata.screen_deal.str1.1
                0x00000000080293bd       0x1d ./user/io_ctrl.o
 .rodata.operate_ctrl.str1.1
                0x00000000080293da       0x94 ./user/io_ctrl.o
 .rodata.CSWTCH.55
                0x000000000802946e        0xa ./user/io_ctrl.o
 .rodata.CSWTCH.56
                0x0000000008029478        0xa ./user/io_ctrl.o
 .rodata.debug_printf.str1.1
                0x0000000008029482        0x7 ./user/myprintf.o
 .rodata.digits.9899
                0x0000000008029489       0x10 ./user/myprintf.o
 *fill*         0x0000000008029499        0x3 
 .rodata.mulf.9935
                0x000000000802949c       0x1c ./user/myprintf.o
 .rodata.softTimer_Start.str1.1
                0x00000000080294b8       0x15 ./user/soft_timer.o
 .rodata.sysguard_start.str1.1
                0x00000000080294cd       0x13 ./user/sysguard.o
 .rodata._ctype_
                0x00000000080294e0      0x101 d:/st/stm32cubeide_1.8.0/stm32cubeide/plugins/com.st.stm32cube.ide.mcu.externaltools.gnu-tools-for-stm32.9-2020-q2-update.win32_2.0.0.202105311346/tools/bin/../lib/gcc/arm-none-eabi/9.3.1/../../../../arm-none-eabi/lib/thumb/v7e-m+fp/hard\libc_nano.a(lib_a-ctype_.o)
                0x00000000080294e0                _ctype_
 *fill*         0x00000000080295e1        0x3 
 .rodata.__sf_fake_stderr
                0x00000000080295e4       0x20 d:/st/stm32cubeide_1.8.0/stm32cubeide/plugins/com.st.stm32cube.ide.mcu.externaltools.gnu-tools-for-stm32.9-2020-q2-update.win32_2.0.0.202105311346/tools/bin/../lib/gcc/arm-none-eabi/9.3.1/../../../../arm-none-eabi/lib/thumb/v7e-m+fp/hard\libc_nano.a(lib_a-findfp.o)
                0x00000000080295e4                __sf_fake_stderr
 .rodata.__sf_fake_stdin
                0x0000000008029604       0x20 d:/st/stm32cubeide_1.8.0/stm32cubeide/plugins/com.st.stm32cube.ide.mcu.externaltools.gnu-tools-for-stm32.9-2020-q2-update.win32_2.0.0.202105311346/tools/bin/../lib/gcc/arm-none-eabi/9.3.1/../../../../arm-none-eabi/lib/thumb/v7e-m+fp/hard\libc_nano.a(lib_a-findfp.o)
                0x0000000008029604                __sf_fake_stdin
 .rodata.__sf_fake_stdout
                0x0000000008029624       0x20 d:/st/stm32cubeide_1.8.0/stm32cubeide/plugins/com.st.stm32cube.ide.mcu.externaltools.gnu-tools-for-stm32.9-2020-q2-update.win32_2.0.0.202105311346/tools/bin/../lib/gcc/arm-none-eabi/9.3.1/../../../../arm-none-eabi/lib/thumb/v7e-m+fp/hard\libc_nano.a(lib_a-findfp.o)
                0x0000000008029624                __sf_fake_stdout
                0x0000000008029644                . = ALIGN (0x4)

.ARM.extab      0x0000000008029644        0x0
                0x0000000008029644                . = ALIGN (0x4)
 *(.ARM.extab* .gnu.linkonce.armextab.*)
                0x0000000008029644                . = ALIGN (0x4)

.ARM            0x0000000008029644        0x8
                0x0000000008029644                . = ALIGN (0x4)
                0x0000000008029644                __exidx_start = .
 *(.ARM.exidx*)
 .ARM.exidx     0x0000000008029644        0x8 d:/st/stm32cubeide_1.8.0/stm32cubeide/plugins/com.st.stm32cube.ide.mcu.externaltools.gnu-tools-for-stm32.9-2020-q2-update.win32_2.0.0.202105311346/tools/bin/../lib/gcc/arm-none-eabi/9.3.1/thumb/v7e-m+fp/hard\libgcc.a(_udivmoddi4.o)
                0x000000000802964c                __exidx_end = .
                0x000000000802964c                . = ALIGN (0x4)

.rel.dyn        0x000000000802964c        0x0
 .rel.iplt      0x000000000802964c        0x0 d:/st/stm32cubeide_1.8.0/stm32cubeide/plugins/com.st.stm32cube.ide.mcu.externaltools.gnu-tools-for-stm32.9-2020-q2-update.win32_2.0.0.202105311346/tools/bin/../lib/gcc/arm-none-eabi/9.3.1/thumb/v7e-m+fp/hard/crtbegin.o

.preinit_array  0x000000000802964c        0x0
                0x000000000802964c                . = ALIGN (0x4)
                0x000000000802964c                PROVIDE (__preinit_array_start = .)
 *(.preinit_array*)
                0x000000000802964c                PROVIDE (__preinit_array_end = .)
                0x000000000802964c                . = ALIGN (0x4)

.init_array     0x000000000802964c        0x4
                0x000000000802964c                . = ALIGN (0x4)
                0x000000000802964c                PROVIDE (__init_array_start = .)
 *(SORT_BY_NAME(.init_array.*))
 *(.init_array*)
 .init_array    0x000000000802964c        0x4 d:/st/stm32cubeide_1.8.0/stm32cubeide/plugins/com.st.stm32cube.ide.mcu.externaltools.gnu-tools-for-stm32.9-2020-q2-update.win32_2.0.0.202105311346/tools/bin/../lib/gcc/arm-none-eabi/9.3.1/thumb/v7e-m+fp/hard/crtbegin.o
                0x0000000008029650                PROVIDE (__init_array_end = .)
                0x0000000008029650                . = ALIGN (0x4)

.fini_array     0x0000000008029650        0x4
                0x0000000008029650                . = ALIGN (0x4)
                [!provide]                        PROVIDE (__fini_array_start = .)
 *(SORT_BY_NAME(.fini_array.*))
 *(.fini_array*)
 .fini_array    0x0000000008029650        0x4 d:/st/stm32cubeide_1.8.0/stm32cubeide/plugins/com.st.stm32cube.ide.mcu.externaltools.gnu-tools-for-stm32.9-2020-q2-update.win32_2.0.0.202105311346/tools/bin/../lib/gcc/arm-none-eabi/9.3.1/thumb/v7e-m+fp/hard/crtbegin.o
                [!provide]                        PROVIDE (__fini_array_end = .)
                0x0000000008029654                . = ALIGN (0x4)
                0x0000000008029654                _sidata = LOADADDR (.data)

.data           0x0000000020000000      0x258 load address 0x0000000008029654
                0x0000000020000000                . = ALIGN (0x4)
                0x0000000020000000                _sdata = .
 *(.data)
 *(.data*)
 .data.SystemCoreClock
                0x0000000020000000        0x4 ./Core/Src/system_stm32f4xx.o
                0x0000000020000000                SystemCoreClock
 .data.uwTickFreq
                0x0000000020000004        0x1 ./Drivers/STM32F4xx_HAL_Driver/Src/stm32f4xx_hal.o
                0x0000000020000004                uwTickFreq
 *fill*         0x0000000020000005        0x3 
 .data.uwTickPrio
                0x0000000020000008        0x4 ./Drivers/STM32F4xx_HAL_Driver/Src/stm32f4xx_hal.o
                0x0000000020000008                uwTickPrio
 .data.uxCriticalNesting
                0x000000002000000c        0x4 ./Middlewares/Third_Party/FreeRTOS/Source/portable/GCC/ARM_CM4F/port.o
 .data.log      0x0000000020000010       0x50 ./user/detect.o
                0x0000000020000010                log
 .data.pin_cfg  0x0000000020000060       0xa0 ./user/detect.o
                0x0000000020000060                pin_cfg
 .data.io1_cfg  0x0000000020000100        0x8 ./user/io_ctrl.o
                0x0000000020000100                io1_cfg
 .data.io2_cfg  0x0000000020000108       0x50 ./user/io_ctrl.o
                0x0000000020000108                io2_cfg
 .data.current_puts
                0x0000000020000158        0x4 ./user/myprintf.o
                0x0000000020000158                current_puts
 .data.test_cfg
                0x000000002000015c       0x98 ./user/soft_timer.o
                0x000000002000015c                test_cfg
 .data._impure_ptr
                0x00000000200001f4        0x4 d:/st/stm32cubeide_1.8.0/stm32cubeide/plugins/com.st.stm32cube.ide.mcu.externaltools.gnu-tools-for-stm32.9-2020-q2-update.win32_2.0.0.202105311346/tools/bin/../lib/gcc/arm-none-eabi/9.3.1/../../../../arm-none-eabi/lib/thumb/v7e-m+fp/hard\libc_nano.a(lib_a-impure.o)
                0x00000000200001f4                _impure_ptr
 .data.impure_data
                0x00000000200001f8       0x60 d:/st/stm32cubeide_1.8.0/stm32cubeide/plugins/com.st.stm32cube.ide.mcu.externaltools.gnu-tools-for-stm32.9-2020-q2-update.win32_2.0.0.202105311346/tools/bin/../lib/gcc/arm-none-eabi/9.3.1/../../../../arm-none-eabi/lib/thumb/v7e-m+fp/hard\libc_nano.a(lib_a-impure.o)
 *(.RamFunc)
 *(.RamFunc*)
                0x0000000020000258                . = ALIGN (0x4)
                0x0000000020000258                _edata = .

.igot.plt       0x0000000020000258        0x0 load address 0x00000000080298ac
 .igot.plt      0x0000000020000258        0x0 d:/st/stm32cubeide_1.8.0/stm32cubeide/plugins/com.st.stm32cube.ide.mcu.externaltools.gnu-tools-for-stm32.9-2020-q2-update.win32_2.0.0.202105311346/tools/bin/../lib/gcc/arm-none-eabi/9.3.1/thumb/v7e-m+fp/hard/crtbegin.o
                0x0000000020000258                . = ALIGN (0x4)

.bss            0x0000000020000258     0x8abc load address 0x00000000080298ac
                0x0000000020000258                _sbss = .
                0x0000000020000258                __bss_start__ = _sbss
 *(.bss)
 .bss           0x0000000020000258       0x1c d:/st/stm32cubeide_1.8.0/stm32cubeide/plugins/com.st.stm32cube.ide.mcu.externaltools.gnu-tools-for-stm32.9-2020-q2-update.win32_2.0.0.202105311346/tools/bin/../lib/gcc/arm-none-eabi/9.3.1/thumb/v7e-m+fp/hard/crtbegin.o
 *(.bss*)
 .bss.cnt.10254
                0x0000000020000274        0x1 ./Core/Src/freertos.o
 *fill*         0x0000000020000275        0x3 
 .bss.__lock___malloc_recursive_mutex
                0x0000000020000278        0xc ./Core/ThreadSafe/newlib_lock_glue.o
                0x0000000020000278                __lock___malloc_recursive_mutex
 .bss.Idle_Stack.10413
                0x0000000020000284      0x200 ./Middlewares/Third_Party/FreeRTOS/Source/CMSIS_RTOS_V2/cmsis_os2.o
 .bss.Idle_TCB.10412
                0x0000000020000484       0xbc ./Middlewares/Third_Party/FreeRTOS/Source/CMSIS_RTOS_V2/cmsis_os2.o
 .bss.KernelState
                0x0000000020000540        0x4 ./Middlewares/Third_Party/FreeRTOS/Source/CMSIS_RTOS_V2/cmsis_os2.o
 .bss.Timer_Stack.10420
                0x0000000020000544      0x400 ./Middlewares/Third_Party/FreeRTOS/Source/CMSIS_RTOS_V2/cmsis_os2.o
 .bss.Timer_TCB.10419
                0x0000000020000944       0xbc ./Middlewares/Third_Party/FreeRTOS/Source/CMSIS_RTOS_V2/cmsis_os2.o
 .bss.pxCurrentTCB
                0x0000000020000a00        0x4 ./Middlewares/Third_Party/FreeRTOS/Source/tasks.o
                0x0000000020000a00                pxCurrentTCB
 .bss.pxDelayedTaskList
                0x0000000020000a04        0x4 ./Middlewares/Third_Party/FreeRTOS/Source/tasks.o
 .bss.pxOverflowDelayedTaskList
                0x0000000020000a08        0x4 ./Middlewares/Third_Party/FreeRTOS/Source/tasks.o
 .bss.pxReadyTasksLists
                0x0000000020000a0c      0x460 ./Middlewares/Third_Party/FreeRTOS/Source/tasks.o
 .bss.uxCurrentNumberOfTasks
                0x0000000020000e6c        0x4 ./Middlewares/Third_Party/FreeRTOS/Source/tasks.o
 .bss.uxDeletedTasksWaitingCleanUp
                0x0000000020000e70        0x4 ./Middlewares/Third_Party/FreeRTOS/Source/tasks.o
 .bss.uxSchedulerSuspended
                0x0000000020000e74        0x4 ./Middlewares/Third_Party/FreeRTOS/Source/tasks.o
 .bss.uxTaskNumber
                0x0000000020000e78        0x4 ./Middlewares/Third_Party/FreeRTOS/Source/tasks.o
 .bss.uxTopReadyPriority
                0x0000000020000e7c        0x4 ./Middlewares/Third_Party/FreeRTOS/Source/tasks.o
 .bss.xDelayedTaskList1
                0x0000000020000e80       0x14 ./Middlewares/Third_Party/FreeRTOS/Source/tasks.o
 .bss.xDelayedTaskList2
                0x0000000020000e94       0x14 ./Middlewares/Third_Party/FreeRTOS/Source/tasks.o
 .bss.xNextTaskUnblockTime
                0x0000000020000ea8        0x4 ./Middlewares/Third_Party/FreeRTOS/Source/tasks.o
 .bss.xNumOfOverflows
                0x0000000020000eac        0x4 ./Middlewares/Third_Party/FreeRTOS/Source/tasks.o
 .bss.xPendedTicks
                0x0000000020000eb0        0x4 ./Middlewares/Third_Party/FreeRTOS/Source/tasks.o
 .bss.xPendingReadyList
                0x0000000020000eb4       0x14 ./Middlewares/Third_Party/FreeRTOS/Source/tasks.o
 .bss.xSchedulerRunning
                0x0000000020000ec8        0x4 ./Middlewares/Third_Party/FreeRTOS/Source/tasks.o
 .bss.xSuspendedTaskList
                0x0000000020000ecc       0x14 ./Middlewares/Third_Party/FreeRTOS/Source/tasks.o
 .bss.xTasksWaitingTermination
                0x0000000020000ee0       0x14 ./Middlewares/Third_Party/FreeRTOS/Source/tasks.o
 .bss.xTickCount
                0x0000000020000ef4        0x4 ./Middlewares/Third_Party/FreeRTOS/Source/tasks.o
 .bss.xYieldPending
                0x0000000020000ef8        0x4 ./Middlewares/Third_Party/FreeRTOS/Source/tasks.o
 .bss.pxCurrentTimerList
                0x0000000020000efc        0x4 ./Middlewares/Third_Party/FreeRTOS/Source/timers.o
 .bss.pxOverflowTimerList
                0x0000000020000f00        0x4 ./Middlewares/Third_Party/FreeRTOS/Source/timers.o
 .bss.ucStaticTimerQueueStorage.7061
                0x0000000020000f04       0xa0 ./Middlewares/Third_Party/FreeRTOS/Source/timers.o
 .bss.xActiveTimerList1
                0x0000000020000fa4       0x14 ./Middlewares/Third_Party/FreeRTOS/Source/timers.o
 .bss.xActiveTimerList2
                0x0000000020000fb8       0x14 ./Middlewares/Third_Party/FreeRTOS/Source/timers.o
 .bss.xLastTime.7010
                0x0000000020000fcc        0x4 ./Middlewares/Third_Party/FreeRTOS/Source/timers.o
 .bss.xStaticTimerQueue.7060
                0x0000000020000fd0       0x50 ./Middlewares/Third_Party/FreeRTOS/Source/timers.o
 .bss.xTimerQueue
                0x0000000020001020        0x4 ./Middlewares/Third_Party/FreeRTOS/Source/timers.o
 .bss.xTimerTaskHandle
                0x0000000020001024        0x4 ./Middlewares/Third_Party/FreeRTOS/Source/timers.o
 .bss.ucMaxSysCallPriority
                0x0000000020001028        0x1 ./Middlewares/Third_Party/FreeRTOS/Source/portable/GCC/ARM_CM4F/port.o
 *fill*         0x0000000020001029        0x3 
 .bss.ulMaxPRIGROUPValue
                0x000000002000102c        0x4 ./Middlewares/Third_Party/FreeRTOS/Source/portable/GCC/ARM_CM4F/port.o
 .bss.pxEnd     0x0000000020001030        0x4 ./Middlewares/Third_Party/FreeRTOS/Source/portable/MemMang/heap_4.o
 .bss.ucHeap    0x0000000020001034     0x6000 ./Middlewares/Third_Party/FreeRTOS/Source/portable/MemMang/heap_4.o
 .bss.xBlockAllocatedBit
                0x0000000020007034        0x4 ./Middlewares/Third_Party/FreeRTOS/Source/portable/MemMang/heap_4.o
 .bss.xFreeBytesRemaining
                0x0000000020007038        0x4 ./Middlewares/Third_Party/FreeRTOS/Source/portable/MemMang/heap_4.o
 .bss.xMinimumEverFreeBytesRemaining
                0x000000002000703c        0x4 ./Middlewares/Third_Party/FreeRTOS/Source/portable/MemMang/heap_4.o
 .bss.xNumberOfSuccessfulAllocations
                0x0000000020007040        0x4 ./Middlewares/Third_Party/FreeRTOS/Source/portable/MemMang/heap_4.o
 .bss.xNumberOfSuccessfulFrees
                0x0000000020007044        0x4 ./Middlewares/Third_Party/FreeRTOS/Source/portable/MemMang/heap_4.o
 .bss.xStart    0x0000000020007048        0x8 ./Middlewares/Third_Party/FreeRTOS/Source/portable/MemMang/heap_4.o
 .bss.cnt.9510  0x0000000020007050        0x1 ./user/detect.o
 *fill*         0x0000000020007051        0x3 
 .bss.eeprom_cache
                0x0000000020007054      0x400 ./user/eeprom.o
 .bss.my_tic    0x0000000020007454       0x14 ./user/my_tim.o
                0x0000000020007454                my_tic
 .bss.tickCnt   0x0000000020007468        0x4 ./user/soft_timer.o
                0x0000000020007468                tickCnt
 .bss.timer     0x000000002000746c      0x140 ./user/soft_timer.o
 .bss.__malloc_free_list
                0x00000000200075ac        0x4 d:/st/stm32cubeide_1.8.0/stm32cubeide/plugins/com.st.stm32cube.ide.mcu.externaltools.gnu-tools-for-stm32.9-2020-q2-update.win32_2.0.0.202105311346/tools/bin/../lib/gcc/arm-none-eabi/9.3.1/../../../../arm-none-eabi/lib/thumb/v7e-m+fp/hard\libc_nano.a(lib_a-nano-mallocr.o)
                0x00000000200075ac                __malloc_free_list
 *(COMMON)
 COMMON         0x00000000200075b0       0x54 ./Core/Src/freertos.o
                0x00000000200075b0                defaultTaskHandle
                0x00000000200075b4                myEvent04Handle
                0x00000000200075b8                myBinarySem05Handle
                0x00000000200075bc                myEvent01Handle
                0x00000000200075c0                myTask05Handle
                0x00000000200075c4                myTask04Handle
                0x00000000200075c8                myTask08Handle
                0x00000000200075cc                myBinarySem03Handle
                0x00000000200075d0                myEvent03Handle
                0x00000000200075d4                myEvent02Handle
                0x00000000200075d8                myBinarySem02Handle
                0x00000000200075dc                myTask02Handle
                0x00000000200075e0                myBinarySem01Handle
                0x00000000200075e4                myTask03Handle
                0x00000000200075e8                myTask07Handle
                0x00000000200075ec                myQueueUsart1Handle
                0x00000000200075f0                myQueueUsart6Handle
                0x00000000200075f4                myQueueUsart3Handle
                0x00000000200075f8                myEvent05Handle
                0x00000000200075fc                myTask06Handle
                0x0000000020007600                myBinarySem04Handle
 COMMON         0x0000000020007604        0xc ./Core/Src/iwdg.o
                0x0000000020007604                hiwdg
 COMMON         0x0000000020007610       0x20 ./Core/Src/rtc.o
                0x0000000020007610                hrtc
 COMMON         0x0000000020007630       0x48 ./Core/Src/stm32f4xx_hal_timebase_tim.o
                0x0000000020007630                htim2
 COMMON         0x0000000020007678       0xd8 ./Core/Src/tim.o
                0x0000000020007678                htim10
                0x00000000200076c0                htim6
                0x0000000020007708                htim7
 COMMON         0x0000000020007750      0x30c ./Core/Src/usart.o
                0x0000000020007750                hdma_usart6_rx
                0x00000000200077b0                hdma_usart3_rx
                0x0000000020007810                huart3
                0x0000000020007854                hdma_usart3_tx
                0x00000000200078b4                hdma_usart1_tx
                0x0000000020007914                hdma_usart6_tx
                0x0000000020007974                hdma_usart1_rx
                0x00000000200079d4                huart1
                0x0000000020007a18                huart6
 COMMON         0x0000000020007a5c        0x4 ./Drivers/STM32F4xx_HAL_Driver/Src/stm32f4xx_hal.o
                0x0000000020007a5c                uwTick
 COMMON         0x0000000020007a60       0x20 ./Drivers/STM32F4xx_HAL_Driver/Src/stm32f4xx_hal_flash.o
                0x0000000020007a60                pFlash
 COMMON         0x0000000020007a80       0x40 ./Middlewares/Third_Party/FreeRTOS/Source/queue.o
                0x0000000020007a80                xQueueRegistry
 COMMON         0x0000000020007ac0       0x7c ./user/detect.o
                0x0000000020007ac0                keyrun_result
                0x0000000020007ac1                keyrun_buff
                0x0000000020007ad4                dpt
                0x0000000020007b3a                op_mod_st
 COMMON         0x0000000020007b3c     0x1010 ./user/dev_usart.o
                0x0000000020007b3c                usart1_rx
                0x0000000020007d3e                Usart1_Type
                0x0000000020007f40                usart6_rx
                0x0000000020008142                Usart2_Type
                0x0000000020008344                Usart3_Type
                0x0000000020008546                usart2_rx
                0x0000000020008748                Usart6_Type
                0x000000002000894a                usart3_rx
 COMMON         0x0000000020008b4c      0x185 ./user/io_ctrl.o
                0x0000000020008b4c                osthd_st
                0x0000000020008b50                set_para_st
                0x0000000020008b74                op_para_st
                0x0000000020008b78                screen_ini_st
                0x0000000020008b7a                det_arrive1
                0x0000000020008b7c                scr_state_st
                0x0000000020008b8c                scr_operate_st
                0x0000000020008bac                screen_prot
                0x0000000020008cc4                det_leave1
                0x0000000020008cc5                det_arrive
                0x0000000020008cc6                det_leave
                0x0000000020008cc7                arrive
 COMMON         0x0000000020008cd1       0x3c ./user/my_tim.o
                0x0000000020008cd1                warn_st
                0x0000000020008cef                warn_bk_st
 COMMON         0x0000000020008d0d        0x4 ./user/sysguard.o
                0x0000000020008d0d                sys_guard
                0x0000000020008d14                . = ALIGN (0x4)
 *fill*         0x0000000020008d11        0x3 
                0x0000000020008d14                _ebss = .
                0x0000000020008d14                __bss_end__ = _ebss

._user_heap_stack
                0x0000000020008d14     0x1804 load address 0x00000000080298ac
                0x0000000020008d18                . = ALIGN (0x8)
 *fill*         0x0000000020008d14        0x4 
                [!provide]                        PROVIDE (end = .)
                0x0000000020008d18                PROVIDE (_end = .)
                0x0000000020009518                . = (. + _Min_Heap_Size)
 *fill*         0x0000000020008d18      0x800 
                0x000000002000a518                . = (. + _Min_Stack_Size)
 *fill*         0x0000000020009518     0x1000 
                0x000000002000a518                . = ALIGN (0x8)

/DISCARD/
 libc.a(*)
 libm.a(*)
 libgcc.a(*)

.ARM.attributes
                0x0000000000000000       0x30
 *(.ARM.attributes)
 .ARM.attributes
                0x0000000000000000       0x1e d:/st/stm32cubeide_1.8.0/stm32cubeide/plugins/com.st.stm32cube.ide.mcu.externaltools.gnu-tools-for-stm32.9-2020-q2-update.win32_2.0.0.202105311346/tools/bin/../lib/gcc/arm-none-eabi/9.3.1/thumb/v7e-m+fp/hard/crti.o
 .ARM.attributes
                0x000000000000001e       0x34 d:/st/stm32cubeide_1.8.0/stm32cubeide/plugins/com.st.stm32cube.ide.mcu.externaltools.gnu-tools-for-stm32.9-2020-q2-update.win32_2.0.0.202105311346/tools/bin/../lib/gcc/arm-none-eabi/9.3.1/thumb/v7e-m+fp/hard/crtbegin.o
 .ARM.attributes
                0x0000000000000052       0x34 ./Core/Src/dma.o
 .ARM.attributes
                0x0000000000000086       0x34 ./Core/Src/freertos.o
 .ARM.attributes
                0x00000000000000ba       0x34 ./Core/Src/gpio.o
 .ARM.attributes
                0x00000000000000ee       0x34 ./Core/Src/iwdg.o
 .ARM.attributes
                0x0000000000000122       0x34 ./Core/Src/main.o
 .ARM.attributes
                0x0000000000000156       0x34 ./Core/Src/rtc.o
 .ARM.attributes
                0x000000000000018a       0x34 ./Core/Src/stm32f4xx_hal_msp.o
 .ARM.attributes
                0x00000000000001be       0x34 ./Core/Src/stm32f4xx_hal_timebase_tim.o
 .ARM.attributes
                0x00000000000001f2       0x34 ./Core/Src/stm32f4xx_it.o
 .ARM.attributes
                0x0000000000000226       0x34 ./Core/Src/system_stm32f4xx.o
 .ARM.attributes
                0x000000000000025a       0x34 ./Core/Src/tim.o
 .ARM.attributes
                0x000000000000028e       0x34 ./Core/Src/usart.o
 .ARM.attributes
                0x00000000000002c2       0x21 ./Core/Startup/startup_stm32f412retx.o
 .ARM.attributes
                0x00000000000002e3       0x34 ./Core/ThreadSafe/newlib_lock_glue.o
 .ARM.attributes
                0x0000000000000317       0x34 ./Drivers/STM32F4xx_HAL_Driver/Src/stm32f4xx_hal.o
 .ARM.attributes
                0x000000000000034b       0x34 ./Drivers/STM32F4xx_HAL_Driver/Src/stm32f4xx_hal_cortex.o
 .ARM.attributes
                0x000000000000037f       0x34 ./Drivers/STM32F4xx_HAL_Driver/Src/stm32f4xx_hal_dma.o
 .ARM.attributes
                0x00000000000003b3       0x34 ./Drivers/STM32F4xx_HAL_Driver/Src/stm32f4xx_hal_flash.o
 .ARM.attributes
                0x00000000000003e7       0x34 ./Drivers/STM32F4xx_HAL_Driver/Src/stm32f4xx_hal_flash_ex.o
 .ARM.attributes
                0x000000000000041b       0x34 ./Drivers/STM32F4xx_HAL_Driver/Src/stm32f4xx_hal_gpio.o
 .ARM.attributes
                0x000000000000044f       0x34 ./Drivers/STM32F4xx_HAL_Driver/Src/stm32f4xx_hal_iwdg.o
 .ARM.attributes
                0x0000000000000483       0x34 ./Drivers/STM32F4xx_HAL_Driver/Src/stm32f4xx_hal_rcc.o
 .ARM.attributes
                0x00000000000004b7       0x34 ./Drivers/STM32F4xx_HAL_Driver/Src/stm32f4xx_hal_rcc_ex.o
 .ARM.attributes
                0x00000000000004eb       0x34 ./Drivers/STM32F4xx_HAL_Driver/Src/stm32f4xx_hal_rtc.o
 .ARM.attributes
                0x000000000000051f       0x34 ./Drivers/STM32F4xx_HAL_Driver/Src/stm32f4xx_hal_tim.o
 .ARM.attributes
                0x0000000000000553       0x34 ./Drivers/STM32F4xx_HAL_Driver/Src/stm32f4xx_hal_tim_ex.o
 .ARM.attributes
                0x0000000000000587       0x34 ./Drivers/STM32F4xx_HAL_Driver/Src/stm32f4xx_hal_uart.o
 .ARM.attributes
                0x00000000000005bb       0x34 ./Middlewares/Third_Party/FreeRTOS/Source/CMSIS_RTOS_V2/cmsis_os2.o
 .ARM.attributes
                0x00000000000005ef       0x34 ./Middlewares/Third_Party/FreeRTOS/Source/event_groups.o
 .ARM.attributes
                0x0000000000000623       0x34 ./Middlewares/Third_Party/FreeRTOS/Source/list.o
 .ARM.attributes
                0x0000000000000657       0x34 ./Middlewares/Third_Party/FreeRTOS/Source/queue.o
 .ARM.attributes
                0x000000000000068b       0x34 ./Middlewares/Third_Party/FreeRTOS/Source/tasks.o
 .ARM.attributes
                0x00000000000006bf       0x34 ./Middlewares/Third_Party/FreeRTOS/Source/timers.o
 .ARM.attributes
                0x00000000000006f3       0x34 ./Middlewares/Third_Party/FreeRTOS/Source/portable/GCC/ARM_CM4F/port.o
 .ARM.attributes
                0x0000000000000727       0x34 ./Middlewares/Third_Party/FreeRTOS/Source/portable/MemMang/heap_4.o
 .ARM.attributes
                0x000000000000075b       0x34 ./user/detect.o
 .ARM.attributes
                0x000000000000078f       0x34 ./user/dev_usart.o
 .ARM.attributes
                0x00000000000007c3       0x34 ./user/display.o
 .ARM.attributes
                0x00000000000007f7       0x34 ./user/eeprom.o
 .ARM.attributes
                0x000000000000082b       0x34 ./user/io_ctrl.o
 .ARM.attributes
                0x000000000000085f       0x34 ./user/my_tim.o
 .ARM.attributes
                0x0000000000000893       0x34 ./user/myprintf.o
 .ARM.attributes
                0x00000000000008c7       0x34 ./user/soft_timer.o
 .ARM.attributes
                0x00000000000008fb       0x34 ./user/sysguard.o
 .ARM.attributes
                0x000000000000092f       0x32 d:/st/stm32cubeide_1.8.0/stm32cubeide/plugins/com.st.stm32cube.ide.mcu.externaltools.gnu-tools-for-stm32.9-2020-q2-update.win32_2.0.0.202105311346/tools/bin/../lib/gcc/arm-none-eabi/9.3.1/../../../../arm-none-eabi/lib/thumb/v7e-m+fp/hard\libc_nano.a(lib_a-ctype_.o)
 .ARM.attributes
                0x0000000000000961       0x34 d:/st/stm32cubeide_1.8.0/stm32cubeide/plugins/com.st.stm32cube.ide.mcu.externaltools.gnu-tools-for-stm32.9-2020-q2-update.win32_2.0.0.202105311346/tools/bin/../lib/gcc/arm-none-eabi/9.3.1/../../../../arm-none-eabi/lib/thumb/v7e-m+fp/hard\libc_nano.a(lib_a-findfp.o)
 .ARM.attributes
                0x0000000000000995       0x32 d:/st/stm32cubeide_1.8.0/stm32cubeide/plugins/com.st.stm32cube.ide.mcu.externaltools.gnu-tools-for-stm32.9-2020-q2-update.win32_2.0.0.202105311346/tools/bin/../lib/gcc/arm-none-eabi/9.3.1/../../../../arm-none-eabi/lib/thumb/v7e-m+fp/hard\libc_nano.a(lib_a-impure.o)
 .ARM.attributes
                0x00000000000009c7       0x34 d:/st/stm32cubeide_1.8.0/stm32cubeide/plugins/com.st.stm32cube.ide.mcu.externaltools.gnu-tools-for-stm32.9-2020-q2-update.win32_2.0.0.202105311346/tools/bin/../lib/gcc/arm-none-eabi/9.3.1/../../../../arm-none-eabi/lib/thumb/v7e-m+fp/hard\libc_nano.a(lib_a-init.o)
 .ARM.attributes
                0x00000000000009fb       0x34 d:/st/stm32cubeide_1.8.0/stm32cubeide/plugins/com.st.stm32cube.ide.mcu.externaltools.gnu-tools-for-stm32.9-2020-q2-update.win32_2.0.0.202105311346/tools/bin/../lib/gcc/arm-none-eabi/9.3.1/../../../../arm-none-eabi/lib/thumb/v7e-m+fp/hard\libc_nano.a(lib_a-memcpy-stub.o)
 .ARM.attributes
                0x0000000000000a2f       0x34 d:/st/stm32cubeide_1.8.0/stm32cubeide/plugins/com.st.stm32cube.ide.mcu.externaltools.gnu-tools-for-stm32.9-2020-q2-update.win32_2.0.0.202105311346/tools/bin/../lib/gcc/arm-none-eabi/9.3.1/../../../../arm-none-eabi/lib/thumb/v7e-m+fp/hard\libc_nano.a(lib_a-memset.o)
 .ARM.attributes
                0x0000000000000a63       0x34 d:/st/stm32cubeide_1.8.0/stm32cubeide/plugins/com.st.stm32cube.ide.mcu.externaltools.gnu-tools-for-stm32.9-2020-q2-update.win32_2.0.0.202105311346/tools/bin/../lib/gcc/arm-none-eabi/9.3.1/../../../../arm-none-eabi/lib/thumb/v7e-m+fp/hard\libc_nano.a(lib_a-nano-freer.o)
 .ARM.attributes
                0x0000000000000a97       0x34 d:/st/stm32cubeide_1.8.0/stm32cubeide/plugins/com.st.stm32cube.ide.mcu.externaltools.gnu-tools-for-stm32.9-2020-q2-update.win32_2.0.0.202105311346/tools/bin/../lib/gcc/arm-none-eabi/9.3.1/../../../../arm-none-eabi/lib/thumb/v7e-m+fp/hard\libc_nano.a(lib_a-nano-mallocr.o)
 .ARM.attributes
                0x0000000000000acb       0x34 d:/st/stm32cubeide_1.8.0/stm32cubeide/plugins/com.st.stm32cube.ide.mcu.externaltools.gnu-tools-for-stm32.9-2020-q2-update.win32_2.0.0.202105311346/tools/bin/../lib/gcc/arm-none-eabi/9.3.1/../../../../arm-none-eabi/lib/thumb/v7e-m+fp/hard\libc_nano.a(lib_a-reent.o)
 .ARM.attributes
                0x0000000000000aff       0x34 d:/st/stm32cubeide_1.8.0/stm32cubeide/plugins/com.st.stm32cube.ide.mcu.externaltools.gnu-tools-for-stm32.9-2020-q2-update.win32_2.0.0.202105311346/tools/bin/../lib/gcc/arm-none-eabi/9.3.1/../../../../arm-none-eabi/lib/thumb/v7e-m+fp/hard\libc_nano.a(lib_a-mlock.o)
 .ARM.attributes
                0x0000000000000b33       0x1e d:/st/stm32cubeide_1.8.0/stm32cubeide/plugins/com.st.stm32cube.ide.mcu.externaltools.gnu-tools-for-stm32.9-2020-q2-update.win32_2.0.0.202105311346/tools/bin/../lib/gcc/arm-none-eabi/9.3.1/thumb/v7e-m+fp/hard\libgcc.a(_arm_truncdfsf2.o)
 .ARM.attributes
                0x0000000000000b51       0x1e d:/st/stm32cubeide_1.8.0/stm32cubeide/plugins/com.st.stm32cube.ide.mcu.externaltools.gnu-tools-for-stm32.9-2020-q2-update.win32_2.0.0.202105311346/tools/bin/../lib/gcc/arm-none-eabi/9.3.1/thumb/v7e-m+fp/hard\libgcc.a(_aeabi_uldivmod.o)
 .ARM.attributes
                0x0000000000000b6f       0x34 d:/st/stm32cubeide_1.8.0/stm32cubeide/plugins/com.st.stm32cube.ide.mcu.externaltools.gnu-tools-for-stm32.9-2020-q2-update.win32_2.0.0.202105311346/tools/bin/../lib/gcc/arm-none-eabi/9.3.1/thumb/v7e-m+fp/hard\libgcc.a(_udivmoddi4.o)
 .ARM.attributes
                0x0000000000000ba3       0x1e d:/st/stm32cubeide_1.8.0/stm32cubeide/plugins/com.st.stm32cube.ide.mcu.externaltools.gnu-tools-for-stm32.9-2020-q2-update.win32_2.0.0.202105311346/tools/bin/../lib/gcc/arm-none-eabi/9.3.1/thumb/v7e-m+fp/hard\libgcc.a(_dvmd_tls.o)
 .ARM.attributes
                0x0000000000000bc1       0x1e d:/st/stm32cubeide_1.8.0/stm32cubeide/plugins/com.st.stm32cube.ide.mcu.externaltools.gnu-tools-for-stm32.9-2020-q2-update.win32_2.0.0.202105311346/tools/bin/../lib/gcc/arm-none-eabi/9.3.1/thumb/v7e-m+fp/hard/crtn.o
OUTPUT(PACKER.elf elf32-littlearm)
LOAD linker stubs
LOAD d:/st/stm32cubeide_1.8.0/stm32cubeide/plugins/com.st.stm32cube.ide.mcu.externaltools.gnu-tools-for-stm32.9-2020-q2-update.win32_2.0.0.202105311346/tools/bin/../lib/gcc/arm-none-eabi/9.3.1/../../../../arm-none-eabi/lib/thumb/v7e-m+fp/hard\libc.a
LOAD d:/st/stm32cubeide_1.8.0/stm32cubeide/plugins/com.st.stm32cube.ide.mcu.externaltools.gnu-tools-for-stm32.9-2020-q2-update.win32_2.0.0.202105311346/tools/bin/../lib/gcc/arm-none-eabi/9.3.1/../../../../arm-none-eabi/lib/thumb/v7e-m+fp/hard\libm.a
LOAD d:/st/stm32cubeide_1.8.0/stm32cubeide/plugins/com.st.stm32cube.ide.mcu.externaltools.gnu-tools-for-stm32.9-2020-q2-update.win32_2.0.0.202105311346/tools/bin/../lib/gcc/arm-none-eabi/9.3.1/thumb/v7e-m+fp/hard\libgcc.a

.debug_info     0x0000000000000000    0x40bb6
 .debug_info    0x0000000000000000      0x71d ./Core/Src/dma.o
 .debug_info    0x000000000000071d     0x23e3 ./Core/Src/freertos.o
 .debug_info    0x0000000000002b00      0x6bf ./Core/Src/gpio.o
 .debug_info    0x00000000000031bf      0x2c3 ./Core/Src/iwdg.o
 .debug_info    0x0000000000003482     0x2ab4 ./Core/Src/main.o
 .debug_info    0x0000000000005f36      0x8bc ./Core/Src/rtc.o
 .debug_info    0x00000000000067f2      0x60a ./Core/Src/stm32f4xx_hal_msp.o
 .debug_info    0x0000000000006dfc      0xd6c ./Core/Src/stm32f4xx_hal_timebase_tim.o
 .debug_info    0x0000000000007b68      0xdf2 ./Core/Src/stm32f4xx_it.o
 .debug_info    0x000000000000895a      0x5f5 ./Core/Src/system_stm32f4xx.o
 .debug_info    0x0000000000008f4f      0xe17 ./Core/Src/tim.o
 .debug_info    0x0000000000009d66     0x1128 ./Core/Src/usart.o
 .debug_info    0x000000000000ae8e       0x22 ./Core/Startup/startup_stm32f412retx.o
 .debug_info    0x000000000000aeb0     0x11f8 ./Core/ThreadSafe/newlib_lock_glue.o
 .debug_info    0x000000000000c0a8      0xb02 ./Drivers/STM32F4xx_HAL_Driver/Src/stm32f4xx_hal.o
 .debug_info    0x000000000000cbaa     0x13de ./Drivers/STM32F4xx_HAL_Driver/Src/stm32f4xx_hal_cortex.o
 .debug_info    0x000000000000df88      0xdec ./Drivers/STM32F4xx_HAL_Driver/Src/stm32f4xx_hal_dma.o
 .debug_info    0x000000000000ed74      0x927 ./Drivers/STM32F4xx_HAL_Driver/Src/stm32f4xx_hal_flash.o
 .debug_info    0x000000000000f69b      0xe18 ./Drivers/STM32F4xx_HAL_Driver/Src/stm32f4xx_hal_flash_ex.o
 .debug_info    0x00000000000104b3      0xa69 ./Drivers/STM32F4xx_HAL_Driver/Src/stm32f4xx_hal_gpio.o
 .debug_info    0x0000000000010f1c      0x360 ./Drivers/STM32F4xx_HAL_Driver/Src/stm32f4xx_hal_iwdg.o
 .debug_info    0x000000000001127c      0xeb5 ./Drivers/STM32F4xx_HAL_Driver/Src/stm32f4xx_hal_rcc.o
 .debug_info    0x0000000000012131      0xed6 ./Drivers/STM32F4xx_HAL_Driver/Src/stm32f4xx_hal_rcc_ex.o
 .debug_info    0x0000000000013007     0x1952 ./Drivers/STM32F4xx_HAL_Driver/Src/stm32f4xx_hal_rtc.o
 .debug_info    0x0000000000014959     0x5367 ./Drivers/STM32F4xx_HAL_Driver/Src/stm32f4xx_hal_tim.o
 .debug_info    0x0000000000019cc0     0x21b6 ./Drivers/STM32F4xx_HAL_Driver/Src/stm32f4xx_hal_tim_ex.o
 .debug_info    0x000000000001be76     0x4680 ./Drivers/STM32F4xx_HAL_Driver/Src/stm32f4xx_hal_uart.o
 .debug_info    0x00000000000204f6     0x53f2 ./Middlewares/Third_Party/FreeRTOS/Source/CMSIS_RTOS_V2/cmsis_os2.o
 .debug_info    0x00000000000258e8     0x194f ./Middlewares/Third_Party/FreeRTOS/Source/event_groups.o
 .debug_info    0x0000000000027237      0xb95 ./Middlewares/Third_Party/FreeRTOS/Source/list.o
 .debug_info    0x0000000000027dcc     0x3401 ./Middlewares/Third_Party/FreeRTOS/Source/queue.o
 .debug_info    0x000000000002b1cd     0x3dfe ./Middlewares/Third_Party/FreeRTOS/Source/tasks.o
 .debug_info    0x000000000002efcb     0x255d ./Middlewares/Third_Party/FreeRTOS/Source/timers.o
 .debug_info    0x0000000000031528      0xe52 ./Middlewares/Third_Party/FreeRTOS/Source/portable/GCC/ARM_CM4F/port.o
 .debug_info    0x000000000003237a      0xee8 ./Middlewares/Third_Party/FreeRTOS/Source/portable/MemMang/heap_4.o
 .debug_info    0x0000000000033262     0x18d5 ./user/detect.o
 .debug_info    0x0000000000034b37     0x1e18 ./user/dev_usart.o
 .debug_info    0x000000000003694f      0xa8f ./user/display.o
 .debug_info    0x00000000000373de     0x11c9 ./user/eeprom.o
 .debug_info    0x00000000000385a7     0x3cbf ./user/io_ctrl.o
 .debug_info    0x000000000003c266     0x12ae ./user/my_tim.o
 .debug_info    0x000000000003d514     0x1462 ./user/myprintf.o
 .debug_info    0x000000000003e976     0x1dc1 ./user/soft_timer.o
 .debug_info    0x0000000000040737      0x47f ./user/sysguard.o

.debug_abbrev   0x0000000000000000     0x7f0a
 .debug_abbrev  0x0000000000000000      0x157 ./Core/Src/dma.o
 .debug_abbrev  0x0000000000000157      0x30c ./Core/Src/freertos.o
 .debug_abbrev  0x0000000000000463      0x198 ./Core/Src/gpio.o
 .debug_abbrev  0x00000000000005fb      0x15b ./Core/Src/iwdg.o
 .debug_abbrev  0x0000000000000756      0x33b ./Core/Src/main.o
 .debug_abbrev  0x0000000000000a91      0x1c3 ./Core/Src/rtc.o
 .debug_abbrev  0x0000000000000c54      0x155 ./Core/Src/stm32f4xx_hal_msp.o
 .debug_abbrev  0x0000000000000da9      0x21a ./Core/Src/stm32f4xx_hal_timebase_tim.o
 .debug_abbrev  0x0000000000000fc3      0x205 ./Core/Src/stm32f4xx_it.o
 .debug_abbrev  0x00000000000011c8      0x14b ./Core/Src/system_stm32f4xx.o
 .debug_abbrev  0x0000000000001313      0x212 ./Core/Src/tim.o
 .debug_abbrev  0x0000000000001525      0x275 ./Core/Src/usart.o
 .debug_abbrev  0x000000000000179a       0x12 ./Core/Startup/startup_stm32f412retx.o
 .debug_abbrev  0x00000000000017ac      0x49b ./Core/ThreadSafe/newlib_lock_glue.o
 .debug_abbrev  0x0000000000001c47      0x27e ./Drivers/STM32F4xx_HAL_Driver/Src/stm32f4xx_hal.o
 .debug_abbrev  0x0000000000001ec5      0x3c3 ./Drivers/STM32F4xx_HAL_Driver/Src/stm32f4xx_hal_cortex.o
 .debug_abbrev  0x0000000000002288      0x355 ./Drivers/STM32F4xx_HAL_Driver/Src/stm32f4xx_hal_dma.o
 .debug_abbrev  0x00000000000025dd      0x2fd ./Drivers/STM32F4xx_HAL_Driver/Src/stm32f4xx_hal_flash.o
 .debug_abbrev  0x00000000000028da      0x32b ./Drivers/STM32F4xx_HAL_Driver/Src/stm32f4xx_hal_flash_ex.o
 .debug_abbrev  0x0000000000002c05      0x259 ./Drivers/STM32F4xx_HAL_Driver/Src/stm32f4xx_hal_gpio.o
 .debug_abbrev  0x0000000000002e5e      0x186 ./Drivers/STM32F4xx_HAL_Driver/Src/stm32f4xx_hal_iwdg.o
 .debug_abbrev  0x0000000000002fe4      0x328 ./Drivers/STM32F4xx_HAL_Driver/Src/stm32f4xx_hal_rcc.o
 .debug_abbrev  0x000000000000330c      0x20e ./Drivers/STM32F4xx_HAL_Driver/Src/stm32f4xx_hal_rcc_ex.o
 .debug_abbrev  0x000000000000351a      0x2e9 ./Drivers/STM32F4xx_HAL_Driver/Src/stm32f4xx_hal_rtc.o
 .debug_abbrev  0x0000000000003803      0x358 ./Drivers/STM32F4xx_HAL_Driver/Src/stm32f4xx_hal_tim.o
 .debug_abbrev  0x0000000000003b5b      0x2c3 ./Drivers/STM32F4xx_HAL_Driver/Src/stm32f4xx_hal_tim_ex.o
 .debug_abbrev  0x0000000000003e1e      0x3f7 ./Drivers/STM32F4xx_HAL_Driver/Src/stm32f4xx_hal_uart.o
 .debug_abbrev  0x0000000000004215      0x5ca ./Middlewares/Third_Party/FreeRTOS/Source/CMSIS_RTOS_V2/cmsis_os2.o
 .debug_abbrev  0x00000000000047df      0x427 ./Middlewares/Third_Party/FreeRTOS/Source/event_groups.o
 .debug_abbrev  0x0000000000004c06      0x20e ./Middlewares/Third_Party/FreeRTOS/Source/list.o
 .debug_abbrev  0x0000000000004e14      0x4b7 ./Middlewares/Third_Party/FreeRTOS/Source/queue.o
 .debug_abbrev  0x00000000000052cb      0x4e9 ./Middlewares/Third_Party/FreeRTOS/Source/tasks.o
 .debug_abbrev  0x00000000000057b4      0x453 ./Middlewares/Third_Party/FreeRTOS/Source/timers.o
 .debug_abbrev  0x0000000000005c07      0x3a3 ./Middlewares/Third_Party/FreeRTOS/Source/portable/GCC/ARM_CM4F/port.o
 .debug_abbrev  0x0000000000005faa      0x386 ./Middlewares/Third_Party/FreeRTOS/Source/portable/MemMang/heap_4.o
 .debug_abbrev  0x0000000000006330      0x3b9 ./user/detect.o
 .debug_abbrev  0x00000000000066e9      0x2df ./user/dev_usart.o
 .debug_abbrev  0x00000000000069c8      0x1b5 ./user/display.o
 .debug_abbrev  0x0000000000006b7d      0x329 ./user/eeprom.o
 .debug_abbrev  0x0000000000006ea6      0x49e ./user/io_ctrl.o
 .debug_abbrev  0x0000000000007344      0x26e ./user/my_tim.o
 .debug_abbrev  0x00000000000075b2      0x3cf ./user/myprintf.o
 .debug_abbrev  0x0000000000007981      0x3b7 ./user/soft_timer.o
 .debug_abbrev  0x0000000000007d38      0x1d2 ./user/sysguard.o

.debug_aranges  0x0000000000000000     0x19b0
 .debug_aranges
                0x0000000000000000       0x20 ./Core/Src/dma.o
 .debug_aranges
                0x0000000000000020       0x60 ./Core/Src/freertos.o
 .debug_aranges
                0x0000000000000080       0x20 ./Core/Src/gpio.o
 .debug_aranges
                0x00000000000000a0       0x20 ./Core/Src/iwdg.o
 .debug_aranges
                0x00000000000000c0       0x40 ./Core/Src/main.o
 .debug_aranges
                0x0000000000000100       0x30 ./Core/Src/rtc.o
 .debug_aranges
                0x0000000000000130       0x20 ./Core/Src/stm32f4xx_hal_msp.o
 .debug_aranges
                0x0000000000000150       0x30 ./Core/Src/stm32f4xx_hal_timebase_tim.o
 .debug_aranges
                0x0000000000000180       0xa8 ./Core/Src/stm32f4xx_it.o
 .debug_aranges
                0x0000000000000228       0x28 ./Core/Src/system_stm32f4xx.o
 .debug_aranges
                0x0000000000000250       0x40 ./Core/Src/tim.o
 .debug_aranges
                0x0000000000000290       0x40 ./Core/Src/usart.o
 .debug_aranges
                0x00000000000002d0       0x28 ./Core/Startup/startup_stm32f412retx.o
 .debug_aranges
                0x00000000000002f8       0x78 ./Core/ThreadSafe/newlib_lock_glue.o
 .debug_aranges
                0x0000000000000370       0xe8 ./Drivers/STM32F4xx_HAL_Driver/Src/stm32f4xx_hal.o
 .debug_aranges
                0x0000000000000458       0xa8 ./Drivers/STM32F4xx_HAL_Driver/Src/stm32f4xx_hal_cortex.o
 .debug_aranges
                0x0000000000000500       0x80 ./Drivers/STM32F4xx_HAL_Driver/Src/stm32f4xx_hal_dma.o
 .debug_aranges
                0x0000000000000580       0x98 ./Drivers/STM32F4xx_HAL_Driver/Src/stm32f4xx_hal_flash.o
 .debug_aranges
                0x0000000000000618       0x70 ./Drivers/STM32F4xx_HAL_Driver/Src/stm32f4xx_hal_flash_ex.o
 .debug_aranges
                0x0000000000000688       0x58 ./Drivers/STM32F4xx_HAL_Driver/Src/stm32f4xx_hal_gpio.o
 .debug_aranges
                0x00000000000006e0       0x28 ./Drivers/STM32F4xx_HAL_Driver/Src/stm32f4xx_hal_iwdg.o
 .debug_aranges
                0x0000000000000708       0x88 ./Drivers/STM32F4xx_HAL_Driver/Src/stm32f4xx_hal_rcc.o
 .debug_aranges
                0x0000000000000790       0x60 ./Drivers/STM32F4xx_HAL_Driver/Src/stm32f4xx_hal_rcc_ex.o
 .debug_aranges
                0x00000000000007f0       0xd8 ./Drivers/STM32F4xx_HAL_Driver/Src/stm32f4xx_hal_rtc.o
 .debug_aranges
                0x00000000000008c8      0x2d0 ./Drivers/STM32F4xx_HAL_Driver/Src/stm32f4xx_hal_tim.o
 .debug_aranges
                0x0000000000000b98      0x148 ./Drivers/STM32F4xx_HAL_Driver/Src/stm32f4xx_hal_tim_ex.o
 .debug_aranges
                0x0000000000000ce0      0x1a0 ./Drivers/STM32F4xx_HAL_Driver/Src/stm32f4xx_hal_uart.o
 .debug_aranges
                0x0000000000000e80      0x260 ./Middlewares/Third_Party/FreeRTOS/Source/CMSIS_RTOS_V2/cmsis_os2.o
 .debug_aranges
                0x00000000000010e0       0x88 ./Middlewares/Third_Party/FreeRTOS/Source/event_groups.o
 .debug_aranges
                0x0000000000001168       0x40 ./Middlewares/Third_Party/FreeRTOS/Source/list.o
 .debug_aranges
                0x00000000000011a8      0x138 ./Middlewares/Third_Party/FreeRTOS/Source/queue.o
 .debug_aranges
                0x00000000000012e0      0x1f0 ./Middlewares/Third_Party/FreeRTOS/Source/tasks.o
 .debug_aranges
                0x00000000000014d0       0xc8 ./Middlewares/Third_Party/FreeRTOS/Source/timers.o
 .debug_aranges
                0x0000000000001598       0x80 ./Middlewares/Third_Party/FreeRTOS/Source/portable/GCC/ARM_CM4F/port.o
 .debug_aranges
                0x0000000000001618       0x50 ./Middlewares/Third_Party/FreeRTOS/Source/portable/MemMang/heap_4.o
 .debug_aranges
                0x0000000000001668       0x68 ./user/detect.o
 .debug_aranges
                0x00000000000016d0       0x68 ./user/dev_usart.o
 .debug_aranges
                0x0000000000001738       0x28 ./user/display.o
 .debug_aranges
                0x0000000000001760       0x60 ./user/eeprom.o
 .debug_aranges
                0x00000000000017c0       0x90 ./user/io_ctrl.o
 .debug_aranges
                0x0000000000001850       0x80 ./user/my_tim.o
 .debug_aranges
                0x00000000000018d0       0x30 ./user/myprintf.o
 .debug_aranges
                0x0000000000001900       0x70 ./user/soft_timer.o
 .debug_aranges
                0x0000000000001970       0x40 ./user/sysguard.o

.debug_ranges   0x0000000000000000     0x26f0
 .debug_ranges  0x0000000000000000       0x40 ./Core/Src/dma.o
 .debug_ranges  0x0000000000000040       0x50 ./Core/Src/freertos.o
 .debug_ranges  0x0000000000000090       0x40 ./Core/Src/gpio.o
 .debug_ranges  0x00000000000000d0       0x10 ./Core/Src/iwdg.o
 .debug_ranges  0x00000000000000e0       0x60 ./Core/Src/main.o
 .debug_ranges  0x0000000000000140       0x20 ./Core/Src/rtc.o
 .debug_ranges  0x0000000000000160       0x28 ./Core/Src/stm32f4xx_hal_msp.o
 .debug_ranges  0x0000000000000188       0x40 ./Core/Src/stm32f4xx_hal_timebase_tim.o
 .debug_ranges  0x00000000000001c8       0x98 ./Core/Src/stm32f4xx_it.o
 .debug_ranges  0x0000000000000260       0x18 ./Core/Src/system_stm32f4xx.o
 .debug_ranges  0x0000000000000278       0x60 ./Core/Src/tim.o
 .debug_ranges  0x00000000000002d8       0xb8 ./Core/Src/usart.o
 .debug_ranges  0x0000000000000390       0x20 ./Core/Startup/startup_stm32f412retx.o
 .debug_ranges  0x00000000000003b0       0x80 ./Core/ThreadSafe/newlib_lock_glue.o
 .debug_ranges  0x0000000000000430       0xd8 ./Drivers/STM32F4xx_HAL_Driver/Src/stm32f4xx_hal.o
 .debug_ranges  0x0000000000000508      0x160 ./Drivers/STM32F4xx_HAL_Driver/Src/stm32f4xx_hal_cortex.o
 .debug_ranges  0x0000000000000668       0xd0 ./Drivers/STM32F4xx_HAL_Driver/Src/stm32f4xx_hal_dma.o
 .debug_ranges  0x0000000000000738       0x88 ./Drivers/STM32F4xx_HAL_Driver/Src/stm32f4xx_hal_flash.o
 .debug_ranges  0x00000000000007c0       0xc0 ./Drivers/STM32F4xx_HAL_Driver/Src/stm32f4xx_hal_flash_ex.o
 .debug_ranges  0x0000000000000880       0x60 ./Drivers/STM32F4xx_HAL_Driver/Src/stm32f4xx_hal_gpio.o
 .debug_ranges  0x00000000000008e0       0x18 ./Drivers/STM32F4xx_HAL_Driver/Src/stm32f4xx_hal_iwdg.o
 .debug_ranges  0x00000000000008f8       0xb0 ./Drivers/STM32F4xx_HAL_Driver/Src/stm32f4xx_hal_rcc.o
 .debug_ranges  0x00000000000009a8       0x68 ./Drivers/STM32F4xx_HAL_Driver/Src/stm32f4xx_hal_rcc_ex.o
 .debug_ranges  0x0000000000000a10       0xc8 ./Drivers/STM32F4xx_HAL_Driver/Src/stm32f4xx_hal_rtc.o
 .debug_ranges  0x0000000000000ad8      0x3b8 ./Drivers/STM32F4xx_HAL_Driver/Src/stm32f4xx_hal_tim.o
 .debug_ranges  0x0000000000000e90      0x138 ./Drivers/STM32F4xx_HAL_Driver/Src/stm32f4xx_hal_tim_ex.o
 .debug_ranges  0x0000000000000fc8      0x190 ./Drivers/STM32F4xx_HAL_Driver/Src/stm32f4xx_hal_uart.o
 .debug_ranges  0x0000000000001158      0x5e0 ./Middlewares/Third_Party/FreeRTOS/Source/CMSIS_RTOS_V2/cmsis_os2.o
 .debug_ranges  0x0000000000001738       0xc8 ./Middlewares/Third_Party/FreeRTOS/Source/event_groups.o
 .debug_ranges  0x0000000000001800       0x30 ./Middlewares/Third_Party/FreeRTOS/Source/list.o
 .debug_ranges  0x0000000000001830      0x2e0 ./Middlewares/Third_Party/FreeRTOS/Source/queue.o
 .debug_ranges  0x0000000000001b10      0x368 ./Middlewares/Third_Party/FreeRTOS/Source/tasks.o
 .debug_ranges  0x0000000000001e78      0x178 ./Middlewares/Third_Party/FreeRTOS/Source/timers.o
 .debug_ranges  0x0000000000001ff0       0x88 ./Middlewares/Third_Party/FreeRTOS/Source/portable/GCC/ARM_CM4F/port.o
 .debug_ranges  0x0000000000002078       0x40 ./Middlewares/Third_Party/FreeRTOS/Source/portable/MemMang/heap_4.o
 .debug_ranges  0x00000000000020b8      0x108 ./user/detect.o
 .debug_ranges  0x00000000000021c0       0xa0 ./user/dev_usart.o
 .debug_ranges  0x0000000000002260       0x18 ./user/display.o
 .debug_ranges  0x0000000000002278       0xd0 ./user/eeprom.o
 .debug_ranges  0x0000000000002348      0x108 ./user/io_ctrl.o
 .debug_ranges  0x0000000000002450      0x178 ./user/my_tim.o
 .debug_ranges  0x00000000000025c8       0x80 ./user/myprintf.o
 .debug_ranges  0x0000000000002648       0x78 ./user/soft_timer.o
 .debug_ranges  0x00000000000026c0       0x30 ./user/sysguard.o

.debug_macro    0x0000000000000000    0x26595
 .debug_macro   0x0000000000000000      0x20a ./Core/Src/dma.o
 .debug_macro   0x000000000000020a      0xab4 ./Core/Src/dma.o
 .debug_macro   0x0000000000000cbe      0x2ae ./Core/Src/dma.o
 .debug_macro   0x0000000000000f6c       0x2e ./Core/Src/dma.o
 .debug_macro   0x0000000000000f9a       0x28 ./Core/Src/dma.o
 .debug_macro   0x0000000000000fc2       0x22 ./Core/Src/dma.o
 .debug_macro   0x0000000000000fe4       0x8e ./Core/Src/dma.o
 .debug_macro   0x0000000000001072       0x51 ./Core/Src/dma.o
 .debug_macro   0x00000000000010c3      0x103 ./Core/Src/dma.o
 .debug_macro   0x00000000000011c6       0x6a ./Core/Src/dma.o
 .debug_macro   0x0000000000001230      0x1df ./Core/Src/dma.o
 .debug_macro   0x000000000000140f       0x1c ./Core/Src/dma.o
 .debug_macro   0x000000000000142b       0x22 ./Core/Src/dma.o
 .debug_macro   0x000000000000144d       0xdf ./Core/Src/dma.o
 .debug_macro   0x000000000000152c     0x102d ./Core/Src/dma.o
 .debug_macro   0x0000000000002559      0x11f ./Core/Src/dma.o
 .debug_macro   0x0000000000002678    0x1469c ./Core/Src/dma.o
 .debug_macro   0x0000000000016d14       0x6d ./Core/Src/dma.o
 .debug_macro   0x0000000000016d81     0x367e ./Core/Src/dma.o
 .debug_macro   0x000000000001a3ff      0x174 ./Core/Src/dma.o
 .debug_macro   0x000000000001a573       0x5c ./Core/Src/dma.o
 .debug_macro   0x000000000001a5cf      0x8ed ./Core/Src/dma.o
 .debug_macro   0x000000000001aebc      0x9fe ./Core/Src/dma.o
 .debug_macro   0x000000000001b8ba      0x115 ./Core/Src/dma.o
 .debug_macro   0x000000000001b9cf      0x192 ./Core/Src/dma.o
 .debug_macro   0x000000000001bb61       0xa5 ./Core/Src/dma.o
 .debug_macro   0x000000000001bc06      0x158 ./Core/Src/dma.o
 .debug_macro   0x000000000001bd5e      0x287 ./Core/Src/dma.o
 .debug_macro   0x000000000001bfe5       0x5f ./Core/Src/dma.o
 .debug_macro   0x000000000001c044      0x236 ./Core/Src/dma.o
 .debug_macro   0x000000000001c27a      0x132 ./Core/Src/dma.o
 .debug_macro   0x000000000001c3ac      0x29c ./Core/Src/dma.o
 .debug_macro   0x000000000001c648       0x2e ./Core/Src/dma.o
 .debug_macro   0x000000000001c676       0x78 ./Core/Src/dma.o
 .debug_macro   0x000000000001c6ee      0x11a ./Core/Src/dma.o
 .debug_macro   0x000000000001c808       0x91 ./Core/Src/dma.o
 .debug_macro   0x000000000001c899       0x89 ./Core/Src/dma.o
 .debug_macro   0x000000000001c922      0x2fe ./Core/Src/dma.o
 .debug_macro   0x000000000001cc20      0x430 ./Core/Src/dma.o
 .debug_macro   0x000000000001d050       0xe4 ./Core/Src/dma.o
 .debug_macro   0x000000000001d134      0x8e6 ./Core/Src/dma.o
 .debug_macro   0x000000000001da1a       0x47 ./Core/Src/dma.o
 .debug_macro   0x000000000001da61      0x295 ./Core/Src/dma.o
 .debug_macro   0x000000000001dcf6      0x126 ./Core/Src/dma.o
 .debug_macro   0x000000000001de1c      0x20c ./Core/Src/dma.o
 .debug_macro   0x000000000001e028      0x3b5 ./Core/Src/freertos.o
 .debug_macro   0x000000000001e3dd      0x16f ./Core/Src/freertos.o
 .debug_macro   0x000000000001e54c      0x15a ./Core/Src/freertos.o
 .debug_macro   0x000000000001e6a6       0xc9 ./Core/Src/freertos.o
 .debug_macro   0x000000000001e76f       0x1c ./Core/Src/freertos.o
 .debug_macro   0x000000000001e78b       0x26 ./Core/Src/freertos.o
 .debug_macro   0x000000000001e7b1       0x52 ./Core/Src/freertos.o
 .debug_macro   0x000000000001e803       0x18 ./Core/Src/freertos.o
 .debug_macro   0x000000000001e81b       0x3c ./Core/Src/freertos.o
 .debug_macro   0x000000000001e857       0x34 ./Core/Src/freertos.o
 .debug_macro   0x000000000001e88b       0x16 ./Core/Src/freertos.o
 .debug_macro   0x000000000001e8a1       0x43 ./Core/Src/freertos.o
 .debug_macro   0x000000000001e8e4       0x34 ./Core/Src/freertos.o
 .debug_macro   0x000000000001e918       0x10 ./Core/Src/freertos.o
 .debug_macro   0x000000000001e928       0x58 ./Core/Src/freertos.o
 .debug_macro   0x000000000001e980       0x71 ./Core/Src/freertos.o
 .debug_macro   0x000000000001e9f1       0x1c ./Core/Src/freertos.o
 .debug_macro   0x000000000001ea0d      0x12a ./Core/Src/freertos.o
 .debug_macro   0x000000000001eb37       0x10 ./Core/Src/freertos.o
 .debug_macro   0x000000000001eb47       0x35 ./Core/Src/freertos.o
 .debug_macro   0x000000000001eb7c      0x4bf ./Core/Src/freertos.o
 .debug_macro   0x000000000001f03b       0xb5 ./Core/Src/freertos.o
 .debug_macro   0x000000000001f0f0       0xaa ./Core/Src/freertos.o
 .debug_macro   0x000000000001f19a       0x6c ./Core/Src/freertos.o
 .debug_macro   0x000000000001f206       0x74 ./Core/Src/freertos.o
 .debug_macro   0x000000000001f27a       0xdd ./Core/Src/freertos.o
 .debug_macro   0x000000000001f357      0x333 ./Core/Src/freertos.o
 .debug_macro   0x000000000001f68a       0x10 ./Core/Src/freertos.o
 .debug_macro   0x000000000001f69a       0x20 ./Core/Src/freertos.o
 .debug_macro   0x000000000001f6ba       0x22 ./Core/Src/freertos.o
 .debug_macro   0x000000000001f6dc       0x1c ./Core/Src/freertos.o
 .debug_macro   0x000000000001f6f8       0x3a ./Core/Src/freertos.o
 .debug_macro   0x000000000001f732       0x52 ./Core/Src/freertos.o
 .debug_macro   0x000000000001f784       0x28 ./Core/Src/freertos.o
 .debug_macro   0x000000000001f7ac       0x64 ./Core/Src/freertos.o
 .debug_macro   0x000000000001f810      0x347 ./Core/Src/freertos.o
 .debug_macro   0x000000000001fb57      0x20a ./Core/Src/gpio.o
 .debug_macro   0x000000000001fd61      0x20a ./Core/Src/iwdg.o
 .debug_macro   0x000000000001ff6b      0x3bb ./Core/Src/main.o
 .debug_macro   0x0000000000020326      0x16f ./Core/Src/main.o
 .debug_macro   0x0000000000020495       0x66 ./Core/Src/main.o
 .debug_macro   0x00000000000204fb       0x16 ./Core/Src/main.o
 .debug_macro   0x0000000000020511      0x20a ./Core/Src/rtc.o
 .debug_macro   0x000000000002071b      0x200 ./Core/Src/stm32f4xx_hal_msp.o
 .debug_macro   0x000000000002091b      0x1f1 ./Core/Src/stm32f4xx_hal_timebase_tim.o
 .debug_macro   0x0000000000020b0c      0x21c ./Core/Src/stm32f4xx_it.o
 .debug_macro   0x0000000000020d28      0x1f1 ./Core/Src/system_stm32f4xx.o
 .debug_macro   0x0000000000020f19      0x20a ./Core/Src/tim.o
 .debug_macro   0x0000000000021123      0x20a ./Core/Src/usart.o
 .debug_macro   0x000000000002132d      0x202 ./Core/ThreadSafe/newlib_lock_glue.o
 .debug_macro   0x000000000002152f      0x118 ./Core/ThreadSafe/newlib_lock_glue.o
 .debug_macro   0x0000000000021647       0x22 ./Core/ThreadSafe/newlib_lock_glue.o
 .debug_macro   0x0000000000021669       0x27 ./Core/ThreadSafe/newlib_lock_glue.o
 .debug_macro   0x0000000000021690      0x251 ./Drivers/STM32F4xx_HAL_Driver/Src/stm32f4xx_hal.o
 .debug_macro   0x00000000000218e1      0x1f1 ./Drivers/STM32F4xx_HAL_Driver/Src/stm32f4xx_hal_cortex.o
 .debug_macro   0x0000000000021ad2      0x1f7 ./Drivers/STM32F4xx_HAL_Driver/Src/stm32f4xx_hal_dma.o
 .debug_macro   0x0000000000021cc9      0x1f7 ./Drivers/STM32F4xx_HAL_Driver/Src/stm32f4xx_hal_flash.o
 .debug_macro   0x0000000000021ec0      0x1f7 ./Drivers/STM32F4xx_HAL_Driver/Src/stm32f4xx_hal_flash_ex.o
 .debug_macro   0x00000000000220b7      0x1f7 ./Drivers/STM32F4xx_HAL_Driver/Src/stm32f4xx_hal_gpio.o
 .debug_macro   0x00000000000222ae      0x1fd ./Drivers/STM32F4xx_HAL_Driver/Src/stm32f4xx_hal_iwdg.o
 .debug_macro   0x00000000000224ab      0x215 ./Drivers/STM32F4xx_HAL_Driver/Src/stm32f4xx_hal_rcc.o
 .debug_macro   0x00000000000226c0      0x1f1 ./Drivers/STM32F4xx_HAL_Driver/Src/stm32f4xx_hal_rcc_ex.o
 .debug_macro   0x00000000000228b1      0x1f2 ./Drivers/STM32F4xx_HAL_Driver/Src/stm32f4xx_hal_rtc.o
 .debug_macro   0x0000000000022aa3      0x1f2 ./Drivers/STM32F4xx_HAL_Driver/Src/stm32f4xx_hal_tim.o
 .debug_macro   0x0000000000022c95      0x1f1 ./Drivers/STM32F4xx_HAL_Driver/Src/stm32f4xx_hal_tim_ex.o
 .debug_macro   0x0000000000022e86      0x1f2 ./Drivers/STM32F4xx_HAL_Driver/Src/stm32f4xx_hal_uart.o
 .debug_macro   0x0000000000023078      0x3fa ./Middlewares/Third_Party/FreeRTOS/Source/CMSIS_RTOS_V2/cmsis_os2.o
 .debug_macro   0x0000000000023472       0x10 ./Middlewares/Third_Party/FreeRTOS/Source/CMSIS_RTOS_V2/cmsis_os2.o
 .debug_macro   0x0000000000023482       0xd3 ./Middlewares/Third_Party/FreeRTOS/Source/CMSIS_RTOS_V2/cmsis_os2.o
 .debug_macro   0x0000000000023555       0x16 ./Middlewares/Third_Party/FreeRTOS/Source/CMSIS_RTOS_V2/cmsis_os2.o
 .debug_macro   0x000000000002356b       0x91 ./Middlewares/Third_Party/FreeRTOS/Source/CMSIS_RTOS_V2/cmsis_os2.o
 .debug_macro   0x00000000000235fc       0x8d ./Middlewares/Third_Party/FreeRTOS/Source/CMSIS_RTOS_V2/cmsis_os2.o
 .debug_macro   0x0000000000023689       0x9a ./Middlewares/Third_Party/FreeRTOS/Source/CMSIS_RTOS_V2/cmsis_os2.o
 .debug_macro   0x0000000000023723       0x22 ./Middlewares/Third_Party/FreeRTOS/Source/CMSIS_RTOS_V2/cmsis_os2.o
 .debug_macro   0x0000000000023745       0x56 ./Middlewares/Third_Party/FreeRTOS/Source/CMSIS_RTOS_V2/cmsis_os2.o
 .debug_macro   0x000000000002379b      0x1f4 ./Middlewares/Third_Party/FreeRTOS/Source/event_groups.o
 .debug_macro   0x000000000002398f      0x10e ./Middlewares/Third_Party/FreeRTOS/Source/event_groups.o
 .debug_macro   0x0000000000023a9d       0x8d ./Middlewares/Third_Party/FreeRTOS/Source/event_groups.o
 .debug_macro   0x0000000000023b2a      0x199 ./Middlewares/Third_Party/FreeRTOS/Source/list.o
 .debug_macro   0x0000000000023cc3      0x228 ./Middlewares/Third_Party/FreeRTOS/Source/queue.o
 .debug_macro   0x0000000000023eeb       0x16 ./Middlewares/Third_Party/FreeRTOS/Source/queue.o
 .debug_macro   0x0000000000023f01       0x87 ./Middlewares/Third_Party/FreeRTOS/Source/queue.o
 .debug_macro   0x0000000000023f88      0x291 ./Middlewares/Third_Party/FreeRTOS/Source/tasks.o
 .debug_macro   0x0000000000024219       0x10 ./Middlewares/Third_Party/FreeRTOS/Source/tasks.o
 .debug_macro   0x0000000000024229      0x1ee ./Middlewares/Third_Party/FreeRTOS/Source/timers.o
 .debug_macro   0x0000000000024417       0x97 ./Middlewares/Third_Party/FreeRTOS/Source/timers.o
 .debug_macro   0x00000000000244ae      0x233 ./Middlewares/Third_Party/FreeRTOS/Source/portable/GCC/ARM_CM4F/port.o
 .debug_macro   0x00000000000246e1      0x1c0 ./Middlewares/Third_Party/FreeRTOS/Source/portable/MemMang/heap_4.o
 .debug_macro   0x00000000000248a1      0x311 ./user/detect.o
 .debug_macro   0x0000000000024bb2       0x22 ./user/detect.o
 .debug_macro   0x0000000000024bd4      0x312 ./user/dev_usart.o
 .debug_macro   0x0000000000024ee6      0x235 ./user/display.o
 .debug_macro   0x000000000002511b      0x30b ./user/eeprom.o
 .debug_macro   0x0000000000025426       0x5e ./user/eeprom.o
 .debug_macro   0x0000000000025484      0x34a ./user/io_ctrl.o
 .debug_macro   0x00000000000257ce      0x234 ./user/my_tim.o
 .debug_macro   0x0000000000025a02      0x3db ./user/myprintf.o
 .debug_macro   0x0000000000025ddd       0x16 ./user/myprintf.o
 .debug_macro   0x0000000000025df3       0x4c ./user/myprintf.o
 .debug_macro   0x0000000000025e3f      0x119 ./user/myprintf.o
 .debug_macro   0x0000000000025f58       0x1c ./user/myprintf.o
 .debug_macro   0x0000000000025f74      0x3b5 ./user/soft_timer.o
 .debug_macro   0x0000000000026329       0x4c ./user/soft_timer.o
 .debug_macro   0x0000000000026375      0x220 ./user/sysguard.o

.debug_line     0x0000000000000000    0x32197
 .debug_line    0x0000000000000000      0x730 ./Core/Src/dma.o
 .debug_line    0x0000000000000730      0xda8 ./Core/Src/freertos.o
 .debug_line    0x00000000000014d8      0x7f7 ./Core/Src/gpio.o
 .debug_line    0x0000000000001ccf      0x73e ./Core/Src/iwdg.o
 .debug_line    0x000000000000240d      0xbf9 ./Core/Src/main.o
 .debug_line    0x0000000000003006      0x80a ./Core/Src/rtc.o
 .debug_line    0x0000000000003810      0x726 ./Core/Src/stm32f4xx_hal_msp.o
 .debug_line    0x0000000000003f36      0x7b8 ./Core/Src/stm32f4xx_hal_timebase_tim.o
 .debug_line    0x00000000000046ee      0x95a ./Core/Src/stm32f4xx_it.o
 .debug_line    0x0000000000005048      0x7b7 ./Core/Src/system_stm32f4xx.o
 .debug_line    0x00000000000057ff      0x8cc ./Core/Src/tim.o
 .debug_line    0x00000000000060cb      0xbf7 ./Core/Src/usart.o
 .debug_line    0x0000000000006cc2       0x88 ./Core/Startup/startup_stm32f412retx.o
 .debug_line    0x0000000000006d4a      0xb58 ./Core/ThreadSafe/newlib_lock_glue.o
 .debug_line    0x00000000000078a2      0xa91 ./Drivers/STM32F4xx_HAL_Driver/Src/stm32f4xx_hal.o
 .debug_line    0x0000000000008333      0xde9 ./Drivers/STM32F4xx_HAL_Driver/Src/stm32f4xx_hal_cortex.o
 .debug_line    0x000000000000911c     0x13c2 ./Drivers/STM32F4xx_HAL_Driver/Src/stm32f4xx_hal_dma.o
 .debug_line    0x000000000000a4de      0xcd3 ./Drivers/STM32F4xx_HAL_Driver/Src/stm32f4xx_hal_flash.o
 .debug_line    0x000000000000b1b1      0xd1b ./Drivers/STM32F4xx_HAL_Driver/Src/stm32f4xx_hal_flash_ex.o
 .debug_line    0x000000000000becc      0xd63 ./Drivers/STM32F4xx_HAL_Driver/Src/stm32f4xx_hal_gpio.o
 .debug_line    0x000000000000cc2f      0x7c1 ./Drivers/STM32F4xx_HAL_Driver/Src/stm32f4xx_hal_iwdg.o
 .debug_line    0x000000000000d3f0     0x10fe ./Drivers/STM32F4xx_HAL_Driver/Src/stm32f4xx_hal_rcc.o
 .debug_line    0x000000000000e4ee     0x144a ./Drivers/STM32F4xx_HAL_Driver/Src/stm32f4xx_hal_rcc_ex.o
 .debug_line    0x000000000000f938     0x1738 ./Drivers/STM32F4xx_HAL_Driver/Src/stm32f4xx_hal_rtc.o
 .debug_line    0x0000000000011070     0x64ad ./Drivers/STM32F4xx_HAL_Driver/Src/stm32f4xx_hal_tim.o
 .debug_line    0x000000000001751d     0x2685 ./Drivers/STM32F4xx_HAL_Driver/Src/stm32f4xx_hal_tim_ex.o
 .debug_line    0x0000000000019ba2     0x4826 ./Drivers/STM32F4xx_HAL_Driver/Src/stm32f4xx_hal_uart.o
 .debug_line    0x000000000001e3c8     0x2eac ./Middlewares/Third_Party/FreeRTOS/Source/CMSIS_RTOS_V2/cmsis_os2.o
 .debug_line    0x0000000000021274      0xe72 ./Middlewares/Third_Party/FreeRTOS/Source/event_groups.o
 .debug_line    0x00000000000220e6      0x7a3 ./Middlewares/Third_Party/FreeRTOS/Source/list.o
 .debug_line    0x0000000000022889     0x2393 ./Middlewares/Third_Party/FreeRTOS/Source/queue.o
 .debug_line    0x0000000000024c1c     0x2f9e ./Middlewares/Third_Party/FreeRTOS/Source/tasks.o
 .debug_line    0x0000000000027bba     0x1261 ./Middlewares/Third_Party/FreeRTOS/Source/timers.o
 .debug_line    0x0000000000028e1b      0xb2b ./Middlewares/Third_Party/FreeRTOS/Source/portable/GCC/ARM_CM4F/port.o
 .debug_line    0x0000000000029946      0xada ./Middlewares/Third_Party/FreeRTOS/Source/portable/MemMang/heap_4.o
 .debug_line    0x000000000002a420      0xca8 ./user/detect.o
 .debug_line    0x000000000002b0c8      0xb5b ./user/dev_usart.o
 .debug_line    0x000000000002bc23      0x7ca ./user/display.o
 .debug_line    0x000000000002c3ed      0xc5e ./user/eeprom.o
 .debug_line    0x000000000002d04b     0x1b3e ./user/io_ctrl.o
 .debug_line    0x000000000002eb89      0xf54 ./user/my_tim.o
 .debug_line    0x000000000002fadd     0x11a6 ./user/myprintf.o
 .debug_line    0x0000000000030c83      0xcae ./user/soft_timer.o
 .debug_line    0x0000000000031931      0x866 ./user/sysguard.o

.debug_str      0x0000000000000000    0xd8743
 .debug_str     0x0000000000000000    0xc0e80 ./Core/Src/dma.o
                                      0xc114b (size before relaxing)
 .debug_str     0x00000000000c0e80     0x9aec ./Core/Src/freertos.o
                                      0xca76a (size before relaxing)
 .debug_str     0x00000000000ca96c       0xd0 ./Core/Src/gpio.o
                                      0xc0d33 (size before relaxing)
 .debug_str     0x00000000000caa3c       0xae ./Core/Src/iwdg.o
                                      0xc0bcf (size before relaxing)
 .debug_str     0x00000000000caaea      0xba9 ./Core/Src/main.o
                                      0xc9742 (size before relaxing)
 .debug_str     0x00000000000cb693      0x211 ./Core/Src/rtc.o
                                      0xc0ffa (size before relaxing)
 .debug_str     0x00000000000cb8a4       0x2c ./Core/Src/stm32f4xx_hal_msp.o
                                      0xc113b (size before relaxing)
 .debug_str     0x00000000000cb8d0       0xe8 ./Core/Src/stm32f4xx_hal_timebase_tim.o
                                      0xc0f5c (size before relaxing)
 .debug_str     0x00000000000cb9b8      0x286 ./Core/Src/stm32f4xx_it.o
                                      0xc163b (size before relaxing)
 .debug_str     0x00000000000cbc3e       0x5b ./Core/Src/system_stm32f4xx.o
                                      0xc0479 (size before relaxing)
 .debug_str     0x00000000000cbc99       0xd1 ./Core/Src/tim.o
                                      0xc17a0 (size before relaxing)
 .debug_str     0x00000000000cbd6a       0x7d ./Core/Src/usart.o
                                      0xc1762 (size before relaxing)
 .debug_str     0x00000000000cbde7       0x55 ./Core/Startup/startup_stm32f412retx.o
 .debug_str     0x00000000000cbe3c     0x1a04 ./Core/ThreadSafe/newlib_lock_glue.o
                                       0xd34c (size before relaxing)
 .debug_str     0x00000000000cd840      0x55d ./Drivers/STM32F4xx_HAL_Driver/Src/stm32f4xx_hal.o
                                      0xc0f88 (size before relaxing)
 .debug_str     0x00000000000cdd9d      0x318 ./Drivers/STM32F4xx_HAL_Driver/Src/stm32f4xx_hal_cortex.o
                                      0xc0d22 (size before relaxing)
 .debug_str     0x00000000000ce0b5      0x2ee ./Drivers/STM32F4xx_HAL_Driver/Src/stm32f4xx_hal_dma.o
                                      0xc0899 (size before relaxing)
 .debug_str     0x00000000000ce3a3      0x2ce ./Drivers/STM32F4xx_HAL_Driver/Src/stm32f4xx_hal_flash.o
                                      0xc067f (size before relaxing)
 .debug_str     0x00000000000ce671      0x2fe ./Drivers/STM32F4xx_HAL_Driver/Src/stm32f4xx_hal_flash_ex.o
                                      0xc07a2 (size before relaxing)
 .debug_str     0x00000000000ce96f      0x12f ./Drivers/STM32F4xx_HAL_Driver/Src/stm32f4xx_hal_gpio.o
                                      0xc0634 (size before relaxing)
 .debug_str     0x00000000000cea9e       0xe5 ./Drivers/STM32F4xx_HAL_Driver/Src/stm32f4xx_hal_iwdg.o
                                      0xc044f (size before relaxing)
 .debug_str     0x00000000000ceb83      0x1f2 ./Drivers/STM32F4xx_HAL_Driver/Src/stm32f4xx_hal_rcc.o
                                      0xc08b5 (size before relaxing)
 .debug_str     0x00000000000ced75      0x11c ./Drivers/STM32F4xx_HAL_Driver/Src/stm32f4xx_hal_rcc_ex.o
                                      0xc07d1 (size before relaxing)
 .debug_str     0x00000000000cee91      0x299 ./Drivers/STM32F4xx_HAL_Driver/Src/stm32f4xx_hal_rtc.o
                                      0xc08e9 (size before relaxing)
 .debug_str     0x00000000000cf12a      0xded ./Drivers/STM32F4xx_HAL_Driver/Src/stm32f4xx_hal_tim.o
                                      0xc17e5 (size before relaxing)
 .debug_str     0x00000000000cff17      0x4b0 ./Drivers/STM32F4xx_HAL_Driver/Src/stm32f4xx_hal_tim_ex.o
                                      0xc0fe6 (size before relaxing)
 .debug_str     0x00000000000d03c7      0x5e3 ./Drivers/STM32F4xx_HAL_Driver/Src/stm32f4xx_hal_uart.o
                                      0xc0e62 (size before relaxing)
 .debug_str     0x00000000000d09aa     0x2ed5 ./Middlewares/Third_Party/FreeRTOS/Source/CMSIS_RTOS_V2/cmsis_os2.o
                                      0xcb0ce (size before relaxing)
 .debug_str     0x00000000000d387f      0x48e ./Middlewares/Third_Party/FreeRTOS/Source/event_groups.o
                                       0xc00c (size before relaxing)
 .debug_str     0x00000000000d3d0d       0xaf ./Middlewares/Third_Party/FreeRTOS/Source/list.o
                                       0xab84 (size before relaxing)
 .debug_str     0x00000000000d3dbc      0x7e7 ./Middlewares/Third_Party/FreeRTOS/Source/queue.o
                                       0xc6d5 (size before relaxing)
 .debug_str     0x00000000000d45a3     0x100e ./Middlewares/Third_Party/FreeRTOS/Source/tasks.o
                                       0xd1b8 (size before relaxing)
 .debug_str     0x00000000000d55b1      0x591 ./Middlewares/Third_Party/FreeRTOS/Source/timers.o
                                       0xcbff (size before relaxing)
 .debug_str     0x00000000000d5b42      0x783 ./Middlewares/Third_Party/FreeRTOS/Source/portable/GCC/ARM_CM4F/port.o
                                       0xa49e (size before relaxing)
 .debug_str     0x00000000000d62c5      0x324 ./Middlewares/Third_Party/FreeRTOS/Source/portable/MemMang/heap_4.o
                                       0xb4bb (size before relaxing)
 .debug_str     0x00000000000d65e9       0xbd ./user/detect.o
                                      0xc54f3 (size before relaxing)
 .debug_str     0x00000000000d66a6       0x45 ./user/dev_usart.o
                                      0xc5943 (size before relaxing)
 .debug_str     0x00000000000d66eb      0x1f8 ./user/display.o
                                      0xc2019 (size before relaxing)
 .debug_str     0x00000000000d68e3      0x129 ./user/eeprom.o
                                      0xc4507 (size before relaxing)
 .debug_str     0x00000000000d6a0c      0x215 ./user/io_ctrl.o
                                      0xc63b5 (size before relaxing)
 .debug_str     0x00000000000d6c21       0x11 ./user/my_tim.o
                                      0xc2272 (size before relaxing)
 .debug_str     0x00000000000d6c32     0x1945 ./user/myprintf.o
                                      0xc5d50 (size before relaxing)
 .debug_str     0x00000000000d8577      0x134 ./user/soft_timer.o
                                      0xc6786 (size before relaxing)
 .debug_str     0x00000000000d86ab       0x98 ./user/sysguard.o
                                      0xc0d73 (size before relaxing)

.comment        0x0000000000000000       0x53
 .comment       0x0000000000000000       0x53 ./Core/Src/dma.o
                                         0x54 (size before relaxing)
 .comment       0x0000000000000053       0x54 ./Core/Src/freertos.o
 .comment       0x0000000000000053       0x54 ./Core/Src/gpio.o
 .comment       0x0000000000000053       0x54 ./Core/Src/iwdg.o
 .comment       0x0000000000000053       0x54 ./Core/Src/main.o
 .comment       0x0000000000000053       0x54 ./Core/Src/rtc.o
 .comment       0x0000000000000053       0x54 ./Core/Src/stm32f4xx_hal_msp.o
 .comment       0x0000000000000053       0x54 ./Core/Src/stm32f4xx_hal_timebase_tim.o
 .comment       0x0000000000000053       0x54 ./Core/Src/stm32f4xx_it.o
 .comment       0x0000000000000053       0x54 ./Core/Src/system_stm32f4xx.o
 .comment       0x0000000000000053       0x54 ./Core/Src/tim.o
 .comment       0x0000000000000053       0x54 ./Core/Src/usart.o
 .comment       0x0000000000000053       0x54 ./Core/ThreadSafe/newlib_lock_glue.o
 .comment       0x0000000000000053       0x54 ./Drivers/STM32F4xx_HAL_Driver/Src/stm32f4xx_hal.o
 .comment       0x0000000000000053       0x54 ./Drivers/STM32F4xx_HAL_Driver/Src/stm32f4xx_hal_cortex.o
 .comment       0x0000000000000053       0x54 ./Drivers/STM32F4xx_HAL_Driver/Src/stm32f4xx_hal_dma.o
 .comment       0x0000000000000053       0x54 ./Drivers/STM32F4xx_HAL_Driver/Src/stm32f4xx_hal_flash.o
 .comment       0x0000000000000053       0x54 ./Drivers/STM32F4xx_HAL_Driver/Src/stm32f4xx_hal_flash_ex.o
 .comment       0x0000000000000053       0x54 ./Drivers/STM32F4xx_HAL_Driver/Src/stm32f4xx_hal_gpio.o
 .comment       0x0000000000000053       0x54 ./Drivers/STM32F4xx_HAL_Driver/Src/stm32f4xx_hal_iwdg.o
 .comment       0x0000000000000053       0x54 ./Drivers/STM32F4xx_HAL_Driver/Src/stm32f4xx_hal_rcc.o
 .comment       0x0000000000000053       0x54 ./Drivers/STM32F4xx_HAL_Driver/Src/stm32f4xx_hal_rcc_ex.o
 .comment       0x0000000000000053       0x54 ./Drivers/STM32F4xx_HAL_Driver/Src/stm32f4xx_hal_rtc.o
 .comment       0x0000000000000053       0x54 ./Drivers/STM32F4xx_HAL_Driver/Src/stm32f4xx_hal_tim.o
 .comment       0x0000000000000053       0x54 ./Drivers/STM32F4xx_HAL_Driver/Src/stm32f4xx_hal_tim_ex.o
 .comment       0x0000000000000053       0x54 ./Drivers/STM32F4xx_HAL_Driver/Src/stm32f4xx_hal_uart.o
 .comment       0x0000000000000053       0x54 ./Middlewares/Third_Party/FreeRTOS/Source/CMSIS_RTOS_V2/cmsis_os2.o
 .comment       0x0000000000000053       0x54 ./Middlewares/Third_Party/FreeRTOS/Source/event_groups.o
 .comment       0x0000000000000053       0x54 ./Middlewares/Third_Party/FreeRTOS/Source/list.o
 .comment       0x0000000000000053       0x54 ./Middlewares/Third_Party/FreeRTOS/Source/queue.o
 .comment       0x0000000000000053       0x54 ./Middlewares/Third_Party/FreeRTOS/Source/tasks.o
 .comment       0x0000000000000053       0x54 ./Middlewares/Third_Party/FreeRTOS/Source/timers.o
 .comment       0x0000000000000053       0x54 ./Middlewares/Third_Party/FreeRTOS/Source/portable/GCC/ARM_CM4F/port.o
 .comment       0x0000000000000053       0x54 ./Middlewares/Third_Party/FreeRTOS/Source/portable/MemMang/heap_4.o
 .comment       0x0000000000000053       0x54 ./user/detect.o
 .comment       0x0000000000000053       0x54 ./user/dev_usart.o
 .comment       0x0000000000000053       0x54 ./user/display.o
 .comment       0x0000000000000053       0x54 ./user/eeprom.o
 .comment       0x0000000000000053       0x54 ./user/io_ctrl.o
 .comment       0x0000000000000053       0x54 ./user/my_tim.o
 .comment       0x0000000000000053       0x54 ./user/myprintf.o
 .comment       0x0000000000000053       0x54 ./user/soft_timer.o
 .comment       0x0000000000000053       0x54 ./user/sysguard.o

.debug_frame    0x0000000000000000     0x4f70
 .debug_frame   0x0000000000000000       0x30 ./Core/Src/dma.o
 .debug_frame   0x0000000000000030       0xe8 ./Core/Src/freertos.o
 .debug_frame   0x0000000000000118       0x38 ./Core/Src/gpio.o
 .debug_frame   0x0000000000000150       0x30 ./Core/Src/iwdg.o
 .debug_frame   0x0000000000000180       0x78 ./Core/Src/main.o
 .debug_frame   0x00000000000001f8       0x60 ./Core/Src/rtc.o
 .debug_frame   0x0000000000000258       0x28 ./Core/Src/stm32f4xx_hal_msp.o
 .debug_frame   0x0000000000000280       0x54 ./Core/Src/stm32f4xx_hal_timebase_tim.o
 .debug_frame   0x00000000000002d4      0x160 ./Core/Src/stm32f4xx_it.o
 .debug_frame   0x0000000000000434       0x38 ./Core/Src/system_stm32f4xx.o
 .debug_frame   0x000000000000046c       0xa4 ./Core/Src/tim.o
 .debug_frame   0x0000000000000510       0xbc ./Core/Src/usart.o
 .debug_frame   0x00000000000005cc      0x178 ./Core/ThreadSafe/newlib_lock_glue.o
 .debug_frame   0x0000000000000744      0x1f4 ./Drivers/STM32F4xx_HAL_Driver/Src/stm32f4xx_hal.o
 .debug_frame   0x0000000000000938      0x180 ./Drivers/STM32F4xx_HAL_Driver/Src/stm32f4xx_hal_cortex.o
 .debug_frame   0x0000000000000ab8      0x174 ./Drivers/STM32F4xx_HAL_Driver/Src/stm32f4xx_hal_dma.o
 .debug_frame   0x0000000000000c2c      0x190 ./Drivers/STM32F4xx_HAL_Driver/Src/stm32f4xx_hal_flash.o
 .debug_frame   0x0000000000000dbc      0x114 ./Drivers/STM32F4xx_HAL_Driver/Src/stm32f4xx_hal_flash_ex.o
 .debug_frame   0x0000000000000ed0      0x100 ./Drivers/STM32F4xx_HAL_Driver/Src/stm32f4xx_hal_gpio.o
 .debug_frame   0x0000000000000fd0       0x3c ./Drivers/STM32F4xx_HAL_Driver/Src/stm32f4xx_hal_iwdg.o
 .debug_frame   0x000000000000100c      0x13c ./Drivers/STM32F4xx_HAL_Driver/Src/stm32f4xx_hal_rcc.o
 .debug_frame   0x0000000000001148      0x100 ./Drivers/STM32F4xx_HAL_Driver/Src/stm32f4xx_hal_rcc_ex.o
 .debug_frame   0x0000000000001248      0x27c ./Drivers/STM32F4xx_HAL_Driver/Src/stm32f4xx_hal_rtc.o
 .debug_frame   0x00000000000014c4      0xb10 ./Drivers/STM32F4xx_HAL_Driver/Src/stm32f4xx_hal_tim.o
 .debug_frame   0x0000000000001fd4      0x480 ./Drivers/STM32F4xx_HAL_Driver/Src/stm32f4xx_hal_tim_ex.o
 .debug_frame   0x0000000000002454      0x5a0 ./Drivers/STM32F4xx_HAL_Driver/Src/stm32f4xx_hal_uart.o
 .debug_frame   0x00000000000029f4      0x774 ./Middlewares/Third_Party/FreeRTOS/Source/CMSIS_RTOS_V2/cmsis_os2.o
 .debug_frame   0x0000000000003168      0x160 ./Middlewares/Third_Party/FreeRTOS/Source/event_groups.o
 .debug_frame   0x00000000000032c8       0x6c ./Middlewares/Third_Party/FreeRTOS/Source/list.o
 .debug_frame   0x0000000000003334      0x408 ./Middlewares/Third_Party/FreeRTOS/Source/queue.o
 .debug_frame   0x000000000000373c      0x6a0 ./Middlewares/Third_Party/FreeRTOS/Source/tasks.o
 .debug_frame   0x0000000000003ddc      0x280 ./Middlewares/Third_Party/FreeRTOS/Source/timers.o
 .debug_frame   0x000000000000405c       0xfc ./Middlewares/Third_Party/FreeRTOS/Source/portable/GCC/ARM_CM4F/port.o
 .debug_frame   0x0000000000004158       0xc4 ./Middlewares/Third_Party/FreeRTOS/Source/portable/MemMang/heap_4.o
 .debug_frame   0x000000000000421c      0x108 ./user/detect.o
 .debug_frame   0x0000000000004324      0x148 ./user/dev_usart.o
 .debug_frame   0x000000000000446c       0x40 ./user/display.o
 .debug_frame   0x00000000000044ac       0xf8 ./user/eeprom.o
 .debug_frame   0x00000000000045a4      0x218 ./user/io_ctrl.o
 .debug_frame   0x00000000000047bc      0x1e0 ./user/my_tim.o
 .debug_frame   0x000000000000499c       0xa0 ./user/myprintf.o
 .debug_frame   0x0000000000004a3c      0x168 ./user/soft_timer.o
 .debug_frame   0x0000000000004ba4       0x94 ./user/sysguard.o
 .debug_frame   0x0000000000004c38      0x14c d:/st/stm32cubeide_1.8.0/stm32cubeide/plugins/com.st.stm32cube.ide.mcu.externaltools.gnu-tools-for-stm32.9-2020-q2-update.win32_2.0.0.202105311346/tools/bin/../lib/gcc/arm-none-eabi/9.3.1/../../../../arm-none-eabi/lib/thumb/v7e-m+fp/hard\libc_nano.a(lib_a-findfp.o)
 .debug_frame   0x0000000000004d84       0x2c d:/st/stm32cubeide_1.8.0/stm32cubeide/plugins/com.st.stm32cube.ide.mcu.externaltools.gnu-tools-for-stm32.9-2020-q2-update.win32_2.0.0.202105311346/tools/bin/../lib/gcc/arm-none-eabi/9.3.1/../../../../arm-none-eabi/lib/thumb/v7e-m+fp/hard\libc_nano.a(lib_a-init.o)
 .debug_frame   0x0000000000004db0       0x28 d:/st/stm32cubeide_1.8.0/stm32cubeide/plugins/com.st.stm32cube.ide.mcu.externaltools.gnu-tools-for-stm32.9-2020-q2-update.win32_2.0.0.202105311346/tools/bin/../lib/gcc/arm-none-eabi/9.3.1/../../../../arm-none-eabi/lib/thumb/v7e-m+fp/hard\libc_nano.a(lib_a-memcpy-stub.o)
 .debug_frame   0x0000000000004dd8       0x20 d:/st/stm32cubeide_1.8.0/stm32cubeide/plugins/com.st.stm32cube.ide.mcu.externaltools.gnu-tools-for-stm32.9-2020-q2-update.win32_2.0.0.202105311346/tools/bin/../lib/gcc/arm-none-eabi/9.3.1/../../../../arm-none-eabi/lib/thumb/v7e-m+fp/hard\libc_nano.a(lib_a-memset.o)
 .debug_frame   0x0000000000004df8       0x38 d:/st/stm32cubeide_1.8.0/stm32cubeide/plugins/com.st.stm32cube.ide.mcu.externaltools.gnu-tools-for-stm32.9-2020-q2-update.win32_2.0.0.202105311346/tools/bin/../lib/gcc/arm-none-eabi/9.3.1/../../../../arm-none-eabi/lib/thumb/v7e-m+fp/hard\libc_nano.a(lib_a-nano-freer.o)
 .debug_frame   0x0000000000004e30       0x30 d:/st/stm32cubeide_1.8.0/stm32cubeide/plugins/com.st.stm32cube.ide.mcu.externaltools.gnu-tools-for-stm32.9-2020-q2-update.win32_2.0.0.202105311346/tools/bin/../lib/gcc/arm-none-eabi/9.3.1/../../../../arm-none-eabi/lib/thumb/v7e-m+fp/hard\libc_nano.a(lib_a-nano-mallocr.o)
 .debug_frame   0x0000000000004e60       0x5c d:/st/stm32cubeide_1.8.0/stm32cubeide/plugins/com.st.stm32cube.ide.mcu.externaltools.gnu-tools-for-stm32.9-2020-q2-update.win32_2.0.0.202105311346/tools/bin/../lib/gcc/arm-none-eabi/9.3.1/../../../../arm-none-eabi/lib/thumb/v7e-m+fp/hard\libc_nano.a(lib_a-reent.o)
 .debug_frame   0x0000000000004ebc       0x30 d:/st/stm32cubeide_1.8.0/stm32cubeide/plugins/com.st.stm32cube.ide.mcu.externaltools.gnu-tools-for-stm32.9-2020-q2-update.win32_2.0.0.202105311346/tools/bin/../lib/gcc/arm-none-eabi/9.3.1/../../../../arm-none-eabi/lib/thumb/v7e-m+fp/hard\libc_nano.a(lib_a-mlock.o)
 .debug_frame   0x0000000000004eec       0x24 d:/st/stm32cubeide_1.8.0/stm32cubeide/plugins/com.st.stm32cube.ide.mcu.externaltools.gnu-tools-for-stm32.9-2020-q2-update.win32_2.0.0.202105311346/tools/bin/../lib/gcc/arm-none-eabi/9.3.1/thumb/v7e-m+fp/hard\libgcc.a(_arm_truncdfsf2.o)
 .debug_frame   0x0000000000004f10       0x2c d:/st/stm32cubeide_1.8.0/stm32cubeide/plugins/com.st.stm32cube.ide.mcu.externaltools.gnu-tools-for-stm32.9-2020-q2-update.win32_2.0.0.202105311346/tools/bin/../lib/gcc/arm-none-eabi/9.3.1/thumb/v7e-m+fp/hard\libgcc.a(_aeabi_uldivmod.o)
 .debug_frame   0x0000000000004f3c       0x34 d:/st/stm32cubeide_1.8.0/stm32cubeide/plugins/com.st.stm32cube.ide.mcu.externaltools.gnu-tools-for-stm32.9-2020-q2-update.win32_2.0.0.202105311346/tools/bin/../lib/gcc/arm-none-eabi/9.3.1/thumb/v7e-m+fp/hard\libgcc.a(_udivmoddi4.o)

.debug_loc      0x0000000000000000    0x1ab00
 .debug_loc     0x0000000000000000      0x128 ./Core/Src/freertos.o
 .debug_loc     0x0000000000000128       0x32 ./Core/Src/main.o
 .debug_loc     0x000000000000015a       0x32 ./Core/Src/rtc.o
 .debug_loc     0x000000000000018c       0xb9 ./Core/Src/stm32f4xx_hal_timebase_tim.o
 .debug_loc     0x0000000000000245      0x12f ./Core/Src/system_stm32f4xx.o
 .debug_loc     0x0000000000000374       0x91 ./Core/Src/tim.o
 .debug_loc     0x0000000000000405       0x95 ./Core/Src/usart.o
 .debug_loc     0x000000000000049a      0x3fd ./Core/ThreadSafe/newlib_lock_glue.o
 .debug_loc     0x0000000000000897      0x10b ./Drivers/STM32F4xx_HAL_Driver/Src/stm32f4xx_hal.o
 .debug_loc     0x00000000000009a2      0x63c ./Drivers/STM32F4xx_HAL_Driver/Src/stm32f4xx_hal_cortex.o
 .debug_loc     0x0000000000000fde      0x8bd ./Drivers/STM32F4xx_HAL_Driver/Src/stm32f4xx_hal_dma.o
 .debug_loc     0x000000000000189b      0x3f0 ./Drivers/STM32F4xx_HAL_Driver/Src/stm32f4xx_hal_flash.o
 .debug_loc     0x0000000000001c8b      0x5ad ./Drivers/STM32F4xx_HAL_Driver/Src/stm32f4xx_hal_flash_ex.o
 .debug_loc     0x0000000000002238      0x553 ./Drivers/STM32F4xx_HAL_Driver/Src/stm32f4xx_hal_gpio.o
 .debug_loc     0x000000000000278b       0x90 ./Drivers/STM32F4xx_HAL_Driver/Src/stm32f4xx_hal_iwdg.o
 .debug_loc     0x000000000000281b      0x453 ./Drivers/STM32F4xx_HAL_Driver/Src/stm32f4xx_hal_rcc.o
 .debug_loc     0x0000000000002c6e      0x74f ./Drivers/STM32F4xx_HAL_Driver/Src/stm32f4xx_hal_rcc_ex.o
 .debug_loc     0x00000000000033bd      0xd56 ./Drivers/STM32F4xx_HAL_Driver/Src/stm32f4xx_hal_rtc.o
 .debug_loc     0x0000000000004113     0x47a9 ./Drivers/STM32F4xx_HAL_Driver/Src/stm32f4xx_hal_tim.o
 .debug_loc     0x00000000000088bc     0x1623 ./Drivers/STM32F4xx_HAL_Driver/Src/stm32f4xx_hal_tim_ex.o
 .debug_loc     0x0000000000009edf     0x4411 ./Drivers/STM32F4xx_HAL_Driver/Src/stm32f4xx_hal_uart.o
 .debug_loc     0x000000000000e2f0     0x4251 ./Middlewares/Third_Party/FreeRTOS/Source/CMSIS_RTOS_V2/cmsis_os2.o
 .debug_loc     0x0000000000012541      0xbd5 ./Middlewares/Third_Party/FreeRTOS/Source/event_groups.o
 .debug_loc     0x0000000000013116       0xaf ./Middlewares/Third_Party/FreeRTOS/Source/list.o
 .debug_loc     0x00000000000131c5     0x1c56 ./Middlewares/Third_Party/FreeRTOS/Source/queue.o
 .debug_loc     0x0000000000014e1b     0x216e ./Middlewares/Third_Party/FreeRTOS/Source/tasks.o
 .debug_loc     0x0000000000016f89      0xf60 ./Middlewares/Third_Party/FreeRTOS/Source/timers.o
 .debug_loc     0x0000000000017ee9       0xf8 ./Middlewares/Third_Party/FreeRTOS/Source/portable/GCC/ARM_CM4F/port.o
 .debug_loc     0x0000000000017fe1      0x519 ./Middlewares/Third_Party/FreeRTOS/Source/portable/MemMang/heap_4.o
 .debug_loc     0x00000000000184fa      0x2f7 ./user/detect.o
 .debug_loc     0x00000000000187f1      0x219 ./user/dev_usart.o
 .debug_loc     0x0000000000018a0a      0x6ce ./user/eeprom.o
 .debug_loc     0x00000000000190d8      0x7e6 ./user/io_ctrl.o
 .debug_loc     0x00000000000198be       0x32 ./user/my_tim.o
 .debug_loc     0x00000000000198f0      0xdf5 ./user/myprintf.o
 .debug_loc     0x000000000001a6e5      0x2d9 ./user/soft_timer.o
 .debug_loc     0x000000000001a9be      0x142 ./user/sysguard.o
