Archive member included to satisfy reference by file (symbol)

d:/st/stm32cubeide_1.8.0/stm32cubeide/plugins/com.st.stm32cube.ide.mcu.externaltools.gnu-tools-for-stm32.9-2020-q2-update.win32_2.0.0.202105311346/tools/bin/../lib/gcc/arm-none-eabi/9.3.1/../../../../arm-none-eabi/lib/thumb/v7e-m+fp/hard\libc_nano.a(lib_a-ctype_.o)
                              ./user/myprintf.o (_ctype_)
d:/st/stm32cubeide_1.8.0/stm32cubeide/plugins/com.st.stm32cube.ide.mcu.externaltools.gnu-tools-for-stm32.9-2020-q2-update.win32_2.0.0.202105311346/tools/bin/../lib/gcc/arm-none-eabi/9.3.1/../../../../arm-none-eabi/lib/thumb/v7e-m+fp/hard\libc_nano.a(lib_a-errno.o)
                              ./Core/Src/syscalls.o (__errno)
d:/st/stm32cubeide_1.8.0/stm32cubeide/plugins/com.st.stm32cube.ide.mcu.externaltools.gnu-tools-for-stm32.9-2020-q2-update.win32_2.0.0.202105311346/tools/bin/../lib/gcc/arm-none-eabi/9.3.1/../../../../arm-none-eabi/lib/thumb/v7e-m+fp/hard\libc_nano.a(lib_a-exit.o)
                              d:/st/stm32cubeide_1.8.0/stm32cubeide/plugins/com.st.stm32cube.ide.mcu.externaltools.gnu-tools-for-stm32.9-2020-q2-update.win32_2.0.0.202105311346/tools/bin/../lib/gcc/arm-none-eabi/9.3.1/../../../../arm-none-eabi/lib/thumb/v7e-m+fp/hard/crt0.o (exit)
d:/st/stm32cubeide_1.8.0/stm32cubeide/plugins/com.st.stm32cube.ide.mcu.externaltools.gnu-tools-for-stm32.9-2020-q2-update.win32_2.0.0.202105311346/tools/bin/../lib/gcc/arm-none-eabi/9.3.1/../../../../arm-none-eabi/lib/thumb/v7e-m+fp/hard\libc_nano.a(lib_a-findfp.o)
                              ./Middlewares/Third_Party/FreeRTOS/Source/tasks.o (__sf_fake_stderr)
d:/st/stm32cubeide_1.8.0/stm32cubeide/plugins/com.st.stm32cube.ide.mcu.externaltools.gnu-tools-for-stm32.9-2020-q2-update.win32_2.0.0.202105311346/tools/bin/../lib/gcc/arm-none-eabi/9.3.1/../../../../arm-none-eabi/lib/thumb/v7e-m+fp/hard\libc_nano.a(lib_a-fwalk.o)
                              d:/st/stm32cubeide_1.8.0/stm32cubeide/plugins/com.st.stm32cube.ide.mcu.externaltools.gnu-tools-for-stm32.9-2020-q2-update.win32_2.0.0.202105311346/tools/bin/../lib/gcc/arm-none-eabi/9.3.1/../../../../arm-none-eabi/lib/thumb/v7e-m+fp/hard\libc_nano.a(lib_a-findfp.o) (_fwalk)
d:/st/stm32cubeide_1.8.0/stm32cubeide/plugins/com.st.stm32cube.ide.mcu.externaltools.gnu-tools-for-stm32.9-2020-q2-update.win32_2.0.0.202105311346/tools/bin/../lib/gcc/arm-none-eabi/9.3.1/../../../../arm-none-eabi/lib/thumb/v7e-m+fp/hard\libc_nano.a(lib_a-impure.o)
                              d:/st/stm32cubeide_1.8.0/stm32cubeide/plugins/com.st.stm32cube.ide.mcu.externaltools.gnu-tools-for-stm32.9-2020-q2-update.win32_2.0.0.202105311346/tools/bin/../lib/gcc/arm-none-eabi/9.3.1/../../../../arm-none-eabi/lib/thumb/v7e-m+fp/hard\libc_nano.a(lib_a-exit.o) (_global_impure_ptr)
d:/st/stm32cubeide_1.8.0/stm32cubeide/plugins/com.st.stm32cube.ide.mcu.externaltools.gnu-tools-for-stm32.9-2020-q2-update.win32_2.0.0.202105311346/tools/bin/../lib/gcc/arm-none-eabi/9.3.1/../../../../arm-none-eabi/lib/thumb/v7e-m+fp/hard\libc_nano.a(lib_a-init.o)
                              d:/st/stm32cubeide_1.8.0/stm32cubeide/plugins/com.st.stm32cube.ide.mcu.externaltools.gnu-tools-for-stm32.9-2020-q2-update.win32_2.0.0.202105311346/tools/bin/../lib/gcc/arm-none-eabi/9.3.1/../../../../arm-none-eabi/lib/thumb/v7e-m+fp/hard/crt0.o (__libc_init_array)
d:/st/stm32cubeide_1.8.0/stm32cubeide/plugins/com.st.stm32cube.ide.mcu.externaltools.gnu-tools-for-stm32.9-2020-q2-update.win32_2.0.0.202105311346/tools/bin/../lib/gcc/arm-none-eabi/9.3.1/../../../../arm-none-eabi/lib/thumb/v7e-m+fp/hard\libc_nano.a(lib_a-malloc.o)
                              ./Core/ThreadSafe/newlib_lock_glue.o (malloc)
d:/st/stm32cubeide_1.8.0/stm32cubeide/plugins/com.st.stm32cube.ide.mcu.externaltools.gnu-tools-for-stm32.9-2020-q2-update.win32_2.0.0.202105311346/tools/bin/../lib/gcc/arm-none-eabi/9.3.1/../../../../arm-none-eabi/lib/thumb/v7e-m+fp/hard\libc_nano.a(lib_a-memcpy-stub.o)
                              ./Middlewares/Third_Party/FreeRTOS/Source/CMSIS_RTOS_V2/cmsis_os2.o (memcpy)
d:/st/stm32cubeide_1.8.0/stm32cubeide/plugins/com.st.stm32cube.ide.mcu.externaltools.gnu-tools-for-stm32.9-2020-q2-update.win32_2.0.0.202105311346/tools/bin/../lib/gcc/arm-none-eabi/9.3.1/../../../../arm-none-eabi/lib/thumb/v7e-m+fp/hard\libc_nano.a(lib_a-memset.o)
                              d:/st/stm32cubeide_1.8.0/stm32cubeide/plugins/com.st.stm32cube.ide.mcu.externaltools.gnu-tools-for-stm32.9-2020-q2-update.win32_2.0.0.202105311346/tools/bin/../lib/gcc/arm-none-eabi/9.3.1/../../../../arm-none-eabi/lib/thumb/v7e-m+fp/hard/crt0.o (memset)
d:/st/stm32cubeide_1.8.0/stm32cubeide/plugins/com.st.stm32cube.ide.mcu.externaltools.gnu-tools-for-stm32.9-2020-q2-update.win32_2.0.0.202105311346/tools/bin/../lib/gcc/arm-none-eabi/9.3.1/../../../../arm-none-eabi/lib/thumb/v7e-m+fp/hard\libc_nano.a(lib_a-nano-freer.o)
                              d:/st/stm32cubeide_1.8.0/stm32cubeide/plugins/com.st.stm32cube.ide.mcu.externaltools.gnu-tools-for-stm32.9-2020-q2-update.win32_2.0.0.202105311346/tools/bin/../lib/gcc/arm-none-eabi/9.3.1/../../../../arm-none-eabi/lib/thumb/v7e-m+fp/hard\libc_nano.a(lib_a-malloc.o) (_free_r)
d:/st/stm32cubeide_1.8.0/stm32cubeide/plugins/com.st.stm32cube.ide.mcu.externaltools.gnu-tools-for-stm32.9-2020-q2-update.win32_2.0.0.202105311346/tools/bin/../lib/gcc/arm-none-eabi/9.3.1/../../../../arm-none-eabi/lib/thumb/v7e-m+fp/hard\libc_nano.a(lib_a-nano-mallocr.o)
                              d:/st/stm32cubeide_1.8.0/stm32cubeide/plugins/com.st.stm32cube.ide.mcu.externaltools.gnu-tools-for-stm32.9-2020-q2-update.win32_2.0.0.202105311346/tools/bin/../lib/gcc/arm-none-eabi/9.3.1/../../../../arm-none-eabi/lib/thumb/v7e-m+fp/hard\libc_nano.a(lib_a-findfp.o) (_malloc_r)
d:/st/stm32cubeide_1.8.0/stm32cubeide/plugins/com.st.stm32cube.ide.mcu.externaltools.gnu-tools-for-stm32.9-2020-q2-update.win32_2.0.0.202105311346/tools/bin/../lib/gcc/arm-none-eabi/9.3.1/../../../../arm-none-eabi/lib/thumb/v7e-m+fp/hard\libc_nano.a(lib_a-reent.o)
                              ./Middlewares/Third_Party/FreeRTOS/Source/tasks.o (_reclaim_reent)
d:/st/stm32cubeide_1.8.0/stm32cubeide/plugins/com.st.stm32cube.ide.mcu.externaltools.gnu-tools-for-stm32.9-2020-q2-update.win32_2.0.0.202105311346/tools/bin/../lib/gcc/arm-none-eabi/9.3.1/../../../../arm-none-eabi/lib/thumb/v7e-m+fp/hard\libc_nano.a(lib_a-sbrkr.o)
                              d:/st/stm32cubeide_1.8.0/stm32cubeide/plugins/com.st.stm32cube.ide.mcu.externaltools.gnu-tools-for-stm32.9-2020-q2-update.win32_2.0.0.202105311346/tools/bin/../lib/gcc/arm-none-eabi/9.3.1/../../../../arm-none-eabi/lib/thumb/v7e-m+fp/hard\libc_nano.a(lib_a-nano-mallocr.o) (_sbrk_r)
d:/st/stm32cubeide_1.8.0/stm32cubeide/plugins/com.st.stm32cube.ide.mcu.externaltools.gnu-tools-for-stm32.9-2020-q2-update.win32_2.0.0.202105311346/tools/bin/../lib/gcc/arm-none-eabi/9.3.1/../../../../arm-none-eabi/lib/thumb/v7e-m+fp/hard\libc_nano.a(lib_a-sprintf.o)
                              ./user/display.o (sprintf)
d:/st/stm32cubeide_1.8.0/stm32cubeide/plugins/com.st.stm32cube.ide.mcu.externaltools.gnu-tools-for-stm32.9-2020-q2-update.win32_2.0.0.202105311346/tools/bin/../lib/gcc/arm-none-eabi/9.3.1/../../../../arm-none-eabi/lib/thumb/v7e-m+fp/hard\libc_nano.a(lib_a-stdio.o)
                              d:/st/stm32cubeide_1.8.0/stm32cubeide/plugins/com.st.stm32cube.ide.mcu.externaltools.gnu-tools-for-stm32.9-2020-q2-update.win32_2.0.0.202105311346/tools/bin/../lib/gcc/arm-none-eabi/9.3.1/../../../../arm-none-eabi/lib/thumb/v7e-m+fp/hard\libc_nano.a(lib_a-findfp.o) (__sread)
d:/st/stm32cubeide_1.8.0/stm32cubeide/plugins/com.st.stm32cube.ide.mcu.externaltools.gnu-tools-for-stm32.9-2020-q2-update.win32_2.0.0.202105311346/tools/bin/../lib/gcc/arm-none-eabi/9.3.1/../../../../arm-none-eabi/lib/thumb/v7e-m+fp/hard\libc_nano.a(lib_a-strlen.o)
                              ./user/display.o (strlen)
d:/st/stm32cubeide_1.8.0/stm32cubeide/plugins/com.st.stm32cube.ide.mcu.externaltools.gnu-tools-for-stm32.9-2020-q2-update.win32_2.0.0.202105311346/tools/bin/../lib/gcc/arm-none-eabi/9.3.1/../../../../arm-none-eabi/lib/thumb/v7e-m+fp/hard\libc_nano.a(lib_a-writer.o)
                              d:/st/stm32cubeide_1.8.0/stm32cubeide/plugins/com.st.stm32cube.ide.mcu.externaltools.gnu-tools-for-stm32.9-2020-q2-update.win32_2.0.0.202105311346/tools/bin/../lib/gcc/arm-none-eabi/9.3.1/../../../../arm-none-eabi/lib/thumb/v7e-m+fp/hard\libc_nano.a(lib_a-stdio.o) (_write_r)
d:/st/stm32cubeide_1.8.0/stm32cubeide/plugins/com.st.stm32cube.ide.mcu.externaltools.gnu-tools-for-stm32.9-2020-q2-update.win32_2.0.0.202105311346/tools/bin/../lib/gcc/arm-none-eabi/9.3.1/../../../../arm-none-eabi/lib/thumb/v7e-m+fp/hard\libc_nano.a(lib_a-closer.o)
                              d:/st/stm32cubeide_1.8.0/stm32cubeide/plugins/com.st.stm32cube.ide.mcu.externaltools.gnu-tools-for-stm32.9-2020-q2-update.win32_2.0.0.202105311346/tools/bin/../lib/gcc/arm-none-eabi/9.3.1/../../../../arm-none-eabi/lib/thumb/v7e-m+fp/hard\libc_nano.a(lib_a-stdio.o) (_close_r)
d:/st/stm32cubeide_1.8.0/stm32cubeide/plugins/com.st.stm32cube.ide.mcu.externaltools.gnu-tools-for-stm32.9-2020-q2-update.win32_2.0.0.202105311346/tools/bin/../lib/gcc/arm-none-eabi/9.3.1/../../../../arm-none-eabi/lib/thumb/v7e-m+fp/hard\libc_nano.a(lib_a-fflush.o)
                              d:/st/stm32cubeide_1.8.0/stm32cubeide/plugins/com.st.stm32cube.ide.mcu.externaltools.gnu-tools-for-stm32.9-2020-q2-update.win32_2.0.0.202105311346/tools/bin/../lib/gcc/arm-none-eabi/9.3.1/../../../../arm-none-eabi/lib/thumb/v7e-m+fp/hard\libc_nano.a(lib_a-findfp.o) (_fflush_r)
d:/st/stm32cubeide_1.8.0/stm32cubeide/plugins/com.st.stm32cube.ide.mcu.externaltools.gnu-tools-for-stm32.9-2020-q2-update.win32_2.0.0.202105311346/tools/bin/../lib/gcc/arm-none-eabi/9.3.1/../../../../arm-none-eabi/lib/thumb/v7e-m+fp/hard\libc_nano.a(lib_a-lseekr.o)
                              d:/st/stm32cubeide_1.8.0/stm32cubeide/plugins/com.st.stm32cube.ide.mcu.externaltools.gnu-tools-for-stm32.9-2020-q2-update.win32_2.0.0.202105311346/tools/bin/../lib/gcc/arm-none-eabi/9.3.1/../../../../arm-none-eabi/lib/thumb/v7e-m+fp/hard\libc_nano.a(lib_a-stdio.o) (_lseek_r)
d:/st/stm32cubeide_1.8.0/stm32cubeide/plugins/com.st.stm32cube.ide.mcu.externaltools.gnu-tools-for-stm32.9-2020-q2-update.win32_2.0.0.202105311346/tools/bin/../lib/gcc/arm-none-eabi/9.3.1/../../../../arm-none-eabi/lib/thumb/v7e-m+fp/hard\libc_nano.a(lib_a-mlock.o)
                              d:/st/stm32cubeide_1.8.0/stm32cubeide/plugins/com.st.stm32cube.ide.mcu.externaltools.gnu-tools-for-stm32.9-2020-q2-update.win32_2.0.0.202105311346/tools/bin/../lib/gcc/arm-none-eabi/9.3.1/../../../../arm-none-eabi/lib/thumb/v7e-m+fp/hard\libc_nano.a(lib_a-nano-freer.o) (__malloc_lock)
d:/st/stm32cubeide_1.8.0/stm32cubeide/plugins/com.st.stm32cube.ide.mcu.externaltools.gnu-tools-for-stm32.9-2020-q2-update.win32_2.0.0.202105311346/tools/bin/../lib/gcc/arm-none-eabi/9.3.1/../../../../arm-none-eabi/lib/thumb/v7e-m+fp/hard\libc_nano.a(lib_a-nano-svfprintf.o)
                              d:/st/stm32cubeide_1.8.0/stm32cubeide/plugins/com.st.stm32cube.ide.mcu.externaltools.gnu-tools-for-stm32.9-2020-q2-update.win32_2.0.0.202105311346/tools/bin/../lib/gcc/arm-none-eabi/9.3.1/../../../../arm-none-eabi/lib/thumb/v7e-m+fp/hard\libc_nano.a(lib_a-sprintf.o) (_svfprintf_r)
d:/st/stm32cubeide_1.8.0/stm32cubeide/plugins/com.st.stm32cube.ide.mcu.externaltools.gnu-tools-for-stm32.9-2020-q2-update.win32_2.0.0.202105311346/tools/bin/../lib/gcc/arm-none-eabi/9.3.1/../../../../arm-none-eabi/lib/thumb/v7e-m+fp/hard\libc_nano.a(lib_a-nano-vfprintf_i.o)
                              d:/st/stm32cubeide_1.8.0/stm32cubeide/plugins/com.st.stm32cube.ide.mcu.externaltools.gnu-tools-for-stm32.9-2020-q2-update.win32_2.0.0.202105311346/tools/bin/../lib/gcc/arm-none-eabi/9.3.1/../../../../arm-none-eabi/lib/thumb/v7e-m+fp/hard\libc_nano.a(lib_a-nano-svfprintf.o) (_printf_i)
d:/st/stm32cubeide_1.8.0/stm32cubeide/plugins/com.st.stm32cube.ide.mcu.externaltools.gnu-tools-for-stm32.9-2020-q2-update.win32_2.0.0.202105311346/tools/bin/../lib/gcc/arm-none-eabi/9.3.1/../../../../arm-none-eabi/lib/thumb/v7e-m+fp/hard\libc_nano.a(lib_a-readr.o)
                              d:/st/stm32cubeide_1.8.0/stm32cubeide/plugins/com.st.stm32cube.ide.mcu.externaltools.gnu-tools-for-stm32.9-2020-q2-update.win32_2.0.0.202105311346/tools/bin/../lib/gcc/arm-none-eabi/9.3.1/../../../../arm-none-eabi/lib/thumb/v7e-m+fp/hard\libc_nano.a(lib_a-stdio.o) (_read_r)
d:/st/stm32cubeide_1.8.0/stm32cubeide/plugins/com.st.stm32cube.ide.mcu.externaltools.gnu-tools-for-stm32.9-2020-q2-update.win32_2.0.0.202105311346/tools/bin/../lib/gcc/arm-none-eabi/9.3.1/../../../../arm-none-eabi/lib/thumb/v7e-m+fp/hard\libc_nano.a(lib_a-memchr.o)
                              d:/st/stm32cubeide_1.8.0/stm32cubeide/plugins/com.st.stm32cube.ide.mcu.externaltools.gnu-tools-for-stm32.9-2020-q2-update.win32_2.0.0.202105311346/tools/bin/../lib/gcc/arm-none-eabi/9.3.1/../../../../arm-none-eabi/lib/thumb/v7e-m+fp/hard\libc_nano.a(lib_a-nano-svfprintf.o) (memchr)
d:/st/stm32cubeide_1.8.0/stm32cubeide/plugins/com.st.stm32cube.ide.mcu.externaltools.gnu-tools-for-stm32.9-2020-q2-update.win32_2.0.0.202105311346/tools/bin/../lib/gcc/arm-none-eabi/9.3.1/../../../../arm-none-eabi/lib/thumb/v7e-m+fp/hard\libc_nano.a(lib_a-memmove.o)
                              d:/st/stm32cubeide_1.8.0/stm32cubeide/plugins/com.st.stm32cube.ide.mcu.externaltools.gnu-tools-for-stm32.9-2020-q2-update.win32_2.0.0.202105311346/tools/bin/../lib/gcc/arm-none-eabi/9.3.1/../../../../arm-none-eabi/lib/thumb/v7e-m+fp/hard\libc_nano.a(lib_a-nano-svfprintf.o) (memmove)
d:/st/stm32cubeide_1.8.0/stm32cubeide/plugins/com.st.stm32cube.ide.mcu.externaltools.gnu-tools-for-stm32.9-2020-q2-update.win32_2.0.0.202105311346/tools/bin/../lib/gcc/arm-none-eabi/9.3.1/../../../../arm-none-eabi/lib/thumb/v7e-m+fp/hard\libc_nano.a(lib_a-nano-reallocr.o)
                              d:/st/stm32cubeide_1.8.0/stm32cubeide/plugins/com.st.stm32cube.ide.mcu.externaltools.gnu-tools-for-stm32.9-2020-q2-update.win32_2.0.0.202105311346/tools/bin/../lib/gcc/arm-none-eabi/9.3.1/../../../../arm-none-eabi/lib/thumb/v7e-m+fp/hard\libc_nano.a(lib_a-nano-svfprintf.o) (_realloc_r)
d:/st/stm32cubeide_1.8.0/stm32cubeide/plugins/com.st.stm32cube.ide.mcu.externaltools.gnu-tools-for-stm32.9-2020-q2-update.win32_2.0.0.202105311346/tools/bin/../lib/gcc/arm-none-eabi/9.3.1/../../../../arm-none-eabi/lib/thumb/v7e-m+fp/hard\libc_nano.a(lib_a-nano-msizer.o)
                              d:/st/stm32cubeide_1.8.0/stm32cubeide/plugins/com.st.stm32cube.ide.mcu.externaltools.gnu-tools-for-stm32.9-2020-q2-update.win32_2.0.0.202105311346/tools/bin/../lib/gcc/arm-none-eabi/9.3.1/../../../../arm-none-eabi/lib/thumb/v7e-m+fp/hard\libc_nano.a(lib_a-nano-reallocr.o) (_malloc_usable_size_r)
d:/st/stm32cubeide_1.8.0/stm32cubeide/plugins/com.st.stm32cube.ide.mcu.externaltools.gnu-tools-for-stm32.9-2020-q2-update.win32_2.0.0.202105311346/tools/bin/../lib/gcc/arm-none-eabi/9.3.1/thumb/v7e-m+fp/hard\libgcc.a(_arm_truncdfsf2.o)
                              ./user/myprintf.o (__aeabi_d2f)
d:/st/stm32cubeide_1.8.0/stm32cubeide/plugins/com.st.stm32cube.ide.mcu.externaltools.gnu-tools-for-stm32.9-2020-q2-update.win32_2.0.0.202105311346/tools/bin/../lib/gcc/arm-none-eabi/9.3.1/thumb/v7e-m+fp/hard\libgcc.a(_aeabi_uldivmod.o)
                              ./Drivers/STM32F4xx_HAL_Driver/Src/stm32f4xx_hal_rcc.o (__aeabi_uldivmod)
d:/st/stm32cubeide_1.8.0/stm32cubeide/plugins/com.st.stm32cube.ide.mcu.externaltools.gnu-tools-for-stm32.9-2020-q2-update.win32_2.0.0.202105311346/tools/bin/../lib/gcc/arm-none-eabi/9.3.1/thumb/v7e-m+fp/hard\libgcc.a(_udivmoddi4.o)
                              d:/st/stm32cubeide_1.8.0/stm32cubeide/plugins/com.st.stm32cube.ide.mcu.externaltools.gnu-tools-for-stm32.9-2020-q2-update.win32_2.0.0.202105311346/tools/bin/../lib/gcc/arm-none-eabi/9.3.1/thumb/v7e-m+fp/hard\libgcc.a(_aeabi_uldivmod.o) (__udivmoddi4)
d:/st/stm32cubeide_1.8.0/stm32cubeide/plugins/com.st.stm32cube.ide.mcu.externaltools.gnu-tools-for-stm32.9-2020-q2-update.win32_2.0.0.202105311346/tools/bin/../lib/gcc/arm-none-eabi/9.3.1/thumb/v7e-m+fp/hard\libgcc.a(_dvmd_tls.o)
                              d:/st/stm32cubeide_1.8.0/stm32cubeide/plugins/com.st.stm32cube.ide.mcu.externaltools.gnu-tools-for-stm32.9-2020-q2-update.win32_2.0.0.202105311346/tools/bin/../lib/gcc/arm-none-eabi/9.3.1/thumb/v7e-m+fp/hard\libgcc.a(_aeabi_uldivmod.o) (__aeabi_ldiv0)

Allocating common symbols
Common symbol       size              file

usart1_rx           0x102             ./user/dev_usart.o
osthd_st            0xc               ./user/io_ctrl.o
keyboard_buff       0xb               ./user/detect.o
VirtAddVarTab       0x1fe             ./user/eeprom.o
defaultTaskHandle   0x4               ./Core/Src/freertos.o
Usart1_Type         0x102             ./user/dev_usart.o
hdma_usart6_rx      0x60              ./Core/Src/usart.o
gate_buff           0xb               ./user/detect.o
usart6_rx           0x102             ./user/dev_usart.o
relief_st           0x8               ./user/io_ctrl.o
Usart2_Type         0x102             ./user/dev_usart.o
errno               0x4               d:/st/stm32cubeide_1.8.0/stm32cubeide/plugins/com.st.stm32cube.ide.mcu.externaltools.gnu-tools-for-stm32.9-2020-q2-update.win32_2.0.0.202105311346/tools/bin/../lib/gcc/arm-none-eabi/9.3.1/../../../../arm-none-eabi/lib/thumb/v7e-m+fp/hard\libc_nano.a(lib_a-reent.o)
hdma_usart3_rx      0x60              ./Core/Src/usart.o
keycatch_result     0x1               ./user/detect.o
set_para_st         0x26              ./user/io_ctrl.o
huart3              0x44              ./Core/Src/usart.o
op_para_st          0xa               ./user/io_ctrl.o
keystop_buff        0xb               ./user/detect.o
src_press_st        0x28              ./user/io_ctrl.o
gate_result         0x1               ./user/detect.o
screen_ini_st       0x3               ./user/io_ctrl.o
htim10              0x48              ./Core/Src/tim.o
hiwdg               0xc               ./Core/Src/iwdg.o
scr_state_st        0x16              ./user/io_ctrl.o
keypush_buff        0xb               ./user/detect.o
JumpAddress         0x4               ./user/jump.o
keypush_result      0x1               ./user/detect.o
keyrun_result       0x1               ./user/detect.o
log_para_st         0x33              ./user/display.o
myBinarySem05Handle
                    0x4               ./Core/Src/freertos.o
scr_operate_st      0x20              ./user/io_ctrl.o
start_stop_st       0x2               ./user/detect.o
myEvent01Handle     0x4               ./Core/Src/freertos.o
uwTick              0x4               ./Drivers/STM32F4xx_HAL_Driver/Src/stm32f4xx_hal.o
xQueueRegistry      0x40              ./Middlewares/Third_Party/FreeRTOS/Source/queue.o
fst_tips_st         0x3               ./user/io_ctrl.o
keyemg_result       0x1               ./user/detect.o
Usart3_Type         0x102             ./user/dev_usart.o
hdma_usart3_tx      0x60              ./Core/Src/usart.o
pFlash              0x20              ./Drivers/STM32F4xx_HAL_Driver/Src/stm32f4xx_hal_flash.o
myTask05Handle      0x4               ./Core/Src/freertos.o
myTask04Handle      0x4               ./Core/Src/freertos.o
myBinarySem03Handle
                    0x4               ./Core/Src/freertos.o
sys_guard           0xe               ./user/sysguard.o
hdma_usart1_tx      0x60              ./Core/Src/usart.o
screen_prot         0x118             ./user/io_ctrl.o
hdma_usart6_tx      0x60              ./Core/Src/usart.o
time_start_st       0x18              ./Core/Src/freertos.o
hdma_usart1_rx      0x60              ./Core/Src/usart.o
huart1              0x44              ./Core/Src/usart.o
myEvent02Handle     0x4               ./Core/Src/freertos.o
myBinarySem02Handle
                    0x4               ./Core/Src/freertos.o
keyboard_result     0x1               ./user/detect.o
myTask02Handle      0x4               ./Core/Src/freertos.o
keystop_result      0x1               ./user/detect.o
hrtc                0x20              ./Core/Src/rtc.o
keyturn_result      0x1               ./user/detect.o
keycatch_buff       0xb               ./user/detect.o
usart2_rx           0x102             ./user/dev_usart.o
Usart6_Type         0x102             ./user/dev_usart.o
htim6               0x48              ./Core/Src/tim.o
keyrun_buff         0xb               ./user/detect.o
dpt                 0x194             ./user/detect.o
myBinarySem01Handle
                    0x4               ./Core/Src/freertos.o
warn_st             0x28              ./user/my_tim.o
keyturn_buff        0xb               ./user/detect.o
myTask03Handle      0x4               ./Core/Src/freertos.o
huart6              0x44              ./Core/Src/usart.o
time_st             0x18              ./user/display.o
usart3_rx           0x102             ./user/dev_usart.o
gate2_buff          0xb               ./user/detect.o
htim2               0x48              ./Core/Src/stm32f4xx_hal_timebase_tim.o
myQueueUsart1Handle
                    0x4               ./Core/Src/freertos.o
tim_para_st         0x4               ./user/display.o
warn_out_st         0x4               ./user/display.o
myQueueUsart6Handle
                    0x4               ./Core/Src/freertos.o
out_state_st        0x5               ./user/io_ctrl.o
JumpToApplication   0x4               ./user/jump.o
keymod_result       0x1               ./user/detect.o
keyemg_buff         0xb               ./user/detect.o
warn_bk_st          0x28              ./user/my_tim.o
htim7               0x48              ./Core/Src/tim.o
myMutex01Handle     0x4               ./Core/Src/freertos.o
myMutex02Handle     0x4               ./Core/Src/freertos.o
time_get_st         0x18              ./user/display.o
keyhead_result      0x1               ./user/detect.o
myQueueUsart3Handle
                    0x4               ./Core/Src/freertos.o
myTask06Handle      0x4               ./Core/Src/freertos.o
keymod_buff         0xb               ./user/detect.o
keyhead_buff        0xb               ./user/detect.o
myBinarySem04Handle
                    0x4               ./Core/Src/freertos.o
gate2_result        0x1               ./user/detect.o
para_check_st       0x38              ./user/my_tim.o

Discarded input sections

 .text          0x0000000000000000        0x0 d:/st/stm32cubeide_1.8.0/stm32cubeide/plugins/com.st.stm32cube.ide.mcu.externaltools.gnu-tools-for-stm32.9-2020-q2-update.win32_2.0.0.202105311346/tools/bin/../lib/gcc/arm-none-eabi/9.3.1/thumb/v7e-m+fp/hard/crti.o
 .data          0x0000000000000000        0x0 d:/st/stm32cubeide_1.8.0/stm32cubeide/plugins/com.st.stm32cube.ide.mcu.externaltools.gnu-tools-for-stm32.9-2020-q2-update.win32_2.0.0.202105311346/tools/bin/../lib/gcc/arm-none-eabi/9.3.1/thumb/v7e-m+fp/hard/crti.o
 .bss           0x0000000000000000        0x0 d:/st/stm32cubeide_1.8.0/stm32cubeide/plugins/com.st.stm32cube.ide.mcu.externaltools.gnu-tools-for-stm32.9-2020-q2-update.win32_2.0.0.202105311346/tools/bin/../lib/gcc/arm-none-eabi/9.3.1/thumb/v7e-m+fp/hard/crti.o
 .data          0x0000000000000000        0x4 d:/st/stm32cubeide_1.8.0/stm32cubeide/plugins/com.st.stm32cube.ide.mcu.externaltools.gnu-tools-for-stm32.9-2020-q2-update.win32_2.0.0.202105311346/tools/bin/../lib/gcc/arm-none-eabi/9.3.1/thumb/v7e-m+fp/hard/crtbegin.o
 .text          0x0000000000000000       0x7c d:/st/stm32cubeide_1.8.0/stm32cubeide/plugins/com.st.stm32cube.ide.mcu.externaltools.gnu-tools-for-stm32.9-2020-q2-update.win32_2.0.0.202105311346/tools/bin/../lib/gcc/arm-none-eabi/9.3.1/../../../../arm-none-eabi/lib/thumb/v7e-m+fp/hard/crt0.o
 .data          0x0000000000000000        0x0 d:/st/stm32cubeide_1.8.0/stm32cubeide/plugins/com.st.stm32cube.ide.mcu.externaltools.gnu-tools-for-stm32.9-2020-q2-update.win32_2.0.0.202105311346/tools/bin/../lib/gcc/arm-none-eabi/9.3.1/../../../../arm-none-eabi/lib/thumb/v7e-m+fp/hard/crt0.o
 .bss           0x0000000000000000        0x0 d:/st/stm32cubeide_1.8.0/stm32cubeide/plugins/com.st.stm32cube.ide.mcu.externaltools.gnu-tools-for-stm32.9-2020-q2-update.win32_2.0.0.202105311346/tools/bin/../lib/gcc/arm-none-eabi/9.3.1/../../../../arm-none-eabi/lib/thumb/v7e-m+fp/hard/crt0.o
 .ARM.extab     0x0000000000000000        0x0 d:/st/stm32cubeide_1.8.0/stm32cubeide/plugins/com.st.stm32cube.ide.mcu.externaltools.gnu-tools-for-stm32.9-2020-q2-update.win32_2.0.0.202105311346/tools/bin/../lib/gcc/arm-none-eabi/9.3.1/../../../../arm-none-eabi/lib/thumb/v7e-m+fp/hard/crt0.o
 .ARM.exidx     0x0000000000000000       0x10 d:/st/stm32cubeide_1.8.0/stm32cubeide/plugins/com.st.stm32cube.ide.mcu.externaltools.gnu-tools-for-stm32.9-2020-q2-update.win32_2.0.0.202105311346/tools/bin/../lib/gcc/arm-none-eabi/9.3.1/../../../../arm-none-eabi/lib/thumb/v7e-m+fp/hard/crt0.o
 .ARM.attributes
                0x0000000000000000       0x1c d:/st/stm32cubeide_1.8.0/stm32cubeide/plugins/com.st.stm32cube.ide.mcu.externaltools.gnu-tools-for-stm32.9-2020-q2-update.win32_2.0.0.202105311346/tools/bin/../lib/gcc/arm-none-eabi/9.3.1/../../../../arm-none-eabi/lib/thumb/v7e-m+fp/hard/crt0.o
 .group         0x0000000000000000        0xc ./Core/Src/dma.o
 .group         0x0000000000000000        0xc ./Core/Src/dma.o
 .group         0x0000000000000000        0xc ./Core/Src/dma.o
 .group         0x0000000000000000        0xc ./Core/Src/dma.o
 .group         0x0000000000000000        0xc ./Core/Src/dma.o
 .group         0x0000000000000000        0xc ./Core/Src/dma.o
 .group         0x0000000000000000        0xc ./Core/Src/dma.o
Memory Configuration

Name             Origin             Length             Attributes
RAM              0x0000000020000000 0x0000000000040000 xrw
FLASH            0x0000000008020000 0x0000000000020000 xr
*default*        0x0000000000000000 0xffffffffffffffff

Linker script and memory map

LOAD d:/st/stm32cubeide_1.8.0/stm32cubeide/plugins/com.st.stm32cube.ide.mcu.externaltools.gnu-tools-for-stm32.9-2020-q2-update.win32_2.0.0.202105311346/tools/bin/../lib/gcc/arm-none-eabi/9.3.1/thumb/v7e-m+fp/hard/crti.o
LOAD d:/st/stm32cubeide_1.8.0/stm32cubeide/plugins/com.st.stm32cube.ide.mcu.externaltools.gnu-tools-for-stm32.9-2020-q2-update.win32_2.0.0.202105311346/tools/bin/../lib/gcc/arm-none-eabi/9.3.1/thumb/v7e-m+fp/hard/crtbegin.o
LOAD d:/st/stm32cubeide_1.8.0/stm32cubeide/plugins/com.st.stm32cube.ide.mcu.externaltools.gnu-tools-for-stm32.9-2020-q2-update.win32_2.0.0.202105311346/tools/bin/../lib/gcc/arm-none-eabi/9.3.1/../../../../arm-none-eabi/lib/thumb/v7e-m+fp/hard/crt0.o
LOAD ./Core/Src/dma.o
LOAD ./Core/Src/freertos.o
LOAD ./Core/Src/gpio.o
LOAD ./Core/Src/iwdg.o
LOAD ./Core/Src/main.o
LOAD ./Core/Src/rtc.o
LOAD ./Core/Src/stm32f4xx_hal_msp.o
LOAD ./Core/Src/stm32f4xx_hal_timebase_tim.o
LOAD ./Core/Src/stm32f4xx_it.o
LOAD ./Core/Src/syscalls.o
LOAD ./Core/Src/sysmem.o
LOAD ./Core/Src/system_stm32f4xx.o
LOAD ./Core/Src/tim.o
LOAD ./Core/Src/usart.o
LOAD ./Core/Startup/startup_stm32f412retx.o
LOAD ./Core/ThreadSafe/newlib_lock_glue.o
LOAD ./Drivers/STM32F4xx_HAL_Driver/Src/stm32f4xx_hal.o
LOAD ./Drivers/STM32F4xx_HAL_Driver/Src/stm32f4xx_hal_cortex.o
LOAD ./Drivers/STM32F4xx_HAL_Driver/Src/stm32f4xx_hal_dma.o
LOAD ./Drivers/STM32F4xx_HAL_Driver/Src/stm32f4xx_hal_dma_ex.o
LOAD ./Drivers/STM32F4xx_HAL_Driver/Src/stm32f4xx_hal_exti.o
LOAD ./Drivers/STM32F4xx_HAL_Driver/Src/stm32f4xx_hal_flash.o
LOAD ./Drivers/STM32F4xx_HAL_Driver/Src/stm32f4xx_hal_flash_ex.o
LOAD ./Drivers/STM32F4xx_HAL_Driver/Src/stm32f4xx_hal_flash_ramfunc.o
LOAD ./Drivers/STM32F4xx_HAL_Driver/Src/stm32f4xx_hal_gpio.o
LOAD ./Drivers/STM32F4xx_HAL_Driver/Src/stm32f4xx_hal_iwdg.o
LOAD ./Drivers/STM32F4xx_HAL_Driver/Src/stm32f4xx_hal_pwr.o
LOAD ./Drivers/STM32F4xx_HAL_Driver/Src/stm32f4xx_hal_pwr_ex.o
LOAD ./Drivers/STM32F4xx_HAL_Driver/Src/stm32f4xx_hal_rcc.o
LOAD ./Drivers/STM32F4xx_HAL_Driver/Src/stm32f4xx_hal_rcc_ex.o
LOAD ./Drivers/STM32F4xx_HAL_Driver/Src/stm32f4xx_hal_rtc.o
LOAD ./Drivers/STM32F4xx_HAL_Driver/Src/stm32f4xx_hal_rtc_ex.o
LOAD ./Drivers/STM32F4xx_HAL_Driver/Src/stm32f4xx_hal_tim.o
LOAD ./Drivers/STM32F4xx_HAL_Driver/Src/stm32f4xx_hal_tim_ex.o
LOAD ./Drivers/STM32F4xx_HAL_Driver/Src/stm32f4xx_hal_uart.o
LOAD ./Middlewares/Third_Party/FreeRTOS/Source/CMSIS_RTOS_V2/cmsis_os2.o
LOAD ./Middlewares/Third_Party/FreeRTOS/Source/croutine.o
LOAD ./Middlewares/Third_Party/FreeRTOS/Source/event_groups.o
LOAD ./Middlewares/Third_Party/FreeRTOS/Source/list.o
LOAD ./Middlewares/Third_Party/FreeRTOS/Source/queue.o
LOAD ./Middlewares/Third_Party/FreeRTOS/Source/stream_buffer.o
LOAD ./Middlewares/Third_Party/FreeRTOS/Source/tasks.o
LOAD ./Middlewares/Third_Party/FreeRTOS/Source/timers.o
LOAD ./Middlewares/Third_Party/FreeRTOS/Source/portable/GCC/ARM_CM4F/port.o
LOAD ./Middlewares/Third_Party/FreeRTOS/Source/portable/MemMang/heap_4.o
LOAD ./user/detect.o
LOAD ./user/dev_usart.o
LOAD ./user/display.o
LOAD ./user/eeprom.o
LOAD ./user/io_ctrl.o
LOAD ./user/jump.o
LOAD ./user/my_tim.o
LOAD ./user/myprintf.o
LOAD ./user/soft_timer.o
LOAD ./user/sysguard.o
START GROUP
LOAD d:/st/stm32cubeide_1.8.0/stm32cubeide/plugins/com.st.stm32cube.ide.mcu.externaltools.gnu-tools-for-stm32.9-2020-q2-update.win32_2.0.0.202105311346/tools/bin/../lib/gcc/arm-none-eabi/9.3.1/../../../../arm-none-eabi/lib/thumb/v7e-m+fp/hard\libc_nano.a
LOAD d:/st/stm32cubeide_1.8.0/stm32cubeide/plugins/com.st.stm32cube.ide.mcu.externaltools.gnu-tools-for-stm32.9-2020-q2-update.win32_2.0.0.202105311346/tools/bin/../lib/gcc/arm-none-eabi/9.3.1/../../../../arm-none-eabi/lib/thumb/v7e-m+fp/hard\libm.a
END GROUP
START GROUP
LOAD d:/st/stm32cubeide_1.8.0/stm32cubeide/plugins/com.st.stm32cube.ide.mcu.externaltools.gnu-tools-for-stm32.9-2020-q2-update.win32_2.0.0.202105311346/tools/bin/../lib/gcc/arm-none-eabi/9.3.1/thumb/v7e-m+fp/hard\libgcc.a
LOAD d:/st/stm32cubeide_1.8.0/stm32cubeide/plugins/com.st.stm32cube.ide.mcu.externaltools.gnu-tools-for-stm32.9-2020-q2-update.win32_2.0.0.202105311346/tools/bin/../lib/gcc/arm-none-eabi/9.3.1/../../../../arm-none-eabi/lib/thumb/v7e-m+fp/hard\libc_nano.a
END GROUP
START GROUP
LOAD d:/st/stm32cubeide_1.8.0/stm32cubeide/plugins/com.st.stm32cube.ide.mcu.externaltools.gnu-tools-for-stm32.9-2020-q2-update.win32_2.0.0.202105311346/tools/bin/../lib/gcc/arm-none-eabi/9.3.1/thumb/v7e-m+fp/hard\libgcc.a
LOAD d:/st/stm32cubeide_1.8.0/stm32cubeide/plugins/com.st.stm32cube.ide.mcu.externaltools.gnu-tools-for-stm32.9-2020-q2-update.win32_2.0.0.202105311346/tools/bin/../lib/gcc/arm-none-eabi/9.3.1/../../../../arm-none-eabi/lib/thumb/v7e-m+fp/hard\libc_nano.a
LOAD d:/st/stm32cubeide_1.8.0/stm32cubeide/plugins/com.st.stm32cube.ide.mcu.externaltools.gnu-tools-for-stm32.9-2020-q2-update.win32_2.0.0.202105311346/tools/bin/../lib/gcc/arm-none-eabi/9.3.1/../../../../arm-none-eabi/lib/thumb/v7e-m+fp/hard\libnosys.a
END GROUP
START GROUP
LOAD d:/st/stm32cubeide_1.8.0/stm32cubeide/plugins/com.st.stm32cube.ide.mcu.externaltools.gnu-tools-for-stm32.9-2020-q2-update.win32_2.0.0.202105311346/tools/bin/../lib/gcc/arm-none-eabi/9.3.1/thumb/v7e-m+fp/hard\libgcc.a
LOAD d:/st/stm32cubeide_1.8.0/stm32cubeide/plugins/com.st.stm32cube.ide.mcu.externaltools.gnu-tools-for-stm32.9-2020-q2-update.win32_2.0.0.202105311346/tools/bin/../lib/gcc/arm-none-eabi/9.3.1/../../../../arm-none-eabi/lib/thumb/v7e-m+fp/hard\libc_nano.a
LOAD d:/st/stm32cubeide_1.8.0/stm32cubeide/plugins/com.st.stm32cube.ide.mcu.externaltools.gnu-tools-for-stm32.9-2020-q2-update.win32_2.0.0.202105311346/tools/bin/../lib/gcc/arm-none-eabi/9.3.1/../../../../arm-none-eabi/lib/thumb/v7e-m+fp/hard\libnosys.a
END GROUP
LOAD d:/st/stm32cubeide_1.8.0/stm32cubeide/plugins/com.st.stm32cube.ide.mcu.externaltools.gnu-tools-for-stm32.9-2020-q2-update.win32_2.0.0.202105311346/tools/bin/../lib/gcc/arm-none-eabi/9.3.1/thumb/v7e-m+fp/hard/crtend.o
LOAD d:/st/stm32cubeide_1.8.0/stm32cubeide/plugins/com.st.stm32cube.ide.mcu.externaltools.gnu-tools-for-stm32.9-2020-q2-update.win32_2.0.0.202105311346/tools/bin/../lib/gcc/arm-none-eabi/9.3.1/thumb/v7e-m+fp/hard/crtn.o
                0x0000000020040000                _estack = (ORIGIN (RAM) + LENGTH (RAM))
                0x0000000000002000                _Min_Heap_Size = 0x2000
                0x0000000000004000                _Min_Stack_Size = 0x4000

.isr_vector     0x0000000008020000      0x1c4
                0x0000000008020000                . = ALIGN (0x4)
 *(.isr_vector)
 .isr_vector    0x0000000008020000      0x1c4 ./Core/Startup/startup_stm32f412retx.o
                0x0000000008020000                g_pfnVectors
                0x00000000080201c4                . = ALIGN (0x4)

.text           0x00000000080201d0     0xe158
                0x00000000080201d0                . = ALIGN (0x4)
 *(.text)
 .text          0x00000000080201d0       0x40 d:/st/stm32cubeide_1.8.0/stm32cubeide/plugins/com.st.stm32cube.ide.mcu.externaltools.gnu-tools-for-stm32.9-2020-q2-update.win32_2.0.0.202105311346/tools/bin/../lib/gcc/arm-none-eabi/9.3.1/thumb/v7e-m+fp/hard/crtbegin.o
 .text          0x0000000008020210       0x10 d:/st/stm32cubeide_1.8.0/stm32cubeide/plugins/com.st.stm32cube.ide.mcu.externaltools.gnu-tools-for-stm32.9-2020-q2-update.win32_2.0.0.202105311346/tools/bin/../lib/gcc/arm-none-eabi/9.3.1/../../../../arm-none-eabi/lib/thumb/v7e-m+fp/hard\libc_nano.a(lib_a-strlen.o)
                0x0000000008020210                strlen
 .text          0x0000000008020220       0xa0 d:/st/stm32cubeide_1.8.0/stm32cubeide/plugins/com.st.stm32cube.ide.mcu.externaltools.gnu-tools-for-stm32.9-2020-q2-update.win32_2.0.0.202105311346/tools/bin/../lib/gcc/arm-none-eabi/9.3.1/../../../../arm-none-eabi/lib/thumb/v7e-m+fp/hard\libc_nano.a(lib_a-memchr.o)
                0x0000000008020220                memchr
 .text          0x00000000080202c0       0xa0 d:/st/stm32cubeide_1.8.0/stm32cubeide/plugins/com.st.stm32cube.ide.mcu.externaltools.gnu-tools-for-stm32.9-2020-q2-update.win32_2.0.0.202105311346/tools/bin/../lib/gcc/arm-none-eabi/9.3.1/thumb/v7e-m+fp/hard\libgcc.a(_arm_truncdfsf2.o)
                0x00000000080202c0                __truncdfsf2
                0x00000000080202c0                __aeabi_d2f
 .text          0x0000000008020360       0x30 d:/st/stm32cubeide_1.8.0/stm32cubeide/plugins/com.st.stm32cube.ide.mcu.externaltools.gnu-tools-for-stm32.9-2020-q2-update.win32_2.0.0.202105311346/tools/bin/../lib/gcc/arm-none-eabi/9.3.1/thumb/v7e-m+fp/hard\libgcc.a(_aeabi_uldivmod.o)
                0x0000000008020360                __aeabi_uldivmod
 .text          0x0000000008020390      0x2c4 d:/st/stm32cubeide_1.8.0/stm32cubeide/plugins/com.st.stm32cube.ide.mcu.externaltools.gnu-tools-for-stm32.9-2020-q2-update.win32_2.0.0.202105311346/tools/bin/../lib/gcc/arm-none-eabi/9.3.1/thumb/v7e-m+fp/hard\libgcc.a(_udivmoddi4.o)
                0x0000000008020390                __udivmoddi4
 .text          0x0000000008020654        0x4 d:/st/stm32cubeide_1.8.0/stm32cubeide/plugins/com.st.stm32cube.ide.mcu.externaltools.gnu-tools-for-stm32.9-2020-q2-update.win32_2.0.0.202105311346/tools/bin/../lib/gcc/arm-none-eabi/9.3.1/thumb/v7e-m+fp/hard\libgcc.a(_dvmd_tls.o)
                0x0000000008020654                __aeabi_idiv0
                0x0000000008020654                __aeabi_ldiv0
 *(.text*)
 .text.MX_DMA_Init
                0x0000000008020658       0x98 ./Core/Src/dma.o
                0x0000000008020658                MX_DMA_Init
 .text.StartDefaultTask
                0x00000000080206f0      0x1a0 ./Core/Src/freertos.o
                0x00000000080206f0                StartDefaultTask
 .text.StartTask02
                0x0000000008020890       0xc4 ./Core/Src/freertos.o
                0x0000000008020890                StartTask02
 .text.StartTask03
                0x0000000008020954       0x1c ./Core/Src/freertos.o
                0x0000000008020954                StartTask03
 .text.StartTask04
                0x0000000008020970       0x30 ./Core/Src/freertos.o
                0x0000000008020970                StartTask04
 .text.StartTask05
                0x00000000080209a0       0x1a ./Core/Src/freertos.o
                0x00000000080209a0                StartTask05
 *fill*         0x00000000080209ba        0x2 
 .text.StartTask06
                0x00000000080209bc      0x134 ./Core/Src/freertos.o
                0x00000000080209bc                StartTask06
 .text.vApplicationIdleHook
                0x0000000008020af0        0x2 ./Core/Src/freertos.o
                0x0000000008020af0                vApplicationIdleHook
 .text.vApplicationTickHook
                0x0000000008020af2        0x2 ./Core/Src/freertos.o
                0x0000000008020af2                vApplicationTickHook
 .text.vApplicationMallocFailedHook
                0x0000000008020af4        0x2 ./Core/Src/freertos.o
                0x0000000008020af4                vApplicationMallocFailedHook
 .text.vApplicationDaemonTaskStartupHook
                0x0000000008020af6        0x2 ./Core/Src/freertos.o
                0x0000000008020af6                vApplicationDaemonTaskStartupHook
 .text.MX_FREERTOS_Init
                0x0000000008020af8      0x1a0 ./Core/Src/freertos.o
                0x0000000008020af8                MX_FREERTOS_Init
 .text.MX_GPIO_Init
                0x0000000008020c98      0x144 ./Core/Src/gpio.o
                0x0000000008020c98                MX_GPIO_Init
 .text.MX_IWDG_Init
                0x0000000008020ddc       0x28 ./Core/Src/iwdg.o
                0x0000000008020ddc                MX_IWDG_Init
 .text.HAL_TIM_PeriodElapsedCallback
                0x0000000008020e04       0x12 ./Core/Src/main.o
                0x0000000008020e04                HAL_TIM_PeriodElapsedCallback
 *fill*         0x0000000008020e16        0x2 
 .text.Error_Handler
                0x0000000008020e18       0x10 ./Core/Src/main.o
                0x0000000008020e18                Error_Handler
 .text.SystemClock_Config
                0x0000000008020e28       0xa8 ./Core/Src/main.o
                0x0000000008020e28                SystemClock_Config
 .text.main     0x0000000008020ed0       0x94 ./Core/Src/main.o
                0x0000000008020ed0                main
 .text.assert_failed
                0x0000000008020f64        0x2 ./Core/Src/main.o
                0x0000000008020f64                assert_failed
 *fill*         0x0000000008020f66        0x2 
 .text.MX_RTC_Init
                0x0000000008020f68       0x8c ./Core/Src/rtc.o
                0x0000000008020f68                MX_RTC_Init
 .text.HAL_RTC_MspInit
                0x0000000008020ff4       0x44 ./Core/Src/rtc.o
                0x0000000008020ff4                HAL_RTC_MspInit
 .text.HAL_MspInit
                0x0000000008021038       0x44 ./Core/Src/stm32f4xx_hal_msp.o
                0x0000000008021038                HAL_MspInit
 .text.HAL_InitTick
                0x000000000802107c       0x78 ./Core/Src/stm32f4xx_hal_timebase_tim.o
                0x000000000802107c                HAL_InitTick
 .text.NMI_Handler
                0x00000000080210f4       0x10 ./Core/Src/stm32f4xx_it.o
                0x00000000080210f4                NMI_Handler
 .text.HardFault_Handler
                0x0000000008021104       0x10 ./Core/Src/stm32f4xx_it.o
                0x0000000008021104                HardFault_Handler
 .text.MemManage_Handler
                0x0000000008021114       0x10 ./Core/Src/stm32f4xx_it.o
                0x0000000008021114                MemManage_Handler
 .text.BusFault_Handler
                0x0000000008021124       0x10 ./Core/Src/stm32f4xx_it.o
                0x0000000008021124                BusFault_Handler
 .text.UsageFault_Handler
                0x0000000008021134       0x10 ./Core/Src/stm32f4xx_it.o
                0x0000000008021134                UsageFault_Handler
 .text.DebugMon_Handler
                0x0000000008021144       0x10 ./Core/Src/stm32f4xx_it.o
                0x0000000008021144                DebugMon_Handler
 .text.DMA1_Stream1_IRQHandler
                0x0000000008021154       0x10 ./Core/Src/stm32f4xx_it.o
                0x0000000008021154                DMA1_Stream1_IRQHandler
 .text.DMA1_Stream3_IRQHandler
                0x0000000008021164       0x10 ./Core/Src/stm32f4xx_it.o
                0x0000000008021164                DMA1_Stream3_IRQHandler
 .text.TIM1_UP_TIM10_IRQHandler
                0x0000000008021174       0x10 ./Core/Src/stm32f4xx_it.o
                0x0000000008021174                TIM1_UP_TIM10_IRQHandler
 .text.TIM2_IRQHandler
                0x0000000008021184       0x10 ./Core/Src/stm32f4xx_it.o
                0x0000000008021184                TIM2_IRQHandler
 .text.USART1_IRQHandler
                0x0000000008021194       0x18 ./Core/Src/stm32f4xx_it.o
                0x0000000008021194                USART1_IRQHandler
 .text.USART3_IRQHandler
                0x00000000080211ac       0x18 ./Core/Src/stm32f4xx_it.o
                0x00000000080211ac                USART3_IRQHandler
 .text.TIM6_IRQHandler
                0x00000000080211c4       0x18 ./Core/Src/stm32f4xx_it.o
                0x00000000080211c4                TIM6_IRQHandler
 .text.DMA2_Stream1_IRQHandler
                0x00000000080211dc       0x10 ./Core/Src/stm32f4xx_it.o
                0x00000000080211dc                DMA2_Stream1_IRQHandler
 .text.DMA2_Stream2_IRQHandler
                0x00000000080211ec       0x10 ./Core/Src/stm32f4xx_it.o
                0x00000000080211ec                DMA2_Stream2_IRQHandler
 .text.DMA2_Stream6_IRQHandler
                0x00000000080211fc       0x10 ./Core/Src/stm32f4xx_it.o
                0x00000000080211fc                DMA2_Stream6_IRQHandler
 .text.DMA2_Stream7_IRQHandler
                0x000000000802120c       0x10 ./Core/Src/stm32f4xx_it.o
                0x000000000802120c                DMA2_Stream7_IRQHandler
 .text.USART6_IRQHandler
                0x000000000802121c       0x18 ./Core/Src/stm32f4xx_it.o
                0x000000000802121c                USART6_IRQHandler
 .text._sbrk    0x0000000008021234       0x48 ./Core/Src/sysmem.o
                0x0000000008021234                _sbrk
 .text.SystemInit
                0x000000000802127c       0x14 ./Core/Src/system_stm32f4xx.o
                0x000000000802127c                SystemInit
 .text.MX_TIM6_Init
                0x0000000008021290       0x50 ./Core/Src/tim.o
                0x0000000008021290                MX_TIM6_Init
 .text.MX_TIM7_Init
                0x00000000080212e0       0x30 ./Core/Src/tim.o
                0x00000000080212e0                MX_TIM7_Init
 .text.MX_TIM10_Init
                0x0000000008021310       0x34 ./Core/Src/tim.o
                0x0000000008021310                MX_TIM10_Init
 .text.HAL_TIM_Base_MspInit
                0x0000000008021344       0x98 ./Core/Src/tim.o
                0x0000000008021344                HAL_TIM_Base_MspInit
 .text.MX_USART1_UART_Init
                0x00000000080213dc       0x34 ./Core/Src/usart.o
                0x00000000080213dc                MX_USART1_UART_Init
 .text.MX_USART3_UART_Init
                0x0000000008021410       0x34 ./Core/Src/usart.o
                0x0000000008021410                MX_USART3_UART_Init
 .text.MX_USART6_UART_Init
                0x0000000008021444       0x34 ./Core/Src/usart.o
                0x0000000008021444                MX_USART6_UART_Init
 .text.HAL_UART_MspInit
                0x0000000008021478      0x348 ./Core/Src/usart.o
                0x0000000008021478                HAL_UART_MspInit
 .text.Reset_Handler
                0x00000000080217c0       0x50 ./Core/Startup/startup_stm32f412retx.o
                0x00000000080217c0                Reset_Handler
 .text.Default_Handler
                0x0000000008021810        0x2 ./Core/Startup/startup_stm32f412retx.o
                0x0000000008021810                RTC_Alarm_IRQHandler
                0x0000000008021810                EXTI2_IRQHandler
                0x0000000008021810                TIM8_CC_IRQHandler
                0x0000000008021810                FMPI2C1_EV_IRQHandler
                0x0000000008021810                SPI4_IRQHandler
                0x0000000008021810                TIM1_CC_IRQHandler
                0x0000000008021810                DMA2_Stream5_IRQHandler
                0x0000000008021810                DMA1_Stream5_IRQHandler
                0x0000000008021810                PVD_IRQHandler
                0x0000000008021810                SDIO_IRQHandler
                0x0000000008021810                TAMP_STAMP_IRQHandler
                0x0000000008021810                CAN2_RX1_IRQHandler
                0x0000000008021810                EXTI3_IRQHandler
                0x0000000008021810                TIM8_TRG_COM_TIM14_IRQHandler
                0x0000000008021810                DFSDM1_FLT1_IRQHandler
                0x0000000008021810                TIM8_UP_TIM13_IRQHandler
                0x0000000008021810                I2C3_ER_IRQHandler
                0x0000000008021810                EXTI0_IRQHandler
                0x0000000008021810                I2C2_EV_IRQHandler
                0x0000000008021810                DMA1_Stream2_IRQHandler
                0x0000000008021810                CAN1_RX0_IRQHandler
                0x0000000008021810                FPU_IRQHandler
                0x0000000008021810                CAN2_SCE_IRQHandler
                0x0000000008021810                SPI1_IRQHandler
                0x0000000008021810                TIM1_BRK_TIM9_IRQHandler
                0x0000000008021810                CAN2_RX0_IRQHandler
                0x0000000008021810                DMA2_Stream3_IRQHandler
                0x0000000008021810                CAN1_RX1_IRQHandler
                0x0000000008021810                DMA2_Stream0_IRQHandler
                0x0000000008021810                TIM4_IRQHandler
                0x0000000008021810                QUADSPI_IRQHandler
                0x0000000008021810                I2C1_EV_IRQHandler
                0x0000000008021810                DMA1_Stream6_IRQHandler
                0x0000000008021810                TIM3_IRQHandler
                0x0000000008021810                RCC_IRQHandler
                0x0000000008021810                TIM8_BRK_TIM12_IRQHandler
                0x0000000008021810                Default_Handler
                0x0000000008021810                EXTI15_10_IRQHandler
                0x0000000008021810                ADC_IRQHandler
                0x0000000008021810                DMA1_Stream7_IRQHandler
                0x0000000008021810                SPI5_IRQHandler
                0x0000000008021810                TIM7_IRQHandler
                0x0000000008021810                CAN2_TX_IRQHandler
                0x0000000008021810                TIM5_IRQHandler
                0x0000000008021810                I2C3_EV_IRQHandler
                0x0000000008021810                EXTI9_5_IRQHandler
                0x0000000008021810                RTC_WKUP_IRQHandler
                0x0000000008021810                SPI2_IRQHandler
                0x0000000008021810                DMA1_Stream0_IRQHandler
                0x0000000008021810                CAN1_TX_IRQHandler
                0x0000000008021810                FMPI2C1_ER_IRQHandler
                0x0000000008021810                EXTI4_IRQHandler
                0x0000000008021810                RNG_IRQHandler
                0x0000000008021810                WWDG_IRQHandler
                0x0000000008021810                OTG_FS_WKUP_IRQHandler
                0x0000000008021810                TIM1_TRG_COM_TIM11_IRQHandler
                0x0000000008021810                EXTI1_IRQHandler
                0x0000000008021810                USART2_IRQHandler
                0x0000000008021810                DFSDM1_FLT0_IRQHandler
                0x0000000008021810                I2C2_ER_IRQHandler
                0x0000000008021810                CAN1_SCE_IRQHandler
                0x0000000008021810                FLASH_IRQHandler
                0x0000000008021810                DMA2_Stream4_IRQHandler
                0x0000000008021810                OTG_FS_IRQHandler
                0x0000000008021810                SPI3_IRQHandler
                0x0000000008021810                DMA1_Stream4_IRQHandler
                0x0000000008021810                I2C1_ER_IRQHandler
 .text.__retarget_lock_acquire_recursive
                0x0000000008021812       0x44 ./Core/ThreadSafe/newlib_lock_glue.o
                0x0000000008021812                __retarget_lock_acquire_recursive
 .text.__retarget_lock_release_recursive
                0x0000000008021856       0x34 ./Core/ThreadSafe/newlib_lock_glue.o
                0x0000000008021856                __retarget_lock_release_recursive
 *fill*         0x000000000802188a        0x2 
 .text.HAL_Init
                0x000000000802188c       0x34 ./Drivers/STM32F4xx_HAL_Driver/Src/stm32f4xx_hal.o
                0x000000000802188c                HAL_Init
 .text.HAL_IncTick
                0x00000000080218c0       0x18 ./Drivers/STM32F4xx_HAL_Driver/Src/stm32f4xx_hal.o
                0x00000000080218c0                HAL_IncTick
 .text.HAL_GetTick
                0x00000000080218d8        0xc ./Drivers/STM32F4xx_HAL_Driver/Src/stm32f4xx_hal.o
                0x00000000080218d8                HAL_GetTick
 .text.HAL_NVIC_SetPriorityGrouping
                0x00000000080218e4       0x3c ./Drivers/STM32F4xx_HAL_Driver/Src/stm32f4xx_hal_cortex.o
                0x00000000080218e4                HAL_NVIC_SetPriorityGrouping
 .text.HAL_NVIC_SetPriority
                0x0000000008021920       0x8c ./Drivers/STM32F4xx_HAL_Driver/Src/stm32f4xx_hal_cortex.o
                0x0000000008021920                HAL_NVIC_SetPriority
 .text.HAL_NVIC_EnableIRQ
                0x00000000080219ac       0x30 ./Drivers/STM32F4xx_HAL_Driver/Src/stm32f4xx_hal_cortex.o
                0x00000000080219ac                HAL_NVIC_EnableIRQ
 .text.DMA_SetConfig
                0x00000000080219dc       0x2c ./Drivers/STM32F4xx_HAL_Driver/Src/stm32f4xx_hal_dma.o
 .text.DMA_CalcBaseAndBitshift
                0x0000000008021a08       0x44 ./Drivers/STM32F4xx_HAL_Driver/Src/stm32f4xx_hal_dma.o
 .text.DMA_CheckFifoParam
                0x0000000008021a4c       0x8e ./Drivers/STM32F4xx_HAL_Driver/Src/stm32f4xx_hal_dma.o
 *fill*         0x0000000008021ada        0x2 
 .text.HAL_DMA_Init
                0x0000000008021adc      0x290 ./Drivers/STM32F4xx_HAL_Driver/Src/stm32f4xx_hal_dma.o
                0x0000000008021adc                HAL_DMA_Init
 .text.HAL_DMA_Start_IT
                0x0000000008021d6c       0x98 ./Drivers/STM32F4xx_HAL_Driver/Src/stm32f4xx_hal_dma.o
                0x0000000008021d6c                HAL_DMA_Start_IT
 .text.HAL_DMA_Abort
                0x0000000008021e04       0x94 ./Drivers/STM32F4xx_HAL_Driver/Src/stm32f4xx_hal_dma.o
                0x0000000008021e04                HAL_DMA_Abort
 .text.HAL_DMA_Abort_IT
                0x0000000008021e98       0x26 ./Drivers/STM32F4xx_HAL_Driver/Src/stm32f4xx_hal_dma.o
                0x0000000008021e98                HAL_DMA_Abort_IT
 *fill*         0x0000000008021ebe        0x2 
 .text.HAL_DMA_IRQHandler
                0x0000000008021ec0      0x1dc ./Drivers/STM32F4xx_HAL_Driver/Src/stm32f4xx_hal_dma.o
                0x0000000008021ec0                HAL_DMA_IRQHandler
 .text.FLASH_SetErrorCode
                0x000000000802209c       0xa8 ./Drivers/STM32F4xx_HAL_Driver/Src/stm32f4xx_hal_flash.o
 .text.FLASH_Program_Byte
                0x0000000008022144       0x4c ./Drivers/STM32F4xx_HAL_Driver/Src/stm32f4xx_hal_flash.o
 .text.FLASH_Program_HalfWord
                0x0000000008022190       0x50 ./Drivers/STM32F4xx_HAL_Driver/Src/stm32f4xx_hal_flash.o
 .text.FLASH_Program_Word
                0x00000000080221e0       0x50 ./Drivers/STM32F4xx_HAL_Driver/Src/stm32f4xx_hal_flash.o
 .text.FLASH_Program_DoubleWord
                0x0000000008022230       0x58 ./Drivers/STM32F4xx_HAL_Driver/Src/stm32f4xx_hal_flash.o
 .text.HAL_FLASH_Unlock
                0x0000000008022288       0x30 ./Drivers/STM32F4xx_HAL_Driver/Src/stm32f4xx_hal_flash.o
                0x0000000008022288                HAL_FLASH_Unlock
 .text.FLASH_WaitForLastOperation
                0x00000000080222b8       0x60 ./Drivers/STM32F4xx_HAL_Driver/Src/stm32f4xx_hal_flash.o
                0x00000000080222b8                FLASH_WaitForLastOperation
 .text.HAL_FLASH_Program
                0x0000000008022318       0x8c ./Drivers/STM32F4xx_HAL_Driver/Src/stm32f4xx_hal_flash.o
                0x0000000008022318                HAL_FLASH_Program
 .text.FLASH_MassErase
                0x00000000080223a4       0x50 ./Drivers/STM32F4xx_HAL_Driver/Src/stm32f4xx_hal_flash_ex.o
 .text.FLASH_Erase_Sector
                0x00000000080223f4       0x7c ./Drivers/STM32F4xx_HAL_Driver/Src/stm32f4xx_hal_flash_ex.o
                0x00000000080223f4                FLASH_Erase_Sector
 .text.FLASH_FlushCaches
                0x0000000008022470       0x60 ./Drivers/STM32F4xx_HAL_Driver/Src/stm32f4xx_hal_flash_ex.o
                0x0000000008022470                FLASH_FlushCaches
 .text.HAL_FLASHEx_Erase
                0x00000000080224d0       0xc0 ./Drivers/STM32F4xx_HAL_Driver/Src/stm32f4xx_hal_flash_ex.o
                0x00000000080224d0                HAL_FLASHEx_Erase
 .text.HAL_GPIO_Init
                0x0000000008022590      0x26c ./Drivers/STM32F4xx_HAL_Driver/Src/stm32f4xx_hal_gpio.o
                0x0000000008022590                HAL_GPIO_Init
 .text.HAL_GPIO_ReadPin
                0x00000000080227fc       0x28 ./Drivers/STM32F4xx_HAL_Driver/Src/stm32f4xx_hal_gpio.o
                0x00000000080227fc                HAL_GPIO_ReadPin
 .text.HAL_GPIO_WritePin
                0x0000000008022824       0x38 ./Drivers/STM32F4xx_HAL_Driver/Src/stm32f4xx_hal_gpio.o
                0x0000000008022824                HAL_GPIO_WritePin
 .text.HAL_GPIO_TogglePin
                0x000000000802285c       0x2c ./Drivers/STM32F4xx_HAL_Driver/Src/stm32f4xx_hal_gpio.o
                0x000000000802285c                HAL_GPIO_TogglePin
 .text.HAL_IWDG_Init
                0x0000000008022888       0x94 ./Drivers/STM32F4xx_HAL_Driver/Src/stm32f4xx_hal_iwdg.o
                0x0000000008022888                HAL_IWDG_Init
 .text.HAL_IWDG_Refresh
                0x000000000802291c        0xc ./Drivers/STM32F4xx_HAL_Driver/Src/stm32f4xx_hal_iwdg.o
                0x000000000802291c                HAL_IWDG_Refresh
 .text.HAL_RCC_GetSysClockFreq
                0x0000000008022928       0xcc ./Drivers/STM32F4xx_HAL_Driver/Src/stm32f4xx_hal_rcc.o
                0x0000000008022928                HAL_RCC_GetSysClockFreq
 .text.HAL_RCC_ClockConfig
                0x00000000080229f4      0x21c ./Drivers/STM32F4xx_HAL_Driver/Src/stm32f4xx_hal_rcc.o
                0x00000000080229f4                HAL_RCC_ClockConfig
 .text.HAL_RCC_GetHCLKFreq
                0x0000000008022c10        0xc ./Drivers/STM32F4xx_HAL_Driver/Src/stm32f4xx_hal_rcc.o
                0x0000000008022c10                HAL_RCC_GetHCLKFreq
 .text.HAL_RCC_GetPCLK1Freq
                0x0000000008022c1c       0x20 ./Drivers/STM32F4xx_HAL_Driver/Src/stm32f4xx_hal_rcc.o
                0x0000000008022c1c                HAL_RCC_GetPCLK1Freq
 .text.HAL_RCC_GetPCLK2Freq
                0x0000000008022c3c       0x20 ./Drivers/STM32F4xx_HAL_Driver/Src/stm32f4xx_hal_rcc.o
                0x0000000008022c3c                HAL_RCC_GetPCLK2Freq
 .text.HAL_RCC_GetClockConfig
                0x0000000008022c5c       0x3c ./Drivers/STM32F4xx_HAL_Driver/Src/stm32f4xx_hal_rcc.o
                0x0000000008022c5c                HAL_RCC_GetClockConfig
 .text.HAL_RCCEx_PeriphCLKConfig
                0x0000000008022c98      0x540 ./Drivers/STM32F4xx_HAL_Driver/Src/stm32f4xx_hal_rcc_ex.o
                0x0000000008022c98                HAL_RCCEx_PeriphCLKConfig
 .text.HAL_RCC_OscConfig
                0x00000000080231d8      0x534 ./Drivers/STM32F4xx_HAL_Driver/Src/stm32f4xx_hal_rcc_ex.o
                0x00000000080231d8                HAL_RCC_OscConfig
 .text.HAL_RTC_WaitForSynchro
                0x000000000802370c       0x32 ./Drivers/STM32F4xx_HAL_Driver/Src/stm32f4xx_hal_rtc.o
                0x000000000802370c                HAL_RTC_WaitForSynchro
 .text.RTC_EnterInitMode
                0x000000000802373e       0x46 ./Drivers/STM32F4xx_HAL_Driver/Src/stm32f4xx_hal_rtc.o
                0x000000000802373e                RTC_EnterInitMode
 .text.RTC_ExitInitMode
                0x0000000008023784       0x2a ./Drivers/STM32F4xx_HAL_Driver/Src/stm32f4xx_hal_rtc.o
                0x0000000008023784                RTC_ExitInitMode
 *fill*         0x00000000080237ae        0x2 
 .text.HAL_RTC_Init
                0x00000000080237b0      0x138 ./Drivers/STM32F4xx_HAL_Driver/Src/stm32f4xx_hal_rtc.o
                0x00000000080237b0                HAL_RTC_Init
 .text.RTC_ByteToBcd2
                0x00000000080238e8       0x18 ./Drivers/STM32F4xx_HAL_Driver/Src/stm32f4xx_hal_rtc.o
                0x00000000080238e8                RTC_ByteToBcd2
 .text.RTC_Bcd2ToByte
                0x0000000008023900       0x12 ./Drivers/STM32F4xx_HAL_Driver/Src/stm32f4xx_hal_rtc.o
                0x0000000008023900                RTC_Bcd2ToByte
 *fill*         0x0000000008023912        0x2 
 .text.HAL_RTC_SetTime
                0x0000000008023914      0x1d4 ./Drivers/STM32F4xx_HAL_Driver/Src/stm32f4xx_hal_rtc.o
                0x0000000008023914                HAL_RTC_SetTime
 .text.HAL_RTC_GetTime
                0x0000000008023ae8       0x64 ./Drivers/STM32F4xx_HAL_Driver/Src/stm32f4xx_hal_rtc.o
                0x0000000008023ae8                HAL_RTC_GetTime
 .text.HAL_RTC_SetDate
                0x0000000008023b4c      0x150 ./Drivers/STM32F4xx_HAL_Driver/Src/stm32f4xx_hal_rtc.o
                0x0000000008023b4c                HAL_RTC_SetDate
 .text.HAL_RTC_GetDate
                0x0000000008023c9c       0x54 ./Drivers/STM32F4xx_HAL_Driver/Src/stm32f4xx_hal_rtc.o
                0x0000000008023c9c                HAL_RTC_GetDate
 .text.HAL_TIM_Base_Start_IT
                0x0000000008023cf0      0x108 ./Drivers/STM32F4xx_HAL_Driver/Src/stm32f4xx_hal_tim.o
                0x0000000008023cf0                HAL_TIM_Base_Start_IT
 .text.HAL_TIM_OC_DelayElapsedCallback
                0x0000000008023df8        0x2 ./Drivers/STM32F4xx_HAL_Driver/Src/stm32f4xx_hal_tim.o
                0x0000000008023df8                HAL_TIM_OC_DelayElapsedCallback
 .text.HAL_TIM_IC_CaptureCallback
                0x0000000008023dfa        0x2 ./Drivers/STM32F4xx_HAL_Driver/Src/stm32f4xx_hal_tim.o
                0x0000000008023dfa                HAL_TIM_IC_CaptureCallback
 .text.HAL_TIM_PWM_PulseFinishedCallback
                0x0000000008023dfc        0x2 ./Drivers/STM32F4xx_HAL_Driver/Src/stm32f4xx_hal_tim.o
                0x0000000008023dfc                HAL_TIM_PWM_PulseFinishedCallback
 .text.HAL_TIM_TriggerCallback
                0x0000000008023dfe        0x2 ./Drivers/STM32F4xx_HAL_Driver/Src/stm32f4xx_hal_tim.o
                0x0000000008023dfe                HAL_TIM_TriggerCallback
 .text.HAL_TIM_IRQHandler
                0x0000000008023e00      0x17a ./Drivers/STM32F4xx_HAL_Driver/Src/stm32f4xx_hal_tim.o
                0x0000000008023e00                HAL_TIM_IRQHandler
 *fill*         0x0000000008023f7a        0x2 
 .text.TIM_Base_SetConfig
                0x0000000008023f7c       0xc8 ./Drivers/STM32F4xx_HAL_Driver/Src/stm32f4xx_hal_tim.o
                0x0000000008023f7c                TIM_Base_SetConfig
 .text.HAL_TIM_Base_Init
                0x0000000008024044      0x130 ./Drivers/STM32F4xx_HAL_Driver/Src/stm32f4xx_hal_tim.o
                0x0000000008024044                HAL_TIM_Base_Init
 .text.HAL_TIMEx_MasterConfigSynchronization
                0x0000000008024174      0x110 ./Drivers/STM32F4xx_HAL_Driver/Src/stm32f4xx_hal_tim_ex.o
                0x0000000008024174                HAL_TIMEx_MasterConfigSynchronization
 .text.HAL_TIMEx_CommutCallback
                0x0000000008024284        0x2 ./Drivers/STM32F4xx_HAL_Driver/Src/stm32f4xx_hal_tim_ex.o
                0x0000000008024284                HAL_TIMEx_CommutCallback
 .text.HAL_TIMEx_BreakCallback
                0x0000000008024286        0x2 ./Drivers/STM32F4xx_HAL_Driver/Src/stm32f4xx_hal_tim_ex.o
                0x0000000008024286                HAL_TIMEx_BreakCallback
 .text.UART_EndTxTransfer
                0x0000000008024288       0x20 ./Drivers/STM32F4xx_HAL_Driver/Src/stm32f4xx_hal_uart.o
 .text.UART_EndRxTransfer
                0x00000000080242a8       0x5c ./Drivers/STM32F4xx_HAL_Driver/Src/stm32f4xx_hal_uart.o
 .text.UART_Transmit_IT
                0x0000000008024304       0x60 ./Drivers/STM32F4xx_HAL_Driver/Src/stm32f4xx_hal_uart.o
 .text.UART_SetConfig
                0x0000000008024364      0x180 ./Drivers/STM32F4xx_HAL_Driver/Src/stm32f4xx_hal_uart.o
 .text.UART_WaitOnFlagUntilTimeout
                0x00000000080244e4       0x84 ./Drivers/STM32F4xx_HAL_Driver/Src/stm32f4xx_hal_uart.o
 .text.HAL_UART_Init
                0x0000000008024568      0x108 ./Drivers/STM32F4xx_HAL_Driver/Src/stm32f4xx_hal_uart.o
                0x0000000008024568                HAL_UART_Init
 .text.HAL_UART_Transmit
                0x0000000008024670       0xd8 ./Drivers/STM32F4xx_HAL_Driver/Src/stm32f4xx_hal_uart.o
                0x0000000008024670                HAL_UART_Transmit
 .text.HAL_UART_DMAStop
                0x0000000008024748       0x84 ./Drivers/STM32F4xx_HAL_Driver/Src/stm32f4xx_hal_uart.o
                0x0000000008024748                HAL_UART_DMAStop
 .text.UART_EndTransmit_IT
                0x00000000080247cc       0x1a ./Drivers/STM32F4xx_HAL_Driver/Src/stm32f4xx_hal_uart.o
 .text.HAL_UART_RxCpltCallback
                0x00000000080247e6        0x2 ./Drivers/STM32F4xx_HAL_Driver/Src/stm32f4xx_hal_uart.o
                0x00000000080247e6                HAL_UART_RxCpltCallback
 .text.HAL_UART_RxHalfCpltCallback
                0x00000000080247e8        0x2 ./Drivers/STM32F4xx_HAL_Driver/Src/stm32f4xx_hal_uart.o
                0x00000000080247e8                HAL_UART_RxHalfCpltCallback
 .text.HAL_UART_ErrorCallback
                0x00000000080247ea        0x2 ./Drivers/STM32F4xx_HAL_Driver/Src/stm32f4xx_hal_uart.o
                0x00000000080247ea                HAL_UART_ErrorCallback
 .text.UART_DMAError
                0x00000000080247ec       0x58 ./Drivers/STM32F4xx_HAL_Driver/Src/stm32f4xx_hal_uart.o
 .text.UART_DMAAbortOnError
                0x0000000008024844       0x10 ./Drivers/STM32F4xx_HAL_Driver/Src/stm32f4xx_hal_uart.o
 .text.HAL_UARTEx_RxEventCallback
                0x0000000008024854        0x2 ./Drivers/STM32F4xx_HAL_Driver/Src/stm32f4xx_hal_uart.o
                0x0000000008024854                HAL_UARTEx_RxEventCallback
 .text.UART_Receive_IT
                0x0000000008024856       0xe2 ./Drivers/STM32F4xx_HAL_Driver/Src/stm32f4xx_hal_uart.o
 .text.HAL_UART_IRQHandler
                0x0000000008024938      0x280 ./Drivers/STM32F4xx_HAL_Driver/Src/stm32f4xx_hal_uart.o
                0x0000000008024938                HAL_UART_IRQHandler
 .text.UART_DMARxHalfCplt
                0x0000000008024bb8       0x1a ./Drivers/STM32F4xx_HAL_Driver/Src/stm32f4xx_hal_uart.o
 .text.UART_DMAReceiveCplt
                0x0000000008024bd2       0x96 ./Drivers/STM32F4xx_HAL_Driver/Src/stm32f4xx_hal_uart.o
 .text.UART_Start_Receive_DMA
                0x0000000008024c68       0xa8 ./Drivers/STM32F4xx_HAL_Driver/Src/stm32f4xx_hal_uart.o
                0x0000000008024c68                UART_Start_Receive_DMA
 .text.HAL_UART_Receive_DMA
                0x0000000008024d10       0x38 ./Drivers/STM32F4xx_HAL_Driver/Src/stm32f4xx_hal_uart.o
                0x0000000008024d10                HAL_UART_Receive_DMA
 .text.SysTick_Handler
                0x0000000008024d48       0x1c ./Middlewares/Third_Party/FreeRTOS/Source/CMSIS_RTOS_V2/cmsis_os2.o
                0x0000000008024d48                SysTick_Handler
 .text.osKernelInitialize
                0x0000000008024d64       0x24 ./Middlewares/Third_Party/FreeRTOS/Source/CMSIS_RTOS_V2/cmsis_os2.o
                0x0000000008024d64                osKernelInitialize
 .text.osKernelStart
                0x0000000008024d88       0x38 ./Middlewares/Third_Party/FreeRTOS/Source/CMSIS_RTOS_V2/cmsis_os2.o
                0x0000000008024d88                osKernelStart
 .text.osThreadNew
                0x0000000008024dc0       0xbc ./Middlewares/Third_Party/FreeRTOS/Source/CMSIS_RTOS_V2/cmsis_os2.o
                0x0000000008024dc0                osThreadNew
 .text.osThreadSuspend
                0x0000000008024e7c       0x1e ./Middlewares/Third_Party/FreeRTOS/Source/CMSIS_RTOS_V2/cmsis_os2.o
                0x0000000008024e7c                osThreadSuspend
 .text.osThreadResume
                0x0000000008024e9a       0x1e ./Middlewares/Third_Party/FreeRTOS/Source/CMSIS_RTOS_V2/cmsis_os2.o
                0x0000000008024e9a                osThreadResume
 .text.osThreadTerminate
                0x0000000008024eb8       0x30 ./Middlewares/Third_Party/FreeRTOS/Source/CMSIS_RTOS_V2/cmsis_os2.o
                0x0000000008024eb8                osThreadTerminate
 .text.osDelay  0x0000000008024ee8       0x1c ./Middlewares/Third_Party/FreeRTOS/Source/CMSIS_RTOS_V2/cmsis_os2.o
                0x0000000008024ee8                osDelay
 .text.osEventFlagsNew
                0x0000000008024f04       0x44 ./Middlewares/Third_Party/FreeRTOS/Source/CMSIS_RTOS_V2/cmsis_os2.o
                0x0000000008024f04                osEventFlagsNew
 .text.osMutexNew
                0x0000000008024f48       0x94 ./Middlewares/Third_Party/FreeRTOS/Source/CMSIS_RTOS_V2/cmsis_os2.o
                0x0000000008024f48                osMutexNew
 .text.osMutexAcquire
                0x0000000008024fdc       0x58 ./Middlewares/Third_Party/FreeRTOS/Source/CMSIS_RTOS_V2/cmsis_os2.o
                0x0000000008024fdc                osMutexAcquire
 .text.osMutexRelease
                0x0000000008025034       0x4c ./Middlewares/Third_Party/FreeRTOS/Source/CMSIS_RTOS_V2/cmsis_os2.o
                0x0000000008025034                osMutexRelease
 .text.osSemaphoreNew
                0x0000000008025080       0xb4 ./Middlewares/Third_Party/FreeRTOS/Source/CMSIS_RTOS_V2/cmsis_os2.o
                0x0000000008025080                osSemaphoreNew
 .text.osSemaphoreAcquire
                0x0000000008025134       0x68 ./Middlewares/Third_Party/FreeRTOS/Source/CMSIS_RTOS_V2/cmsis_os2.o
                0x0000000008025134                osSemaphoreAcquire
 .text.osMessageQueueNew
                0x000000000802519c       0x96 ./Middlewares/Third_Party/FreeRTOS/Source/CMSIS_RTOS_V2/cmsis_os2.o
                0x000000000802519c                osMessageQueueNew
 *fill*         0x0000000008025232        0x2 
 .text.osMessageQueuePut
                0x0000000008025234       0x84 ./Middlewares/Third_Party/FreeRTOS/Source/CMSIS_RTOS_V2/cmsis_os2.o
                0x0000000008025234                osMessageQueuePut
 .text.osMessageQueueGet
                0x00000000080252b8       0x84 ./Middlewares/Third_Party/FreeRTOS/Source/CMSIS_RTOS_V2/cmsis_os2.o
                0x00000000080252b8                osMessageQueueGet
 .text.osMessageQueueGetCount
                0x000000000802533c       0x1a ./Middlewares/Third_Party/FreeRTOS/Source/CMSIS_RTOS_V2/cmsis_os2.o
                0x000000000802533c                osMessageQueueGetCount
 *fill*         0x0000000008025356        0x2 
 .text.vApplicationGetIdleTaskMemory
                0x0000000008025358       0x18 ./Middlewares/Third_Party/FreeRTOS/Source/CMSIS_RTOS_V2/cmsis_os2.o
                0x0000000008025358                vApplicationGetIdleTaskMemory
 .text.vApplicationGetTimerTaskMemory
                0x0000000008025370       0x18 ./Middlewares/Third_Party/FreeRTOS/Source/CMSIS_RTOS_V2/cmsis_os2.o
                0x0000000008025370                vApplicationGetTimerTaskMemory
 .text.xEventGroupCreateStatic
                0x0000000008025388       0x4a ./Middlewares/Third_Party/FreeRTOS/Source/event_groups.o
                0x0000000008025388                xEventGroupCreateStatic
 .text.xEventGroupCreate
                0x00000000080253d2       0x1c ./Middlewares/Third_Party/FreeRTOS/Source/event_groups.o
                0x00000000080253d2                xEventGroupCreate
 .text.vListInitialise
                0x00000000080253ee       0x16 ./Middlewares/Third_Party/FreeRTOS/Source/list.o
                0x00000000080253ee                vListInitialise
 .text.vListInitialiseItem
                0x0000000008025404        0x6 ./Middlewares/Third_Party/FreeRTOS/Source/list.o
                0x0000000008025404                vListInitialiseItem
 .text.vListInsertEnd
                0x000000000802540a       0x16 ./Middlewares/Third_Party/FreeRTOS/Source/list.o
                0x000000000802540a                vListInsertEnd
 .text.vListInsert
                0x0000000008025420       0x32 ./Middlewares/Third_Party/FreeRTOS/Source/list.o
                0x0000000008025420                vListInsert
 .text.uxListRemove
                0x0000000008025452       0x26 ./Middlewares/Third_Party/FreeRTOS/Source/list.o
                0x0000000008025452                uxListRemove
 .text.prvGetDisinheritPriorityAfterTimeout
                0x0000000008025478       0x10 ./Middlewares/Third_Party/FreeRTOS/Source/queue.o
 .text.prvIsQueueFull
                0x0000000008025488       0x1e ./Middlewares/Third_Party/FreeRTOS/Source/queue.o
 .text.prvIsQueueEmpty
                0x00000000080254a6       0x1a ./Middlewares/Third_Party/FreeRTOS/Source/queue.o
 .text.prvCopyDataToQueue
                0x00000000080254c0       0x76 ./Middlewares/Third_Party/FreeRTOS/Source/queue.o
 .text.prvCopyDataFromQueue
                0x0000000008025536       0x24 ./Middlewares/Third_Party/FreeRTOS/Source/queue.o
 .text.prvUnlockQueue
                0x000000000802555a       0x6e ./Middlewares/Third_Party/FreeRTOS/Source/queue.o
 .text.xQueueGenericReset
                0x00000000080255c8       0x84 ./Middlewares/Third_Party/FreeRTOS/Source/queue.o
                0x00000000080255c8                xQueueGenericReset
 .text.prvInitialiseNewQueue
                0x000000000802564c       0x22 ./Middlewares/Third_Party/FreeRTOS/Source/queue.o
 .text.xQueueGenericCreateStatic
                0x000000000802566e       0x94 ./Middlewares/Third_Party/FreeRTOS/Source/queue.o
                0x000000000802566e                xQueueGenericCreateStatic
 .text.xQueueGenericCreate
                0x0000000008025702       0x48 ./Middlewares/Third_Party/FreeRTOS/Source/queue.o
                0x0000000008025702                xQueueGenericCreate
 .text.xQueueCreateCountingSemaphoreStatic
                0x000000000802574a       0x4a ./Middlewares/Third_Party/FreeRTOS/Source/queue.o
                0x000000000802574a                xQueueCreateCountingSemaphoreStatic
 .text.xQueueCreateCountingSemaphore
                0x0000000008025794       0x40 ./Middlewares/Third_Party/FreeRTOS/Source/queue.o
                0x0000000008025794                xQueueCreateCountingSemaphore
 .text.xQueueGenericSend
                0x00000000080257d4      0x180 ./Middlewares/Third_Party/FreeRTOS/Source/queue.o
                0x00000000080257d4                xQueueGenericSend
 .text.prvInitialiseMutex
                0x0000000008025954       0x18 ./Middlewares/Third_Party/FreeRTOS/Source/queue.o
 .text.xQueueCreateMutex
                0x000000000802596c       0x16 ./Middlewares/Third_Party/FreeRTOS/Source/queue.o
                0x000000000802596c                xQueueCreateMutex
 .text.xQueueCreateMutexStatic
                0x0000000008025982       0x1e ./Middlewares/Third_Party/FreeRTOS/Source/queue.o
                0x0000000008025982                xQueueCreateMutexStatic
 .text.xQueueGiveMutexRecursive
                0x00000000080259a0       0x40 ./Middlewares/Third_Party/FreeRTOS/Source/queue.o
                0x00000000080259a0                xQueueGiveMutexRecursive
 .text.xQueueGenericSendFromISR
                0x00000000080259e0       0xd0 ./Middlewares/Third_Party/FreeRTOS/Source/queue.o
                0x00000000080259e0                xQueueGenericSendFromISR
 .text.xQueueReceive
                0x0000000008025ab0      0x15c ./Middlewares/Third_Party/FreeRTOS/Source/queue.o
                0x0000000008025ab0                xQueueReceive
 .text.xQueueSemaphoreTake
                0x0000000008025c0c      0x1a4 ./Middlewares/Third_Party/FreeRTOS/Source/queue.o
                0x0000000008025c0c                xQueueSemaphoreTake
 .text.xQueueTakeMutexRecursive
                0x0000000008025db0       0x44 ./Middlewares/Third_Party/FreeRTOS/Source/queue.o
                0x0000000008025db0                xQueueTakeMutexRecursive
 .text.xQueueReceiveFromISR
                0x0000000008025df4       0xac ./Middlewares/Third_Party/FreeRTOS/Source/queue.o
                0x0000000008025df4                xQueueReceiveFromISR
 .text.uxQueueMessagesWaiting
                0x0000000008025ea0       0x26 ./Middlewares/Third_Party/FreeRTOS/Source/queue.o
                0x0000000008025ea0                uxQueueMessagesWaiting
 .text.uxQueueMessagesWaitingFromISR
                0x0000000008025ec6       0x18 ./Middlewares/Third_Party/FreeRTOS/Source/queue.o
                0x0000000008025ec6                uxQueueMessagesWaitingFromISR
 *fill*         0x0000000008025ede        0x2 
 .text.vQueueAddToRegistry
                0x0000000008025ee0       0x28 ./Middlewares/Third_Party/FreeRTOS/Source/queue.o
                0x0000000008025ee0                vQueueAddToRegistry
 .text.vQueueUnregisterQueue
                0x0000000008025f08       0x2c ./Middlewares/Third_Party/FreeRTOS/Source/queue.o
                0x0000000008025f08                vQueueUnregisterQueue
 .text.vQueueDelete
                0x0000000008025f34       0x2c ./Middlewares/Third_Party/FreeRTOS/Source/queue.o
                0x0000000008025f34                vQueueDelete
 .text.vQueueWaitForMessageRestricted
                0x0000000008025f60       0x52 ./Middlewares/Third_Party/FreeRTOS/Source/queue.o
                0x0000000008025f60                vQueueWaitForMessageRestricted
 *fill*         0x0000000008025fb2        0x2 
 .text.prvTaskIsTaskSuspended
                0x0000000008025fb4       0x40 ./Middlewares/Third_Party/FreeRTOS/Source/tasks.o
 .text.prvResetNextTaskUnblockTime
                0x0000000008025ff4       0x2c ./Middlewares/Third_Party/FreeRTOS/Source/tasks.o
 .text.prvInitialiseNewTask
                0x0000000008026020       0xc4 ./Middlewares/Third_Party/FreeRTOS/Source/tasks.o
 .text.prvInitialiseTaskLists
                0x00000000080260e4       0x68 ./Middlewares/Third_Party/FreeRTOS/Source/tasks.o
 .text.prvAddNewTaskToReadyList
                0x000000000802614c       0xac ./Middlewares/Third_Party/FreeRTOS/Source/tasks.o
 .text.prvDeleteTCB
                0x00000000080261f8       0x40 ./Middlewares/Third_Party/FreeRTOS/Source/tasks.o
 .text.prvCheckTasksWaitingTermination
                0x0000000008026238       0x4c ./Middlewares/Third_Party/FreeRTOS/Source/tasks.o
 .text.prvAddCurrentTaskToDelayedList
                0x0000000008026284       0x7c ./Middlewares/Third_Party/FreeRTOS/Source/tasks.o
 .text.prvIdleTask
                0x0000000008026300       0x30 ./Middlewares/Third_Party/FreeRTOS/Source/tasks.o
 .text.xTaskCreateStatic
                0x0000000008026330       0x74 ./Middlewares/Third_Party/FreeRTOS/Source/tasks.o
                0x0000000008026330                xTaskCreateStatic
 .text.xTaskCreate
                0x00000000080263a4       0x68 ./Middlewares/Third_Party/FreeRTOS/Source/tasks.o
                0x00000000080263a4                xTaskCreate
 .text.vTaskDelete
                0x000000000802640c       0xb8 ./Middlewares/Third_Party/FreeRTOS/Source/tasks.o
                0x000000000802640c                vTaskDelete
 .text.eTaskGetState
                0x00000000080264c4       0x90 ./Middlewares/Third_Party/FreeRTOS/Source/tasks.o
                0x00000000080264c4                eTaskGetState
 .text.vTaskResume
                0x0000000008026554       0x88 ./Middlewares/Third_Party/FreeRTOS/Source/tasks.o
                0x0000000008026554                vTaskResume
 .text.vTaskStartScheduler
                0x00000000080265dc       0xa8 ./Middlewares/Third_Party/FreeRTOS/Source/tasks.o
                0x00000000080265dc                vTaskStartScheduler
 .text.vTaskSuspendAll
                0x0000000008026684       0x10 ./Middlewares/Third_Party/FreeRTOS/Source/tasks.o
                0x0000000008026684                vTaskSuspendAll
 .text.xTaskGetTickCount
                0x0000000008026694        0xc ./Middlewares/Third_Party/FreeRTOS/Source/tasks.o
                0x0000000008026694                xTaskGetTickCount
 .text.xTaskIncrementTick
                0x00000000080266a0      0x12c ./Middlewares/Third_Party/FreeRTOS/Source/tasks.o
                0x00000000080266a0                xTaskIncrementTick
 .text.xTaskResumeAll
                0x00000000080267cc       0xf8 ./Middlewares/Third_Party/FreeRTOS/Source/tasks.o
                0x00000000080267cc                xTaskResumeAll
 .text.vTaskDelay
                0x00000000080268c4       0x4c ./Middlewares/Third_Party/FreeRTOS/Source/tasks.o
                0x00000000080268c4                vTaskDelay
 .text.vTaskSwitchContext
                0x0000000008026910       0xa4 ./Middlewares/Third_Party/FreeRTOS/Source/tasks.o
                0x0000000008026910                vTaskSwitchContext
 .text.vTaskSuspend
                0x00000000080269b4       0xc4 ./Middlewares/Third_Party/FreeRTOS/Source/tasks.o
                0x00000000080269b4                vTaskSuspend
 .text.vTaskPlaceOnEventList
                0x0000000008026a78       0x30 ./Middlewares/Third_Party/FreeRTOS/Source/tasks.o
                0x0000000008026a78                vTaskPlaceOnEventList
 .text.vTaskPlaceOnEventListRestricted
                0x0000000008026aa8       0x38 ./Middlewares/Third_Party/FreeRTOS/Source/tasks.o
                0x0000000008026aa8                vTaskPlaceOnEventListRestricted
 .text.xTaskRemoveFromEventList
                0x0000000008026ae0       0x8c ./Middlewares/Third_Party/FreeRTOS/Source/tasks.o
                0x0000000008026ae0                xTaskRemoveFromEventList
 .text.vTaskInternalSetTimeOutState
                0x0000000008026b6c       0x18 ./Middlewares/Third_Party/FreeRTOS/Source/tasks.o
                0x0000000008026b6c                vTaskInternalSetTimeOutState
 .text.xTaskCheckForTimeOut
                0x0000000008026b84       0x84 ./Middlewares/Third_Party/FreeRTOS/Source/tasks.o
                0x0000000008026b84                xTaskCheckForTimeOut
 .text.vTaskMissedYield
                0x0000000008026c08        0xc ./Middlewares/Third_Party/FreeRTOS/Source/tasks.o
                0x0000000008026c08                vTaskMissedYield
 .text.xTaskGetCurrentTaskHandle
                0x0000000008026c14        0xc ./Middlewares/Third_Party/FreeRTOS/Source/tasks.o
                0x0000000008026c14                xTaskGetCurrentTaskHandle
 .text.xTaskGetSchedulerState
                0x0000000008026c20       0x20 ./Middlewares/Third_Party/FreeRTOS/Source/tasks.o
                0x0000000008026c20                xTaskGetSchedulerState
 .text.xTaskPriorityInherit
                0x0000000008026c40       0x98 ./Middlewares/Third_Party/FreeRTOS/Source/tasks.o
                0x0000000008026c40                xTaskPriorityInherit
 .text.xTaskPriorityDisinherit
                0x0000000008026cd8       0x90 ./Middlewares/Third_Party/FreeRTOS/Source/tasks.o
                0x0000000008026cd8                xTaskPriorityDisinherit
 .text.vTaskPriorityDisinheritAfterTimeout
                0x0000000008026d68       0xa4 ./Middlewares/Third_Party/FreeRTOS/Source/tasks.o
                0x0000000008026d68                vTaskPriorityDisinheritAfterTimeout
 .text.pvTaskIncrementMutexHeldCount
                0x0000000008026e0c       0x1c ./Middlewares/Third_Party/FreeRTOS/Source/tasks.o
                0x0000000008026e0c                pvTaskIncrementMutexHeldCount
 .text.prvGetNextExpireTime
                0x0000000008026e28       0x20 ./Middlewares/Third_Party/FreeRTOS/Source/timers.o
 .text.prvInsertTimerInActiveList
                0x0000000008026e48       0x48 ./Middlewares/Third_Party/FreeRTOS/Source/timers.o
 .text.prvCheckForValidListAndQueue
                0x0000000008026e90       0x70 ./Middlewares/Third_Party/FreeRTOS/Source/timers.o
 .text.xTimerCreateTimerTask
                0x0000000008026f00       0x64 ./Middlewares/Third_Party/FreeRTOS/Source/timers.o
                0x0000000008026f00                xTimerCreateTimerTask
 .text.xTimerGenericCommand
                0x0000000008026f64       0x6c ./Middlewares/Third_Party/FreeRTOS/Source/timers.o
                0x0000000008026f64                xTimerGenericCommand
 .text.prvSwitchTimerLists
                0x0000000008026fd0       0x7c ./Middlewares/Third_Party/FreeRTOS/Source/timers.o
 .text.prvSampleTimeNow
                0x000000000802704c       0x2c ./Middlewares/Third_Party/FreeRTOS/Source/timers.o
 .text.prvProcessExpiredTimer
                0x0000000008027078       0x6c ./Middlewares/Third_Party/FreeRTOS/Source/timers.o
 .text.prvProcessTimerOrBlockTask
                0x00000000080270e4       0x74 ./Middlewares/Third_Party/FreeRTOS/Source/timers.o
 .text.prvProcessReceivedCommands
                0x0000000008027158      0x10c ./Middlewares/Third_Party/FreeRTOS/Source/timers.o
 .text.prvTimerTask
                0x0000000008027264       0x1a ./Middlewares/Third_Party/FreeRTOS/Source/timers.o
 *fill*         0x000000000802727e        0x2 
 .text.prvTaskExitError
                0x0000000008027280       0x40 ./Middlewares/Third_Party/FreeRTOS/Source/portable/GCC/ARM_CM4F/port.o
 .text.prvPortStartFirstTask
                0x00000000080272c0       0x28 ./Middlewares/Third_Party/FreeRTOS/Source/portable/GCC/ARM_CM4F/port.o
 .text.vPortEnableVFP
                0x00000000080272e8       0x14 ./Middlewares/Third_Party/FreeRTOS/Source/portable/GCC/ARM_CM4F/port.o
 .text.pxPortInitialiseStack
                0x00000000080272fc       0x2c ./Middlewares/Third_Party/FreeRTOS/Source/portable/GCC/ARM_CM4F/port.o
                0x00000000080272fc                pxPortInitialiseStack
 *fill*         0x0000000008027328        0x8 
 .text.SVC_Handler
                0x0000000008027330       0x24 ./Middlewares/Third_Party/FreeRTOS/Source/portable/GCC/ARM_CM4F/port.o
                0x0000000008027330                SVC_Handler
 .text.vPortEnterCritical
                0x0000000008027354       0x44 ./Middlewares/Third_Party/FreeRTOS/Source/portable/GCC/ARM_CM4F/port.o
                0x0000000008027354                vPortEnterCritical
 .text.vPortExitCritical
                0x0000000008027398       0x2c ./Middlewares/Third_Party/FreeRTOS/Source/portable/GCC/ARM_CM4F/port.o
                0x0000000008027398                vPortExitCritical
 *fill*         0x00000000080273c4        0xc 
 .text.PendSV_Handler
                0x00000000080273d0       0x64 ./Middlewares/Third_Party/FreeRTOS/Source/portable/GCC/ARM_CM4F/port.o
                0x00000000080273d0                PendSV_Handler
 .text.xPortSysTickHandler
                0x0000000008027434       0x2c ./Middlewares/Third_Party/FreeRTOS/Source/portable/GCC/ARM_CM4F/port.o
                0x0000000008027434                xPortSysTickHandler
 .text.vPortSetupTimerInterrupt
                0x0000000008027460       0x38 ./Middlewares/Third_Party/FreeRTOS/Source/portable/GCC/ARM_CM4F/port.o
                0x0000000008027460                vPortSetupTimerInterrupt
 .text.xPortStartScheduler
                0x0000000008027498      0x110 ./Middlewares/Third_Party/FreeRTOS/Source/portable/GCC/ARM_CM4F/port.o
                0x0000000008027498                xPortStartScheduler
 .text.vPortValidateInterruptPriority
                0x00000000080275a8       0x5c ./Middlewares/Third_Party/FreeRTOS/Source/portable/GCC/ARM_CM4F/port.o
                0x00000000080275a8                vPortValidateInterruptPriority
 .text.prvHeapInit
                0x0000000008027604       0x64 ./Middlewares/Third_Party/FreeRTOS/Source/portable/MemMang/heap_4.o
 .text.prvInsertBlockIntoFreeList
                0x0000000008027668       0x58 ./Middlewares/Third_Party/FreeRTOS/Source/portable/MemMang/heap_4.o
 .text.pvPortMalloc
                0x00000000080276c0      0x110 ./Middlewares/Third_Party/FreeRTOS/Source/portable/MemMang/heap_4.o
                0x00000000080276c0                pvPortMalloc
 .text.vPortFree
                0x00000000080277d0       0x7c ./Middlewares/Third_Party/FreeRTOS/Source/portable/MemMang/heap_4.o
                0x00000000080277d0                vPortFree
 .text.inf_input_check
                0x000000000802784c       0xbc ./user/detect.o
                0x000000000802784c                inf_input_check
 .text.dev_input_check
                0x0000000008027908       0xa4 ./user/detect.o
                0x0000000008027908                dev_input_check
 .text.run_input_check
                0x00000000080279ac       0x94 ./user/detect.o
                0x00000000080279ac                run_input_check
 .text.input_pic
                0x0000000008027a40       0x90 ./user/detect.o
                0x0000000008027a40                input_pic
 .text.KeyRingBuffIni
                0x0000000008027ad0        0xa ./user/detect.o
                0x0000000008027ad0                KeyRingBuffIni
 *fill*         0x0000000008027ada        0x2 
 .text.input_initial
                0x0000000008027adc       0x84 ./user/detect.o
                0x0000000008027adc                input_initial
 .text.KeyRead_RingBuff
                0x0000000008027b60       0x2e ./user/detect.o
                0x0000000008027b60                KeyRead_RingBuff
 .text.KeyWrite_RingBuff
                0x0000000008027b8e       0x30 ./user/detect.o
                0x0000000008027b8e                KeyWrite_RingBuff
 *fill*         0x0000000008027bbe        0x2 
 .text.input_tog
                0x0000000008027bc0       0xec ./user/detect.o
                0x0000000008027bc0                input_tog
 .text.KeyRingBuffRst
                0x0000000008027cac        0xe ./user/detect.o
                0x0000000008027cac                KeyRingBuffRst
 *fill*         0x0000000008027cba        0x2 
 .text.Key_event
                0x0000000008027cbc      0x10c ./user/detect.o
                0x0000000008027cbc                Key_event
 .text.rst_check
                0x0000000008027dc8       0xc4 ./user/detect.o
                0x0000000008027dc8                rst_check
 .text.double_deal
                0x0000000008027e8c       0x90 ./user/detect.o
                0x0000000008027e8c                double_deal
 .text.double_check
                0x0000000008027f1c       0xc8 ./user/detect.o
                0x0000000008027f1c                double_check
 .text.stop_check
                0x0000000008027fe4       0x6c ./user/detect.o
                0x0000000008027fe4                stop_check
 .text.Usart_DamIdle
                0x0000000008028050       0x70 ./user/dev_usart.o
                0x0000000008028050                Usart_DamIdle
 .text.USART1_RxIdleCallback
                0x00000000080280c0       0x80 ./user/dev_usart.o
                0x00000000080280c0                USART1_RxIdleCallback
 .text.USART3_RxIdleCallback
                0x0000000008028140       0x80 ./user/dev_usart.o
                0x0000000008028140                USART3_RxIdleCallback
 .text.USART6_RxIdleCallback
                0x00000000080281c0       0x80 ./user/dev_usart.o
                0x00000000080281c0                USART6_RxIdleCallback
 .text.HAL_UART_TxCpltCallback
                0x0000000008028240        0x2 ./user/dev_usart.o
                0x0000000008028240                HAL_UART_TxCpltCallback
 *fill*         0x0000000008028242        0x2 
 .text.usart1_rx_deal
                0x0000000008028244       0x18 ./user/dev_usart.o
                0x0000000008028244                usart1_rx_deal
 .text.usart3_rx_deal
                0x000000000802825c        0xc ./user/dev_usart.o
                0x000000000802825c                usart3_rx_deal
 .text.usart6_rx_deal
                0x0000000008028268       0x48 ./user/dev_usart.o
                0x0000000008028268                usart6_rx_deal
 .text.catch_stuck
                0x00000000080282b0       0x30 ./user/display.o
                0x00000000080282b0                catch_stuck
 .text.dis_fst_page
                0x00000000080282e0       0x70 ./user/display.o
                0x00000000080282e0                dis_fst_page
 .text.dis_tip_page
                0x0000000008028350       0xb4 ./user/display.o
                0x0000000008028350                dis_tip_page
 .text.dis_log  0x0000000008028404      0x15c ./user/display.o
                0x0000000008028404                dis_log
 .text.store_log
                0x0000000008028560      0x1b8 ./user/display.o
                0x0000000008028560                store_log
 .text.dis_pic  0x0000000008028718       0x60 ./user/display.o
                0x0000000008028718                dis_pic
 .text.dis_warn
                0x0000000008028778      0x158 ./user/display.o
                0x0000000008028778                dis_warn
 .text.dis_hard
                0x00000000080288d0       0xcc ./user/display.o
                0x00000000080288d0                dis_hard
 .text.dis_double
                0x000000000802899c      0x240 ./user/display.o
                0x000000000802899c                dis_double
 .text.save_op_tip
                0x0000000008028bdc       0x38 ./user/display.o
                0x0000000008028bdc                save_op_tip
 .text.dis_refresh_log
                0x0000000008028c14       0xf4 ./user/display.o
                0x0000000008028c14                dis_refresh_log
 .text.warn_out
                0x0000000008028d08       0x34 ./user/display.o
                0x0000000008028d08                warn_out
 .text.run_time
                0x0000000008028d3c      0x104 ./user/display.o
                0x0000000008028d3c                run_time
 .text.EE_VerifyPageFullyErased
                0x0000000008028e40       0x24 ./user/eeprom.o
 .text.EE_FindValidPage
                0x0000000008028e64       0x50 ./user/eeprom.o
 .text.EE_VerifyPageFullWriteVariable
                0x0000000008028eb4       0x5c ./user/eeprom.o
 .text.EE_Format
                0x0000000008028f10       0x60 ./user/eeprom.o
 .text.EE_ReadVariable
                0x0000000008028f70       0x44 ./user/eeprom.o
                0x0000000008028f70                EE_ReadVariable
 .text.EE_Init  0x0000000008028fb4      0x278 ./user/eeprom.o
                0x0000000008028fb4                EE_Init
 .text.EE_PageTransfer
                0x000000000802922c       0xcc ./user/eeprom.o
 .text.EE_WriteVariable
                0x00000000080292f8       0x1a ./user/eeprom.o
                0x00000000080292f8                EE_WriteVariable
 *fill*         0x0000000008029312        0x2 
 .text.screen_ini
                0x0000000008029314       0x10 ./user/io_ctrl.o
                0x0000000008029314                screen_ini
 .text.screen_write
                0x0000000008029324       0xdc ./user/io_ctrl.o
                0x0000000008029324                screen_write
 .text.scr_page
                0x0000000008029400       0x20 ./user/io_ctrl.o
                0x0000000008029400                scr_page
 .text.screen_read
                0x0000000008029420       0xa4 ./user/io_ctrl.o
                0x0000000008029420                screen_read
 .text.operate_para
                0x00000000080294c4      0x380 ./user/io_ctrl.o
                0x00000000080294c4                operate_para
 .text.operate_ini
                0x0000000008029844      0x2ac ./user/io_ctrl.o
                0x0000000008029844                operate_ini
 .text.clear_op_flag
                0x0000000008029af0       0x60 ./user/io_ctrl.o
                0x0000000008029af0                clear_op_flag
 .text.scr_op   0x0000000008029b50      0x320 ./user/io_ctrl.o
                0x0000000008029b50                scr_op
 .text.screen_touch
                0x0000000008029e70      0x854 ./user/io_ctrl.o
                0x0000000008029e70                screen_touch
 .text.screen_deal
                0x000000000802a6c4       0x94 ./user/io_ctrl.o
                0x000000000802a6c4                screen_deal
 .text.screen_adv
                0x000000000802a758       0x7a ./user/io_ctrl.o
                0x000000000802a758                screen_adv
 *fill*         0x000000000802a7d2        0x2 
 .text.io1pin_out
                0x000000000802a7d4       0x1c ./user/io_ctrl.o
                0x000000000802a7d4                io1pin_out
 .text.io2pin_out
                0x000000000802a7f0      0x200 ./user/io_ctrl.o
                0x000000000802a7f0                io2pin_out
 .text.keyqueue_deal
                0x000000000802a9f0      0x624 ./user/io_ctrl.o
                0x000000000802a9f0                keyqueue_deal
 .text.rst_deal
                0x000000000802b014      0x440 ./user/io_ctrl.o
                0x000000000802b014                rst_deal
 .text.sequence_assist
                0x000000000802b454      0x154 ./user/io_ctrl.o
                0x000000000802b454                sequence_assist
 .text.sequence_deal
                0x000000000802b5a8      0x634 ./user/io_ctrl.o
                0x000000000802b5a8                sequence_deal
 .text.check_op_flag
                0x000000000802bbdc       0x68 ./user/io_ctrl.o
                0x000000000802bbdc                check_op_flag
 .text.operate_ctrl
                0x000000000802bc44      0x51c ./user/io_ctrl.o
                0x000000000802bc44                operate_ctrl
 .text.relief_check
                0x000000000802c160       0x78 ./user/io_ctrl.o
                0x000000000802c160                relief_check
 .text.mytim_ticupdate
                0x000000000802c1d8       0x40 ./user/my_tim.o
                0x000000000802c1d8                mytim_ticupdate
 .text.mytim_clean
                0x000000000802c218       0x10 ./user/my_tim.o
                0x000000000802c218                mytim_clean
 .text.clean_check
                0x000000000802c228      0x138 ./user/my_tim.o
                0x000000000802c228                clean_check
 .text.turndown_only
                0x000000000802c360      0x130 ./user/my_tim.o
                0x000000000802c360                turndown_only
 .text.turndown_only_none
                0x000000000802c490       0x8c ./user/my_tim.o
                0x000000000802c490                turndown_only_none
 .text.turndown_check
                0x000000000802c51c       0xb4 ./user/my_tim.o
                0x000000000802c51c                turndown_check
 .text.op_check
                0x000000000802c5d0      0x12c ./user/my_tim.o
                0x000000000802c5d0                op_check
 .text.op_check_none
                0x000000000802c6fc       0x94 ./user/my_tim.o
                0x000000000802c6fc                op_check_none
 .text.turnup_check
                0x000000000802c790       0xb4 ./user/my_tim.o
                0x000000000802c790                turnup_check
 .text.headdown_check
                0x000000000802c844       0xb8 ./user/my_tim.o
                0x000000000802c844                headdown_check
 .text.headup_check
                0x000000000802c8fc       0xb4 ./user/my_tim.o
                0x000000000802c8fc                headup_check
 .text.boarddown_check
                0x000000000802c9b0       0xb4 ./user/my_tim.o
                0x000000000802c9b0                boarddown_check
 .text.boardup_check
                0x000000000802ca64       0xb8 ./user/my_tim.o
                0x000000000802ca64                boardup_check
 .text.pushleft_check
                0x000000000802cb1c       0xb8 ./user/my_tim.o
                0x000000000802cb1c                pushleft_check
 .text.pushright_check
                0x000000000802cbd4       0xb8 ./user/my_tim.o
                0x000000000802cbd4                pushright_check
 .text.catchdown_check
                0x000000000802cc8c       0xb8 ./user/my_tim.o
                0x000000000802cc8c                catchdown_check
 .text.catchup_check
                0x000000000802cd44       0xb8 ./user/my_tim.o
                0x000000000802cd44                catchup_check
 .text.mytim_check
                0x000000000802cdfc      0x1b0 ./user/my_tim.o
                0x000000000802cdfc                mytim_check
 .text.number   0x000000000802cfac      0x140 ./user/myprintf.o
 .text.float2string
                0x000000000802d0ec      0x120 ./user/myprintf.o
 .text.serial_puts
                0x000000000802d20c       0x18 ./user/myprintf.o
                0x000000000802d20c                serial_puts
 .text.debug_printf
                0x000000000802d224      0x334 ./user/myprintf.o
                0x000000000802d224                debug_printf
 .text.TIM0_CB  0x000000000802d558       0x80 ./user/soft_timer.o
                0x000000000802d558                TIM0_CB
 .text.TIM1_CB  0x000000000802d5d8        0x8 ./user/soft_timer.o
                0x000000000802d5d8                TIM1_CB
 .text.TIM2_CB  0x000000000802d5e0        0xc ./user/soft_timer.o
                0x000000000802d5e0                TIM2_CB
 .text.TIM3_CB  0x000000000802d5ec       0x48 ./user/soft_timer.o
                0x000000000802d5ec                TIM3_CB
 .text.TIM4_CB  0x000000000802d634       0x30 ./user/soft_timer.o
                0x000000000802d634                TIM4_CB
 .text.TIM5_CB  0x000000000802d664       0x30 ./user/soft_timer.o
                0x000000000802d664                TIM5_CB
 .text.TIM6_CB  0x000000000802d694        0xa ./user/soft_timer.o
                0x000000000802d694                TIM6_CB
 *fill*         0x000000000802d69e        0x2 
 .text.TIM7_CB  0x000000000802d6a0       0x68 ./user/soft_timer.o
                0x000000000802d6a0                TIM7_CB
 .text.tickCnt_Update
                0x000000000802d708       0x10 ./user/soft_timer.o
                0x000000000802d708                tickCnt_Update
 .text.tickCnt_Get
                0x000000000802d718        0xc ./user/soft_timer.o
                0x000000000802d718                tickCnt_Get
 .text.softTimer_Init
                0x000000000802d724       0x34 ./user/soft_timer.o
                0x000000000802d724                softTimer_Init
 .text.softTimer_Start
                0x000000000802d758       0x74 ./user/soft_timer.o
                0x000000000802d758                softTimer_Start
 .text.softTimer_Update
                0x000000000802d7cc       0xd4 ./user/soft_timer.o
                0x000000000802d7cc                softTimer_Update
 .text.sysguard_ini
                0x000000000802d8a0       0x20 ./user/sysguard.o
                0x000000000802d8a0                sysguard_ini
 .text.sysguard_start
                0x000000000802d8c0       0x2c ./user/sysguard.o
                0x000000000802d8c0                sysguard_start
 .text.sysguard_feed
                0x000000000802d8ec       0x34 ./user/sysguard.o
                0x000000000802d8ec                sysguard_feed
 .text.sysguard_scan
                0x000000000802d920       0x60 ./user/sysguard.o
                0x000000000802d920                sysguard_scan
 .text.__errno  0x000000000802d980        0xc d:/st/stm32cubeide_1.8.0/stm32cubeide/plugins/com.st.stm32cube.ide.mcu.externaltools.gnu-tools-for-stm32.9-2020-q2-update.win32_2.0.0.202105311346/tools/bin/../lib/gcc/arm-none-eabi/9.3.1/../../../../arm-none-eabi/lib/thumb/v7e-m+fp/hard\libc_nano.a(lib_a-errno.o)
                0x000000000802d980                __errno
 .text.__libc_init_array
                0x000000000802d98c       0x48 d:/st/stm32cubeide_1.8.0/stm32cubeide/plugins/com.st.stm32cube.ide.mcu.externaltools.gnu-tools-for-stm32.9-2020-q2-update.win32_2.0.0.202105311346/tools/bin/../lib/gcc/arm-none-eabi/9.3.1/../../../../arm-none-eabi/lib/thumb/v7e-m+fp/hard\libc_nano.a(lib_a-init.o)
                0x000000000802d98c                __libc_init_array
 .text.memcpy   0x000000000802d9d4       0x1c d:/st/stm32cubeide_1.8.0/stm32cubeide/plugins/com.st.stm32cube.ide.mcu.externaltools.gnu-tools-for-stm32.9-2020-q2-update.win32_2.0.0.202105311346/tools/bin/../lib/gcc/arm-none-eabi/9.3.1/../../../../arm-none-eabi/lib/thumb/v7e-m+fp/hard\libc_nano.a(lib_a-memcpy-stub.o)
                0x000000000802d9d4                memcpy
 .text.memset   0x000000000802d9f0       0x10 d:/st/stm32cubeide_1.8.0/stm32cubeide/plugins/com.st.stm32cube.ide.mcu.externaltools.gnu-tools-for-stm32.9-2020-q2-update.win32_2.0.0.202105311346/tools/bin/../lib/gcc/arm-none-eabi/9.3.1/../../../../arm-none-eabi/lib/thumb/v7e-m+fp/hard\libc_nano.a(lib_a-memset.o)
                0x000000000802d9f0                memset
 .text._free_r  0x000000000802da00       0xa0 d:/st/stm32cubeide_1.8.0/stm32cubeide/plugins/com.st.stm32cube.ide.mcu.externaltools.gnu-tools-for-stm32.9-2020-q2-update.win32_2.0.0.202105311346/tools/bin/../lib/gcc/arm-none-eabi/9.3.1/../../../../arm-none-eabi/lib/thumb/v7e-m+fp/hard\libc_nano.a(lib_a-nano-freer.o)
                0x000000000802da00                _free_r
 .text._malloc_r
                0x000000000802daa0       0xb4 d:/st/stm32cubeide_1.8.0/stm32cubeide/plugins/com.st.stm32cube.ide.mcu.externaltools.gnu-tools-for-stm32.9-2020-q2-update.win32_2.0.0.202105311346/tools/bin/../lib/gcc/arm-none-eabi/9.3.1/../../../../arm-none-eabi/lib/thumb/v7e-m+fp/hard\libc_nano.a(lib_a-nano-mallocr.o)
                0x000000000802daa0                _malloc_r
 .text.cleanup_glue
                0x000000000802db54       0x1a d:/st/stm32cubeide_1.8.0/stm32cubeide/plugins/com.st.stm32cube.ide.mcu.externaltools.gnu-tools-for-stm32.9-2020-q2-update.win32_2.0.0.202105311346/tools/bin/../lib/gcc/arm-none-eabi/9.3.1/../../../../arm-none-eabi/lib/thumb/v7e-m+fp/hard\libc_nano.a(lib_a-reent.o)
                0x000000000802db54                cleanup_glue
 *fill*         0x000000000802db6e        0x2 
 .text._reclaim_reent
                0x000000000802db70       0xb8 d:/st/stm32cubeide_1.8.0/stm32cubeide/plugins/com.st.stm32cube.ide.mcu.externaltools.gnu-tools-for-stm32.9-2020-q2-update.win32_2.0.0.202105311346/tools/bin/../lib/gcc/arm-none-eabi/9.3.1/../../../../arm-none-eabi/lib/thumb/v7e-m+fp/hard\libc_nano.a(lib_a-reent.o)
                0x000000000802db70                _reclaim_reent
 .text._sbrk_r  0x000000000802dc28       0x20 d:/st/stm32cubeide_1.8.0/stm32cubeide/plugins/com.st.stm32cube.ide.mcu.externaltools.gnu-tools-for-stm32.9-2020-q2-update.win32_2.0.0.202105311346/tools/bin/../lib/gcc/arm-none-eabi/9.3.1/../../../../arm-none-eabi/lib/thumb/v7e-m+fp/hard\libc_nano.a(lib_a-sbrkr.o)
                0x000000000802dc28                _sbrk_r
 .text.sprintf  0x000000000802dc48       0x40 d:/st/stm32cubeide_1.8.0/stm32cubeide/plugins/com.st.stm32cube.ide.mcu.externaltools.gnu-tools-for-stm32.9-2020-q2-update.win32_2.0.0.202105311346/tools/bin/../lib/gcc/arm-none-eabi/9.3.1/../../../../arm-none-eabi/lib/thumb/v7e-m+fp/hard\libc_nano.a(lib_a-sprintf.o)
                0x000000000802dc48                siprintf
                0x000000000802dc48                sprintf
 .text.__malloc_lock
                0x000000000802dc88        0xc d:/st/stm32cubeide_1.8.0/stm32cubeide/plugins/com.st.stm32cube.ide.mcu.externaltools.gnu-tools-for-stm32.9-2020-q2-update.win32_2.0.0.202105311346/tools/bin/../lib/gcc/arm-none-eabi/9.3.1/../../../../arm-none-eabi/lib/thumb/v7e-m+fp/hard\libc_nano.a(lib_a-mlock.o)
                0x000000000802dc88                __malloc_lock
 .text.__malloc_unlock
                0x000000000802dc94        0xc d:/st/stm32cubeide_1.8.0/stm32cubeide/plugins/com.st.stm32cube.ide.mcu.externaltools.gnu-tools-for-stm32.9-2020-q2-update.win32_2.0.0.202105311346/tools/bin/../lib/gcc/arm-none-eabi/9.3.1/../../../../arm-none-eabi/lib/thumb/v7e-m+fp/hard\libc_nano.a(lib_a-mlock.o)
                0x000000000802dc94                __malloc_unlock
 .text.__ssputs_r
                0x000000000802dca0       0xb6 d:/st/stm32cubeide_1.8.0/stm32cubeide/plugins/com.st.stm32cube.ide.mcu.externaltools.gnu-tools-for-stm32.9-2020-q2-update.win32_2.0.0.202105311346/tools/bin/../lib/gcc/arm-none-eabi/9.3.1/../../../../arm-none-eabi/lib/thumb/v7e-m+fp/hard\libc_nano.a(lib_a-nano-svfprintf.o)
                0x000000000802dca0                __ssputs_r
 *fill*         0x000000000802dd56        0x2 
 .text._svfprintf_r
                0x000000000802dd58      0x200 d:/st/stm32cubeide_1.8.0/stm32cubeide/plugins/com.st.stm32cube.ide.mcu.externaltools.gnu-tools-for-stm32.9-2020-q2-update.win32_2.0.0.202105311346/tools/bin/../lib/gcc/arm-none-eabi/9.3.1/../../../../arm-none-eabi/lib/thumb/v7e-m+fp/hard\libc_nano.a(lib_a-nano-svfprintf.o)
                0x000000000802dd58                _svfiprintf_r
                0x000000000802dd58                _svfprintf_r
 .text._printf_common
                0x000000000802df58       0xda d:/st/stm32cubeide_1.8.0/stm32cubeide/plugins/com.st.stm32cube.ide.mcu.externaltools.gnu-tools-for-stm32.9-2020-q2-update.win32_2.0.0.202105311346/tools/bin/../lib/gcc/arm-none-eabi/9.3.1/../../../../arm-none-eabi/lib/thumb/v7e-m+fp/hard\libc_nano.a(lib_a-nano-vfprintf_i.o)
                0x000000000802df58                _printf_common
 *fill*         0x000000000802e032        0x2 
 .text._printf_i
                0x000000000802e034      0x24c d:/st/stm32cubeide_1.8.0/stm32cubeide/plugins/com.st.stm32cube.ide.mcu.externaltools.gnu-tools-for-stm32.9-2020-q2-update.win32_2.0.0.202105311346/tools/bin/../lib/gcc/arm-none-eabi/9.3.1/../../../../arm-none-eabi/lib/thumb/v7e-m+fp/hard\libc_nano.a(lib_a-nano-vfprintf_i.o)
                0x000000000802e034                _printf_i
 .text.memmove  0x000000000802e280       0x34 d:/st/stm32cubeide_1.8.0/stm32cubeide/plugins/com.st.stm32cube.ide.mcu.externaltools.gnu-tools-for-stm32.9-2020-q2-update.win32_2.0.0.202105311346/tools/bin/../lib/gcc/arm-none-eabi/9.3.1/../../../../arm-none-eabi/lib/thumb/v7e-m+fp/hard\libc_nano.a(lib_a-memmove.o)
                0x000000000802e280                memmove
 .text._realloc_r
                0x000000000802e2b4       0x4c d:/st/stm32cubeide_1.8.0/stm32cubeide/plugins/com.st.stm32cube.ide.mcu.externaltools.gnu-tools-for-stm32.9-2020-q2-update.win32_2.0.0.202105311346/tools/bin/../lib/gcc/arm-none-eabi/9.3.1/../../../../arm-none-eabi/lib/thumb/v7e-m+fp/hard\libc_nano.a(lib_a-nano-reallocr.o)
                0x000000000802e2b4                _realloc_r
 .text._malloc_usable_size_r
                0x000000000802e300       0x10 d:/st/stm32cubeide_1.8.0/stm32cubeide/plugins/com.st.stm32cube.ide.mcu.externaltools.gnu-tools-for-stm32.9-2020-q2-update.win32_2.0.0.202105311346/tools/bin/../lib/gcc/arm-none-eabi/9.3.1/../../../../arm-none-eabi/lib/thumb/v7e-m+fp/hard\libc_nano.a(lib_a-nano-msizer.o)
                0x000000000802e300                _malloc_usable_size_r
 *(.glue_7)
 .glue_7        0x000000000802e310        0x0 linker stubs
 *(.glue_7t)
 .glue_7t       0x000000000802e310        0x0 linker stubs
 *(.eh_frame)
 .eh_frame      0x000000000802e310        0x0 d:/st/stm32cubeide_1.8.0/stm32cubeide/plugins/com.st.stm32cube.ide.mcu.externaltools.gnu-tools-for-stm32.9-2020-q2-update.win32_2.0.0.202105311346/tools/bin/../lib/gcc/arm-none-eabi/9.3.1/thumb/v7e-m+fp/hard/crtbegin.o
 *(.init)
 .init          0x000000000802e310        0x4 d:/st/stm32cubeide_1.8.0/stm32cubeide/plugins/com.st.stm32cube.ide.mcu.externaltools.gnu-tools-for-stm32.9-2020-q2-update.win32_2.0.0.202105311346/tools/bin/../lib/gcc/arm-none-eabi/9.3.1/thumb/v7e-m+fp/hard/crti.o
                0x000000000802e310                _init
 .init          0x000000000802e314        0x8 d:/st/stm32cubeide_1.8.0/stm32cubeide/plugins/com.st.stm32cube.ide.mcu.externaltools.gnu-tools-for-stm32.9-2020-q2-update.win32_2.0.0.202105311346/tools/bin/../lib/gcc/arm-none-eabi/9.3.1/thumb/v7e-m+fp/hard/crtn.o
 *(.fini)
 .fini          0x000000000802e31c        0x4 d:/st/stm32cubeide_1.8.0/stm32cubeide/plugins/com.st.stm32cube.ide.mcu.externaltools.gnu-tools-for-stm32.9-2020-q2-update.win32_2.0.0.202105311346/tools/bin/../lib/gcc/arm-none-eabi/9.3.1/thumb/v7e-m+fp/hard/crti.o
                0x000000000802e31c                _fini
 .fini          0x000000000802e320        0x8 d:/st/stm32cubeide_1.8.0/stm32cubeide/plugins/com.st.stm32cube.ide.mcu.externaltools.gnu-tools-for-stm32.9-2020-q2-update.win32_2.0.0.202105311346/tools/bin/../lib/gcc/arm-none-eabi/9.3.1/thumb/v7e-m+fp/hard/crtn.o
                0x000000000802e328                . = ALIGN (0x4)
                0x000000000802e328                _etext = .

.vfp11_veneer   0x000000000802e328        0x0
 .vfp11_veneer  0x000000000802e328        0x0 linker stubs

.v4_bx          0x000000000802e328        0x0
 .v4_bx         0x000000000802e328        0x0 linker stubs

.iplt           0x000000000802e328        0x0
 .iplt          0x000000000802e328        0x0 d:/st/stm32cubeide_1.8.0/stm32cubeide/plugins/com.st.stm32cube.ide.mcu.externaltools.gnu-tools-for-stm32.9-2020-q2-update.win32_2.0.0.202105311346/tools/bin/../lib/gcc/arm-none-eabi/9.3.1/thumb/v7e-m+fp/hard/crtbegin.o

.rodata         0x000000000802e328      0xee4
                0x000000000802e328                . = ALIGN (0x4)
 *(.rodata)
 *(.rodata*)
 .rodata.str1.4
                0x000000000802e328       0xf8 ./Core/Src/freertos.o
 .rodata.defaultTask_attributes
                0x000000000802e420       0x24 ./Core/Src/freertos.o
                0x000000000802e420                defaultTask_attributes
 .rodata.myBinarySem01_attributes
                0x000000000802e444       0x10 ./Core/Src/freertos.o
                0x000000000802e444                myBinarySem01_attributes
 .rodata.myBinarySem02_attributes
                0x000000000802e454       0x10 ./Core/Src/freertos.o
                0x000000000802e454                myBinarySem02_attributes
 .rodata.myBinarySem03_attributes
                0x000000000802e464       0x10 ./Core/Src/freertos.o
                0x000000000802e464                myBinarySem03_attributes
 .rodata.myBinarySem04_attributes
                0x000000000802e474       0x10 ./Core/Src/freertos.o
                0x000000000802e474                myBinarySem04_attributes
 .rodata.myBinarySem05_attributes
                0x000000000802e484       0x10 ./Core/Src/freertos.o
                0x000000000802e484                myBinarySem05_attributes
 .rodata.myEvent01_attributes
                0x000000000802e494       0x10 ./Core/Src/freertos.o
                0x000000000802e494                myEvent01_attributes
 .rodata.myEvent02_attributes
                0x000000000802e4a4       0x10 ./Core/Src/freertos.o
                0x000000000802e4a4                myEvent02_attributes
 .rodata.myMutex01_attributes
                0x000000000802e4b4       0x10 ./Core/Src/freertos.o
                0x000000000802e4b4                myMutex01_attributes
 .rodata.myMutex02_attributes
                0x000000000802e4c4       0x10 ./Core/Src/freertos.o
                0x000000000802e4c4                myMutex02_attributes
 .rodata.myQueueUsart1_attributes
                0x000000000802e4d4       0x18 ./Core/Src/freertos.o
                0x000000000802e4d4                myQueueUsart1_attributes
 .rodata.myQueueUsart3_attributes
                0x000000000802e4ec       0x18 ./Core/Src/freertos.o
                0x000000000802e4ec                myQueueUsart3_attributes
 .rodata.myQueueUsart6_attributes
                0x000000000802e504       0x18 ./Core/Src/freertos.o
                0x000000000802e504                myQueueUsart6_attributes
 .rodata.myTask02_attributes
                0x000000000802e51c       0x24 ./Core/Src/freertos.o
                0x000000000802e51c                myTask02_attributes
 .rodata.myTask03_attributes
                0x000000000802e540       0x24 ./Core/Src/freertos.o
                0x000000000802e540                myTask03_attributes
 .rodata.myTask04_attributes
                0x000000000802e564       0x24 ./Core/Src/freertos.o
                0x000000000802e564                myTask04_attributes
 .rodata.myTask05_attributes
                0x000000000802e588       0x24 ./Core/Src/freertos.o
                0x000000000802e588                myTask05_attributes
 .rodata.myTask06_attributes
                0x000000000802e5ac       0x24 ./Core/Src/freertos.o
                0x000000000802e5ac                myTask06_attributes
 .rodata.Error_Handler.str1.4
                0x000000000802e5d0       0x10 ./Core/Src/main.o
 .rodata.main.str1.4
                0x000000000802e5e0       0x58 ./Core/Src/main.o
 .rodata.NMI_Handler.str1.4
                0x000000000802e638        0xe ./Core/Src/stm32f4xx_it.o
 *fill*         0x000000000802e646        0x2 
 .rodata.HardFault_Handler.str1.4
                0x000000000802e648       0x14 ./Core/Src/stm32f4xx_it.o
 .rodata.MemManage_Handler.str1.4
                0x000000000802e65c       0x14 ./Core/Src/stm32f4xx_it.o
 .rodata.BusFault_Handler.str1.4
                0x000000000802e670       0x13 ./Core/Src/stm32f4xx_it.o
 *fill*         0x000000000802e683        0x1 
 .rodata.UsageFault_Handler.str1.4
                0x000000000802e684       0x15 ./Core/Src/stm32f4xx_it.o
 *fill*         0x000000000802e699        0x3 
 .rodata.DebugMon_Handler.str1.4
                0x000000000802e69c       0x13 ./Core/Src/stm32f4xx_it.o
 *fill*         0x000000000802e6af        0x1 
 .rodata.AHBPrescTable
                0x000000000802e6b0       0x10 ./Core/Src/system_stm32f4xx.o
                0x000000000802e6b0                AHBPrescTable
 .rodata.APBPrescTable
                0x000000000802e6c0        0x8 ./Core/Src/system_stm32f4xx.o
                0x000000000802e6c0                APBPrescTable
 .rodata.HAL_NVIC_SetPriorityGrouping.str1.4
                0x000000000802e6c8       0x3b ./Drivers/STM32F4xx_HAL_Driver/Src/stm32f4xx_hal_cortex.o
 *fill*         0x000000000802e703        0x1 
 .rodata.HAL_DMA_Init.str1.4
                0x000000000802e704       0x38 ./Drivers/STM32F4xx_HAL_Driver/Src/stm32f4xx_hal_dma.o
 .rodata.flagBitshiftOffset.8529
                0x000000000802e73c        0x8 ./Drivers/STM32F4xx_HAL_Driver/Src/stm32f4xx_hal_dma.o
 .rodata.FLASH_Program_Byte.str1.4
                0x000000000802e744       0x3a ./Drivers/STM32F4xx_HAL_Driver/Src/stm32f4xx_hal_flash.o
 *fill*         0x000000000802e77e        0x2 
 .rodata.FLASH_MassErase.str1.4
                0x000000000802e780       0x3d ./Drivers/STM32F4xx_HAL_Driver/Src/stm32f4xx_hal_flash_ex.o
 *fill*         0x000000000802e7bd        0x3 
 .rodata.HAL_GPIO_Init.str1.4
                0x000000000802e7c0       0x39 ./Drivers/STM32F4xx_HAL_Driver/Src/stm32f4xx_hal_gpio.o
 *fill*         0x000000000802e7f9        0x3 
 .rodata.HAL_IWDG_Init.str1.4
                0x000000000802e7fc       0x39 ./Drivers/STM32F4xx_HAL_Driver/Src/stm32f4xx_hal_iwdg.o
 *fill*         0x000000000802e835        0x3 
 .rodata.HAL_RCC_OscConfig.str1.4
                0x000000000802e838       0x38 ./Drivers/STM32F4xx_HAL_Driver/Src/stm32f4xx_hal_rcc.o
 .rodata.HAL_RCCEx_PeriphCLKConfig.str1.4
                0x000000000802e870       0x3b ./Drivers/STM32F4xx_HAL_Driver/Src/stm32f4xx_hal_rcc_ex.o
 *fill*         0x000000000802e8ab        0x1 
 .rodata.HAL_RTC_DeactivateAlarm.str1.4
                0x000000000802e8ac       0x38 ./Drivers/STM32F4xx_HAL_Driver/Src/stm32f4xx_hal_rtc.o
 .rodata.TIM_OC1_SetConfig.str1.4
                0x000000000802e8e4       0x38 ./Drivers/STM32F4xx_HAL_Driver/Src/stm32f4xx_hal_tim.o
 .rodata.HAL_TIMEx_HallSensor_Init.str1.4
                0x000000000802e91c       0x3b ./Drivers/STM32F4xx_HAL_Driver/Src/stm32f4xx_hal_tim_ex.o
 *fill*         0x000000000802e957        0x1 
 .rodata.UART_SetConfig.str1.4
                0x000000000802e958       0x39 ./Drivers/STM32F4xx_HAL_Driver/Src/stm32f4xx_hal_uart.o
 *fill*         0x000000000802e991        0x3 
 .rodata.vTaskStartScheduler.str1.4
                0x000000000802e994        0x5 ./Middlewares/Third_Party/FreeRTOS/Source/tasks.o
 *fill*         0x000000000802e999        0x3 
 .rodata.prvCheckForValidListAndQueue.str1.4
                0x000000000802e99c        0x5 ./Middlewares/Third_Party/FreeRTOS/Source/timers.o
 *fill*         0x000000000802e9a1        0x3 
 .rodata.xTimerCreateTimerTask.str1.4
                0x000000000802e9a4        0x8 ./Middlewares/Third_Party/FreeRTOS/Source/timers.o
 .rodata.input_pic.str1.4
                0x000000000802e9ac       0x1f ./user/detect.o
 *fill*         0x000000000802e9cb        0x1 
 .rodata.addr_list
                0x000000000802e9cc       0x14 ./user/detect.o
                0x000000000802e9cc                addr_list
 .rodata.dis_fst_page.str1.4
                0x000000000802e9e0        0xe ./user/display.o
 *fill*         0x000000000802e9ee        0x2 
 .rodata.dis_tip_page.str1.4
                0x000000000802e9f0        0xe ./user/display.o
 *fill*         0x000000000802e9fe        0x2 
 .rodata.dis_log.str1.4
                0x000000000802ea00       0x5c ./user/display.o
 .rodata.store_log.str1.4
                0x000000000802ea5c       0x4b ./user/display.o
 *fill*         0x000000000802eaa7        0x1 
 .rodata.dis_refresh_log.str1.4
                0x000000000802eaa8       0x2d ./user/display.o
 *fill*         0x000000000802ead5        0x3 
 .rodata.run_time.str1.4
                0x000000000802ead8       0x12 ./user/display.o
 *fill*         0x000000000802eaea        0x2 
 .rodata.screen_write.str1.4
                0x000000000802eaec       0x32 ./user/io_ctrl.o
 *fill*         0x000000000802eb1e        0x2 
 .rodata.screen_read.str1.4
                0x000000000802eb20       0x31 ./user/io_ctrl.o
 *fill*         0x000000000802eb51        0x3 
 .rodata.operate_para.str1.4
                0x000000000802eb54       0x62 ./user/io_ctrl.o
 *fill*         0x000000000802ebb6        0x2 
 .rodata.operate_ini.str1.4
                0x000000000802ebb8       0x5b ./user/io_ctrl.o
                                         0x83 (size before relaxing)
 *fill*         0x000000000802ec13        0x1 
 .rodata.screen_touch.str1.4
                0x000000000802ec14       0x48 ./user/io_ctrl.o
 .rodata.screen_deal.str1.4
                0x000000000802ec5c       0x35 ./user/io_ctrl.o
 *fill*         0x000000000802ec91        0x3 
 .rodata.io2pin_out.str1.4
                0x000000000802ec94        0xb ./user/io_ctrl.o
 *fill*         0x000000000802ec9f        0x1 
 .rodata.keyqueue_deal.str1.4
                0x000000000802eca0       0x3d ./user/io_ctrl.o
 *fill*         0x000000000802ecdd        0x3 
 .rodata.rst_deal.str1.4
                0x000000000802ece0      0x136 ./user/io_ctrl.o
 *fill*         0x000000000802ee16        0x2 
 .rodata.sequence_deal.str1.4
                0x000000000802ee18      0x11c ./user/io_ctrl.o
 .rodata.check_op_flag.str1.4
                0x000000000802ef34        0xb ./user/io_ctrl.o
 *fill*         0x000000000802ef3f        0x1 
 .rodata.operate_ctrl.str1.4
                0x000000000802ef40       0x65 ./user/io_ctrl.o
 *fill*         0x000000000802efa5        0x3 
 .rodata.str1.4
                0x000000000802efa8       0x31 ./user/io_ctrl.o
 *fill*         0x000000000802efd9        0x3 
 .rodata.turndown_only.str1.4
                0x000000000802efdc        0xb ./user/my_tim.o
 *fill*         0x000000000802efe7        0x1 
 .rodata.op_check.str1.4
                0x000000000802efe8        0xb ./user/my_tim.o
 *fill*         0x000000000802eff3        0x1 
 .rodata.debug_printf.str1.4
                0x000000000802eff4        0x7 ./user/myprintf.o
 *fill*         0x000000000802effb        0x1 
 .rodata.digits.9899
                0x000000000802effc       0x10 ./user/myprintf.o
 .rodata.mulf.9935
                0x000000000802f00c       0x1c ./user/myprintf.o
 .rodata.TIM5_CB.str1.4
                0x000000000802f028        0xb ./user/soft_timer.o
 *fill*         0x000000000802f033        0x1 
 .rodata.softTimer_Start.str1.4
                0x000000000802f034       0x15 ./user/soft_timer.o
 *fill*         0x000000000802f049        0x3 
 .rodata.sysguard_start.str1.4
                0x000000000802f04c       0x13 ./user/sysguard.o
 *fill*         0x000000000802f05f        0x1 
 .rodata.sysguard_scan.str1.4
                0x000000000802f060       0x16 ./user/sysguard.o
 .rodata._ctype_
                0x000000000802f076      0x101 d:/st/stm32cubeide_1.8.0/stm32cubeide/plugins/com.st.stm32cube.ide.mcu.externaltools.gnu-tools-for-stm32.9-2020-q2-update.win32_2.0.0.202105311346/tools/bin/../lib/gcc/arm-none-eabi/9.3.1/../../../../arm-none-eabi/lib/thumb/v7e-m+fp/hard\libc_nano.a(lib_a-ctype_.o)
                0x000000000802f076                _ctype_
 *fill*         0x000000000802f177        0x1 
 .rodata.__sf_fake_stderr
                0x000000000802f178       0x20 d:/st/stm32cubeide_1.8.0/stm32cubeide/plugins/com.st.stm32cube.ide.mcu.externaltools.gnu-tools-for-stm32.9-2020-q2-update.win32_2.0.0.202105311346/tools/bin/../lib/gcc/arm-none-eabi/9.3.1/../../../../arm-none-eabi/lib/thumb/v7e-m+fp/hard\libc_nano.a(lib_a-findfp.o)
                0x000000000802f178                __sf_fake_stderr
 .rodata.__sf_fake_stdin
                0x000000000802f198       0x20 d:/st/stm32cubeide_1.8.0/stm32cubeide/plugins/com.st.stm32cube.ide.mcu.externaltools.gnu-tools-for-stm32.9-2020-q2-update.win32_2.0.0.202105311346/tools/bin/../lib/gcc/arm-none-eabi/9.3.1/../../../../arm-none-eabi/lib/thumb/v7e-m+fp/hard\libc_nano.a(lib_a-findfp.o)
                0x000000000802f198                __sf_fake_stdin
 .rodata.__sf_fake_stdout
                0x000000000802f1b8       0x20 d:/st/stm32cubeide_1.8.0/stm32cubeide/plugins/com.st.stm32cube.ide.mcu.externaltools.gnu-tools-for-stm32.9-2020-q2-update.win32_2.0.0.202105311346/tools/bin/../lib/gcc/arm-none-eabi/9.3.1/../../../../arm-none-eabi/lib/thumb/v7e-m+fp/hard\libc_nano.a(lib_a-findfp.o)
                0x000000000802f1b8                __sf_fake_stdout
 .rodata._svfprintf_r.str1.1
                0x000000000802f1d8       0x11 d:/st/stm32cubeide_1.8.0/stm32cubeide/plugins/com.st.stm32cube.ide.mcu.externaltools.gnu-tools-for-stm32.9-2020-q2-update.win32_2.0.0.202105311346/tools/bin/../lib/gcc/arm-none-eabi/9.3.1/../../../../arm-none-eabi/lib/thumb/v7e-m+fp/hard\libc_nano.a(lib_a-nano-svfprintf.o)
 .rodata._printf_i.str1.1
                0x000000000802f1e9       0x22 d:/st/stm32cubeide_1.8.0/stm32cubeide/plugins/com.st.stm32cube.ide.mcu.externaltools.gnu-tools-for-stm32.9-2020-q2-update.win32_2.0.0.202105311346/tools/bin/../lib/gcc/arm-none-eabi/9.3.1/../../../../arm-none-eabi/lib/thumb/v7e-m+fp/hard\libc_nano.a(lib_a-nano-vfprintf_i.o)
                0x000000000802f20c                . = ALIGN (0x4)
 *fill*         0x000000000802f20b        0x1 

.ARM.extab      0x000000000802f20c        0x0
                0x000000000802f20c                . = ALIGN (0x4)
 *(.ARM.extab* .gnu.linkonce.armextab.*)
                0x000000000802f20c                . = ALIGN (0x4)

.ARM            0x000000000802f20c        0x8
                0x000000000802f20c                . = ALIGN (0x4)
                0x000000000802f20c                __exidx_start = .
 *(.ARM.exidx*)
 .ARM.exidx     0x000000000802f20c        0x8 d:/st/stm32cubeide_1.8.0/stm32cubeide/plugins/com.st.stm32cube.ide.mcu.externaltools.gnu-tools-for-stm32.9-2020-q2-update.win32_2.0.0.202105311346/tools/bin/../lib/gcc/arm-none-eabi/9.3.1/thumb/v7e-m+fp/hard\libgcc.a(_udivmoddi4.o)
                0x000000000802f214                __exidx_end = .
                0x000000000802f214                . = ALIGN (0x4)

.rel.dyn        0x000000000802f214        0x0
 .rel.iplt      0x000000000802f214        0x0 d:/st/stm32cubeide_1.8.0/stm32cubeide/plugins/com.st.stm32cube.ide.mcu.externaltools.gnu-tools-for-stm32.9-2020-q2-update.win32_2.0.0.202105311346/tools/bin/../lib/gcc/arm-none-eabi/9.3.1/thumb/v7e-m+fp/hard/crtbegin.o

.preinit_array  0x000000000802f214        0x0
                0x000000000802f214                . = ALIGN (0x4)
                0x000000000802f214                PROVIDE (__preinit_array_start = .)
 *(.preinit_array*)
                0x000000000802f214                PROVIDE (__preinit_array_end = .)
                0x000000000802f214                . = ALIGN (0x4)

.init_array     0x000000000802f214        0x4
                0x000000000802f214                . = ALIGN (0x4)
                0x000000000802f214                PROVIDE (__init_array_start = .)
 *(SORT_BY_NAME(.init_array.*))
 *(.init_array*)
 .init_array    0x000000000802f214        0x4 d:/st/stm32cubeide_1.8.0/stm32cubeide/plugins/com.st.stm32cube.ide.mcu.externaltools.gnu-tools-for-stm32.9-2020-q2-update.win32_2.0.0.202105311346/tools/bin/../lib/gcc/arm-none-eabi/9.3.1/thumb/v7e-m+fp/hard/crtbegin.o
                0x000000000802f218                PROVIDE (__init_array_end = .)
                0x000000000802f218                . = ALIGN (0x4)

.fini_array     0x000000000802f218        0x4
                0x000000000802f218                . = ALIGN (0x4)
                [!provide]                        PROVIDE (__fini_array_start = .)
 *(SORT_BY_NAME(.fini_array.*))
 *(.fini_array*)
 .fini_array    0x000000000802f218        0x4 d:/st/stm32cubeide_1.8.0/stm32cubeide/plugins/com.st.stm32cube.ide.mcu.externaltools.gnu-tools-for-stm32.9-2020-q2-update.win32_2.0.0.202105311346/tools/bin/../lib/gcc/arm-none-eabi/9.3.1/thumb/v7e-m+fp/hard/crtbegin.o
                [!provide]                        PROVIDE (__fini_array_end = .)
                0x000000000802f21c                . = ALIGN (0x4)
                0x000000000802f21c                _sidata = LOADADDR (.data)

.data           0x0000000020000000      0x1bc load address 0x000000000802f21c
                0x0000000020000000                . = ALIGN (0x4)
                0x0000000020000000                _sdata = .
 *(.data)
 *(.data*)
 .data.SystemCoreClock
                0x0000000020000000        0x4 ./Core/Src/system_stm32f4xx.o
                0x0000000020000000                SystemCoreClock
 .data.uwTickFreq
                0x0000000020000004        0x1 ./Drivers/STM32F4xx_HAL_Driver/Src/stm32f4xx_hal.o
                0x0000000020000004                uwTickFreq
 *fill*         0x0000000020000005        0x3 
 .data.uwTickPrio
                0x0000000020000008        0x4 ./Drivers/STM32F4xx_HAL_Driver/Src/stm32f4xx_hal.o
                0x0000000020000008                uwTickPrio
 .data.uxCriticalNesting
                0x000000002000000c        0x4 ./Middlewares/Third_Party/FreeRTOS/Source/portable/GCC/ARM_CM4F/port.o
 .data.pin_cfg  0x0000000020000010       0xa0 ./user/detect.o
                0x0000000020000010                pin_cfg
 .data.days_bk.10410
                0x00000000200000b0        0x2 ./user/display.o
 .data.hours_bk.10411
                0x00000000200000b2        0x2 ./user/display.o
 .data.tim_tab_st
                0x00000000200000b4       0x1a ./user/display.o
                0x00000000200000b4                tim_tab_st
 *fill*         0x00000000200000ce        0x2 
 .data.io1_cfg  0x00000000200000d0       0x10 ./user/io_ctrl.o
                0x00000000200000d0                io1_cfg
 .data.io2_cfg  0x00000000200000e0       0x50 ./user/io_ctrl.o
                0x00000000200000e0                io2_cfg
 .data.pin_char_op
                0x0000000020000130        0xc ./user/io_ctrl.o
                0x0000000020000130                pin_char_op
 .data.pin_char_type
                0x000000002000013c       0x14 ./user/io_ctrl.o
                0x000000002000013c                pin_char_type
 .data.tim_run  0x0000000020000150        0x1 ./user/my_tim.o
                0x0000000020000150                tim_run
 .data.tim_run_turn
                0x0000000020000151        0x1 ./user/my_tim.o
                0x0000000020000151                tim_run_turn
 *fill*         0x0000000020000152        0x2 
 .data.current_puts
                0x0000000020000154        0x4 ./user/myprintf.o
                0x0000000020000154                current_puts
 .data._impure_ptr
                0x0000000020000158        0x4 d:/st/stm32cubeide_1.8.0/stm32cubeide/plugins/com.st.stm32cube.ide.mcu.externaltools.gnu-tools-for-stm32.9-2020-q2-update.win32_2.0.0.202105311346/tools/bin/../lib/gcc/arm-none-eabi/9.3.1/../../../../arm-none-eabi/lib/thumb/v7e-m+fp/hard\libc_nano.a(lib_a-impure.o)
                0x0000000020000158                _impure_ptr
 .data.impure_data
                0x000000002000015c       0x60 d:/st/stm32cubeide_1.8.0/stm32cubeide/plugins/com.st.stm32cube.ide.mcu.externaltools.gnu-tools-for-stm32.9-2020-q2-update.win32_2.0.0.202105311346/tools/bin/../lib/gcc/arm-none-eabi/9.3.1/../../../../arm-none-eabi/lib/thumb/v7e-m+fp/hard\libc_nano.a(lib_a-impure.o)
 *(.RamFunc)
 *(.RamFunc*)
                0x00000000200001bc                . = ALIGN (0x4)
                0x00000000200001bc                _edata = .

.igot.plt       0x00000000200001bc        0x0 load address 0x000000000802f3d8
 .igot.plt      0x00000000200001bc        0x0 d:/st/stm32cubeide_1.8.0/stm32cubeide/plugins/com.st.stm32cube.ide.mcu.externaltools.gnu-tools-for-stm32.9-2020-q2-update.win32_2.0.0.202105311346/tools/bin/../lib/gcc/arm-none-eabi/9.3.1/thumb/v7e-m+fp/hard/crtbegin.o
                0x00000000200001bc                . = ALIGN (0x4)

.bss            0x00000000200001bc    0x123d4 load address 0x000000000802f3d8
                0x00000000200001bc                _sbss = .
                0x00000000200001bc                __bss_start__ = _sbss
 *(.bss)
 .bss           0x00000000200001bc       0x1c d:/st/stm32cubeide_1.8.0/stm32cubeide/plugins/com.st.stm32cube.ide.mcu.externaltools.gnu-tools-for-stm32.9-2020-q2-update.win32_2.0.0.202105311346/tools/bin/../lib/gcc/arm-none-eabi/9.3.1/thumb/v7e-m+fp/hard/crtbegin.o
 *(.bss*)
 .bss.cnt0.10494
                0x00000000200001d8        0x2 ./Core/Src/freertos.o
 .bss.cnt0.10525
                0x00000000200001da        0x2 ./Core/Src/freertos.o
 .bss.cnt1.10495
                0x00000000200001dc        0x2 ./Core/Src/freertos.o
 .bss.cnt1.10526
                0x00000000200001de        0x2 ./Core/Src/freertos.o
 .bss.cnt2.10496
                0x00000000200001e0        0x2 ./Core/Src/freertos.o
 .bss.cnt2.10527
                0x00000000200001e2        0x2 ./Core/Src/freertos.o
 .bss.cnt3.10497
                0x00000000200001e4        0x2 ./Core/Src/freertos.o
 .bss.cnt3.10528
                0x00000000200001e6        0x2 ./Core/Src/freertos.o
 .bss.cnt4.10498
                0x00000000200001e8        0x2 ./Core/Src/freertos.o
 .bss.cnt4.10529
                0x00000000200001ea        0x2 ./Core/Src/freertos.o
 .bss.__sbrk_heap_end
                0x00000000200001ec        0x4 ./Core/Src/sysmem.o
 .bss.__lock___malloc_recursive_mutex
                0x00000000200001f0        0xc ./Core/ThreadSafe/newlib_lock_glue.o
                0x00000000200001f0                __lock___malloc_recursive_mutex
 .bss.Idle_Stack.10425
                0x00000000200001fc      0x200 ./Middlewares/Third_Party/FreeRTOS/Source/CMSIS_RTOS_V2/cmsis_os2.o
 .bss.Idle_TCB.10424
                0x00000000200003fc       0xbc ./Middlewares/Third_Party/FreeRTOS/Source/CMSIS_RTOS_V2/cmsis_os2.o
 .bss.KernelState
                0x00000000200004b8        0x4 ./Middlewares/Third_Party/FreeRTOS/Source/CMSIS_RTOS_V2/cmsis_os2.o
 .bss.Timer_Stack.10432
                0x00000000200004bc      0x400 ./Middlewares/Third_Party/FreeRTOS/Source/CMSIS_RTOS_V2/cmsis_os2.o
 .bss.Timer_TCB.10431
                0x00000000200008bc       0xbc ./Middlewares/Third_Party/FreeRTOS/Source/CMSIS_RTOS_V2/cmsis_os2.o
 .bss.pxCurrentTCB
                0x0000000020000978        0x4 ./Middlewares/Third_Party/FreeRTOS/Source/tasks.o
                0x0000000020000978                pxCurrentTCB
 .bss.pxDelayedTaskList
                0x000000002000097c        0x4 ./Middlewares/Third_Party/FreeRTOS/Source/tasks.o
 .bss.pxOverflowDelayedTaskList
                0x0000000020000980        0x4 ./Middlewares/Third_Party/FreeRTOS/Source/tasks.o
 .bss.pxReadyTasksLists
                0x0000000020000984      0x460 ./Middlewares/Third_Party/FreeRTOS/Source/tasks.o
 .bss.uxCurrentNumberOfTasks
                0x0000000020000de4        0x4 ./Middlewares/Third_Party/FreeRTOS/Source/tasks.o
 .bss.uxDeletedTasksWaitingCleanUp
                0x0000000020000de8        0x4 ./Middlewares/Third_Party/FreeRTOS/Source/tasks.o
 .bss.uxSchedulerSuspended
                0x0000000020000dec        0x4 ./Middlewares/Third_Party/FreeRTOS/Source/tasks.o
 .bss.uxTaskNumber
                0x0000000020000df0        0x4 ./Middlewares/Third_Party/FreeRTOS/Source/tasks.o
 .bss.uxTopReadyPriority
                0x0000000020000df4        0x4 ./Middlewares/Third_Party/FreeRTOS/Source/tasks.o
 .bss.xDelayedTaskList1
                0x0000000020000df8       0x14 ./Middlewares/Third_Party/FreeRTOS/Source/tasks.o
 .bss.xDelayedTaskList2
                0x0000000020000e0c       0x14 ./Middlewares/Third_Party/FreeRTOS/Source/tasks.o
 .bss.xNextTaskUnblockTime
                0x0000000020000e20        0x4 ./Middlewares/Third_Party/FreeRTOS/Source/tasks.o
 .bss.xNumOfOverflows
                0x0000000020000e24        0x4 ./Middlewares/Third_Party/FreeRTOS/Source/tasks.o
 .bss.xPendedTicks
                0x0000000020000e28        0x4 ./Middlewares/Third_Party/FreeRTOS/Source/tasks.o
 .bss.xPendingReadyList
                0x0000000020000e2c       0x14 ./Middlewares/Third_Party/FreeRTOS/Source/tasks.o
 .bss.xSchedulerRunning
                0x0000000020000e40        0x4 ./Middlewares/Third_Party/FreeRTOS/Source/tasks.o
 .bss.xSuspendedTaskList
                0x0000000020000e44       0x14 ./Middlewares/Third_Party/FreeRTOS/Source/tasks.o
 .bss.xTasksWaitingTermination
                0x0000000020000e58       0x14 ./Middlewares/Third_Party/FreeRTOS/Source/tasks.o
 .bss.xTickCount
                0x0000000020000e6c        0x4 ./Middlewares/Third_Party/FreeRTOS/Source/tasks.o
 .bss.xYieldPending
                0x0000000020000e70        0x4 ./Middlewares/Third_Party/FreeRTOS/Source/tasks.o
 .bss.pxCurrentTimerList
                0x0000000020000e74        0x4 ./Middlewares/Third_Party/FreeRTOS/Source/timers.o
 .bss.pxOverflowTimerList
                0x0000000020000e78        0x4 ./Middlewares/Third_Party/FreeRTOS/Source/timers.o
 .bss.ucStaticTimerQueueStorage.7064
                0x0000000020000e7c       0xa0 ./Middlewares/Third_Party/FreeRTOS/Source/timers.o
 .bss.xActiveTimerList1
                0x0000000020000f1c       0x14 ./Middlewares/Third_Party/FreeRTOS/Source/timers.o
 .bss.xActiveTimerList2
                0x0000000020000f30       0x14 ./Middlewares/Third_Party/FreeRTOS/Source/timers.o
 .bss.xLastTime.7013
                0x0000000020000f44        0x4 ./Middlewares/Third_Party/FreeRTOS/Source/timers.o
 .bss.xStaticTimerQueue.7063
                0x0000000020000f48       0x50 ./Middlewares/Third_Party/FreeRTOS/Source/timers.o
 .bss.xTimerQueue
                0x0000000020000f98        0x4 ./Middlewares/Third_Party/FreeRTOS/Source/timers.o
 .bss.xTimerTaskHandle
                0x0000000020000f9c        0x4 ./Middlewares/Third_Party/FreeRTOS/Source/timers.o
 .bss.ucMaxSysCallPriority
                0x0000000020000fa0        0x1 ./Middlewares/Third_Party/FreeRTOS/Source/portable/GCC/ARM_CM4F/port.o
 *fill*         0x0000000020000fa1        0x3 
 .bss.ulMaxPRIGROUPValue
                0x0000000020000fa4        0x4 ./Middlewares/Third_Party/FreeRTOS/Source/portable/GCC/ARM_CM4F/port.o
 .bss.pxEnd     0x0000000020000fa8        0x4 ./Middlewares/Third_Party/FreeRTOS/Source/portable/MemMang/heap_4.o
 .bss.ucHeap    0x0000000020000fac    0x10000 ./Middlewares/Third_Party/FreeRTOS/Source/portable/MemMang/heap_4.o
 .bss.xBlockAllocatedBit
                0x0000000020010fac        0x4 ./Middlewares/Third_Party/FreeRTOS/Source/portable/MemMang/heap_4.o
 .bss.xFreeBytesRemaining
                0x0000000020010fb0        0x4 ./Middlewares/Third_Party/FreeRTOS/Source/portable/MemMang/heap_4.o
 .bss.xMinimumEverFreeBytesRemaining
                0x0000000020010fb4        0x4 ./Middlewares/Third_Party/FreeRTOS/Source/portable/MemMang/heap_4.o
 .bss.xNumberOfSuccessfulAllocations
                0x0000000020010fb8        0x4 ./Middlewares/Third_Party/FreeRTOS/Source/portable/MemMang/heap_4.o
 .bss.xNumberOfSuccessfulFrees
                0x0000000020010fbc        0x4 ./Middlewares/Third_Party/FreeRTOS/Source/portable/MemMang/heap_4.o
 .bss.xStart    0x0000000020010fc0        0x8 ./Middlewares/Third_Party/FreeRTOS/Source/portable/MemMang/heap_4.o
 .bss.cnt.9671  0x0000000020010fc8        0x1 ./user/detect.o
 .bss.cnt.9690  0x0000000020010fc9        0x1 ./user/detect.o
 .bss.cnt.9711  0x0000000020010fca        0x1 ./user/detect.o
 .bss.cnt.9785  0x0000000020010fcb        0x1 ./user/detect.o
 .bss.pic_val_bk.10347
                0x0000000020010fcc        0x2 ./user/display.o
 .bss.pic_val_bk.10357
                0x0000000020010fce        0x2 ./user/display.o
 .bss.DataVar   0x0000000020010fd0        0x2 ./user/eeprom.o
                0x0000000020010fd0                DataVar
 *fill*         0x0000000020010fd2        0x2 
 .bss.my_tic    0x0000000020010fd4       0x14 ./user/my_tim.o
                0x0000000020010fd4                my_tic
 .bss.tickCnt   0x0000000020010fe8        0x4 ./user/soft_timer.o
                0x0000000020010fe8                tickCnt
 .bss.timer     0x0000000020010fec      0x140 ./user/soft_timer.o
 .bss.__malloc_free_list
                0x000000002001112c        0x4 d:/st/stm32cubeide_1.8.0/stm32cubeide/plugins/com.st.stm32cube.ide.mcu.externaltools.gnu-tools-for-stm32.9-2020-q2-update.win32_2.0.0.202105311346/tools/bin/../lib/gcc/arm-none-eabi/9.3.1/../../../../arm-none-eabi/lib/thumb/v7e-m+fp/hard\libc_nano.a(lib_a-nano-mallocr.o)
                0x000000002001112c                __malloc_free_list
 .bss.__malloc_sbrk_start
                0x0000000020011130        0x4 d:/st/stm32cubeide_1.8.0/stm32cubeide/plugins/com.st.stm32cube.ide.mcu.externaltools.gnu-tools-for-stm32.9-2020-q2-update.win32_2.0.0.202105311346/tools/bin/../lib/gcc/arm-none-eabi/9.3.1/../../../../arm-none-eabi/lib/thumb/v7e-m+fp/hard\libc_nano.a(lib_a-nano-mallocr.o)
                0x0000000020011130                __malloc_sbrk_start
 *(COMMON)
 COMMON         0x0000000020011134       0x60 ./Core/Src/freertos.o
                0x0000000020011134                defaultTaskHandle
                0x0000000020011138                myBinarySem05Handle
                0x000000002001113c                myEvent01Handle
                0x0000000020011140                myTask05Handle
                0x0000000020011144                myTask04Handle
                0x0000000020011148                myBinarySem03Handle
                0x000000002001114c                time_start_st
                0x0000000020011164                myEvent02Handle
                0x0000000020011168                myBinarySem02Handle
                0x000000002001116c                myTask02Handle
                0x0000000020011170                myBinarySem01Handle
                0x0000000020011174                myTask03Handle
                0x0000000020011178                myQueueUsart1Handle
                0x000000002001117c                myQueueUsart6Handle
                0x0000000020011180                myMutex01Handle
                0x0000000020011184                myMutex02Handle
                0x0000000020011188                myQueueUsart3Handle
                0x000000002001118c                myTask06Handle
                0x0000000020011190                myBinarySem04Handle
 COMMON         0x0000000020011194        0xc ./Core/Src/iwdg.o
                0x0000000020011194                hiwdg
 COMMON         0x00000000200111a0       0x20 ./Core/Src/rtc.o
                0x00000000200111a0                hrtc
 COMMON         0x00000000200111c0       0x48 ./Core/Src/stm32f4xx_hal_timebase_tim.o
                0x00000000200111c0                htim2
 COMMON         0x0000000020011208       0xd8 ./Core/Src/tim.o
                0x0000000020011208                htim10
                0x0000000020011250                htim6
                0x0000000020011298                htim7
 COMMON         0x00000000200112e0      0x30c ./Core/Src/usart.o
                0x00000000200112e0                hdma_usart6_rx
                0x0000000020011340                hdma_usart3_rx
                0x00000000200113a0                huart3
                0x00000000200113e4                hdma_usart3_tx
                0x0000000020011444                hdma_usart1_tx
                0x00000000200114a4                hdma_usart6_tx
                0x0000000020011504                hdma_usart1_rx
                0x0000000020011564                huart1
                0x00000000200115a8                huart6
 COMMON         0x00000000200115ec        0x4 ./Drivers/STM32F4xx_HAL_Driver/Src/stm32f4xx_hal.o
                0x00000000200115ec                uwTick
 COMMON         0x00000000200115f0       0x20 ./Drivers/STM32F4xx_HAL_Driver/Src/stm32f4xx_hal_flash.o
                0x00000000200115f0                pFlash
 COMMON         0x0000000020011610       0x40 ./Middlewares/Third_Party/FreeRTOS/Source/queue.o
                0x0000000020011610                xQueueRegistry
 COMMON         0x0000000020011650      0x245 ./user/detect.o
                0x0000000020011650                keyboard_buff
                0x000000002001165c                gate_buff
                0x0000000020011668                keycatch_result
                0x000000002001166c                keystop_buff
                0x0000000020011678                gate_result
                0x000000002001167c                keypush_buff
                0x0000000020011688                keypush_result
                0x000000002001168c                keyrun_result
                0x0000000020011690                start_stop_st
                0x0000000020011694                keyemg_result
                0x0000000020011698                keyboard_result
                0x000000002001169c                keystop_result
                0x00000000200116a0                keyturn_result
                0x00000000200116a4                keycatch_buff
                0x00000000200116b0                keyrun_buff
                0x00000000200116bc                dpt
                0x0000000020011850                keyturn_buff
                0x000000002001185c                gate2_buff
                0x0000000020011868                keymod_result
                0x000000002001186c                keyemg_buff
                0x0000000020011878                keyhead_result
                0x000000002001187c                keymod_buff
                0x0000000020011888                keyhead_buff
                0x0000000020011894                gate2_result
 *fill*         0x0000000020011895        0x3 
 COMMON         0x0000000020011898      0x81e ./user/dev_usart.o
                0x0000000020011898                usart1_rx
                0x000000002001199c                Usart1_Type
                0x0000000020011aa0                usart6_rx
                0x0000000020011ba4                Usart2_Type
                0x0000000020011ca8                Usart3_Type
                0x0000000020011dac                usart2_rx
                0x0000000020011eb0                Usart6_Type
                0x0000000020011fb4                usart3_rx
 *fill*         0x00000000200120b6        0x2 
 COMMON         0x00000000200120b8       0x6c ./user/display.o
                0x00000000200120b8                log_para_st
                0x00000000200120ec                time_st
                0x0000000020012104                tim_para_st
                0x0000000020012108                warn_out_st
                0x000000002001210c                time_get_st
 COMMON         0x0000000020012124      0x1fe ./user/eeprom.o
                0x0000000020012124                VirtAddVarTab
 *fill*         0x0000000020012322        0x2 
 COMMON         0x0000000020012324      0x1cd ./user/io_ctrl.o
                0x0000000020012324                osthd_st
                0x0000000020012330                relief_st
                0x0000000020012338                set_para_st
                0x0000000020012360                op_para_st
                0x000000002001236c                src_press_st
                0x0000000020012394                screen_ini_st
                0x0000000020012398                scr_state_st
                0x00000000200123b0                scr_operate_st
                0x00000000200123d0                fst_tips_st
                0x00000000200123d4                screen_prot
                0x00000000200124ec                out_state_st
 *fill*         0x00000000200124f1        0x3 
 COMMON         0x00000000200124f4       0x88 ./user/my_tim.o
                0x00000000200124f4                warn_st
                0x000000002001251c                warn_bk_st
                0x0000000020012544                para_check_st
 COMMON         0x000000002001257c        0xe ./user/sysguard.o
                0x000000002001257c                sys_guard
 *fill*         0x000000002001258a        0x2 
 COMMON         0x000000002001258c        0x4 d:/st/stm32cubeide_1.8.0/stm32cubeide/plugins/com.st.stm32cube.ide.mcu.externaltools.gnu-tools-for-stm32.9-2020-q2-update.win32_2.0.0.202105311346/tools/bin/../lib/gcc/arm-none-eabi/9.3.1/../../../../arm-none-eabi/lib/thumb/v7e-m+fp/hard\libc_nano.a(lib_a-reent.o)
                0x000000002001258c                errno
                0x0000000020012590                . = ALIGN (0x4)
                0x0000000020012590                _ebss = .
                0x0000000020012590                __bss_end__ = _ebss

._user_heap_stack
                0x0000000020012590     0x6000 load address 0x000000000802f3d8
                0x0000000020012590                . = ALIGN (0x8)
                [!provide]                        PROVIDE (end = .)
                0x0000000020012590                PROVIDE (_end = .)
                0x0000000020014590                . = (. + _Min_Heap_Size)
 *fill*         0x0000000020012590     0x2000 
                0x0000000020018590                . = (. + _Min_Stack_Size)
 *fill*         0x0000000020014590     0x4000 
                0x0000000020018590                . = ALIGN (0x8)

/DISCARD/
 libc.a(*)
 libm.a(*)
 libgcc.a(*)

.ARM.attributes
                0x0000000000000000       0x30
 *(.ARM.attributes)
 .ARM.attributes
                0x0000000000000000       0x1e d:/st/stm32cubeide_1.8.0/stm32cubeide/plugins/com.st.stm32cube.ide.mcu.externaltools.gnu-tools-for-stm32.9-2020-q2-update.win32_2.0.0.202105311346/tools/bin/../lib/gcc/arm-none-eabi/9.3.1/thumb/v7e-m+fp/hard/crti.o
 .ARM.attributes
                0x000000000000001e       0x34 d:/st/stm32cubeide_1.8.0/stm32cubeide/plugins/com.st.stm32cube.ide.mcu.externaltools.gnu-tools-for-stm32.9-2020-q2-update.win32_2.0.0.202105311346/tools/bin/../lib/gcc/arm-none-eabi/9.3.1/thumb/v7e-m+fp/hard/crtbegin.o
 .ARM.attributes
                0x0000000000000052       0x34 ./Core/Src/dma.o
 .ARM.attributes
                0x0000000000000086       0x34 ./Core/Src/freertos.o
 .ARM.attributes
                0x00000000000000ba       0x34 ./Core/Src/gpio.o
 .ARM.attributes
                0x00000000000000ee       0x34 ./Core/Src/iwdg.o
 .ARM.attributes
                0x0000000000000122       0x34 ./Core/Src/main.o
 .ARM.attributes
                0x0000000000000156       0x34 ./Core/Src/rtc.o
 .ARM.attributes
                0x000000000000018a       0x34 ./Core/Src/stm32f4xx_hal_msp.o
 .ARM.attributes
                0x00000000000001be       0x34 ./Core/Src/stm32f4xx_hal_timebase_tim.o
 .ARM.attributes
                0x00000000000001f2       0x34 ./Core/Src/stm32f4xx_it.o
 .ARM.attributes
                0x0000000000000226       0x34 ./Core/Src/sysmem.o
 .ARM.attributes
                0x000000000000025a       0x34 ./Core/Src/system_stm32f4xx.o
 .ARM.attributes
                0x000000000000028e       0x34 ./Core/Src/tim.o
 .ARM.attributes
                0x00000000000002c2       0x34 ./Core/Src/usart.o
 .ARM.attributes
                0x00000000000002f6       0x21 ./Core/Startup/startup_stm32f412retx.o
 .ARM.attributes
                0x0000000000000317       0x34 ./Core/ThreadSafe/newlib_lock_glue.o
 .ARM.attributes
                0x000000000000034b       0x34 ./Drivers/STM32F4xx_HAL_Driver/Src/stm32f4xx_hal.o
 .ARM.attributes
                0x000000000000037f       0x34 ./Drivers/STM32F4xx_HAL_Driver/Src/stm32f4xx_hal_cortex.o
 .ARM.attributes
                0x00000000000003b3       0x34 ./Drivers/STM32F4xx_HAL_Driver/Src/stm32f4xx_hal_dma.o
 .ARM.attributes
                0x00000000000003e7       0x34 ./Drivers/STM32F4xx_HAL_Driver/Src/stm32f4xx_hal_flash.o
 .ARM.attributes
                0x000000000000041b       0x34 ./Drivers/STM32F4xx_HAL_Driver/Src/stm32f4xx_hal_flash_ex.o
 .ARM.attributes
                0x000000000000044f       0x34 ./Drivers/STM32F4xx_HAL_Driver/Src/stm32f4xx_hal_gpio.o
 .ARM.attributes
                0x0000000000000483       0x34 ./Drivers/STM32F4xx_HAL_Driver/Src/stm32f4xx_hal_iwdg.o
 .ARM.attributes
                0x00000000000004b7       0x34 ./Drivers/STM32F4xx_HAL_Driver/Src/stm32f4xx_hal_rcc.o
 .ARM.attributes
                0x00000000000004eb       0x34 ./Drivers/STM32F4xx_HAL_Driver/Src/stm32f4xx_hal_rcc_ex.o
 .ARM.attributes
                0x000000000000051f       0x34 ./Drivers/STM32F4xx_HAL_Driver/Src/stm32f4xx_hal_rtc.o
 .ARM.attributes
                0x0000000000000553       0x34 ./Drivers/STM32F4xx_HAL_Driver/Src/stm32f4xx_hal_tim.o
 .ARM.attributes
                0x0000000000000587       0x34 ./Drivers/STM32F4xx_HAL_Driver/Src/stm32f4xx_hal_tim_ex.o
 .ARM.attributes
                0x00000000000005bb       0x34 ./Drivers/STM32F4xx_HAL_Driver/Src/stm32f4xx_hal_uart.o
 .ARM.attributes
                0x00000000000005ef       0x34 ./Middlewares/Third_Party/FreeRTOS/Source/CMSIS_RTOS_V2/cmsis_os2.o
 .ARM.attributes
                0x0000000000000623       0x34 ./Middlewares/Third_Party/FreeRTOS/Source/event_groups.o
 .ARM.attributes
                0x0000000000000657       0x34 ./Middlewares/Third_Party/FreeRTOS/Source/list.o
 .ARM.attributes
                0x000000000000068b       0x34 ./Middlewares/Third_Party/FreeRTOS/Source/queue.o
 .ARM.attributes
                0x00000000000006bf       0x34 ./Middlewares/Third_Party/FreeRTOS/Source/tasks.o
 .ARM.attributes
                0x00000000000006f3       0x34 ./Middlewares/Third_Party/FreeRTOS/Source/timers.o
 .ARM.attributes
                0x0000000000000727       0x34 ./Middlewares/Third_Party/FreeRTOS/Source/portable/GCC/ARM_CM4F/port.o
 .ARM.attributes
                0x000000000000075b       0x34 ./Middlewares/Third_Party/FreeRTOS/Source/portable/MemMang/heap_4.o
 .ARM.attributes
                0x000000000000078f       0x34 ./user/detect.o
 .ARM.attributes
                0x00000000000007c3       0x34 ./user/dev_usart.o
 .ARM.attributes
                0x00000000000007f7       0x34 ./user/display.o
 .ARM.attributes
                0x000000000000082b       0x34 ./user/eeprom.o
 .ARM.attributes
                0x000000000000085f       0x34 ./user/io_ctrl.o
 .ARM.attributes
                0x0000000000000893       0x34 ./user/my_tim.o
 .ARM.attributes
                0x00000000000008c7       0x34 ./user/myprintf.o
 .ARM.attributes
                0x00000000000008fb       0x34 ./user/soft_timer.o
 .ARM.attributes
                0x000000000000092f       0x34 ./user/sysguard.o
 .ARM.attributes
                0x0000000000000963       0x32 d:/st/stm32cubeide_1.8.0/stm32cubeide/plugins/com.st.stm32cube.ide.mcu.externaltools.gnu-tools-for-stm32.9-2020-q2-update.win32_2.0.0.202105311346/tools/bin/../lib/gcc/arm-none-eabi/9.3.1/../../../../arm-none-eabi/lib/thumb/v7e-m+fp/hard\libc_nano.a(lib_a-ctype_.o)
 .ARM.attributes
                0x0000000000000995       0x34 d:/st/stm32cubeide_1.8.0/stm32cubeide/plugins/com.st.stm32cube.ide.mcu.externaltools.gnu-tools-for-stm32.9-2020-q2-update.win32_2.0.0.202105311346/tools/bin/../lib/gcc/arm-none-eabi/9.3.1/../../../../arm-none-eabi/lib/thumb/v7e-m+fp/hard\libc_nano.a(lib_a-errno.o)
 .ARM.attributes
                0x00000000000009c9       0x34 d:/st/stm32cubeide_1.8.0/stm32cubeide/plugins/com.st.stm32cube.ide.mcu.externaltools.gnu-tools-for-stm32.9-2020-q2-update.win32_2.0.0.202105311346/tools/bin/../lib/gcc/arm-none-eabi/9.3.1/../../../../arm-none-eabi/lib/thumb/v7e-m+fp/hard\libc_nano.a(lib_a-findfp.o)
 .ARM.attributes
                0x00000000000009fd       0x32 d:/st/stm32cubeide_1.8.0/stm32cubeide/plugins/com.st.stm32cube.ide.mcu.externaltools.gnu-tools-for-stm32.9-2020-q2-update.win32_2.0.0.202105311346/tools/bin/../lib/gcc/arm-none-eabi/9.3.1/../../../../arm-none-eabi/lib/thumb/v7e-m+fp/hard\libc_nano.a(lib_a-impure.o)
 .ARM.attributes
                0x0000000000000a2f       0x34 d:/st/stm32cubeide_1.8.0/stm32cubeide/plugins/com.st.stm32cube.ide.mcu.externaltools.gnu-tools-for-stm32.9-2020-q2-update.win32_2.0.0.202105311346/tools/bin/../lib/gcc/arm-none-eabi/9.3.1/../../../../arm-none-eabi/lib/thumb/v7e-m+fp/hard\libc_nano.a(lib_a-init.o)
 .ARM.attributes
                0x0000000000000a63       0x34 d:/st/stm32cubeide_1.8.0/stm32cubeide/plugins/com.st.stm32cube.ide.mcu.externaltools.gnu-tools-for-stm32.9-2020-q2-update.win32_2.0.0.202105311346/tools/bin/../lib/gcc/arm-none-eabi/9.3.1/../../../../arm-none-eabi/lib/thumb/v7e-m+fp/hard\libc_nano.a(lib_a-memcpy-stub.o)
 .ARM.attributes
                0x0000000000000a97       0x34 d:/st/stm32cubeide_1.8.0/stm32cubeide/plugins/com.st.stm32cube.ide.mcu.externaltools.gnu-tools-for-stm32.9-2020-q2-update.win32_2.0.0.202105311346/tools/bin/../lib/gcc/arm-none-eabi/9.3.1/../../../../arm-none-eabi/lib/thumb/v7e-m+fp/hard\libc_nano.a(lib_a-memset.o)
 .ARM.attributes
                0x0000000000000acb       0x34 d:/st/stm32cubeide_1.8.0/stm32cubeide/plugins/com.st.stm32cube.ide.mcu.externaltools.gnu-tools-for-stm32.9-2020-q2-update.win32_2.0.0.202105311346/tools/bin/../lib/gcc/arm-none-eabi/9.3.1/../../../../arm-none-eabi/lib/thumb/v7e-m+fp/hard\libc_nano.a(lib_a-nano-freer.o)
 .ARM.attributes
                0x0000000000000aff       0x34 d:/st/stm32cubeide_1.8.0/stm32cubeide/plugins/com.st.stm32cube.ide.mcu.externaltools.gnu-tools-for-stm32.9-2020-q2-update.win32_2.0.0.202105311346/tools/bin/../lib/gcc/arm-none-eabi/9.3.1/../../../../arm-none-eabi/lib/thumb/v7e-m+fp/hard\libc_nano.a(lib_a-nano-mallocr.o)
 .ARM.attributes
                0x0000000000000b33       0x34 d:/st/stm32cubeide_1.8.0/stm32cubeide/plugins/com.st.stm32cube.ide.mcu.externaltools.gnu-tools-for-stm32.9-2020-q2-update.win32_2.0.0.202105311346/tools/bin/../lib/gcc/arm-none-eabi/9.3.1/../../../../arm-none-eabi/lib/thumb/v7e-m+fp/hard\libc_nano.a(lib_a-reent.o)
 .ARM.attributes
                0x0000000000000b67       0x34 d:/st/stm32cubeide_1.8.0/stm32cubeide/plugins/com.st.stm32cube.ide.mcu.externaltools.gnu-tools-for-stm32.9-2020-q2-update.win32_2.0.0.202105311346/tools/bin/../lib/gcc/arm-none-eabi/9.3.1/../../../../arm-none-eabi/lib/thumb/v7e-m+fp/hard\libc_nano.a(lib_a-sbrkr.o)
 .ARM.attributes
                0x0000000000000b9b       0x34 d:/st/stm32cubeide_1.8.0/stm32cubeide/plugins/com.st.stm32cube.ide.mcu.externaltools.gnu-tools-for-stm32.9-2020-q2-update.win32_2.0.0.202105311346/tools/bin/../lib/gcc/arm-none-eabi/9.3.1/../../../../arm-none-eabi/lib/thumb/v7e-m+fp/hard\libc_nano.a(lib_a-sprintf.o)
 .ARM.attributes
                0x0000000000000bcf       0x17 d:/st/stm32cubeide_1.8.0/stm32cubeide/plugins/com.st.stm32cube.ide.mcu.externaltools.gnu-tools-for-stm32.9-2020-q2-update.win32_2.0.0.202105311346/tools/bin/../lib/gcc/arm-none-eabi/9.3.1/../../../../arm-none-eabi/lib/thumb/v7e-m+fp/hard\libc_nano.a(lib_a-strlen.o)
 .ARM.attributes
                0x0000000000000be6       0x34 d:/st/stm32cubeide_1.8.0/stm32cubeide/plugins/com.st.stm32cube.ide.mcu.externaltools.gnu-tools-for-stm32.9-2020-q2-update.win32_2.0.0.202105311346/tools/bin/../lib/gcc/arm-none-eabi/9.3.1/../../../../arm-none-eabi/lib/thumb/v7e-m+fp/hard\libc_nano.a(lib_a-mlock.o)
 .ARM.attributes
                0x0000000000000c1a       0x34 d:/st/stm32cubeide_1.8.0/stm32cubeide/plugins/com.st.stm32cube.ide.mcu.externaltools.gnu-tools-for-stm32.9-2020-q2-update.win32_2.0.0.202105311346/tools/bin/../lib/gcc/arm-none-eabi/9.3.1/../../../../arm-none-eabi/lib/thumb/v7e-m+fp/hard\libc_nano.a(lib_a-nano-svfprintf.o)
 .ARM.attributes
                0x0000000000000c4e       0x34 d:/st/stm32cubeide_1.8.0/stm32cubeide/plugins/com.st.stm32cube.ide.mcu.externaltools.gnu-tools-for-stm32.9-2020-q2-update.win32_2.0.0.202105311346/tools/bin/../lib/gcc/arm-none-eabi/9.3.1/../../../../arm-none-eabi/lib/thumb/v7e-m+fp/hard\libc_nano.a(lib_a-nano-vfprintf_i.o)
 .ARM.attributes
                0x0000000000000c82       0x1c d:/st/stm32cubeide_1.8.0/stm32cubeide/plugins/com.st.stm32cube.ide.mcu.externaltools.gnu-tools-for-stm32.9-2020-q2-update.win32_2.0.0.202105311346/tools/bin/../lib/gcc/arm-none-eabi/9.3.1/../../../../arm-none-eabi/lib/thumb/v7e-m+fp/hard\libc_nano.a(lib_a-memchr.o)
 .ARM.attributes
                0x0000000000000c9e       0x34 d:/st/stm32cubeide_1.8.0/stm32cubeide/plugins/com.st.stm32cube.ide.mcu.externaltools.gnu-tools-for-stm32.9-2020-q2-update.win32_2.0.0.202105311346/tools/bin/../lib/gcc/arm-none-eabi/9.3.1/../../../../arm-none-eabi/lib/thumb/v7e-m+fp/hard\libc_nano.a(lib_a-memmove.o)
 .ARM.attributes
                0x0000000000000cd2       0x34 d:/st/stm32cubeide_1.8.0/stm32cubeide/plugins/com.st.stm32cube.ide.mcu.externaltools.gnu-tools-for-stm32.9-2020-q2-update.win32_2.0.0.202105311346/tools/bin/../lib/gcc/arm-none-eabi/9.3.1/../../../../arm-none-eabi/lib/thumb/v7e-m+fp/hard\libc_nano.a(lib_a-nano-reallocr.o)
 .ARM.attributes
                0x0000000000000d06       0x34 d:/st/stm32cubeide_1.8.0/stm32cubeide/plugins/com.st.stm32cube.ide.mcu.externaltools.gnu-tools-for-stm32.9-2020-q2-update.win32_2.0.0.202105311346/tools/bin/../lib/gcc/arm-none-eabi/9.3.1/../../../../arm-none-eabi/lib/thumb/v7e-m+fp/hard\libc_nano.a(lib_a-nano-msizer.o)
 .ARM.attributes
                0x0000000000000d3a       0x1e d:/st/stm32cubeide_1.8.0/stm32cubeide/plugins/com.st.stm32cube.ide.mcu.externaltools.gnu-tools-for-stm32.9-2020-q2-update.win32_2.0.0.202105311346/tools/bin/../lib/gcc/arm-none-eabi/9.3.1/thumb/v7e-m+fp/hard\libgcc.a(_arm_truncdfsf2.o)
 .ARM.attributes
                0x0000000000000d58       0x1e d:/st/stm32cubeide_1.8.0/stm32cubeide/plugins/com.st.stm32cube.ide.mcu.externaltools.gnu-tools-for-stm32.9-2020-q2-update.win32_2.0.0.202105311346/tools/bin/../lib/gcc/arm-none-eabi/9.3.1/thumb/v7e-m+fp/hard\libgcc.a(_aeabi_uldivmod.o)
 .ARM.attributes
                0x0000000000000d76       0x34 d:/st/stm32cubeide_1.8.0/stm32cubeide/plugins/com.st.stm32cube.ide.mcu.externaltools.gnu-tools-for-stm32.9-2020-q2-update.win32_2.0.0.202105311346/tools/bin/../lib/gcc/arm-none-eabi/9.3.1/thumb/v7e-m+fp/hard\libgcc.a(_udivmoddi4.o)
 .ARM.attributes
                0x0000000000000daa       0x1e d:/st/stm32cubeide_1.8.0/stm32cubeide/plugins/com.st.stm32cube.ide.mcu.externaltools.gnu-tools-for-stm32.9-2020-q2-update.win32_2.0.0.202105311346/tools/bin/../lib/gcc/arm-none-eabi/9.3.1/thumb/v7e-m+fp/hard\libgcc.a(_dvmd_tls.o)
 .ARM.attributes
                0x0000000000000dc8       0x1e d:/st/stm32cubeide_1.8.0/stm32cubeide/plugins/com.st.stm32cube.ide.mcu.externaltools.gnu-tools-for-stm32.9-2020-q2-update.win32_2.0.0.202105311346/tools/bin/../lib/gcc/arm-none-eabi/9.3.1/thumb/v7e-m+fp/hard/crtn.o
OUTPUT(PACKER.elf elf32-littlearm)
LOAD linker stubs
LOAD d:/st/stm32cubeide_1.8.0/stm32cubeide/plugins/com.st.stm32cube.ide.mcu.externaltools.gnu-tools-for-stm32.9-2020-q2-update.win32_2.0.0.202105311346/tools/bin/../lib/gcc/arm-none-eabi/9.3.1/../../../../arm-none-eabi/lib/thumb/v7e-m+fp/hard\libc.a
LOAD d:/st/stm32cubeide_1.8.0/stm32cubeide/plugins/com.st.stm32cube.ide.mcu.externaltools.gnu-tools-for-stm32.9-2020-q2-update.win32_2.0.0.202105311346/tools/bin/../lib/gcc/arm-none-eabi/9.3.1/../../../../arm-none-eabi/lib/thumb/v7e-m+fp/hard\libm.a
LOAD d:/st/stm32cubeide_1.8.0/stm32cubeide/plugins/com.st.stm32cube.ide.mcu.externaltools.gnu-tools-for-stm32.9-2020-q2-update.win32_2.0.0.202105311346/tools/bin/../lib/gcc/arm-none-eabi/9.3.1/thumb/v7e-m+fp/hard\libgcc.a

.debug_info     0x0000000000000000    0x482cc
 .debug_info    0x0000000000000000      0x72b ./Core/Src/dma.o
 .debug_info    0x000000000000072b     0x2f75 ./Core/Src/freertos.o
 .debug_info    0x00000000000036a0      0x69e ./Core/Src/gpio.o
 .debug_info    0x0000000000003d3e      0x2c3 ./Core/Src/iwdg.o
 .debug_info    0x0000000000004001     0x2dd2 ./Core/Src/main.o
 .debug_info    0x0000000000006dd3      0x89e ./Core/Src/rtc.o
 .debug_info    0x0000000000007671      0x60e ./Core/Src/stm32f4xx_hal_msp.o
 .debug_info    0x0000000000007c7f      0xd76 ./Core/Src/stm32f4xx_hal_timebase_tim.o
 .debug_info    0x00000000000089f5      0xec3 ./Core/Src/stm32f4xx_it.o
 .debug_info    0x00000000000098b8      0xa3e ./Core/Src/sysmem.o
 .debug_info    0x000000000000a2f6      0x5f5 ./Core/Src/system_stm32f4xx.o
 .debug_info    0x000000000000a8eb      0xe57 ./Core/Src/tim.o
 .debug_info    0x000000000000b742     0x1180 ./Core/Src/usart.o
 .debug_info    0x000000000000c8c2       0x22 ./Core/Startup/startup_stm32f412retx.o
 .debug_info    0x000000000000c8e4     0x147d ./Core/ThreadSafe/newlib_lock_glue.o
 .debug_info    0x000000000000dd61      0xace ./Drivers/STM32F4xx_HAL_Driver/Src/stm32f4xx_hal.o
 .debug_info    0x000000000000e82f     0x13ea ./Drivers/STM32F4xx_HAL_Driver/Src/stm32f4xx_hal_cortex.o
 .debug_info    0x000000000000fc19      0xdf5 ./Drivers/STM32F4xx_HAL_Driver/Src/stm32f4xx_hal_dma.o
 .debug_info    0x0000000000010a0e      0x92c ./Drivers/STM32F4xx_HAL_Driver/Src/stm32f4xx_hal_flash.o
 .debug_info    0x000000000001133a      0xdaa ./Drivers/STM32F4xx_HAL_Driver/Src/stm32f4xx_hal_flash_ex.o
 .debug_info    0x00000000000120e4      0xa6d ./Drivers/STM32F4xx_HAL_Driver/Src/stm32f4xx_hal_gpio.o
 .debug_info    0x0000000000012b51      0x35c ./Drivers/STM32F4xx_HAL_Driver/Src/stm32f4xx_hal_iwdg.o
 .debug_info    0x0000000000012ead      0xe41 ./Drivers/STM32F4xx_HAL_Driver/Src/stm32f4xx_hal_rcc.o
 .debug_info    0x0000000000013cee      0xed6 ./Drivers/STM32F4xx_HAL_Driver/Src/stm32f4xx_hal_rcc_ex.o
 .debug_info    0x0000000000014bc4     0x1ab6 ./Drivers/STM32F4xx_HAL_Driver/Src/stm32f4xx_hal_rtc.o
 .debug_info    0x000000000001667a     0x5437 ./Drivers/STM32F4xx_HAL_Driver/Src/stm32f4xx_hal_tim.o
 .debug_info    0x000000000001bab1     0x21bc ./Drivers/STM32F4xx_HAL_Driver/Src/stm32f4xx_hal_tim_ex.o
 .debug_info    0x000000000001dc6d     0x4601 ./Drivers/STM32F4xx_HAL_Driver/Src/stm32f4xx_hal_uart.o
 .debug_info    0x000000000002226e     0x547d ./Middlewares/Third_Party/FreeRTOS/Source/CMSIS_RTOS_V2/cmsis_os2.o
 .debug_info    0x00000000000276eb     0x182d ./Middlewares/Third_Party/FreeRTOS/Source/event_groups.o
 .debug_info    0x0000000000028f18      0xb95 ./Middlewares/Third_Party/FreeRTOS/Source/list.o
 .debug_info    0x0000000000029aad     0x30c0 ./Middlewares/Third_Party/FreeRTOS/Source/queue.o
 .debug_info    0x000000000002cb6d     0x3aec ./Middlewares/Third_Party/FreeRTOS/Source/tasks.o
 .debug_info    0x0000000000030659     0x2388 ./Middlewares/Third_Party/FreeRTOS/Source/timers.o
 .debug_info    0x00000000000329e1      0xe24 ./Middlewares/Third_Party/FreeRTOS/Source/portable/GCC/ARM_CM4F/port.o
 .debug_info    0x0000000000033805      0xedd ./Middlewares/Third_Party/FreeRTOS/Source/portable/MemMang/heap_4.o
 .debug_info    0x00000000000346e2     0x26c0 ./user/detect.o
 .debug_info    0x0000000000036da2     0x1fc8 ./user/dev_usart.o
 .debug_info    0x0000000000038d6a     0x3336 ./user/display.o
 .debug_info    0x000000000003c0a0      0xaa2 ./user/eeprom.o
 .debug_info    0x000000000003cb42     0x5e92 ./user/io_ctrl.o
 .debug_info    0x00000000000429d4     0x19c6 ./user/my_tim.o
 .debug_info    0x000000000004439a     0x14c0 ./user/myprintf.o
 .debug_info    0x000000000004585a     0x25d0 ./user/soft_timer.o
 .debug_info    0x0000000000047e2a      0x4a2 ./user/sysguard.o

.debug_abbrev   0x0000000000000000     0x78ec
 .debug_abbrev  0x0000000000000000      0x156 ./Core/Src/dma.o
 .debug_abbrev  0x0000000000000156      0x351 ./Core/Src/freertos.o
 .debug_abbrev  0x00000000000004a7      0x17e ./Core/Src/gpio.o
 .debug_abbrev  0x0000000000000625      0x158 ./Core/Src/iwdg.o
 .debug_abbrev  0x000000000000077d      0x323 ./Core/Src/main.o
 .debug_abbrev  0x0000000000000aa0      0x1c3 ./Core/Src/rtc.o
 .debug_abbrev  0x0000000000000c63      0x149 ./Core/Src/stm32f4xx_hal_msp.o
 .debug_abbrev  0x0000000000000dac      0x21c ./Core/Src/stm32f4xx_hal_timebase_tim.o
 .debug_abbrev  0x0000000000000fc8      0x1f8 ./Core/Src/stm32f4xx_it.o
 .debug_abbrev  0x00000000000011c0      0x203 ./Core/Src/sysmem.o
 .debug_abbrev  0x00000000000013c3      0x14b ./Core/Src/system_stm32f4xx.o
 .debug_abbrev  0x000000000000150e      0x1fb ./Core/Src/tim.o
 .debug_abbrev  0x0000000000001709      0x24d ./Core/Src/usart.o
 .debug_abbrev  0x0000000000001956       0x12 ./Core/Startup/startup_stm32f412retx.o
 .debug_abbrev  0x0000000000001968      0x3f9 ./Core/ThreadSafe/newlib_lock_glue.o
 .debug_abbrev  0x0000000000001d61      0x21c ./Drivers/STM32F4xx_HAL_Driver/Src/stm32f4xx_hal.o
 .debug_abbrev  0x0000000000001f7d      0x3b0 ./Drivers/STM32F4xx_HAL_Driver/Src/stm32f4xx_hal_cortex.o
 .debug_abbrev  0x000000000000232d      0x2eb ./Drivers/STM32F4xx_HAL_Driver/Src/stm32f4xx_hal_dma.o
 .debug_abbrev  0x0000000000002618      0x2ae ./Drivers/STM32F4xx_HAL_Driver/Src/stm32f4xx_hal_flash.o
 .debug_abbrev  0x00000000000028c6      0x299 ./Drivers/STM32F4xx_HAL_Driver/Src/stm32f4xx_hal_flash_ex.o
 .debug_abbrev  0x0000000000002b5f      0x25b ./Drivers/STM32F4xx_HAL_Driver/Src/stm32f4xx_hal_gpio.o
 .debug_abbrev  0x0000000000002dba      0x191 ./Drivers/STM32F4xx_HAL_Driver/Src/stm32f4xx_hal_iwdg.o
 .debug_abbrev  0x0000000000002f4b      0x2c4 ./Drivers/STM32F4xx_HAL_Driver/Src/stm32f4xx_hal_rcc.o
 .debug_abbrev  0x000000000000320f      0x20e ./Drivers/STM32F4xx_HAL_Driver/Src/stm32f4xx_hal_rcc_ex.o
 .debug_abbrev  0x000000000000341d      0x23a ./Drivers/STM32F4xx_HAL_Driver/Src/stm32f4xx_hal_rtc.o
 .debug_abbrev  0x0000000000003657      0x25b ./Drivers/STM32F4xx_HAL_Driver/Src/stm32f4xx_hal_tim.o
 .debug_abbrev  0x00000000000038b2      0x271 ./Drivers/STM32F4xx_HAL_Driver/Src/stm32f4xx_hal_tim_ex.o
 .debug_abbrev  0x0000000000003b23      0x345 ./Drivers/STM32F4xx_HAL_Driver/Src/stm32f4xx_hal_uart.o
 .debug_abbrev  0x0000000000003e68      0x5bc ./Middlewares/Third_Party/FreeRTOS/Source/CMSIS_RTOS_V2/cmsis_os2.o
 .debug_abbrev  0x0000000000004424      0x386 ./Middlewares/Third_Party/FreeRTOS/Source/event_groups.o
 .debug_abbrev  0x00000000000047aa      0x20e ./Middlewares/Third_Party/FreeRTOS/Source/list.o
 .debug_abbrev  0x00000000000049b8      0x3e5 ./Middlewares/Third_Party/FreeRTOS/Source/queue.o
 .debug_abbrev  0x0000000000004d9d      0x3fb ./Middlewares/Third_Party/FreeRTOS/Source/tasks.o
 .debug_abbrev  0x0000000000005198      0x38b ./Middlewares/Third_Party/FreeRTOS/Source/timers.o
 .debug_abbrev  0x0000000000005523      0x372 ./Middlewares/Third_Party/FreeRTOS/Source/portable/GCC/ARM_CM4F/port.o
 .debug_abbrev  0x0000000000005895      0x368 ./Middlewares/Third_Party/FreeRTOS/Source/portable/MemMang/heap_4.o
 .debug_abbrev  0x0000000000005bfd      0x3d2 ./user/detect.o
 .debug_abbrev  0x0000000000005fcf      0x2e5 ./user/dev_usart.o
 .debug_abbrev  0x00000000000062b4      0x42d ./user/display.o
 .debug_abbrev  0x00000000000066e1      0x200 ./user/eeprom.o
 .debug_abbrev  0x00000000000068e1      0x463 ./user/io_ctrl.o
 .debug_abbrev  0x0000000000006d44      0x302 ./user/my_tim.o
 .debug_abbrev  0x0000000000007046      0x336 ./user/myprintf.o
 .debug_abbrev  0x000000000000737c      0x394 ./user/soft_timer.o
 .debug_abbrev  0x0000000000007710      0x1dc ./user/sysguard.o

.debug_aranges  0x0000000000000000     0x1db8
 .debug_aranges
                0x0000000000000000       0x20 ./Core/Src/dma.o
 .debug_aranges
                0x0000000000000020       0x70 ./Core/Src/freertos.o
 .debug_aranges
                0x0000000000000090       0x20 ./Core/Src/gpio.o
 .debug_aranges
                0x00000000000000b0       0x20 ./Core/Src/iwdg.o
 .debug_aranges
                0x00000000000000d0       0x40 ./Core/Src/main.o
 .debug_aranges
                0x0000000000000110       0x30 ./Core/Src/rtc.o
 .debug_aranges
                0x0000000000000140       0x20 ./Core/Src/stm32f4xx_hal_msp.o
 .debug_aranges
                0x0000000000000160       0x30 ./Core/Src/stm32f4xx_hal_timebase_tim.o
 .debug_aranges
                0x0000000000000190       0xa8 ./Core/Src/stm32f4xx_it.o
 .debug_aranges
                0x0000000000000238       0x20 ./Core/Src/sysmem.o
 .debug_aranges
                0x0000000000000258       0x28 ./Core/Src/system_stm32f4xx.o
 .debug_aranges
                0x0000000000000280       0x40 ./Core/Src/tim.o
 .debug_aranges
                0x00000000000002c0       0x40 ./Core/Src/usart.o
 .debug_aranges
                0x0000000000000300       0x28 ./Core/Startup/startup_stm32f412retx.o
 .debug_aranges
                0x0000000000000328       0x88 ./Core/ThreadSafe/newlib_lock_glue.o
 .debug_aranges
                0x00000000000003b0       0xf0 ./Drivers/STM32F4xx_HAL_Driver/Src/stm32f4xx_hal.o
 .debug_aranges
                0x00000000000004a0       0xa8 ./Drivers/STM32F4xx_HAL_Driver/Src/stm32f4xx_hal_cortex.o
 .debug_aranges
                0x0000000000000548       0x90 ./Drivers/STM32F4xx_HAL_Driver/Src/stm32f4xx_hal_dma.o
 .debug_aranges
                0x00000000000005d8       0xa0 ./Drivers/STM32F4xx_HAL_Driver/Src/stm32f4xx_hal_flash.o
 .debug_aranges
                0x0000000000000678       0xc8 ./Drivers/STM32F4xx_HAL_Driver/Src/stm32f4xx_hal_flash_ex.o
 .debug_aranges
                0x0000000000000740       0x58 ./Drivers/STM32F4xx_HAL_Driver/Src/stm32f4xx_hal_gpio.o
 .debug_aranges
                0x0000000000000798       0x28 ./Drivers/STM32F4xx_HAL_Driver/Src/stm32f4xx_hal_iwdg.o
 .debug_aranges
                0x00000000000007c0       0x88 ./Drivers/STM32F4xx_HAL_Driver/Src/stm32f4xx_hal_rcc.o
 .debug_aranges
                0x0000000000000848       0x60 ./Drivers/STM32F4xx_HAL_Driver/Src/stm32f4xx_hal_rcc_ex.o
 .debug_aranges
                0x00000000000008a8       0xe8 ./Drivers/STM32F4xx_HAL_Driver/Src/stm32f4xx_hal_rtc.o
 .debug_aranges
                0x0000000000000990      0x3d0 ./Drivers/STM32F4xx_HAL_Driver/Src/stm32f4xx_hal_tim.o
 .debug_aranges
                0x0000000000000d60      0x168 ./Drivers/STM32F4xx_HAL_Driver/Src/stm32f4xx_hal_tim_ex.o
 .debug_aranges
                0x0000000000000ec8      0x200 ./Drivers/STM32F4xx_HAL_Driver/Src/stm32f4xx_hal_uart.o
 .debug_aranges
                0x00000000000010c8      0x2c0 ./Middlewares/Third_Party/FreeRTOS/Source/CMSIS_RTOS_V2/cmsis_os2.o
 .debug_aranges
                0x0000000000001388       0x90 ./Middlewares/Third_Party/FreeRTOS/Source/event_groups.o
 .debug_aranges
                0x0000000000001418       0x40 ./Middlewares/Third_Party/FreeRTOS/Source/list.o
 .debug_aranges
                0x0000000000001458      0x158 ./Middlewares/Third_Party/FreeRTOS/Source/queue.o
 .debug_aranges
                0x00000000000015b0      0x208 ./Middlewares/Third_Party/FreeRTOS/Source/tasks.o
 .debug_aranges
                0x00000000000017b8       0xf0 ./Middlewares/Third_Party/FreeRTOS/Source/timers.o
 .debug_aranges
                0x00000000000018a8       0x80 ./Middlewares/Third_Party/FreeRTOS/Source/portable/GCC/ARM_CM4F/port.o
 .debug_aranges
                0x0000000000001928       0x58 ./Middlewares/Third_Party/FreeRTOS/Source/portable/MemMang/heap_4.o
 .debug_aranges
                0x0000000000001980       0x90 ./user/detect.o
 .debug_aranges
                0x0000000000001a10       0x68 ./user/dev_usart.o
 .debug_aranges
                0x0000000000001a78       0x80 ./user/display.o
 .debug_aranges
                0x0000000000001af8       0x58 ./user/eeprom.o
 .debug_aranges
                0x0000000000001b50       0xb8 ./user/io_ctrl.o
 .debug_aranges
                0x0000000000001c08       0xa8 ./user/my_tim.o
 .debug_aranges
                0x0000000000001cb0       0x38 ./user/myprintf.o
 .debug_aranges
                0x0000000000001ce8       0x90 ./user/soft_timer.o
 .debug_aranges
                0x0000000000001d78       0x40 ./user/sysguard.o

.debug_ranges   0x0000000000000000     0x2210
 .debug_ranges  0x0000000000000000       0x10 ./Core/Src/dma.o
 .debug_ranges  0x0000000000000010       0x60 ./Core/Src/freertos.o
 .debug_ranges  0x0000000000000070       0x10 ./Core/Src/gpio.o
 .debug_ranges  0x0000000000000080       0x10 ./Core/Src/iwdg.o
 .debug_ranges  0x0000000000000090       0x30 ./Core/Src/main.o
 .debug_ranges  0x00000000000000c0       0x20 ./Core/Src/rtc.o
 .debug_ranges  0x00000000000000e0       0x10 ./Core/Src/stm32f4xx_hal_msp.o
 .debug_ranges  0x00000000000000f0       0x20 ./Core/Src/stm32f4xx_hal_timebase_tim.o
 .debug_ranges  0x0000000000000110       0x98 ./Core/Src/stm32f4xx_it.o
 .debug_ranges  0x00000000000001a8       0x10 ./Core/Src/sysmem.o
 .debug_ranges  0x00000000000001b8       0x18 ./Core/Src/system_stm32f4xx.o
 .debug_ranges  0x00000000000001d0       0x30 ./Core/Src/tim.o
 .debug_ranges  0x0000000000000200       0x30 ./Core/Src/usart.o
 .debug_ranges  0x0000000000000230       0x20 ./Core/Startup/startup_stm32f412retx.o
 .debug_ranges  0x0000000000000250      0x150 ./Core/ThreadSafe/newlib_lock_glue.o
 .debug_ranges  0x00000000000003a0       0xe0 ./Drivers/STM32F4xx_HAL_Driver/Src/stm32f4xx_hal.o
 .debug_ranges  0x0000000000000480      0x128 ./Drivers/STM32F4xx_HAL_Driver/Src/stm32f4xx_hal_cortex.o
 .debug_ranges  0x00000000000005a8       0x80 ./Drivers/STM32F4xx_HAL_Driver/Src/stm32f4xx_hal_dma.o
 .debug_ranges  0x0000000000000628       0x90 ./Drivers/STM32F4xx_HAL_Driver/Src/stm32f4xx_hal_flash.o
 .debug_ranges  0x00000000000006b8       0xb8 ./Drivers/STM32F4xx_HAL_Driver/Src/stm32f4xx_hal_flash_ex.o
 .debug_ranges  0x0000000000000770       0x48 ./Drivers/STM32F4xx_HAL_Driver/Src/stm32f4xx_hal_gpio.o
 .debug_ranges  0x00000000000007b8       0x18 ./Drivers/STM32F4xx_HAL_Driver/Src/stm32f4xx_hal_iwdg.o
 .debug_ranges  0x00000000000007d0       0x90 ./Drivers/STM32F4xx_HAL_Driver/Src/stm32f4xx_hal_rcc.o
 .debug_ranges  0x0000000000000860       0x68 ./Drivers/STM32F4xx_HAL_Driver/Src/stm32f4xx_hal_rcc_ex.o
 .debug_ranges  0x00000000000008c8       0xd8 ./Drivers/STM32F4xx_HAL_Driver/Src/stm32f4xx_hal_rtc.o
 .debug_ranges  0x00000000000009a0      0x3c0 ./Drivers/STM32F4xx_HAL_Driver/Src/stm32f4xx_hal_tim.o
 .debug_ranges  0x0000000000000d60      0x158 ./Drivers/STM32F4xx_HAL_Driver/Src/stm32f4xx_hal_tim_ex.o
 .debug_ranges  0x0000000000000eb8      0x208 ./Drivers/STM32F4xx_HAL_Driver/Src/stm32f4xx_hal_uart.o
 .debug_ranges  0x00000000000010c0      0x2c8 ./Middlewares/Third_Party/FreeRTOS/Source/CMSIS_RTOS_V2/cmsis_os2.o
 .debug_ranges  0x0000000000001388       0xb8 ./Middlewares/Third_Party/FreeRTOS/Source/event_groups.o
 .debug_ranges  0x0000000000001440       0x30 ./Middlewares/Third_Party/FreeRTOS/Source/list.o
 .debug_ranges  0x0000000000001470      0x218 ./Middlewares/Third_Party/FreeRTOS/Source/queue.o
 .debug_ranges  0x0000000000001688      0x338 ./Middlewares/Third_Party/FreeRTOS/Source/tasks.o
 .debug_ranges  0x00000000000019c0       0xe0 ./Middlewares/Third_Party/FreeRTOS/Source/timers.o
 .debug_ranges  0x0000000000001aa0       0x88 ./Middlewares/Third_Party/FreeRTOS/Source/portable/GCC/ARM_CM4F/port.o
 .debug_ranges  0x0000000000001b28       0x48 ./Middlewares/Third_Party/FreeRTOS/Source/portable/MemMang/heap_4.o
 .debug_ranges  0x0000000000001b70      0x1e8 ./user/detect.o
 .debug_ranges  0x0000000000001d58       0x58 ./user/dev_usart.o
 .debug_ranges  0x0000000000001db0       0xc0 ./user/display.o
 .debug_ranges  0x0000000000001e70       0x48 ./user/eeprom.o
 .debug_ranges  0x0000000000001eb8      0x180 ./user/io_ctrl.o
 .debug_ranges  0x0000000000002038       0x98 ./user/my_tim.o
 .debug_ranges  0x00000000000020d0       0x78 ./user/myprintf.o
 .debug_ranges  0x0000000000002148       0x98 ./user/soft_timer.o
 .debug_ranges  0x00000000000021e0       0x30 ./user/sysguard.o

.debug_macro    0x0000000000000000    0x26bbc
 .debug_macro   0x0000000000000000      0x20a ./Core/Src/dma.o
 .debug_macro   0x000000000000020a      0xaae ./Core/Src/dma.o
 .debug_macro   0x0000000000000cb8      0x2ae ./Core/Src/dma.o
 .debug_macro   0x0000000000000f66       0x2e ./Core/Src/dma.o
 .debug_macro   0x0000000000000f94       0x28 ./Core/Src/dma.o
 .debug_macro   0x0000000000000fbc       0x22 ./Core/Src/dma.o
 .debug_macro   0x0000000000000fde       0x8e ./Core/Src/dma.o
 .debug_macro   0x000000000000106c       0x51 ./Core/Src/dma.o
 .debug_macro   0x00000000000010bd      0x103 ./Core/Src/dma.o
 .debug_macro   0x00000000000011c0       0x6a ./Core/Src/dma.o
 .debug_macro   0x000000000000122a      0x1df ./Core/Src/dma.o
 .debug_macro   0x0000000000001409       0x1c ./Core/Src/dma.o
 .debug_macro   0x0000000000001425       0x22 ./Core/Src/dma.o
 .debug_macro   0x0000000000001447       0xdf ./Core/Src/dma.o
 .debug_macro   0x0000000000001526     0x102d ./Core/Src/dma.o
 .debug_macro   0x0000000000002553      0x11f ./Core/Src/dma.o
 .debug_macro   0x0000000000002672    0x1469c ./Core/Src/dma.o
 .debug_macro   0x0000000000016d0e       0x6d ./Core/Src/dma.o
 .debug_macro   0x0000000000016d7b     0x367e ./Core/Src/dma.o
 .debug_macro   0x000000000001a3f9      0x174 ./Core/Src/dma.o
 .debug_macro   0x000000000001a56d       0x5c ./Core/Src/dma.o
 .debug_macro   0x000000000001a5c9      0x8ed ./Core/Src/dma.o
 .debug_macro   0x000000000001aeb6      0x9fe ./Core/Src/dma.o
 .debug_macro   0x000000000001b8b4      0x115 ./Core/Src/dma.o
 .debug_macro   0x000000000001b9c9      0x192 ./Core/Src/dma.o
 .debug_macro   0x000000000001bb5b       0xa5 ./Core/Src/dma.o
 .debug_macro   0x000000000001bc00      0x158 ./Core/Src/dma.o
 .debug_macro   0x000000000001bd58      0x287 ./Core/Src/dma.o
 .debug_macro   0x000000000001bfdf       0x5f ./Core/Src/dma.o
 .debug_macro   0x000000000001c03e      0x236 ./Core/Src/dma.o
 .debug_macro   0x000000000001c274      0x132 ./Core/Src/dma.o
 .debug_macro   0x000000000001c3a6      0x29c ./Core/Src/dma.o
 .debug_macro   0x000000000001c642       0x2e ./Core/Src/dma.o
 .debug_macro   0x000000000001c670       0x78 ./Core/Src/dma.o
 .debug_macro   0x000000000001c6e8      0x11a ./Core/Src/dma.o
 .debug_macro   0x000000000001c802       0x91 ./Core/Src/dma.o
 .debug_macro   0x000000000001c893       0x89 ./Core/Src/dma.o
 .debug_macro   0x000000000001c91c      0x2fe ./Core/Src/dma.o
 .debug_macro   0x000000000001cc1a      0x430 ./Core/Src/dma.o
 .debug_macro   0x000000000001d04a       0xe4 ./Core/Src/dma.o
 .debug_macro   0x000000000001d12e      0x8e6 ./Core/Src/dma.o
 .debug_macro   0x000000000001da14       0x47 ./Core/Src/dma.o
 .debug_macro   0x000000000001da5b      0x295 ./Core/Src/dma.o
 .debug_macro   0x000000000001dcf0      0x126 ./Core/Src/dma.o
 .debug_macro   0x000000000001de16      0x20c ./Core/Src/dma.o
 .debug_macro   0x000000000001e022      0x3d6 ./Core/Src/freertos.o
 .debug_macro   0x000000000001e3f8      0x17c ./Core/Src/freertos.o
 .debug_macro   0x000000000001e574      0x15a ./Core/Src/freertos.o
 .debug_macro   0x000000000001e6ce       0xc9 ./Core/Src/freertos.o
 .debug_macro   0x000000000001e797       0x1c ./Core/Src/freertos.o
 .debug_macro   0x000000000001e7b3       0x26 ./Core/Src/freertos.o
 .debug_macro   0x000000000001e7d9       0x52 ./Core/Src/freertos.o
 .debug_macro   0x000000000001e82b       0x18 ./Core/Src/freertos.o
 .debug_macro   0x000000000001e843       0x3c ./Core/Src/freertos.o
 .debug_macro   0x000000000001e87f       0x34 ./Core/Src/freertos.o
 .debug_macro   0x000000000001e8b3       0x16 ./Core/Src/freertos.o
 .debug_macro   0x000000000001e8c9       0x43 ./Core/Src/freertos.o
 .debug_macro   0x000000000001e90c       0x34 ./Core/Src/freertos.o
 .debug_macro   0x000000000001e940       0x10 ./Core/Src/freertos.o
 .debug_macro   0x000000000001e950       0x58 ./Core/Src/freertos.o
 .debug_macro   0x000000000001e9a8       0x71 ./Core/Src/freertos.o
 .debug_macro   0x000000000001ea19       0x1c ./Core/Src/freertos.o
 .debug_macro   0x000000000001ea35      0x12a ./Core/Src/freertos.o
 .debug_macro   0x000000000001eb5f       0x10 ./Core/Src/freertos.o
 .debug_macro   0x000000000001eb6f       0x35 ./Core/Src/freertos.o
 .debug_macro   0x000000000001eba4      0x4b1 ./Core/Src/freertos.o
 .debug_macro   0x000000000001f055       0xb5 ./Core/Src/freertos.o
 .debug_macro   0x000000000001f10a       0xaa ./Core/Src/freertos.o
 .debug_macro   0x000000000001f1b4       0x6c ./Core/Src/freertos.o
 .debug_macro   0x000000000001f220       0x74 ./Core/Src/freertos.o
 .debug_macro   0x000000000001f294       0xdd ./Core/Src/freertos.o
 .debug_macro   0x000000000001f371      0x333 ./Core/Src/freertos.o
 .debug_macro   0x000000000001f6a4       0x10 ./Core/Src/freertos.o
 .debug_macro   0x000000000001f6b4       0x20 ./Core/Src/freertos.o
 .debug_macro   0x000000000001f6d4       0x22 ./Core/Src/freertos.o
 .debug_macro   0x000000000001f6f6       0x1c ./Core/Src/freertos.o
 .debug_macro   0x000000000001f712       0x2e ./Core/Src/freertos.o
 .debug_macro   0x000000000001f740       0x52 ./Core/Src/freertos.o
 .debug_macro   0x000000000001f792       0x28 ./Core/Src/freertos.o
 .debug_macro   0x000000000001f7ba       0x94 ./Core/Src/freertos.o
 .debug_macro   0x000000000001f84e      0x462 ./Core/Src/freertos.o
 .debug_macro   0x000000000001fcb0       0x52 ./Core/Src/freertos.o
 .debug_macro   0x000000000001fd02      0x20a ./Core/Src/gpio.o
 .debug_macro   0x000000000001ff0c      0x20a ./Core/Src/iwdg.o
 .debug_macro   0x0000000000020116      0x3bb ./Core/Src/main.o
 .debug_macro   0x00000000000204d1      0x17c ./Core/Src/main.o
 .debug_macro   0x000000000002064d       0x66 ./Core/Src/main.o
 .debug_macro   0x00000000000206b3       0x16 ./Core/Src/main.o
 .debug_macro   0x00000000000206c9      0x20a ./Core/Src/rtc.o
 .debug_macro   0x00000000000208d3      0x200 ./Core/Src/stm32f4xx_hal_msp.o
 .debug_macro   0x0000000000020ad3      0x1f1 ./Core/Src/stm32f4xx_hal_timebase_tim.o
 .debug_macro   0x0000000000020cc4      0x225 ./Core/Src/stm32f4xx_it.o
 .debug_macro   0x0000000000020ee9       0xff ./Core/Src/sysmem.o
 .debug_macro   0x0000000000020fe8      0x23b ./Core/Src/sysmem.o
 .debug_macro   0x0000000000021223      0x1f1 ./Core/Src/system_stm32f4xx.o
 .debug_macro   0x0000000000021414      0x20a ./Core/Src/tim.o
 .debug_macro   0x000000000002161e      0x20a ./Core/Src/usart.o
 .debug_macro   0x0000000000021828      0x202 ./Core/ThreadSafe/newlib_lock_glue.o
 .debug_macro   0x0000000000021a2a      0x118 ./Core/ThreadSafe/newlib_lock_glue.o
 .debug_macro   0x0000000000021b42       0x22 ./Core/ThreadSafe/newlib_lock_glue.o
 .debug_macro   0x0000000000021b64       0x27 ./Core/ThreadSafe/newlib_lock_glue.o
 .debug_macro   0x0000000000021b8b      0x251 ./Drivers/STM32F4xx_HAL_Driver/Src/stm32f4xx_hal.o
 .debug_macro   0x0000000000021ddc      0x1f1 ./Drivers/STM32F4xx_HAL_Driver/Src/stm32f4xx_hal_cortex.o
 .debug_macro   0x0000000000021fcd      0x1f7 ./Drivers/STM32F4xx_HAL_Driver/Src/stm32f4xx_hal_dma.o
 .debug_macro   0x00000000000221c4      0x1f7 ./Drivers/STM32F4xx_HAL_Driver/Src/stm32f4xx_hal_flash.o
 .debug_macro   0x00000000000223bb      0x1f7 ./Drivers/STM32F4xx_HAL_Driver/Src/stm32f4xx_hal_flash_ex.o
 .debug_macro   0x00000000000225b2      0x1f7 ./Drivers/STM32F4xx_HAL_Driver/Src/stm32f4xx_hal_gpio.o
 .debug_macro   0x00000000000227a9      0x1fd ./Drivers/STM32F4xx_HAL_Driver/Src/stm32f4xx_hal_iwdg.o
 .debug_macro   0x00000000000229a6      0x215 ./Drivers/STM32F4xx_HAL_Driver/Src/stm32f4xx_hal_rcc.o
 .debug_macro   0x0000000000022bbb      0x1f1 ./Drivers/STM32F4xx_HAL_Driver/Src/stm32f4xx_hal_rcc_ex.o
 .debug_macro   0x0000000000022dac      0x1f2 ./Drivers/STM32F4xx_HAL_Driver/Src/stm32f4xx_hal_rtc.o
 .debug_macro   0x0000000000022f9e      0x1f2 ./Drivers/STM32F4xx_HAL_Driver/Src/stm32f4xx_hal_tim.o
 .debug_macro   0x0000000000023190      0x1f1 ./Drivers/STM32F4xx_HAL_Driver/Src/stm32f4xx_hal_tim_ex.o
 .debug_macro   0x0000000000023381      0x1f2 ./Drivers/STM32F4xx_HAL_Driver/Src/stm32f4xx_hal_uart.o
 .debug_macro   0x0000000000023573      0x3fa ./Middlewares/Third_Party/FreeRTOS/Source/CMSIS_RTOS_V2/cmsis_os2.o
 .debug_macro   0x000000000002396d       0x10 ./Middlewares/Third_Party/FreeRTOS/Source/CMSIS_RTOS_V2/cmsis_os2.o
 .debug_macro   0x000000000002397d       0xd3 ./Middlewares/Third_Party/FreeRTOS/Source/CMSIS_RTOS_V2/cmsis_os2.o
 .debug_macro   0x0000000000023a50       0x16 ./Middlewares/Third_Party/FreeRTOS/Source/CMSIS_RTOS_V2/cmsis_os2.o
 .debug_macro   0x0000000000023a66       0x91 ./Middlewares/Third_Party/FreeRTOS/Source/CMSIS_RTOS_V2/cmsis_os2.o
 .debug_macro   0x0000000000023af7       0x8d ./Middlewares/Third_Party/FreeRTOS/Source/CMSIS_RTOS_V2/cmsis_os2.o
 .debug_macro   0x0000000000023b84       0x9a ./Middlewares/Third_Party/FreeRTOS/Source/CMSIS_RTOS_V2/cmsis_os2.o
 .debug_macro   0x0000000000023c1e       0x22 ./Middlewares/Third_Party/FreeRTOS/Source/CMSIS_RTOS_V2/cmsis_os2.o
 .debug_macro   0x0000000000023c40       0x56 ./Middlewares/Third_Party/FreeRTOS/Source/CMSIS_RTOS_V2/cmsis_os2.o
 .debug_macro   0x0000000000023c96      0x1f4 ./Middlewares/Third_Party/FreeRTOS/Source/event_groups.o
 .debug_macro   0x0000000000023e8a      0x10e ./Middlewares/Third_Party/FreeRTOS/Source/event_groups.o
 .debug_macro   0x0000000000023f98       0x8d ./Middlewares/Third_Party/FreeRTOS/Source/event_groups.o
 .debug_macro   0x0000000000024025      0x199 ./Middlewares/Third_Party/FreeRTOS/Source/list.o
 .debug_macro   0x00000000000241be      0x228 ./Middlewares/Third_Party/FreeRTOS/Source/queue.o
 .debug_macro   0x00000000000243e6       0x16 ./Middlewares/Third_Party/FreeRTOS/Source/queue.o
 .debug_macro   0x00000000000243fc       0x87 ./Middlewares/Third_Party/FreeRTOS/Source/queue.o
 .debug_macro   0x0000000000024483      0x291 ./Middlewares/Third_Party/FreeRTOS/Source/tasks.o
 .debug_macro   0x0000000000024714       0x10 ./Middlewares/Third_Party/FreeRTOS/Source/tasks.o
 .debug_macro   0x0000000000024724      0x1ee ./Middlewares/Third_Party/FreeRTOS/Source/timers.o
 .debug_macro   0x0000000000024912       0x97 ./Middlewares/Third_Party/FreeRTOS/Source/timers.o
 .debug_macro   0x00000000000249a9      0x233 ./Middlewares/Third_Party/FreeRTOS/Source/portable/GCC/ARM_CM4F/port.o
 .debug_macro   0x0000000000024bdc      0x1c0 ./Middlewares/Third_Party/FreeRTOS/Source/portable/MemMang/heap_4.o
 .debug_macro   0x0000000000024d9c      0x31a ./user/detect.o
 .debug_macro   0x00000000000250b6       0x22 ./user/detect.o
 .debug_macro   0x00000000000250d8      0x312 ./user/dev_usart.o
 .debug_macro   0x00000000000253ea      0x3fb ./user/display.o
 .debug_macro   0x00000000000257e5      0x200 ./user/eeprom.o
 .debug_macro   0x00000000000259e5       0x8e ./user/eeprom.o
 .debug_macro   0x0000000000025a73      0x36a ./user/io_ctrl.o
 .debug_macro   0x0000000000025ddd      0x23d ./user/my_tim.o
 .debug_macro   0x000000000002601a      0x3db ./user/myprintf.o
 .debug_macro   0x00000000000263f5       0x16 ./user/myprintf.o
 .debug_macro   0x000000000002640b       0x4c ./user/myprintf.o
 .debug_macro   0x0000000000026457      0x119 ./user/myprintf.o
 .debug_macro   0x0000000000026570       0x1c ./user/myprintf.o
 .debug_macro   0x000000000002658c      0x3c4 ./user/soft_timer.o
 .debug_macro   0x0000000000026950       0x4c ./user/soft_timer.o
 .debug_macro   0x000000000002699c      0x220 ./user/sysguard.o

.debug_line     0x0000000000000000    0x37570
 .debug_line    0x0000000000000000      0x721 ./Core/Src/dma.o
 .debug_line    0x0000000000000721      0xe87 ./Core/Src/freertos.o
 .debug_line    0x00000000000015a8      0x7fb ./Core/Src/gpio.o
 .debug_line    0x0000000000001da3      0x736 ./Core/Src/iwdg.o
 .debug_line    0x00000000000024d9      0xbda ./Core/Src/main.o
 .debug_line    0x00000000000030b3      0x857 ./Core/Src/rtc.o
 .debug_line    0x000000000000390a      0x71b ./Core/Src/stm32f4xx_hal_msp.o
 .debug_line    0x0000000000004025      0x7a3 ./Core/Src/stm32f4xx_hal_timebase_tim.o
 .debug_line    0x00000000000047c8      0x966 ./Core/Src/stm32f4xx_it.o
 .debug_line    0x000000000000512e      0x51b ./Core/Src/sysmem.o
 .debug_line    0x0000000000005649      0x7ce ./Core/Src/system_stm32f4xx.o
 .debug_line    0x0000000000005e17      0x8c3 ./Core/Src/tim.o
 .debug_line    0x00000000000066da      0xc6e ./Core/Src/usart.o
 .debug_line    0x0000000000007348       0x88 ./Core/Startup/startup_stm32f412retx.o
 .debug_line    0x00000000000073d0      0xdc5 ./Core/ThreadSafe/newlib_lock_glue.o
 .debug_line    0x0000000000008195      0xa84 ./Drivers/STM32F4xx_HAL_Driver/Src/stm32f4xx_hal.o
 .debug_line    0x0000000000008c19      0xdcc ./Drivers/STM32F4xx_HAL_Driver/Src/stm32f4xx_hal_cortex.o
 .debug_line    0x00000000000099e5     0x1505 ./Drivers/STM32F4xx_HAL_Driver/Src/stm32f4xx_hal_dma.o
 .debug_line    0x000000000000aeea      0xcb9 ./Drivers/STM32F4xx_HAL_Driver/Src/stm32f4xx_hal_flash.o
 .debug_line    0x000000000000bba3      0xe8c ./Drivers/STM32F4xx_HAL_Driver/Src/stm32f4xx_hal_flash_ex.o
 .debug_line    0x000000000000ca2f      0xd1b ./Drivers/STM32F4xx_HAL_Driver/Src/stm32f4xx_hal_gpio.o
 .debug_line    0x000000000000d74a      0x7c9 ./Drivers/STM32F4xx_HAL_Driver/Src/stm32f4xx_hal_iwdg.o
 .debug_line    0x000000000000df13     0x116e ./Drivers/STM32F4xx_HAL_Driver/Src/stm32f4xx_hal_rcc.o
 .debug_line    0x000000000000f081     0x15bc ./Drivers/STM32F4xx_HAL_Driver/Src/stm32f4xx_hal_rcc_ex.o
 .debug_line    0x000000000001063d     0x1924 ./Drivers/STM32F4xx_HAL_Driver/Src/stm32f4xx_hal_rtc.o
 .debug_line    0x0000000000011f61     0x6c86 ./Drivers/STM32F4xx_HAL_Driver/Src/stm32f4xx_hal_tim.o
 .debug_line    0x0000000000018be7     0x2690 ./Drivers/STM32F4xx_HAL_Driver/Src/stm32f4xx_hal_tim_ex.o
 .debug_line    0x000000000001b277     0x4c81 ./Drivers/STM32F4xx_HAL_Driver/Src/stm32f4xx_hal_uart.o
 .debug_line    0x000000000001fef8     0x318f ./Middlewares/Third_Party/FreeRTOS/Source/CMSIS_RTOS_V2/cmsis_os2.o
 .debug_line    0x0000000000023087      0xeec ./Middlewares/Third_Party/FreeRTOS/Source/event_groups.o
 .debug_line    0x0000000000023f73      0x7c3 ./Middlewares/Third_Party/FreeRTOS/Source/list.o
 .debug_line    0x0000000000024736     0x245f ./Middlewares/Third_Party/FreeRTOS/Source/queue.o
 .debug_line    0x0000000000026b95     0x31d3 ./Middlewares/Third_Party/FreeRTOS/Source/tasks.o
 .debug_line    0x0000000000029d68     0x12f8 ./Middlewares/Third_Party/FreeRTOS/Source/timers.o
 .debug_line    0x000000000002b060      0xb12 ./Middlewares/Third_Party/FreeRTOS/Source/portable/GCC/ARM_CM4F/port.o
 .debug_line    0x000000000002bb72      0xb8a ./Middlewares/Third_Party/FreeRTOS/Source/portable/MemMang/heap_4.o
 .debug_line    0x000000000002c6fc     0x14d0 ./user/detect.o
 .debug_line    0x000000000002dbcc      0xb0b ./user/dev_usart.o
 .debug_line    0x000000000002e6d7     0x13e9 ./user/display.o
 .debug_line    0x000000000002fac0      0xeb8 ./user/eeprom.o
 .debug_line    0x0000000000030978     0x2e4b ./user/io_ctrl.o
 .debug_line    0x00000000000337c3     0x13fe ./user/my_tim.o
 .debug_line    0x0000000000034bc1     0x1245 ./user/myprintf.o
 .debug_line    0x0000000000035e06      0xec6 ./user/soft_timer.o
 .debug_line    0x0000000000036ccc      0x8a4 ./user/sysguard.o

.debug_str      0x0000000000000000    0xd9042
 .debug_str     0x0000000000000000    0xc0e61 ./Core/Src/dma.o
                                      0xc112c (size before relaxing)
 .debug_str     0x00000000000c0e61     0xa4a0 ./Core/Src/freertos.o
                                      0xcb1a7 (size before relaxing)
 .debug_str     0x00000000000cb301       0xd0 ./Core/Src/gpio.o
                                      0xc0cfc (size before relaxing)
 .debug_str     0x00000000000cb3d1       0x88 ./Core/Src/iwdg.o
                                      0xc0bb0 (size before relaxing)
 .debug_str     0x00000000000cb459      0xbb7 ./Core/Src/main.o
                                      0xc9add (size before relaxing)
 .debug_str     0x00000000000cc010      0x1a4 ./Core/Src/rtc.o
                                      0xc0fdb (size before relaxing)
 .debug_str     0x00000000000cc1b4       0x2c ./Core/Src/stm32f4xx_hal_msp.o
                                      0xc111c (size before relaxing)
 .debug_str     0x00000000000cc1e0       0xe8 ./Core/Src/stm32f4xx_hal_timebase_tim.o
                                      0xc0f3d (size before relaxing)
 .debug_str     0x00000000000cc2c8      0x286 ./Core/Src/stm32f4xx_it.o
                                      0xc16bb (size before relaxing)
 .debug_str     0x00000000000cc54e      0x371 ./Core/Src/sysmem.o
                                       0x62a5 (size before relaxing)
 .debug_str     0x00000000000cc8bf       0x5b ./Core/Src/system_stm32f4xx.o
                                      0xc045a (size before relaxing)
 .debug_str     0x00000000000cc91a       0xd1 ./Core/Src/tim.o
                                      0xc1781 (size before relaxing)
 .debug_str     0x00000000000cc9eb       0x7d ./Core/Src/usart.o
                                      0xc172b (size before relaxing)
 .debug_str     0x00000000000cca68       0x58 ./Core/Startup/startup_stm32f412retx.o
 .debug_str     0x00000000000ccac0     0x16fe ./Core/ThreadSafe/newlib_lock_glue.o
                                       0xd32d (size before relaxing)
 .debug_str     0x00000000000ce1be      0x55d ./Drivers/STM32F4xx_HAL_Driver/Src/stm32f4xx_hal.o
                                      0xc0f69 (size before relaxing)
 .debug_str     0x00000000000ce71b      0x318 ./Drivers/STM32F4xx_HAL_Driver/Src/stm32f4xx_hal_cortex.o
                                      0xc0d03 (size before relaxing)
 .debug_str     0x00000000000cea33      0x2ee ./Drivers/STM32F4xx_HAL_Driver/Src/stm32f4xx_hal_dma.o
                                      0xc087a (size before relaxing)
 .debug_str     0x00000000000ced21      0x2bd ./Drivers/STM32F4xx_HAL_Driver/Src/stm32f4xx_hal_flash.o
                                      0xc0660 (size before relaxing)
 .debug_str     0x00000000000cefde      0x2fe ./Drivers/STM32F4xx_HAL_Driver/Src/stm32f4xx_hal_flash_ex.o
                                      0xc0783 (size before relaxing)
 .debug_str     0x00000000000cf2dc      0x12f ./Drivers/STM32F4xx_HAL_Driver/Src/stm32f4xx_hal_gpio.o
                                      0xc0615 (size before relaxing)
 .debug_str     0x00000000000cf40b       0xe5 ./Drivers/STM32F4xx_HAL_Driver/Src/stm32f4xx_hal_iwdg.o
                                      0xc0430 (size before relaxing)
 .debug_str     0x00000000000cf4f0      0x1f2 ./Drivers/STM32F4xx_HAL_Driver/Src/stm32f4xx_hal_rcc.o
                                      0xc0896 (size before relaxing)
 .debug_str     0x00000000000cf6e2      0x11c ./Drivers/STM32F4xx_HAL_Driver/Src/stm32f4xx_hal_rcc_ex.o
                                      0xc07b2 (size before relaxing)
 .debug_str     0x00000000000cf7fe      0x299 ./Drivers/STM32F4xx_HAL_Driver/Src/stm32f4xx_hal_rtc.o
                                      0xc08ca (size before relaxing)
 .debug_str     0x00000000000cfa97      0xded ./Drivers/STM32F4xx_HAL_Driver/Src/stm32f4xx_hal_tim.o
                                      0xc17c6 (size before relaxing)
 .debug_str     0x00000000000d0884      0x4b0 ./Drivers/STM32F4xx_HAL_Driver/Src/stm32f4xx_hal_tim_ex.o
                                      0xc0fc7 (size before relaxing)
 .debug_str     0x00000000000d0d34      0x5e3 ./Drivers/STM32F4xx_HAL_Driver/Src/stm32f4xx_hal_uart.o
