Archive member included to satisfy reference by file (symbol)

d:/st/stm32cubeide_1.8.0/stm32cubeide/plugins/com.st.stm32cube.ide.mcu.externaltools.gnu-tools-for-stm32.9-2020-q2-update.win32_2.0.0.202105311346/tools/bin/../lib/gcc/arm-none-eabi/9.3.1/../../../../arm-none-eabi/lib/thumb/v7e-m+fp/hard\libc_nano.a(lib_a-ctype_.o)
                              ./user/myprintf.o (_ctype_)
d:/st/stm32cubeide_1.8.0/stm32cubeide/plugins/com.st.stm32cube.ide.mcu.externaltools.gnu-tools-for-stm32.9-2020-q2-update.win32_2.0.0.202105311346/tools/bin/../lib/gcc/arm-none-eabi/9.3.1/../../../../arm-none-eabi/lib/thumb/v7e-m+fp/hard\libc_nano.a(lib_a-errno.o)
                              ./Core/Src/syscalls.o (__errno)
d:/st/stm32cubeide_1.8.0/stm32cubeide/plugins/com.st.stm32cube.ide.mcu.externaltools.gnu-tools-for-stm32.9-2020-q2-update.win32_2.0.0.202105311346/tools/bin/../lib/gcc/arm-none-eabi/9.3.1/../../../../arm-none-eabi/lib/thumb/v7e-m+fp/hard\libc_nano.a(lib_a-exit.o)
                              d:/st/stm32cubeide_1.8.0/stm32cubeide/plugins/com.st.stm32cube.ide.mcu.externaltools.gnu-tools-for-stm32.9-2020-q2-update.win32_2.0.0.202105311346/tools/bin/../lib/gcc/arm-none-eabi/9.3.1/../../../../arm-none-eabi/lib/thumb/v7e-m+fp/hard/crt0.o (exit)
d:/st/stm32cubeide_1.8.0/stm32cubeide/plugins/com.st.stm32cube.ide.mcu.externaltools.gnu-tools-for-stm32.9-2020-q2-update.win32_2.0.0.202105311346/tools/bin/../lib/gcc/arm-none-eabi/9.3.1/../../../../arm-none-eabi/lib/thumb/v7e-m+fp/hard\libc_nano.a(lib_a-findfp.o)
                              ./Middlewares/Third_Party/FreeRTOS/Source/tasks.o (__sf_fake_stderr)
d:/st/stm32cubeide_1.8.0/stm32cubeide/plugins/com.st.stm32cube.ide.mcu.externaltools.gnu-tools-for-stm32.9-2020-q2-update.win32_2.0.0.202105311346/tools/bin/../lib/gcc/arm-none-eabi/9.3.1/../../../../arm-none-eabi/lib/thumb/v7e-m+fp/hard\libc_nano.a(lib_a-fwalk.o)
                              d:/st/stm32cubeide_1.8.0/stm32cubeide/plugins/com.st.stm32cube.ide.mcu.externaltools.gnu-tools-for-stm32.9-2020-q2-update.win32_2.0.0.202105311346/tools/bin/../lib/gcc/arm-none-eabi/9.3.1/../../../../arm-none-eabi/lib/thumb/v7e-m+fp/hard\libc_nano.a(lib_a-findfp.o) (_fwalk)
d:/st/stm32cubeide_1.8.0/stm32cubeide/plugins/com.st.stm32cube.ide.mcu.externaltools.gnu-tools-for-stm32.9-2020-q2-update.win32_2.0.0.202105311346/tools/bin/../lib/gcc/arm-none-eabi/9.3.1/../../../../arm-none-eabi/lib/thumb/v7e-m+fp/hard\libc_nano.a(lib_a-impure.o)
                              d:/st/stm32cubeide_1.8.0/stm32cubeide/plugins/com.st.stm32cube.ide.mcu.externaltools.gnu-tools-for-stm32.9-2020-q2-update.win32_2.0.0.202105311346/tools/bin/../lib/gcc/arm-none-eabi/9.3.1/../../../../arm-none-eabi/lib/thumb/v7e-m+fp/hard\libc_nano.a(lib_a-exit.o) (_global_impure_ptr)
d:/st/stm32cubeide_1.8.0/stm32cubeide/plugins/com.st.stm32cube.ide.mcu.externaltools.gnu-tools-for-stm32.9-2020-q2-update.win32_2.0.0.202105311346/tools/bin/../lib/gcc/arm-none-eabi/9.3.1/../../../../arm-none-eabi/lib/thumb/v7e-m+fp/hard\libc_nano.a(lib_a-init.o)
                              d:/st/stm32cubeide_1.8.0/stm32cubeide/plugins/com.st.stm32cube.ide.mcu.externaltools.gnu-tools-for-stm32.9-2020-q2-update.win32_2.0.0.202105311346/tools/bin/../lib/gcc/arm-none-eabi/9.3.1/../../../../arm-none-eabi/lib/thumb/v7e-m+fp/hard/crt0.o (__libc_init_array)
d:/st/stm32cubeide_1.8.0/stm32cubeide/plugins/com.st.stm32cube.ide.mcu.externaltools.gnu-tools-for-stm32.9-2020-q2-update.win32_2.0.0.202105311346/tools/bin/../lib/gcc/arm-none-eabi/9.3.1/../../../../arm-none-eabi/lib/thumb/v7e-m+fp/hard\libc_nano.a(lib_a-malloc.o)
                              ./Core/ThreadSafe/newlib_lock_glue.o (malloc)
d:/st/stm32cubeide_1.8.0/stm32cubeide/plugins/com.st.stm32cube.ide.mcu.externaltools.gnu-tools-for-stm32.9-2020-q2-update.win32_2.0.0.202105311346/tools/bin/../lib/gcc/arm-none-eabi/9.3.1/../../../../arm-none-eabi/lib/thumb/v7e-m+fp/hard\libc_nano.a(lib_a-memcpy-stub.o)
                              ./Middlewares/Third_Party/FreeRTOS/Source/CMSIS_RTOS_V2/cmsis_os2.o (memcpy)
d:/st/stm32cubeide_1.8.0/stm32cubeide/plugins/com.st.stm32cube.ide.mcu.externaltools.gnu-tools-for-stm32.9-2020-q2-update.win32_2.0.0.202105311346/tools/bin/../lib/gcc/arm-none-eabi/9.3.1/../../../../arm-none-eabi/lib/thumb/v7e-m+fp/hard\libc_nano.a(lib_a-memset.o)
                              d:/st/stm32cubeide_1.8.0/stm32cubeide/plugins/com.st.stm32cube.ide.mcu.externaltools.gnu-tools-for-stm32.9-2020-q2-update.win32_2.0.0.202105311346/tools/bin/../lib/gcc/arm-none-eabi/9.3.1/../../../../arm-none-eabi/lib/thumb/v7e-m+fp/hard/crt0.o (memset)
d:/st/stm32cubeide_1.8.0/stm32cubeide/plugins/com.st.stm32cube.ide.mcu.externaltools.gnu-tools-for-stm32.9-2020-q2-update.win32_2.0.0.202105311346/tools/bin/../lib/gcc/arm-none-eabi/9.3.1/../../../../arm-none-eabi/lib/thumb/v7e-m+fp/hard\libc_nano.a(lib_a-nano-freer.o)
                              d:/st/stm32cubeide_1.8.0/stm32cubeide/plugins/com.st.stm32cube.ide.mcu.externaltools.gnu-tools-for-stm32.9-2020-q2-update.win32_2.0.0.202105311346/tools/bin/../lib/gcc/arm-none-eabi/9.3.1/../../../../arm-none-eabi/lib/thumb/v7e-m+fp/hard\libc_nano.a(lib_a-malloc.o) (_free_r)
d:/st/stm32cubeide_1.8.0/stm32cubeide/plugins/com.st.stm32cube.ide.mcu.externaltools.gnu-tools-for-stm32.9-2020-q2-update.win32_2.0.0.202105311346/tools/bin/../lib/gcc/arm-none-eabi/9.3.1/../../../../arm-none-eabi/lib/thumb/v7e-m+fp/hard\libc_nano.a(lib_a-nano-mallocr.o)
                              d:/st/stm32cubeide_1.8.0/stm32cubeide/plugins/com.st.stm32cube.ide.mcu.externaltools.gnu-tools-for-stm32.9-2020-q2-update.win32_2.0.0.202105311346/tools/bin/../lib/gcc/arm-none-eabi/9.3.1/../../../../arm-none-eabi/lib/thumb/v7e-m+fp/hard\libc_nano.a(lib_a-findfp.o) (_malloc_r)
d:/st/stm32cubeide_1.8.0/stm32cubeide/plugins/com.st.stm32cube.ide.mcu.externaltools.gnu-tools-for-stm32.9-2020-q2-update.win32_2.0.0.202105311346/tools/bin/../lib/gcc/arm-none-eabi/9.3.1/../../../../arm-none-eabi/lib/thumb/v7e-m+fp/hard\libc_nano.a(lib_a-reent.o)
                              ./Middlewares/Third_Party/FreeRTOS/Source/tasks.o (_reclaim_reent)
d:/st/stm32cubeide_1.8.0/stm32cubeide/plugins/com.st.stm32cube.ide.mcu.externaltools.gnu-tools-for-stm32.9-2020-q2-update.win32_2.0.0.202105311346/tools/bin/../lib/gcc/arm-none-eabi/9.3.1/../../../../arm-none-eabi/lib/thumb/v7e-m+fp/hard\libc_nano.a(lib_a-sbrkr.o)
                              d:/st/stm32cubeide_1.8.0/stm32cubeide/plugins/com.st.stm32cube.ide.mcu.externaltools.gnu-tools-for-stm32.9-2020-q2-update.win32_2.0.0.202105311346/tools/bin/../lib/gcc/arm-none-eabi/9.3.1/../../../../arm-none-eabi/lib/thumb/v7e-m+fp/hard\libc_nano.a(lib_a-nano-mallocr.o) (_sbrk_r)
d:/st/stm32cubeide_1.8.0/stm32cubeide/plugins/com.st.stm32cube.ide.mcu.externaltools.gnu-tools-for-stm32.9-2020-q2-update.win32_2.0.0.202105311346/tools/bin/../lib/gcc/arm-none-eabi/9.3.1/../../../../arm-none-eabi/lib/thumb/v7e-m+fp/hard\libc_nano.a(lib_a-sprintf.o)
                              ./user/display.o (sprintf)
d:/st/stm32cubeide_1.8.0/stm32cubeide/plugins/com.st.stm32cube.ide.mcu.externaltools.gnu-tools-for-stm32.9-2020-q2-update.win32_2.0.0.202105311346/tools/bin/../lib/gcc/arm-none-eabi/9.3.1/../../../../arm-none-eabi/lib/thumb/v7e-m+fp/hard\libc_nano.a(lib_a-stdio.o)
                              d:/st/stm32cubeide_1.8.0/stm32cubeide/plugins/com.st.stm32cube.ide.mcu.externaltools.gnu-tools-for-stm32.9-2020-q2-update.win32_2.0.0.202105311346/tools/bin/../lib/gcc/arm-none-eabi/9.3.1/../../../../arm-none-eabi/lib/thumb/v7e-m+fp/hard\libc_nano.a(lib_a-findfp.o) (__sread)
d:/st/stm32cubeide_1.8.0/stm32cubeide/plugins/com.st.stm32cube.ide.mcu.externaltools.gnu-tools-for-stm32.9-2020-q2-update.win32_2.0.0.202105311346/tools/bin/../lib/gcc/arm-none-eabi/9.3.1/../../../../arm-none-eabi/lib/thumb/v7e-m+fp/hard\libc_nano.a(lib_a-strlen.o)
                              ./user/display.o (strlen)
d:/st/stm32cubeide_1.8.0/stm32cubeide/plugins/com.st.stm32cube.ide.mcu.externaltools.gnu-tools-for-stm32.9-2020-q2-update.win32_2.0.0.202105311346/tools/bin/../lib/gcc/arm-none-eabi/9.3.1/../../../../arm-none-eabi/lib/thumb/v7e-m+fp/hard\libc_nano.a(lib_a-writer.o)
                              d:/st/stm32cubeide_1.8.0/stm32cubeide/plugins/com.st.stm32cube.ide.mcu.externaltools.gnu-tools-for-stm32.9-2020-q2-update.win32_2.0.0.202105311346/tools/bin/../lib/gcc/arm-none-eabi/9.3.1/../../../../arm-none-eabi/lib/thumb/v7e-m+fp/hard\libc_nano.a(lib_a-stdio.o) (_write_r)
d:/st/stm32cubeide_1.8.0/stm32cubeide/plugins/com.st.stm32cube.ide.mcu.externaltools.gnu-tools-for-stm32.9-2020-q2-update.win32_2.0.0.202105311346/tools/bin/../lib/gcc/arm-none-eabi/9.3.1/../../../../arm-none-eabi/lib/thumb/v7e-m+fp/hard\libc_nano.a(lib_a-closer.o)
                              d:/st/stm32cubeide_1.8.0/stm32cubeide/plugins/com.st.stm32cube.ide.mcu.externaltools.gnu-tools-for-stm32.9-2020-q2-update.win32_2.0.0.202105311346/tools/bin/../lib/gcc/arm-none-eabi/9.3.1/../../../../arm-none-eabi/lib/thumb/v7e-m+fp/hard\libc_nano.a(lib_a-stdio.o) (_close_r)
d:/st/stm32cubeide_1.8.0/stm32cubeide/plugins/com.st.stm32cube.ide.mcu.externaltools.gnu-tools-for-stm32.9-2020-q2-update.win32_2.0.0.202105311346/tools/bin/../lib/gcc/arm-none-eabi/9.3.1/../../../../arm-none-eabi/lib/thumb/v7e-m+fp/hard\libc_nano.a(lib_a-fflush.o)
                              d:/st/stm32cubeide_1.8.0/stm32cubeide/plugins/com.st.stm32cube.ide.mcu.externaltools.gnu-tools-for-stm32.9-2020-q2-update.win32_2.0.0.202105311346/tools/bin/../lib/gcc/arm-none-eabi/9.3.1/../../../../arm-none-eabi/lib/thumb/v7e-m+fp/hard\libc_nano.a(lib_a-findfp.o) (_fflush_r)
d:/st/stm32cubeide_1.8.0/stm32cubeide/plugins/com.st.stm32cube.ide.mcu.externaltools.gnu-tools-for-stm32.9-2020-q2-update.win32_2.0.0.202105311346/tools/bin/../lib/gcc/arm-none-eabi/9.3.1/../../../../arm-none-eabi/lib/thumb/v7e-m+fp/hard\libc_nano.a(lib_a-lseekr.o)
                              d:/st/stm32cubeide_1.8.0/stm32cubeide/plugins/com.st.stm32cube.ide.mcu.externaltools.gnu-tools-for-stm32.9-2020-q2-update.win32_2.0.0.202105311346/tools/bin/../lib/gcc/arm-none-eabi/9.3.1/../../../../arm-none-eabi/lib/thumb/v7e-m+fp/hard\libc_nano.a(lib_a-stdio.o) (_lseek_r)
d:/st/stm32cubeide_1.8.0/stm32cubeide/plugins/com.st.stm32cube.ide.mcu.externaltools.gnu-tools-for-stm32.9-2020-q2-update.win32_2.0.0.202105311346/tools/bin/../lib/gcc/arm-none-eabi/9.3.1/../../../../arm-none-eabi/lib/thumb/v7e-m+fp/hard\libc_nano.a(lib_a-mlock.o)
                              d:/st/stm32cubeide_1.8.0/stm32cubeide/plugins/com.st.stm32cube.ide.mcu.externaltools.gnu-tools-for-stm32.9-2020-q2-update.win32_2.0.0.202105311346/tools/bin/../lib/gcc/arm-none-eabi/9.3.1/../../../../arm-none-eabi/lib/thumb/v7e-m+fp/hard\libc_nano.a(lib_a-nano-freer.o) (__malloc_lock)
d:/st/stm32cubeide_1.8.0/stm32cubeide/plugins/com.st.stm32cube.ide.mcu.externaltools.gnu-tools-for-stm32.9-2020-q2-update.win32_2.0.0.202105311346/tools/bin/../lib/gcc/arm-none-eabi/9.3.1/../../../../arm-none-eabi/lib/thumb/v7e-m+fp/hard\libc_nano.a(lib_a-nano-svfprintf.o)
                              d:/st/stm32cubeide_1.8.0/stm32cubeide/plugins/com.st.stm32cube.ide.mcu.externaltools.gnu-tools-for-stm32.9-2020-q2-update.win32_2.0.0.202105311346/tools/bin/../lib/gcc/arm-none-eabi/9.3.1/../../../../arm-none-eabi/lib/thumb/v7e-m+fp/hard\libc_nano.a(lib_a-sprintf.o) (_svfprintf_r)
d:/st/stm32cubeide_1.8.0/stm32cubeide/plugins/com.st.stm32cube.ide.mcu.externaltools.gnu-tools-for-stm32.9-2020-q2-update.win32_2.0.0.202105311346/tools/bin/../lib/gcc/arm-none-eabi/9.3.1/../../../../arm-none-eabi/lib/thumb/v7e-m+fp/hard\libc_nano.a(lib_a-nano-vfprintf_i.o)
                              d:/st/stm32cubeide_1.8.0/stm32cubeide/plugins/com.st.stm32cube.ide.mcu.externaltools.gnu-tools-for-stm32.9-2020-q2-update.win32_2.0.0.202105311346/tools/bin/../lib/gcc/arm-none-eabi/9.3.1/../../../../arm-none-eabi/lib/thumb/v7e-m+fp/hard\libc_nano.a(lib_a-nano-svfprintf.o) (_printf_i)
d:/st/stm32cubeide_1.8.0/stm32cubeide/plugins/com.st.stm32cube.ide.mcu.externaltools.gnu-tools-for-stm32.9-2020-q2-update.win32_2.0.0.202105311346/tools/bin/../lib/gcc/arm-none-eabi/9.3.1/../../../../arm-none-eabi/lib/thumb/v7e-m+fp/hard\libc_nano.a(lib_a-readr.o)
                              d:/st/stm32cubeide_1.8.0/stm32cubeide/plugins/com.st.stm32cube.ide.mcu.externaltools.gnu-tools-for-stm32.9-2020-q2-update.win32_2.0.0.202105311346/tools/bin/../lib/gcc/arm-none-eabi/9.3.1/../../../../arm-none-eabi/lib/thumb/v7e-m+fp/hard\libc_nano.a(lib_a-stdio.o) (_read_r)
d:/st/stm32cubeide_1.8.0/stm32cubeide/plugins/com.st.stm32cube.ide.mcu.externaltools.gnu-tools-for-stm32.9-2020-q2-update.win32_2.0.0.202105311346/tools/bin/../lib/gcc/arm-none-eabi/9.3.1/../../../../arm-none-eabi/lib/thumb/v7e-m+fp/hard\libc_nano.a(lib_a-memchr.o)
                              d:/st/stm32cubeide_1.8.0/stm32cubeide/plugins/com.st.stm32cube.ide.mcu.externaltools.gnu-tools-for-stm32.9-2020-q2-update.win32_2.0.0.202105311346/tools/bin/../lib/gcc/arm-none-eabi/9.3.1/../../../../arm-none-eabi/lib/thumb/v7e-m+fp/hard\libc_nano.a(lib_a-nano-svfprintf.o) (memchr)
d:/st/stm32cubeide_1.8.0/stm32cubeide/plugins/com.st.stm32cube.ide.mcu.externaltools.gnu-tools-for-stm32.9-2020-q2-update.win32_2.0.0.202105311346/tools/bin/../lib/gcc/arm-none-eabi/9.3.1/../../../../arm-none-eabi/lib/thumb/v7e-m+fp/hard\libc_nano.a(lib_a-memmove.o)
                              d:/st/stm32cubeide_1.8.0/stm32cubeide/plugins/com.st.stm32cube.ide.mcu.externaltools.gnu-tools-for-stm32.9-2020-q2-update.win32_2.0.0.202105311346/tools/bin/../lib/gcc/arm-none-eabi/9.3.1/../../../../arm-none-eabi/lib/thumb/v7e-m+fp/hard\libc_nano.a(lib_a-nano-svfprintf.o) (memmove)
d:/st/stm32cubeide_1.8.0/stm32cubeide/plugins/com.st.stm32cube.ide.mcu.externaltools.gnu-tools-for-stm32.9-2020-q2-update.win32_2.0.0.202105311346/tools/bin/../lib/gcc/arm-none-eabi/9.3.1/../../../../arm-none-eabi/lib/thumb/v7e-m+fp/hard\libc_nano.a(lib_a-nano-reallocr.o)
                              d:/st/stm32cubeide_1.8.0/stm32cubeide/plugins/com.st.stm32cube.ide.mcu.externaltools.gnu-tools-for-stm32.9-2020-q2-update.win32_2.0.0.202105311346/tools/bin/../lib/gcc/arm-none-eabi/9.3.1/../../../../arm-none-eabi/lib/thumb/v7e-m+fp/hard\libc_nano.a(lib_a-nano-svfprintf.o) (_realloc_r)
d:/st/stm32cubeide_1.8.0/stm32cubeide/plugins/com.st.stm32cube.ide.mcu.externaltools.gnu-tools-for-stm32.9-2020-q2-update.win32_2.0.0.202105311346/tools/bin/../lib/gcc/arm-none-eabi/9.3.1/../../../../arm-none-eabi/lib/thumb/v7e-m+fp/hard\libc_nano.a(lib_a-nano-msizer.o)
                              d:/st/stm32cubeide_1.8.0/stm32cubeide/plugins/com.st.stm32cube.ide.mcu.externaltools.gnu-tools-for-stm32.9-2020-q2-update.win32_2.0.0.202105311346/tools/bin/../lib/gcc/arm-none-eabi/9.3.1/../../../../arm-none-eabi/lib/thumb/v7e-m+fp/hard\libc_nano.a(lib_a-nano-reallocr.o) (_malloc_usable_size_r)
d:/st/stm32cubeide_1.8.0/stm32cubeide/plugins/com.st.stm32cube.ide.mcu.externaltools.gnu-tools-for-stm32.9-2020-q2-update.win32_2.0.0.202105311346/tools/bin/../lib/gcc/arm-none-eabi/9.3.1/thumb/v7e-m+fp/hard\libgcc.a(_arm_truncdfsf2.o)
                              ./user/myprintf.o (__aeabi_d2f)
d:/st/stm32cubeide_1.8.0/stm32cubeide/plugins/com.st.stm32cube.ide.mcu.externaltools.gnu-tools-for-stm32.9-2020-q2-update.win32_2.0.0.202105311346/tools/bin/../lib/gcc/arm-none-eabi/9.3.1/thumb/v7e-m+fp/hard\libgcc.a(_aeabi_uldivmod.o)
                              ./Drivers/STM32F4xx_HAL_Driver/Src/stm32f4xx_hal_rcc.o (__aeabi_uldivmod)
d:/st/stm32cubeide_1.8.0/stm32cubeide/plugins/com.st.stm32cube.ide.mcu.externaltools.gnu-tools-for-stm32.9-2020-q2-update.win32_2.0.0.202105311346/tools/bin/../lib/gcc/arm-none-eabi/9.3.1/thumb/v7e-m+fp/hard\libgcc.a(_udivmoddi4.o)
                              d:/st/stm32cubeide_1.8.0/stm32cubeide/plugins/com.st.stm32cube.ide.mcu.externaltools.gnu-tools-for-stm32.9-2020-q2-update.win32_2.0.0.202105311346/tools/bin/../lib/gcc/arm-none-eabi/9.3.1/thumb/v7e-m+fp/hard\libgcc.a(_aeabi_uldivmod.o) (__udivmoddi4)
d:/st/stm32cubeide_1.8.0/stm32cubeide/plugins/com.st.stm32cube.ide.mcu.externaltools.gnu-tools-for-stm32.9-2020-q2-update.win32_2.0.0.202105311346/tools/bin/../lib/gcc/arm-none-eabi/9.3.1/thumb/v7e-m+fp/hard\libgcc.a(_dvmd_tls.o)
                              d:/st/stm32cubeide_1.8.0/stm32cubeide/plugins/com.st.stm32cube.ide.mcu.externaltools.gnu-tools-for-stm32.9-2020-q2-update.win32_2.0.0.202105311346/tools/bin/../lib/gcc/arm-none-eabi/9.3.1/thumb/v7e-m+fp/hard\libgcc.a(_aeabi_uldivmod.o) (__aeabi_ldiv0)

Allocating common symbols
Common symbol       size              file

usart1_rx           0x102             ./user/dev_usart.o
osthd_st            0xc               ./user/io_ctrl.o
keyboard_buff       0xb               ./user/detect.o
VirtAddVarTab       0x1fe             ./user/eeprom.o
defaultTaskHandle   0x4               ./Core/Src/freertos.o
Usart1_Type         0x102             ./user/dev_usart.o
hdma_usart6_rx      0x60              ./Core/Src/usart.o
gate_buff           0xb               ./user/detect.o
usart6_rx           0x102             ./user/dev_usart.o
relief_st           0x8               ./user/io_ctrl.o
Usart2_Type         0x102             ./user/dev_usart.o
errno               0x4               d:/st/stm32cubeide_1.8.0/stm32cubeide/plugins/com.st.stm32cube.ide.mcu.externaltools.gnu-tools-for-stm32.9-2020-q2-update.win32_2.0.0.202105311346/tools/bin/../lib/gcc/arm-none-eabi/9.3.1/../../../../arm-none-eabi/lib/thumb/v7e-m+fp/hard\libc_nano.a(lib_a-reent.o)
hdma_usart3_rx      0x60              ./Core/Src/usart.o
keycatch_result     0x1               ./user/detect.o
set_para_st         0x26              ./user/io_ctrl.o
huart3              0x44              ./Core/Src/usart.o
g_tModS             0xc4              ./user/modbus_slave.o
op_para_st          0xa               ./user/io_ctrl.o
keystop_buff        0xb               ./user/detect.o
src_press_st        0x28              ./user/io_ctrl.o
gate_result         0x1               ./user/detect.o
screen_ini_st       0x3               ./user/io_ctrl.o
htim10              0x48              ./Core/Src/tim.o
hiwdg               0xc               ./Core/Src/iwdg.o
scr_state_st        0x16              ./user/io_ctrl.o
keypush_buff        0xb               ./user/detect.o
JumpAddress         0x4               ./user/jump.o
keypush_result      0x1               ./user/detect.o
keyrun_result       0x1               ./user/detect.o
log_para_st         0x33              ./user/display.o
myBinarySem05Handle
                    0x4               ./Core/Src/freertos.o
scr_operate_st      0x20              ./user/io_ctrl.o
start_stop_st       0x2               ./user/detect.o
myEvent01Handle     0x4               ./Core/Src/freertos.o
uwTick              0x4               ./Drivers/STM32F4xx_HAL_Driver/Src/stm32f4xx_hal.o
xQueueRegistry      0x40              ./Middlewares/Third_Party/FreeRTOS/Source/queue.o
fst_tips_st         0x3               ./user/io_ctrl.o
keyemg_result       0x1               ./user/detect.o
Usart3_Type         0x102             ./user/dev_usart.o
hdma_usart3_tx      0x60              ./Core/Src/usart.o
pFlash              0x20              ./Drivers/STM32F4xx_HAL_Driver/Src/stm32f4xx_hal_flash.o
myTask05Handle      0x4               ./Core/Src/freertos.o
myTask04Handle      0x4               ./Core/Src/freertos.o
myBinarySem03Handle
                    0x4               ./Core/Src/freertos.o
sys_guard           0xe               ./user/sysguard.o
hdma_usart1_tx      0x60              ./Core/Src/usart.o
screen_prot         0x118             ./user/io_ctrl.o
hdma_usart6_tx      0x60              ./Core/Src/usart.o
time_start_st       0x18              ./Core/Src/freertos.o
hdma_usart1_rx      0x60              ./Core/Src/usart.o
huart1              0x44              ./Core/Src/usart.o
myEvent02Handle     0x4               ./Core/Src/freertos.o
myBinarySem02Handle
                    0x4               ./Core/Src/freertos.o
keyboard_result     0x1               ./user/detect.o
myTask02Handle      0x4               ./Core/Src/freertos.o
keystop_result      0x1               ./user/detect.o
hrtc                0x20              ./Core/Src/rtc.o
keyturn_result      0x1               ./user/detect.o
keycatch_buff       0xb               ./user/detect.o
usart2_rx           0x102             ./user/dev_usart.o
Usart6_Type         0x102             ./user/dev_usart.o
htim6               0x48              ./Core/Src/tim.o
out_sta_st          0xa               ./user/io_ctrl.o
keyrun_buff         0xb               ./user/detect.o
g_tVarS             0xb8              ./user/modbus_slave.o
dpt                 0x194             ./user/detect.o
myBinarySem01Handle
                    0x4               ./Core/Src/freertos.o
warn_st             0x28              ./user/my_tim.o
keyturn_buff        0xb               ./user/detect.o
myTask03Handle      0x4               ./Core/Src/freertos.o
huart6              0x44              ./Core/Src/usart.o
time_st             0x18              ./user/display.o
usart3_rx           0x102             ./user/dev_usart.o
gate2_buff          0xb               ./user/detect.o
htim2               0x48              ./Core/Src/stm32f4xx_hal_timebase_tim.o
myQueueUsart1Handle
                    0x4               ./Core/Src/freertos.o
tim_para_st         0x4               ./user/display.o
warn_out_st         0x4               ./user/display.o
myQueueUsart6Handle
                    0x4               ./Core/Src/freertos.o
out_state_st        0x5               ./user/io_ctrl.o
JumpToApplication   0x4               ./user/jump.o
keymod_result       0x1               ./user/detect.o
keyemg_buff         0xb               ./user/detect.o
warn_bk_st          0x28              ./user/my_tim.o
htim7               0x48              ./Core/Src/tim.o
myMutex01Handle     0x4               ./Core/Src/freertos.o
myMutex02Handle     0x4               ./Core/Src/freertos.o
time_get_st         0x18              ./user/display.o
keyhead_result      0x1               ./user/detect.o
myQueueUsart3Handle
                    0x4               ./Core/Src/freertos.o
myTask06Handle      0x4               ./Core/Src/freertos.o
keymod_buff         0xb               ./user/detect.o
keyhead_buff        0xb               ./user/detect.o
myBinarySem04Handle
                    0x4               ./Core/Src/freertos.o
gate2_result        0x1               ./user/detect.o
para_check_st       0x38              ./user/my_tim.o

Discarded input sections

 .text          0x0000000000000000        0x0 d:/st/stm32cubeide_1.8.0/stm32cubeide/plugins/com.st.stm32cube.ide.mcu.externaltools.gnu-tools-for-stm32.9-2020-q2-update.win32_2.0.0.202105311346/tools/bin/../lib/gcc/arm-none-eabi/9.3.1/thumb/v7e-m+fp/hard/crti.o
 .data          0x0000000000000000        0x0 d:/st/stm32cubeide_1.8.0/stm32cubeide/plugins/com.st.stm32cube.ide.mcu.externaltools.gnu-tools-for-stm32.9-2020-q2-update.win32_2.0.0.202105311346/tools/bin/../lib/gcc/arm-none-eabi/9.3.1/thumb/v7e-m+fp/hard/crti.o
 .bss           0x0000000000000000        0x0 d:/st/stm32cubeide_1.8.0/stm32cubeide/plugins/com.st.stm32cube.ide.mcu.externaltools.gnu-tools-for-stm32.9-2020-q2-update.win32_2.0.0.202105311346/tools/bin/../lib/gcc/arm-none-eabi/9.3.1/thumb/v7e-m+fp/hard/crti.o
 .data          0x0000000000000000        0x4 d:/st/stm32cubeide_1.8.0/stm32cubeide/plugins/com.st.stm32cube.ide.mcu.externaltools.gnu-tools-for-stm32.9-2020-q2-update.win32_2.0.0.202105311346/tools/bin/../lib/gcc/arm-none-eabi/9.3.1/thumb/v7e-m+fp/hard/crtbegin.o
 .text          0x0000000000000000       0x7c d:/st/stm32cubeide_1.8.0/stm32cubeide/plugins/com.st.stm32cube.ide.mcu.externaltools.gnu-tools-for-stm32.9-2020-q2-update.win32_2.0.0.202105311346/tools/bin/../lib/gcc/arm-none-eabi/9.3.1/../../../../arm-none-eabi/lib/thumb/v7e-m+fp/hard/crt0.o
 .data          0x0000000000000000        0x0 d:/st/stm32cubeide_1.8.0/stm32cubeide/plugins/com.st.stm32cube.ide.mcu.externaltools.gnu-tools-for-stm32.9-2020-q2-update.win32_2.0.0.202105311346/tools/bin/../lib/gcc/arm-none-eabi/9.3.1/../../../../arm-none-eabi/lib/thumb/v7e-m+fp/hard/crt0.o
 .bss           0x0000000000000000        0x0 d:/st/stm32cubeide_1.8.0/stm32cubeide/plugins/com.st.stm32cube.ide.mcu.externaltools.gnu-tools-for-stm32.9-2020-q2-update.win32_2.0.0.202105311346/tools/bin/../lib/gcc/arm-none-eabi/9.3.1/../../../../arm-none-eabi/lib/thumb/v7e-m+fp/hard/crt0.o
 .ARM.extab     0x0000000000000000        0x0 d:/st/stm32cubeide_1.8.0/stm32cubeide/plugins/com.st.stm32cube.ide.mcu.externaltools.gnu-tools-for-stm32.9-2020-q2-update.win32_2.0.0.202105311346/tools/bin/../lib/gcc/arm-none-eabi/9.3.1/../../../../arm-none-eabi/lib/thumb/v7e-m+fp/hard/crt0.o
 .ARM.exidx     0x0000000000000000       0x10 d:/st/stm32cubeide_1.8.0/stm32cubeide/plugins/com.st.stm32cube.ide.mcu.externaltools.gnu-tools-for-stm32.9-2020-q2-update.win32_2.0.0.202105311346/tools/bin/../lib/gcc/arm-none-eabi/9.3.1/../../../../arm-none-eabi/lib/thumb/v7e-m+fp/hard/crt0.o
 .ARM.attributes
                0x0000000000000000       0x1c d:/st/stm32cubeide_1.8.0/stm32cubeide/plugins/com.st.stm32cube.ide.mcu.externaltools.gnu-tools-for-stm32.9-2020-q2-update.win32_2.0.0.202105311346/tools/bin/../lib/gcc/arm-none-eabi/9.3.1/../../../../arm-none-eabi/lib/thumb/v7e-m+fp/hard/crt0.o
 .group         0x0000000000000000        0xc ./Core/Src/dma.o
 .group         0x0000000000000000        0xc ./Core/Src/dma.o
 .group         0x0000000000000000        0xc ./Core/Src/dma.o
 .group         0x0000000000000000        0xc ./Core/Src/dma.o
 .group         0x0000000000000000        0xc ./Core/Src/dma.o
 .group         0x0000000000000000        0xc ./Core/Src/dma.o
 .group         0x0000000000000000        0xc ./Core/Src/dma.o
Memory Configuration

Name             Origin             Length             Attributes
RAM              0x0000000020000000 0x0000000000040000 xrw
FLASH            0x0000000008020000 0x0000000000020000 xr
*default*        0x0000000000000000 0xffffffffffffffff

Linker script and memory map

LOAD d:/st/stm32cubeide_1.8.0/stm32cubeide/plugins/com.st.stm32cube.ide.mcu.externaltools.gnu-tools-for-stm32.9-2020-q2-update.win32_2.0.0.202105311346/tools/bin/../lib/gcc/arm-none-eabi/9.3.1/thumb/v7e-m+fp/hard/crti.o
LOAD d:/st/stm32cubeide_1.8.0/stm32cubeide/plugins/com.st.stm32cube.ide.mcu.externaltools.gnu-tools-for-stm32.9-2020-q2-update.win32_2.0.0.202105311346/tools/bin/../lib/gcc/arm-none-eabi/9.3.1/thumb/v7e-m+fp/hard/crtbegin.o
LOAD d:/st/stm32cubeide_1.8.0/stm32cubeide/plugins/com.st.stm32cube.ide.mcu.externaltools.gnu-tools-for-stm32.9-2020-q2-update.win32_2.0.0.202105311346/tools/bin/../lib/gcc/arm-none-eabi/9.3.1/../../../../arm-none-eabi/lib/thumb/v7e-m+fp/hard/crt0.o
LOAD ./Core/Src/dma.o
LOAD ./Core/Src/freertos.o
LOAD ./Core/Src/gpio.o
LOAD ./Core/Src/iwdg.o
LOAD ./Core/Src/main.o
LOAD ./Core/Src/rtc.o
LOAD ./Core/Src/stm32f4xx_hal_msp.o
LOAD ./Core/Src/stm32f4xx_hal_timebase_tim.o
LOAD ./Core/Src/stm32f4xx_it.o
LOAD ./Core/Src/syscalls.o
LOAD ./Core/Src/sysmem.o
LOAD ./Core/Src/system_stm32f4xx.o
LOAD ./Core/Src/tim.o
LOAD ./Core/Src/usart.o
LOAD ./Core/Startup/startup_stm32f412retx.o
LOAD ./Core/ThreadSafe/newlib_lock_glue.o
LOAD ./Drivers/STM32F4xx_HAL_Driver/Src/stm32f4xx_hal.o
LOAD ./Drivers/STM32F4xx_HAL_Driver/Src/stm32f4xx_hal_cortex.o
LOAD ./Drivers/STM32F4xx_HAL_Driver/Src/stm32f4xx_hal_dma.o
LOAD ./Drivers/STM32F4xx_HAL_Driver/Src/stm32f4xx_hal_dma_ex.o
LOAD ./Drivers/STM32F4xx_HAL_Driver/Src/stm32f4xx_hal_exti.o
LOAD ./Drivers/STM32F4xx_HAL_Driver/Src/stm32f4xx_hal_flash.o
LOAD ./Drivers/STM32F4xx_HAL_Driver/Src/stm32f4xx_hal_flash_ex.o
LOAD ./Drivers/STM32F4xx_HAL_Driver/Src/stm32f4xx_hal_flash_ramfunc.o
LOAD ./Drivers/STM32F4xx_HAL_Driver/Src/stm32f4xx_hal_gpio.o
LOAD ./Drivers/STM32F4xx_HAL_Driver/Src/stm32f4xx_hal_iwdg.o
LOAD ./Drivers/STM32F4xx_HAL_Driver/Src/stm32f4xx_hal_pwr.o
LOAD ./Drivers/STM32F4xx_HAL_Driver/Src/stm32f4xx_hal_pwr_ex.o
LOAD ./Drivers/STM32F4xx_HAL_Driver/Src/stm32f4xx_hal_rcc.o
LOAD ./Drivers/STM32F4xx_HAL_Driver/Src/stm32f4xx_hal_rcc_ex.o
LOAD ./Drivers/STM32F4xx_HAL_Driver/Src/stm32f4xx_hal_rtc.o
LOAD ./Drivers/STM32F4xx_HAL_Driver/Src/stm32f4xx_hal_rtc_ex.o
LOAD ./Drivers/STM32F4xx_HAL_Driver/Src/stm32f4xx_hal_tim.o
LOAD ./Drivers/STM32F4xx_HAL_Driver/Src/stm32f4xx_hal_tim_ex.o
LOAD ./Drivers/STM32F4xx_HAL_Driver/Src/stm32f4xx_hal_uart.o
LOAD ./Middlewares/Third_Party/FreeRTOS/Source/CMSIS_RTOS_V2/cmsis_os2.o
LOAD ./Middlewares/Third_Party/FreeRTOS/Source/croutine.o
LOAD ./Middlewares/Third_Party/FreeRTOS/Source/event_groups.o
LOAD ./Middlewares/Third_Party/FreeRTOS/Source/list.o
LOAD ./Middlewares/Third_Party/FreeRTOS/Source/queue.o
LOAD ./Middlewares/Third_Party/FreeRTOS/Source/stream_buffer.o
LOAD ./Middlewares/Third_Party/FreeRTOS/Source/tasks.o
LOAD ./Middlewares/Third_Party/FreeRTOS/Source/timers.o
LOAD ./Middlewares/Third_Party/FreeRTOS/Source/portable/GCC/ARM_CM4F/port.o
LOAD ./Middlewares/Third_Party/FreeRTOS/Source/portable/MemMang/heap_4.o
LOAD ./user/detect.o
LOAD ./user/dev_usart.o
LOAD ./user/display.o
LOAD ./user/eeprom.o
LOAD ./user/io_ctrl.o
LOAD ./user/jump.o
LOAD ./user/modbus_lib.o
LOAD ./user/modbus_slave.o
LOAD ./user/my_tim.o
LOAD ./user/myprintf.o
LOAD ./user/soft_timer.o
LOAD ./user/sysguard.o
START GROUP
LOAD d:/st/stm32cubeide_1.8.0/stm32cubeide/plugins/com.st.stm32cube.ide.mcu.externaltools.gnu-tools-for-stm32.9-2020-q2-update.win32_2.0.0.202105311346/tools/bin/../lib/gcc/arm-none-eabi/9.3.1/../../../../arm-none-eabi/lib/thumb/v7e-m+fp/hard\libc_nano.a
LOAD d:/st/stm32cubeide_1.8.0/stm32cubeide/plugins/com.st.stm32cube.ide.mcu.externaltools.gnu-tools-for-stm32.9-2020-q2-update.win32_2.0.0.202105311346/tools/bin/../lib/gcc/arm-none-eabi/9.3.1/../../../../arm-none-eabi/lib/thumb/v7e-m+fp/hard\libm.a
END GROUP
START GROUP
LOAD d:/st/stm32cubeide_1.8.0/stm32cubeide/plugins/com.st.stm32cube.ide.mcu.externaltools.gnu-tools-for-stm32.9-2020-q2-update.win32_2.0.0.202105311346/tools/bin/../lib/gcc/arm-none-eabi/9.3.1/thumb/v7e-m+fp/hard\libgcc.a
LOAD d:/st/stm32cubeide_1.8.0/stm32cubeide/plugins/com.st.stm32cube.ide.mcu.externaltools.gnu-tools-for-stm32.9-2020-q2-update.win32_2.0.0.202105311346/tools/bin/../lib/gcc/arm-none-eabi/9.3.1/../../../../arm-none-eabi/lib/thumb/v7e-m+fp/hard\libc_nano.a
END GROUP
START GROUP
LOAD d:/st/stm32cubeide_1.8.0/stm32cubeide/plugins/com.st.stm32cube.ide.mcu.externaltools.gnu-tools-for-stm32.9-2020-q2-update.win32_2.0.0.202105311346/tools/bin/../lib/gcc/arm-none-eabi/9.3.1/thumb/v7e-m+fp/hard\libgcc.a
LOAD d:/st/stm32cubeide_1.8.0/stm32cubeide/plugins/com.st.stm32cube.ide.mcu.externaltools.gnu-tools-for-stm32.9-2020-q2-update.win32_2.0.0.202105311346/tools/bin/../lib/gcc/arm-none-eabi/9.3.1/../../../../arm-none-eabi/lib/thumb/v7e-m+fp/hard\libc_nano.a
LOAD d:/st/stm32cubeide_1.8.0/stm32cubeide/plugins/com.st.stm32cube.ide.mcu.externaltools.gnu-tools-for-stm32.9-2020-q2-update.win32_2.0.0.202105311346/tools/bin/../lib/gcc/arm-none-eabi/9.3.1/../../../../arm-none-eabi/lib/thumb/v7e-m+fp/hard\libnosys.a
END GROUP
START GROUP
LOAD d:/st/stm32cubeide_1.8.0/stm32cubeide/plugins/com.st.stm32cube.ide.mcu.externaltools.gnu-tools-for-stm32.9-2020-q2-update.win32_2.0.0.202105311346/tools/bin/../lib/gcc/arm-none-eabi/9.3.1/thumb/v7e-m+fp/hard\libgcc.a
LOAD d:/st/stm32cubeide_1.8.0/stm32cubeide/plugins/com.st.stm32cube.ide.mcu.externaltools.gnu-tools-for-stm32.9-2020-q2-update.win32_2.0.0.202105311346/tools/bin/../lib/gcc/arm-none-eabi/9.3.1/../../../../arm-none-eabi/lib/thumb/v7e-m+fp/hard\libc_nano.a
LOAD d:/st/stm32cubeide_1.8.0/stm32cubeide/plugins/com.st.stm32cube.ide.mcu.externaltools.gnu-tools-for-stm32.9-2020-q2-update.win32_2.0.0.202105311346/tools/bin/../lib/gcc/arm-none-eabi/9.3.1/../../../../arm-none-eabi/lib/thumb/v7e-m+fp/hard\libnosys.a
END GROUP
LOAD d:/st/stm32cubeide_1.8.0/stm32cubeide/plugins/com.st.stm32cube.ide.mcu.externaltools.gnu-tools-for-stm32.9-2020-q2-update.win32_2.0.0.202105311346/tools/bin/../lib/gcc/arm-none-eabi/9.3.1/thumb/v7e-m+fp/hard/crtend.o
LOAD d:/st/stm32cubeide_1.8.0/stm32cubeide/plugins/com.st.stm32cube.ide.mcu.externaltools.gnu-tools-for-stm32.9-2020-q2-update.win32_2.0.0.202105311346/tools/bin/../lib/gcc/arm-none-eabi/9.3.1/thumb/v7e-m+fp/hard/crtn.o
                0x0000000020040000                _estack = (ORIGIN (RAM) + LENGTH (RAM))
                0x0000000000002000                _Min_Heap_Size = 0x2000
                0x0000000000004000                _Min_Stack_Size = 0x4000

.isr_vector     0x0000000008020000      0x1c4
                0x0000000008020000                . = ALIGN (0x4)
 *(.isr_vector)
 .isr_vector    0x0000000008020000      0x1c4 ./Core/Startup/startup_stm32f412retx.o
                0x0000000008020000                g_pfnVectors
                0x00000000080201c4                . = ALIGN (0x4)

.text           0x00000000080201d0     0xf840
                0x00000000080201d0                . = ALIGN (0x4)
 *(.text)
 .text          0x00000000080201d0       0x40 d:/st/stm32cubeide_1.8.0/stm32cubeide/plugins/com.st.stm32cube.ide.mcu.externaltools.gnu-tools-for-stm32.9-2020-q2-update.win32_2.0.0.202105311346/tools/bin/../lib/gcc/arm-none-eabi/9.3.1/thumb/v7e-m+fp/hard/crtbegin.o
 .text          0x0000000008020210       0x10 d:/st/stm32cubeide_1.8.0/stm32cubeide/plugins/com.st.stm32cube.ide.mcu.externaltools.gnu-tools-for-stm32.9-2020-q2-update.win32_2.0.0.202105311346/tools/bin/../lib/gcc/arm-none-eabi/9.3.1/../../../../arm-none-eabi/lib/thumb/v7e-m+fp/hard\libc_nano.a(lib_a-strlen.o)
                0x0000000008020210                strlen
 .text          0x0000000008020220       0xa0 d:/st/stm32cubeide_1.8.0/stm32cubeide/plugins/com.st.stm32cube.ide.mcu.externaltools.gnu-tools-for-stm32.9-2020-q2-update.win32_2.0.0.202105311346/tools/bin/../lib/gcc/arm-none-eabi/9.3.1/../../../../arm-none-eabi/lib/thumb/v7e-m+fp/hard\libc_nano.a(lib_a-memchr.o)
                0x0000000008020220                memchr
 .text          0x00000000080202c0       0xa0 d:/st/stm32cubeide_1.8.0/stm32cubeide/plugins/com.st.stm32cube.ide.mcu.externaltools.gnu-tools-for-stm32.9-2020-q2-update.win32_2.0.0.202105311346/tools/bin/../lib/gcc/arm-none-eabi/9.3.1/thumb/v7e-m+fp/hard\libgcc.a(_arm_truncdfsf2.o)
                0x00000000080202c0                __truncdfsf2
                0x00000000080202c0                __aeabi_d2f
 .text          0x0000000008020360       0x30 d:/st/stm32cubeide_1.8.0/stm32cubeide/plugins/com.st.stm32cube.ide.mcu.externaltools.gnu-tools-for-stm32.9-2020-q2-update.win32_2.0.0.202105311346/tools/bin/../lib/gcc/arm-none-eabi/9.3.1/thumb/v7e-m+fp/hard\libgcc.a(_aeabi_uldivmod.o)
                0x0000000008020360                __aeabi_uldivmod
 .text          0x0000000008020390      0x2c4 d:/st/stm32cubeide_1.8.0/stm32cubeide/plugins/com.st.stm32cube.ide.mcu.externaltools.gnu-tools-for-stm32.9-2020-q2-update.win32_2.0.0.202105311346/tools/bin/../lib/gcc/arm-none-eabi/9.3.1/thumb/v7e-m+fp/hard\libgcc.a(_udivmoddi4.o)
                0x0000000008020390                __udivmoddi4
 .text          0x0000000008020654        0x4 d:/st/stm32cubeide_1.8.0/stm32cubeide/plugins/com.st.stm32cube.ide.mcu.externaltools.gnu-tools-for-stm32.9-2020-q2-update.win32_2.0.0.202105311346/tools/bin/../lib/gcc/arm-none-eabi/9.3.1/thumb/v7e-m+fp/hard\libgcc.a(_dvmd_tls.o)
                0x0000000008020654                __aeabi_idiv0
                0x0000000008020654                __aeabi_ldiv0
 *(.text*)
 .text.MX_DMA_Init
                0x0000000008020658       0x98 ./Core/Src/dma.o
                0x0000000008020658                MX_DMA_Init
 .text.StartDefaultTask
                0x00000000080206f0      0x1a0 ./Core/Src/freertos.o
                0x00000000080206f0                StartDefaultTask
 .text.StartTask02
                0x0000000008020890       0xc4 ./Core/Src/freertos.o
                0x0000000008020890                StartTask02
 .text.StartTask03
                0x0000000008020954       0x1c ./Core/Src/freertos.o
                0x0000000008020954                StartTask03
 .text.StartTask04
                0x0000000008020970       0x30 ./Core/Src/freertos.o
                0x0000000008020970                StartTask04
 .text.StartTask05
                0x00000000080209a0       0x1a ./Core/Src/freertos.o
                0x00000000080209a0                StartTask05
 *fill*         0x00000000080209ba        0x2 
 .text.StartTask06
                0x00000000080209bc      0x134 ./Core/Src/freertos.o
                0x00000000080209bc                StartTask06
 .text.vApplicationIdleHook
                0x0000000008020af0        0x2 ./Core/Src/freertos.o
                0x0000000008020af0                vApplicationIdleHook
 .text.vApplicationTickHook
                0x0000000008020af2        0x2 ./Core/Src/freertos.o
                0x0000000008020af2                vApplicationTickHook
 .text.vApplicationMallocFailedHook
                0x0000000008020af4        0x2 ./Core/Src/freertos.o
                0x0000000008020af4                vApplicationMallocFailedHook
 .text.vApplicationDaemonTaskStartupHook
                0x0000000008020af6        0x2 ./Core/Src/freertos.o
                0x0000000008020af6                vApplicationDaemonTaskStartupHook
 .text.MX_FREERTOS_Init
                0x0000000008020af8      0x1a0 ./Core/Src/freertos.o
                0x0000000008020af8                MX_FREERTOS_Init
 .text.MX_GPIO_Init
                0x0000000008020c98      0x144 ./Core/Src/gpio.o
                0x0000000008020c98                MX_GPIO_Init
 .text.MX_IWDG_Init
                0x0000000008020ddc       0x28 ./Core/Src/iwdg.o
                0x0000000008020ddc                MX_IWDG_Init
 .text.HAL_TIM_PeriodElapsedCallback
                0x0000000008020e04       0x12 ./Core/Src/main.o
                0x0000000008020e04                HAL_TIM_PeriodElapsedCallback
 *fill*         0x0000000008020e16        0x2 
 .text.Error_Handler
                0x0000000008020e18       0x10 ./Core/Src/main.o
                0x0000000008020e18                Error_Handler
 .text.SystemClock_Config
                0x0000000008020e28       0xa8 ./Core/Src/main.o
                0x0000000008020e28                SystemClock_Config
 .text.main     0x0000000008020ed0       0x98 ./Core/Src/main.o
                0x0000000008020ed0                main
 .text.assert_failed
                0x0000000008020f68        0x2 ./Core/Src/main.o
                0x0000000008020f68                assert_failed
 *fill*         0x0000000008020f6a        0x2 
 .text.MX_RTC_Init
                0x0000000008020f6c       0x8c ./Core/Src/rtc.o
                0x0000000008020f6c                MX_RTC_Init
 .text.HAL_RTC_MspInit
                0x0000000008020ff8       0x44 ./Core/Src/rtc.o
                0x0000000008020ff8                HAL_RTC_MspInit
 .text.HAL_MspInit
                0x000000000802103c       0x44 ./Core/Src/stm32f4xx_hal_msp.o
                0x000000000802103c                HAL_MspInit
 .text.HAL_InitTick
                0x0000000008021080       0x78 ./Core/Src/stm32f4xx_hal_timebase_tim.o
                0x0000000008021080                HAL_InitTick
 .text.NMI_Handler
                0x00000000080210f8       0x10 ./Core/Src/stm32f4xx_it.o
                0x00000000080210f8                NMI_Handler
 .text.HardFault_Handler
                0x0000000008021108       0x10 ./Core/Src/stm32f4xx_it.o
                0x0000000008021108                HardFault_Handler
 .text.MemManage_Handler
                0x0000000008021118       0x10 ./Core/Src/stm32f4xx_it.o
                0x0000000008021118                MemManage_Handler
 .text.BusFault_Handler
                0x0000000008021128       0x10 ./Core/Src/stm32f4xx_it.o
                0x0000000008021128                BusFault_Handler
 .text.UsageFault_Handler
                0x0000000008021138       0x10 ./Core/Src/stm32f4xx_it.o
                0x0000000008021138                UsageFault_Handler
 .text.DebugMon_Handler
                0x0000000008021148       0x10 ./Core/Src/stm32f4xx_it.o
                0x0000000008021148                DebugMon_Handler
 .text.DMA1_Stream1_IRQHandler
                0x0000000008021158       0x10 ./Core/Src/stm32f4xx_it.o
                0x0000000008021158                DMA1_Stream1_IRQHandler
 .text.DMA1_Stream3_IRQHandler
                0x0000000008021168       0x10 ./Core/Src/stm32f4xx_it.o
                0x0000000008021168                DMA1_Stream3_IRQHandler
 .text.TIM1_UP_TIM10_IRQHandler
                0x0000000008021178       0x10 ./Core/Src/stm32f4xx_it.o
                0x0000000008021178                TIM1_UP_TIM10_IRQHandler
 .text.TIM2_IRQHandler
                0x0000000008021188       0x10 ./Core/Src/stm32f4xx_it.o
                0x0000000008021188                TIM2_IRQHandler
 .text.USART1_IRQHandler
                0x0000000008021198       0x18 ./Core/Src/stm32f4xx_it.o
                0x0000000008021198                USART1_IRQHandler
 .text.USART3_IRQHandler
                0x00000000080211b0       0x18 ./Core/Src/stm32f4xx_it.o
                0x00000000080211b0                USART3_IRQHandler
 .text.TIM6_IRQHandler
                0x00000000080211c8       0x18 ./Core/Src/stm32f4xx_it.o
                0x00000000080211c8                TIM6_IRQHandler
 .text.DMA2_Stream1_IRQHandler
                0x00000000080211e0       0x10 ./Core/Src/stm32f4xx_it.o
                0x00000000080211e0                DMA2_Stream1_IRQHandler
 .text.DMA2_Stream2_IRQHandler
                0x00000000080211f0       0x10 ./Core/Src/stm32f4xx_it.o
                0x00000000080211f0                DMA2_Stream2_IRQHandler
 .text.DMA2_Stream6_IRQHandler
                0x0000000008021200       0x10 ./Core/Src/stm32f4xx_it.o
                0x0000000008021200                DMA2_Stream6_IRQHandler
 .text.DMA2_Stream7_IRQHandler
                0x0000000008021210       0x10 ./Core/Src/stm32f4xx_it.o
                0x0000000008021210                DMA2_Stream7_IRQHandler
 .text.USART6_IRQHandler
                0x0000000008021220       0x18 ./Core/Src/stm32f4xx_it.o
                0x0000000008021220                USART6_IRQHandler
 .text._sbrk    0x0000000008021238       0x48 ./Core/Src/sysmem.o
                0x0000000008021238                _sbrk
 .text.SystemInit
                0x0000000008021280       0x14 ./Core/Src/system_stm32f4xx.o
                0x0000000008021280                SystemInit
 .text.MX_TIM6_Init
                0x0000000008021294       0x50 ./Core/Src/tim.o
                0x0000000008021294                MX_TIM6_Init
 .text.MX_TIM7_Init
                0x00000000080212e4       0x30 ./Core/Src/tim.o
                0x00000000080212e4                MX_TIM7_Init
 .text.MX_TIM10_Init
                0x0000000008021314       0x34 ./Core/Src/tim.o
                0x0000000008021314                MX_TIM10_Init
 .text.HAL_TIM_Base_MspInit
                0x0000000008021348       0x98 ./Core/Src/tim.o
                0x0000000008021348                HAL_TIM_Base_MspInit
 .text.MX_USART1_UART_Init
                0x00000000080213e0       0x34 ./Core/Src/usart.o
                0x00000000080213e0                MX_USART1_UART_Init
 .text.MX_USART3_UART_Init
                0x0000000008021414       0x34 ./Core/Src/usart.o
                0x0000000008021414                MX_USART3_UART_Init
 .text.MX_USART6_UART_Init
                0x0000000008021448       0x34 ./Core/Src/usart.o
                0x0000000008021448                MX_USART6_UART_Init
 .text.HAL_UART_MspInit
                0x000000000802147c      0x34c ./Core/Src/usart.o
                0x000000000802147c                HAL_UART_MspInit
 .text.Reset_Handler
                0x00000000080217c8       0x50 ./Core/Startup/startup_stm32f412retx.o
                0x00000000080217c8                Reset_Handler
 .text.Default_Handler
                0x0000000008021818        0x2 ./Core/Startup/startup_stm32f412retx.o
                0x0000000008021818                RTC_Alarm_IRQHandler
                0x0000000008021818                EXTI2_IRQHandler
                0x0000000008021818                TIM8_CC_IRQHandler
                0x0000000008021818                FMPI2C1_EV_IRQHandler
                0x0000000008021818                SPI4_IRQHandler
                0x0000000008021818                TIM1_CC_IRQHandler
                0x0000000008021818                DMA2_Stream5_IRQHandler
                0x0000000008021818                DMA1_Stream5_IRQHandler
                0x0000000008021818                PVD_IRQHandler
                0x0000000008021818                SDIO_IRQHandler
                0x0000000008021818                TAMP_STAMP_IRQHandler
                0x0000000008021818                CAN2_RX1_IRQHandler
                0x0000000008021818                EXTI3_IRQHandler
                0x0000000008021818                TIM8_TRG_COM_TIM14_IRQHandler
                0x0000000008021818                DFSDM1_FLT1_IRQHandler
                0x0000000008021818                TIM8_UP_TIM13_IRQHandler
                0x0000000008021818                I2C3_ER_IRQHandler
                0x0000000008021818                EXTI0_IRQHandler
                0x0000000008021818                I2C2_EV_IRQHandler
                0x0000000008021818                DMA1_Stream2_IRQHandler
                0x0000000008021818                CAN1_RX0_IRQHandler
                0x0000000008021818                FPU_IRQHandler
                0x0000000008021818                CAN2_SCE_IRQHandler
                0x0000000008021818                SPI1_IRQHandler
                0x0000000008021818                TIM1_BRK_TIM9_IRQHandler
                0x0000000008021818                CAN2_RX0_IRQHandler
                0x0000000008021818                DMA2_Stream3_IRQHandler
                0x0000000008021818                CAN1_RX1_IRQHandler
                0x0000000008021818                DMA2_Stream0_IRQHandler
                0x0000000008021818                TIM4_IRQHandler
                0x0000000008021818                QUADSPI_IRQHandler
                0x0000000008021818                I2C1_EV_IRQHandler
                0x0000000008021818                DMA1_Stream6_IRQHandler
                0x0000000008021818                TIM3_IRQHandler
                0x0000000008021818                RCC_IRQHandler
                0x0000000008021818                TIM8_BRK_TIM12_IRQHandler
                0x0000000008021818                Default_Handler
                0x0000000008021818                EXTI15_10_IRQHandler
                0x0000000008021818                ADC_IRQHandler
                0x0000000008021818                DMA1_Stream7_IRQHandler
                0x0000000008021818                SPI5_IRQHandler
                0x0000000008021818                TIM7_IRQHandler
                0x0000000008021818                CAN2_TX_IRQHandler
                0x0000000008021818                TIM5_IRQHandler
                0x0000000008021818                I2C3_EV_IRQHandler
                0x0000000008021818                EXTI9_5_IRQHandler
                0x0000000008021818                RTC_WKUP_IRQHandler
                0x0000000008021818                SPI2_IRQHandler
                0x0000000008021818                DMA1_Stream0_IRQHandler
                0x0000000008021818                CAN1_TX_IRQHandler
                0x0000000008021818                FMPI2C1_ER_IRQHandler
                0x0000000008021818                EXTI4_IRQHandler
                0x0000000008021818                RNG_IRQHandler
                0x0000000008021818                WWDG_IRQHandler
                0x0000000008021818                OTG_FS_WKUP_IRQHandler
                0x0000000008021818                TIM1_TRG_COM_TIM11_IRQHandler
                0x0000000008021818                EXTI1_IRQHandler
                0x0000000008021818                USART2_IRQHandler
                0x0000000008021818                DFSDM1_FLT0_IRQHandler
                0x0000000008021818                I2C2_ER_IRQHandler
                0x0000000008021818                CAN1_SCE_IRQHandler
                0x0000000008021818                FLASH_IRQHandler
                0x0000000008021818                DMA2_Stream4_IRQHandler
                0x0000000008021818                OTG_FS_IRQHandler
                0x0000000008021818                SPI3_IRQHandler
                0x0000000008021818                DMA1_Stream4_IRQHandler
                0x0000000008021818                I2C1_ER_IRQHandler
 .text.__retarget_lock_acquire_recursive
                0x000000000802181a       0x44 ./Core/ThreadSafe/newlib_lock_glue.o
                0x000000000802181a                __retarget_lock_acquire_recursive
 .text.__retarget_lock_release_recursive
                0x000000000802185e       0x34 ./Core/ThreadSafe/newlib_lock_glue.o
                0x000000000802185e                __retarget_lock_release_recursive
 *fill*         0x0000000008021892        0x2 
 .text.HAL_Init
                0x0000000008021894       0x34 ./Drivers/STM32F4xx_HAL_Driver/Src/stm32f4xx_hal.o
                0x0000000008021894                HAL_Init
 .text.HAL_IncTick
                0x00000000080218c8       0x18 ./Drivers/STM32F4xx_HAL_Driver/Src/stm32f4xx_hal.o
                0x00000000080218c8                HAL_IncTick
 .text.HAL_GetTick
                0x00000000080218e0        0xc ./Drivers/STM32F4xx_HAL_Driver/Src/stm32f4xx_hal.o
                0x00000000080218e0                HAL_GetTick
 .text.HAL_NVIC_SetPriorityGrouping
                0x00000000080218ec       0x3c ./Drivers/STM32F4xx_HAL_Driver/Src/stm32f4xx_hal_cortex.o
                0x00000000080218ec                HAL_NVIC_SetPriorityGrouping
 .text.HAL_NVIC_SetPriority
                0x0000000008021928       0x8c ./Drivers/STM32F4xx_HAL_Driver/Src/stm32f4xx_hal_cortex.o
                0x0000000008021928                HAL_NVIC_SetPriority
 .text.HAL_NVIC_EnableIRQ
                0x00000000080219b4       0x30 ./Drivers/STM32F4xx_HAL_Driver/Src/stm32f4xx_hal_cortex.o
                0x00000000080219b4                HAL_NVIC_EnableIRQ
 .text.DMA_SetConfig
                0x00000000080219e4       0x2c ./Drivers/STM32F4xx_HAL_Driver/Src/stm32f4xx_hal_dma.o
 .text.DMA_CalcBaseAndBitshift
                0x0000000008021a10       0x44 ./Drivers/STM32F4xx_HAL_Driver/Src/stm32f4xx_hal_dma.o
 .text.DMA_CheckFifoParam
                0x0000000008021a54       0x8e ./Drivers/STM32F4xx_HAL_Driver/Src/stm32f4xx_hal_dma.o
 *fill*         0x0000000008021ae2        0x2 
 .text.HAL_DMA_Init
                0x0000000008021ae4      0x290 ./Drivers/STM32F4xx_HAL_Driver/Src/stm32f4xx_hal_dma.o
                0x0000000008021ae4                HAL_DMA_Init
 .text.HAL_DMA_Start_IT
                0x0000000008021d74       0x98 ./Drivers/STM32F4xx_HAL_Driver/Src/stm32f4xx_hal_dma.o
                0x0000000008021d74                HAL_DMA_Start_IT
 .text.HAL_DMA_Abort
                0x0000000008021e0c       0x94 ./Drivers/STM32F4xx_HAL_Driver/Src/stm32f4xx_hal_dma.o
                0x0000000008021e0c                HAL_DMA_Abort
 .text.HAL_DMA_Abort_IT
                0x0000000008021ea0       0x26 ./Drivers/STM32F4xx_HAL_Driver/Src/stm32f4xx_hal_dma.o
                0x0000000008021ea0                HAL_DMA_Abort_IT
 *fill*         0x0000000008021ec6        0x2 
 .text.HAL_DMA_IRQHandler
                0x0000000008021ec8      0x1dc ./Drivers/STM32F4xx_HAL_Driver/Src/stm32f4xx_hal_dma.o
                0x0000000008021ec8                HAL_DMA_IRQHandler
 .text.FLASH_SetErrorCode
                0x00000000080220a4       0xa8 ./Drivers/STM32F4xx_HAL_Driver/Src/stm32f4xx_hal_flash.o
 .text.FLASH_Program_Byte
                0x000000000802214c       0x4c ./Drivers/STM32F4xx_HAL_Driver/Src/stm32f4xx_hal_flash.o
 .text.FLASH_Program_HalfWord
                0x0000000008022198       0x50 ./Drivers/STM32F4xx_HAL_Driver/Src/stm32f4xx_hal_flash.o
 .text.FLASH_Program_Word
                0x00000000080221e8       0x50 ./Drivers/STM32F4xx_HAL_Driver/Src/stm32f4xx_hal_flash.o
 .text.FLASH_Program_DoubleWord
                0x0000000008022238       0x58 ./Drivers/STM32F4xx_HAL_Driver/Src/stm32f4xx_hal_flash.o
 .text.HAL_FLASH_Unlock
                0x0000000008022290       0x30 ./Drivers/STM32F4xx_HAL_Driver/Src/stm32f4xx_hal_flash.o
                0x0000000008022290                HAL_FLASH_Unlock
 .text.FLASH_WaitForLastOperation
                0x00000000080222c0       0x60 ./Drivers/STM32F4xx_HAL_Driver/Src/stm32f4xx_hal_flash.o
                0x00000000080222c0                FLASH_WaitForLastOperation
 .text.HAL_FLASH_Program
                0x0000000008022320       0x8c ./Drivers/STM32F4xx_HAL_Driver/Src/stm32f4xx_hal_flash.o
                0x0000000008022320                HAL_FLASH_Program
 .text.FLASH_MassErase
                0x00000000080223ac       0x50 ./Drivers/STM32F4xx_HAL_Driver/Src/stm32f4xx_hal_flash_ex.o
 .text.FLASH_Erase_Sector
                0x00000000080223fc       0x7c ./Drivers/STM32F4xx_HAL_Driver/Src/stm32f4xx_hal_flash_ex.o
                0x00000000080223fc                FLASH_Erase_Sector
 .text.FLASH_FlushCaches
                0x0000000008022478       0x60 ./Drivers/STM32F4xx_HAL_Driver/Src/stm32f4xx_hal_flash_ex.o
                0x0000000008022478                FLASH_FlushCaches
 .text.HAL_FLASHEx_Erase
                0x00000000080224d8       0xc0 ./Drivers/STM32F4xx_HAL_Driver/Src/stm32f4xx_hal_flash_ex.o
                0x00000000080224d8                HAL_FLASHEx_Erase
 .text.HAL_GPIO_Init
                0x0000000008022598      0x26c ./Drivers/STM32F4xx_HAL_Driver/Src/stm32f4xx_hal_gpio.o
                0x0000000008022598                HAL_GPIO_Init
 .text.HAL_GPIO_ReadPin
                0x0000000008022804       0x28 ./Drivers/STM32F4xx_HAL_Driver/Src/stm32f4xx_hal_gpio.o
                0x0000000008022804                HAL_GPIO_ReadPin
 .text.HAL_GPIO_WritePin
                0x000000000802282c       0x38 ./Drivers/STM32F4xx_HAL_Driver/Src/stm32f4xx_hal_gpio.o
                0x000000000802282c                HAL_GPIO_WritePin
 .text.HAL_GPIO_TogglePin
                0x0000000008022864       0x2c ./Drivers/STM32F4xx_HAL_Driver/Src/stm32f4xx_hal_gpio.o
                0x0000000008022864                HAL_GPIO_TogglePin
 .text.HAL_IWDG_Init
                0x0000000008022890       0x94 ./Drivers/STM32F4xx_HAL_Driver/Src/stm32f4xx_hal_iwdg.o
                0x0000000008022890                HAL_IWDG_Init
 .text.HAL_IWDG_Refresh
                0x0000000008022924        0xc ./Drivers/STM32F4xx_HAL_Driver/Src/stm32f4xx_hal_iwdg.o
                0x0000000008022924                HAL_IWDG_Refresh
 .text.HAL_RCC_GetSysClockFreq
                0x0000000008022930       0xcc ./Drivers/STM32F4xx_HAL_Driver/Src/stm32f4xx_hal_rcc.o
                0x0000000008022930                HAL_RCC_GetSysClockFreq
 .text.HAL_RCC_ClockConfig
                0x00000000080229fc      0x21c ./Drivers/STM32F4xx_HAL_Driver/Src/stm32f4xx_hal_rcc.o
                0x00000000080229fc                HAL_RCC_ClockConfig
 .text.HAL_RCC_GetHCLKFreq
                0x0000000008022c18        0xc ./Drivers/STM32F4xx_HAL_Driver/Src/stm32f4xx_hal_rcc.o
                0x0000000008022c18                HAL_RCC_GetHCLKFreq
 .text.HAL_RCC_GetPCLK1Freq
                0x0000000008022c24       0x20 ./Drivers/STM32F4xx_HAL_Driver/Src/stm32f4xx_hal_rcc.o
                0x0000000008022c24                HAL_RCC_GetPCLK1Freq
 .text.HAL_RCC_GetPCLK2Freq
                0x0000000008022c44       0x20 ./Drivers/STM32F4xx_HAL_Driver/Src/stm32f4xx_hal_rcc.o
                0x0000000008022c44                HAL_RCC_GetPCLK2Freq
 .text.HAL_RCC_GetClockConfig
                0x0000000008022c64       0x3c ./Drivers/STM32F4xx_HAL_Driver/Src/stm32f4xx_hal_rcc.o
                0x0000000008022c64                HAL_RCC_GetClockConfig
 .text.HAL_RCCEx_PeriphCLKConfig
                0x0000000008022ca0      0x540 ./Drivers/STM32F4xx_HAL_Driver/Src/stm32f4xx_hal_rcc_ex.o
                0x0000000008022ca0                HAL_RCCEx_PeriphCLKConfig
 .text.HAL_RCC_OscConfig
                0x00000000080231e0      0x534 ./Drivers/STM32F4xx_HAL_Driver/Src/stm32f4xx_hal_rcc_ex.o
                0x00000000080231e0                HAL_RCC_OscConfig
 .text.HAL_RTC_WaitForSynchro
                0x0000000008023714       0x32 ./Drivers/STM32F4xx_HAL_Driver/Src/stm32f4xx_hal_rtc.o
                0x0000000008023714                HAL_RTC_WaitForSynchro
 .text.RTC_EnterInitMode
                0x0000000008023746       0x46 ./Drivers/STM32F4xx_HAL_Driver/Src/stm32f4xx_hal_rtc.o
                0x0000000008023746                RTC_EnterInitMode
 .text.RTC_ExitInitMode
                0x000000000802378c       0x2a ./Drivers/STM32F4xx_HAL_Driver/Src/stm32f4xx_hal_rtc.o
                0x000000000802378c                RTC_ExitInitMode
 *fill*         0x00000000080237b6        0x2 
 .text.HAL_RTC_Init
                0x00000000080237b8      0x138 ./Drivers/STM32F4xx_HAL_Driver/Src/stm32f4xx_hal_rtc.o
                0x00000000080237b8                HAL_RTC_Init
 .text.RTC_ByteToBcd2
                0x00000000080238f0       0x18 ./Drivers/STM32F4xx_HAL_Driver/Src/stm32f4xx_hal_rtc.o
                0x00000000080238f0                RTC_ByteToBcd2
 .text.RTC_Bcd2ToByte
                0x0000000008023908       0x12 ./Drivers/STM32F4xx_HAL_Driver/Src/stm32f4xx_hal_rtc.o
                0x0000000008023908                RTC_Bcd2ToByte
 *fill*         0x000000000802391a        0x2 
 .text.HAL_RTC_SetTime
                0x000000000802391c      0x1d4 ./Drivers/STM32F4xx_HAL_Driver/Src/stm32f4xx_hal_rtc.o
                0x000000000802391c                HAL_RTC_SetTime
 .text.HAL_RTC_GetTime
                0x0000000008023af0       0x64 ./Drivers/STM32F4xx_HAL_Driver/Src/stm32f4xx_hal_rtc.o
                0x0000000008023af0                HAL_RTC_GetTime
 .text.HAL_RTC_SetDate
                0x0000000008023b54      0x150 ./Drivers/STM32F4xx_HAL_Driver/Src/stm32f4xx_hal_rtc.o
                0x0000000008023b54                HAL_RTC_SetDate
 .text.HAL_RTC_GetDate
                0x0000000008023ca4       0x54 ./Drivers/STM32F4xx_HAL_Driver/Src/stm32f4xx_hal_rtc.o
                0x0000000008023ca4                HAL_RTC_GetDate
 .text.HAL_TIM_Base_Start_IT
                0x0000000008023cf8      0x108 ./Drivers/STM32F4xx_HAL_Driver/Src/stm32f4xx_hal_tim.o
                0x0000000008023cf8                HAL_TIM_Base_Start_IT
 .text.HAL_TIM_OC_DelayElapsedCallback
                0x0000000008023e00        0x2 ./Drivers/STM32F4xx_HAL_Driver/Src/stm32f4xx_hal_tim.o
                0x0000000008023e00                HAL_TIM_OC_DelayElapsedCallback
 .text.HAL_TIM_IC_CaptureCallback
                0x0000000008023e02        0x2 ./Drivers/STM32F4xx_HAL_Driver/Src/stm32f4xx_hal_tim.o
                0x0000000008023e02                HAL_TIM_IC_CaptureCallback
 .text.HAL_TIM_PWM_PulseFinishedCallback
                0x0000000008023e04        0x2 ./Drivers/STM32F4xx_HAL_Driver/Src/stm32f4xx_hal_tim.o
                0x0000000008023e04                HAL_TIM_PWM_PulseFinishedCallback
 .text.HAL_TIM_TriggerCallback
                0x0000000008023e06        0x2 ./Drivers/STM32F4xx_HAL_Driver/Src/stm32f4xx_hal_tim.o
                0x0000000008023e06                HAL_TIM_TriggerCallback
 .text.HAL_TIM_IRQHandler
                0x0000000008023e08      0x17a ./Drivers/STM32F4xx_HAL_Driver/Src/stm32f4xx_hal_tim.o
                0x0000000008023e08                HAL_TIM_IRQHandler
 *fill*         0x0000000008023f82        0x2 
 .text.TIM_Base_SetConfig
                0x0000000008023f84       0xc8 ./Drivers/STM32F4xx_HAL_Driver/Src/stm32f4xx_hal_tim.o
                0x0000000008023f84                TIM_Base_SetConfig
 .text.HAL_TIM_Base_Init
                0x000000000802404c      0x130 ./Drivers/STM32F4xx_HAL_Driver/Src/stm32f4xx_hal_tim.o
                0x000000000802404c                HAL_TIM_Base_Init
 .text.HAL_TIMEx_MasterConfigSynchronization
                0x000000000802417c      0x110 ./Drivers/STM32F4xx_HAL_Driver/Src/stm32f4xx_hal_tim_ex.o
                0x000000000802417c                HAL_TIMEx_MasterConfigSynchronization
 .text.HAL_TIMEx_CommutCallback
                0x000000000802428c        0x2 ./Drivers/STM32F4xx_HAL_Driver/Src/stm32f4xx_hal_tim_ex.o
                0x000000000802428c                HAL_TIMEx_CommutCallback
 .text.HAL_TIMEx_BreakCallback
                0x000000000802428e        0x2 ./Drivers/STM32F4xx_HAL_Driver/Src/stm32f4xx_hal_tim_ex.o
                0x000000000802428e                HAL_TIMEx_BreakCallback
 .text.UART_EndTxTransfer
                0x0000000008024290       0x20 ./Drivers/STM32F4xx_HAL_Driver/Src/stm32f4xx_hal_uart.o
 .text.UART_EndRxTransfer
                0x00000000080242b0       0x5c ./Drivers/STM32F4xx_HAL_Driver/Src/stm32f4xx_hal_uart.o
 .text.UART_Transmit_IT
                0x000000000802430c       0x60 ./Drivers/STM32F4xx_HAL_Driver/Src/stm32f4xx_hal_uart.o
 .text.UART_SetConfig
                0x000000000802436c      0x180 ./Drivers/STM32F4xx_HAL_Driver/Src/stm32f4xx_hal_uart.o
 .text.UART_WaitOnFlagUntilTimeout
                0x00000000080244ec       0x84 ./Drivers/STM32F4xx_HAL_Driver/Src/stm32f4xx_hal_uart.o
 .text.HAL_UART_Init
                0x0000000008024570      0x108 ./Drivers/STM32F4xx_HAL_Driver/Src/stm32f4xx_hal_uart.o
                0x0000000008024570                HAL_UART_Init
 .text.HAL_UART_Transmit
                0x0000000008024678       0xd8 ./Drivers/STM32F4xx_HAL_Driver/Src/stm32f4xx_hal_uart.o
                0x0000000008024678                HAL_UART_Transmit
 .text.HAL_UART_DMAStop
                0x0000000008024750       0x84 ./Drivers/STM32F4xx_HAL_Driver/Src/stm32f4xx_hal_uart.o
                0x0000000008024750                HAL_UART_DMAStop
 .text.UART_EndTransmit_IT
                0x00000000080247d4       0x1a ./Drivers/STM32F4xx_HAL_Driver/Src/stm32f4xx_hal_uart.o
 .text.HAL_UART_RxCpltCallback
                0x00000000080247ee        0x2 ./Drivers/STM32F4xx_HAL_Driver/Src/stm32f4xx_hal_uart.o
                0x00000000080247ee                HAL_UART_RxCpltCallback
 .text.HAL_UART_RxHalfCpltCallback
                0x00000000080247f0        0x2 ./Drivers/STM32F4xx_HAL_Driver/Src/stm32f4xx_hal_uart.o
                0x00000000080247f0                HAL_UART_RxHalfCpltCallback
 .text.HAL_UART_ErrorCallback
                0x00000000080247f2        0x2 ./Drivers/STM32F4xx_HAL_Driver/Src/stm32f4xx_hal_uart.o
                0x00000000080247f2                HAL_UART_ErrorCallback
 .text.UART_DMAError
                0x00000000080247f4       0x58 ./Drivers/STM32F4xx_HAL_Driver/Src/stm32f4xx_hal_uart.o
 .text.UART_DMAAbortOnError
                0x000000000802484c       0x10 ./Drivers/STM32F4xx_HAL_Driver/Src/stm32f4xx_hal_uart.o
 .text.HAL_UARTEx_RxEventCallback
                0x000000000802485c        0x2 ./Drivers/STM32F4xx_HAL_Driver/Src/stm32f4xx_hal_uart.o
                0x000000000802485c                HAL_UARTEx_RxEventCallback
 .text.UART_Receive_IT
                0x000000000802485e       0xe2 ./Drivers/STM32F4xx_HAL_Driver/Src/stm32f4xx_hal_uart.o
 .text.HAL_UART_IRQHandler
                0x0000000008024940      0x280 ./Drivers/STM32F4xx_HAL_Driver/Src/stm32f4xx_hal_uart.o
                0x0000000008024940                HAL_UART_IRQHandler
 .text.UART_DMARxHalfCplt
                0x0000000008024bc0       0x1a ./Drivers/STM32F4xx_HAL_Driver/Src/stm32f4xx_hal_uart.o
 .text.UART_DMAReceiveCplt
                0x0000000008024bda       0x96 ./Drivers/STM32F4xx_HAL_Driver/Src/stm32f4xx_hal_uart.o
 .text.UART_Start_Receive_DMA
                0x0000000008024c70       0xa8 ./Drivers/STM32F4xx_HAL_Driver/Src/stm32f4xx_hal_uart.o
                0x0000000008024c70                UART_Start_Receive_DMA
 .text.HAL_UART_Receive_DMA
                0x0000000008024d18       0x38 ./Drivers/STM32F4xx_HAL_Driver/Src/stm32f4xx_hal_uart.o
                0x0000000008024d18                HAL_UART_Receive_DMA
 .text.SysTick_Handler
                0x0000000008024d50       0x1c ./Middlewares/Third_Party/FreeRTOS/Source/CMSIS_RTOS_V2/cmsis_os2.o
                0x0000000008024d50                SysTick_Handler
 .text.osKernelInitialize
                0x0000000008024d6c       0x24 ./Middlewares/Third_Party/FreeRTOS/Source/CMSIS_RTOS_V2/cmsis_os2.o
                0x0000000008024d6c                osKernelInitialize
 .text.osKernelStart
                0x0000000008024d90       0x38 ./Middlewares/Third_Party/FreeRTOS/Source/CMSIS_RTOS_V2/cmsis_os2.o
                0x0000000008024d90                osKernelStart
 .text.osThreadNew
                0x0000000008024dc8       0xbc ./Middlewares/Third_Party/FreeRTOS/Source/CMSIS_RTOS_V2/cmsis_os2.o
                0x0000000008024dc8                osThreadNew
 .text.osThreadSuspend
                0x0000000008024e84       0x1e ./Middlewares/Third_Party/FreeRTOS/Source/CMSIS_RTOS_V2/cmsis_os2.o
                0x0000000008024e84                osThreadSuspend
 .text.osThreadResume
                0x0000000008024ea2       0x1e ./Middlewares/Third_Party/FreeRTOS/Source/CMSIS_RTOS_V2/cmsis_os2.o
                0x0000000008024ea2                osThreadResume
 .text.osThreadTerminate
                0x0000000008024ec0       0x30 ./Middlewares/Third_Party/FreeRTOS/Source/CMSIS_RTOS_V2/cmsis_os2.o
                0x0000000008024ec0                osThreadTerminate
 .text.osDelay  0x0000000008024ef0       0x1c ./Middlewares/Third_Party/FreeRTOS/Source/CMSIS_RTOS_V2/cmsis_os2.o
                0x0000000008024ef0                osDelay
 .text.osEventFlagsNew
                0x0000000008024f0c       0x44 ./Middlewares/Third_Party/FreeRTOS/Source/CMSIS_RTOS_V2/cmsis_os2.o
                0x0000000008024f0c                osEventFlagsNew
 .text.osMutexNew
                0x0000000008024f50       0x94 ./Middlewares/Third_Party/FreeRTOS/Source/CMSIS_RTOS_V2/cmsis_os2.o
                0x0000000008024f50                osMutexNew
 .text.osMutexAcquire
                0x0000000008024fe4       0x58 ./Middlewares/Third_Party/FreeRTOS/Source/CMSIS_RTOS_V2/cmsis_os2.o
                0x0000000008024fe4                osMutexAcquire
 .text.osMutexRelease
                0x000000000802503c       0x4c ./Middlewares/Third_Party/FreeRTOS/Source/CMSIS_RTOS_V2/cmsis_os2.o
                0x000000000802503c                osMutexRelease
 .text.osSemaphoreNew
                0x0000000008025088       0xb4 ./Middlewares/Third_Party/FreeRTOS/Source/CMSIS_RTOS_V2/cmsis_os2.o
                0x0000000008025088                osSemaphoreNew
 .text.osSemaphoreAcquire
                0x000000000802513c       0x68 ./Middlewares/Third_Party/FreeRTOS/Source/CMSIS_RTOS_V2/cmsis_os2.o
                0x000000000802513c                osSemaphoreAcquire
 .text.osMessageQueueNew
                0x00000000080251a4       0x96 ./Middlewares/Third_Party/FreeRTOS/Source/CMSIS_RTOS_V2/cmsis_os2.o
                0x00000000080251a4                osMessageQueueNew
 *fill*         0x000000000802523a        0x2 
 .text.osMessageQueuePut
                0x000000000802523c       0x84 ./Middlewares/Third_Party/FreeRTOS/Source/CMSIS_RTOS_V2/cmsis_os2.o
                0x000000000802523c                osMessageQueuePut
 .text.osMessageQueueGet
                0x00000000080252c0       0x84 ./Middlewares/Third_Party/FreeRTOS/Source/CMSIS_RTOS_V2/cmsis_os2.o
                0x00000000080252c0                osMessageQueueGet
 .text.osMessageQueueGetCount
                0x0000000008025344       0x1a ./Middlewares/Third_Party/FreeRTOS/Source/CMSIS_RTOS_V2/cmsis_os2.o
                0x0000000008025344                osMessageQueueGetCount
 *fill*         0x000000000802535e        0x2 
 .text.vApplicationGetIdleTaskMemory
                0x0000000008025360       0x18 ./Middlewares/Third_Party/FreeRTOS/Source/CMSIS_RTOS_V2/cmsis_os2.o
                0x0000000008025360                vApplicationGetIdleTaskMemory
 .text.vApplicationGetTimerTaskMemory
                0x0000000008025378       0x18 ./Middlewares/Third_Party/FreeRTOS/Source/CMSIS_RTOS_V2/cmsis_os2.o
                0x0000000008025378                vApplicationGetTimerTaskMemory
 .text.xEventGroupCreateStatic
                0x0000000008025390       0x4a ./Middlewares/Third_Party/FreeRTOS/Source/event_groups.o
                0x0000000008025390                xEventGroupCreateStatic
 .text.xEventGroupCreate
                0x00000000080253da       0x1c ./Middlewares/Third_Party/FreeRTOS/Source/event_groups.o
                0x00000000080253da                xEventGroupCreate
 .text.vListInitialise
                0x00000000080253f6       0x16 ./Middlewares/Third_Party/FreeRTOS/Source/list.o
                0x00000000080253f6                vListInitialise
 .text.vListInitialiseItem
                0x000000000802540c        0x6 ./Middlewares/Third_Party/FreeRTOS/Source/list.o
                0x000000000802540c                vListInitialiseItem
 .text.vListInsertEnd
                0x0000000008025412       0x16 ./Middlewares/Third_Party/FreeRTOS/Source/list.o
                0x0000000008025412                vListInsertEnd
 .text.vListInsert
                0x0000000008025428       0x32 ./Middlewares/Third_Party/FreeRTOS/Source/list.o
                0x0000000008025428                vListInsert
 .text.uxListRemove
                0x000000000802545a       0x26 ./Middlewares/Third_Party/FreeRTOS/Source/list.o
                0x000000000802545a                uxListRemove
 .text.prvGetDisinheritPriorityAfterTimeout
                0x0000000008025480       0x10 ./Middlewares/Third_Party/FreeRTOS/Source/queue.o
 .text.prvIsQueueFull
                0x0000000008025490       0x1e ./Middlewares/Third_Party/FreeRTOS/Source/queue.o
 .text.prvIsQueueEmpty
                0x00000000080254ae       0x1a ./Middlewares/Third_Party/FreeRTOS/Source/queue.o
 .text.prvCopyDataToQueue
                0x00000000080254c8       0x76 ./Middlewares/Third_Party/FreeRTOS/Source/queue.o
 .text.prvCopyDataFromQueue
                0x000000000802553e       0x24 ./Middlewares/Third_Party/FreeRTOS/Source/queue.o
 .text.prvUnlockQueue
                0x0000000008025562       0x6e ./Middlewares/Third_Party/FreeRTOS/Source/queue.o
 .text.xQueueGenericReset
                0x00000000080255d0       0x84 ./Middlewares/Third_Party/FreeRTOS/Source/queue.o
                0x00000000080255d0                xQueueGenericReset
 .text.prvInitialiseNewQueue
                0x0000000008025654       0x22 ./Middlewares/Third_Party/FreeRTOS/Source/queue.o
 .text.xQueueGenericCreateStatic
                0x0000000008025676       0x94 ./Middlewares/Third_Party/FreeRTOS/Source/queue.o
                0x0000000008025676                xQueueGenericCreateStatic
 .text.xQueueGenericCreate
                0x000000000802570a       0x48 ./Middlewares/Third_Party/FreeRTOS/Source/queue.o
                0x000000000802570a                xQueueGenericCreate
 .text.xQueueCreateCountingSemaphoreStatic
                0x0000000008025752       0x4a ./Middlewares/Third_Party/FreeRTOS/Source/queue.o
                0x0000000008025752                xQueueCreateCountingSemaphoreStatic
 .text.xQueueCreateCountingSemaphore
                0x000000000802579c       0x40 ./Middlewares/Third_Party/FreeRTOS/Source/queue.o
                0x000000000802579c                xQueueCreateCountingSemaphore
 .text.xQueueGenericSend
                0x00000000080257dc      0x180 ./Middlewares/Third_Party/FreeRTOS/Source/queue.o
                0x00000000080257dc                xQueueGenericSend
 .text.prvInitialiseMutex
                0x000000000802595c       0x18 ./Middlewares/Third_Party/FreeRTOS/Source/queue.o
 .text.xQueueCreateMutex
                0x0000000008025974       0x16 ./Middlewares/Third_Party/FreeRTOS/Source/queue.o
                0x0000000008025974                xQueueCreateMutex
 .text.xQueueCreateMutexStatic
                0x000000000802598a       0x1e ./Middlewares/Third_Party/FreeRTOS/Source/queue.o
                0x000000000802598a                xQueueCreateMutexStatic
 .text.xQueueGiveMutexRecursive
                0x00000000080259a8       0x40 ./Middlewares/Third_Party/FreeRTOS/Source/queue.o
                0x00000000080259a8                xQueueGiveMutexRecursive
 .text.xQueueGenericSendFromISR
                0x00000000080259e8       0xd0 ./Middlewares/Third_Party/FreeRTOS/Source/queue.o
                0x00000000080259e8                xQueueGenericSendFromISR
 .text.xQueueReceive
                0x0000000008025ab8      0x15c ./Middlewares/Third_Party/FreeRTOS/Source/queue.o
                0x0000000008025ab8                xQueueReceive
 .text.xQueueSemaphoreTake
                0x0000000008025c14      0x1a4 ./Middlewares/Third_Party/FreeRTOS/Source/queue.o
                0x0000000008025c14                xQueueSemaphoreTake
 .text.xQueueTakeMutexRecursive
                0x0000000008025db8       0x44 ./Middlewares/Third_Party/FreeRTOS/Source/queue.o
                0x0000000008025db8                xQueueTakeMutexRecursive
 .text.xQueueReceiveFromISR
                0x0000000008025dfc       0xac ./Middlewares/Third_Party/FreeRTOS/Source/queue.o
                0x0000000008025dfc                xQueueReceiveFromISR
 .text.uxQueueMessagesWaiting
                0x0000000008025ea8       0x26 ./Middlewares/Third_Party/FreeRTOS/Source/queue.o
                0x0000000008025ea8                uxQueueMessagesWaiting
 .text.uxQueueMessagesWaitingFromISR
                0x0000000008025ece       0x18 ./Middlewares/Third_Party/FreeRTOS/Source/queue.o
                0x0000000008025ece                uxQueueMessagesWaitingFromISR
 *fill*         0x0000000008025ee6        0x2 
 .text.vQueueAddToRegistry
                0x0000000008025ee8       0x28 ./Middlewares/Third_Party/FreeRTOS/Source/queue.o
                0x0000000008025ee8                vQueueAddToRegistry
 .text.vQueueUnregisterQueue
                0x0000000008025f10       0x2c ./Middlewares/Third_Party/FreeRTOS/Source/queue.o
                0x0000000008025f10                vQueueUnregisterQueue
 .text.vQueueDelete
                0x0000000008025f3c       0x2c ./Middlewares/Third_Party/FreeRTOS/Source/queue.o
                0x0000000008025f3c                vQueueDelete
 .text.vQueueWaitForMessageRestricted
                0x0000000008025f68       0x52 ./Middlewares/Third_Party/FreeRTOS/Source/queue.o
                0x0000000008025f68                vQueueWaitForMessageRestricted
 *fill*         0x0000000008025fba        0x2 
 .text.prvTaskIsTaskSuspended
                0x0000000008025fbc       0x40 ./Middlewares/Third_Party/FreeRTOS/Source/tasks.o
 .text.prvResetNextTaskUnblockTime
                0x0000000008025ffc       0x2c ./Middlewares/Third_Party/FreeRTOS/Source/tasks.o
 .text.prvInitialiseNewTask
                0x0000000008026028       0xc4 ./Middlewares/Third_Party/FreeRTOS/Source/tasks.o
 .text.prvInitialiseTaskLists
                0x00000000080260ec       0x68 ./Middlewares/Third_Party/FreeRTOS/Source/tasks.o
 .text.prvAddNewTaskToReadyList
                0x0000000008026154       0xac ./Middlewares/Third_Party/FreeRTOS/Source/tasks.o
 .text.prvDeleteTCB
                0x0000000008026200       0x40 ./Middlewares/Third_Party/FreeRTOS/Source/tasks.o
 .text.prvCheckTasksWaitingTermination
                0x0000000008026240       0x4c ./Middlewares/Third_Party/FreeRTOS/Source/tasks.o
 .text.prvAddCurrentTaskToDelayedList
                0x000000000802628c       0x7c ./Middlewares/Third_Party/FreeRTOS/Source/tasks.o
 .text.prvIdleTask
                0x0000000008026308       0x30 ./Middlewares/Third_Party/FreeRTOS/Source/tasks.o
 .text.xTaskCreateStatic
                0x0000000008026338       0x74 ./Middlewares/Third_Party/FreeRTOS/Source/tasks.o
                0x0000000008026338                xTaskCreateStatic
 .text.xTaskCreate
                0x00000000080263ac       0x68 ./Middlewares/Third_Party/FreeRTOS/Source/tasks.o
                0x00000000080263ac                xTaskCreate
 .text.vTaskDelete
                0x0000000008026414       0xb8 ./Middlewares/Third_Party/FreeRTOS/Source/tasks.o
                0x0000000008026414                vTaskDelete
 .text.eTaskGetState
                0x00000000080264cc       0x90 ./Middlewares/Third_Party/FreeRTOS/Source/tasks.o
                0x00000000080264cc                eTaskGetState
 .text.vTaskResume
                0x000000000802655c       0x88 ./Middlewares/Third_Party/FreeRTOS/Source/tasks.o
                0x000000000802655c                vTaskResume
 .text.vTaskStartScheduler
                0x00000000080265e4       0xa8 ./Middlewares/Third_Party/FreeRTOS/Source/tasks.o
                0x00000000080265e4                vTaskStartScheduler
 .text.vTaskSuspendAll
                0x000000000802668c       0x10 ./Middlewares/Third_Party/FreeRTOS/Source/tasks.o
                0x000000000802668c                vTaskSuspendAll
 .text.xTaskGetTickCount
                0x000000000802669c        0xc ./Middlewares/Third_Party/FreeRTOS/Source/tasks.o
                0x000000000802669c                xTaskGetTickCount
 .text.xTaskIncrementTick
                0x00000000080266a8      0x12c ./Middlewares/Third_Party/FreeRTOS/Source/tasks.o
                0x00000000080266a8                xTaskIncrementTick
 .text.xTaskResumeAll
                0x00000000080267d4       0xf8 ./Middlewares/Third_Party/FreeRTOS/Source/tasks.o
                0x00000000080267d4                xTaskResumeAll
 .text.vTaskDelay
                0x00000000080268cc       0x4c ./Middlewares/Third_Party/FreeRTOS/Source/tasks.o
                0x00000000080268cc                vTaskDelay
 .text.vTaskSwitchContext
                0x0000000008026918       0xa4 ./Middlewares/Third_Party/FreeRTOS/Source/tasks.o
                0x0000000008026918                vTaskSwitchContext
 .text.vTaskSuspend
                0x00000000080269bc       0xc4 ./Middlewares/Third_Party/FreeRTOS/Source/tasks.o
                0x00000000080269bc                vTaskSuspend
 .text.vTaskPlaceOnEventList
                0x0000000008026a80       0x30 ./Middlewares/Third_Party/FreeRTOS/Source/tasks.o
                0x0000000008026a80                vTaskPlaceOnEventList
 .text.vTaskPlaceOnEventListRestricted
                0x0000000008026ab0       0x38 ./Middlewares/Third_Party/FreeRTOS/Source/tasks.o
                0x0000000008026ab0                vTaskPlaceOnEventListRestricted
 .text.xTaskRemoveFromEventList
                0x0000000008026ae8       0x8c ./Middlewares/Third_Party/FreeRTOS/Source/tasks.o
                0x0000000008026ae8                xTaskRemoveFromEventList
 .text.vTaskInternalSetTimeOutState
                0x0000000008026b74       0x18 ./Middlewares/Third_Party/FreeRTOS/Source/tasks.o
                0x0000000008026b74                vTaskInternalSetTimeOutState
 .text.xTaskCheckForTimeOut
                0x0000000008026b8c       0x84 ./Middlewares/Third_Party/FreeRTOS/Source/tasks.o
                0x0000000008026b8c                xTaskCheckForTimeOut
 .text.vTaskMissedYield
                0x0000000008026c10        0xc ./Middlewares/Third_Party/FreeRTOS/Source/tasks.o
                0x0000000008026c10                vTaskMissedYield
 .text.xTaskGetCurrentTaskHandle
                0x0000000008026c1c        0xc ./Middlewares/Third_Party/FreeRTOS/Source/tasks.o
                0x0000000008026c1c                xTaskGetCurrentTaskHandle
 .text.xTaskGetSchedulerState
                0x0000000008026c28       0x20 ./Middlewares/Third_Party/FreeRTOS/Source/tasks.o
                0x0000000008026c28                xTaskGetSchedulerState
 .text.xTaskPriorityInherit
                0x0000000008026c48       0x98 ./Middlewares/Third_Party/FreeRTOS/Source/tasks.o
                0x0000000008026c48                xTaskPriorityInherit
 .text.xTaskPriorityDisinherit
                0x0000000008026ce0       0x90 ./Middlewares/Third_Party/FreeRTOS/Source/tasks.o
                0x0000000008026ce0                xTaskPriorityDisinherit
 .text.vTaskPriorityDisinheritAfterTimeout
                0x0000000008026d70       0xa4 ./Middlewares/Third_Party/FreeRTOS/Source/tasks.o
                0x0000000008026d70                vTaskPriorityDisinheritAfterTimeout
 .text.pvTaskIncrementMutexHeldCount
                0x0000000008026e14       0x1c ./Middlewares/Third_Party/FreeRTOS/Source/tasks.o
                0x0000000008026e14                pvTaskIncrementMutexHeldCount
 .text.prvGetNextExpireTime
                0x0000000008026e30       0x20 ./Middlewares/Third_Party/FreeRTOS/Source/timers.o
 .text.prvInsertTimerInActiveList
                0x0000000008026e50       0x48 ./Middlewares/Third_Party/FreeRTOS/Source/timers.o
 .text.prvCheckForValidListAndQueue
                0x0000000008026e98       0x70 ./Middlewares/Third_Party/FreeRTOS/Source/timers.o
 .text.xTimerCreateTimerTask
                0x0000000008026f08       0x64 ./Middlewares/Third_Party/FreeRTOS/Source/timers.o
                0x0000000008026f08                xTimerCreateTimerTask
 .text.xTimerGenericCommand
                0x0000000008026f6c       0x6c ./Middlewares/Third_Party/FreeRTOS/Source/timers.o
                0x0000000008026f6c                xTimerGenericCommand
 .text.prvSwitchTimerLists
                0x0000000008026fd8       0x7c ./Middlewares/Third_Party/FreeRTOS/Source/timers.o
 .text.prvSampleTimeNow
                0x0000000008027054       0x2c ./Middlewares/Third_Party/FreeRTOS/Source/timers.o
 .text.prvProcessExpiredTimer
                0x0000000008027080       0x6c ./Middlewares/Third_Party/FreeRTOS/Source/timers.o
 .text.prvProcessTimerOrBlockTask
                0x00000000080270ec       0x74 ./Middlewares/Third_Party/FreeRTOS/Source/timers.o
 .text.prvProcessReceivedCommands
                0x0000000008027160      0x10c ./Middlewares/Third_Party/FreeRTOS/Source/timers.o
 .text.prvTimerTask
                0x000000000802726c       0x1a ./Middlewares/Third_Party/FreeRTOS/Source/timers.o
 *fill*         0x0000000008027286        0x2 
 .text.prvTaskExitError
                0x0000000008027288       0x40 ./Middlewares/Third_Party/FreeRTOS/Source/portable/GCC/ARM_CM4F/port.o
 .text.prvPortStartFirstTask
                0x00000000080272c8       0x28 ./Middlewares/Third_Party/FreeRTOS/Source/portable/GCC/ARM_CM4F/port.o
 .text.vPortEnableVFP
                0x00000000080272f0       0x14 ./Middlewares/Third_Party/FreeRTOS/Source/portable/GCC/ARM_CM4F/port.o
 .text.pxPortInitialiseStack
                0x0000000008027304       0x2c ./Middlewares/Third_Party/FreeRTOS/Source/portable/GCC/ARM_CM4F/port.o
                0x0000000008027304                pxPortInitialiseStack
 .text.SVC_Handler
                0x0000000008027330       0x24 ./Middlewares/Third_Party/FreeRTOS/Source/portable/GCC/ARM_CM4F/port.o
                0x0000000008027330                SVC_Handler
 .text.vPortEnterCritical
                0x0000000008027354       0x44 ./Middlewares/Third_Party/FreeRTOS/Source/portable/GCC/ARM_CM4F/port.o
                0x0000000008027354                vPortEnterCritical
 .text.vPortExitCritical
                0x0000000008027398       0x2c ./Middlewares/Third_Party/FreeRTOS/Source/portable/GCC/ARM_CM4F/port.o
                0x0000000008027398                vPortExitCritical
 *fill*         0x00000000080273c4        0xc 
 .text.PendSV_Handler
                0x00000000080273d0       0x64 ./Middlewares/Third_Party/FreeRTOS/Source/portable/GCC/ARM_CM4F/port.o
                0x00000000080273d0                PendSV_Handler
 .text.xPortSysTickHandler
                0x0000000008027434       0x2c ./Middlewares/Third_Party/FreeRTOS/Source/portable/GCC/ARM_CM4F/port.o
                0x0000000008027434                xPortSysTickHandler
 .text.vPortSetupTimerInterrupt
                0x0000000008027460       0x38 ./Middlewares/Third_Party/FreeRTOS/Source/portable/GCC/ARM_CM4F/port.o
                0x0000000008027460                vPortSetupTimerInterrupt
 .text.xPortStartScheduler
                0x0000000008027498      0x110 ./Middlewares/Third_Party/FreeRTOS/Source/portable/GCC/ARM_CM4F/port.o
                0x0000000008027498                xPortStartScheduler
 .text.vPortValidateInterruptPriority
                0x00000000080275a8       0x5c ./Middlewares/Third_Party/FreeRTOS/Source/portable/GCC/ARM_CM4F/port.o
                0x00000000080275a8                vPortValidateInterruptPriority
 .text.prvHeapInit
                0x0000000008027604       0x64 ./Middlewares/Third_Party/FreeRTOS/Source/portable/MemMang/heap_4.o
 .text.prvInsertBlockIntoFreeList
                0x0000000008027668       0x58 ./Middlewares/Third_Party/FreeRTOS/Source/portable/MemMang/heap_4.o
 .text.pvPortMalloc
                0x00000000080276c0      0x110 ./Middlewares/Third_Party/FreeRTOS/Source/portable/MemMang/heap_4.o
                0x00000000080276c0                pvPortMalloc
 .text.vPortFree
                0x00000000080277d0       0x7c ./Middlewares/Third_Party/FreeRTOS/Source/portable/MemMang/heap_4.o
                0x00000000080277d0                vPortFree
 .text.inf_input_check
                0x000000000802784c       0xbc ./user/detect.o
                0x000000000802784c                inf_input_check
 .text.dev_input_check
                0x0000000008027908       0xa4 ./user/detect.o
                0x0000000008027908                dev_input_check
 .text.run_input_check
                0x00000000080279ac       0x94 ./user/detect.o
                0x00000000080279ac                run_input_check
 .text.input_pic
                0x0000000008027a40      0x18c ./user/detect.o
                0x0000000008027a40                input_pic
 .text.KeyRingBuffIni
                0x0000000008027bcc        0xa ./user/detect.o
                0x0000000008027bcc                KeyRingBuffIni
 *fill*         0x0000000008027bd6        0x2 
 .text.input_initial
                0x0000000008027bd8       0x84 ./user/detect.o
                0x0000000008027bd8                input_initial
 .text.KeyRead_RingBuff
                0x0000000008027c5c       0x2e ./user/detect.o
                0x0000000008027c5c                KeyRead_RingBuff
 .text.KeyWrite_RingBuff
                0x0000000008027c8a       0x30 ./user/detect.o
                0x0000000008027c8a                KeyWrite_RingBuff
 *fill*         0x0000000008027cba        0x2 
 .text.input_tog
                0x0000000008027cbc      0x134 ./user/detect.o
                0x0000000008027cbc                input_tog
 .text.KeyRingBuffRst
                0x0000000008027df0        0xe ./user/detect.o
                0x0000000008027df0                KeyRingBuffRst
 *fill*         0x0000000008027dfe        0x2 
 .text.Key_event
                0x0000000008027e00      0x10c ./user/detect.o
                0x0000000008027e00                Key_event
 .text.rst_check
                0x0000000008027f0c       0xc4 ./user/detect.o
                0x0000000008027f0c                rst_check
 .text.double_deal
                0x0000000008027fd0       0x90 ./user/detect.o
                0x0000000008027fd0                double_deal
 .text.double_check
                0x0000000008028060       0xc8 ./user/detect.o
                0x0000000008028060                double_check
 .text.stop_check
                0x0000000008028128       0x6c ./user/detect.o
                0x0000000008028128                stop_check
 .text.Usart_DamIdle
                0x0000000008028194       0x70 ./user/dev_usart.o
                0x0000000008028194                Usart_DamIdle
 .text.USART1_RxIdleCallback
                0x0000000008028204       0x80 ./user/dev_usart.o
                0x0000000008028204                USART1_RxIdleCallback
 .text.USART3_RxIdleCallback
                0x0000000008028284       0x80 ./user/dev_usart.o
                0x0000000008028284                USART3_RxIdleCallback
 .text.USART6_RxIdleCallback
                0x0000000008028304       0x80 ./user/dev_usart.o
                0x0000000008028304                USART6_RxIdleCallback
 .text.HAL_UART_TxCpltCallback
                0x0000000008028384        0x2 ./user/dev_usart.o
                0x0000000008028384                HAL_UART_TxCpltCallback
 *fill*         0x0000000008028386        0x2 
 .text.usart1_rx_deal
                0x0000000008028388       0x18 ./user/dev_usart.o
                0x0000000008028388                usart1_rx_deal
 .text.usart3_rx_deal
                0x00000000080283a0        0xc ./user/dev_usart.o
                0x00000000080283a0                usart3_rx_deal
 .text.usart6_rx_deal
                0x00000000080283ac        0xc ./user/dev_usart.o
                0x00000000080283ac                usart6_rx_deal
 .text.catch_stuck
                0x00000000080283b8       0x30 ./user/display.o
                0x00000000080283b8                catch_stuck
 .text.dis_fst_page
                0x00000000080283e8       0x70 ./user/display.o
                0x00000000080283e8                dis_fst_page
 .text.dis_tip_page
                0x0000000008028458       0xb4 ./user/display.o
                0x0000000008028458                dis_tip_page
 .text.dis_log  0x000000000802850c      0x15c ./user/display.o
                0x000000000802850c                dis_log
 .text.store_log
                0x0000000008028668      0x1b8 ./user/display.o
                0x0000000008028668                store_log
 .text.dis_pic  0x0000000008028820       0x60 ./user/display.o
                0x0000000008028820                dis_pic
 .text.dis_warn
                0x0000000008028880      0x158 ./user/display.o
                0x0000000008028880                dis_warn
 .text.dis_hard
                0x00000000080289d8       0xe8 ./user/display.o
                0x00000000080289d8                dis_hard
 .text.dis_double
                0x0000000008028ac0      0x240 ./user/display.o
                0x0000000008028ac0                dis_double
 .text.save_op_tip
                0x0000000008028d00       0x38 ./user/display.o
                0x0000000008028d00                save_op_tip
 .text.dis_refresh_log
                0x0000000008028d38       0xf4 ./user/display.o
                0x0000000008028d38                dis_refresh_log
 .text.warn_out
                0x0000000008028e2c       0x34 ./user/display.o
                0x0000000008028e2c                warn_out
 .text.run_time
                0x0000000008028e60      0x124 ./user/display.o
                0x0000000008028e60                run_time
 .text.EE_VerifyPageFullyErased
                0x0000000008028f84       0x24 ./user/eeprom.o
 .text.EE_FindValidPage
                0x0000000008028fa8       0x50 ./user/eeprom.o
 .text.EE_VerifyPageFullWriteVariable
                0x0000000008028ff8       0x5c ./user/eeprom.o
 .text.EE_Format
                0x0000000008029054       0x60 ./user/eeprom.o
 .text.EE_ReadVariable
                0x00000000080290b4       0x44 ./user/eeprom.o
                0x00000000080290b4                EE_ReadVariable
 .text.EE_Init  0x00000000080290f8      0x278 ./user/eeprom.o
                0x00000000080290f8                EE_Init
 .text.EE_PageTransfer
                0x0000000008029370       0xcc ./user/eeprom.o
 .text.EE_WriteVariable
                0x000000000802943c       0x1a ./user/eeprom.o
                0x000000000802943c                EE_WriteVariable
 *fill*         0x0000000008029456        0x2 
 .text.screen_ini
                0x0000000008029458       0x10 ./user/io_ctrl.o
                0x0000000008029458                screen_ini
 .text.screen_write
                0x0000000008029468       0xdc ./user/io_ctrl.o
                0x0000000008029468                screen_write
 .text.scr_page
                0x0000000008029544       0x20 ./user/io_ctrl.o
                0x0000000008029544                scr_page
 .text.screen_read
                0x0000000008029564       0xa4 ./user/io_ctrl.o
                0x0000000008029564                screen_read
 .text.operate_para
                0x0000000008029608      0x380 ./user/io_ctrl.o
                0x0000000008029608                operate_para
 .text.operate_ini
                0x0000000008029988      0x2d4 ./user/io_ctrl.o
                0x0000000008029988                operate_ini
 .text.clear_op_flag
                0x0000000008029c5c       0x60 ./user/io_ctrl.o
                0x0000000008029c5c                clear_op_flag
 .text.scr_op   0x0000000008029cbc      0x320 ./user/io_ctrl.o
                0x0000000008029cbc                scr_op
 .text.screen_touch
                0x0000000008029fdc      0x814 ./user/io_ctrl.o
                0x0000000008029fdc                screen_touch
 .text.screen_deal
                0x000000000802a7f0       0x94 ./user/io_ctrl.o
                0x000000000802a7f0                screen_deal
 .text.screen_adv
                0x000000000802a884       0x7a ./user/io_ctrl.o
                0x000000000802a884                screen_adv
 *fill*         0x000000000802a8fe        0x2 
 .text.io1pin_out
                0x000000000802a900       0x1c ./user/io_ctrl.o
                0x000000000802a900                io1pin_out
 .text.io2pin_out
                0x000000000802a91c      0x1ec ./user/io_ctrl.o
                0x000000000802a91c                io2pin_out
 .text.keyqueue_deal
                0x000000000802ab08      0x6c0 ./user/io_ctrl.o
                0x000000000802ab08                keyqueue_deal
 .text.rst_deal
                0x000000000802b1c8      0x440 ./user/io_ctrl.o
                0x000000000802b1c8                rst_deal
 .text.sequence_assist
                0x000000000802b608      0x154 ./user/io_ctrl.o
                0x000000000802b608                sequence_assist
 .text.sequence_deal
                0x000000000802b75c      0x658 ./user/io_ctrl.o
                0x000000000802b75c                sequence_deal
 .text.check_op_flag
                0x000000000802bdb4       0x68 ./user/io_ctrl.o
                0x000000000802bdb4                check_op_flag
 .text.operate_ctrl
                0x000000000802be1c      0x534 ./user/io_ctrl.o
                0x000000000802be1c                operate_ctrl
 .text.relief_check
                0x000000000802c350       0x88 ./user/io_ctrl.o
                0x000000000802c350                relief_check
 .text.CRC16_Modbus
                0x000000000802c3d8       0x30 ./user/modbus_lib.o
                0x000000000802c3d8                CRC16_Modbus
 .text.BEBufToUint16
                0x000000000802c408        0xa ./user/modbus_lib.o
                0x000000000802c408                BEBufToUint16
 *fill*         0x000000000802c412        0x2 
 .text.MODS_Ini
                0x000000000802c414       0x30 ./user/modbus_slave.o
                0x000000000802c414                MODS_Ini
 .text.MODS_SendWithCRC
                0x000000000802c444       0x90 ./user/modbus_slave.o
                0x000000000802c444                MODS_SendWithCRC
 .text.MODS_SendAckOk
                0x000000000802c4d4       0x30 ./user/modbus_slave.o
                0x000000000802c4d4                MODS_SendAckOk
 .text.MODS_SendAckErr
                0x000000000802c504       0x60 ./user/modbus_slave.o
                0x000000000802c504                MODS_SendAckErr
 .text.MODS_ReadCoilValue
                0x000000000802c564       0x88 ./user/modbus_slave.o
                0x000000000802c564                MODS_ReadCoilValue
 .text.MODS_WriteCoilValue
                0x000000000802c5ec      0x16c ./user/modbus_slave.o
                0x000000000802c5ec                MODS_WriteCoilValue
 .text.MODS_ReadDisValue
                0x000000000802c758      0x6ac ./user/modbus_slave.o
                0x000000000802c758                MODS_ReadDisValue
 .text.MODS_ReadRegValue
                0x000000000802ce04      0x11c ./user/modbus_slave.o
                0x000000000802ce04                MODS_ReadRegValue
 .text.MODS_WriteRegValue
                0x000000000802cf20      0x22c ./user/modbus_slave.o
                0x000000000802cf20                MODS_WriteRegValue
 .text.MODS_ReadInputValue
                0x000000000802d14c       0x6c ./user/modbus_slave.o
                0x000000000802d14c                MODS_ReadInputValue
 .text.MODS_01H
                0x000000000802d1b8      0x110 ./user/modbus_slave.o
                0x000000000802d1b8                MODS_01H
 .text.MODS_02H
                0x000000000802d2c8      0x18c ./user/modbus_slave.o
                0x000000000802d2c8                MODS_02H
 .text.MODS_03H
                0x000000000802d454       0xf4 ./user/modbus_slave.o
                0x000000000802d454                MODS_03H
 .text.MODS_04H
                0x000000000802d548       0xf4 ./user/modbus_slave.o
                0x000000000802d548                MODS_04H
 .text.MODS_05H
                0x000000000802d63c       0x78 ./user/modbus_slave.o
                0x000000000802d63c                MODS_05H
 .text.MODS_06H
                0x000000000802d6b4       0x5c ./user/modbus_slave.o
                0x000000000802d6b4                MODS_06H
 .text.MODS_0FH
                0x000000000802d710       0xbc ./user/modbus_slave.o
                0x000000000802d710                MODS_0FH
 .text.MODS_10H
                0x000000000802d7cc       0x90 ./user/modbus_slave.o
                0x000000000802d7cc                MODS_10H
 .text.MODS_AnalyzeApp
                0x000000000802d85c       0x64 ./user/modbus_slave.o
                0x000000000802d85c                MODS_AnalyzeApp
 .text.MODS_Poll
                0x000000000802d8c0       0x60 ./user/modbus_slave.o
                0x000000000802d8c0                MODS_Poll
 .text.mytim_ticupdate
                0x000000000802d920       0x40 ./user/my_tim.o
                0x000000000802d920                mytim_ticupdate
 .text.mytim_clean
                0x000000000802d960       0x10 ./user/my_tim.o
                0x000000000802d960                mytim_clean
 .text.clean_check
                0x000000000802d970      0x138 ./user/my_tim.o
                0x000000000802d970                clean_check
 .text.turndown_only
                0x000000000802daa8      0x130 ./user/my_tim.o
                0x000000000802daa8                turndown_only
 .text.turndown_only_none
                0x000000000802dbd8       0x8c ./user/my_tim.o
                0x000000000802dbd8                turndown_only_none
 .text.turndown_check
                0x000000000802dc64       0xb4 ./user/my_tim.o
                0x000000000802dc64                turndown_check
 .text.op_check
                0x000000000802dd18      0x12c ./user/my_tim.o
                0x000000000802dd18                op_check
 .text.op_check_none
                0x000000000802de44       0x94 ./user/my_tim.o
                0x000000000802de44                op_check_none
 .text.turnup_check
                0x000000000802ded8       0xb4 ./user/my_tim.o
                0x000000000802ded8                turnup_check
 .text.headdown_check
                0x000000000802df8c       0xb8 ./user/my_tim.o
                0x000000000802df8c                headdown_check
 .text.headup_check
                0x000000000802e044       0xb4 ./user/my_tim.o
                0x000000000802e044                headup_check
 .text.boarddown_check
                0x000000000802e0f8       0xb4 ./user/my_tim.o
                0x000000000802e0f8                boarddown_check
 .text.boardup_check
                0x000000000802e1ac       0xb8 ./user/my_tim.o
                0x000000000802e1ac                boardup_check
 .text.pushleft_check
                0x000000000802e264       0xb8 ./user/my_tim.o
                0x000000000802e264                pushleft_check
 .text.pushright_check
                0x000000000802e31c       0xb8 ./user/my_tim.o
                0x000000000802e31c                pushright_check
 .text.catchdown_check
                0x000000000802e3d4       0xb8 ./user/my_tim.o
                0x000000000802e3d4                catchdown_check
 .text.catchup_check
                0x000000000802e48c       0xb8 ./user/my_tim.o
                0x000000000802e48c                catchup_check
 .text.mytim_check
                0x000000000802e544      0x1b0 ./user/my_tim.o
                0x000000000802e544                mytim_check
 .text.number   0x000000000802e6f4      0x140 ./user/myprintf.o
 .text.float2string
                0x000000000802e834      0x120 ./user/myprintf.o
 .text.serial_puts
                0x000000000802e954       0x18 ./user/myprintf.o
                0x000000000802e954                serial_puts
 .text.debug_printf
                0x000000000802e96c      0x334 ./user/myprintf.o
                0x000000000802e96c                debug_printf
 .text.TIM0_CB  0x000000000802eca0       0x80 ./user/soft_timer.o
                0x000000000802eca0                TIM0_CB
 .text.TIM1_CB  0x000000000802ed20        0x8 ./user/soft_timer.o
                0x000000000802ed20                TIM1_CB
 .text.TIM2_CB  0x000000000802ed28        0xc ./user/soft_timer.o
                0x000000000802ed28                TIM2_CB
 .text.TIM3_CB  0x000000000802ed34       0x48 ./user/soft_timer.o
                0x000000000802ed34                TIM3_CB
 .text.TIM4_CB  0x000000000802ed7c       0x30 ./user/soft_timer.o
                0x000000000802ed7c                TIM4_CB
 .text.TIM5_CB  0x000000000802edac       0x30 ./user/soft_timer.o
                0x000000000802edac                TIM5_CB
 .text.TIM6_CB  0x000000000802eddc       0x14 ./user/soft_timer.o
                0x000000000802eddc                TIM6_CB
 .text.tickCnt_Update
                0x000000000802edf0       0x10 ./user/soft_timer.o
                0x000000000802edf0                tickCnt_Update
 .text.tickCnt_Get
                0x000000000802ee00        0xc ./user/soft_timer.o
                0x000000000802ee00                tickCnt_Get
 .text.softTimer_Init
                0x000000000802ee0c       0x34 ./user/soft_timer.o
                0x000000000802ee0c                softTimer_Init
 .text.softTimer_Start
                0x000000000802ee40       0x74 ./user/soft_timer.o
                0x000000000802ee40                softTimer_Start
 .text.softTimer_Update
                0x000000000802eeb4       0xd4 ./user/soft_timer.o
                0x000000000802eeb4                softTimer_Update
 .text.sysguard_ini
                0x000000000802ef88       0x20 ./user/sysguard.o
                0x000000000802ef88                sysguard_ini
 .text.sysguard_start
                0x000000000802efa8       0x2c ./user/sysguard.o
                0x000000000802efa8                sysguard_start
 .text.sysguard_feed
                0x000000000802efd4       0x34 ./user/sysguard.o
                0x000000000802efd4                sysguard_feed
 .text.sysguard_scan
                0x000000000802f008       0x60 ./user/sysguard.o
                0x000000000802f008                sysguard_scan
 .text.__errno  0x000000000802f068        0xc d:/st/stm32cubeide_1.8.0/stm32cubeide/plugins/com.st.stm32cube.ide.mcu.externaltools.gnu-tools-for-stm32.9-2020-q2-update.win32_2.0.0.202105311346/tools/bin/../lib/gcc/arm-none-eabi/9.3.1/../../../../arm-none-eabi/lib/thumb/v7e-m+fp/hard\libc_nano.a(lib_a-errno.o)
                0x000000000802f068                __errno
 .text.__libc_init_array
                0x000000000802f074       0x48 d:/st/stm32cubeide_1.8.0/stm32cubeide/plugins/com.st.stm32cube.ide.mcu.externaltools.gnu-tools-for-stm32.9-2020-q2-update.win32_2.0.0.202105311346/tools/bin/../lib/gcc/arm-none-eabi/9.3.1/../../../../arm-none-eabi/lib/thumb/v7e-m+fp/hard\libc_nano.a(lib_a-init.o)
                0x000000000802f074                __libc_init_array
 .text.memcpy   0x000000000802f0bc       0x1c d:/st/stm32cubeide_1.8.0/stm32cubeide/plugins/com.st.stm32cube.ide.mcu.externaltools.gnu-tools-for-stm32.9-2020-q2-update.win32_2.0.0.202105311346/tools/bin/../lib/gcc/arm-none-eabi/9.3.1/../../../../arm-none-eabi/lib/thumb/v7e-m+fp/hard\libc_nano.a(lib_a-memcpy-stub.o)
                0x000000000802f0bc                memcpy
 .text.memset   0x000000000802f0d8       0x10 d:/st/stm32cubeide_1.8.0/stm32cubeide/plugins/com.st.stm32cube.ide.mcu.externaltools.gnu-tools-for-stm32.9-2020-q2-update.win32_2.0.0.202105311346/tools/bin/../lib/gcc/arm-none-eabi/9.3.1/../../../../arm-none-eabi/lib/thumb/v7e-m+fp/hard\libc_nano.a(lib_a-memset.o)
                0x000000000802f0d8                memset
 .text._free_r  0x000000000802f0e8       0xa0 d:/st/stm32cubeide_1.8.0/stm32cubeide/plugins/com.st.stm32cube.ide.mcu.externaltools.gnu-tools-for-stm32.9-2020-q2-update.win32_2.0.0.202105311346/tools/bin/../lib/gcc/arm-none-eabi/9.3.1/../../../../arm-none-eabi/lib/thumb/v7e-m+fp/hard\libc_nano.a(lib_a-nano-freer.o)
                0x000000000802f0e8                _free_r
 .text._malloc_r
                0x000000000802f188       0xb4 d:/st/stm32cubeide_1.8.0/stm32cubeide/plugins/com.st.stm32cube.ide.mcu.externaltools.gnu-tools-for-stm32.9-2020-q2-update.win32_2.0.0.202105311346/tools/bin/../lib/gcc/arm-none-eabi/9.3.1/../../../../arm-none-eabi/lib/thumb/v7e-m+fp/hard\libc_nano.a(lib_a-nano-mallocr.o)
                0x000000000802f188                _malloc_r
 .text.cleanup_glue
                0x000000000802f23c       0x1a d:/st/stm32cubeide_1.8.0/stm32cubeide/plugins/com.st.stm32cube.ide.mcu.externaltools.gnu-tools-for-stm32.9-2020-q2-update.win32_2.0.0.202105311346/tools/bin/../lib/gcc/arm-none-eabi/9.3.1/../../../../arm-none-eabi/lib/thumb/v7e-m+fp/hard\libc_nano.a(lib_a-reent.o)
                0x000000000802f23c                cleanup_glue
 *fill*         0x000000000802f256        0x2 
 .text._reclaim_reent
                0x000000000802f258       0xb8 d:/st/stm32cubeide_1.8.0/stm32cubeide/plugins/com.st.stm32cube.ide.mcu.externaltools.gnu-tools-for-stm32.9-2020-q2-update.win32_2.0.0.202105311346/tools/bin/../lib/gcc/arm-none-eabi/9.3.1/../../../../arm-none-eabi/lib/thumb/v7e-m+fp/hard\libc_nano.a(lib_a-reent.o)
                0x000000000802f258                _reclaim_reent
 .text._sbrk_r  0x000000000802f310       0x20 d:/st/stm32cubeide_1.8.0/stm32cubeide/plugins/com.st.stm32cube.ide.mcu.externaltools.gnu-tools-for-stm32.9-2020-q2-update.win32_2.0.0.202105311346/tools/bin/../lib/gcc/arm-none-eabi/9.3.1/../../../../arm-none-eabi/lib/thumb/v7e-m+fp/hard\libc_nano.a(lib_a-sbrkr.o)
                0x000000000802f310                _sbrk_r
 .text.sprintf  0x000000000802f330       0x40 d:/st/stm32cubeide_1.8.0/stm32cubeide/plugins/com.st.stm32cube.ide.mcu.externaltools.gnu-tools-for-stm32.9-2020-q2-update.win32_2.0.0.202105311346/tools/bin/../lib/gcc/arm-none-eabi/9.3.1/../../../../arm-none-eabi/lib/thumb/v7e-m+fp/hard\libc_nano.a(lib_a-sprintf.o)
                0x000000000802f330                siprintf
                0x000000000802f330                sprintf
 .text.__malloc_lock
                0x000000000802f370        0xc d:/st/stm32cubeide_1.8.0/stm32cubeide/plugins/com.st.stm32cube.ide.mcu.externaltools.gnu-tools-for-stm32.9-2020-q2-update.win32_2.0.0.202105311346/tools/bin/../lib/gcc/arm-none-eabi/9.3.1/../../../../arm-none-eabi/lib/thumb/v7e-m+fp/hard\libc_nano.a(lib_a-mlock.o)
                0x000000000802f370                __malloc_lock
 .text.__malloc_unlock
                0x000000000802f37c        0xc d:/st/stm32cubeide_1.8.0/stm32cubeide/plugins/com.st.stm32cube.ide.mcu.externaltools.gnu-tools-for-stm32.9-2020-q2-update.win32_2.0.0.202105311346/tools/bin/../lib/gcc/arm-none-eabi/9.3.1/../../../../arm-none-eabi/lib/thumb/v7e-m+fp/hard\libc_nano.a(lib_a-mlock.o)
                0x000000000802f37c                __malloc_unlock
 .text.__ssputs_r
                0x000000000802f388       0xb6 d:/st/stm32cubeide_1.8.0/stm32cubeide/plugins/com.st.stm32cube.ide.mcu.externaltools.gnu-tools-for-stm32.9-2020-q2-update.win32_2.0.0.202105311346/tools/bin/../lib/gcc/arm-none-eabi/9.3.1/../../../../arm-none-eabi/lib/thumb/v7e-m+fp/hard\libc_nano.a(lib_a-nano-svfprintf.o)
                0x000000000802f388                __ssputs_r
 *fill*         0x000000000802f43e        0x2 
 .text._svfprintf_r
                0x000000000802f440      0x200 d:/st/stm32cubeide_1.8.0/stm32cubeide/plugins/com.st.stm32cube.ide.mcu.externaltools.gnu-tools-for-stm32.9-2020-q2-update.win32_2.0.0.202105311346/tools/bin/../lib/gcc/arm-none-eabi/9.3.1/../../../../arm-none-eabi/lib/thumb/v7e-m+fp/hard\libc_nano.a(lib_a-nano-svfprintf.o)
                0x000000000802f440                _svfiprintf_r
                0x000000000802f440                _svfprintf_r
 .text._printf_common
                0x000000000802f640       0xda d:/st/stm32cubeide_1.8.0/stm32cubeide/plugins/com.st.stm32cube.ide.mcu.externaltools.gnu-tools-for-stm32.9-2020-q2-update.win32_2.0.0.202105311346/tools/bin/../lib/gcc/arm-none-eabi/9.3.1/../../../../arm-none-eabi/lib/thumb/v7e-m+fp/hard\libc_nano.a(lib_a-nano-vfprintf_i.o)
                0x000000000802f640                _printf_common
 *fill*         0x000000000802f71a        0x2 
 .text._printf_i
                0x000000000802f71c      0x24c d:/st/stm32cubeide_1.8.0/stm32cubeide/plugins/com.st.stm32cube.ide.mcu.externaltools.gnu-tools-for-stm32.9-2020-q2-update.win32_2.0.0.202105311346/tools/bin/../lib/gcc/arm-none-eabi/9.3.1/../../../../arm-none-eabi/lib/thumb/v7e-m+fp/hard\libc_nano.a(lib_a-nano-vfprintf_i.o)
                0x000000000802f71c                _printf_i
 .text.memmove  0x000000000802f968       0x34 d:/st/stm32cubeide_1.8.0/stm32cubeide/plugins/com.st.stm32cube.ide.mcu.externaltools.gnu-tools-for-stm32.9-2020-q2-update.win32_2.0.0.202105311346/tools/bin/../lib/gcc/arm-none-eabi/9.3.1/../../../../arm-none-eabi/lib/thumb/v7e-m+fp/hard\libc_nano.a(lib_a-memmove.o)
                0x000000000802f968                memmove
 .text._realloc_r
                0x000000000802f99c       0x4c d:/st/stm32cubeide_1.8.0/stm32cubeide/plugins/com.st.stm32cube.ide.mcu.externaltools.gnu-tools-for-stm32.9-2020-q2-update.win32_2.0.0.202105311346/tools/bin/../lib/gcc/arm-none-eabi/9.3.1/../../../../arm-none-eabi/lib/thumb/v7e-m+fp/hard\libc_nano.a(lib_a-nano-reallocr.o)
                0x000000000802f99c                _realloc_r
 .text._malloc_usable_size_r
                0x000000000802f9e8       0x10 d:/st/stm32cubeide_1.8.0/stm32cubeide/plugins/com.st.stm32cube.ide.mcu.externaltools.gnu-tools-for-stm32.9-2020-q2-update.win32_2.0.0.202105311346/tools/bin/../lib/gcc/arm-none-eabi/9.3.1/../../../../arm-none-eabi/lib/thumb/v7e-m+fp/hard\libc_nano.a(lib_a-nano-msizer.o)
                0x000000000802f9e8                _malloc_usable_size_r
 *(.glue_7)
 .glue_7        0x000000000802f9f8        0x0 linker stubs
 *(.glue_7t)
 .glue_7t       0x000000000802f9f8        0x0 linker stubs
 *(.eh_frame)
 .eh_frame      0x000000000802f9f8        0x0 d:/st/stm32cubeide_1.8.0/stm32cubeide/plugins/com.st.stm32cube.ide.mcu.externaltools.gnu-tools-for-stm32.9-2020-q2-update.win32_2.0.0.202105311346/tools/bin/../lib/gcc/arm-none-eabi/9.3.1/thumb/v7e-m+fp/hard/crtbegin.o
 *(.init)
 .init          0x000000000802f9f8        0x4 d:/st/stm32cubeide_1.8.0/stm32cubeide/plugins/com.st.stm32cube.ide.mcu.externaltools.gnu-tools-for-stm32.9-2020-q2-update.win32_2.0.0.202105311346/tools/bin/../lib/gcc/arm-none-eabi/9.3.1/thumb/v7e-m+fp/hard/crti.o
                0x000000000802f9f8                _init
 .init          0x000000000802f9fc        0x8 d:/st/stm32cubeide_1.8.0/stm32cubeide/plugins/com.st.stm32cube.ide.mcu.externaltools.gnu-tools-for-stm32.9-2020-q2-update.win32_2.0.0.202105311346/tools/bin/../lib/gcc/arm-none-eabi/9.3.1/thumb/v7e-m+fp/hard/crtn.o
 *(.fini)
 .fini          0x000000000802fa04        0x4 d:/st/stm32cubeide_1.8.0/stm32cubeide/plugins/com.st.stm32cube.ide.mcu.externaltools.gnu-tools-for-stm32.9-2020-q2-update.win32_2.0.0.202105311346/tools/bin/../lib/gcc/arm-none-eabi/9.3.1/thumb/v7e-m+fp/hard/crti.o
                0x000000000802fa04                _fini
 .fini          0x000000000802fa08        0x8 d:/st/stm32cubeide_1.8.0/stm32cubeide/plugins/com.st.stm32cube.ide.mcu.externaltools.gnu-tools-for-stm32.9-2020-q2-update.win32_2.0.0.202105311346/tools/bin/../lib/gcc/arm-none-eabi/9.3.1/thumb/v7e-m+fp/hard/crtn.o
                0x000000000802fa10                . = ALIGN (0x4)
                0x000000000802fa10                _etext = .

.vfp11_veneer   0x000000000802fa10        0x0
 .vfp11_veneer  0x000000000802fa10        0x0 linker stubs

.v4_bx          0x000000000802fa10        0x0
 .v4_bx         0x000000000802fa10        0x0 linker stubs

.iplt           0x000000000802fa10        0x0
 .iplt          0x000000000802fa10        0x0 d:/st/stm32cubeide_1.8.0/stm32cubeide/plugins/com.st.stm32cube.ide.mcu.externaltools.gnu-tools-for-stm32.9-2020-q2-update.win32_2.0.0.202105311346/tools/bin/../lib/gcc/arm-none-eabi/9.3.1/thumb/v7e-m+fp/hard/crtbegin.o

.rodata         0x000000000802fa10     0x11ec
                0x000000000802fa10                . = ALIGN (0x4)
 *(.rodata)
 *(.rodata*)
 .rodata.str1.4
                0x000000000802fa10       0xf8 ./Core/Src/freertos.o
 .rodata.defaultTask_attributes
                0x000000000802fb08       0x24 ./Core/Src/freertos.o
                0x000000000802fb08                defaultTask_attributes
 .rodata.myBinarySem01_attributes
                0x000000000802fb2c       0x10 ./Core/Src/freertos.o
                0x000000000802fb2c                myBinarySem01_attributes
 .rodata.myBinarySem02_attributes
                0x000000000802fb3c       0x10 ./Core/Src/freertos.o
                0x000000000802fb3c                myBinarySem02_attributes
 .rodata.myBinarySem03_attributes
                0x000000000802fb4c       0x10 ./Core/Src/freertos.o
                0x000000000802fb4c                myBinarySem03_attributes
 .rodata.myBinarySem04_attributes
                0x000000000802fb5c       0x10 ./Core/Src/freertos.o
                0x000000000802fb5c                myBinarySem04_attributes
 .rodata.myBinarySem05_attributes
                0x000000000802fb6c       0x10 ./Core/Src/freertos.o
                0x000000000802fb6c                myBinarySem05_attributes
 .rodata.myEvent01_attributes
                0x000000000802fb7c       0x10 ./Core/Src/freertos.o
                0x000000000802fb7c                myEvent01_attributes
 .rodata.myEvent02_attributes
                0x000000000802fb8c       0x10 ./Core/Src/freertos.o
                0x000000000802fb8c                myEvent02_attributes
 .rodata.myMutex01_attributes
                0x000000000802fb9c       0x10 ./Core/Src/freertos.o
                0x000000000802fb9c                myMutex01_attributes
 .rodata.myMutex02_attributes
                0x000000000802fbac       0x10 ./Core/Src/freertos.o
                0x000000000802fbac                myMutex02_attributes
 .rodata.myQueueUsart1_attributes
                0x000000000802fbbc       0x18 ./Core/Src/freertos.o
                0x000000000802fbbc                myQueueUsart1_attributes
 .rodata.myQueueUsart3_attributes
                0x000000000802fbd4       0x18 ./Core/Src/freertos.o
                0x000000000802fbd4                myQueueUsart3_attributes
 .rodata.myQueueUsart6_attributes
                0x000000000802fbec       0x18 ./Core/Src/freertos.o
                0x000000000802fbec                myQueueUsart6_attributes
 .rodata.myTask02_attributes
                0x000000000802fc04       0x24 ./Core/Src/freertos.o
                0x000000000802fc04                myTask02_attributes
 .rodata.myTask03_attributes
                0x000000000802fc28       0x24 ./Core/Src/freertos.o
                0x000000000802fc28                myTask03_attributes
 .rodata.myTask04_attributes
                0x000000000802fc4c       0x24 ./Core/Src/freertos.o
                0x000000000802fc4c                myTask04_attributes
 .rodata.myTask05_attributes
                0x000000000802fc70       0x24 ./Core/Src/freertos.o
                0x000000000802fc70                myTask05_attributes
 .rodata.myTask06_attributes
                0x000000000802fc94       0x24 ./Core/Src/freertos.o
                0x000000000802fc94                myTask06_attributes
 .rodata.Error_Handler.str1.4
                0x000000000802fcb8       0x10 ./Core/Src/main.o
 .rodata.main.str1.4
                0x000000000802fcc8       0x58 ./Core/Src/main.o
 .rodata.NMI_Handler.str1.4
                0x000000000802fd20        0xe ./Core/Src/stm32f4xx_it.o
 *fill*         0x000000000802fd2e        0x2 
 .rodata.HardFault_Handler.str1.4
                0x000000000802fd30       0x14 ./Core/Src/stm32f4xx_it.o
 .rodata.MemManage_Handler.str1.4
                0x000000000802fd44       0x14 ./Core/Src/stm32f4xx_it.o
 .rodata.BusFault_Handler.str1.4
                0x000000000802fd58       0x13 ./Core/Src/stm32f4xx_it.o
 *fill*         0x000000000802fd6b        0x1 
 .rodata.UsageFault_Handler.str1.4
                0x000000000802fd6c       0x15 ./Core/Src/stm32f4xx_it.o
 *fill*         0x000000000802fd81        0x3 
 .rodata.DebugMon_Handler.str1.4
                0x000000000802fd84       0x13 ./Core/Src/stm32f4xx_it.o
 *fill*         0x000000000802fd97        0x1 
 .rodata.AHBPrescTable
                0x000000000802fd98       0x10 ./Core/Src/system_stm32f4xx.o
                0x000000000802fd98                AHBPrescTable
 .rodata.APBPrescTable
                0x000000000802fda8        0x8 ./Core/Src/system_stm32f4xx.o
                0x000000000802fda8                APBPrescTable
 .rodata.HAL_NVIC_SetPriorityGrouping.str1.4
                0x000000000802fdb0       0x3b ./Drivers/STM32F4xx_HAL_Driver/Src/stm32f4xx_hal_cortex.o
 *fill*         0x000000000802fdeb        0x1 
 .rodata.HAL_DMA_Init.str1.4
                0x000000000802fdec       0x38 ./Drivers/STM32F4xx_HAL_Driver/Src/stm32f4xx_hal_dma.o
 .rodata.flagBitshiftOffset.8529
                0x000000000802fe24        0x8 ./Drivers/STM32F4xx_HAL_Driver/Src/stm32f4xx_hal_dma.o
 .rodata.FLASH_Program_Byte.str1.4
                0x000000000802fe2c       0x3a ./Drivers/STM32F4xx_HAL_Driver/Src/stm32f4xx_hal_flash.o
 *fill*         0x000000000802fe66        0x2 
 .rodata.FLASH_MassErase.str1.4
                0x000000000802fe68       0x3d ./Drivers/STM32F4xx_HAL_Driver/Src/stm32f4xx_hal_flash_ex.o
 *fill*         0x000000000802fea5        0x3 
 .rodata.HAL_GPIO_Init.str1.4
                0x000000000802fea8       0x39 ./Drivers/STM32F4xx_HAL_Driver/Src/stm32f4xx_hal_gpio.o
 *fill*         0x000000000802fee1        0x3 
 .rodata.HAL_IWDG_Init.str1.4
                0x000000000802fee4       0x39 ./Drivers/STM32F4xx_HAL_Driver/Src/stm32f4xx_hal_iwdg.o
 *fill*         0x000000000802ff1d        0x3 
 .rodata.HAL_RCC_OscConfig.str1.4
                0x000000000802ff20       0x38 ./Drivers/STM32F4xx_HAL_Driver/Src/stm32f4xx_hal_rcc.o
 .rodata.HAL_RCCEx_PeriphCLKConfig.str1.4
                0x000000000802ff58       0x3b ./Drivers/STM32F4xx_HAL_Driver/Src/stm32f4xx_hal_rcc_ex.o
 *fill*         0x000000000802ff93        0x1 
 .rodata.HAL_RTC_DeactivateAlarm.str1.4
                0x000000000802ff94       0x38 ./Drivers/STM32F4xx_HAL_Driver/Src/stm32f4xx_hal_rtc.o
 .rodata.TIM_OC1_SetConfig.str1.4
                0x000000000802ffcc       0x38 ./Drivers/STM32F4xx_HAL_Driver/Src/stm32f4xx_hal_tim.o
 .rodata.HAL_TIMEx_HallSensor_Init.str1.4
                0x0000000008030004       0x3b ./Drivers/STM32F4xx_HAL_Driver/Src/stm32f4xx_hal_tim_ex.o
 *fill*         0x000000000803003f        0x1 
 .rodata.UART_SetConfig.str1.4
                0x0000000008030040       0x39 ./Drivers/STM32F4xx_HAL_Driver/Src/stm32f4xx_hal_uart.o
 *fill*         0x0000000008030079        0x3 
 .rodata.vTaskStartScheduler.str1.4
                0x000000000803007c        0x5 ./Middlewares/Third_Party/FreeRTOS/Source/tasks.o
 *fill*         0x0000000008030081        0x3 
 .rodata.prvCheckForValidListAndQueue.str1.4
                0x0000000008030084        0x5 ./Middlewares/Third_Party/FreeRTOS/Source/timers.o
 *fill*         0x0000000008030089        0x3 
 .rodata.xTimerCreateTimerTask.str1.4
                0x000000000803008c        0x8 ./Middlewares/Third_Party/FreeRTOS/Source/timers.o
 .rodata.input_pic.str1.4
                0x0000000008030094       0x1f ./user/detect.o
 *fill*         0x00000000080300b3        0x1 
 .rodata.addr_list
                0x00000000080300b4       0x14 ./user/detect.o
                0x00000000080300b4                addr_list
 .rodata.dis_fst_page.str1.4
                0x00000000080300c8        0xe ./user/display.o
 *fill*         0x00000000080300d6        0x2 
 .rodata.dis_tip_page.str1.4
                0x00000000080300d8        0xe ./user/display.o
 *fill*         0x00000000080300e6        0x2 
 .rodata.dis_log.str1.4
                0x00000000080300e8       0x5c ./user/display.o
 .rodata.store_log.str1.4
                0x0000000008030144       0x4b ./user/display.o
 *fill*         0x000000000803018f        0x1 
 .rodata.dis_refresh_log.str1.4
                0x0000000008030190       0x2d ./user/display.o
 *fill*         0x00000000080301bd        0x3 
 .rodata.run_time.str1.4
                0x00000000080301c0       0x12 ./user/display.o
 *fill*         0x00000000080301d2        0x2 
 .rodata.screen_write.str1.4
                0x00000000080301d4       0x32 ./user/io_ctrl.o
 *fill*         0x0000000008030206        0x2 
 .rodata.screen_read.str1.4
                0x0000000008030208       0x31 ./user/io_ctrl.o
 *fill*         0x0000000008030239        0x3 
 .rodata.operate_para.str1.4
                0x000000000803023c       0x62 ./user/io_ctrl.o
 *fill*         0x000000000803029e        0x2 
 .rodata.operate_ini.str1.4
                0x00000000080302a0       0x5b ./user/io_ctrl.o
                                         0x83 (size before relaxing)
 *fill*         0x00000000080302fb        0x1 
 .rodata.screen_touch.str1.4
                0x00000000080302fc       0x48 ./user/io_ctrl.o
 .rodata.screen_deal.str1.4
                0x0000000008030344       0x35 ./user/io_ctrl.o
 *fill*         0x0000000008030379        0x3 
 .rodata.io2pin_out.str1.4
                0x000000000803037c        0xb ./user/io_ctrl.o
 *fill*         0x0000000008030387        0x1 
 .rodata.keyqueue_deal.str1.4
                0x0000000008030388       0x3d ./user/io_ctrl.o
 *fill*         0x00000000080303c5        0x3 
 .rodata.rst_deal.str1.4
                0x00000000080303c8      0x136 ./user/io_ctrl.o
 *fill*         0x00000000080304fe        0x2 
 .rodata.sequence_deal.str1.4
                0x0000000008030500      0x12a ./user/io_ctrl.o
 *fill*         0x000000000803062a        0x2 
 .rodata.check_op_flag.str1.4
                0x000000000803062c        0xb ./user/io_ctrl.o
 *fill*         0x0000000008030637        0x1 
 .rodata.operate_ctrl.str1.4
                0x0000000008030638       0x65 ./user/io_ctrl.o
 *fill*         0x000000000803069d        0x3 
 .rodata.str1.4
                0x00000000080306a0       0x31 ./user/io_ctrl.o
 *fill*         0x00000000080306d1        0x3 
 .rodata.s_CRCHi
                0x00000000080306d4      0x100 ./user/modbus_lib.o
                0x00000000080306d4                s_CRCHi
 .rodata.s_CRCLo
                0x00000000080307d4      0x100 ./user/modbus_lib.o
                0x00000000080307d4                s_CRCLo
 .rodata.MODS_Ini.str1.4
                0x00000000080308d4       0x1f ./user/modbus_slave.o
 *fill*         0x00000000080308f3        0x1 
 .rodata.MODS_SendAckErr.str1.4
                0x00000000080308f4       0x63 ./user/modbus_slave.o
 *fill*         0x0000000008030957        0x1 
 .rodata.MODS_WriteCoilValue.str1.4
                0x0000000008030958       0x22 ./user/modbus_slave.o
 *fill*         0x000000000803097a        0x2 
 .rodata.MODS_Poll.str1.4
                0x000000000803097c       0x4d ./user/modbus_slave.o
 *fill*         0x00000000080309c9        0x3 
 .rodata.turndown_only.str1.4
                0x00000000080309cc        0xb ./user/my_tim.o
 *fill*         0x00000000080309d7        0x1 
 .rodata.op_check.str1.4
                0x00000000080309d8        0xb ./user/my_tim.o
 *fill*         0x00000000080309e3        0x1 
 .rodata.debug_printf.str1.4
                0x00000000080309e4        0x7 ./user/myprintf.o
 *fill*         0x00000000080309eb        0x1 
 .rodata.digits.9899
                0x00000000080309ec       0x10 ./user/myprintf.o
 .rodata.mulf.9935
                0x00000000080309fc       0x1c ./user/myprintf.o
 .rodata.TIM5_CB.str1.4
                0x0000000008030a18        0xb ./user/soft_timer.o
 *fill*         0x0000000008030a23        0x1 
 .rodata.softTimer_Start.str1.4
                0x0000000008030a24       0x15 ./user/soft_timer.o
 *fill*         0x0000000008030a39        0x3 
 .rodata.sysguard_start.str1.4
                0x0000000008030a3c       0x13 ./user/sysguard.o
 *fill*         0x0000000008030a4f        0x1 
 .rodata.sysguard_scan.str1.4
                0x0000000008030a50       0x16 ./user/sysguard.o
 .rodata._ctype_
                0x0000000008030a66      0x101 d:/st/stm32cubeide_1.8.0/stm32cubeide/plugins/com.st.stm32cube.ide.mcu.externaltools.gnu-tools-for-stm32.9-2020-q2-update.win32_2.0.0.202105311346/tools/bin/../lib/gcc/arm-none-eabi/9.3.1/../../../../arm-none-eabi/lib/thumb/v7e-m+fp/hard\libc_nano.a(lib_a-ctype_.o)
                0x0000000008030a66                _ctype_
 *fill*         0x0000000008030b67        0x1 
 .rodata.__sf_fake_stderr
                0x0000000008030b68       0x20 d:/st/stm32cubeide_1.8.0/stm32cubeide/plugins/com.st.stm32cube.ide.mcu.externaltools.gnu-tools-for-stm32.9-2020-q2-update.win32_2.0.0.202105311346/tools/bin/../lib/gcc/arm-none-eabi/9.3.1/../../../../arm-none-eabi/lib/thumb/v7e-m+fp/hard\libc_nano.a(lib_a-findfp.o)
                0x0000000008030b68                __sf_fake_stderr
 .rodata.__sf_fake_stdin
                0x0000000008030b88       0x20 d:/st/stm32cubeide_1.8.0/stm32cubeide/plugins/com.st.stm32cube.ide.mcu.externaltools.gnu-tools-for-stm32.9-2020-q2-update.win32_2.0.0.202105311346/tools/bin/../lib/gcc/arm-none-eabi/9.3.1/../../../../arm-none-eabi/lib/thumb/v7e-m+fp/hard\libc_nano.a(lib_a-findfp.o)
                0x0000000008030b88                __sf_fake_stdin
 .rodata.__sf_fake_stdout
                0x0000000008030ba8       0x20 d:/st/stm32cubeide_1.8.0/stm32cubeide/plugins/com.st.stm32cube.ide.mcu.externaltools.gnu-tools-for-stm32.9-2020-q2-update.win32_2.0.0.202105311346/tools/bin/../lib/gcc/arm-none-eabi/9.3.1/../../../../arm-none-eabi/lib/thumb/v7e-m+fp/hard\libc_nano.a(lib_a-findfp.o)
                0x0000000008030ba8                __sf_fake_stdout
 .rodata._svfprintf_r.str1.1
                0x0000000008030bc8       0x11 d:/st/stm32cubeide_1.8.0/stm32cubeide/plugins/com.st.stm32cube.ide.mcu.externaltools.gnu-tools-for-stm32.9-2020-q2-update.win32_2.0.0.202105311346/tools/bin/../lib/gcc/arm-none-eabi/9.3.1/../../../../arm-none-eabi/lib/thumb/v7e-m+fp/hard\libc_nano.a(lib_a-nano-svfprintf.o)
 .rodata._printf_i.str1.1
                0x0000000008030bd9       0x22 d:/st/stm32cubeide_1.8.0/stm32cubeide/plugins/com.st.stm32cube.ide.mcu.externaltools.gnu-tools-for-stm32.9-2020-q2-update.win32_2.0.0.202105311346/tools/bin/../lib/gcc/arm-none-eabi/9.3.1/../../../../arm-none-eabi/lib/thumb/v7e-m+fp/hard\libc_nano.a(lib_a-nano-vfprintf_i.o)
                0x0000000008030bfc                . = ALIGN (0x4)
 *fill*         0x0000000008030bfb        0x1 

.ARM.extab      0x0000000008030bfc        0x0
                0x0000000008030bfc                . = ALIGN (0x4)
 *(.ARM.extab* .gnu.linkonce.armextab.*)
                0x0000000008030bfc                . = ALIGN (0x4)

.ARM            0x0000000008030bfc        0x8
                0x0000000008030bfc                . = ALIGN (0x4)
                0x0000000008030bfc                __exidx_start = .
 *(.ARM.exidx*)
 .ARM.exidx     0x0000000008030bfc        0x8 d:/st/stm32cubeide_1.8.0/stm32cubeide/plugins/com.st.stm32cube.ide.mcu.externaltools.gnu-tools-for-stm32.9-2020-q2-update.win32_2.0.0.202105311346/tools/bin/../lib/gcc/arm-none-eabi/9.3.1/thumb/v7e-m+fp/hard\libgcc.a(_udivmoddi4.o)
                0x0000000008030c04                __exidx_end = .
                0x0000000008030c04                . = ALIGN (0x4)

.rel.dyn        0x0000000008030c04        0x0
 .rel.iplt      0x0000000008030c04        0x0 d:/st/stm32cubeide_1.8.0/stm32cubeide/plugins/com.st.stm32cube.ide.mcu.externaltools.gnu-tools-for-stm32.9-2020-q2-update.win32_2.0.0.202105311346/tools/bin/../lib/gcc/arm-none-eabi/9.3.1/thumb/v7e-m+fp/hard/crtbegin.o

.preinit_array  0x0000000008030c04        0x0
                0x0000000008030c04                . = ALIGN (0x4)
                0x0000000008030c04                PROVIDE (__preinit_array_start = .)
 *(.preinit_array*)
                0x0000000008030c04                PROVIDE (__preinit_array_end = .)
                0x0000000008030c04                . = ALIGN (0x4)

.init_array     0x0000000008030c04        0x4
                0x0000000008030c04                . = ALIGN (0x4)
                0x0000000008030c04                PROVIDE (__init_array_start = .)
 *(SORT_BY_NAME(.init_array.*))
 *(.init_array*)
 .init_array    0x0000000008030c04        0x4 d:/st/stm32cubeide_1.8.0/stm32cubeide/plugins/com.st.stm32cube.ide.mcu.externaltools.gnu-tools-for-stm32.9-2020-q2-update.win32_2.0.0.202105311346/tools/bin/../lib/gcc/arm-none-eabi/9.3.1/thumb/v7e-m+fp/hard/crtbegin.o
                0x0000000008030c08                PROVIDE (__init_array_end = .)
                0x0000000008030c08                . = ALIGN (0x4)

.fini_array     0x0000000008030c08        0x4
                0x0000000008030c08                . = ALIGN (0x4)
                [!provide]                        PROVIDE (__fini_array_start = .)
 *(SORT_BY_NAME(.fini_array.*))
 *(.fini_array*)
 .fini_array    0x0000000008030c08        0x4 d:/st/stm32cubeide_1.8.0/stm32cubeide/plugins/com.st.stm32cube.ide.mcu.externaltools.gnu-tools-for-stm32.9-2020-q2-update.win32_2.0.0.202105311346/tools/bin/../lib/gcc/arm-none-eabi/9.3.1/thumb/v7e-m+fp/hard/crtbegin.o
                [!provide]                        PROVIDE (__fini_array_end = .)
                0x0000000008030c0c                . = ALIGN (0x4)
                0x0000000008030c0c                _sidata = LOADADDR (.data)

.data           0x0000000020000000      0x1bc load address 0x0000000008030c0c
                0x0000000020000000                . = ALIGN (0x4)
                0x0000000020000000                _sdata = .
 *(.data)
 *(.data*)
 .data.SystemCoreClock
                0x0000000020000000        0x4 ./Core/Src/system_stm32f4xx.o
                0x0000000020000000                SystemCoreClock
 .data.uwTickFreq
                0x0000000020000004        0x1 ./Drivers/STM32F4xx_HAL_Driver/Src/stm32f4xx_hal.o
                0x0000000020000004                uwTickFreq
 *fill*         0x0000000020000005        0x3 
 .data.uwTickPrio
                0x0000000020000008        0x4 ./Drivers/STM32F4xx_HAL_Driver/Src/stm32f4xx_hal.o
                0x0000000020000008                uwTickPrio
 .data.uxCriticalNesting
                0x000000002000000c        0x4 ./Middlewares/Third_Party/FreeRTOS/Source/portable/GCC/ARM_CM4F/port.o
 .data.pin_cfg  0x0000000020000010       0xa0 ./user/detect.o
                0x0000000020000010                pin_cfg
 .data.days_bk.10583
                0x00000000200000b0        0x2 ./user/display.o
 .data.hours_bk.10584
                0x00000000200000b2        0x2 ./user/display.o
 .data.tim_tab_st
                0x00000000200000b4       0x1a ./user/display.o
                0x00000000200000b4                tim_tab_st
 *fill*         0x00000000200000ce        0x2 
 .data.io1_cfg  0x00000000200000d0       0x10 ./user/io_ctrl.o
                0x00000000200000d0                io1_cfg
 .data.io2_cfg  0x00000000200000e0       0x50 ./user/io_ctrl.o
                0x00000000200000e0                io2_cfg
 .data.pin_char_op
                0x0000000020000130        0xc ./user/io_ctrl.o
                0x0000000020000130                pin_char_op
 .data.pin_char_type
                0x000000002000013c       0x14 ./user/io_ctrl.o
                0x000000002000013c                pin_char_type
 .data.tim_run  0x0000000020000150        0x1 ./user/my_tim.o
                0x0000000020000150                tim_run
 .data.tim_run_turn
                0x0000000020000151        0x1 ./user/my_tim.o
                0x0000000020000151                tim_run_turn
 *fill*         0x0000000020000152        0x2 
 .data.current_puts
                0x0000000020000154        0x4 ./user/myprintf.o
                0x0000000020000154                current_puts
 .data._impure_ptr
                0x0000000020000158        0x4 d:/st/stm32cubeide_1.8.0/stm32cubeide/plugins/com.st.stm32cube.ide.mcu.externaltools.gnu-tools-for-stm32.9-2020-q2-update.win32_2.0.0.202105311346/tools/bin/../lib/gcc/arm-none-eabi/9.3.1/../../../../arm-none-eabi/lib/thumb/v7e-m+fp/hard\libc_nano.a(lib_a-impure.o)
                0x0000000020000158                _impure_ptr
 .data.impure_data
                0x000000002000015c       0x60 d:/st/stm32cubeide_1.8.0/stm32cubeide/plugins/com.st.stm32cube.ide.mcu.externaltools.gnu-tools-for-stm32.9-2020-q2-update.win32_2.0.0.202105311346/tools/bin/../lib/gcc/arm-none-eabi/9.3.1/../../../../arm-none-eabi/lib/thumb/v7e-m+fp/hard\libc_nano.a(lib_a-impure.o)
 *(.RamFunc)
 *(.RamFunc*)
                0x00000000200001bc                . = ALIGN (0x4)
                0x00000000200001bc                _edata = .

.igot.plt       0x00000000200001bc        0x0 load address 0x0000000008030dc8
 .igot.plt      0x00000000200001bc        0x0 d:/st/stm32cubeide_1.8.0/stm32cubeide/plugins/com.st.stm32cube.ide.mcu.externaltools.gnu-tools-for-stm32.9-2020-q2-update.win32_2.0.0.202105311346/tools/bin/../lib/gcc/arm-none-eabi/9.3.1/thumb/v7e-m+fp/hard/crtbegin.o
                0x00000000200001bc                . = ALIGN (0x4)

.bss            0x00000000200001bc     0xe55c load address 0x0000000008030dc8
                0x00000000200001bc                _sbss = .
                0x00000000200001bc                __bss_start__ = _sbss
 *(.bss)
 .bss           0x00000000200001bc       0x1c d:/st/stm32cubeide_1.8.0/stm32cubeide/plugins/com.st.stm32cube.ide.mcu.externaltools.gnu-tools-for-stm32.9-2020-q2-update.win32_2.0.0.202105311346/tools/bin/../lib/gcc/arm-none-eabi/9.3.1/thumb/v7e-m+fp/hard/crtbegin.o
 *(.bss*)
 .bss.cnt0.10506
                0x00000000200001d8        0x2 ./Core/Src/freertos.o
 .bss.cnt0.10537
                0x00000000200001da        0x2 ./Core/Src/freertos.o
 .bss.cnt1.10507
                0x00000000200001dc        0x2 ./Core/Src/freertos.o
 .bss.cnt1.10538
                0x00000000200001de        0x2 ./Core/Src/freertos.o
 .bss.cnt2.10508
                0x00000000200001e0        0x2 ./Core/Src/freertos.o
 .bss.cnt2.10539
                0x00000000200001e2        0x2 ./Core/Src/freertos.o
 .bss.cnt3.10509
                0x00000000200001e4        0x2 ./Core/Src/freertos.o
 .bss.cnt3.10540
                0x00000000200001e6        0x2 ./Core/Src/freertos.o
 .bss.cnt4.10510
                0x00000000200001e8        0x2 ./Core/Src/freertos.o
 .bss.cnt4.10541
                0x00000000200001ea        0x2 ./Core/Src/freertos.o
 .bss.__sbrk_heap_end
                0x00000000200001ec        0x4 ./Core/Src/sysmem.o
 .bss.__lock___malloc_recursive_mutex
                0x00000000200001f0        0xc ./Core/ThreadSafe/newlib_lock_glue.o
                0x00000000200001f0                __lock___malloc_recursive_mutex
 .bss.Idle_Stack.10425
                0x00000000200001fc      0x200 ./Middlewares/Third_Party/FreeRTOS/Source/CMSIS_RTOS_V2/cmsis_os2.o
 .bss.Idle_TCB.10424
                0x00000000200003fc       0xbc ./Middlewares/Third_Party/FreeRTOS/Source/CMSIS_RTOS_V2/cmsis_os2.o
 .bss.KernelState
                0x00000000200004b8        0x4 ./Middlewares/Third_Party/FreeRTOS/Source/CMSIS_RTOS_V2/cmsis_os2.o
 .bss.Timer_Stack.10432
                0x00000000200004bc      0x400 ./Middlewares/Third_Party/FreeRTOS/Source/CMSIS_RTOS_V2/cmsis_os2.o
 .bss.Timer_TCB.10431
                0x00000000200008bc       0xbc ./Middlewares/Third_Party/FreeRTOS/Source/CMSIS_RTOS_V2/cmsis_os2.o
 .bss.pxCurrentTCB
                0x0000000020000978        0x4 ./Middlewares/Third_Party/FreeRTOS/Source/tasks.o
                0x0000000020000978                pxCurrentTCB
 .bss.pxDelayedTaskList
                0x000000002000097c        0x4 ./Middlewares/Third_Party/FreeRTOS/Source/tasks.o
 .bss.pxOverflowDelayedTaskList
                0x0000000020000980        0x4 ./Middlewares/Third_Party/FreeRTOS/Source/tasks.o
 .bss.pxReadyTasksLists
                0x0000000020000984      0x460 ./Middlewares/Third_Party/FreeRTOS/Source/tasks.o
 .bss.uxCurrentNumberOfTasks
                0x0000000020000de4        0x4 ./Middlewares/Third_Party/FreeRTOS/Source/tasks.o
 .bss.uxDeletedTasksWaitingCleanUp
                0x0000000020000de8        0x4 ./Middlewares/Third_Party/FreeRTOS/Source/tasks.o
 .bss.uxSchedulerSuspended
                0x0000000020000dec        0x4 ./Middlewares/Third_Party/FreeRTOS/Source/tasks.o
 .bss.uxTaskNumber
                0x0000000020000df0        0x4 ./Middlewares/Third_Party/FreeRTOS/Source/tasks.o
 .bss.uxTopReadyPriority
                0x0000000020000df4        0x4 ./Middlewares/Third_Party/FreeRTOS/Source/tasks.o
 .bss.xDelayedTaskList1
                0x0000000020000df8       0x14 ./Middlewares/Third_Party/FreeRTOS/Source/tasks.o
 .bss.xDelayedTaskList2
                0x0000000020000e0c       0x14 ./Middlewares/Third_Party/FreeRTOS/Source/tasks.o
 .bss.xNextTaskUnblockTime
                0x0000000020000e20        0x4 ./Middlewares/Third_Party/FreeRTOS/Source/tasks.o
 .bss.xNumOfOverflows
                0x0000000020000e24        0x4 ./Middlewares/Third_Party/FreeRTOS/Source/tasks.o
 .bss.xPendedTicks
                0x0000000020000e28        0x4 ./Middlewares/Third_Party/FreeRTOS/Source/tasks.o
 .bss.xPendingReadyList
                0x0000000020000e2c       0x14 ./Middlewares/Third_Party/FreeRTOS/Source/tasks.o
 .bss.xSchedulerRunning
                0x0000000020000e40        0x4 ./Middlewares/Third_Party/FreeRTOS/Source/tasks.o
 .bss.xSuspendedTaskList
                0x0000000020000e44       0x14 ./Middlewares/Third_Party/FreeRTOS/Source/tasks.o
 .bss.xTasksWaitingTermination
                0x0000000020000e58       0x14 ./Middlewares/Third_Party/FreeRTOS/Source/tasks.o
 .bss.xTickCount
                0x0000000020000e6c        0x4 ./Middlewares/Third_Party/FreeRTOS/Source/tasks.o
 .bss.xYieldPending
                0x0000000020000e70        0x4 ./Middlewares/Third_Party/FreeRTOS/Source/tasks.o
 .bss.pxCurrentTimerList
                0x0000000020000e74        0x4 ./Middlewares/Third_Party/FreeRTOS/Source/timers.o
 .bss.pxOverflowTimerList
                0x0000000020000e78        0x4 ./Middlewares/Third_Party/FreeRTOS/Source/timers.o
 .bss.ucStaticTimerQueueStorage.7064
                0x0000000020000e7c       0xa0 ./Middlewares/Third_Party/FreeRTOS/Source/timers.o
 .bss.xActiveTimerList1
                0x0000000020000f1c       0x14 ./Middlewares/Third_Party/FreeRTOS/Source/timers.o
 .bss.xActiveTimerList2
                0x0000000020000f30       0x14 ./Middlewares/Third_Party/FreeRTOS/Source/timers.o
 .bss.xLastTime.7013
                0x0000000020000f44        0x4 ./Middlewares/Third_Party/FreeRTOS/Source/timers.o
 .bss.xStaticTimerQueue.7063
                0x0000000020000f48       0x50 ./Middlewares/Third_Party/FreeRTOS/Source/timers.o
 .bss.xTimerQueue
                0x0000000020000f98        0x4 ./Middlewares/Third_Party/FreeRTOS/Source/timers.o
 .bss.xTimerTaskHandle
                0x0000000020000f9c        0x4 ./Middlewares/Third_Party/FreeRTOS/Source/timers.o
 .bss.ucMaxSysCallPriority
                0x0000000020000fa0        0x1 ./Middlewares/Third_Party/FreeRTOS/Source/portable/GCC/ARM_CM4F/port.o
 *fill*         0x0000000020000fa1        0x3 
 .bss.ulMaxPRIGROUPValue
                0x0000000020000fa4        0x4 ./Middlewares/Third_Party/FreeRTOS/Source/portable/GCC/ARM_CM4F/port.o
 .bss.pxEnd     0x0000000020000fa8        0x4 ./Middlewares/Third_Party/FreeRTOS/Source/portable/MemMang/heap_4.o
 .bss.ucHeap    0x0000000020000fac     0xc000 ./Middlewares/Third_Party/FreeRTOS/Source/portable/MemMang/heap_4.o
 .bss.xBlockAllocatedBit
                0x000000002000cfac        0x4 ./Middlewares/Third_Party/FreeRTOS/Source/portable/MemMang/heap_4.o
 .bss.xFreeBytesRemaining
                0x000000002000cfb0        0x4 ./Middlewares/Third_Party/FreeRTOS/Source/portable/MemMang/heap_4.o
 .bss.xMinimumEverFreeBytesRemaining
                0x000000002000cfb4        0x4 ./Middlewares/Third_Party/FreeRTOS/Source/portable/MemMang/heap_4.o
 .bss.xNumberOfSuccessfulAllocations
                0x000000002000cfb8        0x4 ./Middlewares/Third_Party/FreeRTOS/Source/portable/MemMang/heap_4.o
 .bss.xNumberOfSuccessfulFrees
                0x000000002000cfbc        0x4 ./Middlewares/Third_Party/FreeRTOS/Source/portable/MemMang/heap_4.o
 .bss.xStart    0x000000002000cfc0        0x8 ./Middlewares/Third_Party/FreeRTOS/Source/portable/MemMang/heap_4.o
 .bss.cnt.9844  0x000000002000cfc8        0x1 ./user/detect.o
 .bss.cnt.9863  0x000000002000cfc9        0x1 ./user/detect.o
 .bss.cnt.9884  0x000000002000cfca        0x1 ./user/detect.o
 .bss.cnt.9980  0x000000002000cfcb        0x1 ./user/detect.o
 .bss.pic_val_bk.10520
                0x000000002000cfcc        0x2 ./user/display.o
 .bss.pic_val_bk.10530
                0x000000002000cfce        0x2 ./user/display.o
 .bss.DataVar   0x000000002000cfd0        0x2 ./user/eeprom.o
                0x000000002000cfd0                DataVar
 *fill*         0x000000002000cfd2        0x2 
 .bss.my_tic    0x000000002000cfd4       0x14 ./user/my_tim.o
                0x000000002000cfd4                my_tic
 .bss.tickCnt   0x000000002000cfe8        0x4 ./user/soft_timer.o
                0x000000002000cfe8                tickCnt
 .bss.timer     0x000000002000cfec      0x140 ./user/soft_timer.o
 .bss.__malloc_free_list
                0x000000002000d12c        0x4 d:/st/stm32cubeide_1.8.0/stm32cubeide/plugins/com.st.stm32cube.ide.mcu.externaltools.gnu-tools-for-stm32.9-2020-q2-update.win32_2.0.0.202105311346/tools/bin/../lib/gcc/arm-none-eabi/9.3.1/../../../../arm-none-eabi/lib/thumb/v7e-m+fp/hard\libc_nano.a(lib_a-nano-mallocr.o)
                0x000000002000d12c                __malloc_free_list
 .bss.__malloc_sbrk_start
                0x000000002000d130        0x4 d:/st/stm32cubeide_1.8.0/stm32cubeide/plugins/com.st.stm32cube.ide.mcu.externaltools.gnu-tools-for-stm32.9-2020-q2-update.win32_2.0.0.202105311346/tools/bin/../lib/gcc/arm-none-eabi/9.3.1/../../../../arm-none-eabi/lib/thumb/v7e-m+fp/hard\libc_nano.a(lib_a-nano-mallocr.o)
                0x000000002000d130                __malloc_sbrk_start
 *(COMMON)
 COMMON         0x000000002000d134       0x60 ./Core/Src/freertos.o
                0x000000002000d134                defaultTaskHandle
                0x000000002000d138                myBinarySem05Handle
                0x000000002000d13c                myEvent01Handle
                0x000000002000d140                myTask05Handle
                0x000000002000d144                myTask04Handle
                0x000000002000d148                myBinarySem03Handle
                0x000000002000d14c                time_start_st
                0x000000002000d164                myEvent02Handle
                0x000000002000d168                myBinarySem02Handle
                0x000000002000d16c                myTask02Handle
                0x000000002000d170                myBinarySem01Handle
                0x000000002000d174                myTask03Handle
                0x000000002000d178                myQueueUsart1Handle
                0x000000002000d17c                myQueueUsart6Handle
                0x000000002000d180                myMutex01Handle
                0x000000002000d184                myMutex02Handle
                0x000000002000d188                myQueueUsart3Handle
                0x000000002000d18c                myTask06Handle
                0x000000002000d190                myBinarySem04Handle
 COMMON         0x000000002000d194        0xc ./Core/Src/iwdg.o
                0x000000002000d194                hiwdg
 COMMON         0x000000002000d1a0       0x20 ./Core/Src/rtc.o
                0x000000002000d1a0                hrtc
 COMMON         0x000000002000d1c0       0x48 ./Core/Src/stm32f4xx_hal_timebase_tim.o
                0x000000002000d1c0                htim2
 COMMON         0x000000002000d208       0xd8 ./Core/Src/tim.o
                0x000000002000d208                htim10
                0x000000002000d250                htim6
                0x000000002000d298                htim7
 COMMON         0x000000002000d2e0      0x30c ./Core/Src/usart.o
                0x000000002000d2e0                hdma_usart6_rx
                0x000000002000d340                hdma_usart3_rx
                0x000000002000d3a0                huart3
                0x000000002000d3e4                hdma_usart3_tx
                0x000000002000d444                hdma_usart1_tx
                0x000000002000d4a4                hdma_usart6_tx
                0x000000002000d504                hdma_usart1_rx
                0x000000002000d564                huart1
                0x000000002000d5a8                huart6
 COMMON         0x000000002000d5ec        0x4 ./Drivers/STM32F4xx_HAL_Driver/Src/stm32f4xx_hal.o
                0x000000002000d5ec                uwTick
 COMMON         0x000000002000d5f0       0x20 ./Drivers/STM32F4xx_HAL_Driver/Src/stm32f4xx_hal_flash.o
                0x000000002000d5f0                pFlash
 COMMON         0x000000002000d610       0x40 ./Middlewares/Third_Party/FreeRTOS/Source/queue.o
                0x000000002000d610                xQueueRegistry
 COMMON         0x000000002000d650      0x245 ./user/detect.o
                0x000000002000d650                keyboard_buff
                0x000000002000d65c                gate_buff
                0x000000002000d668                keycatch_result
                0x000000002000d66c                keystop_buff
                0x000000002000d678                gate_result
                0x000000002000d67c                keypush_buff
                0x000000002000d688                keypush_result
                0x000000002000d68c                keyrun_result
                0x000000002000d690                start_stop_st
                0x000000002000d694                keyemg_result
                0x000000002000d698                keyboard_result
                0x000000002000d69c                keystop_result
                0x000000002000d6a0                keyturn_result
                0x000000002000d6a4                keycatch_buff
                0x000000002000d6b0                keyrun_buff
                0x000000002000d6bc                dpt
                0x000000002000d850                keyturn_buff
                0x000000002000d85c                gate2_buff
                0x000000002000d868                keymod_result
                0x000000002000d86c                keyemg_buff
                0x000000002000d878                keyhead_result
                0x000000002000d87c                keymod_buff
                0x000000002000d888                keyhead_buff
                0x000000002000d894                gate2_result
 *fill*         0x000000002000d895        0x3 
 COMMON         0x000000002000d898      0x81e ./user/dev_usart.o
                0x000000002000d898                usart1_rx
                0x000000002000d99c                Usart1_Type
                0x000000002000daa0                usart6_rx
                0x000000002000dba4                Usart2_Type
                0x000000002000dca8                Usart3_Type
                0x000000002000ddac                usart2_rx
                0x000000002000deb0                Usart6_Type
                0x000000002000dfb4                usart3_rx
 *fill*         0x000000002000e0b6        0x2 
 COMMON         0x000000002000e0b8       0x6c ./user/display.o
                0x000000002000e0b8                log_para_st
                0x000000002000e0ec                time_st
                0x000000002000e104                tim_para_st
                0x000000002000e108                warn_out_st
                0x000000002000e10c                time_get_st
 COMMON         0x000000002000e124      0x1fe ./user/eeprom.o
                0x000000002000e124                VirtAddVarTab
 *fill*         0x000000002000e322        0x2 
 COMMON         0x000000002000e324      0x1d9 ./user/io_ctrl.o
                0x000000002000e324                osthd_st
                0x000000002000e330                relief_st
                0x000000002000e338                set_para_st
                0x000000002000e360                op_para_st
                0x000000002000e36c                src_press_st
                0x000000002000e394                screen_ini_st
                0x000000002000e398                scr_state_st
                0x000000002000e3b0                scr_operate_st
                0x000000002000e3d0                fst_tips_st
                0x000000002000e3d4                screen_prot
                0x000000002000e4ec                out_sta_st
                0x000000002000e4f8                out_state_st
 *fill*         0x000000002000e4fd        0x3 
 COMMON         0x000000002000e500      0x17c ./user/modbus_slave.o
                0x000000002000e500                g_tModS
                0x000000002000e5c4                g_tVarS
 COMMON         0x000000002000e67c       0x88 ./user/my_tim.o
                0x000000002000e67c                warn_st
                0x000000002000e6a4                warn_bk_st
                0x000000002000e6cc                para_check_st
 COMMON         0x000000002000e704        0xe ./user/sysguard.o
                0x000000002000e704                sys_guard
 *fill*         0x000000002000e712        0x2 
 COMMON         0x000000002000e714        0x4 d:/st/stm32cubeide_1.8.0/stm32cubeide/plugins/com.st.stm32cube.ide.mcu.externaltools.gnu-tools-for-stm32.9-2020-q2-update.win32_2.0.0.202105311346/tools/bin/../lib/gcc/arm-none-eabi/9.3.1/../../../../arm-none-eabi/lib/thumb/v7e-m+fp/hard\libc_nano.a(lib_a-reent.o)
                0x000000002000e714                errno
                0x000000002000e718                . = ALIGN (0x4)
                0x000000002000e718                _ebss = .
                0x000000002000e718                __bss_end__ = _ebss

._user_heap_stack
                0x000000002000e718     0x6000 load address 0x0000000008030dc8
                0x000000002000e718                . = ALIGN (0x8)
                [!provide]                        PROVIDE (end = .)
                0x000000002000e718                PROVIDE (_end = .)
                0x0000000020010718                . = (. + _Min_Heap_Size)
 *fill*         0x000000002000e718     0x2000 
                0x0000000020014718                . = (. + _Min_Stack_Size)
 *fill*         0x0000000020010718     0x4000 
                0x0000000020014718                . = ALIGN (0x8)

/DISCARD/
 libc.a(*)
 libm.a(*)
 libgcc.a(*)

.ARM.attributes
                0x0000000000000000       0x30
 *(.ARM.attributes)
 .ARM.attributes
                0x0000000000000000       0x1e d:/st/stm32cubeide_1.8.0/stm32cubeide/plugins/com.st.stm32cube.ide.mcu.externaltools.gnu-tools-for-stm32.9-2020-q2-update.win32_2.0.0.202105311346/tools/bin/../lib/gcc/arm-none-eabi/9.3.1/thumb/v7e-m+fp/hard/crti.o
 .ARM.attributes
                0x000000000000001e       0x34 d:/st/stm32cubeide_1.8.0/stm32cubeide/plugins/com.st.stm32cube.ide.mcu.externaltools.gnu-tools-for-stm32.9-2020-q2-update.win32_2.0.0.202105311346/tools/bin/../lib/gcc/arm-none-eabi/9.3.1/thumb/v7e-m+fp/hard/crtbegin.o
 .ARM.attributes
                0x0000000000000052       0x34 ./Core/Src/dma.o
 .ARM.attributes
                0x0000000000000086       0x34 ./Core/Src/freertos.o
 .ARM.attributes
                0x00000000000000ba       0x34 ./Core/Src/gpio.o
 .ARM.attributes
                0x00000000000000ee       0x34 ./Core/Src/iwdg.o
 .ARM.attributes
                0x0000000000000122       0x34 ./Core/Src/main.o
 .ARM.attributes
                0x0000000000000156       0x34 ./Core/Src/rtc.o
 .ARM.attributes
                0x000000000000018a       0x34 ./Core/Src/stm32f4xx_hal_msp.o
 .ARM.attributes
                0x00000000000001be       0x34 ./Core/Src/stm32f4xx_hal_timebase_tim.o
 .ARM.attributes
                0x00000000000001f2       0x34 ./Core/Src/stm32f4xx_it.o
 .ARM.attributes
                0x0000000000000226       0x34 ./Core/Src/sysmem.o
 .ARM.attributes
                0x000000000000025a       0x34 ./Core/Src/system_stm32f4xx.o
 .ARM.attributes
                0x000000000000028e       0x34 ./Core/Src/tim.o
 .ARM.attributes
                0x00000000000002c2       0x34 ./Core/Src/usart.o
 .ARM.attributes
                0x00000000000002f6       0x21 ./Core/Startup/startup_stm32f412retx.o
 .ARM.attributes
                0x0000000000000317       0x34 ./Core/ThreadSafe/newlib_lock_glue.o
 .ARM.attributes
                0x000000000000034b       0x34 ./Drivers/STM32F4xx_HAL_Driver/Src/stm32f4xx_hal.o
 .ARM.attributes
                0x000000000000037f       0x34 ./Drivers/STM32F4xx_HAL_Driver/Src/stm32f4xx_hal_cortex.o
 .ARM.attributes
                0x00000000000003b3       0x34 ./Drivers/STM32F4xx_HAL_Driver/Src/stm32f4xx_hal_dma.o
 .ARM.attributes
                0x00000000000003e7       0x34 ./Drivers/STM32F4xx_HAL_Driver/Src/stm32f4xx_hal_flash.o
 .ARM.attributes
                0x000000000000041b       0x34 ./Drivers/STM32F4xx_HAL_Driver/Src/stm32f4xx_hal_flash_ex.o
 .ARM.attributes
                0x000000000000044f       0x34 ./Drivers/STM32F4xx_HAL_Driver/Src/stm32f4xx_hal_gpio.o
 .ARM.attributes
                0x0000000000000483       0x34 ./Drivers/STM32F4xx_HAL_Driver/Src/stm32f4xx_hal_iwdg.o
 .ARM.attributes
                0x00000000000004b7       0x34 ./Drivers/STM32F4xx_HAL_Driver/Src/stm32f4xx_hal_rcc.o
 .ARM.attributes
                0x00000000000004eb       0x34 ./Drivers/STM32F4xx_HAL_Driver/Src/stm32f4xx_hal_rcc_ex.o
 .ARM.attributes
                0x000000000000051f       0x34 ./Drivers/STM32F4xx_HAL_Driver/Src/stm32f4xx_hal_rtc.o
 .ARM.attributes
                0x0000000000000553       0x34 ./Drivers/STM32F4xx_HAL_Driver/Src/stm32f4xx_hal_tim.o
 .ARM.attributes
                0x0000000000000587       0x34 ./Drivers/STM32F4xx_HAL_Driver/Src/stm32f4xx_hal_tim_ex.o
 .ARM.attributes
                0x00000000000005bb       0x34 ./Drivers/STM32F4xx_HAL_Driver/Src/stm32f4xx_hal_uart.o
 .ARM.attributes
                0x00000000000005ef       0x34 ./Middlewares/Third_Party/FreeRTOS/Source/CMSIS_RTOS_V2/cmsis_os2.o
 .ARM.attributes
                0x0000000000000623       0x34 ./Middlewares/Third_Party/FreeRTOS/Source/event_groups.o
 .ARM.attributes
                0x0000000000000657       0x34 ./Middlewares/Third_Party/FreeRTOS/Source/list.o
 .ARM.attributes
                0x000000000000068b       0x34 ./Middlewares/Third_Party/FreeRTOS/Source/queue.o
 .ARM.attributes
                0x00000000000006bf       0x34 ./Middlewares/Third_Party/FreeRTOS/Source/tasks.o
 .ARM.attributes
                0x00000000000006f3       0x34 ./Middlewares/Third_Party/FreeRTOS/Source/timers.o
 .ARM.attributes
                0x0000000000000727       0x34 ./Middlewares/Third_Party/FreeRTOS/Source/portable/GCC/ARM_CM4F/port.o
 .ARM.attributes
                0x000000000000075b       0x34 ./Middlewares/Third_Party/FreeRTOS/Source/portable/MemMang/heap_4.o
 .ARM.attributes
                0x000000000000078f       0x34 ./user/detect.o
 .ARM.attributes
                0x00000000000007c3       0x34 ./user/dev_usart.o
 .ARM.attributes
                0x00000000000007f7       0x34 ./user/display.o
 .ARM.attributes
                0x000000000000082b       0x34 ./user/eeprom.o
 .ARM.attributes
                0x000000000000085f       0x34 ./user/io_ctrl.o
 .ARM.attributes
                0x0000000000000893       0x34 ./user/modbus_lib.o
 .ARM.attributes
                0x00000000000008c7       0x34 ./user/modbus_slave.o
 .ARM.attributes
                0x00000000000008fb       0x34 ./user/my_tim.o
 .ARM.attributes
                0x000000000000092f       0x34 ./user/myprintf.o
 .ARM.attributes
                0x0000000000000963       0x34 ./user/soft_timer.o
 .ARM.attributes
                0x0000000000000997       0x34 ./user/sysguard.o
 .ARM.attributes
                0x00000000000009cb       0x32 d:/st/stm32cubeide_1.8.0/stm32cubeide/plugins/com.st.stm32cube.ide.mcu.externaltools.gnu-tools-for-stm32.9-2020-q2-update.win32_2.0.0.202105311346/tools/bin/../lib/gcc/arm-none-eabi/9.3.1/../../../../arm-none-eabi/lib/thumb/v7e-m+fp/hard\libc_nano.a(lib_a-ctype_.o)
 .ARM.attributes
                0x00000000000009fd       0x34 d:/st/stm32cubeide_1.8.0/stm32cubeide/plugins/com.st.stm32cube.ide.mcu.externaltools.gnu-tools-for-stm32.9-2020-q2-update.win32_2.0.0.202105311346/tools/bin/../lib/gcc/arm-none-eabi/9.3.1/../../../../arm-none-eabi/lib/thumb/v7e-m+fp/hard\libc_nano.a(lib_a-errno.o)
 .ARM.attributes
                0x0000000000000a31       0x34 d:/st/stm32cubeide_1.8.0/stm32cubeide/plugins/com.st.stm32cube.ide.mcu.externaltools.gnu-tools-for-stm32.9-2020-q2-update.win32_2.0.0.202105311346/tools/bin/../lib/gcc/arm-none-eabi/9.3.1/../../../../arm-none-eabi/lib/thumb/v7e-m+fp/hard\libc_nano.a(lib_a-findfp.o)
 .ARM.attributes
                0x0000000000000a65       0x32 d:/st/stm32cubeide_1.8.0/stm32cubeide/plugins/com.st.stm32cube.ide.mcu.externaltools.gnu-tools-for-stm32.9-2020-q2-update.win32_2.0.0.202105311346/tools/bin/../lib/gcc/arm-none-eabi/9.3.1/../../../../arm-none-eabi/lib/thumb/v7e-m+fp/hard\libc_nano.a(lib_a-impure.o)
 .ARM.attributes
                0x0000000000000a97       0x34 d:/st/stm32cubeide_1.8.0/stm32cubeide/plugins/com.st.stm32cube.ide.mcu.externaltools.gnu-tools-for-stm32.9-2020-q2-update.win32_2.0.0.202105311346/tools/bin/../lib/gcc/arm-none-eabi/9.3.1/../../../../arm-none-eabi/lib/thumb/v7e-m+fp/hard\libc_nano.a(lib_a-init.o)
 .ARM.attributes
                0x0000000000000acb       0x34 d:/st/stm32cubeide_1.8.0/stm32cubeide/plugins/com.st.stm32cube.ide.mcu.externaltools.gnu-tools-for-stm32.9-2020-q2-update.win32_2.0.0.202105311346/tools/bin/../lib/gcc/arm-none-eabi/9.3.1/../../../../arm-none-eabi/lib/thumb/v7e-m+fp/hard\libc_nano.a(lib_a-memcpy-stub.o)
 .ARM.attributes
                0x0000000000000aff       0x34 d:/st/stm32cubeide_1.8.0/stm32cubeide/plugins/com.st.stm32cube.ide.mcu.externaltools.gnu-tools-for-stm32.9-2020-q2-update.win32_2.0.0.202105311346/tools/bin/../lib/gcc/arm-none-eabi/9.3.1/../../../../arm-none-eabi/lib/thumb/v7e-m+fp/hard\libc_nano.a(lib_a-memset.o)
 .ARM.attributes
                0x0000000000000b33       0x34 d:/st/stm32cubeide_1.8.0/stm32cubeide/plugins/com.st.stm32cube.ide.mcu.externaltools.gnu-tools-for-stm32.9-2020-q2-update.win32_2.0.0.202105311346/tools/bin/../lib/gcc/arm-none-eabi/9.3.1/../../../../arm-none-eabi/lib/thumb/v7e-m+fp/hard\libc_nano.a(lib_a-nano-freer.o)
 .ARM.attributes
                0x0000000000000b67       0x34 d:/st/stm32cubeide_1.8.0/stm32cubeide/plugins/com.st.stm32cube.ide.mcu.externaltools.gnu-tools-for-stm32.9-2020-q2-update.win32_2.0.0.202105311346/tools/bin/../lib/gcc/arm-none-eabi/9.3.1/../../../../arm-none-eabi/lib/thumb/v7e-m+fp/hard\libc_nano.a(lib_a-nano-mallocr.o)
 .ARM.attributes
                0x0000000000000b9b       0x34 d:/st/stm32cubeide_1.8.0/stm32cubeide/plugins/com.st.stm32cube.ide.mcu.externaltools.gnu-tools-for-stm32.9-2020-q2-update.win32_2.0.0.202105311346/tools/bin/../lib/gcc/arm-none-eabi/9.3.1/../../../../arm-none-eabi/lib/thumb/v7e-m+fp/hard\libc_nano.a(lib_a-reent.o)
 .ARM.attributes
                0x0000000000000bcf       0x34 d:/st/stm32cubeide_1.8.0/stm32cubeide/plugins/com.st.stm32cube.ide.mcu.externaltools.gnu-tools-for-stm32.9-2020-q2-update.win32_2.0.0.202105311346/tools/bin/../lib/gcc/arm-none-eabi/9.3.1/../../../../arm-none-eabi/lib/thumb/v7e-m+fp/hard\libc_nano.a(lib_a-sbrkr.o)
 .ARM.attributes
                0x0000000000000c03       0x34 d:/st/stm32cubeide_1.8.0/stm32cubeide/plugins/com.st.stm32cube.ide.mcu.externaltools.gnu-tools-for-stm32.9-2020-q2-update.win32_2.0.0.202105311346/tools/bin/../lib/gcc/arm-none-eabi/9.3.1/../../../../arm-none-eabi/lib/thumb/v7e-m+fp/hard\libc_nano.a(lib_a-sprintf.o)
 .ARM.attributes
                0x0000000000000c37       0x17 d:/st/stm32cubeide_1.8.0/stm32cubeide/plugins/com.st.stm32cube.ide.mcu.externaltools.gnu-tools-for-stm32.9-2020-q2-update.win32_2.0.0.202105311346/tools/bin/../lib/gcc/arm-none-eabi/9.3.1/../../../../arm-none-eabi/lib/thumb/v7e-m+fp/hard\libc_nano.a(lib_a-strlen.o)
 .ARM.attributes
                0x0000000000000c4e       0x34 d:/st/stm32cubeide_1.8.0/stm32cubeide/plugins/com.st.stm32cube.ide.mcu.externaltools.gnu-tools-for-stm32.9-2020-q2-update.win32_2.0.0.202105311346/tools/bin/../lib/gcc/arm-none-eabi/9.3.1/../../../../arm-none-eabi/lib/thumb/v7e-m+fp/hard\libc_nano.a(lib_a-mlock.o)
 .ARM.attributes
                0x0000000000000c82       0x34 d:/st/stm32cubeide_1.8.0/stm32cubeide/plugins/com.st.stm32cube.ide.mcu.externaltools.gnu-tools-for-stm32.9-2020-q2-update.win32_2.0.0.202105311346/tools/bin/../lib/gcc/arm-none-eabi/9.3.1/../../../../arm-none-eabi/lib/thumb/v7e-m+fp/hard\libc_nano.a(lib_a-nano-svfprintf.o)
 .ARM.attributes
                0x0000000000000cb6       0x34 d:/st/stm32cubeide_1.8.0/stm32cubeide/plugins/com.st.stm32cube.ide.mcu.externaltools.gnu-tools-for-stm32.9-2020-q2-update.win32_2.0.0.202105311346/tools/bin/../lib/gcc/arm-none-eabi/9.3.1/../../../../arm-none-eabi/lib/thumb/v7e-m+fp/hard\libc_nano.a(lib_a-nano-vfprintf_i.o)
 .ARM.attributes
                0x0000000000000cea       0x1c d:/st/stm32cubeide_1.8.0/stm32cubeide/plugins/com.st.stm32cube.ide.mcu.externaltools.gnu-tools-for-stm32.9-2020-q2-update.win32_2.0.0.202105311346/tools/bin/../lib/gcc/arm-none-eabi/9.3.1/../../../../arm-none-eabi/lib/thumb/v7e-m+fp/hard\libc_nano.a(lib_a-memchr.o)
 .ARM.attributes
                0x0000000000000d06       0x34 d:/st/stm32cubeide_1.8.0/stm32cubeide/plugins/com.st.stm32cube.ide.mcu.externaltools.gnu-tools-for-stm32.9-2020-q2-update.win32_2.0.0.202105311346/tools/bin/../lib/gcc/arm-none-eabi/9.3.1/../../../../arm-none-eabi/lib/thumb/v7e-m+fp/hard\libc_nano.a(lib_a-memmove.o)
 .ARM.attributes
                0x0000000000000d3a       0x34 d:/st/stm32cubeide_1.8.0/stm32cubeide/plugins/com.st.stm32cube.ide.mcu.externaltools.gnu-tools-for-stm32.9-2020-q2-update.win32_2.0.0.202105311346/tools/bin/../lib/gcc/arm-none-eabi/9.3.1/../../../../arm-none-eabi/lib/thumb/v7e-m+fp/hard\libc_nano.a(lib_a-nano-reallocr.o)
 .ARM.attributes
                0x0000000000000d6e       0x34 d:/st/stm32cubeide_1.8.0/stm32cubeide/plugins/com.st.stm32cube.ide.mcu.externaltools.gnu-tools-for-stm32.9-2020-q2-update.win32_2.0.0.202105311346/tools/bin/../lib/gcc/arm-none-eabi/9.3.1/../../../../arm-none-eabi/lib/thumb/v7e-m+fp/hard\libc_nano.a(lib_a-nano-msizer.o)
 .ARM.attributes
                0x0000000000000da2       0x1e d:/st/stm32cubeide_1.8.0/stm32cubeide/plugins/com.st.stm32cube.ide.mcu.externaltools.gnu-tools-for-stm32.9-2020-q2-update.win32_2.0.0.202105311346/tools/bin/../lib/gcc/arm-none-eabi/9.3.1/thumb/v7e-m+fp/hard\libgcc.a(_arm_truncdfsf2.o)
 .ARM.attributes
                0x0000000000000dc0       0x1e d:/st/stm32cubeide_1.8.0/stm32cubeide/plugins/com.st.stm32cube.ide.mcu.externaltools.gnu-tools-for-stm32.9-2020-q2-update.win32_2.0.0.202105311346/tools/bin/../lib/gcc/arm-none-eabi/9.3.1/thumb/v7e-m+fp/hard\libgcc.a(_aeabi_uldivmod.o)
 .ARM.attributes
                0x0000000000000dde       0x34 d:/st/stm32cubeide_1.8.0/stm32cubeide/plugins/com.st.stm32cube.ide.mcu.externaltools.gnu-tools-for-stm32.9-2020-q2-update.win32_2.0.0.202105311346/tools/bin/../lib/gcc/arm-none-eabi/9.3.1/thumb/v7e-m+fp/hard\libgcc.a(_udivmoddi4.o)
 .ARM.attributes
                0x0000000000000e12       0x1e d:/st/stm32cubeide_1.8.0/stm32cubeide/plugins/com.st.stm32cube.ide.mcu.externaltools.gnu-tools-for-stm32.9-2020-q2-update.win32_2.0.0.202105311346/tools/bin/../lib/gcc/arm-none-eabi/9.3.1/thumb/v7e-m+fp/hard\libgcc.a(_dvmd_tls.o)
 .ARM.attributes
                0x0000000000000e30       0x1e d:/st/stm32cubeide_1.8.0/stm32cubeide/plugins/com.st.stm32cube.ide.mcu.externaltools.gnu-tools-for-stm32.9-2020-q2-update.win32_2.0.0.202105311346/tools/bin/../lib/gcc/arm-none-eabi/9.3.1/thumb/v7e-m+fp/hard/crtn.o
OUTPUT(PACKER.elf elf32-littlearm)
LOAD linker stubs
LOAD d:/st/stm32cubeide_1.8.0/stm32cubeide/plugins/com.st.stm32cube.ide.mcu.externaltools.gnu-tools-for-stm32.9-2020-q2-update.win32_2.0.0.202105311346/tools/bin/../lib/gcc/arm-none-eabi/9.3.1/../../../../arm-none-eabi/lib/thumb/v7e-m+fp/hard\libc.a
LOAD d:/st/stm32cubeide_1.8.0/stm32cubeide/plugins/com.st.stm32cube.ide.mcu.externaltools.gnu-tools-for-stm32.9-2020-q2-update.win32_2.0.0.202105311346/tools/bin/../lib/gcc/arm-none-eabi/9.3.1/../../../../arm-none-eabi/lib/thumb/v7e-m+fp/hard\libm.a
LOAD d:/st/stm32cubeide_1.8.0/stm32cubeide/plugins/com.st.stm32cube.ide.mcu.externaltools.gnu-tools-for-stm32.9-2020-q2-update.win32_2.0.0.202105311346/tools/bin/../lib/gcc/arm-none-eabi/9.3.1/thumb/v7e-m+fp/hard\libgcc.a

.debug_info     0x0000000000000000    0x4ea55
 .debug_info    0x0000000000000000      0x72b ./Core/Src/dma.o
 .debug_info    0x000000000000072b     0x301d ./Core/Src/freertos.o
 .debug_info    0x0000000000003748      0x69e ./Core/Src/gpio.o
 .debug_info    0x0000000000003de6      0x2c3 ./Core/Src/iwdg.o
 .debug_info    0x00000000000040a9     0x2ea4 ./Core/Src/main.o
 .debug_info    0x0000000000006f4d      0x89e ./Core/Src/rtc.o
 .debug_info    0x00000000000077eb      0x60e ./Core/Src/stm32f4xx_hal_msp.o
 .debug_info    0x0000000000007df9      0xd76 ./Core/Src/stm32f4xx_hal_timebase_tim.o
 .debug_info    0x0000000000008b6f      0xec3 ./Core/Src/stm32f4xx_it.o
 .debug_info    0x0000000000009a32      0xa3e ./Core/Src/sysmem.o
 .debug_info    0x000000000000a470      0x5f5 ./Core/Src/system_stm32f4xx.o
 .debug_info    0x000000000000aa65      0xe57 ./Core/Src/tim.o
 .debug_info    0x000000000000b8bc     0x1182 ./Core/Src/usart.o
 .debug_info    0x000000000000ca3e       0x22 ./Core/Startup/startup_stm32f412retx.o
 .debug_info    0x000000000000ca60     0x147d ./Core/ThreadSafe/newlib_lock_glue.o
 .debug_info    0x000000000000dedd      0xace ./Drivers/STM32F4xx_HAL_Driver/Src/stm32f4xx_hal.o
 .debug_info    0x000000000000e9ab     0x13ea ./Drivers/STM32F4xx_HAL_Driver/Src/stm32f4xx_hal_cortex.o
 .debug_info    0x000000000000fd95      0xdf5 ./Drivers/STM32F4xx_HAL_Driver/Src/stm32f4xx_hal_dma.o
 .debug_info    0x0000000000010b8a      0x92c ./Drivers/STM32F4xx_HAL_Driver/Src/stm32f4xx_hal_flash.o
 .debug_info    0x00000000000114b6      0xdaa ./Drivers/STM32F4xx_HAL_Driver/Src/stm32f4xx_hal_flash_ex.o
 .debug_info    0x0000000000012260      0xa6d ./Drivers/STM32F4xx_HAL_Driver/Src/stm32f4xx_hal_gpio.o
 .debug_info    0x0000000000012ccd      0x35c ./Drivers/STM32F4xx_HAL_Driver/Src/stm32f4xx_hal_iwdg.o
 .debug_info    0x0000000000013029      0xe41 ./Drivers/STM32F4xx_HAL_Driver/Src/stm32f4xx_hal_rcc.o
 .debug_info    0x0000000000013e6a      0xed6 ./Drivers/STM32F4xx_HAL_Driver/Src/stm32f4xx_hal_rcc_ex.o
 .debug_info    0x0000000000014d40     0x1ab6 ./Drivers/STM32F4xx_HAL_Driver/Src/stm32f4xx_hal_rtc.o
 .debug_info    0x00000000000167f6     0x5437 ./Drivers/STM32F4xx_HAL_Driver/Src/stm32f4xx_hal_tim.o
 .debug_info    0x000000000001bc2d     0x21bc ./Drivers/STM32F4xx_HAL_Driver/Src/stm32f4xx_hal_tim_ex.o
 .debug_info    0x000000000001dde9     0x4601 ./Drivers/STM32F4xx_HAL_Driver/Src/stm32f4xx_hal_uart.o
 .debug_info    0x00000000000223ea     0x547d ./Middlewares/Third_Party/FreeRTOS/Source/CMSIS_RTOS_V2/cmsis_os2.o
 .debug_info    0x0000000000027867     0x182d ./Middlewares/Third_Party/FreeRTOS/Source/event_groups.o
 .debug_info    0x0000000000029094      0xb95 ./Middlewares/Third_Party/FreeRTOS/Source/list.o
 .debug_info    0x0000000000029c29     0x30c0 ./Middlewares/Third_Party/FreeRTOS/Source/queue.o
 .debug_info    0x000000000002cce9     0x3aec ./Middlewares/Third_Party/FreeRTOS/Source/tasks.o
 .debug_info    0x00000000000307d5     0x2388 ./Middlewares/Third_Party/FreeRTOS/Source/timers.o
 .debug_info    0x0000000000032b5d      0xe24 ./Middlewares/Third_Party/FreeRTOS/Source/portable/GCC/ARM_CM4F/port.o
 .debug_info    0x0000000000033981      0xedd ./Middlewares/Third_Party/FreeRTOS/Source/portable/MemMang/heap_4.o
 .debug_info    0x000000000003485e     0x31eb ./user/detect.o
 .debug_info    0x0000000000037a49     0x1fea ./user/dev_usart.o
 .debug_info    0x0000000000039a33     0x3e08 ./user/display.o
 .debug_info    0x000000000003d83b      0xaa2 ./user/eeprom.o
 .debug_info    0x000000000003e2dd     0x6569 ./user/io_ctrl.o
 .debug_info    0x0000000000044846      0x281 ./user/modbus_lib.o
 .debug_info    0x0000000000044ac7     0x3b0a ./user/modbus_slave.o
 .debug_info    0x00000000000485d1     0x1a6e ./user/my_tim.o
 .debug_info    0x000000000004a03f     0x14c0 ./user/myprintf.o
 .debug_info    0x000000000004b4ff     0x30b4 ./user/soft_timer.o
 .debug_info    0x000000000004e5b3      0x4a2 ./user/sysguard.o

.debug_abbrev   0x0000000000000000     0x7e7c
 .debug_abbrev  0x0000000000000000      0x156 ./Core/Src/dma.o
 .debug_abbrev  0x0000000000000156      0x351 ./Core/Src/freertos.o
 .debug_abbrev  0x00000000000004a7      0x17e ./Core/Src/gpio.o
 .debug_abbrev  0x0000000000000625      0x158 ./Core/Src/iwdg.o
 .debug_abbrev  0x000000000000077d      0x359 ./Core/Src/main.o
 .debug_abbrev  0x0000000000000ad6      0x1c3 ./Core/Src/rtc.o
 .debug_abbrev  0x0000000000000c99      0x149 ./Core/Src/stm32f4xx_hal_msp.o
 .debug_abbrev  0x0000000000000de2      0x21c ./Core/Src/stm32f4xx_hal_timebase_tim.o
 .debug_abbrev  0x0000000000000ffe      0x1f8 ./Core/Src/stm32f4xx_it.o
 .debug_abbrev  0x00000000000011f6      0x203 ./Core/Src/sysmem.o
 .debug_abbrev  0x00000000000013f9      0x14b ./Core/Src/system_stm32f4xx.o
 .debug_abbrev  0x0000000000001544      0x1fb ./Core/Src/tim.o
 .debug_abbrev  0x000000000000173f      0x24d ./Core/Src/usart.o
 .debug_abbrev  0x000000000000198c       0x12 ./Core/Startup/startup_stm32f412retx.o
 .debug_abbrev  0x000000000000199e      0x3f9 ./Core/ThreadSafe/newlib_lock_glue.o
 .debug_abbrev  0x0000000000001d97      0x21c ./Drivers/STM32F4xx_HAL_Driver/Src/stm32f4xx_hal.o
 .debug_abbrev  0x0000000000001fb3      0x3b0 ./Drivers/STM32F4xx_HAL_Driver/Src/stm32f4xx_hal_cortex.o
 .debug_abbrev  0x0000000000002363      0x2eb ./Drivers/STM32F4xx_HAL_Driver/Src/stm32f4xx_hal_dma.o
 .debug_abbrev  0x000000000000264e      0x2ae ./Drivers/STM32F4xx_HAL_Driver/Src/stm32f4xx_hal_flash.o
 .debug_abbrev  0x00000000000028fc      0x299 ./Drivers/STM32F4xx_HAL_Driver/Src/stm32f4xx_hal_flash_ex.o
 .debug_abbrev  0x0000000000002b95      0x25b ./Drivers/STM32F4xx_HAL_Driver/Src/stm32f4xx_hal_gpio.o
 .debug_abbrev  0x0000000000002df0      0x191 ./Drivers/STM32F4xx_HAL_Driver/Src/stm32f4xx_hal_iwdg.o
 .debug_abbrev  0x0000000000002f81      0x2c4 ./Drivers/STM32F4xx_HAL_Driver/Src/stm32f4xx_hal_rcc.o
 .debug_abbrev  0x0000000000003245      0x20e ./Drivers/STM32F4xx_HAL_Driver/Src/stm32f4xx_hal_rcc_ex.o
 .debug_abbrev  0x0000000000003453      0x23a ./Drivers/STM32F4xx_HAL_Driver/Src/stm32f4xx_hal_rtc.o
 .debug_abbrev  0x000000000000368d      0x25b ./Drivers/STM32F4xx_HAL_Driver/Src/stm32f4xx_hal_tim.o
 .debug_abbrev  0x00000000000038e8      0x271 ./Drivers/STM32F4xx_HAL_Driver/Src/stm32f4xx_hal_tim_ex.o
 .debug_abbrev  0x0000000000003b59      0x345 ./Drivers/STM32F4xx_HAL_Driver/Src/stm32f4xx_hal_uart.o
 .debug_abbrev  0x0000000000003e9e      0x5bc ./Middlewares/Third_Party/FreeRTOS/Source/CMSIS_RTOS_V2/cmsis_os2.o
 .debug_abbrev  0x000000000000445a      0x386 ./Middlewares/Third_Party/FreeRTOS/Source/event_groups.o
 .debug_abbrev  0x00000000000047e0      0x20e ./Middlewares/Third_Party/FreeRTOS/Source/list.o
 .debug_abbrev  0x00000000000049ee      0x3e5 ./Middlewares/Third_Party/FreeRTOS/Source/queue.o
 .debug_abbrev  0x0000000000004dd3      0x3fb ./Middlewares/Third_Party/FreeRTOS/Source/tasks.o
 .debug_abbrev  0x00000000000051ce      0x38b ./Middlewares/Third_Party/FreeRTOS/Source/timers.o
 .debug_abbrev  0x0000000000005559      0x372 ./Middlewares/Third_Party/FreeRTOS/Source/portable/GCC/ARM_CM4F/port.o
 .debug_abbrev  0x00000000000058cb      0x368 ./Middlewares/Third_Party/FreeRTOS/Source/portable/MemMang/heap_4.o
 .debug_abbrev  0x0000000000005c33      0x3bd ./user/detect.o
 .debug_abbrev  0x0000000000005ff0      0x2ff ./user/dev_usart.o
 .debug_abbrev  0x00000000000062ef      0x42d ./user/display.o
 .debug_abbrev  0x000000000000671c      0x200 ./user/eeprom.o
 .debug_abbrev  0x000000000000691c      0x463 ./user/io_ctrl.o
 .debug_abbrev  0x0000000000006d7f      0x11c ./user/modbus_lib.o
 .debug_abbrev  0x0000000000006e9b      0x439 ./user/modbus_slave.o
 .debug_abbrev  0x00000000000072d4      0x302 ./user/my_tim.o
 .debug_abbrev  0x00000000000075d6      0x336 ./user/myprintf.o
 .debug_abbrev  0x000000000000790c      0x394 ./user/soft_timer.o
 .debug_abbrev  0x0000000000007ca0      0x1dc ./user/sysguard.o

.debug_aranges  0x0000000000000000     0x1ea0
 .debug_aranges
                0x0000000000000000       0x20 ./Core/Src/dma.o
 .debug_aranges
                0x0000000000000020       0x70 ./Core/Src/freertos.o
 .debug_aranges
                0x0000000000000090       0x20 ./Core/Src/gpio.o
 .debug_aranges
                0x00000000000000b0       0x20 ./Core/Src/iwdg.o
 .debug_aranges
                0x00000000000000d0       0x40 ./Core/Src/main.o
 .debug_aranges
                0x0000000000000110       0x30 ./Core/Src/rtc.o
 .debug_aranges
                0x0000000000000140       0x20 ./Core/Src/stm32f4xx_hal_msp.o
 .debug_aranges
                0x0000000000000160       0x30 ./Core/Src/stm32f4xx_hal_timebase_tim.o
 .debug_aranges
                0x0000000000000190       0xa8 ./Core/Src/stm32f4xx_it.o
 .debug_aranges
                0x0000000000000238       0x20 ./Core/Src/sysmem.o
 .debug_aranges
                0x0000000000000258       0x28 ./Core/Src/system_stm32f4xx.o
 .debug_aranges
                0x0000000000000280       0x40 ./Core/Src/tim.o
 .debug_aranges
                0x00000000000002c0       0x40 ./Core/Src/usart.o
 .debug_aranges
                0x0000000000000300       0x28 ./Core/Startup/startup_stm32f412retx.o
 .debug_aranges
                0x0000000000000328       0x88 ./Core/ThreadSafe/newlib_lock_glue.o
 .debug_aranges
                0x00000000000003b0       0xf0 ./Drivers/STM32F4xx_HAL_Driver/Src/stm32f4xx_hal.o
 .debug_aranges
                0x00000000000004a0       0xa8 ./Drivers/STM32F4xx_HAL_Driver/Src/stm32f4xx_hal_cortex.o
 .debug_aranges
                0x0000000000000548       0x90 ./Drivers/STM32F4xx_HAL_Driver/Src/stm32f4xx_hal_dma.o
 .debug_aranges
                0x00000000000005d8       0xa0 ./Drivers/STM32F4xx_HAL_Driver/Src/stm32f4xx_hal_flash.o
 .debug_aranges
                0x0000000000000678       0xc8 ./Drivers/STM32F4xx_HAL_Driver/Src/stm32f4xx_hal_flash_ex.o
 .debug_aranges
                0x0000000000000740       0x58 ./Drivers/STM32F4xx_HAL_Driver/Src/stm32f4xx_hal_gpio.o
 .debug_aranges
                0x0000000000000798       0x28 ./Drivers/STM32F4xx_HAL_Driver/Src/stm32f4xx_hal_iwdg.o
 .debug_aranges
                0x00000000000007c0       0x88 ./Drivers/STM32F4xx_HAL_Driver/Src/stm32f4xx_hal_rcc.o
 .debug_aranges
                0x0000000000000848       0x60 ./Drivers/STM32F4xx_HAL_Driver/Src/stm32f4xx_hal_rcc_ex.o
 .debug_aranges
                0x00000000000008a8       0xe8 ./Drivers/STM32F4xx_HAL_Driver/Src/stm32f4xx_hal_rtc.o
 .debug_aranges
                0x0000000000000990      0x3d0 ./Drivers/STM32F4xx_HAL_Driver/Src/stm32f4xx_hal_tim.o
 .debug_aranges
                0x0000000000000d60      0x168 ./Drivers/STM32F4xx_HAL_Driver/Src/stm32f4xx_hal_tim_ex.o
 .debug_aranges
                0x0000000000000ec8      0x200 ./Drivers/STM32F4xx_HAL_Driver/Src/stm32f4xx_hal_uart.o
 .debug_aranges
                0x00000000000010c8      0x2c0 ./Middlewares/Third_Party/FreeRTOS/Source/CMSIS_RTOS_V2/cmsis_os2.o
 .debug_aranges
                0x0000000000001388       0x90 ./Middlewares/Third_Party/FreeRTOS/Source/event_groups.o
 .debug_aranges
                0x0000000000001418       0x40 ./Middlewares/Third_Party/FreeRTOS/Source/list.o
 .debug_aranges
                0x0000000000001458      0x158 ./Middlewares/Third_Party/FreeRTOS/Source/queue.o
 .debug_aranges
                0x00000000000015b0      0x208 ./Middlewares/Third_Party/FreeRTOS/Source/tasks.o
 .debug_aranges
                0x00000000000017b8       0xf0 ./Middlewares/Third_Party/FreeRTOS/Source/timers.o
 .debug_aranges
                0x00000000000018a8       0x80 ./Middlewares/Third_Party/FreeRTOS/Source/portable/GCC/ARM_CM4F/port.o
 .debug_aranges
                0x0000000000001928       0x58 ./Middlewares/Third_Party/FreeRTOS/Source/portable/MemMang/heap_4.o
 .debug_aranges
                0x0000000000001980       0x90 ./user/detect.o
 .debug_aranges
                0x0000000000001a10       0x68 ./user/dev_usart.o
 .debug_aranges
                0x0000000000001a78       0x80 ./user/display.o
 .debug_aranges
                0x0000000000001af8       0x58 ./user/eeprom.o
 .debug_aranges
                0x0000000000001b50       0xb8 ./user/io_ctrl.o
 .debug_aranges
                0x0000000000001c08       0x28 ./user/modbus_lib.o
 .debug_aranges
                0x0000000000001c30       0xc0 ./user/modbus_slave.o
 .debug_aranges
                0x0000000000001cf0       0xa8 ./user/my_tim.o
 .debug_aranges
                0x0000000000001d98       0x38 ./user/myprintf.o
 .debug_aranges
                0x0000000000001dd0       0x90 ./user/soft_timer.o
 .debug_aranges
                0x0000000000001e60       0x40 ./user/sysguard.o

.debug_ranges   0x0000000000000000     0x22d0
 .debug_ranges  0x0000000000000000       0x10 ./Core/Src/dma.o
 .debug_ranges  0x0000000000000010       0x60 ./Core/Src/freertos.o
 .debug_ranges  0x0000000000000070       0x10 ./Core/Src/gpio.o
 .debug_ranges  0x0000000000000080       0x10 ./Core/Src/iwdg.o
 .debug_ranges  0x0000000000000090       0x30 ./Core/Src/main.o
 .debug_ranges  0x00000000000000c0       0x20 ./Core/Src/rtc.o
 .debug_ranges  0x00000000000000e0       0x10 ./Core/Src/stm32f4xx_hal_msp.o
 .debug_ranges  0x00000000000000f0       0x20 ./Core/Src/stm32f4xx_hal_timebase_tim.o
 .debug_ranges  0x0000000000000110       0x98 ./Core/Src/stm32f4xx_it.o
 .debug_ranges  0x00000000000001a8       0x10 ./Core/Src/sysmem.o
 .debug_ranges  0x00000000000001b8       0x18 ./Core/Src/system_stm32f4xx.o
 .debug_ranges  0x00000000000001d0       0x30 ./Core/Src/tim.o
 .debug_ranges  0x0000000000000200       0x30 ./Core/Src/usart.o
 .debug_ranges  0x0000000000000230       0x20 ./Core/Startup/startup_stm32f412retx.o
 .debug_ranges  0x0000000000000250      0x150 ./Core/ThreadSafe/newlib_lock_glue.o
 .debug_ranges  0x00000000000003a0       0xe0 ./Drivers/STM32F4xx_HAL_Driver/Src/stm32f4xx_hal.o
 .debug_ranges  0x0000000000000480      0x128 ./Drivers/STM32F4xx_HAL_Driver/Src/stm32f4xx_hal_cortex.o
 .debug_ranges  0x00000000000005a8       0x80 ./Drivers/STM32F4xx_HAL_Driver/Src/stm32f4xx_hal_dma.o
 .debug_ranges  0x0000000000000628       0x90 ./Drivers/STM32F4xx_HAL_Driver/Src/stm32f4xx_hal_flash.o
 .debug_ranges  0x00000000000006b8       0xb8 ./Drivers/STM32F4xx_HAL_Driver/Src/stm32f4xx_hal_flash_ex.o
 .debug_ranges  0x0000000000000770       0x48 ./Drivers/STM32F4xx_HAL_Driver/Src/stm32f4xx_hal_gpio.o
 .debug_ranges  0x00000000000007b8       0x18 ./Drivers/STM32F4xx_HAL_Driver/Src/stm32f4xx_hal_iwdg.o
 .debug_ranges  0x00000000000007d0       0x90 ./Drivers/STM32F4xx_HAL_Driver/Src/stm32f4xx_hal_rcc.o
 .debug_ranges  0x0000000000000860       0x68 ./Drivers/STM32F4xx_HAL_Driver/Src/stm32f4xx_hal_rcc_ex.o
 .debug_ranges  0x00000000000008c8       0xd8 ./Drivers/STM32F4xx_HAL_Driver/Src/stm32f4xx_hal_rtc.o
 .debug_ranges  0x00000000000009a0      0x3c0 ./Drivers/STM32F4xx_HAL_Driver/Src/stm32f4xx_hal_tim.o
 .debug_ranges  0x0000000000000d60      0x158 ./Drivers/STM32F4xx_HAL_Driver/Src/stm32f4xx_hal_tim_ex.o
 .debug_ranges  0x0000000000000eb8      0x208 ./Drivers/STM32F4xx_HAL_Driver/Src/stm32f4xx_hal_uart.o
 .debug_ranges  0x00000000000010c0      0x2c8 ./Middlewares/Third_Party/FreeRTOS/Source/CMSIS_RTOS_V2/cmsis_os2.o
 .debug_ranges  0x0000000000001388       0xb8 ./Middlewares/Third_Party/FreeRTOS/Source/event_groups.o
 .debug_ranges  0x0000000000001440       0x30 ./Middlewares/Third_Party/FreeRTOS/Source/list.o
 .debug_ranges  0x0000000000001470      0x218 ./Middlewares/Third_Party/FreeRTOS/Source/queue.o
 .debug_ranges  0x0000000000001688      0x338 ./Middlewares/Third_Party/FreeRTOS/Source/tasks.o
 .debug_ranges  0x00000000000019c0       0xe0 ./Middlewares/Third_Party/FreeRTOS/Source/timers.o
 .debug_ranges  0x0000000000001aa0       0x88 ./Middlewares/Third_Party/FreeRTOS/Source/portable/GCC/ARM_CM4F/port.o
 .debug_ranges  0x0000000000001b28       0x48 ./Middlewares/Third_Party/FreeRTOS/Source/portable/MemMang/heap_4.o
 .debug_ranges  0x0000000000001b70      0x1e8 ./user/detect.o
 .debug_ranges  0x0000000000001d58       0x58 ./user/dev_usart.o
 .debug_ranges  0x0000000000001db0       0xc0 ./user/display.o
 .debug_ranges  0x0000000000001e70       0x48 ./user/eeprom.o
 .debug_ranges  0x0000000000001eb8      0x178 ./user/io_ctrl.o
 .debug_ranges  0x0000000000002030       0x18 ./user/modbus_lib.o
 .debug_ranges  0x0000000000002048       0xb0 ./user/modbus_slave.o
 .debug_ranges  0x00000000000020f8       0x98 ./user/my_tim.o
 .debug_ranges  0x0000000000002190       0x78 ./user/myprintf.o
 .debug_ranges  0x0000000000002208       0x98 ./user/soft_timer.o
 .debug_ranges  0x00000000000022a0       0x30 ./user/sysguard.o

.debug_macro    0x0000000000000000    0x27672
 .debug_macro   0x0000000000000000      0x20a ./Core/Src/dma.o
 .debug_macro   0x000000000000020a      0xaae ./Core/Src/dma.o
 .debug_macro   0x0000000000000cb8      0x2ae ./Core/Src/dma.o
 .debug_macro   0x0000000000000f66       0x2e ./Core/Src/dma.o
 .debug_macro   0x0000000000000f94       0x28 ./Core/Src/dma.o
 .debug_macro   0x0000000000000fbc       0x22 ./Core/Src/dma.o
 .debug_macro   0x0000000000000fde       0x8e ./Core/Src/dma.o
 .debug_macro   0x000000000000106c       0x51 ./Core/Src/dma.o
 .debug_macro   0x00000000000010bd      0x103 ./Core/Src/dma.o
 .debug_macro   0x00000000000011c0       0x6a ./Core/Src/dma.o
 .debug_macro   0x000000000000122a      0x1df ./Core/Src/dma.o
 .debug_macro   0x0000000000001409       0x1c ./Core/Src/dma.o
 .debug_macro   0x0000000000001425       0x22 ./Core/Src/dma.o
 .debug_macro   0x0000000000001447       0xdf ./Core/Src/dma.o
 .debug_macro   0x0000000000001526     0x102d ./Core/Src/dma.o
 .debug_macro   0x0000000000002553      0x11f ./Core/Src/dma.o
 .debug_macro   0x0000000000002672    0x1469c ./Core/Src/dma.o
 .debug_macro   0x0000000000016d0e       0x6d ./Core/Src/dma.o
 .debug_macro   0x0000000000016d7b     0x367e ./Core/Src/dma.o
 .debug_macro   0x000000000001a3f9      0x174 ./Core/Src/dma.o
 .debug_macro   0x000000000001a56d       0x5c ./Core/Src/dma.o
 .debug_macro   0x000000000001a5c9      0x8ed ./Core/Src/dma.o
 .debug_macro   0x000000000001aeb6      0x9fe ./Core/Src/dma.o
 .debug_macro   0x000000000001b8b4      0x115 ./Core/Src/dma.o
 .debug_macro   0x000000000001b9c9      0x192 ./Core/Src/dma.o
 .debug_macro   0x000000000001bb5b       0xa5 ./Core/Src/dma.o
 .debug_macro   0x000000000001bc00      0x158 ./Core/Src/dma.o
 .debug_macro   0x000000000001bd58      0x287 ./Core/Src/dma.o
 .debug_macro   0x000000000001bfdf       0x5f ./Core/Src/dma.o
 .debug_macro   0x000000000001c03e      0x236 ./Core/Src/dma.o
 .debug_macro   0x000000000001c274      0x132 ./Core/Src/dma.o
 .debug_macro   0x000000000001c3a6      0x29c ./Core/Src/dma.o
 .debug_macro   0x000000000001c642       0x2e ./Core/Src/dma.o
 .debug_macro   0x000000000001c670       0x78 ./Core/Src/dma.o
 .debug_macro   0x000000000001c6e8      0x11a ./Core/Src/dma.o
 .debug_macro   0x000000000001c802       0x91 ./Core/Src/dma.o
 .debug_macro   0x000000000001c893       0x89 ./Core/Src/dma.o
 .debug_macro   0x000000000001c91c      0x2fe ./Core/Src/dma.o
 .debug_macro   0x000000000001cc1a      0x430 ./Core/Src/dma.o
 .debug_macro   0x000000000001d04a       0xe4 ./Core/Src/dma.o
 .debug_macro   0x000000000001d12e      0x8e6 ./Core/Src/dma.o
 .debug_macro   0x000000000001da14       0x47 ./Core/Src/dma.o
 .debug_macro   0x000000000001da5b      0x295 ./Core/Src/dma.o
 .debug_macro   0x000000000001dcf0      0x126 ./Core/Src/dma.o
 .debug_macro   0x000000000001de16      0x20c ./Core/Src/dma.o
 .debug_macro   0x000000000001e022      0x3d6 ./Core/Src/freertos.o
 .debug_macro   0x000000000001e3f8      0x17c ./Core/Src/freertos.o
 .debug_macro   0x000000000001e574      0x15a ./Core/Src/freertos.o
 .debug_macro   0x000000000001e6ce       0xc9 ./Core/Src/freertos.o
 .debug_macro   0x000000000001e797       0x1c ./Core/Src/freertos.o
 .debug_macro   0x000000000001e7b3       0x26 ./Core/Src/freertos.o
 .debug_macro   0x000000000001e7d9       0x52 ./Core/Src/freertos.o
 .debug_macro   0x000000000001e82b       0x18 ./Core/Src/freertos.o
 .debug_macro   0x000000000001e843       0x3c ./Core/Src/freertos.o
 .debug_macro   0x000000000001e87f       0x34 ./Core/Src/freertos.o
 .debug_macro   0x000000000001e8b3       0x16 ./Core/Src/freertos.o
 .debug_macro   0x000000000001e8c9       0x43 ./Core/Src/freertos.o
 .debug_macro   0x000000000001e90c       0x34 ./Core/Src/freertos.o
 .debug_macro   0x000000000001e940       0x10 ./Core/Src/freertos.o
 .debug_macro   0x000000000001e950       0x58 ./Core/Src/freertos.o
 .debug_macro   0x000000000001e9a8       0x71 ./Core/Src/freertos.o
 .debug_macro   0x000000000001ea19       0x1c ./Core/Src/freertos.o
 .debug_macro   0x000000000001ea35      0x12a ./Core/Src/freertos.o
 .debug_macro   0x000000000001eb5f       0x10 ./Core/Src/freertos.o
 .debug_macro   0x000000000001eb6f       0x35 ./Core/Src/freertos.o
 .debug_macro   0x000000000001eba4      0x4b1 ./Core/Src/freertos.o
 .debug_macro   0x000000000001f055       0xb5 ./Core/Src/freertos.o
 .debug_macro   0x000000000001f10a       0xaa ./Core/Src/freertos.o
 .debug_macro   0x000000000001f1b4       0x6c ./Core/Src/freertos.o
 .debug_macro   0x000000000001f220       0x74 ./Core/Src/freertos.o
 .debug_macro   0x000000000001f294       0xdd ./Core/Src/freertos.o
 .debug_macro   0x000000000001f371      0x333 ./Core/Src/freertos.o
 .debug_macro   0x000000000001f6a4       0x10 ./Core/Src/freertos.o
 .debug_macro   0x000000000001f6b4       0x20 ./Core/Src/freertos.o
 .debug_macro   0x000000000001f6d4       0x22 ./Core/Src/freertos.o
 .debug_macro   0x000000000001f6f6       0x1c ./Core/Src/freertos.o
 .debug_macro   0x000000000001f712       0x2e ./Core/Src/freertos.o
 .debug_macro   0x000000000001f740       0x52 ./Core/Src/freertos.o
 .debug_macro   0x000000000001f792       0x28 ./Core/Src/freertos.o
 .debug_macro   0x000000000001f7ba       0x94 ./Core/Src/freertos.o
 .debug_macro   0x000000000001f84e      0x47e ./Core/Src/freertos.o
 .debug_macro   0x000000000001fccc       0x52 ./Core/Src/freertos.o
 .debug_macro   0x000000000001fd1e      0x20a ./Core/Src/gpio.o
 .debug_macro   0x000000000001ff28      0x20a ./Core/Src/iwdg.o
 .debug_macro   0x0000000000020132      0x3bb ./Core/Src/main.o
 .debug_macro   0x00000000000204ed      0x17c ./Core/Src/main.o
 .debug_macro   0x0000000000020669       0x66 ./Core/Src/main.o
 .debug_macro   0x00000000000206cf       0x16 ./Core/Src/main.o
 .debug_macro   0x00000000000206e5      0x20a ./Core/Src/rtc.o
 .debug_macro   0x00000000000208ef      0x200 ./Core/Src/stm32f4xx_hal_msp.o
 .debug_macro   0x0000000000020aef      0x1f1 ./Core/Src/stm32f4xx_hal_timebase_tim.o
 .debug_macro   0x0000000000020ce0      0x225 ./Core/Src/stm32f4xx_it.o
 .debug_macro   0x0000000000020f05       0xff ./Core/Src/sysmem.o
 .debug_macro   0x0000000000021004      0x23b ./Core/Src/sysmem.o
 .debug_macro   0x000000000002123f      0x1f1 ./Core/Src/system_stm32f4xx.o
 .debug_macro   0x0000000000021430      0x20a ./Core/Src/tim.o
 .debug_macro   0x000000000002163a      0x20a ./Core/Src/usart.o
 .debug_macro   0x0000000000021844      0x202 ./Core/ThreadSafe/newlib_lock_glue.o
 .debug_macro   0x0000000000021a46      0x118 ./Core/ThreadSafe/newlib_lock_glue.o
 .debug_macro   0x0000000000021b5e       0x22 ./Core/ThreadSafe/newlib_lock_glue.o
 .debug_macro   0x0000000000021b80       0x27 ./Core/ThreadSafe/newlib_lock_glue.o
 .debug_macro   0x0000000000021ba7      0x251 ./Drivers/STM32F4xx_HAL_Driver/Src/stm32f4xx_hal.o
 .debug_macro   0x0000000000021df8      0x1f1 ./Drivers/STM32F4xx_HAL_Driver/Src/stm32f4xx_hal_cortex.o
 .debug_macro   0x0000000000021fe9      0x1f7 ./Drivers/STM32F4xx_HAL_Driver/Src/stm32f4xx_hal_dma.o
 .debug_macro   0x00000000000221e0      0x1f7 ./Drivers/STM32F4xx_HAL_Driver/Src/stm32f4xx_hal_flash.o
 .debug_macro   0x00000000000223d7      0x1f7 ./Drivers/STM32F4xx_HAL_Driver/Src/stm32f4xx_hal_flash_ex.o
 .debug_macro   0x00000000000225ce      0x1f7 ./Drivers/STM32F4xx_HAL_Driver/Src/stm32f4xx_hal_gpio.o
 .debug_macro   0x00000000000227c5      0x1fd ./Drivers/STM32F4xx_HAL_Driver/Src/stm32f4xx_hal_iwdg.o
 .debug_macro   0x00000000000229c2      0x215 ./Drivers/STM32F4xx_HAL_Driver/Src/stm32f4xx_hal_rcc.o
 .debug_macro   0x0000000000022bd7      0x1f1 ./Drivers/STM32F4xx_HAL_Driver/Src/stm32f4xx_hal_rcc_ex.o
 .debug_macro   0x0000000000022dc8      0x1f2 ./Drivers/STM32F4xx_HAL_Driver/Src/stm32f4xx_hal_rtc.o
 .debug_macro   0x0000000000022fba      0x1f2 ./Drivers/STM32F4xx_HAL_Driver/Src/stm32f4xx_hal_tim.o
 .debug_macro   0x00000000000231ac      0x1f1 ./Drivers/STM32F4xx_HAL_Driver/Src/stm32f4xx_hal_tim_ex.o
 .debug_macro   0x000000000002339d      0x1f2 ./Drivers/STM32F4xx_HAL_Driver/Src/stm32f4xx_hal_uart.o
 .debug_macro   0x000000000002358f      0x3fa ./Middlewares/Third_Party/FreeRTOS/Source/CMSIS_RTOS_V2/cmsis_os2.o
 .debug_macro   0x0000000000023989       0x10 ./Middlewares/Third_Party/FreeRTOS/Source/CMSIS_RTOS_V2/cmsis_os2.o
 .debug_macro   0x0000000000023999       0xd3 ./Middlewares/Third_Party/FreeRTOS/Source/CMSIS_RTOS_V2/cmsis_os2.o
 .debug_macro   0x0000000000023a6c       0x16 ./Middlewares/Third_Party/FreeRTOS/Source/CMSIS_RTOS_V2/cmsis_os2.o
 .debug_macro   0x0000000000023a82       0x91 ./Middlewares/Third_Party/FreeRTOS/Source/CMSIS_RTOS_V2/cmsis_os2.o
 .debug_macro   0x0000000000023b13       0x8d ./Middlewares/Third_Party/FreeRTOS/Source/CMSIS_RTOS_V2/cmsis_os2.o
 .debug_macro   0x0000000000023ba0       0x9a ./Middlewares/Third_Party/FreeRTOS/Source/CMSIS_RTOS_V2/cmsis_os2.o
 .debug_macro   0x0000000000023c3a       0x22 ./Middlewares/Third_Party/FreeRTOS/Source/CMSIS_RTOS_V2/cmsis_os2.o
 .debug_macro   0x0000000000023c5c       0x56 ./Middlewares/Third_Party/FreeRTOS/Source/CMSIS_RTOS_V2/cmsis_os2.o
 .debug_macro   0x0000000000023cb2      0x1f4 ./Middlewares/Third_Party/FreeRTOS/Source/event_groups.o
 .debug_macro   0x0000000000023ea6      0x10e ./Middlewares/Third_Party/FreeRTOS/Source/event_groups.o
 .debug_macro   0x0000000000023fb4       0x8d ./Middlewares/Third_Party/FreeRTOS/Source/event_groups.o
 .debug_macro   0x0000000000024041      0x199 ./Middlewares/Third_Party/FreeRTOS/Source/list.o
 .debug_macro   0x00000000000241da      0x228 ./Middlewares/Third_Party/FreeRTOS/Source/queue.o
 .debug_macro   0x0000000000024402       0x16 ./Middlewares/Third_Party/FreeRTOS/Source/queue.o
 .debug_macro   0x0000000000024418       0x87 ./Middlewares/Third_Party/FreeRTOS/Source/queue.o
 .debug_macro   0x000000000002449f      0x291 ./Middlewares/Third_Party/FreeRTOS/Source/tasks.o
 .debug_macro   0x0000000000024730       0x10 ./Middlewares/Third_Party/FreeRTOS/Source/tasks.o
 .debug_macro   0x0000000000024740      0x1ee ./Middlewares/Third_Party/FreeRTOS/Source/timers.o
 .debug_macro   0x000000000002492e       0x97 ./Middlewares/Third_Party/FreeRTOS/Source/timers.o
 .debug_macro   0x00000000000249c5      0x233 ./Middlewares/Third_Party/FreeRTOS/Source/portable/GCC/ARM_CM4F/port.o
 .debug_macro   0x0000000000024bf8      0x1c0 ./Middlewares/Third_Party/FreeRTOS/Source/portable/MemMang/heap_4.o
 .debug_macro   0x0000000000024db8      0x337 ./user/detect.o
 .debug_macro   0x00000000000250ef       0x22 ./user/detect.o
 .debug_macro   0x0000000000025111      0x27b ./user/detect.o
 .debug_macro   0x000000000002538c      0x312 ./user/dev_usart.o
 .debug_macro   0x000000000002569e      0x414 ./user/display.o
 .debug_macro   0x0000000000025ab2      0x200 ./user/eeprom.o
 .debug_macro   0x0000000000025cb2       0x8e ./user/eeprom.o
 .debug_macro   0x0000000000025d40      0x373 ./user/io_ctrl.o
 .debug_macro   0x00000000000260b3      0x281 ./user/io_ctrl.o
 .debug_macro   0x0000000000026334      0x20a ./user/modbus_lib.o
 .debug_macro   0x000000000002653e      0x338 ./user/modbus_slave.o
 .debug_macro   0x0000000000026876      0x23d ./user/my_tim.o
 .debug_macro   0x0000000000026ab3      0x3db ./user/myprintf.o
 .debug_macro   0x0000000000026e8e       0x16 ./user/myprintf.o
 .debug_macro   0x0000000000026ea4       0x4c ./user/myprintf.o
 .debug_macro   0x0000000000026ef0      0x119 ./user/myprintf.o
 .debug_macro   0x0000000000027009       0x1c ./user/myprintf.o
 .debug_macro   0x0000000000027025      0x3e1 ./user/soft_timer.o
 .debug_macro   0x0000000000027406       0x4c ./user/soft_timer.o
 .debug_macro   0x0000000000027452      0x220 ./user/sysguard.o

.debug_line     0x0000000000000000    0x3a09a
 .debug_line    0x0000000000000000      0x721 ./Core/Src/dma.o
 .debug_line    0x0000000000000721      0xe8f ./Core/Src/freertos.o
 .debug_line    0x00000000000015b0      0x7fb ./Core/Src/gpio.o
 .debug_line    0x0000000000001dab      0x736 ./Core/Src/iwdg.o
 .debug_line    0x00000000000024e1      0xbe5 ./Core/Src/main.o
 .debug_line    0x00000000000030c6      0x857 ./Core/Src/rtc.o
 .debug_line    0x000000000000391d      0x71b ./Core/Src/stm32f4xx_hal_msp.o
 .debug_line    0x0000000000004038      0x7a3 ./Core/Src/stm32f4xx_hal_timebase_tim.o
 .debug_line    0x00000000000047db      0x96e ./Core/Src/stm32f4xx_it.o
 .debug_line    0x0000000000005149      0x51b ./Core/Src/sysmem.o
 .debug_line    0x0000000000005664      0x7ce ./Core/Src/system_stm32f4xx.o
 .debug_line    0x0000000000005e32      0x8c3 ./Core/Src/tim.o
 .debug_line    0x00000000000066f5      0xc6d ./Core/Src/usart.o
 .debug_line    0x0000000000007362       0x88 ./Core/Startup/startup_stm32f412retx.o
 .debug_line    0x00000000000073ea      0xdc5 ./Core/ThreadSafe/newlib_lock_glue.o
 .debug_line    0x00000000000081af      0xa84 ./Drivers/STM32F4xx_HAL_Driver/Src/stm32f4xx_hal.o
 .debug_line    0x0000000000008c33      0xdcc ./Drivers/STM32F4xx_HAL_Driver/Src/stm32f4xx_hal_cortex.o
 .debug_line    0x00000000000099ff     0x1505 ./Drivers/STM32F4xx_HAL_Driver/Src/stm32f4xx_hal_dma.o
 .debug_line    0x000000000000af04      0xcb9 ./Drivers/STM32F4xx_HAL_Driver/Src/stm32f4xx_hal_flash.o
 .debug_line    0x000000000000bbbd      0xe8c ./Drivers/STM32F4xx_HAL_Driver/Src/stm32f4xx_hal_flash_ex.o
 .debug_line    0x000000000000ca49      0xd1b ./Drivers/STM32F4xx_HAL_Driver/Src/stm32f4xx_hal_gpio.o
 .debug_line    0x000000000000d764      0x7c9 ./Drivers/STM32F4xx_HAL_Driver/Src/stm32f4xx_hal_iwdg.o
 .debug_line    0x000000000000df2d     0x116e ./Drivers/STM32F4xx_HAL_Driver/Src/stm32f4xx_hal_rcc.o
 .debug_line    0x000000000000f09b     0x15bc ./Drivers/STM32F4xx_HAL_Driver/Src/stm32f4xx_hal_rcc_ex.o
 .debug_line    0x0000000000010657     0x1924 ./Drivers/STM32F4xx_HAL_Driver/Src/stm32f4xx_hal_rtc.o
 .debug_line    0x0000000000011f7b     0x6c86 ./Drivers/STM32F4xx_HAL_Driver/Src/stm32f4xx_hal_tim.o
 .debug_line    0x0000000000018c01     0x2690 ./Drivers/STM32F4xx_HAL_Driver/Src/stm32f4xx_hal_tim_ex.o
 .debug_line    0x000000000001b291     0x4c81 ./Drivers/STM32F4xx_HAL_Driver/Src/stm32f4xx_hal_uart.o
