
PACKER.elf:     file format elf32-littlearm

Sections:
Idx Name          Size      VMA       LMA       File off  Algn
  0 .isr_vector   000001c4  08020000  08020000  00010000  2**0
                  CONTENTS, ALLOC, LOAD, READONLY, DATA
  1 .text         0000f8f8  080201d0  080201d0  000101d0  2**4
                  CONTENTS, ALLOC, LOAD, READONLY, CODE
  2 .rodata       00001204  0802fac8  0802fac8  0001fac8  2**2
                  CONTENTS, ALLOC, LOAD, READONLY, DATA
  3 .ARM.extab    00000000  08030ccc  08030ccc  000301bc  2**0
                  CONTENTS
  4 .ARM          00000008  08030ccc  08030ccc  00020ccc  2**2
                  CONTENTS, ALLOC, LOAD, READONLY, DATA
  5 .preinit_array 00000000  08030cd4  08030cd4  000301bc  2**0
                  CONTENTS, ALLOC, LOAD, DATA
  6 .init_array   00000004  08030cd4  08030cd4  00020cd4  2**2
                  CONTENTS, ALLOC, LOAD, DATA
  7 .fini_array   00000004  08030cd8  08030cd8  00020cd8  2**2
                  CONTENTS, ALLOC, LOAD, DATA
  8 .data         000001bc  20000000  08030cdc  00030000  2**2
                  CONTENTS, ALLOC, LOAD, DATA
  9 .bss          0000e564  200001bc  08030e98  000301bc  2**2
                  ALLOC
 10 ._user_heap_stack 00006000  2000e720  08030e98  0003e720  2**0
                  ALLOC
 11 .ARM.attributes 00000030  00000000  00000000  000301bc  2**0
                  CONTENTS, READONLY
 12 .debug_info   0004edff  00000000  00000000  000301ec  2**0
                  CONTENTS, READONLY, DEBUGGING, OCTETS
 13 .debug_abbrev 00007e8d  00000000  00000000  0007efeb  2**0
                  CONTENTS, READONLY, DEBUGGING, OCTETS
 14 .debug_aranges 00001ea0  00000000  00000000  00086e78  2**3
                  CONTENTS, READONLY, DEBUGGING, OCTETS
 15 .debug_ranges 000022d0  00000000  00000000  00088d18  2**3
                  CONTENTS, READONLY, DEBUGGING, OCTETS
 16 .debug_macro  00027672  00000000  00000000  0008afe8  2**0
                  CONTENTS, READONLY, DEBUGGING, OCTETS
 17 .debug_line   0003a17c  00000000  00000000  000b265a  2**0
                  CONTENTS, READONLY, DEBUGGING, OCTETS
 18 .debug_str    000d98f8  00000000  00000000  000ec7d6  2**0
                  CONTENTS, READONLY, DEBUGGING, OCTETS
 19 .comment      00000053  00000000  00000000  001c60ce  2**0
                  CONTENTS, READONLY
 20 .debug_frame  00005cfc  00000000  00000000  001c6124  2**2
                  CONTENTS, READONLY, DEBUGGING, OCTETS
 21 .debug_loc    000204a5  00000000  00000000  001cbe20  2**0
                  CONTENTS, READONLY, DEBUGGING, OCTETS

Disassembly of section .text:

080201d0 <__do_global_dtors_aux>:
 80201d0:	b510      	push	{r4, lr}
 80201d2:	4c05      	ldr	r4, [pc, #20]	; (80201e8 <__do_global_dtors_aux+0x18>)
 80201d4:	7823      	ldrb	r3, [r4, #0]
 80201d6:	b933      	cbnz	r3, 80201e6 <__do_global_dtors_aux+0x16>
 80201d8:	4b04      	ldr	r3, [pc, #16]	; (80201ec <__do_global_dtors_aux+0x1c>)
 80201da:	b113      	cbz	r3, 80201e2 <__do_global_dtors_aux+0x12>
 80201dc:	4804      	ldr	r0, [pc, #16]	; (80201f0 <__do_global_dtors_aux+0x20>)
 80201de:	f3af 8000 	nop.w
 80201e2:	2301      	movs	r3, #1
 80201e4:	7023      	strb	r3, [r4, #0]
 80201e6:	bd10      	pop	{r4, pc}
 80201e8:	200001bc 	.word	0x200001bc
 80201ec:	00000000 	.word	0x00000000
 80201f0:	0802fab0 	.word	0x0802fab0

080201f4 <frame_dummy>:
 80201f4:	b508      	push	{r3, lr}
 80201f6:	4b03      	ldr	r3, [pc, #12]	; (8020204 <frame_dummy+0x10>)
 80201f8:	b11b      	cbz	r3, 8020202 <frame_dummy+0xe>
 80201fa:	4903      	ldr	r1, [pc, #12]	; (8020208 <frame_dummy+0x14>)
 80201fc:	4803      	ldr	r0, [pc, #12]	; (802020c <frame_dummy+0x18>)
 80201fe:	f3af 8000 	nop.w
 8020202:	bd08      	pop	{r3, pc}
 8020204:	00000000 	.word	0x00000000
 8020208:	200001c0 	.word	0x200001c0
 802020c:	0802fab0 	.word	0x0802fab0

08020210 <strlen>:
 8020210:	4603      	mov	r3, r0
 8020212:	f813 2b01 	ldrb.w	r2, [r3], #1
 8020216:	2a00      	cmp	r2, #0
 8020218:	d1fb      	bne.n	8020212 <strlen+0x2>
 802021a:	1a18      	subs	r0, r3, r0
 802021c:	3801      	subs	r0, #1
 802021e:	4770      	bx	lr

08020220 <memchr>:
 8020220:	f001 01ff 	and.w	r1, r1, #255	; 0xff
 8020224:	2a10      	cmp	r2, #16
 8020226:	db2b      	blt.n	8020280 <memchr+0x60>
 8020228:	f010 0f07 	tst.w	r0, #7
 802022c:	d008      	beq.n	8020240 <memchr+0x20>
 802022e:	f810 3b01 	ldrb.w	r3, [r0], #1
 8020232:	3a01      	subs	r2, #1
 8020234:	428b      	cmp	r3, r1
 8020236:	d02d      	beq.n	8020294 <memchr+0x74>
 8020238:	f010 0f07 	tst.w	r0, #7
 802023c:	b342      	cbz	r2, 8020290 <memchr+0x70>
 802023e:	d1f6      	bne.n	802022e <memchr+0xe>
 8020240:	b4f0      	push	{r4, r5, r6, r7}
 8020242:	ea41 2101 	orr.w	r1, r1, r1, lsl #8
 8020246:	ea41 4101 	orr.w	r1, r1, r1, lsl #16
 802024a:	f022 0407 	bic.w	r4, r2, #7
 802024e:	f07f 0700 	mvns.w	r7, #0
 8020252:	2300      	movs	r3, #0
 8020254:	e8f0 5602 	ldrd	r5, r6, [r0], #8
 8020258:	3c08      	subs	r4, #8
 802025a:	ea85 0501 	eor.w	r5, r5, r1
 802025e:	ea86 0601 	eor.w	r6, r6, r1
 8020262:	fa85 f547 	uadd8	r5, r5, r7
 8020266:	faa3 f587 	sel	r5, r3, r7
 802026a:	fa86 f647 	uadd8	r6, r6, r7
 802026e:	faa5 f687 	sel	r6, r5, r7
 8020272:	b98e      	cbnz	r6, 8020298 <memchr+0x78>
 8020274:	d1ee      	bne.n	8020254 <memchr+0x34>
 8020276:	bcf0      	pop	{r4, r5, r6, r7}
 8020278:	f001 01ff 	and.w	r1, r1, #255	; 0xff
 802027c:	f002 0207 	and.w	r2, r2, #7
 8020280:	b132      	cbz	r2, 8020290 <memchr+0x70>
 8020282:	f810 3b01 	ldrb.w	r3, [r0], #1
 8020286:	3a01      	subs	r2, #1
 8020288:	ea83 0301 	eor.w	r3, r3, r1
 802028c:	b113      	cbz	r3, 8020294 <memchr+0x74>
 802028e:	d1f8      	bne.n	8020282 <memchr+0x62>
 8020290:	2000      	movs	r0, #0
 8020292:	4770      	bx	lr
 8020294:	3801      	subs	r0, #1
 8020296:	4770      	bx	lr
 8020298:	2d00      	cmp	r5, #0
 802029a:	bf06      	itte	eq
 802029c:	4635      	moveq	r5, r6
 802029e:	3803      	subeq	r0, #3
 80202a0:	3807      	subne	r0, #7
 80202a2:	f015 0f01 	tst.w	r5, #1
 80202a6:	d107      	bne.n	80202b8 <memchr+0x98>
 80202a8:	3001      	adds	r0, #1
 80202aa:	f415 7f80 	tst.w	r5, #256	; 0x100
 80202ae:	bf02      	ittt	eq
 80202b0:	3001      	addeq	r0, #1
 80202b2:	f415 3fc0 	tsteq.w	r5, #98304	; 0x18000
 80202b6:	3001      	addeq	r0, #1
 80202b8:	bcf0      	pop	{r4, r5, r6, r7}
 80202ba:	3801      	subs	r0, #1
 80202bc:	4770      	bx	lr
 80202be:	bf00      	nop

080202c0 <__aeabi_d2f>:
 80202c0:	ea4f 0241 	mov.w	r2, r1, lsl #1
 80202c4:	f1b2 43e0 	subs.w	r3, r2, #1879048192	; 0x70000000
 80202c8:	bf24      	itt	cs
 80202ca:	f5b3 1c00 	subscs.w	ip, r3, #2097152	; 0x200000
 80202ce:	f1dc 5cfe 	rsbscs	ip, ip, #532676608	; 0x1fc00000
 80202d2:	d90d      	bls.n	80202f0 <__aeabi_d2f+0x30>
 80202d4:	f001 4c00 	and.w	ip, r1, #2147483648	; 0x80000000
 80202d8:	ea4f 02c0 	mov.w	r2, r0, lsl #3
 80202dc:	ea4c 7050 	orr.w	r0, ip, r0, lsr #29
 80202e0:	f1b2 4f00 	cmp.w	r2, #2147483648	; 0x80000000
 80202e4:	eb40 0083 	adc.w	r0, r0, r3, lsl #2
 80202e8:	bf08      	it	eq
 80202ea:	f020 0001 	biceq.w	r0, r0, #1
 80202ee:	4770      	bx	lr
 80202f0:	f011 4f80 	tst.w	r1, #1073741824	; 0x40000000
 80202f4:	d121      	bne.n	802033a <__aeabi_d2f+0x7a>
 80202f6:	f113 7238 	adds.w	r2, r3, #48234496	; 0x2e00000
 80202fa:	bfbc      	itt	lt
 80202fc:	f001 4000 	andlt.w	r0, r1, #2147483648	; 0x80000000
 8020300:	4770      	bxlt	lr
 8020302:	f441 1180 	orr.w	r1, r1, #1048576	; 0x100000
 8020306:	ea4f 5252 	mov.w	r2, r2, lsr #21
 802030a:	f1c2 0218 	rsb	r2, r2, #24
 802030e:	f1c2 0c20 	rsb	ip, r2, #32
 8020312:	fa10 f30c 	lsls.w	r3, r0, ip
 8020316:	fa20 f002 	lsr.w	r0, r0, r2
 802031a:	bf18      	it	ne
 802031c:	f040 0001 	orrne.w	r0, r0, #1
 8020320:	ea4f 23c1 	mov.w	r3, r1, lsl #11
 8020324:	ea4f 23d3 	mov.w	r3, r3, lsr #11
 8020328:	fa03 fc0c 	lsl.w	ip, r3, ip
 802032c:	ea40 000c 	orr.w	r0, r0, ip
 8020330:	fa23 f302 	lsr.w	r3, r3, r2
 8020334:	ea4f 0343 	mov.w	r3, r3, lsl #1
 8020338:	e7cc      	b.n	80202d4 <__aeabi_d2f+0x14>
 802033a:	ea7f 5362 	mvns.w	r3, r2, asr #21
 802033e:	d107      	bne.n	8020350 <__aeabi_d2f+0x90>
 8020340:	ea50 3301 	orrs.w	r3, r0, r1, lsl #12
 8020344:	bf1e      	ittt	ne
 8020346:	f04f 40fe 	movne.w	r0, #2130706432	; 0x7f000000
 802034a:	f440 0040 	orrne.w	r0, r0, #12582912	; 0xc00000
 802034e:	4770      	bxne	lr
 8020350:	f001 4000 	and.w	r0, r1, #2147483648	; 0x80000000
 8020354:	f040 40fe 	orr.w	r0, r0, #2130706432	; 0x7f000000
 8020358:	f440 0000 	orr.w	r0, r0, #8388608	; 0x800000
 802035c:	4770      	bx	lr
 802035e:	bf00      	nop

08020360 <__aeabi_uldivmod>:
 8020360:	b953      	cbnz	r3, 8020378 <__aeabi_uldivmod+0x18>
 8020362:	b94a      	cbnz	r2, 8020378 <__aeabi_uldivmod+0x18>
 8020364:	2900      	cmp	r1, #0
 8020366:	bf08      	it	eq
 8020368:	2800      	cmpeq	r0, #0
 802036a:	bf1c      	itt	ne
 802036c:	f04f 31ff 	movne.w	r1, #4294967295
 8020370:	f04f 30ff 	movne.w	r0, #4294967295
 8020374:	f000 b96e 	b.w	8020654 <__aeabi_idiv0>
 8020378:	f1ad 0c08 	sub.w	ip, sp, #8
 802037c:	e96d ce04 	strd	ip, lr, [sp, #-16]!
 8020380:	f000 f806 	bl	8020390 <__udivmoddi4>
 8020384:	f8dd e004 	ldr.w	lr, [sp, #4]
 8020388:	e9dd 2302 	ldrd	r2, r3, [sp, #8]
 802038c:	b004      	add	sp, #16
 802038e:	4770      	bx	lr

08020390 <__udivmoddi4>:
 8020390:	e92d 47f0 	stmdb	sp!, {r4, r5, r6, r7, r8, r9, sl, lr}
 8020394:	9d08      	ldr	r5, [sp, #32]
 8020396:	4604      	mov	r4, r0
 8020398:	468c      	mov	ip, r1
 802039a:	2b00      	cmp	r3, #0
 802039c:	f040 8083 	bne.w	80204a6 <__udivmoddi4+0x116>
 80203a0:	428a      	cmp	r2, r1
 80203a2:	4617      	mov	r7, r2
 80203a4:	d947      	bls.n	8020436 <__udivmoddi4+0xa6>
 80203a6:	fab2 f282 	clz	r2, r2
 80203aa:	b142      	cbz	r2, 80203be <__udivmoddi4+0x2e>
 80203ac:	f1c2 0020 	rsb	r0, r2, #32
 80203b0:	fa24 f000 	lsr.w	r0, r4, r0
 80203b4:	4091      	lsls	r1, r2
 80203b6:	4097      	lsls	r7, r2
 80203b8:	ea40 0c01 	orr.w	ip, r0, r1
 80203bc:	4094      	lsls	r4, r2
 80203be:	ea4f 4817 	mov.w	r8, r7, lsr #16
 80203c2:	0c23      	lsrs	r3, r4, #16
 80203c4:	fbbc f6f8 	udiv	r6, ip, r8
 80203c8:	fa1f fe87 	uxth.w	lr, r7
 80203cc:	fb08 c116 	mls	r1, r8, r6, ip
 80203d0:	ea43 4301 	orr.w	r3, r3, r1, lsl #16
 80203d4:	fb06 f10e 	mul.w	r1, r6, lr
 80203d8:	4299      	cmp	r1, r3
 80203da:	d909      	bls.n	80203f0 <__udivmoddi4+0x60>
 80203dc:	18fb      	adds	r3, r7, r3
 80203de:	f106 30ff 	add.w	r0, r6, #4294967295
 80203e2:	f080 8119 	bcs.w	8020618 <__udivmoddi4+0x288>
 80203e6:	4299      	cmp	r1, r3
 80203e8:	f240 8116 	bls.w	8020618 <__udivmoddi4+0x288>
 80203ec:	3e02      	subs	r6, #2
 80203ee:	443b      	add	r3, r7
 80203f0:	1a5b      	subs	r3, r3, r1
 80203f2:	b2a4      	uxth	r4, r4
 80203f4:	fbb3 f0f8 	udiv	r0, r3, r8
 80203f8:	fb08 3310 	mls	r3, r8, r0, r3
 80203fc:	ea44 4403 	orr.w	r4, r4, r3, lsl #16
 8020400:	fb00 fe0e 	mul.w	lr, r0, lr
 8020404:	45a6      	cmp	lr, r4
 8020406:	d909      	bls.n	802041c <__udivmoddi4+0x8c>
 8020408:	193c      	adds	r4, r7, r4
 802040a:	f100 33ff 	add.w	r3, r0, #4294967295
 802040e:	f080 8105 	bcs.w	802061c <__udivmoddi4+0x28c>
 8020412:	45a6      	cmp	lr, r4
 8020414:	f240 8102 	bls.w	802061c <__udivmoddi4+0x28c>
 8020418:	3802      	subs	r0, #2
 802041a:	443c      	add	r4, r7
 802041c:	ea40 4006 	orr.w	r0, r0, r6, lsl #16
 8020420:	eba4 040e 	sub.w	r4, r4, lr
 8020424:	2600      	movs	r6, #0
 8020426:	b11d      	cbz	r5, 8020430 <__udivmoddi4+0xa0>
 8020428:	40d4      	lsrs	r4, r2
 802042a:	2300      	movs	r3, #0
 802042c:	e9c5 4300 	strd	r4, r3, [r5]
 8020430:	4631      	mov	r1, r6
 8020432:	e8bd 87f0 	ldmia.w	sp!, {r4, r5, r6, r7, r8, r9, sl, pc}
 8020436:	b902      	cbnz	r2, 802043a <__udivmoddi4+0xaa>
 8020438:	deff      	udf	#255	; 0xff
 802043a:	fab2 f282 	clz	r2, r2
 802043e:	2a00      	cmp	r2, #0
 8020440:	d150      	bne.n	80204e4 <__udivmoddi4+0x154>
 8020442:	1bcb      	subs	r3, r1, r7
 8020444:	ea4f 4e17 	mov.w	lr, r7, lsr #16
 8020448:	fa1f f887 	uxth.w	r8, r7
 802044c:	2601      	movs	r6, #1
 802044e:	fbb3 fcfe 	udiv	ip, r3, lr
 8020452:	0c21      	lsrs	r1, r4, #16
 8020454:	fb0e 331c 	mls	r3, lr, ip, r3
 8020458:	ea41 4103 	orr.w	r1, r1, r3, lsl #16
 802045c:	fb08 f30c 	mul.w	r3, r8, ip
 8020460:	428b      	cmp	r3, r1
 8020462:	d907      	bls.n	8020474 <__udivmoddi4+0xe4>
 8020464:	1879      	adds	r1, r7, r1
 8020466:	f10c 30ff 	add.w	r0, ip, #4294967295
 802046a:	d202      	bcs.n	8020472 <__udivmoddi4+0xe2>
 802046c:	428b      	cmp	r3, r1
 802046e:	f200 80e9 	bhi.w	8020644 <__udivmoddi4+0x2b4>
 8020472:	4684      	mov	ip, r0
 8020474:	1ac9      	subs	r1, r1, r3
 8020476:	b2a3      	uxth	r3, r4
 8020478:	fbb1 f0fe 	udiv	r0, r1, lr
 802047c:	fb0e 1110 	mls	r1, lr, r0, r1
 8020480:	ea43 4401 	orr.w	r4, r3, r1, lsl #16
 8020484:	fb08 f800 	mul.w	r8, r8, r0
 8020488:	45a0      	cmp	r8, r4
 802048a:	d907      	bls.n	802049c <__udivmoddi4+0x10c>
 802048c:	193c      	adds	r4, r7, r4
 802048e:	f100 33ff 	add.w	r3, r0, #4294967295
 8020492:	d202      	bcs.n	802049a <__udivmoddi4+0x10a>
 8020494:	45a0      	cmp	r8, r4
 8020496:	f200 80d9 	bhi.w	802064c <__udivmoddi4+0x2bc>
 802049a:	4618      	mov	r0, r3
 802049c:	eba4 0408 	sub.w	r4, r4, r8
 80204a0:	ea40 400c 	orr.w	r0, r0, ip, lsl #16
 80204a4:	e7bf      	b.n	8020426 <__udivmoddi4+0x96>
 80204a6:	428b      	cmp	r3, r1
 80204a8:	d909      	bls.n	80204be <__udivmoddi4+0x12e>
 80204aa:	2d00      	cmp	r5, #0
 80204ac:	f000 80b1 	beq.w	8020612 <__udivmoddi4+0x282>
 80204b0:	2600      	movs	r6, #0
 80204b2:	e9c5 0100 	strd	r0, r1, [r5]
 80204b6:	4630      	mov	r0, r6
 80204b8:	4631      	mov	r1, r6
 80204ba:	e8bd 87f0 	ldmia.w	sp!, {r4, r5, r6, r7, r8, r9, sl, pc}
 80204be:	fab3 f683 	clz	r6, r3
 80204c2:	2e00      	cmp	r6, #0
 80204c4:	d14a      	bne.n	802055c <__udivmoddi4+0x1cc>
 80204c6:	428b      	cmp	r3, r1
 80204c8:	d302      	bcc.n	80204d0 <__udivmoddi4+0x140>
 80204ca:	4282      	cmp	r2, r0
 80204cc:	f200 80b8 	bhi.w	8020640 <__udivmoddi4+0x2b0>
 80204d0:	1a84      	subs	r4, r0, r2
 80204d2:	eb61 0103 	sbc.w	r1, r1, r3
 80204d6:	2001      	movs	r0, #1
 80204d8:	468c      	mov	ip, r1
 80204da:	2d00      	cmp	r5, #0
 80204dc:	d0a8      	beq.n	8020430 <__udivmoddi4+0xa0>
 80204de:	e9c5 4c00 	strd	r4, ip, [r5]
 80204e2:	e7a5      	b.n	8020430 <__udivmoddi4+0xa0>
 80204e4:	f1c2 0320 	rsb	r3, r2, #32
 80204e8:	fa20 f603 	lsr.w	r6, r0, r3
 80204ec:	4097      	lsls	r7, r2
 80204ee:	fa01 f002 	lsl.w	r0, r1, r2
 80204f2:	ea4f 4e17 	mov.w	lr, r7, lsr #16
 80204f6:	40d9      	lsrs	r1, r3
 80204f8:	4330      	orrs	r0, r6
 80204fa:	0c03      	lsrs	r3, r0, #16
 80204fc:	fbb1 f6fe 	udiv	r6, r1, lr
 8020500:	fa1f f887 	uxth.w	r8, r7
 8020504:	fb0e 1116 	mls	r1, lr, r6, r1
 8020508:	ea43 4301 	orr.w	r3, r3, r1, lsl #16
 802050c:	fb06 f108 	mul.w	r1, r6, r8
 8020510:	4299      	cmp	r1, r3
 8020512:	fa04 f402 	lsl.w	r4, r4, r2
 8020516:	d909      	bls.n	802052c <__udivmoddi4+0x19c>
 8020518:	18fb      	adds	r3, r7, r3
 802051a:	f106 3cff 	add.w	ip, r6, #4294967295
 802051e:	f080 808d 	bcs.w	802063c <__udivmoddi4+0x2ac>
 8020522:	4299      	cmp	r1, r3
 8020524:	f240 808a 	bls.w	802063c <__udivmoddi4+0x2ac>
 8020528:	3e02      	subs	r6, #2
 802052a:	443b      	add	r3, r7
 802052c:	1a5b      	subs	r3, r3, r1
 802052e:	b281      	uxth	r1, r0
 8020530:	fbb3 f0fe 	udiv	r0, r3, lr
 8020534:	fb0e 3310 	mls	r3, lr, r0, r3
 8020538:	ea41 4103 	orr.w	r1, r1, r3, lsl #16
 802053c:	fb00 f308 	mul.w	r3, r0, r8
 8020540:	428b      	cmp	r3, r1
 8020542:	d907      	bls.n	8020554 <__udivmoddi4+0x1c4>
 8020544:	1879      	adds	r1, r7, r1
 8020546:	f100 3cff 	add.w	ip, r0, #4294967295
 802054a:	d273      	bcs.n	8020634 <__udivmoddi4+0x2a4>
 802054c:	428b      	cmp	r3, r1
 802054e:	d971      	bls.n	8020634 <__udivmoddi4+0x2a4>
 8020550:	3802      	subs	r0, #2
 8020552:	4439      	add	r1, r7
 8020554:	1acb      	subs	r3, r1, r3
 8020556:	ea40 4606 	orr.w	r6, r0, r6, lsl #16
 802055a:	e778      	b.n	802044e <__udivmoddi4+0xbe>
 802055c:	f1c6 0c20 	rsb	ip, r6, #32
 8020560:	fa03 f406 	lsl.w	r4, r3, r6
 8020564:	fa22 f30c 	lsr.w	r3, r2, ip
 8020568:	431c      	orrs	r4, r3
 802056a:	fa20 f70c 	lsr.w	r7, r0, ip
 802056e:	fa01 f306 	lsl.w	r3, r1, r6
 8020572:	ea4f 4e14 	mov.w	lr, r4, lsr #16
 8020576:	fa21 f10c 	lsr.w	r1, r1, ip
 802057a:	431f      	orrs	r7, r3
 802057c:	0c3b      	lsrs	r3, r7, #16
 802057e:	fbb1 f9fe 	udiv	r9, r1, lr
 8020582:	fa1f f884 	uxth.w	r8, r4
 8020586:	fb0e 1119 	mls	r1, lr, r9, r1
 802058a:	ea43 4101 	orr.w	r1, r3, r1, lsl #16
 802058e:	fb09 fa08 	mul.w	sl, r9, r8
 8020592:	458a      	cmp	sl, r1
 8020594:	fa02 f206 	lsl.w	r2, r2, r6
 8020598:	fa00 f306 	lsl.w	r3, r0, r6
 802059c:	d908      	bls.n	80205b0 <__udivmoddi4+0x220>
 802059e:	1861      	adds	r1, r4, r1
 80205a0:	f109 30ff 	add.w	r0, r9, #4294967295
 80205a4:	d248      	bcs.n	8020638 <__udivmoddi4+0x2a8>
 80205a6:	458a      	cmp	sl, r1
 80205a8:	d946      	bls.n	8020638 <__udivmoddi4+0x2a8>
 80205aa:	f1a9 0902 	sub.w	r9, r9, #2
 80205ae:	4421      	add	r1, r4
 80205b0:	eba1 010a 	sub.w	r1, r1, sl
 80205b4:	b2bf      	uxth	r7, r7
 80205b6:	fbb1 f0fe 	udiv	r0, r1, lr
 80205ba:	fb0e 1110 	mls	r1, lr, r0, r1
 80205be:	ea47 4701 	orr.w	r7, r7, r1, lsl #16
 80205c2:	fb00 f808 	mul.w	r8, r0, r8
 80205c6:	45b8      	cmp	r8, r7
 80205c8:	d907      	bls.n	80205da <__udivmoddi4+0x24a>
 80205ca:	19e7      	adds	r7, r4, r7
 80205cc:	f100 31ff 	add.w	r1, r0, #4294967295
 80205d0:	d22e      	bcs.n	8020630 <__udivmoddi4+0x2a0>
 80205d2:	45b8      	cmp	r8, r7
 80205d4:	d92c      	bls.n	8020630 <__udivmoddi4+0x2a0>
 80205d6:	3802      	subs	r0, #2
 80205d8:	4427      	add	r7, r4
 80205da:	ea40 4009 	orr.w	r0, r0, r9, lsl #16
 80205de:	eba7 0708 	sub.w	r7, r7, r8
 80205e2:	fba0 8902 	umull	r8, r9, r0, r2
 80205e6:	454f      	cmp	r7, r9
 80205e8:	46c6      	mov	lr, r8
 80205ea:	4649      	mov	r1, r9
 80205ec:	d31a      	bcc.n	8020624 <__udivmoddi4+0x294>
 80205ee:	d017      	beq.n	8020620 <__udivmoddi4+0x290>
 80205f0:	b15d      	cbz	r5, 802060a <__udivmoddi4+0x27a>
 80205f2:	ebb3 020e 	subs.w	r2, r3, lr
 80205f6:	eb67 0701 	sbc.w	r7, r7, r1
 80205fa:	fa07 fc0c 	lsl.w	ip, r7, ip
 80205fe:	40f2      	lsrs	r2, r6
 8020600:	ea4c 0202 	orr.w	r2, ip, r2
 8020604:	40f7      	lsrs	r7, r6
 8020606:	e9c5 2700 	strd	r2, r7, [r5]
 802060a:	2600      	movs	r6, #0
 802060c:	4631      	mov	r1, r6
 802060e:	e8bd 87f0 	ldmia.w	sp!, {r4, r5, r6, r7, r8, r9, sl, pc}
 8020612:	462e      	mov	r6, r5
 8020614:	4628      	mov	r0, r5
 8020616:	e70b      	b.n	8020430 <__udivmoddi4+0xa0>
 8020618:	4606      	mov	r6, r0
 802061a:	e6e9      	b.n	80203f0 <__udivmoddi4+0x60>
 802061c:	4618      	mov	r0, r3
 802061e:	e6fd      	b.n	802041c <__udivmoddi4+0x8c>
 8020620:	4543      	cmp	r3, r8
 8020622:	d2e5      	bcs.n	80205f0 <__udivmoddi4+0x260>
 8020624:	ebb8 0e02 	subs.w	lr, r8, r2
 8020628:	eb69 0104 	sbc.w	r1, r9, r4
 802062c:	3801      	subs	r0, #1
 802062e:	e7df      	b.n	80205f0 <__udivmoddi4+0x260>
 8020630:	4608      	mov	r0, r1
 8020632:	e7d2      	b.n	80205da <__udivmoddi4+0x24a>
 8020634:	4660      	mov	r0, ip
 8020636:	e78d      	b.n	8020554 <__udivmoddi4+0x1c4>
 8020638:	4681      	mov	r9, r0
 802063a:	e7b9      	b.n	80205b0 <__udivmoddi4+0x220>
 802063c:	4666      	mov	r6, ip
 802063e:	e775      	b.n	802052c <__udivmoddi4+0x19c>
 8020640:	4630      	mov	r0, r6
 8020642:	e74a      	b.n	80204da <__udivmoddi4+0x14a>
 8020644:	f1ac 0c02 	sub.w	ip, ip, #2
 8020648:	4439      	add	r1, r7
 802064a:	e713      	b.n	8020474 <__udivmoddi4+0xe4>
 802064c:	3802      	subs	r0, #2
 802064e:	443c      	add	r4, r7
 8020650:	e724      	b.n	802049c <__udivmoddi4+0x10c>
 8020652:	bf00      	nop

08020654 <__aeabi_idiv0>:
 8020654:	4770      	bx	lr
 8020656:	bf00      	nop

08020658 <MX_DMA_Init>:

/**
  * Enable DMA controller clock
  */
void MX_DMA_Init(void)
{
 8020658:	b510      	push	{r4, lr}
 802065a:	b082      	sub	sp, #8

  /* DMA controller clock enable */
  __HAL_RCC_DMA2_CLK_ENABLE();
 802065c:	2400      	movs	r4, #0
 802065e:	9400      	str	r4, [sp, #0]
 8020660:	4b22      	ldr	r3, [pc, #136]	; (80206ec <MX_DMA_Init+0x94>)
 8020662:	6b1a      	ldr	r2, [r3, #48]	; 0x30
 8020664:	f442 0280 	orr.w	r2, r2, #4194304	; 0x400000
 8020668:	631a      	str	r2, [r3, #48]	; 0x30
 802066a:	6b1a      	ldr	r2, [r3, #48]	; 0x30
 802066c:	f402 0280 	and.w	r2, r2, #4194304	; 0x400000
 8020670:	9200      	str	r2, [sp, #0]
 8020672:	9a00      	ldr	r2, [sp, #0]
  __HAL_RCC_DMA1_CLK_ENABLE();
 8020674:	9401      	str	r4, [sp, #4]
 8020676:	6b1a      	ldr	r2, [r3, #48]	; 0x30
 8020678:	f442 1200 	orr.w	r2, r2, #2097152	; 0x200000
 802067c:	631a      	str	r2, [r3, #48]	; 0x30
 802067e:	6b1b      	ldr	r3, [r3, #48]	; 0x30
 8020680:	f403 1300 	and.w	r3, r3, #2097152	; 0x200000
 8020684:	9301      	str	r3, [sp, #4]
 8020686:	9b01      	ldr	r3, [sp, #4]

  /* DMA interrupt init */
  /* DMA1_Stream1_IRQn interrupt configuration */
  HAL_NVIC_SetPriority(DMA1_Stream1_IRQn, 5, 0);
 8020688:	4622      	mov	r2, r4
 802068a:	2105      	movs	r1, #5
 802068c:	200c      	movs	r0, #12
 802068e:	f001 f94b 	bl	8021928 <HAL_NVIC_SetPriority>
  HAL_NVIC_EnableIRQ(DMA1_Stream1_IRQn);
 8020692:	200c      	movs	r0, #12
 8020694:	f001 f98e 	bl	80219b4 <HAL_NVIC_EnableIRQ>
  /* DMA1_Stream3_IRQn interrupt configuration */
  HAL_NVIC_SetPriority(DMA1_Stream3_IRQn, 5, 0);
 8020698:	4622      	mov	r2, r4
 802069a:	2105      	movs	r1, #5
 802069c:	200e      	movs	r0, #14
 802069e:	f001 f943 	bl	8021928 <HAL_NVIC_SetPriority>
  HAL_NVIC_EnableIRQ(DMA1_Stream3_IRQn);
 80206a2:	200e      	movs	r0, #14
 80206a4:	f001 f986 	bl	80219b4 <HAL_NVIC_EnableIRQ>
  /* DMA2_Stream1_IRQn interrupt configuration */
  HAL_NVIC_SetPriority(DMA2_Stream1_IRQn, 5, 0);
 80206a8:	4622      	mov	r2, r4
 80206aa:	2105      	movs	r1, #5
 80206ac:	2039      	movs	r0, #57	; 0x39
 80206ae:	f001 f93b 	bl	8021928 <HAL_NVIC_SetPriority>
  HAL_NVIC_EnableIRQ(DMA2_Stream1_IRQn);
 80206b2:	2039      	movs	r0, #57	; 0x39
 80206b4:	f001 f97e 	bl	80219b4 <HAL_NVIC_EnableIRQ>
  /* DMA2_Stream2_IRQn interrupt configuration */
  HAL_NVIC_SetPriority(DMA2_Stream2_IRQn, 5, 0);
 80206b8:	4622      	mov	r2, r4
 80206ba:	2105      	movs	r1, #5
 80206bc:	203a      	movs	r0, #58	; 0x3a
 80206be:	f001 f933 	bl	8021928 <HAL_NVIC_SetPriority>
  HAL_NVIC_EnableIRQ(DMA2_Stream2_IRQn);
 80206c2:	203a      	movs	r0, #58	; 0x3a
 80206c4:	f001 f976 	bl	80219b4 <HAL_NVIC_EnableIRQ>
  /* DMA2_Stream6_IRQn interrupt configuration */
  HAL_NVIC_SetPriority(DMA2_Stream6_IRQn, 5, 0);
 80206c8:	4622      	mov	r2, r4
 80206ca:	2105      	movs	r1, #5
 80206cc:	2045      	movs	r0, #69	; 0x45
 80206ce:	f001 f92b 	bl	8021928 <HAL_NVIC_SetPriority>
  HAL_NVIC_EnableIRQ(DMA2_Stream6_IRQn);
 80206d2:	2045      	movs	r0, #69	; 0x45
 80206d4:	f001 f96e 	bl	80219b4 <HAL_NVIC_EnableIRQ>
  /* DMA2_Stream7_IRQn interrupt configuration */
  HAL_NVIC_SetPriority(DMA2_Stream7_IRQn, 5, 0);
 80206d8:	4622      	mov	r2, r4
 80206da:	2105      	movs	r1, #5
 80206dc:	2046      	movs	r0, #70	; 0x46
 80206de:	f001 f923 	bl	8021928 <HAL_NVIC_SetPriority>
  HAL_NVIC_EnableIRQ(DMA2_Stream7_IRQn);
 80206e2:	2046      	movs	r0, #70	; 0x46
 80206e4:	f001 f966 	bl	80219b4 <HAL_NVIC_EnableIRQ>

}
 80206e8:	b002      	add	sp, #8
 80206ea:	bd10      	pop	{r4, pc}
 80206ec:	40023800 	.word	0x40023800

080206f0 <StartDefaultTask>:
 * @param  argument: Not used
 * @retval None
 */
/* USER CODE END Header_StartDefaultTask */
void StartDefaultTask(void *argument)
{
 80206f0:	b500      	push	{lr}
 80206f2:	b083      	sub	sp, #12
	static uint16_t cnt0 = 0;
	static uint16_t cnt1 = 0;
	static uint16_t cnt2 = 0;
	static uint16_t cnt3 = 0;
	static uint16_t cnt4 = 0;
	osMutexRelease(myMutex01Handle);
 80206f4:	4b57      	ldr	r3, [pc, #348]	; (8020854 <StartDefaultTask+0x164>)
 80206f6:	6818      	ldr	r0, [r3, #0]
 80206f8:	f004 fca0 	bl	802503c <osMutexRelease>
	osThreadTerminate(myTask04Handle);
 80206fc:	4b56      	ldr	r3, [pc, #344]	; (8020858 <StartDefaultTask+0x168>)
 80206fe:	6818      	ldr	r0, [r3, #0]
 8020700:	f004 fbde 	bl	8024ec0 <osThreadTerminate>
	osThreadTerminate(myTask05Handle);
 8020704:	4b55      	ldr	r3, [pc, #340]	; (802085c <StartDefaultTask+0x16c>)
 8020706:	6818      	ldr	r0, [r3, #0]
 8020708:	f004 fbda 	bl	8024ec0 <osThreadTerminate>
	osSemaphoreAcquire(myBinarySem03Handle, 10);
 802070c:	210a      	movs	r1, #10
 802070e:	4b54      	ldr	r3, [pc, #336]	; (8020860 <StartDefaultTask+0x170>)
 8020710:	6818      	ldr	r0, [r3, #0]
 8020712:	f004 fd13 	bl	802513c <osSemaphoreAcquire>
	softTimer_Start(TIMER0, MODE_PERIODIC, 5, TIM0_CB, NULL, 0);
 8020716:	2400      	movs	r4, #0
 8020718:	9401      	str	r4, [sp, #4]
 802071a:	9400      	str	r4, [sp, #0]
 802071c:	4b51      	ldr	r3, [pc, #324]	; (8020864 <StartDefaultTask+0x174>)
 802071e:	2205      	movs	r2, #5
 8020720:	2101      	movs	r1, #1
 8020722:	4620      	mov	r0, r4
 8020724:	f00e fbe8 	bl	802eef8 <softTimer_Start>
	softTimer_Start(TIMER2, MODE_PERIODIC, 3000, TIM2_CB, NULL, 0);
 8020728:	9401      	str	r4, [sp, #4]
 802072a:	9400      	str	r4, [sp, #0]
 802072c:	4b4e      	ldr	r3, [pc, #312]	; (8020868 <StartDefaultTask+0x178>)
 802072e:	f640 32b8 	movw	r2, #3000	; 0xbb8
 8020732:	2101      	movs	r1, #1
 8020734:	2002      	movs	r0, #2
 8020736:	f00e fbdf 	bl	802eef8 <softTimer_Start>
	sysguard_start(DefaultTask);
 802073a:	4620      	mov	r0, r4
 802073c:	f00e fc90 	bl	802f060 <sysguard_start>
	sysguard_start(TASK2);
 8020740:	2001      	movs	r0, #1
 8020742:	f00e fc8d 	bl	802f060 <sysguard_start>
	sysguard_start(TASK3);
 8020746:	2002      	movs	r0, #2
 8020748:	f00e fc8a 	bl	802f060 <sysguard_start>
//	sysguard_start(TASK4);
//	sysguard_start(TASK5);
//	sysguard_start(TASK6);
	while (screen_ini_st.screen_conn_flag != FLAG_ON) {
 802074c:	e002      	b.n	8020754 <StartDefaultTask+0x64>
		osDelay(10);
 802074e:	200a      	movs	r0, #10
 8020750:	f004 fbce 	bl	8024ef0 <osDelay>
	while (screen_ini_st.screen_conn_flag != FLAG_ON) {
 8020754:	4b45      	ldr	r3, [pc, #276]	; (802086c <StartDefaultTask+0x17c>)
 8020756:	785b      	ldrb	r3, [r3, #1]
 8020758:	2b55      	cmp	r3, #85	; 0x55
 802075a:	d1f8      	bne.n	802074e <StartDefaultTask+0x5e>
 802075c:	e037      	b.n	80207ce <StartDefaultTask+0xde>
	}
	/* Infinite loop */
	for (;;) {
		/*10ms*/
		if (cnt0 == 0) {
			dev_input_check();
 802075e:	f007 f8d3 	bl	8027908 <dev_input_check>
 8020762:	e038      	b.n	80207d6 <StartDefaultTask+0xe6>
		}
		cnt0++;
		cnt0 %= 5;
		if (cnt1 == 0) {
			inf_input_check();
 8020764:	f007 f872 	bl	802784c <inf_input_check>
			input_tog();
 8020768:	f007 faa8 	bl	8027cbc <input_tog>
			Key_event();
 802076c:	f007 fb48 	bl	8027e00 <Key_event>
			stop_check();
 8020770:	f007 fcda 	bl	8028128 <stop_check>
			/*get*/
			double_check();
 8020774:	f007 fc74 	bl	8028060 <double_check>
			relief_check();
 8020778:	f00b fe1e 	bl	802c3b8 <relief_check>
			mytim_check();
 802077c:	f00d ff3e 	bl	802e5fc <mytim_check>
 8020780:	e039      	b.n	80207f6 <StartDefaultTask+0x106>
		}
		cnt1++;
		cnt1 %= 2;
		if (cnt2 == 0) {
			run_input_check();
 8020782:	f007 f913 	bl	80279ac <run_input_check>
 8020786:	e040      	b.n	802080a <StartDefaultTask+0x11a>
		cnt2++;
		cnt2 %= 10;
		/*100ms*/
		if (cnt3 == 0) {
			/*set*/
			double_deal();
 8020788:	f007 fc22 	bl	8027fd0 <double_deal>
 802078c:	e04e      	b.n	802082c <StartDefaultTask+0x13c>
		}
		cnt3++;
		if (set_para_st.rl_double_io > 30) {
			cnt3 %= 200;
 802078e:	4a38      	ldr	r2, [pc, #224]	; (8020870 <StartDefaultTask+0x180>)
 8020790:	fba2 1203 	umull	r1, r2, r2, r3
 8020794:	0992      	lsrs	r2, r2, #6
 8020796:	21c8      	movs	r1, #200	; 0xc8
 8020798:	fb01 3312 	mls	r3, r1, r2, r3
 802079c:	4a35      	ldr	r2, [pc, #212]	; (8020874 <StartDefaultTask+0x184>)
 802079e:	8013      	strh	r3, [r2, #0]
		} else {
			cnt3 %= 20;
		}
		/*1000ms*/
		if (cnt4 == 0) {
 80207a0:	4b35      	ldr	r3, [pc, #212]	; (8020878 <StartDefaultTask+0x188>)
 80207a2:	881b      	ldrh	r3, [r3, #0]
 80207a4:	b923      	cbnz	r3, 80207b0 <StartDefaultTask+0xc0>
			sysguard_feed(DefaultTask);
 80207a6:	2000      	movs	r0, #0
 80207a8:	f00e fc70 	bl	802f08c <sysguard_feed>
			sysguard_scan();
 80207ac:	f00e fc88 	bl	802f0c0 <sysguard_scan>
		}
		cnt4++;
 80207b0:	4931      	ldr	r1, [pc, #196]	; (8020878 <StartDefaultTask+0x188>)
 80207b2:	880b      	ldrh	r3, [r1, #0]
 80207b4:	3301      	adds	r3, #1
 80207b6:	b29a      	uxth	r2, r3
		cnt4 %= 200;
 80207b8:	4b2d      	ldr	r3, [pc, #180]	; (8020870 <StartDefaultTask+0x180>)
 80207ba:	fba3 0302 	umull	r0, r3, r3, r2
 80207be:	099b      	lsrs	r3, r3, #6
 80207c0:	20c8      	movs	r0, #200	; 0xc8
 80207c2:	fb00 2313 	mls	r3, r0, r3, r2
 80207c6:	800b      	strh	r3, [r1, #0]
		osDelay(5);
 80207c8:	2005      	movs	r0, #5
 80207ca:	f004 fb91 	bl	8024ef0 <osDelay>
		if (cnt0 == 0) {
 80207ce:	4b2b      	ldr	r3, [pc, #172]	; (802087c <StartDefaultTask+0x18c>)
 80207d0:	881b      	ldrh	r3, [r3, #0]
 80207d2:	2b00      	cmp	r3, #0
 80207d4:	d0c3      	beq.n	802075e <StartDefaultTask+0x6e>
		cnt0++;
 80207d6:	4929      	ldr	r1, [pc, #164]	; (802087c <StartDefaultTask+0x18c>)
 80207d8:	880b      	ldrh	r3, [r1, #0]
 80207da:	3301      	adds	r3, #1
 80207dc:	b29b      	uxth	r3, r3
		cnt0 %= 5;
 80207de:	4a28      	ldr	r2, [pc, #160]	; (8020880 <StartDefaultTask+0x190>)
 80207e0:	fba2 0203 	umull	r0, r2, r2, r3
 80207e4:	0892      	lsrs	r2, r2, #2
 80207e6:	eb02 0282 	add.w	r2, r2, r2, lsl #2
 80207ea:	1a9b      	subs	r3, r3, r2
 80207ec:	800b      	strh	r3, [r1, #0]
		if (cnt1 == 0) {
 80207ee:	4b25      	ldr	r3, [pc, #148]	; (8020884 <StartDefaultTask+0x194>)
 80207f0:	881b      	ldrh	r3, [r3, #0]
 80207f2:	2b00      	cmp	r3, #0
 80207f4:	d0b6      	beq.n	8020764 <StartDefaultTask+0x74>
		cnt1++;
 80207f6:	4a23      	ldr	r2, [pc, #140]	; (8020884 <StartDefaultTask+0x194>)
 80207f8:	8813      	ldrh	r3, [r2, #0]
 80207fa:	3301      	adds	r3, #1
		cnt1 %= 2;
 80207fc:	f003 0301 	and.w	r3, r3, #1
 8020800:	8013      	strh	r3, [r2, #0]
		if (cnt2 == 0) {
 8020802:	4b21      	ldr	r3, [pc, #132]	; (8020888 <StartDefaultTask+0x198>)
 8020804:	881b      	ldrh	r3, [r3, #0]
 8020806:	2b00      	cmp	r3, #0
 8020808:	d0bb      	beq.n	8020782 <StartDefaultTask+0x92>
		cnt2++;
 802080a:	491f      	ldr	r1, [pc, #124]	; (8020888 <StartDefaultTask+0x198>)
 802080c:	880a      	ldrh	r2, [r1, #0]
 802080e:	3201      	adds	r2, #1
 8020810:	b292      	uxth	r2, r2
		cnt2 %= 10;
 8020812:	4b1b      	ldr	r3, [pc, #108]	; (8020880 <StartDefaultTask+0x190>)
 8020814:	fba3 0302 	umull	r0, r3, r3, r2
 8020818:	08db      	lsrs	r3, r3, #3
 802081a:	eb03 0383 	add.w	r3, r3, r3, lsl #2
 802081e:	0058      	lsls	r0, r3, #1
 8020820:	1a12      	subs	r2, r2, r0
 8020822:	800a      	strh	r2, [r1, #0]
		if (cnt3 == 0) {
 8020824:	4b13      	ldr	r3, [pc, #76]	; (8020874 <StartDefaultTask+0x184>)
 8020826:	881b      	ldrh	r3, [r3, #0]
 8020828:	2b00      	cmp	r3, #0
 802082a:	d0ad      	beq.n	8020788 <StartDefaultTask+0x98>
		cnt3++;
 802082c:	4b11      	ldr	r3, [pc, #68]	; (8020874 <StartDefaultTask+0x184>)
 802082e:	881b      	ldrh	r3, [r3, #0]
 8020830:	3301      	adds	r3, #1
 8020832:	b29b      	uxth	r3, r3
		if (set_para_st.rl_double_io > 30) {
 8020834:	4a15      	ldr	r2, [pc, #84]	; (802088c <StartDefaultTask+0x19c>)
 8020836:	8b52      	ldrh	r2, [r2, #26]
 8020838:	2a1e      	cmp	r2, #30
 802083a:	d8a8      	bhi.n	802078e <StartDefaultTask+0x9e>
			cnt3 %= 20;
 802083c:	4a10      	ldr	r2, [pc, #64]	; (8020880 <StartDefaultTask+0x190>)
 802083e:	fba2 1203 	umull	r1, r2, r2, r3
 8020842:	0912      	lsrs	r2, r2, #4
 8020844:	eb02 0282 	add.w	r2, r2, r2, lsl #2
 8020848:	0091      	lsls	r1, r2, #2
 802084a:	1a5b      	subs	r3, r3, r1
 802084c:	4a09      	ldr	r2, [pc, #36]	; (8020874 <StartDefaultTask+0x184>)
 802084e:	8013      	strh	r3, [r2, #0]
 8020850:	e7a6      	b.n	80207a0 <StartDefaultTask+0xb0>
 8020852:	bf00      	nop
 8020854:	2000d180 	.word	0x2000d180
 8020858:	2000d144 	.word	0x2000d144
 802085c:	2000d140 	.word	0x2000d140
 8020860:	2000d148 	.word	0x2000d148
 8020864:	0802ed59 	.word	0x0802ed59
 8020868:	0802ede1 	.word	0x0802ede1
 802086c:	2000e394 	.word	0x2000e394
 8020870:	51eb851f 	.word	0x51eb851f
 8020874:	200001e4 	.word	0x200001e4
 8020878:	200001e8 	.word	0x200001e8
 802087c:	200001d8 	.word	0x200001d8
 8020880:	cccccccd 	.word	0xcccccccd
 8020884:	200001dc 	.word	0x200001dc
 8020888:	200001e0 	.word	0x200001e0
 802088c:	2000e338 	.word	0x2000e338

08020890 <StartTask02>:
 * @param argument: Not used
 * @retval None
 */
/* USER CODE END Header_StartTask02 */
void StartTask02(void *argument)
{
 8020890:	b508      	push	{r3, lr}
 8020892:	e029      	b.n	80208e8 <StartTask02+0x58>
  /* USER CODE BEGIN StartTask02 */
	/* Infinite loop */
	for (;;) {
		if (0 != osMessageQueueGetCount(myQueueUsart1Handle)) {
			osMessageQueueGet(myQueueUsart1Handle, &usart1_rx, 0U, 0xff);
 8020894:	4c29      	ldr	r4, [pc, #164]	; (802093c <StartTask02+0xac>)
 8020896:	23ff      	movs	r3, #255	; 0xff
 8020898:	2200      	movs	r2, #0
 802089a:	4621      	mov	r1, r4
 802089c:	4828      	ldr	r0, [pc, #160]	; (8020940 <StartTask02+0xb0>)
 802089e:	6800      	ldr	r0, [r0, #0]
 80208a0:	f004 fd0e 	bl	80252c0 <osMessageQueueGet>
			usart1_rx_deal(&usart1_rx);
 80208a4:	4620      	mov	r0, r4
 80208a6:	f007 fd6f 	bl	8028388 <usart1_rx_deal>
			memset(&usart1_rx, 0x00, sizeof(usart1_rx));
 80208aa:	f44f 7281 	mov.w	r2, #258	; 0x102
 80208ae:	2100      	movs	r1, #0
 80208b0:	4620      	mov	r0, r4
 80208b2:	f00e fc6d 	bl	802f190 <memset>
 80208b6:	e01d      	b.n	80208f4 <StartTask02+0x64>
		}
		osDelay(1);
		if (0 != osMessageQueueGetCount(myQueueUsart3Handle)) {
			osMessageQueueGet(myQueueUsart3Handle, &usart3_rx, 0U, 0xff);
 80208b8:	4c22      	ldr	r4, [pc, #136]	; (8020944 <StartTask02+0xb4>)
 80208ba:	23ff      	movs	r3, #255	; 0xff
 80208bc:	2200      	movs	r2, #0
 80208be:	4621      	mov	r1, r4
 80208c0:	4821      	ldr	r0, [pc, #132]	; (8020948 <StartTask02+0xb8>)
 80208c2:	6800      	ldr	r0, [r0, #0]
 80208c4:	f004 fcfc 	bl	80252c0 <osMessageQueueGet>
			usart3_rx_deal(&usart3_rx);
 80208c8:	4620      	mov	r0, r4
 80208ca:	f007 fd69 	bl	80283a0 <usart3_rx_deal>
			memset(&usart3_rx, 0x00, sizeof(usart3_rx));
 80208ce:	f44f 7281 	mov.w	r2, #258	; 0x102
 80208d2:	2100      	movs	r1, #0
 80208d4:	4620      	mov	r0, r4
 80208d6:	f00e fc5b 	bl	802f190 <memset>
 80208da:	e014      	b.n	8020906 <StartTask02+0x76>
		if (0 != osMessageQueueGetCount(myQueueUsart6Handle)) {
			osMessageQueueGet(myQueueUsart6Handle, &usart6_rx, 0U, 0xff);
			usart6_rx_deal(&usart6_rx);
			memset(&usart6_rx, 0x00, sizeof(usart6_rx));
		}
		osDelay(1);
 80208dc:	2001      	movs	r0, #1
 80208de:	f004 fb07 	bl	8024ef0 <osDelay>
		sysguard_feed(TASK2);
 80208e2:	2001      	movs	r0, #1
 80208e4:	f00e fbd2 	bl	802f08c <sysguard_feed>
		if (0 != osMessageQueueGetCount(myQueueUsart1Handle)) {
 80208e8:	4b15      	ldr	r3, [pc, #84]	; (8020940 <StartTask02+0xb0>)
 80208ea:	6818      	ldr	r0, [r3, #0]
 80208ec:	f004 fd2a 	bl	8025344 <osMessageQueueGetCount>
 80208f0:	2800      	cmp	r0, #0
 80208f2:	d1cf      	bne.n	8020894 <StartTask02+0x4>
		osDelay(1);
 80208f4:	2001      	movs	r0, #1
 80208f6:	f004 fafb 	bl	8024ef0 <osDelay>
		if (0 != osMessageQueueGetCount(myQueueUsart3Handle)) {
 80208fa:	4b13      	ldr	r3, [pc, #76]	; (8020948 <StartTask02+0xb8>)
 80208fc:	6818      	ldr	r0, [r3, #0]
 80208fe:	f004 fd21 	bl	8025344 <osMessageQueueGetCount>
 8020902:	2800      	cmp	r0, #0
 8020904:	d1d8      	bne.n	80208b8 <StartTask02+0x28>
		osDelay(1);
 8020906:	2001      	movs	r0, #1
 8020908:	f004 faf2 	bl	8024ef0 <osDelay>
		if (0 != osMessageQueueGetCount(myQueueUsart6Handle)) {
 802090c:	4b0f      	ldr	r3, [pc, #60]	; (802094c <StartTask02+0xbc>)
 802090e:	6818      	ldr	r0, [r3, #0]
 8020910:	f004 fd18 	bl	8025344 <osMessageQueueGetCount>
 8020914:	2800      	cmp	r0, #0
 8020916:	d0e1      	beq.n	80208dc <StartTask02+0x4c>
			osMessageQueueGet(myQueueUsart6Handle, &usart6_rx, 0U, 0xff);
 8020918:	4c0d      	ldr	r4, [pc, #52]	; (8020950 <StartTask02+0xc0>)
 802091a:	23ff      	movs	r3, #255	; 0xff
 802091c:	2200      	movs	r2, #0
 802091e:	4621      	mov	r1, r4
 8020920:	480a      	ldr	r0, [pc, #40]	; (802094c <StartTask02+0xbc>)
 8020922:	6800      	ldr	r0, [r0, #0]
 8020924:	f004 fccc 	bl	80252c0 <osMessageQueueGet>
			usart6_rx_deal(&usart6_rx);
 8020928:	4620      	mov	r0, r4
 802092a:	f007 fd3f 	bl	80283ac <usart6_rx_deal>
			memset(&usart6_rx, 0x00, sizeof(usart6_rx));
 802092e:	f44f 7281 	mov.w	r2, #258	; 0x102
 8020932:	2100      	movs	r1, #0
 8020934:	4620      	mov	r0, r4
 8020936:	f00e fc2b 	bl	802f190 <memset>
 802093a:	e7cf      	b.n	80208dc <StartTask02+0x4c>
 802093c:	2000d898 	.word	0x2000d898
 8020940:	2000d178 	.word	0x2000d178
 8020944:	2000dfb4 	.word	0x2000dfb4
 8020948:	2000d188 	.word	0x2000d188
 802094c:	2000d17c 	.word	0x2000d17c
 8020950:	2000daa0 	.word	0x2000daa0

08020954 <StartTask03>:
 * @param argument: Not used
 * @retval None
 */
/* USER CODE END Header_StartTask03 */
void StartTask03(void *argument)
{
 8020954:	b508      	push	{r3, lr}
  /* USER CODE BEGIN StartTask03 */
	operate_ini();
 8020956:	f009 f835 	bl	80299c4 <operate_ini>
	/* Infinite loop */
	for (;;) {
		operate_ctrl();
 802095a:	f00b fa93 	bl	802be84 <operate_ctrl>
		keyqueue_deal();
 802095e:	f00a f8fd 	bl	802ab5c <keyqueue_deal>
		osDelay(5);
 8020962:	2005      	movs	r0, #5
 8020964:	f004 fac4 	bl	8024ef0 <osDelay>
		sysguard_feed(TASK3);
 8020968:	2002      	movs	r0, #2
 802096a:	f00e fb8f 	bl	802f08c <sysguard_feed>
	for (;;) {
 802096e:	e7f4      	b.n	802095a <StartTask03+0x6>

08020970 <StartTask04>:
 * @param argument: Not used
 * @retval None
 */
/* USER CODE END Header_StartTask04 */
void StartTask04(void *argument)
{
 8020970:	b508      	push	{r3, lr}
  /* USER CODE BEGIN StartTask04 */
	osDelay(10);
 8020972:	200a      	movs	r0, #10
 8020974:	f004 fabc 	bl	8024ef0 <osDelay>
 8020978:	e007      	b.n	802098a <StartTask04+0x1a>
		switch (osthd_st.thd_num) {
		case STATE_RST:
			rst_deal();
			break;
		case AUTO:
			sequence_deal();
 802097a:	f00a ff23 	bl	802b7c4 <sequence_deal>
			break;
		}
		osDelay(5);
 802097e:	2005      	movs	r0, #5
 8020980:	f004 fab6 	bl	8024ef0 <osDelay>
		sysguard_feed(TASK4);
 8020984:	2003      	movs	r0, #3
 8020986:	f00e fb81 	bl	802f08c <sysguard_feed>
		switch (osthd_st.thd_num) {
 802098a:	4b04      	ldr	r3, [pc, #16]	; (802099c <StartTask04+0x2c>)
 802098c:	781b      	ldrb	r3, [r3, #0]
 802098e:	2b02      	cmp	r3, #2
 8020990:	d0f3      	beq.n	802097a <StartTask04+0xa>
 8020992:	2b03      	cmp	r3, #3
 8020994:	d1f3      	bne.n	802097e <StartTask04+0xe>
			rst_deal();
 8020996:	f00a fc4b 	bl	802b230 <rst_deal>
			break;
 802099a:	e7f0      	b.n	802097e <StartTask04+0xe>
 802099c:	2000e324 	.word	0x2000e324

080209a0 <StartTask05>:
 * @param argument: Not used
 * @retval None
 */
/* USER CODE END Header_StartTask05 */
void StartTask05(void *argument)
{
 80209a0:	b508      	push	{r3, lr}
  /* USER CODE BEGIN StartTask05 */
	osDelay(10);
 80209a2:	200a      	movs	r0, #10
 80209a4:	f004 faa4 	bl	8024ef0 <osDelay>
	/* Infinite loop */
	for (;;) {
		sequence_assist();
 80209a8:	f00a fe62 	bl	802b670 <sequence_assist>
		osDelay(5);
 80209ac:	2005      	movs	r0, #5
 80209ae:	f004 fa9f 	bl	8024ef0 <osDelay>
		sysguard_feed(TASK5);
 80209b2:	2004      	movs	r0, #4
 80209b4:	f00e fb6a 	bl	802f08c <sysguard_feed>
	for (;;) {
 80209b8:	e7f6      	b.n	80209a8 <StartTask05+0x8>
	...

080209bc <StartTask06>:
 * @param argument: Not used
 * @retval None
 */
/* USER CODE END Header_StartTask06 */
void StartTask06(void *argument)
{
 80209bc:	b508      	push	{r3, lr}
 80209be:	e039      	b.n	8020a34 <StartTask06+0x78>
	static uint16_t cnt4 = 0;
	/* Infinite loop */
	for (;;) {
		/*25ms*/
		if (cnt0 == 0) {
			softTimer_Update();
 80209c0:	f00e fad4 	bl	802ef6c <softTimer_Update>
 80209c4:	e03a      	b.n	8020a3c <StartTask06+0x80>
		}
		cnt0++;
		cnt0 %= 5;
		if (cnt1 == 0) {
			input_pic();
 80209c6:	f007 f83b 	bl	8027a40 <input_pic>
 80209ca:	e047      	b.n	8020a5c <StartTask06+0xa0>
		}
		cnt1++;
		cnt1 %= 20;
		/*30ms*/
		if (cnt2 == 0) {
			rst_check();
 80209cc:	f007 fa9e 	bl	8027f0c <rst_check>
			/*********************/
			dis_refresh_log();
 80209d0:	f008 f9b2 	bl	8028d38 <dis_refresh_log>
			dis_tip_page();
 80209d4:	f007 fd40 	bl	8028458 <dis_tip_page>
			/*********************/
			dis_hard();
 80209d8:	f007 fffe 	bl	80289d8 <dis_hard>
			/*********************/
			catch_stuck();
 80209dc:	f007 fcec 	bl	80283b8 <catch_stuck>
			/*********************/
			clean_check();
 80209e0:	f00d f822 	bl	802da28 <clean_check>
			dis_warn();
 80209e4:	f007 ff4c 	bl	8028880 <dis_warn>
			/*********************/
			dis_double();
 80209e8:	f008 f86a 	bl	8028ac0 <dis_double>
			/*********************/
			save_op_tip();
 80209ec:	f008 f988 	bl	8028d00 <save_op_tip>
//			dis_tips();
			/*********************/
			warn_out();
 80209f0:	f008 fa1c 	bl	8028e2c <warn_out>
			/*********************/
			for (uint8_t j = 0; j < WARN_NUM; j++) {
 80209f4:	2300      	movs	r3, #0
 80209f6:	e005      	b.n	8020a04 <StartTask06+0x48>
				log_para_st.tip_tab_bk[j] = log_para_st.tip_tab[j];
 80209f8:	4a33      	ldr	r2, [pc, #204]	; (8020ac8 <StartTask06+0x10c>)
 80209fa:	441a      	add	r2, r3
 80209fc:	7851      	ldrb	r1, [r2, #1]
 80209fe:	7691      	strb	r1, [r2, #26]
			for (uint8_t j = 0; j < WARN_NUM; j++) {
 8020a00:	3301      	adds	r3, #1
 8020a02:	b2db      	uxtb	r3, r3
 8020a04:	2b18      	cmp	r3, #24
 8020a06:	d9f7      	bls.n	80209f8 <StartTask06+0x3c>
 8020a08:	e039      	b.n	8020a7e <StartTask06+0xc2>
		}
		cnt2++;
		cnt2 %= 6;
		/*200ms*/
		if (cnt3 == 0) {
			dis_fst_page();
 8020a0a:	f007 fced 	bl	80283e8 <dis_fst_page>
 8020a0e:	e047      	b.n	8020aa0 <StartTask06+0xe4>
		cnt3++;
		cnt3 %= 30;
		if (cnt4 == 0) {
			run_time();
		}
		cnt4++;
 8020a10:	492e      	ldr	r1, [pc, #184]	; (8020acc <StartTask06+0x110>)
 8020a12:	880b      	ldrh	r3, [r1, #0]
 8020a14:	3301      	adds	r3, #1
 8020a16:	b29a      	uxth	r2, r3
		cnt4 %= 200;
 8020a18:	4b2d      	ldr	r3, [pc, #180]	; (8020ad0 <StartTask06+0x114>)
 8020a1a:	fba3 0302 	umull	r0, r3, r3, r2
 8020a1e:	099b      	lsrs	r3, r3, #6
 8020a20:	20c8      	movs	r0, #200	; 0xc8
 8020a22:	fb00 2313 	mls	r3, r0, r3, r2
 8020a26:	800b      	strh	r3, [r1, #0]
		osDelay(5);
 8020a28:	2005      	movs	r0, #5
 8020a2a:	f004 fa61 	bl	8024ef0 <osDelay>
		sysguard_feed(TASK6);
 8020a2e:	2005      	movs	r0, #5
 8020a30:	f00e fb2c 	bl	802f08c <sysguard_feed>
		if (cnt0 == 0) {
 8020a34:	4b27      	ldr	r3, [pc, #156]	; (8020ad4 <StartTask06+0x118>)
 8020a36:	881b      	ldrh	r3, [r3, #0]
 8020a38:	2b00      	cmp	r3, #0
 8020a3a:	d0c1      	beq.n	80209c0 <StartTask06+0x4>
		cnt0++;
 8020a3c:	4925      	ldr	r1, [pc, #148]	; (8020ad4 <StartTask06+0x118>)
 8020a3e:	880b      	ldrh	r3, [r1, #0]
 8020a40:	3301      	adds	r3, #1
 8020a42:	b29b      	uxth	r3, r3
		cnt0 %= 5;
 8020a44:	4a24      	ldr	r2, [pc, #144]	; (8020ad8 <StartTask06+0x11c>)
 8020a46:	fba2 0203 	umull	r0, r2, r2, r3
 8020a4a:	0892      	lsrs	r2, r2, #2
 8020a4c:	eb02 0282 	add.w	r2, r2, r2, lsl #2
 8020a50:	1a9b      	subs	r3, r3, r2
 8020a52:	800b      	strh	r3, [r1, #0]
		if (cnt1 == 0) {
 8020a54:	4b21      	ldr	r3, [pc, #132]	; (8020adc <StartTask06+0x120>)
 8020a56:	881b      	ldrh	r3, [r3, #0]
 8020a58:	2b00      	cmp	r3, #0
 8020a5a:	d0b4      	beq.n	80209c6 <StartTask06+0xa>
		cnt1++;
 8020a5c:	491f      	ldr	r1, [pc, #124]	; (8020adc <StartTask06+0x120>)
 8020a5e:	880a      	ldrh	r2, [r1, #0]
 8020a60:	3201      	adds	r2, #1
 8020a62:	b292      	uxth	r2, r2
		cnt1 %= 20;
 8020a64:	4b1c      	ldr	r3, [pc, #112]	; (8020ad8 <StartTask06+0x11c>)
 8020a66:	fba3 0302 	umull	r0, r3, r3, r2
 8020a6a:	091b      	lsrs	r3, r3, #4
 8020a6c:	eb03 0383 	add.w	r3, r3, r3, lsl #2
 8020a70:	0098      	lsls	r0, r3, #2
 8020a72:	1a12      	subs	r2, r2, r0
 8020a74:	800a      	strh	r2, [r1, #0]
		if (cnt2 == 0) {
 8020a76:	4b1a      	ldr	r3, [pc, #104]	; (8020ae0 <StartTask06+0x124>)
 8020a78:	881b      	ldrh	r3, [r3, #0]
 8020a7a:	2b00      	cmp	r3, #0
 8020a7c:	d0a6      	beq.n	80209cc <StartTask06+0x10>
		cnt2++;
 8020a7e:	4918      	ldr	r1, [pc, #96]	; (8020ae0 <StartTask06+0x124>)
 8020a80:	880a      	ldrh	r2, [r1, #0]
 8020a82:	3201      	adds	r2, #1
 8020a84:	b292      	uxth	r2, r2
		cnt2 %= 6;
 8020a86:	4b17      	ldr	r3, [pc, #92]	; (8020ae4 <StartTask06+0x128>)
 8020a88:	fba3 0302 	umull	r0, r3, r3, r2
 8020a8c:	089b      	lsrs	r3, r3, #2
 8020a8e:	eb03 0343 	add.w	r3, r3, r3, lsl #1
 8020a92:	0058      	lsls	r0, r3, #1
 8020a94:	1a12      	subs	r2, r2, r0
 8020a96:	800a      	strh	r2, [r1, #0]
		if (cnt3 == 0) {
 8020a98:	4b13      	ldr	r3, [pc, #76]	; (8020ae8 <StartTask06+0x12c>)
 8020a9a:	881b      	ldrh	r3, [r3, #0]
 8020a9c:	2b00      	cmp	r3, #0
 8020a9e:	d0b4      	beq.n	8020a0a <StartTask06+0x4e>
		cnt3++;
 8020aa0:	4911      	ldr	r1, [pc, #68]	; (8020ae8 <StartTask06+0x12c>)
 8020aa2:	880a      	ldrh	r2, [r1, #0]
 8020aa4:	3201      	adds	r2, #1
 8020aa6:	b292      	uxth	r2, r2
		cnt3 %= 30;
 8020aa8:	4b10      	ldr	r3, [pc, #64]	; (8020aec <StartTask06+0x130>)
 8020aaa:	fba3 0302 	umull	r0, r3, r3, r2
 8020aae:	091b      	lsrs	r3, r3, #4
 8020ab0:	ebc3 1303 	rsb	r3, r3, r3, lsl #4
 8020ab4:	0058      	lsls	r0, r3, #1
 8020ab6:	1a12      	subs	r2, r2, r0
 8020ab8:	800a      	strh	r2, [r1, #0]
		if (cnt4 == 0) {
 8020aba:	4b04      	ldr	r3, [pc, #16]	; (8020acc <StartTask06+0x110>)
 8020abc:	881b      	ldrh	r3, [r3, #0]
 8020abe:	2b00      	cmp	r3, #0
 8020ac0:	d1a6      	bne.n	8020a10 <StartTask06+0x54>
			run_time();
 8020ac2:	f008 f9cd 	bl	8028e60 <run_time>
 8020ac6:	e7a3      	b.n	8020a10 <StartTask06+0x54>
 8020ac8:	2000e0b8 	.word	0x2000e0b8
 8020acc:	200001ea 	.word	0x200001ea
 8020ad0:	51eb851f 	.word	0x51eb851f
 8020ad4:	200001da 	.word	0x200001da
 8020ad8:	cccccccd 	.word	0xcccccccd
 8020adc:	200001de 	.word	0x200001de
 8020ae0:	200001e2 	.word	0x200001e2
 8020ae4:	aaaaaaab 	.word	0xaaaaaaab
 8020ae8:	200001e6 	.word	0x200001e6
 8020aec:	88888889 	.word	0x88888889

08020af0 <vApplicationIdleHook>:
}
 8020af0:	4770      	bx	lr

08020af2 <vApplicationTickHook>:
}
 8020af2:	4770      	bx	lr

08020af4 <vApplicationMallocFailedHook>:
}
 8020af4:	4770      	bx	lr

08020af6 <vApplicationDaemonTaskStartupHook>:
}
 8020af6:	4770      	bx	lr

08020af8 <MX_FREERTOS_Init>:
void MX_FREERTOS_Init(void) {
 8020af8:	b508      	push	{r3, lr}
  myMutex01Handle = osMutexNew(&myMutex01_attributes);
 8020afa:	483d      	ldr	r0, [pc, #244]	; (8020bf0 <MX_FREERTOS_Init+0xf8>)
 8020afc:	f004 fa28 	bl	8024f50 <osMutexNew>
 8020b00:	4b3c      	ldr	r3, [pc, #240]	; (8020bf4 <MX_FREERTOS_Init+0xfc>)
 8020b02:	6018      	str	r0, [r3, #0]
  myMutex02Handle = osMutexNew(&myMutex02_attributes);
 8020b04:	483c      	ldr	r0, [pc, #240]	; (8020bf8 <MX_FREERTOS_Init+0x100>)
 8020b06:	f004 fa23 	bl	8024f50 <osMutexNew>
 8020b0a:	4b3c      	ldr	r3, [pc, #240]	; (8020bfc <MX_FREERTOS_Init+0x104>)
 8020b0c:	6018      	str	r0, [r3, #0]
  myBinarySem01Handle = osSemaphoreNew(1, 1, &myBinarySem01_attributes);
 8020b0e:	4a3c      	ldr	r2, [pc, #240]	; (8020c00 <MX_FREERTOS_Init+0x108>)
 8020b10:	2101      	movs	r1, #1
 8020b12:	4608      	mov	r0, r1
 8020b14:	f004 fab8 	bl	8025088 <osSemaphoreNew>
 8020b18:	4b3a      	ldr	r3, [pc, #232]	; (8020c04 <MX_FREERTOS_Init+0x10c>)
 8020b1a:	6018      	str	r0, [r3, #0]
  myBinarySem02Handle = osSemaphoreNew(1, 1, &myBinarySem02_attributes);
 8020b1c:	4a3a      	ldr	r2, [pc, #232]	; (8020c08 <MX_FREERTOS_Init+0x110>)
 8020b1e:	2101      	movs	r1, #1
 8020b20:	4608      	mov	r0, r1
 8020b22:	f004 fab1 	bl	8025088 <osSemaphoreNew>
 8020b26:	4b39      	ldr	r3, [pc, #228]	; (8020c0c <MX_FREERTOS_Init+0x114>)
 8020b28:	6018      	str	r0, [r3, #0]
  myBinarySem03Handle = osSemaphoreNew(1, 1, &myBinarySem03_attributes);
 8020b2a:	4a39      	ldr	r2, [pc, #228]	; (8020c10 <MX_FREERTOS_Init+0x118>)
 8020b2c:	2101      	movs	r1, #1
 8020b2e:	4608      	mov	r0, r1
 8020b30:	f004 faaa 	bl	8025088 <osSemaphoreNew>
 8020b34:	4b37      	ldr	r3, [pc, #220]	; (8020c14 <MX_FREERTOS_Init+0x11c>)
 8020b36:	6018      	str	r0, [r3, #0]
  myBinarySem04Handle = osSemaphoreNew(1, 1, &myBinarySem04_attributes);
 8020b38:	4a37      	ldr	r2, [pc, #220]	; (8020c18 <MX_FREERTOS_Init+0x120>)
 8020b3a:	2101      	movs	r1, #1
 8020b3c:	4608      	mov	r0, r1
 8020b3e:	f004 faa3 	bl	8025088 <osSemaphoreNew>
 8020b42:	4b36      	ldr	r3, [pc, #216]	; (8020c1c <MX_FREERTOS_Init+0x124>)
 8020b44:	6018      	str	r0, [r3, #0]
  myBinarySem05Handle = osSemaphoreNew(1, 1, &myBinarySem05_attributes);
 8020b46:	4a36      	ldr	r2, [pc, #216]	; (8020c20 <MX_FREERTOS_Init+0x128>)
 8020b48:	2101      	movs	r1, #1
 8020b4a:	4608      	mov	r0, r1
 8020b4c:	f004 fa9c 	bl	8025088 <osSemaphoreNew>
 8020b50:	4b34      	ldr	r3, [pc, #208]	; (8020c24 <MX_FREERTOS_Init+0x12c>)
 8020b52:	6018      	str	r0, [r3, #0]
  myQueueUsart1Handle = osMessageQueueNew (4, sizeof(USART1_RECEIVETYPE), &myQueueUsart1_attributes);
 8020b54:	4a34      	ldr	r2, [pc, #208]	; (8020c28 <MX_FREERTOS_Init+0x130>)
 8020b56:	f44f 7181 	mov.w	r1, #258	; 0x102
 8020b5a:	2004      	movs	r0, #4
 8020b5c:	f004 fb22 	bl	80251a4 <osMessageQueueNew>
 8020b60:	4b32      	ldr	r3, [pc, #200]	; (8020c2c <MX_FREERTOS_Init+0x134>)
 8020b62:	6018      	str	r0, [r3, #0]
  myQueueUsart3Handle = osMessageQueueNew (8, sizeof(USART3_RECEIVETYPE), &myQueueUsart3_attributes);
 8020b64:	4a32      	ldr	r2, [pc, #200]	; (8020c30 <MX_FREERTOS_Init+0x138>)
 8020b66:	f44f 7181 	mov.w	r1, #258	; 0x102
 8020b6a:	2008      	movs	r0, #8
 8020b6c:	f004 fb1a 	bl	80251a4 <osMessageQueueNew>
 8020b70:	4b30      	ldr	r3, [pc, #192]	; (8020c34 <MX_FREERTOS_Init+0x13c>)
 8020b72:	6018      	str	r0, [r3, #0]
  myQueueUsart6Handle = osMessageQueueNew (4, sizeof(USART6_RECEIVETYPE), &myQueueUsart6_attributes);
 8020b74:	4a30      	ldr	r2, [pc, #192]	; (8020c38 <MX_FREERTOS_Init+0x140>)
 8020b76:	f44f 7181 	mov.w	r1, #258	; 0x102
 8020b7a:	2004      	movs	r0, #4
 8020b7c:	f004 fb12 	bl	80251a4 <osMessageQueueNew>
 8020b80:	4b2e      	ldr	r3, [pc, #184]	; (8020c3c <MX_FREERTOS_Init+0x144>)
 8020b82:	6018      	str	r0, [r3, #0]
  defaultTaskHandle = osThreadNew(StartDefaultTask, NULL, &defaultTask_attributes);
 8020b84:	4a2e      	ldr	r2, [pc, #184]	; (8020c40 <MX_FREERTOS_Init+0x148>)
 8020b86:	2100      	movs	r1, #0
 8020b88:	482e      	ldr	r0, [pc, #184]	; (8020c44 <MX_FREERTOS_Init+0x14c>)
 8020b8a:	f004 f91d 	bl	8024dc8 <osThreadNew>
 8020b8e:	4b2e      	ldr	r3, [pc, #184]	; (8020c48 <MX_FREERTOS_Init+0x150>)
 8020b90:	6018      	str	r0, [r3, #0]
  myTask02Handle = osThreadNew(StartTask02, NULL, &myTask02_attributes);
 8020b92:	4a2e      	ldr	r2, [pc, #184]	; (8020c4c <MX_FREERTOS_Init+0x154>)
 8020b94:	2100      	movs	r1, #0
 8020b96:	482e      	ldr	r0, [pc, #184]	; (8020c50 <MX_FREERTOS_Init+0x158>)
 8020b98:	f004 f916 	bl	8024dc8 <osThreadNew>
 8020b9c:	4b2d      	ldr	r3, [pc, #180]	; (8020c54 <MX_FREERTOS_Init+0x15c>)
 8020b9e:	6018      	str	r0, [r3, #0]
  myTask03Handle = osThreadNew(StartTask03, NULL, &myTask03_attributes);
 8020ba0:	4a2d      	ldr	r2, [pc, #180]	; (8020c58 <MX_FREERTOS_Init+0x160>)
 8020ba2:	2100      	movs	r1, #0
 8020ba4:	482d      	ldr	r0, [pc, #180]	; (8020c5c <MX_FREERTOS_Init+0x164>)
 8020ba6:	f004 f90f 	bl	8024dc8 <osThreadNew>
 8020baa:	4b2d      	ldr	r3, [pc, #180]	; (8020c60 <MX_FREERTOS_Init+0x168>)
 8020bac:	6018      	str	r0, [r3, #0]
  myTask04Handle = osThreadNew(StartTask04, NULL, &myTask04_attributes);
 8020bae:	4a2d      	ldr	r2, [pc, #180]	; (8020c64 <MX_FREERTOS_Init+0x16c>)
 8020bb0:	2100      	movs	r1, #0
 8020bb2:	482d      	ldr	r0, [pc, #180]	; (8020c68 <MX_FREERTOS_Init+0x170>)
 8020bb4:	f004 f908 	bl	8024dc8 <osThreadNew>
 8020bb8:	4b2c      	ldr	r3, [pc, #176]	; (8020c6c <MX_FREERTOS_Init+0x174>)
 8020bba:	6018      	str	r0, [r3, #0]
  myTask05Handle = osThreadNew(StartTask05, NULL, &myTask05_attributes);
 8020bbc:	4a2c      	ldr	r2, [pc, #176]	; (8020c70 <MX_FREERTOS_Init+0x178>)
 8020bbe:	2100      	movs	r1, #0
 8020bc0:	482c      	ldr	r0, [pc, #176]	; (8020c74 <MX_FREERTOS_Init+0x17c>)
 8020bc2:	f004 f901 	bl	8024dc8 <osThreadNew>
 8020bc6:	4b2c      	ldr	r3, [pc, #176]	; (8020c78 <MX_FREERTOS_Init+0x180>)
 8020bc8:	6018      	str	r0, [r3, #0]
  myTask06Handle = osThreadNew(StartTask06, NULL, &myTask06_attributes);
 8020bca:	4a2c      	ldr	r2, [pc, #176]	; (8020c7c <MX_FREERTOS_Init+0x184>)
 8020bcc:	2100      	movs	r1, #0
 8020bce:	482c      	ldr	r0, [pc, #176]	; (8020c80 <MX_FREERTOS_Init+0x188>)
 8020bd0:	f004 f8fa 	bl	8024dc8 <osThreadNew>
 8020bd4:	4b2b      	ldr	r3, [pc, #172]	; (8020c84 <MX_FREERTOS_Init+0x18c>)
 8020bd6:	6018      	str	r0, [r3, #0]
  myEvent01Handle = osEventFlagsNew(&myEvent01_attributes);
 8020bd8:	482b      	ldr	r0, [pc, #172]	; (8020c88 <MX_FREERTOS_Init+0x190>)
 8020bda:	f004 f997 	bl	8024f0c <osEventFlagsNew>
 8020bde:	4b2b      	ldr	r3, [pc, #172]	; (8020c8c <MX_FREERTOS_Init+0x194>)
 8020be0:	6018      	str	r0, [r3, #0]
  myEvent02Handle = osEventFlagsNew(&myEvent02_attributes);
 8020be2:	482b      	ldr	r0, [pc, #172]	; (8020c90 <MX_FREERTOS_Init+0x198>)
 8020be4:	f004 f992 	bl	8024f0c <osEventFlagsNew>
 8020be8:	4b2a      	ldr	r3, [pc, #168]	; (8020c94 <MX_FREERTOS_Init+0x19c>)
 8020bea:	6018      	str	r0, [r3, #0]
}
 8020bec:	bd08      	pop	{r3, pc}
 8020bee:	bf00      	nop
 8020bf0:	0802fc54 	.word	0x0802fc54
 8020bf4:	2000d180 	.word	0x2000d180
 8020bf8:	0802fc64 	.word	0x0802fc64
 8020bfc:	2000d184 	.word	0x2000d184
 8020c00:	0802fbe4 	.word	0x0802fbe4
 8020c04:	2000d170 	.word	0x2000d170
 8020c08:	0802fbf4 	.word	0x0802fbf4
 8020c0c:	2000d168 	.word	0x2000d168
 8020c10:	0802fc04 	.word	0x0802fc04
 8020c14:	2000d148 	.word	0x2000d148
 8020c18:	0802fc14 	.word	0x0802fc14
 8020c1c:	2000d190 	.word	0x2000d190
 8020c20:	0802fc24 	.word	0x0802fc24
 8020c24:	2000d138 	.word	0x2000d138
 8020c28:	0802fc74 	.word	0x0802fc74
 8020c2c:	2000d178 	.word	0x2000d178
 8020c30:	0802fc8c 	.word	0x0802fc8c
 8020c34:	2000d188 	.word	0x2000d188
 8020c38:	0802fca4 	.word	0x0802fca4
 8020c3c:	2000d17c 	.word	0x2000d17c
 8020c40:	0802fbc0 	.word	0x0802fbc0
 8020c44:	080206f1 	.word	0x080206f1
 8020c48:	2000d134 	.word	0x2000d134
 8020c4c:	0802fcbc 	.word	0x0802fcbc
 8020c50:	08020891 	.word	0x08020891
 8020c54:	2000d16c 	.word	0x2000d16c
 8020c58:	0802fce0 	.word	0x0802fce0
 8020c5c:	08020955 	.word	0x08020955
 8020c60:	2000d174 	.word	0x2000d174
 8020c64:	0802fd04 	.word	0x0802fd04
 8020c68:	08020971 	.word	0x08020971
 8020c6c:	2000d144 	.word	0x2000d144
 8020c70:	0802fd28 	.word	0x0802fd28
 8020c74:	080209a1 	.word	0x080209a1
 8020c78:	2000d140 	.word	0x2000d140
 8020c7c:	0802fd4c 	.word	0x0802fd4c
 8020c80:	080209bd 	.word	0x080209bd
 8020c84:	2000d18c 	.word	0x2000d18c
 8020c88:	0802fc34 	.word	0x0802fc34
 8020c8c:	2000d13c 	.word	0x2000d13c
 8020c90:	0802fc44 	.word	0x0802fc44
 8020c94:	2000d164 	.word	0x2000d164

08020c98 <MX_GPIO_Init>:
        * EXTI
        * Free pins are configured automatically as Analog (this feature is enabled through
        * the Code Generation settings)
*/
void MX_GPIO_Init(void)
{
 8020c98:	e92d 41f0 	stmdb	sp!, {r4, r5, r6, r7, r8, lr}
 8020c9c:	b08a      	sub	sp, #40	; 0x28

  GPIO_InitTypeDef GPIO_InitStruct = {0};
 8020c9e:	2400      	movs	r4, #0
 8020ca0:	9405      	str	r4, [sp, #20]
 8020ca2:	9406      	str	r4, [sp, #24]
 8020ca4:	9407      	str	r4, [sp, #28]
 8020ca6:	9408      	str	r4, [sp, #32]
 8020ca8:	9409      	str	r4, [sp, #36]	; 0x24

  /* GPIO Ports Clock Enable */
  __HAL_RCC_GPIOC_CLK_ENABLE();
 8020caa:	9400      	str	r4, [sp, #0]
 8020cac:	4b46      	ldr	r3, [pc, #280]	; (8020dc8 <MX_GPIO_Init+0x130>)
 8020cae:	6b1a      	ldr	r2, [r3, #48]	; 0x30
 8020cb0:	f042 0204 	orr.w	r2, r2, #4
 8020cb4:	631a      	str	r2, [r3, #48]	; 0x30
 8020cb6:	6b1a      	ldr	r2, [r3, #48]	; 0x30
 8020cb8:	f002 0204 	and.w	r2, r2, #4
 8020cbc:	9200      	str	r2, [sp, #0]
 8020cbe:	9a00      	ldr	r2, [sp, #0]
  __HAL_RCC_GPIOH_CLK_ENABLE();
 8020cc0:	9401      	str	r4, [sp, #4]
 8020cc2:	6b1a      	ldr	r2, [r3, #48]	; 0x30
 8020cc4:	f042 0280 	orr.w	r2, r2, #128	; 0x80
 8020cc8:	631a      	str	r2, [r3, #48]	; 0x30
 8020cca:	6b1a      	ldr	r2, [r3, #48]	; 0x30
 8020ccc:	f002 0280 	and.w	r2, r2, #128	; 0x80
 8020cd0:	9201      	str	r2, [sp, #4]
 8020cd2:	9a01      	ldr	r2, [sp, #4]
  __HAL_RCC_GPIOA_CLK_ENABLE();
 8020cd4:	9402      	str	r4, [sp, #8]
 8020cd6:	6b1a      	ldr	r2, [r3, #48]	; 0x30
 8020cd8:	f042 0201 	orr.w	r2, r2, #1
 8020cdc:	631a      	str	r2, [r3, #48]	; 0x30
 8020cde:	6b1a      	ldr	r2, [r3, #48]	; 0x30
 8020ce0:	f002 0201 	and.w	r2, r2, #1
 8020ce4:	9202      	str	r2, [sp, #8]
 8020ce6:	9a02      	ldr	r2, [sp, #8]
  __HAL_RCC_GPIOB_CLK_ENABLE();
 8020ce8:	9403      	str	r4, [sp, #12]
 8020cea:	6b1a      	ldr	r2, [r3, #48]	; 0x30
 8020cec:	f042 0202 	orr.w	r2, r2, #2
 8020cf0:	631a      	str	r2, [r3, #48]	; 0x30
 8020cf2:	6b1a      	ldr	r2, [r3, #48]	; 0x30
 8020cf4:	f002 0202 	and.w	r2, r2, #2
 8020cf8:	9203      	str	r2, [sp, #12]
 8020cfa:	9a03      	ldr	r2, [sp, #12]
  __HAL_RCC_GPIOD_CLK_ENABLE();
 8020cfc:	9404      	str	r4, [sp, #16]
 8020cfe:	6b1a      	ldr	r2, [r3, #48]	; 0x30
 8020d00:	f042 0208 	orr.w	r2, r2, #8
 8020d04:	631a      	str	r2, [r3, #48]	; 0x30
 8020d06:	6b1b      	ldr	r3, [r3, #48]	; 0x30
 8020d08:	f003 0308 	and.w	r3, r3, #8
 8020d0c:	9304      	str	r3, [sp, #16]
 8020d0e:	9b04      	ldr	r3, [sp, #16]

  /*Configure GPIO pin Output Level */
  HAL_GPIO_WritePin(GPIOC, KA10_OILPUMP_Pin|KA11_BAGFORWARD_Pin|KA12_BAGREVERSE_Pin|KA1_Pin
 8020d10:	4e2e      	ldr	r6, [pc, #184]	; (8020dcc <MX_GPIO_Init+0x134>)
 8020d12:	4622      	mov	r2, r4
 8020d14:	f24e 011f 	movw	r1, #57375	; 0xe01f
 8020d18:	4630      	mov	r0, r6
 8020d1a:	f001 fd87 	bl	802282c <HAL_GPIO_WritePin>
                          |KA2_Pin|KA3_Pin|KA4_Pin|BELL_Pin, GPIO_PIN_RESET);

  /*Configure GPIO pin Output Level */
  HAL_GPIO_WritePin(GPIOA, KA5_Pin|KA6_Pin|KA7_Pin|KA8_Pin
 8020d1e:	4d2c      	ldr	r5, [pc, #176]	; (8020dd0 <MX_GPIO_Init+0x138>)
 8020d20:	4622      	mov	r2, r4
 8020d22:	21ff      	movs	r1, #255	; 0xff
 8020d24:	4628      	mov	r0, r5
 8020d26:	f001 fd81 	bl	802282c <HAL_GPIO_WritePin>
                          |KA9_Pin|KA_BK1_Pin|KA_BK2_Pin|KA_BK3_Pin, GPIO_PIN_RESET);

  /*Configure GPIO pin Output Level */
  HAL_GPIO_WritePin(GPIOB, LED_RED_Pin|LED_GREEN_Pin|LED_YELLOW_Pin|RS485_RW6_Pin, GPIO_PIN_RESET);
 8020d2a:	4f2a      	ldr	r7, [pc, #168]	; (8020dd4 <MX_GPIO_Init+0x13c>)
 8020d2c:	4622      	mov	r2, r4
 8020d2e:	f248 0107 	movw	r1, #32775	; 0x8007
 8020d32:	4638      	mov	r0, r7
 8020d34:	f001 fd7a 	bl	802282c <HAL_GPIO_WritePin>

  /*Configure GPIO pins : PCPin PCPin PCPin PCPin
                           PCPin PCPin PCPin PCPin */
  GPIO_InitStruct.Pin = KA10_OILPUMP_Pin|KA11_BAGFORWARD_Pin|KA12_BAGREVERSE_Pin|KA1_Pin
 8020d38:	f24e 031f 	movw	r3, #57375	; 0xe01f
 8020d3c:	9305      	str	r3, [sp, #20]
                          |KA2_Pin|KA3_Pin|KA4_Pin|BELL_Pin;
  GPIO_InitStruct.Mode = GPIO_MODE_OUTPUT_PP;
 8020d3e:	f04f 0801 	mov.w	r8, #1
 8020d42:	f8cd 8018 	str.w	r8, [sp, #24]
  GPIO_InitStruct.Pull = GPIO_NOPULL;
 8020d46:	9407      	str	r4, [sp, #28]
  GPIO_InitStruct.Speed = GPIO_SPEED_FREQ_LOW;
 8020d48:	9408      	str	r4, [sp, #32]
  HAL_GPIO_Init(GPIOC, &GPIO_InitStruct);
 8020d4a:	a905      	add	r1, sp, #20
 8020d4c:	4630      	mov	r0, r6
 8020d4e:	f001 fc23 	bl	8022598 <HAL_GPIO_Init>

  /*Configure GPIO pins : PAPin PAPin PAPin PAPin
                           PAPin PAPin PAPin PAPin */
  GPIO_InitStruct.Pin = KA5_Pin|KA6_Pin|KA7_Pin|KA8_Pin
 8020d52:	23ff      	movs	r3, #255	; 0xff
 8020d54:	9305      	str	r3, [sp, #20]
                          |KA9_Pin|KA_BK1_Pin|KA_BK2_Pin|KA_BK3_Pin;
  GPIO_InitStruct.Mode = GPIO_MODE_OUTPUT_PP;
 8020d56:	f8cd 8018 	str.w	r8, [sp, #24]
  GPIO_InitStruct.Pull = GPIO_NOPULL;
 8020d5a:	9407      	str	r4, [sp, #28]
  GPIO_InitStruct.Speed = GPIO_SPEED_FREQ_LOW;
 8020d5c:	9408      	str	r4, [sp, #32]
  HAL_GPIO_Init(GPIOA, &GPIO_InitStruct);
 8020d5e:	a905      	add	r1, sp, #20
 8020d60:	4628      	mov	r0, r5
 8020d62:	f001 fc19 	bl	8022598 <HAL_GPIO_Init>

  /*Configure GPIO pins : PBPin PBPin PBPin PBPin */
  GPIO_InitStruct.Pin = LED_RED_Pin|LED_GREEN_Pin|LED_YELLOW_Pin|RS485_RW6_Pin;
 8020d66:	f248 0307 	movw	r3, #32775	; 0x8007
 8020d6a:	9305      	str	r3, [sp, #20]
  GPIO_InitStruct.Mode = GPIO_MODE_OUTPUT_PP;
 8020d6c:	f8cd 8018 	str.w	r8, [sp, #24]
  GPIO_InitStruct.Pull = GPIO_NOPULL;
 8020d70:	9407      	str	r4, [sp, #28]
  GPIO_InitStruct.Speed = GPIO_SPEED_FREQ_LOW;
 8020d72:	9408      	str	r4, [sp, #32]
  HAL_GPIO_Init(GPIOB, &GPIO_InitStruct);
 8020d74:	a905      	add	r1, sp, #20
 8020d76:	4638      	mov	r0, r7
 8020d78:	f001 fc0e 	bl	8022598 <HAL_GPIO_Init>

  /*Configure GPIO pins : PBPin PBPin PBPin PBPin
                           PBPin PBPin PBPin PBPin
                           PBPin PBPin */
  GPIO_InitStruct.Pin = D_BK2_Pin|D_BK1_Pin|D_CATCHBAG_DOWN_Pin|I_MOTOROVERLOAD_Pin
 8020d7c:	f247 33f8 	movw	r3, #29688	; 0x73f8
 8020d80:	9305      	str	r3, [sp, #20]
                          |I_OILPUMPOVERLOAD_Pin|K_AUTO_Pin|K_HAND_Pin|K_STOP_Pin
                          |K_AUTORUN_Pin|K_EMERGENCY_Pin;
  GPIO_InitStruct.Mode = GPIO_MODE_INPUT;
 8020d82:	9406      	str	r4, [sp, #24]
  GPIO_InitStruct.Pull = GPIO_NOPULL;
 8020d84:	9407      	str	r4, [sp, #28]
  HAL_GPIO_Init(GPIOB, &GPIO_InitStruct);
 8020d86:	a905      	add	r1, sp, #20
 8020d88:	4638      	mov	r0, r7
 8020d8a:	f001 fc05 	bl	8022598 <HAL_GPIO_Init>

  /*Configure GPIO pins : PCPin PCPin PCPin PCPin
                           PCPin */
  GPIO_InitStruct.Pin = D_CATCHBAG_UP_Pin|D_PUSHBAG_RIGHT_Pin|D_PRESSHEAD_UP_Pin|D_TURNBAG_DOWN_Pin
 8020d8e:	f44f 53f8 	mov.w	r3, #7936	; 0x1f00
 8020d92:	9305      	str	r3, [sp, #20]
                          |D_TURNBAG_UP_Pin;
  GPIO_InitStruct.Mode = GPIO_MODE_INPUT;
 8020d94:	9406      	str	r4, [sp, #24]
  GPIO_InitStruct.Pull = GPIO_NOPULL;
 8020d96:	9407      	str	r4, [sp, #28]
  HAL_GPIO_Init(GPIOC, &GPIO_InitStruct);
 8020d98:	a905      	add	r1, sp, #20
 8020d9a:	4630      	mov	r0, r6
 8020d9c:	f001 fbfc 	bl	8022598 <HAL_GPIO_Init>

  /*Configure GPIO pins : PAPin PAPin PAPin PAPin */
  GPIO_InitStruct.Pin = D_PUSHBAG_LEFT_Pin|D_BOARD_DOWN_Pin|D_BOARD_UP_Pin|D_PRESSHEAD_DOWN_Pin;
 8020da0:	f44f 4319 	mov.w	r3, #39168	; 0x9900
 8020da4:	9305      	str	r3, [sp, #20]
  GPIO_InitStruct.Mode = GPIO_MODE_INPUT;
 8020da6:	9406      	str	r4, [sp, #24]
  GPIO_InitStruct.Pull = GPIO_NOPULL;
 8020da8:	9407      	str	r4, [sp, #28]
  HAL_GPIO_Init(GPIOA, &GPIO_InitStruct);
 8020daa:	a905      	add	r1, sp, #20
 8020dac:	4628      	mov	r0, r5
 8020dae:	f001 fbf3 	bl	8022598 <HAL_GPIO_Init>

  /*Configure GPIO pin : PtPin */
  GPIO_InitStruct.Pin = I_PHASEERROR_Pin;
 8020db2:	2304      	movs	r3, #4
 8020db4:	9305      	str	r3, [sp, #20]
  GPIO_InitStruct.Mode = GPIO_MODE_INPUT;
 8020db6:	9406      	str	r4, [sp, #24]
  GPIO_InitStruct.Pull = GPIO_NOPULL;
 8020db8:	9407      	str	r4, [sp, #28]
  HAL_GPIO_Init(I_PHASEERROR_GPIO_Port, &GPIO_InitStruct);
 8020dba:	a905      	add	r1, sp, #20
 8020dbc:	4806      	ldr	r0, [pc, #24]	; (8020dd8 <MX_GPIO_Init+0x140>)
 8020dbe:	f001 fbeb 	bl	8022598 <HAL_GPIO_Init>

}
 8020dc2:	b00a      	add	sp, #40	; 0x28
 8020dc4:	e8bd 81f0 	ldmia.w	sp!, {r4, r5, r6, r7, r8, pc}
 8020dc8:	40023800 	.word	0x40023800
 8020dcc:	40020800 	.word	0x40020800
 8020dd0:	40020000 	.word	0x40020000
 8020dd4:	40020400 	.word	0x40020400
 8020dd8:	40020c00 	.word	0x40020c00

08020ddc <MX_IWDG_Init>:

IWDG_HandleTypeDef hiwdg;

/* IWDG init function */
void MX_IWDG_Init(void)
{
 8020ddc:	b508      	push	{r3, lr}
  /* USER CODE END IWDG_Init 0 */

  /* USER CODE BEGIN IWDG_Init 1 */

  /* USER CODE END IWDG_Init 1 */
  hiwdg.Instance = IWDG;
 8020dde:	4807      	ldr	r0, [pc, #28]	; (8020dfc <MX_IWDG_Init+0x20>)
 8020de0:	4b07      	ldr	r3, [pc, #28]	; (8020e00 <MX_IWDG_Init+0x24>)
 8020de2:	6003      	str	r3, [r0, #0]
  hiwdg.Init.Prescaler = IWDG_PRESCALER_128;
 8020de4:	2305      	movs	r3, #5
 8020de6:	6043      	str	r3, [r0, #4]
  hiwdg.Init.Reload = 4095;
 8020de8:	f640 73ff 	movw	r3, #4095	; 0xfff
 8020dec:	6083      	str	r3, [r0, #8]
  if (HAL_IWDG_Init(&hiwdg) != HAL_OK)
 8020dee:	f001 fd4f 	bl	8022890 <HAL_IWDG_Init>
 8020df2:	b900      	cbnz	r0, 8020df6 <MX_IWDG_Init+0x1a>
  }
  /* USER CODE BEGIN IWDG_Init 2 */

  /* USER CODE END IWDG_Init 2 */

}
 8020df4:	bd08      	pop	{r3, pc}
    Error_Handler();
 8020df6:	f000 f80f 	bl	8020e18 <Error_Handler>
}
 8020dfa:	e7fb      	b.n	8020df4 <MX_IWDG_Init+0x18>
 8020dfc:	2000d194 	.word	0x2000d194
 8020e00:	40003000 	.word	0x40003000

08020e04 <HAL_TIM_PeriodElapsedCallback>:
  * a global variable "uwTick" used as application time base.
  * @param  htim : TIM handle
  * @retval None
  */
void HAL_TIM_PeriodElapsedCallback(TIM_HandleTypeDef *htim)
{
 8020e04:	b508      	push	{r3, lr}
  /* USER CODE BEGIN Callback 0 */

  /* USER CODE END Callback 0 */
  if (htim->Instance == TIM2) {
 8020e06:	6803      	ldr	r3, [r0, #0]
 8020e08:	f1b3 4f80 	cmp.w	r3, #1073741824	; 0x40000000
 8020e0c:	d000      	beq.n	8020e10 <HAL_TIM_PeriodElapsedCallback+0xc>
    HAL_IncTick();
  }
  /* USER CODE BEGIN Callback 1 */

  /* USER CODE END Callback 1 */
}
 8020e0e:	bd08      	pop	{r3, pc}
    HAL_IncTick();
 8020e10:	f000 fd5a 	bl	80218c8 <HAL_IncTick>
}
 8020e14:	e7fb      	b.n	8020e0e <HAL_TIM_PeriodElapsedCallback+0xa>
	...

08020e18 <Error_Handler>:
/**
  * @brief  This function is executed in case of error occurrence.
  * @retval None
  */
void Error_Handler(void)
{
 8020e18:	b508      	push	{r3, lr}
  \details Disables IRQ interrupts by setting the I-bit in the CPSR.
           Can only be executed in Privileged modes.
 */
__STATIC_FORCEINLINE void __disable_irq(void)
{
  __ASM volatile ("cpsid i" : : : "memory");
 8020e1a:	b672      	cpsid	i
  /* USER CODE BEGIN Error_Handler_Debug */
	/* User can add his own implementation to report the HAL error return state */
	__disable_irq();
	while (1) {
		DEBUG_L("Error_Handler\r\n");
 8020e1c:	4801      	ldr	r0, [pc, #4]	; (8020e24 <Error_Handler+0xc>)
 8020e1e:	f00d fe01 	bl	802ea24 <debug_printf>
	while (1) {
 8020e22:	e7fb      	b.n	8020e1c <Error_Handler+0x4>
 8020e24:	0802fd70 	.word	0x0802fd70

08020e28 <SystemClock_Config>:
{
 8020e28:	b500      	push	{lr}
 8020e2a:	b095      	sub	sp, #84	; 0x54
  RCC_OscInitTypeDef RCC_OscInitStruct = {0};
 8020e2c:	2234      	movs	r2, #52	; 0x34
 8020e2e:	2100      	movs	r1, #0
 8020e30:	a807      	add	r0, sp, #28
 8020e32:	f00e f9ad 	bl	802f190 <memset>
  RCC_ClkInitTypeDef RCC_ClkInitStruct = {0};
 8020e36:	2300      	movs	r3, #0
 8020e38:	9302      	str	r3, [sp, #8]
 8020e3a:	9303      	str	r3, [sp, #12]
 8020e3c:	9304      	str	r3, [sp, #16]
 8020e3e:	9305      	str	r3, [sp, #20]
 8020e40:	9306      	str	r3, [sp, #24]
  __HAL_RCC_PWR_CLK_ENABLE();
 8020e42:	9300      	str	r3, [sp, #0]
 8020e44:	4a20      	ldr	r2, [pc, #128]	; (8020ec8 <SystemClock_Config+0xa0>)
 8020e46:	6c11      	ldr	r1, [r2, #64]	; 0x40
 8020e48:	f041 5180 	orr.w	r1, r1, #268435456	; 0x10000000
 8020e4c:	6411      	str	r1, [r2, #64]	; 0x40
 8020e4e:	6c12      	ldr	r2, [r2, #64]	; 0x40
 8020e50:	f002 5280 	and.w	r2, r2, #268435456	; 0x10000000
 8020e54:	9200      	str	r2, [sp, #0]
 8020e56:	9a00      	ldr	r2, [sp, #0]
  __HAL_PWR_VOLTAGESCALING_CONFIG(PWR_REGULATOR_VOLTAGE_SCALE1);
 8020e58:	9301      	str	r3, [sp, #4]
 8020e5a:	4b1c      	ldr	r3, [pc, #112]	; (8020ecc <SystemClock_Config+0xa4>)
 8020e5c:	681a      	ldr	r2, [r3, #0]
 8020e5e:	f442 4240 	orr.w	r2, r2, #49152	; 0xc000
 8020e62:	601a      	str	r2, [r3, #0]
 8020e64:	681b      	ldr	r3, [r3, #0]
 8020e66:	f403 4340 	and.w	r3, r3, #49152	; 0xc000
 8020e6a:	9301      	str	r3, [sp, #4]
 8020e6c:	9b01      	ldr	r3, [sp, #4]
  RCC_OscInitStruct.OscillatorType = RCC_OSCILLATORTYPE_LSI|RCC_OSCILLATORTYPE_HSE;
 8020e6e:	2309      	movs	r3, #9
 8020e70:	9307      	str	r3, [sp, #28]
  RCC_OscInitStruct.HSEState = RCC_HSE_ON;
 8020e72:	f44f 3380 	mov.w	r3, #65536	; 0x10000
 8020e76:	9308      	str	r3, [sp, #32]
  RCC_OscInitStruct.LSIState = RCC_LSI_ON;
 8020e78:	2301      	movs	r3, #1
 8020e7a:	930c      	str	r3, [sp, #48]	; 0x30
  RCC_OscInitStruct.PLL.PLLState = RCC_PLL_ON;
 8020e7c:	2302      	movs	r3, #2
 8020e7e:	930d      	str	r3, [sp, #52]	; 0x34
  RCC_OscInitStruct.PLL.PLLSource = RCC_PLLSOURCE_HSE;
 8020e80:	f44f 0280 	mov.w	r2, #4194304	; 0x400000
 8020e84:	920e      	str	r2, [sp, #56]	; 0x38
  RCC_OscInitStruct.PLL.PLLM = 4;
 8020e86:	2204      	movs	r2, #4
 8020e88:	920f      	str	r2, [sp, #60]	; 0x3c
  RCC_OscInitStruct.PLL.PLLN = 100;
 8020e8a:	2264      	movs	r2, #100	; 0x64
 8020e8c:	9210      	str	r2, [sp, #64]	; 0x40
  RCC_OscInitStruct.PLL.PLLP = RCC_PLLP_DIV2;
 8020e8e:	9311      	str	r3, [sp, #68]	; 0x44
  RCC_OscInitStruct.PLL.PLLQ = 2;
 8020e90:	9312      	str	r3, [sp, #72]	; 0x48
  RCC_OscInitStruct.PLL.PLLR = 2;
 8020e92:	9313      	str	r3, [sp, #76]	; 0x4c
  if (HAL_RCC_OscConfig(&RCC_OscInitStruct) != HAL_OK)
 8020e94:	a807      	add	r0, sp, #28
 8020e96:	f002 f9a3 	bl	80231e0 <HAL_RCC_OscConfig>
 8020e9a:	b988      	cbnz	r0, 8020ec0 <SystemClock_Config+0x98>
  RCC_ClkInitStruct.ClockType = RCC_CLOCKTYPE_HCLK|RCC_CLOCKTYPE_SYSCLK
 8020e9c:	230f      	movs	r3, #15
 8020e9e:	9302      	str	r3, [sp, #8]
  RCC_ClkInitStruct.SYSCLKSource = RCC_SYSCLKSOURCE_PLLCLK;
 8020ea0:	2302      	movs	r3, #2
 8020ea2:	9303      	str	r3, [sp, #12]
  RCC_ClkInitStruct.AHBCLKDivider = RCC_SYSCLK_DIV1;
 8020ea4:	2300      	movs	r3, #0
 8020ea6:	9304      	str	r3, [sp, #16]
  RCC_ClkInitStruct.APB1CLKDivider = RCC_HCLK_DIV2;
 8020ea8:	f44f 5280 	mov.w	r2, #4096	; 0x1000
 8020eac:	9205      	str	r2, [sp, #20]
  RCC_ClkInitStruct.APB2CLKDivider = RCC_HCLK_DIV1;
 8020eae:	9306      	str	r3, [sp, #24]
  if (HAL_RCC_ClockConfig(&RCC_ClkInitStruct, FLASH_LATENCY_3) != HAL_OK)
 8020eb0:	2103      	movs	r1, #3
 8020eb2:	a802      	add	r0, sp, #8
 8020eb4:	f001 fda2 	bl	80229fc <HAL_RCC_ClockConfig>
 8020eb8:	b920      	cbnz	r0, 8020ec4 <SystemClock_Config+0x9c>
}
 8020eba:	b015      	add	sp, #84	; 0x54
 8020ebc:	f85d fb04 	ldr.w	pc, [sp], #4
    Error_Handler();
 8020ec0:	f7ff ffaa 	bl	8020e18 <Error_Handler>
    Error_Handler();
 8020ec4:	f7ff ffa8 	bl	8020e18 <Error_Handler>
 8020ec8:	40023800 	.word	0x40023800
 8020ecc:	40007000 	.word	0x40007000

08020ed0 <main>:
{
 8020ed0:	b508      	push	{r3, lr}
	SCB->VTOR = FLASH_BASE | APPLICATION_ADDRESS;
 8020ed2:	4b20      	ldr	r3, [pc, #128]	; (8020f54 <main+0x84>)
 8020ed4:	4a20      	ldr	r2, [pc, #128]	; (8020f58 <main+0x88>)
 8020ed6:	609a      	str	r2, [r3, #8]
  __ASM volatile ("cpsie i" : : : "memory");
 8020ed8:	b662      	cpsie	i
  HAL_Init();
 8020eda:	f000 fcdb 	bl	8021894 <HAL_Init>
  SystemClock_Config();
 8020ede:	f7ff ffa3 	bl	8020e28 <SystemClock_Config>
  MX_GPIO_Init();
 8020ee2:	f7ff fed9 	bl	8020c98 <MX_GPIO_Init>
  MX_DMA_Init();
 8020ee6:	f7ff fbb7 	bl	8020658 <MX_DMA_Init>
  MX_RTC_Init();
 8020eea:	f000 f83f 	bl	8020f6c <MX_RTC_Init>
  MX_TIM6_Init();
 8020eee:	f000 f9d1 	bl	8021294 <MX_TIM6_Init>
  MX_TIM7_Init();
 8020ef2:	f000 f9f7 	bl	80212e4 <MX_TIM7_Init>
  MX_USART1_UART_Init();
 8020ef6:	f000 fa73 	bl	80213e0 <MX_USART1_UART_Init>
  MX_USART3_UART_Init();
 8020efa:	f000 fa8b 	bl	8021414 <MX_USART3_UART_Init>
  MX_USART6_UART_Init();
 8020efe:	f000 faa3 	bl	8021448 <MX_USART6_UART_Init>
  MX_IWDG_Init();
 8020f02:	f7ff ff6b 	bl	8020ddc <MX_IWDG_Init>
  MX_TIM10_Init();
 8020f06:	f000 fa05 	bl	8021314 <MX_TIM10_Init>
  	MODS_Ini();
 8020f0a:	f00b fab7 	bl	802c47c <MODS_Ini>
	Usart_DamIdle();
 8020f0e:	f007 f941 	bl	8028194 <Usart_DamIdle>
	HAL_FLASH_Unlock();
 8020f12:	f001 f9bd 	bl	8022290 <HAL_FLASH_Unlock>
	EE_Init();
 8020f16:	f008 f90d 	bl	8029134 <EE_Init>
	sysguard_ini();
 8020f1a:	f00e f891 	bl	802f040 <sysguard_ini>
	screen_ini();
 8020f1e:	f008 fab9 	bl	8029494 <screen_ini>
	input_initial();
 8020f22:	f006 fe59 	bl	8027bd8 <input_initial>
	HAL_TIM_Base_Start_IT(&htim6);
 8020f26:	480d      	ldr	r0, [pc, #52]	; (8020f5c <main+0x8c>)
 8020f28:	f002 fee6 	bl	8023cf8 <HAL_TIM_Base_Start_IT>
	softTimer_Init();
 8020f2c:	f00d ffca 	bl	802eec4 <softTimer_Init>
	DEBUG_L("*****************************************\r\n");
 8020f30:	4c0b      	ldr	r4, [pc, #44]	; (8020f60 <main+0x90>)
 8020f32:	4620      	mov	r0, r4
 8020f34:	f00d fd76 	bl	802ea24 <debug_printf>
	DEBUG_L("**  APP FOR PACKAGE! VER:2.2 24/02/29    \r\n");
 8020f38:	480a      	ldr	r0, [pc, #40]	; (8020f64 <main+0x94>)
 8020f3a:	f00d fd73 	bl	802ea24 <debug_printf>
	DEBUG_L("*****************************************\r\n");
 8020f3e:	4620      	mov	r0, r4
 8020f40:	f00d fd70 	bl	802ea24 <debug_printf>
  osKernelInitialize();  /* Call init function for freertos objects (in freertos.c) */
 8020f44:	f003 ff12 	bl	8024d6c <osKernelInitialize>
  MX_FREERTOS_Init();
 8020f48:	f7ff fdd6 	bl	8020af8 <MX_FREERTOS_Init>
  osKernelStart();
 8020f4c:	f003 ff20 	bl	8024d90 <osKernelStart>
	while (1) {
 8020f50:	e7fe      	b.n	8020f50 <main+0x80>
 8020f52:	bf00      	nop
 8020f54:	e000ed00 	.word	0xe000ed00
 8020f58:	08020000 	.word	0x08020000
 8020f5c:	2000d250 	.word	0x2000d250
 8020f60:	0802fd80 	.word	0x0802fd80
 8020f64:	0802fdac 	.word	0x0802fdac

08020f68 <assert_failed>:
{
  /* USER CODE BEGIN 6 */
	/* User can add his own implementation to report the file name and line number,
	 ex: printf("Wrong parameters value: file %s on line %d\r\n", file, line) */
  /* USER CODE END 6 */
}
 8020f68:	4770      	bx	lr
	...

08020f6c <MX_RTC_Init>:

RTC_HandleTypeDef hrtc;

/* RTC init function */
void MX_RTC_Init(void)
{
 8020f6c:	b500      	push	{lr}
 8020f6e:	b087      	sub	sp, #28

  /* USER CODE BEGIN RTC_Init 0 */

  /* USER CODE END RTC_Init 0 */

  RTC_TimeTypeDef sTime = {0};
 8020f70:	2300      	movs	r3, #0
 8020f72:	9301      	str	r3, [sp, #4]
 8020f74:	9302      	str	r3, [sp, #8]
 8020f76:	9303      	str	r3, [sp, #12]
 8020f78:	9304      	str	r3, [sp, #16]
 8020f7a:	9305      	str	r3, [sp, #20]
  RTC_DateTypeDef sDate = {0};
 8020f7c:	9300      	str	r3, [sp, #0]

  /* USER CODE END RTC_Init 1 */

  /** Initialize RTC Only
  */
  hrtc.Instance = RTC;
 8020f7e:	481c      	ldr	r0, [pc, #112]	; (8020ff0 <MX_RTC_Init+0x84>)
 8020f80:	4a1c      	ldr	r2, [pc, #112]	; (8020ff4 <MX_RTC_Init+0x88>)
 8020f82:	6002      	str	r2, [r0, #0]
  hrtc.Init.HourFormat = RTC_HOURFORMAT_24;
 8020f84:	6043      	str	r3, [r0, #4]
  hrtc.Init.AsynchPrediv = 127;
 8020f86:	227f      	movs	r2, #127	; 0x7f
 8020f88:	6082      	str	r2, [r0, #8]
  hrtc.Init.SynchPrediv = 255;
 8020f8a:	22ff      	movs	r2, #255	; 0xff
 8020f8c:	60c2      	str	r2, [r0, #12]
  hrtc.Init.OutPut = RTC_OUTPUT_DISABLE;
 8020f8e:	6103      	str	r3, [r0, #16]
  hrtc.Init.OutPutPolarity = RTC_OUTPUT_POLARITY_HIGH;
 8020f90:	6143      	str	r3, [r0, #20]
  hrtc.Init.OutPutType = RTC_OUTPUT_TYPE_OPENDRAIN;
 8020f92:	6183      	str	r3, [r0, #24]
  if (HAL_RTC_Init(&hrtc) != HAL_OK)
 8020f94:	f002 fc10 	bl	80237b8 <HAL_RTC_Init>
 8020f98:	bb00      	cbnz	r0, 8020fdc <MX_RTC_Init+0x70>

  /* USER CODE END Check_RTC_BKUP */

  /** Initialize RTC and set the Time and Date
  */
  sTime.Hours = 0x0;
 8020f9a:	2300      	movs	r3, #0
 8020f9c:	f88d 3004 	strb.w	r3, [sp, #4]
  sTime.Minutes = 0x0;
 8020fa0:	f88d 3005 	strb.w	r3, [sp, #5]
  sTime.Seconds = 0x0;
 8020fa4:	f88d 3006 	strb.w	r3, [sp, #6]
  sTime.DayLightSaving = RTC_DAYLIGHTSAVING_NONE;
 8020fa8:	9304      	str	r3, [sp, #16]
  sTime.StoreOperation = RTC_STOREOPERATION_RESET;
 8020faa:	9305      	str	r3, [sp, #20]
  if (HAL_RTC_SetTime(&hrtc, &sTime, RTC_FORMAT_BCD) != HAL_OK)
 8020fac:	2201      	movs	r2, #1
 8020fae:	a901      	add	r1, sp, #4
 8020fb0:	480f      	ldr	r0, [pc, #60]	; (8020ff0 <MX_RTC_Init+0x84>)
 8020fb2:	f002 fcb3 	bl	802391c <HAL_RTC_SetTime>
 8020fb6:	b9a0      	cbnz	r0, 8020fe2 <MX_RTC_Init+0x76>
  {
    Error_Handler();
  }
  sDate.WeekDay = RTC_WEEKDAY_MONDAY;
 8020fb8:	2201      	movs	r2, #1
 8020fba:	f88d 2000 	strb.w	r2, [sp]
  sDate.Month = RTC_MONTH_JANUARY;
 8020fbe:	f88d 2001 	strb.w	r2, [sp, #1]
  sDate.Date = 0x1;
 8020fc2:	f88d 2002 	strb.w	r2, [sp, #2]
  sDate.Year = 0x0;
 8020fc6:	2300      	movs	r3, #0
 8020fc8:	f88d 3003 	strb.w	r3, [sp, #3]

  if (HAL_RTC_SetDate(&hrtc, &sDate, RTC_FORMAT_BCD) != HAL_OK)
 8020fcc:	4669      	mov	r1, sp
 8020fce:	4808      	ldr	r0, [pc, #32]	; (8020ff0 <MX_RTC_Init+0x84>)
 8020fd0:	f002 fdc0 	bl	8023b54 <HAL_RTC_SetDate>
 8020fd4:	b940      	cbnz	r0, 8020fe8 <MX_RTC_Init+0x7c>
  }
  /* USER CODE BEGIN RTC_Init 2 */

  /* USER CODE END RTC_Init 2 */

}
 8020fd6:	b007      	add	sp, #28
 8020fd8:	f85d fb04 	ldr.w	pc, [sp], #4
    Error_Handler();
 8020fdc:	f7ff ff1c 	bl	8020e18 <Error_Handler>
 8020fe0:	e7db      	b.n	8020f9a <MX_RTC_Init+0x2e>
    Error_Handler();
 8020fe2:	f7ff ff19 	bl	8020e18 <Error_Handler>
 8020fe6:	e7e7      	b.n	8020fb8 <MX_RTC_Init+0x4c>
    Error_Handler();
 8020fe8:	f7ff ff16 	bl	8020e18 <Error_Handler>
}
 8020fec:	e7f3      	b.n	8020fd6 <MX_RTC_Init+0x6a>
 8020fee:	bf00      	nop
 8020ff0:	2000d1a0 	.word	0x2000d1a0
 8020ff4:	40002800 	.word	0x40002800

08020ff8 <HAL_RTC_MspInit>:

void HAL_RTC_MspInit(RTC_HandleTypeDef* rtcHandle)
{
 8020ff8:	b510      	push	{r4, lr}
 8020ffa:	b090      	sub	sp, #64	; 0x40
 8020ffc:	4604      	mov	r4, r0

  RCC_PeriphCLKInitTypeDef PeriphClkInitStruct = {0};
 8020ffe:	223c      	movs	r2, #60	; 0x3c
 8021000:	2100      	movs	r1, #0
 8021002:	a801      	add	r0, sp, #4
 8021004:	f00e f8c4 	bl	802f190 <memset>
  if(rtcHandle->Instance==RTC)
 8021008:	6822      	ldr	r2, [r4, #0]
 802100a:	4b0a      	ldr	r3, [pc, #40]	; (8021034 <HAL_RTC_MspInit+0x3c>)
 802100c:	429a      	cmp	r2, r3
 802100e:	d001      	beq.n	8021014 <HAL_RTC_MspInit+0x1c>
    __HAL_RCC_RTC_ENABLE();
  /* USER CODE BEGIN RTC_MspInit 1 */

  /* USER CODE END RTC_MspInit 1 */
  }
}
 8021010:	b010      	add	sp, #64	; 0x40
 8021012:	bd10      	pop	{r4, pc}
    PeriphClkInitStruct.PeriphClockSelection = RCC_PERIPHCLK_RTC;
 8021014:	2308      	movs	r3, #8
 8021016:	9301      	str	r3, [sp, #4]
    PeriphClkInitStruct.RTCClockSelection = RCC_RTCCLKSOURCE_LSI;
 8021018:	f44f 7300 	mov.w	r3, #512	; 0x200
 802101c:	9308      	str	r3, [sp, #32]
    if (HAL_RCCEx_PeriphCLKConfig(&PeriphClkInitStruct) != HAL_OK)
 802101e:	a801      	add	r0, sp, #4
 8021020:	f001 fe3e 	bl	8022ca0 <HAL_RCCEx_PeriphCLKConfig>
 8021024:	b918      	cbnz	r0, 802102e <HAL_RTC_MspInit+0x36>
    __HAL_RCC_RTC_ENABLE();
 8021026:	4b04      	ldr	r3, [pc, #16]	; (8021038 <HAL_RTC_MspInit+0x40>)
 8021028:	2201      	movs	r2, #1
 802102a:	601a      	str	r2, [r3, #0]
}
 802102c:	e7f0      	b.n	8021010 <HAL_RTC_MspInit+0x18>
      Error_Handler();
 802102e:	f7ff fef3 	bl	8020e18 <Error_Handler>
 8021032:	e7f8      	b.n	8021026 <HAL_RTC_MspInit+0x2e>
 8021034:	40002800 	.word	0x40002800
 8021038:	42470e3c 	.word	0x42470e3c

0802103c <HAL_MspInit>:
/* USER CODE END 0 */
/**
  * Initializes the Global MSP.
  */
void HAL_MspInit(void)
{
 802103c:	b500      	push	{lr}
 802103e:	b083      	sub	sp, #12
  /* USER CODE BEGIN MspInit 0 */

  /* USER CODE END MspInit 0 */

  __HAL_RCC_SYSCFG_CLK_ENABLE();
 8021040:	2200      	movs	r2, #0
 8021042:	9200      	str	r2, [sp, #0]
 8021044:	4b0d      	ldr	r3, [pc, #52]	; (802107c <HAL_MspInit+0x40>)
 8021046:	6c59      	ldr	r1, [r3, #68]	; 0x44
 8021048:	f441 4180 	orr.w	r1, r1, #16384	; 0x4000
 802104c:	6459      	str	r1, [r3, #68]	; 0x44
 802104e:	6c59      	ldr	r1, [r3, #68]	; 0x44
 8021050:	f401 4180 	and.w	r1, r1, #16384	; 0x4000
 8021054:	9100      	str	r1, [sp, #0]
 8021056:	9900      	ldr	r1, [sp, #0]
  __HAL_RCC_PWR_CLK_ENABLE();
 8021058:	9201      	str	r2, [sp, #4]
 802105a:	6c19      	ldr	r1, [r3, #64]	; 0x40
 802105c:	f041 5180 	orr.w	r1, r1, #268435456	; 0x10000000
 8021060:	6419      	str	r1, [r3, #64]	; 0x40
 8021062:	6c1b      	ldr	r3, [r3, #64]	; 0x40
 8021064:	f003 5380 	and.w	r3, r3, #268435456	; 0x10000000
 8021068:	9301      	str	r3, [sp, #4]
 802106a:	9b01      	ldr	r3, [sp, #4]

  /* System interrupt init*/
  /* PendSV_IRQn interrupt configuration */
  HAL_NVIC_SetPriority(PendSV_IRQn, 15, 0);
 802106c:	210f      	movs	r1, #15
 802106e:	f06f 0001 	mvn.w	r0, #1
 8021072:	f000 fc59 	bl	8021928 <HAL_NVIC_SetPriority>

  /* USER CODE BEGIN MspInit 1 */

  /* USER CODE END MspInit 1 */
}
 8021076:	b003      	add	sp, #12
 8021078:	f85d fb04 	ldr.w	pc, [sp], #4
 802107c:	40023800 	.word	0x40023800

08021080 <HAL_InitTick>:
  *         reset by HAL_Init() or at any time when clock is configured, by HAL_RCC_ClockConfig().
  * @param  TickPriority: Tick interrupt priority.
  * @retval HAL status
  */
HAL_StatusTypeDef HAL_InitTick(uint32_t TickPriority)
{
 8021080:	b510      	push	{r4, lr}
 8021082:	b088      	sub	sp, #32
 8021084:	4601      	mov	r1, r0
  RCC_ClkInitTypeDef    clkconfig;
  uint32_t              uwTimclock = 0;
  uint32_t              uwPrescalerValue = 0;
  uint32_t              pFLatency;
  /*Configure the TIM2 IRQ priority */
  HAL_NVIC_SetPriority(TIM2_IRQn, TickPriority ,0);
 8021086:	2200      	movs	r2, #0
 8021088:	201c      	movs	r0, #28
 802108a:	f000 fc4d 	bl	8021928 <HAL_NVIC_SetPriority>

  /* Enable the TIM2 global Interrupt */
  HAL_NVIC_EnableIRQ(TIM2_IRQn);
 802108e:	201c      	movs	r0, #28
 8021090:	f000 fc90 	bl	80219b4 <HAL_NVIC_EnableIRQ>

  /* Enable TIM2 clock */
  __HAL_RCC_TIM2_CLK_ENABLE();
 8021094:	2400      	movs	r4, #0
 8021096:	9401      	str	r4, [sp, #4]
 8021098:	4b14      	ldr	r3, [pc, #80]	; (80210ec <HAL_InitTick+0x6c>)
 802109a:	6c1a      	ldr	r2, [r3, #64]	; 0x40
 802109c:	f042 0201 	orr.w	r2, r2, #1
 80210a0:	641a      	str	r2, [r3, #64]	; 0x40
 80210a2:	6c1b      	ldr	r3, [r3, #64]	; 0x40
 80210a4:	f003 0301 	and.w	r3, r3, #1
 80210a8:	9301      	str	r3, [sp, #4]
 80210aa:	9b01      	ldr	r3, [sp, #4]

  /* Get clock configuration */
  HAL_RCC_GetClockConfig(&clkconfig, &pFLatency);
 80210ac:	a902      	add	r1, sp, #8
 80210ae:	a803      	add	r0, sp, #12
 80210b0:	f001 fdd8 	bl	8022c64 <HAL_RCC_GetClockConfig>

  /* Compute TIM2 clock */
  uwTimclock = 2*HAL_RCC_GetPCLK1Freq();
 80210b4:	f001 fdb6 	bl	8022c24 <HAL_RCC_GetPCLK1Freq>
 80210b8:	0043      	lsls	r3, r0, #1
  /* Compute the prescaler value to have TIM2 counter clock equal to 1MHz */
  uwPrescalerValue = (uint32_t) ((uwTimclock / 1000000U) - 1U);
 80210ba:	480d      	ldr	r0, [pc, #52]	; (80210f0 <HAL_InitTick+0x70>)
 80210bc:	fba0 2303 	umull	r2, r3, r0, r3
 80210c0:	0c9b      	lsrs	r3, r3, #18
 80210c2:	3b01      	subs	r3, #1

  /* Initialize TIM2 */
  htim2.Instance = TIM2;
 80210c4:	480b      	ldr	r0, [pc, #44]	; (80210f4 <HAL_InitTick+0x74>)
 80210c6:	f04f 4280 	mov.w	r2, #1073741824	; 0x40000000
 80210ca:	6002      	str	r2, [r0, #0]
  + Period = [(TIM2CLK/1000) - 1]. to have a (1/1000) s time base.
  + Prescaler = (uwTimclock/1000000 - 1) to have a 1MHz counter clock.
  + ClockDivision = 0
  + Counter direction = Up
  */
  htim2.Init.Period = (1000000U / 1000U) - 1U;
 80210cc:	f240 32e7 	movw	r2, #999	; 0x3e7
 80210d0:	60c2      	str	r2, [r0, #12]
  htim2.Init.Prescaler = uwPrescalerValue;
 80210d2:	6043      	str	r3, [r0, #4]
  htim2.Init.ClockDivision = 0;
 80210d4:	6104      	str	r4, [r0, #16]
  htim2.Init.CounterMode = TIM_COUNTERMODE_UP;
 80210d6:	6084      	str	r4, [r0, #8]

  if(HAL_TIM_Base_Init(&htim2) == HAL_OK)
 80210d8:	f002 ffb8 	bl	802404c <HAL_TIM_Base_Init>
 80210dc:	b110      	cbz	r0, 80210e4 <HAL_InitTick+0x64>
    /* Start the TIM time Base generation in interrupt mode */
    return HAL_TIM_Base_Start_IT(&htim2);
  }

  /* Return function status */
  return HAL_ERROR;
 80210de:	2001      	movs	r0, #1
}
 80210e0:	b008      	add	sp, #32
 80210e2:	bd10      	pop	{r4, pc}
    return HAL_TIM_Base_Start_IT(&htim2);
 80210e4:	4803      	ldr	r0, [pc, #12]	; (80210f4 <HAL_InitTick+0x74>)
 80210e6:	f002 fe07 	bl	8023cf8 <HAL_TIM_Base_Start_IT>
 80210ea:	e7f9      	b.n	80210e0 <HAL_InitTick+0x60>
 80210ec:	40023800 	.word	0x40023800
 80210f0:	431bde83 	.word	0x431bde83
 80210f4:	2000d1c0 	.word	0x2000d1c0

080210f8 <NMI_Handler>:
/******************************************************************************/
/**
  * @brief This function handles Non maskable interrupt.
  */
void NMI_Handler(void)
{
 80210f8:	b508      	push	{r3, lr}
  /* USER CODE BEGIN NonMaskableInt_IRQn 0 */
	DEBUG_L("NMI_Handler\r\n");
 80210fa:	4802      	ldr	r0, [pc, #8]	; (8021104 <NMI_Handler+0xc>)
 80210fc:	f00d fc92 	bl	802ea24 <debug_printf>
  /* USER CODE END NonMaskableInt_IRQn 0 */
  /* USER CODE BEGIN NonMaskableInt_IRQn 1 */
  while (1)
 8021100:	e7fe      	b.n	8021100 <NMI_Handler+0x8>
 8021102:	bf00      	nop
 8021104:	0802fdd8 	.word	0x0802fdd8

08021108 <HardFault_Handler>:

/**
  * @brief This function handles Hard fault interrupt.
  */
void HardFault_Handler(void)
{
 8021108:	b508      	push	{r3, lr}
  /* USER CODE BEGIN HardFault_IRQn 0 */
	DEBUG_L("HardFault_Handler\r\n");
 802110a:	4802      	ldr	r0, [pc, #8]	; (8021114 <HardFault_Handler+0xc>)
 802110c:	f00d fc8a 	bl	802ea24 <debug_printf>
  /* USER CODE END HardFault_IRQn 0 */
  while (1)
 8021110:	e7fe      	b.n	8021110 <HardFault_Handler+0x8>
 8021112:	bf00      	nop
 8021114:	0802fde8 	.word	0x0802fde8

08021118 <MemManage_Handler>:

/**
  * @brief This function handles Memory management fault.
  */
void MemManage_Handler(void)
{
 8021118:	b508      	push	{r3, lr}
  /* USER CODE BEGIN MemoryManagement_IRQn 0 */
	DEBUG_L("MemManage_Handler\r\n");
 802111a:	4802      	ldr	r0, [pc, #8]	; (8021124 <MemManage_Handler+0xc>)
 802111c:	f00d fc82 	bl	802ea24 <debug_printf>
  /* USER CODE END MemoryManagement_IRQn 0 */
  while (1)
 8021120:	e7fe      	b.n	8021120 <MemManage_Handler+0x8>
 8021122:	bf00      	nop
 8021124:	0802fdfc 	.word	0x0802fdfc

08021128 <BusFault_Handler>:

/**
  * @brief This function handles Pre-fetch fault, memory access fault.
  */
void BusFault_Handler(void)
{
 8021128:	b508      	push	{r3, lr}
  /* USER CODE BEGIN BusFault_IRQn 0 */
	DEBUG_L("BusFault_Handler\r\n");
 802112a:	4802      	ldr	r0, [pc, #8]	; (8021134 <BusFault_Handler+0xc>)
 802112c:	f00d fc7a 	bl	802ea24 <debug_printf>
  /* USER CODE END BusFault_IRQn 0 */
  while (1)
 8021130:	e7fe      	b.n	8021130 <BusFault_Handler+0x8>
 8021132:	bf00      	nop
 8021134:	0802fe10 	.word	0x0802fe10

08021138 <UsageFault_Handler>:

/**
  * @brief This function handles Undefined instruction or illegal state.
  */
void UsageFault_Handler(void)
{
 8021138:	b508      	push	{r3, lr}
  /* USER CODE BEGIN UsageFault_IRQn 0 */
	DEBUG_L("UsageFault_Handler\r\n");
 802113a:	4802      	ldr	r0, [pc, #8]	; (8021144 <UsageFault_Handler+0xc>)
 802113c:	f00d fc72 	bl	802ea24 <debug_printf>
  /* USER CODE END UsageFault_IRQn 0 */
  while (1)
 8021140:	e7fe      	b.n	8021140 <UsageFault_Handler+0x8>
 8021142:	bf00      	nop
 8021144:	0802fe24 	.word	0x0802fe24

08021148 <DebugMon_Handler>:

/**
  * @brief This function handles Debug monitor.
  */
void DebugMon_Handler(void)
{
 8021148:	b508      	push	{r3, lr}
  /* USER CODE BEGIN DebugMonitor_IRQn 0 */
	DEBUG_L("DebugMon_Handler\r\n");
 802114a:	4802      	ldr	r0, [pc, #8]	; (8021154 <DebugMon_Handler+0xc>)
 802114c:	f00d fc6a 	bl	802ea24 <debug_printf>
  /* USER CODE END DebugMonitor_IRQn 0 */
  /* USER CODE BEGIN DebugMonitor_IRQn 1 */

  /* USER CODE END DebugMonitor_IRQn 1 */
}
 8021150:	bd08      	pop	{r3, pc}
 8021152:	bf00      	nop
 8021154:	0802fe3c 	.word	0x0802fe3c

08021158 <DMA1_Stream1_IRQHandler>:

/**
  * @brief This function handles DMA1 stream1 global interrupt.
  */
void DMA1_Stream1_IRQHandler(void)
{
 8021158:	b508      	push	{r3, lr}
  /* USER CODE BEGIN DMA1_Stream1_IRQn 0 */

  /* USER CODE END DMA1_Stream1_IRQn 0 */
  HAL_DMA_IRQHandler(&hdma_usart3_rx);
 802115a:	4802      	ldr	r0, [pc, #8]	; (8021164 <DMA1_Stream1_IRQHandler+0xc>)
 802115c:	f000 feb4 	bl	8021ec8 <HAL_DMA_IRQHandler>
  /* USER CODE BEGIN DMA1_Stream1_IRQn 1 */

  /* USER CODE END DMA1_Stream1_IRQn 1 */
}
 8021160:	bd08      	pop	{r3, pc}
 8021162:	bf00      	nop
 8021164:	2000d340 	.word	0x2000d340

08021168 <DMA1_Stream3_IRQHandler>:

/**
  * @brief This function handles DMA1 stream3 global interrupt.
  */
void DMA1_Stream3_IRQHandler(void)
{
 8021168:	b508      	push	{r3, lr}
  /* USER CODE BEGIN DMA1_Stream3_IRQn 0 */

  /* USER CODE END DMA1_Stream3_IRQn 0 */
  HAL_DMA_IRQHandler(&hdma_usart3_tx);
 802116a:	4802      	ldr	r0, [pc, #8]	; (8021174 <DMA1_Stream3_IRQHandler+0xc>)
 802116c:	f000 feac 	bl	8021ec8 <HAL_DMA_IRQHandler>
  /* USER CODE BEGIN DMA1_Stream3_IRQn 1 */

  /* USER CODE END DMA1_Stream3_IRQn 1 */
}
 8021170:	bd08      	pop	{r3, pc}
 8021172:	bf00      	nop
 8021174:	2000d3e4 	.word	0x2000d3e4

08021178 <TIM1_UP_TIM10_IRQHandler>:

/**
  * @brief This function handles TIM1 update interrupt and TIM10 global interrupt.
  */
void TIM1_UP_TIM10_IRQHandler(void)
{
 8021178:	b508      	push	{r3, lr}
  /* USER CODE BEGIN TIM1_UP_TIM10_IRQn 0 */

  /* USER CODE END TIM1_UP_TIM10_IRQn 0 */
  HAL_TIM_IRQHandler(&htim10);
 802117a:	4802      	ldr	r0, [pc, #8]	; (8021184 <TIM1_UP_TIM10_IRQHandler+0xc>)
 802117c:	f002 fe44 	bl	8023e08 <HAL_TIM_IRQHandler>
  /* USER CODE BEGIN TIM1_UP_TIM10_IRQn 1 */

  /* USER CODE END TIM1_UP_TIM10_IRQn 1 */
}
 8021180:	bd08      	pop	{r3, pc}
 8021182:	bf00      	nop
 8021184:	2000d208 	.word	0x2000d208

08021188 <TIM2_IRQHandler>:

/**
  * @brief This function handles TIM2 global interrupt.
  */
void TIM2_IRQHandler(void)
{
 8021188:	b508      	push	{r3, lr}
  /* USER CODE BEGIN TIM2_IRQn 0 */

  /* USER CODE END TIM2_IRQn 0 */
  HAL_TIM_IRQHandler(&htim2);
 802118a:	4802      	ldr	r0, [pc, #8]	; (8021194 <TIM2_IRQHandler+0xc>)
 802118c:	f002 fe3c 	bl	8023e08 <HAL_TIM_IRQHandler>
  /* USER CODE BEGIN TIM2_IRQn 1 */

  /* USER CODE END TIM2_IRQn 1 */
}
 8021190:	bd08      	pop	{r3, pc}
 8021192:	bf00      	nop
 8021194:	2000d1c0 	.word	0x2000d1c0

08021198 <USART1_IRQHandler>:

/**
  * @brief This function handles USART1 global interrupt.
  */
void USART1_IRQHandler(void)
{
 8021198:	b510      	push	{r4, lr}
  /* USER CODE BEGIN USART1_IRQn 0 */
	USART1_RxIdleCallback(&huart1);
 802119a:	4c04      	ldr	r4, [pc, #16]	; (80211ac <USART1_IRQHandler+0x14>)
 802119c:	4620      	mov	r0, r4
 802119e:	f007 f831 	bl	8028204 <USART1_RxIdleCallback>
  /* USER CODE END USART1_IRQn 0 */
  HAL_UART_IRQHandler(&huart1);
 80211a2:	4620      	mov	r0, r4
 80211a4:	f003 fbcc 	bl	8024940 <HAL_UART_IRQHandler>
  /* USER CODE BEGIN USART1_IRQn 1 */

  /* USER CODE END USART1_IRQn 1 */
}
 80211a8:	bd10      	pop	{r4, pc}
 80211aa:	bf00      	nop
 80211ac:	2000d564 	.word	0x2000d564

080211b0 <USART3_IRQHandler>:

/**
  * @brief This function handles USART3 global interrupt.
  */
void USART3_IRQHandler(void)
{
 80211b0:	b510      	push	{r4, lr}
  /* USER CODE BEGIN USART3_IRQn 0 */
	USART3_RxIdleCallback(&huart3);
 80211b2:	4c04      	ldr	r4, [pc, #16]	; (80211c4 <USART3_IRQHandler+0x14>)
 80211b4:	4620      	mov	r0, r4
 80211b6:	f007 f865 	bl	8028284 <USART3_RxIdleCallback>
  /* USER CODE END USART3_IRQn 0 */
  HAL_UART_IRQHandler(&huart3);
 80211ba:	4620      	mov	r0, r4
 80211bc:	f003 fbc0 	bl	8024940 <HAL_UART_IRQHandler>
  /* USER CODE BEGIN USART3_IRQn 1 */

  /* USER CODE END USART3_IRQn 1 */
}
 80211c0:	bd10      	pop	{r4, pc}
 80211c2:	bf00      	nop
 80211c4:	2000d3a0 	.word	0x2000d3a0

080211c8 <TIM6_IRQHandler>:

/**
  * @brief This function handles TIM6 global interrupt.
  */
void TIM6_IRQHandler(void)
{
 80211c8:	b508      	push	{r3, lr}
  /* USER CODE BEGIN TIM6_IRQn 0 */
	tickCnt_Update();
 80211ca:	f00d fe6d 	bl	802eea8 <tickCnt_Update>
	mytim_ticupdate();
 80211ce:	f00c fc03 	bl	802d9d8 <mytim_ticupdate>
  /* USER CODE END TIM6_IRQn 0 */
  HAL_TIM_IRQHandler(&htim6);
 80211d2:	4802      	ldr	r0, [pc, #8]	; (80211dc <TIM6_IRQHandler+0x14>)
 80211d4:	f002 fe18 	bl	8023e08 <HAL_TIM_IRQHandler>
  /* USER CODE BEGIN TIM6_IRQn 1 */

  /* USER CODE END TIM6_IRQn 1 */
}
 80211d8:	bd08      	pop	{r3, pc}
 80211da:	bf00      	nop
 80211dc:	2000d250 	.word	0x2000d250

080211e0 <DMA2_Stream1_IRQHandler>:

/**
  * @brief This function handles DMA2 stream1 global interrupt.
  */
void DMA2_Stream1_IRQHandler(void)
{
 80211e0:	b508      	push	{r3, lr}
  /* USER CODE BEGIN DMA2_Stream1_IRQn 0 */

  /* USER CODE END DMA2_Stream1_IRQn 0 */
  HAL_DMA_IRQHandler(&hdma_usart6_rx);
 80211e2:	4802      	ldr	r0, [pc, #8]	; (80211ec <DMA2_Stream1_IRQHandler+0xc>)
 80211e4:	f000 fe70 	bl	8021ec8 <HAL_DMA_IRQHandler>
  /* USER CODE BEGIN DMA2_Stream1_IRQn 1 */

  /* USER CODE END DMA2_Stream1_IRQn 1 */
}
 80211e8:	bd08      	pop	{r3, pc}
 80211ea:	bf00      	nop
 80211ec:	2000d2e0 	.word	0x2000d2e0

080211f0 <DMA2_Stream2_IRQHandler>:

/**
  * @brief This function handles DMA2 stream2 global interrupt.
  */
void DMA2_Stream2_IRQHandler(void)
{
 80211f0:	b508      	push	{r3, lr}
  /* USER CODE BEGIN DMA2_Stream2_IRQn 0 */

  /* USER CODE END DMA2_Stream2_IRQn 0 */
  HAL_DMA_IRQHandler(&hdma_usart1_rx);
 80211f2:	4802      	ldr	r0, [pc, #8]	; (80211fc <DMA2_Stream2_IRQHandler+0xc>)
 80211f4:	f000 fe68 	bl	8021ec8 <HAL_DMA_IRQHandler>
  /* USER CODE BEGIN DMA2_Stream2_IRQn 1 */

  /* USER CODE END DMA2_Stream2_IRQn 1 */
}
 80211f8:	bd08      	pop	{r3, pc}
 80211fa:	bf00      	nop
 80211fc:	2000d504 	.word	0x2000d504

08021200 <DMA2_Stream6_IRQHandler>:

/**
  * @brief This function handles DMA2 stream6 global interrupt.
  */
void DMA2_Stream6_IRQHandler(void)
{
 8021200:	b508      	push	{r3, lr}
  /* USER CODE BEGIN DMA2_Stream6_IRQn 0 */

  /* USER CODE END DMA2_Stream6_IRQn 0 */
  HAL_DMA_IRQHandler(&hdma_usart6_tx);
 8021202:	4802      	ldr	r0, [pc, #8]	; (802120c <DMA2_Stream6_IRQHandler+0xc>)
 8021204:	f000 fe60 	bl	8021ec8 <HAL_DMA_IRQHandler>
  /* USER CODE BEGIN DMA2_Stream6_IRQn 1 */

  /* USER CODE END DMA2_Stream6_IRQn 1 */
}
 8021208:	bd08      	pop	{r3, pc}
 802120a:	bf00      	nop
 802120c:	2000d4a4 	.word	0x2000d4a4

08021210 <DMA2_Stream7_IRQHandler>:

/**
  * @brief This function handles DMA2 stream7 global interrupt.
  */
void DMA2_Stream7_IRQHandler(void)
{
 8021210:	b508      	push	{r3, lr}
  /* USER CODE BEGIN DMA2_Stream7_IRQn 0 */

  /* USER CODE END DMA2_Stream7_IRQn 0 */
  HAL_DMA_IRQHandler(&hdma_usart1_tx);
 8021212:	4802      	ldr	r0, [pc, #8]	; (802121c <DMA2_Stream7_IRQHandler+0xc>)
 8021214:	f000 fe58 	bl	8021ec8 <HAL_DMA_IRQHandler>
  /* USER CODE BEGIN DMA2_Stream7_IRQn 1 */

  /* USER CODE END DMA2_Stream7_IRQn 1 */
}
 8021218:	bd08      	pop	{r3, pc}
 802121a:	bf00      	nop
 802121c:	2000d444 	.word	0x2000d444

08021220 <USART6_IRQHandler>:

/**
  * @brief This function handles USART6 global interrupt.
  */
void USART6_IRQHandler(void)
{
 8021220:	b510      	push	{r4, lr}
  /* USER CODE BEGIN USART6_IRQn 0 */
	USART6_RxIdleCallback(&huart6);
 8021222:	4c04      	ldr	r4, [pc, #16]	; (8021234 <USART6_IRQHandler+0x14>)
 8021224:	4620      	mov	r0, r4
 8021226:	f007 f86d 	bl	8028304 <USART6_RxIdleCallback>
  /* USER CODE END USART6_IRQn 0 */
  HAL_UART_IRQHandler(&huart6);
 802122a:	4620      	mov	r0, r4
 802122c:	f003 fb88 	bl	8024940 <HAL_UART_IRQHandler>
  /* USER CODE BEGIN USART6_IRQn 1 */

  /* USER CODE END USART6_IRQn 1 */
}
 8021230:	bd10      	pop	{r4, pc}
 8021232:	bf00      	nop
 8021234:	2000d5a8 	.word	0x2000d5a8

08021238 <_sbrk>:
 *
 * @param incr Memory size
 * @return Pointer to allocated memory
 */
void *_sbrk(ptrdiff_t incr)
{
 8021238:	b510      	push	{r4, lr}
 802123a:	4603      	mov	r3, r0
  extern uint8_t _end; /* Symbol defined in the linker script */
  extern uint8_t _estack; /* Symbol defined in the linker script */
  extern uint32_t _Min_Stack_Size; /* Symbol defined in the linker script */
  const uint32_t stack_limit = (uint32_t)&_estack - (uint32_t)&_Min_Stack_Size;
 802123c:	4a0c      	ldr	r2, [pc, #48]	; (8021270 <_sbrk+0x38>)
 802123e:	490d      	ldr	r1, [pc, #52]	; (8021274 <_sbrk+0x3c>)
  const uint8_t *max_heap = (uint8_t *)stack_limit;
  uint8_t *prev_heap_end;

  /* Initialize heap end at first call */
  if (NULL == __sbrk_heap_end)
 8021240:	480d      	ldr	r0, [pc, #52]	; (8021278 <_sbrk+0x40>)
 8021242:	6800      	ldr	r0, [r0, #0]
 8021244:	b140      	cbz	r0, 8021258 <_sbrk+0x20>
  {
    __sbrk_heap_end = &_end;
  }

  /* Protect heap from growing into the reserved MSP stack */
  if (__sbrk_heap_end + incr > max_heap)
 8021246:	480c      	ldr	r0, [pc, #48]	; (8021278 <_sbrk+0x40>)
 8021248:	6800      	ldr	r0, [r0, #0]
 802124a:	4403      	add	r3, r0
 802124c:	1a52      	subs	r2, r2, r1
 802124e:	4293      	cmp	r3, r2
 8021250:	d806      	bhi.n	8021260 <_sbrk+0x28>
    errno = ENOMEM;
    return (void *)-1;
  }

  prev_heap_end = __sbrk_heap_end;
  __sbrk_heap_end += incr;
 8021252:	4a09      	ldr	r2, [pc, #36]	; (8021278 <_sbrk+0x40>)
 8021254:	6013      	str	r3, [r2, #0]

  return (void *)prev_heap_end;
}
 8021256:	bd10      	pop	{r4, pc}
    __sbrk_heap_end = &_end;
 8021258:	4807      	ldr	r0, [pc, #28]	; (8021278 <_sbrk+0x40>)
 802125a:	4c08      	ldr	r4, [pc, #32]	; (802127c <_sbrk+0x44>)
 802125c:	6004      	str	r4, [r0, #0]
 802125e:	e7f2      	b.n	8021246 <_sbrk+0xe>
    errno = ENOMEM;
 8021260:	f00d ff5e 	bl	802f120 <__errno>
 8021264:	230c      	movs	r3, #12
 8021266:	6003      	str	r3, [r0, #0]
    return (void *)-1;
 8021268:	f04f 30ff 	mov.w	r0, #4294967295
 802126c:	e7f3      	b.n	8021256 <_sbrk+0x1e>
 802126e:	bf00      	nop
 8021270:	20040000 	.word	0x20040000
 8021274:	00004000 	.word	0x00004000
 8021278:	200001ec 	.word	0x200001ec
 802127c:	2000e720 	.word	0x2000e720

08021280 <SystemInit>:
  */
void SystemInit(void)
{
  /* FPU settings ------------------------------------------------------------*/
  #if (__FPU_PRESENT == 1) && (__FPU_USED == 1)
    SCB->CPACR |= ((3UL << 10*2)|(3UL << 11*2));  /* set CP10 and CP11 Full Access */
 8021280:	4a03      	ldr	r2, [pc, #12]	; (8021290 <SystemInit+0x10>)
 8021282:	f8d2 3088 	ldr.w	r3, [r2, #136]	; 0x88
 8021286:	f443 0370 	orr.w	r3, r3, #15728640	; 0xf00000
 802128a:	f8c2 3088 	str.w	r3, [r2, #136]	; 0x88

  /* Configure the Vector Table location -------------------------------------*/
#if defined(USER_VECT_TAB_ADDRESS)
  SCB->VTOR = VECT_TAB_BASE_ADDRESS | VECT_TAB_OFFSET; /* Vector Table Relocation in Internal SRAM */
#endif /* USER_VECT_TAB_ADDRESS */
}
 802128e:	4770      	bx	lr
 8021290:	e000ed00 	.word	0xe000ed00

08021294 <MX_TIM6_Init>:
TIM_HandleTypeDef htim7;
TIM_HandleTypeDef htim10;

/* TIM6 init function */
void MX_TIM6_Init(void)
{
 8021294:	b500      	push	{lr}
 8021296:	b083      	sub	sp, #12

  /* USER CODE BEGIN TIM6_Init 0 */

  /* USER CODE END TIM6_Init 0 */

  TIM_MasterConfigTypeDef sMasterConfig = {0};
 8021298:	2300      	movs	r3, #0
 802129a:	9300      	str	r3, [sp, #0]
 802129c:	9301      	str	r3, [sp, #4]

  /* USER CODE BEGIN TIM6_Init 1 */

  /* USER CODE END TIM6_Init 1 */
  htim6.Instance = TIM6;
 802129e:	480f      	ldr	r0, [pc, #60]	; (80212dc <MX_TIM6_Init+0x48>)
 80212a0:	4a0f      	ldr	r2, [pc, #60]	; (80212e0 <MX_TIM6_Init+0x4c>)
 80212a2:	6002      	str	r2, [r0, #0]
  htim6.Init.Prescaler = 9999;
 80212a4:	f242 720f 	movw	r2, #9999	; 0x270f
 80212a8:	6042      	str	r2, [r0, #4]
  htim6.Init.CounterMode = TIM_COUNTERMODE_UP;
 80212aa:	6083      	str	r3, [r0, #8]
  htim6.Init.Period = 1000;
 80212ac:	f44f 727a 	mov.w	r2, #1000	; 0x3e8
 80212b0:	60c2      	str	r2, [r0, #12]
  htim6.Init.AutoReloadPreload = TIM_AUTORELOAD_PRELOAD_DISABLE;
 80212b2:	6183      	str	r3, [r0, #24]
  if (HAL_TIM_Base_Init(&htim6) != HAL_OK)
 80212b4:	f002 feca 	bl	802404c <HAL_TIM_Base_Init>
 80212b8:	b950      	cbnz	r0, 80212d0 <MX_TIM6_Init+0x3c>
  {
    Error_Handler();
  }
  sMasterConfig.MasterOutputTrigger = TIM_TRGO_RESET;
 80212ba:	2300      	movs	r3, #0
 80212bc:	9300      	str	r3, [sp, #0]
  sMasterConfig.MasterSlaveMode = TIM_MASTERSLAVEMODE_DISABLE;
 80212be:	9301      	str	r3, [sp, #4]
  if (HAL_TIMEx_MasterConfigSynchronization(&htim6, &sMasterConfig) != HAL_OK)
 80212c0:	4669      	mov	r1, sp
 80212c2:	4806      	ldr	r0, [pc, #24]	; (80212dc <MX_TIM6_Init+0x48>)
 80212c4:	f002 ff5a 	bl	802417c <HAL_TIMEx_MasterConfigSynchronization>
 80212c8:	b928      	cbnz	r0, 80212d6 <MX_TIM6_Init+0x42>
  }
  /* USER CODE BEGIN TIM6_Init 2 */

  /* USER CODE END TIM6_Init 2 */

}
 80212ca:	b003      	add	sp, #12
 80212cc:	f85d fb04 	ldr.w	pc, [sp], #4
    Error_Handler();
 80212d0:	f7ff fda2 	bl	8020e18 <Error_Handler>
 80212d4:	e7f1      	b.n	80212ba <MX_TIM6_Init+0x26>
    Error_Handler();
 80212d6:	f7ff fd9f 	bl	8020e18 <Error_Handler>
}
 80212da:	e7f6      	b.n	80212ca <MX_TIM6_Init+0x36>
 80212dc:	2000d250 	.word	0x2000d250
 80212e0:	40001000 	.word	0x40001000

080212e4 <MX_TIM7_Init>:
/* TIM7 init function */
void MX_TIM7_Init(void)
{
 80212e4:	b508      	push	{r3, lr}
  /* USER CODE END TIM7_Init 0 */

  /* USER CODE BEGIN TIM7_Init 1 */

  /* USER CODE END TIM7_Init 1 */
  htim7.Instance = TIM7;
 80212e6:	4809      	ldr	r0, [pc, #36]	; (802130c <MX_TIM7_Init+0x28>)
 80212e8:	4b09      	ldr	r3, [pc, #36]	; (8021310 <MX_TIM7_Init+0x2c>)
 80212ea:	6003      	str	r3, [r0, #0]
  htim7.Init.Prescaler = 99;
 80212ec:	2363      	movs	r3, #99	; 0x63
 80212ee:	6043      	str	r3, [r0, #4]
  htim7.Init.CounterMode = TIM_COUNTERMODE_UP;
 80212f0:	2300      	movs	r3, #0
 80212f2:	6083      	str	r3, [r0, #8]
  htim7.Init.Period = 65535;
 80212f4:	f64f 72ff 	movw	r2, #65535	; 0xffff
 80212f8:	60c2      	str	r2, [r0, #12]
  htim7.Init.AutoReloadPreload = TIM_AUTORELOAD_PRELOAD_DISABLE;
 80212fa:	6183      	str	r3, [r0, #24]
  if (HAL_TIM_Base_Init(&htim7) != HAL_OK)
 80212fc:	f002 fea6 	bl	802404c <HAL_TIM_Base_Init>
 8021300:	b900      	cbnz	r0, 8021304 <MX_TIM7_Init+0x20>
  }
  /* USER CODE BEGIN TIM7_Init 2 */

  /* USER CODE END TIM7_Init 2 */

}
 8021302:	bd08      	pop	{r3, pc}
    Error_Handler();
 8021304:	f7ff fd88 	bl	8020e18 <Error_Handler>
}
 8021308:	e7fb      	b.n	8021302 <MX_TIM7_Init+0x1e>
 802130a:	bf00      	nop
 802130c:	2000d298 	.word	0x2000d298
 8021310:	40001400 	.word	0x40001400

08021314 <MX_TIM10_Init>:
/* TIM10 init function */
void MX_TIM10_Init(void)
{
 8021314:	b508      	push	{r3, lr}
  /* USER CODE END TIM10_Init 0 */

  /* USER CODE BEGIN TIM10_Init 1 */

  /* USER CODE END TIM10_Init 1 */
  htim10.Instance = TIM10;
 8021316:	480a      	ldr	r0, [pc, #40]	; (8021340 <MX_TIM10_Init+0x2c>)
 8021318:	4b0a      	ldr	r3, [pc, #40]	; (8021344 <MX_TIM10_Init+0x30>)
 802131a:	6003      	str	r3, [r0, #0]
  htim10.Init.Prescaler = 9999;
 802131c:	f242 730f 	movw	r3, #9999	; 0x270f
 8021320:	6043      	str	r3, [r0, #4]
  htim10.Init.CounterMode = TIM_COUNTERMODE_UP;
 8021322:	2300      	movs	r3, #0
 8021324:	6083      	str	r3, [r0, #8]
  htim10.Init.Period = 10000;
 8021326:	f242 7210 	movw	r2, #10000	; 0x2710
 802132a:	60c2      	str	r2, [r0, #12]
  htim10.Init.ClockDivision = TIM_CLOCKDIVISION_DIV1;
 802132c:	6103      	str	r3, [r0, #16]
  htim10.Init.AutoReloadPreload = TIM_AUTORELOAD_PRELOAD_DISABLE;
 802132e:	6183      	str	r3, [r0, #24]
  if (HAL_TIM_Base_Init(&htim10) != HAL_OK)
 8021330:	f002 fe8c 	bl	802404c <HAL_TIM_Base_Init>
 8021334:	b900      	cbnz	r0, 8021338 <MX_TIM10_Init+0x24>
  }
  /* USER CODE BEGIN TIM10_Init 2 */

  /* USER CODE END TIM10_Init 2 */

}
 8021336:	bd08      	pop	{r3, pc}
    Error_Handler();
 8021338:	f7ff fd6e 	bl	8020e18 <Error_Handler>
}
 802133c:	e7fb      	b.n	8021336 <MX_TIM10_Init+0x22>
 802133e:	bf00      	nop
 8021340:	2000d208 	.word	0x2000d208
 8021344:	40014400 	.word	0x40014400

08021348 <HAL_TIM_Base_MspInit>:

void HAL_TIM_Base_MspInit(TIM_HandleTypeDef* tim_baseHandle)
{
 8021348:	b500      	push	{lr}
 802134a:	b085      	sub	sp, #20

  if(tim_baseHandle->Instance==TIM6)
 802134c:	6803      	ldr	r3, [r0, #0]
 802134e:	4a20      	ldr	r2, [pc, #128]	; (80213d0 <HAL_TIM_Base_MspInit+0x88>)
 8021350:	4293      	cmp	r3, r2
 8021352:	d008      	beq.n	8021366 <HAL_TIM_Base_MspInit+0x1e>
    HAL_NVIC_EnableIRQ(TIM6_IRQn);
  /* USER CODE BEGIN TIM6_MspInit 1 */

  /* USER CODE END TIM6_MspInit 1 */
  }
  else if(tim_baseHandle->Instance==TIM7)
 8021354:	4a1f      	ldr	r2, [pc, #124]	; (80213d4 <HAL_TIM_Base_MspInit+0x8c>)
 8021356:	4293      	cmp	r3, r2
 8021358:	d019      	beq.n	802138e <HAL_TIM_Base_MspInit+0x46>
    __HAL_RCC_TIM7_CLK_ENABLE();
  /* USER CODE BEGIN TIM7_MspInit 1 */

  /* USER CODE END TIM7_MspInit 1 */
  }
  else if(tim_baseHandle->Instance==TIM10)
 802135a:	4a1f      	ldr	r2, [pc, #124]	; (80213d8 <HAL_TIM_Base_MspInit+0x90>)
 802135c:	4293      	cmp	r3, r2
 802135e:	d023      	beq.n	80213a8 <HAL_TIM_Base_MspInit+0x60>
    HAL_NVIC_EnableIRQ(TIM1_UP_TIM10_IRQn);
  /* USER CODE BEGIN TIM10_MspInit 1 */

  /* USER CODE END TIM10_MspInit 1 */
  }
}
 8021360:	b005      	add	sp, #20
 8021362:	f85d fb04 	ldr.w	pc, [sp], #4
    __HAL_RCC_TIM6_CLK_ENABLE();
 8021366:	2200      	movs	r2, #0
 8021368:	9201      	str	r2, [sp, #4]
 802136a:	4b1c      	ldr	r3, [pc, #112]	; (80213dc <HAL_TIM_Base_MspInit+0x94>)
 802136c:	6c19      	ldr	r1, [r3, #64]	; 0x40
 802136e:	f041 0110 	orr.w	r1, r1, #16
 8021372:	6419      	str	r1, [r3, #64]	; 0x40
 8021374:	6c1b      	ldr	r3, [r3, #64]	; 0x40
 8021376:	f003 0310 	and.w	r3, r3, #16
 802137a:	9301      	str	r3, [sp, #4]
 802137c:	9b01      	ldr	r3, [sp, #4]
    HAL_NVIC_SetPriority(TIM6_IRQn, 5, 0);
 802137e:	2105      	movs	r1, #5
 8021380:	2036      	movs	r0, #54	; 0x36
 8021382:	f000 fad1 	bl	8021928 <HAL_NVIC_SetPriority>
    HAL_NVIC_EnableIRQ(TIM6_IRQn);
 8021386:	2036      	movs	r0, #54	; 0x36
 8021388:	f000 fb14 	bl	80219b4 <HAL_NVIC_EnableIRQ>
 802138c:	e7e8      	b.n	8021360 <HAL_TIM_Base_MspInit+0x18>
    __HAL_RCC_TIM7_CLK_ENABLE();
 802138e:	2300      	movs	r3, #0
 8021390:	9302      	str	r3, [sp, #8]
 8021392:	4b12      	ldr	r3, [pc, #72]	; (80213dc <HAL_TIM_Base_MspInit+0x94>)
 8021394:	6c1a      	ldr	r2, [r3, #64]	; 0x40
 8021396:	f042 0220 	orr.w	r2, r2, #32
 802139a:	641a      	str	r2, [r3, #64]	; 0x40
 802139c:	6c1b      	ldr	r3, [r3, #64]	; 0x40
 802139e:	f003 0320 	and.w	r3, r3, #32
 80213a2:	9302      	str	r3, [sp, #8]
 80213a4:	9b02      	ldr	r3, [sp, #8]
 80213a6:	e7db      	b.n	8021360 <HAL_TIM_Base_MspInit+0x18>
    __HAL_RCC_TIM10_CLK_ENABLE();
 80213a8:	2200      	movs	r2, #0
 80213aa:	9203      	str	r2, [sp, #12]
 80213ac:	4b0b      	ldr	r3, [pc, #44]	; (80213dc <HAL_TIM_Base_MspInit+0x94>)
 80213ae:	6c59      	ldr	r1, [r3, #68]	; 0x44
 80213b0:	f441 3100 	orr.w	r1, r1, #131072	; 0x20000
 80213b4:	6459      	str	r1, [r3, #68]	; 0x44
 80213b6:	6c5b      	ldr	r3, [r3, #68]	; 0x44
 80213b8:	f403 3300 	and.w	r3, r3, #131072	; 0x20000
 80213bc:	9303      	str	r3, [sp, #12]
 80213be:	9b03      	ldr	r3, [sp, #12]
    HAL_NVIC_SetPriority(TIM1_UP_TIM10_IRQn, 5, 0);
 80213c0:	2105      	movs	r1, #5
 80213c2:	2019      	movs	r0, #25
 80213c4:	f000 fab0 	bl	8021928 <HAL_NVIC_SetPriority>
    HAL_NVIC_EnableIRQ(TIM1_UP_TIM10_IRQn);
 80213c8:	2019      	movs	r0, #25
 80213ca:	f000 faf3 	bl	80219b4 <HAL_NVIC_EnableIRQ>
}
 80213ce:	e7c7      	b.n	8021360 <HAL_TIM_Base_MspInit+0x18>
 80213d0:	40001000 	.word	0x40001000
 80213d4:	40001400 	.word	0x40001400
 80213d8:	40014400 	.word	0x40014400
 80213dc:	40023800 	.word	0x40023800

080213e0 <MX_USART1_UART_Init>:
DMA_HandleTypeDef hdma_usart6_tx;

/* USART1 init function */

void MX_USART1_UART_Init(void)
{
 80213e0:	b508      	push	{r3, lr}
  /* USER CODE END USART1_Init 0 */

  /* USER CODE BEGIN USART1_Init 1 */

  /* USER CODE END USART1_Init 1 */
  huart1.Instance = USART1;
 80213e2:	480a      	ldr	r0, [pc, #40]	; (802140c <MX_USART1_UART_Init+0x2c>)
 80213e4:	4b0a      	ldr	r3, [pc, #40]	; (8021410 <MX_USART1_UART_Init+0x30>)
 80213e6:	6003      	str	r3, [r0, #0]
  huart1.Init.BaudRate = 115200;
 80213e8:	f44f 33e1 	mov.w	r3, #115200	; 0x1c200
 80213ec:	6043      	str	r3, [r0, #4]
  huart1.Init.WordLength = UART_WORDLENGTH_8B;
 80213ee:	2300      	movs	r3, #0
 80213f0:	6083      	str	r3, [r0, #8]
  huart1.Init.StopBits = UART_STOPBITS_1;
 80213f2:	60c3      	str	r3, [r0, #12]
  huart1.Init.Parity = UART_PARITY_NONE;
 80213f4:	6103      	str	r3, [r0, #16]
  huart1.Init.Mode = UART_MODE_TX_RX;
 80213f6:	220c      	movs	r2, #12
 80213f8:	6142      	str	r2, [r0, #20]
  huart1.Init.HwFlowCtl = UART_HWCONTROL_NONE;
 80213fa:	6183      	str	r3, [r0, #24]
  huart1.Init.OverSampling = UART_OVERSAMPLING_16;
 80213fc:	61c3      	str	r3, [r0, #28]
  if (HAL_UART_Init(&huart1) != HAL_OK)
 80213fe:	f003 f8b7 	bl	8024570 <HAL_UART_Init>
 8021402:	b900      	cbnz	r0, 8021406 <MX_USART1_UART_Init+0x26>
  }
  /* USER CODE BEGIN USART1_Init 2 */

  /* USER CODE END USART1_Init 2 */

}
 8021404:	bd08      	pop	{r3, pc}
    Error_Handler();
 8021406:	f7ff fd07 	bl	8020e18 <Error_Handler>
}
 802140a:	e7fb      	b.n	8021404 <MX_USART1_UART_Init+0x24>
 802140c:	2000d564 	.word	0x2000d564
 8021410:	40011000 	.word	0x40011000

08021414 <MX_USART3_UART_Init>:
/* USART3 init function */

void MX_USART3_UART_Init(void)
{
 8021414:	b508      	push	{r3, lr}
  /* USER CODE END USART3_Init 0 */

  /* USER CODE BEGIN USART3_Init 1 */

  /* USER CODE END USART3_Init 1 */
  huart3.Instance = USART3;
 8021416:	480a      	ldr	r0, [pc, #40]	; (8021440 <MX_USART3_UART_Init+0x2c>)
 8021418:	4b0a      	ldr	r3, [pc, #40]	; (8021444 <MX_USART3_UART_Init+0x30>)
 802141a:	6003      	str	r3, [r0, #0]
  huart3.Init.BaudRate = 9600;
 802141c:	f44f 5316 	mov.w	r3, #9600	; 0x2580
 8021420:	6043      	str	r3, [r0, #4]
  huart3.Init.WordLength = UART_WORDLENGTH_8B;
 8021422:	2300      	movs	r3, #0
 8021424:	6083      	str	r3, [r0, #8]
  huart3.Init.StopBits = UART_STOPBITS_1;
 8021426:	60c3      	str	r3, [r0, #12]
  huart3.Init.Parity = UART_PARITY_NONE;
 8021428:	6103      	str	r3, [r0, #16]
  huart3.Init.Mode = UART_MODE_TX_RX;
 802142a:	220c      	movs	r2, #12
 802142c:	6142      	str	r2, [r0, #20]
  huart3.Init.HwFlowCtl = UART_HWCONTROL_NONE;
 802142e:	6183      	str	r3, [r0, #24]
  huart3.Init.OverSampling = UART_OVERSAMPLING_16;
 8021430:	61c3      	str	r3, [r0, #28]
  if (HAL_UART_Init(&huart3) != HAL_OK)
 8021432:	f003 f89d 	bl	8024570 <HAL_UART_Init>
 8021436:	b900      	cbnz	r0, 802143a <MX_USART3_UART_Init+0x26>
  }
  /* USER CODE BEGIN USART3_Init 2 */

  /* USER CODE END USART3_Init 2 */

}
 8021438:	bd08      	pop	{r3, pc}
    Error_Handler();
 802143a:	f7ff fced 	bl	8020e18 <Error_Handler>
}
 802143e:	e7fb      	b.n	8021438 <MX_USART3_UART_Init+0x24>
 8021440:	2000d3a0 	.word	0x2000d3a0
 8021444:	40004800 	.word	0x40004800

08021448 <MX_USART6_UART_Init>:
/* USART6 init function */

void MX_USART6_UART_Init(void)
{
 8021448:	b508      	push	{r3, lr}
  /* USER CODE END USART6_Init 0 */

  /* USER CODE BEGIN USART6_Init 1 */

  /* USER CODE END USART6_Init 1 */
  huart6.Instance = USART6;
 802144a:	480a      	ldr	r0, [pc, #40]	; (8021474 <MX_USART6_UART_Init+0x2c>)
 802144c:	4b0a      	ldr	r3, [pc, #40]	; (8021478 <MX_USART6_UART_Init+0x30>)
 802144e:	6003      	str	r3, [r0, #0]
  huart6.Init.BaudRate = 9600;
 8021450:	f44f 5316 	mov.w	r3, #9600	; 0x2580
 8021454:	6043      	str	r3, [r0, #4]
  huart6.Init.WordLength = UART_WORDLENGTH_8B;
 8021456:	2300      	movs	r3, #0
 8021458:	6083      	str	r3, [r0, #8]
  huart6.Init.StopBits = UART_STOPBITS_1;
 802145a:	60c3      	str	r3, [r0, #12]
  huart6.Init.Parity = UART_PARITY_NONE;
 802145c:	6103      	str	r3, [r0, #16]
  huart6.Init.Mode = UART_MODE_TX_RX;
 802145e:	220c      	movs	r2, #12
 8021460:	6142      	str	r2, [r0, #20]
  huart6.Init.HwFlowCtl = UART_HWCONTROL_NONE;
 8021462:	6183      	str	r3, [r0, #24]
  huart6.Init.OverSampling = UART_OVERSAMPLING_16;
 8021464:	61c3      	str	r3, [r0, #28]
  if (HAL_UART_Init(&huart6) != HAL_OK)
 8021466:	f003 f883 	bl	8024570 <HAL_UART_Init>
 802146a:	b900      	cbnz	r0, 802146e <MX_USART6_UART_Init+0x26>
  }
  /* USER CODE BEGIN USART6_Init 2 */

  /* USER CODE END USART6_Init 2 */

}
 802146c:	bd08      	pop	{r3, pc}
    Error_Handler();
 802146e:	f7ff fcd3 	bl	8020e18 <Error_Handler>
}
 8021472:	e7fb      	b.n	802146c <MX_USART6_UART_Init+0x24>
 8021474:	2000d5a8 	.word	0x2000d5a8
 8021478:	40011400 	.word	0x40011400

0802147c <HAL_UART_MspInit>:

void HAL_UART_MspInit(UART_HandleTypeDef* uartHandle)
{
 802147c:	e92d 4ff0 	stmdb	sp!, {r4, r5, r6, r7, r8, r9, sl, fp, lr}
 8021480:	b08d      	sub	sp, #52	; 0x34
 8021482:	4604      	mov	r4, r0

  GPIO_InitTypeDef GPIO_InitStruct = {0};
 8021484:	2300      	movs	r3, #0
 8021486:	9307      	str	r3, [sp, #28]
 8021488:	9308      	str	r3, [sp, #32]
 802148a:	9309      	str	r3, [sp, #36]	; 0x24
 802148c:	930a      	str	r3, [sp, #40]	; 0x28
 802148e:	930b      	str	r3, [sp, #44]	; 0x2c
  if(uartHandle->Instance==USART1)
 8021490:	6803      	ldr	r3, [r0, #0]
 8021492:	4a7f      	ldr	r2, [pc, #508]	; (8021690 <HAL_UART_MspInit+0x214>)
 8021494:	4293      	cmp	r3, r2
 8021496:	d009      	beq.n	80214ac <HAL_UART_MspInit+0x30>
    HAL_NVIC_EnableIRQ(USART1_IRQn);
  /* USER CODE BEGIN USART1_MspInit 1 */

  /* USER CODE END USART1_MspInit 1 */
  }
  else if(uartHandle->Instance==USART3)
 8021498:	4a7e      	ldr	r2, [pc, #504]	; (8021694 <HAL_UART_MspInit+0x218>)
 802149a:	4293      	cmp	r3, r2
 802149c:	d07e      	beq.n	802159c <HAL_UART_MspInit+0x120>
    HAL_NVIC_EnableIRQ(USART3_IRQn);
  /* USER CODE BEGIN USART3_MspInit 1 */

  /* USER CODE END USART3_MspInit 1 */
  }
  else if(uartHandle->Instance==USART6)
 802149e:	4a7e      	ldr	r2, [pc, #504]	; (8021698 <HAL_UART_MspInit+0x21c>)
 80214a0:	4293      	cmp	r3, r2
 80214a2:	f000 8113 	beq.w	80216cc <HAL_UART_MspInit+0x250>
    HAL_NVIC_EnableIRQ(USART6_IRQn);
  /* USER CODE BEGIN USART6_MspInit 1 */

  /* USER CODE END USART6_MspInit 1 */
  }
}
 80214a6:	b00d      	add	sp, #52	; 0x34
 80214a8:	e8bd 8ff0 	ldmia.w	sp!, {r4, r5, r6, r7, r8, r9, sl, fp, pc}
    __HAL_RCC_USART1_CLK_ENABLE();
 80214ac:	2500      	movs	r5, #0
 80214ae:	9500      	str	r5, [sp, #0]
 80214b0:	4b7a      	ldr	r3, [pc, #488]	; (802169c <HAL_UART_MspInit+0x220>)
 80214b2:	6c5a      	ldr	r2, [r3, #68]	; 0x44
 80214b4:	f042 0210 	orr.w	r2, r2, #16
 80214b8:	645a      	str	r2, [r3, #68]	; 0x44
 80214ba:	6c5a      	ldr	r2, [r3, #68]	; 0x44
 80214bc:	f002 0210 	and.w	r2, r2, #16
 80214c0:	9200      	str	r2, [sp, #0]
 80214c2:	9a00      	ldr	r2, [sp, #0]
    __HAL_RCC_GPIOA_CLK_ENABLE();
 80214c4:	9501      	str	r5, [sp, #4]
 80214c6:	6b1a      	ldr	r2, [r3, #48]	; 0x30
 80214c8:	f042 0201 	orr.w	r2, r2, #1
 80214cc:	631a      	str	r2, [r3, #48]	; 0x30
 80214ce:	6b1b      	ldr	r3, [r3, #48]	; 0x30
 80214d0:	f003 0301 	and.w	r3, r3, #1
 80214d4:	9301      	str	r3, [sp, #4]
 80214d6:	9b01      	ldr	r3, [sp, #4]
    GPIO_InitStruct.Pin = GPIO_PIN_9;
 80214d8:	f44f 7300 	mov.w	r3, #512	; 0x200
 80214dc:	9307      	str	r3, [sp, #28]
    GPIO_InitStruct.Mode = GPIO_MODE_AF_PP;
 80214de:	f04f 0b02 	mov.w	fp, #2
 80214e2:	f8cd b020 	str.w	fp, [sp, #32]
    GPIO_InitStruct.Pull = GPIO_PULLUP;
 80214e6:	f04f 0a01 	mov.w	sl, #1
 80214ea:	f8cd a024 	str.w	sl, [sp, #36]	; 0x24
    GPIO_InitStruct.Speed = GPIO_SPEED_FREQ_VERY_HIGH;
 80214ee:	f04f 0903 	mov.w	r9, #3
 80214f2:	f8cd 9028 	str.w	r9, [sp, #40]	; 0x28
    GPIO_InitStruct.Alternate = GPIO_AF7_USART1;
 80214f6:	f04f 0807 	mov.w	r8, #7
 80214fa:	f8cd 802c 	str.w	r8, [sp, #44]	; 0x2c
    HAL_GPIO_Init(GPIOA, &GPIO_InitStruct);
 80214fe:	4f68      	ldr	r7, [pc, #416]	; (80216a0 <HAL_UART_MspInit+0x224>)
 8021500:	a907      	add	r1, sp, #28
 8021502:	4638      	mov	r0, r7
 8021504:	f001 f848 	bl	8022598 <HAL_GPIO_Init>
    GPIO_InitStruct.Pin = GPIO_PIN_10;
 8021508:	f44f 6680 	mov.w	r6, #1024	; 0x400
 802150c:	9607      	str	r6, [sp, #28]
    GPIO_InitStruct.Mode = GPIO_MODE_AF_PP;
 802150e:	f8cd b020 	str.w	fp, [sp, #32]
    GPIO_InitStruct.Pull = GPIO_PULLUP;
 8021512:	f8cd a024 	str.w	sl, [sp, #36]	; 0x24
    GPIO_InitStruct.Speed = GPIO_SPEED_FREQ_VERY_HIGH;
 8021516:	f8cd 9028 	str.w	r9, [sp, #40]	; 0x28
    GPIO_InitStruct.Alternate = GPIO_AF7_USART1;
 802151a:	f8cd 802c 	str.w	r8, [sp, #44]	; 0x2c
    HAL_GPIO_Init(GPIOA, &GPIO_InitStruct);
 802151e:	a907      	add	r1, sp, #28
 8021520:	4638      	mov	r0, r7
 8021522:	f001 f839 	bl	8022598 <HAL_GPIO_Init>
    hdma_usart1_rx.Instance = DMA2_Stream2;
 8021526:	485f      	ldr	r0, [pc, #380]	; (80216a4 <HAL_UART_MspInit+0x228>)
 8021528:	4b5f      	ldr	r3, [pc, #380]	; (80216a8 <HAL_UART_MspInit+0x22c>)
 802152a:	6003      	str	r3, [r0, #0]
    hdma_usart1_rx.Init.Channel = DMA_CHANNEL_4;
 802152c:	f04f 6300 	mov.w	r3, #134217728	; 0x8000000
 8021530:	6043      	str	r3, [r0, #4]
    hdma_usart1_rx.Init.Direction = DMA_PERIPH_TO_MEMORY;
 8021532:	6085      	str	r5, [r0, #8]
    hdma_usart1_rx.Init.PeriphInc = DMA_PINC_DISABLE;
 8021534:	60c5      	str	r5, [r0, #12]
    hdma_usart1_rx.Init.MemInc = DMA_MINC_ENABLE;
 8021536:	6106      	str	r6, [r0, #16]
    hdma_usart1_rx.Init.PeriphDataAlignment = DMA_PDATAALIGN_BYTE;
 8021538:	6145      	str	r5, [r0, #20]
    hdma_usart1_rx.Init.MemDataAlignment = DMA_MDATAALIGN_BYTE;
 802153a:	6185      	str	r5, [r0, #24]
    hdma_usart1_rx.Init.Mode = DMA_NORMAL;
 802153c:	61c5      	str	r5, [r0, #28]
    hdma_usart1_rx.Init.Priority = DMA_PRIORITY_LOW;
 802153e:	6205      	str	r5, [r0, #32]
    hdma_usart1_rx.Init.FIFOMode = DMA_FIFOMODE_DISABLE;
 8021540:	6245      	str	r5, [r0, #36]	; 0x24
    if (HAL_DMA_Init(&hdma_usart1_rx) != HAL_OK)
 8021542:	f000 facf 	bl	8021ae4 <HAL_DMA_Init>
 8021546:	bb18      	cbnz	r0, 8021590 <HAL_UART_MspInit+0x114>
    __HAL_LINKDMA(uartHandle,hdmarx,hdma_usart1_rx);
 8021548:	4b56      	ldr	r3, [pc, #344]	; (80216a4 <HAL_UART_MspInit+0x228>)
 802154a:	63a3      	str	r3, [r4, #56]	; 0x38
 802154c:	639c      	str	r4, [r3, #56]	; 0x38
    hdma_usart1_tx.Instance = DMA2_Stream7;
 802154e:	4857      	ldr	r0, [pc, #348]	; (80216ac <HAL_UART_MspInit+0x230>)
 8021550:	4b57      	ldr	r3, [pc, #348]	; (80216b0 <HAL_UART_MspInit+0x234>)
 8021552:	6003      	str	r3, [r0, #0]
    hdma_usart1_tx.Init.Channel = DMA_CHANNEL_4;
 8021554:	f04f 6300 	mov.w	r3, #134217728	; 0x8000000
 8021558:	6043      	str	r3, [r0, #4]
    hdma_usart1_tx.Init.Direction = DMA_MEMORY_TO_PERIPH;
 802155a:	2340      	movs	r3, #64	; 0x40
 802155c:	6083      	str	r3, [r0, #8]
    hdma_usart1_tx.Init.PeriphInc = DMA_PINC_DISABLE;
 802155e:	2300      	movs	r3, #0
 8021560:	60c3      	str	r3, [r0, #12]
    hdma_usart1_tx.Init.MemInc = DMA_MINC_ENABLE;
 8021562:	f44f 6280 	mov.w	r2, #1024	; 0x400
 8021566:	6102      	str	r2, [r0, #16]
    hdma_usart1_tx.Init.PeriphDataAlignment = DMA_PDATAALIGN_BYTE;
 8021568:	6143      	str	r3, [r0, #20]
    hdma_usart1_tx.Init.MemDataAlignment = DMA_MDATAALIGN_BYTE;
 802156a:	6183      	str	r3, [r0, #24]
    hdma_usart1_tx.Init.Mode = DMA_NORMAL;
 802156c:	61c3      	str	r3, [r0, #28]
    hdma_usart1_tx.Init.Priority = DMA_PRIORITY_LOW;
 802156e:	6203      	str	r3, [r0, #32]
    hdma_usart1_tx.Init.FIFOMode = DMA_FIFOMODE_DISABLE;
 8021570:	6243      	str	r3, [r0, #36]	; 0x24
    if (HAL_DMA_Init(&hdma_usart1_tx) != HAL_OK)
 8021572:	f000 fab7 	bl	8021ae4 <HAL_DMA_Init>
 8021576:	b970      	cbnz	r0, 8021596 <HAL_UART_MspInit+0x11a>
    __HAL_LINKDMA(uartHandle,hdmatx,hdma_usart1_tx);
 8021578:	4b4c      	ldr	r3, [pc, #304]	; (80216ac <HAL_UART_MspInit+0x230>)
 802157a:	6363      	str	r3, [r4, #52]	; 0x34
 802157c:	639c      	str	r4, [r3, #56]	; 0x38
    HAL_NVIC_SetPriority(USART1_IRQn, 5, 0);
 802157e:	2200      	movs	r2, #0
 8021580:	2105      	movs	r1, #5
 8021582:	2025      	movs	r0, #37	; 0x25
 8021584:	f000 f9d0 	bl	8021928 <HAL_NVIC_SetPriority>
    HAL_NVIC_EnableIRQ(USART1_IRQn);
 8021588:	2025      	movs	r0, #37	; 0x25
 802158a:	f000 fa13 	bl	80219b4 <HAL_NVIC_EnableIRQ>
 802158e:	e78a      	b.n	80214a6 <HAL_UART_MspInit+0x2a>
      Error_Handler();
 8021590:	f7ff fc42 	bl	8020e18 <Error_Handler>
 8021594:	e7d8      	b.n	8021548 <HAL_UART_MspInit+0xcc>
      Error_Handler();
 8021596:	f7ff fc3f 	bl	8020e18 <Error_Handler>
 802159a:	e7ed      	b.n	8021578 <HAL_UART_MspInit+0xfc>
    __HAL_RCC_USART3_CLK_ENABLE();
 802159c:	2500      	movs	r5, #0
 802159e:	9502      	str	r5, [sp, #8]
 80215a0:	4b3e      	ldr	r3, [pc, #248]	; (802169c <HAL_UART_MspInit+0x220>)
 80215a2:	6c1a      	ldr	r2, [r3, #64]	; 0x40
 80215a4:	f442 2280 	orr.w	r2, r2, #262144	; 0x40000
 80215a8:	641a      	str	r2, [r3, #64]	; 0x40
 80215aa:	6c1a      	ldr	r2, [r3, #64]	; 0x40
 80215ac:	f402 2280 	and.w	r2, r2, #262144	; 0x40000
 80215b0:	9202      	str	r2, [sp, #8]
 80215b2:	9a02      	ldr	r2, [sp, #8]
    __HAL_RCC_GPIOC_CLK_ENABLE();
 80215b4:	9503      	str	r5, [sp, #12]
 80215b6:	6b1a      	ldr	r2, [r3, #48]	; 0x30
 80215b8:	f042 0204 	orr.w	r2, r2, #4
 80215bc:	631a      	str	r2, [r3, #48]	; 0x30
 80215be:	6b1a      	ldr	r2, [r3, #48]	; 0x30
 80215c0:	f002 0204 	and.w	r2, r2, #4
 80215c4:	9203      	str	r2, [sp, #12]
 80215c6:	9a03      	ldr	r2, [sp, #12]
    __HAL_RCC_GPIOB_CLK_ENABLE();
 80215c8:	9504      	str	r5, [sp, #16]
 80215ca:	6b1a      	ldr	r2, [r3, #48]	; 0x30
 80215cc:	f042 0202 	orr.w	r2, r2, #2
 80215d0:	631a      	str	r2, [r3, #48]	; 0x30
 80215d2:	6b1b      	ldr	r3, [r3, #48]	; 0x30
 80215d4:	f003 0302 	and.w	r3, r3, #2
 80215d8:	9304      	str	r3, [sp, #16]
 80215da:	9b04      	ldr	r3, [sp, #16]
    GPIO_InitStruct.Pin = GPIO_PIN_5;
 80215dc:	2320      	movs	r3, #32
 80215de:	9307      	str	r3, [sp, #28]
    GPIO_InitStruct.Mode = GPIO_MODE_AF_PP;
 80215e0:	f04f 0902 	mov.w	r9, #2
 80215e4:	f8cd 9020 	str.w	r9, [sp, #32]
    GPIO_InitStruct.Pull = GPIO_PULLUP;
 80215e8:	2301      	movs	r3, #1
 80215ea:	9309      	str	r3, [sp, #36]	; 0x24
    GPIO_InitStruct.Speed = GPIO_SPEED_FREQ_VERY_HIGH;
 80215ec:	f04f 0803 	mov.w	r8, #3
 80215f0:	f8cd 8028 	str.w	r8, [sp, #40]	; 0x28
    GPIO_InitStruct.Alternate = GPIO_AF7_USART3;
 80215f4:	2707      	movs	r7, #7
 80215f6:	970b      	str	r7, [sp, #44]	; 0x2c
    HAL_GPIO_Init(GPIOC, &GPIO_InitStruct);
 80215f8:	a907      	add	r1, sp, #28
 80215fa:	482e      	ldr	r0, [pc, #184]	; (80216b4 <HAL_UART_MspInit+0x238>)
 80215fc:	f000 ffcc 	bl	8022598 <HAL_GPIO_Init>
    GPIO_InitStruct.Pin = GPIO_PIN_10;
 8021600:	f44f 6680 	mov.w	r6, #1024	; 0x400
 8021604:	9607      	str	r6, [sp, #28]
    GPIO_InitStruct.Mode = GPIO_MODE_AF_PP;
 8021606:	f8cd 9020 	str.w	r9, [sp, #32]
    GPIO_InitStruct.Pull = GPIO_NOPULL;
 802160a:	9509      	str	r5, [sp, #36]	; 0x24
    GPIO_InitStruct.Speed = GPIO_SPEED_FREQ_VERY_HIGH;
 802160c:	f8cd 8028 	str.w	r8, [sp, #40]	; 0x28
    GPIO_InitStruct.Alternate = GPIO_AF7_USART3;
 8021610:	970b      	str	r7, [sp, #44]	; 0x2c
    HAL_GPIO_Init(GPIOB, &GPIO_InitStruct);
 8021612:	a907      	add	r1, sp, #28
 8021614:	4828      	ldr	r0, [pc, #160]	; (80216b8 <HAL_UART_MspInit+0x23c>)
 8021616:	f000 ffbf 	bl	8022598 <HAL_GPIO_Init>
    hdma_usart3_rx.Instance = DMA1_Stream1;
 802161a:	4828      	ldr	r0, [pc, #160]	; (80216bc <HAL_UART_MspInit+0x240>)
 802161c:	4b28      	ldr	r3, [pc, #160]	; (80216c0 <HAL_UART_MspInit+0x244>)
 802161e:	6003      	str	r3, [r0, #0]
    hdma_usart3_rx.Init.Channel = DMA_CHANNEL_4;
 8021620:	f04f 6300 	mov.w	r3, #134217728	; 0x8000000
 8021624:	6043      	str	r3, [r0, #4]
    hdma_usart3_rx.Init.Direction = DMA_PERIPH_TO_MEMORY;
 8021626:	6085      	str	r5, [r0, #8]
    hdma_usart3_rx.Init.PeriphInc = DMA_PINC_DISABLE;
 8021628:	60c5      	str	r5, [r0, #12]
    hdma_usart3_rx.Init.MemInc = DMA_MINC_ENABLE;
 802162a:	6106      	str	r6, [r0, #16]
    hdma_usart3_rx.Init.PeriphDataAlignment = DMA_PDATAALIGN_BYTE;
 802162c:	6145      	str	r5, [r0, #20]
    hdma_usart3_rx.Init.MemDataAlignment = DMA_MDATAALIGN_BYTE;
 802162e:	6185      	str	r5, [r0, #24]
    hdma_usart3_rx.Init.Mode = DMA_NORMAL;
 8021630:	61c5      	str	r5, [r0, #28]
    hdma_usart3_rx.Init.Priority = DMA_PRIORITY_LOW;
 8021632:	6205      	str	r5, [r0, #32]
    hdma_usart3_rx.Init.FIFOMode = DMA_FIFOMODE_DISABLE;
 8021634:	6245      	str	r5, [r0, #36]	; 0x24
    if (HAL_DMA_Init(&hdma_usart3_rx) != HAL_OK)
 8021636:	f000 fa55 	bl	8021ae4 <HAL_DMA_Init>
 802163a:	bb18      	cbnz	r0, 8021684 <HAL_UART_MspInit+0x208>
    __HAL_LINKDMA(uartHandle,hdmarx,hdma_usart3_rx);
 802163c:	4b1f      	ldr	r3, [pc, #124]	; (80216bc <HAL_UART_MspInit+0x240>)
 802163e:	63a3      	str	r3, [r4, #56]	; 0x38
 8021640:	639c      	str	r4, [r3, #56]	; 0x38
    hdma_usart3_tx.Instance = DMA1_Stream3;
 8021642:	4820      	ldr	r0, [pc, #128]	; (80216c4 <HAL_UART_MspInit+0x248>)
 8021644:	4b20      	ldr	r3, [pc, #128]	; (80216c8 <HAL_UART_MspInit+0x24c>)
 8021646:	6003      	str	r3, [r0, #0]
    hdma_usart3_tx.Init.Channel = DMA_CHANNEL_4;
 8021648:	f04f 6300 	mov.w	r3, #134217728	; 0x8000000
 802164c:	6043      	str	r3, [r0, #4]
    hdma_usart3_tx.Init.Direction = DMA_MEMORY_TO_PERIPH;
 802164e:	2340      	movs	r3, #64	; 0x40
 8021650:	6083      	str	r3, [r0, #8]
    hdma_usart3_tx.Init.PeriphInc = DMA_PINC_DISABLE;
 8021652:	2300      	movs	r3, #0
 8021654:	60c3      	str	r3, [r0, #12]
    hdma_usart3_tx.Init.MemInc = DMA_MINC_ENABLE;
 8021656:	f44f 6280 	mov.w	r2, #1024	; 0x400
 802165a:	6102      	str	r2, [r0, #16]
    hdma_usart3_tx.Init.PeriphDataAlignment = DMA_PDATAALIGN_BYTE;
 802165c:	6143      	str	r3, [r0, #20]
    hdma_usart3_tx.Init.MemDataAlignment = DMA_MDATAALIGN_BYTE;
 802165e:	6183      	str	r3, [r0, #24]
    hdma_usart3_tx.Init.Mode = DMA_NORMAL;
 8021660:	61c3      	str	r3, [r0, #28]
    hdma_usart3_tx.Init.Priority = DMA_PRIORITY_LOW;
 8021662:	6203      	str	r3, [r0, #32]
    hdma_usart3_tx.Init.FIFOMode = DMA_FIFOMODE_DISABLE;
 8021664:	6243      	str	r3, [r0, #36]	; 0x24
    if (HAL_DMA_Init(&hdma_usart3_tx) != HAL_OK)
 8021666:	f000 fa3d 	bl	8021ae4 <HAL_DMA_Init>
 802166a:	b970      	cbnz	r0, 802168a <HAL_UART_MspInit+0x20e>
    __HAL_LINKDMA(uartHandle,hdmatx,hdma_usart3_tx);
 802166c:	4b15      	ldr	r3, [pc, #84]	; (80216c4 <HAL_UART_MspInit+0x248>)
 802166e:	6363      	str	r3, [r4, #52]	; 0x34
 8021670:	639c      	str	r4, [r3, #56]	; 0x38
    HAL_NVIC_SetPriority(USART3_IRQn, 5, 0);
 8021672:	2200      	movs	r2, #0
 8021674:	2105      	movs	r1, #5
 8021676:	2027      	movs	r0, #39	; 0x27
 8021678:	f000 f956 	bl	8021928 <HAL_NVIC_SetPriority>
    HAL_NVIC_EnableIRQ(USART3_IRQn);
 802167c:	2027      	movs	r0, #39	; 0x27
 802167e:	f000 f999 	bl	80219b4 <HAL_NVIC_EnableIRQ>
 8021682:	e710      	b.n	80214a6 <HAL_UART_MspInit+0x2a>
      Error_Handler();
 8021684:	f7ff fbc8 	bl	8020e18 <Error_Handler>
 8021688:	e7d8      	b.n	802163c <HAL_UART_MspInit+0x1c0>
      Error_Handler();
 802168a:	f7ff fbc5 	bl	8020e18 <Error_Handler>
 802168e:	e7ed      	b.n	802166c <HAL_UART_MspInit+0x1f0>
 8021690:	40011000 	.word	0x40011000
 8021694:	40004800 	.word	0x40004800
 8021698:	40011400 	.word	0x40011400
 802169c:	40023800 	.word	0x40023800
 80216a0:	40020000 	.word	0x40020000
 80216a4:	2000d504 	.word	0x2000d504
 80216a8:	40026440 	.word	0x40026440
 80216ac:	2000d444 	.word	0x2000d444
 80216b0:	400264b8 	.word	0x400264b8
 80216b4:	40020800 	.word	0x40020800
 80216b8:	40020400 	.word	0x40020400
 80216bc:	2000d340 	.word	0x2000d340
 80216c0:	40026028 	.word	0x40026028
 80216c4:	2000d3e4 	.word	0x2000d3e4
 80216c8:	40026058 	.word	0x40026058
    __HAL_RCC_USART6_CLK_ENABLE();
 80216cc:	2500      	movs	r5, #0
 80216ce:	9505      	str	r5, [sp, #20]
 80216d0:	4b37      	ldr	r3, [pc, #220]	; (80217b0 <HAL_UART_MspInit+0x334>)
 80216d2:	6c5a      	ldr	r2, [r3, #68]	; 0x44
 80216d4:	f042 0220 	orr.w	r2, r2, #32
 80216d8:	645a      	str	r2, [r3, #68]	; 0x44
 80216da:	6c5a      	ldr	r2, [r3, #68]	; 0x44
 80216dc:	f002 0220 	and.w	r2, r2, #32
 80216e0:	9205      	str	r2, [sp, #20]
 80216e2:	9a05      	ldr	r2, [sp, #20]
    __HAL_RCC_GPIOC_CLK_ENABLE();
 80216e4:	9506      	str	r5, [sp, #24]
 80216e6:	6b1a      	ldr	r2, [r3, #48]	; 0x30
 80216e8:	f042 0204 	orr.w	r2, r2, #4
 80216ec:	631a      	str	r2, [r3, #48]	; 0x30
 80216ee:	6b1b      	ldr	r3, [r3, #48]	; 0x30
 80216f0:	f003 0304 	and.w	r3, r3, #4
 80216f4:	9306      	str	r3, [sp, #24]
 80216f6:	9b06      	ldr	r3, [sp, #24]
    GPIO_InitStruct.Pin = GPIO_PIN_6;
 80216f8:	2340      	movs	r3, #64	; 0x40
 80216fa:	9307      	str	r3, [sp, #28]
    GPIO_InitStruct.Mode = GPIO_MODE_AF_PP;
 80216fc:	f04f 0902 	mov.w	r9, #2
 8021700:	f8cd 9020 	str.w	r9, [sp, #32]
    GPIO_InitStruct.Pull = GPIO_NOPULL;
 8021704:	9509      	str	r5, [sp, #36]	; 0x24
    GPIO_InitStruct.Speed = GPIO_SPEED_FREQ_VERY_HIGH;
 8021706:	f04f 0803 	mov.w	r8, #3
 802170a:	f8cd 8028 	str.w	r8, [sp, #40]	; 0x28
    GPIO_InitStruct.Alternate = GPIO_AF8_USART6;
 802170e:	2708      	movs	r7, #8
 8021710:	970b      	str	r7, [sp, #44]	; 0x2c
    HAL_GPIO_Init(GPIOC, &GPIO_InitStruct);
 8021712:	4e28      	ldr	r6, [pc, #160]	; (80217b4 <HAL_UART_MspInit+0x338>)
 8021714:	a907      	add	r1, sp, #28
 8021716:	4630      	mov	r0, r6
 8021718:	f000 ff3e 	bl	8022598 <HAL_GPIO_Init>
    GPIO_InitStruct.Pin = GPIO_PIN_7;
 802171c:	2380      	movs	r3, #128	; 0x80
 802171e:	9307      	str	r3, [sp, #28]
    GPIO_InitStruct.Mode = GPIO_MODE_AF_PP;
 8021720:	f8cd 9020 	str.w	r9, [sp, #32]
    GPIO_InitStruct.Pull = GPIO_PULLUP;
 8021724:	2301      	movs	r3, #1
 8021726:	9309      	str	r3, [sp, #36]	; 0x24
    GPIO_InitStruct.Speed = GPIO_SPEED_FREQ_VERY_HIGH;
 8021728:	f8cd 8028 	str.w	r8, [sp, #40]	; 0x28
    GPIO_InitStruct.Alternate = GPIO_AF8_USART6;
 802172c:	970b      	str	r7, [sp, #44]	; 0x2c
    HAL_GPIO_Init(GPIOC, &GPIO_InitStruct);
 802172e:	a907      	add	r1, sp, #28
 8021730:	4630      	mov	r0, r6
 8021732:	f000 ff31 	bl	8022598 <HAL_GPIO_Init>
    hdma_usart6_rx.Instance = DMA2_Stream1;
 8021736:	4820      	ldr	r0, [pc, #128]	; (80217b8 <HAL_UART_MspInit+0x33c>)
 8021738:	4b20      	ldr	r3, [pc, #128]	; (80217bc <HAL_UART_MspInit+0x340>)
 802173a:	6003      	str	r3, [r0, #0]
    hdma_usart6_rx.Init.Channel = DMA_CHANNEL_5;
 802173c:	f04f 6320 	mov.w	r3, #167772160	; 0xa000000
 8021740:	6043      	str	r3, [r0, #4]
    hdma_usart6_rx.Init.Direction = DMA_PERIPH_TO_MEMORY;
 8021742:	6085      	str	r5, [r0, #8]
    hdma_usart6_rx.Init.PeriphInc = DMA_PINC_DISABLE;
 8021744:	60c5      	str	r5, [r0, #12]
    hdma_usart6_rx.Init.MemInc = DMA_MINC_ENABLE;
 8021746:	f44f 6380 	mov.w	r3, #1024	; 0x400
 802174a:	6103      	str	r3, [r0, #16]
    hdma_usart6_rx.Init.PeriphDataAlignment = DMA_PDATAALIGN_BYTE;
 802174c:	6145      	str	r5, [r0, #20]
    hdma_usart6_rx.Init.MemDataAlignment = DMA_MDATAALIGN_BYTE;
 802174e:	6185      	str	r5, [r0, #24]
    hdma_usart6_rx.Init.Mode = DMA_NORMAL;
 8021750:	61c5      	str	r5, [r0, #28]
    hdma_usart6_rx.Init.Priority = DMA_PRIORITY_LOW;
 8021752:	6205      	str	r5, [r0, #32]
    hdma_usart6_rx.Init.FIFOMode = DMA_FIFOMODE_DISABLE;
 8021754:	6245      	str	r5, [r0, #36]	; 0x24
    if (HAL_DMA_Init(&hdma_usart6_rx) != HAL_OK)
 8021756:	f000 f9c5 	bl	8021ae4 <HAL_DMA_Init>
 802175a:	bb18      	cbnz	r0, 80217a4 <HAL_UART_MspInit+0x328>
    __HAL_LINKDMA(uartHandle,hdmarx,hdma_usart6_rx);
 802175c:	4b16      	ldr	r3, [pc, #88]	; (80217b8 <HAL_UART_MspInit+0x33c>)
 802175e:	63a3      	str	r3, [r4, #56]	; 0x38
 8021760:	639c      	str	r4, [r3, #56]	; 0x38
    hdma_usart6_tx.Instance = DMA2_Stream6;
 8021762:	4817      	ldr	r0, [pc, #92]	; (80217c0 <HAL_UART_MspInit+0x344>)
 8021764:	4b17      	ldr	r3, [pc, #92]	; (80217c4 <HAL_UART_MspInit+0x348>)
 8021766:	6003      	str	r3, [r0, #0]
    hdma_usart6_tx.Init.Channel = DMA_CHANNEL_5;
 8021768:	f04f 6320 	mov.w	r3, #167772160	; 0xa000000
 802176c:	6043      	str	r3, [r0, #4]
    hdma_usart6_tx.Init.Direction = DMA_MEMORY_TO_PERIPH;
 802176e:	2340      	movs	r3, #64	; 0x40
 8021770:	6083      	str	r3, [r0, #8]
    hdma_usart6_tx.Init.PeriphInc = DMA_PINC_DISABLE;
 8021772:	2300      	movs	r3, #0
 8021774:	60c3      	str	r3, [r0, #12]
    hdma_usart6_tx.Init.MemInc = DMA_MINC_ENABLE;
 8021776:	f44f 6280 	mov.w	r2, #1024	; 0x400
 802177a:	6102      	str	r2, [r0, #16]
    hdma_usart6_tx.Init.PeriphDataAlignment = DMA_PDATAALIGN_BYTE;
 802177c:	6143      	str	r3, [r0, #20]
    hdma_usart6_tx.Init.MemDataAlignment = DMA_MDATAALIGN_BYTE;
 802177e:	6183      	str	r3, [r0, #24]
    hdma_usart6_tx.Init.Mode = DMA_NORMAL;
 8021780:	61c3      	str	r3, [r0, #28]
    hdma_usart6_tx.Init.Priority = DMA_PRIORITY_LOW;
 8021782:	6203      	str	r3, [r0, #32]
    hdma_usart6_tx.Init.FIFOMode = DMA_FIFOMODE_DISABLE;
 8021784:	6243      	str	r3, [r0, #36]	; 0x24
    if (HAL_DMA_Init(&hdma_usart6_tx) != HAL_OK)
 8021786:	f000 f9ad 	bl	8021ae4 <HAL_DMA_Init>
 802178a:	b970      	cbnz	r0, 80217aa <HAL_UART_MspInit+0x32e>
    __HAL_LINKDMA(uartHandle,hdmatx,hdma_usart6_tx);
 802178c:	4b0c      	ldr	r3, [pc, #48]	; (80217c0 <HAL_UART_MspInit+0x344>)
 802178e:	6363      	str	r3, [r4, #52]	; 0x34
 8021790:	639c      	str	r4, [r3, #56]	; 0x38
    HAL_NVIC_SetPriority(USART6_IRQn, 5, 0);
 8021792:	2200      	movs	r2, #0
 8021794:	2105      	movs	r1, #5
 8021796:	2047      	movs	r0, #71	; 0x47
 8021798:	f000 f8c6 	bl	8021928 <HAL_NVIC_SetPriority>
    HAL_NVIC_EnableIRQ(USART6_IRQn);
 802179c:	2047      	movs	r0, #71	; 0x47
 802179e:	f000 f909 	bl	80219b4 <HAL_NVIC_EnableIRQ>
}
 80217a2:	e680      	b.n	80214a6 <HAL_UART_MspInit+0x2a>
      Error_Handler();
 80217a4:	f7ff fb38 	bl	8020e18 <Error_Handler>
 80217a8:	e7d8      	b.n	802175c <HAL_UART_MspInit+0x2e0>
      Error_Handler();
 80217aa:	f7ff fb35 	bl	8020e18 <Error_Handler>
 80217ae:	e7ed      	b.n	802178c <HAL_UART_MspInit+0x310>
 80217b0:	40023800 	.word	0x40023800
 80217b4:	40020800 	.word	0x40020800
 80217b8:	2000d2e0 	.word	0x2000d2e0
 80217bc:	40026428 	.word	0x40026428
 80217c0:	2000d4a4 	.word	0x2000d4a4
 80217c4:	400264a0 	.word	0x400264a0

080217c8 <Reset_Handler>:

    .section  .text.Reset_Handler
  .weak  Reset_Handler
  .type  Reset_Handler, %function
Reset_Handler:  
  ldr   sp, =_estack       /* set stack pointer */
 80217c8:	f8df d034 	ldr.w	sp, [pc, #52]	; 8021800 <LoopFillZerobss+0x12>

/* Copy the data segment initializers from flash to SRAM */
  ldr r0, =_sdata
 80217cc:	480d      	ldr	r0, [pc, #52]	; (8021804 <LoopFillZerobss+0x16>)
  ldr r1, =_edata
 80217ce:	490e      	ldr	r1, [pc, #56]	; (8021808 <LoopFillZerobss+0x1a>)
  ldr r2, =_sidata
 80217d0:	4a0e      	ldr	r2, [pc, #56]	; (802180c <LoopFillZerobss+0x1e>)
  movs r3, #0
 80217d2:	2300      	movs	r3, #0
  b LoopCopyDataInit
 80217d4:	e002      	b.n	80217dc <LoopCopyDataInit>

080217d6 <CopyDataInit>:

CopyDataInit:
  ldr r4, [r2, r3]
 80217d6:	58d4      	ldr	r4, [r2, r3]
  str r4, [r0, r3]
 80217d8:	50c4      	str	r4, [r0, r3]
  adds r3, r3, #4
 80217da:	3304      	adds	r3, #4

080217dc <LoopCopyDataInit>:

LoopCopyDataInit:
  adds r4, r0, r3
 80217dc:	18c4      	adds	r4, r0, r3
  cmp r4, r1
 80217de:	428c      	cmp	r4, r1
  bcc CopyDataInit
 80217e0:	d3f9      	bcc.n	80217d6 <CopyDataInit>
  
/* Zero fill the bss segment. */
  ldr r2, =_sbss
 80217e2:	4a0b      	ldr	r2, [pc, #44]	; (8021810 <LoopFillZerobss+0x22>)
  ldr r4, =_ebss
 80217e4:	4c0b      	ldr	r4, [pc, #44]	; (8021814 <LoopFillZerobss+0x26>)
  movs r3, #0
 80217e6:	2300      	movs	r3, #0
  b LoopFillZerobss
 80217e8:	e001      	b.n	80217ee <LoopFillZerobss>

080217ea <FillZerobss>:

FillZerobss:
  str  r3, [r2]
 80217ea:	6013      	str	r3, [r2, #0]
  adds r2, r2, #4
 80217ec:	3204      	adds	r2, #4

080217ee <LoopFillZerobss>:

LoopFillZerobss:
  cmp r2, r4
 80217ee:	42a2      	cmp	r2, r4
  bcc FillZerobss
 80217f0:	d3fb      	bcc.n	80217ea <FillZerobss>

/* Call the clock system initialization function.*/
  bl  SystemInit   
 80217f2:	f7ff fd45 	bl	8021280 <SystemInit>
/* Call static constructors */
    bl __libc_init_array
 80217f6:	f00d fc99 	bl	802f12c <__libc_init_array>
/* Call the application's entry point.*/
  bl  main
 80217fa:	f7ff fb69 	bl	8020ed0 <main>
  bx  lr    
 80217fe:	4770      	bx	lr
  ldr   sp, =_estack       /* set stack pointer */
 8021800:	20040000 	.word	0x20040000
  ldr r0, =_sdata
 8021804:	20000000 	.word	0x20000000
  ldr r1, =_edata
 8021808:	200001bc 	.word	0x200001bc
  ldr r2, =_sidata
 802180c:	08030cdc 	.word	0x08030cdc
  ldr r2, =_sbss
 8021810:	200001bc 	.word	0x200001bc
  ldr r4, =_ebss
 8021814:	2000e720 	.word	0x2000e720

08021818 <ADC_IRQHandler>:
 * @retval None       
*/
    .section  .text.Default_Handler,"ax",%progbits
Default_Handler:
Infinite_Loop:
  b  Infinite_Loop
 8021818:	e7fe      	b.n	8021818 <ADC_IRQHandler>

0802181a <__retarget_lock_acquire_recursive>:
/**
  * @brief Acquire recursive lock
  * @param lock The lock
  */
void __retarget_lock_acquire_recursive(_LOCK_T lock)
{
 802181a:	b508      	push	{r3, lr}
  STM32_LOCK_BLOCK_IF_NULL_ARGUMENT(lock);
 802181c:	b198      	cbz	r0, 8021846 <__retarget_lock_acquire_recursive+0x2c>
 802181e:	4603      	mov	r3, r0
  * @brief Acquire STM32 lock
  * @param lock The lock to acquire
  */
static inline void stm32_lock_acquire(LockingData_t *lock)
{
  STM32_LOCK_BLOCK_IF_NULL_ARGUMENT(lock);
 8021820:	b1a8      	cbz	r0, 802184e <__retarget_lock_acquire_recursive+0x34>
  STM32_LOCK_ASSERT_VALID_NESTING_LEVEL(lock);
 8021822:	7a02      	ldrb	r2, [r0, #8]
 8021824:	2a01      	cmp	r2, #1
 8021826:	d816      	bhi.n	8021856 <__retarget_lock_acquire_recursive+0x3c>
  lock->basepri[lock->nesting_level++] = taskENTER_CRITICAL_FROM_ISR();
 8021828:	1c51      	adds	r1, r2, #1
 802182a:	7201      	strb	r1, [r0, #8]

portFORCE_INLINE static uint32_t ulPortRaiseBASEPRI( void )
{
uint32_t ulOriginalBASEPRI, ulNewBASEPRI;

	__asm volatile
 802182c:	f3ef 8111 	mrs	r1, BASEPRI
 8021830:	f04f 0050 	mov.w	r0, #80	; 0x50
 8021834:	f380 8811 	msr	BASEPRI, r0
 8021838:	f3bf 8f6f 	isb	sy
 802183c:	f3bf 8f4f 	dsb	sy
 8021840:	f843 1022 	str.w	r1, [r3, r2, lsl #2]
  stm32_lock_acquire(STM32_LOCK_PARAMETER(lock));
}
 8021844:	bd08      	pop	{r3, pc}
  __ASM volatile ("cpsid i" : : : "memory");
 8021846:	b672      	cpsid	i
  STM32_LOCK_BLOCK_IF_NULL_ARGUMENT(lock);
 8021848:	f7ff fae6 	bl	8020e18 <Error_Handler>
 802184c:	e7fe      	b.n	802184c <__retarget_lock_acquire_recursive+0x32>
 802184e:	b672      	cpsid	i
  STM32_LOCK_BLOCK_IF_NULL_ARGUMENT(lock);
 8021850:	f7ff fae2 	bl	8020e18 <Error_Handler>
 8021854:	e7fe      	b.n	8021854 <__retarget_lock_acquire_recursive+0x3a>
 8021856:	b672      	cpsid	i
  STM32_LOCK_ASSERT_VALID_NESTING_LEVEL(lock);
 8021858:	f7ff fade 	bl	8020e18 <Error_Handler>
 802185c:	e7fe      	b.n	802185c <__retarget_lock_acquire_recursive+0x42>

0802185e <__retarget_lock_release_recursive>:
/**
  * @brief Release recursive lock
  * @param lock The lock
  */
void __retarget_lock_release_recursive(_LOCK_T lock)
{
 802185e:	b508      	push	{r3, lr}
  STM32_LOCK_BLOCK_IF_NULL_ARGUMENT(lock);
 8021860:	b158      	cbz	r0, 802187a <__retarget_lock_release_recursive+0x1c>
  * @brief Release STM32 lock
  * @param lock The lock to release
  */
static inline void stm32_lock_release(LockingData_t *lock)
{
  STM32_LOCK_BLOCK_IF_NULL_ARGUMENT(lock);
 8021862:	b170      	cbz	r0, 8021882 <__retarget_lock_release_recursive+0x24>
  lock->nesting_level--;
 8021864:	7a03      	ldrb	r3, [r0, #8]
 8021866:	3b01      	subs	r3, #1
 8021868:	b2db      	uxtb	r3, r3
 802186a:	7203      	strb	r3, [r0, #8]
  STM32_LOCK_ASSERT_VALID_NESTING_LEVEL(lock);
 802186c:	2b01      	cmp	r3, #1
 802186e:	d80c      	bhi.n	802188a <__retarget_lock_release_recursive+0x2c>
  taskEXIT_CRITICAL_FROM_ISR(lock->basepri[lock->nesting_level]);
 8021870:	f850 3023 	ldr.w	r3, [r0, r3, lsl #2]
}
/*-----------------------------------------------------------*/

portFORCE_INLINE static void vPortSetBASEPRI( uint32_t ulNewMaskValue )
{
	__asm volatile
 8021874:	f383 8811 	msr	BASEPRI, r3
  stm32_lock_release(STM32_LOCK_PARAMETER(lock));
}
 8021878:	bd08      	pop	{r3, pc}
 802187a:	b672      	cpsid	i
  STM32_LOCK_BLOCK_IF_NULL_ARGUMENT(lock);
 802187c:	f7ff facc 	bl	8020e18 <Error_Handler>
 8021880:	e7fe      	b.n	8021880 <__retarget_lock_release_recursive+0x22>
 8021882:	b672      	cpsid	i
  STM32_LOCK_BLOCK_IF_NULL_ARGUMENT(lock);
 8021884:	f7ff fac8 	bl	8020e18 <Error_Handler>
 8021888:	e7fe      	b.n	8021888 <__retarget_lock_release_recursive+0x2a>
 802188a:	b672      	cpsid	i
  STM32_LOCK_ASSERT_VALID_NESTING_LEVEL(lock);
 802188c:	f7ff fac4 	bl	8020e18 <Error_Handler>
 8021890:	e7fe      	b.n	8021890 <__retarget_lock_release_recursive+0x32>
	...

08021894 <HAL_Init>:
  *         need to ensure that the SysTick time base is always set to 1 millisecond
  *         to have correct HAL operation.
  * @retval HAL status
  */
HAL_StatusTypeDef HAL_Init(void)
{
 8021894:	b508      	push	{r3, lr}
  /* Configure Flash prefetch, Instruction cache, Data cache */ 
#if (INSTRUCTION_CACHE_ENABLE != 0U)
  __HAL_FLASH_INSTRUCTION_CACHE_ENABLE();
 8021896:	4b0b      	ldr	r3, [pc, #44]	; (80218c4 <HAL_Init+0x30>)
 8021898:	681a      	ldr	r2, [r3, #0]
 802189a:	f442 7200 	orr.w	r2, r2, #512	; 0x200
 802189e:	601a      	str	r2, [r3, #0]
#endif /* INSTRUCTION_CACHE_ENABLE */

#if (DATA_CACHE_ENABLE != 0U)
  __HAL_FLASH_DATA_CACHE_ENABLE();
 80218a0:	681a      	ldr	r2, [r3, #0]
 80218a2:	f442 6280 	orr.w	r2, r2, #1024	; 0x400
 80218a6:	601a      	str	r2, [r3, #0]
#endif /* DATA_CACHE_ENABLE */

#if (PREFETCH_ENABLE != 0U)
  __HAL_FLASH_PREFETCH_BUFFER_ENABLE();
 80218a8:	681a      	ldr	r2, [r3, #0]
 80218aa:	f442 7280 	orr.w	r2, r2, #256	; 0x100
 80218ae:	601a      	str	r2, [r3, #0]
#endif /* PREFETCH_ENABLE */

  /* Set Interrupt Group Priority */
  HAL_NVIC_SetPriorityGrouping(NVIC_PRIORITYGROUP_4);
 80218b0:	2003      	movs	r0, #3
 80218b2:	f000 f81b 	bl	80218ec <HAL_NVIC_SetPriorityGrouping>

  /* Use systick as time base source and configure 1ms tick (default clock after Reset is HSI) */
  HAL_InitTick(TICK_INT_PRIORITY);
 80218b6:	200f      	movs	r0, #15
 80218b8:	f7ff fbe2 	bl	8021080 <HAL_InitTick>

  /* Init the low level hardware */
  HAL_MspInit();
 80218bc:	f7ff fbbe 	bl	802103c <HAL_MspInit>

  /* Return function status */
  return HAL_OK;
}
 80218c0:	2000      	movs	r0, #0
 80218c2:	bd08      	pop	{r3, pc}
 80218c4:	40023c00 	.word	0x40023c00

080218c8 <HAL_IncTick>:
  *      implementations in user file.
  * @retval None
  */
__weak void HAL_IncTick(void)
{
  uwTick += uwTickFreq;
 80218c8:	4a03      	ldr	r2, [pc, #12]	; (80218d8 <HAL_IncTick+0x10>)
 80218ca:	6811      	ldr	r1, [r2, #0]
 80218cc:	4b03      	ldr	r3, [pc, #12]	; (80218dc <HAL_IncTick+0x14>)
 80218ce:	781b      	ldrb	r3, [r3, #0]
 80218d0:	440b      	add	r3, r1
 80218d2:	6013      	str	r3, [r2, #0]
}
 80218d4:	4770      	bx	lr
 80218d6:	bf00      	nop
 80218d8:	2000d5ec 	.word	0x2000d5ec
 80218dc:	20000004 	.word	0x20000004

080218e0 <HAL_GetTick>:
  *       implementations in user file.
  * @retval tick value
  */
__weak uint32_t HAL_GetTick(void)
{
  return uwTick;
 80218e0:	4b01      	ldr	r3, [pc, #4]	; (80218e8 <HAL_GetTick+0x8>)
 80218e2:	6818      	ldr	r0, [r3, #0]
}
 80218e4:	4770      	bx	lr
 80218e6:	bf00      	nop
 80218e8:	2000d5ec 	.word	0x2000d5ec

080218ec <HAL_NVIC_SetPriorityGrouping>:
  * @note   When the NVIC_PriorityGroup_0 is selected, IRQ preemption is no more possible. 
  *         The pending IRQ priority will be managed only by the subpriority. 
  * @retval None
  */
void HAL_NVIC_SetPriorityGrouping(uint32_t PriorityGroup)
{
 80218ec:	b510      	push	{r4, lr}
 80218ee:	4604      	mov	r4, r0
  /* Check the parameters */
  assert_param(IS_NVIC_PRIORITY_GROUP(PriorityGroup));
 80218f0:	1ec3      	subs	r3, r0, #3
 80218f2:	2b04      	cmp	r3, #4
 80218f4:	d80f      	bhi.n	8021916 <HAL_NVIC_SetPriorityGrouping+0x2a>
__STATIC_INLINE void __NVIC_SetPriorityGrouping(uint32_t PriorityGroup)
{
  uint32_t reg_value;
  uint32_t PriorityGroupTmp = (PriorityGroup & (uint32_t)0x07UL);             /* only values 0..7 are used          */

  reg_value  =  SCB->AIRCR;                                                   /* read old register configuration    */
 80218f6:	4a0a      	ldr	r2, [pc, #40]	; (8021920 <HAL_NVIC_SetPriorityGrouping+0x34>)
 80218f8:	68d3      	ldr	r3, [r2, #12]
  reg_value &= ~((uint32_t)(SCB_AIRCR_VECTKEY_Msk | SCB_AIRCR_PRIGROUP_Msk)); /* clear bits to change               */
 80218fa:	f423 63e0 	bic.w	r3, r3, #1792	; 0x700
 80218fe:	041b      	lsls	r3, r3, #16
 8021900:	0c1b      	lsrs	r3, r3, #16
  reg_value  =  (reg_value                                   |
                ((uint32_t)0x5FAUL << SCB_AIRCR_VECTKEY_Pos) |
                (PriorityGroupTmp << SCB_AIRCR_PRIGROUP_Pos)  );              /* Insert write key and priority group */
 8021902:	0224      	lsls	r4, r4, #8
 8021904:	f404 64e0 	and.w	r4, r4, #1792	; 0x700
                ((uint32_t)0x5FAUL << SCB_AIRCR_VECTKEY_Pos) |
 8021908:	4323      	orrs	r3, r4
  reg_value  =  (reg_value                                   |
 802190a:	f043 63bf 	orr.w	r3, r3, #100139008	; 0x5f80000
 802190e:	f443 3300 	orr.w	r3, r3, #131072	; 0x20000
  SCB->AIRCR =  reg_value;
 8021912:	60d3      	str	r3, [r2, #12]
  
  /* Set the PRIGROUP[10:8] bits according to the PriorityGroup parameter value */
  NVIC_SetPriorityGrouping(PriorityGroup);
}
 8021914:	bd10      	pop	{r4, pc}
  assert_param(IS_NVIC_PRIORITY_GROUP(PriorityGroup));
 8021916:	2190      	movs	r1, #144	; 0x90
 8021918:	4802      	ldr	r0, [pc, #8]	; (8021924 <HAL_NVIC_SetPriorityGrouping+0x38>)
 802191a:	f7ff fb25 	bl	8020f68 <assert_failed>
 802191e:	e7ea      	b.n	80218f6 <HAL_NVIC_SetPriorityGrouping+0xa>
 8021920:	e000ed00 	.word	0xe000ed00
 8021924:	0802fe68 	.word	0x0802fe68

08021928 <HAL_NVIC_SetPriority>:
  *         This parameter can be a value between 0 and 15
  *         A lower priority value indicates a higher priority.          
  * @retval None
  */
void HAL_NVIC_SetPriority(IRQn_Type IRQn, uint32_t PreemptPriority, uint32_t SubPriority)
{ 
 8021928:	b570      	push	{r4, r5, r6, lr}
 802192a:	4605      	mov	r5, r0
 802192c:	460c      	mov	r4, r1
 802192e:	4616      	mov	r6, r2
  uint32_t prioritygroup = 0x00U;
  
  /* Check the parameters */
  assert_param(IS_NVIC_SUB_PRIORITY(SubPriority));
 8021930:	2a0f      	cmp	r2, #15
 8021932:	d825      	bhi.n	8021980 <HAL_NVIC_SetPriority+0x58>
  assert_param(IS_NVIC_PREEMPTION_PRIORITY(PreemptPriority));
 8021934:	2c0f      	cmp	r4, #15
 8021936:	d828      	bhi.n	802198a <HAL_NVIC_SetPriority+0x62>
  \details Reads the priority grouping field from the NVIC Interrupt Controller.
  \return                Priority grouping field (SCB->AIRCR [10:8] PRIGROUP field).
 */
__STATIC_INLINE uint32_t __NVIC_GetPriorityGrouping(void)
{
  return ((uint32_t)((SCB->AIRCR & SCB_AIRCR_PRIGROUP_Msk) >> SCB_AIRCR_PRIGROUP_Pos));
 8021938:	4b1b      	ldr	r3, [pc, #108]	; (80219a8 <HAL_NVIC_SetPriority+0x80>)
 802193a:	68db      	ldr	r3, [r3, #12]
 802193c:	f3c3 2302 	ubfx	r3, r3, #8, #3
{
  uint32_t PriorityGroupTmp = (PriorityGroup & (uint32_t)0x07UL);   /* only values 0..7 are used          */
  uint32_t PreemptPriorityBits;
  uint32_t SubPriorityBits;

  PreemptPriorityBits = ((7UL - PriorityGroupTmp) > (uint32_t)(__NVIC_PRIO_BITS)) ? (uint32_t)(__NVIC_PRIO_BITS) : (uint32_t)(7UL - PriorityGroupTmp);
 8021940:	f1c3 0107 	rsb	r1, r3, #7
 8021944:	2904      	cmp	r1, #4
 8021946:	bf28      	it	cs
 8021948:	2104      	movcs	r1, #4
  SubPriorityBits     = ((PriorityGroupTmp + (uint32_t)(__NVIC_PRIO_BITS)) < (uint32_t)7UL) ? (uint32_t)0UL : (uint32_t)((PriorityGroupTmp - 7UL) + (uint32_t)(__NVIC_PRIO_BITS));
 802194a:	1d1a      	adds	r2, r3, #4
 802194c:	2a06      	cmp	r2, #6
 802194e:	d921      	bls.n	8021994 <HAL_NVIC_SetPriority+0x6c>
 8021950:	3b03      	subs	r3, #3

  return (
           ((PreemptPriority & (uint32_t)((1UL << (PreemptPriorityBits)) - 1UL)) << SubPriorityBits) |
 8021952:	f04f 32ff 	mov.w	r2, #4294967295
 8021956:	fa02 f101 	lsl.w	r1, r2, r1
 802195a:	ea24 0401 	bic.w	r4, r4, r1
 802195e:	409c      	lsls	r4, r3
           ((SubPriority     & (uint32_t)((1UL << (SubPriorityBits    )) - 1UL)))
 8021960:	fa02 f303 	lsl.w	r3, r2, r3
 8021964:	ea26 0603 	bic.w	r6, r6, r3
           ((PreemptPriority & (uint32_t)((1UL << (PreemptPriorityBits)) - 1UL)) << SubPriorityBits) |
 8021968:	4334      	orrs	r4, r6
  if ((int32_t)(IRQn) >= 0)
 802196a:	2d00      	cmp	r5, #0
 802196c:	db14      	blt.n	8021998 <HAL_NVIC_SetPriority+0x70>
    NVIC->IP[((uint32_t)IRQn)]               = (uint8_t)((priority << (8U - __NVIC_PRIO_BITS)) & (uint32_t)0xFFUL);
 802196e:	0124      	lsls	r4, r4, #4
 8021970:	b2e4      	uxtb	r4, r4
 8021972:	f105 4560 	add.w	r5, r5, #3758096384	; 0xe0000000
 8021976:	f505 4561 	add.w	r5, r5, #57600	; 0xe100
 802197a:	f885 4300 	strb.w	r4, [r5, #768]	; 0x300
  
  prioritygroup = NVIC_GetPriorityGrouping();
  
  NVIC_SetPriority(IRQn, NVIC_EncodePriority(prioritygroup, PreemptPriority, SubPriority));
}
 802197e:	bd70      	pop	{r4, r5, r6, pc}
  assert_param(IS_NVIC_SUB_PRIORITY(SubPriority));
 8021980:	21a8      	movs	r1, #168	; 0xa8
 8021982:	480a      	ldr	r0, [pc, #40]	; (80219ac <HAL_NVIC_SetPriority+0x84>)
 8021984:	f7ff faf0 	bl	8020f68 <assert_failed>
 8021988:	e7d4      	b.n	8021934 <HAL_NVIC_SetPriority+0xc>
  assert_param(IS_NVIC_PREEMPTION_PRIORITY(PreemptPriority));
 802198a:	21a9      	movs	r1, #169	; 0xa9
 802198c:	4807      	ldr	r0, [pc, #28]	; (80219ac <HAL_NVIC_SetPriority+0x84>)
 802198e:	f7ff faeb 	bl	8020f68 <assert_failed>
 8021992:	e7d1      	b.n	8021938 <HAL_NVIC_SetPriority+0x10>
  SubPriorityBits     = ((PriorityGroupTmp + (uint32_t)(__NVIC_PRIO_BITS)) < (uint32_t)7UL) ? (uint32_t)0UL : (uint32_t)((PriorityGroupTmp - 7UL) + (uint32_t)(__NVIC_PRIO_BITS));
 8021994:	2300      	movs	r3, #0
 8021996:	e7dc      	b.n	8021952 <HAL_NVIC_SetPriority+0x2a>
    SCB->SHP[(((uint32_t)IRQn) & 0xFUL)-4UL] = (uint8_t)((priority << (8U - __NVIC_PRIO_BITS)) & (uint32_t)0xFFUL);
 8021998:	f005 050f 	and.w	r5, r5, #15
 802199c:	0124      	lsls	r4, r4, #4
 802199e:	b2e4      	uxtb	r4, r4
 80219a0:	4b03      	ldr	r3, [pc, #12]	; (80219b0 <HAL_NVIC_SetPriority+0x88>)
 80219a2:	555c      	strb	r4, [r3, r5]
}
 80219a4:	e7eb      	b.n	802197e <HAL_NVIC_SetPriority+0x56>
 80219a6:	bf00      	nop
 80219a8:	e000ed00 	.word	0xe000ed00
 80219ac:	0802fe68 	.word	0x0802fe68
 80219b0:	e000ed14 	.word	0xe000ed14

080219b4 <HAL_NVIC_EnableIRQ>:
  *         This parameter can be an enumerator of IRQn_Type enumeration
  *         (For the complete STM32 Devices IRQ Channels list, please refer to the appropriate CMSIS device file (stm32f4xxxx.h))
  * @retval None
  */
void HAL_NVIC_EnableIRQ(IRQn_Type IRQn)
{
 80219b4:	b510      	push	{r4, lr}
  /* Check the parameters */
  assert_param(IS_NVIC_DEVICE_IRQ(IRQn));
 80219b6:	1e04      	subs	r4, r0, #0
 80219b8:	db0a      	blt.n	80219d0 <HAL_NVIC_EnableIRQ+0x1c>
  if ((int32_t)(IRQn) >= 0)
 80219ba:	2c00      	cmp	r4, #0
 80219bc:	db07      	blt.n	80219ce <HAL_NVIC_EnableIRQ+0x1a>
    NVIC->ISER[(((uint32_t)IRQn) >> 5UL)] = (uint32_t)(1UL << (((uint32_t)IRQn) & 0x1FUL));
 80219be:	f004 021f 	and.w	r2, r4, #31
 80219c2:	0964      	lsrs	r4, r4, #5
 80219c4:	2301      	movs	r3, #1
 80219c6:	4093      	lsls	r3, r2
 80219c8:	4a04      	ldr	r2, [pc, #16]	; (80219dc <HAL_NVIC_EnableIRQ+0x28>)
 80219ca:	f842 3024 	str.w	r3, [r2, r4, lsl #2]
  
  /* Enable interrupt */
  NVIC_EnableIRQ(IRQn);
}
 80219ce:	bd10      	pop	{r4, pc}
  assert_param(IS_NVIC_DEVICE_IRQ(IRQn));
 80219d0:	21bc      	movs	r1, #188	; 0xbc
 80219d2:	4803      	ldr	r0, [pc, #12]	; (80219e0 <HAL_NVIC_EnableIRQ+0x2c>)
 80219d4:	f7ff fac8 	bl	8020f68 <assert_failed>
 80219d8:	e7ef      	b.n	80219ba <HAL_NVIC_EnableIRQ+0x6>
 80219da:	bf00      	nop
 80219dc:	e000e100 	.word	0xe000e100
 80219e0:	0802fe68 	.word	0x0802fe68

080219e4 <DMA_SetConfig>:
  * @param  DstAddress The destination memory Buffer address
  * @param  DataLength The length of data to be transferred from source to destination
  * @retval HAL status
  */
static void DMA_SetConfig(DMA_HandleTypeDef *hdma, uint32_t SrcAddress, uint32_t DstAddress, uint32_t DataLength)
{
 80219e4:	b430      	push	{r4, r5}
  /* Clear DBM bit */
  hdma->Instance->CR &= (uint32_t)(~DMA_SxCR_DBM);
 80219e6:	6805      	ldr	r5, [r0, #0]
 80219e8:	682c      	ldr	r4, [r5, #0]
 80219ea:	f424 2480 	bic.w	r4, r4, #262144	; 0x40000
 80219ee:	602c      	str	r4, [r5, #0]

  /* Configure DMA Stream data length */
  hdma->Instance->NDTR = DataLength;
 80219f0:	6804      	ldr	r4, [r0, #0]
 80219f2:	6063      	str	r3, [r4, #4]

  /* Memory to Peripheral */
  if((hdma->Init.Direction) == DMA_MEMORY_TO_PERIPH)
 80219f4:	6883      	ldr	r3, [r0, #8]
 80219f6:	2b40      	cmp	r3, #64	; 0x40
 80219f8:	d005      	beq.n	8021a06 <DMA_SetConfig+0x22>
  }
  /* Peripheral to Memory */
  else
  {
    /* Configure DMA Stream source address */
    hdma->Instance->PAR = SrcAddress;
 80219fa:	6803      	ldr	r3, [r0, #0]
 80219fc:	6099      	str	r1, [r3, #8]

    /* Configure DMA Stream destination address */
    hdma->Instance->M0AR = DstAddress;
 80219fe:	6803      	ldr	r3, [r0, #0]
 8021a00:	60da      	str	r2, [r3, #12]
  }
}
 8021a02:	bc30      	pop	{r4, r5}
 8021a04:	4770      	bx	lr
    hdma->Instance->PAR = DstAddress;
 8021a06:	6803      	ldr	r3, [r0, #0]
 8021a08:	609a      	str	r2, [r3, #8]
    hdma->Instance->M0AR = SrcAddress;
 8021a0a:	6803      	ldr	r3, [r0, #0]
 8021a0c:	60d9      	str	r1, [r3, #12]
 8021a0e:	e7f8      	b.n	8021a02 <DMA_SetConfig+0x1e>

08021a10 <DMA_CalcBaseAndBitshift>:
  * @param  hdma       pointer to a DMA_HandleTypeDef structure that contains
  *                     the configuration information for the specified DMA Stream. 
  * @retval Stream base address
  */
static uint32_t DMA_CalcBaseAndBitshift(DMA_HandleTypeDef *hdma)
{
 8021a10:	b410      	push	{r4}
  uint32_t stream_number = (((uint32_t)hdma->Instance & 0xFFU) - 16U) / 24U;
 8021a12:	6803      	ldr	r3, [r0, #0]
 8021a14:	b2d9      	uxtb	r1, r3
 8021a16:	3910      	subs	r1, #16
 8021a18:	4a0c      	ldr	r2, [pc, #48]	; (8021a4c <DMA_CalcBaseAndBitshift+0x3c>)
 8021a1a:	fba2 4201 	umull	r4, r2, r2, r1
 8021a1e:	0912      	lsrs	r2, r2, #4
  
  /* lookup table for necessary bitshift of flags within status registers */
  static const uint8_t flagBitshiftOffset[8U] = {0U, 6U, 16U, 22U, 0U, 6U, 16U, 22U};
  hdma->StreamIndex = flagBitshiftOffset[stream_number];
 8021a20:	4c0b      	ldr	r4, [pc, #44]	; (8021a50 <DMA_CalcBaseAndBitshift+0x40>)
 8021a22:	5ca2      	ldrb	r2, [r4, r2]
 8021a24:	65c2      	str	r2, [r0, #92]	; 0x5c
  
  if (stream_number > 3U)
 8021a26:	295f      	cmp	r1, #95	; 0x5f
 8021a28:	d909      	bls.n	8021a3e <DMA_CalcBaseAndBitshift+0x2e>
  {
    /* return pointer to HISR and HIFCR */
    hdma->StreamBaseAddress = (((uint32_t)hdma->Instance & (uint32_t)(~0x3FFU)) + 4U);
 8021a2a:	f423 737f 	bic.w	r3, r3, #1020	; 0x3fc
 8021a2e:	f023 0303 	bic.w	r3, r3, #3
 8021a32:	3304      	adds	r3, #4
 8021a34:	6583      	str	r3, [r0, #88]	; 0x58
    /* return pointer to LISR and LIFCR */
    hdma->StreamBaseAddress = ((uint32_t)hdma->Instance & (uint32_t)(~0x3FFU));
  }
  
  return hdma->StreamBaseAddress;
}
 8021a36:	6d80      	ldr	r0, [r0, #88]	; 0x58
 8021a38:	f85d 4b04 	ldr.w	r4, [sp], #4
 8021a3c:	4770      	bx	lr
    hdma->StreamBaseAddress = ((uint32_t)hdma->Instance & (uint32_t)(~0x3FFU));
 8021a3e:	f423 737f 	bic.w	r3, r3, #1020	; 0x3fc
 8021a42:	f023 0303 	bic.w	r3, r3, #3
 8021a46:	6583      	str	r3, [r0, #88]	; 0x58
 8021a48:	e7f5      	b.n	8021a36 <DMA_CalcBaseAndBitshift+0x26>
 8021a4a:	bf00      	nop
 8021a4c:	aaaaaaab 	.word	0xaaaaaaab
 8021a50:	0802fedc 	.word	0x0802fedc

08021a54 <DMA_CheckFifoParam>:
  * @retval HAL status
  */
static HAL_StatusTypeDef DMA_CheckFifoParam(DMA_HandleTypeDef *hdma)
{
  HAL_StatusTypeDef status = HAL_OK;
  uint32_t tmp = hdma->Init.FIFOThreshold;
 8021a54:	6a83      	ldr	r3, [r0, #40]	; 0x28
  
  /* Memory Data size equal to Byte */
  if(hdma->Init.MemDataAlignment == DMA_MDATAALIGN_BYTE)
 8021a56:	6982      	ldr	r2, [r0, #24]
 8021a58:	b992      	cbnz	r2, 8021a80 <DMA_CheckFifoParam+0x2c>
  {
    switch (tmp)
 8021a5a:	2b01      	cmp	r3, #1
 8021a5c:	d00a      	beq.n	8021a74 <DMA_CheckFifoParam+0x20>
 8021a5e:	2b02      	cmp	r3, #2
 8021a60:	d002      	beq.n	8021a68 <DMA_CheckFifoParam+0x14>
 8021a62:	b10b      	cbz	r3, 8021a68 <DMA_CheckFifoParam+0x14>
 8021a64:	2000      	movs	r0, #0
 8021a66:	4770      	bx	lr
    {
    case DMA_FIFO_THRESHOLD_1QUARTERFULL:
    case DMA_FIFO_THRESHOLD_3QUARTERSFULL:
      if ((hdma->Init.MemBurst & DMA_SxCR_MBURST_1) == DMA_SxCR_MBURST_1)
 8021a68:	6ac3      	ldr	r3, [r0, #44]	; 0x2c
 8021a6a:	f013 7f80 	tst.w	r3, #16777216	; 0x1000000
 8021a6e:	d128      	bne.n	8021ac2 <DMA_CheckFifoParam+0x6e>
  HAL_StatusTypeDef status = HAL_OK;
 8021a70:	2000      	movs	r0, #0
 8021a72:	4770      	bx	lr
      {
        status = HAL_ERROR;
      }
      break;
    case DMA_FIFO_THRESHOLD_HALFFULL:
      if (hdma->Init.MemBurst == DMA_MBURST_INC16)
 8021a74:	6ac3      	ldr	r3, [r0, #44]	; 0x2c
 8021a76:	f1b3 7fc0 	cmp.w	r3, #25165824	; 0x1800000
 8021a7a:	d024      	beq.n	8021ac6 <DMA_CheckFifoParam+0x72>
  HAL_StatusTypeDef status = HAL_OK;
 8021a7c:	2000      	movs	r0, #0
 8021a7e:	4770      	bx	lr
      break;
    }
  }
  
  /* Memory Data size equal to Half-Word */
  else if (hdma->Init.MemDataAlignment == DMA_MDATAALIGN_HALFWORD)
 8021a80:	f5b2 5f00 	cmp.w	r2, #8192	; 0x2000
 8021a84:	d009      	beq.n	8021a9a <DMA_CheckFifoParam+0x46>
  }
  
  /* Memory Data size equal to Word */
  else
  {
    switch (tmp)
 8021a86:	2b02      	cmp	r3, #2
 8021a88:	d925      	bls.n	8021ad6 <DMA_CheckFifoParam+0x82>
 8021a8a:	2b03      	cmp	r3, #3
 8021a8c:	d125      	bne.n	8021ada <DMA_CheckFifoParam+0x86>
    case DMA_FIFO_THRESHOLD_HALFFULL:
    case DMA_FIFO_THRESHOLD_3QUARTERSFULL:
      status = HAL_ERROR;
      break;
    case DMA_FIFO_THRESHOLD_FULL:
      if ((hdma->Init.MemBurst & DMA_SxCR_MBURST_1) == DMA_SxCR_MBURST_1)
 8021a8e:	6ac3      	ldr	r3, [r0, #44]	; 0x2c
 8021a90:	f013 7f80 	tst.w	r3, #16777216	; 0x1000000
 8021a94:	d123      	bne.n	8021ade <DMA_CheckFifoParam+0x8a>
  HAL_StatusTypeDef status = HAL_OK;
 8021a96:	2000      	movs	r0, #0
 8021a98:	4770      	bx	lr
    switch (tmp)
 8021a9a:	2b03      	cmp	r3, #3
 8021a9c:	d803      	bhi.n	8021aa6 <DMA_CheckFifoParam+0x52>
 8021a9e:	e8df f003 	tbb	[pc, r3]
 8021aa2:	0414      	.short	0x0414
 8021aa4:	0a14      	.short	0x0a14
  else if (hdma->Init.MemDataAlignment == DMA_MDATAALIGN_HALFWORD)
 8021aa6:	2000      	movs	r0, #0
 8021aa8:	4770      	bx	lr
      if ((hdma->Init.MemBurst & DMA_SxCR_MBURST_1) == DMA_SxCR_MBURST_1)
 8021aaa:	6ac3      	ldr	r3, [r0, #44]	; 0x2c
 8021aac:	f013 7f80 	tst.w	r3, #16777216	; 0x1000000
 8021ab0:	d10d      	bne.n	8021ace <DMA_CheckFifoParam+0x7a>
  HAL_StatusTypeDef status = HAL_OK;
 8021ab2:	2000      	movs	r0, #0
 8021ab4:	4770      	bx	lr
      if (hdma->Init.MemBurst == DMA_MBURST_INC16)
 8021ab6:	6ac3      	ldr	r3, [r0, #44]	; 0x2c
 8021ab8:	f1b3 7fc0 	cmp.w	r3, #25165824	; 0x1800000
 8021abc:	d009      	beq.n	8021ad2 <DMA_CheckFifoParam+0x7e>
  HAL_StatusTypeDef status = HAL_OK;
 8021abe:	2000      	movs	r0, #0
 8021ac0:	4770      	bx	lr
        status = HAL_ERROR;
 8021ac2:	2001      	movs	r0, #1
 8021ac4:	4770      	bx	lr
        status = HAL_ERROR;
 8021ac6:	2001      	movs	r0, #1
 8021ac8:	4770      	bx	lr
      status = HAL_ERROR;
 8021aca:	2001      	movs	r0, #1
 8021acc:	4770      	bx	lr
        status = HAL_ERROR;
 8021ace:	2001      	movs	r0, #1
 8021ad0:	4770      	bx	lr
        status = HAL_ERROR;
 8021ad2:	2001      	movs	r0, #1
 8021ad4:	4770      	bx	lr
      status = HAL_ERROR;
 8021ad6:	2001      	movs	r0, #1
 8021ad8:	4770      	bx	lr
    switch (tmp)
 8021ada:	2000      	movs	r0, #0
 8021adc:	4770      	bx	lr
      {
        status = HAL_ERROR;
 8021ade:	2001      	movs	r0, #1
      break;
    }
  } 
  
  return status; 
}
 8021ae0:	4770      	bx	lr
	...

08021ae4 <HAL_DMA_Init>:
{
 8021ae4:	b570      	push	{r4, r5, r6, lr}
 8021ae6:	4604      	mov	r4, r0
  uint32_t tickstart = HAL_GetTick();
 8021ae8:	f7ff fefa 	bl	80218e0 <HAL_GetTick>
  if(hdma == NULL)
 8021aec:	2c00      	cmp	r4, #0
 8021aee:	f000 8138 	beq.w	8021d62 <HAL_DMA_Init+0x27e>
 8021af2:	4605      	mov	r5, r0
  assert_param(IS_DMA_STREAM_ALL_INSTANCE(hdma->Instance));
 8021af4:	6823      	ldr	r3, [r4, #0]
 8021af6:	4a9c      	ldr	r2, [pc, #624]	; (8021d68 <HAL_DMA_Init+0x284>)
 8021af8:	4293      	cmp	r3, r2
 8021afa:	d031      	beq.n	8021b60 <HAL_DMA_Init+0x7c>
 8021afc:	3218      	adds	r2, #24
 8021afe:	4293      	cmp	r3, r2
 8021b00:	d02e      	beq.n	8021b60 <HAL_DMA_Init+0x7c>
 8021b02:	3218      	adds	r2, #24
 8021b04:	4293      	cmp	r3, r2
 8021b06:	d02b      	beq.n	8021b60 <HAL_DMA_Init+0x7c>
 8021b08:	3218      	adds	r2, #24
 8021b0a:	4293      	cmp	r3, r2
 8021b0c:	d028      	beq.n	8021b60 <HAL_DMA_Init+0x7c>
 8021b0e:	3218      	adds	r2, #24
 8021b10:	4293      	cmp	r3, r2
 8021b12:	d025      	beq.n	8021b60 <HAL_DMA_Init+0x7c>
 8021b14:	3218      	adds	r2, #24
 8021b16:	4293      	cmp	r3, r2
 8021b18:	d022      	beq.n	8021b60 <HAL_DMA_Init+0x7c>
 8021b1a:	3218      	adds	r2, #24
 8021b1c:	4293      	cmp	r3, r2
 8021b1e:	d01f      	beq.n	8021b60 <HAL_DMA_Init+0x7c>
 8021b20:	3218      	adds	r2, #24
 8021b22:	4293      	cmp	r3, r2
 8021b24:	d01c      	beq.n	8021b60 <HAL_DMA_Init+0x7c>
 8021b26:	f502 7256 	add.w	r2, r2, #856	; 0x358
 8021b2a:	4293      	cmp	r3, r2
 8021b2c:	d018      	beq.n	8021b60 <HAL_DMA_Init+0x7c>
 8021b2e:	3218      	adds	r2, #24
 8021b30:	4293      	cmp	r3, r2
 8021b32:	d015      	beq.n	8021b60 <HAL_DMA_Init+0x7c>
 8021b34:	3218      	adds	r2, #24
 8021b36:	4293      	cmp	r3, r2
 8021b38:	d012      	beq.n	8021b60 <HAL_DMA_Init+0x7c>
 8021b3a:	3218      	adds	r2, #24
 8021b3c:	4293      	cmp	r3, r2
 8021b3e:	d00f      	beq.n	8021b60 <HAL_DMA_Init+0x7c>
 8021b40:	3218      	adds	r2, #24
 8021b42:	4293      	cmp	r3, r2
 8021b44:	d00c      	beq.n	8021b60 <HAL_DMA_Init+0x7c>
 8021b46:	3218      	adds	r2, #24
 8021b48:	4293      	cmp	r3, r2
 8021b4a:	d009      	beq.n	8021b60 <HAL_DMA_Init+0x7c>
 8021b4c:	3218      	adds	r2, #24
 8021b4e:	4293      	cmp	r3, r2
 8021b50:	d006      	beq.n	8021b60 <HAL_DMA_Init+0x7c>
 8021b52:	3218      	adds	r2, #24
 8021b54:	4293      	cmp	r3, r2
 8021b56:	d003      	beq.n	8021b60 <HAL_DMA_Init+0x7c>
 8021b58:	21b7      	movs	r1, #183	; 0xb7
 8021b5a:	4884      	ldr	r0, [pc, #528]	; (8021d6c <HAL_DMA_Init+0x288>)
 8021b5c:	f7ff fa04 	bl	8020f68 <assert_failed>
  assert_param(IS_DMA_CHANNEL(hdma->Init.Channel));
 8021b60:	6863      	ldr	r3, [r4, #4]
 8021b62:	b1a3      	cbz	r3, 8021b8e <HAL_DMA_Init+0xaa>
 8021b64:	f1b3 7f00 	cmp.w	r3, #33554432	; 0x2000000
 8021b68:	d011      	beq.n	8021b8e <HAL_DMA_Init+0xaa>
 8021b6a:	f1b3 6f80 	cmp.w	r3, #67108864	; 0x4000000
 8021b6e:	d00e      	beq.n	8021b8e <HAL_DMA_Init+0xaa>
 8021b70:	f1b3 6fc0 	cmp.w	r3, #100663296	; 0x6000000
 8021b74:	d00b      	beq.n	8021b8e <HAL_DMA_Init+0xaa>
 8021b76:	f1b3 6f00 	cmp.w	r3, #134217728	; 0x8000000
 8021b7a:	d008      	beq.n	8021b8e <HAL_DMA_Init+0xaa>
 8021b7c:	f1b3 6f20 	cmp.w	r3, #167772160	; 0xa000000
 8021b80:	d005      	beq.n	8021b8e <HAL_DMA_Init+0xaa>
 8021b82:	f1b3 6f40 	cmp.w	r3, #201326592	; 0xc000000
 8021b86:	d002      	beq.n	8021b8e <HAL_DMA_Init+0xaa>
 8021b88:	f1b3 6f60 	cmp.w	r3, #234881024	; 0xe000000
 8021b8c:	d16d      	bne.n	8021c6a <HAL_DMA_Init+0x186>
  assert_param(IS_DMA_DIRECTION(hdma->Init.Direction));
 8021b8e:	68a3      	ldr	r3, [r4, #8]
 8021b90:	b11b      	cbz	r3, 8021b9a <HAL_DMA_Init+0xb6>
 8021b92:	2b40      	cmp	r3, #64	; 0x40
 8021b94:	d001      	beq.n	8021b9a <HAL_DMA_Init+0xb6>
 8021b96:	2b80      	cmp	r3, #128	; 0x80
 8021b98:	d16c      	bne.n	8021c74 <HAL_DMA_Init+0x190>
  assert_param(IS_DMA_PERIPHERAL_INC_STATE(hdma->Init.PeriphInc));
 8021b9a:	68e3      	ldr	r3, [r4, #12]
 8021b9c:	f5b3 7f00 	cmp.w	r3, #512	; 0x200
 8021ba0:	d001      	beq.n	8021ba6 <HAL_DMA_Init+0xc2>
 8021ba2:	2b00      	cmp	r3, #0
 8021ba4:	d16b      	bne.n	8021c7e <HAL_DMA_Init+0x19a>
  assert_param(IS_DMA_MEMORY_INC_STATE(hdma->Init.MemInc));
 8021ba6:	6923      	ldr	r3, [r4, #16]
 8021ba8:	f5b3 6f80 	cmp.w	r3, #1024	; 0x400
 8021bac:	d001      	beq.n	8021bb2 <HAL_DMA_Init+0xce>
 8021bae:	2b00      	cmp	r3, #0
 8021bb0:	d16a      	bne.n	8021c88 <HAL_DMA_Init+0x1a4>
  assert_param(IS_DMA_PERIPHERAL_DATA_SIZE(hdma->Init.PeriphDataAlignment));
 8021bb2:	6963      	ldr	r3, [r4, #20]
 8021bb4:	b12b      	cbz	r3, 8021bc2 <HAL_DMA_Init+0xde>
 8021bb6:	f5b3 6f00 	cmp.w	r3, #2048	; 0x800
 8021bba:	d002      	beq.n	8021bc2 <HAL_DMA_Init+0xde>
 8021bbc:	f5b3 5f80 	cmp.w	r3, #4096	; 0x1000
 8021bc0:	d167      	bne.n	8021c92 <HAL_DMA_Init+0x1ae>
  assert_param(IS_DMA_MEMORY_DATA_SIZE(hdma->Init.MemDataAlignment));
 8021bc2:	69a3      	ldr	r3, [r4, #24]
 8021bc4:	b12b      	cbz	r3, 8021bd2 <HAL_DMA_Init+0xee>
 8021bc6:	f5b3 5f00 	cmp.w	r3, #8192	; 0x2000
 8021bca:	d002      	beq.n	8021bd2 <HAL_DMA_Init+0xee>
 8021bcc:	f5b3 4f80 	cmp.w	r3, #16384	; 0x4000
 8021bd0:	d164      	bne.n	8021c9c <HAL_DMA_Init+0x1b8>
  assert_param(IS_DMA_MODE(hdma->Init.Mode));
 8021bd2:	69e3      	ldr	r3, [r4, #28]
 8021bd4:	b123      	cbz	r3, 8021be0 <HAL_DMA_Init+0xfc>
 8021bd6:	f5b3 7f80 	cmp.w	r3, #256	; 0x100
 8021bda:	d001      	beq.n	8021be0 <HAL_DMA_Init+0xfc>
 8021bdc:	2b20      	cmp	r3, #32
 8021bde:	d162      	bne.n	8021ca6 <HAL_DMA_Init+0x1c2>
  assert_param(IS_DMA_PRIORITY(hdma->Init.Priority));
 8021be0:	6a23      	ldr	r3, [r4, #32]
 8021be2:	b143      	cbz	r3, 8021bf6 <HAL_DMA_Init+0x112>
 8021be4:	f5b3 3f80 	cmp.w	r3, #65536	; 0x10000
 8021be8:	d005      	beq.n	8021bf6 <HAL_DMA_Init+0x112>
 8021bea:	f5b3 3f00 	cmp.w	r3, #131072	; 0x20000
 8021bee:	d002      	beq.n	8021bf6 <HAL_DMA_Init+0x112>
 8021bf0:	f5b3 3f40 	cmp.w	r3, #196608	; 0x30000
 8021bf4:	d15c      	bne.n	8021cb0 <HAL_DMA_Init+0x1cc>
  assert_param(IS_DMA_FIFO_MODE_STATE(hdma->Init.FIFOMode));
 8021bf6:	6a63      	ldr	r3, [r4, #36]	; 0x24
 8021bf8:	b10b      	cbz	r3, 8021bfe <HAL_DMA_Init+0x11a>
 8021bfa:	2b04      	cmp	r3, #4
 8021bfc:	d15d      	bne.n	8021cba <HAL_DMA_Init+0x1d6>
  if(hdma->Init.FIFOMode != DMA_FIFOMODE_DISABLE)
 8021bfe:	6a63      	ldr	r3, [r4, #36]	; 0x24
 8021c00:	b1c3      	cbz	r3, 8021c34 <HAL_DMA_Init+0x150>
    assert_param(IS_DMA_FIFO_THRESHOLD(hdma->Init.FIFOThreshold));
 8021c02:	6aa3      	ldr	r3, [r4, #40]	; 0x28
 8021c04:	2b03      	cmp	r3, #3
 8021c06:	d85d      	bhi.n	8021cc4 <HAL_DMA_Init+0x1e0>
    assert_param(IS_DMA_MEMORY_BURST(hdma->Init.MemBurst));
 8021c08:	6ae3      	ldr	r3, [r4, #44]	; 0x2c
 8021c0a:	b143      	cbz	r3, 8021c1e <HAL_DMA_Init+0x13a>
 8021c0c:	f5b3 0f00 	cmp.w	r3, #8388608	; 0x800000
 8021c10:	d005      	beq.n	8021c1e <HAL_DMA_Init+0x13a>
 8021c12:	f1b3 7f80 	cmp.w	r3, #16777216	; 0x1000000
 8021c16:	d002      	beq.n	8021c1e <HAL_DMA_Init+0x13a>
 8021c18:	f1b3 7fc0 	cmp.w	r3, #25165824	; 0x1800000
 8021c1c:	d157      	bne.n	8021cce <HAL_DMA_Init+0x1ea>
    assert_param(IS_DMA_PERIPHERAL_BURST(hdma->Init.PeriphBurst));
 8021c1e:	6b23      	ldr	r3, [r4, #48]	; 0x30
 8021c20:	b143      	cbz	r3, 8021c34 <HAL_DMA_Init+0x150>
 8021c22:	f5b3 1f00 	cmp.w	r3, #2097152	; 0x200000
 8021c26:	d005      	beq.n	8021c34 <HAL_DMA_Init+0x150>
 8021c28:	f5b3 0f80 	cmp.w	r3, #4194304	; 0x400000
 8021c2c:	d002      	beq.n	8021c34 <HAL_DMA_Init+0x150>
 8021c2e:	f5b3 0fc0 	cmp.w	r3, #6291456	; 0x600000
 8021c32:	d151      	bne.n	8021cd8 <HAL_DMA_Init+0x1f4>
  hdma->State = HAL_DMA_STATE_BUSY;
 8021c34:	2302      	movs	r3, #2
 8021c36:	f884 3035 	strb.w	r3, [r4, #53]	; 0x35
  __HAL_UNLOCK(hdma);
 8021c3a:	2300      	movs	r3, #0
 8021c3c:	f884 3034 	strb.w	r3, [r4, #52]	; 0x34
  __HAL_DMA_DISABLE(hdma);
 8021c40:	6822      	ldr	r2, [r4, #0]
 8021c42:	6813      	ldr	r3, [r2, #0]
 8021c44:	f023 0301 	bic.w	r3, r3, #1
 8021c48:	6013      	str	r3, [r2, #0]
  while((hdma->Instance->CR & DMA_SxCR_EN) != RESET)
 8021c4a:	6823      	ldr	r3, [r4, #0]
 8021c4c:	681a      	ldr	r2, [r3, #0]
 8021c4e:	f012 0f01 	tst.w	r2, #1
 8021c52:	d046      	beq.n	8021ce2 <HAL_DMA_Init+0x1fe>
    if((HAL_GetTick() - tickstart ) > HAL_TIMEOUT_DMA_ABORT)
 8021c54:	f7ff fe44 	bl	80218e0 <HAL_GetTick>
 8021c58:	1b40      	subs	r0, r0, r5
 8021c5a:	2805      	cmp	r0, #5
 8021c5c:	d9f5      	bls.n	8021c4a <HAL_DMA_Init+0x166>
      hdma->ErrorCode = HAL_DMA_ERROR_TIMEOUT;
 8021c5e:	2320      	movs	r3, #32
 8021c60:	6563      	str	r3, [r4, #84]	; 0x54
      hdma->State = HAL_DMA_STATE_TIMEOUT;
 8021c62:	2003      	movs	r0, #3
 8021c64:	f884 0035 	strb.w	r0, [r4, #53]	; 0x35
}
 8021c68:	bd70      	pop	{r4, r5, r6, pc}
  assert_param(IS_DMA_CHANNEL(hdma->Init.Channel));
 8021c6a:	21b8      	movs	r1, #184	; 0xb8
 8021c6c:	483f      	ldr	r0, [pc, #252]	; (8021d6c <HAL_DMA_Init+0x288>)
 8021c6e:	f7ff f97b 	bl	8020f68 <assert_failed>
 8021c72:	e78c      	b.n	8021b8e <HAL_DMA_Init+0xaa>
  assert_param(IS_DMA_DIRECTION(hdma->Init.Direction));
 8021c74:	21b9      	movs	r1, #185	; 0xb9
 8021c76:	483d      	ldr	r0, [pc, #244]	; (8021d6c <HAL_DMA_Init+0x288>)
 8021c78:	f7ff f976 	bl	8020f68 <assert_failed>
 8021c7c:	e78d      	b.n	8021b9a <HAL_DMA_Init+0xb6>
  assert_param(IS_DMA_PERIPHERAL_INC_STATE(hdma->Init.PeriphInc));
 8021c7e:	21ba      	movs	r1, #186	; 0xba
 8021c80:	483a      	ldr	r0, [pc, #232]	; (8021d6c <HAL_DMA_Init+0x288>)
 8021c82:	f7ff f971 	bl	8020f68 <assert_failed>
 8021c86:	e78e      	b.n	8021ba6 <HAL_DMA_Init+0xc2>
  assert_param(IS_DMA_MEMORY_INC_STATE(hdma->Init.MemInc));
 8021c88:	21bb      	movs	r1, #187	; 0xbb
 8021c8a:	4838      	ldr	r0, [pc, #224]	; (8021d6c <HAL_DMA_Init+0x288>)
 8021c8c:	f7ff f96c 	bl	8020f68 <assert_failed>
 8021c90:	e78f      	b.n	8021bb2 <HAL_DMA_Init+0xce>
  assert_param(IS_DMA_PERIPHERAL_DATA_SIZE(hdma->Init.PeriphDataAlignment));
 8021c92:	21bc      	movs	r1, #188	; 0xbc
 8021c94:	4835      	ldr	r0, [pc, #212]	; (8021d6c <HAL_DMA_Init+0x288>)
 8021c96:	f7ff f967 	bl	8020f68 <assert_failed>
 8021c9a:	e792      	b.n	8021bc2 <HAL_DMA_Init+0xde>
  assert_param(IS_DMA_MEMORY_DATA_SIZE(hdma->Init.MemDataAlignment));
 8021c9c:	21bd      	movs	r1, #189	; 0xbd
 8021c9e:	4833      	ldr	r0, [pc, #204]	; (8021d6c <HAL_DMA_Init+0x288>)
 8021ca0:	f7ff f962 	bl	8020f68 <assert_failed>
 8021ca4:	e795      	b.n	8021bd2 <HAL_DMA_Init+0xee>
  assert_param(IS_DMA_MODE(hdma->Init.Mode));
 8021ca6:	21be      	movs	r1, #190	; 0xbe
 8021ca8:	4830      	ldr	r0, [pc, #192]	; (8021d6c <HAL_DMA_Init+0x288>)
 8021caa:	f7ff f95d 	bl	8020f68 <assert_failed>
 8021cae:	e797      	b.n	8021be0 <HAL_DMA_Init+0xfc>
  assert_param(IS_DMA_PRIORITY(hdma->Init.Priority));
 8021cb0:	21bf      	movs	r1, #191	; 0xbf
 8021cb2:	482e      	ldr	r0, [pc, #184]	; (8021d6c <HAL_DMA_Init+0x288>)
 8021cb4:	f7ff f958 	bl	8020f68 <assert_failed>
 8021cb8:	e79d      	b.n	8021bf6 <HAL_DMA_Init+0x112>
  assert_param(IS_DMA_FIFO_MODE_STATE(hdma->Init.FIFOMode));
 8021cba:	21c0      	movs	r1, #192	; 0xc0
 8021cbc:	482b      	ldr	r0, [pc, #172]	; (8021d6c <HAL_DMA_Init+0x288>)
 8021cbe:	f7ff f953 	bl	8020f68 <assert_failed>
 8021cc2:	e79c      	b.n	8021bfe <HAL_DMA_Init+0x11a>
    assert_param(IS_DMA_FIFO_THRESHOLD(hdma->Init.FIFOThreshold));
 8021cc4:	21c5      	movs	r1, #197	; 0xc5
 8021cc6:	4829      	ldr	r0, [pc, #164]	; (8021d6c <HAL_DMA_Init+0x288>)
 8021cc8:	f7ff f94e 	bl	8020f68 <assert_failed>
 8021ccc:	e79c      	b.n	8021c08 <HAL_DMA_Init+0x124>
    assert_param(IS_DMA_MEMORY_BURST(hdma->Init.MemBurst));
 8021cce:	21c6      	movs	r1, #198	; 0xc6
 8021cd0:	4826      	ldr	r0, [pc, #152]	; (8021d6c <HAL_DMA_Init+0x288>)
 8021cd2:	f7ff f949 	bl	8020f68 <assert_failed>
 8021cd6:	e7a2      	b.n	8021c1e <HAL_DMA_Init+0x13a>
    assert_param(IS_DMA_PERIPHERAL_BURST(hdma->Init.PeriphBurst));
 8021cd8:	21c7      	movs	r1, #199	; 0xc7
 8021cda:	4824      	ldr	r0, [pc, #144]	; (8021d6c <HAL_DMA_Init+0x288>)
 8021cdc:	f7ff f944 	bl	8020f68 <assert_failed>
 8021ce0:	e7a8      	b.n	8021c34 <HAL_DMA_Init+0x150>
  tmp = hdma->Instance->CR;
 8021ce2:	681a      	ldr	r2, [r3, #0]
  tmp &= ((uint32_t)~(DMA_SxCR_CHSEL | DMA_SxCR_MBURST | DMA_SxCR_PBURST | \
 8021ce4:	4822      	ldr	r0, [pc, #136]	; (8021d70 <HAL_DMA_Init+0x28c>)
 8021ce6:	4010      	ands	r0, r2
  tmp |=  hdma->Init.Channel             | hdma->Init.Direction        |
 8021ce8:	6861      	ldr	r1, [r4, #4]
 8021cea:	68a2      	ldr	r2, [r4, #8]
 8021cec:	430a      	orrs	r2, r1
          hdma->Init.PeriphInc           | hdma->Init.MemInc           |
 8021cee:	68e1      	ldr	r1, [r4, #12]
  tmp |=  hdma->Init.Channel             | hdma->Init.Direction        |
 8021cf0:	430a      	orrs	r2, r1
          hdma->Init.PeriphInc           | hdma->Init.MemInc           |
 8021cf2:	6921      	ldr	r1, [r4, #16]
 8021cf4:	430a      	orrs	r2, r1
          hdma->Init.PeriphDataAlignment | hdma->Init.MemDataAlignment |
 8021cf6:	6961      	ldr	r1, [r4, #20]
          hdma->Init.PeriphInc           | hdma->Init.MemInc           |
 8021cf8:	430a      	orrs	r2, r1
          hdma->Init.PeriphDataAlignment | hdma->Init.MemDataAlignment |
 8021cfa:	69a1      	ldr	r1, [r4, #24]
 8021cfc:	430a      	orrs	r2, r1
          hdma->Init.Mode                | hdma->Init.Priority;
 8021cfe:	69e1      	ldr	r1, [r4, #28]
          hdma->Init.PeriphDataAlignment | hdma->Init.MemDataAlignment |
 8021d00:	430a      	orrs	r2, r1
          hdma->Init.Mode                | hdma->Init.Priority;
 8021d02:	6a21      	ldr	r1, [r4, #32]
 8021d04:	430a      	orrs	r2, r1
  tmp |=  hdma->Init.Channel             | hdma->Init.Direction        |
 8021d06:	4302      	orrs	r2, r0
  if(hdma->Init.FIFOMode == DMA_FIFOMODE_ENABLE)
 8021d08:	6a61      	ldr	r1, [r4, #36]	; 0x24
 8021d0a:	2904      	cmp	r1, #4
 8021d0c:	d01e      	beq.n	8021d4c <HAL_DMA_Init+0x268>
  hdma->Instance->CR = tmp;  
 8021d0e:	601a      	str	r2, [r3, #0]
  tmp = hdma->Instance->FCR;
 8021d10:	6826      	ldr	r6, [r4, #0]
 8021d12:	6975      	ldr	r5, [r6, #20]
  tmp &= (uint32_t)~(DMA_SxFCR_DMDIS | DMA_SxFCR_FTH);
 8021d14:	f025 0507 	bic.w	r5, r5, #7
  tmp |= hdma->Init.FIFOMode;
 8021d18:	6a63      	ldr	r3, [r4, #36]	; 0x24
 8021d1a:	431d      	orrs	r5, r3
  if(hdma->Init.FIFOMode == DMA_FIFOMODE_ENABLE)
 8021d1c:	2b04      	cmp	r3, #4
 8021d1e:	d107      	bne.n	8021d30 <HAL_DMA_Init+0x24c>
    tmp |= hdma->Init.FIFOThreshold;
 8021d20:	6aa3      	ldr	r3, [r4, #40]	; 0x28
 8021d22:	431d      	orrs	r5, r3
    if (hdma->Init.MemBurst != DMA_MBURST_SINGLE)
 8021d24:	6ae3      	ldr	r3, [r4, #44]	; 0x2c
 8021d26:	b11b      	cbz	r3, 8021d30 <HAL_DMA_Init+0x24c>
      if (DMA_CheckFifoParam(hdma) != HAL_OK)
 8021d28:	4620      	mov	r0, r4
 8021d2a:	f7ff fe93 	bl	8021a54 <DMA_CheckFifoParam>
 8021d2e:	b990      	cbnz	r0, 8021d56 <HAL_DMA_Init+0x272>
  hdma->Instance->FCR = tmp;
 8021d30:	6175      	str	r5, [r6, #20]
  regs = (DMA_Base_Registers *)DMA_CalcBaseAndBitshift(hdma);
 8021d32:	4620      	mov	r0, r4
 8021d34:	f7ff fe6c 	bl	8021a10 <DMA_CalcBaseAndBitshift>
  regs->IFCR = 0x3FU << hdma->StreamIndex;
 8021d38:	6de2      	ldr	r2, [r4, #92]	; 0x5c
 8021d3a:	233f      	movs	r3, #63	; 0x3f
 8021d3c:	4093      	lsls	r3, r2
 8021d3e:	6083      	str	r3, [r0, #8]
  hdma->ErrorCode = HAL_DMA_ERROR_NONE;
 8021d40:	2000      	movs	r0, #0
 8021d42:	6560      	str	r0, [r4, #84]	; 0x54
  hdma->State = HAL_DMA_STATE_READY;
 8021d44:	2301      	movs	r3, #1
 8021d46:	f884 3035 	strb.w	r3, [r4, #53]	; 0x35
  return HAL_OK;
 8021d4a:	e78d      	b.n	8021c68 <HAL_DMA_Init+0x184>
    tmp |=  hdma->Init.MemBurst | hdma->Init.PeriphBurst;
 8021d4c:	6ae1      	ldr	r1, [r4, #44]	; 0x2c
 8021d4e:	6b20      	ldr	r0, [r4, #48]	; 0x30
 8021d50:	4301      	orrs	r1, r0
 8021d52:	430a      	orrs	r2, r1
 8021d54:	e7db      	b.n	8021d0e <HAL_DMA_Init+0x22a>
        hdma->ErrorCode = HAL_DMA_ERROR_PARAM;
 8021d56:	2340      	movs	r3, #64	; 0x40
 8021d58:	6563      	str	r3, [r4, #84]	; 0x54
        hdma->State = HAL_DMA_STATE_READY;
 8021d5a:	2001      	movs	r0, #1
 8021d5c:	f884 0035 	strb.w	r0, [r4, #53]	; 0x35
        return HAL_ERROR; 
 8021d60:	e782      	b.n	8021c68 <HAL_DMA_Init+0x184>
    return HAL_ERROR;
 8021d62:	2001      	movs	r0, #1
 8021d64:	e780      	b.n	8021c68 <HAL_DMA_Init+0x184>
 8021d66:	bf00      	nop
 8021d68:	40026010 	.word	0x40026010
 8021d6c:	0802fea4 	.word	0x0802fea4
 8021d70:	f010803f 	.word	0xf010803f

08021d74 <HAL_DMA_Start_IT>:
{
 8021d74:	e92d 41f0 	stmdb	sp!, {r4, r5, r6, r7, r8, lr}
 8021d78:	4604      	mov	r4, r0
 8021d7a:	460e      	mov	r6, r1
 8021d7c:	4617      	mov	r7, r2
 8021d7e:	461d      	mov	r5, r3
  DMA_Base_Registers *regs = (DMA_Base_Registers *)hdma->StreamBaseAddress;
 8021d80:	f8d0 8058 	ldr.w	r8, [r0, #88]	; 0x58
  assert_param(IS_DMA_BUFFER_SIZE(DataLength));
 8021d84:	1e5a      	subs	r2, r3, #1
 8021d86:	f64f 73fe 	movw	r3, #65534	; 0xfffe
 8021d8a:	429a      	cmp	r2, r3
 8021d8c:	d811      	bhi.n	8021db2 <HAL_DMA_Start_IT+0x3e>
  __HAL_LOCK(hdma);
 8021d8e:	f894 3034 	ldrb.w	r3, [r4, #52]	; 0x34
 8021d92:	2b01      	cmp	r3, #1
 8021d94:	d036      	beq.n	8021e04 <HAL_DMA_Start_IT+0x90>
 8021d96:	2301      	movs	r3, #1
 8021d98:	f884 3034 	strb.w	r3, [r4, #52]	; 0x34
  if(HAL_DMA_STATE_READY == hdma->State)
 8021d9c:	f894 3035 	ldrb.w	r3, [r4, #53]	; 0x35
 8021da0:	b2db      	uxtb	r3, r3
 8021da2:	2b01      	cmp	r3, #1
 8021da4:	d00b      	beq.n	8021dbe <HAL_DMA_Start_IT+0x4a>
    __HAL_UNLOCK(hdma);	  
 8021da6:	2300      	movs	r3, #0
 8021da8:	f884 3034 	strb.w	r3, [r4, #52]	; 0x34
    status = HAL_BUSY;
 8021dac:	2002      	movs	r0, #2
}
 8021dae:	e8bd 81f0 	ldmia.w	sp!, {r4, r5, r6, r7, r8, pc}
  assert_param(IS_DMA_BUFFER_SIZE(DataLength));
 8021db2:	f240 11cb 	movw	r1, #459	; 0x1cb
 8021db6:	4814      	ldr	r0, [pc, #80]	; (8021e08 <HAL_DMA_Start_IT+0x94>)
 8021db8:	f7ff f8d6 	bl	8020f68 <assert_failed>
 8021dbc:	e7e7      	b.n	8021d8e <HAL_DMA_Start_IT+0x1a>
    hdma->State = HAL_DMA_STATE_BUSY;
 8021dbe:	2302      	movs	r3, #2
 8021dc0:	f884 3035 	strb.w	r3, [r4, #53]	; 0x35
    hdma->ErrorCode = HAL_DMA_ERROR_NONE;
 8021dc4:	2300      	movs	r3, #0
 8021dc6:	6563      	str	r3, [r4, #84]	; 0x54
    DMA_SetConfig(hdma, SrcAddress, DstAddress, DataLength);
 8021dc8:	462b      	mov	r3, r5
 8021dca:	463a      	mov	r2, r7
 8021dcc:	4631      	mov	r1, r6
 8021dce:	4620      	mov	r0, r4
 8021dd0:	f7ff fe08 	bl	80219e4 <DMA_SetConfig>
    regs->IFCR = 0x3FU << hdma->StreamIndex;
 8021dd4:	6de2      	ldr	r2, [r4, #92]	; 0x5c
 8021dd6:	233f      	movs	r3, #63	; 0x3f
 8021dd8:	4093      	lsls	r3, r2
 8021dda:	f8c8 3008 	str.w	r3, [r8, #8]
    hdma->Instance->CR  |= DMA_IT_TC | DMA_IT_TE | DMA_IT_DME;
 8021dde:	6822      	ldr	r2, [r4, #0]
 8021de0:	6813      	ldr	r3, [r2, #0]
 8021de2:	f043 0316 	orr.w	r3, r3, #22
 8021de6:	6013      	str	r3, [r2, #0]
    if(hdma->XferHalfCpltCallback != NULL)
 8021de8:	6c23      	ldr	r3, [r4, #64]	; 0x40
 8021dea:	b123      	cbz	r3, 8021df6 <HAL_DMA_Start_IT+0x82>
      hdma->Instance->CR  |= DMA_IT_HT;
 8021dec:	6822      	ldr	r2, [r4, #0]
 8021dee:	6813      	ldr	r3, [r2, #0]
 8021df0:	f043 0308 	orr.w	r3, r3, #8
 8021df4:	6013      	str	r3, [r2, #0]
    __HAL_DMA_ENABLE(hdma);
 8021df6:	6822      	ldr	r2, [r4, #0]
 8021df8:	6813      	ldr	r3, [r2, #0]
 8021dfa:	f043 0301 	orr.w	r3, r3, #1
 8021dfe:	6013      	str	r3, [r2, #0]
  HAL_StatusTypeDef status = HAL_OK;
 8021e00:	2000      	movs	r0, #0
 8021e02:	e7d4      	b.n	8021dae <HAL_DMA_Start_IT+0x3a>
  __HAL_LOCK(hdma);
 8021e04:	2002      	movs	r0, #2
 8021e06:	e7d2      	b.n	8021dae <HAL_DMA_Start_IT+0x3a>
 8021e08:	0802fea4 	.word	0x0802fea4

08021e0c <HAL_DMA_Abort>:
{
 8021e0c:	b570      	push	{r4, r5, r6, lr}
 8021e0e:	4604      	mov	r4, r0
  DMA_Base_Registers *regs = (DMA_Base_Registers *)hdma->StreamBaseAddress;
 8021e10:	6d86      	ldr	r6, [r0, #88]	; 0x58
  uint32_t tickstart = HAL_GetTick();
 8021e12:	f7ff fd65 	bl	80218e0 <HAL_GetTick>
  if(hdma->State != HAL_DMA_STATE_BUSY)
 8021e16:	f894 3035 	ldrb.w	r3, [r4, #53]	; 0x35
 8021e1a:	b2db      	uxtb	r3, r3
 8021e1c:	2b02      	cmp	r3, #2
 8021e1e:	d006      	beq.n	8021e2e <HAL_DMA_Abort+0x22>
    hdma->ErrorCode = HAL_DMA_ERROR_NO_XFER;
 8021e20:	2380      	movs	r3, #128	; 0x80
 8021e22:	6563      	str	r3, [r4, #84]	; 0x54
    __HAL_UNLOCK(hdma);
 8021e24:	2300      	movs	r3, #0
 8021e26:	f884 3034 	strb.w	r3, [r4, #52]	; 0x34
    return HAL_ERROR;
 8021e2a:	2001      	movs	r0, #1
}
 8021e2c:	bd70      	pop	{r4, r5, r6, pc}
 8021e2e:	4605      	mov	r5, r0
    hdma->Instance->CR  &= ~(DMA_IT_TC | DMA_IT_TE | DMA_IT_DME);
 8021e30:	6822      	ldr	r2, [r4, #0]
 8021e32:	6813      	ldr	r3, [r2, #0]
 8021e34:	f023 0316 	bic.w	r3, r3, #22
 8021e38:	6013      	str	r3, [r2, #0]
    hdma->Instance->FCR &= ~(DMA_IT_FE);
 8021e3a:	6822      	ldr	r2, [r4, #0]
 8021e3c:	6953      	ldr	r3, [r2, #20]
 8021e3e:	f023 0380 	bic.w	r3, r3, #128	; 0x80
 8021e42:	6153      	str	r3, [r2, #20]
    if((hdma->XferHalfCpltCallback != NULL) || (hdma->XferM1HalfCpltCallback != NULL))
 8021e44:	6c23      	ldr	r3, [r4, #64]	; 0x40
 8021e46:	b1e3      	cbz	r3, 8021e82 <HAL_DMA_Abort+0x76>
      hdma->Instance->CR  &= ~(DMA_IT_HT);
 8021e48:	6822      	ldr	r2, [r4, #0]
 8021e4a:	6813      	ldr	r3, [r2, #0]
 8021e4c:	f023 0308 	bic.w	r3, r3, #8
 8021e50:	6013      	str	r3, [r2, #0]
    __HAL_DMA_DISABLE(hdma);
 8021e52:	6822      	ldr	r2, [r4, #0]
 8021e54:	6813      	ldr	r3, [r2, #0]
 8021e56:	f023 0301 	bic.w	r3, r3, #1
 8021e5a:	6013      	str	r3, [r2, #0]
    while((hdma->Instance->CR & DMA_SxCR_EN) != RESET)
 8021e5c:	6823      	ldr	r3, [r4, #0]
 8021e5e:	681b      	ldr	r3, [r3, #0]
 8021e60:	f013 0f01 	tst.w	r3, #1
 8021e64:	d011      	beq.n	8021e8a <HAL_DMA_Abort+0x7e>
      if((HAL_GetTick() - tickstart ) > HAL_TIMEOUT_DMA_ABORT)
 8021e66:	f7ff fd3b 	bl	80218e0 <HAL_GetTick>
 8021e6a:	1b43      	subs	r3, r0, r5
 8021e6c:	2b05      	cmp	r3, #5
 8021e6e:	d9f5      	bls.n	8021e5c <HAL_DMA_Abort+0x50>
        hdma->ErrorCode = HAL_DMA_ERROR_TIMEOUT;
 8021e70:	2320      	movs	r3, #32
 8021e72:	6563      	str	r3, [r4, #84]	; 0x54
        hdma->State = HAL_DMA_STATE_TIMEOUT;
 8021e74:	2003      	movs	r0, #3
 8021e76:	f884 0035 	strb.w	r0, [r4, #53]	; 0x35
        __HAL_UNLOCK(hdma);
 8021e7a:	2300      	movs	r3, #0
 8021e7c:	f884 3034 	strb.w	r3, [r4, #52]	; 0x34
        return HAL_TIMEOUT;
 8021e80:	e7d4      	b.n	8021e2c <HAL_DMA_Abort+0x20>
    if((hdma->XferHalfCpltCallback != NULL) || (hdma->XferM1HalfCpltCallback != NULL))
 8021e82:	6ca3      	ldr	r3, [r4, #72]	; 0x48
 8021e84:	2b00      	cmp	r3, #0
 8021e86:	d1df      	bne.n	8021e48 <HAL_DMA_Abort+0x3c>
 8021e88:	e7e3      	b.n	8021e52 <HAL_DMA_Abort+0x46>
    regs->IFCR = 0x3FU << hdma->StreamIndex;
 8021e8a:	6de2      	ldr	r2, [r4, #92]	; 0x5c
 8021e8c:	233f      	movs	r3, #63	; 0x3f
 8021e8e:	4093      	lsls	r3, r2
 8021e90:	60b3      	str	r3, [r6, #8]
    hdma->State = HAL_DMA_STATE_READY;
 8021e92:	2301      	movs	r3, #1
 8021e94:	f884 3035 	strb.w	r3, [r4, #53]	; 0x35
    __HAL_UNLOCK(hdma);
 8021e98:	2000      	movs	r0, #0
 8021e9a:	f884 0034 	strb.w	r0, [r4, #52]	; 0x34
  return HAL_OK;
 8021e9e:	e7c5      	b.n	8021e2c <HAL_DMA_Abort+0x20>

08021ea0 <HAL_DMA_Abort_IT>:
  if(hdma->State != HAL_DMA_STATE_BUSY)
 8021ea0:	f890 3035 	ldrb.w	r3, [r0, #53]	; 0x35
 8021ea4:	b2db      	uxtb	r3, r3
 8021ea6:	2b02      	cmp	r3, #2
 8021ea8:	d003      	beq.n	8021eb2 <HAL_DMA_Abort_IT+0x12>
    hdma->ErrorCode = HAL_DMA_ERROR_NO_XFER;
 8021eaa:	2380      	movs	r3, #128	; 0x80
 8021eac:	6543      	str	r3, [r0, #84]	; 0x54
    return HAL_ERROR;
 8021eae:	2001      	movs	r0, #1
 8021eb0:	4770      	bx	lr
    hdma->State = HAL_DMA_STATE_ABORT;
 8021eb2:	2305      	movs	r3, #5
 8021eb4:	f880 3035 	strb.w	r3, [r0, #53]	; 0x35
    __HAL_DMA_DISABLE(hdma);
 8021eb8:	6802      	ldr	r2, [r0, #0]
 8021eba:	6813      	ldr	r3, [r2, #0]
 8021ebc:	f023 0301 	bic.w	r3, r3, #1
 8021ec0:	6013      	str	r3, [r2, #0]
  return HAL_OK;
 8021ec2:	2000      	movs	r0, #0
}
 8021ec4:	4770      	bx	lr
	...

08021ec8 <HAL_DMA_IRQHandler>:
{
 8021ec8:	b5f0      	push	{r4, r5, r6, r7, lr}
 8021eca:	b083      	sub	sp, #12
 8021ecc:	4604      	mov	r4, r0
  __IO uint32_t count = 0U;
 8021ece:	2300      	movs	r3, #0
 8021ed0:	9301      	str	r3, [sp, #4]
  uint32_t timeout = SystemCoreClock / 9600U;
 8021ed2:	4b72      	ldr	r3, [pc, #456]	; (802209c <HAL_DMA_IRQHandler+0x1d4>)
 8021ed4:	681d      	ldr	r5, [r3, #0]
 8021ed6:	4b72      	ldr	r3, [pc, #456]	; (80220a0 <HAL_DMA_IRQHandler+0x1d8>)
 8021ed8:	fba3 3505 	umull	r3, r5, r3, r5
 8021edc:	0aad      	lsrs	r5, r5, #10
  DMA_Base_Registers *regs = (DMA_Base_Registers *)hdma->StreamBaseAddress;
 8021ede:	6d87      	ldr	r7, [r0, #88]	; 0x58
  tmpisr = regs->ISR;
 8021ee0:	683e      	ldr	r6, [r7, #0]
  if ((tmpisr & (DMA_FLAG_TEIF0_4 << hdma->StreamIndex)) != RESET)
 8021ee2:	6dc2      	ldr	r2, [r0, #92]	; 0x5c
 8021ee4:	2308      	movs	r3, #8
 8021ee6:	4093      	lsls	r3, r2
 8021ee8:	4233      	tst	r3, r6
 8021eea:	d010      	beq.n	8021f0e <HAL_DMA_IRQHandler+0x46>
    if(__HAL_DMA_GET_IT_SOURCE(hdma, DMA_IT_TE) != RESET)
 8021eec:	6803      	ldr	r3, [r0, #0]
 8021eee:	681a      	ldr	r2, [r3, #0]
 8021ef0:	f012 0f04 	tst.w	r2, #4
 8021ef4:	d00b      	beq.n	8021f0e <HAL_DMA_IRQHandler+0x46>
      hdma->Instance->CR  &= ~(DMA_IT_TE);
 8021ef6:	681a      	ldr	r2, [r3, #0]
 8021ef8:	f022 0204 	bic.w	r2, r2, #4
 8021efc:	601a      	str	r2, [r3, #0]
      regs->IFCR = DMA_FLAG_TEIF0_4 << hdma->StreamIndex;
 8021efe:	6dc2      	ldr	r2, [r0, #92]	; 0x5c
 8021f00:	2308      	movs	r3, #8
 8021f02:	4093      	lsls	r3, r2
 8021f04:	60bb      	str	r3, [r7, #8]
      hdma->ErrorCode |= HAL_DMA_ERROR_TE;
 8021f06:	6d43      	ldr	r3, [r0, #84]	; 0x54
 8021f08:	f043 0301 	orr.w	r3, r3, #1
 8021f0c:	6543      	str	r3, [r0, #84]	; 0x54
  if ((tmpisr & (DMA_FLAG_FEIF0_4 << hdma->StreamIndex)) != RESET)
 8021f0e:	6de2      	ldr	r2, [r4, #92]	; 0x5c
 8021f10:	2301      	movs	r3, #1
 8021f12:	4093      	lsls	r3, r2
 8021f14:	4233      	tst	r3, r6
 8021f16:	d009      	beq.n	8021f2c <HAL_DMA_IRQHandler+0x64>
    if(__HAL_DMA_GET_IT_SOURCE(hdma, DMA_IT_FE) != RESET)
 8021f18:	6822      	ldr	r2, [r4, #0]
 8021f1a:	6952      	ldr	r2, [r2, #20]
 8021f1c:	f012 0f80 	tst.w	r2, #128	; 0x80
 8021f20:	d004      	beq.n	8021f2c <HAL_DMA_IRQHandler+0x64>
      regs->IFCR = DMA_FLAG_FEIF0_4 << hdma->StreamIndex;
 8021f22:	60bb      	str	r3, [r7, #8]
      hdma->ErrorCode |= HAL_DMA_ERROR_FE;
 8021f24:	6d63      	ldr	r3, [r4, #84]	; 0x54
 8021f26:	f043 0302 	orr.w	r3, r3, #2
 8021f2a:	6563      	str	r3, [r4, #84]	; 0x54
  if ((tmpisr & (DMA_FLAG_DMEIF0_4 << hdma->StreamIndex)) != RESET)
 8021f2c:	6de2      	ldr	r2, [r4, #92]	; 0x5c
 8021f2e:	2304      	movs	r3, #4
 8021f30:	4093      	lsls	r3, r2
 8021f32:	4233      	tst	r3, r6
 8021f34:	d009      	beq.n	8021f4a <HAL_DMA_IRQHandler+0x82>
    if(__HAL_DMA_GET_IT_SOURCE(hdma, DMA_IT_DME) != RESET)
 8021f36:	6822      	ldr	r2, [r4, #0]
 8021f38:	6812      	ldr	r2, [r2, #0]
 8021f3a:	f012 0f02 	tst.w	r2, #2
 8021f3e:	d004      	beq.n	8021f4a <HAL_DMA_IRQHandler+0x82>
      regs->IFCR = DMA_FLAG_DMEIF0_4 << hdma->StreamIndex;
 8021f40:	60bb      	str	r3, [r7, #8]
      hdma->ErrorCode |= HAL_DMA_ERROR_DME;
 8021f42:	6d63      	ldr	r3, [r4, #84]	; 0x54
 8021f44:	f043 0304 	orr.w	r3, r3, #4
 8021f48:	6563      	str	r3, [r4, #84]	; 0x54
  if ((tmpisr & (DMA_FLAG_HTIF0_4 << hdma->StreamIndex)) != RESET)
 8021f4a:	6de2      	ldr	r2, [r4, #92]	; 0x5c
 8021f4c:	2310      	movs	r3, #16
 8021f4e:	4093      	lsls	r3, r2
 8021f50:	4233      	tst	r3, r6
 8021f52:	d024      	beq.n	8021f9e <HAL_DMA_IRQHandler+0xd6>
    if(__HAL_DMA_GET_IT_SOURCE(hdma, DMA_IT_HT) != RESET)
 8021f54:	6822      	ldr	r2, [r4, #0]
 8021f56:	6812      	ldr	r2, [r2, #0]
 8021f58:	f012 0f08 	tst.w	r2, #8
 8021f5c:	d01f      	beq.n	8021f9e <HAL_DMA_IRQHandler+0xd6>
      regs->IFCR = DMA_FLAG_HTIF0_4 << hdma->StreamIndex;
 8021f5e:	60bb      	str	r3, [r7, #8]
      if(((hdma->Instance->CR) & (uint32_t)(DMA_SxCR_DBM)) != RESET)
 8021f60:	6823      	ldr	r3, [r4, #0]
 8021f62:	681a      	ldr	r2, [r3, #0]
 8021f64:	f412 2f80 	tst.w	r2, #262144	; 0x40000
 8021f68:	d00d      	beq.n	8021f86 <HAL_DMA_IRQHandler+0xbe>
        if((hdma->Instance->CR & DMA_SxCR_CT) == RESET)
 8021f6a:	681b      	ldr	r3, [r3, #0]
 8021f6c:	f413 2f00 	tst.w	r3, #524288	; 0x80000
 8021f70:	d104      	bne.n	8021f7c <HAL_DMA_IRQHandler+0xb4>
          if(hdma->XferHalfCpltCallback != NULL)
 8021f72:	6c23      	ldr	r3, [r4, #64]	; 0x40
 8021f74:	b19b      	cbz	r3, 8021f9e <HAL_DMA_IRQHandler+0xd6>
            hdma->XferHalfCpltCallback(hdma);
 8021f76:	4620      	mov	r0, r4
 8021f78:	4798      	blx	r3
 8021f7a:	e010      	b.n	8021f9e <HAL_DMA_IRQHandler+0xd6>
          if(hdma->XferM1HalfCpltCallback != NULL)
 8021f7c:	6ca3      	ldr	r3, [r4, #72]	; 0x48
 8021f7e:	b173      	cbz	r3, 8021f9e <HAL_DMA_IRQHandler+0xd6>
            hdma->XferM1HalfCpltCallback(hdma);
 8021f80:	4620      	mov	r0, r4
 8021f82:	4798      	blx	r3
 8021f84:	e00b      	b.n	8021f9e <HAL_DMA_IRQHandler+0xd6>
        if((hdma->Instance->CR & DMA_SxCR_CIRC) == RESET)
 8021f86:	681a      	ldr	r2, [r3, #0]
 8021f88:	f412 7f80 	tst.w	r2, #256	; 0x100
 8021f8c:	d103      	bne.n	8021f96 <HAL_DMA_IRQHandler+0xce>
          hdma->Instance->CR  &= ~(DMA_IT_HT);
 8021f8e:	681a      	ldr	r2, [r3, #0]
 8021f90:	f022 0208 	bic.w	r2, r2, #8
 8021f94:	601a      	str	r2, [r3, #0]
        if(hdma->XferHalfCpltCallback != NULL)
 8021f96:	6c23      	ldr	r3, [r4, #64]	; 0x40
 8021f98:	b10b      	cbz	r3, 8021f9e <HAL_DMA_IRQHandler+0xd6>
          hdma->XferHalfCpltCallback(hdma);
 8021f9a:	4620      	mov	r0, r4
 8021f9c:	4798      	blx	r3
  if ((tmpisr & (DMA_FLAG_TCIF0_4 << hdma->StreamIndex)) != RESET)
 8021f9e:	6de2      	ldr	r2, [r4, #92]	; 0x5c
 8021fa0:	2320      	movs	r3, #32
 8021fa2:	4093      	lsls	r3, r2
 8021fa4:	4233      	tst	r3, r6
 8021fa6:	d055      	beq.n	8022054 <HAL_DMA_IRQHandler+0x18c>
    if(__HAL_DMA_GET_IT_SOURCE(hdma, DMA_IT_TC) != RESET)
 8021fa8:	6822      	ldr	r2, [r4, #0]
 8021faa:	6812      	ldr	r2, [r2, #0]
 8021fac:	f012 0f10 	tst.w	r2, #16
 8021fb0:	d050      	beq.n	8022054 <HAL_DMA_IRQHandler+0x18c>
      regs->IFCR = DMA_FLAG_TCIF0_4 << hdma->StreamIndex;
 8021fb2:	60bb      	str	r3, [r7, #8]
      if(HAL_DMA_STATE_ABORT == hdma->State)
 8021fb4:	f894 3035 	ldrb.w	r3, [r4, #53]	; 0x35
 8021fb8:	b2db      	uxtb	r3, r3
 8021fba:	2b05      	cmp	r3, #5
 8021fbc:	d00e      	beq.n	8021fdc <HAL_DMA_IRQHandler+0x114>
      if(((hdma->Instance->CR) & (uint32_t)(DMA_SxCR_DBM)) != RESET)
 8021fbe:	6823      	ldr	r3, [r4, #0]
 8021fc0:	681a      	ldr	r2, [r3, #0]
 8021fc2:	f412 2f80 	tst.w	r2, #262144	; 0x40000
 8021fc6:	d033      	beq.n	8022030 <HAL_DMA_IRQHandler+0x168>
        if((hdma->Instance->CR & DMA_SxCR_CT) == RESET)
 8021fc8:	681b      	ldr	r3, [r3, #0]
 8021fca:	f413 2f00 	tst.w	r3, #524288	; 0x80000
 8021fce:	d12a      	bne.n	8022026 <HAL_DMA_IRQHandler+0x15e>
          if(hdma->XferM1CpltCallback != NULL)
 8021fd0:	6c63      	ldr	r3, [r4, #68]	; 0x44
 8021fd2:	2b00      	cmp	r3, #0
 8021fd4:	d03e      	beq.n	8022054 <HAL_DMA_IRQHandler+0x18c>
            hdma->XferM1CpltCallback(hdma);
 8021fd6:	4620      	mov	r0, r4
 8021fd8:	4798      	blx	r3
 8021fda:	e03b      	b.n	8022054 <HAL_DMA_IRQHandler+0x18c>
        hdma->Instance->CR  &= ~(DMA_IT_TC | DMA_IT_TE | DMA_IT_DME);
 8021fdc:	6822      	ldr	r2, [r4, #0]
 8021fde:	6813      	ldr	r3, [r2, #0]
 8021fe0:	f023 0316 	bic.w	r3, r3, #22
 8021fe4:	6013      	str	r3, [r2, #0]
        hdma->Instance->FCR &= ~(DMA_IT_FE);
 8021fe6:	6822      	ldr	r2, [r4, #0]
 8021fe8:	6953      	ldr	r3, [r2, #20]
 8021fea:	f023 0380 	bic.w	r3, r3, #128	; 0x80
 8021fee:	6153      	str	r3, [r2, #20]
        if((hdma->XferHalfCpltCallback != NULL) || (hdma->XferM1HalfCpltCallback != NULL))
 8021ff0:	6c23      	ldr	r3, [r4, #64]	; 0x40
 8021ff2:	b1a3      	cbz	r3, 802201e <HAL_DMA_IRQHandler+0x156>
          hdma->Instance->CR  &= ~(DMA_IT_HT);
 8021ff4:	6822      	ldr	r2, [r4, #0]
 8021ff6:	6813      	ldr	r3, [r2, #0]
 8021ff8:	f023 0308 	bic.w	r3, r3, #8
 8021ffc:	6013      	str	r3, [r2, #0]
        regs->IFCR = 0x3FU << hdma->StreamIndex;
 8021ffe:	6de2      	ldr	r2, [r4, #92]	; 0x5c
 8022000:	233f      	movs	r3, #63	; 0x3f
 8022002:	4093      	lsls	r3, r2
 8022004:	60bb      	str	r3, [r7, #8]
        hdma->State = HAL_DMA_STATE_READY;
 8022006:	2301      	movs	r3, #1
 8022008:	f884 3035 	strb.w	r3, [r4, #53]	; 0x35
        __HAL_UNLOCK(hdma);
 802200c:	2300      	movs	r3, #0
 802200e:	f884 3034 	strb.w	r3, [r4, #52]	; 0x34
        if(hdma->XferAbortCallback != NULL)
 8022012:	6d23      	ldr	r3, [r4, #80]	; 0x50
 8022014:	2b00      	cmp	r3, #0
 8022016:	d03f      	beq.n	8022098 <HAL_DMA_IRQHandler+0x1d0>
          hdma->XferAbortCallback(hdma);
 8022018:	4620      	mov	r0, r4
 802201a:	4798      	blx	r3
        return;
 802201c:	e03c      	b.n	8022098 <HAL_DMA_IRQHandler+0x1d0>
        if((hdma->XferHalfCpltCallback != NULL) || (hdma->XferM1HalfCpltCallback != NULL))
 802201e:	6ca3      	ldr	r3, [r4, #72]	; 0x48
 8022020:	2b00      	cmp	r3, #0
 8022022:	d1e7      	bne.n	8021ff4 <HAL_DMA_IRQHandler+0x12c>
 8022024:	e7eb      	b.n	8021ffe <HAL_DMA_IRQHandler+0x136>
          if(hdma->XferCpltCallback != NULL)
 8022026:	6be3      	ldr	r3, [r4, #60]	; 0x3c
 8022028:	b1a3      	cbz	r3, 8022054 <HAL_DMA_IRQHandler+0x18c>
            hdma->XferCpltCallback(hdma);
 802202a:	4620      	mov	r0, r4
 802202c:	4798      	blx	r3
 802202e:	e011      	b.n	8022054 <HAL_DMA_IRQHandler+0x18c>
        if((hdma->Instance->CR & DMA_SxCR_CIRC) == RESET)
 8022030:	681a      	ldr	r2, [r3, #0]
 8022032:	f412 7f80 	tst.w	r2, #256	; 0x100
 8022036:	d109      	bne.n	802204c <HAL_DMA_IRQHandler+0x184>
          hdma->Instance->CR  &= ~(DMA_IT_TC);
 8022038:	681a      	ldr	r2, [r3, #0]
 802203a:	f022 0210 	bic.w	r2, r2, #16
 802203e:	601a      	str	r2, [r3, #0]
          hdma->State = HAL_DMA_STATE_READY;
 8022040:	2301      	movs	r3, #1
 8022042:	f884 3035 	strb.w	r3, [r4, #53]	; 0x35
          __HAL_UNLOCK(hdma);
 8022046:	2300      	movs	r3, #0
 8022048:	f884 3034 	strb.w	r3, [r4, #52]	; 0x34
        if(hdma->XferCpltCallback != NULL)
 802204c:	6be3      	ldr	r3, [r4, #60]	; 0x3c
 802204e:	b10b      	cbz	r3, 8022054 <HAL_DMA_IRQHandler+0x18c>
          hdma->XferCpltCallback(hdma);
 8022050:	4620      	mov	r0, r4
 8022052:	4798      	blx	r3
  if(hdma->ErrorCode != HAL_DMA_ERROR_NONE)
 8022054:	6d63      	ldr	r3, [r4, #84]	; 0x54
 8022056:	b1fb      	cbz	r3, 8022098 <HAL_DMA_IRQHandler+0x1d0>
    if((hdma->ErrorCode & HAL_DMA_ERROR_TE) != RESET)
 8022058:	6d63      	ldr	r3, [r4, #84]	; 0x54
 802205a:	f013 0f01 	tst.w	r3, #1
 802205e:	d017      	beq.n	8022090 <HAL_DMA_IRQHandler+0x1c8>
      hdma->State = HAL_DMA_STATE_ABORT;
 8022060:	2305      	movs	r3, #5
 8022062:	f884 3035 	strb.w	r3, [r4, #53]	; 0x35
      __HAL_DMA_DISABLE(hdma);
 8022066:	6822      	ldr	r2, [r4, #0]
 8022068:	6813      	ldr	r3, [r2, #0]
 802206a:	f023 0301 	bic.w	r3, r3, #1
 802206e:	6013      	str	r3, [r2, #0]
        if (++count > timeout)
 8022070:	9b01      	ldr	r3, [sp, #4]
 8022072:	3301      	adds	r3, #1
 8022074:	9301      	str	r3, [sp, #4]
 8022076:	42ab      	cmp	r3, r5
 8022078:	d804      	bhi.n	8022084 <HAL_DMA_IRQHandler+0x1bc>
      while((hdma->Instance->CR & DMA_SxCR_EN) != RESET);
 802207a:	6823      	ldr	r3, [r4, #0]
 802207c:	681b      	ldr	r3, [r3, #0]
 802207e:	f013 0f01 	tst.w	r3, #1
 8022082:	d1f5      	bne.n	8022070 <HAL_DMA_IRQHandler+0x1a8>
      hdma->State = HAL_DMA_STATE_READY;
 8022084:	2301      	movs	r3, #1
 8022086:	f884 3035 	strb.w	r3, [r4, #53]	; 0x35
      __HAL_UNLOCK(hdma);
 802208a:	2300      	movs	r3, #0
